{
	"contracts/HealthWallet.sol": {
		"HealthWallet": {
			"abi": [
				{
					"anonymous": false,
					"inputs": [
						{
							"indexed": true,
							"internalType": "address",
							"name": "patient",
							"type": "address"
						},
						{
							"indexed": true,
							"internalType": "address",
							"name": "grantedTo",
							"type": "address"
						},
						{
							"indexed": false,
							"internalType": "uint256",
							"name": "expiryTime",
							"type": "uint256"
						}
					],
					"name": "AccessGranted",
					"type": "event"
				},
				{
					"anonymous": false,
					"inputs": [
						{
							"indexed": true,
							"internalType": "address",
							"name": "patient",
							"type": "address"
						},
						{
							"indexed": true,
							"internalType": "address",
							"name": "revokedFrom",
							"type": "address"
						}
					],
					"name": "AccessRevoked",
					"type": "event"
				},
				{
					"anonymous": false,
					"inputs": [
						{
							"indexed": true,
							"internalType": "address",
							"name": "patient",
							"type": "address"
						},
						{
							"indexed": true,
							"internalType": "address",
							"name": "emergencyContact",
							"type": "address"
						},
						{
							"indexed": false,
							"internalType": "uint256",
							"name": "timestamp",
							"type": "uint256"
						}
					],
					"name": "EmergencyAccessUsed",
					"type": "event"
				},
				{
					"anonymous": false,
					"inputs": [
						{
							"indexed": true,
							"internalType": "uint256",
							"name": "recordId",
							"type": "uint256"
						},
						{
							"indexed": true,
							"internalType": "address",
							"name": "accessor",
							"type": "address"
						},
						{
							"indexed": false,
							"internalType": "uint256",
							"name": "timestamp",
							"type": "uint256"
						}
					],
					"name": "RecordAccessed",
					"type": "event"
				},
				{
					"anonymous": false,
					"inputs": [
						{
							"indexed": true,
							"internalType": "uint256",
							"name": "recordId",
							"type": "uint256"
						},
						{
							"indexed": true,
							"internalType": "address",
							"name": "patient",
							"type": "address"
						},
						{
							"indexed": false,
							"internalType": "string",
							"name": "ipfsHash",
							"type": "string"
						},
						{
							"indexed": false,
							"internalType": "enum HealthWallet.RecordType",
							"name": "recordType",
							"type": "uint8"
						}
					],
					"name": "RecordAdded",
					"type": "event"
				},
				{
					"anonymous": false,
					"inputs": [
						{
							"indexed": true,
							"internalType": "uint256",
							"name": "recordId",
							"type": "uint256"
						},
						{
							"indexed": false,
							"internalType": "string",
							"name": "newIpfsHash",
							"type": "string"
						},
						{
							"indexed": false,
							"internalType": "uint256",
							"name": "version",
							"type": "uint256"
						}
					],
					"name": "RecordUpdated",
					"type": "event"
				},
				{
					"inputs": [
						{
							"internalType": "string",
							"name": "_ipfsHash",
							"type": "string"
						},
						{
							"internalType": "enum HealthWallet.RecordType",
							"name": "_recordType",
							"type": "uint8"
						},
						{
							"internalType": "string",
							"name": "_encryptedKey",
							"type": "string"
						}
					],
					"name": "addRecord",
					"outputs": [
						{
							"internalType": "uint256",
							"name": "",
							"type": "uint256"
						}
					],
					"stateMutability": "nonpayable",
					"type": "function"
				},
				{
					"inputs": [
						{
							"internalType": "address",
							"name": "_patientAddress",
							"type": "address"
						},
						{
							"internalType": "string",
							"name": "_ipfsHash",
							"type": "string"
						},
						{
							"internalType": "enum HealthWallet.RecordType",
							"name": "_recordType",
							"type": "uint8"
						},
						{
							"internalType": "string",
							"name": "_encryptedKey",
							"type": "string"
						}
					],
					"name": "addRecordByProvider",
					"outputs": [
						{
							"internalType": "uint256",
							"name": "",
							"type": "uint256"
						}
					],
					"stateMutability": "nonpayable",
					"type": "function"
				},
				{
					"inputs": [
						{
							"internalType": "uint256",
							"name": "_recordId",
							"type": "uint256"
						}
					],
					"name": "deleteRecord",
					"outputs": [],
					"stateMutability": "nonpayable",
					"type": "function"
				},
				{
					"inputs": [
						{
							"internalType": "address",
							"name": "",
							"type": "address"
						}
					],
					"name": "emergencyContact",
					"outputs": [
						{
							"internalType": "address",
							"name": "",
							"type": "address"
						}
					],
					"stateMutability": "view",
					"type": "function"
				},
				{
					"inputs": [
						{
							"internalType": "address",
							"name": "_patient",
							"type": "address"
						},
						{
							"internalType": "address",
							"name": "_grantee",
							"type": "address"
						}
					],
					"name": "getAccessGrant",
					"outputs": [
						{
							"components": [
								{
									"internalType": "address",
									"name": "grantedTo",
									"type": "address"
								},
								{
									"internalType": "uint256[]",
									"name": "recordIds",
									"type": "uint256[]"
								},
								{
									"internalType": "uint256",
									"name": "expiryTime",
									"type": "uint256"
								},
								{
									"internalType": "bool",
									"name": "isActive",
									"type": "bool"
								},
								{
									"internalType": "uint256",
									"name": "grantedAt",
									"type": "uint256"
								}
							],
							"internalType": "struct HealthWallet.AccessGrant",
							"name": "",
							"type": "tuple"
						}
					],
					"stateMutability": "view",
					"type": "function"
				},
				{
					"inputs": [
						{
							"internalType": "uint256",
							"name": "_recordId",
							"type": "uint256"
						}
					],
					"name": "getAuditLogs",
					"outputs": [
						{
							"components": [
								{
									"internalType": "address",
									"name": "accessor",
									"type": "address"
								},
								{
									"internalType": "uint256",
									"name": "timestamp",
									"type": "uint256"
								},
								{
									"internalType": "string",
									"name": "action",
									"type": "string"
								}
							],
							"internalType": "struct HealthWallet.AccessLog[]",
							"name": "",
							"type": "tuple[]"
						}
					],
					"stateMutability": "view",
					"type": "function"
				},
				{
					"inputs": [
						{
							"internalType": "address",
							"name": "_patient",
							"type": "address"
						}
					],
					"name": "getPatientRecords",
					"outputs": [
						{
							"internalType": "uint256[]",
							"name": "",
							"type": "uint256[]"
						}
					],
					"stateMutability": "view",
					"type": "function"
				},
				{
					"inputs": [
						{
							"internalType": "uint256",
							"name": "_recordId",
							"type": "uint256"
						}
					],
					"name": "getRecord",
					"outputs": [
						{
							"components": [
								{
									"internalType": "uint256",
									"name": "recordId",
									"type": "uint256"
								},
								{
									"internalType": "address",
									"name": "patientAddress",
									"type": "address"
								},
								{
									"internalType": "string",
									"name": "ipfsHash",
									"type": "string"
								},
								{
									"internalType": "enum HealthWallet.RecordType",
									"name": "recordType",
									"type": "uint8"
								},
								{
									"internalType": "uint256",
									"name": "timestamp",
									"type": "uint256"
								},
								{
									"internalType": "address",
									"name": "issuedBy",
									"type": "address"
								},
								{
									"internalType": "bool",
									"name": "isActive",
									"type": "bool"
								},
								{
									"internalType": "string",
									"name": "encryptedKey",
									"type": "string"
								},
								{
									"internalType": "uint256",
									"name": "version",
									"type": "uint256"
								}
							],
							"internalType": "struct HealthWallet.HealthRecord",
							"name": "",
							"type": "tuple"
						}
					],
					"stateMutability": "view",
					"type": "function"
				},
				{
					"inputs": [],
					"name": "getTotalRecords",
					"outputs": [
						{
							"internalType": "uint256",
							"name": "",
							"type": "uint256"
						}
					],
					"stateMutability": "view",
					"type": "function"
				},
				{
					"inputs": [
						{
							"internalType": "address",
							"name": "_grantee",
							"type": "address"
						},
						{
							"internalType": "uint256[]",
							"name": "_recordIds",
							"type": "uint256[]"
						},
						{
							"internalType": "uint256",
							"name": "_durationInDays",
							"type": "uint256"
						}
					],
					"name": "grantAccess",
					"outputs": [],
					"stateMutability": "nonpayable",
					"type": "function"
				},
				{
					"inputs": [
						{
							"internalType": "address",
							"name": "_patient",
							"type": "address"
						},
						{
							"internalType": "address",
							"name": "_requester",
							"type": "address"
						},
						{
							"internalType": "uint256",
							"name": "_recordId",
							"type": "uint256"
						}
					],
					"name": "hasAccess",
					"outputs": [
						{
							"internalType": "bool",
							"name": "",
							"type": "bool"
						}
					],
					"stateMutability": "view",
					"type": "function"
				},
				{
					"inputs": [
						{
							"internalType": "uint256",
							"name": "_recordId",
							"type": "uint256"
						},
						{
							"internalType": "string",
							"name": "_action",
							"type": "string"
						}
					],
					"name": "logAccess",
					"outputs": [],
					"stateMutability": "nonpayable",
					"type": "function"
				},
				{
					"inputs": [
						{
							"internalType": "address",
							"name": "_grantee",
							"type": "address"
						}
					],
					"name": "revokeAccess",
					"outputs": [],
					"stateMutability": "nonpayable",
					"type": "function"
				},
				{
					"inputs": [
						{
							"internalType": "address",
							"name": "_emergencyContact",
							"type": "address"
						}
					],
					"name": "setEmergencyContact",
					"outputs": [],
					"stateMutability": "nonpayable",
					"type": "function"
				},
				{
					"inputs": [
						{
							"internalType": "uint256",
							"name": "_recordId",
							"type": "uint256"
						},
						{
							"internalType": "string",
							"name": "_newIpfsHash",
							"type": "string"
						},
						{
							"internalType": "string",
							"name": "_newEncryptedKey",
							"type": "string"
						}
					],
					"name": "updateRecord",
					"outputs": [],
					"stateMutability": "nonpayable",
					"type": "function"
				}
			],
			"devdoc": {
				"details": "A decentralized health records management system Stores metadata and IPFS pointers on-chain, actual health data on IPFS",
				"kind": "dev",
				"methods": {
					"addRecord(string,uint8,string)": {
						"details": "Add a new health record",
						"params": {
							"_encryptedKey": "Encrypted symmetric key for decryption",
							"_ipfsHash": "IPFS hash where encrypted health data is stored",
							"_recordType": "Type of health record"
						},
						"returns": {
							"_0": "recordId The ID of the newly created record"
						}
					},
					"addRecordByProvider(address,string,uint8,string)": {
						"details": "Add a record issued by a healthcare provider",
						"params": {
							"_encryptedKey": "Encrypted key for the patient",
							"_ipfsHash": "IPFS hash of the encrypted data",
							"_patientAddress": "Address of the patient",
							"_recordType": "Type of record"
						}
					},
					"deleteRecord(uint256)": {
						"details": "Soft delete a record",
						"params": {
							"_recordId": "ID of the record to delete"
						}
					},
					"getAccessGrant(address,address)": {
						"details": "Get access grant details",
						"params": {
							"_grantee": "Grantee address",
							"_patient": "Patient address"
						},
						"returns": {
							"_0": "AccessGrant struct"
						}
					},
					"getAuditLogs(uint256)": {
						"details": "Get audit logs for a record",
						"params": {
							"_recordId": "Record ID"
						},
						"returns": {
							"_0": "Array of AccessLog entries"
						}
					},
					"getPatientRecords(address)": {
						"details": "Get all record IDs for a patient",
						"params": {
							"_patient": "Patient's address"
						},
						"returns": {
							"_0": "Array of record IDs"
						}
					},
					"getRecord(uint256)": {
						"details": "Get details of a specific record",
						"params": {
							"_recordId": "Record ID"
						},
						"returns": {
							"_0": "HealthRecord struct"
						}
					},
					"getTotalRecords()": {
						"details": "Get total number of records in the system",
						"returns": {
							"_0": "Total record count"
						}
					},
					"grantAccess(address,uint256[],uint256)": {
						"details": "Grant access to specific records for a healthcare provider",
						"params": {
							"_durationInDays": "How many days the access should last",
							"_grantee": "Address to grant access to",
							"_recordIds": "Array of record IDs to grant access to"
						}
					},
					"hasAccess(address,address,uint256)": {
						"details": "Check if an address has access to a specific record",
						"params": {
							"_patient": "Patient's address",
							"_recordId": "Record ID to check access for",
							"_requester": "Address requesting access"
						},
						"returns": {
							"_0": "bool True if access is granted"
						}
					},
					"logAccess(uint256,string)": {
						"details": "Log access to a record (for audit trail)",
						"params": {
							"_action": "Action being performed",
							"_recordId": "Record being accessed"
						}
					},
					"revokeAccess(address)": {
						"details": "Revoke access from a healthcare provider",
						"params": {
							"_grantee": "Address to revoke access from"
						}
					},
					"setEmergencyContact(address)": {
						"details": "Set emergency contact who can access all records",
						"params": {
							"_emergencyContact": "Address of emergency contact"
						}
					},
					"updateRecord(uint256,string,string)": {
						"details": "Update an existing record (creates a new version)",
						"params": {
							"_newEncryptedKey": "New encrypted key",
							"_newIpfsHash": "New IPFS hash",
							"_recordId": "ID of the record to update"
						}
					}
				},
				"title": "HealthWallet",
				"version": 1
			},
			"evm": {
				"assembly": "    /* \"contracts/HealthWallet.sol\":227:13572  contract HealthWallet {... */\n  mstore(0x40, 0x80)\n  callvalue\n  dup1\n  iszero\n  tag_1\n  jumpi\n  0x00\n  dup1\n  revert\ntag_1:\n  pop\n  dataSize(sub_0)\n  dup1\n  dataOffset(sub_0)\n  0x00\n  codecopy\n  0x00\n  return\nstop\n\nsub_0: assembly {\n        /* \"contracts/HealthWallet.sol\":227:13572  contract HealthWallet {... */\n      mstore(0x40, 0x80)\n      callvalue\n      dup1\n      iszero\n      tag_1\n      jumpi\n      0x00\n      dup1\n      revert\n    tag_1:\n      pop\n      jumpi(tag_2, lt(calldatasize, 0x04))\n      shr(0xe0, calldataload(0x00))\n      dup1\n      0x3812c6a8\n      gt\n      tag_18\n      jumpi\n      dup1\n      0x91284a89\n      gt\n      tag_19\n      jumpi\n      dup1\n      0x91284a89\n      eq\n      tag_14\n      jumpi\n      dup1\n      0x9399e973\n      eq\n      tag_15\n      jumpi\n      dup1\n      0xb4b07a70\n      eq\n      tag_16\n      jumpi\n      dup1\n      0xcf56b4eb\n      eq\n      tag_17\n      jumpi\n      jump(tag_2)\n    tag_19:\n      dup1\n      0x3812c6a8\n      eq\n      tag_10\n      jumpi\n      dup1\n      0x67502cdf\n      eq\n      tag_11\n      jumpi\n      dup1\n      0x85e68531\n      eq\n      tag_12\n      jumpi\n      dup1\n      0x8b681c7c\n      eq\n      tag_13\n      jumpi\n      jump(tag_2)\n    tag_18:\n      dup1\n      0x0aeacb5e\n      gt\n      tag_20\n      jumpi\n      dup1\n      0x0aeacb5e\n      eq\n      tag_6\n      jumpi\n      dup1\n      0x0e8dce29\n      eq\n      tag_7\n      jumpi\n      dup1\n      0x18bd4847\n      eq\n      tag_8\n      jumpi\n      dup1\n      0x1b6377b8\n      eq\n      tag_9\n      jumpi\n      jump(tag_2)\n    tag_20:\n      dup1\n      0x01b1d324\n      eq\n      tag_3\n      jumpi\n      dup1\n      0x03e9e609\n      eq\n      tag_4\n      jumpi\n      dup1\n      0x061f9811\n      eq\n      tag_5\n      jumpi\n    tag_2:\n      0x00\n      dup1\n      revert\n        /* \"contracts/HealthWallet.sol\":11717:11912  function getAuditLogs(uint256 _recordId) ... */\n    tag_3:\n      tag_21\n      0x04\n      dup1\n      calldatasize\n      sub\n      dup2\n      add\n      swap1\n      tag_22\n      swap2\n      swap1\n      tag_23\n      jump\t// in\n    tag_22:\n      tag_24\n      jump\t// in\n    tag_21:\n      mload(0x40)\n      tag_25\n      swap2\n      swap1\n      tag_26\n      jump\t// in\n    tag_25:\n      mload(0x40)\n      dup1\n      swap2\n      sub\n      swap1\n      return\n        /* \"contracts/HealthWallet.sol\":10758:10985  function getRecord(uint256 _recordId) ... */\n    tag_4:\n      tag_27\n      0x04\n      dup1\n      calldatasize\n      sub\n      dup2\n      add\n      swap1\n      tag_28\n      swap2\n      swap1\n      tag_23\n      jump\t// in\n    tag_28:\n      tag_29\n      jump\t// in\n    tag_27:\n      mload(0x40)\n      tag_30\n      swap2\n      swap1\n      tag_31\n      jump\t// in\n    tag_30:\n      mload(0x40)\n      dup1\n      swap2\n      sub\n      swap1\n      return\n        /* \"contracts/HealthWallet.sol\":7200:7385  function deleteRecord(uint256 _recordId) ... */\n    tag_5:\n      tag_32\n      0x04\n      dup1\n      calldatasize\n      sub\n      dup2\n      add\n      swap1\n      tag_33\n      swap2\n      swap1\n      tag_23\n      jump\t// in\n    tag_33:\n      tag_34\n      jump\t// in\n    tag_32:\n      stop\n        /* \"contracts/HealthWallet.sol\":13473:13569  function getTotalRecords() public view returns (uint256) {... */\n    tag_6:\n      tag_35\n      tag_36\n      jump\t// in\n    tag_35:\n      mload(0x40)\n      tag_37\n      swap2\n      swap1\n      tag_38\n      jump\t// in\n    tag_37:\n      mload(0x40)\n      dup1\n      swap2\n      sub\n      swap1\n      return\n        /* \"contracts/HealthWallet.sol\":5403:6394  function addRecordByProvider(... */\n    tag_7:\n      tag_39\n      0x04\n      dup1\n      calldatasize\n      sub\n      dup2\n      add\n      swap1\n      tag_40\n      swap2\n      swap1\n      tag_41\n      jump\t// in\n    tag_40:\n      tag_42\n      jump\t// in\n    tag_39:\n      mload(0x40)\n      tag_43\n      swap2\n      swap1\n      tag_38\n      jump\t// in\n    tag_43:\n      mload(0x40)\n      dup1\n      swap2\n      sub\n      swap1\n      return\n        /* \"contracts/HealthWallet.sol\":10302:10611  function getPatientRecords(address _patient) ... */\n    tag_8:\n      tag_44\n      0x04\n      dup1\n      calldatasize\n      sub\n      dup2\n      add\n      swap1\n      tag_45\n      swap2\n      swap1\n      tag_46\n      jump\t// in\n    tag_45:\n      tag_47\n      jump\t// in\n    tag_44:\n      mload(0x40)\n      tag_48\n      swap2\n      swap1\n      tag_49\n      jump\t// in\n    tag_48:\n      mload(0x40)\n      dup1\n      swap2\n      sub\n      swap1\n      return\n        /* \"contracts/HealthWallet.sol\":4247:5103  function addRecord(... */\n    tag_9:\n      tag_50\n      0x04\n      dup1\n      calldatasize\n      sub\n      dup2\n      add\n      swap1\n      tag_51\n      swap2\n      swap1\n      tag_52\n      jump\t// in\n    tag_51:\n      tag_53\n      jump\t// in\n    tag_50:\n      mload(0x40)\n      tag_54\n      swap2\n      swap1\n      tag_38\n      jump\t// in\n    tag_54:\n      mload(0x40)\n      dup1\n      swap2\n      sub\n      swap1\n      return\n        /* \"contracts/HealthWallet.sol\":6631:7084  function updateRecord(... */\n    tag_10:\n      tag_55\n      0x04\n      dup1\n      calldatasize\n      sub\n      dup2\n      add\n      swap1\n      tag_56\n      swap2\n      swap1\n      tag_57\n      jump\t// in\n    tag_56:\n      tag_58\n      jump\t// in\n    tag_55:\n      stop\n        /* \"contracts/HealthWallet.sol\":11162:11568  function logAccess(uint256 _recordId, string memory _action) ... */\n    tag_11:\n      tag_59\n      0x04\n      dup1\n      calldatasize\n      sub\n      dup2\n      add\n      swap1\n      tag_60\n      swap2\n      swap1\n      tag_61\n      jump\t// in\n    tag_60:\n      tag_62\n      jump\t// in\n    tag_59:\n      stop\n        /* \"contracts/HealthWallet.sol\":8799:9056  function revokeAccess(address _grantee) public {... */\n    tag_12:\n      tag_63\n      0x04\n      dup1\n      calldatasize\n      sub\n      dup2\n      add\n      swap1\n      tag_64\n      swap2\n      swap1\n      tag_46\n      jump\t// in\n    tag_64:\n      tag_65\n      jump\t// in\n    tag_63:\n      stop\n        /* \"contracts/HealthWallet.sol\":13035:13353  function getAccessGrant(address _patient, address _grantee) ... */\n    tag_13:\n      tag_66\n      0x04\n      dup1\n      calldatasize\n      sub\n      dup2\n      add\n      swap1\n      tag_67\n      swap2\n      swap1\n      tag_68\n      jump\t// in\n    tag_67:\n      tag_69\n      jump\t// in\n    tag_66:\n      mload(0x40)\n      tag_70\n      swap2\n      swap1\n      tag_71\n      jump\t// in\n    tag_70:\n      mload(0x40)\n      dup1\n      swap2\n      sub\n      swap1\n      return\n        /* \"contracts/HealthWallet.sol\":12066:12266  function setEmergencyContact(address _emergencyContact) public {... */\n    tag_14:\n      tag_72\n      0x04\n      dup1\n      calldatasize\n      sub\n      dup2\n      add\n      swap1\n      tag_73\n      swap2\n      swap1\n      tag_46\n      jump\t// in\n    tag_73:\n      tag_74\n      jump\t// in\n    tag_72:\n      stop\n        /* \"contracts/HealthWallet.sol\":7671:8661  function grantAccess(... */\n    tag_15:\n      tag_75\n      0x04\n      dup1\n      calldatasize\n      sub\n      dup2\n      add\n      swap1\n      tag_76\n      swap2\n      swap1\n      tag_77\n      jump\t// in\n    tag_76:\n      tag_78\n      jump\t// in\n    tag_75:\n      stop\n        /* \"contracts/HealthWallet.sol\":2182:2233  mapping(address => address) public emergencyContact */\n    tag_16:\n      tag_79\n      0x04\n      dup1\n      calldatasize\n      sub\n      dup2\n      add\n      swap1\n      tag_80\n      swap2\n      swap1\n      tag_46\n      jump\t// in\n    tag_80:\n      tag_81\n      jump\t// in\n    tag_79:\n      mload(0x40)\n      tag_82\n      swap2\n      swap1\n      tag_83\n      jump\t// in\n    tag_82:\n      mload(0x40)\n      dup1\n      swap2\n      sub\n      swap1\n      return\n        /* \"contracts/HealthWallet.sol\":9347:10148  function hasAccess(... */\n    tag_17:\n      tag_84\n      0x04\n      dup1\n      calldatasize\n      sub\n      dup2\n      add\n      swap1\n      tag_85\n      swap2\n      swap1\n      tag_86\n      jump\t// in\n    tag_85:\n      tag_87\n      jump\t// in\n    tag_84:\n      mload(0x40)\n      tag_88\n      swap2\n      swap1\n      tag_89\n      jump\t// in\n    tag_88:\n      mload(0x40)\n      dup1\n      swap2\n      sub\n      swap1\n      return\n        /* \"contracts/HealthWallet.sol\":11717:11912  function getAuditLogs(uint256 _recordId) ... */\n    tag_24:\n        /* \"contracts/HealthWallet.sol\":11840:11858  AccessLog[] memory */\n      0x60\n        /* \"contracts/HealthWallet.sol\":11811:11820  _recordId */\n      dup2\n        /* \"contracts/HealthWallet.sol\":3365:3375  msg.sender */\n      caller\n        /* \"contracts/HealthWallet.sol\":3328:3375  records[_recordId].patientAddress == msg.sender */\n      0xffffffffffffffffffffffffffffffffffffffff\n      and\n        /* \"contracts/HealthWallet.sol\":3328:3335  records */\n      0x01\n        /* \"contracts/HealthWallet.sol\":3328:3346  records[_recordId] */\n      0x00\n        /* \"contracts/HealthWallet.sol\":3336:3345  _recordId */\n      dup4\n        /* \"contracts/HealthWallet.sol\":3328:3346  records[_recordId] */\n      dup2\n      mstore\n      0x20\n      add\n      swap1\n      dup2\n      mstore\n      0x20\n      add\n      0x00\n      keccak256\n        /* \"contracts/HealthWallet.sol\":3328:3361  records[_recordId].patientAddress */\n      0x01\n      add\n      0x00\n      swap1\n      sload\n      swap1\n      0x0100\n      exp\n      swap1\n      div\n      0xffffffffffffffffffffffffffffffffffffffff\n      and\n        /* \"contracts/HealthWallet.sol\":3328:3375  records[_recordId].patientAddress == msg.sender */\n      0xffffffffffffffffffffffffffffffffffffffff\n      and\n      eq\n        /* \"contracts/HealthWallet.sol\":3306:3439  require(... */\n      tag_91\n      jumpi\n      mload(0x40)\n      0x08c379a000000000000000000000000000000000000000000000000000000000\n      dup2\n      mstore\n      0x04\n      add\n      tag_92\n      swap1\n      tag_93\n      jump\t// in\n    tag_92:\n      mload(0x40)\n      dup1\n      swap2\n      sub\n      swap1\n      revert\n    tag_91:\n        /* \"contracts/HealthWallet.sol\":11884:11893  auditLogs */\n      0x03\n        /* \"contracts/HealthWallet.sol\":11884:11904  auditLogs[_recordId] */\n      0x00\n        /* \"contracts/HealthWallet.sol\":11894:11903  _recordId */\n      dup5\n        /* \"contracts/HealthWallet.sol\":11884:11904  auditLogs[_recordId] */\n      dup2\n      mstore\n      0x20\n      add\n      swap1\n      dup2\n      mstore\n      0x20\n      add\n      0x00\n      keccak256\n        /* \"contracts/HealthWallet.sol\":11877:11904  return auditLogs[_recordId] */\n      dup1\n      sload\n      dup1\n      0x20\n      mul\n      0x20\n      add\n      mload(0x40)\n      swap1\n      dup2\n      add\n      0x40\n      mstore\n      dup1\n      swap3\n      swap2\n      swap1\n      dup2\n      dup2\n      mstore\n      0x20\n      add\n      0x00\n      swap1\n    tag_95:\n      dup3\n      dup3\n      lt\n      iszero\n      tag_96\n      jumpi\n      dup4\n      dup3\n      swap1\n      0x00\n      mstore\n      keccak256(0x00, 0x20)\n      swap1\n      0x03\n      mul\n      add\n      mload(0x40)\n      dup1\n      0x60\n      add\n      0x40\n      mstore\n      swap1\n      dup2\n      0x00\n      dup3\n      add\n      0x00\n      swap1\n      sload\n      swap1\n      0x0100\n      exp\n      swap1\n      div\n      0xffffffffffffffffffffffffffffffffffffffff\n      and\n      0xffffffffffffffffffffffffffffffffffffffff\n      and\n      0xffffffffffffffffffffffffffffffffffffffff\n      and\n      dup2\n      mstore\n      0x20\n      add\n      0x01\n      dup3\n      add\n      sload\n      dup2\n      mstore\n      0x20\n      add\n      0x02\n      dup3\n      add\n      dup1\n      sload\n      tag_98\n      swap1\n      tag_99\n      jump\t// in\n    tag_98:\n      dup1\n      0x1f\n      add\n      0x20\n      dup1\n      swap2\n      div\n      mul\n      0x20\n      add\n      mload(0x40)\n      swap1\n      dup2\n      add\n      0x40\n      mstore\n      dup1\n      swap3\n      swap2\n      swap1\n      dup2\n      dup2\n      mstore\n      0x20\n      add\n      dup3\n      dup1\n      sload\n      tag_100\n      swap1\n      tag_99\n      jump\t// in\n    tag_100:\n      dup1\n      iszero\n      tag_101\n      jumpi\n      dup1\n      0x1f\n      lt\n      tag_102\n      jumpi\n      0x0100\n      dup1\n      dup4\n      sload\n      div\n      mul\n      dup4\n      mstore\n      swap2\n      0x20\n      add\n      swap2\n      jump(tag_101)\n    tag_102:\n      dup3\n      add\n      swap2\n      swap1\n      0x00\n      mstore\n      keccak256(0x00, 0x20)\n      swap1\n    tag_103:\n      dup2\n      sload\n      dup2\n      mstore\n      swap1\n      0x01\n      add\n      swap1\n      0x20\n      add\n      dup1\n      dup4\n      gt\n      tag_103\n      jumpi\n      dup3\n      swap1\n      sub\n      0x1f\n      and\n      dup3\n      add\n      swap2\n    tag_101:\n      pop\n      pop\n      pop\n      pop\n      pop\n      dup2\n      mstore\n      pop\n      pop\n      dup2\n      mstore\n      0x20\n      add\n      swap1\n      0x01\n      add\n      swap1\n      jump(tag_95)\n    tag_96:\n      pop\n      pop\n      pop\n      pop\n      swap2\n      pop\n        /* \"contracts/HealthWallet.sol\":11717:11912  function getAuditLogs(uint256 _recordId) ... */\n      pop\n      swap2\n      swap1\n      pop\n      jump\t// out\n        /* \"contracts/HealthWallet.sol\":10758:10985  function getRecord(uint256 _recordId) ... */\n    tag_29:\n        /* \"contracts/HealthWallet.sol\":10914:10933  HealthRecord memory */\n      tag_104\n      tag_105\n      jump\t// in\n    tag_104:\n        /* \"contracts/HealthWallet.sol\":10850:10859  _recordId */\n      dup2\n        /* \"contracts/HealthWallet.sol\":3782:3783  0 */\n      0x00\n        /* \"contracts/HealthWallet.sol\":3770:3779  _recordId */\n      dup2\n        /* \"contracts/HealthWallet.sol\":3770:3783  _recordId > 0 */\n      gt\n        /* \"contracts/HealthWallet.sol\":3770:3813  _recordId > 0 && _recordId <= recordCounter */\n      dup1\n      iszero\n      tag_107\n      jumpi\n      pop\n        /* \"contracts/HealthWallet.sol\":3800:3813  recordCounter */\n      sload(0x05)\n        /* \"contracts/HealthWallet.sol\":3787:3796  _recordId */\n      dup2\n        /* \"contracts/HealthWallet.sol\":3787:3813  _recordId <= recordCounter */\n      gt\n      iszero\n        /* \"contracts/HealthWallet.sol\":3770:3813  _recordId > 0 && _recordId <= recordCounter */\n    tag_107:\n        /* \"contracts/HealthWallet.sol\":3762:3839  require(_recordId > 0 && _recordId <= recordCounter, \"Record does not exist\") */\n      tag_108\n      jumpi\n      mload(0x40)\n      0x08c379a000000000000000000000000000000000000000000000000000000000\n      dup2\n      mstore\n      0x04\n      add\n      tag_109\n      swap1\n      tag_110\n      jump\t// in\n    tag_109:\n      mload(0x40)\n      dup1\n      swap2\n      sub\n      swap1\n      revert\n    tag_108:\n        /* \"contracts/HealthWallet.sol\":3858:3865  records */\n      0x01\n        /* \"contracts/HealthWallet.sol\":3858:3876  records[_recordId] */\n      0x00\n        /* \"contracts/HealthWallet.sol\":3866:3875  _recordId */\n      dup3\n        /* \"contracts/HealthWallet.sol\":3858:3876  records[_recordId] */\n      dup2\n      mstore\n      0x20\n      add\n      swap1\n      dup2\n      mstore\n      0x20\n      add\n      0x00\n      keccak256\n        /* \"contracts/HealthWallet.sol\":3858:3885  records[_recordId].isActive */\n      0x05\n      add\n      0x14\n      swap1\n      sload\n      swap1\n      0x0100\n      exp\n      swap1\n      div\n      0xff\n      and\n        /* \"contracts/HealthWallet.sol\":3850:3910  require(records[_recordId].isActive, \"Record is not active\") */\n      tag_111\n      jumpi\n      mload(0x40)\n      0x08c379a000000000000000000000000000000000000000000000000000000000\n      dup2\n      mstore\n      0x04\n      add\n      tag_112\n      swap1\n      tag_113\n      jump\t// in\n    tag_112:\n      mload(0x40)\n      dup1\n      swap2\n      sub\n      swap1\n      revert\n    tag_111:\n        /* \"contracts/HealthWallet.sol\":10885:10894  _recordId */\n      dup3\n        /* \"contracts/HealthWallet.sol\":3547:3614  hasAccess(records[_recordId].patientAddress, msg.sender, _recordId) */\n      tag_115\n        /* \"contracts/HealthWallet.sol\":3557:3564  records */\n      0x01\n        /* \"contracts/HealthWallet.sol\":3557:3575  records[_recordId] */\n      0x00\n        /* \"contracts/HealthWallet.sol\":3565:3574  _recordId */\n      dup4\n        /* \"contracts/HealthWallet.sol\":3557:3575  records[_recordId] */\n      dup2\n      mstore\n      0x20\n      add\n      swap1\n      dup2\n      mstore\n      0x20\n      add\n      0x00\n      keccak256\n        /* \"contracts/HealthWallet.sol\":3557:3590  records[_recordId].patientAddress */\n      0x01\n      add\n      0x00\n      swap1\n      sload\n      swap1\n      0x0100\n      exp\n      swap1\n      div\n      0xffffffffffffffffffffffffffffffffffffffff\n      and\n        /* \"contracts/HealthWallet.sol\":3592:3602  msg.sender */\n      caller\n        /* \"contracts/HealthWallet.sol\":3604:3613  _recordId */\n      dup4\n        /* \"contracts/HealthWallet.sol\":3547:3556  hasAccess */\n      tag_87\n        /* \"contracts/HealthWallet.sol\":3547:3614  hasAccess(records[_recordId].patientAddress, msg.sender, _recordId) */\n      jump\t// in\n    tag_115:\n        /* \"contracts/HealthWallet.sol\":3525:3678  require(... */\n      tag_116\n      jumpi\n      mload(0x40)\n      0x08c379a000000000000000000000000000000000000000000000000000000000\n      dup2\n      mstore\n      0x04\n      add\n      tag_117\n      swap1\n      tag_118\n      jump\t// in\n    tag_117:\n      mload(0x40)\n      dup1\n      swap2\n      sub\n      swap1\n      revert\n    tag_116:\n        /* \"contracts/HealthWallet.sol\":10959:10966  records */\n      0x01\n        /* \"contracts/HealthWallet.sol\":10959:10977  records[_recordId] */\n      0x00\n        /* \"contracts/HealthWallet.sol\":10967:10976  _recordId */\n      dup6\n        /* \"contracts/HealthWallet.sol\":10959:10977  records[_recordId] */\n      dup2\n      mstore\n      0x20\n      add\n      swap1\n      dup2\n      mstore\n      0x20\n      add\n      0x00\n      keccak256\n        /* \"contracts/HealthWallet.sol\":10952:10977  return records[_recordId] */\n      mload(0x40)\n      dup1\n      0x0120\n      add\n      0x40\n      mstore\n      swap1\n      dup2\n      0x00\n      dup3\n      add\n      sload\n      dup2\n      mstore\n      0x20\n      add\n      0x01\n      dup3\n      add\n      0x00\n      swap1\n      sload\n      swap1\n      0x0100\n      exp\n      swap1\n      div\n      0xffffffffffffffffffffffffffffffffffffffff\n      and\n      0xffffffffffffffffffffffffffffffffffffffff\n      and\n      0xffffffffffffffffffffffffffffffffffffffff\n      and\n      dup2\n      mstore\n      0x20\n      add\n      0x02\n      dup3\n      add\n      dup1\n      sload\n      tag_120\n      swap1\n      tag_99\n      jump\t// in\n    tag_120:\n      dup1\n      0x1f\n      add\n      0x20\n      dup1\n      swap2\n      div\n      mul\n      0x20\n      add\n      mload(0x40)\n      swap1\n      dup2\n      add\n      0x40\n      mstore\n      dup1\n      swap3\n      swap2\n      swap1\n      dup2\n      dup2\n      mstore\n      0x20\n      add\n      dup3\n      dup1\n      sload\n      tag_121\n      swap1\n      tag_99\n      jump\t// in\n    tag_121:\n      dup1\n      iszero\n      tag_122\n      jumpi\n      dup1\n      0x1f\n      lt\n      tag_123\n      jumpi\n      0x0100\n      dup1\n      dup4\n      sload\n      div\n      mul\n      dup4\n      mstore\n      swap2\n      0x20\n      add\n      swap2\n      jump(tag_122)\n    tag_123:\n      dup3\n      add\n      swap2\n      swap1\n      0x00\n      mstore\n      keccak256(0x00, 0x20)\n      swap1\n    tag_124:\n      dup2\n      sload\n      dup2\n      mstore\n      swap1\n      0x01\n      add\n      swap1\n      0x20\n      add\n      dup1\n      dup4\n      gt\n      tag_124\n      jumpi\n      dup3\n      swap1\n      sub\n      0x1f\n      and\n      dup3\n      add\n      swap2\n    tag_122:\n      pop\n      pop\n      pop\n      pop\n      pop\n      dup2\n      mstore\n      0x20\n      add\n      0x03\n      dup3\n      add\n      0x00\n      swap1\n      sload\n      swap1\n      0x0100\n      exp\n      swap1\n      div\n      0xff\n      and\n      0x05\n      dup2\n      gt\n      iszero\n      tag_125\n      jumpi\n      tag_126\n      tag_127\n      jump\t// in\n    tag_126:\n    tag_125:\n      0x05\n      dup2\n      gt\n      iszero\n      tag_128\n      jumpi\n      tag_129\n      tag_127\n      jump\t// in\n    tag_129:\n    tag_128:\n      dup2\n      mstore\n      0x20\n      add\n      0x04\n      dup3\n      add\n      sload\n      dup2\n      mstore\n      0x20\n      add\n      0x05\n      dup3\n      add\n      0x00\n      swap1\n      sload\n      swap1\n      0x0100\n      exp\n      swap1\n      div\n      0xffffffffffffffffffffffffffffffffffffffff\n      and\n      0xffffffffffffffffffffffffffffffffffffffff\n      and\n      0xffffffffffffffffffffffffffffffffffffffff\n      and\n      dup2\n      mstore\n      0x20\n      add\n      0x05\n      dup3\n      add\n      0x14\n      swap1\n      sload\n      swap1\n      0x0100\n      exp\n      swap1\n      div\n      0xff\n      and\n      iszero\n      iszero\n      iszero\n      iszero\n      dup2\n      mstore\n      0x20\n      add\n      0x06\n      dup3\n      add\n      dup1\n      sload\n      tag_130\n      swap1\n      tag_99\n      jump\t// in\n    tag_130:\n      dup1\n      0x1f\n      add\n      0x20\n      dup1\n      swap2\n      div\n      mul\n      0x20\n      add\n      mload(0x40)\n      swap1\n      dup2\n      add\n      0x40\n      mstore\n      dup1\n      swap3\n      swap2\n      swap1\n      dup2\n      dup2\n      mstore\n      0x20\n      add\n      dup3\n      dup1\n      sload\n      tag_131\n      swap1\n      tag_99\n      jump\t// in\n    tag_131:\n      dup1\n      iszero\n      tag_132\n      jumpi\n      dup1\n      0x1f\n      lt\n      tag_133\n      jumpi\n      0x0100\n      dup1\n      dup4\n      sload\n      div\n      mul\n      dup4\n      mstore\n      swap2\n      0x20\n      add\n      swap2\n      jump(tag_132)\n    tag_133:\n      dup3\n      add\n      swap2\n      swap1\n      0x00\n      mstore\n      keccak256(0x00, 0x20)\n      swap1\n    tag_134:\n      dup2\n      sload\n      dup2\n      mstore\n      swap1\n      0x01\n      add\n      swap1\n      0x20\n      add\n      dup1\n      dup4\n      gt\n      tag_134\n      jumpi\n      dup3\n      swap1\n      sub\n      0x1f\n      and\n      dup3\n      add\n      swap2\n    tag_132:\n      pop\n      pop\n      pop\n      pop\n      pop\n      dup2\n      mstore\n      0x20\n      add\n      0x07\n      dup3\n      add\n      sload\n      dup2\n      mstore\n      pop\n      pop\n      swap3\n      pop\n        /* \"contracts/HealthWallet.sol\":3921:3922  _ */\n      pop\n        /* \"contracts/HealthWallet.sol\":10758:10985  function getRecord(uint256 _recordId) ... */\n      pop\n      swap2\n      swap1\n      pop\n      jump\t// out\n        /* \"contracts/HealthWallet.sol\":7200:7385  function deleteRecord(uint256 _recordId) ... */\n    tag_34:\n        /* \"contracts/HealthWallet.sol\":7280:7289  _recordId */\n      dup1\n        /* \"contracts/HealthWallet.sol\":3365:3375  msg.sender */\n      caller\n        /* \"contracts/HealthWallet.sol\":3328:3375  records[_recordId].patientAddress == msg.sender */\n      0xffffffffffffffffffffffffffffffffffffffff\n      and\n        /* \"contracts/HealthWallet.sol\":3328:3335  records */\n      0x01\n        /* \"contracts/HealthWallet.sol\":3328:3346  records[_recordId] */\n      0x00\n        /* \"contracts/HealthWallet.sol\":3336:3345  _recordId */\n      dup4\n        /* \"contracts/HealthWallet.sol\":3328:3346  records[_recordId] */\n      dup2\n      mstore\n      0x20\n      add\n      swap1\n      dup2\n      mstore\n      0x20\n      add\n      0x00\n      keccak256\n        /* \"contracts/HealthWallet.sol\":3328:3361  records[_recordId].patientAddress */\n      0x01\n      add\n      0x00\n      swap1\n      sload\n      swap1\n      0x0100\n      exp\n      swap1\n      div\n      0xffffffffffffffffffffffffffffffffffffffff\n      and\n        /* \"contracts/HealthWallet.sol\":3328:3375  records[_recordId].patientAddress == msg.sender */\n      0xffffffffffffffffffffffffffffffffffffffff\n      and\n      eq\n        /* \"contracts/HealthWallet.sol\":3306:3439  require(... */\n      tag_136\n      jumpi\n      mload(0x40)\n      0x08c379a000000000000000000000000000000000000000000000000000000000\n      dup2\n      mstore\n      0x04\n      add\n      tag_137\n      swap1\n      tag_93\n      jump\t// in\n    tag_137:\n      mload(0x40)\n      dup1\n      swap2\n      sub\n      swap1\n      revert\n    tag_136:\n        /* \"contracts/HealthWallet.sol\":7314:7323  _recordId */\n      dup2\n        /* \"contracts/HealthWallet.sol\":3782:3783  0 */\n      0x00\n        /* \"contracts/HealthWallet.sol\":3770:3779  _recordId */\n      dup2\n        /* \"contracts/HealthWallet.sol\":3770:3783  _recordId > 0 */\n      gt\n        /* \"contracts/HealthWallet.sol\":3770:3813  _recordId > 0 && _recordId <= recordCounter */\n      dup1\n      iszero\n      tag_139\n      jumpi\n      pop\n        /* \"contracts/HealthWallet.sol\":3800:3813  recordCounter */\n      sload(0x05)\n        /* \"contracts/HealthWallet.sol\":3787:3796  _recordId */\n      dup2\n        /* \"contracts/HealthWallet.sol\":3787:3813  _recordId <= recordCounter */\n      gt\n      iszero\n        /* \"contracts/HealthWallet.sol\":3770:3813  _recordId > 0 && _recordId <= recordCounter */\n    tag_139:\n        /* \"contracts/HealthWallet.sol\":3762:3839  require(_recordId > 0 && _recordId <= recordCounter, \"Record does not exist\") */\n      tag_140\n      jumpi\n      mload(0x40)\n      0x08c379a000000000000000000000000000000000000000000000000000000000\n      dup2\n      mstore\n      0x04\n      add\n      tag_141\n      swap1\n      tag_110\n      jump\t// in\n    tag_141:\n      mload(0x40)\n      dup1\n      swap2\n      sub\n      swap1\n      revert\n    tag_140:\n        /* \"contracts/HealthWallet.sol\":3858:3865  records */\n      0x01\n        /* \"contracts/HealthWallet.sol\":3858:3876  records[_recordId] */\n      0x00\n        /* \"contracts/HealthWallet.sol\":3866:3875  _recordId */\n      dup3\n        /* \"contracts/HealthWallet.sol\":3858:3876  records[_recordId] */\n      dup2\n      mstore\n      0x20\n      add\n      swap1\n      dup2\n      mstore\n      0x20\n      add\n      0x00\n      keccak256\n        /* \"contracts/HealthWallet.sol\":3858:3885  records[_recordId].isActive */\n      0x05\n      add\n      0x14\n      swap1\n      sload\n      swap1\n      0x0100\n      exp\n      swap1\n      div\n      0xff\n      and\n        /* \"contracts/HealthWallet.sol\":3850:3910  require(records[_recordId].isActive, \"Record is not active\") */\n      tag_142\n      jumpi\n      mload(0x40)\n      0x08c379a000000000000000000000000000000000000000000000000000000000\n      dup2\n      mstore\n      0x04\n      add\n      tag_143\n      swap1\n      tag_113\n      jump\t// in\n    tag_143:\n      mload(0x40)\n      dup1\n      swap2\n      sub\n      swap1\n      revert\n    tag_142:\n        /* \"contracts/HealthWallet.sol\":7372:7377  false */\n      0x00\n        /* \"contracts/HealthWallet.sol\":7342:7349  records */\n      0x01\n        /* \"contracts/HealthWallet.sol\":7342:7360  records[_recordId] */\n      0x00\n        /* \"contracts/HealthWallet.sol\":7350:7359  _recordId */\n      dup6\n        /* \"contracts/HealthWallet.sol\":7342:7360  records[_recordId] */\n      dup2\n      mstore\n      0x20\n      add\n      swap1\n      dup2\n      mstore\n      0x20\n      add\n      0x00\n      keccak256\n        /* \"contracts/HealthWallet.sol\":7342:7369  records[_recordId].isActive */\n      0x05\n      add\n      0x14\n        /* \"contracts/HealthWallet.sol\":7342:7377  records[_recordId].isActive = false */\n      0x0100\n      exp\n      dup2\n      sload\n      dup2\n      0xff\n      mul\n      not\n      and\n      swap1\n      dup4\n      iszero\n      iszero\n      mul\n      or\n      swap1\n      sstore\n      pop\n        /* \"contracts/HealthWallet.sol\":3450:3451  _ */\n      pop\n        /* \"contracts/HealthWallet.sol\":7200:7385  function deleteRecord(uint256 _recordId) ... */\n      pop\n      pop\n      jump\t// out\n        /* \"contracts/HealthWallet.sol\":13473:13569  function getTotalRecords() public view returns (uint256) {... */\n    tag_36:\n        /* \"contracts/HealthWallet.sol\":13521:13528  uint256 */\n      0x00\n        /* \"contracts/HealthWallet.sol\":13548:13561  recordCounter */\n      sload(0x05)\n        /* \"contracts/HealthWallet.sol\":13541:13561  return recordCounter */\n      swap1\n      pop\n        /* \"contracts/HealthWallet.sol\":13473:13569  function getTotalRecords() public view returns (uint256) {... */\n      swap1\n      jump\t// out\n        /* \"contracts/HealthWallet.sol\":5403:6394  function addRecordByProvider(... */\n    tag_42:\n        /* \"contracts/HealthWallet.sol\":5594:5601  uint256 */\n      0x00\n        /* \"contracts/HealthWallet.sol\":5649:5650  0 */\n      dup1\n        /* \"contracts/HealthWallet.sol\":5622:5651  _patientAddress != address(0) */\n      0xffffffffffffffffffffffffffffffffffffffff\n      and\n        /* \"contracts/HealthWallet.sol\":5622:5637  _patientAddress */\n      dup6\n        /* \"contracts/HealthWallet.sol\":5622:5651  _patientAddress != address(0) */\n      0xffffffffffffffffffffffffffffffffffffffff\n      and\n      sub\n        /* \"contracts/HealthWallet.sol\":5614:5679  require(_patientAddress != address(0), \"Invalid patient address\") */\n      tag_147\n      jumpi\n      mload(0x40)\n      0x08c379a000000000000000000000000000000000000000000000000000000000\n      dup2\n      mstore\n      0x04\n      add\n      tag_148\n      swap1\n      tag_149\n      jump\t// in\n    tag_148:\n      mload(0x40)\n      dup1\n      swap2\n      sub\n      swap1\n      revert\n    tag_147:\n        /* \"contracts/HealthWallet.sol\":5724:5725  0 */\n      0x00\n        /* \"contracts/HealthWallet.sol\":5704:5713  _ipfsHash */\n      dup5\n        /* \"contracts/HealthWallet.sol\":5698:5721  bytes(_ipfsHash).length */\n      mload\n        /* \"contracts/HealthWallet.sol\":5698:5725  bytes(_ipfsHash).length > 0 */\n      gt\n        /* \"contracts/HealthWallet.sol\":5690:5755  require(bytes(_ipfsHash).length > 0, \"IPFS hash cannot be empty\") */\n      tag_150\n      jumpi\n      mload(0x40)\n      0x08c379a000000000000000000000000000000000000000000000000000000000\n      dup2\n      mstore\n      0x04\n      add\n      tag_151\n      swap1\n      tag_152\n      jump\t// in\n    tag_151:\n      mload(0x40)\n      dup1\n      swap2\n      sub\n      swap1\n      revert\n    tag_150:\n        /* \"contracts/HealthWallet.sol\":5776:5789  recordCounter */\n      0x05\n      0x00\n        /* \"contracts/HealthWallet.sol\":5776:5791  recordCounter++ */\n      dup2\n      sload\n      dup1\n      swap3\n      swap2\n      swap1\n      tag_153\n      swap1\n      tag_154\n      jump\t// in\n    tag_153:\n      swap2\n      swap1\n      pop\n      sstore\n      pop\n        /* \"contracts/HealthWallet.sol\":5837:6190  HealthRecord({... */\n      mload(0x40)\n      dup1\n      0x0120\n      add\n      0x40\n      mstore\n      dup1\n        /* \"contracts/HealthWallet.sol\":5875:5888  recordCounter */\n      sload(0x05)\n        /* \"contracts/HealthWallet.sol\":5837:6190  HealthRecord({... */\n      dup2\n      mstore\n      0x20\n      add\n        /* \"contracts/HealthWallet.sol\":5919:5934  _patientAddress */\n      dup7\n        /* \"contracts/HealthWallet.sol\":5837:6190  HealthRecord({... */\n      0xffffffffffffffffffffffffffffffffffffffff\n      and\n      dup2\n      mstore\n      0x20\n      add\n        /* \"contracts/HealthWallet.sol\":5959:5968  _ipfsHash */\n      dup6\n        /* \"contracts/HealthWallet.sol\":5837:6190  HealthRecord({... */\n      dup2\n      mstore\n      0x20\n      add\n        /* \"contracts/HealthWallet.sol\":5995:6006  _recordType */\n      dup5\n        /* \"contracts/HealthWallet.sol\":5837:6190  HealthRecord({... */\n      0x05\n      dup2\n      gt\n      iszero\n      tag_155\n      jumpi\n      tag_156\n      tag_127\n      jump\t// in\n    tag_156:\n    tag_155:\n      dup2\n      mstore\n      0x20\n      add\n        /* \"contracts/HealthWallet.sol\":6032:6047  block.timestamp */\n      timestamp\n        /* \"contracts/HealthWallet.sol\":5837:6190  HealthRecord({... */\n      dup2\n      mstore\n      0x20\n      add\n        /* \"contracts/HealthWallet.sol\":6072:6082  msg.sender */\n      caller\n        /* \"contracts/HealthWallet.sol\":5837:6190  HealthRecord({... */\n      0xffffffffffffffffffffffffffffffffffffffff\n      and\n      dup2\n      mstore\n      0x20\n      add\n        /* \"contracts/HealthWallet.sol\":6107:6111  true */\n      0x01\n        /* \"contracts/HealthWallet.sol\":5837:6190  HealthRecord({... */\n      iszero\n      iszero\n      dup2\n      mstore\n      0x20\n      add\n        /* \"contracts/HealthWallet.sol\":6140:6153  _encryptedKey */\n      dup4\n        /* \"contracts/HealthWallet.sol\":5837:6190  HealthRecord({... */\n      dup2\n      mstore\n      0x20\n      add\n        /* \"contracts/HealthWallet.sol\":6177:6178  1 */\n      0x01\n        /* \"contracts/HealthWallet.sol\":5837:6190  HealthRecord({... */\n      dup2\n      mstore\n      pop\n        /* \"contracts/HealthWallet.sol\":5812:5819  records */\n      0x01\n        /* \"contracts/HealthWallet.sol\":5812:5834  records[recordCounter] */\n      0x00\n        /* \"contracts/HealthWallet.sol\":5820:5833  recordCounter */\n      sload(0x05)\n        /* \"contracts/HealthWallet.sol\":5812:5834  records[recordCounter] */\n      dup2\n      mstore\n      0x20\n      add\n      swap1\n      dup2\n      mstore\n      0x20\n      add\n      0x00\n      keccak256\n        /* \"contracts/HealthWallet.sol\":5812:6190  records[recordCounter] = HealthRecord({... */\n      0x00\n      dup3\n      add\n      mload\n      dup2\n      0x00\n      add\n      sstore\n      0x20\n      dup3\n      add\n      mload\n      dup2\n      0x01\n      add\n      exp(0x0100, 0x00)\n      dup2\n      sload\n      dup2\n      0xffffffffffffffffffffffffffffffffffffffff\n      mul\n      not\n      and\n      swap1\n      dup4\n      0xffffffffffffffffffffffffffffffffffffffff\n      and\n      mul\n      or\n      swap1\n      sstore\n      pop\n      0x40\n      dup3\n      add\n      mload\n      dup2\n      0x02\n      add\n      swap1\n      dup2\n      tag_157\n      swap2\n      swap1\n      tag_158\n      jump\t// in\n    tag_157:\n      pop\n      0x60\n      dup3\n      add\n      mload\n      dup2\n      0x03\n      add\n      exp(0x0100, 0x00)\n      dup2\n      sload\n      dup2\n      0xff\n      mul\n      not\n      and\n      swap1\n      dup4\n      0x05\n      dup2\n      gt\n      iszero\n      tag_159\n      jumpi\n      tag_160\n      tag_127\n      jump\t// in\n    tag_160:\n    tag_159:\n      mul\n      or\n      swap1\n      sstore\n      pop\n      0x80\n      dup3\n      add\n      mload\n      dup2\n      0x04\n      add\n      sstore\n      0xa0\n      dup3\n      add\n      mload\n      dup2\n      0x05\n      add\n      exp(0x0100, 0x00)\n      dup2\n      sload\n      dup2\n      0xffffffffffffffffffffffffffffffffffffffff\n      mul\n      not\n      and\n      swap1\n      dup4\n      0xffffffffffffffffffffffffffffffffffffffff\n      and\n      mul\n      or\n      swap1\n      sstore\n      pop\n      0xc0\n      dup3\n      add\n      mload\n      dup2\n      0x05\n      add\n      exp(0x0100, 0x14)\n      dup2\n      sload\n      dup2\n      0xff\n      mul\n      not\n      and\n      swap1\n      dup4\n      iszero\n      iszero\n      mul\n      or\n      swap1\n      sstore\n      pop\n      0xe0\n      dup3\n      add\n      mload\n      dup2\n      0x06\n      add\n      swap1\n      dup2\n      tag_161\n      swap2\n      swap1\n      tag_158\n      jump\t// in\n    tag_161:\n      pop\n      0x0100\n      dup3\n      add\n      mload\n      dup2\n      0x07\n      add\n      sstore\n      swap1\n      pop\n      pop\n        /* \"contracts/HealthWallet.sol\":6211:6225  patientRecords */\n      0x00\n        /* \"contracts/HealthWallet.sol\":6211:6242  patientRecords[_patientAddress] */\n      dup1\n        /* \"contracts/HealthWallet.sol\":6226:6241  _patientAddress */\n      dup7\n        /* \"contracts/HealthWallet.sol\":6211:6242  patientRecords[_patientAddress] */\n      0xffffffffffffffffffffffffffffffffffffffff\n      and\n      0xffffffffffffffffffffffffffffffffffffffff\n      and\n      dup2\n      mstore\n      0x20\n      add\n      swap1\n      dup2\n      mstore\n      0x20\n      add\n      0x00\n      keccak256\n        /* \"contracts/HealthWallet.sol\":6248:6261  recordCounter */\n      sload(0x05)\n        /* \"contracts/HealthWallet.sol\":6211:6262  patientRecords[_patientAddress].push(recordCounter) */\n      swap1\n      dup1\n      0x01\n      dup2\n      sload\n      add\n      dup1\n      dup3\n      sstore\n      dup1\n      swap2\n      pop\n      pop\n      0x01\n      swap1\n      sub\n      swap1\n      0x00\n      mstore\n      keccak256(0x00, 0x20)\n      add\n      0x00\n      swap1\n      swap2\n      swap1\n      swap2\n      swap1\n      swap2\n      pop\n      sstore\n        /* \"contracts/HealthWallet.sol\":6315:6330  _patientAddress */\n      dup5\n        /* \"contracts/HealthWallet.sol\":6288:6355  RecordAdded(recordCounter, _patientAddress, _ipfsHash, _recordType) */\n      0xffffffffffffffffffffffffffffffffffffffff\n      and\n        /* \"contracts/HealthWallet.sol\":6300:6313  recordCounter */\n      sload(0x05)\n        /* \"contracts/HealthWallet.sol\":6288:6355  RecordAdded(recordCounter, _patientAddress, _ipfsHash, _recordType) */\n      0x32b3188b62628aabf659cebbab10a599b539bcb0c01a891ab2e37b8be315712e\n        /* \"contracts/HealthWallet.sol\":6332:6341  _ipfsHash */\n      dup7\n        /* \"contracts/HealthWallet.sol\":6343:6354  _recordType */\n      dup7\n        /* \"contracts/HealthWallet.sol\":6288:6355  RecordAdded(recordCounter, _patientAddress, _ipfsHash, _recordType) */\n      mload(0x40)\n      tag_163\n      swap3\n      swap2\n      swap1\n      tag_164\n      jump\t// in\n    tag_163:\n      mload(0x40)\n      dup1\n      swap2\n      sub\n      swap1\n      log3\n        /* \"contracts/HealthWallet.sol\":6373:6386  recordCounter */\n      sload(0x05)\n        /* \"contracts/HealthWallet.sol\":6366:6386  return recordCounter */\n      swap1\n      pop\n        /* \"contracts/HealthWallet.sol\":5403:6394  function addRecordByProvider(... */\n      swap5\n      swap4\n      pop\n      pop\n      pop\n      pop\n      jump\t// out\n        /* \"contracts/HealthWallet.sol\":10302:10611  function getPatientRecords(address _patient) ... */\n    tag_47:\n        /* \"contracts/HealthWallet.sol\":10398:10414  uint256[] memory */\n      0x60\n        /* \"contracts/HealthWallet.sol\":10469:10477  _patient */\n      dup2\n        /* \"contracts/HealthWallet.sol\":10455:10477  msg.sender == _patient */\n      0xffffffffffffffffffffffffffffffffffffffff\n      and\n        /* \"contracts/HealthWallet.sol\":10455:10465  msg.sender */\n      caller\n        /* \"contracts/HealthWallet.sol\":10455:10477  msg.sender == _patient */\n      0xffffffffffffffffffffffffffffffffffffffff\n      and\n      eq\n        /* \"contracts/HealthWallet.sol\":10455:10519  msg.sender == _patient || hasGeneralAccess(_patient, msg.sender) */\n      dup1\n      tag_166\n      jumpi\n      pop\n        /* \"contracts/HealthWallet.sol\":10481:10519  hasGeneralAccess(_patient, msg.sender) */\n      tag_167\n        /* \"contracts/HealthWallet.sol\":10498:10506  _patient */\n      dup3\n        /* \"contracts/HealthWallet.sol\":10508:10518  msg.sender */\n      caller\n        /* \"contracts/HealthWallet.sol\":10481:10497  hasGeneralAccess */\n      tag_168\n        /* \"contracts/HealthWallet.sol\":10481:10519  hasGeneralAccess(_patient, msg.sender) */\n      jump\t// in\n    tag_167:\n        /* \"contracts/HealthWallet.sol\":10455:10519  msg.sender == _patient || hasGeneralAccess(_patient, msg.sender) */\n    tag_166:\n        /* \"contracts/HealthWallet.sol\":10433:10561  require(... */\n      tag_169\n      jumpi\n      mload(0x40)\n      0x08c379a000000000000000000000000000000000000000000000000000000000\n      dup2\n      mstore\n      0x04\n      add\n      tag_170\n      swap1\n      tag_171\n      jump\t// in\n    tag_170:\n      mload(0x40)\n      dup1\n      swap2\n      sub\n      swap1\n      revert\n    tag_169:\n        /* \"contracts/HealthWallet.sol\":10579:10593  patientRecords */\n      0x00\n        /* \"contracts/HealthWallet.sol\":10579:10603  patientRecords[_patient] */\n      dup1\n        /* \"contracts/HealthWallet.sol\":10594:10602  _patient */\n      dup4\n        /* \"contracts/HealthWallet.sol\":10579:10603  patientRecords[_patient] */\n      0xffffffffffffffffffffffffffffffffffffffff\n      and\n      0xffffffffffffffffffffffffffffffffffffffff\n      and\n      dup2\n      mstore\n      0x20\n      add\n      swap1\n      dup2\n      mstore\n      0x20\n      add\n      0x00\n      keccak256\n        /* \"contracts/HealthWallet.sol\":10572:10603  return patientRecords[_patient] */\n      dup1\n      sload\n      dup1\n      0x20\n      mul\n      0x20\n      add\n      mload(0x40)\n      swap1\n      dup2\n      add\n      0x40\n      mstore\n      dup1\n      swap3\n      swap2\n      swap1\n      dup2\n      dup2\n      mstore\n      0x20\n      add\n      dup3\n      dup1\n      sload\n      dup1\n      iszero\n      tag_172\n      jumpi\n      0x20\n      mul\n      dup3\n      add\n      swap2\n      swap1\n      0x00\n      mstore\n      keccak256(0x00, 0x20)\n      swap1\n    tag_173:\n      dup2\n      sload\n      dup2\n      mstore\n      0x20\n      add\n      swap1\n      0x01\n      add\n      swap1\n      dup1\n      dup4\n      gt\n      tag_173\n      jumpi\n    tag_172:\n      pop\n      pop\n      pop\n      pop\n      pop\n      swap1\n      pop\n        /* \"contracts/HealthWallet.sol\":10302:10611  function getPatientRecords(address _patient) ... */\n      swap2\n      swap1\n      pop\n      jump\t// out\n        /* \"contracts/HealthWallet.sol\":4247:5103  function addRecord(... */\n    tag_53:\n        /* \"contracts/HealthWallet.sol\":4394:4401  uint256 */\n      0x00\n        /* \"contracts/HealthWallet.sol\":4448:4449  0 */\n      dup1\n        /* \"contracts/HealthWallet.sol\":4428:4437  _ipfsHash */\n      dup5\n        /* \"contracts/HealthWallet.sol\":4422:4445  bytes(_ipfsHash).length */\n      mload\n        /* \"contracts/HealthWallet.sol\":4422:4449  bytes(_ipfsHash).length > 0 */\n      gt\n        /* \"contracts/HealthWallet.sol\":4414:4479  require(bytes(_ipfsHash).length > 0, \"IPFS hash cannot be empty\") */\n      tag_175\n      jumpi\n      mload(0x40)\n      0x08c379a000000000000000000000000000000000000000000000000000000000\n      dup2\n      mstore\n      0x04\n      add\n      tag_176\n      swap1\n      tag_152\n      jump\t// in\n    tag_176:\n      mload(0x40)\n      dup1\n      swap2\n      sub\n      swap1\n      revert\n    tag_175:\n        /* \"contracts/HealthWallet.sol\":4500:4513  recordCounter */\n      0x05\n      0x00\n        /* \"contracts/HealthWallet.sol\":4500:4515  recordCounter++ */\n      dup2\n      sload\n      dup1\n      swap3\n      swap2\n      swap1\n      tag_177\n      swap1\n      tag_154\n      jump\t// in\n    tag_177:\n      swap2\n      swap1\n      pop\n      sstore\n      pop\n        /* \"contracts/HealthWallet.sol\":4561:4909  HealthRecord({... */\n      mload(0x40)\n      dup1\n      0x0120\n      add\n      0x40\n      mstore\n      dup1\n        /* \"contracts/HealthWallet.sol\":4599:4612  recordCounter */\n      sload(0x05)\n        /* \"contracts/HealthWallet.sol\":4561:4909  HealthRecord({... */\n      dup2\n      mstore\n      0x20\n      add\n        /* \"contracts/HealthWallet.sol\":4643:4653  msg.sender */\n      caller\n        /* \"contracts/HealthWallet.sol\":4561:4909  HealthRecord({... */\n      0xffffffffffffffffffffffffffffffffffffffff\n      and\n      dup2\n      mstore\n      0x20\n      add\n        /* \"contracts/HealthWallet.sol\":4678:4687  _ipfsHash */\n      dup6\n        /* \"contracts/HealthWallet.sol\":4561:4909  HealthRecord({... */\n      dup2\n      mstore\n      0x20\n      add\n        /* \"contracts/HealthWallet.sol\":4714:4725  _recordType */\n      dup5\n        /* \"contracts/HealthWallet.sol\":4561:4909  HealthRecord({... */\n      0x05\n      dup2\n      gt\n      iszero\n      tag_178\n      jumpi\n      tag_179\n      tag_127\n      jump\t// in\n    tag_179:\n    tag_178:\n      dup2\n      mstore\n      0x20\n      add\n        /* \"contracts/HealthWallet.sol\":4751:4766  block.timestamp */\n      timestamp\n        /* \"contracts/HealthWallet.sol\":4561:4909  HealthRecord({... */\n      dup2\n      mstore\n      0x20\n      add\n        /* \"contracts/HealthWallet.sol\":4791:4801  msg.sender */\n      caller\n        /* \"contracts/HealthWallet.sol\":4561:4909  HealthRecord({... */\n      0xffffffffffffffffffffffffffffffffffffffff\n      and\n      dup2\n      mstore\n      0x20\n      add\n        /* \"contracts/HealthWallet.sol\":4826:4830  true */\n      0x01\n        /* \"contracts/HealthWallet.sol\":4561:4909  HealthRecord({... */\n      iszero\n      iszero\n      dup2\n      mstore\n      0x20\n      add\n        /* \"contracts/HealthWallet.sol\":4859:4872  _encryptedKey */\n      dup4\n        /* \"contracts/HealthWallet.sol\":4561:4909  HealthRecord({... */\n      dup2\n      mstore\n      0x20\n      add\n        /* \"contracts/HealthWallet.sol\":4896:4897  1 */\n      0x01\n        /* \"contracts/HealthWallet.sol\":4561:4909  HealthRecord({... */\n      dup2\n      mstore\n      pop\n        /* \"contracts/HealthWallet.sol\":4536:4543  records */\n      0x01\n        /* \"contracts/HealthWallet.sol\":4536:4558  records[recordCounter] */\n      0x00\n        /* \"contracts/HealthWallet.sol\":4544:4557  recordCounter */\n      sload(0x05)\n        /* \"contracts/HealthWallet.sol\":4536:4558  records[recordCounter] */\n      dup2\n      mstore\n      0x20\n      add\n      swap1\n      dup2\n      mstore\n      0x20\n      add\n      0x00\n      keccak256\n        /* \"contracts/HealthWallet.sol\":4536:4909  records[recordCounter] = HealthRecord({... */\n      0x00\n      dup3\n      add\n      mload\n      dup2\n      0x00\n      add\n      sstore\n      0x20\n      dup3\n      add\n      mload\n      dup2\n      0x01\n      add\n      exp(0x0100, 0x00)\n      dup2\n      sload\n      dup2\n      0xffffffffffffffffffffffffffffffffffffffff\n      mul\n      not\n      and\n      swap1\n      dup4\n      0xffffffffffffffffffffffffffffffffffffffff\n      and\n      mul\n      or\n      swap1\n      sstore\n      pop\n      0x40\n      dup3\n      add\n      mload\n      dup2\n      0x02\n      add\n      swap1\n      dup2\n      tag_180\n      swap2\n      swap1\n      tag_158\n      jump\t// in\n    tag_180:\n      pop\n      0x60\n      dup3\n      add\n      mload\n      dup2\n      0x03\n      add\n      exp(0x0100, 0x00)\n      dup2\n      sload\n      dup2\n      0xff\n      mul\n      not\n      and\n      swap1\n      dup4\n      0x05\n      dup2\n      gt\n      iszero\n      tag_181\n      jumpi\n      tag_182\n      tag_127\n      jump\t// in\n    tag_182:\n    tag_181:\n      mul\n      or\n      swap1\n      sstore\n      pop\n      0x80\n      dup3\n      add\n      mload\n      dup2\n      0x04\n      add\n      sstore\n      0xa0\n      dup3\n      add\n      mload\n      dup2\n      0x05\n      add\n      exp(0x0100, 0x00)\n      dup2\n      sload\n      dup2\n      0xffffffffffffffffffffffffffffffffffffffff\n      mul\n      not\n      and\n      swap1\n      dup4\n      0xffffffffffffffffffffffffffffffffffffffff\n      and\n      mul\n      or\n      swap1\n      sstore\n      pop\n      0xc0\n      dup3\n      add\n      mload\n      dup2\n      0x05\n      add\n      exp(0x0100, 0x14)\n      dup2\n      sload\n      dup2\n      0xff\n      mul\n      not\n      and\n      swap1\n      dup4\n      iszero\n      iszero\n      mul\n      or\n      swap1\n      sstore\n      pop\n      0xe0\n      dup3\n      add\n      mload\n      dup2\n      0x06\n      add\n      swap1\n      dup2\n      tag_183\n      swap2\n      swap1\n      tag_158\n      jump\t// in\n    tag_183:\n      pop\n      0x0100\n      dup3\n      add\n      mload\n      dup2\n      0x07\n      add\n      sstore\n      swap1\n      pop\n      pop\n        /* \"contracts/HealthWallet.sol\":4930:4944  patientRecords */\n      0x00\n        /* \"contracts/HealthWallet.sol\":4930:4956  patientRecords[msg.sender] */\n      dup1\n        /* \"contracts/HealthWallet.sol\":4945:4955  msg.sender */\n      caller\n        /* \"contracts/HealthWallet.sol\":4930:4956  patientRecords[msg.sender] */\n      0xffffffffffffffffffffffffffffffffffffffff\n      and\n      0xffffffffffffffffffffffffffffffffffffffff\n      and\n      dup2\n      mstore\n      0x20\n      add\n      swap1\n      dup2\n      mstore\n      0x20\n      add\n      0x00\n      keccak256\n        /* \"contracts/HealthWallet.sol\":4962:4975  recordCounter */\n      sload(0x05)\n        /* \"contracts/HealthWallet.sol\":4930:4976  patientRecords[msg.sender].push(recordCounter) */\n      swap1\n      dup1\n      0x01\n      dup2\n      sload\n      add\n      dup1\n      dup3\n      sstore\n      dup1\n      swap2\n      pop\n      pop\n      0x01\n      swap1\n      sub\n      swap1\n      0x00\n      mstore\n      keccak256(0x00, 0x20)\n      add\n      0x00\n      swap1\n      swap2\n      swap1\n      swap2\n      swap1\n      swap2\n      pop\n      sstore\n        /* \"contracts/HealthWallet.sol\":5029:5039  msg.sender */\n      caller\n        /* \"contracts/HealthWallet.sol\":5002:5064  RecordAdded(recordCounter, msg.sender, _ipfsHash, _recordType) */\n      0xffffffffffffffffffffffffffffffffffffffff\n      and\n        /* \"contracts/HealthWallet.sol\":5014:5027  recordCounter */\n      sload(0x05)\n        /* \"contracts/HealthWallet.sol\":5002:5064  RecordAdded(recordCounter, msg.sender, _ipfsHash, _recordType) */\n      0x32b3188b62628aabf659cebbab10a599b539bcb0c01a891ab2e37b8be315712e\n        /* \"contracts/HealthWallet.sol\":5041:5050  _ipfsHash */\n      dup7\n        /* \"contracts/HealthWallet.sol\":5052:5063  _recordType */\n      dup7\n        /* \"contracts/HealthWallet.sol\":5002:5064  RecordAdded(recordCounter, msg.sender, _ipfsHash, _recordType) */\n      mload(0x40)\n      tag_185\n      swap3\n      swap2\n      swap1\n      tag_164\n      jump\t// in\n    tag_185:\n      mload(0x40)\n      dup1\n      swap2\n      sub\n      swap1\n      log3\n        /* \"contracts/HealthWallet.sol\":5082:5095  recordCounter */\n      sload(0x05)\n        /* \"contracts/HealthWallet.sol\":5075:5095  return recordCounter */\n      swap1\n      pop\n        /* \"contracts/HealthWallet.sol\":4247:5103  function addRecord(... */\n      swap4\n      swap3\n      pop\n      pop\n      pop\n      jump\t// out\n        /* \"contracts/HealthWallet.sol\":6631:7084  function updateRecord(... */\n    tag_58:\n        /* \"contracts/HealthWallet.sol\":6785:6794  _recordId */\n      dup3\n        /* \"contracts/HealthWallet.sol\":3365:3375  msg.sender */\n      caller\n        /* \"contracts/HealthWallet.sol\":3328:3375  records[_recordId].patientAddress == msg.sender */\n      0xffffffffffffffffffffffffffffffffffffffff\n      and\n        /* \"contracts/HealthWallet.sol\":3328:3335  records */\n      0x01\n        /* \"contracts/HealthWallet.sol\":3328:3346  records[_recordId] */\n      0x00\n        /* \"contracts/HealthWallet.sol\":3336:3345  _recordId */\n      dup4\n        /* \"contracts/HealthWallet.sol\":3328:3346  records[_recordId] */\n      dup2\n      mstore\n      0x20\n      add\n      swap1\n      dup2\n      mstore\n      0x20\n      add\n      0x00\n      keccak256\n        /* \"contracts/HealthWallet.sol\":3328:3361  records[_recordId].patientAddress */\n      0x01\n      add\n      0x00\n      swap1\n      sload\n      swap1\n      0x0100\n      exp\n      swap1\n      div\n      0xffffffffffffffffffffffffffffffffffffffff\n      and\n        /* \"contracts/HealthWallet.sol\":3328:3375  records[_recordId].patientAddress == msg.sender */\n      0xffffffffffffffffffffffffffffffffffffffff\n      and\n      eq\n        /* \"contracts/HealthWallet.sol\":3306:3439  require(... */\n      tag_187\n      jumpi\n      mload(0x40)\n      0x08c379a000000000000000000000000000000000000000000000000000000000\n      dup2\n      mstore\n      0x04\n      add\n      tag_188\n      swap1\n      tag_93\n      jump\t// in\n    tag_188:\n      mload(0x40)\n      dup1\n      swap2\n      sub\n      swap1\n      revert\n    tag_187:\n        /* \"contracts/HealthWallet.sol\":6809:6818  _recordId */\n      dup4\n        /* \"contracts/HealthWallet.sol\":3782:3783  0 */\n      0x00\n        /* \"contracts/HealthWallet.sol\":3770:3779  _recordId */\n      dup2\n        /* \"contracts/HealthWallet.sol\":3770:3783  _recordId > 0 */\n      gt\n        /* \"contracts/HealthWallet.sol\":3770:3813  _recordId > 0 && _recordId <= recordCounter */\n      dup1\n      iszero\n      tag_190\n      jumpi\n      pop\n        /* \"contracts/HealthWallet.sol\":3800:3813  recordCounter */\n      sload(0x05)\n        /* \"contracts/HealthWallet.sol\":3787:3796  _recordId */\n      dup2\n        /* \"contracts/HealthWallet.sol\":3787:3813  _recordId <= recordCounter */\n      gt\n      iszero\n        /* \"contracts/HealthWallet.sol\":3770:3813  _recordId > 0 && _recordId <= recordCounter */\n    tag_190:\n        /* \"contracts/HealthWallet.sol\":3762:3839  require(_recordId > 0 && _recordId <= recordCounter, \"Record does not exist\") */\n      tag_191\n      jumpi\n      mload(0x40)\n      0x08c379a000000000000000000000000000000000000000000000000000000000\n      dup2\n      mstore\n      0x04\n      add\n      tag_192\n      swap1\n      tag_110\n      jump\t// in\n    tag_192:\n      mload(0x40)\n      dup1\n      swap2\n      sub\n      swap1\n      revert\n    tag_191:\n        /* \"contracts/HealthWallet.sol\":3858:3865  records */\n      0x01\n        /* \"contracts/HealthWallet.sol\":3858:3876  records[_recordId] */\n      0x00\n        /* \"contracts/HealthWallet.sol\":3866:3875  _recordId */\n      dup3\n        /* \"contracts/HealthWallet.sol\":3858:3876  records[_recordId] */\n      dup2\n      mstore\n      0x20\n      add\n      swap1\n      dup2\n      mstore\n      0x20\n      add\n      0x00\n      keccak256\n        /* \"contracts/HealthWallet.sol\":3858:3885  records[_recordId].isActive */\n      0x05\n      add\n      0x14\n      swap1\n      sload\n      swap1\n      0x0100\n      exp\n      swap1\n      div\n      0xff\n      and\n        /* \"contracts/HealthWallet.sol\":3850:3910  require(records[_recordId].isActive, \"Record is not active\") */\n      tag_193\n      jumpi\n      mload(0x40)\n      0x08c379a000000000000000000000000000000000000000000000000000000000\n      dup2\n      mstore\n      0x04\n      add\n      tag_194\n      swap1\n      tag_113\n      jump\t// in\n    tag_194:\n      mload(0x40)\n      dup1\n      swap2\n      sub\n      swap1\n      revert\n    tag_193:\n        /* \"contracts/HealthWallet.sol\":6831:6858  HealthRecord storage record */\n      0x00\n        /* \"contracts/HealthWallet.sol\":6861:6868  records */\n      0x01\n        /* \"contracts/HealthWallet.sol\":6861:6879  records[_recordId] */\n      0x00\n        /* \"contracts/HealthWallet.sol\":6869:6878  _recordId */\n      dup8\n        /* \"contracts/HealthWallet.sol\":6861:6879  records[_recordId] */\n      dup2\n      mstore\n      0x20\n      add\n      swap1\n      dup2\n      mstore\n      0x20\n      add\n      0x00\n      keccak256\n        /* \"contracts/HealthWallet.sol\":6831:6879  HealthRecord storage record = records[_recordId] */\n      swap1\n      pop\n        /* \"contracts/HealthWallet.sol\":6908:6920  _newIpfsHash */\n      dup5\n        /* \"contracts/HealthWallet.sol\":6890:6896  record */\n      dup2\n        /* \"contracts/HealthWallet.sol\":6890:6905  record.ipfsHash */\n      0x02\n      add\n        /* \"contracts/HealthWallet.sol\":6890:6920  record.ipfsHash = _newIpfsHash */\n      swap1\n      dup2\n      tag_196\n      swap2\n      swap1\n      tag_158\n      jump\t// in\n    tag_196:\n      pop\n        /* \"contracts/HealthWallet.sol\":6953:6969  _newEncryptedKey */\n      dup4\n        /* \"contracts/HealthWallet.sol\":6931:6937  record */\n      dup2\n        /* \"contracts/HealthWallet.sol\":6931:6950  record.encryptedKey */\n      0x06\n      add\n        /* \"contracts/HealthWallet.sol\":6931:6969  record.encryptedKey = _newEncryptedKey */\n      swap1\n      dup2\n      tag_197\n      swap2\n      swap1\n      tag_158\n      jump\t// in\n    tag_197:\n      pop\n        /* \"contracts/HealthWallet.sol\":6980:6986  record */\n      dup1\n        /* \"contracts/HealthWallet.sol\":6980:6994  record.version */\n      0x07\n      add\n      0x00\n        /* \"contracts/HealthWallet.sol\":6980:6996  record.version++ */\n      dup2\n      sload\n      dup1\n      swap3\n      swap2\n      swap1\n      tag_198\n      swap1\n      tag_154\n      jump\t// in\n    tag_198:\n      swap2\n      swap1\n      pop\n      sstore\n      pop\n        /* \"contracts/HealthWallet.sol\":7036:7045  _recordId */\n      dup6\n        /* \"contracts/HealthWallet.sol\":7022:7076  RecordUpdated(_recordId, _newIpfsHash, record.version) */\n      0x088d9e16504277bf999412471e756eedf1ab2491c6a6399c9d349d3fea6d70cf\n        /* \"contracts/HealthWallet.sol\":7047:7059  _newIpfsHash */\n      dup7\n        /* \"contracts/HealthWallet.sol\":7061:7067  record */\n      dup4\n        /* \"contracts/HealthWallet.sol\":7061:7075  record.version */\n      0x07\n      add\n      sload\n        /* \"contracts/HealthWallet.sol\":7022:7076  RecordUpdated(_recordId, _newIpfsHash, record.version) */\n      mload(0x40)\n      tag_199\n      swap3\n      swap2\n      swap1\n      tag_200\n      jump\t// in\n    tag_199:\n      mload(0x40)\n      dup1\n      swap2\n      sub\n      swap1\n      log2\n        /* \"contracts/HealthWallet.sol\":6820:7084  {... */\n      pop\n        /* \"contracts/HealthWallet.sol\":3450:3451  _ */\n      pop\n        /* \"contracts/HealthWallet.sol\":6631:7084  function updateRecord(... */\n      pop\n      pop\n      pop\n      pop\n      jump\t// out\n        /* \"contracts/HealthWallet.sol\":11162:11568  function logAccess(uint256 _recordId, string memory _action) ... */\n    tag_62:\n        /* \"contracts/HealthWallet.sol\":11263:11272  _recordId */\n      dup2\n        /* \"contracts/HealthWallet.sol\":3782:3783  0 */\n      0x00\n        /* \"contracts/HealthWallet.sol\":3770:3779  _recordId */\n      dup2\n        /* \"contracts/HealthWallet.sol\":3770:3783  _recordId > 0 */\n      gt\n        /* \"contracts/HealthWallet.sol\":3770:3813  _recordId > 0 && _recordId <= recordCounter */\n      dup1\n      iszero\n      tag_202\n      jumpi\n      pop\n        /* \"contracts/HealthWallet.sol\":3800:3813  recordCounter */\n      sload(0x05)\n        /* \"contracts/HealthWallet.sol\":3787:3796  _recordId */\n      dup2\n        /* \"contracts/HealthWallet.sol\":3787:3813  _recordId <= recordCounter */\n      gt\n      iszero\n        /* \"contracts/HealthWallet.sol\":3770:3813  _recordId > 0 && _recordId <= recordCounter */\n    tag_202:\n        /* \"contracts/HealthWallet.sol\":3762:3839  require(_recordId > 0 && _recordId <= recordCounter, \"Record does not exist\") */\n      tag_203\n      jumpi\n      mload(0x40)\n      0x08c379a000000000000000000000000000000000000000000000000000000000\n      dup2\n      mstore\n      0x04\n      add\n      tag_204\n      swap1\n      tag_110\n      jump\t// in\n    tag_204:\n      mload(0x40)\n      dup1\n      swap2\n      sub\n      swap1\n      revert\n    tag_203:\n        /* \"contracts/HealthWallet.sol\":3858:3865  records */\n      0x01\n        /* \"contracts/HealthWallet.sol\":3858:3876  records[_recordId] */\n      0x00\n        /* \"contracts/HealthWallet.sol\":3866:3875  _recordId */\n      dup3\n        /* \"contracts/HealthWallet.sol\":3858:3876  records[_recordId] */\n      dup2\n      mstore\n      0x20\n      add\n      swap1\n      dup2\n      mstore\n      0x20\n      add\n      0x00\n      keccak256\n        /* \"contracts/HealthWallet.sol\":3858:3885  records[_recordId].isActive */\n      0x05\n      add\n      0x14\n      swap1\n      sload\n      swap1\n      0x0100\n      exp\n      swap1\n      div\n      0xff\n      and\n        /* \"contracts/HealthWallet.sol\":3850:3910  require(records[_recordId].isActive, \"Record is not active\") */\n      tag_205\n      jumpi\n      mload(0x40)\n      0x08c379a000000000000000000000000000000000000000000000000000000000\n      dup2\n      mstore\n      0x04\n      add\n      tag_206\n      swap1\n      tag_113\n      jump\t// in\n    tag_206:\n      mload(0x40)\n      dup1\n      swap2\n      sub\n      swap1\n      revert\n    tag_205:\n        /* \"contracts/HealthWallet.sol\":11298:11307  _recordId */\n      dup3\n        /* \"contracts/HealthWallet.sol\":3547:3614  hasAccess(records[_recordId].patientAddress, msg.sender, _recordId) */\n      tag_208\n        /* \"contracts/HealthWallet.sol\":3557:3564  records */\n      0x01\n        /* \"contracts/HealthWallet.sol\":3557:3575  records[_recordId] */\n      0x00\n        /* \"contracts/HealthWallet.sol\":3565:3574  _recordId */\n      dup4\n        /* \"contracts/HealthWallet.sol\":3557:3575  records[_recordId] */\n      dup2\n      mstore\n      0x20\n      add\n      swap1\n      dup2\n      mstore\n      0x20\n      add\n      0x00\n      keccak256\n        /* \"contracts/HealthWallet.sol\":3557:3590  records[_recordId].patientAddress */\n      0x01\n      add\n      0x00\n      swap1\n      sload\n      swap1\n      0x0100\n      exp\n      swap1\n      div\n      0xffffffffffffffffffffffffffffffffffffffff\n      and\n        /* \"contracts/HealthWallet.sol\":3592:3602  msg.sender */\n      caller\n        /* \"contracts/HealthWallet.sol\":3604:3613  _recordId */\n      dup4\n        /* \"contracts/HealthWallet.sol\":3547:3556  hasAccess */\n      tag_87\n        /* \"contracts/HealthWallet.sol\":3547:3614  hasAccess(records[_recordId].patientAddress, msg.sender, _recordId) */\n      jump\t// in\n    tag_208:\n        /* \"contracts/HealthWallet.sol\":3525:3678  require(... */\n      tag_209\n      jumpi\n      mload(0x40)\n      0x08c379a000000000000000000000000000000000000000000000000000000000\n      dup2\n      mstore\n      0x04\n      add\n      tag_210\n      swap1\n      tag_118\n      jump\t// in\n    tag_210:\n      mload(0x40)\n      dup1\n      swap2\n      sub\n      swap1\n      revert\n    tag_209:\n        /* \"contracts/HealthWallet.sol\":11325:11334  auditLogs */\n      0x03\n        /* \"contracts/HealthWallet.sol\":11325:11345  auditLogs[_recordId] */\n      0x00\n        /* \"contracts/HealthWallet.sol\":11335:11344  _recordId */\n      dup6\n        /* \"contracts/HealthWallet.sol\":11325:11345  auditLogs[_recordId] */\n      dup2\n      mstore\n      0x20\n      add\n      swap1\n      dup2\n      mstore\n      0x20\n      add\n      0x00\n      keccak256\n        /* \"contracts/HealthWallet.sol\":11351:11479  AccessLog({... */\n      mload(0x40)\n      dup1\n      0x60\n      add\n      0x40\n      mstore\n      dup1\n        /* \"contracts/HealthWallet.sol\":11386:11396  msg.sender */\n      caller\n        /* \"contracts/HealthWallet.sol\":11351:11479  AccessLog({... */\n      0xffffffffffffffffffffffffffffffffffffffff\n      and\n      dup2\n      mstore\n      0x20\n      add\n        /* \"contracts/HealthWallet.sol\":11422:11437  block.timestamp */\n      timestamp\n        /* \"contracts/HealthWallet.sol\":11351:11479  AccessLog({... */\n      dup2\n      mstore\n      0x20\n      add\n        /* \"contracts/HealthWallet.sol\":11460:11467  _action */\n      dup6\n        /* \"contracts/HealthWallet.sol\":11351:11479  AccessLog({... */\n      dup2\n      mstore\n      pop\n        /* \"contracts/HealthWallet.sol\":11325:11480  auditLogs[_recordId].push(AccessLog({... */\n      swap1\n      dup1\n      0x01\n      dup2\n      sload\n      add\n      dup1\n      dup3\n      sstore\n      dup1\n      swap2\n      pop\n      pop\n      0x01\n      swap1\n      sub\n      swap1\n      0x00\n      mstore\n      keccak256(0x00, 0x20)\n      swap1\n      0x03\n      mul\n      add\n      0x00\n      swap1\n      swap2\n      swap1\n      swap2\n      swap1\n      swap2\n      pop\n      0x00\n      dup3\n      add\n      mload\n      dup2\n      0x00\n      add\n      exp(0x0100, 0x00)\n      dup2\n      sload\n      dup2\n      0xffffffffffffffffffffffffffffffffffffffff\n      mul\n      not\n      and\n      swap1\n      dup4\n      0xffffffffffffffffffffffffffffffffffffffff\n      and\n      mul\n      or\n      swap1\n      sstore\n      pop\n      0x20\n      dup3\n      add\n      mload\n      dup2\n      0x01\n      add\n      sstore\n      0x40\n      dup3\n      add\n      mload\n      dup2\n      0x02\n      add\n      swap1\n      dup2\n      tag_213\n      swap2\n      swap1\n      tag_158\n      jump\t// in\n    tag_213:\n      pop\n      pop\n      pop\n        /* \"contracts/HealthWallet.sol\":11532:11542  msg.sender */\n      caller\n        /* \"contracts/HealthWallet.sol\":11506:11560  RecordAccessed(_recordId, msg.sender, block.timestamp) */\n      0xffffffffffffffffffffffffffffffffffffffff\n      and\n        /* \"contracts/HealthWallet.sol\":11521:11530  _recordId */\n      dup5\n        /* \"contracts/HealthWallet.sol\":11506:11560  RecordAccessed(_recordId, msg.sender, block.timestamp) */\n      0xdec39eb35dc9ca96737e4515f8a70f5db122e248213ee947b996e1f678ab05b8\n        /* \"contracts/HealthWallet.sol\":11544:11559  block.timestamp */\n      timestamp\n        /* \"contracts/HealthWallet.sol\":11506:11560  RecordAccessed(_recordId, msg.sender, block.timestamp) */\n      mload(0x40)\n      tag_214\n      swap2\n      swap1\n      tag_38\n      jump\t// in\n    tag_214:\n      mload(0x40)\n      dup1\n      swap2\n      sub\n      swap1\n      log3\n        /* \"contracts/HealthWallet.sol\":3921:3922  _ */\n      pop\n        /* \"contracts/HealthWallet.sol\":11162:11568  function logAccess(uint256 _recordId, string memory _action) ... */\n      pop\n      pop\n      pop\n      jump\t// out\n        /* \"contracts/HealthWallet.sol\":8799:9056  function revokeAccess(address _grantee) public {... */\n    tag_65:\n        /* \"contracts/HealthWallet.sol\":8865:8877  accessGrants */\n      0x02\n        /* \"contracts/HealthWallet.sol\":8865:8889  accessGrants[msg.sender] */\n      0x00\n        /* \"contracts/HealthWallet.sol\":8878:8888  msg.sender */\n      caller\n        /* \"contracts/HealthWallet.sol\":8865:8889  accessGrants[msg.sender] */\n      0xffffffffffffffffffffffffffffffffffffffff\n      and\n      0xffffffffffffffffffffffffffffffffffffffff\n      and\n      dup2\n      mstore\n      0x20\n      add\n      swap1\n      dup2\n      mstore\n      0x20\n      add\n      0x00\n      keccak256\n        /* \"contracts/HealthWallet.sol\":8865:8899  accessGrants[msg.sender][_grantee] */\n      0x00\n        /* \"contracts/HealthWallet.sol\":8890:8898  _grantee */\n      dup3\n        /* \"contracts/HealthWallet.sol\":8865:8899  accessGrants[msg.sender][_grantee] */\n      0xffffffffffffffffffffffffffffffffffffffff\n      and\n      0xffffffffffffffffffffffffffffffffffffffff\n      and\n      dup2\n      mstore\n      0x20\n      add\n      swap1\n      dup2\n      mstore\n      0x20\n      add\n      0x00\n      keccak256\n        /* \"contracts/HealthWallet.sol\":8865:8908  accessGrants[msg.sender][_grantee].isActive */\n      0x03\n      add\n      0x00\n      swap1\n      sload\n      swap1\n      0x0100\n      exp\n      swap1\n      div\n      0xff\n      and\n        /* \"contracts/HealthWallet.sol\":8857:8935  require(accessGrants[msg.sender][_grantee].isActive, \"No active access grant\") */\n      tag_216\n      jumpi\n      mload(0x40)\n      0x08c379a000000000000000000000000000000000000000000000000000000000\n      dup2\n      mstore\n      0x04\n      add\n      tag_217\n      swap1\n      tag_218\n      jump\t// in\n    tag_217:\n      mload(0x40)\n      dup1\n      swap2\n      sub\n      swap1\n      revert\n    tag_216:\n        /* \"contracts/HealthWallet.sol\":8992:8997  false */\n      0x00\n        /* \"contracts/HealthWallet.sol\":8946:8958  accessGrants */\n      0x02\n        /* \"contracts/HealthWallet.sol\":8946:8970  accessGrants[msg.sender] */\n      0x00\n        /* \"contracts/HealthWallet.sol\":8959:8969  msg.sender */\n      caller\n        /* \"contracts/HealthWallet.sol\":8946:8970  accessGrants[msg.sender] */\n      0xffffffffffffffffffffffffffffffffffffffff\n      and\n      0xffffffffffffffffffffffffffffffffffffffff\n      and\n      dup2\n      mstore\n      0x20\n      add\n      swap1\n      dup2\n      mstore\n      0x20\n      add\n      0x00\n      keccak256\n        /* \"contracts/HealthWallet.sol\":8946:8980  accessGrants[msg.sender][_grantee] */\n      0x00\n        /* \"contracts/HealthWallet.sol\":8971:8979  _grantee */\n      dup4\n        /* \"contracts/HealthWallet.sol\":8946:8980  accessGrants[msg.sender][_grantee] */\n      0xffffffffffffffffffffffffffffffffffffffff\n      and\n      0xffffffffffffffffffffffffffffffffffffffff\n      and\n      dup2\n      mstore\n      0x20\n      add\n      swap1\n      dup2\n      mstore\n      0x20\n      add\n      0x00\n      keccak256\n        /* \"contracts/HealthWallet.sol\":8946:8989  accessGrants[msg.sender][_grantee].isActive */\n      0x03\n      add\n      0x00\n        /* \"contracts/HealthWallet.sol\":8946:8997  accessGrants[msg.sender][_grantee].isActive = false */\n      0x0100\n      exp\n      dup2\n      sload\n      dup2\n      0xff\n      mul\n      not\n      and\n      swap1\n      dup4\n      iszero\n      iszero\n      mul\n      or\n      swap1\n      sstore\n      pop\n        /* \"contracts/HealthWallet.sol\":9039:9047  _grantee */\n      dup1\n        /* \"contracts/HealthWallet.sol\":9013:9048  AccessRevoked(msg.sender, _grantee) */\n      0xffffffffffffffffffffffffffffffffffffffff\n      and\n        /* \"contracts/HealthWallet.sol\":9027:9037  msg.sender */\n      caller\n        /* \"contracts/HealthWallet.sol\":9013:9048  AccessRevoked(msg.sender, _grantee) */\n      0xffffffffffffffffffffffffffffffffffffffff\n      and\n      0x825c8be24eb0df19500f63e86c29e7d0d951e73056b889b891d85e40938d9b6e\n      mload(0x40)\n      mload(0x40)\n      dup1\n      swap2\n      sub\n      swap1\n      log3\n        /* \"contracts/HealthWallet.sol\":8799:9056  function revokeAccess(address _grantee) public {... */\n      pop\n      jump\t// out\n        /* \"contracts/HealthWallet.sol\":13035:13353  function getAccessGrant(address _patient, address _grantee) ... */\n    tag_69:\n        /* \"contracts/HealthWallet.sol\":13146:13164  AccessGrant memory */\n      tag_219\n      tag_220\n      jump\t// in\n    tag_219:\n        /* \"contracts/HealthWallet.sol\":13219:13227  _patient */\n      dup3\n        /* \"contracts/HealthWallet.sol\":13205:13227  msg.sender == _patient */\n      0xffffffffffffffffffffffffffffffffffffffff\n      and\n        /* \"contracts/HealthWallet.sol\":13205:13215  msg.sender */\n      caller\n        /* \"contracts/HealthWallet.sol\":13205:13227  msg.sender == _patient */\n      0xffffffffffffffffffffffffffffffffffffffff\n      and\n      eq\n        /* \"contracts/HealthWallet.sol\":13205:13253  msg.sender == _patient || msg.sender == _grantee */\n      dup1\n      tag_222\n      jumpi\n      pop\n        /* \"contracts/HealthWallet.sol\":13245:13253  _grantee */\n      dup2\n        /* \"contracts/HealthWallet.sol\":13231:13253  msg.sender == _grantee */\n      0xffffffffffffffffffffffffffffffffffffffff\n      and\n        /* \"contracts/HealthWallet.sol\":13231:13241  msg.sender */\n      caller\n        /* \"contracts/HealthWallet.sol\":13231:13253  msg.sender == _grantee */\n      0xffffffffffffffffffffffffffffffffffffffff\n      and\n      eq\n        /* \"contracts/HealthWallet.sol\":13205:13253  msg.sender == _patient || msg.sender == _grantee */\n    tag_222:\n        /* \"contracts/HealthWallet.sol\":13183:13295  require(... */\n      tag_223\n      jumpi\n      mload(0x40)\n      0x08c379a000000000000000000000000000000000000000000000000000000000\n      dup2\n      mstore\n      0x04\n      add\n      tag_224\n      swap1\n      tag_171\n      jump\t// in\n    tag_224:\n      mload(0x40)\n      dup1\n      swap2\n      sub\n      swap1\n      revert\n    tag_223:\n        /* \"contracts/HealthWallet.sol\":13313:13325  accessGrants */\n      0x02\n        /* \"contracts/HealthWallet.sol\":13313:13335  accessGrants[_patient] */\n      0x00\n        /* \"contracts/HealthWallet.sol\":13326:13334  _patient */\n      dup5\n        /* \"contracts/HealthWallet.sol\":13313:13335  accessGrants[_patient] */\n      0xffffffffffffffffffffffffffffffffffffffff\n      and\n      0xffffffffffffffffffffffffffffffffffffffff\n      and\n      dup2\n      mstore\n      0x20\n      add\n      swap1\n      dup2\n      mstore\n      0x20\n      add\n      0x00\n      keccak256\n        /* \"contracts/HealthWallet.sol\":13313:13345  accessGrants[_patient][_grantee] */\n      0x00\n        /* \"contracts/HealthWallet.sol\":13336:13344  _grantee */\n      dup4\n        /* \"contracts/HealthWallet.sol\":13313:13345  accessGrants[_patient][_grantee] */\n      0xffffffffffffffffffffffffffffffffffffffff\n      and\n      0xffffffffffffffffffffffffffffffffffffffff\n      and\n      dup2\n      mstore\n      0x20\n      add\n      swap1\n      dup2\n      mstore\n      0x20\n      add\n      0x00\n      keccak256\n        /* \"contracts/HealthWallet.sol\":13306:13345  return accessGrants[_patient][_grantee] */\n      mload(0x40)\n      dup1\n      0xa0\n      add\n      0x40\n      mstore\n      swap1\n      dup2\n      0x00\n      dup3\n      add\n      0x00\n      swap1\n      sload\n      swap1\n      0x0100\n      exp\n      swap1\n      div\n      0xffffffffffffffffffffffffffffffffffffffff\n      and\n      0xffffffffffffffffffffffffffffffffffffffff\n      and\n      0xffffffffffffffffffffffffffffffffffffffff\n      and\n      dup2\n      mstore\n      0x20\n      add\n      0x01\n      dup3\n      add\n      dup1\n      sload\n      dup1\n      0x20\n      mul\n      0x20\n      add\n      mload(0x40)\n      swap1\n      dup2\n      add\n      0x40\n      mstore\n      dup1\n      swap3\n      swap2\n      swap1\n      dup2\n      dup2\n      mstore\n      0x20\n      add\n      dup3\n      dup1\n      sload\n      dup1\n      iszero\n      tag_225\n      jumpi\n      0x20\n      mul\n      dup3\n      add\n      swap2\n      swap1\n      0x00\n      mstore\n      keccak256(0x00, 0x20)\n      swap1\n    tag_226:\n      dup2\n      sload\n      dup2\n      mstore\n      0x20\n      add\n      swap1\n      0x01\n      add\n      swap1\n      dup1\n      dup4\n      gt\n      tag_226\n      jumpi\n    tag_225:\n      pop\n      pop\n      pop\n      pop\n      pop\n      dup2\n      mstore\n      0x20\n      add\n      0x02\n      dup3\n      add\n      sload\n      dup2\n      mstore\n      0x20\n      add\n      0x03\n      dup3\n      add\n      0x00\n      swap1\n      sload\n      swap1\n      0x0100\n      exp\n      swap1\n      div\n      0xff\n      and\n      iszero\n      iszero\n      iszero\n      iszero\n      dup2\n      mstore\n      0x20\n      add\n      0x04\n      dup3\n      add\n      sload\n      dup2\n      mstore\n      pop\n      pop\n      swap1\n      pop\n        /* \"contracts/HealthWallet.sol\":13035:13353  function getAccessGrant(address _patient, address _grantee) ... */\n      swap3\n      swap2\n      pop\n      pop\n      jump\t// out\n        /* \"contracts/HealthWallet.sol\":12066:12266  function setEmergencyContact(address _emergencyContact) public {... */\n    tag_74:\n        /* \"contracts/HealthWallet.sol\":12177:12178  0 */\n      0x00\n        /* \"contracts/HealthWallet.sol\":12148:12179  _emergencyContact != address(0) */\n      0xffffffffffffffffffffffffffffffffffffffff\n      and\n        /* \"contracts/HealthWallet.sol\":12148:12165  _emergencyContact */\n      dup2\n        /* \"contracts/HealthWallet.sol\":12148:12179  _emergencyContact != address(0) */\n      0xffffffffffffffffffffffffffffffffffffffff\n      and\n      sub\n        /* \"contracts/HealthWallet.sol\":12140:12199  require(_emergencyContact != address(0), \"Invalid address\") */\n      tag_228\n      jumpi\n      mload(0x40)\n      0x08c379a000000000000000000000000000000000000000000000000000000000\n      dup2\n      mstore\n      0x04\n      add\n      tag_229\n      swap1\n      tag_230\n      jump\t// in\n    tag_229:\n      mload(0x40)\n      dup1\n      swap2\n      sub\n      swap1\n      revert\n    tag_228:\n        /* \"contracts/HealthWallet.sol\":12241:12258  _emergencyContact */\n      dup1\n        /* \"contracts/HealthWallet.sol\":12210:12226  emergencyContact */\n      0x04\n        /* \"contracts/HealthWallet.sol\":12210:12238  emergencyContact[msg.sender] */\n      0x00\n        /* \"contracts/HealthWallet.sol\":12227:12237  msg.sender */\n      caller\n        /* \"contracts/HealthWallet.sol\":12210:12238  emergencyContact[msg.sender] */\n      0xffffffffffffffffffffffffffffffffffffffff\n      and\n      0xffffffffffffffffffffffffffffffffffffffff\n      and\n      dup2\n      mstore\n      0x20\n      add\n      swap1\n      dup2\n      mstore\n      0x20\n      add\n      0x00\n      keccak256\n      0x00\n        /* \"contracts/HealthWallet.sol\":12210:12258  emergencyContact[msg.sender] = _emergencyContact */\n      0x0100\n      exp\n      dup2\n      sload\n      dup2\n      0xffffffffffffffffffffffffffffffffffffffff\n      mul\n      not\n      and\n      swap1\n      dup4\n      0xffffffffffffffffffffffffffffffffffffffff\n      and\n      mul\n      or\n      swap1\n      sstore\n      pop\n        /* \"contracts/HealthWallet.sol\":12066:12266  function setEmergencyContact(address _emergencyContact) public {... */\n      pop\n      jump\t// out\n        /* \"contracts/HealthWallet.sol\":7671:8661  function grantAccess(... */\n    tag_78:\n        /* \"contracts/HealthWallet.sol\":7844:7845  0 */\n      0x00\n        /* \"contracts/HealthWallet.sol\":7824:7846  _grantee != address(0) */\n      0xffffffffffffffffffffffffffffffffffffffff\n      and\n        /* \"contracts/HealthWallet.sol\":7824:7832  _grantee */\n      dup4\n        /* \"contracts/HealthWallet.sol\":7824:7846  _grantee != address(0) */\n      0xffffffffffffffffffffffffffffffffffffffff\n      and\n      sub\n        /* \"contracts/HealthWallet.sol\":7816:7866  require(_grantee != address(0), \"Invalid address\") */\n      tag_232\n      jumpi\n      mload(0x40)\n      0x08c379a000000000000000000000000000000000000000000000000000000000\n      dup2\n      mstore\n      0x04\n      add\n      tag_233\n      swap1\n      tag_230\n      jump\t// in\n    tag_233:\n      mload(0x40)\n      dup1\n      swap2\n      sub\n      swap1\n      revert\n    tag_232:\n        /* \"contracts/HealthWallet.sol\":7905:7906  0 */\n      0x00\n        /* \"contracts/HealthWallet.sol\":7885:7895  _recordIds */\n      dup3\n        /* \"contracts/HealthWallet.sol\":7885:7902  _recordIds.length */\n      mload\n        /* \"contracts/HealthWallet.sol\":7885:7906  _recordIds.length > 0 */\n      gt\n        /* \"contracts/HealthWallet.sol\":7877:7951  require(_recordIds.length > 0, \"Must grant access to at least one record\") */\n      tag_234\n      jumpi\n      mload(0x40)\n      0x08c379a000000000000000000000000000000000000000000000000000000000\n      dup2\n      mstore\n      0x04\n      add\n      tag_235\n      swap1\n      tag_236\n      jump\t// in\n    tag_235:\n      mload(0x40)\n      dup1\n      swap2\n      sub\n      swap1\n      revert\n    tag_234:\n        /* \"contracts/HealthWallet.sol\":8021:8027  uint i */\n      0x00\n        /* \"contracts/HealthWallet.sol\":8016:8236  for (uint i = 0; i < _recordIds.length; i++) {... */\n    tag_237:\n        /* \"contracts/HealthWallet.sol\":8037:8047  _recordIds */\n      dup3\n        /* \"contracts/HealthWallet.sol\":8037:8054  _recordIds.length */\n      mload\n        /* \"contracts/HealthWallet.sol\":8033:8034  i */\n      dup2\n        /* \"contracts/HealthWallet.sol\":8033:8054  i < _recordIds.length */\n      lt\n        /* \"contracts/HealthWallet.sol\":8016:8236  for (uint i = 0; i < _recordIds.length; i++) {... */\n      iszero\n      tag_238\n      jumpi\n        /* \"contracts/HealthWallet.sol\":8143:8153  msg.sender */\n      caller\n        /* \"contracts/HealthWallet.sol\":8102:8153  records[_recordIds[i]].patientAddress == msg.sender */\n      0xffffffffffffffffffffffffffffffffffffffff\n      and\n        /* \"contracts/HealthWallet.sol\":8102:8109  records */\n      0x01\n        /* \"contracts/HealthWallet.sol\":8102:8124  records[_recordIds[i]] */\n      0x00\n        /* \"contracts/HealthWallet.sol\":8110:8120  _recordIds */\n      dup6\n        /* \"contracts/HealthWallet.sol\":8121:8122  i */\n      dup5\n        /* \"contracts/HealthWallet.sol\":8110:8123  _recordIds[i] */\n      dup2\n      mload\n      dup2\n      lt\n      tag_240\n      jumpi\n      tag_241\n      tag_242\n      jump\t// in\n    tag_241:\n    tag_240:\n      0x20\n      mul\n      0x20\n      add\n      add\n      mload\n        /* \"contracts/HealthWallet.sol\":8102:8124  records[_recordIds[i]] */\n      dup2\n      mstore\n      0x20\n      add\n      swap1\n      dup2\n      mstore\n      0x20\n      add\n      0x00\n      keccak256\n        /* \"contracts/HealthWallet.sol\":8102:8139  records[_recordIds[i]].patientAddress */\n      0x01\n      add\n      0x00\n      swap1\n      sload\n      swap1\n      0x0100\n      exp\n      swap1\n      div\n      0xffffffffffffffffffffffffffffffffffffffff\n      and\n        /* \"contracts/HealthWallet.sol\":8102:8153  records[_recordIds[i]].patientAddress == msg.sender */\n      0xffffffffffffffffffffffffffffffffffffffff\n      and\n      eq\n        /* \"contracts/HealthWallet.sol\":8076:8224  require(... */\n      tag_243\n      jumpi\n      mload(0x40)\n      0x08c379a000000000000000000000000000000000000000000000000000000000\n      dup2\n      mstore\n      0x04\n      add\n      tag_244\n      swap1\n      tag_245\n      jump\t// in\n    tag_244:\n      mload(0x40)\n      dup1\n      swap2\n      sub\n      swap1\n      revert\n    tag_243:\n        /* \"contracts/HealthWallet.sol\":8056:8059  i++ */\n      dup1\n      dup1\n      0x01\n      add\n      swap2\n      pop\n      pop\n        /* \"contracts/HealthWallet.sol\":8016:8236  for (uint i = 0; i < _recordIds.length; i++) {... */\n      jump(tag_237)\n    tag_238:\n      pop\n        /* \"contracts/HealthWallet.sol\":8256:8274  uint256 expiryTime */\n      0x00\n        /* \"contracts/HealthWallet.sol\":8314:8320  1 days */\n      0x015180\n        /* \"contracts/HealthWallet.sol\":8296:8311  _durationInDays */\n      dup3\n        /* \"contracts/HealthWallet.sol\":8296:8320  _durationInDays * 1 days */\n      tag_246\n      swap2\n      swap1\n      tag_247\n      jump\t// in\n    tag_246:\n        /* \"contracts/HealthWallet.sol\":8277:8292  block.timestamp */\n      timestamp\n        /* \"contracts/HealthWallet.sol\":8277:8321  block.timestamp + (_durationInDays * 1 days) */\n      tag_248\n      swap2\n      swap1\n      tag_249\n      jump\t// in\n    tag_248:\n        /* \"contracts/HealthWallet.sol\":8256:8321  uint256 expiryTime = block.timestamp + (_durationInDays * 1 days) */\n      swap1\n      pop\n        /* \"contracts/HealthWallet.sol\":8379:8580  AccessGrant({... */\n      mload(0x40)\n      dup1\n      0xa0\n      add\n      0x40\n      mstore\n      dup1\n        /* \"contracts/HealthWallet.sol\":8417:8425  _grantee */\n      dup6\n        /* \"contracts/HealthWallet.sol\":8379:8580  AccessGrant({... */\n      0xffffffffffffffffffffffffffffffffffffffff\n      and\n      dup2\n      mstore\n      0x20\n      add\n        /* \"contracts/HealthWallet.sol\":8451:8461  _recordIds */\n      dup5\n        /* \"contracts/HealthWallet.sol\":8379:8580  AccessGrant({... */\n      dup2\n      mstore\n      0x20\n      add\n        /* \"contracts/HealthWallet.sol\":8488:8498  expiryTime */\n      dup3\n        /* \"contracts/HealthWallet.sol\":8379:8580  AccessGrant({... */\n      dup2\n      mstore\n      0x20\n      add\n        /* \"contracts/HealthWallet.sol\":8523:8527  true */\n      0x01\n        /* \"contracts/HealthWallet.sol\":8379:8580  AccessGrant({... */\n      iszero\n      iszero\n      dup2\n      mstore\n      0x20\n      add\n        /* \"contracts/HealthWallet.sol\":8553:8568  block.timestamp */\n      timestamp\n        /* \"contracts/HealthWallet.sol\":8379:8580  AccessGrant({... */\n      dup2\n      mstore\n      pop\n        /* \"contracts/HealthWallet.sol\":8342:8354  accessGrants */\n      0x02\n        /* \"contracts/HealthWallet.sol\":8342:8366  accessGrants[msg.sender] */\n      0x00\n        /* \"contracts/HealthWallet.sol\":8355:8365  msg.sender */\n      caller\n        /* \"contracts/HealthWallet.sol\":8342:8366  accessGrants[msg.sender] */\n      0xffffffffffffffffffffffffffffffffffffffff\n      and\n      0xffffffffffffffffffffffffffffffffffffffff\n      and\n      dup2\n      mstore\n      0x20\n      add\n      swap1\n      dup2\n      mstore\n      0x20\n      add\n      0x00\n      keccak256\n        /* \"contracts/HealthWallet.sol\":8342:8376  accessGrants[msg.sender][_grantee] */\n      0x00\n        /* \"contracts/HealthWallet.sol\":8367:8375  _grantee */\n      dup7\n        /* \"contracts/HealthWallet.sol\":8342:8376  accessGrants[msg.sender][_grantee] */\n      0xffffffffffffffffffffffffffffffffffffffff\n      and\n      0xffffffffffffffffffffffffffffffffffffffff\n      and\n      dup2\n      mstore\n      0x20\n      add\n      swap1\n      dup2\n      mstore\n      0x20\n      add\n      0x00\n      keccak256\n        /* \"contracts/HealthWallet.sol\":8342:8580  accessGrants[msg.sender][_grantee] = AccessGrant({... */\n      0x00\n      dup3\n      add\n      mload\n      dup2\n      0x00\n      add\n      exp(0x0100, 0x00)\n      dup2\n      sload\n      dup2\n      0xffffffffffffffffffffffffffffffffffffffff\n      mul\n      not\n      and\n      swap1\n      dup4\n      0xffffffffffffffffffffffffffffffffffffffff\n      and\n      mul\n      or\n      swap1\n      sstore\n      pop\n      0x20\n      dup3\n      add\n      mload\n      dup2\n      0x01\n      add\n      swap1\n      dup1\n      mload\n      swap1\n      0x20\n      add\n      swap1\n      tag_250\n      swap3\n      swap2\n      swap1\n      tag_251\n      jump\t// in\n    tag_250:\n      pop\n      0x40\n      dup3\n      add\n      mload\n      dup2\n      0x02\n      add\n      sstore\n      0x60\n      dup3\n      add\n      mload\n      dup2\n      0x03\n      add\n      exp(0x0100, 0x00)\n      dup2\n      sload\n      dup2\n      0xff\n      mul\n      not\n      and\n      swap1\n      dup4\n      iszero\n      iszero\n      mul\n      or\n      swap1\n      sstore\n      pop\n      0x80\n      dup3\n      add\n      mload\n      dup2\n      0x04\n      add\n      sstore\n      swap1\n      pop\n      pop\n        /* \"contracts/HealthWallet.sol\":8632:8640  _grantee */\n      dup4\n        /* \"contracts/HealthWallet.sol\":8606:8653  AccessGranted(msg.sender, _grantee, expiryTime) */\n      0xffffffffffffffffffffffffffffffffffffffff\n      and\n        /* \"contracts/HealthWallet.sol\":8620:8630  msg.sender */\n      caller\n        /* \"contracts/HealthWallet.sol\":8606:8653  AccessGranted(msg.sender, _grantee, expiryTime) */\n      0xffffffffffffffffffffffffffffffffffffffff\n      and\n      0x65d0cc1e52d49938ca4ad9f423c79c1b84d914b9a683fbc5d3f93ac3cc5635f5\n        /* \"contracts/HealthWallet.sol\":8642:8652  expiryTime */\n      dup4\n        /* \"contracts/HealthWallet.sol\":8606:8653  AccessGranted(msg.sender, _grantee, expiryTime) */\n      mload(0x40)\n      tag_252\n      swap2\n      swap1\n      tag_38\n      jump\t// in\n    tag_252:\n      mload(0x40)\n      dup1\n      swap2\n      sub\n      swap1\n      log3\n        /* \"contracts/HealthWallet.sol\":7805:8661  {... */\n      pop\n        /* \"contracts/HealthWallet.sol\":7671:8661  function grantAccess(... */\n      pop\n      pop\n      pop\n      jump\t// out\n        /* \"contracts/HealthWallet.sol\":2182:2233  mapping(address => address) public emergencyContact */\n    tag_81:\n      mstore(0x20, 0x04)\n      dup1\n      0x00\n      mstore\n      keccak256(0x00, 0x40)\n      0x00\n      swap2\n      pop\n      sload\n      swap1\n      0x0100\n      exp\n      swap1\n      div\n      0xffffffffffffffffffffffffffffffffffffffff\n      and\n      dup2\n      jump\t// out\n        /* \"contracts/HealthWallet.sol\":9347:10148  function hasAccess(... */\n    tag_87:\n        /* \"contracts/HealthWallet.sol\":9478:9482  bool */\n      0x00\n        /* \"contracts/HealthWallet.sol\":9570:9580  _requester */\n      dup3\n        /* \"contracts/HealthWallet.sol\":9558:9580  _patient == _requester */\n      0xffffffffffffffffffffffffffffffffffffffff\n      and\n        /* \"contracts/HealthWallet.sol\":9558:9566  _patient */\n      dup5\n        /* \"contracts/HealthWallet.sol\":9558:9580  _patient == _requester */\n      0xffffffffffffffffffffffffffffffffffffffff\n      and\n      sub\n        /* \"contracts/HealthWallet.sol\":9554:9593  if (_patient == _requester) return true */\n      tag_254\n      jumpi\n        /* \"contracts/HealthWallet.sol\":9589:9593  true */\n      0x01\n        /* \"contracts/HealthWallet.sol\":9582:9593  return true */\n      swap1\n      pop\n      jump(tag_253)\n        /* \"contracts/HealthWallet.sol\":9554:9593  if (_patient == _requester) return true */\n    tag_254:\n        /* \"contracts/HealthWallet.sol\":9691:9701  _requester */\n      dup3\n        /* \"contracts/HealthWallet.sol\":9661:9701  emergencyContact[_patient] == _requester */\n      0xffffffffffffffffffffffffffffffffffffffff\n      and\n        /* \"contracts/HealthWallet.sol\":9661:9677  emergencyContact */\n      0x04\n        /* \"contracts/HealthWallet.sol\":9661:9687  emergencyContact[_patient] */\n      0x00\n        /* \"contracts/HealthWallet.sol\":9678:9686  _patient */\n      dup7\n        /* \"contracts/HealthWallet.sol\":9661:9687  emergencyContact[_patient] */\n      0xffffffffffffffffffffffffffffffffffffffff\n      and\n      0xffffffffffffffffffffffffffffffffffffffff\n      and\n      dup2\n      mstore\n      0x20\n      add\n      swap1\n      dup2\n      mstore\n      0x20\n      add\n      0x00\n      keccak256\n      0x00\n      swap1\n      sload\n      swap1\n      0x0100\n      exp\n      swap1\n      div\n      0xffffffffffffffffffffffffffffffffffffffff\n      and\n        /* \"contracts/HealthWallet.sol\":9661:9701  emergencyContact[_patient] == _requester */\n      0xffffffffffffffffffffffffffffffffffffffff\n      and\n      sub\n        /* \"contracts/HealthWallet.sol\":9657:9714  if (emergencyContact[_patient] == _requester) return true */\n      tag_255\n      jumpi\n        /* \"contracts/HealthWallet.sol\":9710:9714  true */\n      0x01\n        /* \"contracts/HealthWallet.sol\":9703:9714  return true */\n      swap1\n      pop\n      jump(tag_253)\n        /* \"contracts/HealthWallet.sol\":9657:9714  if (emergencyContact[_patient] == _requester) return true */\n    tag_255:\n        /* \"contracts/HealthWallet.sol\":9735:9759  AccessGrant memory grant */\n      0x00\n        /* \"contracts/HealthWallet.sol\":9762:9774  accessGrants */\n      0x02\n        /* \"contracts/HealthWallet.sol\":9762:9784  accessGrants[_patient] */\n      0x00\n        /* \"contracts/HealthWallet.sol\":9775:9783  _patient */\n      dup7\n        /* \"contracts/HealthWallet.sol\":9762:9784  accessGrants[_patient] */\n      0xffffffffffffffffffffffffffffffffffffffff\n      and\n      0xffffffffffffffffffffffffffffffffffffffff\n      and\n      dup2\n      mstore\n      0x20\n      add\n      swap1\n      dup2\n      mstore\n      0x20\n      add\n      0x00\n      keccak256\n        /* \"contracts/HealthWallet.sol\":9762:9796  accessGrants[_patient][_requester] */\n      0x00\n        /* \"contracts/HealthWallet.sol\":9785:9795  _requester */\n      dup6\n        /* \"contracts/HealthWallet.sol\":9762:9796  accessGrants[_patient][_requester] */\n      0xffffffffffffffffffffffffffffffffffffffff\n      and\n      0xffffffffffffffffffffffffffffffffffffffff\n      and\n      dup2\n      mstore\n      0x20\n      add\n      swap1\n      dup2\n      mstore\n      0x20\n      add\n      0x00\n      keccak256\n        /* \"contracts/HealthWallet.sol\":9735:9796  AccessGrant memory grant = accessGrants[_patient][_requester] */\n      mload(0x40)\n      dup1\n      0xa0\n      add\n      0x40\n      mstore\n      swap1\n      dup2\n      0x00\n      dup3\n      add\n      0x00\n      swap1\n      sload\n      swap1\n      0x0100\n      exp\n      swap1\n      div\n      0xffffffffffffffffffffffffffffffffffffffff\n      and\n      0xffffffffffffffffffffffffffffffffffffffff\n      and\n      0xffffffffffffffffffffffffffffffffffffffff\n      and\n      dup2\n      mstore\n      0x20\n      add\n      0x01\n      dup3\n      add\n      dup1\n      sload\n      dup1\n      0x20\n      mul\n      0x20\n      add\n      mload(0x40)\n      swap1\n      dup2\n      add\n      0x40\n      mstore\n      dup1\n      swap3\n      swap2\n      swap1\n      dup2\n      dup2\n      mstore\n      0x20\n      add\n      dup3\n      dup1\n      sload\n      dup1\n      iszero\n      tag_256\n      jumpi\n      0x20\n      mul\n      dup3\n      add\n      swap2\n      swap1\n      0x00\n      mstore\n      keccak256(0x00, 0x20)\n      swap1\n    tag_257:\n      dup2\n      sload\n      dup2\n      mstore\n      0x20\n      add\n      swap1\n      0x01\n      add\n      swap1\n      dup1\n      dup4\n      gt\n      tag_257\n      jumpi\n    tag_256:\n      pop\n      pop\n      pop\n      pop\n      pop\n      dup2\n      mstore\n      0x20\n      add\n      0x02\n      dup3\n      add\n      sload\n      dup2\n      mstore\n      0x20\n      add\n      0x03\n      dup3\n      add\n      0x00\n      swap1\n      sload\n      swap1\n      0x0100\n      exp\n      swap1\n      div\n      0xff\n      and\n      iszero\n      iszero\n      iszero\n      iszero\n      dup2\n      mstore\n      0x20\n      add\n      0x04\n      dup3\n      add\n      sload\n      dup2\n      mstore\n      pop\n      pop\n      swap1\n      pop\n        /* \"contracts/HealthWallet.sol\":9822:9827  grant */\n      dup1\n        /* \"contracts/HealthWallet.sol\":9822:9836  grant.isActive */\n      0x60\n      add\n      mload\n        /* \"contracts/HealthWallet.sol\":9817:9850  if (!grant.isActive) return false */\n      tag_258\n      jumpi\n        /* \"contracts/HealthWallet.sol\":9845:9850  false */\n      0x00\n        /* \"contracts/HealthWallet.sol\":9838:9850  return false */\n      swap2\n      pop\n      pop\n      jump(tag_253)\n        /* \"contracts/HealthWallet.sol\":9817:9850  if (!grant.isActive) return false */\n    tag_258:\n        /* \"contracts/HealthWallet.sol\":9883:9888  grant */\n      dup1\n        /* \"contracts/HealthWallet.sol\":9883:9899  grant.expiryTime */\n      0x40\n      add\n      mload\n        /* \"contracts/HealthWallet.sol\":9865:9880  block.timestamp */\n      timestamp\n        /* \"contracts/HealthWallet.sol\":9865:9899  block.timestamp > grant.expiryTime */\n      gt\n        /* \"contracts/HealthWallet.sol\":9861:9913  if (block.timestamp > grant.expiryTime) return false */\n      iszero\n      tag_259\n      jumpi\n        /* \"contracts/HealthWallet.sol\":9908:9913  false */\n      0x00\n        /* \"contracts/HealthWallet.sol\":9901:9913  return false */\n      swap2\n      pop\n      pop\n      jump(tag_253)\n        /* \"contracts/HealthWallet.sol\":9861:9913  if (block.timestamp > grant.expiryTime) return false */\n    tag_259:\n        /* \"contracts/HealthWallet.sol\":9988:9994  uint i */\n      0x00\n        /* \"contracts/HealthWallet.sol\":9983:10108  for (uint i = 0; i < grant.recordIds.length; i++) {... */\n    tag_260:\n        /* \"contracts/HealthWallet.sol\":10004:10009  grant */\n      dup2\n        /* \"contracts/HealthWallet.sol\":10004:10019  grant.recordIds */\n      0x20\n      add\n      mload\n        /* \"contracts/HealthWallet.sol\":10004:10026  grant.recordIds.length */\n      mload\n        /* \"contracts/HealthWallet.sol\":10000:10001  i */\n      dup2\n        /* \"contracts/HealthWallet.sol\":10000:10026  i < grant.recordIds.length */\n      lt\n        /* \"contracts/HealthWallet.sol\":9983:10108  for (uint i = 0; i < grant.recordIds.length; i++) {... */\n      iszero\n      tag_261\n      jumpi\n        /* \"contracts/HealthWallet.sol\":10074:10083  _recordId */\n      dup4\n        /* \"contracts/HealthWallet.sol\":10052:10057  grant */\n      dup3\n        /* \"contracts/HealthWallet.sol\":10052:10067  grant.recordIds */\n      0x20\n      add\n      mload\n        /* \"contracts/HealthWallet.sol\":10068:10069  i */\n      dup3\n        /* \"contracts/HealthWallet.sol\":10052:10070  grant.recordIds[i] */\n      dup2\n      mload\n      dup2\n      lt\n      tag_263\n      jumpi\n      tag_264\n      tag_242\n      jump\t// in\n    tag_264:\n    tag_263:\n      0x20\n      mul\n      0x20\n      add\n      add\n      mload\n        /* \"contracts/HealthWallet.sol\":10052:10083  grant.recordIds[i] == _recordId */\n      sub\n        /* \"contracts/HealthWallet.sol\":10048:10096  if (grant.recordIds[i] == _recordId) return true */\n      tag_265\n      jumpi\n        /* \"contracts/HealthWallet.sol\":10092:10096  true */\n      0x01\n        /* \"contracts/HealthWallet.sol\":10085:10096  return true */\n      swap3\n      pop\n      pop\n      pop\n      jump(tag_253)\n        /* \"contracts/HealthWallet.sol\":10048:10096  if (grant.recordIds[i] == _recordId) return true */\n    tag_265:\n        /* \"contracts/HealthWallet.sol\":10028:10031  i++ */\n      dup1\n      dup1\n      0x01\n      add\n      swap2\n      pop\n      pop\n        /* \"contracts/HealthWallet.sol\":9983:10108  for (uint i = 0; i < grant.recordIds.length; i++) {... */\n      jump(tag_260)\n    tag_261:\n      pop\n        /* \"contracts/HealthWallet.sol\":10135:10140  false */\n      0x00\n        /* \"contracts/HealthWallet.sol\":10128:10140  return false */\n      swap2\n      pop\n      pop\n        /* \"contracts/HealthWallet.sol\":9347:10148  function hasAccess(... */\n    tag_253:\n      swap4\n      swap3\n      pop\n      pop\n      pop\n      jump\t// out\n        /* \"contracts/HealthWallet.sol\":12494:12852  function hasGeneralAccess(address _patient, address _requester) ... */\n    tag_168:\n        /* \"contracts/HealthWallet.sol\":12611:12615  bool */\n      0x00\n        /* \"contracts/HealthWallet.sol\":12668:12678  _requester */\n      dup2\n        /* \"contracts/HealthWallet.sol\":12638:12678  emergencyContact[_patient] == _requester */\n      0xffffffffffffffffffffffffffffffffffffffff\n      and\n        /* \"contracts/HealthWallet.sol\":12638:12654  emergencyContact */\n      0x04\n        /* \"contracts/HealthWallet.sol\":12638:12664  emergencyContact[_patient] */\n      0x00\n        /* \"contracts/HealthWallet.sol\":12655:12663  _patient */\n      dup6\n        /* \"contracts/HealthWallet.sol\":12638:12664  emergencyContact[_patient] */\n      0xffffffffffffffffffffffffffffffffffffffff\n      and\n      0xffffffffffffffffffffffffffffffffffffffff\n      and\n      dup2\n      mstore\n      0x20\n      add\n      swap1\n      dup2\n      mstore\n      0x20\n      add\n      0x00\n      keccak256\n      0x00\n      swap1\n      sload\n      swap1\n      0x0100\n      exp\n      swap1\n      div\n      0xffffffffffffffffffffffffffffffffffffffff\n      and\n        /* \"contracts/HealthWallet.sol\":12638:12678  emergencyContact[_patient] == _requester */\n      0xffffffffffffffffffffffffffffffffffffffff\n      and\n      sub\n        /* \"contracts/HealthWallet.sol\":12634:12691  if (emergencyContact[_patient] == _requester) return true */\n      tag_267\n      jumpi\n        /* \"contracts/HealthWallet.sol\":12687:12691  true */\n      0x01\n        /* \"contracts/HealthWallet.sol\":12680:12691  return true */\n      swap1\n      pop\n      jump(tag_266)\n        /* \"contracts/HealthWallet.sol\":12634:12691  if (emergencyContact[_patient] == _requester) return true */\n    tag_267:\n        /* \"contracts/HealthWallet.sol\":12712:12736  AccessGrant memory grant */\n      0x00\n        /* \"contracts/HealthWallet.sol\":12739:12751  accessGrants */\n      0x02\n        /* \"contracts/HealthWallet.sol\":12739:12761  accessGrants[_patient] */\n      0x00\n        /* \"contracts/HealthWallet.sol\":12752:12760  _patient */\n      dup6\n        /* \"contracts/HealthWallet.sol\":12739:12761  accessGrants[_patient] */\n      0xffffffffffffffffffffffffffffffffffffffff\n      and\n      0xffffffffffffffffffffffffffffffffffffffff\n      and\n      dup2\n      mstore\n      0x20\n      add\n      swap1\n      dup2\n      mstore\n      0x20\n      add\n      0x00\n      keccak256\n        /* \"contracts/HealthWallet.sol\":12739:12773  accessGrants[_patient][_requester] */\n      0x00\n        /* \"contracts/HealthWallet.sol\":12762:12772  _requester */\n      dup5\n        /* \"contracts/HealthWallet.sol\":12739:12773  accessGrants[_patient][_requester] */\n      0xffffffffffffffffffffffffffffffffffffffff\n      and\n      0xffffffffffffffffffffffffffffffffffffffff\n      and\n      dup2\n      mstore\n      0x20\n      add\n      swap1\n      dup2\n      mstore\n      0x20\n      add\n      0x00\n      keccak256\n        /* \"contracts/HealthWallet.sol\":12712:12773  AccessGrant memory grant = accessGrants[_patient][_requester] */\n      mload(0x40)\n      dup1\n      0xa0\n      add\n      0x40\n      mstore\n      swap1\n      dup2\n      0x00\n      dup3\n      add\n      0x00\n      swap1\n      sload\n      swap1\n      0x0100\n      exp\n      swap1\n      div\n      0xffffffffffffffffffffffffffffffffffffffff\n      and\n      0xffffffffffffffffffffffffffffffffffffffff\n      and\n      0xffffffffffffffffffffffffffffffffffffffff\n      and\n      dup2\n      mstore\n      0x20\n      add\n      0x01\n      dup3\n      add\n      dup1\n      sload\n      dup1\n      0x20\n      mul\n      0x20\n      add\n      mload(0x40)\n      swap1\n      dup2\n      add\n      0x40\n      mstore\n      dup1\n      swap3\n      swap2\n      swap1\n      dup2\n      dup2\n      mstore\n      0x20\n      add\n      dup3\n      dup1\n      sload\n      dup1\n      iszero\n      tag_268\n      jumpi\n      0x20\n      mul\n      dup3\n      add\n      swap2\n      swap1\n      0x00\n      mstore\n      keccak256(0x00, 0x20)\n      swap1\n    tag_269:\n      dup2\n      sload\n      dup2\n      mstore\n      0x20\n      add\n      swap1\n      0x01\n      add\n      swap1\n      dup1\n      dup4\n      gt\n      tag_269\n      jumpi\n    tag_268:\n      pop\n      pop\n      pop\n      pop\n      pop\n      dup2\n      mstore\n      0x20\n      add\n      0x02\n      dup3\n      add\n      sload\n      dup2\n      mstore\n      0x20\n      add\n      0x03\n      dup3\n      add\n      0x00\n      swap1\n      sload\n      swap1\n      0x0100\n      exp\n      swap1\n      div\n      0xff\n      and\n      iszero\n      iszero\n      iszero\n      iszero\n      dup2\n      mstore\n      0x20\n      add\n      0x04\n      dup3\n      add\n      sload\n      dup2\n      mstore\n      pop\n      pop\n      swap1\n      pop\n        /* \"contracts/HealthWallet.sol\":12791:12796  grant */\n      dup1\n        /* \"contracts/HealthWallet.sol\":12791:12805  grant.isActive */\n      0x60\n      add\n      mload\n        /* \"contracts/HealthWallet.sol\":12791:12844  grant.isActive && block.timestamp <= grant.expiryTime */\n      dup1\n      iszero\n      tag_270\n      jumpi\n      pop\n        /* \"contracts/HealthWallet.sol\":12828:12833  grant */\n      dup1\n        /* \"contracts/HealthWallet.sol\":12828:12844  grant.expiryTime */\n      0x40\n      add\n      mload\n        /* \"contracts/HealthWallet.sol\":12809:12824  block.timestamp */\n      timestamp\n        /* \"contracts/HealthWallet.sol\":12809:12844  block.timestamp <= grant.expiryTime */\n      gt\n      iszero\n        /* \"contracts/HealthWallet.sol\":12791:12844  grant.isActive && block.timestamp <= grant.expiryTime */\n    tag_270:\n        /* \"contracts/HealthWallet.sol\":12784:12844  return grant.isActive && block.timestamp <= grant.expiryTime */\n      swap2\n      pop\n      pop\n        /* \"contracts/HealthWallet.sol\":12494:12852  function hasGeneralAccess(address _patient, address _requester) ... */\n    tag_266:\n      swap3\n      swap2\n      pop\n      pop\n      jump\t// out\n    tag_105:\n      mload(0x40)\n      dup1\n      0x0120\n      add\n      0x40\n      mstore\n      dup1\n      0x00\n      dup2\n      mstore\n      0x20\n      add\n      and(0xffffffffffffffffffffffffffffffffffffffff, 0x00)\n      dup2\n      mstore\n      0x20\n      add\n      0x60\n      dup2\n      mstore\n      0x20\n      add\n      0x00\n      0x05\n      dup2\n      gt\n      iszero\n      tag_271\n      jumpi\n      tag_272\n      tag_127\n      jump\t// in\n    tag_272:\n    tag_271:\n      dup2\n      mstore\n      0x20\n      add\n      0x00\n      dup2\n      mstore\n      0x20\n      add\n      and(0xffffffffffffffffffffffffffffffffffffffff, 0x00)\n      dup2\n      mstore\n      0x20\n      add\n      iszero(iszero(0x00))\n      dup2\n      mstore\n      0x20\n      add\n      0x60\n      dup2\n      mstore\n      0x20\n      add\n      0x00\n      dup2\n      mstore\n      pop\n      swap1\n      jump\t// out\n    tag_220:\n      mload(0x40)\n      dup1\n      0xa0\n      add\n      0x40\n      mstore\n      dup1\n      and(0xffffffffffffffffffffffffffffffffffffffff, 0x00)\n      dup2\n      mstore\n      0x20\n      add\n      0x60\n      dup2\n      mstore\n      0x20\n      add\n      0x00\n      dup2\n      mstore\n      0x20\n      add\n      iszero(iszero(0x00))\n      dup2\n      mstore\n      0x20\n      add\n      0x00\n      dup2\n      mstore\n      pop\n      swap1\n      jump\t// out\n    tag_251:\n      dup3\n      dup1\n      sload\n      dup3\n      dup3\n      sstore\n      swap1\n      0x00\n      mstore\n      keccak256(0x00, 0x20)\n      swap1\n      dup2\n      add\n      swap3\n      dup3\n      iszero\n      tag_273\n      jumpi\n      swap2\n      0x20\n      mul\n      dup3\n      add\n    tag_274:\n      dup3\n      dup2\n      gt\n      iszero\n      tag_275\n      jumpi\n      dup3\n      mload\n      dup3\n      sstore\n      swap2\n      0x20\n      add\n      swap2\n      swap1\n      0x01\n      add\n      swap1\n      jump(tag_274)\n    tag_275:\n    tag_273:\n      pop\n      swap1\n      pop\n      tag_276\n      swap2\n      swap1\n      tag_277\n      jump\t// in\n    tag_276:\n      pop\n      swap1\n      jump\t// out\n    tag_277:\n    tag_278:\n      dup1\n      dup3\n      gt\n      iszero\n      tag_279\n      jumpi\n      0x00\n      dup2\n      0x00\n      swap1\n      sstore\n      pop\n      0x01\n      add\n      jump(tag_278)\n    tag_279:\n      pop\n      swap1\n      jump\t// out\n        /* \"#utility.yul\":7:82   */\n    tag_280:\n        /* \"#utility.yul\":40:46   */\n      0x00\n        /* \"#utility.yul\":73:75   */\n      0x40\n        /* \"#utility.yul\":67:76   */\n      mload\n        /* \"#utility.yul\":57:76   */\n      swap1\n      pop\n        /* \"#utility.yul\":7:82   */\n      swap1\n      jump\t// out\n        /* \"#utility.yul\":88:205   */\n    tag_281:\n        /* \"#utility.yul\":197:198   */\n      0x00\n        /* \"#utility.yul\":194:195   */\n      dup1\n        /* \"#utility.yul\":187:199   */\n      revert\n        /* \"#utility.yul\":211:328   */\n    tag_282:\n        /* \"#utility.yul\":320:321   */\n      0x00\n        /* \"#utility.yul\":317:318   */\n      dup1\n        /* \"#utility.yul\":310:322   */\n      revert\n        /* \"#utility.yul\":334:411   */\n    tag_283:\n        /* \"#utility.yul\":371:378   */\n      0x00\n        /* \"#utility.yul\":400:405   */\n      dup2\n        /* \"#utility.yul\":389:405   */\n      swap1\n      pop\n        /* \"#utility.yul\":334:411   */\n      swap2\n      swap1\n      pop\n      jump\t// out\n        /* \"#utility.yul\":417:539   */\n    tag_284:\n        /* \"#utility.yul\":490:514   */\n      tag_386\n        /* \"#utility.yul\":508:513   */\n      dup2\n        /* \"#utility.yul\":490:514   */\n      tag_283\n      jump\t// in\n    tag_386:\n        /* \"#utility.yul\":483:488   */\n      dup2\n        /* \"#utility.yul\":480:515   */\n      eq\n        /* \"#utility.yul\":470:533   */\n      tag_387\n      jumpi\n        /* \"#utility.yul\":529:530   */\n      0x00\n        /* \"#utility.yul\":526:527   */\n      dup1\n        /* \"#utility.yul\":519:531   */\n      revert\n        /* \"#utility.yul\":470:533   */\n    tag_387:\n        /* \"#utility.yul\":417:539   */\n      pop\n      jump\t// out\n        /* \"#utility.yul\":545:684   */\n    tag_285:\n        /* \"#utility.yul\":591:596   */\n      0x00\n        /* \"#utility.yul\":629:635   */\n      dup2\n        /* \"#utility.yul\":616:636   */\n      calldataload\n        /* \"#utility.yul\":607:636   */\n      swap1\n      pop\n        /* \"#utility.yul\":645:678   */\n      tag_389\n        /* \"#utility.yul\":672:677   */\n      dup2\n        /* \"#utility.yul\":645:678   */\n      tag_284\n      jump\t// in\n    tag_389:\n        /* \"#utility.yul\":545:684   */\n      swap3\n      swap2\n      pop\n      pop\n      jump\t// out\n        /* \"#utility.yul\":690:1019   */\n    tag_23:\n        /* \"#utility.yul\":749:755   */\n      0x00\n        /* \"#utility.yul\":798:800   */\n      0x20\n        /* \"#utility.yul\":786:795   */\n      dup3\n        /* \"#utility.yul\":777:784   */\n      dup5\n        /* \"#utility.yul\":773:796   */\n      sub\n        /* \"#utility.yul\":769:801   */\n      slt\n        /* \"#utility.yul\":766:885   */\n      iszero\n      tag_391\n      jumpi\n        /* \"#utility.yul\":804:883   */\n      tag_392\n      tag_281\n      jump\t// in\n    tag_392:\n        /* \"#utility.yul\":766:885   */\n    tag_391:\n        /* \"#utility.yul\":924:925   */\n      0x00\n        /* \"#utility.yul\":949:1002   */\n      tag_393\n        /* \"#utility.yul\":994:1001   */\n      dup5\n        /* \"#utility.yul\":985:991   */\n      dup3\n        /* \"#utility.yul\":974:983   */\n      dup6\n        /* \"#utility.yul\":970:992   */\n      add\n        /* \"#utility.yul\":949:1002   */\n      tag_285\n      jump\t// in\n    tag_393:\n        /* \"#utility.yul\":939:1002   */\n      swap2\n      pop\n        /* \"#utility.yul\":895:1012   */\n      pop\n        /* \"#utility.yul\":690:1019   */\n      swap3\n      swap2\n      pop\n      pop\n      jump\t// out\n        /* \"#utility.yul\":1025:1164   */\n    tag_286:\n        /* \"#utility.yul\":1117:1123   */\n      0x00\n        /* \"#utility.yul\":1151:1156   */\n      dup2\n        /* \"#utility.yul\":1145:1157   */\n      mload\n        /* \"#utility.yul\":1135:1157   */\n      swap1\n      pop\n        /* \"#utility.yul\":1025:1164   */\n      swap2\n      swap1\n      pop\n      jump\t// out\n        /* \"#utility.yul\":1170:1379   */\n    tag_287:\n        /* \"#utility.yul\":1294:1305   */\n      0x00\n        /* \"#utility.yul\":1328:1334   */\n      dup3\n        /* \"#utility.yul\":1323:1326   */\n      dup3\n        /* \"#utility.yul\":1316:1335   */\n      mstore\n        /* \"#utility.yul\":1368:1372   */\n      0x20\n        /* \"#utility.yul\":1363:1366   */\n      dup3\n        /* \"#utility.yul\":1359:1373   */\n      add\n        /* \"#utility.yul\":1344:1373   */\n      swap1\n      pop\n        /* \"#utility.yul\":1170:1379   */\n      swap3\n      swap2\n      pop\n      pop\n      jump\t// out\n        /* \"#utility.yul\":1385:1542   */\n    tag_288:\n        /* \"#utility.yul\":1477:1481   */\n      0x00\n        /* \"#utility.yul\":1500:1503   */\n      dup2\n        /* \"#utility.yul\":1492:1503   */\n      swap1\n      pop\n        /* \"#utility.yul\":1530:1534   */\n      0x20\n        /* \"#utility.yul\":1525:1528   */\n      dup3\n        /* \"#utility.yul\":1521:1535   */\n      add\n        /* \"#utility.yul\":1513:1535   */\n      swap1\n      pop\n        /* \"#utility.yul\":1385:1542   */\n      swap2\n      swap1\n      pop\n      jump\t// out\n        /* \"#utility.yul\":1548:1674   */\n    tag_289:\n        /* \"#utility.yul\":1585:1592   */\n      0x00\n        /* \"#utility.yul\":1625:1667   */\n      0xffffffffffffffffffffffffffffffffffffffff\n        /* \"#utility.yul\":1618:1623   */\n      dup3\n        /* \"#utility.yul\":1614:1668   */\n      and\n        /* \"#utility.yul\":1603:1668   */\n      swap1\n      pop\n        /* \"#utility.yul\":1548:1674   */\n      swap2\n      swap1\n      pop\n      jump\t// out\n        /* \"#utility.yul\":1680:1776   */\n    tag_290:\n        /* \"#utility.yul\":1717:1724   */\n      0x00\n        /* \"#utility.yul\":1746:1770   */\n      tag_399\n        /* \"#utility.yul\":1764:1769   */\n      dup3\n        /* \"#utility.yul\":1746:1770   */\n      tag_289\n      jump\t// in\n    tag_399:\n        /* \"#utility.yul\":1735:1770   */\n      swap1\n      pop\n        /* \"#utility.yul\":1680:1776   */\n      swap2\n      swap1\n      pop\n      jump\t// out\n        /* \"#utility.yul\":1782:1890   */\n    tag_291:\n        /* \"#utility.yul\":1859:1883   */\n      tag_401\n        /* \"#utility.yul\":1877:1882   */\n      dup2\n        /* \"#utility.yul\":1859:1883   */\n      tag_290\n      jump\t// in\n    tag_401:\n        /* \"#utility.yul\":1854:1857   */\n      dup3\n        /* \"#utility.yul\":1847:1884   */\n      mstore\n        /* \"#utility.yul\":1782:1890   */\n      pop\n      pop\n      jump\t// out\n        /* \"#utility.yul\":1896:2004   */\n    tag_292:\n        /* \"#utility.yul\":1973:1997   */\n      tag_403\n        /* \"#utility.yul\":1991:1996   */\n      dup2\n        /* \"#utility.yul\":1973:1997   */\n      tag_283\n      jump\t// in\n    tag_403:\n        /* \"#utility.yul\":1968:1971   */\n      dup3\n        /* \"#utility.yul\":1961:1998   */\n      mstore\n        /* \"#utility.yul\":1896:2004   */\n      pop\n      pop\n      jump\t// out\n        /* \"#utility.yul\":2010:2109   */\n    tag_293:\n        /* \"#utility.yul\":2062:2068   */\n      0x00\n        /* \"#utility.yul\":2096:2101   */\n      dup2\n        /* \"#utility.yul\":2090:2102   */\n      mload\n        /* \"#utility.yul\":2080:2102   */\n      swap1\n      pop\n        /* \"#utility.yul\":2010:2109   */\n      swap2\n      swap1\n      pop\n      jump\t// out\n        /* \"#utility.yul\":2115:2274   */\n    tag_294:\n        /* \"#utility.yul\":2189:2200   */\n      0x00\n        /* \"#utility.yul\":2223:2229   */\n      dup3\n        /* \"#utility.yul\":2218:2221   */\n      dup3\n        /* \"#utility.yul\":2211:2230   */\n      mstore\n        /* \"#utility.yul\":2263:2267   */\n      0x20\n        /* \"#utility.yul\":2258:2261   */\n      dup3\n        /* \"#utility.yul\":2254:2268   */\n      add\n        /* \"#utility.yul\":2239:2268   */\n      swap1\n      pop\n        /* \"#utility.yul\":2115:2274   */\n      swap3\n      swap2\n      pop\n      pop\n      jump\t// out\n        /* \"#utility.yul\":2280:2528   */\n    tag_295:\n        /* \"#utility.yul\":2362:2363   */\n      0x00\n        /* \"#utility.yul\":2372:2485   */\n    tag_407:\n        /* \"#utility.yul\":2386:2392   */\n      dup4\n        /* \"#utility.yul\":2383:2384   */\n      dup2\n        /* \"#utility.yul\":2380:2393   */\n      lt\n        /* \"#utility.yul\":2372:2485   */\n      iszero\n      tag_409\n      jumpi\n        /* \"#utility.yul\":2471:2472   */\n      dup1\n        /* \"#utility.yul\":2466:2469   */\n      dup3\n        /* \"#utility.yul\":2462:2473   */\n      add\n        /* \"#utility.yul\":2456:2474   */\n      mload\n        /* \"#utility.yul\":2452:2453   */\n      dup2\n        /* \"#utility.yul\":2447:2450   */\n      dup5\n        /* \"#utility.yul\":2443:2454   */\n      add\n        /* \"#utility.yul\":2436:2475   */\n      mstore\n        /* \"#utility.yul\":2408:2410   */\n      0x20\n        /* \"#utility.yul\":2405:2406   */\n      dup2\n        /* \"#utility.yul\":2401:2411   */\n      add\n        /* \"#utility.yul\":2396:2411   */\n      swap1\n      pop\n        /* \"#utility.yul\":2372:2485   */\n      jump(tag_407)\n    tag_409:\n        /* \"#utility.yul\":2519:2520   */\n      0x00\n        /* \"#utility.yul\":2510:2516   */\n      dup5\n        /* \"#utility.yul\":2505:2508   */\n      dup5\n        /* \"#utility.yul\":2501:2517   */\n      add\n        /* \"#utility.yul\":2494:2521   */\n      mstore\n        /* \"#utility.yul\":2342:2528   */\n      pop\n        /* \"#utility.yul\":2280:2528   */\n      pop\n      pop\n      pop\n      jump\t// out\n        /* \"#utility.yul\":2534:2636   */\n    tag_296:\n        /* \"#utility.yul\":2575:2581   */\n      0x00\n        /* \"#utility.yul\":2626:2628   */\n      0x1f\n        /* \"#utility.yul\":2622:2629   */\n      not\n        /* \"#utility.yul\":2617:2619   */\n      0x1f\n        /* \"#utility.yul\":2610:2615   */\n      dup4\n        /* \"#utility.yul\":2606:2620   */\n      add\n        /* \"#utility.yul\":2602:2630   */\n      and\n        /* \"#utility.yul\":2592:2630   */\n      swap1\n      pop\n        /* \"#utility.yul\":2534:2636   */\n      swap2\n      swap1\n      pop\n      jump\t// out\n        /* \"#utility.yul\":2642:2999   */\n    tag_297:\n        /* \"#utility.yul\":2720:2723   */\n      0x00\n        /* \"#utility.yul\":2748:2787   */\n      tag_412\n        /* \"#utility.yul\":2781:2786   */\n      dup3\n        /* \"#utility.yul\":2748:2787   */\n      tag_293\n      jump\t// in\n    tag_412:\n        /* \"#utility.yul\":2803:2864   */\n      tag_413\n        /* \"#utility.yul\":2857:2863   */\n      dup2\n        /* \"#utility.yul\":2852:2855   */\n      dup6\n        /* \"#utility.yul\":2803:2864   */\n      tag_294\n      jump\t// in\n    tag_413:\n        /* \"#utility.yul\":2796:2864   */\n      swap4\n      pop\n        /* \"#utility.yul\":2873:2938   */\n      tag_414\n        /* \"#utility.yul\":2931:2937   */\n      dup2\n        /* \"#utility.yul\":2926:2929   */\n      dup6\n        /* \"#utility.yul\":2919:2923   */\n      0x20\n        /* \"#utility.yul\":2912:2917   */\n      dup7\n        /* \"#utility.yul\":2908:2924   */\n      add\n        /* \"#utility.yul\":2873:2938   */\n      tag_295\n      jump\t// in\n    tag_414:\n        /* \"#utility.yul\":2963:2992   */\n      tag_415\n        /* \"#utility.yul\":2985:2991   */\n      dup2\n        /* \"#utility.yul\":2963:2992   */\n      tag_296\n      jump\t// in\n    tag_415:\n        /* \"#utility.yul\":2958:2961   */\n      dup5\n        /* \"#utility.yul\":2954:2993   */\n      add\n        /* \"#utility.yul\":2947:2993   */\n      swap2\n      pop\n        /* \"#utility.yul\":2724:2999   */\n      pop\n        /* \"#utility.yul\":2642:2999   */\n      swap3\n      swap2\n      pop\n      pop\n      jump\t// out\n        /* \"#utility.yul\":3075:3856   */\n    tag_298:\n        /* \"#utility.yul\":3184:3187   */\n      0x00\n        /* \"#utility.yul\":3220:3224   */\n      0x60\n        /* \"#utility.yul\":3215:3218   */\n      dup4\n        /* \"#utility.yul\":3211:3225   */\n      add\n        /* \"#utility.yul\":3311:3315   */\n      0x00\n        /* \"#utility.yul\":3304:3309   */\n      dup4\n        /* \"#utility.yul\":3300:3316   */\n      add\n        /* \"#utility.yul\":3294:3317   */\n      mload\n        /* \"#utility.yul\":3330:3393   */\n      tag_417\n        /* \"#utility.yul\":3387:3391   */\n      0x00\n        /* \"#utility.yul\":3382:3385   */\n      dup7\n        /* \"#utility.yul\":3378:3392   */\n      add\n        /* \"#utility.yul\":3364:3376   */\n      dup3\n        /* \"#utility.yul\":3330:3393   */\n      tag_291\n      jump\t// in\n    tag_417:\n        /* \"#utility.yul\":3235:3403   */\n      pop\n        /* \"#utility.yul\":3490:3494   */\n      0x20\n        /* \"#utility.yul\":3483:3488   */\n      dup4\n        /* \"#utility.yul\":3479:3495   */\n      add\n        /* \"#utility.yul\":3473:3496   */\n      mload\n        /* \"#utility.yul\":3509:3572   */\n      tag_418\n        /* \"#utility.yul\":3566:3570   */\n      0x20\n        /* \"#utility.yul\":3561:3564   */\n      dup7\n        /* \"#utility.yul\":3557:3571   */\n      add\n        /* \"#utility.yul\":3543:3555   */\n      dup3\n        /* \"#utility.yul\":3509:3572   */\n      tag_292\n      jump\t// in\n    tag_418:\n        /* \"#utility.yul\":3413:3582   */\n      pop\n        /* \"#utility.yul\":3666:3670   */\n      0x40\n        /* \"#utility.yul\":3659:3664   */\n      dup4\n        /* \"#utility.yul\":3655:3671   */\n      add\n        /* \"#utility.yul\":3649:3672   */\n      mload\n        /* \"#utility.yul\":3719:3722   */\n      dup5\n        /* \"#utility.yul\":3713:3717   */\n      dup3\n        /* \"#utility.yul\":3709:3723   */\n      sub\n        /* \"#utility.yul\":3702:3706   */\n      0x40\n        /* \"#utility.yul\":3697:3700   */\n      dup7\n        /* \"#utility.yul\":3693:3707   */\n      add\n        /* \"#utility.yul\":3686:3724   */\n      mstore\n        /* \"#utility.yul\":3745:3818   */\n      tag_419\n        /* \"#utility.yul\":3813:3817   */\n      dup3\n        /* \"#utility.yul\":3799:3811   */\n      dup3\n        /* \"#utility.yul\":3745:3818   */\n      tag_297\n      jump\t// in\n    tag_419:\n        /* \"#utility.yul\":3737:3818   */\n      swap2\n      pop\n        /* \"#utility.yul\":3592:3829   */\n      pop\n        /* \"#utility.yul\":3846:3850   */\n      dup1\n        /* \"#utility.yul\":3839:3850   */\n      swap2\n      pop\n        /* \"#utility.yul\":3189:3856   */\n      pop\n        /* \"#utility.yul\":3075:3856   */\n      swap3\n      swap2\n      pop\n      pop\n      jump\t// out\n        /* \"#utility.yul\":3862:4118   */\n    tag_299:\n        /* \"#utility.yul\":3981:3991   */\n      0x00\n        /* \"#utility.yul\":4016:4112   */\n      tag_421\n        /* \"#utility.yul\":4108:4111   */\n      dup4\n        /* \"#utility.yul\":4100:4106   */\n      dup4\n        /* \"#utility.yul\":4016:4112   */\n      tag_298\n      jump\t// in\n    tag_421:\n        /* \"#utility.yul\":4002:4112   */\n      swap1\n      pop\n        /* \"#utility.yul\":3862:4118   */\n      swap3\n      swap2\n      pop\n      pop\n      jump\t// out\n        /* \"#utility.yul\":4124:4262   */\n    tag_300:\n        /* \"#utility.yul\":4219:4223   */\n      0x00\n        /* \"#utility.yul\":4251:4255   */\n      0x20\n        /* \"#utility.yul\":4246:4249   */\n      dup3\n        /* \"#utility.yul\":4242:4256   */\n      add\n        /* \"#utility.yul\":4234:4256   */\n      swap1\n      pop\n        /* \"#utility.yul\":4124:4262   */\n      swap2\n      swap1\n      pop\n      jump\t// out\n        /* \"#utility.yul\":4342:5453   */\n    tag_301:\n        /* \"#utility.yul\":4511:4514   */\n      0x00\n        /* \"#utility.yul\":4540:4619   */\n      tag_424\n        /* \"#utility.yul\":4613:4618   */\n      dup3\n        /* \"#utility.yul\":4540:4619   */\n      tag_286\n      jump\t// in\n    tag_424:\n        /* \"#utility.yul\":4635:4746   */\n      tag_425\n        /* \"#utility.yul\":4739:4745   */\n      dup2\n        /* \"#utility.yul\":4734:4737   */\n      dup6\n        /* \"#utility.yul\":4635:4746   */\n      tag_287\n      jump\t// in\n    tag_425:\n        /* \"#utility.yul\":4628:4746   */\n      swap4\n      pop\n        /* \"#utility.yul\":4772:4775   */\n      dup4\n        /* \"#utility.yul\":4817:4821   */\n      0x20\n        /* \"#utility.yul\":4809:4815   */\n      dup3\n        /* \"#utility.yul\":4805:4822   */\n      mul\n        /* \"#utility.yul\":4800:4803   */\n      dup6\n        /* \"#utility.yul\":4796:4823   */\n      add\n        /* \"#utility.yul\":4847:4928   */\n      tag_426\n        /* \"#utility.yul\":4922:4927   */\n      dup6\n        /* \"#utility.yul\":4847:4928   */\n      tag_288\n      jump\t// in\n    tag_426:\n        /* \"#utility.yul\":4951:4958   */\n      dup1\n        /* \"#utility.yul\":4982:4983   */\n      0x00\n        /* \"#utility.yul\":4967:5408   */\n    tag_427:\n        /* \"#utility.yul\":4992:4998   */\n      dup6\n        /* \"#utility.yul\":4989:4990   */\n      dup2\n        /* \"#utility.yul\":4986:4999   */\n      lt\n        /* \"#utility.yul\":4967:5408   */\n      iszero\n      tag_429\n      jumpi\n        /* \"#utility.yul\":5063:5072   */\n      dup5\n        /* \"#utility.yul\":5057:5061   */\n      dup5\n        /* \"#utility.yul\":5053:5073   */\n      sub\n        /* \"#utility.yul\":5048:5051   */\n      dup10\n        /* \"#utility.yul\":5041:5074   */\n      mstore\n        /* \"#utility.yul\":5114:5120   */\n      dup2\n        /* \"#utility.yul\":5108:5121   */\n      mload\n        /* \"#utility.yul\":5142:5256   */\n      tag_430\n        /* \"#utility.yul\":5251:5255   */\n      dup6\n        /* \"#utility.yul\":5236:5249   */\n      dup3\n        /* \"#utility.yul\":5142:5256   */\n      tag_299\n      jump\t// in\n    tag_430:\n        /* \"#utility.yul\":5134:5256   */\n      swap5\n      pop\n        /* \"#utility.yul\":5279:5364   */\n      tag_431\n        /* \"#utility.yul\":5357:5363   */\n      dup4\n        /* \"#utility.yul\":5279:5364   */\n      tag_300\n      jump\t// in\n    tag_431:\n        /* \"#utility.yul\":5269:5364   */\n      swap3\n      pop\n        /* \"#utility.yul\":5393:5397   */\n      0x20\n        /* \"#utility.yul\":5388:5391   */\n      dup11\n        /* \"#utility.yul\":5384:5398   */\n      add\n        /* \"#utility.yul\":5377:5398   */\n      swap10\n      pop\n        /* \"#utility.yul\":5027:5408   */\n      pop\n        /* \"#utility.yul\":5014:5015   */\n      0x01\n        /* \"#utility.yul\":5011:5012   */\n      dup2\n        /* \"#utility.yul\":5007:5016   */\n      add\n        /* \"#utility.yul\":5002:5016   */\n      swap1\n      pop\n        /* \"#utility.yul\":4967:5408   */\n      jump(tag_427)\n    tag_429:\n        /* \"#utility.yul\":4971:4985   */\n      pop\n        /* \"#utility.yul\":5424:5428   */\n      dup3\n        /* \"#utility.yul\":5417:5428   */\n      swap8\n      pop\n        /* \"#utility.yul\":5444:5447   */\n      dup8\n        /* \"#utility.yul\":5437:5447   */\n      swap6\n      pop\n        /* \"#utility.yul\":4516:5453   */\n      pop\n      pop\n      pop\n      pop\n      pop\n        /* \"#utility.yul\":4342:5453   */\n      swap3\n      swap2\n      pop\n      pop\n      jump\t// out\n        /* \"#utility.yul\":5459:5932   */\n    tag_26:\n        /* \"#utility.yul\":5652:5656   */\n      0x00\n        /* \"#utility.yul\":5690:5692   */\n      0x20\n        /* \"#utility.yul\":5679:5688   */\n      dup3\n        /* \"#utility.yul\":5675:5693   */\n      add\n        /* \"#utility.yul\":5667:5693   */\n      swap1\n      pop\n        /* \"#utility.yul\":5739:5748   */\n      dup2\n        /* \"#utility.yul\":5733:5737   */\n      dup2\n        /* \"#utility.yul\":5729:5749   */\n      sub\n        /* \"#utility.yul\":5725:5726   */\n      0x00\n        /* \"#utility.yul\":5714:5723   */\n      dup4\n        /* \"#utility.yul\":5710:5727   */\n      add\n        /* \"#utility.yul\":5703:5750   */\n      mstore\n        /* \"#utility.yul\":5767:5925   */\n      tag_433\n        /* \"#utility.yul\":5920:5924   */\n      dup2\n        /* \"#utility.yul\":5911:5917   */\n      dup5\n        /* \"#utility.yul\":5767:5925   */\n      tag_301\n      jump\t// in\n    tag_433:\n        /* \"#utility.yul\":5759:5925   */\n      swap1\n      pop\n        /* \"#utility.yul\":5459:5932   */\n      swap3\n      swap2\n      pop\n      pop\n      jump\t// out\n        /* \"#utility.yul\":5938:6118   */\n    tag_127:\n        /* \"#utility.yul\":5986:6063   */\n      0x4e487b7100000000000000000000000000000000000000000000000000000000\n        /* \"#utility.yul\":5983:5984   */\n      0x00\n        /* \"#utility.yul\":5976:6064   */\n      mstore\n        /* \"#utility.yul\":6083:6087   */\n      0x21\n        /* \"#utility.yul\":6080:6081   */\n      0x04\n        /* \"#utility.yul\":6073:6088   */\n      mstore\n        /* \"#utility.yul\":6107:6111   */\n      0x24\n        /* \"#utility.yul\":6104:6105   */\n      0x00\n        /* \"#utility.yul\":6097:6112   */\n      revert\n        /* \"#utility.yul\":6124:6241   */\n    tag_302:\n        /* \"#utility.yul\":6209:6210   */\n      0x06\n        /* \"#utility.yul\":6202:6207   */\n      dup2\n        /* \"#utility.yul\":6199:6211   */\n      lt\n        /* \"#utility.yul\":6189:6235   */\n      tag_436\n      jumpi\n        /* \"#utility.yul\":6215:6233   */\n      tag_437\n      tag_127\n      jump\t// in\n    tag_437:\n        /* \"#utility.yul\":6189:6235   */\n    tag_436:\n        /* \"#utility.yul\":6124:6241   */\n      pop\n      jump\t// out\n        /* \"#utility.yul\":6247:6382   */\n    tag_303:\n        /* \"#utility.yul\":6296:6303   */\n      0x00\n        /* \"#utility.yul\":6325:6330   */\n      dup2\n        /* \"#utility.yul\":6314:6330   */\n      swap1\n      pop\n        /* \"#utility.yul\":6331:6376   */\n      tag_439\n        /* \"#utility.yul\":6370:6375   */\n      dup3\n        /* \"#utility.yul\":6331:6376   */\n      tag_302\n      jump\t// in\n    tag_439:\n        /* \"#utility.yul\":6247:6382   */\n      swap2\n      swap1\n      pop\n      jump\t// out\n        /* \"#utility.yul\":6388:6523   */\n    tag_304:\n        /* \"#utility.yul\":6448:6457   */\n      0x00\n        /* \"#utility.yul\":6481:6517   */\n      tag_441\n        /* \"#utility.yul\":6511:6516   */\n      dup3\n        /* \"#utility.yul\":6481:6517   */\n      tag_303\n      jump\t// in\n    tag_441:\n        /* \"#utility.yul\":6468:6517   */\n      swap1\n      pop\n        /* \"#utility.yul\":6388:6523   */\n      swap2\n      swap1\n      pop\n      jump\t// out\n        /* \"#utility.yul\":6529:6670   */\n    tag_305:\n        /* \"#utility.yul\":6616:6663   */\n      tag_443\n        /* \"#utility.yul\":6657:6662   */\n      dup2\n        /* \"#utility.yul\":6616:6663   */\n      tag_304\n      jump\t// in\n    tag_443:\n        /* \"#utility.yul\":6611:6614   */\n      dup3\n        /* \"#utility.yul\":6604:6664   */\n      mstore\n        /* \"#utility.yul\":6529:6670   */\n      pop\n      pop\n      jump\t// out\n        /* \"#utility.yul\":6676:6766   */\n    tag_306:\n        /* \"#utility.yul\":6710:6717   */\n      0x00\n        /* \"#utility.yul\":6753:6758   */\n      dup2\n        /* \"#utility.yul\":6746:6759   */\n      iszero\n        /* \"#utility.yul\":6739:6760   */\n      iszero\n        /* \"#utility.yul\":6728:6760   */\n      swap1\n      pop\n        /* \"#utility.yul\":6676:6766   */\n      swap2\n      swap1\n      pop\n      jump\t// out\n        /* \"#utility.yul\":6772:6871   */\n    tag_307:\n        /* \"#utility.yul\":6843:6864   */\n      tag_446\n        /* \"#utility.yul\":6858:6863   */\n      dup2\n        /* \"#utility.yul\":6843:6864   */\n      tag_306\n      jump\t// in\n    tag_446:\n        /* \"#utility.yul\":6838:6841   */\n      dup3\n        /* \"#utility.yul\":6831:6865   */\n      mstore\n        /* \"#utility.yul\":6772:6871   */\n      pop\n      pop\n      jump\t// out\n        /* \"#utility.yul\":6953:8912   */\n    tag_308:\n        /* \"#utility.yul\":7078:7081   */\n      0x00\n        /* \"#utility.yul\":7114:7120   */\n      0x0120\n        /* \"#utility.yul\":7109:7112   */\n      dup4\n        /* \"#utility.yul\":7105:7121   */\n      add\n        /* \"#utility.yul\":7207:7211   */\n      0x00\n        /* \"#utility.yul\":7200:7205   */\n      dup4\n        /* \"#utility.yul\":7196:7212   */\n      add\n        /* \"#utility.yul\":7190:7213   */\n      mload\n        /* \"#utility.yul\":7226:7289   */\n      tag_448\n        /* \"#utility.yul\":7283:7287   */\n      0x00\n        /* \"#utility.yul\":7278:7281   */\n      dup7\n        /* \"#utility.yul\":7274:7288   */\n      add\n        /* \"#utility.yul\":7260:7272   */\n      dup3\n        /* \"#utility.yul\":7226:7289   */\n      tag_292\n      jump\t// in\n    tag_448:\n        /* \"#utility.yul\":7131:7299   */\n      pop\n        /* \"#utility.yul\":7391:7395   */\n      0x20\n        /* \"#utility.yul\":7384:7389   */\n      dup4\n        /* \"#utility.yul\":7380:7396   */\n      add\n        /* \"#utility.yul\":7374:7397   */\n      mload\n        /* \"#utility.yul\":7410:7473   */\n      tag_449\n        /* \"#utility.yul\":7467:7471   */\n      0x20\n        /* \"#utility.yul\":7462:7465   */\n      dup7\n        /* \"#utility.yul\":7458:7472   */\n      add\n        /* \"#utility.yul\":7444:7456   */\n      dup3\n        /* \"#utility.yul\":7410:7473   */\n      tag_291\n      jump\t// in\n    tag_449:\n        /* \"#utility.yul\":7309:7483   */\n      pop\n        /* \"#utility.yul\":7569:7573   */\n      0x40\n        /* \"#utility.yul\":7562:7567   */\n      dup4\n        /* \"#utility.yul\":7558:7574   */\n      add\n        /* \"#utility.yul\":7552:7575   */\n      mload\n        /* \"#utility.yul\":7622:7625   */\n      dup5\n        /* \"#utility.yul\":7616:7620   */\n      dup3\n        /* \"#utility.yul\":7612:7626   */\n      sub\n        /* \"#utility.yul\":7605:7609   */\n      0x40\n        /* \"#utility.yul\":7600:7603   */\n      dup7\n        /* \"#utility.yul\":7596:7610   */\n      add\n        /* \"#utility.yul\":7589:7627   */\n      mstore\n        /* \"#utility.yul\":7648:7721   */\n      tag_450\n        /* \"#utility.yul\":7716:7720   */\n      dup3\n        /* \"#utility.yul\":7702:7714   */\n      dup3\n        /* \"#utility.yul\":7648:7721   */\n      tag_297\n      jump\t// in\n    tag_450:\n        /* \"#utility.yul\":7640:7721   */\n      swap2\n      pop\n        /* \"#utility.yul\":7493:7732   */\n      pop\n        /* \"#utility.yul\":7820:7824   */\n      0x60\n        /* \"#utility.yul\":7813:7818   */\n      dup4\n        /* \"#utility.yul\":7809:7825   */\n      add\n        /* \"#utility.yul\":7803:7826   */\n      mload\n        /* \"#utility.yul\":7839:7912   */\n      tag_451\n        /* \"#utility.yul\":7906:7910   */\n      0x60\n        /* \"#utility.yul\":7901:7904   */\n      dup7\n        /* \"#utility.yul\":7897:7911   */\n      add\n        /* \"#utility.yul\":7883:7895   */\n      dup3\n        /* \"#utility.yul\":7839:7912   */\n      tag_305\n      jump\t// in\n    tag_451:\n        /* \"#utility.yul\":7742:7922   */\n      pop\n        /* \"#utility.yul\":8009:8013   */\n      0x80\n        /* \"#utility.yul\":8002:8007   */\n      dup4\n        /* \"#utility.yul\":7998:8014   */\n      add\n        /* \"#utility.yul\":7992:8015   */\n      mload\n        /* \"#utility.yul\":8028:8091   */\n      tag_452\n        /* \"#utility.yul\":8085:8089   */\n      0x80\n        /* \"#utility.yul\":8080:8083   */\n      dup7\n        /* \"#utility.yul\":8076:8090   */\n      add\n        /* \"#utility.yul\":8062:8074   */\n      dup3\n        /* \"#utility.yul\":8028:8091   */\n      tag_292\n      jump\t// in\n    tag_452:\n        /* \"#utility.yul\":7932:8101   */\n      pop\n        /* \"#utility.yul\":8187:8191   */\n      0xa0\n        /* \"#utility.yul\":8180:8185   */\n      dup4\n        /* \"#utility.yul\":8176:8192   */\n      add\n        /* \"#utility.yul\":8170:8193   */\n      mload\n        /* \"#utility.yul\":8206:8269   */\n      tag_453\n        /* \"#utility.yul\":8263:8267   */\n      0xa0\n        /* \"#utility.yul\":8258:8261   */\n      dup7\n        /* \"#utility.yul\":8254:8268   */\n      add\n        /* \"#utility.yul\":8240:8252   */\n      dup3\n        /* \"#utility.yul\":8206:8269   */\n      tag_291\n      jump\t// in\n    tag_453:\n        /* \"#utility.yul\":8111:8279   */\n      pop\n        /* \"#utility.yul\":8365:8369   */\n      0xc0\n        /* \"#utility.yul\":8358:8363   */\n      dup4\n        /* \"#utility.yul\":8354:8370   */\n      add\n        /* \"#utility.yul\":8348:8371   */\n      mload\n        /* \"#utility.yul\":8384:8441   */\n      tag_454\n        /* \"#utility.yul\":8435:8439   */\n      0xc0\n        /* \"#utility.yul\":8430:8433   */\n      dup7\n        /* \"#utility.yul\":8426:8440   */\n      add\n        /* \"#utility.yul\":8412:8424   */\n      dup3\n        /* \"#utility.yul\":8384:8441   */\n      tag_307\n      jump\t// in\n    tag_454:\n        /* \"#utility.yul\":8289:8451   */\n      pop\n        /* \"#utility.yul\":8541:8545   */\n      0xe0\n        /* \"#utility.yul\":8534:8539   */\n      dup4\n        /* \"#utility.yul\":8530:8546   */\n      add\n        /* \"#utility.yul\":8524:8547   */\n      mload\n        /* \"#utility.yul\":8594:8597   */\n      dup5\n        /* \"#utility.yul\":8588:8592   */\n      dup3\n        /* \"#utility.yul\":8584:8598   */\n      sub\n        /* \"#utility.yul\":8577:8581   */\n      0xe0\n        /* \"#utility.yul\":8572:8575   */\n      dup7\n        /* \"#utility.yul\":8568:8582   */\n      add\n        /* \"#utility.yul\":8561:8599   */\n      mstore\n        /* \"#utility.yul\":8620:8693   */\n      tag_455\n        /* \"#utility.yul\":8688:8692   */\n      dup3\n        /* \"#utility.yul\":8674:8686   */\n      dup3\n        /* \"#utility.yul\":8620:8693   */\n      tag_297\n      jump\t// in\n    tag_455:\n        /* \"#utility.yul\":8612:8693   */\n      swap2\n      pop\n        /* \"#utility.yul\":8461:8704   */\n      pop\n        /* \"#utility.yul\":8789:8795   */\n      0x0100\n        /* \"#utility.yul\":8782:8787   */\n      dup4\n        /* \"#utility.yul\":8778:8796   */\n      add\n        /* \"#utility.yul\":8772:8797   */\n      mload\n        /* \"#utility.yul\":8810:8875   */\n      tag_456\n        /* \"#utility.yul\":8867:8873   */\n      0x0100\n        /* \"#utility.yul\":8862:8865   */\n      dup7\n        /* \"#utility.yul\":8858:8874   */\n      add\n        /* \"#utility.yul\":8844:8856   */\n      dup3\n        /* \"#utility.yul\":8810:8875   */\n      tag_292\n      jump\t// in\n    tag_456:\n        /* \"#utility.yul\":8714:8885   */\n      pop\n        /* \"#utility.yul\":8902:8906   */\n      dup1\n        /* \"#utility.yul\":8895:8906   */\n      swap2\n      pop\n        /* \"#utility.yul\":7083:8912   */\n      pop\n        /* \"#utility.yul\":6953:8912   */\n      swap3\n      swap2\n      pop\n      pop\n      jump\t// out\n        /* \"#utility.yul\":8918:9303   */\n    tag_31:\n        /* \"#utility.yul\":9067:9071   */\n      0x00\n        /* \"#utility.yul\":9105:9107   */\n      0x20\n        /* \"#utility.yul\":9094:9103   */\n      dup3\n        /* \"#utility.yul\":9090:9108   */\n      add\n        /* \"#utility.yul\":9082:9108   */\n      swap1\n      pop\n        /* \"#utility.yul\":9154:9163   */\n      dup2\n        /* \"#utility.yul\":9148:9152   */\n      dup2\n        /* \"#utility.yul\":9144:9164   */\n      sub\n        /* \"#utility.yul\":9140:9141   */\n      0x00\n        /* \"#utility.yul\":9129:9138   */\n      dup4\n        /* \"#utility.yul\":9125:9142   */\n      add\n        /* \"#utility.yul\":9118:9165   */\n      mstore\n        /* \"#utility.yul\":9182:9296   */\n      tag_458\n        /* \"#utility.yul\":9291:9295   */\n      dup2\n        /* \"#utility.yul\":9282:9288   */\n      dup5\n        /* \"#utility.yul\":9182:9296   */\n      tag_308\n      jump\t// in\n    tag_458:\n        /* \"#utility.yul\":9174:9296   */\n      swap1\n      pop\n        /* \"#utility.yul\":8918:9303   */\n      swap3\n      swap2\n      pop\n      pop\n      jump\t// out\n        /* \"#utility.yul\":9309:9427   */\n    tag_309:\n        /* \"#utility.yul\":9396:9420   */\n      tag_460\n        /* \"#utility.yul\":9414:9419   */\n      dup2\n        /* \"#utility.yul\":9396:9420   */\n      tag_283\n      jump\t// in\n    tag_460:\n        /* \"#utility.yul\":9391:9394   */\n      dup3\n        /* \"#utility.yul\":9384:9421   */\n      mstore\n        /* \"#utility.yul\":9309:9427   */\n      pop\n      pop\n      jump\t// out\n        /* \"#utility.yul\":9433:9655   */\n    tag_38:\n        /* \"#utility.yul\":9526:9530   */\n      0x00\n        /* \"#utility.yul\":9564:9566   */\n      0x20\n        /* \"#utility.yul\":9553:9562   */\n      dup3\n        /* \"#utility.yul\":9549:9567   */\n      add\n        /* \"#utility.yul\":9541:9567   */\n      swap1\n      pop\n        /* \"#utility.yul\":9577:9648   */\n      tag_462\n        /* \"#utility.yul\":9645:9646   */\n      0x00\n        /* \"#utility.yul\":9634:9643   */\n      dup4\n        /* \"#utility.yul\":9630:9647   */\n      add\n        /* \"#utility.yul\":9621:9627   */\n      dup5\n        /* \"#utility.yul\":9577:9648   */\n      tag_309\n      jump\t// in\n    tag_462:\n        /* \"#utility.yul\":9433:9655   */\n      swap3\n      swap2\n      pop\n      pop\n      jump\t// out\n        /* \"#utility.yul\":9661:9783   */\n    tag_310:\n        /* \"#utility.yul\":9734:9758   */\n      tag_464\n        /* \"#utility.yul\":9752:9757   */\n      dup2\n        /* \"#utility.yul\":9734:9758   */\n      tag_290\n      jump\t// in\n    tag_464:\n        /* \"#utility.yul\":9727:9732   */\n      dup2\n        /* \"#utility.yul\":9724:9759   */\n      eq\n        /* \"#utility.yul\":9714:9777   */\n      tag_465\n      jumpi\n        /* \"#utility.yul\":9773:9774   */\n      0x00\n        /* \"#utility.yul\":9770:9771   */\n      dup1\n        /* \"#utility.yul\":9763:9775   */\n      revert\n        /* \"#utility.yul\":9714:9777   */\n    tag_465:\n        /* \"#utility.yul\":9661:9783   */\n      pop\n      jump\t// out\n        /* \"#utility.yul\":9789:9928   */\n    tag_311:\n        /* \"#utility.yul\":9835:9840   */\n      0x00\n        /* \"#utility.yul\":9873:9879   */\n      dup2\n        /* \"#utility.yul\":9860:9880   */\n      calldataload\n        /* \"#utility.yul\":9851:9880   */\n      swap1\n      pop\n        /* \"#utility.yul\":9889:9922   */\n      tag_467\n        /* \"#utility.yul\":9916:9921   */\n      dup2\n        /* \"#utility.yul\":9889:9922   */\n      tag_310\n      jump\t// in\n    tag_467:\n        /* \"#utility.yul\":9789:9928   */\n      swap3\n      swap2\n      pop\n      pop\n      jump\t// out\n        /* \"#utility.yul\":9934:10051   */\n    tag_312:\n        /* \"#utility.yul\":10043:10044   */\n      0x00\n        /* \"#utility.yul\":10040:10041   */\n      dup1\n        /* \"#utility.yul\":10033:10045   */\n      revert\n        /* \"#utility.yul\":10057:10174   */\n    tag_313:\n        /* \"#utility.yul\":10166:10167   */\n      0x00\n        /* \"#utility.yul\":10163:10164   */\n      dup1\n        /* \"#utility.yul\":10156:10168   */\n      revert\n        /* \"#utility.yul\":10180:10360   */\n    tag_314:\n        /* \"#utility.yul\":10228:10305   */\n      0x4e487b7100000000000000000000000000000000000000000000000000000000\n        /* \"#utility.yul\":10225:10226   */\n      0x00\n        /* \"#utility.yul\":10218:10306   */\n      mstore\n        /* \"#utility.yul\":10325:10329   */\n      0x41\n        /* \"#utility.yul\":10322:10323   */\n      0x04\n        /* \"#utility.yul\":10315:10330   */\n      mstore\n        /* \"#utility.yul\":10349:10353   */\n      0x24\n        /* \"#utility.yul\":10346:10347   */\n      0x00\n        /* \"#utility.yul\":10339:10354   */\n      revert\n        /* \"#utility.yul\":10366:10647   */\n    tag_315:\n        /* \"#utility.yul\":10449:10476   */\n      tag_472\n        /* \"#utility.yul\":10471:10475   */\n      dup3\n        /* \"#utility.yul\":10449:10476   */\n      tag_296\n      jump\t// in\n    tag_472:\n        /* \"#utility.yul\":10441:10447   */\n      dup2\n        /* \"#utility.yul\":10437:10477   */\n      add\n        /* \"#utility.yul\":10579:10585   */\n      dup2\n        /* \"#utility.yul\":10567:10577   */\n      dup2\n        /* \"#utility.yul\":10564:10586   */\n      lt\n        /* \"#utility.yul\":10543:10561   */\n      0xffffffffffffffff\n        /* \"#utility.yul\":10531:10541   */\n      dup3\n        /* \"#utility.yul\":10528:10562   */\n      gt\n        /* \"#utility.yul\":10525:10587   */\n      or\n        /* \"#utility.yul\":10522:10610   */\n      iszero\n      tag_473\n      jumpi\n        /* \"#utility.yul\":10590:10608   */\n      tag_474\n      tag_314\n      jump\t// in\n    tag_474:\n        /* \"#utility.yul\":10522:10610   */\n    tag_473:\n        /* \"#utility.yul\":10630:10640   */\n      dup1\n        /* \"#utility.yul\":10626:10628   */\n      0x40\n        /* \"#utility.yul\":10619:10641   */\n      mstore\n        /* \"#utility.yul\":10409:10647   */\n      pop\n        /* \"#utility.yul\":10366:10647   */\n      pop\n      pop\n      jump\t// out\n        /* \"#utility.yul\":10653:10782   */\n    tag_316:\n        /* \"#utility.yul\":10687:10693   */\n      0x00\n        /* \"#utility.yul\":10714:10734   */\n      tag_476\n      tag_280\n      jump\t// in\n    tag_476:\n        /* \"#utility.yul\":10704:10734   */\n      swap1\n      pop\n        /* \"#utility.yul\":10743:10776   */\n      tag_477\n        /* \"#utility.yul\":10771:10775   */\n      dup3\n        /* \"#utility.yul\":10763:10769   */\n      dup3\n        /* \"#utility.yul\":10743:10776   */\n      tag_315\n      jump\t// in\n    tag_477:\n        /* \"#utility.yul\":10653:10782   */\n      swap2\n      swap1\n      pop\n      jump\t// out\n        /* \"#utility.yul\":10788:11096   */\n    tag_317:\n        /* \"#utility.yul\":10850:10854   */\n      0x00\n        /* \"#utility.yul\":10940:10958   */\n      0xffffffffffffffff\n        /* \"#utility.yul\":10932:10938   */\n      dup3\n        /* \"#utility.yul\":10929:10959   */\n      gt\n        /* \"#utility.yul\":10926:10982   */\n      iszero\n      tag_479\n      jumpi\n        /* \"#utility.yul\":10962:10980   */\n      tag_480\n      tag_314\n      jump\t// in\n    tag_480:\n        /* \"#utility.yul\":10926:10982   */\n    tag_479:\n        /* \"#utility.yul\":11000:11029   */\n      tag_481\n        /* \"#utility.yul\":11022:11028   */\n      dup3\n        /* \"#utility.yul\":11000:11029   */\n      tag_296\n      jump\t// in\n    tag_481:\n        /* \"#utility.yul\":10992:11029   */\n      swap1\n      pop\n        /* \"#utility.yul\":11084:11088   */\n      0x20\n        /* \"#utility.yul\":11078:11082   */\n      dup2\n        /* \"#utility.yul\":11074:11089   */\n      add\n        /* \"#utility.yul\":11066:11089   */\n      swap1\n      pop\n        /* \"#utility.yul\":10788:11096   */\n      swap2\n      swap1\n      pop\n      jump\t// out\n        /* \"#utility.yul\":11102:11250   */\n    tag_318:\n        /* \"#utility.yul\":11200:11206   */\n      dup3\n        /* \"#utility.yul\":11195:11198   */\n      dup2\n        /* \"#utility.yul\":11190:11193   */\n      dup4\n        /* \"#utility.yul\":11177:11207   */\n      calldatacopy\n        /* \"#utility.yul\":11241:11242   */\n      0x00\n        /* \"#utility.yul\":11232:11238   */\n      dup4\n        /* \"#utility.yul\":11227:11230   */\n      dup4\n        /* \"#utility.yul\":11223:11239   */\n      add\n        /* \"#utility.yul\":11216:11243   */\n      mstore\n        /* \"#utility.yul\":11102:11250   */\n      pop\n      pop\n      pop\n      jump\t// out\n        /* \"#utility.yul\":11256:11681   */\n    tag_319:\n        /* \"#utility.yul\":11334:11339   */\n      0x00\n        /* \"#utility.yul\":11359:11425   */\n      tag_484\n        /* \"#utility.yul\":11375:11424   */\n      tag_485\n        /* \"#utility.yul\":11417:11423   */\n      dup5\n        /* \"#utility.yul\":11375:11424   */\n      tag_317\n      jump\t// in\n    tag_485:\n        /* \"#utility.yul\":11359:11425   */\n      tag_316\n      jump\t// in\n    tag_484:\n        /* \"#utility.yul\":11350:11425   */\n      swap1\n      pop\n        /* \"#utility.yul\":11448:11454   */\n      dup3\n        /* \"#utility.yul\":11441:11446   */\n      dup2\n        /* \"#utility.yul\":11434:11455   */\n      mstore\n        /* \"#utility.yul\":11486:11490   */\n      0x20\n        /* \"#utility.yul\":11479:11484   */\n      dup2\n        /* \"#utility.yul\":11475:11491   */\n      add\n        /* \"#utility.yul\":11524:11527   */\n      dup5\n        /* \"#utility.yul\":11515:11521   */\n      dup5\n        /* \"#utility.yul\":11510:11513   */\n      dup5\n        /* \"#utility.yul\":11506:11522   */\n      add\n        /* \"#utility.yul\":11503:11528   */\n      gt\n        /* \"#utility.yul\":11500:11612   */\n      iszero\n      tag_486\n      jumpi\n        /* \"#utility.yul\":11531:11610   */\n      tag_487\n      tag_313\n      jump\t// in\n    tag_487:\n        /* \"#utility.yul\":11500:11612   */\n    tag_486:\n        /* \"#utility.yul\":11621:11675   */\n      tag_488\n        /* \"#utility.yul\":11668:11674   */\n      dup5\n        /* \"#utility.yul\":11663:11666   */\n      dup3\n        /* \"#utility.yul\":11658:11661   */\n      dup6\n        /* \"#utility.yul\":11621:11675   */\n      tag_318\n      jump\t// in\n    tag_488:\n        /* \"#utility.yul\":11340:11681   */\n      pop\n        /* \"#utility.yul\":11256:11681   */\n      swap4\n      swap3\n      pop\n      pop\n      pop\n      jump\t// out\n        /* \"#utility.yul\":11701:12041   */\n    tag_320:\n        /* \"#utility.yul\":11757:11762   */\n      0x00\n        /* \"#utility.yul\":11806:11809   */\n      dup3\n        /* \"#utility.yul\":11799:11803   */\n      0x1f\n        /* \"#utility.yul\":11791:11797   */\n      dup4\n        /* \"#utility.yul\":11787:11804   */\n      add\n        /* \"#utility.yul\":11783:11810   */\n      slt\n        /* \"#utility.yul\":11773:11895   */\n      tag_490\n      jumpi\n        /* \"#utility.yul\":11814:11893   */\n      tag_491\n      tag_312\n      jump\t// in\n    tag_491:\n        /* \"#utility.yul\":11773:11895   */\n    tag_490:\n        /* \"#utility.yul\":11931:11937   */\n      dup2\n        /* \"#utility.yul\":11918:11938   */\n      calldataload\n        /* \"#utility.yul\":11956:12035   */\n      tag_492\n        /* \"#utility.yul\":12031:12034   */\n      dup5\n        /* \"#utility.yul\":12023:12029   */\n      dup3\n        /* \"#utility.yul\":12016:12020   */\n      0x20\n        /* \"#utility.yul\":12008:12014   */\n      dup7\n        /* \"#utility.yul\":12004:12021   */\n      add\n        /* \"#utility.yul\":11956:12035   */\n      tag_319\n      jump\t// in\n    tag_492:\n        /* \"#utility.yul\":11947:12035   */\n      swap2\n      pop\n        /* \"#utility.yul\":11763:12041   */\n      pop\n        /* \"#utility.yul\":11701:12041   */\n      swap3\n      swap2\n      pop\n      pop\n      jump\t// out\n        /* \"#utility.yul\":12047:12158   */\n    tag_321:\n        /* \"#utility.yul\":12132:12133   */\n      0x06\n        /* \"#utility.yul\":12125:12130   */\n      dup2\n        /* \"#utility.yul\":12122:12134   */\n      lt\n        /* \"#utility.yul\":12112:12152   */\n      tag_494\n      jumpi\n        /* \"#utility.yul\":12148:12149   */\n      0x00\n        /* \"#utility.yul\":12145:12146   */\n      dup1\n        /* \"#utility.yul\":12138:12150   */\n      revert\n        /* \"#utility.yul\":12112:12152   */\n    tag_494:\n        /* \"#utility.yul\":12047:12158   */\n      pop\n      jump\t// out\n        /* \"#utility.yul\":12164:12327   */\n    tag_322:\n        /* \"#utility.yul\":12222:12227   */\n      0x00\n        /* \"#utility.yul\":12260:12266   */\n      dup2\n        /* \"#utility.yul\":12247:12267   */\n      calldataload\n        /* \"#utility.yul\":12238:12267   */\n      swap1\n      pop\n        /* \"#utility.yul\":12276:12321   */\n      tag_496\n        /* \"#utility.yul\":12315:12320   */\n      dup2\n        /* \"#utility.yul\":12276:12321   */\n      tag_321\n      jump\t// in\n    tag_496:\n        /* \"#utility.yul\":12164:12327   */\n      swap3\n      swap2\n      pop\n      pop\n      jump\t// out\n        /* \"#utility.yul\":12333:13482   */\n    tag_41:\n        /* \"#utility.yul\":12451:12457   */\n      0x00\n        /* \"#utility.yul\":12459:12465   */\n      dup1\n        /* \"#utility.yul\":12467:12473   */\n      0x00\n        /* \"#utility.yul\":12475:12481   */\n      dup1\n        /* \"#utility.yul\":12524:12527   */\n      0x80\n        /* \"#utility.yul\":12512:12521   */\n      dup6\n        /* \"#utility.yul\":12503:12510   */\n      dup8\n        /* \"#utility.yul\":12499:12522   */\n      sub\n        /* \"#utility.yul\":12495:12528   */\n      slt\n        /* \"#utility.yul\":12492:12612   */\n      iszero\n      tag_498\n      jumpi\n        /* \"#utility.yul\":12531:12610   */\n      tag_499\n      tag_281\n      jump\t// in\n    tag_499:\n        /* \"#utility.yul\":12492:12612   */\n    tag_498:\n        /* \"#utility.yul\":12651:12652   */\n      0x00\n        /* \"#utility.yul\":12676:12729   */\n      tag_500\n        /* \"#utility.yul\":12721:12728   */\n      dup8\n        /* \"#utility.yul\":12712:12718   */\n      dup3\n        /* \"#utility.yul\":12701:12710   */\n      dup9\n        /* \"#utility.yul\":12697:12719   */\n      add\n        /* \"#utility.yul\":12676:12729   */\n      tag_311\n      jump\t// in\n    tag_500:\n        /* \"#utility.yul\":12666:12729   */\n      swap5\n      pop\n        /* \"#utility.yul\":12622:12739   */\n      pop\n        /* \"#utility.yul\":12806:12808   */\n      0x20\n        /* \"#utility.yul\":12795:12804   */\n      dup6\n        /* \"#utility.yul\":12791:12809   */\n      add\n        /* \"#utility.yul\":12778:12810   */\n      calldataload\n        /* \"#utility.yul\":12837:12855   */\n      0xffffffffffffffff\n        /* \"#utility.yul\":12829:12835   */\n      dup2\n        /* \"#utility.yul\":12826:12856   */\n      gt\n        /* \"#utility.yul\":12823:12940   */\n      iszero\n      tag_501\n      jumpi\n        /* \"#utility.yul\":12859:12938   */\n      tag_502\n      tag_282\n      jump\t// in\n    tag_502:\n        /* \"#utility.yul\":12823:12940   */\n    tag_501:\n        /* \"#utility.yul\":12964:13027   */\n      tag_503\n        /* \"#utility.yul\":13019:13026   */\n      dup8\n        /* \"#utility.yul\":13010:13016   */\n      dup3\n        /* \"#utility.yul\":12999:13008   */\n      dup9\n        /* \"#utility.yul\":12995:13017   */\n      add\n        /* \"#utility.yul\":12964:13027   */\n      tag_320\n      jump\t// in\n    tag_503:\n        /* \"#utility.yul\":12954:13027   */\n      swap4\n      pop\n        /* \"#utility.yul\":12749:13037   */\n      pop\n        /* \"#utility.yul\":13076:13078   */\n      0x40\n        /* \"#utility.yul\":13102:13167   */\n      tag_504\n        /* \"#utility.yul\":13159:13166   */\n      dup8\n        /* \"#utility.yul\":13150:13156   */\n      dup3\n        /* \"#utility.yul\":13139:13148   */\n      dup9\n        /* \"#utility.yul\":13135:13157   */\n      add\n        /* \"#utility.yul\":13102:13167   */\n      tag_322\n      jump\t// in\n    tag_504:\n        /* \"#utility.yul\":13092:13167   */\n      swap3\n      pop\n        /* \"#utility.yul\":13047:13177   */\n      pop\n        /* \"#utility.yul\":13244:13246   */\n      0x60\n        /* \"#utility.yul\":13233:13242   */\n      dup6\n        /* \"#utility.yul\":13229:13247   */\n      add\n        /* \"#utility.yul\":13216:13248   */\n      calldataload\n        /* \"#utility.yul\":13275:13293   */\n      0xffffffffffffffff\n        /* \"#utility.yul\":13267:13273   */\n      dup2\n        /* \"#utility.yul\":13264:13294   */\n      gt\n        /* \"#utility.yul\":13261:13378   */\n      iszero\n      tag_505\n      jumpi\n        /* \"#utility.yul\":13297:13376   */\n      tag_506\n      tag_282\n      jump\t// in\n    tag_506:\n        /* \"#utility.yul\":13261:13378   */\n    tag_505:\n        /* \"#utility.yul\":13402:13465   */\n      tag_507\n        /* \"#utility.yul\":13457:13464   */\n      dup8\n        /* \"#utility.yul\":13448:13454   */\n      dup3\n        /* \"#utility.yul\":13437:13446   */\n      dup9\n        /* \"#utility.yul\":13433:13455   */\n      add\n        /* \"#utility.yul\":13402:13465   */\n      tag_320\n      jump\t// in\n    tag_507:\n        /* \"#utility.yul\":13392:13465   */\n      swap2\n      pop\n        /* \"#utility.yul\":13187:13475   */\n      pop\n        /* \"#utility.yul\":12333:13482   */\n      swap3\n      swap6\n      swap2\n      swap5\n      pop\n      swap3\n      pop\n      jump\t// out\n        /* \"#utility.yul\":13488:13817   */\n    tag_46:\n        /* \"#utility.yul\":13547:13553   */\n      0x00\n        /* \"#utility.yul\":13596:13598   */\n      0x20\n        /* \"#utility.yul\":13584:13593   */\n      dup3\n        /* \"#utility.yul\":13575:13582   */\n      dup5\n        /* \"#utility.yul\":13571:13594   */\n      sub\n        /* \"#utility.yul\":13567:13599   */\n      slt\n        /* \"#utility.yul\":13564:13683   */\n      iszero\n      tag_509\n      jumpi\n        /* \"#utility.yul\":13602:13681   */\n      tag_510\n      tag_281\n      jump\t// in\n    tag_510:\n        /* \"#utility.yul\":13564:13683   */\n    tag_509:\n        /* \"#utility.yul\":13722:13723   */\n      0x00\n        /* \"#utility.yul\":13747:13800   */\n      tag_511\n        /* \"#utility.yul\":13792:13799   */\n      dup5\n        /* \"#utility.yul\":13783:13789   */\n      dup3\n        /* \"#utility.yul\":13772:13781   */\n      dup6\n        /* \"#utility.yul\":13768:13790   */\n      add\n        /* \"#utility.yul\":13747:13800   */\n      tag_311\n      jump\t// in\n    tag_511:\n        /* \"#utility.yul\":13737:13800   */\n      swap2\n      pop\n        /* \"#utility.yul\":13693:13810   */\n      pop\n        /* \"#utility.yul\":13488:13817   */\n      swap3\n      swap2\n      pop\n      pop\n      jump\t// out\n        /* \"#utility.yul\":13823:13937   */\n    tag_323:\n        /* \"#utility.yul\":13890:13896   */\n      0x00\n        /* \"#utility.yul\":13924:13929   */\n      dup2\n        /* \"#utility.yul\":13918:13930   */\n      mload\n        /* \"#utility.yul\":13908:13930   */\n      swap1\n      pop\n        /* \"#utility.yul\":13823:13937   */\n      swap2\n      swap1\n      pop\n      jump\t// out\n        /* \"#utility.yul\":13943:14127   */\n    tag_324:\n        /* \"#utility.yul\":14042:14053   */\n      0x00\n        /* \"#utility.yul\":14076:14082   */\n      dup3\n        /* \"#utility.yul\":14071:14074   */\n      dup3\n        /* \"#utility.yul\":14064:14083   */\n      mstore\n        /* \"#utility.yul\":14116:14120   */\n      0x20\n        /* \"#utility.yul\":14111:14114   */\n      dup3\n        /* \"#utility.yul\":14107:14121   */\n      add\n        /* \"#utility.yul\":14092:14121   */\n      swap1\n      pop\n        /* \"#utility.yul\":13943:14127   */\n      swap3\n      swap2\n      pop\n      pop\n      jump\t// out\n        /* \"#utility.yul\":14133:14265   */\n    tag_325:\n        /* \"#utility.yul\":14200:14204   */\n      0x00\n        /* \"#utility.yul\":14223:14226   */\n      dup2\n        /* \"#utility.yul\":14215:14226   */\n      swap1\n      pop\n        /* \"#utility.yul\":14253:14257   */\n      0x20\n        /* \"#utility.yul\":14248:14251   */\n      dup3\n        /* \"#utility.yul\":14244:14258   */\n      add\n        /* \"#utility.yul\":14236:14258   */\n      swap1\n      pop\n        /* \"#utility.yul\":14133:14265   */\n      swap2\n      swap1\n      pop\n      jump\t// out\n        /* \"#utility.yul\":14271:14450   */\n    tag_326:\n        /* \"#utility.yul\":14340:14350   */\n      0x00\n        /* \"#utility.yul\":14361:14407   */\n      tag_516\n        /* \"#utility.yul\":14403:14406   */\n      dup4\n        /* \"#utility.yul\":14395:14401   */\n      dup4\n        /* \"#utility.yul\":14361:14407   */\n      tag_292\n      jump\t// in\n    tag_516:\n        /* \"#utility.yul\":14439:14443   */\n      0x20\n        /* \"#utility.yul\":14434:14437   */\n      dup4\n        /* \"#utility.yul\":14430:14444   */\n      add\n        /* \"#utility.yul\":14416:14444   */\n      swap1\n      pop\n        /* \"#utility.yul\":14271:14450   */\n      swap3\n      swap2\n      pop\n      pop\n      jump\t// out\n        /* \"#utility.yul\":14456:14569   */\n    tag_327:\n        /* \"#utility.yul\":14526:14530   */\n      0x00\n        /* \"#utility.yul\":14558:14562   */\n      0x20\n        /* \"#utility.yul\":14553:14556   */\n      dup3\n        /* \"#utility.yul\":14549:14563   */\n      add\n        /* \"#utility.yul\":14541:14563   */\n      swap1\n      pop\n        /* \"#utility.yul\":14456:14569   */\n      swap2\n      swap1\n      pop\n      jump\t// out\n        /* \"#utility.yul\":14605:15337   */\n    tag_328:\n        /* \"#utility.yul\":14724:14727   */\n      0x00\n        /* \"#utility.yul\":14753:14807   */\n      tag_519\n        /* \"#utility.yul\":14801:14806   */\n      dup3\n        /* \"#utility.yul\":14753:14807   */\n      tag_323\n      jump\t// in\n    tag_519:\n        /* \"#utility.yul\":14823:14909   */\n      tag_520\n        /* \"#utility.yul\":14902:14908   */\n      dup2\n        /* \"#utility.yul\":14897:14900   */\n      dup6\n        /* \"#utility.yul\":14823:14909   */\n      tag_324\n      jump\t// in\n    tag_520:\n        /* \"#utility.yul\":14816:14909   */\n      swap4\n      pop\n        /* \"#utility.yul\":14933:14989   */\n      tag_521\n        /* \"#utility.yul\":14983:14988   */\n      dup4\n        /* \"#utility.yul\":14933:14989   */\n      tag_325\n      jump\t// in\n    tag_521:\n        /* \"#utility.yul\":15012:15019   */\n      dup1\n        /* \"#utility.yul\":15043:15044   */\n      0x00\n        /* \"#utility.yul\":15028:15312   */\n    tag_522:\n        /* \"#utility.yul\":15053:15059   */\n      dup4\n        /* \"#utility.yul\":15050:15051   */\n      dup2\n        /* \"#utility.yul\":15047:15060   */\n      lt\n        /* \"#utility.yul\":15028:15312   */\n      iszero\n      tag_524\n      jumpi\n        /* \"#utility.yul\":15129:15135   */\n      dup2\n        /* \"#utility.yul\":15123:15136   */\n      mload\n        /* \"#utility.yul\":15156:15219   */\n      tag_525\n        /* \"#utility.yul\":15215:15218   */\n      dup9\n        /* \"#utility.yul\":15200:15213   */\n      dup3\n        /* \"#utility.yul\":15156:15219   */\n      tag_326\n      jump\t// in\n    tag_525:\n        /* \"#utility.yul\":15149:15219   */\n      swap8\n      pop\n        /* \"#utility.yul\":15242:15302   */\n      tag_526\n        /* \"#utility.yul\":15295:15301   */\n      dup4\n        /* \"#utility.yul\":15242:15302   */\n      tag_327\n      jump\t// in\n    tag_526:\n        /* \"#utility.yul\":15232:15302   */\n      swap3\n      pop\n        /* \"#utility.yul\":15088:15312   */\n      pop\n        /* \"#utility.yul\":15075:15076   */\n      0x01\n        /* \"#utility.yul\":15072:15073   */\n      dup2\n        /* \"#utility.yul\":15068:15077   */\n      add\n        /* \"#utility.yul\":15063:15077   */\n      swap1\n      pop\n        /* \"#utility.yul\":15028:15312   */\n      jump(tag_522)\n    tag_524:\n        /* \"#utility.yul\":15032:15046   */\n      pop\n        /* \"#utility.yul\":15328:15331   */\n      dup6\n        /* \"#utility.yul\":15321:15331   */\n      swap4\n      pop\n        /* \"#utility.yul\":14729:15337   */\n      pop\n      pop\n      pop\n        /* \"#utility.yul\":14605:15337   */\n      swap3\n      swap2\n      pop\n      pop\n      jump\t// out\n        /* \"#utility.yul\":15343:15716   */\n    tag_49:\n        /* \"#utility.yul\":15486:15490   */\n      0x00\n        /* \"#utility.yul\":15524:15526   */\n      0x20\n        /* \"#utility.yul\":15513:15522   */\n      dup3\n        /* \"#utility.yul\":15509:15527   */\n      add\n        /* \"#utility.yul\":15501:15527   */\n      swap1\n      pop\n        /* \"#utility.yul\":15573:15582   */\n      dup2\n        /* \"#utility.yul\":15567:15571   */\n      dup2\n        /* \"#utility.yul\":15563:15583   */\n      sub\n        /* \"#utility.yul\":15559:15560   */\n      0x00\n        /* \"#utility.yul\":15548:15557   */\n      dup4\n        /* \"#utility.yul\":15544:15561   */\n      add\n        /* \"#utility.yul\":15537:15584   */\n      mstore\n        /* \"#utility.yul\":15601:15709   */\n      tag_528\n        /* \"#utility.yul\":15704:15708   */\n      dup2\n        /* \"#utility.yul\":15695:15701   */\n      dup5\n        /* \"#utility.yul\":15601:15709   */\n      tag_328\n      jump\t// in\n    tag_528:\n        /* \"#utility.yul\":15593:15709   */\n      swap1\n      pop\n        /* \"#utility.yul\":15343:15716   */\n      swap3\n      swap2\n      pop\n      pop\n      jump\t// out\n        /* \"#utility.yul\":15722:16725   */\n    tag_52:\n        /* \"#utility.yul\":15831:15837   */\n      0x00\n        /* \"#utility.yul\":15839:15845   */\n      dup1\n        /* \"#utility.yul\":15847:15853   */\n      0x00\n        /* \"#utility.yul\":15896:15898   */\n      0x60\n        /* \"#utility.yul\":15884:15893   */\n      dup5\n        /* \"#utility.yul\":15875:15882   */\n      dup7\n        /* \"#utility.yul\":15871:15894   */\n      sub\n        /* \"#utility.yul\":15867:15899   */\n      slt\n        /* \"#utility.yul\":15864:15983   */\n      iszero\n      tag_530\n      jumpi\n        /* \"#utility.yul\":15902:15981   */\n      tag_531\n      tag_281\n      jump\t// in\n    tag_531:\n        /* \"#utility.yul\":15864:15983   */\n    tag_530:\n        /* \"#utility.yul\":16050:16051   */\n      0x00\n        /* \"#utility.yul\":16039:16048   */\n      dup5\n        /* \"#utility.yul\":16035:16052   */\n      add\n        /* \"#utility.yul\":16022:16053   */\n      calldataload\n        /* \"#utility.yul\":16080:16098   */\n      0xffffffffffffffff\n        /* \"#utility.yul\":16072:16078   */\n      dup2\n        /* \"#utility.yul\":16069:16099   */\n      gt\n        /* \"#utility.yul\":16066:16183   */\n      iszero\n      tag_532\n      jumpi\n        /* \"#utility.yul\":16102:16181   */\n      tag_533\n      tag_282\n      jump\t// in\n    tag_533:\n        /* \"#utility.yul\":16066:16183   */\n    tag_532:\n        /* \"#utility.yul\":16207:16270   */\n      tag_534\n        /* \"#utility.yul\":16262:16269   */\n      dup7\n        /* \"#utility.yul\":16253:16259   */\n      dup3\n        /* \"#utility.yul\":16242:16251   */\n      dup8\n        /* \"#utility.yul\":16238:16260   */\n      add\n        /* \"#utility.yul\":16207:16270   */\n      tag_320\n      jump\t// in\n    tag_534:\n        /* \"#utility.yul\":16197:16270   */\n      swap4\n      pop\n        /* \"#utility.yul\":15993:16280   */\n      pop\n        /* \"#utility.yul\":16319:16321   */\n      0x20\n        /* \"#utility.yul\":16345:16410   */\n      tag_535\n        /* \"#utility.yul\":16402:16409   */\n      dup7\n        /* \"#utility.yul\":16393:16399   */\n      dup3\n        /* \"#utility.yul\":16382:16391   */\n      dup8\n        /* \"#utility.yul\":16378:16400   */\n      add\n        /* \"#utility.yul\":16345:16410   */\n      tag_322\n      jump\t// in\n    tag_535:\n        /* \"#utility.yul\":16335:16410   */\n      swap3\n      pop\n        /* \"#utility.yul\":16290:16420   */\n      pop\n        /* \"#utility.yul\":16487:16489   */\n      0x40\n        /* \"#utility.yul\":16476:16485   */\n      dup5\n        /* \"#utility.yul\":16472:16490   */\n      add\n        /* \"#utility.yul\":16459:16491   */\n      calldataload\n        /* \"#utility.yul\":16518:16536   */\n      0xffffffffffffffff\n        /* \"#utility.yul\":16510:16516   */\n      dup2\n        /* \"#utility.yul\":16507:16537   */\n      gt\n        /* \"#utility.yul\":16504:16621   */\n      iszero\n      tag_536\n      jumpi\n        /* \"#utility.yul\":16540:16619   */\n      tag_537\n      tag_282\n      jump\t// in\n    tag_537:\n        /* \"#utility.yul\":16504:16621   */\n    tag_536:\n        /* \"#utility.yul\":16645:16708   */\n      tag_538\n        /* \"#utility.yul\":16700:16707   */\n      dup7\n        /* \"#utility.yul\":16691:16697   */\n      dup3\n        /* \"#utility.yul\":16680:16689   */\n      dup8\n        /* \"#utility.yul\":16676:16698   */\n      add\n        /* \"#utility.yul\":16645:16708   */\n      tag_320\n      jump\t// in\n    tag_538:\n        /* \"#utility.yul\":16635:16708   */\n      swap2\n      pop\n        /* \"#utility.yul\":16430:16718   */\n      pop\n        /* \"#utility.yul\":15722:16725   */\n      swap3\n      pop\n      swap3\n      pop\n      swap3\n      jump\t// out\n        /* \"#utility.yul\":16731:17710   */\n    tag_57:\n        /* \"#utility.yul\":16828:16834   */\n      0x00\n        /* \"#utility.yul\":16836:16842   */\n      dup1\n        /* \"#utility.yul\":16844:16850   */\n      0x00\n        /* \"#utility.yul\":16893:16895   */\n      0x60\n        /* \"#utility.yul\":16881:16890   */\n      dup5\n        /* \"#utility.yul\":16872:16879   */\n      dup7\n        /* \"#utility.yul\":16868:16891   */\n      sub\n        /* \"#utility.yul\":16864:16896   */\n      slt\n        /* \"#utility.yul\":16861:16980   */\n      iszero\n      tag_540\n      jumpi\n        /* \"#utility.yul\":16899:16978   */\n      tag_541\n      tag_281\n      jump\t// in\n    tag_541:\n        /* \"#utility.yul\":16861:16980   */\n    tag_540:\n        /* \"#utility.yul\":17019:17020   */\n      0x00\n        /* \"#utility.yul\":17044:17097   */\n      tag_542\n        /* \"#utility.yul\":17089:17096   */\n      dup7\n        /* \"#utility.yul\":17080:17086   */\n      dup3\n        /* \"#utility.yul\":17069:17078   */\n      dup8\n        /* \"#utility.yul\":17065:17087   */\n      add\n        /* \"#utility.yul\":17044:17097   */\n      tag_285\n      jump\t// in\n    tag_542:\n        /* \"#utility.yul\":17034:17097   */\n      swap4\n      pop\n        /* \"#utility.yul\":16990:17107   */\n      pop\n        /* \"#utility.yul\":17174:17176   */\n      0x20\n        /* \"#utility.yul\":17163:17172   */\n      dup5\n        /* \"#utility.yul\":17159:17177   */\n      add\n        /* \"#utility.yul\":17146:17178   */\n      calldataload\n        /* \"#utility.yul\":17205:17223   */\n      0xffffffffffffffff\n        /* \"#utility.yul\":17197:17203   */\n      dup2\n        /* \"#utility.yul\":17194:17224   */\n      gt\n        /* \"#utility.yul\":17191:17308   */\n      iszero\n      tag_543\n      jumpi\n        /* \"#utility.yul\":17227:17306   */\n      tag_544\n      tag_282\n      jump\t// in\n    tag_544:\n        /* \"#utility.yul\":17191:17308   */\n    tag_543:\n        /* \"#utility.yul\":17332:17395   */\n      tag_545\n        /* \"#utility.yul\":17387:17394   */\n      dup7\n        /* \"#utility.yul\":17378:17384   */\n      dup3\n        /* \"#utility.yul\":17367:17376   */\n      dup8\n        /* \"#utility.yul\":17363:17385   */\n      add\n        /* \"#utility.yul\":17332:17395   */\n      tag_320\n      jump\t// in\n    tag_545:\n        /* \"#utility.yul\":17322:17395   */\n      swap3\n      pop\n        /* \"#utility.yul\":17117:17405   */\n      pop\n        /* \"#utility.yul\":17472:17474   */\n      0x40\n        /* \"#utility.yul\":17461:17470   */\n      dup5\n        /* \"#utility.yul\":17457:17475   */\n      add\n        /* \"#utility.yul\":17444:17476   */\n      calldataload\n        /* \"#utility.yul\":17503:17521   */\n      0xffffffffffffffff\n        /* \"#utility.yul\":17495:17501   */\n      dup2\n        /* \"#utility.yul\":17492:17522   */\n      gt\n        /* \"#utility.yul\":17489:17606   */\n      iszero\n      tag_546\n      jumpi\n        /* \"#utility.yul\":17525:17604   */\n      tag_547\n      tag_282\n      jump\t// in\n    tag_547:\n        /* \"#utility.yul\":17489:17606   */\n    tag_546:\n        /* \"#utility.yul\":17630:17693   */\n      tag_548\n        /* \"#utility.yul\":17685:17692   */\n      dup7\n        /* \"#utility.yul\":17676:17682   */\n      dup3\n        /* \"#utility.yul\":17665:17674   */\n      dup8\n        /* \"#utility.yul\":17661:17683   */\n      add\n        /* \"#utility.yul\":17630:17693   */\n      tag_320\n      jump\t// in\n    tag_548:\n        /* \"#utility.yul\":17620:17693   */\n      swap2\n      pop\n        /* \"#utility.yul\":17415:17703   */\n      pop\n        /* \"#utility.yul\":16731:17710   */\n      swap3\n      pop\n      swap3\n      pop\n      swap3\n      jump\t// out\n        /* \"#utility.yul\":17716:18370   */\n    tag_61:\n        /* \"#utility.yul\":17794:17800   */\n      0x00\n        /* \"#utility.yul\":17802:17808   */\n      dup1\n        /* \"#utility.yul\":17851:17853   */\n      0x40\n        /* \"#utility.yul\":17839:17848   */\n      dup4\n        /* \"#utility.yul\":17830:17837   */\n      dup6\n        /* \"#utility.yul\":17826:17849   */\n      sub\n        /* \"#utility.yul\":17822:17854   */\n      slt\n        /* \"#utility.yul\":17819:17938   */\n      iszero\n      tag_550\n      jumpi\n        /* \"#utility.yul\":17857:17936   */\n      tag_551\n      tag_281\n      jump\t// in\n    tag_551:\n        /* \"#utility.yul\":17819:17938   */\n    tag_550:\n        /* \"#utility.yul\":17977:17978   */\n      0x00\n        /* \"#utility.yul\":18002:18055   */\n      tag_552\n        /* \"#utility.yul\":18047:18054   */\n      dup6\n        /* \"#utility.yul\":18038:18044   */\n      dup3\n        /* \"#utility.yul\":18027:18036   */\n      dup7\n        /* \"#utility.yul\":18023:18045   */\n      add\n        /* \"#utility.yul\":18002:18055   */\n      tag_285\n      jump\t// in\n    tag_552:\n        /* \"#utility.yul\":17992:18055   */\n      swap3\n      pop\n        /* \"#utility.yul\":17948:18065   */\n      pop\n        /* \"#utility.yul\":18132:18134   */\n      0x20\n        /* \"#utility.yul\":18121:18130   */\n      dup4\n        /* \"#utility.yul\":18117:18135   */\n      add\n        /* \"#utility.yul\":18104:18136   */\n      calldataload\n        /* \"#utility.yul\":18163:18181   */\n      0xffffffffffffffff\n        /* \"#utility.yul\":18155:18161   */\n      dup2\n        /* \"#utility.yul\":18152:18182   */\n      gt\n        /* \"#utility.yul\":18149:18266   */\n      iszero\n      tag_553\n      jumpi\n        /* \"#utility.yul\":18185:18264   */\n      tag_554\n      tag_282\n      jump\t// in\n    tag_554:\n        /* \"#utility.yul\":18149:18266   */\n    tag_553:\n        /* \"#utility.yul\":18290:18353   */\n      tag_555\n        /* \"#utility.yul\":18345:18352   */\n      dup6\n        /* \"#utility.yul\":18336:18342   */\n      dup3\n        /* \"#utility.yul\":18325:18334   */\n      dup7\n        /* \"#utility.yul\":18321:18343   */\n      add\n        /* \"#utility.yul\":18290:18353   */\n      tag_320\n      jump\t// in\n    tag_555:\n        /* \"#utility.yul\":18280:18353   */\n      swap2\n      pop\n        /* \"#utility.yul\":18075:18363   */\n      pop\n        /* \"#utility.yul\":17716:18370   */\n      swap3\n      pop\n      swap3\n      swap1\n      pop\n      jump\t// out\n        /* \"#utility.yul\":18376:18850   */\n    tag_68:\n        /* \"#utility.yul\":18444:18450   */\n      0x00\n        /* \"#utility.yul\":18452:18458   */\n      dup1\n        /* \"#utility.yul\":18501:18503   */\n      0x40\n        /* \"#utility.yul\":18489:18498   */\n      dup4\n        /* \"#utility.yul\":18480:18487   */\n      dup6\n        /* \"#utility.yul\":18476:18499   */\n      sub\n        /* \"#utility.yul\":18472:18504   */\n      slt\n        /* \"#utility.yul\":18469:18588   */\n      iszero\n      tag_557\n      jumpi\n        /* \"#utility.yul\":18507:18586   */\n      tag_558\n      tag_281\n      jump\t// in\n    tag_558:\n        /* \"#utility.yul\":18469:18588   */\n    tag_557:\n        /* \"#utility.yul\":18627:18628   */\n      0x00\n        /* \"#utility.yul\":18652:18705   */\n      tag_559\n        /* \"#utility.yul\":18697:18704   */\n      dup6\n        /* \"#utility.yul\":18688:18694   */\n      dup3\n        /* \"#utility.yul\":18677:18686   */\n      dup7\n        /* \"#utility.yul\":18673:18695   */\n      add\n        /* \"#utility.yul\":18652:18705   */\n      tag_311\n      jump\t// in\n    tag_559:\n        /* \"#utility.yul\":18642:18705   */\n      swap3\n      pop\n        /* \"#utility.yul\":18598:18715   */\n      pop\n        /* \"#utility.yul\":18754:18756   */\n      0x20\n        /* \"#utility.yul\":18780:18833   */\n      tag_560\n        /* \"#utility.yul\":18825:18832   */\n      dup6\n        /* \"#utility.yul\":18816:18822   */\n      dup3\n        /* \"#utility.yul\":18805:18814   */\n      dup7\n        /* \"#utility.yul\":18801:18823   */\n      add\n        /* \"#utility.yul\":18780:18833   */\n      tag_311\n      jump\t// in\n    tag_560:\n        /* \"#utility.yul\":18770:18833   */\n      swap2\n      pop\n        /* \"#utility.yul\":18725:18843   */\n      pop\n        /* \"#utility.yul\":18376:18850   */\n      swap3\n      pop\n      swap3\n      swap1\n      pop\n      jump\t// out\n        /* \"#utility.yul\":18856:19030   */\n    tag_329:\n        /* \"#utility.yul\":18945:18956   */\n      0x00\n        /* \"#utility.yul\":18979:18985   */\n      dup3\n        /* \"#utility.yul\":18974:18977   */\n      dup3\n        /* \"#utility.yul\":18967:18986   */\n      mstore\n        /* \"#utility.yul\":19019:19023   */\n      0x20\n        /* \"#utility.yul\":19014:19017   */\n      dup3\n        /* \"#utility.yul\":19010:19024   */\n      add\n        /* \"#utility.yul\":18995:19024   */\n      swap1\n      pop\n        /* \"#utility.yul\":18856:19030   */\n      swap3\n      swap2\n      pop\n      pop\n      jump\t// out\n        /* \"#utility.yul\":19066:19778   */\n    tag_330:\n        /* \"#utility.yul\":19175:19178   */\n      0x00\n        /* \"#utility.yul\":19204:19258   */\n      tag_563\n        /* \"#utility.yul\":19252:19257   */\n      dup3\n        /* \"#utility.yul\":19204:19258   */\n      tag_323\n      jump\t// in\n    tag_563:\n        /* \"#utility.yul\":19274:19350   */\n      tag_564\n        /* \"#utility.yul\":19343:19349   */\n      dup2\n        /* \"#utility.yul\":19338:19341   */\n      dup6\n        /* \"#utility.yul\":19274:19350   */\n      tag_329\n      jump\t// in\n    tag_564:\n        /* \"#utility.yul\":19267:19350   */\n      swap4\n      pop\n        /* \"#utility.yul\":19374:19430   */\n      tag_565\n        /* \"#utility.yul\":19424:19429   */\n      dup4\n        /* \"#utility.yul\":19374:19430   */\n      tag_325\n      jump\t// in\n    tag_565:\n        /* \"#utility.yul\":19453:19460   */\n      dup1\n        /* \"#utility.yul\":19484:19485   */\n      0x00\n        /* \"#utility.yul\":19469:19753   */\n    tag_566:\n        /* \"#utility.yul\":19494:19500   */\n      dup4\n        /* \"#utility.yul\":19491:19492   */\n      dup2\n        /* \"#utility.yul\":19488:19501   */\n      lt\n        /* \"#utility.yul\":19469:19753   */\n      iszero\n      tag_568\n      jumpi\n        /* \"#utility.yul\":19570:19576   */\n      dup2\n        /* \"#utility.yul\":19564:19577   */\n      mload\n        /* \"#utility.yul\":19597:19660   */\n      tag_569\n        /* \"#utility.yul\":19656:19659   */\n      dup9\n        /* \"#utility.yul\":19641:19654   */\n      dup3\n        /* \"#utility.yul\":19597:19660   */\n      tag_326\n      jump\t// in\n    tag_569:\n        /* \"#utility.yul\":19590:19660   */\n      swap8\n      pop\n        /* \"#utility.yul\":19683:19743   */\n      tag_570\n        /* \"#utility.yul\":19736:19742   */\n      dup4\n        /* \"#utility.yul\":19683:19743   */\n      tag_327\n      jump\t// in\n    tag_570:\n        /* \"#utility.yul\":19673:19743   */\n      swap3\n      pop\n        /* \"#utility.yul\":19529:19753   */\n      pop\n        /* \"#utility.yul\":19516:19517   */\n      0x01\n        /* \"#utility.yul\":19513:19514   */\n      dup2\n        /* \"#utility.yul\":19509:19518   */\n      add\n        /* \"#utility.yul\":19504:19518   */\n      swap1\n      pop\n        /* \"#utility.yul\":19469:19753   */\n      jump(tag_566)\n    tag_568:\n        /* \"#utility.yul\":19473:19487   */\n      pop\n        /* \"#utility.yul\":19769:19772   */\n      dup6\n        /* \"#utility.yul\":19762:19772   */\n      swap4\n      pop\n        /* \"#utility.yul\":19180:19778   */\n      pop\n      pop\n      pop\n        /* \"#utility.yul\":19066:19778   */\n      swap3\n      swap2\n      pop\n      pop\n      jump\t// out\n        /* \"#utility.yul\":19858:21039   */\n    tag_331:\n        /* \"#utility.yul\":19981:19984   */\n      0x00\n        /* \"#utility.yul\":20017:20021   */\n      0xa0\n        /* \"#utility.yul\":20012:20015   */\n      dup4\n        /* \"#utility.yul\":20008:20022   */\n      add\n        /* \"#utility.yul\":20109:20113   */\n      0x00\n        /* \"#utility.yul\":20102:20107   */\n      dup4\n        /* \"#utility.yul\":20098:20114   */\n      add\n        /* \"#utility.yul\":20092:20115   */\n      mload\n        /* \"#utility.yul\":20128:20191   */\n      tag_572\n        /* \"#utility.yul\":20185:20189   */\n      0x00\n        /* \"#utility.yul\":20180:20183   */\n      dup7\n        /* \"#utility.yul\":20176:20190   */\n      add\n        /* \"#utility.yul\":20162:20174   */\n      dup3\n        /* \"#utility.yul\":20128:20191   */\n      tag_291\n      jump\t// in\n    tag_572:\n        /* \"#utility.yul\":20032:20201   */\n      pop\n        /* \"#utility.yul\":20288:20292   */\n      0x20\n        /* \"#utility.yul\":20281:20286   */\n      dup4\n        /* \"#utility.yul\":20277:20293   */\n      add\n        /* \"#utility.yul\":20271:20294   */\n      mload\n        /* \"#utility.yul\":20341:20344   */\n      dup5\n        /* \"#utility.yul\":20335:20339   */\n      dup3\n        /* \"#utility.yul\":20331:20345   */\n      sub\n        /* \"#utility.yul\":20324:20328   */\n      0x20\n        /* \"#utility.yul\":20319:20322   */\n      dup7\n        /* \"#utility.yul\":20315:20329   */\n      add\n        /* \"#utility.yul\":20308:20346   */\n      mstore\n        /* \"#utility.yul\":20367:20470   */\n      tag_573\n        /* \"#utility.yul\":20465:20469   */\n      dup3\n        /* \"#utility.yul\":20451:20463   */\n      dup3\n        /* \"#utility.yul\":20367:20470   */\n      tag_330\n      jump\t// in\n    tag_573:\n        /* \"#utility.yul\":20359:20470   */\n      swap2\n      pop\n        /* \"#utility.yul\":20211:20481   */\n      pop\n        /* \"#utility.yul\":20569:20573   */\n      0x40\n        /* \"#utility.yul\":20562:20567   */\n      dup4\n        /* \"#utility.yul\":20558:20574   */\n      add\n        /* \"#utility.yul\":20552:20575   */\n      mload\n        /* \"#utility.yul\":20588:20651   */\n      tag_574\n        /* \"#utility.yul\":20645:20649   */\n      0x40\n        /* \"#utility.yul\":20640:20643   */\n      dup7\n        /* \"#utility.yul\":20636:20650   */\n      add\n        /* \"#utility.yul\":20622:20634   */\n      dup3\n        /* \"#utility.yul\":20588:20651   */\n      tag_292\n      jump\t// in\n    tag_574:\n        /* \"#utility.yul\":20491:20661   */\n      pop\n        /* \"#utility.yul\":20747:20751   */\n      0x60\n        /* \"#utility.yul\":20740:20745   */\n      dup4\n        /* \"#utility.yul\":20736:20752   */\n      add\n        /* \"#utility.yul\":20730:20753   */\n      mload\n        /* \"#utility.yul\":20766:20823   */\n      tag_575\n        /* \"#utility.yul\":20817:20821   */\n      0x60\n        /* \"#utility.yul\":20812:20815   */\n      dup7\n        /* \"#utility.yul\":20808:20822   */\n      add\n        /* \"#utility.yul\":20794:20806   */\n      dup3\n        /* \"#utility.yul\":20766:20823   */\n      tag_307\n      jump\t// in\n    tag_575:\n        /* \"#utility.yul\":20671:20833   */\n      pop\n        /* \"#utility.yul\":20920:20924   */\n      0x80\n        /* \"#utility.yul\":20913:20918   */\n      dup4\n        /* \"#utility.yul\":20909:20925   */\n      add\n        /* \"#utility.yul\":20903:20926   */\n      mload\n        /* \"#utility.yul\":20939:21002   */\n      tag_576\n        /* \"#utility.yul\":20996:21000   */\n      0x80\n        /* \"#utility.yul\":20991:20994   */\n      dup7\n        /* \"#utility.yul\":20987:21001   */\n      add\n        /* \"#utility.yul\":20973:20985   */\n      dup3\n        /* \"#utility.yul\":20939:21002   */\n      tag_292\n      jump\t// in\n    tag_576:\n        /* \"#utility.yul\":20843:21012   */\n      pop\n        /* \"#utility.yul\":21029:21033   */\n      dup1\n        /* \"#utility.yul\":21022:21033   */\n      swap2\n      pop\n        /* \"#utility.yul\":19986:21039   */\n      pop\n        /* \"#utility.yul\":19858:21039   */\n      swap3\n      swap2\n      pop\n      pop\n      jump\t// out\n        /* \"#utility.yul\":21045:21426   */\n    tag_71:\n        /* \"#utility.yul\":21192:21196   */\n      0x00\n        /* \"#utility.yul\":21230:21232   */\n      0x20\n        /* \"#utility.yul\":21219:21228   */\n      dup3\n        /* \"#utility.yul\":21215:21233   */\n      add\n        /* \"#utility.yul\":21207:21233   */\n      swap1\n      pop\n        /* \"#utility.yul\":21279:21288   */\n      dup2\n        /* \"#utility.yul\":21273:21277   */\n      dup2\n        /* \"#utility.yul\":21269:21289   */\n      sub\n        /* \"#utility.yul\":21265:21266   */\n      0x00\n        /* \"#utility.yul\":21254:21263   */\n      dup4\n        /* \"#utility.yul\":21250:21267   */\n      add\n        /* \"#utility.yul\":21243:21290   */\n      mstore\n        /* \"#utility.yul\":21307:21419   */\n      tag_578\n        /* \"#utility.yul\":21414:21418   */\n      dup2\n        /* \"#utility.yul\":21405:21411   */\n      dup5\n        /* \"#utility.yul\":21307:21419   */\n      tag_331\n      jump\t// in\n    tag_578:\n        /* \"#utility.yul\":21299:21419   */\n      swap1\n      pop\n        /* \"#utility.yul\":21045:21426   */\n      swap3\n      swap2\n      pop\n      pop\n      jump\t// out\n        /* \"#utility.yul\":21432:21743   */\n    tag_332:\n        /* \"#utility.yul\":21509:21513   */\n      0x00\n        /* \"#utility.yul\":21599:21617   */\n      0xffffffffffffffff\n        /* \"#utility.yul\":21591:21597   */\n      dup3\n        /* \"#utility.yul\":21588:21618   */\n      gt\n        /* \"#utility.yul\":21585:21641   */\n      iszero\n      tag_580\n      jumpi\n        /* \"#utility.yul\":21621:21639   */\n      tag_581\n      tag_314\n      jump\t// in\n    tag_581:\n        /* \"#utility.yul\":21585:21641   */\n    tag_580:\n        /* \"#utility.yul\":21671:21675   */\n      0x20\n        /* \"#utility.yul\":21663:21669   */\n      dup3\n        /* \"#utility.yul\":21659:21676   */\n      mul\n        /* \"#utility.yul\":21651:21676   */\n      swap1\n      pop\n        /* \"#utility.yul\":21731:21735   */\n      0x20\n        /* \"#utility.yul\":21725:21729   */\n      dup2\n        /* \"#utility.yul\":21721:21736   */\n      add\n        /* \"#utility.yul\":21713:21736   */\n      swap1\n      pop\n        /* \"#utility.yul\":21432:21743   */\n      swap2\n      swap1\n      pop\n      jump\t// out\n        /* \"#utility.yul\":21749:21866   */\n    tag_333:\n        /* \"#utility.yul\":21858:21859   */\n      0x00\n        /* \"#utility.yul\":21855:21856   */\n      dup1\n        /* \"#utility.yul\":21848:21860   */\n      revert\n        /* \"#utility.yul\":21889:22599   */\n    tag_334:\n        /* \"#utility.yul\":21985:21990   */\n      0x00\n        /* \"#utility.yul\":22010:22091   */\n      tag_584\n        /* \"#utility.yul\":22026:22090   */\n      tag_585\n        /* \"#utility.yul\":22083:22089   */\n      dup5\n        /* \"#utility.yul\":22026:22090   */\n      tag_332\n      jump\t// in\n    tag_585:\n        /* \"#utility.yul\":22010:22091   */\n      tag_316\n      jump\t// in\n    tag_584:\n        /* \"#utility.yul\":22001:22091   */\n      swap1\n      pop\n        /* \"#utility.yul\":22111:22116   */\n      dup1\n        /* \"#utility.yul\":22140:22146   */\n      dup4\n        /* \"#utility.yul\":22133:22138   */\n      dup3\n        /* \"#utility.yul\":22126:22147   */\n      mstore\n        /* \"#utility.yul\":22174:22178   */\n      0x20\n        /* \"#utility.yul\":22167:22172   */\n      dup3\n        /* \"#utility.yul\":22163:22179   */\n      add\n        /* \"#utility.yul\":22156:22179   */\n      swap1\n      pop\n        /* \"#utility.yul\":22227:22231   */\n      0x20\n        /* \"#utility.yul\":22219:22225   */\n      dup5\n        /* \"#utility.yul\":22215:22232   */\n      mul\n        /* \"#utility.yul\":22207:22213   */\n      dup4\n        /* \"#utility.yul\":22203:22233   */\n      add\n        /* \"#utility.yul\":22256:22259   */\n      dup6\n        /* \"#utility.yul\":22248:22254   */\n      dup2\n        /* \"#utility.yul\":22245:22260   */\n      gt\n        /* \"#utility.yul\":22242:22364   */\n      iszero\n      tag_586\n      jumpi\n        /* \"#utility.yul\":22275:22354   */\n      tag_587\n      tag_333\n      jump\t// in\n    tag_587:\n        /* \"#utility.yul\":22242:22364   */\n    tag_586:\n        /* \"#utility.yul\":22390:22396   */\n      dup4\n        /* \"#utility.yul\":22373:22593   */\n    tag_588:\n        /* \"#utility.yul\":22407:22413   */\n      dup2\n        /* \"#utility.yul\":22402:22405   */\n      dup2\n        /* \"#utility.yul\":22399:22414   */\n      lt\n        /* \"#utility.yul\":22373:22593   */\n      iszero\n      tag_590\n      jumpi\n        /* \"#utility.yul\":22482:22485   */\n      dup1\n        /* \"#utility.yul\":22511:22548   */\n      tag_591\n        /* \"#utility.yul\":22544:22547   */\n      dup9\n        /* \"#utility.yul\":22532:22542   */\n      dup3\n        /* \"#utility.yul\":22511:22548   */\n      tag_285\n      jump\t// in\n    tag_591:\n        /* \"#utility.yul\":22506:22509   */\n      dup5\n        /* \"#utility.yul\":22499:22549   */\n      mstore\n        /* \"#utility.yul\":22578:22582   */\n      0x20\n        /* \"#utility.yul\":22573:22576   */\n      dup5\n        /* \"#utility.yul\":22569:22583   */\n      add\n        /* \"#utility.yul\":22562:22583   */\n      swap4\n      pop\n        /* \"#utility.yul\":22449:22593   */\n      pop\n        /* \"#utility.yul\":22433:22437   */\n      0x20\n        /* \"#utility.yul\":22428:22431   */\n      dup2\n        /* \"#utility.yul\":22424:22438   */\n      add\n        /* \"#utility.yul\":22417:22438   */\n      swap1\n      pop\n        /* \"#utility.yul\":22373:22593   */\n      jump(tag_588)\n    tag_590:\n        /* \"#utility.yul\":22377:22398   */\n      pop\n        /* \"#utility.yul\":21991:22599   */\n      pop\n      pop\n        /* \"#utility.yul\":21889:22599   */\n      swap4\n      swap3\n      pop\n      pop\n      pop\n      jump\t// out\n        /* \"#utility.yul\":22622:22992   */\n    tag_335:\n        /* \"#utility.yul\":22693:22698   */\n      0x00\n        /* \"#utility.yul\":22742:22745   */\n      dup3\n        /* \"#utility.yul\":22735:22739   */\n      0x1f\n        /* \"#utility.yul\":22727:22733   */\n      dup4\n        /* \"#utility.yul\":22723:22740   */\n      add\n        /* \"#utility.yul\":22719:22746   */\n      slt\n        /* \"#utility.yul\":22709:22831   */\n      tag_593\n      jumpi\n        /* \"#utility.yul\":22750:22829   */\n      tag_594\n      tag_312\n      jump\t// in\n    tag_594:\n        /* \"#utility.yul\":22709:22831   */\n    tag_593:\n        /* \"#utility.yul\":22867:22873   */\n      dup2\n        /* \"#utility.yul\":22854:22874   */\n      calldataload\n        /* \"#utility.yul\":22892:22986   */\n      tag_595\n        /* \"#utility.yul\":22982:22985   */\n      dup5\n        /* \"#utility.yul\":22974:22980   */\n      dup3\n        /* \"#utility.yul\":22967:22971   */\n      0x20\n        /* \"#utility.yul\":22959:22965   */\n      dup7\n        /* \"#utility.yul\":22955:22972   */\n      add\n        /* \"#utility.yul\":22892:22986   */\n      tag_334\n      jump\t// in\n    tag_595:\n        /* \"#utility.yul\":22883:22986   */\n      swap2\n      pop\n        /* \"#utility.yul\":22699:22992   */\n      pop\n        /* \"#utility.yul\":22622:22992   */\n      swap3\n      swap2\n      pop\n      pop\n      jump\t// out\n        /* \"#utility.yul\":22998:23827   */\n    tag_77:\n        /* \"#utility.yul\":23100:23106   */\n      0x00\n        /* \"#utility.yul\":23108:23114   */\n      dup1\n        /* \"#utility.yul\":23116:23122   */\n      0x00\n        /* \"#utility.yul\":23165:23167   */\n      0x60\n        /* \"#utility.yul\":23153:23162   */\n      dup5\n        /* \"#utility.yul\":23144:23151   */\n      dup7\n        /* \"#utility.yul\":23140:23163   */\n      sub\n        /* \"#utility.yul\":23136:23168   */\n      slt\n        /* \"#utility.yul\":23133:23252   */\n      iszero\n      tag_597\n      jumpi\n        /* \"#utility.yul\":23171:23250   */\n      tag_598\n      tag_281\n      jump\t// in\n    tag_598:\n        /* \"#utility.yul\":23133:23252   */\n    tag_597:\n        /* \"#utility.yul\":23291:23292   */\n      0x00\n        /* \"#utility.yul\":23316:23369   */\n      tag_599\n        /* \"#utility.yul\":23361:23368   */\n      dup7\n        /* \"#utility.yul\":23352:23358   */\n      dup3\n        /* \"#utility.yul\":23341:23350   */\n      dup8\n        /* \"#utility.yul\":23337:23359   */\n      add\n        /* \"#utility.yul\":23316:23369   */\n      tag_311\n      jump\t// in\n    tag_599:\n        /* \"#utility.yul\":23306:23369   */\n      swap4\n      pop\n        /* \"#utility.yul\":23262:23379   */\n      pop\n        /* \"#utility.yul\":23446:23448   */\n      0x20\n        /* \"#utility.yul\":23435:23444   */\n      dup5\n        /* \"#utility.yul\":23431:23449   */\n      add\n        /* \"#utility.yul\":23418:23450   */\n      calldataload\n        /* \"#utility.yul\":23477:23495   */\n      0xffffffffffffffff\n        /* \"#utility.yul\":23469:23475   */\n      dup2\n        /* \"#utility.yul\":23466:23496   */\n      gt\n        /* \"#utility.yul\":23463:23580   */\n      iszero\n      tag_600\n      jumpi\n        /* \"#utility.yul\":23499:23578   */\n      tag_601\n      tag_282\n      jump\t// in\n    tag_601:\n        /* \"#utility.yul\":23463:23580   */\n    tag_600:\n        /* \"#utility.yul\":23604:23682   */\n      tag_602\n        /* \"#utility.yul\":23674:23681   */\n      dup7\n        /* \"#utility.yul\":23665:23671   */\n      dup3\n        /* \"#utility.yul\":23654:23663   */\n      dup8\n        /* \"#utility.yul\":23650:23672   */\n      add\n        /* \"#utility.yul\":23604:23682   */\n      tag_335\n      jump\t// in\n    tag_602:\n        /* \"#utility.yul\":23594:23682   */\n      swap3\n      pop\n        /* \"#utility.yul\":23389:23692   */\n      pop\n        /* \"#utility.yul\":23731:23733   */\n      0x40\n        /* \"#utility.yul\":23757:23810   */\n      tag_603\n        /* \"#utility.yul\":23802:23809   */\n      dup7\n        /* \"#utility.yul\":23793:23799   */\n      dup3\n        /* \"#utility.yul\":23782:23791   */\n      dup8\n        /* \"#utility.yul\":23778:23800   */\n      add\n        /* \"#utility.yul\":23757:23810   */\n      tag_285\n      jump\t// in\n    tag_603:\n        /* \"#utility.yul\":23747:23810   */\n      swap2\n      pop\n        /* \"#utility.yul\":23702:23820   */\n      pop\n        /* \"#utility.yul\":22998:23827   */\n      swap3\n      pop\n      swap3\n      pop\n      swap3\n      jump\t// out\n        /* \"#utility.yul\":23833:23951   */\n    tag_336:\n        /* \"#utility.yul\":23920:23944   */\n      tag_605\n        /* \"#utility.yul\":23938:23943   */\n      dup2\n        /* \"#utility.yul\":23920:23944   */\n      tag_290\n      jump\t// in\n    tag_605:\n        /* \"#utility.yul\":23915:23918   */\n      dup3\n        /* \"#utility.yul\":23908:23945   */\n      mstore\n        /* \"#utility.yul\":23833:23951   */\n      pop\n      pop\n      jump\t// out\n        /* \"#utility.yul\":23957:24179   */\n    tag_83:\n        /* \"#utility.yul\":24050:24054   */\n      0x00\n        /* \"#utility.yul\":24088:24090   */\n      0x20\n        /* \"#utility.yul\":24077:24086   */\n      dup3\n        /* \"#utility.yul\":24073:24091   */\n      add\n        /* \"#utility.yul\":24065:24091   */\n      swap1\n      pop\n        /* \"#utility.yul\":24101:24172   */\n      tag_607\n        /* \"#utility.yul\":24169:24170   */\n      0x00\n        /* \"#utility.yul\":24158:24167   */\n      dup4\n        /* \"#utility.yul\":24154:24171   */\n      add\n        /* \"#utility.yul\":24145:24151   */\n      dup5\n        /* \"#utility.yul\":24101:24172   */\n      tag_336\n      jump\t// in\n    tag_607:\n        /* \"#utility.yul\":23957:24179   */\n      swap3\n      swap2\n      pop\n      pop\n      jump\t// out\n        /* \"#utility.yul\":24185:24804   */\n    tag_86:\n        /* \"#utility.yul\":24262:24268   */\n      0x00\n        /* \"#utility.yul\":24270:24276   */\n      dup1\n        /* \"#utility.yul\":24278:24284   */\n      0x00\n        /* \"#utility.yul\":24327:24329   */\n      0x60\n        /* \"#utility.yul\":24315:24324   */\n      dup5\n        /* \"#utility.yul\":24306:24313   */\n      dup7\n        /* \"#utility.yul\":24302:24325   */\n      sub\n        /* \"#utility.yul\":24298:24330   */\n      slt\n        /* \"#utility.yul\":24295:24414   */\n      iszero\n      tag_609\n      jumpi\n        /* \"#utility.yul\":24333:24412   */\n      tag_610\n      tag_281\n      jump\t// in\n    tag_610:\n        /* \"#utility.yul\":24295:24414   */\n    tag_609:\n        /* \"#utility.yul\":24453:24454   */\n      0x00\n        /* \"#utility.yul\":24478:24531   */\n      tag_611\n        /* \"#utility.yul\":24523:24530   */\n      dup7\n        /* \"#utility.yul\":24514:24520   */\n      dup3\n        /* \"#utility.yul\":24503:24512   */\n      dup8\n        /* \"#utility.yul\":24499:24521   */\n      add\n        /* \"#utility.yul\":24478:24531   */\n      tag_311\n      jump\t// in\n    tag_611:\n        /* \"#utility.yul\":24468:24531   */\n      swap4\n      pop\n        /* \"#utility.yul\":24424:24541   */\n      pop\n        /* \"#utility.yul\":24580:24582   */\n      0x20\n        /* \"#utility.yul\":24606:24659   */\n      tag_612\n        /* \"#utility.yul\":24651:24658   */\n      dup7\n        /* \"#utility.yul\":24642:24648   */\n      dup3\n        /* \"#utility.yul\":24631:24640   */\n      dup8\n        /* \"#utility.yul\":24627:24649   */\n      add\n        /* \"#utility.yul\":24606:24659   */\n      tag_311\n      jump\t// in\n    tag_612:\n        /* \"#utility.yul\":24596:24659   */\n      swap3\n      pop\n        /* \"#utility.yul\":24551:24669   */\n      pop\n        /* \"#utility.yul\":24708:24710   */\n      0x40\n        /* \"#utility.yul\":24734:24787   */\n      tag_613\n        /* \"#utility.yul\":24779:24786   */\n      dup7\n        /* \"#utility.yul\":24770:24776   */\n      dup3\n        /* \"#utility.yul\":24759:24768   */\n      dup8\n        /* \"#utility.yul\":24755:24777   */\n      add\n        /* \"#utility.yul\":24734:24787   */\n      tag_285\n      jump\t// in\n    tag_613:\n        /* \"#utility.yul\":24724:24787   */\n      swap2\n      pop\n        /* \"#utility.yul\":24679:24797   */\n      pop\n        /* \"#utility.yul\":24185:24804   */\n      swap3\n      pop\n      swap3\n      pop\n      swap3\n      jump\t// out\n        /* \"#utility.yul\":24810:24919   */\n    tag_337:\n        /* \"#utility.yul\":24891:24912   */\n      tag_615\n        /* \"#utility.yul\":24906:24911   */\n      dup2\n        /* \"#utility.yul\":24891:24912   */\n      tag_306\n      jump\t// in\n    tag_615:\n        /* \"#utility.yul\":24886:24889   */\n      dup3\n        /* \"#utility.yul\":24879:24913   */\n      mstore\n        /* \"#utility.yul\":24810:24919   */\n      pop\n      pop\n      jump\t// out\n        /* \"#utility.yul\":24925:25135   */\n    tag_89:\n        /* \"#utility.yul\":25012:25016   */\n      0x00\n        /* \"#utility.yul\":25050:25052   */\n      0x20\n        /* \"#utility.yul\":25039:25048   */\n      dup3\n        /* \"#utility.yul\":25035:25053   */\n      add\n        /* \"#utility.yul\":25027:25053   */\n      swap1\n      pop\n        /* \"#utility.yul\":25063:25128   */\n      tag_617\n        /* \"#utility.yul\":25125:25126   */\n      0x00\n        /* \"#utility.yul\":25114:25123   */\n      dup4\n        /* \"#utility.yul\":25110:25127   */\n      add\n        /* \"#utility.yul\":25101:25107   */\n      dup5\n        /* \"#utility.yul\":25063:25128   */\n      tag_337\n      jump\t// in\n    tag_617:\n        /* \"#utility.yul\":24925:25135   */\n      swap3\n      swap2\n      pop\n      pop\n      jump\t// out\n        /* \"#utility.yul\":25141:25310   */\n    tag_338:\n        /* \"#utility.yul\":25225:25236   */\n      0x00\n        /* \"#utility.yul\":25259:25265   */\n      dup3\n        /* \"#utility.yul\":25254:25257   */\n      dup3\n        /* \"#utility.yul\":25247:25266   */\n      mstore\n        /* \"#utility.yul\":25299:25303   */\n      0x20\n        /* \"#utility.yul\":25294:25297   */\n      dup3\n        /* \"#utility.yul\":25290:25304   */\n      add\n        /* \"#utility.yul\":25275:25304   */\n      swap1\n      pop\n        /* \"#utility.yul\":25141:25310   */\n      swap3\n      swap2\n      pop\n      pop\n      jump\t// out\n        /* \"#utility.yul\":25316:25539   */\n    tag_339:\n        /* \"#utility.yul\":25456:25490   */\n      0x4f6e6c792070617469656e742063616e20706572666f726d2074686973206163\n        /* \"#utility.yul\":25452:25453   */\n      0x00\n        /* \"#utility.yul\":25444:25450   */\n      dup3\n        /* \"#utility.yul\":25440:25454   */\n      add\n        /* \"#utility.yul\":25433:25491   */\n      mstore\n        /* \"#utility.yul\":25525:25531   */\n      0x74696f6e00000000000000000000000000000000000000000000000000000000\n        /* \"#utility.yul\":25520:25522   */\n      0x20\n        /* \"#utility.yul\":25512:25518   */\n      dup3\n        /* \"#utility.yul\":25508:25523   */\n      add\n        /* \"#utility.yul\":25501:25532   */\n      mstore\n        /* \"#utility.yul\":25316:25539   */\n      pop\n      jump\t// out\n        /* \"#utility.yul\":25545:25911   */\n    tag_340:\n        /* \"#utility.yul\":25687:25690   */\n      0x00\n        /* \"#utility.yul\":25708:25775   */\n      tag_621\n        /* \"#utility.yul\":25772:25774   */\n      0x24\n        /* \"#utility.yul\":25767:25770   */\n      dup4\n        /* \"#utility.yul\":25708:25775   */\n      tag_338\n      jump\t// in\n    tag_621:\n        /* \"#utility.yul\":25701:25775   */\n      swap2\n      pop\n        /* \"#utility.yul\":25784:25877   */\n      tag_622\n        /* \"#utility.yul\":25873:25876   */\n      dup3\n        /* \"#utility.yul\":25784:25877   */\n      tag_339\n      jump\t// in\n    tag_622:\n        /* \"#utility.yul\":25902:25904   */\n      0x40\n        /* \"#utility.yul\":25897:25900   */\n      dup3\n        /* \"#utility.yul\":25893:25905   */\n      add\n        /* \"#utility.yul\":25886:25905   */\n      swap1\n      pop\n        /* \"#utility.yul\":25545:25911   */\n      swap2\n      swap1\n      pop\n      jump\t// out\n        /* \"#utility.yul\":25917:26336   */\n    tag_93:\n        /* \"#utility.yul\":26083:26087   */\n      0x00\n        /* \"#utility.yul\":26121:26123   */\n      0x20\n        /* \"#utility.yul\":26110:26119   */\n      dup3\n        /* \"#utility.yul\":26106:26124   */\n      add\n        /* \"#utility.yul\":26098:26124   */\n      swap1\n      pop\n        /* \"#utility.yul\":26170:26179   */\n      dup2\n        /* \"#utility.yul\":26164:26168   */\n      dup2\n        /* \"#utility.yul\":26160:26180   */\n      sub\n        /* \"#utility.yul\":26156:26157   */\n      0x00\n        /* \"#utility.yul\":26145:26154   */\n      dup4\n        /* \"#utility.yul\":26141:26158   */\n      add\n        /* \"#utility.yul\":26134:26181   */\n      mstore\n        /* \"#utility.yul\":26198:26329   */\n      tag_624\n        /* \"#utility.yul\":26324:26328   */\n      dup2\n        /* \"#utility.yul\":26198:26329   */\n      tag_340\n      jump\t// in\n    tag_624:\n        /* \"#utility.yul\":26190:26329   */\n      swap1\n      pop\n        /* \"#utility.yul\":25917:26336   */\n      swap2\n      swap1\n      pop\n      jump\t// out\n        /* \"#utility.yul\":26342:26522   */\n    tag_341:\n        /* \"#utility.yul\":26390:26467   */\n      0x4e487b7100000000000000000000000000000000000000000000000000000000\n        /* \"#utility.yul\":26387:26388   */\n      0x00\n        /* \"#utility.yul\":26380:26468   */\n      mstore\n        /* \"#utility.yul\":26487:26491   */\n      0x22\n        /* \"#utility.yul\":26484:26485   */\n      0x04\n        /* \"#utility.yul\":26477:26492   */\n      mstore\n        /* \"#utility.yul\":26511:26515   */\n      0x24\n        /* \"#utility.yul\":26508:26509   */\n      0x00\n        /* \"#utility.yul\":26501:26516   */\n      revert\n        /* \"#utility.yul\":26528:26848   */\n    tag_99:\n        /* \"#utility.yul\":26572:26578   */\n      0x00\n        /* \"#utility.yul\":26609:26610   */\n      0x02\n        /* \"#utility.yul\":26603:26607   */\n      dup3\n        /* \"#utility.yul\":26599:26611   */\n      div\n        /* \"#utility.yul\":26589:26611   */\n      swap1\n      pop\n        /* \"#utility.yul\":26656:26657   */\n      0x01\n        /* \"#utility.yul\":26650:26654   */\n      dup3\n        /* \"#utility.yul\":26646:26658   */\n      and\n        /* \"#utility.yul\":26677:26695   */\n      dup1\n        /* \"#utility.yul\":26667:26748   */\n      tag_627\n      jumpi\n        /* \"#utility.yul\":26733:26737   */\n      0x7f\n        /* \"#utility.yul\":26725:26731   */\n      dup3\n        /* \"#utility.yul\":26721:26738   */\n      and\n        /* \"#utility.yul\":26711:26738   */\n      swap2\n      pop\n        /* \"#utility.yul\":26667:26748   */\n    tag_627:\n        /* \"#utility.yul\":26795:26797   */\n      0x20\n        /* \"#utility.yul\":26787:26793   */\n      dup3\n        /* \"#utility.yul\":26784:26798   */\n      lt\n        /* \"#utility.yul\":26764:26782   */\n      dup2\n        /* \"#utility.yul\":26761:26799   */\n      sub\n        /* \"#utility.yul\":26758:26842   */\n      tag_628\n      jumpi\n        /* \"#utility.yul\":26814:26832   */\n      tag_629\n      tag_341\n      jump\t// in\n    tag_629:\n        /* \"#utility.yul\":26758:26842   */\n    tag_628:\n        /* \"#utility.yul\":26579:26848   */\n      pop\n        /* \"#utility.yul\":26528:26848   */\n      swap2\n      swap1\n      pop\n      jump\t// out\n        /* \"#utility.yul\":26854:27025   */\n    tag_342:\n        /* \"#utility.yul\":26994:27017   */\n      0x5265636f726420646f6573206e6f742065786973740000000000000000000000\n        /* \"#utility.yul\":26990:26991   */\n      0x00\n        /* \"#utility.yul\":26982:26988   */\n      dup3\n        /* \"#utility.yul\":26978:26992   */\n      add\n        /* \"#utility.yul\":26971:27018   */\n      mstore\n        /* \"#utility.yul\":26854:27025   */\n      pop\n      jump\t// out\n        /* \"#utility.yul\":27031:27397   */\n    tag_343:\n        /* \"#utility.yul\":27173:27176   */\n      0x00\n        /* \"#utility.yul\":27194:27261   */\n      tag_632\n        /* \"#utility.yul\":27258:27260   */\n      0x15\n        /* \"#utility.yul\":27253:27256   */\n      dup4\n        /* \"#utility.yul\":27194:27261   */\n      tag_338\n      jump\t// in\n    tag_632:\n        /* \"#utility.yul\":27187:27261   */\n      swap2\n      pop\n        /* \"#utility.yul\":27270:27363   */\n      tag_633\n        /* \"#utility.yul\":27359:27362   */\n      dup3\n        /* \"#utility.yul\":27270:27363   */\n      tag_342\n      jump\t// in\n    tag_633:\n        /* \"#utility.yul\":27388:27390   */\n      0x20\n        /* \"#utility.yul\":27383:27386   */\n      dup3\n        /* \"#utility.yul\":27379:27391   */\n      add\n        /* \"#utility.yul\":27372:27391   */\n      swap1\n      pop\n        /* \"#utility.yul\":27031:27397   */\n      swap2\n      swap1\n      pop\n      jump\t// out\n        /* \"#utility.yul\":27403:27822   */\n    tag_110:\n        /* \"#utility.yul\":27569:27573   */\n      0x00\n        /* \"#utility.yul\":27607:27609   */\n      0x20\n        /* \"#utility.yul\":27596:27605   */\n      dup3\n        /* \"#utility.yul\":27592:27610   */\n      add\n        /* \"#utility.yul\":27584:27610   */\n      swap1\n      pop\n        /* \"#utility.yul\":27656:27665   */\n      dup2\n        /* \"#utility.yul\":27650:27654   */\n      dup2\n        /* \"#utility.yul\":27646:27666   */\n      sub\n        /* \"#utility.yul\":27642:27643   */\n      0x00\n        /* \"#utility.yul\":27631:27640   */\n      dup4\n        /* \"#utility.yul\":27627:27644   */\n      add\n        /* \"#utility.yul\":27620:27667   */\n      mstore\n        /* \"#utility.yul\":27684:27815   */\n      tag_635\n        /* \"#utility.yul\":27810:27814   */\n      dup2\n        /* \"#utility.yul\":27684:27815   */\n      tag_343\n      jump\t// in\n    tag_635:\n        /* \"#utility.yul\":27676:27815   */\n      swap1\n      pop\n        /* \"#utility.yul\":27403:27822   */\n      swap2\n      swap1\n      pop\n      jump\t// out\n        /* \"#utility.yul\":27828:27998   */\n    tag_344:\n        /* \"#utility.yul\":27968:27990   */\n      0x5265636f7264206973206e6f7420616374697665000000000000000000000000\n        /* \"#utility.yul\":27964:27965   */\n      0x00\n        /* \"#utility.yul\":27956:27962   */\n      dup3\n        /* \"#utility.yul\":27952:27966   */\n      add\n        /* \"#utility.yul\":27945:27991   */\n      mstore\n        /* \"#utility.yul\":27828:27998   */\n      pop\n      jump\t// out\n        /* \"#utility.yul\":28004:28370   */\n    tag_345:\n        /* \"#utility.yul\":28146:28149   */\n      0x00\n        /* \"#utility.yul\":28167:28234   */\n      tag_638\n        /* \"#utility.yul\":28231:28233   */\n      0x14\n        /* \"#utility.yul\":28226:28229   */\n      dup4\n        /* \"#utility.yul\":28167:28234   */\n      tag_338\n      jump\t// in\n    tag_638:\n        /* \"#utility.yul\":28160:28234   */\n      swap2\n      pop\n        /* \"#utility.yul\":28243:28336   */\n      tag_639\n        /* \"#utility.yul\":28332:28335   */\n      dup3\n        /* \"#utility.yul\":28243:28336   */\n      tag_344\n      jump\t// in\n    tag_639:\n        /* \"#utility.yul\":28361:28363   */\n      0x20\n        /* \"#utility.yul\":28356:28359   */\n      dup3\n        /* \"#utility.yul\":28352:28364   */\n      add\n        /* \"#utility.yul\":28345:28364   */\n      swap1\n      pop\n        /* \"#utility.yul\":28004:28370   */\n      swap2\n      swap1\n      pop\n      jump\t// out\n        /* \"#utility.yul\":28376:28795   */\n    tag_113:\n        /* \"#utility.yul\":28542:28546   */\n      0x00\n        /* \"#utility.yul\":28580:28582   */\n      0x20\n        /* \"#utility.yul\":28569:28578   */\n      dup3\n        /* \"#utility.yul\":28565:28583   */\n      add\n        /* \"#utility.yul\":28557:28583   */\n      swap1\n      pop\n        /* \"#utility.yul\":28629:28638   */\n      dup2\n        /* \"#utility.yul\":28623:28627   */\n      dup2\n        /* \"#utility.yul\":28619:28639   */\n      sub\n        /* \"#utility.yul\":28615:28616   */\n      0x00\n        /* \"#utility.yul\":28604:28613   */\n      dup4\n        /* \"#utility.yul\":28600:28617   */\n      add\n        /* \"#utility.yul\":28593:28640   */\n      mstore\n        /* \"#utility.yul\":28657:28788   */\n      tag_641\n        /* \"#utility.yul\":28783:28787   */\n      dup2\n        /* \"#utility.yul\":28657:28788   */\n      tag_345\n      jump\t// in\n    tag_641:\n        /* \"#utility.yul\":28649:28788   */\n      swap1\n      pop\n        /* \"#utility.yul\":28376:28795   */\n      swap2\n      swap1\n      pop\n      jump\t// out\n        /* \"#utility.yul\":28801:29024   */\n    tag_346:\n        /* \"#utility.yul\":28941:28975   */\n      0x4e6f7420617574686f72697a656420746f206163636573732074686973207265\n        /* \"#utility.yul\":28937:28938   */\n      0x00\n        /* \"#utility.yul\":28929:28935   */\n      dup3\n        /* \"#utility.yul\":28925:28939   */\n      add\n        /* \"#utility.yul\":28918:28976   */\n      mstore\n        /* \"#utility.yul\":29010:29016   */\n      0x636f726400000000000000000000000000000000000000000000000000000000\n        /* \"#utility.yul\":29005:29007   */\n      0x20\n        /* \"#utility.yul\":28997:29003   */\n      dup3\n        /* \"#utility.yul\":28993:29008   */\n      add\n        /* \"#utility.yul\":28986:29017   */\n      mstore\n        /* \"#utility.yul\":28801:29024   */\n      pop\n      jump\t// out\n        /* \"#utility.yul\":29030:29396   */\n    tag_347:\n        /* \"#utility.yul\":29172:29175   */\n      0x00\n        /* \"#utility.yul\":29193:29260   */\n      tag_644\n        /* \"#utility.yul\":29257:29259   */\n      0x24\n        /* \"#utility.yul\":29252:29255   */\n      dup4\n        /* \"#utility.yul\":29193:29260   */\n      tag_338\n      jump\t// in\n    tag_644:\n        /* \"#utility.yul\":29186:29260   */\n      swap2\n      pop\n        /* \"#utility.yul\":29269:29362   */\n      tag_645\n        /* \"#utility.yul\":29358:29361   */\n      dup3\n        /* \"#utility.yul\":29269:29362   */\n      tag_346\n      jump\t// in\n    tag_645:\n        /* \"#utility.yul\":29387:29389   */\n      0x40\n        /* \"#utility.yul\":29382:29385   */\n      dup3\n        /* \"#utility.yul\":29378:29390   */\n      add\n        /* \"#utility.yul\":29371:29390   */\n      swap1\n      pop\n        /* \"#utility.yul\":29030:29396   */\n      swap2\n      swap1\n      pop\n      jump\t// out\n        /* \"#utility.yul\":29402:29821   */\n    tag_118:\n        /* \"#utility.yul\":29568:29572   */\n      0x00\n        /* \"#utility.yul\":29606:29608   */\n      0x20\n        /* \"#utility.yul\":29595:29604   */\n      dup3\n        /* \"#utility.yul\":29591:29609   */\n      add\n        /* \"#utility.yul\":29583:29609   */\n      swap1\n      pop\n        /* \"#utility.yul\":29655:29664   */\n      dup2\n        /* \"#utility.yul\":29649:29653   */\n      dup2\n        /* \"#utility.yul\":29645:29665   */\n      sub\n        /* \"#utility.yul\":29641:29642   */\n      0x00\n        /* \"#utility.yul\":29630:29639   */\n      dup4\n        /* \"#utility.yul\":29626:29643   */\n      add\n        /* \"#utility.yul\":29619:29666   */\n      mstore\n        /* \"#utility.yul\":29683:29814   */\n      tag_647\n        /* \"#utility.yul\":29809:29813   */\n      dup2\n        /* \"#utility.yul\":29683:29814   */\n      tag_347\n      jump\t// in\n    tag_647:\n        /* \"#utility.yul\":29675:29814   */\n      swap1\n      pop\n        /* \"#utility.yul\":29402:29821   */\n      swap2\n      swap1\n      pop\n      jump\t// out\n        /* \"#utility.yul\":29827:30000   */\n    tag_348:\n        /* \"#utility.yul\":29967:29992   */\n      0x496e76616c69642070617469656e742061646472657373000000000000000000\n        /* \"#utility.yul\":29963:29964   */\n      0x00\n        /* \"#utility.yul\":29955:29961   */\n      dup3\n        /* \"#utility.yul\":29951:29965   */\n      add\n        /* \"#utility.yul\":29944:29993   */\n      mstore\n        /* \"#utility.yul\":29827:30000   */\n      pop\n      jump\t// out\n        /* \"#utility.yul\":30006:30372   */\n    tag_349:\n        /* \"#utility.yul\":30148:30151   */\n      0x00\n        /* \"#utility.yul\":30169:30236   */\n      tag_650\n        /* \"#utility.yul\":30233:30235   */\n      0x17\n        /* \"#utility.yul\":30228:30231   */\n      dup4\n        /* \"#utility.yul\":30169:30236   */\n      tag_338\n      jump\t// in\n    tag_650:\n        /* \"#utility.yul\":30162:30236   */\n      swap2\n      pop\n        /* \"#utility.yul\":30245:30338   */\n      tag_651\n        /* \"#utility.yul\":30334:30337   */\n      dup3\n        /* \"#utility.yul\":30245:30338   */\n      tag_348\n      jump\t// in\n    tag_651:\n        /* \"#utility.yul\":30363:30365   */\n      0x20\n        /* \"#utility.yul\":30358:30361   */\n      dup3\n        /* \"#utility.yul\":30354:30366   */\n      add\n        /* \"#utility.yul\":30347:30366   */\n      swap1\n      pop\n        /* \"#utility.yul\":30006:30372   */\n      swap2\n      swap1\n      pop\n      jump\t// out\n        /* \"#utility.yul\":30378:30797   */\n    tag_149:\n        /* \"#utility.yul\":30544:30548   */\n      0x00\n        /* \"#utility.yul\":30582:30584   */\n      0x20\n        /* \"#utility.yul\":30571:30580   */\n      dup3\n        /* \"#utility.yul\":30567:30585   */\n      add\n        /* \"#utility.yul\":30559:30585   */\n      swap1\n      pop\n        /* \"#utility.yul\":30631:30640   */\n      dup2\n        /* \"#utility.yul\":30625:30629   */\n      dup2\n        /* \"#utility.yul\":30621:30641   */\n      sub\n        /* \"#utility.yul\":30617:30618   */\n      0x00\n        /* \"#utility.yul\":30606:30615   */\n      dup4\n        /* \"#utility.yul\":30602:30619   */\n      add\n        /* \"#utility.yul\":30595:30642   */\n      mstore\n        /* \"#utility.yul\":30659:30790   */\n      tag_653\n        /* \"#utility.yul\":30785:30789   */\n      dup2\n        /* \"#utility.yul\":30659:30790   */\n      tag_349\n      jump\t// in\n    tag_653:\n        /* \"#utility.yul\":30651:30790   */\n      swap1\n      pop\n        /* \"#utility.yul\":30378:30797   */\n      swap2\n      swap1\n      pop\n      jump\t// out\n        /* \"#utility.yul\":30803:30978   */\n    tag_350:\n        /* \"#utility.yul\":30943:30970   */\n      0x4950465320686173682063616e6e6f7420626520656d70747900000000000000\n        /* \"#utility.yul\":30939:30940   */\n      0x00\n        /* \"#utility.yul\":30931:30937   */\n      dup3\n        /* \"#utility.yul\":30927:30941   */\n      add\n        /* \"#utility.yul\":30920:30971   */\n      mstore\n        /* \"#utility.yul\":30803:30978   */\n      pop\n      jump\t// out\n        /* \"#utility.yul\":30984:31350   */\n    tag_351:\n        /* \"#utility.yul\":31126:31129   */\n      0x00\n        /* \"#utility.yul\":31147:31214   */\n      tag_656\n        /* \"#utility.yul\":31211:31213   */\n      0x19\n        /* \"#utility.yul\":31206:31209   */\n      dup4\n        /* \"#utility.yul\":31147:31214   */\n      tag_338\n      jump\t// in\n    tag_656:\n        /* \"#utility.yul\":31140:31214   */\n      swap2\n      pop\n        /* \"#utility.yul\":31223:31316   */\n      tag_657\n        /* \"#utility.yul\":31312:31315   */\n      dup3\n        /* \"#utility.yul\":31223:31316   */\n      tag_350\n      jump\t// in\n    tag_657:\n        /* \"#utility.yul\":31341:31343   */\n      0x20\n        /* \"#utility.yul\":31336:31339   */\n      dup3\n        /* \"#utility.yul\":31332:31344   */\n      add\n        /* \"#utility.yul\":31325:31344   */\n      swap1\n      pop\n        /* \"#utility.yul\":30984:31350   */\n      swap2\n      swap1\n      pop\n      jump\t// out\n        /* \"#utility.yul\":31356:31775   */\n    tag_152:\n        /* \"#utility.yul\":31522:31526   */\n      0x00\n        /* \"#utility.yul\":31560:31562   */\n      0x20\n        /* \"#utility.yul\":31549:31558   */\n      dup3\n        /* \"#utility.yul\":31545:31563   */\n      add\n        /* \"#utility.yul\":31537:31563   */\n      swap1\n      pop\n        /* \"#utility.yul\":31609:31618   */\n      dup2\n        /* \"#utility.yul\":31603:31607   */\n      dup2\n        /* \"#utility.yul\":31599:31619   */\n      sub\n        /* \"#utility.yul\":31595:31596   */\n      0x00\n        /* \"#utility.yul\":31584:31593   */\n      dup4\n        /* \"#utility.yul\":31580:31597   */\n      add\n        /* \"#utility.yul\":31573:31620   */\n      mstore\n        /* \"#utility.yul\":31637:31768   */\n      tag_659\n        /* \"#utility.yul\":31763:31767   */\n      dup2\n        /* \"#utility.yul\":31637:31768   */\n      tag_351\n      jump\t// in\n    tag_659:\n        /* \"#utility.yul\":31629:31768   */\n      swap1\n      pop\n        /* \"#utility.yul\":31356:31775   */\n      swap2\n      swap1\n      pop\n      jump\t// out\n        /* \"#utility.yul\":31781:31961   */\n    tag_352:\n        /* \"#utility.yul\":31829:31906   */\n      0x4e487b7100000000000000000000000000000000000000000000000000000000\n        /* \"#utility.yul\":31826:31827   */\n      0x00\n        /* \"#utility.yul\":31819:31907   */\n      mstore\n        /* \"#utility.yul\":31926:31930   */\n      0x11\n        /* \"#utility.yul\":31923:31924   */\n      0x04\n        /* \"#utility.yul\":31916:31931   */\n      mstore\n        /* \"#utility.yul\":31950:31954   */\n      0x24\n        /* \"#utility.yul\":31947:31948   */\n      0x00\n        /* \"#utility.yul\":31940:31955   */\n      revert\n        /* \"#utility.yul\":31967:32200   */\n    tag_154:\n        /* \"#utility.yul\":32006:32009   */\n      0x00\n        /* \"#utility.yul\":32029:32053   */\n      tag_662\n        /* \"#utility.yul\":32047:32052   */\n      dup3\n        /* \"#utility.yul\":32029:32053   */\n      tag_283\n      jump\t// in\n    tag_662:\n        /* \"#utility.yul\":32020:32053   */\n      swap2\n      pop\n        /* \"#utility.yul\":32075:32141   */\n      0xffffffffffffffffffffffffffffffffffffffffffffffffffffffffffffffff\n        /* \"#utility.yul\":32068:32073   */\n      dup3\n        /* \"#utility.yul\":32065:32142   */\n      sub\n        /* \"#utility.yul\":32062:32165   */\n      tag_663\n      jumpi\n        /* \"#utility.yul\":32145:32163   */\n      tag_664\n      tag_352\n      jump\t// in\n    tag_664:\n        /* \"#utility.yul\":32062:32165   */\n    tag_663:\n        /* \"#utility.yul\":32192:32193   */\n      0x01\n        /* \"#utility.yul\":32185:32190   */\n      dup3\n        /* \"#utility.yul\":32181:32194   */\n      add\n        /* \"#utility.yul\":32174:32194   */\n      swap1\n      pop\n        /* \"#utility.yul\":31967:32200   */\n      swap2\n      swap1\n      pop\n      jump\t// out\n        /* \"#utility.yul\":32206:32347   */\n    tag_353:\n        /* \"#utility.yul\":32255:32259   */\n      0x00\n        /* \"#utility.yul\":32278:32281   */\n      dup2\n        /* \"#utility.yul\":32270:32281   */\n      swap1\n      pop\n        /* \"#utility.yul\":32301:32304   */\n      dup2\n        /* \"#utility.yul\":32298:32299   */\n      0x00\n        /* \"#utility.yul\":32291:32305   */\n      mstore\n        /* \"#utility.yul\":32335:32339   */\n      0x20\n        /* \"#utility.yul\":32332:32333   */\n      0x00\n        /* \"#utility.yul\":32322:32340   */\n      keccak256\n        /* \"#utility.yul\":32314:32340   */\n      swap1\n      pop\n        /* \"#utility.yul\":32206:32347   */\n      swap2\n      swap1\n      pop\n      jump\t// out\n        /* \"#utility.yul\":32353:32446   */\n    tag_354:\n        /* \"#utility.yul\":32390:32396   */\n      0x00\n        /* \"#utility.yul\":32437:32439   */\n      0x20\n        /* \"#utility.yul\":32432:32434   */\n      0x1f\n        /* \"#utility.yul\":32425:32430   */\n      dup4\n        /* \"#utility.yul\":32421:32435   */\n      add\n        /* \"#utility.yul\":32417:32440   */\n      div\n        /* \"#utility.yul\":32407:32440   */\n      swap1\n      pop\n        /* \"#utility.yul\":32353:32446   */\n      swap2\n      swap1\n      pop\n      jump\t// out\n        /* \"#utility.yul\":32452:32559   */\n    tag_355:\n        /* \"#utility.yul\":32496:32504   */\n      0x00\n        /* \"#utility.yul\":32546:32551   */\n      dup3\n        /* \"#utility.yul\":32540:32544   */\n      dup3\n        /* \"#utility.yul\":32536:32552   */\n      shl\n        /* \"#utility.yul\":32515:32552   */\n      swap1\n      pop\n        /* \"#utility.yul\":32452:32559   */\n      swap3\n      swap2\n      pop\n      pop\n      jump\t// out\n        /* \"#utility.yul\":32565:32958   */\n    tag_356:\n        /* \"#utility.yul\":32634:32640   */\n      0x00\n        /* \"#utility.yul\":32684:32685   */\n      0x08\n        /* \"#utility.yul\":32672:32682   */\n      dup4\n        /* \"#utility.yul\":32668:32686   */\n      mul\n        /* \"#utility.yul\":32707:32804   */\n      tag_669\n        /* \"#utility.yul\":32737:32803   */\n      0xffffffffffffffffffffffffffffffffffffffffffffffffffffffffffffffff\n        /* \"#utility.yul\":32726:32735   */\n      dup3\n        /* \"#utility.yul\":32707:32804   */\n      tag_355\n      jump\t// in\n    tag_669:\n        /* \"#utility.yul\":32825:32864   */\n      tag_670\n        /* \"#utility.yul\":32855:32863   */\n      dup7\n        /* \"#utility.yul\":32844:32853   */\n      dup4\n        /* \"#utility.yul\":32825:32864   */\n      tag_355\n      jump\t// in\n    tag_670:\n        /* \"#utility.yul\":32813:32864   */\n      swap6\n      pop\n        /* \"#utility.yul\":32897:32901   */\n      dup1\n        /* \"#utility.yul\":32893:32902   */\n      not\n        /* \"#utility.yul\":32886:32891   */\n      dup5\n        /* \"#utility.yul\":32882:32903   */\n      and\n        /* \"#utility.yul\":32873:32903   */\n      swap4\n      pop\n        /* \"#utility.yul\":32946:32950   */\n      dup1\n        /* \"#utility.yul\":32936:32944   */\n      dup7\n        /* \"#utility.yul\":32932:32951   */\n      and\n        /* \"#utility.yul\":32925:32930   */\n      dup5\n        /* \"#utility.yul\":32922:32952   */\n      or\n        /* \"#utility.yul\":32912:32952   */\n      swap3\n      pop\n        /* \"#utility.yul\":32641:32958   */\n      pop\n      pop\n        /* \"#utility.yul\":32565:32958   */\n      swap4\n      swap3\n      pop\n      pop\n      pop\n      jump\t// out\n        /* \"#utility.yul\":32964:33024   */\n    tag_357:\n        /* \"#utility.yul\":32992:32995   */\n      0x00\n        /* \"#utility.yul\":33013:33018   */\n      dup2\n        /* \"#utility.yul\":33006:33018   */\n      swap1\n      pop\n        /* \"#utility.yul\":32964:33024   */\n      swap2\n      swap1\n      pop\n      jump\t// out\n        /* \"#utility.yul\":33030:33172   */\n    tag_358:\n        /* \"#utility.yul\":33080:33089   */\n      0x00\n        /* \"#utility.yul\":33113:33166   */\n      tag_673\n        /* \"#utility.yul\":33131:33165   */\n      tag_674\n        /* \"#utility.yul\":33140:33164   */\n      tag_675\n        /* \"#utility.yul\":33158:33163   */\n      dup5\n        /* \"#utility.yul\":33140:33164   */\n      tag_283\n      jump\t// in\n    tag_675:\n        /* \"#utility.yul\":33131:33165   */\n      tag_357\n      jump\t// in\n    tag_674:\n        /* \"#utility.yul\":33113:33166   */\n      tag_283\n      jump\t// in\n    tag_673:\n        /* \"#utility.yul\":33100:33166   */\n      swap1\n      pop\n        /* \"#utility.yul\":33030:33172   */\n      swap2\n      swap1\n      pop\n      jump\t// out\n        /* \"#utility.yul\":33178:33253   */\n    tag_359:\n        /* \"#utility.yul\":33221:33224   */\n      0x00\n        /* \"#utility.yul\":33242:33247   */\n      dup2\n        /* \"#utility.yul\":33235:33247   */\n      swap1\n      pop\n        /* \"#utility.yul\":33178:33253   */\n      swap2\n      swap1\n      pop\n      jump\t// out\n        /* \"#utility.yul\":33259:33528   */\n    tag_360:\n        /* \"#utility.yul\":33369:33408   */\n      tag_678\n        /* \"#utility.yul\":33400:33407   */\n      dup4\n        /* \"#utility.yul\":33369:33408   */\n      tag_358\n      jump\t// in\n    tag_678:\n        /* \"#utility.yul\":33430:33521   */\n      tag_679\n        /* \"#utility.yul\":33479:33520   */\n      tag_680\n        /* \"#utility.yul\":33503:33519   */\n      dup3\n        /* \"#utility.yul\":33479:33520   */\n      tag_359\n      jump\t// in\n    tag_680:\n        /* \"#utility.yul\":33471:33477   */\n      dup5\n        /* \"#utility.yul\":33464:33468   */\n      dup5\n        /* \"#utility.yul\":33458:33469   */\n      sload\n        /* \"#utility.yul\":33430:33521   */\n      tag_356\n      jump\t// in\n    tag_679:\n        /* \"#utility.yul\":33424:33428   */\n      dup3\n        /* \"#utility.yul\":33417:33522   */\n      sstore\n        /* \"#utility.yul\":33335:33528   */\n      pop\n        /* \"#utility.yul\":33259:33528   */\n      pop\n      pop\n      pop\n      jump\t// out\n        /* \"#utility.yul\":33534:33607   */\n    tag_361:\n        /* \"#utility.yul\":33579:33582   */\n      0x00\n        /* \"#utility.yul\":33534:33607   */\n      swap1\n      jump\t// out\n        /* \"#utility.yul\":33613:33802   */\n    tag_362:\n        /* \"#utility.yul\":33690:33722   */\n      tag_683\n      tag_361\n      jump\t// in\n    tag_683:\n        /* \"#utility.yul\":33731:33796   */\n      tag_684\n        /* \"#utility.yul\":33789:33795   */\n      dup2\n        /* \"#utility.yul\":33781:33787   */\n      dup5\n        /* \"#utility.yul\":33775:33779   */\n      dup5\n        /* \"#utility.yul\":33731:33796   */\n      tag_360\n      jump\t// in\n    tag_684:\n        /* \"#utility.yul\":33666:33802   */\n      pop\n        /* \"#utility.yul\":33613:33802   */\n      pop\n      pop\n      jump\t// out\n        /* \"#utility.yul\":33808:33994   */\n    tag_363:\n        /* \"#utility.yul\":33868:33988   */\n    tag_686:\n        /* \"#utility.yul\":33885:33888   */\n      dup2\n        /* \"#utility.yul\":33878:33883   */\n      dup2\n        /* \"#utility.yul\":33875:33889   */\n      lt\n        /* \"#utility.yul\":33868:33988   */\n      iszero\n      tag_688\n      jumpi\n        /* \"#utility.yul\":33939:33978   */\n      tag_689\n        /* \"#utility.yul\":33976:33977   */\n      0x00\n        /* \"#utility.yul\":33969:33974   */\n      dup3\n        /* \"#utility.yul\":33939:33978   */\n      tag_362\n      jump\t// in\n    tag_689:\n        /* \"#utility.yul\":33912:33913   */\n      0x01\n        /* \"#utility.yul\":33905:33910   */\n      dup2\n        /* \"#utility.yul\":33901:33914   */\n      add\n        /* \"#utility.yul\":33892:33914   */\n      swap1\n      pop\n        /* \"#utility.yul\":33868:33988   */\n      jump(tag_686)\n    tag_688:\n        /* \"#utility.yul\":33808:33994   */\n      pop\n      pop\n      jump\t// out\n        /* \"#utility.yul\":34000:34543   */\n    tag_364:\n        /* \"#utility.yul\":34101:34103   */\n      0x1f\n        /* \"#utility.yul\":34096:34099   */\n      dup3\n        /* \"#utility.yul\":34093:34104   */\n      gt\n        /* \"#utility.yul\":34090:34536   */\n      iszero\n      tag_691\n      jumpi\n        /* \"#utility.yul\":34135:34173   */\n      tag_692\n        /* \"#utility.yul\":34167:34172   */\n      dup2\n        /* \"#utility.yul\":34135:34173   */\n      tag_353\n      jump\t// in\n    tag_692:\n        /* \"#utility.yul\":34219:34248   */\n      tag_693\n        /* \"#utility.yul\":34237:34247   */\n      dup5\n        /* \"#utility.yul\":34219:34248   */\n      tag_354\n      jump\t// in\n    tag_693:\n        /* \"#utility.yul\":34209:34217   */\n      dup2\n        /* \"#utility.yul\":34205:34249   */\n      add\n        /* \"#utility.yul\":34402:34404   */\n      0x20\n        /* \"#utility.yul\":34390:34400   */\n      dup6\n        /* \"#utility.yul\":34387:34405   */\n      lt\n        /* \"#utility.yul\":34384:34433   */\n      iszero\n      tag_694\n      jumpi\n        /* \"#utility.yul\":34423:34431   */\n      dup2\n        /* \"#utility.yul\":34408:34431   */\n      swap1\n      pop\n        /* \"#utility.yul\":34384:34433   */\n    tag_694:\n        /* \"#utility.yul\":34446:34526   */\n      tag_695\n        /* \"#utility.yul\":34502:34524   */\n      tag_696\n        /* \"#utility.yul\":34520:34523   */\n      dup6\n        /* \"#utility.yul\":34502:34524   */\n      tag_354\n      jump\t// in\n    tag_696:\n        /* \"#utility.yul\":34492:34500   */\n      dup4\n        /* \"#utility.yul\":34488:34525   */\n      add\n        /* \"#utility.yul\":34475:34486   */\n      dup3\n        /* \"#utility.yul\":34446:34526   */\n      tag_363\n      jump\t// in\n    tag_695:\n        /* \"#utility.yul\":34105:34536   */\n      pop\n      pop\n        /* \"#utility.yul\":34090:34536   */\n    tag_691:\n        /* \"#utility.yul\":34000:34543   */\n      pop\n      pop\n      pop\n      jump\t// out\n        /* \"#utility.yul\":34549:34666   */\n    tag_365:\n        /* \"#utility.yul\":34603:34611   */\n      0x00\n        /* \"#utility.yul\":34653:34658   */\n      dup3\n        /* \"#utility.yul\":34647:34651   */\n      dup3\n        /* \"#utility.yul\":34643:34659   */\n      shr\n        /* \"#utility.yul\":34622:34659   */\n      swap1\n      pop\n        /* \"#utility.yul\":34549:34666   */\n      swap3\n      swap2\n      pop\n      pop\n      jump\t// out\n        /* \"#utility.yul\":34672:34841   */\n    tag_366:\n        /* \"#utility.yul\":34716:34722   */\n      0x00\n        /* \"#utility.yul\":34749:34800   */\n      tag_699\n        /* \"#utility.yul\":34797:34798   */\n      0x00\n        /* \"#utility.yul\":34793:34799   */\n      not\n        /* \"#utility.yul\":34785:34790   */\n      dup5\n        /* \"#utility.yul\":34782:34783   */\n      0x08\n        /* \"#utility.yul\":34778:34791   */\n      mul\n        /* \"#utility.yul\":34749:34800   */\n      tag_365\n      jump\t// in\n    tag_699:\n        /* \"#utility.yul\":34745:34801   */\n      not\n        /* \"#utility.yul\":34830:34834   */\n      dup1\n        /* \"#utility.yul\":34824:34828   */\n      dup4\n        /* \"#utility.yul\":34820:34835   */\n      and\n        /* \"#utility.yul\":34810:34835   */\n      swap2\n      pop\n        /* \"#utility.yul\":34723:34841   */\n      pop\n        /* \"#utility.yul\":34672:34841   */\n      swap3\n      swap2\n      pop\n      pop\n      jump\t// out\n        /* \"#utility.yul\":34846:35141   */\n    tag_367:\n        /* \"#utility.yul\":34922:34926   */\n      0x00\n        /* \"#utility.yul\":35068:35097   */\n      tag_701\n        /* \"#utility.yul\":35093:35096   */\n      dup4\n        /* \"#utility.yul\":35087:35091   */\n      dup4\n        /* \"#utility.yul\":35068:35097   */\n      tag_366\n      jump\t// in\n    tag_701:\n        /* \"#utility.yul\":35060:35097   */\n      swap2\n      pop\n        /* \"#utility.yul\":35130:35133   */\n      dup3\n        /* \"#utility.yul\":35127:35128   */\n      0x02\n        /* \"#utility.yul\":35123:35134   */\n      mul\n        /* \"#utility.yul\":35117:35121   */\n      dup3\n        /* \"#utility.yul\":35114:35135   */\n      or\n        /* \"#utility.yul\":35106:35135   */\n      swap1\n      pop\n        /* \"#utility.yul\":34846:35141   */\n      swap3\n      swap2\n      pop\n      pop\n      jump\t// out\n        /* \"#utility.yul\":35146:36541   */\n    tag_158:\n        /* \"#utility.yul\":35263:35300   */\n      tag_703\n        /* \"#utility.yul\":35296:35299   */\n      dup3\n        /* \"#utility.yul\":35263:35300   */\n      tag_293\n      jump\t// in\n    tag_703:\n        /* \"#utility.yul\":35365:35383   */\n      0xffffffffffffffff\n        /* \"#utility.yul\":35357:35363   */\n      dup2\n        /* \"#utility.yul\":35354:35384   */\n      gt\n        /* \"#utility.yul\":35351:35407   */\n      iszero\n      tag_704\n      jumpi\n        /* \"#utility.yul\":35387:35405   */\n      tag_705\n      tag_314\n      jump\t// in\n    tag_705:\n        /* \"#utility.yul\":35351:35407   */\n    tag_704:\n        /* \"#utility.yul\":35431:35469   */\n      tag_706\n        /* \"#utility.yul\":35463:35467   */\n      dup3\n        /* \"#utility.yul\":35457:35468   */\n      sload\n        /* \"#utility.yul\":35431:35469   */\n      tag_99\n      jump\t// in\n    tag_706:\n        /* \"#utility.yul\":35516:35583   */\n      tag_707\n        /* \"#utility.yul\":35576:35582   */\n      dup3\n        /* \"#utility.yul\":35568:35574   */\n      dup3\n        /* \"#utility.yul\":35562:35566   */\n      dup6\n        /* \"#utility.yul\":35516:35583   */\n      tag_364\n      jump\t// in\n    tag_707:\n        /* \"#utility.yul\":35610:35611   */\n      0x00\n        /* \"#utility.yul\":35634:35638   */\n      0x20\n        /* \"#utility.yul\":35621:35638   */\n      swap1\n      pop\n        /* \"#utility.yul\":35666:35668   */\n      0x1f\n        /* \"#utility.yul\":35658:35664   */\n      dup4\n        /* \"#utility.yul\":35655:35669   */\n      gt\n        /* \"#utility.yul\":35683:35684   */\n      0x01\n        /* \"#utility.yul\":35678:36296   */\n      dup2\n      eq\n      tag_709\n      jumpi\n        /* \"#utility.yul\":36340:36341   */\n      0x00\n        /* \"#utility.yul\":36357:36363   */\n      dup5\n        /* \"#utility.yul\":36354:36431   */\n      iszero\n      tag_710\n      jumpi\n        /* \"#utility.yul\":36406:36415   */\n      dup3\n        /* \"#utility.yul\":36401:36404   */\n      dup8\n        /* \"#utility.yul\":36397:36416   */\n      add\n        /* \"#utility.yul\":36391:36417   */\n      mload\n        /* \"#utility.yul\":36382:36417   */\n      swap1\n      pop\n        /* \"#utility.yul\":36354:36431   */\n    tag_710:\n        /* \"#utility.yul\":36457:36524   */\n      tag_711\n        /* \"#utility.yul\":36517:36523   */\n      dup6\n        /* \"#utility.yul\":36510:36515   */\n      dup3\n        /* \"#utility.yul\":36457:36524   */\n      tag_367\n      jump\t// in\n    tag_711:\n        /* \"#utility.yul\":36451:36455   */\n      dup7\n        /* \"#utility.yul\":36444:36525   */\n      sstore\n        /* \"#utility.yul\":36313:36535   */\n      pop\n        /* \"#utility.yul\":35648:36535   */\n      jump(tag_708)\n        /* \"#utility.yul\":35678:36296   */\n    tag_709:\n        /* \"#utility.yul\":35730:35734   */\n      0x1f\n        /* \"#utility.yul\":35726:35735   */\n      not\n        /* \"#utility.yul\":35718:35724   */\n      dup5\n        /* \"#utility.yul\":35714:35736   */\n      and\n        /* \"#utility.yul\":35764:35801   */\n      tag_712\n        /* \"#utility.yul\":35796:35800   */\n      dup7\n        /* \"#utility.yul\":35764:35801   */\n      tag_353\n      jump\t// in\n    tag_712:\n        /* \"#utility.yul\":35823:35824   */\n      0x00\n        /* \"#utility.yul\":35837:36045   */\n    tag_713:\n        /* \"#utility.yul\":35851:35858   */\n      dup3\n        /* \"#utility.yul\":35848:35849   */\n      dup2\n        /* \"#utility.yul\":35845:35859   */\n      lt\n        /* \"#utility.yul\":35837:36045   */\n      iszero\n      tag_715\n      jumpi\n        /* \"#utility.yul\":35930:35939   */\n      dup5\n        /* \"#utility.yul\":35925:35928   */\n      dup10\n        /* \"#utility.yul\":35921:35940   */\n      add\n        /* \"#utility.yul\":35915:35941   */\n      mload\n        /* \"#utility.yul\":35907:35913   */\n      dup3\n        /* \"#utility.yul\":35900:35942   */\n      sstore\n        /* \"#utility.yul\":35981:35982   */\n      0x01\n        /* \"#utility.yul\":35973:35979   */\n      dup3\n        /* \"#utility.yul\":35969:35983   */\n      add\n        /* \"#utility.yul\":35959:35983   */\n      swap2\n      pop\n        /* \"#utility.yul\":36028:36030   */\n      0x20\n        /* \"#utility.yul\":36017:36026   */\n      dup6\n        /* \"#utility.yul\":36013:36031   */\n      add\n        /* \"#utility.yul\":36000:36031   */\n      swap5\n      pop\n        /* \"#utility.yul\":35874:35878   */\n      0x20\n        /* \"#utility.yul\":35871:35872   */\n      dup2\n        /* \"#utility.yul\":35867:35879   */\n      add\n        /* \"#utility.yul\":35862:35879   */\n      swap1\n      pop\n        /* \"#utility.yul\":35837:36045   */\n      jump(tag_713)\n    tag_715:\n        /* \"#utility.yul\":36073:36079   */\n      dup7\n        /* \"#utility.yul\":36064:36071   */\n      dup4\n        /* \"#utility.yul\":36061:36080   */\n      lt\n        /* \"#utility.yul\":36058:36237   */\n      iszero\n      tag_716\n      jumpi\n        /* \"#utility.yul\":36131:36140   */\n      dup5\n        /* \"#utility.yul\":36126:36129   */\n      dup10\n        /* \"#utility.yul\":36122:36141   */\n      add\n        /* \"#utility.yul\":36116:36142   */\n      mload\n        /* \"#utility.yul\":36174:36222   */\n      tag_717\n        /* \"#utility.yul\":36216:36220   */\n      0x1f\n        /* \"#utility.yul\":36208:36214   */\n      dup10\n        /* \"#utility.yul\":36204:36221   */\n      and\n        /* \"#utility.yul\":36193:36202   */\n      dup3\n        /* \"#utility.yul\":36174:36222   */\n      tag_366\n      jump\t// in\n    tag_717:\n        /* \"#utility.yul\":36166:36172   */\n      dup4\n        /* \"#utility.yul\":36159:36223   */\n      sstore\n        /* \"#utility.yul\":36081:36237   */\n      pop\n        /* \"#utility.yul\":36058:36237   */\n    tag_716:\n        /* \"#utility.yul\":36283:36284   */\n      0x01\n        /* \"#utility.yul\":36279:36280   */\n      0x02\n        /* \"#utility.yul\":36271:36277   */\n      dup9\n        /* \"#utility.yul\":36267:36281   */\n      mul\n        /* \"#utility.yul\":36263:36285   */\n      add\n        /* \"#utility.yul\":36257:36261   */\n      dup9\n        /* \"#utility.yul\":36250:36286   */\n      sstore\n        /* \"#utility.yul\":35685:36296   */\n      pop\n      pop\n      pop\n        /* \"#utility.yul\":35648:36535   */\n    tag_708:\n      pop\n        /* \"#utility.yul\":35238:36541   */\n      pop\n      pop\n      pop\n        /* \"#utility.yul\":35146:36541   */\n      pop\n      pop\n      jump\t// out\n        /* \"#utility.yul\":36547:36924   */\n    tag_368:\n        /* \"#utility.yul\":36635:36638   */\n      0x00\n        /* \"#utility.yul\":36663:36702   */\n      tag_719\n        /* \"#utility.yul\":36696:36701   */\n      dup3\n        /* \"#utility.yul\":36663:36702   */\n      tag_293\n      jump\t// in\n    tag_719:\n        /* \"#utility.yul\":36718:36789   */\n      tag_720\n        /* \"#utility.yul\":36782:36788   */\n      dup2\n        /* \"#utility.yul\":36777:36780   */\n      dup6\n        /* \"#utility.yul\":36718:36789   */\n      tag_338\n      jump\t// in\n    tag_720:\n        /* \"#utility.yul\":36711:36789   */\n      swap4\n      pop\n        /* \"#utility.yul\":36798:36863   */\n      tag_721\n        /* \"#utility.yul\":36856:36862   */\n      dup2\n        /* \"#utility.yul\":36851:36854   */\n      dup6\n        /* \"#utility.yul\":36844:36848   */\n      0x20\n        /* \"#utility.yul\":36837:36842   */\n      dup7\n        /* \"#utility.yul\":36833:36849   */\n      add\n        /* \"#utility.yul\":36798:36863   */\n      tag_295\n      jump\t// in\n    tag_721:\n        /* \"#utility.yul\":36888:36917   */\n      tag_722\n        /* \"#utility.yul\":36910:36916   */\n      dup2\n        /* \"#utility.yul\":36888:36917   */\n      tag_296\n      jump\t// in\n    tag_722:\n        /* \"#utility.yul\":36883:36886   */\n      dup5\n        /* \"#utility.yul\":36879:36918   */\n      add\n        /* \"#utility.yul\":36872:36918   */\n      swap2\n      pop\n        /* \"#utility.yul\":36639:36924   */\n      pop\n        /* \"#utility.yul\":36547:36924   */\n      swap3\n      swap2\n      pop\n      pop\n      jump\t// out\n        /* \"#utility.yul\":36930:37081   */\n    tag_369:\n        /* \"#utility.yul\":37027:37074   */\n      tag_724\n        /* \"#utility.yul\":37068:37073   */\n      dup2\n        /* \"#utility.yul\":37027:37074   */\n      tag_304\n      jump\t// in\n    tag_724:\n        /* \"#utility.yul\":37022:37025   */\n      dup3\n        /* \"#utility.yul\":37015:37075   */\n      mstore\n        /* \"#utility.yul\":36930:37081   */\n      pop\n      pop\n      jump\t// out\n        /* \"#utility.yul\":37087:37530   */\n    tag_164:\n        /* \"#utility.yul\":37238:37242   */\n      0x00\n        /* \"#utility.yul\":37276:37278   */\n      0x40\n        /* \"#utility.yul\":37265:37274   */\n      dup3\n        /* \"#utility.yul\":37261:37279   */\n      add\n        /* \"#utility.yul\":37253:37279   */\n      swap1\n      pop\n        /* \"#utility.yul\":37325:37334   */\n      dup2\n        /* \"#utility.yul\":37319:37323   */\n      dup2\n        /* \"#utility.yul\":37315:37335   */\n      sub\n        /* \"#utility.yul\":37311:37312   */\n      0x00\n        /* \"#utility.yul\":37300:37309   */\n      dup4\n        /* \"#utility.yul\":37296:37313   */\n      add\n        /* \"#utility.yul\":37289:37336   */\n      mstore\n        /* \"#utility.yul\":37353:37431   */\n      tag_726\n        /* \"#utility.yul\":37426:37430   */\n      dup2\n        /* \"#utility.yul\":37417:37423   */\n      dup6\n        /* \"#utility.yul\":37353:37431   */\n      tag_368\n      jump\t// in\n    tag_726:\n        /* \"#utility.yul\":37345:37431   */\n      swap1\n      pop\n        /* \"#utility.yul\":37441:37523   */\n      tag_727\n        /* \"#utility.yul\":37519:37521   */\n      0x20\n        /* \"#utility.yul\":37508:37517   */\n      dup4\n        /* \"#utility.yul\":37504:37522   */\n      add\n        /* \"#utility.yul\":37495:37501   */\n      dup5\n        /* \"#utility.yul\":37441:37523   */\n      tag_369\n      jump\t// in\n    tag_727:\n        /* \"#utility.yul\":37087:37530   */\n      swap4\n      swap3\n      pop\n      pop\n      pop\n      jump\t// out\n        /* \"#utility.yul\":37536:37700   */\n    tag_370:\n        /* \"#utility.yul\":37676:37692   */\n      0x4e6f7420617574686f72697a6564000000000000000000000000000000000000\n        /* \"#utility.yul\":37672:37673   */\n      0x00\n        /* \"#utility.yul\":37664:37670   */\n      dup3\n        /* \"#utility.yul\":37660:37674   */\n      add\n        /* \"#utility.yul\":37653:37693   */\n      mstore\n        /* \"#utility.yul\":37536:37700   */\n      pop\n      jump\t// out\n        /* \"#utility.yul\":37706:38072   */\n    tag_371:\n        /* \"#utility.yul\":37848:37851   */\n      0x00\n        /* \"#utility.yul\":37869:37936   */\n      tag_730\n        /* \"#utility.yul\":37933:37935   */\n      0x0e\n        /* \"#utility.yul\":37928:37931   */\n      dup4\n        /* \"#utility.yul\":37869:37936   */\n      tag_338\n      jump\t// in\n    tag_730:\n        /* \"#utility.yul\":37862:37936   */\n      swap2\n      pop\n        /* \"#utility.yul\":37945:38038   */\n      tag_731\n        /* \"#utility.yul\":38034:38037   */\n      dup3\n        /* \"#utility.yul\":37945:38038   */\n      tag_370\n      jump\t// in\n    tag_731:\n        /* \"#utility.yul\":38063:38065   */\n      0x20\n        /* \"#utility.yul\":38058:38061   */\n      dup3\n        /* \"#utility.yul\":38054:38066   */\n      add\n        /* \"#utility.yul\":38047:38066   */\n      swap1\n      pop\n        /* \"#utility.yul\":37706:38072   */\n      swap2\n      swap1\n      pop\n      jump\t// out\n        /* \"#utility.yul\":38078:38497   */\n    tag_171:\n        /* \"#utility.yul\":38244:38248   */\n      0x00\n        /* \"#utility.yul\":38282:38284   */\n      0x20\n        /* \"#utility.yul\":38271:38280   */\n      dup3\n        /* \"#utility.yul\":38267:38285   */\n      add\n        /* \"#utility.yul\":38259:38285   */\n      swap1\n      pop\n        /* \"#utility.yul\":38331:38340   */\n      dup2\n        /* \"#utility.yul\":38325:38329   */\n      dup2\n        /* \"#utility.yul\":38321:38341   */\n      sub\n        /* \"#utility.yul\":38317:38318   */\n      0x00\n        /* \"#utility.yul\":38306:38315   */\n      dup4\n        /* \"#utility.yul\":38302:38319   */\n      add\n        /* \"#utility.yul\":38295:38342   */\n      mstore\n        /* \"#utility.yul\":38359:38490   */\n      tag_733\n        /* \"#utility.yul\":38485:38489   */\n      dup2\n        /* \"#utility.yul\":38359:38490   */\n      tag_371\n      jump\t// in\n    tag_733:\n        /* \"#utility.yul\":38351:38490   */\n      swap1\n      pop\n        /* \"#utility.yul\":38078:38497   */\n      swap2\n      swap1\n      pop\n      jump\t// out\n        /* \"#utility.yul\":38503:38926   */\n    tag_200:\n        /* \"#utility.yul\":38644:38648   */\n      0x00\n        /* \"#utility.yul\":38682:38684   */\n      0x40\n        /* \"#utility.yul\":38671:38680   */\n      dup3\n        /* \"#utility.yul\":38667:38685   */\n      add\n        /* \"#utility.yul\":38659:38685   */\n      swap1\n      pop\n        /* \"#utility.yul\":38731:38740   */\n      dup2\n        /* \"#utility.yul\":38725:38729   */\n      dup2\n        /* \"#utility.yul\":38721:38741   */\n      sub\n        /* \"#utility.yul\":38717:38718   */\n      0x00\n        /* \"#utility.yul\":38706:38715   */\n      dup4\n        /* \"#utility.yul\":38702:38719   */\n      add\n        /* \"#utility.yul\":38695:38742   */\n      mstore\n        /* \"#utility.yul\":38759:38837   */\n      tag_735\n        /* \"#utility.yul\":38832:38836   */\n      dup2\n        /* \"#utility.yul\":38823:38829   */\n      dup6\n        /* \"#utility.yul\":38759:38837   */\n      tag_368\n      jump\t// in\n    tag_735:\n        /* \"#utility.yul\":38751:38837   */\n      swap1\n      pop\n        /* \"#utility.yul\":38847:38919   */\n      tag_736\n        /* \"#utility.yul\":38915:38917   */\n      0x20\n        /* \"#utility.yul\":38904:38913   */\n      dup4\n        /* \"#utility.yul\":38900:38918   */\n      add\n        /* \"#utility.yul\":38891:38897   */\n      dup5\n        /* \"#utility.yul\":38847:38919   */\n      tag_309\n      jump\t// in\n    tag_736:\n        /* \"#utility.yul\":38503:38926   */\n      swap4\n      swap3\n      pop\n      pop\n      pop\n      jump\t// out\n        /* \"#utility.yul\":38932:39104   */\n    tag_372:\n        /* \"#utility.yul\":39072:39096   */\n      0x4e6f2061637469766520616363657373206772616e7400000000000000000000\n        /* \"#utility.yul\":39068:39069   */\n      0x00\n        /* \"#utility.yul\":39060:39066   */\n      dup3\n        /* \"#utility.yul\":39056:39070   */\n      add\n        /* \"#utility.yul\":39049:39097   */\n      mstore\n        /* \"#utility.yul\":38932:39104   */\n      pop\n      jump\t// out\n        /* \"#utility.yul\":39110:39476   */\n    tag_373:\n        /* \"#utility.yul\":39252:39255   */\n      0x00\n        /* \"#utility.yul\":39273:39340   */\n      tag_739\n        /* \"#utility.yul\":39337:39339   */\n      0x16\n        /* \"#utility.yul\":39332:39335   */\n      dup4\n        /* \"#utility.yul\":39273:39340   */\n      tag_338\n      jump\t// in\n    tag_739:\n        /* \"#utility.yul\":39266:39340   */\n      swap2\n      pop\n        /* \"#utility.yul\":39349:39442   */\n      tag_740\n        /* \"#utility.yul\":39438:39441   */\n      dup3\n        /* \"#utility.yul\":39349:39442   */\n      tag_372\n      jump\t// in\n    tag_740:\n        /* \"#utility.yul\":39467:39469   */\n      0x20\n        /* \"#utility.yul\":39462:39465   */\n      dup3\n        /* \"#utility.yul\":39458:39470   */\n      add\n        /* \"#utility.yul\":39451:39470   */\n      swap1\n      pop\n        /* \"#utility.yul\":39110:39476   */\n      swap2\n      swap1\n      pop\n      jump\t// out\n        /* \"#utility.yul\":39482:39901   */\n    tag_218:\n        /* \"#utility.yul\":39648:39652   */\n      0x00\n        /* \"#utility.yul\":39686:39688   */\n      0x20\n        /* \"#utility.yul\":39675:39684   */\n      dup3\n        /* \"#utility.yul\":39671:39689   */\n      add\n        /* \"#utility.yul\":39663:39689   */\n      swap1\n      pop\n        /* \"#utility.yul\":39735:39744   */\n      dup2\n        /* \"#utility.yul\":39729:39733   */\n      dup2\n        /* \"#utility.yul\":39725:39745   */\n      sub\n        /* \"#utility.yul\":39721:39722   */\n      0x00\n        /* \"#utility.yul\":39710:39719   */\n      dup4\n        /* \"#utility.yul\":39706:39723   */\n      add\n        /* \"#utility.yul\":39699:39746   */\n      mstore\n        /* \"#utility.yul\":39763:39894   */\n      tag_742\n        /* \"#utility.yul\":39889:39893   */\n      dup2\n        /* \"#utility.yul\":39763:39894   */\n      tag_373\n      jump\t// in\n    tag_742:\n        /* \"#utility.yul\":39755:39894   */\n      swap1\n      pop\n        /* \"#utility.yul\":39482:39901   */\n      swap2\n      swap1\n      pop\n      jump\t// out\n        /* \"#utility.yul\":39907:40072   */\n    tag_374:\n        /* \"#utility.yul\":40047:40064   */\n      0x496e76616c696420616464726573730000000000000000000000000000000000\n        /* \"#utility.yul\":40043:40044   */\n      0x00\n        /* \"#utility.yul\":40035:40041   */\n      dup3\n        /* \"#utility.yul\":40031:40045   */\n      add\n        /* \"#utility.yul\":40024:40065   */\n      mstore\n        /* \"#utility.yul\":39907:40072   */\n      pop\n      jump\t// out\n        /* \"#utility.yul\":40078:40444   */\n    tag_375:\n        /* \"#utility.yul\":40220:40223   */\n      0x00\n        /* \"#utility.yul\":40241:40308   */\n      tag_745\n        /* \"#utility.yul\":40305:40307   */\n      0x0f\n        /* \"#utility.yul\":40300:40303   */\n      dup4\n        /* \"#utility.yul\":40241:40308   */\n      tag_338\n      jump\t// in\n    tag_745:\n        /* \"#utility.yul\":40234:40308   */\n      swap2\n      pop\n        /* \"#utility.yul\":40317:40410   */\n      tag_746\n        /* \"#utility.yul\":40406:40409   */\n      dup3\n        /* \"#utility.yul\":40317:40410   */\n      tag_374\n      jump\t// in\n    tag_746:\n        /* \"#utility.yul\":40435:40437   */\n      0x20\n        /* \"#utility.yul\":40430:40433   */\n      dup3\n        /* \"#utility.yul\":40426:40438   */\n      add\n        /* \"#utility.yul\":40419:40438   */\n      swap1\n      pop\n        /* \"#utility.yul\":40078:40444   */\n      swap2\n      swap1\n      pop\n      jump\t// out\n        /* \"#utility.yul\":40450:40869   */\n    tag_230:\n        /* \"#utility.yul\":40616:40620   */\n      0x00\n        /* \"#utility.yul\":40654:40656   */\n      0x20\n        /* \"#utility.yul\":40643:40652   */\n      dup3\n        /* \"#utility.yul\":40639:40657   */\n      add\n        /* \"#utility.yul\":40631:40657   */\n      swap1\n      pop\n        /* \"#utility.yul\":40703:40712   */\n      dup2\n        /* \"#utility.yul\":40697:40701   */\n      dup2\n        /* \"#utility.yul\":40693:40713   */\n      sub\n        /* \"#utility.yul\":40689:40690   */\n      0x00\n        /* \"#utility.yul\":40678:40687   */\n      dup4\n        /* \"#utility.yul\":40674:40691   */\n      add\n        /* \"#utility.yul\":40667:40714   */\n      mstore\n        /* \"#utility.yul\":40731:40862   */\n      tag_748\n        /* \"#utility.yul\":40857:40861   */\n      dup2\n        /* \"#utility.yul\":40731:40862   */\n      tag_375\n      jump\t// in\n    tag_748:\n        /* \"#utility.yul\":40723:40862   */\n      swap1\n      pop\n        /* \"#utility.yul\":40450:40869   */\n      swap2\n      swap1\n      pop\n      jump\t// out\n        /* \"#utility.yul\":40875:41102   */\n    tag_376:\n        /* \"#utility.yul\":41015:41049   */\n      0x4d757374206772616e742061636365737320746f206174206c65617374206f6e\n        /* \"#utility.yul\":41011:41012   */\n      0x00\n        /* \"#utility.yul\":41003:41009   */\n      dup3\n        /* \"#utility.yul\":40999:41013   */\n      add\n        /* \"#utility.yul\":40992:41050   */\n      mstore\n        /* \"#utility.yul\":41084:41094   */\n      0x65207265636f7264000000000000000000000000000000000000000000000000\n        /* \"#utility.yul\":41079:41081   */\n      0x20\n        /* \"#utility.yul\":41071:41077   */\n      dup3\n        /* \"#utility.yul\":41067:41082   */\n      add\n        /* \"#utility.yul\":41060:41095   */\n      mstore\n        /* \"#utility.yul\":40875:41102   */\n      pop\n      jump\t// out\n        /* \"#utility.yul\":41108:41474   */\n    tag_377:\n        /* \"#utility.yul\":41250:41253   */\n      0x00\n        /* \"#utility.yul\":41271:41338   */\n      tag_751\n        /* \"#utility.yul\":41335:41337   */\n      0x28\n        /* \"#utility.yul\":41330:41333   */\n      dup4\n        /* \"#utility.yul\":41271:41338   */\n      tag_338\n      jump\t// in\n    tag_751:\n        /* \"#utility.yul\":41264:41338   */\n      swap2\n      pop\n        /* \"#utility.yul\":41347:41440   */\n      tag_752\n        /* \"#utility.yul\":41436:41439   */\n      dup3\n        /* \"#utility.yul\":41347:41440   */\n      tag_376\n      jump\t// in\n    tag_752:\n        /* \"#utility.yul\":41465:41467   */\n      0x40\n        /* \"#utility.yul\":41460:41463   */\n      dup3\n        /* \"#utility.yul\":41456:41468   */\n      add\n        /* \"#utility.yul\":41449:41468   */\n      swap1\n      pop\n        /* \"#utility.yul\":41108:41474   */\n      swap2\n      swap1\n      pop\n      jump\t// out\n        /* \"#utility.yul\":41480:41899   */\n    tag_236:\n        /* \"#utility.yul\":41646:41650   */\n      0x00\n        /* \"#utility.yul\":41684:41686   */\n      0x20\n        /* \"#utility.yul\":41673:41682   */\n      dup3\n        /* \"#utility.yul\":41669:41687   */\n      add\n        /* \"#utility.yul\":41661:41687   */\n      swap1\n      pop\n        /* \"#utility.yul\":41733:41742   */\n      dup2\n        /* \"#utility.yul\":41727:41731   */\n      dup2\n        /* \"#utility.yul\":41723:41743   */\n      sub\n        /* \"#utility.yul\":41719:41720   */\n      0x00\n        /* \"#utility.yul\":41708:41717   */\n      dup4\n        /* \"#utility.yul\":41704:41721   */\n      add\n        /* \"#utility.yul\":41697:41744   */\n      mstore\n        /* \"#utility.yul\":41761:41892   */\n      tag_754\n        /* \"#utility.yul\":41887:41891   */\n      dup2\n        /* \"#utility.yul\":41761:41892   */\n      tag_377\n      jump\t// in\n    tag_754:\n        /* \"#utility.yul\":41753:41892   */\n      swap1\n      pop\n        /* \"#utility.yul\":41480:41899   */\n      swap2\n      swap1\n      pop\n      jump\t// out\n        /* \"#utility.yul\":41905:42085   */\n    tag_242:\n        /* \"#utility.yul\":41953:42030   */\n      0x4e487b7100000000000000000000000000000000000000000000000000000000\n        /* \"#utility.yul\":41950:41951   */\n      0x00\n        /* \"#utility.yul\":41943:42031   */\n      mstore\n        /* \"#utility.yul\":42050:42054   */\n      0x32\n        /* \"#utility.yul\":42047:42048   */\n      0x04\n        /* \"#utility.yul\":42040:42055   */\n      mstore\n        /* \"#utility.yul\":42074:42078   */\n      0x24\n        /* \"#utility.yul\":42071:42072   */\n      0x00\n        /* \"#utility.yul\":42064:42079   */\n      revert\n        /* \"#utility.yul\":42091:42313   */\n    tag_378:\n        /* \"#utility.yul\":42231:42265   */\n      0x596f7520646f6e2774206f776e20616c6c20737065636966696564207265636f\n        /* \"#utility.yul\":42227:42228   */\n      0x00\n        /* \"#utility.yul\":42219:42225   */\n      dup3\n        /* \"#utility.yul\":42215:42229   */\n      add\n        /* \"#utility.yul\":42208:42266   */\n      mstore\n        /* \"#utility.yul\":42300:42305   */\n      0x7264730000000000000000000000000000000000000000000000000000000000\n        /* \"#utility.yul\":42295:42297   */\n      0x20\n        /* \"#utility.yul\":42287:42293   */\n      dup3\n        /* \"#utility.yul\":42283:42298   */\n      add\n        /* \"#utility.yul\":42276:42306   */\n      mstore\n        /* \"#utility.yul\":42091:42313   */\n      pop\n      jump\t// out\n        /* \"#utility.yul\":42319:42685   */\n    tag_379:\n        /* \"#utility.yul\":42461:42464   */\n      0x00\n        /* \"#utility.yul\":42482:42549   */\n      tag_758\n        /* \"#utility.yul\":42546:42548   */\n      0x23\n        /* \"#utility.yul\":42541:42544   */\n      dup4\n        /* \"#utility.yul\":42482:42549   */\n      tag_338\n      jump\t// in\n    tag_758:\n        /* \"#utility.yul\":42475:42549   */\n      swap2\n      pop\n        /* \"#utility.yul\":42558:42651   */\n      tag_759\n        /* \"#utility.yul\":42647:42650   */\n      dup3\n        /* \"#utility.yul\":42558:42651   */\n      tag_378\n      jump\t// in\n    tag_759:\n        /* \"#utility.yul\":42676:42678   */\n      0x40\n        /* \"#utility.yul\":42671:42674   */\n      dup3\n        /* \"#utility.yul\":42667:42679   */\n      add\n        /* \"#utility.yul\":42660:42679   */\n      swap1\n      pop\n        /* \"#utility.yul\":42319:42685   */\n      swap2\n      swap1\n      pop\n      jump\t// out\n        /* \"#utility.yul\":42691:43110   */\n    tag_245:\n        /* \"#utility.yul\":42857:42861   */\n      0x00\n        /* \"#utility.yul\":42895:42897   */\n      0x20\n        /* \"#utility.yul\":42884:42893   */\n      dup3\n        /* \"#utility.yul\":42880:42898   */\n      add\n        /* \"#utility.yul\":42872:42898   */\n      swap1\n      pop\n        /* \"#utility.yul\":42944:42953   */\n      dup2\n        /* \"#utility.yul\":42938:42942   */\n      dup2\n        /* \"#utility.yul\":42934:42954   */\n      sub\n        /* \"#utility.yul\":42930:42931   */\n      0x00\n        /* \"#utility.yul\":42919:42928   */\n      dup4\n        /* \"#utility.yul\":42915:42932   */\n      add\n        /* \"#utility.yul\":42908:42955   */\n      mstore\n        /* \"#utility.yul\":42972:43103   */\n      tag_761\n        /* \"#utility.yul\":43098:43102   */\n      dup2\n        /* \"#utility.yul\":42972:43103   */\n      tag_379\n      jump\t// in\n    tag_761:\n        /* \"#utility.yul\":42964:43103   */\n      swap1\n      pop\n        /* \"#utility.yul\":42691:43110   */\n      swap2\n      swap1\n      pop\n      jump\t// out\n        /* \"#utility.yul\":43116:43526   */\n    tag_247:\n        /* \"#utility.yul\":43156:43163   */\n      0x00\n        /* \"#utility.yul\":43179:43199   */\n      tag_763\n        /* \"#utility.yul\":43197:43198   */\n      dup3\n        /* \"#utility.yul\":43179:43199   */\n      tag_283\n      jump\t// in\n    tag_763:\n        /* \"#utility.yul\":43174:43199   */\n      swap2\n      pop\n        /* \"#utility.yul\":43213:43233   */\n      tag_764\n        /* \"#utility.yul\":43231:43232   */\n      dup4\n        /* \"#utility.yul\":43213:43233   */\n      tag_283\n      jump\t// in\n    tag_764:\n        /* \"#utility.yul\":43208:43233   */\n      swap3\n      pop\n        /* \"#utility.yul\":43268:43269   */\n      dup3\n        /* \"#utility.yul\":43265:43266   */\n      dup3\n        /* \"#utility.yul\":43261:43270   */\n      mul\n        /* \"#utility.yul\":43290:43320   */\n      tag_765\n        /* \"#utility.yul\":43308:43319   */\n      dup2\n        /* \"#utility.yul\":43290:43320   */\n      tag_283\n      jump\t// in\n    tag_765:\n        /* \"#utility.yul\":43279:43320   */\n      swap2\n      pop\n        /* \"#utility.yul\":43469:43470   */\n      dup3\n        /* \"#utility.yul\":43460:43467   */\n      dup3\n        /* \"#utility.yul\":43456:43471   */\n      div\n        /* \"#utility.yul\":43453:43454   */\n      dup5\n        /* \"#utility.yul\":43450:43472   */\n      eq\n        /* \"#utility.yul\":43430:43431   */\n      dup4\n        /* \"#utility.yul\":43423:43432   */\n      iszero\n        /* \"#utility.yul\":43403:43486   */\n      or\n        /* \"#utility.yul\":43380:43519   */\n      tag_766\n      jumpi\n        /* \"#utility.yul\":43499:43517   */\n      tag_767\n      tag_352\n      jump\t// in\n    tag_767:\n        /* \"#utility.yul\":43380:43519   */\n    tag_766:\n        /* \"#utility.yul\":43164:43526   */\n      pop\n        /* \"#utility.yul\":43116:43526   */\n      swap3\n      swap2\n      pop\n      pop\n      jump\t// out\n        /* \"#utility.yul\":43532:43723   */\n    tag_249:\n        /* \"#utility.yul\":43572:43575   */\n      0x00\n        /* \"#utility.yul\":43591:43611   */\n      tag_769\n        /* \"#utility.yul\":43609:43610   */\n      dup3\n        /* \"#utility.yul\":43591:43611   */\n      tag_283\n      jump\t// in\n    tag_769:\n        /* \"#utility.yul\":43586:43611   */\n      swap2\n      pop\n        /* \"#utility.yul\":43625:43645   */\n      tag_770\n        /* \"#utility.yul\":43643:43644   */\n      dup4\n        /* \"#utility.yul\":43625:43645   */\n      tag_283\n      jump\t// in\n    tag_770:\n        /* \"#utility.yul\":43620:43645   */\n      swap3\n      pop\n        /* \"#utility.yul\":43668:43669   */\n      dup3\n        /* \"#utility.yul\":43665:43666   */\n      dup3\n        /* \"#utility.yul\":43661:43670   */\n      add\n        /* \"#utility.yul\":43654:43670   */\n      swap1\n      pop\n        /* \"#utility.yul\":43689:43692   */\n      dup1\n        /* \"#utility.yul\":43686:43687   */\n      dup3\n        /* \"#utility.yul\":43683:43693   */\n      gt\n        /* \"#utility.yul\":43680:43716   */\n      iszero\n      tag_771\n      jumpi\n        /* \"#utility.yul\":43696:43714   */\n      tag_772\n      tag_352\n      jump\t// in\n    tag_772:\n        /* \"#utility.yul\":43680:43716   */\n    tag_771:\n        /* \"#utility.yul\":43532:43723   */\n      swap3\n      swap2\n      pop\n      pop\n      jump\t// out\n\n    auxdata: 0xa2646970667358221220751cff47dc727ee8d291542b59237e0ee2510eb94afed16122eadb1722ea339764736f6c634300081e0033\n}\n",
				"bytecode": {
					"linkReferences": {},
					"object": "6080604052348015600f57600080fd5b50613ad88061001f6000396000f3fe608060405234801561001057600080fd5b50600436106100f55760003560e01c80633812c6a81161009757806391284a891161006657806391284a89146102a85780639399e973146102c4578063b4b07a70146102e0578063cf56b4eb14610310576100f5565b80633812c6a81461022457806367502cdf1461024057806385e685311461025c5780638b681c7c14610278576100f5565b80630aeacb5e116100d35780630aeacb5e146101765780630e8dce291461019457806318bd4847146101c45780631b6377b8146101f4576100f5565b806301b1d324146100fa57806303e9e6091461012a578063061f98111461015a575b600080fd5b610114600480360381019061010f919061250e565b610340565b604051610121919061272d565b60405180910390f35b610144600480360381019061013f919061250e565b61054a565b60405161015191906128ad565b60405180910390f35b610174600480360381019061016f919061250e565b6108f4565b005b61017e610a82565b60405161018b91906128de565b60405180910390f35b6101ae60048036038101906101a99190612a7f565b610a8c565b6040516101bb91906128de565b60405180910390f35b6101de60048036038101906101d99190612b1e565b610de4565b6040516101eb9190612bfa565b60405180910390f35b61020e60048036038101906102099190612c1c565b610ef9565b60405161021b91906128de565b60405180910390f35b61023e60048036038101906102399190612ca7565b6111e1565b005b61025a60048036038101906102559190612d32565b6113d6565b005b61027660048036038101906102719190612b1e565b611637565b005b610292600480360381019061028d9190612d8e565b6117f8565b60405161029f9190612eb3565b60405180910390f35b6102c260048036038101906102bd9190612b1e565b611a10565b005b6102de60048036038101906102d99190612f9d565b611b00565b005b6102fa60048036038101906102f59190612b1e565b611e6b565b604051610307919061301b565b60405180910390f35b61032a60048036038101906103259190613036565b611e9e565b6040516103379190613098565b60405180910390f35b6060813373ffffffffffffffffffffffffffffffffffffffff166001600083815260200190815260200160002060010160009054906101000a900473ffffffffffffffffffffffffffffffffffffffff1673ffffffffffffffffffffffffffffffffffffffff16146103e7576040517f08c379a00000000000000000000000000000000000000000000000000000000081526004016103de90613136565b60405180910390fd5b60036000848152602001908152602001600020805480602002602001604051908101604052809291908181526020016000905b8282101561053e57838290600052602060002090600302016040518060600160405290816000820160009054906101000a900473ffffffffffffffffffffffffffffffffffffffff1673ffffffffffffffffffffffffffffffffffffffff1673ffffffffffffffffffffffffffffffffffffffff168152602001600182015481526020016002820180546104ad90613185565b80601f01602080910402602001604051908101604052809291908181526020018280546104d990613185565b80156105265780601f106104fb57610100808354040283529160200191610526565b820191906000526020600020905b81548152906001019060200180831161050957829003601f168201915b5050505050815250508152602001906001019061041a565b50505050915050919050565b610552612387565b8160008111801561056557506005548111155b6105a4576040517f08c379a000000000000000000000000000000000000000000000000000000000815260040161059b90613202565b60405180910390fd5b6001600082815260200190815260200160002060050160149054906101000a900460ff16610607576040517f08c379a00000000000000000000000000000000000000000000000000000000081526004016105fe9061326e565b60405180910390fd5b826106496001600083815260200190815260200160002060010160009054906101000a900473ffffffffffffffffffffffffffffffffffffffff163383611e9e565b610688576040517f08c379a000000000000000000000000000000000000000000000000000000000815260040161067f90613300565b60405180910390fd5b6001600085815260200190815260200160002060405180610120016040529081600082015481526020016001820160009054906101000a900473ffffffffffffffffffffffffffffffffffffffff1673ffffffffffffffffffffffffffffffffffffffff1673ffffffffffffffffffffffffffffffffffffffff16815260200160028201805461071790613185565b80601f016020809104026020016040519081016040528092919081815260200182805461074390613185565b80156107905780601f1061076557610100808354040283529160200191610790565b820191906000526020600020905b81548152906001019060200180831161077357829003601f168201915b505050505081526020016003820160009054906101000a900460ff1660058111156107be576107bd61274f565b5b60058111156107d0576107cf61274f565b5b8152602001600482015481526020016005820160009054906101000a900473ffffffffffffffffffffffffffffffffffffffff1673ffffffffffffffffffffffffffffffffffffffff1673ffffffffffffffffffffffffffffffffffffffff1681526020016005820160149054906101000a900460ff1615151515815260200160068201805461085f90613185565b80601f016020809104026020016040519081016040528092919081815260200182805461088b90613185565b80156108d85780601f106108ad576101008083540402835291602001916108d8565b820191906000526020600020905b8154815290600101906020018083116108bb57829003601f168201915b5050505050815260200160078201548152505092505050919050565b803373ffffffffffffffffffffffffffffffffffffffff166001600083815260200190815260200160002060010160009054906101000a900473ffffffffffffffffffffffffffffffffffffffff1673ffffffffffffffffffffffffffffffffffffffff1614610999576040517f08c379a000000000000000000000000000000000000000000000000000000000815260040161099090613136565b60405180910390fd5b816000811180156109ac57506005548111155b6109eb576040517f08c379a00000000000000000000000000000000000000000000000000000000081526004016109e290613202565b60405180910390fd5b6001600082815260200190815260200160002060050160149054906101000a900460ff16610a4e576040517f08c379a0000000000000000000000000000000000000000000000000000000008152600401610a459061326e565b60405180910390fd5b60006001600085815260200190815260200160002060050160146101000a81548160ff021916908315150217905550505050565b6000600554905090565b60008073ffffffffffffffffffffffffffffffffffffffff168573ffffffffffffffffffffffffffffffffffffffff1603610afc576040517f08c379a0000000000000000000000000000000000000000000000000000000008152600401610af39061336c565b60405180910390fd5b6000845111610b40576040517f08c379a0000000000000000000000000000000000000000000000000000000008152600401610b37906133d8565b60405180910390fd5b60056000815480929190610b5390613427565b919050555060405180610120016040528060055481526020018673ffffffffffffffffffffffffffffffffffffffff168152602001858152602001846005811115610ba157610ba061274f565b5b81526020014281526020013373ffffffffffffffffffffffffffffffffffffffff16815260200160011515815260200183815260200160018152506001600060055481526020019081526020016000206000820151816000015560208201518160010160006101000a81548173ffffffffffffffffffffffffffffffffffffffff021916908373ffffffffffffffffffffffffffffffffffffffff1602179055506040820151816002019081610c57919061361b565b5060608201518160030160006101000a81548160ff02191690836005811115610c8357610c8261274f565b5b02179055506080820151816004015560a08201518160050160006101000a81548173ffffffffffffffffffffffffffffffffffffffff021916908373ffffffffffffffffffffffffffffffffffffffff16021790555060c08201518160050160146101000a81548160ff02191690831515021790555060e0820151816006019081610d0e919061361b565b5061010082015181600701559050506000808673ffffffffffffffffffffffffffffffffffffffff1673ffffffffffffffffffffffffffffffffffffffff16815260200190815260200160002060055490806001815401808255809150506001900390600052602060002001600090919091909150558473ffffffffffffffffffffffffffffffffffffffff166005547f32b3188b62628aabf659cebbab10a599b539bcb0c01a891ab2e37b8be315712e8686604051610dcf929190613735565b60405180910390a36005549050949350505050565b60608173ffffffffffffffffffffffffffffffffffffffff163373ffffffffffffffffffffffffffffffffffffffff161480610e265750610e258233612163565b5b610e65576040517f08c379a0000000000000000000000000000000000000000000000000000000008152600401610e5c906137b1565b60405180910390fd5b6000808373ffffffffffffffffffffffffffffffffffffffff1673ffffffffffffffffffffffffffffffffffffffff168152602001908152602001600020805480602002602001604051908101604052809291908181526020018280548015610eed57602002820191906000526020600020905b815481526020019060010190808311610ed9575b50505050509050919050565b600080845111610f3e576040517f08c379a0000000000000000000000000000000000000000000000000000000008152600401610f35906133d8565b60405180910390fd5b60056000815480929190610f5190613427565b919050555060405180610120016040528060055481526020013373ffffffffffffffffffffffffffffffffffffffff168152602001858152602001846005811115610f9f57610f9e61274f565b5b81526020014281526020013373ffffffffffffffffffffffffffffffffffffffff16815260200160011515815260200183815260200160018152506001600060055481526020019081526020016000206000820151816000015560208201518160010160006101000a81548173ffffffffffffffffffffffffffffffffffffffff021916908373ffffffffffffffffffffffffffffffffffffffff1602179055506040820151816002019081611055919061361b565b5060608201518160030160006101000a81548160ff021916908360058111156110815761108061274f565b5b02179055506080820151816004015560a08201518160050160006101000a81548173ffffffffffffffffffffffffffffffffffffffff021916908373ffffffffffffffffffffffffffffffffffffffff16021790555060c08201518160050160146101000a81548160ff02191690831515021790555060e082015181600601908161110c919061361b565b5061010082015181600701559050506000803373ffffffffffffffffffffffffffffffffffffffff1673ffffffffffffffffffffffffffffffffffffffff16815260200190815260200160002060055490806001815401808255809150506001900390600052602060002001600090919091909150553373ffffffffffffffffffffffffffffffffffffffff166005547f32b3188b62628aabf659cebbab10a599b539bcb0c01a891ab2e37b8be315712e86866040516111cd929190613735565b60405180910390a360055490509392505050565b823373ffffffffffffffffffffffffffffffffffffffff166001600083815260200190815260200160002060010160009054906101000a900473ffffffffffffffffffffffffffffffffffffffff1673ffffffffffffffffffffffffffffffffffffffff1614611286576040517f08c379a000000000000000000000000000000000000000000000000000000000815260040161127d90613136565b60405180910390fd5b8360008111801561129957506005548111155b6112d8576040517f08c379a00000000000000000000000000000000000000000000000000000000081526004016112cf90613202565b60405180910390fd5b6001600082815260200190815260200160002060050160149054906101000a900460ff1661133b576040517f08c379a00000000000000000000000000000000000000000000000000000000081526004016113329061326e565b60405180910390fd5b600060016000878152602001908152602001600020905084816002019081611363919061361b565b5083816006019081611375919061361b565b5080600701600081548092919061138b90613427565b9190505550857f088d9e16504277bf999412471e756eedf1ab2491c6a6399c9d349d3fea6d70cf8683600701546040516113c69291906137d1565b60405180910390a2505050505050565b816000811180156113e957506005548111155b611428576040517f08c379a000000000000000000000000000000000000000000000000000000000815260040161141f90613202565b60405180910390fd5b6001600082815260200190815260200160002060050160149054906101000a900460ff1661148b576040517f08c379a00000000000000000000000000000000000000000000000000000000081526004016114829061326e565b60405180910390fd5b826114cd6001600083815260200190815260200160002060010160009054906101000a900473ffffffffffffffffffffffffffffffffffffffff163383611e9e565b61150c576040517f08c379a000000000000000000000000000000000000000000000000000000000815260040161150390613300565b60405180910390fd5b6003600085815260200190815260200160002060405180606001604052803373ffffffffffffffffffffffffffffffffffffffff16815260200142815260200185815250908060018154018082558091505060019003906000526020600020906003020160009091909190915060008201518160000160006101000a81548173ffffffffffffffffffffffffffffffffffffffff021916908373ffffffffffffffffffffffffffffffffffffffff1602179055506020820151816001015560408201518160020190816115df919061361b565b5050503373ffffffffffffffffffffffffffffffffffffffff16847fdec39eb35dc9ca96737e4515f8a70f5db122e248213ee947b996e1f678ab05b84260405161162991906128de565b60405180910390a350505050565b600260003373ffffffffffffffffffffffffffffffffffffffff1673ffffffffffffffffffffffffffffffffffffffff16815260200190815260200160002060008273ffffffffffffffffffffffffffffffffffffffff1673ffffffffffffffffffffffffffffffffffffffff16815260200190815260200160002060030160009054906101000a900460ff16611703576040517f08c379a00000000000000000000000000000000000000000000000000000000081526004016116fa9061384d565b60405180910390fd5b6000600260003373ffffffffffffffffffffffffffffffffffffffff1673ffffffffffffffffffffffffffffffffffffffff16815260200190815260200160002060008373ffffffffffffffffffffffffffffffffffffffff1673ffffffffffffffffffffffffffffffffffffffff16815260200190815260200160002060030160006101000a81548160ff0219169083151502179055508073ffffffffffffffffffffffffffffffffffffffff163373ffffffffffffffffffffffffffffffffffffffff167f825c8be24eb0df19500f63e86c29e7d0d951e73056b889b891d85e40938d9b6e60405160405180910390a350565b611800612413565b8273ffffffffffffffffffffffffffffffffffffffff163373ffffffffffffffffffffffffffffffffffffffff16148061186557508173ffffffffffffffffffffffffffffffffffffffff163373ffffffffffffffffffffffffffffffffffffffff16145b6118a4576040517f08c379a000000000000000000000000000000000000000000000000000000000815260040161189b906137b1565b60405180910390fd5b600260008473ffffffffffffffffffffffffffffffffffffffff1673ffffffffffffffffffffffffffffffffffffffff16815260200190815260200160002060008373ffffffffffffffffffffffffffffffffffffffff1673ffffffffffffffffffffffffffffffffffffffff1681526020019081526020016000206040518060a00160405290816000820160009054906101000a900473ffffffffffffffffffffffffffffffffffffffff1673ffffffffffffffffffffffffffffffffffffffff1673ffffffffffffffffffffffffffffffffffffffff168152602001600182018054806020026020016040519081016040528092919081815260200182805480156119d057602002820191906000526020600020905b8154815260200190600101908083116119bc575b50505050508152602001600282015481526020016003820160009054906101000a900460ff16151515158152602001600482015481525050905092915050565b600073ffffffffffffffffffffffffffffffffffffffff168173ffffffffffffffffffffffffffffffffffffffff1603611a7f576040517f08c379a0000000000000000000000000000000000000000000000000000000008152600401611a76906138b9565b60405180910390fd5b80600460003373ffffffffffffffffffffffffffffffffffffffff1673ffffffffffffffffffffffffffffffffffffffff16815260200190815260200160002060006101000a81548173ffffffffffffffffffffffffffffffffffffffff021916908373ffffffffffffffffffffffffffffffffffffffff16021790555050565b600073ffffffffffffffffffffffffffffffffffffffff168373ffffffffffffffffffffffffffffffffffffffff1603611b6f576040517f08c379a0000000000000000000000000000000000000000000000000000000008152600401611b66906138b9565b60405180910390fd5b6000825111611bb3576040517f08c379a0000000000000000000000000000000000000000000000000000000008152600401611baa9061394b565b60405180910390fd5b60005b8251811015611c8a573373ffffffffffffffffffffffffffffffffffffffff1660016000858481518110611bed57611bec61396b565b5b6020026020010151815260200190815260200160002060010160009054906101000a900473ffffffffffffffffffffffffffffffffffffffff1673ffffffffffffffffffffffffffffffffffffffff1614611c7d576040517f08c379a0000000000000000000000000000000000000000000000000000000008152600401611c7490613a0c565b60405180910390fd5b8080600101915050611bb6565b5060006201518082611c9c9190613a2c565b42611ca79190613a6e565b90506040518060a001604052808573ffffffffffffffffffffffffffffffffffffffff16815260200184815260200182815260200160011515815260200142815250600260003373ffffffffffffffffffffffffffffffffffffffff1673ffffffffffffffffffffffffffffffffffffffff16815260200190815260200160002060008673ffffffffffffffffffffffffffffffffffffffff1673ffffffffffffffffffffffffffffffffffffffff16815260200190815260200160002060008201518160000160006101000a81548173ffffffffffffffffffffffffffffffffffffffff021916908373ffffffffffffffffffffffffffffffffffffffff1602179055506020820151816001019080519060200190611dc892919061245a565b506040820151816002015560608201518160030160006101000a81548160ff021916908315150217905550608082015181600401559050508373ffffffffffffffffffffffffffffffffffffffff163373ffffffffffffffffffffffffffffffffffffffff167f65d0cc1e52d49938ca4ad9f423c79c1b84d914b9a683fbc5d3f93ac3cc5635f583604051611e5d91906128de565b60405180910390a350505050565b60046020528060005260406000206000915054906101000a900473ffffffffffffffffffffffffffffffffffffffff1681565b60008273ffffffffffffffffffffffffffffffffffffffff168473ffffffffffffffffffffffffffffffffffffffff1603611edc576001905061215c565b8273ffffffffffffffffffffffffffffffffffffffff16600460008673ffffffffffffffffffffffffffffffffffffffff1673ffffffffffffffffffffffffffffffffffffffff16815260200190815260200160002060009054906101000a900473ffffffffffffffffffffffffffffffffffffffff1673ffffffffffffffffffffffffffffffffffffffff1603611f77576001905061215c565b6000600260008673ffffffffffffffffffffffffffffffffffffffff1673ffffffffffffffffffffffffffffffffffffffff16815260200190815260200160002060008573ffffffffffffffffffffffffffffffffffffffff1673ffffffffffffffffffffffffffffffffffffffff1681526020019081526020016000206040518060a00160405290816000820160009054906101000a900473ffffffffffffffffffffffffffffffffffffffff1673ffffffffffffffffffffffffffffffffffffffff1673ffffffffffffffffffffffffffffffffffffffff168152602001600182018054806020026020016040519081016040528092919081815260200182805480156120a557602002820191906000526020600020905b815481526020019060010190808311612091575b50505050508152602001600282015481526020016003820160009054906101000a900460ff16151515158152602001600482015481525050905080606001516120f257600091505061215c565b806040015142111561210857600091505061215c565b60005b8160200151518110156121555783826020015182815181106121305761212f61396b565b5b6020026020010151036121485760019250505061215c565b808060010191505061210b565b5060009150505b9392505050565b60008173ffffffffffffffffffffffffffffffffffffffff16600460008573ffffffffffffffffffffffffffffffffffffffff1673ffffffffffffffffffffffffffffffffffffffff16815260200190815260200160002060009054906101000a900473ffffffffffffffffffffffffffffffffffffffff1673ffffffffffffffffffffffffffffffffffffffff16036122005760019050612381565b6000600260008573ffffffffffffffffffffffffffffffffffffffff1673ffffffffffffffffffffffffffffffffffffffff16815260200190815260200160002060008473ffffffffffffffffffffffffffffffffffffffff1673ffffffffffffffffffffffffffffffffffffffff1681526020019081526020016000206040518060a00160405290816000820160009054906101000a900473ffffffffffffffffffffffffffffffffffffffff1673ffffffffffffffffffffffffffffffffffffffff1673ffffffffffffffffffffffffffffffffffffffff1681526020016001820180548060200260200160405190810160405280929190818152602001828054801561232e57602002820191906000526020600020905b81548152602001906001019080831161231a575b50505050508152602001600282015481526020016003820160009054906101000a900460ff1615151515815260200160048201548152505090508060600151801561237d575080604001514211155b9150505b92915050565b60405180610120016040528060008152602001600073ffffffffffffffffffffffffffffffffffffffff16815260200160608152602001600060058111156123d2576123d161274f565b5b815260200160008152602001600073ffffffffffffffffffffffffffffffffffffffff16815260200160001515815260200160608152602001600081525090565b6040518060a00160405280600073ffffffffffffffffffffffffffffffffffffffff1681526020016060815260200160008152602001600015158152602001600081525090565b828054828255906000526020600020908101928215612496579160200282015b8281111561249557825182559160200191906001019061247a565b5b5090506124a391906124a7565b5090565b5b808211156124c05760008160009055506001016124a8565b5090565b6000604051905090565b600080fd5b600080fd5b6000819050919050565b6124eb816124d8565b81146124f657600080fd5b50565b600081359050612508816124e2565b92915050565b600060208284031215612524576125236124ce565b5b6000612532848285016124f9565b91505092915050565b600081519050919050565b600082825260208201905092915050565b6000819050602082019050919050565b600073ffffffffffffffffffffffffffffffffffffffff82169050919050565b600061259282612567565b9050919050565b6125a281612587565b82525050565b6125b1816124d8565b82525050565b600081519050919050565b600082825260208201905092915050565b60005b838110156125f15780820151818401526020810190506125d6565b60008484015250505050565b6000601f19601f8301169050919050565b6000612619826125b7565b61262381856125c2565b93506126338185602086016125d3565b61263c816125fd565b840191505092915050565b600060608301600083015161265f6000860182612599565b50602083015161267260208601826125a8565b506040830151848203604086015261268a828261260e565b9150508091505092915050565b60006126a38383612647565b905092915050565b6000602082019050919050565b60006126c38261253b565b6126cd8185612546565b9350836020820285016126df85612557565b8060005b8581101561271b57848403895281516126fc8582612697565b9450612707836126ab565b925060208a019950506001810190506126e3565b50829750879550505050505092915050565b6000602082019050818103600083015261274781846126b8565b905092915050565b7f4e487b7100000000000000000000000000000000000000000000000000000000600052602160045260246000fd5b6006811061278f5761278e61274f565b5b50565b60008190506127a08261277e565b919050565b60006127b082612792565b9050919050565b6127c0816127a5565b82525050565b60008115159050919050565b6127db816127c6565b82525050565b6000610120830160008301516127fa60008601826125a8565b50602083015161280d6020860182612599565b5060408301518482036040860152612825828261260e565b915050606083015161283a60608601826127b7565b50608083015161284d60808601826125a8565b5060a083015161286060a0860182612599565b5060c083015161287360c08601826127d2565b5060e083015184820360e086015261288b828261260e565b9150506101008301516128a26101008601826125a8565b508091505092915050565b600060208201905081810360008301526128c781846127e1565b905092915050565b6128d8816124d8565b82525050565b60006020820190506128f360008301846128cf565b92915050565b61290281612587565b811461290d57600080fd5b50565b60008135905061291f816128f9565b92915050565b600080fd5b600080fd5b7f4e487b7100000000000000000000000000000000000000000000000000000000600052604160045260246000fd5b612967826125fd565b810181811067ffffffffffffffff821117156129865761298561292f565b5b80604052505050565b60006129996124c4565b90506129a5828261295e565b919050565b600067ffffffffffffffff8211156129c5576129c461292f565b5b6129ce826125fd565b9050602081019050919050565b82818337600083830152505050565b60006129fd6129f8846129aa565b61298f565b905082815260208101848484011115612a1957612a1861292a565b5b612a248482856129db565b509392505050565b600082601f830112612a4157612a40612925565b5b8135612a518482602086016129ea565b91505092915050565b60068110612a6757600080fd5b50565b600081359050612a7981612a5a565b92915050565b60008060008060808587031215612a9957612a986124ce565b5b6000612aa787828801612910565b945050602085013567ffffffffffffffff811115612ac857612ac76124d3565b5b612ad487828801612a2c565b9350506040612ae587828801612a6a565b925050606085013567ffffffffffffffff811115612b0657612b056124d3565b5b612b1287828801612a2c565b91505092959194509250565b600060208284031215612b3457612b336124ce565b5b6000612b4284828501612910565b91505092915050565b600081519050919050565b600082825260208201905092915050565b6000819050602082019050919050565b6000612b8383836125a8565b60208301905092915050565b6000602082019050919050565b6000612ba782612b4b565b612bb18185612b56565b9350612bbc83612b67565b8060005b83811015612bed578151612bd48882612b77565b9750612bdf83612b8f565b925050600181019050612bc0565b5085935050505092915050565b60006020820190508181036000830152612c148184612b9c565b905092915050565b600080600060608486031215612c3557612c346124ce565b5b600084013567ffffffffffffffff811115612c5357612c526124d3565b5b612c5f86828701612a2c565b9350506020612c7086828701612a6a565b925050604084013567ffffffffffffffff811115612c9157612c906124d3565b5b612c9d86828701612a2c565b9150509250925092565b600080600060608486031215612cc057612cbf6124ce565b5b6000612cce868287016124f9565b935050602084013567ffffffffffffffff811115612cef57612cee6124d3565b5b612cfb86828701612a2c565b925050604084013567ffffffffffffffff811115612d1c57612d1b6124d3565b5b612d2886828701612a2c565b9150509250925092565b60008060408385031215612d4957612d486124ce565b5b6000612d57858286016124f9565b925050602083013567ffffffffffffffff811115612d7857612d776124d3565b5b612d8485828601612a2c565b9150509250929050565b60008060408385031215612da557612da46124ce565b5b6000612db385828601612910565b9250506020612dc485828601612910565b9150509250929050565b600082825260208201905092915050565b6000612dea82612b4b565b612df48185612dce565b9350612dff83612b67565b8060005b83811015612e30578151612e178882612b77565b9750612e2283612b8f565b925050600181019050612e03565b5085935050505092915050565b600060a083016000830151612e556000860182612599565b5060208301518482036020860152612e6d8282612ddf565b9150506040830151612e8260408601826125a8565b506060830151612e9560608601826127d2565b506080830151612ea860808601826125a8565b508091505092915050565b60006020820190508181036000830152612ecd8184612e3d565b905092915050565b600067ffffffffffffffff821115612ef057612eef61292f565b5b602082029050602081019050919050565b600080fd5b6000612f19612f1484612ed5565b61298f565b90508083825260208201905060208402830185811115612f3c57612f3b612f01565b5b835b81811015612f655780612f5188826124f9565b845260208401935050602081019050612f3e565b5050509392505050565b600082601f830112612f8457612f83612925565b5b8135612f94848260208601612f06565b91505092915050565b600080600060608486031215612fb657612fb56124ce565b5b6000612fc486828701612910565b935050602084013567ffffffffffffffff811115612fe557612fe46124d3565b5b612ff186828701612f6f565b9250506040613002868287016124f9565b9150509250925092565b61301581612587565b82525050565b6000602082019050613030600083018461300c565b92915050565b60008060006060848603121561304f5761304e6124ce565b5b600061305d86828701612910565b935050602061306e86828701612910565b925050604061307f868287016124f9565b9150509250925092565b613092816127c6565b82525050565b60006020820190506130ad6000830184613089565b92915050565b600082825260208201905092915050565b7f4f6e6c792070617469656e742063616e20706572666f726d207468697320616360008201527f74696f6e00000000000000000000000000000000000000000000000000000000602082015250565b60006131206024836130b3565b915061312b826130c4565b604082019050919050565b6000602082019050818103600083015261314f81613113565b9050919050565b7f4e487b7100000000000000000000000000000000000000000000000000000000600052602260045260246000fd5b6000600282049050600182168061319d57607f821691505b6020821081036131b0576131af613156565b5b50919050565b7f5265636f726420646f6573206e6f742065786973740000000000000000000000600082015250565b60006131ec6015836130b3565b91506131f7826131b6565b602082019050919050565b6000602082019050818103600083015261321b816131df565b9050919050565b7f5265636f7264206973206e6f7420616374697665000000000000000000000000600082015250565b60006132586014836130b3565b915061326382613222565b602082019050919050565b600060208201905081810360008301526132878161324b565b9050919050565b7f4e6f7420617574686f72697a656420746f20616363657373207468697320726560008201527f636f726400000000000000000000000000000000000000000000000000000000602082015250565b60006132ea6024836130b3565b91506132f58261328e565b604082019050919050565b60006020820190508181036000830152613319816132dd565b9050919050565b7f496e76616c69642070617469656e742061646472657373000000000000000000600082015250565b60006133566017836130b3565b915061336182613320565b602082019050919050565b6000602082019050818103600083015261338581613349565b9050919050565b7f4950465320686173682063616e6e6f7420626520656d70747900000000000000600082015250565b60006133c26019836130b3565b91506133cd8261338c565b602082019050919050565b600060208201905081810360008301526133f1816133b5565b9050919050565b7f4e487b7100000000000000000000000000000000000000000000000000000000600052601160045260246000fd5b6000613432826124d8565b91507fffffffffffffffffffffffffffffffffffffffffffffffffffffffffffffffff8203613464576134636133f8565b5b600182019050919050565b60008190508160005260206000209050919050565b60006020601f8301049050919050565b600082821b905092915050565b6000600883026134d17fffffffffffffffffffffffffffffffffffffffffffffffffffffffffffffffff82613494565b6134db8683613494565b95508019841693508086168417925050509392505050565b6000819050919050565b600061351861351361350e846124d8565b6134f3565b6124d8565b9050919050565b6000819050919050565b613532836134fd565b61354661353e8261351f565b8484546134a1565b825550505050565b600090565b61355b61354e565b613566818484613529565b505050565b5b8181101561358a5761357f600082613553565b60018101905061356c565b5050565b601f8211156135cf576135a08161346f565b6135a984613484565b810160208510156135b8578190505b6135cc6135c485613484565b83018261356b565b50505b505050565b600082821c905092915050565b60006135f2600019846008026135d4565b1980831691505092915050565b600061360b83836135e1565b9150826002028217905092915050565b613624826125b7565b67ffffffffffffffff81111561363d5761363c61292f565b5b6136478254613185565b61365282828561358e565b600060209050601f8311600181146136855760008415613673578287015190505b61367d85826135ff565b8655506136e5565b601f1984166136938661346f565b60005b828110156136bb57848901518255600182019150602085019450602081019050613696565b868310156136d857848901516136d4601f8916826135e1565b8355505b6001600288020188555050505b505050505050565b60006136f8826125b7565b61370281856130b3565b93506137128185602086016125d3565b61371b816125fd565b840191505092915050565b61372f816127a5565b82525050565b6000604082019050818103600083015261374f81856136ed565b905061375e6020830184613726565b9392505050565b7f4e6f7420617574686f72697a6564000000000000000000000000000000000000600082015250565b600061379b600e836130b3565b91506137a682613765565b602082019050919050565b600060208201905081810360008301526137ca8161378e565b9050919050565b600060408201905081810360008301526137eb81856136ed565b90506137fa60208301846128cf565b9392505050565b7f4e6f2061637469766520616363657373206772616e7400000000000000000000600082015250565b60006138376016836130b3565b915061384282613801565b602082019050919050565b600060208201905081810360008301526138668161382a565b9050919050565b7f496e76616c696420616464726573730000000000000000000000000000000000600082015250565b60006138a3600f836130b3565b91506138ae8261386d565b602082019050919050565b600060208201905081810360008301526138d281613896565b9050919050565b7f4d757374206772616e742061636365737320746f206174206c65617374206f6e60008201527f65207265636f7264000000000000000000000000000000000000000000000000602082015250565b60006139356028836130b3565b9150613940826138d9565b604082019050919050565b6000602082019050818103600083015261396481613928565b9050919050565b7f4e487b7100000000000000000000000000000000000000000000000000000000600052603260045260246000fd5b7f596f7520646f6e2774206f776e20616c6c20737065636966696564207265636f60008201527f7264730000000000000000000000000000000000000000000000000000000000602082015250565b60006139f66023836130b3565b9150613a018261399a565b604082019050919050565b60006020820190508181036000830152613a25816139e9565b9050919050565b6000613a37826124d8565b9150613a42836124d8565b9250828202613a50816124d8565b91508282048414831517613a6757613a666133f8565b5b5092915050565b6000613a79826124d8565b9150613a84836124d8565b9250828201905080821115613a9c57613a9b6133f8565b5b9291505056fea2646970667358221220751cff47dc727ee8d291542b59237e0ee2510eb94afed16122eadb1722ea339764736f6c634300081e0033",
					"opcodes": "PUSH1 0x80 PUSH1 0x40 MSTORE CALLVALUE DUP1 ISZERO PUSH1 0xF JUMPI PUSH1 0x0 DUP1 REVERT JUMPDEST POP PUSH2 0x3AD8 DUP1 PUSH2 0x1F PUSH1 0x0 CODECOPY PUSH1 0x0 RETURN INVALID PUSH1 0x80 PUSH1 0x40 MSTORE CALLVALUE DUP1 ISZERO PUSH2 0x10 JUMPI PUSH1 0x0 DUP1 REVERT JUMPDEST POP PUSH1 0x4 CALLDATASIZE LT PUSH2 0xF5 JUMPI PUSH1 0x0 CALLDATALOAD PUSH1 0xE0 SHR DUP1 PUSH4 0x3812C6A8 GT PUSH2 0x97 JUMPI DUP1 PUSH4 0x91284A89 GT PUSH2 0x66 JUMPI DUP1 PUSH4 0x91284A89 EQ PUSH2 0x2A8 JUMPI DUP1 PUSH4 0x9399E973 EQ PUSH2 0x2C4 JUMPI DUP1 PUSH4 0xB4B07A70 EQ PUSH2 0x2E0 JUMPI DUP1 PUSH4 0xCF56B4EB EQ PUSH2 0x310 JUMPI PUSH2 0xF5 JUMP JUMPDEST DUP1 PUSH4 0x3812C6A8 EQ PUSH2 0x224 JUMPI DUP1 PUSH4 0x67502CDF EQ PUSH2 0x240 JUMPI DUP1 PUSH4 0x85E68531 EQ PUSH2 0x25C JUMPI DUP1 PUSH4 0x8B681C7C EQ PUSH2 0x278 JUMPI PUSH2 0xF5 JUMP JUMPDEST DUP1 PUSH4 0xAEACB5E GT PUSH2 0xD3 JUMPI DUP1 PUSH4 0xAEACB5E EQ PUSH2 0x176 JUMPI DUP1 PUSH4 0xE8DCE29 EQ PUSH2 0x194 JUMPI DUP1 PUSH4 0x18BD4847 EQ PUSH2 0x1C4 JUMPI DUP1 PUSH4 0x1B6377B8 EQ PUSH2 0x1F4 JUMPI PUSH2 0xF5 JUMP JUMPDEST DUP1 PUSH4 0x1B1D324 EQ PUSH2 0xFA JUMPI DUP1 PUSH4 0x3E9E609 EQ PUSH2 0x12A JUMPI DUP1 PUSH4 0x61F9811 EQ PUSH2 0x15A JUMPI JUMPDEST PUSH1 0x0 DUP1 REVERT JUMPDEST PUSH2 0x114 PUSH1 0x4 DUP1 CALLDATASIZE SUB DUP2 ADD SWAP1 PUSH2 0x10F SWAP2 SWAP1 PUSH2 0x250E JUMP JUMPDEST PUSH2 0x340 JUMP JUMPDEST PUSH1 0x40 MLOAD PUSH2 0x121 SWAP2 SWAP1 PUSH2 0x272D JUMP JUMPDEST PUSH1 0x40 MLOAD DUP1 SWAP2 SUB SWAP1 RETURN JUMPDEST PUSH2 0x144 PUSH1 0x4 DUP1 CALLDATASIZE SUB DUP2 ADD SWAP1 PUSH2 0x13F SWAP2 SWAP1 PUSH2 0x250E JUMP JUMPDEST PUSH2 0x54A JUMP JUMPDEST PUSH1 0x40 MLOAD PUSH2 0x151 SWAP2 SWAP1 PUSH2 0x28AD JUMP JUMPDEST PUSH1 0x40 MLOAD DUP1 SWAP2 SUB SWAP1 RETURN JUMPDEST PUSH2 0x174 PUSH1 0x4 DUP1 CALLDATASIZE SUB DUP2 ADD SWAP1 PUSH2 0x16F SWAP2 SWAP1 PUSH2 0x250E JUMP JUMPDEST PUSH2 0x8F4 JUMP JUMPDEST STOP JUMPDEST PUSH2 0x17E PUSH2 0xA82 JUMP JUMPDEST PUSH1 0x40 MLOAD PUSH2 0x18B SWAP2 SWAP1 PUSH2 0x28DE JUMP JUMPDEST PUSH1 0x40 MLOAD DUP1 SWAP2 SUB SWAP1 RETURN JUMPDEST PUSH2 0x1AE PUSH1 0x4 DUP1 CALLDATASIZE SUB DUP2 ADD SWAP1 PUSH2 0x1A9 SWAP2 SWAP1 PUSH2 0x2A7F JUMP JUMPDEST PUSH2 0xA8C JUMP JUMPDEST PUSH1 0x40 MLOAD PUSH2 0x1BB SWAP2 SWAP1 PUSH2 0x28DE JUMP JUMPDEST PUSH1 0x40 MLOAD DUP1 SWAP2 SUB SWAP1 RETURN JUMPDEST PUSH2 0x1DE PUSH1 0x4 DUP1 CALLDATASIZE SUB DUP2 ADD SWAP1 PUSH2 0x1D9 SWAP2 SWAP1 PUSH2 0x2B1E JUMP JUMPDEST PUSH2 0xDE4 JUMP JUMPDEST PUSH1 0x40 MLOAD PUSH2 0x1EB SWAP2 SWAP1 PUSH2 0x2BFA JUMP JUMPDEST PUSH1 0x40 MLOAD DUP1 SWAP2 SUB SWAP1 RETURN JUMPDEST PUSH2 0x20E PUSH1 0x4 DUP1 CALLDATASIZE SUB DUP2 ADD SWAP1 PUSH2 0x209 SWAP2 SWAP1 PUSH2 0x2C1C JUMP JUMPDEST PUSH2 0xEF9 JUMP JUMPDEST PUSH1 0x40 MLOAD PUSH2 0x21B SWAP2 SWAP1 PUSH2 0x28DE JUMP JUMPDEST PUSH1 0x40 MLOAD DUP1 SWAP2 SUB SWAP1 RETURN JUMPDEST PUSH2 0x23E PUSH1 0x4 DUP1 CALLDATASIZE SUB DUP2 ADD SWAP1 PUSH2 0x239 SWAP2 SWAP1 PUSH2 0x2CA7 JUMP JUMPDEST PUSH2 0x11E1 JUMP JUMPDEST STOP JUMPDEST PUSH2 0x25A PUSH1 0x4 DUP1 CALLDATASIZE SUB DUP2 ADD SWAP1 PUSH2 0x255 SWAP2 SWAP1 PUSH2 0x2D32 JUMP JUMPDEST PUSH2 0x13D6 JUMP JUMPDEST STOP JUMPDEST PUSH2 0x276 PUSH1 0x4 DUP1 CALLDATASIZE SUB DUP2 ADD SWAP1 PUSH2 0x271 SWAP2 SWAP1 PUSH2 0x2B1E JUMP JUMPDEST PUSH2 0x1637 JUMP JUMPDEST STOP JUMPDEST PUSH2 0x292 PUSH1 0x4 DUP1 CALLDATASIZE SUB DUP2 ADD SWAP1 PUSH2 0x28D SWAP2 SWAP1 PUSH2 0x2D8E JUMP JUMPDEST PUSH2 0x17F8 JUMP JUMPDEST PUSH1 0x40 MLOAD PUSH2 0x29F SWAP2 SWAP1 PUSH2 0x2EB3 JUMP JUMPDEST PUSH1 0x40 MLOAD DUP1 SWAP2 SUB SWAP1 RETURN JUMPDEST PUSH2 0x2C2 PUSH1 0x4 DUP1 CALLDATASIZE SUB DUP2 ADD SWAP1 PUSH2 0x2BD SWAP2 SWAP1 PUSH2 0x2B1E JUMP JUMPDEST PUSH2 0x1A10 JUMP JUMPDEST STOP JUMPDEST PUSH2 0x2DE PUSH1 0x4 DUP1 CALLDATASIZE SUB DUP2 ADD SWAP1 PUSH2 0x2D9 SWAP2 SWAP1 PUSH2 0x2F9D JUMP JUMPDEST PUSH2 0x1B00 JUMP JUMPDEST STOP JUMPDEST PUSH2 0x2FA PUSH1 0x4 DUP1 CALLDATASIZE SUB DUP2 ADD SWAP1 PUSH2 0x2F5 SWAP2 SWAP1 PUSH2 0x2B1E JUMP JUMPDEST PUSH2 0x1E6B JUMP JUMPDEST PUSH1 0x40 MLOAD PUSH2 0x307 SWAP2 SWAP1 PUSH2 0x301B JUMP JUMPDEST PUSH1 0x40 MLOAD DUP1 SWAP2 SUB SWAP1 RETURN JUMPDEST PUSH2 0x32A PUSH1 0x4 DUP1 CALLDATASIZE SUB DUP2 ADD SWAP1 PUSH2 0x325 SWAP2 SWAP1 PUSH2 0x3036 JUMP JUMPDEST PUSH2 0x1E9E JUMP JUMPDEST PUSH1 0x40 MLOAD PUSH2 0x337 SWAP2 SWAP1 PUSH2 0x3098 JUMP JUMPDEST PUSH1 0x40 MLOAD DUP1 SWAP2 SUB SWAP1 RETURN JUMPDEST PUSH1 0x60 DUP2 CALLER PUSH20 0xFFFFFFFFFFFFFFFFFFFFFFFFFFFFFFFFFFFFFFFF AND PUSH1 0x1 PUSH1 0x0 DUP4 DUP2 MSTORE PUSH1 0x20 ADD SWAP1 DUP2 MSTORE PUSH1 0x20 ADD PUSH1 0x0 KECCAK256 PUSH1 0x1 ADD PUSH1 0x0 SWAP1 SLOAD SWAP1 PUSH2 0x100 EXP SWAP1 DIV PUSH20 0xFFFFFFFFFFFFFFFFFFFFFFFFFFFFFFFFFFFFFFFF AND PUSH20 0xFFFFFFFFFFFFFFFFFFFFFFFFFFFFFFFFFFFFFFFF AND EQ PUSH2 0x3E7 JUMPI PUSH1 0x40 MLOAD PUSH32 0x8C379A000000000000000000000000000000000000000000000000000000000 DUP2 MSTORE PUSH1 0x4 ADD PUSH2 0x3DE SWAP1 PUSH2 0x3136 JUMP JUMPDEST PUSH1 0x40 MLOAD DUP1 SWAP2 SUB SWAP1 REVERT JUMPDEST PUSH1 0x3 PUSH1 0x0 DUP5 DUP2 MSTORE PUSH1 0x20 ADD SWAP1 DUP2 MSTORE PUSH1 0x20 ADD PUSH1 0x0 KECCAK256 DUP1 SLOAD DUP1 PUSH1 0x20 MUL PUSH1 0x20 ADD PUSH1 0x40 MLOAD SWAP1 DUP2 ADD PUSH1 0x40 MSTORE DUP1 SWAP3 SWAP2 SWAP1 DUP2 DUP2 MSTORE PUSH1 0x20 ADD PUSH1 0x0 SWAP1 JUMPDEST DUP3 DUP3 LT ISZERO PUSH2 0x53E JUMPI DUP4 DUP3 SWAP1 PUSH1 0x0 MSTORE PUSH1 0x20 PUSH1 0x0 KECCAK256 SWAP1 PUSH1 0x3 MUL ADD PUSH1 0x40 MLOAD DUP1 PUSH1 0x60 ADD PUSH1 0x40 MSTORE SWAP1 DUP2 PUSH1 0x0 DUP3 ADD PUSH1 0x0 SWAP1 SLOAD SWAP1 PUSH2 0x100 EXP SWAP1 DIV PUSH20 0xFFFFFFFFFFFFFFFFFFFFFFFFFFFFFFFFFFFFFFFF AND PUSH20 0xFFFFFFFFFFFFFFFFFFFFFFFFFFFFFFFFFFFFFFFF AND PUSH20 0xFFFFFFFFFFFFFFFFFFFFFFFFFFFFFFFFFFFFFFFF AND DUP2 MSTORE PUSH1 0x20 ADD PUSH1 0x1 DUP3 ADD SLOAD DUP2 MSTORE PUSH1 0x20 ADD PUSH1 0x2 DUP3 ADD DUP1 SLOAD PUSH2 0x4AD SWAP1 PUSH2 0x3185 JUMP JUMPDEST DUP1 PUSH1 0x1F ADD PUSH1 0x20 DUP1 SWAP2 DIV MUL PUSH1 0x20 ADD PUSH1 0x40 MLOAD SWAP1 DUP2 ADD PUSH1 0x40 MSTORE DUP1 SWAP3 SWAP2 SWAP1 DUP2 DUP2 MSTORE PUSH1 0x20 ADD DUP3 DUP1 SLOAD PUSH2 0x4D9 SWAP1 PUSH2 0x3185 JUMP JUMPDEST DUP1 ISZERO PUSH2 0x526 JUMPI DUP1 PUSH1 0x1F LT PUSH2 0x4FB JUMPI PUSH2 0x100 DUP1 DUP4 SLOAD DIV MUL DUP4 MSTORE SWAP2 PUSH1 0x20 ADD SWAP2 PUSH2 0x526 JUMP JUMPDEST DUP3 ADD SWAP2 SWAP1 PUSH1 0x0 MSTORE PUSH1 0x20 PUSH1 0x0 KECCAK256 SWAP1 JUMPDEST DUP2 SLOAD DUP2 MSTORE SWAP1 PUSH1 0x1 ADD SWAP1 PUSH1 0x20 ADD DUP1 DUP4 GT PUSH2 0x509 JUMPI DUP3 SWAP1 SUB PUSH1 0x1F AND DUP3 ADD SWAP2 JUMPDEST POP POP POP POP POP DUP2 MSTORE POP POP DUP2 MSTORE PUSH1 0x20 ADD SWAP1 PUSH1 0x1 ADD SWAP1 PUSH2 0x41A JUMP JUMPDEST POP POP POP POP SWAP2 POP POP SWAP2 SWAP1 POP JUMP JUMPDEST PUSH2 0x552 PUSH2 0x2387 JUMP JUMPDEST DUP2 PUSH1 0x0 DUP2 GT DUP1 ISZERO PUSH2 0x565 JUMPI POP PUSH1 0x5 SLOAD DUP2 GT ISZERO JUMPDEST PUSH2 0x5A4 JUMPI PUSH1 0x40 MLOAD PUSH32 0x8C379A000000000000000000000000000000000000000000000000000000000 DUP2 MSTORE PUSH1 0x4 ADD PUSH2 0x59B SWAP1 PUSH2 0x3202 JUMP JUMPDEST PUSH1 0x40 MLOAD DUP1 SWAP2 SUB SWAP1 REVERT JUMPDEST PUSH1 0x1 PUSH1 0x0 DUP3 DUP2 MSTORE PUSH1 0x20 ADD SWAP1 DUP2 MSTORE PUSH1 0x20 ADD PUSH1 0x0 KECCAK256 PUSH1 0x5 ADD PUSH1 0x14 SWAP1 SLOAD SWAP1 PUSH2 0x100 EXP SWAP1 DIV PUSH1 0xFF AND PUSH2 0x607 JUMPI PUSH1 0x40 MLOAD PUSH32 0x8C379A000000000000000000000000000000000000000000000000000000000 DUP2 MSTORE PUSH1 0x4 ADD PUSH2 0x5FE SWAP1 PUSH2 0x326E JUMP JUMPDEST PUSH1 0x40 MLOAD DUP1 SWAP2 SUB SWAP1 REVERT JUMPDEST DUP3 PUSH2 0x649 PUSH1 0x1 PUSH1 0x0 DUP4 DUP2 MSTORE PUSH1 0x20 ADD SWAP1 DUP2 MSTORE PUSH1 0x20 ADD PUSH1 0x0 KECCAK256 PUSH1 0x1 ADD PUSH1 0x0 SWAP1 SLOAD SWAP1 PUSH2 0x100 EXP SWAP1 DIV PUSH20 0xFFFFFFFFFFFFFFFFFFFFFFFFFFFFFFFFFFFFFFFF AND CALLER DUP4 PUSH2 0x1E9E JUMP JUMPDEST PUSH2 0x688 JUMPI PUSH1 0x40 MLOAD PUSH32 0x8C379A000000000000000000000000000000000000000000000000000000000 DUP2 MSTORE PUSH1 0x4 ADD PUSH2 0x67F SWAP1 PUSH2 0x3300 JUMP JUMPDEST PUSH1 0x40 MLOAD DUP1 SWAP2 SUB SWAP1 REVERT JUMPDEST PUSH1 0x1 PUSH1 0x0 DUP6 DUP2 MSTORE PUSH1 0x20 ADD SWAP1 DUP2 MSTORE PUSH1 0x20 ADD PUSH1 0x0 KECCAK256 PUSH1 0x40 MLOAD DUP1 PUSH2 0x120 ADD PUSH1 0x40 MSTORE SWAP1 DUP2 PUSH1 0x0 DUP3 ADD SLOAD DUP2 MSTORE PUSH1 0x20 ADD PUSH1 0x1 DUP3 ADD PUSH1 0x0 SWAP1 SLOAD SWAP1 PUSH2 0x100 EXP SWAP1 DIV PUSH20 0xFFFFFFFFFFFFFFFFFFFFFFFFFFFFFFFFFFFFFFFF AND PUSH20 0xFFFFFFFFFFFFFFFFFFFFFFFFFFFFFFFFFFFFFFFF AND PUSH20 0xFFFFFFFFFFFFFFFFFFFFFFFFFFFFFFFFFFFFFFFF AND DUP2 MSTORE PUSH1 0x20 ADD PUSH1 0x2 DUP3 ADD DUP1 SLOAD PUSH2 0x717 SWAP1 PUSH2 0x3185 JUMP JUMPDEST DUP1 PUSH1 0x1F ADD PUSH1 0x20 DUP1 SWAP2 DIV MUL PUSH1 0x20 ADD PUSH1 0x40 MLOAD SWAP1 DUP2 ADD PUSH1 0x40 MSTORE DUP1 SWAP3 SWAP2 SWAP1 DUP2 DUP2 MSTORE PUSH1 0x20 ADD DUP3 DUP1 SLOAD PUSH2 0x743 SWAP1 PUSH2 0x3185 JUMP JUMPDEST DUP1 ISZERO PUSH2 0x790 JUMPI DUP1 PUSH1 0x1F LT PUSH2 0x765 JUMPI PUSH2 0x100 DUP1 DUP4 SLOAD DIV MUL DUP4 MSTORE SWAP2 PUSH1 0x20 ADD SWAP2 PUSH2 0x790 JUMP JUMPDEST DUP3 ADD SWAP2 SWAP1 PUSH1 0x0 MSTORE PUSH1 0x20 PUSH1 0x0 KECCAK256 SWAP1 JUMPDEST DUP2 SLOAD DUP2 MSTORE SWAP1 PUSH1 0x1 ADD SWAP1 PUSH1 0x20 ADD DUP1 DUP4 GT PUSH2 0x773 JUMPI DUP3 SWAP1 SUB PUSH1 0x1F AND DUP3 ADD SWAP2 JUMPDEST POP POP POP POP POP DUP2 MSTORE PUSH1 0x20 ADD PUSH1 0x3 DUP3 ADD PUSH1 0x0 SWAP1 SLOAD SWAP1 PUSH2 0x100 EXP SWAP1 DIV PUSH1 0xFF AND PUSH1 0x5 DUP2 GT ISZERO PUSH2 0x7BE JUMPI PUSH2 0x7BD PUSH2 0x274F JUMP JUMPDEST JUMPDEST PUSH1 0x5 DUP2 GT ISZERO PUSH2 0x7D0 JUMPI PUSH2 0x7CF PUSH2 0x274F JUMP JUMPDEST JUMPDEST DUP2 MSTORE PUSH1 0x20 ADD PUSH1 0x4 DUP3 ADD SLOAD DUP2 MSTORE PUSH1 0x20 ADD PUSH1 0x5 DUP3 ADD PUSH1 0x0 SWAP1 SLOAD SWAP1 PUSH2 0x100 EXP SWAP1 DIV PUSH20 0xFFFFFFFFFFFFFFFFFFFFFFFFFFFFFFFFFFFFFFFF AND PUSH20 0xFFFFFFFFFFFFFFFFFFFFFFFFFFFFFFFFFFFFFFFF AND PUSH20 0xFFFFFFFFFFFFFFFFFFFFFFFFFFFFFFFFFFFFFFFF AND DUP2 MSTORE PUSH1 0x20 ADD PUSH1 0x5 DUP3 ADD PUSH1 0x14 SWAP1 SLOAD SWAP1 PUSH2 0x100 EXP SWAP1 DIV PUSH1 0xFF AND ISZERO ISZERO ISZERO ISZERO DUP2 MSTORE PUSH1 0x20 ADD PUSH1 0x6 DUP3 ADD DUP1 SLOAD PUSH2 0x85F SWAP1 PUSH2 0x3185 JUMP JUMPDEST DUP1 PUSH1 0x1F ADD PUSH1 0x20 DUP1 SWAP2 DIV MUL PUSH1 0x20 ADD PUSH1 0x40 MLOAD SWAP1 DUP2 ADD PUSH1 0x40 MSTORE DUP1 SWAP3 SWAP2 SWAP1 DUP2 DUP2 MSTORE PUSH1 0x20 ADD DUP3 DUP1 SLOAD PUSH2 0x88B SWAP1 PUSH2 0x3185 JUMP JUMPDEST DUP1 ISZERO PUSH2 0x8D8 JUMPI DUP1 PUSH1 0x1F LT PUSH2 0x8AD JUMPI PUSH2 0x100 DUP1 DUP4 SLOAD DIV MUL DUP4 MSTORE SWAP2 PUSH1 0x20 ADD SWAP2 PUSH2 0x8D8 JUMP JUMPDEST DUP3 ADD SWAP2 SWAP1 PUSH1 0x0 MSTORE PUSH1 0x20 PUSH1 0x0 KECCAK256 SWAP1 JUMPDEST DUP2 SLOAD DUP2 MSTORE SWAP1 PUSH1 0x1 ADD SWAP1 PUSH1 0x20 ADD DUP1 DUP4 GT PUSH2 0x8BB JUMPI DUP3 SWAP1 SUB PUSH1 0x1F AND DUP3 ADD SWAP2 JUMPDEST POP POP POP POP POP DUP2 MSTORE PUSH1 0x20 ADD PUSH1 0x7 DUP3 ADD SLOAD DUP2 MSTORE POP POP SWAP3 POP POP POP SWAP2 SWAP1 POP JUMP JUMPDEST DUP1 CALLER PUSH20 0xFFFFFFFFFFFFFFFFFFFFFFFFFFFFFFFFFFFFFFFF AND PUSH1 0x1 PUSH1 0x0 DUP4 DUP2 MSTORE PUSH1 0x20 ADD SWAP1 DUP2 MSTORE PUSH1 0x20 ADD PUSH1 0x0 KECCAK256 PUSH1 0x1 ADD PUSH1 0x0 SWAP1 SLOAD SWAP1 PUSH2 0x100 EXP SWAP1 DIV PUSH20 0xFFFFFFFFFFFFFFFFFFFFFFFFFFFFFFFFFFFFFFFF AND PUSH20 0xFFFFFFFFFFFFFFFFFFFFFFFFFFFFFFFFFFFFFFFF AND EQ PUSH2 0x999 JUMPI PUSH1 0x40 MLOAD PUSH32 0x8C379A000000000000000000000000000000000000000000000000000000000 DUP2 MSTORE PUSH1 0x4 ADD PUSH2 0x990 SWAP1 PUSH2 0x3136 JUMP JUMPDEST PUSH1 0x40 MLOAD DUP1 SWAP2 SUB SWAP1 REVERT JUMPDEST DUP2 PUSH1 0x0 DUP2 GT DUP1 ISZERO PUSH2 0x9AC JUMPI POP PUSH1 0x5 SLOAD DUP2 GT ISZERO JUMPDEST PUSH2 0x9EB JUMPI PUSH1 0x40 MLOAD PUSH32 0x8C379A000000000000000000000000000000000000000000000000000000000 DUP2 MSTORE PUSH1 0x4 ADD PUSH2 0x9E2 SWAP1 PUSH2 0x3202 JUMP JUMPDEST PUSH1 0x40 MLOAD DUP1 SWAP2 SUB SWAP1 REVERT JUMPDEST PUSH1 0x1 PUSH1 0x0 DUP3 DUP2 MSTORE PUSH1 0x20 ADD SWAP1 DUP2 MSTORE PUSH1 0x20 ADD PUSH1 0x0 KECCAK256 PUSH1 0x5 ADD PUSH1 0x14 SWAP1 SLOAD SWAP1 PUSH2 0x100 EXP SWAP1 DIV PUSH1 0xFF AND PUSH2 0xA4E JUMPI PUSH1 0x40 MLOAD PUSH32 0x8C379A000000000000000000000000000000000000000000000000000000000 DUP2 MSTORE PUSH1 0x4 ADD PUSH2 0xA45 SWAP1 PUSH2 0x326E JUMP JUMPDEST PUSH1 0x40 MLOAD DUP1 SWAP2 SUB SWAP1 REVERT JUMPDEST PUSH1 0x0 PUSH1 0x1 PUSH1 0x0 DUP6 DUP2 MSTORE PUSH1 0x20 ADD SWAP1 DUP2 MSTORE PUSH1 0x20 ADD PUSH1 0x0 KECCAK256 PUSH1 0x5 ADD PUSH1 0x14 PUSH2 0x100 EXP DUP2 SLOAD DUP2 PUSH1 0xFF MUL NOT AND SWAP1 DUP4 ISZERO ISZERO MUL OR SWAP1 SSTORE POP POP POP POP JUMP JUMPDEST PUSH1 0x0 PUSH1 0x5 SLOAD SWAP1 POP SWAP1 JUMP JUMPDEST PUSH1 0x0 DUP1 PUSH20 0xFFFFFFFFFFFFFFFFFFFFFFFFFFFFFFFFFFFFFFFF AND DUP6 PUSH20 0xFFFFFFFFFFFFFFFFFFFFFFFFFFFFFFFFFFFFFFFF AND SUB PUSH2 0xAFC JUMPI PUSH1 0x40 MLOAD PUSH32 0x8C379A000000000000000000000000000000000000000000000000000000000 DUP2 MSTORE PUSH1 0x4 ADD PUSH2 0xAF3 SWAP1 PUSH2 0x336C JUMP JUMPDEST PUSH1 0x40 MLOAD DUP1 SWAP2 SUB SWAP1 REVERT JUMPDEST PUSH1 0x0 DUP5 MLOAD GT PUSH2 0xB40 JUMPI PUSH1 0x40 MLOAD PUSH32 0x8C379A000000000000000000000000000000000000000000000000000000000 DUP2 MSTORE PUSH1 0x4 ADD PUSH2 0xB37 SWAP1 PUSH2 0x33D8 JUMP JUMPDEST PUSH1 0x40 MLOAD DUP1 SWAP2 SUB SWAP1 REVERT JUMPDEST PUSH1 0x5 PUSH1 0x0 DUP2 SLOAD DUP1 SWAP3 SWAP2 SWAP1 PUSH2 0xB53 SWAP1 PUSH2 0x3427 JUMP JUMPDEST SWAP2 SWAP1 POP SSTORE POP PUSH1 0x40 MLOAD DUP1 PUSH2 0x120 ADD PUSH1 0x40 MSTORE DUP1 PUSH1 0x5 SLOAD DUP2 MSTORE PUSH1 0x20 ADD DUP7 PUSH20 0xFFFFFFFFFFFFFFFFFFFFFFFFFFFFFFFFFFFFFFFF AND DUP2 MSTORE PUSH1 0x20 ADD DUP6 DUP2 MSTORE PUSH1 0x20 ADD DUP5 PUSH1 0x5 DUP2 GT ISZERO PUSH2 0xBA1 JUMPI PUSH2 0xBA0 PUSH2 0x274F JUMP JUMPDEST JUMPDEST DUP2 MSTORE PUSH1 0x20 ADD TIMESTAMP DUP2 MSTORE PUSH1 0x20 ADD CALLER PUSH20 0xFFFFFFFFFFFFFFFFFFFFFFFFFFFFFFFFFFFFFFFF AND DUP2 MSTORE PUSH1 0x20 ADD PUSH1 0x1 ISZERO ISZERO DUP2 MSTORE PUSH1 0x20 ADD DUP4 DUP2 MSTORE PUSH1 0x20 ADD PUSH1 0x1 DUP2 MSTORE POP PUSH1 0x1 PUSH1 0x0 PUSH1 0x5 SLOAD DUP2 MSTORE PUSH1 0x20 ADD SWAP1 DUP2 MSTORE PUSH1 0x20 ADD PUSH1 0x0 KECCAK256 PUSH1 0x0 DUP3 ADD MLOAD DUP2 PUSH1 0x0 ADD SSTORE PUSH1 0x20 DUP3 ADD MLOAD DUP2 PUSH1 0x1 ADD PUSH1 0x0 PUSH2 0x100 EXP DUP2 SLOAD DUP2 PUSH20 0xFFFFFFFFFFFFFFFFFFFFFFFFFFFFFFFFFFFFFFFF MUL NOT AND SWAP1 DUP4 PUSH20 0xFFFFFFFFFFFFFFFFFFFFFFFFFFFFFFFFFFFFFFFF AND MUL OR SWAP1 SSTORE POP PUSH1 0x40 DUP3 ADD MLOAD DUP2 PUSH1 0x2 ADD SWAP1 DUP2 PUSH2 0xC57 SWAP2 SWAP1 PUSH2 0x361B JUMP JUMPDEST POP PUSH1 0x60 DUP3 ADD MLOAD DUP2 PUSH1 0x3 ADD PUSH1 0x0 PUSH2 0x100 EXP DUP2 SLOAD DUP2 PUSH1 0xFF MUL NOT AND SWAP1 DUP4 PUSH1 0x5 DUP2 GT ISZERO PUSH2 0xC83 JUMPI PUSH2 0xC82 PUSH2 0x274F JUMP JUMPDEST JUMPDEST MUL OR SWAP1 SSTORE POP PUSH1 0x80 DUP3 ADD MLOAD DUP2 PUSH1 0x4 ADD SSTORE PUSH1 0xA0 DUP3 ADD MLOAD DUP2 PUSH1 0x5 ADD PUSH1 0x0 PUSH2 0x100 EXP DUP2 SLOAD DUP2 PUSH20 0xFFFFFFFFFFFFFFFFFFFFFFFFFFFFFFFFFFFFFFFF MUL NOT AND SWAP1 DUP4 PUSH20 0xFFFFFFFFFFFFFFFFFFFFFFFFFFFFFFFFFFFFFFFF AND MUL OR SWAP1 SSTORE POP PUSH1 0xC0 DUP3 ADD MLOAD DUP2 PUSH1 0x5 ADD PUSH1 0x14 PUSH2 0x100 EXP DUP2 SLOAD DUP2 PUSH1 0xFF MUL NOT AND SWAP1 DUP4 ISZERO ISZERO MUL OR SWAP1 SSTORE POP PUSH1 0xE0 DUP3 ADD MLOAD DUP2 PUSH1 0x6 ADD SWAP1 DUP2 PUSH2 0xD0E SWAP2 SWAP1 PUSH2 0x361B JUMP JUMPDEST POP PUSH2 0x100 DUP3 ADD MLOAD DUP2 PUSH1 0x7 ADD SSTORE SWAP1 POP POP PUSH1 0x0 DUP1 DUP7 PUSH20 0xFFFFFFFFFFFFFFFFFFFFFFFFFFFFFFFFFFFFFFFF AND PUSH20 0xFFFFFFFFFFFFFFFFFFFFFFFFFFFFFFFFFFFFFFFF AND DUP2 MSTORE PUSH1 0x20 ADD SWAP1 DUP2 MSTORE PUSH1 0x20 ADD PUSH1 0x0 KECCAK256 PUSH1 0x5 SLOAD SWAP1 DUP1 PUSH1 0x1 DUP2 SLOAD ADD DUP1 DUP3 SSTORE DUP1 SWAP2 POP POP PUSH1 0x1 SWAP1 SUB SWAP1 PUSH1 0x0 MSTORE PUSH1 0x20 PUSH1 0x0 KECCAK256 ADD PUSH1 0x0 SWAP1 SWAP2 SWAP1 SWAP2 SWAP1 SWAP2 POP SSTORE DUP5 PUSH20 0xFFFFFFFFFFFFFFFFFFFFFFFFFFFFFFFFFFFFFFFF AND PUSH1 0x5 SLOAD PUSH32 0x32B3188B62628AABF659CEBBAB10A599B539BCB0C01A891AB2E37B8BE315712E DUP7 DUP7 PUSH1 0x40 MLOAD PUSH2 0xDCF SWAP3 SWAP2 SWAP1 PUSH2 0x3735 JUMP JUMPDEST PUSH1 0x40 MLOAD DUP1 SWAP2 SUB SWAP1 LOG3 PUSH1 0x5 SLOAD SWAP1 POP SWAP5 SWAP4 POP POP POP POP JUMP JUMPDEST PUSH1 0x60 DUP2 PUSH20 0xFFFFFFFFFFFFFFFFFFFFFFFFFFFFFFFFFFFFFFFF AND CALLER PUSH20 0xFFFFFFFFFFFFFFFFFFFFFFFFFFFFFFFFFFFFFFFF AND EQ DUP1 PUSH2 0xE26 JUMPI POP PUSH2 0xE25 DUP3 CALLER PUSH2 0x2163 JUMP JUMPDEST JUMPDEST PUSH2 0xE65 JUMPI PUSH1 0x40 MLOAD PUSH32 0x8C379A000000000000000000000000000000000000000000000000000000000 DUP2 MSTORE PUSH1 0x4 ADD PUSH2 0xE5C SWAP1 PUSH2 0x37B1 JUMP JUMPDEST PUSH1 0x40 MLOAD DUP1 SWAP2 SUB SWAP1 REVERT JUMPDEST PUSH1 0x0 DUP1 DUP4 PUSH20 0xFFFFFFFFFFFFFFFFFFFFFFFFFFFFFFFFFFFFFFFF AND PUSH20 0xFFFFFFFFFFFFFFFFFFFFFFFFFFFFFFFFFFFFFFFF AND DUP2 MSTORE PUSH1 0x20 ADD SWAP1 DUP2 MSTORE PUSH1 0x20 ADD PUSH1 0x0 KECCAK256 DUP1 SLOAD DUP1 PUSH1 0x20 MUL PUSH1 0x20 ADD PUSH1 0x40 MLOAD SWAP1 DUP2 ADD PUSH1 0x40 MSTORE DUP1 SWAP3 SWAP2 SWAP1 DUP2 DUP2 MSTORE PUSH1 0x20 ADD DUP3 DUP1 SLOAD DUP1 ISZERO PUSH2 0xEED JUMPI PUSH1 0x20 MUL DUP3 ADD SWAP2 SWAP1 PUSH1 0x0 MSTORE PUSH1 0x20 PUSH1 0x0 KECCAK256 SWAP1 JUMPDEST DUP2 SLOAD DUP2 MSTORE PUSH1 0x20 ADD SWAP1 PUSH1 0x1 ADD SWAP1 DUP1 DUP4 GT PUSH2 0xED9 JUMPI JUMPDEST POP POP POP POP POP SWAP1 POP SWAP2 SWAP1 POP JUMP JUMPDEST PUSH1 0x0 DUP1 DUP5 MLOAD GT PUSH2 0xF3E JUMPI PUSH1 0x40 MLOAD PUSH32 0x8C379A000000000000000000000000000000000000000000000000000000000 DUP2 MSTORE PUSH1 0x4 ADD PUSH2 0xF35 SWAP1 PUSH2 0x33D8 JUMP JUMPDEST PUSH1 0x40 MLOAD DUP1 SWAP2 SUB SWAP1 REVERT JUMPDEST PUSH1 0x5 PUSH1 0x0 DUP2 SLOAD DUP1 SWAP3 SWAP2 SWAP1 PUSH2 0xF51 SWAP1 PUSH2 0x3427 JUMP JUMPDEST SWAP2 SWAP1 POP SSTORE POP PUSH1 0x40 MLOAD DUP1 PUSH2 0x120 ADD PUSH1 0x40 MSTORE DUP1 PUSH1 0x5 SLOAD DUP2 MSTORE PUSH1 0x20 ADD CALLER PUSH20 0xFFFFFFFFFFFFFFFFFFFFFFFFFFFFFFFFFFFFFFFF AND DUP2 MSTORE PUSH1 0x20 ADD DUP6 DUP2 MSTORE PUSH1 0x20 ADD DUP5 PUSH1 0x5 DUP2 GT ISZERO PUSH2 0xF9F JUMPI PUSH2 0xF9E PUSH2 0x274F JUMP JUMPDEST JUMPDEST DUP2 MSTORE PUSH1 0x20 ADD TIMESTAMP DUP2 MSTORE PUSH1 0x20 ADD CALLER PUSH20 0xFFFFFFFFFFFFFFFFFFFFFFFFFFFFFFFFFFFFFFFF AND DUP2 MSTORE PUSH1 0x20 ADD PUSH1 0x1 ISZERO ISZERO DUP2 MSTORE PUSH1 0x20 ADD DUP4 DUP2 MSTORE PUSH1 0x20 ADD PUSH1 0x1 DUP2 MSTORE POP PUSH1 0x1 PUSH1 0x0 PUSH1 0x5 SLOAD DUP2 MSTORE PUSH1 0x20 ADD SWAP1 DUP2 MSTORE PUSH1 0x20 ADD PUSH1 0x0 KECCAK256 PUSH1 0x0 DUP3 ADD MLOAD DUP2 PUSH1 0x0 ADD SSTORE PUSH1 0x20 DUP3 ADD MLOAD DUP2 PUSH1 0x1 ADD PUSH1 0x0 PUSH2 0x100 EXP DUP2 SLOAD DUP2 PUSH20 0xFFFFFFFFFFFFFFFFFFFFFFFFFFFFFFFFFFFFFFFF MUL NOT AND SWAP1 DUP4 PUSH20 0xFFFFFFFFFFFFFFFFFFFFFFFFFFFFFFFFFFFFFFFF AND MUL OR SWAP1 SSTORE POP PUSH1 0x40 DUP3 ADD MLOAD DUP2 PUSH1 0x2 ADD SWAP1 DUP2 PUSH2 0x1055 SWAP2 SWAP1 PUSH2 0x361B JUMP JUMPDEST POP PUSH1 0x60 DUP3 ADD MLOAD DUP2 PUSH1 0x3 ADD PUSH1 0x0 PUSH2 0x100 EXP DUP2 SLOAD DUP2 PUSH1 0xFF MUL NOT AND SWAP1 DUP4 PUSH1 0x5 DUP2 GT ISZERO PUSH2 0x1081 JUMPI PUSH2 0x1080 PUSH2 0x274F JUMP JUMPDEST JUMPDEST MUL OR SWAP1 SSTORE POP PUSH1 0x80 DUP3 ADD MLOAD DUP2 PUSH1 0x4 ADD SSTORE PUSH1 0xA0 DUP3 ADD MLOAD DUP2 PUSH1 0x5 ADD PUSH1 0x0 PUSH2 0x100 EXP DUP2 SLOAD DUP2 PUSH20 0xFFFFFFFFFFFFFFFFFFFFFFFFFFFFFFFFFFFFFFFF MUL NOT AND SWAP1 DUP4 PUSH20 0xFFFFFFFFFFFFFFFFFFFFFFFFFFFFFFFFFFFFFFFF AND MUL OR SWAP1 SSTORE POP PUSH1 0xC0 DUP3 ADD MLOAD DUP2 PUSH1 0x5 ADD PUSH1 0x14 PUSH2 0x100 EXP DUP2 SLOAD DUP2 PUSH1 0xFF MUL NOT AND SWAP1 DUP4 ISZERO ISZERO MUL OR SWAP1 SSTORE POP PUSH1 0xE0 DUP3 ADD MLOAD DUP2 PUSH1 0x6 ADD SWAP1 DUP2 PUSH2 0x110C SWAP2 SWAP1 PUSH2 0x361B JUMP JUMPDEST POP PUSH2 0x100 DUP3 ADD MLOAD DUP2 PUSH1 0x7 ADD SSTORE SWAP1 POP POP PUSH1 0x0 DUP1 CALLER PUSH20 0xFFFFFFFFFFFFFFFFFFFFFFFFFFFFFFFFFFFFFFFF AND PUSH20 0xFFFFFFFFFFFFFFFFFFFFFFFFFFFFFFFFFFFFFFFF AND DUP2 MSTORE PUSH1 0x20 ADD SWAP1 DUP2 MSTORE PUSH1 0x20 ADD PUSH1 0x0 KECCAK256 PUSH1 0x5 SLOAD SWAP1 DUP1 PUSH1 0x1 DUP2 SLOAD ADD DUP1 DUP3 SSTORE DUP1 SWAP2 POP POP PUSH1 0x1 SWAP1 SUB SWAP1 PUSH1 0x0 MSTORE PUSH1 0x20 PUSH1 0x0 KECCAK256 ADD PUSH1 0x0 SWAP1 SWAP2 SWAP1 SWAP2 SWAP1 SWAP2 POP SSTORE CALLER PUSH20 0xFFFFFFFFFFFFFFFFFFFFFFFFFFFFFFFFFFFFFFFF AND PUSH1 0x5 SLOAD PUSH32 0x32B3188B62628AABF659CEBBAB10A599B539BCB0C01A891AB2E37B8BE315712E DUP7 DUP7 PUSH1 0x40 MLOAD PUSH2 0x11CD SWAP3 SWAP2 SWAP1 PUSH2 0x3735 JUMP JUMPDEST PUSH1 0x40 MLOAD DUP1 SWAP2 SUB SWAP1 LOG3 PUSH1 0x5 SLOAD SWAP1 POP SWAP4 SWAP3 POP POP POP JUMP JUMPDEST DUP3 CALLER PUSH20 0xFFFFFFFFFFFFFFFFFFFFFFFFFFFFFFFFFFFFFFFF AND PUSH1 0x1 PUSH1 0x0 DUP4 DUP2 MSTORE PUSH1 0x20 ADD SWAP1 DUP2 MSTORE PUSH1 0x20 ADD PUSH1 0x0 KECCAK256 PUSH1 0x1 ADD PUSH1 0x0 SWAP1 SLOAD SWAP1 PUSH2 0x100 EXP SWAP1 DIV PUSH20 0xFFFFFFFFFFFFFFFFFFFFFFFFFFFFFFFFFFFFFFFF AND PUSH20 0xFFFFFFFFFFFFFFFFFFFFFFFFFFFFFFFFFFFFFFFF AND EQ PUSH2 0x1286 JUMPI PUSH1 0x40 MLOAD PUSH32 0x8C379A000000000000000000000000000000000000000000000000000000000 DUP2 MSTORE PUSH1 0x4 ADD PUSH2 0x127D SWAP1 PUSH2 0x3136 JUMP JUMPDEST PUSH1 0x40 MLOAD DUP1 SWAP2 SUB SWAP1 REVERT JUMPDEST DUP4 PUSH1 0x0 DUP2 GT DUP1 ISZERO PUSH2 0x1299 JUMPI POP PUSH1 0x5 SLOAD DUP2 GT ISZERO JUMPDEST PUSH2 0x12D8 JUMPI PUSH1 0x40 MLOAD PUSH32 0x8C379A000000000000000000000000000000000000000000000000000000000 DUP2 MSTORE PUSH1 0x4 ADD PUSH2 0x12CF SWAP1 PUSH2 0x3202 JUMP JUMPDEST PUSH1 0x40 MLOAD DUP1 SWAP2 SUB SWAP1 REVERT JUMPDEST PUSH1 0x1 PUSH1 0x0 DUP3 DUP2 MSTORE PUSH1 0x20 ADD SWAP1 DUP2 MSTORE PUSH1 0x20 ADD PUSH1 0x0 KECCAK256 PUSH1 0x5 ADD PUSH1 0x14 SWAP1 SLOAD SWAP1 PUSH2 0x100 EXP SWAP1 DIV PUSH1 0xFF AND PUSH2 0x133B JUMPI PUSH1 0x40 MLOAD PUSH32 0x8C379A000000000000000000000000000000000000000000000000000000000 DUP2 MSTORE PUSH1 0x4 ADD PUSH2 0x1332 SWAP1 PUSH2 0x326E JUMP JUMPDEST PUSH1 0x40 MLOAD DUP1 SWAP2 SUB SWAP1 REVERT JUMPDEST PUSH1 0x0 PUSH1 0x1 PUSH1 0x0 DUP8 DUP2 MSTORE PUSH1 0x20 ADD SWAP1 DUP2 MSTORE PUSH1 0x20 ADD PUSH1 0x0 KECCAK256 SWAP1 POP DUP5 DUP2 PUSH1 0x2 ADD SWAP1 DUP2 PUSH2 0x1363 SWAP2 SWAP1 PUSH2 0x361B JUMP JUMPDEST POP DUP4 DUP2 PUSH1 0x6 ADD SWAP1 DUP2 PUSH2 0x1375 SWAP2 SWAP1 PUSH2 0x361B JUMP JUMPDEST POP DUP1 PUSH1 0x7 ADD PUSH1 0x0 DUP2 SLOAD DUP1 SWAP3 SWAP2 SWAP1 PUSH2 0x138B SWAP1 PUSH2 0x3427 JUMP JUMPDEST SWAP2 SWAP1 POP SSTORE POP DUP6 PUSH32 0x88D9E16504277BF999412471E756EEDF1AB2491C6A6399C9D349D3FEA6D70CF DUP7 DUP4 PUSH1 0x7 ADD SLOAD PUSH1 0x40 MLOAD PUSH2 0x13C6 SWAP3 SWAP2 SWAP1 PUSH2 0x37D1 JUMP JUMPDEST PUSH1 0x40 MLOAD DUP1 SWAP2 SUB SWAP1 LOG2 POP POP POP POP POP POP JUMP JUMPDEST DUP2 PUSH1 0x0 DUP2 GT DUP1 ISZERO PUSH2 0x13E9 JUMPI POP PUSH1 0x5 SLOAD DUP2 GT ISZERO JUMPDEST PUSH2 0x1428 JUMPI PUSH1 0x40 MLOAD PUSH32 0x8C379A000000000000000000000000000000000000000000000000000000000 DUP2 MSTORE PUSH1 0x4 ADD PUSH2 0x141F SWAP1 PUSH2 0x3202 JUMP JUMPDEST PUSH1 0x40 MLOAD DUP1 SWAP2 SUB SWAP1 REVERT JUMPDEST PUSH1 0x1 PUSH1 0x0 DUP3 DUP2 MSTORE PUSH1 0x20 ADD SWAP1 DUP2 MSTORE PUSH1 0x20 ADD PUSH1 0x0 KECCAK256 PUSH1 0x5 ADD PUSH1 0x14 SWAP1 SLOAD SWAP1 PUSH2 0x100 EXP SWAP1 DIV PUSH1 0xFF AND PUSH2 0x148B JUMPI PUSH1 0x40 MLOAD PUSH32 0x8C379A000000000000000000000000000000000000000000000000000000000 DUP2 MSTORE PUSH1 0x4 ADD PUSH2 0x1482 SWAP1 PUSH2 0x326E JUMP JUMPDEST PUSH1 0x40 MLOAD DUP1 SWAP2 SUB SWAP1 REVERT JUMPDEST DUP3 PUSH2 0x14CD PUSH1 0x1 PUSH1 0x0 DUP4 DUP2 MSTORE PUSH1 0x20 ADD SWAP1 DUP2 MSTORE PUSH1 0x20 ADD PUSH1 0x0 KECCAK256 PUSH1 0x1 ADD PUSH1 0x0 SWAP1 SLOAD SWAP1 PUSH2 0x100 EXP SWAP1 DIV PUSH20 0xFFFFFFFFFFFFFFFFFFFFFFFFFFFFFFFFFFFFFFFF AND CALLER DUP4 PUSH2 0x1E9E JUMP JUMPDEST PUSH2 0x150C JUMPI PUSH1 0x40 MLOAD PUSH32 0x8C379A000000000000000000000000000000000000000000000000000000000 DUP2 MSTORE PUSH1 0x4 ADD PUSH2 0x1503 SWAP1 PUSH2 0x3300 JUMP JUMPDEST PUSH1 0x40 MLOAD DUP1 SWAP2 SUB SWAP1 REVERT JUMPDEST PUSH1 0x3 PUSH1 0x0 DUP6 DUP2 MSTORE PUSH1 0x20 ADD SWAP1 DUP2 MSTORE PUSH1 0x20 ADD PUSH1 0x0 KECCAK256 PUSH1 0x40 MLOAD DUP1 PUSH1 0x60 ADD PUSH1 0x40 MSTORE DUP1 CALLER PUSH20 0xFFFFFFFFFFFFFFFFFFFFFFFFFFFFFFFFFFFFFFFF AND DUP2 MSTORE PUSH1 0x20 ADD TIMESTAMP DUP2 MSTORE PUSH1 0x20 ADD DUP6 DUP2 MSTORE POP SWAP1 DUP1 PUSH1 0x1 DUP2 SLOAD ADD DUP1 DUP3 SSTORE DUP1 SWAP2 POP POP PUSH1 0x1 SWAP1 SUB SWAP1 PUSH1 0x0 MSTORE PUSH1 0x20 PUSH1 0x0 KECCAK256 SWAP1 PUSH1 0x3 MUL ADD PUSH1 0x0 SWAP1 SWAP2 SWAP1 SWAP2 SWAP1 SWAP2 POP PUSH1 0x0 DUP3 ADD MLOAD DUP2 PUSH1 0x0 ADD PUSH1 0x0 PUSH2 0x100 EXP DUP2 SLOAD DUP2 PUSH20 0xFFFFFFFFFFFFFFFFFFFFFFFFFFFFFFFFFFFFFFFF MUL NOT AND SWAP1 DUP4 PUSH20 0xFFFFFFFFFFFFFFFFFFFFFFFFFFFFFFFFFFFFFFFF AND MUL OR SWAP1 SSTORE POP PUSH1 0x20 DUP3 ADD MLOAD DUP2 PUSH1 0x1 ADD SSTORE PUSH1 0x40 DUP3 ADD MLOAD DUP2 PUSH1 0x2 ADD SWAP1 DUP2 PUSH2 0x15DF SWAP2 SWAP1 PUSH2 0x361B JUMP JUMPDEST POP POP POP CALLER PUSH20 0xFFFFFFFFFFFFFFFFFFFFFFFFFFFFFFFFFFFFFFFF AND DUP5 PUSH32 0xDEC39EB35DC9CA96737E4515F8A70F5DB122E248213EE947B996E1F678AB05B8 TIMESTAMP PUSH1 0x40 MLOAD PUSH2 0x1629 SWAP2 SWAP1 PUSH2 0x28DE JUMP JUMPDEST PUSH1 0x40 MLOAD DUP1 SWAP2 SUB SWAP1 LOG3 POP POP POP POP JUMP JUMPDEST PUSH1 0x2 PUSH1 0x0 CALLER PUSH20 0xFFFFFFFFFFFFFFFFFFFFFFFFFFFFFFFFFFFFFFFF AND PUSH20 0xFFFFFFFFFFFFFFFFFFFFFFFFFFFFFFFFFFFFFFFF AND DUP2 MSTORE PUSH1 0x20 ADD SWAP1 DUP2 MSTORE PUSH1 0x20 ADD PUSH1 0x0 KECCAK256 PUSH1 0x0 DUP3 PUSH20 0xFFFFFFFFFFFFFFFFFFFFFFFFFFFFFFFFFFFFFFFF AND PUSH20 0xFFFFFFFFFFFFFFFFFFFFFFFFFFFFFFFFFFFFFFFF AND DUP2 MSTORE PUSH1 0x20 ADD SWAP1 DUP2 MSTORE PUSH1 0x20 ADD PUSH1 0x0 KECCAK256 PUSH1 0x3 ADD PUSH1 0x0 SWAP1 SLOAD SWAP1 PUSH2 0x100 EXP SWAP1 DIV PUSH1 0xFF AND PUSH2 0x1703 JUMPI PUSH1 0x40 MLOAD PUSH32 0x8C379A000000000000000000000000000000000000000000000000000000000 DUP2 MSTORE PUSH1 0x4 ADD PUSH2 0x16FA SWAP1 PUSH2 0x384D JUMP JUMPDEST PUSH1 0x40 MLOAD DUP1 SWAP2 SUB SWAP1 REVERT JUMPDEST PUSH1 0x0 PUSH1 0x2 PUSH1 0x0 CALLER PUSH20 0xFFFFFFFFFFFFFFFFFFFFFFFFFFFFFFFFFFFFFFFF AND PUSH20 0xFFFFFFFFFFFFFFFFFFFFFFFFFFFFFFFFFFFFFFFF AND DUP2 MSTORE PUSH1 0x20 ADD SWAP1 DUP2 MSTORE PUSH1 0x20 ADD PUSH1 0x0 KECCAK256 PUSH1 0x0 DUP4 PUSH20 0xFFFFFFFFFFFFFFFFFFFFFFFFFFFFFFFFFFFFFFFF AND PUSH20 0xFFFFFFFFFFFFFFFFFFFFFFFFFFFFFFFFFFFFFFFF AND DUP2 MSTORE PUSH1 0x20 ADD SWAP1 DUP2 MSTORE PUSH1 0x20 ADD PUSH1 0x0 KECCAK256 PUSH1 0x3 ADD PUSH1 0x0 PUSH2 0x100 EXP DUP2 SLOAD DUP2 PUSH1 0xFF MUL NOT AND SWAP1 DUP4 ISZERO ISZERO MUL OR SWAP1 SSTORE POP DUP1 PUSH20 0xFFFFFFFFFFFFFFFFFFFFFFFFFFFFFFFFFFFFFFFF AND CALLER PUSH20 0xFFFFFFFFFFFFFFFFFFFFFFFFFFFFFFFFFFFFFFFF AND PUSH32 0x825C8BE24EB0DF19500F63E86C29E7D0D951E73056B889B891D85E40938D9B6E PUSH1 0x40 MLOAD PUSH1 0x40 MLOAD DUP1 SWAP2 SUB SWAP1 LOG3 POP JUMP JUMPDEST PUSH2 0x1800 PUSH2 0x2413 JUMP JUMPDEST DUP3 PUSH20 0xFFFFFFFFFFFFFFFFFFFFFFFFFFFFFFFFFFFFFFFF AND CALLER PUSH20 0xFFFFFFFFFFFFFFFFFFFFFFFFFFFFFFFFFFFFFFFF AND EQ DUP1 PUSH2 0x1865 JUMPI POP DUP2 PUSH20 0xFFFFFFFFFFFFFFFFFFFFFFFFFFFFFFFFFFFFFFFF AND CALLER PUSH20 0xFFFFFFFFFFFFFFFFFFFFFFFFFFFFFFFFFFFFFFFF AND EQ JUMPDEST PUSH2 0x18A4 JUMPI PUSH1 0x40 MLOAD PUSH32 0x8C379A000000000000000000000000000000000000000000000000000000000 DUP2 MSTORE PUSH1 0x4 ADD PUSH2 0x189B SWAP1 PUSH2 0x37B1 JUMP JUMPDEST PUSH1 0x40 MLOAD DUP1 SWAP2 SUB SWAP1 REVERT JUMPDEST PUSH1 0x2 PUSH1 0x0 DUP5 PUSH20 0xFFFFFFFFFFFFFFFFFFFFFFFFFFFFFFFFFFFFFFFF AND PUSH20 0xFFFFFFFFFFFFFFFFFFFFFFFFFFFFFFFFFFFFFFFF AND DUP2 MSTORE PUSH1 0x20 ADD SWAP1 DUP2 MSTORE PUSH1 0x20 ADD PUSH1 0x0 KECCAK256 PUSH1 0x0 DUP4 PUSH20 0xFFFFFFFFFFFFFFFFFFFFFFFFFFFFFFFFFFFFFFFF AND PUSH20 0xFFFFFFFFFFFFFFFFFFFFFFFFFFFFFFFFFFFFFFFF AND DUP2 MSTORE PUSH1 0x20 ADD SWAP1 DUP2 MSTORE PUSH1 0x20 ADD PUSH1 0x0 KECCAK256 PUSH1 0x40 MLOAD DUP1 PUSH1 0xA0 ADD PUSH1 0x40 MSTORE SWAP1 DUP2 PUSH1 0x0 DUP3 ADD PUSH1 0x0 SWAP1 SLOAD SWAP1 PUSH2 0x100 EXP SWAP1 DIV PUSH20 0xFFFFFFFFFFFFFFFFFFFFFFFFFFFFFFFFFFFFFFFF AND PUSH20 0xFFFFFFFFFFFFFFFFFFFFFFFFFFFFFFFFFFFFFFFF AND PUSH20 0xFFFFFFFFFFFFFFFFFFFFFFFFFFFFFFFFFFFFFFFF AND DUP2 MSTORE PUSH1 0x20 ADD PUSH1 0x1 DUP3 ADD DUP1 SLOAD DUP1 PUSH1 0x20 MUL PUSH1 0x20 ADD PUSH1 0x40 MLOAD SWAP1 DUP2 ADD PUSH1 0x40 MSTORE DUP1 SWAP3 SWAP2 SWAP1 DUP2 DUP2 MSTORE PUSH1 0x20 ADD DUP3 DUP1 SLOAD DUP1 ISZERO PUSH2 0x19D0 JUMPI PUSH1 0x20 MUL DUP3 ADD SWAP2 SWAP1 PUSH1 0x0 MSTORE PUSH1 0x20 PUSH1 0x0 KECCAK256 SWAP1 JUMPDEST DUP2 SLOAD DUP2 MSTORE PUSH1 0x20 ADD SWAP1 PUSH1 0x1 ADD SWAP1 DUP1 DUP4 GT PUSH2 0x19BC JUMPI JUMPDEST POP POP POP POP POP DUP2 MSTORE PUSH1 0x20 ADD PUSH1 0x2 DUP3 ADD SLOAD DUP2 MSTORE PUSH1 0x20 ADD PUSH1 0x3 DUP3 ADD PUSH1 0x0 SWAP1 SLOAD SWAP1 PUSH2 0x100 EXP SWAP1 DIV PUSH1 0xFF AND ISZERO ISZERO ISZERO ISZERO DUP2 MSTORE PUSH1 0x20 ADD PUSH1 0x4 DUP3 ADD SLOAD DUP2 MSTORE POP POP SWAP1 POP SWAP3 SWAP2 POP POP JUMP JUMPDEST PUSH1 0x0 PUSH20 0xFFFFFFFFFFFFFFFFFFFFFFFFFFFFFFFFFFFFFFFF AND DUP2 PUSH20 0xFFFFFFFFFFFFFFFFFFFFFFFFFFFFFFFFFFFFFFFF AND SUB PUSH2 0x1A7F JUMPI PUSH1 0x40 MLOAD PUSH32 0x8C379A000000000000000000000000000000000000000000000000000000000 DUP2 MSTORE PUSH1 0x4 ADD PUSH2 0x1A76 SWAP1 PUSH2 0x38B9 JUMP JUMPDEST PUSH1 0x40 MLOAD DUP1 SWAP2 SUB SWAP1 REVERT JUMPDEST DUP1 PUSH1 0x4 PUSH1 0x0 CALLER PUSH20 0xFFFFFFFFFFFFFFFFFFFFFFFFFFFFFFFFFFFFFFFF AND PUSH20 0xFFFFFFFFFFFFFFFFFFFFFFFFFFFFFFFFFFFFFFFF AND DUP2 MSTORE PUSH1 0x20 ADD SWAP1 DUP2 MSTORE PUSH1 0x20 ADD PUSH1 0x0 KECCAK256 PUSH1 0x0 PUSH2 0x100 EXP DUP2 SLOAD DUP2 PUSH20 0xFFFFFFFFFFFFFFFFFFFFFFFFFFFFFFFFFFFFFFFF MUL NOT AND SWAP1 DUP4 PUSH20 0xFFFFFFFFFFFFFFFFFFFFFFFFFFFFFFFFFFFFFFFF AND MUL OR SWAP1 SSTORE POP POP JUMP JUMPDEST PUSH1 0x0 PUSH20 0xFFFFFFFFFFFFFFFFFFFFFFFFFFFFFFFFFFFFFFFF AND DUP4 PUSH20 0xFFFFFFFFFFFFFFFFFFFFFFFFFFFFFFFFFFFFFFFF AND SUB PUSH2 0x1B6F JUMPI PUSH1 0x40 MLOAD PUSH32 0x8C379A000000000000000000000000000000000000000000000000000000000 DUP2 MSTORE PUSH1 0x4 ADD PUSH2 0x1B66 SWAP1 PUSH2 0x38B9 JUMP JUMPDEST PUSH1 0x40 MLOAD DUP1 SWAP2 SUB SWAP1 REVERT JUMPDEST PUSH1 0x0 DUP3 MLOAD GT PUSH2 0x1BB3 JUMPI PUSH1 0x40 MLOAD PUSH32 0x8C379A000000000000000000000000000000000000000000000000000000000 DUP2 MSTORE PUSH1 0x4 ADD PUSH2 0x1BAA SWAP1 PUSH2 0x394B JUMP JUMPDEST PUSH1 0x40 MLOAD DUP1 SWAP2 SUB SWAP1 REVERT JUMPDEST PUSH1 0x0 JUMPDEST DUP3 MLOAD DUP2 LT ISZERO PUSH2 0x1C8A JUMPI CALLER PUSH20 0xFFFFFFFFFFFFFFFFFFFFFFFFFFFFFFFFFFFFFFFF AND PUSH1 0x1 PUSH1 0x0 DUP6 DUP5 DUP2 MLOAD DUP2 LT PUSH2 0x1BED JUMPI PUSH2 0x1BEC PUSH2 0x396B JUMP JUMPDEST JUMPDEST PUSH1 0x20 MUL PUSH1 0x20 ADD ADD MLOAD DUP2 MSTORE PUSH1 0x20 ADD SWAP1 DUP2 MSTORE PUSH1 0x20 ADD PUSH1 0x0 KECCAK256 PUSH1 0x1 ADD PUSH1 0x0 SWAP1 SLOAD SWAP1 PUSH2 0x100 EXP SWAP1 DIV PUSH20 0xFFFFFFFFFFFFFFFFFFFFFFFFFFFFFFFFFFFFFFFF AND PUSH20 0xFFFFFFFFFFFFFFFFFFFFFFFFFFFFFFFFFFFFFFFF AND EQ PUSH2 0x1C7D JUMPI PUSH1 0x40 MLOAD PUSH32 0x8C379A000000000000000000000000000000000000000000000000000000000 DUP2 MSTORE PUSH1 0x4 ADD PUSH2 0x1C74 SWAP1 PUSH2 0x3A0C JUMP JUMPDEST PUSH1 0x40 MLOAD DUP1 SWAP2 SUB SWAP1 REVERT JUMPDEST DUP1 DUP1 PUSH1 0x1 ADD SWAP2 POP POP PUSH2 0x1BB6 JUMP JUMPDEST POP PUSH1 0x0 PUSH3 0x15180 DUP3 PUSH2 0x1C9C SWAP2 SWAP1 PUSH2 0x3A2C JUMP JUMPDEST TIMESTAMP PUSH2 0x1CA7 SWAP2 SWAP1 PUSH2 0x3A6E JUMP JUMPDEST SWAP1 POP PUSH1 0x40 MLOAD DUP1 PUSH1 0xA0 ADD PUSH1 0x40 MSTORE DUP1 DUP6 PUSH20 0xFFFFFFFFFFFFFFFFFFFFFFFFFFFFFFFFFFFFFFFF AND DUP2 MSTORE PUSH1 0x20 ADD DUP5 DUP2 MSTORE PUSH1 0x20 ADD DUP3 DUP2 MSTORE PUSH1 0x20 ADD PUSH1 0x1 ISZERO ISZERO DUP2 MSTORE PUSH1 0x20 ADD TIMESTAMP DUP2 MSTORE POP PUSH1 0x2 PUSH1 0x0 CALLER PUSH20 0xFFFFFFFFFFFFFFFFFFFFFFFFFFFFFFFFFFFFFFFF AND PUSH20 0xFFFFFFFFFFFFFFFFFFFFFFFFFFFFFFFFFFFFFFFF AND DUP2 MSTORE PUSH1 0x20 ADD SWAP1 DUP2 MSTORE PUSH1 0x20 ADD PUSH1 0x0 KECCAK256 PUSH1 0x0 DUP7 PUSH20 0xFFFFFFFFFFFFFFFFFFFFFFFFFFFFFFFFFFFFFFFF AND PUSH20 0xFFFFFFFFFFFFFFFFFFFFFFFFFFFFFFFFFFFFFFFF AND DUP2 MSTORE PUSH1 0x20 ADD SWAP1 DUP2 MSTORE PUSH1 0x20 ADD PUSH1 0x0 KECCAK256 PUSH1 0x0 DUP3 ADD MLOAD DUP2 PUSH1 0x0 ADD PUSH1 0x0 PUSH2 0x100 EXP DUP2 SLOAD DUP2 PUSH20 0xFFFFFFFFFFFFFFFFFFFFFFFFFFFFFFFFFFFFFFFF MUL NOT AND SWAP1 DUP4 PUSH20 0xFFFFFFFFFFFFFFFFFFFFFFFFFFFFFFFFFFFFFFFF AND MUL OR SWAP1 SSTORE POP PUSH1 0x20 DUP3 ADD MLOAD DUP2 PUSH1 0x1 ADD SWAP1 DUP1 MLOAD SWAP1 PUSH1 0x20 ADD SWAP1 PUSH2 0x1DC8 SWAP3 SWAP2 SWAP1 PUSH2 0x245A JUMP JUMPDEST POP PUSH1 0x40 DUP3 ADD MLOAD DUP2 PUSH1 0x2 ADD SSTORE PUSH1 0x60 DUP3 ADD MLOAD DUP2 PUSH1 0x3 ADD PUSH1 0x0 PUSH2 0x100 EXP DUP2 SLOAD DUP2 PUSH1 0xFF MUL NOT AND SWAP1 DUP4 ISZERO ISZERO MUL OR SWAP1 SSTORE POP PUSH1 0x80 DUP3 ADD MLOAD DUP2 PUSH1 0x4 ADD SSTORE SWAP1 POP POP DUP4 PUSH20 0xFFFFFFFFFFFFFFFFFFFFFFFFFFFFFFFFFFFFFFFF AND CALLER PUSH20 0xFFFFFFFFFFFFFFFFFFFFFFFFFFFFFFFFFFFFFFFF AND PUSH32 0x65D0CC1E52D49938CA4AD9F423C79C1B84D914B9A683FBC5D3F93AC3CC5635F5 DUP4 PUSH1 0x40 MLOAD PUSH2 0x1E5D SWAP2 SWAP1 PUSH2 0x28DE JUMP JUMPDEST PUSH1 0x40 MLOAD DUP1 SWAP2 SUB SWAP1 LOG3 POP POP POP POP JUMP JUMPDEST PUSH1 0x4 PUSH1 0x20 MSTORE DUP1 PUSH1 0x0 MSTORE PUSH1 0x40 PUSH1 0x0 KECCAK256 PUSH1 0x0 SWAP2 POP SLOAD SWAP1 PUSH2 0x100 EXP SWAP1 DIV PUSH20 0xFFFFFFFFFFFFFFFFFFFFFFFFFFFFFFFFFFFFFFFF AND DUP2 JUMP JUMPDEST PUSH1 0x0 DUP3 PUSH20 0xFFFFFFFFFFFFFFFFFFFFFFFFFFFFFFFFFFFFFFFF AND DUP5 PUSH20 0xFFFFFFFFFFFFFFFFFFFFFFFFFFFFFFFFFFFFFFFF AND SUB PUSH2 0x1EDC JUMPI PUSH1 0x1 SWAP1 POP PUSH2 0x215C JUMP JUMPDEST DUP3 PUSH20 0xFFFFFFFFFFFFFFFFFFFFFFFFFFFFFFFFFFFFFFFF AND PUSH1 0x4 PUSH1 0x0 DUP7 PUSH20 0xFFFFFFFFFFFFFFFFFFFFFFFFFFFFFFFFFFFFFFFF AND PUSH20 0xFFFFFFFFFFFFFFFFFFFFFFFFFFFFFFFFFFFFFFFF AND DUP2 MSTORE PUSH1 0x20 ADD SWAP1 DUP2 MSTORE PUSH1 0x20 ADD PUSH1 0x0 KECCAK256 PUSH1 0x0 SWAP1 SLOAD SWAP1 PUSH2 0x100 EXP SWAP1 DIV PUSH20 0xFFFFFFFFFFFFFFFFFFFFFFFFFFFFFFFFFFFFFFFF AND PUSH20 0xFFFFFFFFFFFFFFFFFFFFFFFFFFFFFFFFFFFFFFFF AND SUB PUSH2 0x1F77 JUMPI PUSH1 0x1 SWAP1 POP PUSH2 0x215C JUMP JUMPDEST PUSH1 0x0 PUSH1 0x2 PUSH1 0x0 DUP7 PUSH20 0xFFFFFFFFFFFFFFFFFFFFFFFFFFFFFFFFFFFFFFFF AND PUSH20 0xFFFFFFFFFFFFFFFFFFFFFFFFFFFFFFFFFFFFFFFF AND DUP2 MSTORE PUSH1 0x20 ADD SWAP1 DUP2 MSTORE PUSH1 0x20 ADD PUSH1 0x0 KECCAK256 PUSH1 0x0 DUP6 PUSH20 0xFFFFFFFFFFFFFFFFFFFFFFFFFFFFFFFFFFFFFFFF AND PUSH20 0xFFFFFFFFFFFFFFFFFFFFFFFFFFFFFFFFFFFFFFFF AND DUP2 MSTORE PUSH1 0x20 ADD SWAP1 DUP2 MSTORE PUSH1 0x20 ADD PUSH1 0x0 KECCAK256 PUSH1 0x40 MLOAD DUP1 PUSH1 0xA0 ADD PUSH1 0x40 MSTORE SWAP1 DUP2 PUSH1 0x0 DUP3 ADD PUSH1 0x0 SWAP1 SLOAD SWAP1 PUSH2 0x100 EXP SWAP1 DIV PUSH20 0xFFFFFFFFFFFFFFFFFFFFFFFFFFFFFFFFFFFFFFFF AND PUSH20 0xFFFFFFFFFFFFFFFFFFFFFFFFFFFFFFFFFFFFFFFF AND PUSH20 0xFFFFFFFFFFFFFFFFFFFFFFFFFFFFFFFFFFFFFFFF AND DUP2 MSTORE PUSH1 0x20 ADD PUSH1 0x1 DUP3 ADD DUP1 SLOAD DUP1 PUSH1 0x20 MUL PUSH1 0x20 ADD PUSH1 0x40 MLOAD SWAP1 DUP2 ADD PUSH1 0x40 MSTORE DUP1 SWAP3 SWAP2 SWAP1 DUP2 DUP2 MSTORE PUSH1 0x20 ADD DUP3 DUP1 SLOAD DUP1 ISZERO PUSH2 0x20A5 JUMPI PUSH1 0x20 MUL DUP3 ADD SWAP2 SWAP1 PUSH1 0x0 MSTORE PUSH1 0x20 PUSH1 0x0 KECCAK256 SWAP1 JUMPDEST DUP2 SLOAD DUP2 MSTORE PUSH1 0x20 ADD SWAP1 PUSH1 0x1 ADD SWAP1 DUP1 DUP4 GT PUSH2 0x2091 JUMPI JUMPDEST POP POP POP POP POP DUP2 MSTORE PUSH1 0x20 ADD PUSH1 0x2 DUP3 ADD SLOAD DUP2 MSTORE PUSH1 0x20 ADD PUSH1 0x3 DUP3 ADD PUSH1 0x0 SWAP1 SLOAD SWAP1 PUSH2 0x100 EXP SWAP1 DIV PUSH1 0xFF AND ISZERO ISZERO ISZERO ISZERO DUP2 MSTORE PUSH1 0x20 ADD PUSH1 0x4 DUP3 ADD SLOAD DUP2 MSTORE POP POP SWAP1 POP DUP1 PUSH1 0x60 ADD MLOAD PUSH2 0x20F2 JUMPI PUSH1 0x0 SWAP2 POP POP PUSH2 0x215C JUMP JUMPDEST DUP1 PUSH1 0x40 ADD MLOAD TIMESTAMP GT ISZERO PUSH2 0x2108 JUMPI PUSH1 0x0 SWAP2 POP POP PUSH2 0x215C JUMP JUMPDEST PUSH1 0x0 JUMPDEST DUP2 PUSH1 0x20 ADD MLOAD MLOAD DUP2 LT ISZERO PUSH2 0x2155 JUMPI DUP4 DUP3 PUSH1 0x20 ADD MLOAD DUP3 DUP2 MLOAD DUP2 LT PUSH2 0x2130 JUMPI PUSH2 0x212F PUSH2 0x396B JUMP JUMPDEST JUMPDEST PUSH1 0x20 MUL PUSH1 0x20 ADD ADD MLOAD SUB PUSH2 0x2148 JUMPI PUSH1 0x1 SWAP3 POP POP POP PUSH2 0x215C JUMP JUMPDEST DUP1 DUP1 PUSH1 0x1 ADD SWAP2 POP POP PUSH2 0x210B JUMP JUMPDEST POP PUSH1 0x0 SWAP2 POP POP JUMPDEST SWAP4 SWAP3 POP POP POP JUMP JUMPDEST PUSH1 0x0 DUP2 PUSH20 0xFFFFFFFFFFFFFFFFFFFFFFFFFFFFFFFFFFFFFFFF AND PUSH1 0x4 PUSH1 0x0 DUP6 PUSH20 0xFFFFFFFFFFFFFFFFFFFFFFFFFFFFFFFFFFFFFFFF AND PUSH20 0xFFFFFFFFFFFFFFFFFFFFFFFFFFFFFFFFFFFFFFFF AND DUP2 MSTORE PUSH1 0x20 ADD SWAP1 DUP2 MSTORE PUSH1 0x20 ADD PUSH1 0x0 KECCAK256 PUSH1 0x0 SWAP1 SLOAD SWAP1 PUSH2 0x100 EXP SWAP1 DIV PUSH20 0xFFFFFFFFFFFFFFFFFFFFFFFFFFFFFFFFFFFFFFFF AND PUSH20 0xFFFFFFFFFFFFFFFFFFFFFFFFFFFFFFFFFFFFFFFF AND SUB PUSH2 0x2200 JUMPI PUSH1 0x1 SWAP1 POP PUSH2 0x2381 JUMP JUMPDEST PUSH1 0x0 PUSH1 0x2 PUSH1 0x0 DUP6 PUSH20 0xFFFFFFFFFFFFFFFFFFFFFFFFFFFFFFFFFFFFFFFF AND PUSH20 0xFFFFFFFFFFFFFFFFFFFFFFFFFFFFFFFFFFFFFFFF AND DUP2 MSTORE PUSH1 0x20 ADD SWAP1 DUP2 MSTORE PUSH1 0x20 ADD PUSH1 0x0 KECCAK256 PUSH1 0x0 DUP5 PUSH20 0xFFFFFFFFFFFFFFFFFFFFFFFFFFFFFFFFFFFFFFFF AND PUSH20 0xFFFFFFFFFFFFFFFFFFFFFFFFFFFFFFFFFFFFFFFF AND DUP2 MSTORE PUSH1 0x20 ADD SWAP1 DUP2 MSTORE PUSH1 0x20 ADD PUSH1 0x0 KECCAK256 PUSH1 0x40 MLOAD DUP1 PUSH1 0xA0 ADD PUSH1 0x40 MSTORE SWAP1 DUP2 PUSH1 0x0 DUP3 ADD PUSH1 0x0 SWAP1 SLOAD SWAP1 PUSH2 0x100 EXP SWAP1 DIV PUSH20 0xFFFFFFFFFFFFFFFFFFFFFFFFFFFFFFFFFFFFFFFF AND PUSH20 0xFFFFFFFFFFFFFFFFFFFFFFFFFFFFFFFFFFFFFFFF AND PUSH20 0xFFFFFFFFFFFFFFFFFFFFFFFFFFFFFFFFFFFFFFFF AND DUP2 MSTORE PUSH1 0x20 ADD PUSH1 0x1 DUP3 ADD DUP1 SLOAD DUP1 PUSH1 0x20 MUL PUSH1 0x20 ADD PUSH1 0x40 MLOAD SWAP1 DUP2 ADD PUSH1 0x40 MSTORE DUP1 SWAP3 SWAP2 SWAP1 DUP2 DUP2 MSTORE PUSH1 0x20 ADD DUP3 DUP1 SLOAD DUP1 ISZERO PUSH2 0x232E JUMPI PUSH1 0x20 MUL DUP3 ADD SWAP2 SWAP1 PUSH1 0x0 MSTORE PUSH1 0x20 PUSH1 0x0 KECCAK256 SWAP1 JUMPDEST DUP2 SLOAD DUP2 MSTORE PUSH1 0x20 ADD SWAP1 PUSH1 0x1 ADD SWAP1 DUP1 DUP4 GT PUSH2 0x231A JUMPI JUMPDEST POP POP POP POP POP DUP2 MSTORE PUSH1 0x20 ADD PUSH1 0x2 DUP3 ADD SLOAD DUP2 MSTORE PUSH1 0x20 ADD PUSH1 0x3 DUP3 ADD PUSH1 0x0 SWAP1 SLOAD SWAP1 PUSH2 0x100 EXP SWAP1 DIV PUSH1 0xFF AND ISZERO ISZERO ISZERO ISZERO DUP2 MSTORE PUSH1 0x20 ADD PUSH1 0x4 DUP3 ADD SLOAD DUP2 MSTORE POP POP SWAP1 POP DUP1 PUSH1 0x60 ADD MLOAD DUP1 ISZERO PUSH2 0x237D JUMPI POP DUP1 PUSH1 0x40 ADD MLOAD TIMESTAMP GT ISZERO JUMPDEST SWAP2 POP POP JUMPDEST SWAP3 SWAP2 POP POP JUMP JUMPDEST PUSH1 0x40 MLOAD DUP1 PUSH2 0x120 ADD PUSH1 0x40 MSTORE DUP1 PUSH1 0x0 DUP2 MSTORE PUSH1 0x20 ADD PUSH1 0x0 PUSH20 0xFFFFFFFFFFFFFFFFFFFFFFFFFFFFFFFFFFFFFFFF AND DUP2 MSTORE PUSH1 0x20 ADD PUSH1 0x60 DUP2 MSTORE PUSH1 0x20 ADD PUSH1 0x0 PUSH1 0x5 DUP2 GT ISZERO PUSH2 0x23D2 JUMPI PUSH2 0x23D1 PUSH2 0x274F JUMP JUMPDEST JUMPDEST DUP2 MSTORE PUSH1 0x20 ADD PUSH1 0x0 DUP2 MSTORE PUSH1 0x20 ADD PUSH1 0x0 PUSH20 0xFFFFFFFFFFFFFFFFFFFFFFFFFFFFFFFFFFFFFFFF AND DUP2 MSTORE PUSH1 0x20 ADD PUSH1 0x0 ISZERO ISZERO DUP2 MSTORE PUSH1 0x20 ADD PUSH1 0x60 DUP2 MSTORE PUSH1 0x20 ADD PUSH1 0x0 DUP2 MSTORE POP SWAP1 JUMP JUMPDEST PUSH1 0x40 MLOAD DUP1 PUSH1 0xA0 ADD PUSH1 0x40 MSTORE DUP1 PUSH1 0x0 PUSH20 0xFFFFFFFFFFFFFFFFFFFFFFFFFFFFFFFFFFFFFFFF AND DUP2 MSTORE PUSH1 0x20 ADD PUSH1 0x60 DUP2 MSTORE PUSH1 0x20 ADD PUSH1 0x0 DUP2 MSTORE PUSH1 0x20 ADD PUSH1 0x0 ISZERO ISZERO DUP2 MSTORE PUSH1 0x20 ADD PUSH1 0x0 DUP2 MSTORE POP SWAP1 JUMP JUMPDEST DUP3 DUP1 SLOAD DUP3 DUP3 SSTORE SWAP1 PUSH1 0x0 MSTORE PUSH1 0x20 PUSH1 0x0 KECCAK256 SWAP1 DUP2 ADD SWAP3 DUP3 ISZERO PUSH2 0x2496 JUMPI SWAP2 PUSH1 0x20 MUL DUP3 ADD JUMPDEST DUP3 DUP2 GT ISZERO PUSH2 0x2495 JUMPI DUP3 MLOAD DUP3 SSTORE SWAP2 PUSH1 0x20 ADD SWAP2 SWAP1 PUSH1 0x1 ADD SWAP1 PUSH2 0x247A JUMP JUMPDEST JUMPDEST POP SWAP1 POP PUSH2 0x24A3 SWAP2 SWAP1 PUSH2 0x24A7 JUMP JUMPDEST POP SWAP1 JUMP JUMPDEST JUMPDEST DUP1 DUP3 GT ISZERO PUSH2 0x24C0 JUMPI PUSH1 0x0 DUP2 PUSH1 0x0 SWAP1 SSTORE POP PUSH1 0x1 ADD PUSH2 0x24A8 JUMP JUMPDEST POP SWAP1 JUMP JUMPDEST PUSH1 0x0 PUSH1 0x40 MLOAD SWAP1 POP SWAP1 JUMP JUMPDEST PUSH1 0x0 DUP1 REVERT JUMPDEST PUSH1 0x0 DUP1 REVERT JUMPDEST PUSH1 0x0 DUP2 SWAP1 POP SWAP2 SWAP1 POP JUMP JUMPDEST PUSH2 0x24EB DUP2 PUSH2 0x24D8 JUMP JUMPDEST DUP2 EQ PUSH2 0x24F6 JUMPI PUSH1 0x0 DUP1 REVERT JUMPDEST POP JUMP JUMPDEST PUSH1 0x0 DUP2 CALLDATALOAD SWAP1 POP PUSH2 0x2508 DUP2 PUSH2 0x24E2 JUMP JUMPDEST SWAP3 SWAP2 POP POP JUMP JUMPDEST PUSH1 0x0 PUSH1 0x20 DUP3 DUP5 SUB SLT ISZERO PUSH2 0x2524 JUMPI PUSH2 0x2523 PUSH2 0x24CE JUMP JUMPDEST JUMPDEST PUSH1 0x0 PUSH2 0x2532 DUP5 DUP3 DUP6 ADD PUSH2 0x24F9 JUMP JUMPDEST SWAP2 POP POP SWAP3 SWAP2 POP POP JUMP JUMPDEST PUSH1 0x0 DUP2 MLOAD SWAP1 POP SWAP2 SWAP1 POP JUMP JUMPDEST PUSH1 0x0 DUP3 DUP3 MSTORE PUSH1 0x20 DUP3 ADD SWAP1 POP SWAP3 SWAP2 POP POP JUMP JUMPDEST PUSH1 0x0 DUP2 SWAP1 POP PUSH1 0x20 DUP3 ADD SWAP1 POP SWAP2 SWAP1 POP JUMP JUMPDEST PUSH1 0x0 PUSH20 0xFFFFFFFFFFFFFFFFFFFFFFFFFFFFFFFFFFFFFFFF DUP3 AND SWAP1 POP SWAP2 SWAP1 POP JUMP JUMPDEST PUSH1 0x0 PUSH2 0x2592 DUP3 PUSH2 0x2567 JUMP JUMPDEST SWAP1 POP SWAP2 SWAP1 POP JUMP JUMPDEST PUSH2 0x25A2 DUP2 PUSH2 0x2587 JUMP JUMPDEST DUP3 MSTORE POP POP JUMP JUMPDEST PUSH2 0x25B1 DUP2 PUSH2 0x24D8 JUMP JUMPDEST DUP3 MSTORE POP POP JUMP JUMPDEST PUSH1 0x0 DUP2 MLOAD SWAP1 POP SWAP2 SWAP1 POP JUMP JUMPDEST PUSH1 0x0 DUP3 DUP3 MSTORE PUSH1 0x20 DUP3 ADD SWAP1 POP SWAP3 SWAP2 POP POP JUMP JUMPDEST PUSH1 0x0 JUMPDEST DUP4 DUP2 LT ISZERO PUSH2 0x25F1 JUMPI DUP1 DUP3 ADD MLOAD DUP2 DUP5 ADD MSTORE PUSH1 0x20 DUP2 ADD SWAP1 POP PUSH2 0x25D6 JUMP JUMPDEST PUSH1 0x0 DUP5 DUP5 ADD MSTORE POP POP POP POP JUMP JUMPDEST PUSH1 0x0 PUSH1 0x1F NOT PUSH1 0x1F DUP4 ADD AND SWAP1 POP SWAP2 SWAP1 POP JUMP JUMPDEST PUSH1 0x0 PUSH2 0x2619 DUP3 PUSH2 0x25B7 JUMP JUMPDEST PUSH2 0x2623 DUP2 DUP6 PUSH2 0x25C2 JUMP JUMPDEST SWAP4 POP PUSH2 0x2633 DUP2 DUP6 PUSH1 0x20 DUP7 ADD PUSH2 0x25D3 JUMP JUMPDEST PUSH2 0x263C DUP2 PUSH2 0x25FD JUMP JUMPDEST DUP5 ADD SWAP2 POP POP SWAP3 SWAP2 POP POP JUMP JUMPDEST PUSH1 0x0 PUSH1 0x60 DUP4 ADD PUSH1 0x0 DUP4 ADD MLOAD PUSH2 0x265F PUSH1 0x0 DUP7 ADD DUP3 PUSH2 0x2599 JUMP JUMPDEST POP PUSH1 0x20 DUP4 ADD MLOAD PUSH2 0x2672 PUSH1 0x20 DUP7 ADD DUP3 PUSH2 0x25A8 JUMP JUMPDEST POP PUSH1 0x40 DUP4 ADD MLOAD DUP5 DUP3 SUB PUSH1 0x40 DUP7 ADD MSTORE PUSH2 0x268A DUP3 DUP3 PUSH2 0x260E JUMP JUMPDEST SWAP2 POP POP DUP1 SWAP2 POP POP SWAP3 SWAP2 POP POP JUMP JUMPDEST PUSH1 0x0 PUSH2 0x26A3 DUP4 DUP4 PUSH2 0x2647 JUMP JUMPDEST SWAP1 POP SWAP3 SWAP2 POP POP JUMP JUMPDEST PUSH1 0x0 PUSH1 0x20 DUP3 ADD SWAP1 POP SWAP2 SWAP1 POP JUMP JUMPDEST PUSH1 0x0 PUSH2 0x26C3 DUP3 PUSH2 0x253B JUMP JUMPDEST PUSH2 0x26CD DUP2 DUP6 PUSH2 0x2546 JUMP JUMPDEST SWAP4 POP DUP4 PUSH1 0x20 DUP3 MUL DUP6 ADD PUSH2 0x26DF DUP6 PUSH2 0x2557 JUMP JUMPDEST DUP1 PUSH1 0x0 JUMPDEST DUP6 DUP2 LT ISZERO PUSH2 0x271B JUMPI DUP5 DUP5 SUB DUP10 MSTORE DUP2 MLOAD PUSH2 0x26FC DUP6 DUP3 PUSH2 0x2697 JUMP JUMPDEST SWAP5 POP PUSH2 0x2707 DUP4 PUSH2 0x26AB JUMP JUMPDEST SWAP3 POP PUSH1 0x20 DUP11 ADD SWAP10 POP POP PUSH1 0x1 DUP2 ADD SWAP1 POP PUSH2 0x26E3 JUMP JUMPDEST POP DUP3 SWAP8 POP DUP8 SWAP6 POP POP POP POP POP POP SWAP3 SWAP2 POP POP JUMP JUMPDEST PUSH1 0x0 PUSH1 0x20 DUP3 ADD SWAP1 POP DUP2 DUP2 SUB PUSH1 0x0 DUP4 ADD MSTORE PUSH2 0x2747 DUP2 DUP5 PUSH2 0x26B8 JUMP JUMPDEST SWAP1 POP SWAP3 SWAP2 POP POP JUMP JUMPDEST PUSH32 0x4E487B7100000000000000000000000000000000000000000000000000000000 PUSH1 0x0 MSTORE PUSH1 0x21 PUSH1 0x4 MSTORE PUSH1 0x24 PUSH1 0x0 REVERT JUMPDEST PUSH1 0x6 DUP2 LT PUSH2 0x278F JUMPI PUSH2 0x278E PUSH2 0x274F JUMP JUMPDEST JUMPDEST POP JUMP JUMPDEST PUSH1 0x0 DUP2 SWAP1 POP PUSH2 0x27A0 DUP3 PUSH2 0x277E JUMP JUMPDEST SWAP2 SWAP1 POP JUMP JUMPDEST PUSH1 0x0 PUSH2 0x27B0 DUP3 PUSH2 0x2792 JUMP JUMPDEST SWAP1 POP SWAP2 SWAP1 POP JUMP JUMPDEST PUSH2 0x27C0 DUP2 PUSH2 0x27A5 JUMP JUMPDEST DUP3 MSTORE POP POP JUMP JUMPDEST PUSH1 0x0 DUP2 ISZERO ISZERO SWAP1 POP SWAP2 SWAP1 POP JUMP JUMPDEST PUSH2 0x27DB DUP2 PUSH2 0x27C6 JUMP JUMPDEST DUP3 MSTORE POP POP JUMP JUMPDEST PUSH1 0x0 PUSH2 0x120 DUP4 ADD PUSH1 0x0 DUP4 ADD MLOAD PUSH2 0x27FA PUSH1 0x0 DUP7 ADD DUP3 PUSH2 0x25A8 JUMP JUMPDEST POP PUSH1 0x20 DUP4 ADD MLOAD PUSH2 0x280D PUSH1 0x20 DUP7 ADD DUP3 PUSH2 0x2599 JUMP JUMPDEST POP PUSH1 0x40 DUP4 ADD MLOAD DUP5 DUP3 SUB PUSH1 0x40 DUP7 ADD MSTORE PUSH2 0x2825 DUP3 DUP3 PUSH2 0x260E JUMP JUMPDEST SWAP2 POP POP PUSH1 0x60 DUP4 ADD MLOAD PUSH2 0x283A PUSH1 0x60 DUP7 ADD DUP3 PUSH2 0x27B7 JUMP JUMPDEST POP PUSH1 0x80 DUP4 ADD MLOAD PUSH2 0x284D PUSH1 0x80 DUP7 ADD DUP3 PUSH2 0x25A8 JUMP JUMPDEST POP PUSH1 0xA0 DUP4 ADD MLOAD PUSH2 0x2860 PUSH1 0xA0 DUP7 ADD DUP3 PUSH2 0x2599 JUMP JUMPDEST POP PUSH1 0xC0 DUP4 ADD MLOAD PUSH2 0x2873 PUSH1 0xC0 DUP7 ADD DUP3 PUSH2 0x27D2 JUMP JUMPDEST POP PUSH1 0xE0 DUP4 ADD MLOAD DUP5 DUP3 SUB PUSH1 0xE0 DUP7 ADD MSTORE PUSH2 0x288B DUP3 DUP3 PUSH2 0x260E JUMP JUMPDEST SWAP2 POP POP PUSH2 0x100 DUP4 ADD MLOAD PUSH2 0x28A2 PUSH2 0x100 DUP7 ADD DUP3 PUSH2 0x25A8 JUMP JUMPDEST POP DUP1 SWAP2 POP POP SWAP3 SWAP2 POP POP JUMP JUMPDEST PUSH1 0x0 PUSH1 0x20 DUP3 ADD SWAP1 POP DUP2 DUP2 SUB PUSH1 0x0 DUP4 ADD MSTORE PUSH2 0x28C7 DUP2 DUP5 PUSH2 0x27E1 JUMP JUMPDEST SWAP1 POP SWAP3 SWAP2 POP POP JUMP JUMPDEST PUSH2 0x28D8 DUP2 PUSH2 0x24D8 JUMP JUMPDEST DUP3 MSTORE POP POP JUMP JUMPDEST PUSH1 0x0 PUSH1 0x20 DUP3 ADD SWAP1 POP PUSH2 0x28F3 PUSH1 0x0 DUP4 ADD DUP5 PUSH2 0x28CF JUMP JUMPDEST SWAP3 SWAP2 POP POP JUMP JUMPDEST PUSH2 0x2902 DUP2 PUSH2 0x2587 JUMP JUMPDEST DUP2 EQ PUSH2 0x290D JUMPI PUSH1 0x0 DUP1 REVERT JUMPDEST POP JUMP JUMPDEST PUSH1 0x0 DUP2 CALLDATALOAD SWAP1 POP PUSH2 0x291F DUP2 PUSH2 0x28F9 JUMP JUMPDEST SWAP3 SWAP2 POP POP JUMP JUMPDEST PUSH1 0x0 DUP1 REVERT JUMPDEST PUSH1 0x0 DUP1 REVERT JUMPDEST PUSH32 0x4E487B7100000000000000000000000000000000000000000000000000000000 PUSH1 0x0 MSTORE PUSH1 0x41 PUSH1 0x4 MSTORE PUSH1 0x24 PUSH1 0x0 REVERT JUMPDEST PUSH2 0x2967 DUP3 PUSH2 0x25FD JUMP JUMPDEST DUP2 ADD DUP2 DUP2 LT PUSH8 0xFFFFFFFFFFFFFFFF DUP3 GT OR ISZERO PUSH2 0x2986 JUMPI PUSH2 0x2985 PUSH2 0x292F JUMP JUMPDEST JUMPDEST DUP1 PUSH1 0x40 MSTORE POP POP POP JUMP JUMPDEST PUSH1 0x0 PUSH2 0x2999 PUSH2 0x24C4 JUMP JUMPDEST SWAP1 POP PUSH2 0x29A5 DUP3 DUP3 PUSH2 0x295E JUMP JUMPDEST SWAP2 SWAP1 POP JUMP JUMPDEST PUSH1 0x0 PUSH8 0xFFFFFFFFFFFFFFFF DUP3 GT ISZERO PUSH2 0x29C5 JUMPI PUSH2 0x29C4 PUSH2 0x292F JUMP JUMPDEST JUMPDEST PUSH2 0x29CE DUP3 PUSH2 0x25FD JUMP JUMPDEST SWAP1 POP PUSH1 0x20 DUP2 ADD SWAP1 POP SWAP2 SWAP1 POP JUMP JUMPDEST DUP3 DUP2 DUP4 CALLDATACOPY PUSH1 0x0 DUP4 DUP4 ADD MSTORE POP POP POP JUMP JUMPDEST PUSH1 0x0 PUSH2 0x29FD PUSH2 0x29F8 DUP5 PUSH2 0x29AA JUMP JUMPDEST PUSH2 0x298F JUMP JUMPDEST SWAP1 POP DUP3 DUP2 MSTORE PUSH1 0x20 DUP2 ADD DUP5 DUP5 DUP5 ADD GT ISZERO PUSH2 0x2A19 JUMPI PUSH2 0x2A18 PUSH2 0x292A JUMP JUMPDEST JUMPDEST PUSH2 0x2A24 DUP5 DUP3 DUP6 PUSH2 0x29DB JUMP JUMPDEST POP SWAP4 SWAP3 POP POP POP JUMP JUMPDEST PUSH1 0x0 DUP3 PUSH1 0x1F DUP4 ADD SLT PUSH2 0x2A41 JUMPI PUSH2 0x2A40 PUSH2 0x2925 JUMP JUMPDEST JUMPDEST DUP2 CALLDATALOAD PUSH2 0x2A51 DUP5 DUP3 PUSH1 0x20 DUP7 ADD PUSH2 0x29EA JUMP JUMPDEST SWAP2 POP POP SWAP3 SWAP2 POP POP JUMP JUMPDEST PUSH1 0x6 DUP2 LT PUSH2 0x2A67 JUMPI PUSH1 0x0 DUP1 REVERT JUMPDEST POP JUMP JUMPDEST PUSH1 0x0 DUP2 CALLDATALOAD SWAP1 POP PUSH2 0x2A79 DUP2 PUSH2 0x2A5A JUMP JUMPDEST SWAP3 SWAP2 POP POP JUMP JUMPDEST PUSH1 0x0 DUP1 PUSH1 0x0 DUP1 PUSH1 0x80 DUP6 DUP8 SUB SLT ISZERO PUSH2 0x2A99 JUMPI PUSH2 0x2A98 PUSH2 0x24CE JUMP JUMPDEST JUMPDEST PUSH1 0x0 PUSH2 0x2AA7 DUP8 DUP3 DUP9 ADD PUSH2 0x2910 JUMP JUMPDEST SWAP5 POP POP PUSH1 0x20 DUP6 ADD CALLDATALOAD PUSH8 0xFFFFFFFFFFFFFFFF DUP2 GT ISZERO PUSH2 0x2AC8 JUMPI PUSH2 0x2AC7 PUSH2 0x24D3 JUMP JUMPDEST JUMPDEST PUSH2 0x2AD4 DUP8 DUP3 DUP9 ADD PUSH2 0x2A2C JUMP JUMPDEST SWAP4 POP POP PUSH1 0x40 PUSH2 0x2AE5 DUP8 DUP3 DUP9 ADD PUSH2 0x2A6A JUMP JUMPDEST SWAP3 POP POP PUSH1 0x60 DUP6 ADD CALLDATALOAD PUSH8 0xFFFFFFFFFFFFFFFF DUP2 GT ISZERO PUSH2 0x2B06 JUMPI PUSH2 0x2B05 PUSH2 0x24D3 JUMP JUMPDEST JUMPDEST PUSH2 0x2B12 DUP8 DUP3 DUP9 ADD PUSH2 0x2A2C JUMP JUMPDEST SWAP2 POP POP SWAP3 SWAP6 SWAP2 SWAP5 POP SWAP3 POP JUMP JUMPDEST PUSH1 0x0 PUSH1 0x20 DUP3 DUP5 SUB SLT ISZERO PUSH2 0x2B34 JUMPI PUSH2 0x2B33 PUSH2 0x24CE JUMP JUMPDEST JUMPDEST PUSH1 0x0 PUSH2 0x2B42 DUP5 DUP3 DUP6 ADD PUSH2 0x2910 JUMP JUMPDEST SWAP2 POP POP SWAP3 SWAP2 POP POP JUMP JUMPDEST PUSH1 0x0 DUP2 MLOAD SWAP1 POP SWAP2 SWAP1 POP JUMP JUMPDEST PUSH1 0x0 DUP3 DUP3 MSTORE PUSH1 0x20 DUP3 ADD SWAP1 POP SWAP3 SWAP2 POP POP JUMP JUMPDEST PUSH1 0x0 DUP2 SWAP1 POP PUSH1 0x20 DUP3 ADD SWAP1 POP SWAP2 SWAP1 POP JUMP JUMPDEST PUSH1 0x0 PUSH2 0x2B83 DUP4 DUP4 PUSH2 0x25A8 JUMP JUMPDEST PUSH1 0x20 DUP4 ADD SWAP1 POP SWAP3 SWAP2 POP POP JUMP JUMPDEST PUSH1 0x0 PUSH1 0x20 DUP3 ADD SWAP1 POP SWAP2 SWAP1 POP JUMP JUMPDEST PUSH1 0x0 PUSH2 0x2BA7 DUP3 PUSH2 0x2B4B JUMP JUMPDEST PUSH2 0x2BB1 DUP2 DUP6 PUSH2 0x2B56 JUMP JUMPDEST SWAP4 POP PUSH2 0x2BBC DUP4 PUSH2 0x2B67 JUMP JUMPDEST DUP1 PUSH1 0x0 JUMPDEST DUP4 DUP2 LT ISZERO PUSH2 0x2BED JUMPI DUP2 MLOAD PUSH2 0x2BD4 DUP9 DUP3 PUSH2 0x2B77 JUMP JUMPDEST SWAP8 POP PUSH2 0x2BDF DUP4 PUSH2 0x2B8F JUMP JUMPDEST SWAP3 POP POP PUSH1 0x1 DUP2 ADD SWAP1 POP PUSH2 0x2BC0 JUMP JUMPDEST POP DUP6 SWAP4 POP POP POP POP SWAP3 SWAP2 POP POP JUMP JUMPDEST PUSH1 0x0 PUSH1 0x20 DUP3 ADD SWAP1 POP DUP2 DUP2 SUB PUSH1 0x0 DUP4 ADD MSTORE PUSH2 0x2C14 DUP2 DUP5 PUSH2 0x2B9C JUMP JUMPDEST SWAP1 POP SWAP3 SWAP2 POP POP JUMP JUMPDEST PUSH1 0x0 DUP1 PUSH1 0x0 PUSH1 0x60 DUP5 DUP7 SUB SLT ISZERO PUSH2 0x2C35 JUMPI PUSH2 0x2C34 PUSH2 0x24CE JUMP JUMPDEST JUMPDEST PUSH1 0x0 DUP5 ADD CALLDATALOAD PUSH8 0xFFFFFFFFFFFFFFFF DUP2 GT ISZERO PUSH2 0x2C53 JUMPI PUSH2 0x2C52 PUSH2 0x24D3 JUMP JUMPDEST JUMPDEST PUSH2 0x2C5F DUP7 DUP3 DUP8 ADD PUSH2 0x2A2C JUMP JUMPDEST SWAP4 POP POP PUSH1 0x20 PUSH2 0x2C70 DUP7 DUP3 DUP8 ADD PUSH2 0x2A6A JUMP JUMPDEST SWAP3 POP POP PUSH1 0x40 DUP5 ADD CALLDATALOAD PUSH8 0xFFFFFFFFFFFFFFFF DUP2 GT ISZERO PUSH2 0x2C91 JUMPI PUSH2 0x2C90 PUSH2 0x24D3 JUMP JUMPDEST JUMPDEST PUSH2 0x2C9D DUP7 DUP3 DUP8 ADD PUSH2 0x2A2C JUMP JUMPDEST SWAP2 POP POP SWAP3 POP SWAP3 POP SWAP3 JUMP JUMPDEST PUSH1 0x0 DUP1 PUSH1 0x0 PUSH1 0x60 DUP5 DUP7 SUB SLT ISZERO PUSH2 0x2CC0 JUMPI PUSH2 0x2CBF PUSH2 0x24CE JUMP JUMPDEST JUMPDEST PUSH1 0x0 PUSH2 0x2CCE DUP7 DUP3 DUP8 ADD PUSH2 0x24F9 JUMP JUMPDEST SWAP4 POP POP PUSH1 0x20 DUP5 ADD CALLDATALOAD PUSH8 0xFFFFFFFFFFFFFFFF DUP2 GT ISZERO PUSH2 0x2CEF JUMPI PUSH2 0x2CEE PUSH2 0x24D3 JUMP JUMPDEST JUMPDEST PUSH2 0x2CFB DUP7 DUP3 DUP8 ADD PUSH2 0x2A2C JUMP JUMPDEST SWAP3 POP POP PUSH1 0x40 DUP5 ADD CALLDATALOAD PUSH8 0xFFFFFFFFFFFFFFFF DUP2 GT ISZERO PUSH2 0x2D1C JUMPI PUSH2 0x2D1B PUSH2 0x24D3 JUMP JUMPDEST JUMPDEST PUSH2 0x2D28 DUP7 DUP3 DUP8 ADD PUSH2 0x2A2C JUMP JUMPDEST SWAP2 POP POP SWAP3 POP SWAP3 POP SWAP3 JUMP JUMPDEST PUSH1 0x0 DUP1 PUSH1 0x40 DUP4 DUP6 SUB SLT ISZERO PUSH2 0x2D49 JUMPI PUSH2 0x2D48 PUSH2 0x24CE JUMP JUMPDEST JUMPDEST PUSH1 0x0 PUSH2 0x2D57 DUP6 DUP3 DUP7 ADD PUSH2 0x24F9 JUMP JUMPDEST SWAP3 POP POP PUSH1 0x20 DUP4 ADD CALLDATALOAD PUSH8 0xFFFFFFFFFFFFFFFF DUP2 GT ISZERO PUSH2 0x2D78 JUMPI PUSH2 0x2D77 PUSH2 0x24D3 JUMP JUMPDEST JUMPDEST PUSH2 0x2D84 DUP6 DUP3 DUP7 ADD PUSH2 0x2A2C JUMP JUMPDEST SWAP2 POP POP SWAP3 POP SWAP3 SWAP1 POP JUMP JUMPDEST PUSH1 0x0 DUP1 PUSH1 0x40 DUP4 DUP6 SUB SLT ISZERO PUSH2 0x2DA5 JUMPI PUSH2 0x2DA4 PUSH2 0x24CE JUMP JUMPDEST JUMPDEST PUSH1 0x0 PUSH2 0x2DB3 DUP6 DUP3 DUP7 ADD PUSH2 0x2910 JUMP JUMPDEST SWAP3 POP POP PUSH1 0x20 PUSH2 0x2DC4 DUP6 DUP3 DUP7 ADD PUSH2 0x2910 JUMP JUMPDEST SWAP2 POP POP SWAP3 POP SWAP3 SWAP1 POP JUMP JUMPDEST PUSH1 0x0 DUP3 DUP3 MSTORE PUSH1 0x20 DUP3 ADD SWAP1 POP SWAP3 SWAP2 POP POP JUMP JUMPDEST PUSH1 0x0 PUSH2 0x2DEA DUP3 PUSH2 0x2B4B JUMP JUMPDEST PUSH2 0x2DF4 DUP2 DUP6 PUSH2 0x2DCE JUMP JUMPDEST SWAP4 POP PUSH2 0x2DFF DUP4 PUSH2 0x2B67 JUMP JUMPDEST DUP1 PUSH1 0x0 JUMPDEST DUP4 DUP2 LT ISZERO PUSH2 0x2E30 JUMPI DUP2 MLOAD PUSH2 0x2E17 DUP9 DUP3 PUSH2 0x2B77 JUMP JUMPDEST SWAP8 POP PUSH2 0x2E22 DUP4 PUSH2 0x2B8F JUMP JUMPDEST SWAP3 POP POP PUSH1 0x1 DUP2 ADD SWAP1 POP PUSH2 0x2E03 JUMP JUMPDEST POP DUP6 SWAP4 POP POP POP POP SWAP3 SWAP2 POP POP JUMP JUMPDEST PUSH1 0x0 PUSH1 0xA0 DUP4 ADD PUSH1 0x0 DUP4 ADD MLOAD PUSH2 0x2E55 PUSH1 0x0 DUP7 ADD DUP3 PUSH2 0x2599 JUMP JUMPDEST POP PUSH1 0x20 DUP4 ADD MLOAD DUP5 DUP3 SUB PUSH1 0x20 DUP7 ADD MSTORE PUSH2 0x2E6D DUP3 DUP3 PUSH2 0x2DDF JUMP JUMPDEST SWAP2 POP POP PUSH1 0x40 DUP4 ADD MLOAD PUSH2 0x2E82 PUSH1 0x40 DUP7 ADD DUP3 PUSH2 0x25A8 JUMP JUMPDEST POP PUSH1 0x60 DUP4 ADD MLOAD PUSH2 0x2E95 PUSH1 0x60 DUP7 ADD DUP3 PUSH2 0x27D2 JUMP JUMPDEST POP PUSH1 0x80 DUP4 ADD MLOAD PUSH2 0x2EA8 PUSH1 0x80 DUP7 ADD DUP3 PUSH2 0x25A8 JUMP JUMPDEST POP DUP1 SWAP2 POP POP SWAP3 SWAP2 POP POP JUMP JUMPDEST PUSH1 0x0 PUSH1 0x20 DUP3 ADD SWAP1 POP DUP2 DUP2 SUB PUSH1 0x0 DUP4 ADD MSTORE PUSH2 0x2ECD DUP2 DUP5 PUSH2 0x2E3D JUMP JUMPDEST SWAP1 POP SWAP3 SWAP2 POP POP JUMP JUMPDEST PUSH1 0x0 PUSH8 0xFFFFFFFFFFFFFFFF DUP3 GT ISZERO PUSH2 0x2EF0 JUMPI PUSH2 0x2EEF PUSH2 0x292F JUMP JUMPDEST JUMPDEST PUSH1 0x20 DUP3 MUL SWAP1 POP PUSH1 0x20 DUP2 ADD SWAP1 POP SWAP2 SWAP1 POP JUMP JUMPDEST PUSH1 0x0 DUP1 REVERT JUMPDEST PUSH1 0x0 PUSH2 0x2F19 PUSH2 0x2F14 DUP5 PUSH2 0x2ED5 JUMP JUMPDEST PUSH2 0x298F JUMP JUMPDEST SWAP1 POP DUP1 DUP4 DUP3 MSTORE PUSH1 0x20 DUP3 ADD SWAP1 POP PUSH1 0x20 DUP5 MUL DUP4 ADD DUP6 DUP2 GT ISZERO PUSH2 0x2F3C JUMPI PUSH2 0x2F3B PUSH2 0x2F01 JUMP JUMPDEST JUMPDEST DUP4 JUMPDEST DUP2 DUP2 LT ISZERO PUSH2 0x2F65 JUMPI DUP1 PUSH2 0x2F51 DUP9 DUP3 PUSH2 0x24F9 JUMP JUMPDEST DUP5 MSTORE PUSH1 0x20 DUP5 ADD SWAP4 POP POP PUSH1 0x20 DUP2 ADD SWAP1 POP PUSH2 0x2F3E JUMP JUMPDEST POP POP POP SWAP4 SWAP3 POP POP POP JUMP JUMPDEST PUSH1 0x0 DUP3 PUSH1 0x1F DUP4 ADD SLT PUSH2 0x2F84 JUMPI PUSH2 0x2F83 PUSH2 0x2925 JUMP JUMPDEST JUMPDEST DUP2 CALLDATALOAD PUSH2 0x2F94 DUP5 DUP3 PUSH1 0x20 DUP7 ADD PUSH2 0x2F06 JUMP JUMPDEST SWAP2 POP POP SWAP3 SWAP2 POP POP JUMP JUMPDEST PUSH1 0x0 DUP1 PUSH1 0x0 PUSH1 0x60 DUP5 DUP7 SUB SLT ISZERO PUSH2 0x2FB6 JUMPI PUSH2 0x2FB5 PUSH2 0x24CE JUMP JUMPDEST JUMPDEST PUSH1 0x0 PUSH2 0x2FC4 DUP7 DUP3 DUP8 ADD PUSH2 0x2910 JUMP JUMPDEST SWAP4 POP POP PUSH1 0x20 DUP5 ADD CALLDATALOAD PUSH8 0xFFFFFFFFFFFFFFFF DUP2 GT ISZERO PUSH2 0x2FE5 JUMPI PUSH2 0x2FE4 PUSH2 0x24D3 JUMP JUMPDEST JUMPDEST PUSH2 0x2FF1 DUP7 DUP3 DUP8 ADD PUSH2 0x2F6F JUMP JUMPDEST SWAP3 POP POP PUSH1 0x40 PUSH2 0x3002 DUP7 DUP3 DUP8 ADD PUSH2 0x24F9 JUMP JUMPDEST SWAP2 POP POP SWAP3 POP SWAP3 POP SWAP3 JUMP JUMPDEST PUSH2 0x3015 DUP2 PUSH2 0x2587 JUMP JUMPDEST DUP3 MSTORE POP POP JUMP JUMPDEST PUSH1 0x0 PUSH1 0x20 DUP3 ADD SWAP1 POP PUSH2 0x3030 PUSH1 0x0 DUP4 ADD DUP5 PUSH2 0x300C JUMP JUMPDEST SWAP3 SWAP2 POP POP JUMP JUMPDEST PUSH1 0x0 DUP1 PUSH1 0x0 PUSH1 0x60 DUP5 DUP7 SUB SLT ISZERO PUSH2 0x304F JUMPI PUSH2 0x304E PUSH2 0x24CE JUMP JUMPDEST JUMPDEST PUSH1 0x0 PUSH2 0x305D DUP7 DUP3 DUP8 ADD PUSH2 0x2910 JUMP JUMPDEST SWAP4 POP POP PUSH1 0x20 PUSH2 0x306E DUP7 DUP3 DUP8 ADD PUSH2 0x2910 JUMP JUMPDEST SWAP3 POP POP PUSH1 0x40 PUSH2 0x307F DUP7 DUP3 DUP8 ADD PUSH2 0x24F9 JUMP JUMPDEST SWAP2 POP POP SWAP3 POP SWAP3 POP SWAP3 JUMP JUMPDEST PUSH2 0x3092 DUP2 PUSH2 0x27C6 JUMP JUMPDEST DUP3 MSTORE POP POP JUMP JUMPDEST PUSH1 0x0 PUSH1 0x20 DUP3 ADD SWAP1 POP PUSH2 0x30AD PUSH1 0x0 DUP4 ADD DUP5 PUSH2 0x3089 JUMP JUMPDEST SWAP3 SWAP2 POP POP JUMP JUMPDEST PUSH1 0x0 DUP3 DUP3 MSTORE PUSH1 0x20 DUP3 ADD SWAP1 POP SWAP3 SWAP2 POP POP JUMP JUMPDEST PUSH32 0x4F6E6C792070617469656E742063616E20706572666F726D2074686973206163 PUSH1 0x0 DUP3 ADD MSTORE PUSH32 0x74696F6E00000000000000000000000000000000000000000000000000000000 PUSH1 0x20 DUP3 ADD MSTORE POP JUMP JUMPDEST PUSH1 0x0 PUSH2 0x3120 PUSH1 0x24 DUP4 PUSH2 0x30B3 JUMP JUMPDEST SWAP2 POP PUSH2 0x312B DUP3 PUSH2 0x30C4 JUMP JUMPDEST PUSH1 0x40 DUP3 ADD SWAP1 POP SWAP2 SWAP1 POP JUMP JUMPDEST PUSH1 0x0 PUSH1 0x20 DUP3 ADD SWAP1 POP DUP2 DUP2 SUB PUSH1 0x0 DUP4 ADD MSTORE PUSH2 0x314F DUP2 PUSH2 0x3113 JUMP JUMPDEST SWAP1 POP SWAP2 SWAP1 POP JUMP JUMPDEST PUSH32 0x4E487B7100000000000000000000000000000000000000000000000000000000 PUSH1 0x0 MSTORE PUSH1 0x22 PUSH1 0x4 MSTORE PUSH1 0x24 PUSH1 0x0 REVERT JUMPDEST PUSH1 0x0 PUSH1 0x2 DUP3 DIV SWAP1 POP PUSH1 0x1 DUP3 AND DUP1 PUSH2 0x319D JUMPI PUSH1 0x7F DUP3 AND SWAP2 POP JUMPDEST PUSH1 0x20 DUP3 LT DUP2 SUB PUSH2 0x31B0 JUMPI PUSH2 0x31AF PUSH2 0x3156 JUMP JUMPDEST JUMPDEST POP SWAP2 SWAP1 POP JUMP JUMPDEST PUSH32 0x5265636F726420646F6573206E6F742065786973740000000000000000000000 PUSH1 0x0 DUP3 ADD MSTORE POP JUMP JUMPDEST PUSH1 0x0 PUSH2 0x31EC PUSH1 0x15 DUP4 PUSH2 0x30B3 JUMP JUMPDEST SWAP2 POP PUSH2 0x31F7 DUP3 PUSH2 0x31B6 JUMP JUMPDEST PUSH1 0x20 DUP3 ADD SWAP1 POP SWAP2 SWAP1 POP JUMP JUMPDEST PUSH1 0x0 PUSH1 0x20 DUP3 ADD SWAP1 POP DUP2 DUP2 SUB PUSH1 0x0 DUP4 ADD MSTORE PUSH2 0x321B DUP2 PUSH2 0x31DF JUMP JUMPDEST SWAP1 POP SWAP2 SWAP1 POP JUMP JUMPDEST PUSH32 0x5265636F7264206973206E6F7420616374697665000000000000000000000000 PUSH1 0x0 DUP3 ADD MSTORE POP JUMP JUMPDEST PUSH1 0x0 PUSH2 0x3258 PUSH1 0x14 DUP4 PUSH2 0x30B3 JUMP JUMPDEST SWAP2 POP PUSH2 0x3263 DUP3 PUSH2 0x3222 JUMP JUMPDEST PUSH1 0x20 DUP3 ADD SWAP1 POP SWAP2 SWAP1 POP JUMP JUMPDEST PUSH1 0x0 PUSH1 0x20 DUP3 ADD SWAP1 POP DUP2 DUP2 SUB PUSH1 0x0 DUP4 ADD MSTORE PUSH2 0x3287 DUP2 PUSH2 0x324B JUMP JUMPDEST SWAP1 POP SWAP2 SWAP1 POP JUMP JUMPDEST PUSH32 0x4E6F7420617574686F72697A656420746F206163636573732074686973207265 PUSH1 0x0 DUP3 ADD MSTORE PUSH32 0x636F726400000000000000000000000000000000000000000000000000000000 PUSH1 0x20 DUP3 ADD MSTORE POP JUMP JUMPDEST PUSH1 0x0 PUSH2 0x32EA PUSH1 0x24 DUP4 PUSH2 0x30B3 JUMP JUMPDEST SWAP2 POP PUSH2 0x32F5 DUP3 PUSH2 0x328E JUMP JUMPDEST PUSH1 0x40 DUP3 ADD SWAP1 POP SWAP2 SWAP1 POP JUMP JUMPDEST PUSH1 0x0 PUSH1 0x20 DUP3 ADD SWAP1 POP DUP2 DUP2 SUB PUSH1 0x0 DUP4 ADD MSTORE PUSH2 0x3319 DUP2 PUSH2 0x32DD JUMP JUMPDEST SWAP1 POP SWAP2 SWAP1 POP JUMP JUMPDEST PUSH32 0x496E76616C69642070617469656E742061646472657373000000000000000000 PUSH1 0x0 DUP3 ADD MSTORE POP JUMP JUMPDEST PUSH1 0x0 PUSH2 0x3356 PUSH1 0x17 DUP4 PUSH2 0x30B3 JUMP JUMPDEST SWAP2 POP PUSH2 0x3361 DUP3 PUSH2 0x3320 JUMP JUMPDEST PUSH1 0x20 DUP3 ADD SWAP1 POP SWAP2 SWAP1 POP JUMP JUMPDEST PUSH1 0x0 PUSH1 0x20 DUP3 ADD SWAP1 POP DUP2 DUP2 SUB PUSH1 0x0 DUP4 ADD MSTORE PUSH2 0x3385 DUP2 PUSH2 0x3349 JUMP JUMPDEST SWAP1 POP SWAP2 SWAP1 POP JUMP JUMPDEST PUSH32 0x4950465320686173682063616E6E6F7420626520656D70747900000000000000 PUSH1 0x0 DUP3 ADD MSTORE POP JUMP JUMPDEST PUSH1 0x0 PUSH2 0x33C2 PUSH1 0x19 DUP4 PUSH2 0x30B3 JUMP JUMPDEST SWAP2 POP PUSH2 0x33CD DUP3 PUSH2 0x338C JUMP JUMPDEST PUSH1 0x20 DUP3 ADD SWAP1 POP SWAP2 SWAP1 POP JUMP JUMPDEST PUSH1 0x0 PUSH1 0x20 DUP3 ADD SWAP1 POP DUP2 DUP2 SUB PUSH1 0x0 DUP4 ADD MSTORE PUSH2 0x33F1 DUP2 PUSH2 0x33B5 JUMP JUMPDEST SWAP1 POP SWAP2 SWAP1 POP JUMP JUMPDEST PUSH32 0x4E487B7100000000000000000000000000000000000000000000000000000000 PUSH1 0x0 MSTORE PUSH1 0x11 PUSH1 0x4 MSTORE PUSH1 0x24 PUSH1 0x0 REVERT JUMPDEST PUSH1 0x0 PUSH2 0x3432 DUP3 PUSH2 0x24D8 JUMP JUMPDEST SWAP2 POP PUSH32 0xFFFFFFFFFFFFFFFFFFFFFFFFFFFFFFFFFFFFFFFFFFFFFFFFFFFFFFFFFFFFFFFF DUP3 SUB PUSH2 0x3464 JUMPI PUSH2 0x3463 PUSH2 0x33F8 JUMP JUMPDEST JUMPDEST PUSH1 0x1 DUP3 ADD SWAP1 POP SWAP2 SWAP1 POP JUMP JUMPDEST PUSH1 0x0 DUP2 SWAP1 POP DUP2 PUSH1 0x0 MSTORE PUSH1 0x20 PUSH1 0x0 KECCAK256 SWAP1 POP SWAP2 SWAP1 POP JUMP JUMPDEST PUSH1 0x0 PUSH1 0x20 PUSH1 0x1F DUP4 ADD DIV SWAP1 POP SWAP2 SWAP1 POP JUMP JUMPDEST PUSH1 0x0 DUP3 DUP3 SHL SWAP1 POP SWAP3 SWAP2 POP POP JUMP JUMPDEST PUSH1 0x0 PUSH1 0x8 DUP4 MUL PUSH2 0x34D1 PUSH32 0xFFFFFFFFFFFFFFFFFFFFFFFFFFFFFFFFFFFFFFFFFFFFFFFFFFFFFFFFFFFFFFFF DUP3 PUSH2 0x3494 JUMP JUMPDEST PUSH2 0x34DB DUP7 DUP4 PUSH2 0x3494 JUMP JUMPDEST SWAP6 POP DUP1 NOT DUP5 AND SWAP4 POP DUP1 DUP7 AND DUP5 OR SWAP3 POP POP POP SWAP4 SWAP3 POP POP POP JUMP JUMPDEST PUSH1 0x0 DUP2 SWAP1 POP SWAP2 SWAP1 POP JUMP JUMPDEST PUSH1 0x0 PUSH2 0x3518 PUSH2 0x3513 PUSH2 0x350E DUP5 PUSH2 0x24D8 JUMP JUMPDEST PUSH2 0x34F3 JUMP JUMPDEST PUSH2 0x24D8 JUMP JUMPDEST SWAP1 POP SWAP2 SWAP1 POP JUMP JUMPDEST PUSH1 0x0 DUP2 SWAP1 POP SWAP2 SWAP1 POP JUMP JUMPDEST PUSH2 0x3532 DUP4 PUSH2 0x34FD JUMP JUMPDEST PUSH2 0x3546 PUSH2 0x353E DUP3 PUSH2 0x351F JUMP JUMPDEST DUP5 DUP5 SLOAD PUSH2 0x34A1 JUMP JUMPDEST DUP3 SSTORE POP POP POP POP JUMP JUMPDEST PUSH1 0x0 SWAP1 JUMP JUMPDEST PUSH2 0x355B PUSH2 0x354E JUMP JUMPDEST PUSH2 0x3566 DUP2 DUP5 DUP5 PUSH2 0x3529 JUMP JUMPDEST POP POP POP JUMP JUMPDEST JUMPDEST DUP2 DUP2 LT ISZERO PUSH2 0x358A JUMPI PUSH2 0x357F PUSH1 0x0 DUP3 PUSH2 0x3553 JUMP JUMPDEST PUSH1 0x1 DUP2 ADD SWAP1 POP PUSH2 0x356C JUMP JUMPDEST POP POP JUMP JUMPDEST PUSH1 0x1F DUP3 GT ISZERO PUSH2 0x35CF JUMPI PUSH2 0x35A0 DUP2 PUSH2 0x346F JUMP JUMPDEST PUSH2 0x35A9 DUP5 PUSH2 0x3484 JUMP JUMPDEST DUP2 ADD PUSH1 0x20 DUP6 LT ISZERO PUSH2 0x35B8 JUMPI DUP2 SWAP1 POP JUMPDEST PUSH2 0x35CC PUSH2 0x35C4 DUP6 PUSH2 0x3484 JUMP JUMPDEST DUP4 ADD DUP3 PUSH2 0x356B JUMP JUMPDEST POP POP JUMPDEST POP POP POP JUMP JUMPDEST PUSH1 0x0 DUP3 DUP3 SHR SWAP1 POP SWAP3 SWAP2 POP POP JUMP JUMPDEST PUSH1 0x0 PUSH2 0x35F2 PUSH1 0x0 NOT DUP5 PUSH1 0x8 MUL PUSH2 0x35D4 JUMP JUMPDEST NOT DUP1 DUP4 AND SWAP2 POP POP SWAP3 SWAP2 POP POP JUMP JUMPDEST PUSH1 0x0 PUSH2 0x360B DUP4 DUP4 PUSH2 0x35E1 JUMP JUMPDEST SWAP2 POP DUP3 PUSH1 0x2 MUL DUP3 OR SWAP1 POP SWAP3 SWAP2 POP POP JUMP JUMPDEST PUSH2 0x3624 DUP3 PUSH2 0x25B7 JUMP JUMPDEST PUSH8 0xFFFFFFFFFFFFFFFF DUP2 GT ISZERO PUSH2 0x363D JUMPI PUSH2 0x363C PUSH2 0x292F JUMP JUMPDEST JUMPDEST PUSH2 0x3647 DUP3 SLOAD PUSH2 0x3185 JUMP JUMPDEST PUSH2 0x3652 DUP3 DUP3 DUP6 PUSH2 0x358E JUMP JUMPDEST PUSH1 0x0 PUSH1 0x20 SWAP1 POP PUSH1 0x1F DUP4 GT PUSH1 0x1 DUP2 EQ PUSH2 0x3685 JUMPI PUSH1 0x0 DUP5 ISZERO PUSH2 0x3673 JUMPI DUP3 DUP8 ADD MLOAD SWAP1 POP JUMPDEST PUSH2 0x367D DUP6 DUP3 PUSH2 0x35FF JUMP JUMPDEST DUP7 SSTORE POP PUSH2 0x36E5 JUMP JUMPDEST PUSH1 0x1F NOT DUP5 AND PUSH2 0x3693 DUP7 PUSH2 0x346F JUMP JUMPDEST PUSH1 0x0 JUMPDEST DUP3 DUP2 LT ISZERO PUSH2 0x36BB JUMPI DUP5 DUP10 ADD MLOAD DUP3 SSTORE PUSH1 0x1 DUP3 ADD SWAP2 POP PUSH1 0x20 DUP6 ADD SWAP5 POP PUSH1 0x20 DUP2 ADD SWAP1 POP PUSH2 0x3696 JUMP JUMPDEST DUP7 DUP4 LT ISZERO PUSH2 0x36D8 JUMPI DUP5 DUP10 ADD MLOAD PUSH2 0x36D4 PUSH1 0x1F DUP10 AND DUP3 PUSH2 0x35E1 JUMP JUMPDEST DUP4 SSTORE POP JUMPDEST PUSH1 0x1 PUSH1 0x2 DUP9 MUL ADD DUP9 SSTORE POP POP POP JUMPDEST POP POP POP POP POP POP JUMP JUMPDEST PUSH1 0x0 PUSH2 0x36F8 DUP3 PUSH2 0x25B7 JUMP JUMPDEST PUSH2 0x3702 DUP2 DUP6 PUSH2 0x30B3 JUMP JUMPDEST SWAP4 POP PUSH2 0x3712 DUP2 DUP6 PUSH1 0x20 DUP7 ADD PUSH2 0x25D3 JUMP JUMPDEST PUSH2 0x371B DUP2 PUSH2 0x25FD JUMP JUMPDEST DUP5 ADD SWAP2 POP POP SWAP3 SWAP2 POP POP JUMP JUMPDEST PUSH2 0x372F DUP2 PUSH2 0x27A5 JUMP JUMPDEST DUP3 MSTORE POP POP JUMP JUMPDEST PUSH1 0x0 PUSH1 0x40 DUP3 ADD SWAP1 POP DUP2 DUP2 SUB PUSH1 0x0 DUP4 ADD MSTORE PUSH2 0x374F DUP2 DUP6 PUSH2 0x36ED JUMP JUMPDEST SWAP1 POP PUSH2 0x375E PUSH1 0x20 DUP4 ADD DUP5 PUSH2 0x3726 JUMP JUMPDEST SWAP4 SWAP3 POP POP POP JUMP JUMPDEST PUSH32 0x4E6F7420617574686F72697A6564000000000000000000000000000000000000 PUSH1 0x0 DUP3 ADD MSTORE POP JUMP JUMPDEST PUSH1 0x0 PUSH2 0x379B PUSH1 0xE DUP4 PUSH2 0x30B3 JUMP JUMPDEST SWAP2 POP PUSH2 0x37A6 DUP3 PUSH2 0x3765 JUMP JUMPDEST PUSH1 0x20 DUP3 ADD SWAP1 POP SWAP2 SWAP1 POP JUMP JUMPDEST PUSH1 0x0 PUSH1 0x20 DUP3 ADD SWAP1 POP DUP2 DUP2 SUB PUSH1 0x0 DUP4 ADD MSTORE PUSH2 0x37CA DUP2 PUSH2 0x378E JUMP JUMPDEST SWAP1 POP SWAP2 SWAP1 POP JUMP JUMPDEST PUSH1 0x0 PUSH1 0x40 DUP3 ADD SWAP1 POP DUP2 DUP2 SUB PUSH1 0x0 DUP4 ADD MSTORE PUSH2 0x37EB DUP2 DUP6 PUSH2 0x36ED JUMP JUMPDEST SWAP1 POP PUSH2 0x37FA PUSH1 0x20 DUP4 ADD DUP5 PUSH2 0x28CF JUMP JUMPDEST SWAP4 SWAP3 POP POP POP JUMP JUMPDEST PUSH32 0x4E6F2061637469766520616363657373206772616E7400000000000000000000 PUSH1 0x0 DUP3 ADD MSTORE POP JUMP JUMPDEST PUSH1 0x0 PUSH2 0x3837 PUSH1 0x16 DUP4 PUSH2 0x30B3 JUMP JUMPDEST SWAP2 POP PUSH2 0x3842 DUP3 PUSH2 0x3801 JUMP JUMPDEST PUSH1 0x20 DUP3 ADD SWAP1 POP SWAP2 SWAP1 POP JUMP JUMPDEST PUSH1 0x0 PUSH1 0x20 DUP3 ADD SWAP1 POP DUP2 DUP2 SUB PUSH1 0x0 DUP4 ADD MSTORE PUSH2 0x3866 DUP2 PUSH2 0x382A JUMP JUMPDEST SWAP1 POP SWAP2 SWAP1 POP JUMP JUMPDEST PUSH32 0x496E76616C696420616464726573730000000000000000000000000000000000 PUSH1 0x0 DUP3 ADD MSTORE POP JUMP JUMPDEST PUSH1 0x0 PUSH2 0x38A3 PUSH1 0xF DUP4 PUSH2 0x30B3 JUMP JUMPDEST SWAP2 POP PUSH2 0x38AE DUP3 PUSH2 0x386D JUMP JUMPDEST PUSH1 0x20 DUP3 ADD SWAP1 POP SWAP2 SWAP1 POP JUMP JUMPDEST PUSH1 0x0 PUSH1 0x20 DUP3 ADD SWAP1 POP DUP2 DUP2 SUB PUSH1 0x0 DUP4 ADD MSTORE PUSH2 0x38D2 DUP2 PUSH2 0x3896 JUMP JUMPDEST SWAP1 POP SWAP2 SWAP1 POP JUMP JUMPDEST PUSH32 0x4D757374206772616E742061636365737320746F206174206C65617374206F6E PUSH1 0x0 DUP3 ADD MSTORE PUSH32 0x65207265636F7264000000000000000000000000000000000000000000000000 PUSH1 0x20 DUP3 ADD MSTORE POP JUMP JUMPDEST PUSH1 0x0 PUSH2 0x3935 PUSH1 0x28 DUP4 PUSH2 0x30B3 JUMP JUMPDEST SWAP2 POP PUSH2 0x3940 DUP3 PUSH2 0x38D9 JUMP JUMPDEST PUSH1 0x40 DUP3 ADD SWAP1 POP SWAP2 SWAP1 POP JUMP JUMPDEST PUSH1 0x0 PUSH1 0x20 DUP3 ADD SWAP1 POP DUP2 DUP2 SUB PUSH1 0x0 DUP4 ADD MSTORE PUSH2 0x3964 DUP2 PUSH2 0x3928 JUMP JUMPDEST SWAP1 POP SWAP2 SWAP1 POP JUMP JUMPDEST PUSH32 0x4E487B7100000000000000000000000000000000000000000000000000000000 PUSH1 0x0 MSTORE PUSH1 0x32 PUSH1 0x4 MSTORE PUSH1 0x24 PUSH1 0x0 REVERT JUMPDEST PUSH32 0x596F7520646F6E2774206F776E20616C6C20737065636966696564207265636F PUSH1 0x0 DUP3 ADD MSTORE PUSH32 0x7264730000000000000000000000000000000000000000000000000000000000 PUSH1 0x20 DUP3 ADD MSTORE POP JUMP JUMPDEST PUSH1 0x0 PUSH2 0x39F6 PUSH1 0x23 DUP4 PUSH2 0x30B3 JUMP JUMPDEST SWAP2 POP PUSH2 0x3A01 DUP3 PUSH2 0x399A JUMP JUMPDEST PUSH1 0x40 DUP3 ADD SWAP1 POP SWAP2 SWAP1 POP JUMP JUMPDEST PUSH1 0x0 PUSH1 0x20 DUP3 ADD SWAP1 POP DUP2 DUP2 SUB PUSH1 0x0 DUP4 ADD MSTORE PUSH2 0x3A25 DUP2 PUSH2 0x39E9 JUMP JUMPDEST SWAP1 POP SWAP2 SWAP1 POP JUMP JUMPDEST PUSH1 0x0 PUSH2 0x3A37 DUP3 PUSH2 0x24D8 JUMP JUMPDEST SWAP2 POP PUSH2 0x3A42 DUP4 PUSH2 0x24D8 JUMP JUMPDEST SWAP3 POP DUP3 DUP3 MUL PUSH2 0x3A50 DUP2 PUSH2 0x24D8 JUMP JUMPDEST SWAP2 POP DUP3 DUP3 DIV DUP5 EQ DUP4 ISZERO OR PUSH2 0x3A67 JUMPI PUSH2 0x3A66 PUSH2 0x33F8 JUMP JUMPDEST JUMPDEST POP SWAP3 SWAP2 POP POP JUMP JUMPDEST PUSH1 0x0 PUSH2 0x3A79 DUP3 PUSH2 0x24D8 JUMP JUMPDEST SWAP2 POP PUSH2 0x3A84 DUP4 PUSH2 0x24D8 JUMP JUMPDEST SWAP3 POP DUP3 DUP3 ADD SWAP1 POP DUP1 DUP3 GT ISZERO PUSH2 0x3A9C JUMPI PUSH2 0x3A9B PUSH2 0x33F8 JUMP JUMPDEST JUMPDEST SWAP3 SWAP2 POP POP JUMP INVALID LOG2 PUSH5 0x6970667358 0x22 SLT KECCAK256 PUSH22 0x1CFF47DC727EE8D291542B59237E0EE2510EB94AFED1 PUSH2 0x22EA 0xDB OR 0x22 0xEA CALLER SWAP8 PUSH5 0x736F6C6343 STOP ADDMOD 0x1E STOP CALLER "
				},
				"gasEstimates": {
					"creation": {
						"codeDepositCost": "3012800",
						"executionCost": "3310",
						"totalCost": "3016110"
					},
					"external": {
						"addRecord(string,uint8,string)": "infinite",
						"addRecordByProvider(address,string,uint8,string)": "infinite",
						"deleteRecord(uint256)": "31583",
						"emergencyContact(address)": "infinite",
						"getAccessGrant(address,address)": "infinite",
						"getAuditLogs(uint256)": "infinite",
						"getPatientRecords(address)": "infinite",
						"getRecord(uint256)": "infinite",
						"getTotalRecords()": "2460",
						"grantAccess(address,uint256[],uint256)": "infinite",
						"hasAccess(address,address,uint256)": "infinite",
						"logAccess(uint256,string)": "infinite",
						"revokeAccess(address)": "28856",
						"setEmergencyContact(address)": "24868",
						"updateRecord(uint256,string,string)": "infinite"
					},
					"internal": {
						"hasGeneralAccess(address,address)": "infinite"
					}
				},
				"methodIdentifiers": {
					"addRecord(string,uint8,string)": "1b6377b8",
					"addRecordByProvider(address,string,uint8,string)": "0e8dce29",
					"deleteRecord(uint256)": "061f9811",
					"emergencyContact(address)": "b4b07a70",
					"getAccessGrant(address,address)": "8b681c7c",
					"getAuditLogs(uint256)": "01b1d324",
					"getPatientRecords(address)": "18bd4847",
					"getRecord(uint256)": "03e9e609",
					"getTotalRecords()": "0aeacb5e",
					"grantAccess(address,uint256[],uint256)": "9399e973",
					"hasAccess(address,address,uint256)": "cf56b4eb",
					"logAccess(uint256,string)": "67502cdf",
					"revokeAccess(address)": "85e68531",
					"setEmergencyContact(address)": "91284a89",
					"updateRecord(uint256,string,string)": "3812c6a8"
				}
			},
			"storageLayout": {
				"storage": [
					{
						"astId": 53,
						"contract": "contracts/HealthWallet.sol:HealthWallet",
						"label": "patientRecords",
						"offset": 0,
						"slot": "0",
						"type": "t_mapping(t_address,t_array(t_uint256)dyn_storage)"
					},
					{
						"astId": 58,
						"contract": "contracts/HealthWallet.sol:HealthWallet",
						"label": "records",
						"offset": 0,
						"slot": "1",
						"type": "t_mapping(t_uint256,t_struct(HealthRecord)29_storage)"
					},
					{
						"astId": 65,
						"contract": "contracts/HealthWallet.sol:HealthWallet",
						"label": "accessGrants",
						"offset": 0,
						"slot": "2",
						"type": "t_mapping(t_address,t_mapping(t_address,t_struct(AccessGrant)41_storage))"
					},
					{
						"astId": 71,
						"contract": "contracts/HealthWallet.sol:HealthWallet",
						"label": "auditLogs",
						"offset": 0,
						"slot": "3",
						"type": "t_mapping(t_uint256,t_array(t_struct(AccessLog)48_storage)dyn_storage)"
					},
					{
						"astId": 75,
						"contract": "contracts/HealthWallet.sol:HealthWallet",
						"label": "emergencyContact",
						"offset": 0,
						"slot": "4",
						"type": "t_mapping(t_address,t_address)"
					},
					{
						"astId": 77,
						"contract": "contracts/HealthWallet.sol:HealthWallet",
						"label": "recordCounter",
						"offset": 0,
						"slot": "5",
						"type": "t_uint256"
					}
				],
				"types": {
					"t_address": {
						"encoding": "inplace",
						"label": "address",
						"numberOfBytes": "20"
					},
					"t_array(t_struct(AccessLog)48_storage)dyn_storage": {
						"base": "t_struct(AccessLog)48_storage",
						"encoding": "dynamic_array",
						"label": "struct HealthWallet.AccessLog[]",
						"numberOfBytes": "32"
					},
					"t_array(t_uint256)dyn_storage": {
						"base": "t_uint256",
						"encoding": "dynamic_array",
						"label": "uint256[]",
						"numberOfBytes": "32"
					},
					"t_bool": {
						"encoding": "inplace",
						"label": "bool",
						"numberOfBytes": "1"
					},
					"t_enum(RecordType)9": {
						"encoding": "inplace",
						"label": "enum HealthWallet.RecordType",
						"numberOfBytes": "1"
					},
					"t_mapping(t_address,t_address)": {
						"encoding": "mapping",
						"key": "t_address",
						"label": "mapping(address => address)",
						"numberOfBytes": "32",
						"value": "t_address"
					},
					"t_mapping(t_address,t_array(t_uint256)dyn_storage)": {
						"encoding": "mapping",
						"key": "t_address",
						"label": "mapping(address => uint256[])",
						"numberOfBytes": "32",
						"value": "t_array(t_uint256)dyn_storage"
					},
					"t_mapping(t_address,t_mapping(t_address,t_struct(AccessGrant)41_storage))": {
						"encoding": "mapping",
						"key": "t_address",
						"label": "mapping(address => mapping(address => struct HealthWallet.AccessGrant))",
						"numberOfBytes": "32",
						"value": "t_mapping(t_address,t_struct(AccessGrant)41_storage)"
					},
					"t_mapping(t_address,t_struct(AccessGrant)41_storage)": {
						"encoding": "mapping",
						"key": "t_address",
						"label": "mapping(address => struct HealthWallet.AccessGrant)",
						"numberOfBytes": "32",
						"value": "t_struct(AccessGrant)41_storage"
					},
					"t_mapping(t_uint256,t_array(t_struct(AccessLog)48_storage)dyn_storage)": {
						"encoding": "mapping",
						"key": "t_uint256",
						"label": "mapping(uint256 => struct HealthWallet.AccessLog[])",
						"numberOfBytes": "32",
						"value": "t_array(t_struct(AccessLog)48_storage)dyn_storage"
					},
					"t_mapping(t_uint256,t_struct(HealthRecord)29_storage)": {
						"encoding": "mapping",
						"key": "t_uint256",
						"label": "mapping(uint256 => struct HealthWallet.HealthRecord)",
						"numberOfBytes": "32",
						"value": "t_struct(HealthRecord)29_storage"
					},
					"t_string_storage": {
						"encoding": "bytes",
						"label": "string",
						"numberOfBytes": "32"
					},
					"t_struct(AccessGrant)41_storage": {
						"encoding": "inplace",
						"label": "struct HealthWallet.AccessGrant",
						"members": [
							{
								"astId": 31,
								"contract": "contracts/HealthWallet.sol:HealthWallet",
								"label": "grantedTo",
								"offset": 0,
								"slot": "0",
								"type": "t_address"
							},
							{
								"astId": 34,
								"contract": "contracts/HealthWallet.sol:HealthWallet",
								"label": "recordIds",
								"offset": 0,
								"slot": "1",
								"type": "t_array(t_uint256)dyn_storage"
							},
							{
								"astId": 36,
								"contract": "contracts/HealthWallet.sol:HealthWallet",
								"label": "expiryTime",
								"offset": 0,
								"slot": "2",
								"type": "t_uint256"
							},
							{
								"astId": 38,
								"contract": "contracts/HealthWallet.sol:HealthWallet",
								"label": "isActive",
								"offset": 0,
								"slot": "3",
								"type": "t_bool"
							},
							{
								"astId": 40,
								"contract": "contracts/HealthWallet.sol:HealthWallet",
								"label": "grantedAt",
								"offset": 0,
								"slot": "4",
								"type": "t_uint256"
							}
						],
						"numberOfBytes": "160"
					},
					"t_struct(AccessLog)48_storage": {
						"encoding": "inplace",
						"label": "struct HealthWallet.AccessLog",
						"members": [
							{
								"astId": 43,
								"contract": "contracts/HealthWallet.sol:HealthWallet",
								"label": "accessor",
								"offset": 0,
								"slot": "0",
								"type": "t_address"
							},
							{
								"astId": 45,
								"contract": "contracts/HealthWallet.sol:HealthWallet",
								"label": "timestamp",
								"offset": 0,
								"slot": "1",
								"type": "t_uint256"
							},
							{
								"astId": 47,
								"contract": "contracts/HealthWallet.sol:HealthWallet",
								"label": "action",
								"offset": 0,
								"slot": "2",
								"type": "t_string_storage"
							}
						],
						"numberOfBytes": "96"
					},
					"t_struct(HealthRecord)29_storage": {
						"encoding": "inplace",
						"label": "struct HealthWallet.HealthRecord",
						"members": [
							{
								"astId": 11,
								"contract": "contracts/HealthWallet.sol:HealthWallet",
								"label": "recordId",
								"offset": 0,
								"slot": "0",
								"type": "t_uint256"
							},
							{
								"astId": 13,
								"contract": "contracts/HealthWallet.sol:HealthWallet",
								"label": "patientAddress",
								"offset": 0,
								"slot": "1",
								"type": "t_address"
							},
							{
								"astId": 15,
								"contract": "contracts/HealthWallet.sol:HealthWallet",
								"label": "ipfsHash",
								"offset": 0,
								"slot": "2",
								"type": "t_string_storage"
							},
							{
								"astId": 18,
								"contract": "contracts/HealthWallet.sol:HealthWallet",
								"label": "recordType",
								"offset": 0,
								"slot": "3",
								"type": "t_enum(RecordType)9"
							},
							{
								"astId": 20,
								"contract": "contracts/HealthWallet.sol:HealthWallet",
								"label": "timestamp",
								"offset": 0,
								"slot": "4",
								"type": "t_uint256"
							},
							{
								"astId": 22,
								"contract": "contracts/HealthWallet.sol:HealthWallet",
								"label": "issuedBy",
								"offset": 0,
								"slot": "5",
								"type": "t_address"
							},
							{
								"astId": 24,
								"contract": "contracts/HealthWallet.sol:HealthWallet",
								"label": "isActive",
								"offset": 20,
								"slot": "5",
								"type": "t_bool"
							},
							{
								"astId": 26,
								"contract": "contracts/HealthWallet.sol:HealthWallet",
								"label": "encryptedKey",
								"offset": 0,
								"slot": "6",
								"type": "t_string_storage"
							},
							{
								"astId": 28,
								"contract": "contracts/HealthWallet.sol:HealthWallet",
								"label": "version",
								"offset": 0,
								"slot": "7",
								"type": "t_uint256"
							}
						],
						"numberOfBytes": "256"
					},
					"t_uint256": {
						"encoding": "inplace",
						"label": "uint256",
						"numberOfBytes": "32"
					}
				}
			},
			"userdoc": {
				"kind": "user",
				"methods": {},
				"version": 1
			}
		}
	}
}