{
	"contracts/HealthWallet.sol": {
		"HealthWallet": {
			"abi": [
				{
					"inputs": [],
					"stateMutability": "nonpayable",
					"type": "constructor"
				},
				{
					"inputs": [],
					"name": "AccessControlBadConfirmation",
					"type": "error"
				},
				{
					"inputs": [
						{
							"internalType": "address",
							"name": "account",
							"type": "address"
						},
						{
							"internalType": "bytes32",
							"name": "neededRole",
							"type": "bytes32"
						}
					],
					"name": "AccessControlUnauthorizedAccount",
					"type": "error"
				},
				{
					"inputs": [
						{
							"internalType": "address",
							"name": "owner",
							"type": "address"
						}
					],
					"name": "OwnableInvalidOwner",
					"type": "error"
				},
				{
					"inputs": [
						{
							"internalType": "address",
							"name": "account",
							"type": "address"
						}
					],
					"name": "OwnableUnauthorizedAccount",
					"type": "error"
				},
				{
					"anonymous": false,
					"inputs": [
						{
							"indexed": true,
							"internalType": "address",
							"name": "patient",
							"type": "address"
						},
						{
							"indexed": true,
							"internalType": "address",
							"name": "grantedTo",
							"type": "address"
						},
						{
							"indexed": false,
							"internalType": "uint256",
							"name": "expiryTime",
							"type": "uint256"
						}
					],
					"name": "AccessGranted",
					"type": "event"
				},
				{
					"anonymous": false,
					"inputs": [
						{
							"indexed": true,
							"internalType": "address",
							"name": "patient",
							"type": "address"
						},
						{
							"indexed": true,
							"internalType": "address",
							"name": "revokedFrom",
							"type": "address"
						}
					],
					"name": "AccessRevoked",
					"type": "event"
				},
				{
					"anonymous": false,
					"inputs": [
						{
							"indexed": true,
							"internalType": "address",
							"name": "patient",
							"type": "address"
						},
						{
							"indexed": true,
							"internalType": "address",
							"name": "emergencyContact",
							"type": "address"
						},
						{
							"indexed": false,
							"internalType": "uint256",
							"name": "timestamp",
							"type": "uint256"
						}
					],
					"name": "EmergencyAccessUsed",
					"type": "event"
				},
				{
					"anonymous": false,
					"inputs": [
						{
							"indexed": true,
							"internalType": "address",
							"name": "previousOwner",
							"type": "address"
						},
						{
							"indexed": true,
							"internalType": "address",
							"name": "newOwner",
							"type": "address"
						}
					],
					"name": "OwnershipTransferred",
					"type": "event"
				},
				{
					"anonymous": false,
					"inputs": [
						{
							"indexed": true,
							"internalType": "uint256",
							"name": "recordId",
							"type": "uint256"
						},
						{
							"indexed": true,
							"internalType": "address",
							"name": "accessor",
							"type": "address"
						},
						{
							"indexed": false,
							"internalType": "uint256",
							"name": "timestamp",
							"type": "uint256"
						}
					],
					"name": "RecordAccessed",
					"type": "event"
				},
				{
					"anonymous": false,
					"inputs": [
						{
							"indexed": true,
							"internalType": "uint256",
							"name": "recordId",
							"type": "uint256"
						},
						{
							"indexed": true,
							"internalType": "address",
							"name": "patient",
							"type": "address"
						},
						{
							"indexed": false,
							"internalType": "string",
							"name": "ipfsHash",
							"type": "string"
						},
						{
							"indexed": false,
							"internalType": "enum HealthWallet.RecordType",
							"name": "recordType",
							"type": "uint8"
						}
					],
					"name": "RecordAdded",
					"type": "event"
				},
				{
					"anonymous": false,
					"inputs": [
						{
							"indexed": true,
							"internalType": "uint256",
							"name": "recordId",
							"type": "uint256"
						},
						{
							"indexed": false,
							"internalType": "string",
							"name": "newIpfsHash",
							"type": "string"
						},
						{
							"indexed": false,
							"internalType": "uint256",
							"name": "version",
							"type": "uint256"
						}
					],
					"name": "RecordUpdated",
					"type": "event"
				},
				{
					"anonymous": false,
					"inputs": [
						{
							"indexed": true,
							"internalType": "bytes32",
							"name": "role",
							"type": "bytes32"
						},
						{
							"indexed": true,
							"internalType": "bytes32",
							"name": "previousAdminRole",
							"type": "bytes32"
						},
						{
							"indexed": true,
							"internalType": "bytes32",
							"name": "newAdminRole",
							"type": "bytes32"
						}
					],
					"name": "RoleAdminChanged",
					"type": "event"
				},
				{
					"anonymous": false,
					"inputs": [
						{
							"indexed": true,
							"internalType": "bytes32",
							"name": "role",
							"type": "bytes32"
						},
						{
							"indexed": true,
							"internalType": "address",
							"name": "account",
							"type": "address"
						},
						{
							"indexed": true,
							"internalType": "address",
							"name": "sender",
							"type": "address"
						}
					],
					"name": "RoleGranted",
					"type": "event"
				},
				{
					"anonymous": false,
					"inputs": [
						{
							"indexed": true,
							"internalType": "bytes32",
							"name": "role",
							"type": "bytes32"
						},
						{
							"indexed": true,
							"internalType": "address",
							"name": "account",
							"type": "address"
						},
						{
							"indexed": true,
							"internalType": "address",
							"name": "sender",
							"type": "address"
						}
					],
					"name": "RoleRevoked",
					"type": "event"
				},
				{
					"inputs": [],
					"name": "DEFAULT_ADMIN_ROLE",
					"outputs": [
						{
							"internalType": "bytes32",
							"name": "",
							"type": "bytes32"
						}
					],
					"stateMutability": "view",
					"type": "function"
				},
				{
					"inputs": [],
					"name": "PROVIDER_ROLE",
					"outputs": [
						{
							"internalType": "bytes32",
							"name": "",
							"type": "bytes32"
						}
					],
					"stateMutability": "view",
					"type": "function"
				},
				{
					"inputs": [
						{
							"internalType": "string",
							"name": "_ipfsHash",
							"type": "string"
						},
						{
							"internalType": "enum HealthWallet.RecordType",
							"name": "_recordType",
							"type": "uint8"
						},
						{
							"internalType": "string",
							"name": "_encryptedKey",
							"type": "string"
						}
					],
					"name": "addRecord",
					"outputs": [
						{
							"internalType": "uint256",
							"name": "",
							"type": "uint256"
						}
					],
					"stateMutability": "nonpayable",
					"type": "function"
				},
				{
					"inputs": [
						{
							"internalType": "address",
							"name": "_patientAddress",
							"type": "address"
						},
						{
							"internalType": "string",
							"name": "_ipfsHash",
							"type": "string"
						},
						{
							"internalType": "enum HealthWallet.RecordType",
							"name": "_recordType",
							"type": "uint8"
						},
						{
							"internalType": "string",
							"name": "_encryptedKey",
							"type": "string"
						}
					],
					"name": "addRecordByProvider",
					"outputs": [
						{
							"internalType": "uint256",
							"name": "",
							"type": "uint256"
						}
					],
					"stateMutability": "nonpayable",
					"type": "function"
				},
				{
					"inputs": [
						{
							"internalType": "address",
							"name": "_provider",
							"type": "address"
						}
					],
					"name": "authorizeProvider",
					"outputs": [],
					"stateMutability": "nonpayable",
					"type": "function"
				},
				{
					"inputs": [
						{
							"internalType": "uint256",
							"name": "_recordId",
							"type": "uint256"
						}
					],
					"name": "deleteRecord",
					"outputs": [],
					"stateMutability": "nonpayable",
					"type": "function"
				},
				{
					"inputs": [
						{
							"internalType": "address",
							"name": "",
							"type": "address"
						}
					],
					"name": "emergencyContact",
					"outputs": [
						{
							"internalType": "address",
							"name": "",
							"type": "address"
						}
					],
					"stateMutability": "view",
					"type": "function"
				},
				{
					"inputs": [
						{
							"internalType": "address",
							"name": "_patient",
							"type": "address"
						},
						{
							"internalType": "address",
							"name": "_grantee",
							"type": "address"
						}
					],
					"name": "getAccessGrant",
					"outputs": [
						{
							"components": [
								{
									"internalType": "address",
									"name": "grantedTo",
									"type": "address"
								},
								{
									"internalType": "uint256[]",
									"name": "recordIds",
									"type": "uint256[]"
								},
								{
									"internalType": "uint256",
									"name": "expiryTime",
									"type": "uint256"
								},
								{
									"internalType": "bool",
									"name": "isActive",
									"type": "bool"
								},
								{
									"internalType": "uint256",
									"name": "grantedAt",
									"type": "uint256"
								}
							],
							"internalType": "struct HealthWallet.AccessGrant",
							"name": "",
							"type": "tuple"
						}
					],
					"stateMutability": "view",
					"type": "function"
				},
				{
					"inputs": [
						{
							"internalType": "uint256",
							"name": "_recordId",
							"type": "uint256"
						}
					],
					"name": "getAuditLogs",
					"outputs": [
						{
							"components": [
								{
									"internalType": "address",
									"name": "accessor",
									"type": "address"
								},
								{
									"internalType": "uint256",
									"name": "timestamp",
									"type": "uint256"
								},
								{
									"internalType": "enum HealthWallet.AuditAction",
									"name": "action",
									"type": "uint8"
								}
							],
							"internalType": "struct HealthWallet.AccessLog[]",
							"name": "",
							"type": "tuple[]"
						}
					],
					"stateMutability": "view",
					"type": "function"
				},
				{
					"inputs": [
						{
							"internalType": "address",
							"name": "_patient",
							"type": "address"
						}
					],
					"name": "getPatientRecords",
					"outputs": [
						{
							"internalType": "uint256[]",
							"name": "",
							"type": "uint256[]"
						}
					],
					"stateMutability": "view",
					"type": "function"
				},
				{
					"inputs": [
						{
							"internalType": "uint256",
							"name": "_recordId",
							"type": "uint256"
						}
					],
					"name": "getRecord",
					"outputs": [
						{
							"components": [
								{
									"internalType": "uint256",
									"name": "recordId",
									"type": "uint256"
								},
								{
									"internalType": "address",
									"name": "patientAddress",
									"type": "address"
								},
								{
									"internalType": "string",
									"name": "ipfsHash",
									"type": "string"
								},
								{
									"internalType": "enum HealthWallet.RecordType",
									"name": "recordType",
									"type": "uint8"
								},
								{
									"internalType": "uint256",
									"name": "timestamp",
									"type": "uint256"
								},
								{
									"internalType": "address",
									"name": "issuedBy",
									"type": "address"
								},
								{
									"internalType": "bool",
									"name": "isActive",
									"type": "bool"
								},
								{
									"internalType": "string",
									"name": "encryptedKey",
									"type": "string"
								},
								{
									"internalType": "uint256",
									"name": "version",
									"type": "uint256"
								}
							],
							"internalType": "struct HealthWallet.HealthRecord",
							"name": "",
							"type": "tuple"
						}
					],
					"stateMutability": "view",
					"type": "function"
				},
				{
					"inputs": [
						{
							"internalType": "bytes32",
							"name": "role",
							"type": "bytes32"
						}
					],
					"name": "getRoleAdmin",
					"outputs": [
						{
							"internalType": "bytes32",
							"name": "",
							"type": "bytes32"
						}
					],
					"stateMutability": "view",
					"type": "function"
				},
				{
					"inputs": [],
					"name": "getTotalRecords",
					"outputs": [
						{
							"internalType": "uint256",
							"name": "",
							"type": "uint256"
						}
					],
					"stateMutability": "view",
					"type": "function"
				},
				{
					"inputs": [
						{
							"internalType": "address",
							"name": "_grantee",
							"type": "address"
						},
						{
							"internalType": "uint256[]",
							"name": "_recordIds",
							"type": "uint256[]"
						},
						{
							"internalType": "uint256",
							"name": "_durationInDays",
							"type": "uint256"
						}
					],
					"name": "grantAccess",
					"outputs": [],
					"stateMutability": "nonpayable",
					"type": "function"
				},
				{
					"inputs": [
						{
							"internalType": "bytes32",
							"name": "role",
							"type": "bytes32"
						},
						{
							"internalType": "address",
							"name": "account",
							"type": "address"
						}
					],
					"name": "grantRole",
					"outputs": [],
					"stateMutability": "nonpayable",
					"type": "function"
				},
				{
					"inputs": [
						{
							"internalType": "address",
							"name": "_patient",
							"type": "address"
						},
						{
							"internalType": "address",
							"name": "_requester",
							"type": "address"
						},
						{
							"internalType": "uint256",
							"name": "_recordId",
							"type": "uint256"
						}
					],
					"name": "hasAccess",
					"outputs": [
						{
							"internalType": "bool",
							"name": "",
							"type": "bool"
						}
					],
					"stateMutability": "view",
					"type": "function"
				},
				{
					"inputs": [
						{
							"internalType": "bytes32",
							"name": "role",
							"type": "bytes32"
						},
						{
							"internalType": "address",
							"name": "account",
							"type": "address"
						}
					],
					"name": "hasRole",
					"outputs": [
						{
							"internalType": "bool",
							"name": "",
							"type": "bool"
						}
					],
					"stateMutability": "view",
					"type": "function"
				},
				{
					"inputs": [
						{
							"internalType": "address",
							"name": "_provider",
							"type": "address"
						}
					],
					"name": "isAuthorizedProvider",
					"outputs": [
						{
							"internalType": "bool",
							"name": "",
							"type": "bool"
						}
					],
					"stateMutability": "view",
					"type": "function"
				},
				{
					"inputs": [
						{
							"internalType": "uint256",
							"name": "_recordId",
							"type": "uint256"
						},
						{
							"internalType": "enum HealthWallet.AuditAction",
							"name": "_action",
							"type": "uint8"
						}
					],
					"name": "logAccess",
					"outputs": [],
					"stateMutability": "nonpayable",
					"type": "function"
				},
				{
					"inputs": [],
					"name": "owner",
					"outputs": [
						{
							"internalType": "address",
							"name": "",
							"type": "address"
						}
					],
					"stateMutability": "view",
					"type": "function"
				},
				{
					"inputs": [],
					"name": "renounceOwnership",
					"outputs": [],
					"stateMutability": "nonpayable",
					"type": "function"
				},
				{
					"inputs": [
						{
							"internalType": "bytes32",
							"name": "role",
							"type": "bytes32"
						},
						{
							"internalType": "address",
							"name": "callerConfirmation",
							"type": "address"
						}
					],
					"name": "renounceRole",
					"outputs": [],
					"stateMutability": "nonpayable",
					"type": "function"
				},
				{
					"inputs": [
						{
							"internalType": "address",
							"name": "_grantee",
							"type": "address"
						}
					],
					"name": "revokeAccess",
					"outputs": [],
					"stateMutability": "nonpayable",
					"type": "function"
				},
				{
					"inputs": [
						{
							"internalType": "address",
							"name": "_provider",
							"type": "address"
						}
					],
					"name": "revokeProviderAuthorization",
					"outputs": [],
					"stateMutability": "nonpayable",
					"type": "function"
				},
				{
					"inputs": [
						{
							"internalType": "bytes32",
							"name": "role",
							"type": "bytes32"
						},
						{
							"internalType": "address",
							"name": "account",
							"type": "address"
						}
					],
					"name": "revokeRole",
					"outputs": [],
					"stateMutability": "nonpayable",
					"type": "function"
				},
				{
					"inputs": [
						{
							"internalType": "address",
							"name": "_emergencyContact",
							"type": "address"
						}
					],
					"name": "setEmergencyContact",
					"outputs": [],
					"stateMutability": "nonpayable",
					"type": "function"
				},
				{
					"inputs": [
						{
							"internalType": "bytes4",
							"name": "interfaceId",
							"type": "bytes4"
						}
					],
					"name": "supportsInterface",
					"outputs": [
						{
							"internalType": "bool",
							"name": "",
							"type": "bool"
						}
					],
					"stateMutability": "view",
					"type": "function"
				},
				{
					"inputs": [
						{
							"internalType": "address",
							"name": "newOwner",
							"type": "address"
						}
					],
					"name": "transferOwnership",
					"outputs": [],
					"stateMutability": "nonpayable",
					"type": "function"
				},
				{
					"inputs": [
						{
							"internalType": "uint256",
							"name": "_recordId",
							"type": "uint256"
						},
						{
							"internalType": "string",
							"name": "_newIpfsHash",
							"type": "string"
						},
						{
							"internalType": "string",
							"name": "_newEncryptedKey",
							"type": "string"
						}
					],
					"name": "updateRecord",
					"outputs": [],
					"stateMutability": "nonpayable",
					"type": "function"
				}
			],
			"devdoc": {
				"details": "A decentralized health records management system Uses OpenZeppelin for secure access control",
				"errors": {
					"AccessControlBadConfirmation()": [
						{
							"details": "The caller of a function is not the expected one. NOTE: Don't confuse with {AccessControlUnauthorizedAccount}."
						}
					],
					"AccessControlUnauthorizedAccount(address,bytes32)": [
						{
							"details": "The `account` is missing a role."
						}
					],
					"OwnableInvalidOwner(address)": [
						{
							"details": "The owner is not a valid owner account. (eg. `address(0)`)"
						}
					],
					"OwnableUnauthorizedAccount(address)": [
						{
							"details": "The caller account is not authorized to perform an operation."
						}
					]
				},
				"events": {
					"RoleAdminChanged(bytes32,bytes32,bytes32)": {
						"details": "Emitted when `newAdminRole` is set as ``role``'s admin role, replacing `previousAdminRole` `DEFAULT_ADMIN_ROLE` is the starting admin for all roles, despite {RoleAdminChanged} not being emitted to signal this."
					},
					"RoleGranted(bytes32,address,address)": {
						"details": "Emitted when `account` is granted `role`. `sender` is the account that originated the contract call. This account bears the admin role (for the granted role). Expected in cases where the role was granted using the internal {AccessControl-_grantRole}."
					},
					"RoleRevoked(bytes32,address,address)": {
						"details": "Emitted when `account` is revoked `role`. `sender` is the account that originated the contract call:   - if using `revokeRole`, it is the admin role bearer   - if using `renounceRole`, it is the role bearer (i.e. `account`)"
					}
				},
				"kind": "dev",
				"methods": {
					"addRecord(string,uint8,string)": {
						"details": "Add a new health record"
					},
					"addRecordByProvider(address,string,uint8,string)": {
						"details": "Add a record issued by a healthcare provider"
					},
					"authorizeProvider(address)": {
						"details": "Authorize a healthcare provider (only admin) Uses OpenZeppelin's AccessControl"
					},
					"deleteRecord(uint256)": {
						"details": "Soft delete a record"
					},
					"getAccessGrant(address,address)": {
						"details": "Get access grant details"
					},
					"getAuditLogs(uint256)": {
						"details": "Get audit logs for a record"
					},
					"getPatientRecords(address)": {
						"details": "Get all record IDs for a patient"
					},
					"getRecord(uint256)": {
						"details": "Get details of a specific record"
					},
					"getRoleAdmin(bytes32)": {
						"details": "Returns the admin role that controls `role`. See {grantRole} and {revokeRole}. To change a role's admin, use {_setRoleAdmin}."
					},
					"getTotalRecords()": {
						"details": "Get total number of records"
					},
					"grantAccess(address,uint256[],uint256)": {
						"details": "Grant access to specific records"
					},
					"grantRole(bytes32,address)": {
						"details": "Grants `role` to `account`. If `account` had not been already granted `role`, emits a {RoleGranted} event. Requirements: - the caller must have ``role``'s admin role. May emit a {RoleGranted} event."
					},
					"hasAccess(address,address,uint256)": {
						"details": "Check if an address has access to a specific record"
					},
					"hasRole(bytes32,address)": {
						"details": "Returns `true` if `account` has been granted `role`."
					},
					"isAuthorizedProvider(address)": {
						"details": "Check if an address is an authorized provider"
					},
					"logAccess(uint256,uint8)": {
						"details": "Log access to a record"
					},
					"owner()": {
						"details": "Returns the address of the current owner."
					},
					"renounceOwnership()": {
						"details": "Leaves the contract without owner. It will not be possible to call `onlyOwner` functions. Can only be called by the current owner. NOTE: Renouncing ownership will leave the contract without an owner, thereby disabling any functionality that is only available to the owner."
					},
					"renounceRole(bytes32,address)": {
						"details": "Revokes `role` from the calling account. Roles are often managed via {grantRole} and {revokeRole}: this function's purpose is to provide a mechanism for accounts to lose their privileges if they are compromised (such as when a trusted device is misplaced). If the calling account had been revoked `role`, emits a {RoleRevoked} event. Requirements: - the caller must be `callerConfirmation`. May emit a {RoleRevoked} event."
					},
					"revokeAccess(address)": {
						"details": "Revoke access from a healthcare provider"
					},
					"revokeProviderAuthorization(address)": {
						"details": "Revoke provider authorization (only admin)"
					},
					"revokeRole(bytes32,address)": {
						"details": "Revokes `role` from `account`. If `account` had been granted `role`, emits a {RoleRevoked} event. Requirements: - the caller must have ``role``'s admin role. May emit a {RoleRevoked} event."
					},
					"setEmergencyContact(address)": {
						"details": "Set emergency contact"
					},
					"supportsInterface(bytes4)": {
						"details": "Returns true if this contract implements the interface defined by `interfaceId`. See the corresponding https://eips.ethereum.org/EIPS/eip-165#how-interfaces-are-identified[ERC section] to learn more about how these ids are created. This function call must use less than 30 000 gas."
					},
					"transferOwnership(address)": {
						"details": "Transfers ownership of the contract to a new account (`newOwner`). Can only be called by the current owner."
					},
					"updateRecord(uint256,string,string)": {
						"details": "Update an existing record"
					}
				},
				"title": "HealthWallet",
				"version": 1
			},
			"evm": {
				"assembly": "    /* \"contracts/HealthWallet.sol\":316:13450  contract HealthWallet is Ownable, AccessControl {... */\n  mstore(0x40, 0x80)\n    /* \"contracts/HealthWallet.sol\":2945:3040  constructor() Ownable(msg.sender) {... */\n  callvalue\n  dup1\n  iszero\n  tag_1\n  jumpi\n  0x00\n  dup1\n  revert\ntag_1:\n  pop\n    /* \"contracts/HealthWallet.sol\":2967:2977  msg.sender */\n  caller\n  dup1\n    /* \"@openzeppelin/contracts/access/Ownable.sol\":1269:1364  if (initialOwner == address(0)) {... */\n  tag_5\n  jumpi\n    /* \"@openzeppelin/contracts/access/Ownable.sol\":1322:1353  OwnableInvalidOwner(address(0)) */\n  mload(0x40)\n  shl(0xe0, 0x1e4fbdf7)\n  dup2\n  mstore\n    /* \"@openzeppelin/contracts/access/Ownable.sol\":1350:1351  0 */\n  0x00\n    /* \"@openzeppelin/contracts/access/Ownable.sol\":1322:1353  OwnableInvalidOwner(address(0)) */\n  0x04\n  dup3\n  add\n    /* \"#utility.yul\":160:211   */\n  mstore\n    /* \"#utility.yul\":133:151   */\n  0x24\n  add\n    /* \"@openzeppelin/contracts/access/Ownable.sol\":1322:1353  OwnableInvalidOwner(address(0)) */\n  mload(0x40)\n  dup1\n  swap2\n  sub\n  swap1\n  revert\n    /* \"@openzeppelin/contracts/access/Ownable.sol\":1269:1364  if (initialOwner == address(0)) {... */\ntag_5:\n    /* \"@openzeppelin/contracts/access/Ownable.sol\":1373:1405  _transferOwnership(initialOwner) */\n  tag_8\n    /* \"@openzeppelin/contracts/access/Ownable.sol\":1392:1404  initialOwner */\n  dup2\n    /* \"@openzeppelin/contracts/access/Ownable.sol\":1373:1391  _transferOwnership */\n  tag_9\n    /* \"@openzeppelin/contracts/access/Ownable.sol\":1373:1405  _transferOwnership(initialOwner) */\n  jump\t// in\ntag_8:\n  pop\n    /* \"contracts/HealthWallet.sol\":2990:3032  _grantRole(DEFAULT_ADMIN_ROLE, msg.sender) */\n  tag_11\n    /* \"@openzeppelin/contracts/access/AccessControl.sol\":2241:2245  0x00 */\n  0x00\n    /* \"contracts/HealthWallet.sol\":3021:3031  msg.sender */\n  caller\n    /* \"contracts/HealthWallet.sol\":2990:3000  _grantRole */\n  tag_12\n    /* \"contracts/HealthWallet.sol\":2990:3032  _grantRole(DEFAULT_ADMIN_ROLE, msg.sender) */\n  jump\t// in\ntag_11:\n  pop\n    /* \"contracts/HealthWallet.sol\":316:13450  contract HealthWallet is Ownable, AccessControl {... */\n  jump(tag_24)\n    /* \"@openzeppelin/contracts/access/Ownable.sol\":2912:3099  function _transferOwnership(address newOwner) internal virtual {... */\ntag_9:\n    /* \"@openzeppelin/contracts/access/Ownable.sol\":2985:3001  address oldOwner */\n  0x00\n    /* \"@openzeppelin/contracts/access/Ownable.sol\":3004:3010  _owner */\n  dup1\n  sload\n  sub(shl(0xa0, 0x01), 0x01)\n    /* \"@openzeppelin/contracts/access/Ownable.sol\":3020:3037  _owner = newOwner */\n  dup4\n  dup2\n  and\n  not(sub(shl(0xa0, 0x01), 0x01))\n  dup4\n  and\n  dup2\n  or\n  dup5\n  sstore\n    /* \"@openzeppelin/contracts/access/Ownable.sol\":3052:3092  OwnershipTransferred(oldOwner, newOwner) */\n  mload(0x40)\n    /* \"@openzeppelin/contracts/access/Ownable.sol\":3004:3010  _owner */\n  swap2\n  swap1\n  swap3\n  and\n  swap3\n  dup4\n  swap2\n    /* \"@openzeppelin/contracts/access/Ownable.sol\":3052:3092  OwnershipTransferred(oldOwner, newOwner) */\n  0x8be0079c531659141344cd1fd0a4f28419497f9722a3daafe3b4186f6b6457e0\n  swap2\n    /* \"@openzeppelin/contracts/access/Ownable.sol\":2985:3001  address oldOwner */\n  swap1\n    /* \"@openzeppelin/contracts/access/Ownable.sol\":3052:3092  OwnershipTransferred(oldOwner, newOwner) */\n  log3\n    /* \"@openzeppelin/contracts/access/Ownable.sol\":2975:3099  {... */\n  pop\n    /* \"@openzeppelin/contracts/access/Ownable.sol\":2912:3099  function _transferOwnership(address newOwner) internal virtual {... */\n  pop\n  jump\t// out\n    /* \"@openzeppelin/contracts/access/AccessControl.sol\":6155:6471  function _grantRole(bytes32 role, address account) internal virtual returns (bool) {... */\ntag_12:\n    /* \"@openzeppelin/contracts/access/AccessControl.sol\":6232:6236  bool */\n  0x00\n    /* \"@openzeppelin/contracts/access/AccessControl.sol\":2930:2942  _roles[role] */\n  dup3\n  dup2\n  mstore\n    /* \"@openzeppelin/contracts/access/AccessControl.sol\":2930:2936  _roles */\n  0x01\n    /* \"@openzeppelin/contracts/access/AccessControl.sol\":2930:2942  _roles[role] */\n  0x20\n  swap1\n  dup2\n  mstore\n  0x40\n  dup1\n  dup4\n  keccak256\n  sub(shl(0xa0, 0x01), 0x01)\n    /* \"@openzeppelin/contracts/access/AccessControl.sol\":2930:2959  _roles[role].hasRole[account] */\n  dup6\n  and\n  dup5\n  mstore\n  swap1\n  swap2\n  mstore\n  dup2\n  keccak256\n  sload\n  0xff\n  and\n    /* \"@openzeppelin/contracts/access/AccessControl.sol\":6248:6465  if (!hasRole(role, account)) {... */\n  tag_18\n  jumpi\n    /* \"@openzeppelin/contracts/access/AccessControl.sol\":6291:6303  _roles[role] */\n  0x00\n  dup4\n  dup2\n  mstore\n    /* \"@openzeppelin/contracts/access/AccessControl.sol\":6323:6327  true */\n  0x01\n    /* \"@openzeppelin/contracts/access/AccessControl.sol\":6291:6303  _roles[role] */\n  0x20\n  dup2\n  dup2\n  mstore\n  0x40\n  dup1\n  dup5\n  keccak256\n  sub(shl(0xa0, 0x01), 0x01)\n    /* \"@openzeppelin/contracts/access/AccessControl.sol\":6291:6320  _roles[role].hasRole[account] */\n  dup8\n  and\n  dup1\n  dup7\n  mstore\n  swap3\n  mstore\n  dup1\n  dup5\n  keccak256\n    /* \"@openzeppelin/contracts/access/AccessControl.sol\":6291:6327  _roles[role].hasRole[account] = true */\n  dup1\n  sload\n  not(0xff)\n  and\n  swap1\n  swap4\n  or\n  swap1\n  swap3\n  sstore\n    /* \"@openzeppelin/contracts/access/AccessControl.sol\":6346:6386  RoleGranted(role, account, _msgSender()) */\n  swap1\n  mload\n    /* \"@openzeppelin/contracts/utils/Context.sol\":735:745  msg.sender */\n  caller\n  swap3\n    /* \"@openzeppelin/contracts/access/AccessControl.sol\":6291:6303  _roles[role] */\n  dup7\n  swap2\n    /* \"@openzeppelin/contracts/access/AccessControl.sol\":6346:6386  RoleGranted(role, account, _msgSender()) */\n  0x2f8788117e7eff1d82e926ec794901d17c78024a50270940304540a733656f0d\n  swap2\n    /* \"@openzeppelin/contracts/access/AccessControl.sol\":6291:6303  _roles[role] */\n  swap1\n    /* \"@openzeppelin/contracts/access/AccessControl.sol\":6346:6386  RoleGranted(role, account, _msgSender()) */\n  log4\n  pop\n    /* \"@openzeppelin/contracts/access/AccessControl.sol\":6407:6411  true */\n  0x01\n    /* \"@openzeppelin/contracts/access/AccessControl.sol\":6400:6411  return true */\n  jump(tag_21)\n    /* \"@openzeppelin/contracts/access/AccessControl.sol\":6248:6465  if (!hasRole(role, account)) {... */\ntag_18:\n  pop\n    /* \"@openzeppelin/contracts/access/AccessControl.sol\":6449:6454  false */\n  0x00\n    /* \"@openzeppelin/contracts/access/AccessControl.sol\":6248:6465  if (!hasRole(role, account)) {... */\ntag_21:\n    /* \"@openzeppelin/contracts/access/AccessControl.sol\":6155:6471  function _grantRole(bytes32 role, address account) internal virtual returns (bool) {... */\n  swap3\n  swap2\n  pop\n  pop\n  jump\t// out\n    /* \"#utility.yul\":14:217   */\ntag_24:\n    /* \"contracts/HealthWallet.sol\":316:13450  contract HealthWallet is Ownable, AccessControl {... */\n  dataSize(sub_0)\n  dup1\n  dataOffset(sub_0)\n  0x00\n  codecopy\n  0x00\n  return\nstop\n\nsub_0: assembly {\n        /* \"contracts/HealthWallet.sol\":316:13450  contract HealthWallet is Ownable, AccessControl {... */\n      mstore(0x40, 0x80)\n      callvalue\n      dup1\n      iszero\n      tag_1\n      jumpi\n      0x00\n      dup1\n      revert\n    tag_1:\n      pop\n      jumpi(tag_2, lt(calldatasize, 0x04))\n      shr(0xe0, calldataload(0x00))\n      dup1\n      0x01b1d324\n      eq\n      tag_3\n      jumpi\n      dup1\n      0x01ffc9a7\n      eq\n      tag_4\n      jumpi\n      dup1\n      0x03e9e609\n      eq\n      tag_5\n      jumpi\n      dup1\n      0x061f9811\n      eq\n      tag_6\n      jumpi\n      dup1\n      0x0aeacb5e\n      eq\n      tag_7\n      jumpi\n      dup1\n      0x0e8dce29\n      eq\n      tag_8\n      jumpi\n      dup1\n      0x112ea262\n      eq\n      tag_9\n      jumpi\n      dup1\n      0x18bd4847\n      eq\n      tag_10\n      jumpi\n      dup1\n      0x1b6377b8\n      eq\n      tag_11\n      jumpi\n      dup1\n      0x22770d8e\n      eq\n      tag_12\n      jumpi\n      dup1\n      0x248a9ca3\n      eq\n      tag_13\n      jumpi\n      dup1\n      0x24c20a34\n      eq\n      tag_14\n      jumpi\n      dup1\n      0x2f2ff15d\n      eq\n      tag_15\n      jumpi\n      dup1\n      0x36568abe\n      eq\n      tag_16\n      jumpi\n      dup1\n      0x3812c6a8\n      eq\n      tag_17\n      jumpi\n      dup1\n      0x715018a6\n      eq\n      tag_18\n      jumpi\n      dup1\n      0x85e68531\n      eq\n      tag_19\n      jumpi\n      dup1\n      0x8b681c7c\n      eq\n      tag_20\n      jumpi\n      dup1\n      0x8da5cb5b\n      eq\n      tag_21\n      jumpi\n      dup1\n      0x91284a89\n      eq\n      tag_22\n      jumpi\n      dup1\n      0x91d14854\n      eq\n      tag_23\n      jumpi\n      dup1\n      0x9399e973\n      eq\n      tag_24\n      jumpi\n      dup1\n      0xa02bd29c\n      eq\n      tag_25\n      jumpi\n      dup1\n      0xa217fddf\n      eq\n      tag_26\n      jumpi\n      dup1\n      0xb4b07a70\n      eq\n      tag_27\n      jumpi\n      dup1\n      0xb9952215\n      eq\n      tag_28\n      jumpi\n      dup1\n      0xcf56b4eb\n      eq\n      tag_29\n      jumpi\n      dup1\n      0xd547741f\n      eq\n      tag_30\n      jumpi\n      dup1\n      0xf2fde38b\n      eq\n      tag_31\n      jumpi\n    tag_2:\n      0x00\n      dup1\n      revert\n        /* \"contracts/HealthWallet.sol\":11010:11238  function getAuditLogs(uint256 _recordId) ... */\n    tag_3:\n      tag_32\n      tag_33\n      calldatasize\n      0x04\n      tag_34\n      jump\t// in\n    tag_33:\n      tag_35\n      jump\t// in\n    tag_32:\n      mload(0x40)\n      tag_36\n      swap2\n      swap1\n      tag_37\n      jump\t// in\n    tag_36:\n      mload(0x40)\n      dup1\n      swap2\n      sub\n      swap1\n      return\n        /* \"@openzeppelin/contracts/access/AccessControl.sol\":2541:2743  function supportsInterface(bytes4 interfaceId) public view virtual override returns (bool) {... */\n    tag_4:\n      tag_38\n      tag_39\n      calldatasize\n      0x04\n      tag_40\n      jump\t// in\n    tag_39:\n      tag_41\n      jump\t// in\n    tag_38:\n      mload(0x40)\n        /* \"#utility.yul\":1983:1997   */\n      swap1\n      iszero\n        /* \"#utility.yul\":1976:1998   */\n      iszero\n        /* \"#utility.yul\":1958:1999   */\n      dup2\n      mstore\n        /* \"#utility.yul\":1946:1948   */\n      0x20\n        /* \"#utility.yul\":1931:1949   */\n      add\n        /* \"@openzeppelin/contracts/access/AccessControl.sol\":2541:2743  function supportsInterface(bytes4 interfaceId) public view virtual override returns (bool) {... */\n      tag_36\n        /* \"#utility.yul\":1818:2005   */\n      jump\n        /* \"contracts/HealthWallet.sol\":9970:10197  function getRecord(uint256 _recordId) ... */\n    tag_5:\n      tag_44\n      tag_45\n      calldatasize\n      0x04\n      tag_34\n      jump\t// in\n    tag_45:\n      tag_46\n      jump\t// in\n    tag_44:\n      mload(0x40)\n      tag_36\n      swap2\n      swap1\n      tag_48\n      jump\t// in\n        /* \"contracts/HealthWallet.sol\":6525:6710  function deleteRecord(uint256 _recordId) ... */\n    tag_6:\n      tag_49\n      tag_50\n      calldatasize\n      0x04\n      tag_34\n      jump\t// in\n    tag_50:\n      tag_51\n      jump\t// in\n    tag_49:\n      stop\n        /* \"contracts/HealthWallet.sol\":12399:12495  function getTotalRecords() public view returns (uint256) {... */\n    tag_7:\n        /* \"contracts/HealthWallet.sol\":12474:12487  recordCounter */\n      sload(0x07)\n        /* \"contracts/HealthWallet.sol\":12399:12495  function getTotalRecords() public view returns (uint256) {... */\n    tag_52:\n      mload(0x40)\n        /* \"#utility.yul\":3941:3966   */\n      swap1\n      dup2\n      mstore\n        /* \"#utility.yul\":3929:3931   */\n      0x20\n        /* \"#utility.yul\":3914:3932   */\n      add\n        /* \"contracts/HealthWallet.sol\":12399:12495  function getTotalRecords() public view returns (uint256) {... */\n      tag_36\n        /* \"#utility.yul\":3795:3972   */\n      jump\n        /* \"contracts/HealthWallet.sol\":4925:5939  function addRecordByProvider(... */\n    tag_8:\n      tag_52\n      tag_57\n      calldatasize\n      0x04\n      tag_58\n      jump\t// in\n    tag_57:\n      tag_59\n      jump\t// in\n        /* \"contracts/HealthWallet.sol\":12783:12990  function authorizeProvider(address _provider) public onlyRole(DEFAULT_ADMIN_ROLE) {... */\n    tag_9:\n      tag_49\n      tag_62\n      calldatasize\n      0x04\n      tag_63\n      jump\t// in\n    tag_62:\n      tag_64\n      jump\t// in\n        /* \"contracts/HealthWallet.sol\":9006:9894  function getPatientRecords(address _patient) ... */\n    tag_10:\n      tag_65\n      tag_66\n      calldatasize\n      0x04\n      tag_63\n      jump\t// in\n    tag_66:\n      tag_67\n      jump\t// in\n    tag_65:\n      mload(0x40)\n      tag_36\n      swap2\n      swap1\n      tag_69\n      jump\t// in\n        /* \"contracts/HealthWallet.sol\":3981:4837  function addRecord(... */\n    tag_11:\n      tag_52\n      tag_71\n      calldatasize\n      0x04\n      tag_72\n      jump\t// in\n    tag_71:\n      tag_73\n      jump\t// in\n        /* \"contracts/HealthWallet.sol\":13312:13447  function isAuthorizedProvider(address _provider) public view returns (bool) {... */\n    tag_12:\n      tag_38\n      tag_76\n      calldatasize\n      0x04\n      tag_63\n      jump\t// in\n    tag_76:\n      tag_77\n      jump\t// in\n        /* \"@openzeppelin/contracts/access/AccessControl.sol\":3786:3906  function getRoleAdmin(bytes32 role) public view virtual returns (bytes32) {... */\n    tag_13:\n      tag_52\n      tag_80\n      calldatasize\n      0x04\n      tag_34\n      jump\t// in\n    tag_80:\n      tag_82\n      jump\t// in\n        /* \"contracts/HealthWallet.sol\":422:488  bytes32 public constant PROVIDER_ROLE = keccak256(\"PROVIDER_ROLE\") */\n    tag_14:\n      tag_52\n      0x00\n      dup1\n      mload\n      0x20\n      data_c5db673750b8988991e755326ed2c44ddaddfe45172e77d196edfccfe0ac5518\n      dup4\n      codecopy\n      dup2\n      mload\n      swap2\n      mstore\n      dup2\n      jump\n        /* \"@openzeppelin/contracts/access/AccessControl.sol\":4202:4338  function grantRole(bytes32 role, address account) public virtual onlyRole(getRoleAdmin(role)) {... */\n    tag_15:\n      tag_49\n      tag_89\n      calldatasize\n      0x04\n      tag_90\n      jump\t// in\n    tag_89:\n      tag_91\n      jump\t// in\n        /* \"@openzeppelin/contracts/access/AccessControl.sol\":5304:5549  function renounceRole(bytes32 role, address callerConfirmation) public virtual {... */\n    tag_16:\n      tag_49\n      tag_93\n      calldatasize\n      0x04\n      tag_90\n      jump\t// in\n    tag_93:\n      tag_94\n      jump\t// in\n        /* \"contracts/HealthWallet.sol\":6008:6461  function updateRecord(... */\n    tag_17:\n      tag_49\n      tag_96\n      calldatasize\n      0x04\n      tag_97\n      jump\t// in\n    tag_96:\n      tag_98\n      jump\t// in\n        /* \"@openzeppelin/contracts/access/Ownable.sol\":2293:2394  function renounceOwnership() public virtual onlyOwner {... */\n    tag_18:\n      tag_49\n      tag_100\n      jump\t// in\n        /* \"contracts/HealthWallet.sol\":7902:8159  function revokeAccess(address _grantee) public {... */\n    tag_19:\n      tag_49\n      tag_102\n      calldatasize\n      0x04\n      tag_63\n      jump\t// in\n    tag_102:\n      tag_103\n      jump\t// in\n        /* \"contracts/HealthWallet.sol\":12010:12328  function getAccessGrant(address _patient, address _grantee) ... */\n    tag_20:\n      tag_104\n      tag_105\n      calldatasize\n      0x04\n      tag_106\n      jump\t// in\n    tag_105:\n      tag_107\n      jump\t// in\n    tag_104:\n      mload(0x40)\n      tag_36\n      swap2\n      swap1\n      tag_109\n      jump\t// in\n        /* \"@openzeppelin/contracts/access/Ownable.sol\":1638:1723  function owner() public view virtual returns (address) {... */\n    tag_21:\n      tag_110\n      tag_111\n      jump\t// in\n    tag_110:\n      mload(0x40)\n      tag_36\n      swap2\n      swap1\n      tag_113\n      jump\t// in\n        /* \"contracts/HealthWallet.sol\":11303:11503  function setEmergencyContact(address _emergencyContact) public {... */\n    tag_22:\n      tag_49\n      tag_115\n      calldatasize\n      0x04\n      tag_63\n      jump\t// in\n    tag_115:\n      tag_116\n      jump\t// in\n        /* \"@openzeppelin/contracts/access/AccessControl.sol\":2830:2966  function hasRole(bytes32 role, address account) public view virtual returns (bool) {... */\n    tag_23:\n      tag_38\n      tag_118\n      calldatasize\n      0x04\n      tag_90\n      jump\t// in\n    tag_118:\n      tag_119\n      jump\t// in\n        /* \"contracts/HealthWallet.sol\":6786:7818  function grantAccess(... */\n    tag_24:\n      tag_49\n      tag_122\n      calldatasize\n      0x04\n      tag_123\n      jump\t// in\n    tag_122:\n      tag_124\n      jump\t// in\n        /* \"contracts/HealthWallet.sol\":10263:10939  function logAccess(uint256 _recordId, AuditAction _action) ... */\n    tag_25:\n      tag_49\n      tag_126\n      calldatasize\n      0x04\n      tag_127\n      jump\t// in\n    tag_126:\n      tag_128\n      jump\t// in\n        /* \"@openzeppelin/contracts/access/AccessControl.sol\":2196:2245  bytes32 public constant DEFAULT_ADMIN_ROLE = 0x00 */\n    tag_26:\n      tag_52\n        /* \"@openzeppelin/contracts/access/AccessControl.sol\":2241:2245  0x00 */\n      0x00\n        /* \"@openzeppelin/contracts/access/AccessControl.sol\":2196:2245  bytes32 public constant DEFAULT_ADMIN_ROLE = 0x00 */\n      dup2\n      jump\n        /* \"contracts/HealthWallet.sol\":1880:1931  mapping(address => address) public emergencyContact */\n    tag_27:\n      tag_110\n      tag_133\n      calldatasize\n      0x04\n      tag_63\n      jump\t// in\n    tag_133:\n      mstore(0x20, 0x06)\n      0x00\n      swap1\n      dup2\n      mstore\n      0x40\n      swap1\n      keccak256\n      sload\n      sub(shl(0xa0, 0x01), 0x01)\n      and\n      dup2\n      jump\n        /* \"contracts/HealthWallet.sol\":13076:13223  function revokeProviderAuthorization(address _provider) public onlyRole(DEFAULT_ADMIN_ROLE) {... */\n    tag_28:\n      tag_49\n      tag_137\n      calldatasize\n      0x04\n      tag_63\n      jump\t// in\n    tag_137:\n      tag_138\n      jump\t// in\n        /* \"contracts/HealthWallet.sol\":8254:8930  function hasAccess(... */\n    tag_29:\n      tag_38\n      tag_140\n      calldatasize\n      0x04\n      tag_141\n      jump\t// in\n    tag_140:\n      tag_142\n      jump\t// in\n        /* \"@openzeppelin/contracts/access/AccessControl.sol\":4618:4756  function revokeRole(bytes32 role, address account) public virtual onlyRole(getRoleAdmin(role)) {... */\n    tag_30:\n      tag_49\n      tag_145\n      calldatasize\n      0x04\n      tag_90\n      jump\t// in\n    tag_145:\n      tag_146\n      jump\t// in\n        /* \"@openzeppelin/contracts/access/Ownable.sol\":2543:2758  function transferOwnership(address newOwner) public virtual onlyOwner {... */\n    tag_31:\n      tag_49\n      tag_148\n      calldatasize\n      0x04\n      tag_63\n      jump\t// in\n    tag_148:\n      tag_149\n      jump\t// in\n        /* \"contracts/HealthWallet.sol\":11010:11238  function getAuditLogs(uint256 _recordId) ... */\n    tag_35:\n        /* \"contracts/HealthWallet.sol\":11166:11184  AccessLog[] memory */\n      0x60\n        /* \"contracts/HealthWallet.sol\":11105:11114  _recordId */\n      dup2\n        /* \"contracts/HealthWallet.sol\":3766:3767  0 */\n      0x00\n        /* \"contracts/HealthWallet.sol\":3754:3763  _recordId */\n      dup2\n        /* \"contracts/HealthWallet.sol\":3754:3767  _recordId > 0 */\n      gt\n        /* \"contracts/HealthWallet.sol\":3754:3797  _recordId > 0 && _recordId <= recordCounter */\n      dup1\n      iszero\n      tag_151\n      jumpi\n      pop\n        /* \"contracts/HealthWallet.sol\":3784:3797  recordCounter */\n      sload(0x07)\n        /* \"contracts/HealthWallet.sol\":3771:3780  _recordId */\n      dup2\n        /* \"contracts/HealthWallet.sol\":3771:3797  _recordId <= recordCounter */\n      gt\n      iszero\n        /* \"contracts/HealthWallet.sol\":3754:3797  _recordId > 0 && _recordId <= recordCounter */\n    tag_151:\n        /* \"contracts/HealthWallet.sol\":3746:3823  require(_recordId > 0 && _recordId <= recordCounter, \"Record does not exist\") */\n      tag_152\n      jumpi\n      mload(0x40)\n      shl(0xe5, 0x461bcd)\n      dup2\n      mstore\n      0x04\n      add\n      tag_153\n      swap1\n      tag_154\n      jump\t// in\n    tag_153:\n      mload(0x40)\n      dup1\n      swap2\n      sub\n      swap1\n      revert\n    tag_152:\n        /* \"contracts/HealthWallet.sol\":3842:3860  records[_recordId] */\n      0x00\n      dup2\n      dup2\n      mstore\n        /* \"contracts/HealthWallet.sol\":3842:3849  records */\n      0x03\n        /* \"contracts/HealthWallet.sol\":3842:3860  records[_recordId] */\n      0x20\n      mstore\n      0x40\n      swap1\n      keccak256\n        /* \"contracts/HealthWallet.sol\":3842:3869  records[_recordId].isActive */\n      0x05\n      add\n      sload\n      shl(0xa0, 0x01)\n      swap1\n      div\n      0xff\n      and\n        /* \"contracts/HealthWallet.sol\":3834:3894  require(records[_recordId].isActive, \"Record is not active\") */\n      tag_155\n      jumpi\n      mload(0x40)\n      shl(0xe5, 0x461bcd)\n      dup2\n      mstore\n      0x04\n      add\n      tag_153\n      swap1\n      tag_157\n      jump\t// in\n    tag_155:\n        /* \"contracts/HealthWallet.sol\":3312:3330  records[_recordId] */\n      0x00\n      dup4\n      dup2\n      mstore\n        /* \"contracts/HealthWallet.sol\":3312:3319  records */\n      0x03\n        /* \"contracts/HealthWallet.sol\":3312:3330  records[_recordId] */\n      0x20\n      mstore\n      0x40\n      swap1\n      keccak256\n        /* \"contracts/HealthWallet.sol\":3312:3345  records[_recordId].patientAddress */\n      0x01\n      add\n      sload\n        /* \"contracts/HealthWallet.sol\":11137:11146  _recordId */\n      dup4\n      swap1\n      sub(shl(0xa0, 0x01), 0x01)\n        /* \"contracts/HealthWallet.sol\":3312:3345  records[_recordId].patientAddress */\n      and\n        /* \"contracts/HealthWallet.sol\":3349:3359  msg.sender */\n      caller\n        /* \"contracts/HealthWallet.sol\":3312:3359  records[_recordId].patientAddress == msg.sender */\n      eq\n        /* \"contracts/HealthWallet.sol\":3290:3423  require(... */\n      tag_159\n      jumpi\n      mload(0x40)\n      shl(0xe5, 0x461bcd)\n      dup2\n      mstore\n      0x04\n      add\n      tag_153\n      swap1\n      tag_161\n      jump\t// in\n    tag_159:\n        /* \"contracts/HealthWallet.sol\":11210:11230  auditLogs[_recordId] */\n      0x00\n      dup5\n      dup2\n      mstore\n        /* \"contracts/HealthWallet.sol\":11210:11219  auditLogs */\n      0x05\n        /* \"contracts/HealthWallet.sol\":11210:11230  auditLogs[_recordId] */\n      0x20\n      swap1\n      dup2\n      mstore\n      0x40\n      dup1\n      dup4\n      keccak256\n        /* \"contracts/HealthWallet.sol\":11203:11230  return auditLogs[_recordId] */\n      dup1\n      sload\n      dup3\n      mload\n      dup2\n      dup6\n      mul\n      dup2\n      add\n      dup6\n      add\n      swap1\n      swap4\n      mstore\n      dup1\n      dup4\n      mstore\n      swap2\n      swap4\n        /* \"contracts/HealthWallet.sol\":11210:11230  auditLogs[_recordId] */\n      swap1\n      swap3\n        /* \"contracts/HealthWallet.sol\":11203:11230  return auditLogs[_recordId] */\n      dup5\n      add\n    tag_163:\n      dup3\n      dup3\n      lt\n      iszero\n      tag_164\n      jumpi\n      0x00\n      dup5\n      dup2\n      mstore\n      0x20\n      swap1\n      dup2\n      swap1\n      keccak256\n      0x40\n      dup1\n      mload\n      0x60\n      dup2\n      add\n      dup3\n      mstore\n      0x03\n      dup7\n      mul\n      swap1\n      swap3\n      add\n      dup1\n      sload\n      sub(shl(0xa0, 0x01), 0x01)\n      and\n      dup4\n      mstore\n      0x01\n      dup2\n      add\n      sload\n      swap4\n      dup4\n      add\n      swap4\n      swap1\n      swap4\n      mstore\n      0x02\n      dup4\n      add\n      sload\n      swap2\n      swap3\n      swap2\n      swap1\n      dup4\n      add\n      swap1\n      0xff\n      and\n      0x04\n      dup2\n      gt\n      iszero\n      tag_167\n      jumpi\n      tag_167\n      tag_168\n      jump\t// in\n    tag_167:\n      0x04\n      dup2\n      gt\n      iszero\n      tag_170\n      jumpi\n      tag_170\n      tag_168\n      jump\t// in\n    tag_170:\n      dup2\n      mstore\n      pop\n      pop\n      dup2\n      mstore\n      0x20\n      add\n      swap1\n      0x01\n      add\n      swap1\n      jump(tag_163)\n    tag_164:\n      pop\n      pop\n      pop\n      pop\n      swap3\n      pop\n        /* \"contracts/HealthWallet.sol\":3905:3906  _ */\n      pop\n        /* \"contracts/HealthWallet.sol\":11010:11238  function getAuditLogs(uint256 _recordId) ... */\n      pop\n      swap2\n      swap1\n      pop\n      jump\t// out\n        /* \"@openzeppelin/contracts/access/AccessControl.sol\":2541:2743  function supportsInterface(bytes4 interfaceId) public view virtual override returns (bool) {... */\n    tag_41:\n        /* \"@openzeppelin/contracts/access/AccessControl.sol\":2626:2630  bool */\n      0x00\n      not(sub(shl(0xe0, 0x01), 0x01))\n        /* \"@openzeppelin/contracts/access/AccessControl.sol\":2649:2696  interfaceId == type(IAccessControl).interfaceId */\n      dup3\n      and\n      shl(0xe0, 0x7965db0b)\n      eq\n      dup1\n        /* \"@openzeppelin/contracts/access/AccessControl.sol\":2649:2736  interfaceId == type(IAccessControl).interfaceId || super.supportsInterface(interfaceId) */\n      tag_173\n      jumpi\n      pop\n      shl(0xe0, 0x01ffc9a7)\n      not(sub(shl(0xe0, 0x01), 0x01))\n        /* \"@openzeppelin/contracts/utils/introspection/ERC165.sol\":829:869  interfaceId == type(IERC165).interfaceId */\n      dup4\n      and\n      eq\n        /* \"@openzeppelin/contracts/access/AccessControl.sol\":2700:2736  super.supportsInterface(interfaceId) */\n    tag_173:\n        /* \"@openzeppelin/contracts/access/AccessControl.sol\":2642:2736  return interfaceId == type(IAccessControl).interfaceId || super.supportsInterface(interfaceId) */\n      swap3\n        /* \"@openzeppelin/contracts/access/AccessControl.sol\":2541:2743  function supportsInterface(bytes4 interfaceId) public view virtual override returns (bool) {... */\n      swap2\n      pop\n      pop\n      jump\t// out\n        /* \"contracts/HealthWallet.sol\":9970:10197  function getRecord(uint256 _recordId) ... */\n    tag_46:\n        /* \"contracts/HealthWallet.sol\":10126:10145  HealthRecord memory */\n      tag_175\n      tag_176\n      jump\t// in\n    tag_175:\n        /* \"contracts/HealthWallet.sol\":10062:10071  _recordId */\n      dup2\n        /* \"contracts/HealthWallet.sol\":3766:3767  0 */\n      0x00\n        /* \"contracts/HealthWallet.sol\":3754:3763  _recordId */\n      dup2\n        /* \"contracts/HealthWallet.sol\":3754:3767  _recordId > 0 */\n      gt\n        /* \"contracts/HealthWallet.sol\":3754:3797  _recordId > 0 && _recordId <= recordCounter */\n      dup1\n      iszero\n      tag_178\n      jumpi\n      pop\n        /* \"contracts/HealthWallet.sol\":3784:3797  recordCounter */\n      sload(0x07)\n        /* \"contracts/HealthWallet.sol\":3771:3780  _recordId */\n      dup2\n        /* \"contracts/HealthWallet.sol\":3771:3797  _recordId <= recordCounter */\n      gt\n      iszero\n        /* \"contracts/HealthWallet.sol\":3754:3797  _recordId > 0 && _recordId <= recordCounter */\n    tag_178:\n        /* \"contracts/HealthWallet.sol\":3746:3823  require(_recordId > 0 && _recordId <= recordCounter, \"Record does not exist\") */\n      tag_179\n      jumpi\n      mload(0x40)\n      shl(0xe5, 0x461bcd)\n      dup2\n      mstore\n      0x04\n      add\n      tag_153\n      swap1\n      tag_154\n      jump\t// in\n    tag_179:\n        /* \"contracts/HealthWallet.sol\":3842:3860  records[_recordId] */\n      0x00\n      dup2\n      dup2\n      mstore\n        /* \"contracts/HealthWallet.sol\":3842:3849  records */\n      0x03\n        /* \"contracts/HealthWallet.sol\":3842:3860  records[_recordId] */\n      0x20\n      mstore\n      0x40\n      swap1\n      keccak256\n        /* \"contracts/HealthWallet.sol\":3842:3869  records[_recordId].isActive */\n      0x05\n      add\n      sload\n      shl(0xa0, 0x01)\n      swap1\n      div\n      0xff\n      and\n        /* \"contracts/HealthWallet.sol\":3834:3894  require(records[_recordId].isActive, \"Record is not active\") */\n      tag_181\n      jumpi\n      mload(0x40)\n      shl(0xe5, 0x461bcd)\n      dup2\n      mstore\n      0x04\n      add\n      tag_153\n      swap1\n      tag_157\n      jump\t// in\n    tag_181:\n        /* \"contracts/HealthWallet.sol\":3541:3559  records[_recordId] */\n      0x00\n      dup4\n      dup2\n      mstore\n        /* \"contracts/HealthWallet.sol\":3541:3548  records */\n      0x03\n        /* \"contracts/HealthWallet.sol\":3541:3559  records[_recordId] */\n      0x20\n      mstore\n      0x40\n      swap1\n      keccak256\n        /* \"contracts/HealthWallet.sol\":3541:3574  records[_recordId].patientAddress */\n      0x01\n      add\n      sload\n        /* \"contracts/HealthWallet.sol\":10097:10106  _recordId */\n      dup4\n      swap1\n        /* \"contracts/HealthWallet.sol\":3531:3598  hasAccess(records[_recordId].patientAddress, msg.sender, _recordId) */\n      tag_184\n      swap1\n      sub(shl(0xa0, 0x01), 0x01)\n        /* \"contracts/HealthWallet.sol\":3541:3574  records[_recordId].patientAddress */\n      and\n        /* \"contracts/HealthWallet.sol\":3576:3586  msg.sender */\n      caller\n        /* \"contracts/HealthWallet.sol\":10097:10106  _recordId */\n      dup4\n        /* \"contracts/HealthWallet.sol\":3531:3540  hasAccess */\n      tag_142\n        /* \"contracts/HealthWallet.sol\":3531:3598  hasAccess(records[_recordId].patientAddress, msg.sender, _recordId) */\n      jump\t// in\n    tag_184:\n        /* \"contracts/HealthWallet.sol\":3509:3662  require(... */\n      tag_185\n      jumpi\n      mload(0x40)\n      shl(0xe5, 0x461bcd)\n      dup2\n      mstore\n      0x04\n      add\n      tag_153\n      swap1\n      tag_187\n      jump\t// in\n    tag_185:\n        /* \"contracts/HealthWallet.sol\":10171:10189  records[_recordId] */\n      0x00\n      dup5\n      dup2\n      mstore\n        /* \"contracts/HealthWallet.sol\":10171:10178  records */\n      0x03\n        /* \"contracts/HealthWallet.sol\":10171:10189  records[_recordId] */\n      0x20\n      swap1\n      dup2\n      mstore\n      0x40\n      swap2\n      dup3\n      swap1\n      keccak256\n        /* \"contracts/HealthWallet.sol\":10164:10189  return records[_recordId] */\n      dup3\n      mload\n      0x0120\n      dup2\n      add\n      dup5\n      mstore\n      dup2\n      sload\n      dup2\n      mstore\n      0x01\n      dup3\n      add\n      sload\n      sub(shl(0xa0, 0x01), 0x01)\n      and\n      swap3\n      dup2\n      add\n      swap3\n      swap1\n      swap3\n      mstore\n      0x02\n      dup2\n      add\n      dup1\n      sload\n      swap3\n      swap4\n        /* \"contracts/HealthWallet.sol\":10171:10189  records[_recordId] */\n      swap2\n      swap3\n        /* \"contracts/HealthWallet.sol\":10164:10189  return records[_recordId] */\n      swap2\n      dup5\n      add\n      swap2\n      tag_189\n      swap1\n      tag_190\n      jump\t// in\n    tag_189:\n      dup1\n      0x1f\n      add\n      0x20\n      dup1\n      swap2\n      div\n      mul\n      0x20\n      add\n      mload(0x40)\n      swap1\n      dup2\n      add\n      0x40\n      mstore\n      dup1\n      swap3\n      swap2\n      swap1\n      dup2\n      dup2\n      mstore\n      0x20\n      add\n      dup3\n      dup1\n      sload\n      tag_191\n      swap1\n      tag_190\n      jump\t// in\n    tag_191:\n      dup1\n      iszero\n      tag_192\n      jumpi\n      dup1\n      0x1f\n      lt\n      tag_193\n      jumpi\n      0x0100\n      dup1\n      dup4\n      sload\n      div\n      mul\n      dup4\n      mstore\n      swap2\n      0x20\n      add\n      swap2\n      jump(tag_192)\n    tag_193:\n      dup3\n      add\n      swap2\n      swap1\n      0x00\n      mstore\n      keccak256(0x00, 0x20)\n      swap1\n    tag_194:\n      dup2\n      sload\n      dup2\n      mstore\n      swap1\n      0x01\n      add\n      swap1\n      0x20\n      add\n      dup1\n      dup4\n      gt\n      tag_194\n      jumpi\n      dup3\n      swap1\n      sub\n      0x1f\n      and\n      dup3\n      add\n      swap2\n    tag_192:\n      pop\n      pop\n      pop\n      swap2\n      dup4\n      mstore\n      pop\n      pop\n      0x03\n      dup3\n      add\n      sload\n      0x20\n      swap1\n      swap2\n      add\n      swap1\n      0xff\n      and\n      0x05\n      dup2\n      gt\n      iszero\n      tag_196\n      jumpi\n      tag_196\n      tag_168\n      jump\t// in\n    tag_196:\n      0x05\n      dup2\n      gt\n      iszero\n      tag_198\n      jumpi\n      tag_198\n      tag_168\n      jump\t// in\n    tag_198:\n      dup2\n      mstore\n      0x04\n      dup3\n      add\n      sload\n      0x20\n      dup3\n      add\n      mstore\n      0x05\n      dup3\n      add\n      sload\n      sub(shl(0xa0, 0x01), 0x01)\n      dup2\n      and\n      0x40\n      dup4\n      add\n      mstore\n      shl(0xa0, 0x01)\n      swap1\n      div\n      0xff\n      and\n      iszero\n      iszero\n      0x60\n      dup3\n      add\n      mstore\n      0x06\n      dup3\n      add\n      dup1\n      sload\n      0x80\n      swap1\n      swap3\n      add\n      swap2\n      tag_199\n      swap1\n      tag_190\n      jump\t// in\n    tag_199:\n      dup1\n      0x1f\n      add\n      0x20\n      dup1\n      swap2\n      div\n      mul\n      0x20\n      add\n      mload(0x40)\n      swap1\n      dup2\n      add\n      0x40\n      mstore\n      dup1\n      swap3\n      swap2\n      swap1\n      dup2\n      dup2\n      mstore\n      0x20\n      add\n      dup3\n      dup1\n      sload\n      tag_200\n      swap1\n      tag_190\n      jump\t// in\n    tag_200:\n      dup1\n      iszero\n      tag_201\n      jumpi\n      dup1\n      0x1f\n      lt\n      tag_202\n      jumpi\n      0x0100\n      dup1\n      dup4\n      sload\n      div\n      mul\n      dup4\n      mstore\n      swap2\n      0x20\n      add\n      swap2\n      jump(tag_201)\n    tag_202:\n      dup3\n      add\n      swap2\n      swap1\n      0x00\n      mstore\n      keccak256(0x00, 0x20)\n      swap1\n    tag_203:\n      dup2\n      sload\n      dup2\n      mstore\n      swap1\n      0x01\n      add\n      swap1\n      0x20\n      add\n      dup1\n      dup4\n      gt\n      tag_203\n      jumpi\n      dup3\n      swap1\n      sub\n      0x1f\n      and\n      dup3\n      add\n      swap2\n    tag_201:\n      pop\n      pop\n      pop\n      pop\n      pop\n      dup2\n      mstore\n      0x20\n      add\n      0x07\n      dup3\n      add\n      sload\n      dup2\n      mstore\n      pop\n      pop\n      swap3\n      pop\n        /* \"contracts/HealthWallet.sol\":3905:3906  _ */\n      pop\n        /* \"contracts/HealthWallet.sol\":9970:10197  function getRecord(uint256 _recordId) ... */\n      pop\n      swap2\n      swap1\n      pop\n      jump\t// out\n        /* \"contracts/HealthWallet.sol\":6525:6710  function deleteRecord(uint256 _recordId) ... */\n    tag_51:\n        /* \"contracts/HealthWallet.sol\":6606:6615  _recordId */\n      dup1\n        /* \"contracts/HealthWallet.sol\":3766:3767  0 */\n      0x00\n        /* \"contracts/HealthWallet.sol\":3754:3763  _recordId */\n      dup2\n        /* \"contracts/HealthWallet.sol\":3754:3767  _recordId > 0 */\n      gt\n        /* \"contracts/HealthWallet.sol\":3754:3797  _recordId > 0 && _recordId <= recordCounter */\n      dup1\n      iszero\n      tag_205\n      jumpi\n      pop\n        /* \"contracts/HealthWallet.sol\":3784:3797  recordCounter */\n      sload(0x07)\n        /* \"contracts/HealthWallet.sol\":3771:3780  _recordId */\n      dup2\n        /* \"contracts/HealthWallet.sol\":3771:3797  _recordId <= recordCounter */\n      gt\n      iszero\n        /* \"contracts/HealthWallet.sol\":3754:3797  _recordId > 0 && _recordId <= recordCounter */\n    tag_205:\n        /* \"contracts/HealthWallet.sol\":3746:3823  require(_recordId > 0 && _recordId <= recordCounter, \"Record does not exist\") */\n      tag_206\n      jumpi\n      mload(0x40)\n      shl(0xe5, 0x461bcd)\n      dup2\n      mstore\n      0x04\n      add\n      tag_153\n      swap1\n      tag_154\n      jump\t// in\n    tag_206:\n        /* \"contracts/HealthWallet.sol\":3842:3860  records[_recordId] */\n      0x00\n      dup2\n      dup2\n      mstore\n        /* \"contracts/HealthWallet.sol\":3842:3849  records */\n      0x03\n        /* \"contracts/HealthWallet.sol\":3842:3860  records[_recordId] */\n      0x20\n      mstore\n      0x40\n      swap1\n      keccak256\n        /* \"contracts/HealthWallet.sol\":3842:3869  records[_recordId].isActive */\n      0x05\n      add\n      sload\n      shl(0xa0, 0x01)\n      swap1\n      div\n      0xff\n      and\n        /* \"contracts/HealthWallet.sol\":3834:3894  require(records[_recordId].isActive, \"Record is not active\") */\n      tag_208\n      jumpi\n      mload(0x40)\n      shl(0xe5, 0x461bcd)\n      dup2\n      mstore\n      0x04\n      add\n      tag_153\n      swap1\n      tag_157\n      jump\t// in\n    tag_208:\n        /* \"contracts/HealthWallet.sol\":3312:3330  records[_recordId] */\n      0x00\n      dup3\n      dup2\n      mstore\n        /* \"contracts/HealthWallet.sol\":3312:3319  records */\n      0x03\n        /* \"contracts/HealthWallet.sol\":3312:3330  records[_recordId] */\n      0x20\n      mstore\n      0x40\n      swap1\n      keccak256\n        /* \"contracts/HealthWallet.sol\":3312:3345  records[_recordId].patientAddress */\n      0x01\n      add\n      sload\n        /* \"contracts/HealthWallet.sol\":6639:6648  _recordId */\n      dup3\n      swap1\n      sub(shl(0xa0, 0x01), 0x01)\n        /* \"contracts/HealthWallet.sol\":3312:3345  records[_recordId].patientAddress */\n      and\n        /* \"contracts/HealthWallet.sol\":3349:3359  msg.sender */\n      caller\n        /* \"contracts/HealthWallet.sol\":3312:3359  records[_recordId].patientAddress == msg.sender */\n      eq\n        /* \"contracts/HealthWallet.sol\":3290:3423  require(... */\n      tag_211\n      jumpi\n      mload(0x40)\n      shl(0xe5, 0x461bcd)\n      dup2\n      mstore\n      0x04\n      add\n      tag_153\n      swap1\n      tag_161\n      jump\t// in\n    tag_211:\n      pop\n      pop\n        /* \"contracts/HealthWallet.sol\":6697:6702  false */\n      0x00\n        /* \"contracts/HealthWallet.sol\":6667:6685  records[_recordId] */\n      swap1\n      dup2\n      mstore\n        /* \"contracts/HealthWallet.sol\":6667:6674  records */\n      0x03\n        /* \"contracts/HealthWallet.sol\":6667:6685  records[_recordId] */\n      0x20\n      mstore\n      0x40\n      swap1\n      keccak256\n        /* \"contracts/HealthWallet.sol\":6667:6694  records[_recordId].isActive */\n      0x05\n      add\n        /* \"contracts/HealthWallet.sol\":6667:6702  records[_recordId].isActive = false */\n      dup1\n      sload\n      not(shl(0xa0, 0xff))\n      and\n      swap1\n      sstore\n        /* \"contracts/HealthWallet.sol\":6525:6710  function deleteRecord(uint256 _recordId) ... */\n      jump\t// out\n        /* \"contracts/HealthWallet.sol\":4925:5939  function addRecordByProvider(... */\n    tag_59:\n        /* \"contracts/HealthWallet.sol\":5139:5146  uint256 */\n      0x00\n        /* \"contracts/HealthWallet.sol\":3142:3176  hasRole(PROVIDER_ROLE, msg.sender) */\n      tag_216\n      0x00\n      dup1\n      mload\n      0x20\n      data_c5db673750b8988991e755326ed2c44ddaddfe45172e77d196edfccfe0ac5518\n      dup4\n      codecopy\n      dup2\n      mload\n      swap2\n      mstore\n        /* \"contracts/HealthWallet.sol\":3165:3175  msg.sender */\n      caller\n        /* \"contracts/HealthWallet.sol\":3142:3149  hasRole */\n      tag_119\n        /* \"contracts/HealthWallet.sol\":3142:3176  hasRole(PROVIDER_ROLE, msg.sender) */\n      jump\t// in\n    tag_216:\n        /* \"contracts/HealthWallet.sol\":3134:3207  require(hasRole(PROVIDER_ROLE, msg.sender), \"Not an authorized provider\") */\n      tag_217\n      jumpi\n      mload(0x40)\n      shl(0xe5, 0x461bcd)\n      dup2\n      mstore\n        /* \"#utility.yul\":14103:14105   */\n      0x20\n        /* \"contracts/HealthWallet.sol\":3134:3207  require(hasRole(PROVIDER_ROLE, msg.sender), \"Not an authorized provider\") */\n      0x04\n      dup3\n      add\n        /* \"#utility.yul\":14085:14106   */\n      mstore\n        /* \"#utility.yul\":14142:14144   */\n      0x1a\n        /* \"#utility.yul\":14122:14140   */\n      0x24\n      dup3\n      add\n        /* \"#utility.yul\":14115:14145   */\n      mstore\n      shl(0x31, 0x2737ba1030b71030baba3437b934bd32b210383937bb34b232b9)\n        /* \"#utility.yul\":14161:14179   */\n      0x44\n      dup3\n      add\n        /* \"#utility.yul\":14154:14210   */\n      mstore\n        /* \"#utility.yul\":14227:14245   */\n      0x64\n      add\n        /* \"contracts/HealthWallet.sol\":3134:3207  require(hasRole(PROVIDER_ROLE, msg.sender), \"Not an authorized provider\") */\n      tag_153\n        /* \"#utility.yul\":13901:14251   */\n      jump\n        /* \"contracts/HealthWallet.sol\":3134:3207  require(hasRole(PROVIDER_ROLE, msg.sender), \"Not an authorized provider\") */\n    tag_217:\n      sub(shl(0xa0, 0x01), 0x01)\n        /* \"contracts/HealthWallet.sol\":5167:5196  _patientAddress != address(0) */\n      dup6\n      and\n        /* \"contracts/HealthWallet.sol\":5159:5224  require(_patientAddress != address(0), \"Invalid patient address\") */\n      tag_221\n      jumpi\n      mload(0x40)\n      shl(0xe5, 0x461bcd)\n      dup2\n      mstore\n        /* \"#utility.yul\":14458:14460   */\n      0x20\n        /* \"contracts/HealthWallet.sol\":5159:5224  require(_patientAddress != address(0), \"Invalid patient address\") */\n      0x04\n      dup3\n      add\n        /* \"#utility.yul\":14440:14461   */\n      mstore\n        /* \"#utility.yul\":14497:14499   */\n      0x17\n        /* \"#utility.yul\":14477:14495   */\n      0x24\n      dup3\n      add\n        /* \"#utility.yul\":14470:14500   */\n      mstore\n      shl(0x48, 0x496e76616c69642070617469656e742061646472657373)\n        /* \"#utility.yul\":14516:14534   */\n      0x44\n      dup3\n      add\n        /* \"#utility.yul\":14509:14562   */\n      mstore\n        /* \"#utility.yul\":14579:14597   */\n      0x64\n      add\n        /* \"contracts/HealthWallet.sol\":5159:5224  require(_patientAddress != address(0), \"Invalid patient address\") */\n      tag_153\n        /* \"#utility.yul\":14256:14603   */\n      jump\n        /* \"contracts/HealthWallet.sol\":5159:5224  require(_patientAddress != address(0), \"Invalid patient address\") */\n    tag_221:\n        /* \"contracts/HealthWallet.sol\":5269:5270  0 */\n      0x00\n        /* \"contracts/HealthWallet.sol\":5249:5258  _ipfsHash */\n      dup5\n        /* \"contracts/HealthWallet.sol\":5243:5266  bytes(_ipfsHash).length */\n      mload\n        /* \"contracts/HealthWallet.sol\":5243:5270  bytes(_ipfsHash).length > 0 */\n      gt\n        /* \"contracts/HealthWallet.sol\":5235:5300  require(bytes(_ipfsHash).length > 0, \"IPFS hash cannot be empty\") */\n      tag_224\n      jumpi\n      mload(0x40)\n      shl(0xe5, 0x461bcd)\n      dup2\n      mstore\n      0x04\n      add\n      tag_153\n      swap1\n      tag_226\n      jump\t// in\n    tag_224:\n        /* \"contracts/HealthWallet.sol\":5321:5334  recordCounter */\n      0x07\n        /* \"contracts/HealthWallet.sol\":5321:5336  recordCounter++ */\n      dup1\n      sload\n      swap1\n        /* \"contracts/HealthWallet.sol\":5321:5334  recordCounter */\n      0x00\n        /* \"contracts/HealthWallet.sol\":5321:5336  recordCounter++ */\n      tag_227\n      dup4\n      tag_228\n      jump\t// in\n    tag_227:\n      swap2\n      swap1\n      pop\n      sstore\n      pop\n        /* \"contracts/HealthWallet.sol\":5382:5735  HealthRecord({... */\n      mload(0x40)\n      dup1\n      0x0120\n      add\n      0x40\n      mstore\n      dup1\n        /* \"contracts/HealthWallet.sol\":5420:5433  recordCounter */\n      sload(0x07)\n        /* \"contracts/HealthWallet.sol\":5382:5735  HealthRecord({... */\n      dup2\n      mstore\n      0x20\n      add\n        /* \"contracts/HealthWallet.sol\":5464:5479  _patientAddress */\n      dup7\n      sub(shl(0xa0, 0x01), 0x01)\n        /* \"contracts/HealthWallet.sol\":5382:5735  HealthRecord({... */\n      and\n      dup2\n      mstore\n      0x20\n      add\n        /* \"contracts/HealthWallet.sol\":5504:5513  _ipfsHash */\n      dup6\n        /* \"contracts/HealthWallet.sol\":5382:5735  HealthRecord({... */\n      dup2\n      mstore\n      0x20\n      add\n        /* \"contracts/HealthWallet.sol\":5540:5551  _recordType */\n      dup5\n        /* \"contracts/HealthWallet.sol\":5382:5735  HealthRecord({... */\n      0x05\n      dup2\n      gt\n      iszero\n      tag_230\n      jumpi\n      tag_230\n      tag_168\n      jump\t// in\n    tag_230:\n      dup2\n      mstore\n        /* \"contracts/HealthWallet.sol\":5577:5592  block.timestamp */\n      timestamp\n        /* \"contracts/HealthWallet.sol\":5382:5735  HealthRecord({... */\n      0x20\n      dup1\n      dup4\n      add\n      swap2\n      swap1\n      swap2\n      mstore\n        /* \"contracts/HealthWallet.sol\":5617:5627  msg.sender */\n      caller\n        /* \"contracts/HealthWallet.sol\":5382:5735  HealthRecord({... */\n      0x40\n      dup1\n      dup5\n      add\n      swap2\n      swap1\n      swap2\n      mstore\n        /* \"contracts/HealthWallet.sol\":5652:5656  true */\n      0x01\n        /* \"contracts/HealthWallet.sol\":5382:5735  HealthRecord({... */\n      0x60\n      dup5\n      add\n      dup2\n      swap1\n      mstore\n      0x80\n      dup5\n      add\n      dup8\n      swap1\n      mstore\n      0xa0\n      swap1\n      swap4\n      add\n      dup4\n      swap1\n      mstore\n        /* \"contracts/HealthWallet.sol\":5365:5378  recordCounter */\n      sload(0x07)\n      0x00\n        /* \"contracts/HealthWallet.sol\":5357:5379  records[recordCounter] */\n      swap1\n      dup2\n      mstore\n        /* \"contracts/HealthWallet.sol\":5357:5364  records */\n      0x03\n        /* \"contracts/HealthWallet.sol\":5357:5379  records[recordCounter] */\n      dup4\n      mstore\n      dup2\n      swap1\n      keccak256\n        /* \"contracts/HealthWallet.sol\":5357:5735  records[recordCounter] = HealthRecord({... */\n      dup5\n      mload\n      dup2\n      sstore\n      swap2\n      dup5\n      add\n      mload\n      swap3\n      dup3\n      add\n      dup1\n      sload\n      not(sub(shl(0xa0, 0x01), 0x01))\n      and\n      sub(shl(0xa0, 0x01), 0x01)\n      swap1\n      swap5\n      and\n      swap4\n      swap1\n      swap4\n      or\n      swap1\n      swap3\n      sstore\n      swap1\n      dup3\n      add\n      mload\n      0x02\n      dup3\n      add\n      swap1\n      tag_231\n      swap1\n      dup3\n      tag_232\n      jump\t// in\n    tag_231:\n      pop\n      0x60\n      dup3\n      add\n      mload\n      0x03\n      dup3\n      add\n      dup1\n      sload\n      not(0xff)\n      and\n      0x01\n      dup4\n      0x05\n      dup2\n      gt\n      iszero\n      tag_234\n      jumpi\n      tag_234\n      tag_168\n      jump\t// in\n    tag_234:\n      mul\n      or\n      swap1\n      sstore\n      pop\n      0x80\n      dup3\n      add\n      mload\n      0x04\n      dup3\n      add\n      sstore\n      0xa0\n      dup3\n      add\n      mload\n      0x05\n      dup3\n      add\n      dup1\n      sload\n      0xc0\n      dup6\n      add\n      mload\n      iszero\n      iszero\n      shl(0xa0, 0x01)\n      mul\n      not(sub(shl(0xa8, 0x01), 0x01))\n      swap1\n      swap2\n      and\n      sub(shl(0xa0, 0x01), 0x01)\n      swap1\n      swap4\n      and\n      swap3\n      swap1\n      swap3\n      or\n      swap2\n      swap1\n      swap2\n      or\n      swap1\n      sstore\n      0xe0\n      dup3\n      add\n      mload\n      0x06\n      dup3\n      add\n      swap1\n      tag_235\n      swap1\n      dup3\n      tag_232\n      jump\t// in\n    tag_235:\n      pop\n      0x0100\n      swap2\n      swap1\n      swap2\n      add\n      mload\n      0x07\n      swap2\n      dup3\n      add\n      sstore\n      sub(shl(0xa0, 0x01), 0x01)\n        /* \"contracts/HealthWallet.sol\":5756:5787  patientRecords[_patientAddress] */\n      dup7\n      and\n      0x00\n      dup2\n      dup2\n      mstore\n        /* \"contracts/HealthWallet.sol\":5756:5770  patientRecords */\n      0x02\n        /* \"contracts/HealthWallet.sol\":5756:5787  patientRecords[_patientAddress] */\n      0x20\n      swap1\n      dup2\n      mstore\n      0x40\n      dup1\n      dup4\n      keccak256\n        /* \"contracts/HealthWallet.sol\":5793:5806  recordCounter */\n      dup6\n      sload\n        /* \"contracts/HealthWallet.sol\":5756:5807  patientRecords[_patientAddress].push(recordCounter) */\n      dup2\n      sload\n      0x01\n      dup2\n      add\n      dup4\n      sstore\n      swap2\n      dup6\n      mstore\n      swap3\n      swap1\n      swap4\n      keccak256\n      swap1\n      swap3\n      add\n      sstore\n        /* \"contracts/HealthWallet.sol\":5845:5858  recordCounter */\n      swap2\n      sload\n        /* \"contracts/HealthWallet.sol\":5833:5900  RecordAdded(recordCounter, _patientAddress, _ipfsHash, _recordType) */\n      swap2\n      mload\n        /* \"contracts/HealthWallet.sol\":5756:5787  patientRecords[_patientAddress] */\n      swap1\n      swap2\n        /* \"contracts/HealthWallet.sol\":5845:5858  recordCounter */\n      swap1\n      0x00\n      dup1\n      mload\n      0x20\n      data_0a2cf329bf8e9c212d511fb79525c41762f016dade08da9362bb03dde5d5747d\n      dup4\n      codecopy\n      dup2\n      mload\n      swap2\n      mstore\n        /* \"contracts/HealthWallet.sol\":5833:5900  RecordAdded(recordCounter, _patientAddress, _ipfsHash, _recordType) */\n      swap1\n      tag_237\n      swap1\n        /* \"contracts/HealthWallet.sol\":5877:5886  _ipfsHash */\n      dup9\n      swap1\n        /* \"contracts/HealthWallet.sol\":5888:5899  _recordType */\n      dup9\n      swap1\n        /* \"contracts/HealthWallet.sol\":5833:5900  RecordAdded(recordCounter, _patientAddress, _ipfsHash, _recordType) */\n      tag_238\n      jump\t// in\n    tag_237:\n      mload(0x40)\n      dup1\n      swap2\n      sub\n      swap1\n      log3\n      pop\n        /* \"contracts/HealthWallet.sol\":5918:5931  recordCounter */\n      sload(0x07)\n        /* \"contracts/HealthWallet.sol\":4925:5939  function addRecordByProvider(... */\n      swap5\n      swap4\n      pop\n      pop\n      pop\n      pop\n      jump\t// out\n        /* \"contracts/HealthWallet.sol\":12783:12990  function authorizeProvider(address _provider) public onlyRole(DEFAULT_ADMIN_ROLE) {... */\n    tag_64:\n        /* \"@openzeppelin/contracts/access/AccessControl.sol\":2241:2245  0x00 */\n      0x00\n        /* \"@openzeppelin/contracts/access/AccessControl.sol\":2473:2489  _checkRole(role) */\n      tag_240\n        /* \"@openzeppelin/contracts/access/AccessControl.sol\":2241:2245  0x00 */\n      dup2\n        /* \"@openzeppelin/contracts/access/AccessControl.sol\":2473:2483  _checkRole */\n      tag_241\n        /* \"@openzeppelin/contracts/access/AccessControl.sol\":2473:2489  _checkRole(role) */\n      jump\t// in\n    tag_240:\n      sub(shl(0xa0, 0x01), 0x01)\n        /* \"contracts/HealthWallet.sol\":12884:12907  _provider != address(0) */\n      dup3\n      and\n        /* \"contracts/HealthWallet.sol\":12876:12936  require(_provider != address(0), \"Invalid provider address\") */\n      tag_243\n      jumpi\n      mload(0x40)\n      shl(0xe5, 0x461bcd)\n      dup2\n      mstore\n        /* \"#utility.yul\":17888:17890   */\n      0x20\n        /* \"contracts/HealthWallet.sol\":12876:12936  require(_provider != address(0), \"Invalid provider address\") */\n      0x04\n      dup3\n      add\n        /* \"#utility.yul\":17870:17891   */\n      mstore\n        /* \"#utility.yul\":17927:17929   */\n      0x18\n        /* \"#utility.yul\":17907:17925   */\n      0x24\n      dup3\n      add\n        /* \"#utility.yul\":17900:17930   */\n      mstore\n      shl(0x40, 0x496e76616c69642070726f76696465722061646472657373)\n        /* \"#utility.yul\":17946:17964   */\n      0x44\n      dup3\n      add\n        /* \"#utility.yul\":17939:17993   */\n      mstore\n        /* \"#utility.yul\":18010:18028   */\n      0x64\n      add\n        /* \"contracts/HealthWallet.sol\":12876:12936  require(_provider != address(0), \"Invalid provider address\") */\n      tag_153\n        /* \"#utility.yul\":17686:18034   */\n      jump\n        /* \"contracts/HealthWallet.sol\":12876:12936  require(_provider != address(0), \"Invalid provider address\") */\n    tag_243:\n        /* \"contracts/HealthWallet.sol\":12947:12982  grantRole(PROVIDER_ROLE, _provider) */\n      tag_246\n      0x00\n      dup1\n      mload\n      0x20\n      data_c5db673750b8988991e755326ed2c44ddaddfe45172e77d196edfccfe0ac5518\n      dup4\n      codecopy\n      dup2\n      mload\n      swap2\n      mstore\n        /* \"contracts/HealthWallet.sol\":12972:12981  _provider */\n      dup4\n        /* \"contracts/HealthWallet.sol\":12947:12956  grantRole */\n      tag_91\n        /* \"contracts/HealthWallet.sol\":12947:12982  grantRole(PROVIDER_ROLE, _provider) */\n      jump\t// in\n    tag_246:\n        /* \"contracts/HealthWallet.sol\":12783:12990  function authorizeProvider(address _provider) public onlyRole(DEFAULT_ADMIN_ROLE) {... */\n      pop\n      pop\n      jump\t// out\n        /* \"contracts/HealthWallet.sol\":9006:9894  function getPatientRecords(address _patient) ... */\n    tag_67:\n        /* \"contracts/HealthWallet.sol\":9102:9118  uint256[] memory */\n      0x60\n      sub(shl(0xa0, 0x01), 0x01)\n        /* \"contracts/HealthWallet.sol\":9141:9163  msg.sender == _patient */\n      dup3\n      and\n        /* \"contracts/HealthWallet.sol\":9141:9151  msg.sender */\n      caller\n        /* \"contracts/HealthWallet.sol\":9141:9163  msg.sender == _patient */\n      sub\n        /* \"contracts/HealthWallet.sol\":9137:9223  if (msg.sender == _patient) {... */\n      tag_248\n      jumpi\n      sub(shl(0xa0, 0x01), 0x01)\n        /* \"contracts/HealthWallet.sol\":9187:9211  patientRecords[_patient] */\n      dup3\n      and\n      0x00\n      swap1\n      dup2\n      mstore\n        /* \"contracts/HealthWallet.sol\":9187:9201  patientRecords */\n      0x02\n        /* \"contracts/HealthWallet.sol\":9187:9211  patientRecords[_patient] */\n      0x20\n      swap1\n      dup2\n      mstore\n      0x40\n      swap2\n      dup3\n      swap1\n      keccak256\n        /* \"contracts/HealthWallet.sol\":9180:9211  return patientRecords[_patient] */\n      dup1\n      sload\n      dup4\n      mload\n      dup2\n      dup5\n      mul\n      dup2\n      add\n      dup5\n      add\n      swap1\n      swap5\n      mstore\n      dup1\n      dup5\n      mstore\n        /* \"contracts/HealthWallet.sol\":9187:9211  patientRecords[_patient] */\n      swap1\n      swap2\n        /* \"contracts/HealthWallet.sol\":9180:9211  return patientRecords[_patient] */\n      dup4\n      add\n        /* \"contracts/HealthWallet.sol\":9187:9211  patientRecords[_patient] */\n      dup3\n        /* \"contracts/HealthWallet.sol\":9180:9211  return patientRecords[_patient] */\n      dup3\n      dup1\n      iszero\n      tag_249\n      jumpi\n      0x20\n      mul\n      dup3\n      add\n      swap2\n      swap1\n      0x00\n      mstore\n      keccak256(0x00, 0x20)\n      swap1\n    tag_250:\n      dup2\n      sload\n      dup2\n      mstore\n      0x20\n      add\n      swap1\n      0x01\n      add\n      swap1\n      dup1\n      dup4\n      gt\n      tag_250\n      jumpi\n    tag_249:\n      pop\n      pop\n      pop\n      pop\n      pop\n      swap1\n      pop\n        /* \"contracts/HealthWallet.sol\":9006:9894  function getPatientRecords(address _patient) ... */\n      swap2\n      swap1\n      pop\n      jump\t// out\n        /* \"contracts/HealthWallet.sol\":9137:9223  if (msg.sender == _patient) {... */\n    tag_248:\n        /* \"contracts/HealthWallet.sol\":9243:9281  hasGeneralAccess(_patient, msg.sender) */\n      tag_251\n        /* \"contracts/HealthWallet.sol\":9260:9268  _patient */\n      dup3\n        /* \"contracts/HealthWallet.sol\":9270:9280  msg.sender */\n      caller\n        /* \"contracts/HealthWallet.sol\":9243:9259  hasGeneralAccess */\n      tag_252\n        /* \"contracts/HealthWallet.sol\":9243:9281  hasGeneralAccess(_patient, msg.sender) */\n      jump\t// in\n    tag_251:\n        /* \"contracts/HealthWallet.sol\":9235:9300  require(hasGeneralAccess(_patient, msg.sender), \"Not authorized\") */\n      tag_253\n      jumpi\n      mload(0x40)\n      shl(0xe5, 0x461bcd)\n      dup2\n      mstore\n      0x04\n      add\n      tag_153\n      swap1\n      tag_255\n      jump\t// in\n    tag_253:\n      sub(shl(0xa0, 0x01), 0x01)\n        /* \"contracts/HealthWallet.sol\":9337:9361  patientRecords[_patient] */\n      dup3\n      and\n        /* \"contracts/HealthWallet.sol\":9313:9334  uint256[] storage all */\n      0x00\n        /* \"contracts/HealthWallet.sol\":9337:9361  patientRecords[_patient] */\n      swap1\n      dup2\n      mstore\n        /* \"contracts/HealthWallet.sol\":9337:9351  patientRecords */\n      0x02\n        /* \"contracts/HealthWallet.sol\":9337:9361  patientRecords[_patient] */\n      0x20\n      mstore\n      0x40\n      dup2\n      keccak256\n      swap1\n        /* \"contracts/HealthWallet.sol\":9313:9334  uint256[] storage all */\n      dup1\n        /* \"contracts/HealthWallet.sol\":9407:9568  for (uint256 i = 0; i < all.length; i++) {... */\n    tag_256:\n        /* \"contracts/HealthWallet.sol\":9431:9441  all.length */\n      dup3\n      sload\n        /* \"contracts/HealthWallet.sol\":9427:9441  i < all.length */\n      dup2\n      lt\n        /* \"contracts/HealthWallet.sol\":9407:9568  for (uint256 i = 0; i < all.length; i++) {... */\n      iszero\n      tag_257\n      jumpi\n        /* \"contracts/HealthWallet.sol\":9467:9506  hasAccess(_patient, msg.sender, all[i]) */\n      tag_259\n        /* \"contracts/HealthWallet.sol\":9477:9485  _patient */\n      dup6\n        /* \"contracts/HealthWallet.sol\":9487:9497  msg.sender */\n      caller\n        /* \"contracts/HealthWallet.sol\":9499:9502  all */\n      dup6\n        /* \"contracts/HealthWallet.sol\":9503:9504  i */\n      dup5\n        /* \"contracts/HealthWallet.sol\":9499:9505  all[i] */\n      dup2\n      sload\n      dup2\n      lt\n      tag_261\n      jumpi\n      tag_261\n      tag_262\n      jump\t// in\n    tag_261:\n      swap1\n      0x00\n      mstore\n      keccak256(0x00, 0x20)\n      add\n      sload\n        /* \"contracts/HealthWallet.sol\":9467:9476  hasAccess */\n      tag_142\n        /* \"contracts/HealthWallet.sol\":9467:9506  hasAccess(_patient, msg.sender, all[i]) */\n      jump\t// in\n    tag_259:\n        /* \"contracts/HealthWallet.sol\":9463:9557  if (hasAccess(_patient, msg.sender, all[i])) {... */\n      iszero\n      tag_264\n      jumpi\n        /* \"contracts/HealthWallet.sol\":9527:9541  allowedCount++ */\n      dup2\n      tag_265\n      dup2\n      tag_228\n      jump\t// in\n    tag_265:\n      swap3\n      pop\n      pop\n        /* \"contracts/HealthWallet.sol\":9463:9557  if (hasAccess(_patient, msg.sender, all[i])) {... */\n    tag_264:\n        /* \"contracts/HealthWallet.sol\":9443:9446  i++ */\n      0x01\n      add\n        /* \"contracts/HealthWallet.sol\":9407:9568  for (uint256 i = 0; i < all.length; i++) {... */\n      jump(tag_256)\n    tag_257:\n      pop\n        /* \"contracts/HealthWallet.sol\":9580:9603  uint256[] memory result */\n      0x00\n        /* \"contracts/HealthWallet.sol\":9620:9632  allowedCount */\n      dup2\n      sub(shl(0x40, 0x01), 0x01)\n        /* \"contracts/HealthWallet.sol\":9606:9633  new uint256[](allowedCount) */\n      dup2\n      gt\n      iszero\n      tag_267\n      jumpi\n      tag_267\n      tag_268\n      jump\t// in\n    tag_267:\n      mload(0x40)\n      swap1\n      dup1\n      dup3\n      mstore\n      dup1\n      0x20\n      mul\n      0x20\n      add\n      dup3\n      add\n      0x40\n      mstore\n      dup1\n      iszero\n      tag_269\n      jumpi\n      dup2\n      0x20\n      add\n      0x20\n      dup3\n      mul\n      dup1\n      calldatasize\n      dup4\n      calldatacopy\n      add\n      swap1\n      pop\n    tag_269:\n      pop\n        /* \"contracts/HealthWallet.sol\":9580:9633  uint256[] memory result = new uint256[](allowedCount) */\n      swap1\n      pop\n        /* \"contracts/HealthWallet.sol\":9644:9655  uint256 idx */\n      0x00\n        /* \"contracts/HealthWallet.sol\":9675:9684  uint256 i */\n      dup1\n        /* \"contracts/HealthWallet.sol\":9670:9861  for (uint256 i = 0; i < all.length; i++) {... */\n    tag_270:\n        /* \"contracts/HealthWallet.sol\":9694:9704  all.length */\n      dup5\n      sload\n        /* \"contracts/HealthWallet.sol\":9690:9704  i < all.length */\n      dup2\n      lt\n        /* \"contracts/HealthWallet.sol\":9670:9861  for (uint256 i = 0; i < all.length; i++) {... */\n      iszero\n      tag_271\n      jumpi\n        /* \"contracts/HealthWallet.sol\":9730:9769  hasAccess(_patient, msg.sender, all[i]) */\n      tag_273\n        /* \"contracts/HealthWallet.sol\":9740:9748  _patient */\n      dup8\n        /* \"contracts/HealthWallet.sol\":9750:9760  msg.sender */\n      caller\n        /* \"contracts/HealthWallet.sol\":9762:9765  all */\n      dup8\n        /* \"contracts/HealthWallet.sol\":9766:9767  i */\n      dup5\n        /* \"contracts/HealthWallet.sol\":9762:9768  all[i] */\n      dup2\n      sload\n      dup2\n      lt\n      tag_261\n      jumpi\n      tag_261\n      tag_262\n      jump\t// in\n        /* \"contracts/HealthWallet.sol\":9730:9769  hasAccess(_patient, msg.sender, all[i]) */\n    tag_273:\n        /* \"contracts/HealthWallet.sol\":9726:9850  if (hasAccess(_patient, msg.sender, all[i])) {... */\n      iszero\n      tag_277\n      jumpi\n        /* \"contracts/HealthWallet.sol\":9804:9807  all */\n      dup5\n        /* \"contracts/HealthWallet.sol\":9808:9809  i */\n      dup2\n        /* \"contracts/HealthWallet.sol\":9804:9810  all[i] */\n      dup2\n      sload\n      dup2\n      lt\n      tag_279\n      jumpi\n      tag_279\n      tag_262\n      jump\t// in\n    tag_279:\n      swap1\n      0x00\n      mstore\n      keccak256(0x00, 0x20)\n      add\n      sload\n        /* \"contracts/HealthWallet.sol\":9790:9796  result */\n      dup4\n        /* \"contracts/HealthWallet.sol\":9797:9800  idx */\n      dup4\n        /* \"contracts/HealthWallet.sol\":9790:9801  result[idx] */\n      dup2\n      mload\n      dup2\n      lt\n      tag_282\n      jumpi\n      tag_282\n      tag_262\n      jump\t// in\n    tag_282:\n      0x20\n      swap1\n      dup2\n      mul\n      swap2\n      swap1\n      swap2\n      add\n      add\n        /* \"contracts/HealthWallet.sol\":9790:9810  result[idx] = all[i] */\n      mstore\n        /* \"contracts/HealthWallet.sol\":9829:9834  idx++ */\n      dup2\n      tag_283\n      dup2\n      tag_228\n      jump\t// in\n    tag_283:\n      swap3\n      pop\n      pop\n        /* \"contracts/HealthWallet.sol\":9726:9850  if (hasAccess(_patient, msg.sender, all[i])) {... */\n    tag_277:\n        /* \"contracts/HealthWallet.sol\":9706:9709  i++ */\n      0x01\n      add\n        /* \"contracts/HealthWallet.sol\":9670:9861  for (uint256 i = 0; i < all.length; i++) {... */\n      jump(tag_270)\n    tag_271:\n      pop\n        /* \"contracts/HealthWallet.sol\":9880:9886  result */\n      swap1\n      swap6\n        /* \"contracts/HealthWallet.sol\":9006:9894  function getPatientRecords(address _patient) ... */\n      swap5\n      pop\n      pop\n      pop\n      pop\n      pop\n      jump\t// out\n        /* \"contracts/HealthWallet.sol\":3981:4837  function addRecord(... */\n    tag_73:\n        /* \"contracts/HealthWallet.sol\":4128:4135  uint256 */\n      0x00\n        /* \"contracts/HealthWallet.sol\":4182:4183  0 */\n      dup1\n        /* \"contracts/HealthWallet.sol\":4162:4171  _ipfsHash */\n      dup5\n        /* \"contracts/HealthWallet.sol\":4156:4179  bytes(_ipfsHash).length */\n      mload\n        /* \"contracts/HealthWallet.sol\":4156:4183  bytes(_ipfsHash).length > 0 */\n      gt\n        /* \"contracts/HealthWallet.sol\":4148:4213  require(bytes(_ipfsHash).length > 0, \"IPFS hash cannot be empty\") */\n      tag_285\n      jumpi\n      mload(0x40)\n      shl(0xe5, 0x461bcd)\n      dup2\n      mstore\n      0x04\n      add\n      tag_153\n      swap1\n      tag_226\n      jump\t// in\n    tag_285:\n        /* \"contracts/HealthWallet.sol\":4234:4247  recordCounter */\n      0x07\n        /* \"contracts/HealthWallet.sol\":4234:4249  recordCounter++ */\n      dup1\n      sload\n      swap1\n        /* \"contracts/HealthWallet.sol\":4234:4247  recordCounter */\n      0x00\n        /* \"contracts/HealthWallet.sol\":4234:4249  recordCounter++ */\n      tag_287\n      dup4\n      tag_228\n      jump\t// in\n    tag_287:\n      swap2\n      swap1\n      pop\n      sstore\n      pop\n        /* \"contracts/HealthWallet.sol\":4295:4643  HealthRecord({... */\n      mload(0x40)\n      dup1\n      0x0120\n      add\n      0x40\n      mstore\n      dup1\n        /* \"contracts/HealthWallet.sol\":4333:4346  recordCounter */\n      sload(0x07)\n        /* \"contracts/HealthWallet.sol\":4295:4643  HealthRecord({... */\n      dup2\n      mstore\n      0x20\n      add\n        /* \"contracts/HealthWallet.sol\":4377:4387  msg.sender */\n      caller\n      sub(shl(0xa0, 0x01), 0x01)\n        /* \"contracts/HealthWallet.sol\":4295:4643  HealthRecord({... */\n      and\n      dup2\n      mstore\n      0x20\n      add\n        /* \"contracts/HealthWallet.sol\":4412:4421  _ipfsHash */\n      dup6\n        /* \"contracts/HealthWallet.sol\":4295:4643  HealthRecord({... */\n      dup2\n      mstore\n      0x20\n      add\n        /* \"contracts/HealthWallet.sol\":4448:4459  _recordType */\n      dup5\n        /* \"contracts/HealthWallet.sol\":4295:4643  HealthRecord({... */\n      0x05\n      dup2\n      gt\n      iszero\n      tag_289\n      jumpi\n      tag_289\n      tag_168\n      jump\t// in\n    tag_289:\n      dup2\n      mstore\n        /* \"contracts/HealthWallet.sol\":4485:4500  block.timestamp */\n      timestamp\n        /* \"contracts/HealthWallet.sol\":4295:4643  HealthRecord({... */\n      0x20\n      dup1\n      dup4\n      add\n      swap2\n      swap1\n      swap2\n      mstore\n        /* \"contracts/HealthWallet.sol\":4525:4535  msg.sender */\n      caller\n        /* \"contracts/HealthWallet.sol\":4295:4643  HealthRecord({... */\n      0x40\n      dup1\n      dup5\n      add\n      swap2\n      swap1\n      swap2\n      mstore\n        /* \"contracts/HealthWallet.sol\":4560:4564  true */\n      0x01\n        /* \"contracts/HealthWallet.sol\":4295:4643  HealthRecord({... */\n      0x60\n      dup5\n      add\n      dup2\n      swap1\n      mstore\n      0x80\n      dup5\n      add\n      dup8\n      swap1\n      mstore\n      0xa0\n      swap1\n      swap4\n      add\n      dup4\n      swap1\n      mstore\n        /* \"contracts/HealthWallet.sol\":4278:4291  recordCounter */\n      sload(0x07)\n      0x00\n        /* \"contracts/HealthWallet.sol\":4270:4292  records[recordCounter] */\n      swap1\n      dup2\n      mstore\n        /* \"contracts/HealthWallet.sol\":4270:4277  records */\n      0x03\n        /* \"contracts/HealthWallet.sol\":4270:4292  records[recordCounter] */\n      dup4\n      mstore\n      dup2\n      swap1\n      keccak256\n        /* \"contracts/HealthWallet.sol\":4270:4643  records[recordCounter] = HealthRecord({... */\n      dup5\n      mload\n      dup2\n      sstore\n      swap2\n      dup5\n      add\n      mload\n      swap3\n      dup3\n      add\n      dup1\n      sload\n      not(sub(shl(0xa0, 0x01), 0x01))\n      and\n      sub(shl(0xa0, 0x01), 0x01)\n      swap1\n      swap5\n      and\n      swap4\n      swap1\n      swap4\n      or\n      swap1\n      swap3\n      sstore\n      swap1\n      dup3\n      add\n      mload\n      0x02\n      dup3\n      add\n      swap1\n      tag_290\n      swap1\n      dup3\n      tag_232\n      jump\t// in\n    tag_290:\n      pop\n      0x60\n      dup3\n      add\n      mload\n      0x03\n      dup3\n      add\n      dup1\n      sload\n      not(0xff)\n      and\n      0x01\n      dup4\n      0x05\n      dup2\n      gt\n      iszero\n      tag_292\n      jumpi\n      tag_292\n      tag_168\n      jump\t// in\n    tag_292:\n      mul\n      or\n      swap1\n      sstore\n      pop\n      0x80\n      dup3\n      add\n      mload\n      0x04\n      dup3\n      add\n      sstore\n      0xa0\n      dup3\n      add\n      mload\n      0x05\n      dup3\n      add\n      dup1\n      sload\n      0xc0\n      dup6\n      add\n      mload\n      iszero\n      iszero\n      shl(0xa0, 0x01)\n      mul\n      not(sub(shl(0xa8, 0x01), 0x01))\n      swap1\n      swap2\n      and\n      sub(shl(0xa0, 0x01), 0x01)\n      swap1\n      swap4\n      and\n      swap3\n      swap1\n      swap3\n      or\n      swap2\n      swap1\n      swap2\n      or\n      swap1\n      sstore\n      0xe0\n      dup3\n      add\n      mload\n      0x06\n      dup3\n      add\n      swap1\n      tag_293\n      swap1\n      dup3\n      tag_232\n      jump\t// in\n    tag_293:\n      pop\n      0x0100\n      swap2\n      swap1\n      swap2\n      add\n      mload\n      0x07\n      swap2\n      dup3\n      add\n      sstore\n        /* \"contracts/HealthWallet.sol\":4679:4689  msg.sender */\n      caller\n        /* \"contracts/HealthWallet.sol\":4664:4690  patientRecords[msg.sender] */\n      0x00\n      dup2\n      dup2\n      mstore\n        /* \"contracts/HealthWallet.sol\":4664:4678  patientRecords */\n      0x02\n        /* \"contracts/HealthWallet.sol\":4664:4690  patientRecords[msg.sender] */\n      0x20\n      swap1\n      dup2\n      mstore\n      0x40\n      dup1\n      dup4\n      keccak256\n        /* \"contracts/HealthWallet.sol\":4696:4709  recordCounter */\n      dup6\n      sload\n        /* \"contracts/HealthWallet.sol\":4664:4710  patientRecords[msg.sender].push(recordCounter) */\n      dup2\n      sload\n      0x01\n      dup2\n      add\n      dup4\n      sstore\n      swap2\n      dup6\n      mstore\n      swap3\n      swap1\n      swap4\n      keccak256\n      swap1\n      swap3\n      add\n      sstore\n        /* \"contracts/HealthWallet.sol\":4748:4761  recordCounter */\n      swap2\n      sload\n        /* \"contracts/HealthWallet.sol\":4736:4798  RecordAdded(recordCounter, msg.sender, _ipfsHash, _recordType) */\n      swap2\n      mload\n        /* \"contracts/HealthWallet.sol\":4679:4689  msg.sender */\n      swap1\n      swap2\n        /* \"contracts/HealthWallet.sol\":4748:4761  recordCounter */\n      swap1\n      0x00\n      dup1\n      mload\n      0x20\n      data_0a2cf329bf8e9c212d511fb79525c41762f016dade08da9362bb03dde5d5747d\n      dup4\n      codecopy\n      dup2\n      mload\n      swap2\n      mstore\n        /* \"contracts/HealthWallet.sol\":4736:4798  RecordAdded(recordCounter, msg.sender, _ipfsHash, _recordType) */\n      swap1\n      tag_295\n      swap1\n        /* \"contracts/HealthWallet.sol\":4775:4784  _ipfsHash */\n      dup9\n      swap1\n        /* \"contracts/HealthWallet.sol\":4786:4797  _recordType */\n      dup9\n      swap1\n        /* \"contracts/HealthWallet.sol\":4736:4798  RecordAdded(recordCounter, msg.sender, _ipfsHash, _recordType) */\n      tag_238\n      jump\t// in\n    tag_295:\n      mload(0x40)\n      dup1\n      swap2\n      sub\n      swap1\n      log3\n      pop\n        /* \"contracts/HealthWallet.sol\":4816:4829  recordCounter */\n      sload(0x07)\n        /* \"contracts/HealthWallet.sol\":3981:4837  function addRecord(... */\n    tag_284:\n      swap4\n      swap3\n      pop\n      pop\n      pop\n      jump\t// out\n        /* \"contracts/HealthWallet.sol\":13312:13447  function isAuthorizedProvider(address _provider) public view returns (bool) {... */\n    tag_77:\n        /* \"contracts/HealthWallet.sol\":13382:13386  bool */\n      0x00\n        /* \"contracts/HealthWallet.sol\":13406:13439  hasRole(PROVIDER_ROLE, _provider) */\n      tag_173\n      0x00\n      dup1\n      mload\n      0x20\n      data_c5db673750b8988991e755326ed2c44ddaddfe45172e77d196edfccfe0ac5518\n      dup4\n      codecopy\n      dup2\n      mload\n      swap2\n      mstore\n        /* \"contracts/HealthWallet.sol\":13429:13438  _provider */\n      dup4\n        /* \"contracts/HealthWallet.sol\":13406:13413  hasRole */\n      tag_119\n        /* \"contracts/HealthWallet.sol\":13406:13439  hasRole(PROVIDER_ROLE, _provider) */\n      jump\t// in\n        /* \"@openzeppelin/contracts/access/AccessControl.sol\":3786:3906  function getRoleAdmin(bytes32 role) public view virtual returns (bytes32) {... */\n    tag_82:\n        /* \"@openzeppelin/contracts/access/AccessControl.sol\":3851:3858  bytes32 */\n      0x00\n        /* \"@openzeppelin/contracts/access/AccessControl.sol\":3877:3889  _roles[role] */\n      swap1\n      dup2\n      mstore\n        /* \"@openzeppelin/contracts/access/AccessControl.sol\":3877:3883  _roles */\n      0x01\n        /* \"@openzeppelin/contracts/access/AccessControl.sol\":3877:3889  _roles[role] */\n      0x20\n      dup2\n      swap1\n      mstore\n      0x40\n      swap1\n      swap2\n      keccak256\n        /* \"@openzeppelin/contracts/access/AccessControl.sol\":3877:3899  _roles[role].adminRole */\n      add\n      sload\n      swap1\n        /* \"@openzeppelin/contracts/access/AccessControl.sol\":3786:3906  function getRoleAdmin(bytes32 role) public view virtual returns (bytes32) {... */\n      jump\t// out\n        /* \"@openzeppelin/contracts/access/AccessControl.sol\":4202:4338  function grantRole(bytes32 role, address account) public virtual onlyRole(getRoleAdmin(role)) {... */\n    tag_91:\n        /* \"@openzeppelin/contracts/access/AccessControl.sol\":4276:4294  getRoleAdmin(role) */\n      tag_299\n        /* \"@openzeppelin/contracts/access/AccessControl.sol\":4289:4293  role */\n      dup3\n        /* \"@openzeppelin/contracts/access/AccessControl.sol\":4276:4288  getRoleAdmin */\n      tag_82\n        /* \"@openzeppelin/contracts/access/AccessControl.sol\":4276:4294  getRoleAdmin(role) */\n      jump\t// in\n    tag_299:\n        /* \"@openzeppelin/contracts/access/AccessControl.sol\":2473:2489  _checkRole(role) */\n      tag_301\n        /* \"@openzeppelin/contracts/access/AccessControl.sol\":2484:2488  role */\n      dup2\n        /* \"@openzeppelin/contracts/access/AccessControl.sol\":2473:2483  _checkRole */\n      tag_241\n        /* \"@openzeppelin/contracts/access/AccessControl.sol\":2473:2489  _checkRole(role) */\n      jump\t// in\n    tag_301:\n        /* \"@openzeppelin/contracts/access/AccessControl.sol\":4306:4331  _grantRole(role, account) */\n      tag_303\n        /* \"@openzeppelin/contracts/access/AccessControl.sol\":4317:4321  role */\n      dup4\n        /* \"@openzeppelin/contracts/access/AccessControl.sol\":4323:4330  account */\n      dup4\n        /* \"@openzeppelin/contracts/access/AccessControl.sol\":4306:4316  _grantRole */\n      tag_304\n        /* \"@openzeppelin/contracts/access/AccessControl.sol\":4306:4331  _grantRole(role, account) */\n      jump\t// in\n    tag_303:\n      pop\n        /* \"@openzeppelin/contracts/access/AccessControl.sol\":4202:4338  function grantRole(bytes32 role, address account) public virtual onlyRole(getRoleAdmin(role)) {... */\n      pop\n      pop\n      pop\n      jump\t// out\n        /* \"@openzeppelin/contracts/access/AccessControl.sol\":5304:5549  function renounceRole(bytes32 role, address callerConfirmation) public virtual {... */\n    tag_94:\n      sub(shl(0xa0, 0x01), 0x01)\n        /* \"@openzeppelin/contracts/access/AccessControl.sol\":5397:5431  callerConfirmation != _msgSender() */\n      dup2\n      and\n        /* \"@openzeppelin/contracts/utils/Context.sol\":735:745  msg.sender */\n      caller\n        /* \"@openzeppelin/contracts/access/AccessControl.sol\":5397:5431  callerConfirmation != _msgSender() */\n      eq\n        /* \"@openzeppelin/contracts/access/AccessControl.sol\":5393:5495  if (callerConfirmation != _msgSender()) {... */\n      tag_308\n      jumpi\n        /* \"@openzeppelin/contracts/access/AccessControl.sol\":5454:5484  AccessControlBadConfirmation() */\n      mload(0x40)\n      shl(0xe1, 0x334bd919)\n      dup2\n      mstore\n      0x04\n      add\n      mload(0x40)\n      dup1\n      swap2\n      sub\n      swap1\n      revert\n        /* \"@openzeppelin/contracts/access/AccessControl.sol\":5393:5495  if (callerConfirmation != _msgSender()) {... */\n    tag_308:\n        /* \"@openzeppelin/contracts/access/AccessControl.sol\":5505:5542  _revokeRole(role, callerConfirmation) */\n      tag_309\n        /* \"@openzeppelin/contracts/access/AccessControl.sol\":5517:5521  role */\n      dup3\n        /* \"@openzeppelin/contracts/access/AccessControl.sol\":5523:5541  callerConfirmation */\n      dup3\n        /* \"@openzeppelin/contracts/access/AccessControl.sol\":5505:5516  _revokeRole */\n      tag_310\n        /* \"@openzeppelin/contracts/access/AccessControl.sol\":5505:5542  _revokeRole(role, callerConfirmation) */\n      jump\t// in\n    tag_309:\n      pop\n        /* \"@openzeppelin/contracts/access/AccessControl.sol\":5304:5549  function renounceRole(bytes32 role, address callerConfirmation) public virtual {... */\n      pop\n      pop\n      jump\t// out\n        /* \"contracts/HealthWallet.sol\":6008:6461  function updateRecord(... */\n    tag_98:\n        /* \"contracts/HealthWallet.sol\":6163:6172  _recordId */\n      dup3\n        /* \"contracts/HealthWallet.sol\":3766:3767  0 */\n      0x00\n        /* \"contracts/HealthWallet.sol\":3754:3763  _recordId */\n      dup2\n        /* \"contracts/HealthWallet.sol\":3754:3767  _recordId > 0 */\n      gt\n        /* \"contracts/HealthWallet.sol\":3754:3797  _recordId > 0 && _recordId <= recordCounter */\n      dup1\n      iszero\n      tag_312\n      jumpi\n      pop\n        /* \"contracts/HealthWallet.sol\":3784:3797  recordCounter */\n      sload(0x07)\n        /* \"contracts/HealthWallet.sol\":3771:3780  _recordId */\n      dup2\n        /* \"contracts/HealthWallet.sol\":3771:3797  _recordId <= recordCounter */\n      gt\n      iszero\n        /* \"contracts/HealthWallet.sol\":3754:3797  _recordId > 0 && _recordId <= recordCounter */\n    tag_312:\n        /* \"contracts/HealthWallet.sol\":3746:3823  require(_recordId > 0 && _recordId <= recordCounter, \"Record does not exist\") */\n      tag_313\n      jumpi\n      mload(0x40)\n      shl(0xe5, 0x461bcd)\n      dup2\n      mstore\n      0x04\n      add\n      tag_153\n      swap1\n      tag_154\n      jump\t// in\n    tag_313:\n        /* \"contracts/HealthWallet.sol\":3842:3860  records[_recordId] */\n      0x00\n      dup2\n      dup2\n      mstore\n        /* \"contracts/HealthWallet.sol\":3842:3849  records */\n      0x03\n        /* \"contracts/HealthWallet.sol\":3842:3860  records[_recordId] */\n      0x20\n      mstore\n      0x40\n      swap1\n      keccak256\n        /* \"contracts/HealthWallet.sol\":3842:3869  records[_recordId].isActive */\n      0x05\n      add\n      sload\n      shl(0xa0, 0x01)\n      swap1\n      div\n      0xff\n      and\n        /* \"contracts/HealthWallet.sol\":3834:3894  require(records[_recordId].isActive, \"Record is not active\") */\n      tag_315\n      jumpi\n      mload(0x40)\n      shl(0xe5, 0x461bcd)\n      dup2\n      mstore\n      0x04\n      add\n      tag_153\n      swap1\n      tag_157\n      jump\t// in\n    tag_315:\n        /* \"contracts/HealthWallet.sol\":3312:3330  records[_recordId] */\n      0x00\n      dup5\n      dup2\n      mstore\n        /* \"contracts/HealthWallet.sol\":3312:3319  records */\n      0x03\n        /* \"contracts/HealthWallet.sol\":3312:3330  records[_recordId] */\n      0x20\n      mstore\n      0x40\n      swap1\n      keccak256\n        /* \"contracts/HealthWallet.sol\":3312:3345  records[_recordId].patientAddress */\n      0x01\n      add\n      sload\n        /* \"contracts/HealthWallet.sol\":6186:6195  _recordId */\n      dup5\n      swap1\n      sub(shl(0xa0, 0x01), 0x01)\n        /* \"contracts/HealthWallet.sol\":3312:3345  records[_recordId].patientAddress */\n      and\n        /* \"contracts/HealthWallet.sol\":3349:3359  msg.sender */\n      caller\n        /* \"contracts/HealthWallet.sol\":3312:3359  records[_recordId].patientAddress == msg.sender */\n      eq\n        /* \"contracts/HealthWallet.sol\":3290:3423  require(... */\n      tag_318\n      jumpi\n      mload(0x40)\n      shl(0xe5, 0x461bcd)\n      dup2\n      mstore\n      0x04\n      add\n      tag_153\n      swap1\n      tag_161\n      jump\t// in\n    tag_318:\n        /* \"contracts/HealthWallet.sol\":6208:6235  HealthRecord storage record */\n      0x00\n        /* \"contracts/HealthWallet.sol\":6238:6256  records[_recordId] */\n      dup6\n      dup2\n      mstore\n        /* \"contracts/HealthWallet.sol\":6238:6245  records */\n      0x03\n        /* \"contracts/HealthWallet.sol\":6238:6256  records[_recordId] */\n      0x20\n      mstore\n      0x40\n      swap1\n      keccak256\n        /* \"contracts/HealthWallet.sol\":6267:6282  record.ipfsHash */\n      0x02\n      dup2\n      add\n        /* \"contracts/HealthWallet.sol\":6267:6297  record.ipfsHash = _newIpfsHash */\n      tag_321\n        /* \"contracts/HealthWallet.sol\":6285:6297  _newIpfsHash */\n      dup7\n        /* \"contracts/HealthWallet.sol\":6267:6282  record.ipfsHash */\n      dup3\n        /* \"contracts/HealthWallet.sol\":6267:6297  record.ipfsHash = _newIpfsHash */\n      tag_232\n      jump\t// in\n    tag_321:\n      pop\n        /* \"contracts/HealthWallet.sol\":6308:6327  record.encryptedKey */\n      0x06\n      dup2\n      add\n        /* \"contracts/HealthWallet.sol\":6308:6346  record.encryptedKey = _newEncryptedKey */\n      tag_322\n        /* \"contracts/HealthWallet.sol\":6330:6346  _newEncryptedKey */\n      dup6\n        /* \"contracts/HealthWallet.sol\":6308:6327  record.encryptedKey */\n      dup3\n        /* \"contracts/HealthWallet.sol\":6308:6346  record.encryptedKey = _newEncryptedKey */\n      tag_232\n      jump\t// in\n    tag_322:\n      pop\n        /* \"contracts/HealthWallet.sol\":6357:6371  record.version */\n      0x07\n      dup2\n      add\n        /* \"contracts/HealthWallet.sol\":6357:6373  record.version++ */\n      dup1\n      sload\n      swap1\n        /* \"contracts/HealthWallet.sol\":6357:6371  record.version */\n      0x00\n        /* \"contracts/HealthWallet.sol\":6357:6373  record.version++ */\n      tag_323\n      dup4\n      tag_228\n      jump\t// in\n    tag_323:\n      swap2\n      swap1\n      pop\n      sstore\n      pop\n        /* \"contracts/HealthWallet.sol\":6413:6422  _recordId */\n      dup6\n        /* \"contracts/HealthWallet.sol\":6399:6453  RecordUpdated(_recordId, _newIpfsHash, record.version) */\n      0x088d9e16504277bf999412471e756eedf1ab2491c6a6399c9d349d3fea6d70cf\n        /* \"contracts/HealthWallet.sol\":6424:6436  _newIpfsHash */\n      dup7\n        /* \"contracts/HealthWallet.sol\":6438:6444  record */\n      dup4\n        /* \"contracts/HealthWallet.sol\":6438:6452  record.version */\n      0x07\n      add\n      sload\n        /* \"contracts/HealthWallet.sol\":6399:6453  RecordUpdated(_recordId, _newIpfsHash, record.version) */\n      mload(0x40)\n      tag_324\n      swap3\n      swap2\n      swap1\n      tag_325\n      jump\t// in\n    tag_324:\n      mload(0x40)\n      dup1\n      swap2\n      sub\n      swap1\n      log2\n        /* \"contracts/HealthWallet.sol\":6197:6461  {... */\n      pop\n        /* \"contracts/HealthWallet.sol\":3905:3906  _ */\n      pop\n        /* \"contracts/HealthWallet.sol\":6008:6461  function updateRecord(... */\n      pop\n      pop\n      pop\n      pop\n      jump\t// out\n        /* \"@openzeppelin/contracts/access/Ownable.sol\":2293:2394  function renounceOwnership() public virtual onlyOwner {... */\n    tag_100:\n        /* \"@openzeppelin/contracts/access/Ownable.sol\":1531:1544  _checkOwner() */\n      tag_327\n        /* \"@openzeppelin/contracts/access/Ownable.sol\":1531:1542  _checkOwner */\n      tag_328\n        /* \"@openzeppelin/contracts/access/Ownable.sol\":1531:1544  _checkOwner() */\n      jump\t// in\n    tag_327:\n        /* \"@openzeppelin/contracts/access/Ownable.sol\":2357:2387  _transferOwnership(address(0)) */\n      tag_330\n        /* \"@openzeppelin/contracts/access/Ownable.sol\":2384:2385  0 */\n      0x00\n        /* \"@openzeppelin/contracts/access/Ownable.sol\":2357:2375  _transferOwnership */\n      tag_331\n        /* \"@openzeppelin/contracts/access/Ownable.sol\":2357:2387  _transferOwnership(address(0)) */\n      jump\t// in\n    tag_330:\n        /* \"@openzeppelin/contracts/access/Ownable.sol\":2293:2394  function renounceOwnership() public virtual onlyOwner {... */\n      jump\t// out\n        /* \"contracts/HealthWallet.sol\":7902:8159  function revokeAccess(address _grantee) public {... */\n    tag_103:\n        /* \"contracts/HealthWallet.sol\":7981:7991  msg.sender */\n      caller\n        /* \"contracts/HealthWallet.sol\":7968:7992  accessGrants[msg.sender] */\n      0x00\n      swap1\n      dup2\n      mstore\n        /* \"contracts/HealthWallet.sol\":7968:7980  accessGrants */\n      0x04\n        /* \"contracts/HealthWallet.sol\":7968:7992  accessGrants[msg.sender] */\n      0x20\n      swap1\n      dup2\n      mstore\n      0x40\n      dup1\n      dup4\n      keccak256\n      sub(shl(0xa0, 0x01), 0x01)\n        /* \"contracts/HealthWallet.sol\":7968:8002  accessGrants[msg.sender][_grantee] */\n      dup6\n      and\n      dup5\n      mstore\n      swap1\n      swap2\n      mstore\n      swap1\n      keccak256\n        /* \"contracts/HealthWallet.sol\":7968:8011  accessGrants[msg.sender][_grantee].isActive */\n      0x03\n      add\n      sload\n      0xff\n      and\n        /* \"contracts/HealthWallet.sol\":7960:8038  require(accessGrants[msg.sender][_grantee].isActive, \"No active access grant\") */\n      tag_333\n      jumpi\n      mload(0x40)\n      shl(0xe5, 0x461bcd)\n      dup2\n      mstore\n        /* \"#utility.yul\":19012:19014   */\n      0x20\n        /* \"contracts/HealthWallet.sol\":7960:8038  require(accessGrants[msg.sender][_grantee].isActive, \"No active access grant\") */\n      0x04\n      dup3\n      add\n        /* \"#utility.yul\":18994:19015   */\n      mstore\n        /* \"#utility.yul\":19051:19053   */\n      0x16\n        /* \"#utility.yul\":19031:19049   */\n      0x24\n      dup3\n      add\n        /* \"#utility.yul\":19024:19054   */\n      mstore\n      shl(0x52, 0x139bc81858dd1a5d99481858d8d95cdcc819dc985b9d)\n        /* \"#utility.yul\":19070:19088   */\n      0x44\n      dup3\n      add\n        /* \"#utility.yul\":19063:19115   */\n      mstore\n        /* \"#utility.yul\":19132:19150   */\n      0x64\n      add\n        /* \"contracts/HealthWallet.sol\":7960:8038  require(accessGrants[msg.sender][_grantee].isActive, \"No active access grant\") */\n      tag_153\n        /* \"#utility.yul\":18810:19156   */\n      jump\n        /* \"contracts/HealthWallet.sol\":7960:8038  require(accessGrants[msg.sender][_grantee].isActive, \"No active access grant\") */\n    tag_333:\n        /* \"contracts/HealthWallet.sol\":8062:8072  msg.sender */\n      caller\n        /* \"contracts/HealthWallet.sol\":8095:8100  false */\n      0x00\n        /* \"contracts/HealthWallet.sol\":8049:8073  accessGrants[msg.sender] */\n      dup2\n      dup2\n      mstore\n        /* \"contracts/HealthWallet.sol\":8049:8061  accessGrants */\n      0x04\n        /* \"contracts/HealthWallet.sol\":8049:8073  accessGrants[msg.sender] */\n      0x20\n      swap1\n      dup2\n      mstore\n      0x40\n      dup1\n      dup4\n      keccak256\n      sub(shl(0xa0, 0x01), 0x01)\n        /* \"contracts/HealthWallet.sol\":8049:8083  accessGrants[msg.sender][_grantee] */\n      dup7\n      and\n      dup1\n      dup6\n      mstore\n      swap3\n      mstore\n      dup1\n      dup4\n      keccak256\n        /* \"contracts/HealthWallet.sol\":8049:8092  accessGrants[msg.sender][_grantee].isActive */\n      0x03\n      add\n        /* \"contracts/HealthWallet.sol\":8049:8100  accessGrants[msg.sender][_grantee].isActive = false */\n      dup1\n      sload\n      not(0xff)\n      and\n      swap1\n      sstore\n        /* \"contracts/HealthWallet.sol\":8116:8151  AccessRevoked(msg.sender, _grantee) */\n      mload\n        /* \"contracts/HealthWallet.sol\":8049:8083  accessGrants[msg.sender][_grantee] */\n      swap1\n      swap3\n        /* \"contracts/HealthWallet.sol\":8062:8072  msg.sender */\n      swap2\n        /* \"contracts/HealthWallet.sol\":8116:8151  AccessRevoked(msg.sender, _grantee) */\n      0x825c8be24eb0df19500f63e86c29e7d0d951e73056b889b891d85e40938d9b6e\n      swap2\n      log3\n        /* \"contracts/HealthWallet.sol\":7902:8159  function revokeAccess(address _grantee) public {... */\n      pop\n      jump\t// out\n        /* \"contracts/HealthWallet.sol\":12010:12328  function getAccessGrant(address _patient, address _grantee) ... */\n    tag_107:\n        /* \"contracts/HealthWallet.sol\":12121:12139  AccessGrant memory */\n      tag_336\n      mload(0x40)\n      dup1\n      0xa0\n      add\n      0x40\n      mstore\n      dup1\n      and(sub(shl(0xa0, 0x01), 0x01), 0x00)\n      dup2\n      mstore\n      0x20\n      add\n      0x60\n      dup2\n      mstore\n      0x20\n      add\n      0x00\n      dup2\n      mstore\n      0x20\n      add\n      iszero(iszero(0x00))\n      dup2\n      mstore\n      0x20\n      add\n      0x00\n      dup2\n      mstore\n      pop\n      swap1\n      jump\n    tag_336:\n        /* \"contracts/HealthWallet.sol\":12180:12190  msg.sender */\n      caller\n      sub(shl(0xa0, 0x01), 0x01)\n        /* \"contracts/HealthWallet.sol\":12180:12202  msg.sender == _patient */\n      dup5\n      and\n      eq\n      dup1\n        /* \"contracts/HealthWallet.sol\":12180:12228  msg.sender == _patient || msg.sender == _grantee */\n      tag_339\n      jumpi\n      pop\n        /* \"contracts/HealthWallet.sol\":12206:12216  msg.sender */\n      caller\n      sub(shl(0xa0, 0x01), 0x01)\n        /* \"contracts/HealthWallet.sol\":12206:12228  msg.sender == _grantee */\n      dup4\n      and\n      eq\n        /* \"contracts/HealthWallet.sol\":12180:12228  msg.sender == _patient || msg.sender == _grantee */\n    tag_339:\n        /* \"contracts/HealthWallet.sol\":12158:12270  require(... */\n      tag_340\n      jumpi\n      mload(0x40)\n      shl(0xe5, 0x461bcd)\n      dup2\n      mstore\n      0x04\n      add\n      tag_153\n      swap1\n      tag_255\n      jump\t// in\n    tag_340:\n      sub(shl(0xa0, 0x01), 0x01)\n        /* \"contracts/HealthWallet.sol\":12288:12310  accessGrants[_patient] */\n      dup1\n      dup5\n      and\n      0x00\n      swap1\n      dup2\n      mstore\n        /* \"contracts/HealthWallet.sol\":12288:12300  accessGrants */\n      0x04\n        /* \"contracts/HealthWallet.sol\":12288:12310  accessGrants[_patient] */\n      0x20\n      swap1\n      dup2\n      mstore\n      0x40\n      dup1\n      dup4\n      keccak256\n        /* \"contracts/HealthWallet.sol\":12288:12320  accessGrants[_patient][_grantee] */\n      dup7\n      dup6\n      and\n      dup5\n      mstore\n      dup3\n      mstore\n      swap2\n      dup3\n      swap1\n      keccak256\n        /* \"contracts/HealthWallet.sol\":12281:12320  return accessGrants[_patient][_grantee] */\n      dup3\n      mload\n      0xa0\n      dup2\n      add\n      dup5\n      mstore\n      dup2\n      sload\n      swap1\n      swap5\n      and\n      dup5\n      mstore\n      0x01\n      dup2\n      add\n      dup1\n      sload\n      dup5\n      mload\n      dup2\n      dup6\n      mul\n      dup2\n      add\n      dup6\n      add\n      swap1\n      swap6\n      mstore\n      dup1\n      dup6\n      mstore\n        /* \"contracts/HealthWallet.sol\":12288:12320  accessGrants[_patient][_grantee] */\n      swap2\n      swap4\n        /* \"contracts/HealthWallet.sol\":12281:12320  return accessGrants[_patient][_grantee] */\n      dup6\n      dup5\n      add\n      swap4\n      swap1\n      swap3\n      swap1\n      dup4\n      add\n      dup3\n      dup3\n      dup1\n      iszero\n      tag_342\n      jumpi\n      0x20\n      mul\n      dup3\n      add\n      swap2\n      swap1\n      0x00\n      mstore\n      keccak256(0x00, 0x20)\n      swap1\n    tag_343:\n      dup2\n      sload\n      dup2\n      mstore\n      0x20\n      add\n      swap1\n      0x01\n      add\n      swap1\n      dup1\n      dup4\n      gt\n      tag_343\n      jumpi\n    tag_342:\n      pop\n      pop\n      pop\n      swap2\n      dup4\n      mstore\n      pop\n      pop\n      0x02\n      dup3\n      add\n      sload\n      0x20\n      dup3\n      add\n      mstore\n      0x03\n      dup3\n      add\n      sload\n      0xff\n      and\n      iszero\n      iszero\n      0x40\n      dup3\n      add\n      mstore\n      0x04\n      swap1\n      swap2\n      add\n      sload\n      0x60\n      swap1\n      swap2\n      add\n      mstore\n      swap4\n        /* \"contracts/HealthWallet.sol\":12010:12328  function getAccessGrant(address _patient, address _grantee) ... */\n      swap3\n      pop\n      pop\n      pop\n      jump\t// out\n        /* \"@openzeppelin/contracts/access/Ownable.sol\":1638:1723  function owner() public view virtual returns (address) {... */\n    tag_111:\n        /* \"@openzeppelin/contracts/access/Ownable.sol\":1684:1691  address */\n      0x00\n        /* \"@openzeppelin/contracts/access/Ownable.sol\":1710:1716  _owner */\n      sload\n      sub(shl(0xa0, 0x01), 0x01)\n      and\n      swap1\n        /* \"@openzeppelin/contracts/access/Ownable.sol\":1638:1723  function owner() public view virtual returns (address) {... */\n      jump\t// out\n        /* \"contracts/HealthWallet.sol\":11303:11503  function setEmergencyContact(address _emergencyContact) public {... */\n    tag_116:\n      sub(shl(0xa0, 0x01), 0x01)\n        /* \"contracts/HealthWallet.sol\":11385:11416  _emergencyContact != address(0) */\n      dup2\n      and\n        /* \"contracts/HealthWallet.sol\":11377:11436  require(_emergencyContact != address(0), \"Invalid address\") */\n      tag_346\n      jumpi\n      mload(0x40)\n      shl(0xe5, 0x461bcd)\n      dup2\n      mstore\n      0x04\n      add\n      tag_153\n      swap1\n      tag_348\n      jump\t// in\n    tag_346:\n        /* \"contracts/HealthWallet.sol\":11464:11474  msg.sender */\n      caller\n        /* \"contracts/HealthWallet.sol\":11447:11475  emergencyContact[msg.sender] */\n      0x00\n      swap1\n      dup2\n      mstore\n        /* \"contracts/HealthWallet.sol\":11447:11463  emergencyContact */\n      0x06\n        /* \"contracts/HealthWallet.sol\":11447:11475  emergencyContact[msg.sender] */\n      0x20\n      mstore\n      0x40\n      swap1\n      keccak256\n        /* \"contracts/HealthWallet.sol\":11447:11495  emergencyContact[msg.sender] = _emergencyContact */\n      dup1\n      sload\n      not(sub(shl(0xa0, 0x01), 0x01))\n      and\n      sub(shl(0xa0, 0x01), 0x01)\n      swap3\n      swap1\n      swap3\n      and\n      swap2\n      swap1\n      swap2\n      or\n      swap1\n      sstore\n        /* \"contracts/HealthWallet.sol\":11303:11503  function setEmergencyContact(address _emergencyContact) public {... */\n      jump\t// out\n        /* \"@openzeppelin/contracts/access/AccessControl.sol\":2830:2966  function hasRole(bytes32 role, address account) public view virtual returns (bool) {... */\n    tag_119:\n        /* \"@openzeppelin/contracts/access/AccessControl.sol\":2907:2911  bool */\n      0x00\n        /* \"@openzeppelin/contracts/access/AccessControl.sol\":2930:2942  _roles[role] */\n      swap2\n      dup3\n      mstore\n        /* \"@openzeppelin/contracts/access/AccessControl.sol\":2930:2936  _roles */\n      0x01\n        /* \"@openzeppelin/contracts/access/AccessControl.sol\":2930:2942  _roles[role] */\n      0x20\n      swap1\n      dup2\n      mstore\n      0x40\n      dup1\n      dup5\n      keccak256\n      sub(shl(0xa0, 0x01), 0x01)\n        /* \"@openzeppelin/contracts/access/AccessControl.sol\":2930:2959  _roles[role].hasRole[account] */\n      swap4\n      swap1\n      swap4\n      and\n      dup5\n      mstore\n      swap2\n      swap1\n      mstore\n      swap1\n      keccak256\n      sload\n      0xff\n      and\n      swap1\n        /* \"@openzeppelin/contracts/access/AccessControl.sol\":2830:2966  function hasRole(bytes32 role, address account) public view virtual returns (bool) {... */\n      jump\t// out\n        /* \"contracts/HealthWallet.sol\":6786:7818  function grantAccess(... */\n    tag_124:\n      sub(shl(0xa0, 0x01), 0x01)\n        /* \"contracts/HealthWallet.sol\":6939:6961  _grantee != address(0) */\n      dup4\n      and\n        /* \"contracts/HealthWallet.sol\":6931:6981  require(_grantee != address(0), \"Invalid address\") */\n      tag_351\n      jumpi\n      mload(0x40)\n      shl(0xe5, 0x461bcd)\n      dup2\n      mstore\n      0x04\n      add\n      tag_153\n      swap1\n      tag_348\n      jump\t// in\n    tag_351:\n        /* \"contracts/HealthWallet.sol\":7020:7021  0 */\n      0x00\n        /* \"contracts/HealthWallet.sol\":7000:7010  _recordIds */\n      dup3\n        /* \"contracts/HealthWallet.sol\":7000:7017  _recordIds.length */\n      mload\n        /* \"contracts/HealthWallet.sol\":7000:7021  _recordIds.length > 0 */\n      gt\n        /* \"contracts/HealthWallet.sol\":6992:7066  require(_recordIds.length > 0, \"Must grant access to at least one record\") */\n      tag_353\n      jumpi\n      mload(0x40)\n      shl(0xe5, 0x461bcd)\n      dup2\n      mstore\n        /* \"#utility.yul\":19707:19709   */\n      0x20\n        /* \"contracts/HealthWallet.sol\":6992:7066  require(_recordIds.length > 0, \"Must grant access to at least one record\") */\n      0x04\n      dup3\n      add\n        /* \"#utility.yul\":19689:19710   */\n      mstore\n        /* \"#utility.yul\":19746:19748   */\n      0x28\n        /* \"#utility.yul\":19726:19744   */\n      0x24\n      dup3\n      add\n        /* \"#utility.yul\":19719:19749   */\n      mstore\n        /* \"#utility.yul\":19785:19819   */\n      0x4d757374206772616e742061636365737320746f206174206c65617374206f6e\n        /* \"#utility.yul\":19765:19783   */\n      0x44\n      dup3\n      add\n        /* \"#utility.yul\":19758:19820   */\n      mstore\n      shl(0xc2, 0x19481c9958dbdc99)\n        /* \"#utility.yul\":19836:19854   */\n      0x64\n      dup3\n      add\n        /* \"#utility.yul\":19829:19867   */\n      mstore\n        /* \"#utility.yul\":19884:19903   */\n      0x84\n      add\n        /* \"contracts/HealthWallet.sol\":6992:7066  require(_recordIds.length > 0, \"Must grant access to at least one record\") */\n      tag_153\n        /* \"#utility.yul\":19505:19909   */\n      jump\n        /* \"contracts/HealthWallet.sol\":6992:7066  require(_recordIds.length > 0, \"Must grant access to at least one record\") */\n    tag_353:\n        /* \"contracts/HealthWallet.sol\":7103:7104  0 */\n      0x00\n        /* \"contracts/HealthWallet.sol\":7085:7100  _durationInDays */\n      dup2\n        /* \"contracts/HealthWallet.sol\":7085:7104  _durationInDays > 0 */\n      gt\n        /* \"contracts/HealthWallet.sol\":7085:7131  _durationInDays > 0 && _durationInDays <= 3650 */\n      dup1\n      iszero\n      tag_356\n      jumpi\n      pop\n        /* \"contracts/HealthWallet.sol\":7127:7131  3650 */\n      0x0e42\n        /* \"contracts/HealthWallet.sol\":7108:7123  _durationInDays */\n      dup2\n        /* \"contracts/HealthWallet.sol\":7108:7131  _durationInDays <= 3650 */\n      gt\n      iszero\n        /* \"contracts/HealthWallet.sol\":7085:7131  _durationInDays > 0 && _durationInDays <= 3650 */\n    tag_356:\n        /* \"contracts/HealthWallet.sol\":7077:7152  require(_durationInDays > 0 && _durationInDays <= 3650, \"Invalid duration\") */\n      tag_357\n      jumpi\n      mload(0x40)\n      shl(0xe5, 0x461bcd)\n      dup2\n      mstore\n        /* \"#utility.yul\":20116:20118   */\n      0x20\n        /* \"contracts/HealthWallet.sol\":7077:7152  require(_durationInDays > 0 && _durationInDays <= 3650, \"Invalid duration\") */\n      0x04\n      dup3\n      add\n        /* \"#utility.yul\":20098:20119   */\n      mstore\n        /* \"#utility.yul\":20155:20157   */\n      0x10\n        /* \"#utility.yul\":20135:20153   */\n      0x24\n      dup3\n      add\n        /* \"#utility.yul\":20128:20158   */\n      mstore\n      shl(0x81, 0x24b73b30b634b210323ab930ba34b7b7)\n        /* \"#utility.yul\":20174:20192   */\n      0x44\n      dup3\n      add\n        /* \"#utility.yul\":20167:20213   */\n      mstore\n        /* \"#utility.yul\":20230:20248   */\n      0x64\n      add\n        /* \"contracts/HealthWallet.sol\":7077:7152  require(_durationInDays > 0 && _durationInDays <= 3650, \"Invalid duration\") */\n      tag_153\n        /* \"#utility.yul\":19914:20254   */\n      jump\n        /* \"contracts/HealthWallet.sol\":7077:7152  require(_durationInDays > 0 && _durationInDays <= 3650, \"Invalid duration\") */\n    tag_357:\n        /* \"contracts/HealthWallet.sol\":7178:7184  uint i */\n      0x00\n        /* \"contracts/HealthWallet.sol\":7173:7393  for (uint i = 0; i < _recordIds.length; i++) {... */\n    tag_360:\n        /* \"contracts/HealthWallet.sol\":7194:7204  _recordIds */\n      dup3\n        /* \"contracts/HealthWallet.sol\":7194:7211  _recordIds.length */\n      mload\n        /* \"contracts/HealthWallet.sol\":7190:7191  i */\n      dup2\n        /* \"contracts/HealthWallet.sol\":7190:7211  i < _recordIds.length */\n      lt\n        /* \"contracts/HealthWallet.sol\":7173:7393  for (uint i = 0; i < _recordIds.length; i++) {... */\n      iszero\n      tag_361\n      jumpi\n        /* \"contracts/HealthWallet.sol\":7300:7310  msg.sender */\n      caller\n      sub(shl(0xa0, 0x01), 0x01)\n        /* \"contracts/HealthWallet.sol\":7259:7310  records[_recordIds[i]].patientAddress == msg.sender */\n      and\n        /* \"contracts/HealthWallet.sol\":7259:7266  records */\n      0x03\n        /* \"contracts/HealthWallet.sol\":7259:7281  records[_recordIds[i]] */\n      0x00\n        /* \"contracts/HealthWallet.sol\":7267:7277  _recordIds */\n      dup6\n        /* \"contracts/HealthWallet.sol\":7278:7279  i */\n      dup5\n        /* \"contracts/HealthWallet.sol\":7267:7280  _recordIds[i] */\n      dup2\n      mload\n      dup2\n      lt\n      tag_364\n      jumpi\n      tag_364\n      tag_262\n      jump\t// in\n    tag_364:\n      0x20\n      swap1\n      dup2\n      mul\n      swap2\n      swap1\n      swap2\n      add\n      dup2\n      add\n      mload\n        /* \"contracts/HealthWallet.sol\":7259:7281  records[_recordIds[i]] */\n      dup3\n      mstore\n      dup2\n      add\n      swap2\n      swap1\n      swap2\n      mstore\n      0x40\n      add\n      0x00\n      keccak256\n        /* \"contracts/HealthWallet.sol\":7259:7296  records[_recordIds[i]].patientAddress */\n      0x01\n      add\n      sload\n      sub(shl(0xa0, 0x01), 0x01)\n      and\n        /* \"contracts/HealthWallet.sol\":7259:7310  records[_recordIds[i]].patientAddress == msg.sender */\n      eq\n        /* \"contracts/HealthWallet.sol\":7233:7381  require(... */\n      tag_365\n      jumpi\n      mload(0x40)\n      shl(0xe5, 0x461bcd)\n      dup2\n      mstore\n        /* \"#utility.yul\":20461:20463   */\n      0x20\n        /* \"contracts/HealthWallet.sol\":7233:7381  require(... */\n      0x04\n      dup3\n      add\n        /* \"#utility.yul\":20443:20464   */\n      mstore\n        /* \"#utility.yul\":20500:20502   */\n      0x23\n        /* \"#utility.yul\":20480:20498   */\n      0x24\n      dup3\n      add\n        /* \"#utility.yul\":20473:20503   */\n      mstore\n        /* \"#utility.yul\":20539:20573   */\n      0x596f7520646f6e2774206f776e20616c6c20737065636966696564207265636f\n        /* \"#utility.yul\":20519:20537   */\n      0x44\n      dup3\n      add\n        /* \"#utility.yul\":20512:20574   */\n      mstore\n      shl(0xe8, 0x726473)\n        /* \"#utility.yul\":20590:20608   */\n      0x64\n      dup3\n      add\n        /* \"#utility.yul\":20583:20616   */\n      mstore\n        /* \"#utility.yul\":20633:20652   */\n      0x84\n      add\n        /* \"contracts/HealthWallet.sol\":7233:7381  require(... */\n      tag_153\n        /* \"#utility.yul\":20259:20658   */\n      jump\n        /* \"contracts/HealthWallet.sol\":7233:7381  require(... */\n    tag_365:\n        /* \"contracts/HealthWallet.sol\":7213:7216  i++ */\n      0x01\n      add\n        /* \"contracts/HealthWallet.sol\":7173:7393  for (uint i = 0; i < _recordIds.length; i++) {... */\n      jump(tag_360)\n    tag_361:\n      pop\n        /* \"contracts/HealthWallet.sol\":7413:7431  uint256 expiryTime */\n      0x00\n        /* \"contracts/HealthWallet.sol\":7453:7477  _durationInDays * 1 days */\n      tag_368\n        /* \"contracts/HealthWallet.sol\":7453:7468  _durationInDays */\n      dup3\n        /* \"contracts/HealthWallet.sol\":7471:7477  1 days */\n      0x015180\n        /* \"contracts/HealthWallet.sol\":7453:7477  _durationInDays * 1 days */\n      tag_369\n      jump\t// in\n    tag_368:\n        /* \"contracts/HealthWallet.sol\":7434:7478  block.timestamp + (_durationInDays * 1 days) */\n      tag_370\n      swap1\n        /* \"contracts/HealthWallet.sol\":7434:7449  block.timestamp */\n      timestamp\n        /* \"contracts/HealthWallet.sol\":7434:7478  block.timestamp + (_durationInDays * 1 days) */\n      tag_371\n      jump\t// in\n    tag_370:\n        /* \"contracts/HealthWallet.sol\":7536:7737  AccessGrant({... */\n      0x40\n      dup1\n      mload\n      0xa0\n      dup2\n      add\n      dup3\n      mstore\n      sub(shl(0xa0, 0x01), 0x01)\n      dup8\n      dup2\n      and\n      dup1\n      dup4\n      mstore\n      0x20\n      dup1\n      dup5\n      add\n      dup10\n      dup2\n      mstore\n      dup5\n      dup7\n      add\n      dup8\n      swap1\n      mstore\n        /* \"contracts/HealthWallet.sol\":7680:7684  true */\n      0x01\n        /* \"contracts/HealthWallet.sol\":7536:7737  AccessGrant({... */\n      0x60\n      dup7\n      add\n      dup2\n      swap1\n      mstore\n        /* \"contracts/HealthWallet.sol\":7710:7725  block.timestamp */\n      timestamp\n        /* \"contracts/HealthWallet.sol\":7536:7737  AccessGrant({... */\n      0x80\n      dup8\n      add\n      mstore\n        /* \"contracts/HealthWallet.sol\":7512:7522  msg.sender */\n      caller\n      0x00\n        /* \"contracts/HealthWallet.sol\":7499:7523  accessGrants[msg.sender] */\n      swap1\n      dup2\n      mstore\n        /* \"contracts/HealthWallet.sol\":7499:7511  accessGrants */\n      0x04\n        /* \"contracts/HealthWallet.sol\":7499:7523  accessGrants[msg.sender] */\n      dup5\n      mstore\n      dup8\n      dup2\n      keccak256\n        /* \"contracts/HealthWallet.sol\":7499:7533  accessGrants[msg.sender][_grantee] */\n      swap5\n      dup2\n      mstore\n      swap4\n      dup4\n      mstore\n      swap6\n      swap1\n      swap3\n      keccak256\n        /* \"contracts/HealthWallet.sol\":7499:7737  accessGrants[msg.sender][_grantee] = AccessGrant({... */\n      dup5\n      mload\n      dup2\n      sload\n      not(sub(shl(0xa0, 0x01), 0x01))\n      and\n      swap5\n      and\n      swap4\n      swap1\n      swap4\n      or\n      dup4\n      sstore\n      swap1\n      mload\n      dup1\n      mload\n        /* \"contracts/HealthWallet.sol\":7536:7737  AccessGrant({... */\n      swap6\n      swap7\n      pop\n      swap3\n      swap5\n        /* \"contracts/HealthWallet.sol\":7499:7533  accessGrants[msg.sender][_grantee] */\n      swap2\n      swap4\n        /* \"contracts/HealthWallet.sol\":7499:7737  accessGrants[msg.sender][_grantee] = AccessGrant({... */\n      tag_372\n      swap4\n      swap1\n      dup6\n      add\n      swap3\n      swap2\n      add\n      swap1\n      tag_373\n      jump\t// in\n    tag_372:\n      pop\n      0x40\n      dup3\n      dup2\n      add\n      mload\n      0x02\n      dup4\n      add\n      sstore\n      0x60\n      dup4\n      add\n      mload\n      0x03\n      dup4\n      add\n      dup1\n      sload\n      not(0xff)\n      and\n      swap2\n      iszero\n      iszero\n      swap2\n      swap1\n      swap2\n      or\n      swap1\n      sstore\n      0x80\n      swap1\n      swap3\n      add\n      mload\n      0x04\n      swap1\n      swap2\n      add\n      sstore\n        /* \"contracts/HealthWallet.sol\":7763:7810  AccessGranted(msg.sender, _grantee, expiryTime) */\n      mload\n        /* \"#utility.yul\":3941:3966   */\n      dup2\n      dup2\n      mstore\n      sub(shl(0xa0, 0x01), 0x01)\n        /* \"contracts/HealthWallet.sol\":7763:7810  AccessGranted(msg.sender, _grantee, expiryTime) */\n      dup6\n      and\n      swap1\n        /* \"contracts/HealthWallet.sol\":7777:7787  msg.sender */\n      caller\n      swap1\n        /* \"contracts/HealthWallet.sol\":7763:7810  AccessGranted(msg.sender, _grantee, expiryTime) */\n      0x65d0cc1e52d49938ca4ad9f423c79c1b84d914b9a683fbc5d3f93ac3cc5635f5\n      swap1\n        /* \"#utility.yul\":3929:3931   */\n      0x20\n        /* \"#utility.yul\":3914:3932   */\n      add\n        /* \"contracts/HealthWallet.sol\":7763:7810  AccessGranted(msg.sender, _grantee, expiryTime) */\n    tag_374:\n      mload(0x40)\n      dup1\n      swap2\n      sub\n      swap1\n      log3\n        /* \"contracts/HealthWallet.sol\":6920:7818  {... */\n      pop\n        /* \"contracts/HealthWallet.sol\":6786:7818  function grantAccess(... */\n      pop\n      pop\n      pop\n      jump\t// out\n        /* \"contracts/HealthWallet.sol\":10263:10939  function logAccess(uint256 _recordId, AuditAction _action) ... */\n    tag_128:\n        /* \"contracts/HealthWallet.sol\":10362:10371  _recordId */\n      dup2\n        /* \"contracts/HealthWallet.sol\":3766:3767  0 */\n      0x00\n        /* \"contracts/HealthWallet.sol\":3754:3763  _recordId */\n      dup2\n        /* \"contracts/HealthWallet.sol\":3754:3767  _recordId > 0 */\n      gt\n        /* \"contracts/HealthWallet.sol\":3754:3797  _recordId > 0 && _recordId <= recordCounter */\n      dup1\n      iszero\n      tag_376\n      jumpi\n      pop\n        /* \"contracts/HealthWallet.sol\":3784:3797  recordCounter */\n      sload(0x07)\n        /* \"contracts/HealthWallet.sol\":3771:3780  _recordId */\n      dup2\n        /* \"contracts/HealthWallet.sol\":3771:3797  _recordId <= recordCounter */\n      gt\n      iszero\n        /* \"contracts/HealthWallet.sol\":3754:3797  _recordId > 0 && _recordId <= recordCounter */\n    tag_376:\n        /* \"contracts/HealthWallet.sol\":3746:3823  require(_recordId > 0 && _recordId <= recordCounter, \"Record does not exist\") */\n      tag_377\n      jumpi\n      mload(0x40)\n      shl(0xe5, 0x461bcd)\n      dup2\n      mstore\n      0x04\n      add\n      tag_153\n      swap1\n      tag_154\n      jump\t// in\n    tag_377:\n        /* \"contracts/HealthWallet.sol\":3842:3860  records[_recordId] */\n      0x00\n      dup2\n      dup2\n      mstore\n        /* \"contracts/HealthWallet.sol\":3842:3849  records */\n      0x03\n        /* \"contracts/HealthWallet.sol\":3842:3860  records[_recordId] */\n      0x20\n      mstore\n      0x40\n      swap1\n      keccak256\n        /* \"contracts/HealthWallet.sol\":3842:3869  records[_recordId].isActive */\n      0x05\n      add\n      sload\n      shl(0xa0, 0x01)\n      swap1\n      div\n      0xff\n      and\n        /* \"contracts/HealthWallet.sol\":3834:3894  require(records[_recordId].isActive, \"Record is not active\") */\n      tag_379\n      jumpi\n      mload(0x40)\n      shl(0xe5, 0x461bcd)\n      dup2\n      mstore\n      0x04\n      add\n      tag_153\n      swap1\n      tag_157\n      jump\t// in\n    tag_379:\n        /* \"contracts/HealthWallet.sol\":3541:3559  records[_recordId] */\n      0x00\n      dup4\n      dup2\n      mstore\n        /* \"contracts/HealthWallet.sol\":3541:3548  records */\n      0x03\n        /* \"contracts/HealthWallet.sol\":3541:3559  records[_recordId] */\n      0x20\n      mstore\n      0x40\n      swap1\n      keccak256\n        /* \"contracts/HealthWallet.sol\":3541:3574  records[_recordId].patientAddress */\n      0x01\n      add\n      sload\n        /* \"contracts/HealthWallet.sol\":10397:10406  _recordId */\n      dup4\n      swap1\n        /* \"contracts/HealthWallet.sol\":3531:3598  hasAccess(records[_recordId].patientAddress, msg.sender, _recordId) */\n      tag_382\n      swap1\n      sub(shl(0xa0, 0x01), 0x01)\n        /* \"contracts/HealthWallet.sol\":3541:3574  records[_recordId].patientAddress */\n      and\n        /* \"contracts/HealthWallet.sol\":3576:3586  msg.sender */\n      caller\n        /* \"contracts/HealthWallet.sol\":10397:10406  _recordId */\n      dup4\n        /* \"contracts/HealthWallet.sol\":3531:3540  hasAccess */\n      tag_142\n        /* \"contracts/HealthWallet.sol\":3531:3598  hasAccess(records[_recordId].patientAddress, msg.sender, _recordId) */\n      jump\t// in\n    tag_382:\n        /* \"contracts/HealthWallet.sol\":3509:3662  require(... */\n      tag_383\n      jumpi\n      mload(0x40)\n      shl(0xe5, 0x461bcd)\n      dup2\n      mstore\n      0x04\n      add\n      tag_153\n      swap1\n      tag_187\n      jump\t// in\n    tag_383:\n        /* \"contracts/HealthWallet.sol\":10428:10479  emergencyContact[records[_recordId].patientAddress] */\n      0x00\n        /* \"contracts/HealthWallet.sol\":10445:10463  records[_recordId] */\n      dup5\n      dup2\n      mstore\n        /* \"contracts/HealthWallet.sol\":10445:10452  records */\n      0x03\n        /* \"contracts/HealthWallet.sol\":10445:10463  records[_recordId] */\n      0x20\n      swap1\n      dup2\n      mstore\n      0x40\n      dup1\n      dup4\n      keccak256\n        /* \"contracts/HealthWallet.sol\":10445:10478  records[_recordId].patientAddress */\n      0x01\n      add\n      sload\n      sub(shl(0xa0, 0x01), 0x01)\n      swap1\n      dup2\n      and\n        /* \"contracts/HealthWallet.sol\":10428:10479  emergencyContact[records[_recordId].patientAddress] */\n      dup5\n      mstore\n        /* \"contracts/HealthWallet.sol\":10428:10444  emergencyContact */\n      0x06\n        /* \"contracts/HealthWallet.sol\":10428:10479  emergencyContact[records[_recordId].patientAddress] */\n      swap1\n      swap3\n      mstore\n      swap1\n      swap2\n      keccak256\n      sload\n        /* \"contracts/HealthWallet.sol\":10483:10493  msg.sender */\n      caller\n        /* \"contracts/HealthWallet.sol\":10428:10479  emergencyContact[records[_recordId].patientAddress] */\n      swap2\n      and\n        /* \"contracts/HealthWallet.sol\":10428:10493  emergencyContact[records[_recordId].patientAddress] == msg.sender */\n      sub\n        /* \"contracts/HealthWallet.sol\":10424:10676  if (emergencyContact[records[_recordId].patientAddress] == msg.sender) {... */\n      tag_386\n      jumpi\n        /* \"contracts/HealthWallet.sol\":10553:10571  records[_recordId] */\n      0x00\n      dup5\n      dup2\n      mstore\n        /* \"contracts/HealthWallet.sol\":10553:10560  records */\n      0x03\n        /* \"contracts/HealthWallet.sol\":10553:10571  records[_recordId] */\n      0x20\n      swap1\n      dup2\n      mstore\n      0x40\n      swap2\n      dup3\n      swap1\n      keccak256\n        /* \"contracts/HealthWallet.sol\":10553:10586  records[_recordId].patientAddress */\n      0x01\n      add\n      sload\n        /* \"contracts/HealthWallet.sol\":10515:10664  EmergencyAccessUsed(... */\n      swap2\n      mload\n        /* \"contracts/HealthWallet.sol\":10634:10649  block.timestamp */\n      timestamp\n        /* \"#utility.yul\":3941:3966   */\n      dup2\n      mstore\n        /* \"contracts/HealthWallet.sol\":10605:10615  msg.sender */\n      caller\n      swap3\n      sub(shl(0xa0, 0x01), 0x01)\n        /* \"contracts/HealthWallet.sol\":10553:10586  records[_recordId].patientAddress */\n      and\n      swap2\n        /* \"contracts/HealthWallet.sol\":10515:10664  EmergencyAccessUsed(... */\n      0xf09b5b37601d747e980aad190f31b7fa72740906d3da5eb0af65d1f89fde166b\n      swap2\n        /* \"#utility.yul\":3914:3932   */\n      add\n        /* \"contracts/HealthWallet.sol\":10515:10664  EmergencyAccessUsed(... */\n      mload(0x40)\n      dup1\n      swap2\n      sub\n      swap1\n      log3\n        /* \"contracts/HealthWallet.sol\":10424:10676  if (emergencyContact[records[_recordId].patientAddress] == msg.sender) {... */\n    tag_386:\n        /* \"contracts/HealthWallet.sol\":10696:10705  auditLogs */\n      0x05\n        /* \"contracts/HealthWallet.sol\":10696:10716  auditLogs[_recordId] */\n      0x00\n        /* \"contracts/HealthWallet.sol\":10706:10715  _recordId */\n      dup6\n        /* \"contracts/HealthWallet.sol\":10696:10716  auditLogs[_recordId] */\n      dup2\n      mstore\n      0x20\n      add\n      swap1\n      dup2\n      mstore\n      0x20\n      add\n      0x00\n      keccak256\n        /* \"contracts/HealthWallet.sol\":10722:10850  AccessLog({... */\n      mload(0x40)\n      dup1\n      0x60\n      add\n      0x40\n      mstore\n      dup1\n        /* \"contracts/HealthWallet.sol\":10757:10767  msg.sender */\n      caller\n      sub(shl(0xa0, 0x01), 0x01)\n        /* \"contracts/HealthWallet.sol\":10722:10850  AccessLog({... */\n      and\n      dup2\n      mstore\n      0x20\n      add\n        /* \"contracts/HealthWallet.sol\":10793:10808  block.timestamp */\n      timestamp\n        /* \"contracts/HealthWallet.sol\":10722:10850  AccessLog({... */\n      dup2\n      mstore\n      0x20\n      add\n        /* \"contracts/HealthWallet.sol\":10831:10838  _action */\n      dup6\n        /* \"contracts/HealthWallet.sol\":10722:10850  AccessLog({... */\n      0x04\n      dup2\n      gt\n      iszero\n      tag_389\n      jumpi\n      tag_389\n      tag_168\n      jump\t// in\n    tag_389:\n      swap1\n      mstore\n        /* \"contracts/HealthWallet.sol\":10696:10851  auditLogs[_recordId].push(AccessLog({... */\n      dup2\n      sload\n      0x01\n      dup1\n      dup3\n      add\n      dup5\n      sstore\n      0x00\n      swap4\n      dup5\n      mstore\n      0x20\n      swap4\n      dup5\n      swap1\n      keccak256\n      dup4\n      mload\n      0x03\n      swap1\n      swap4\n      mul\n      add\n      dup1\n      sload\n      not(sub(shl(0xa0, 0x01), 0x01))\n      and\n      sub(shl(0xa0, 0x01), 0x01)\n      swap1\n      swap4\n      and\n      swap3\n      swap1\n      swap3\n      or\n      dup3\n      sstore\n      swap3\n      dup3\n      add\n      mload\n      dup2\n      dup5\n      add\n      sstore\n      0x40\n      dup3\n      add\n      mload\n      0x02\n      dup3\n      add\n      dup1\n      sload\n      swap4\n      swap5\n      swap3\n      swap4\n      swap2\n      swap3\n      swap1\n      swap2\n      not(0xff)\n      and\n      swap1\n      dup4\n      0x04\n      dup2\n      gt\n      iszero\n      tag_392\n      jumpi\n      tag_392\n      tag_168\n      jump\t// in\n    tag_392:\n      mul\n      or\n      swap1\n      sstore\n      pop\n      pop\n        /* \"contracts/HealthWallet.sol\":10877:10931  RecordAccessed(_recordId, msg.sender, block.timestamp) */\n      mload(0x40)\n        /* \"contracts/HealthWallet.sol\":10915:10930  block.timestamp */\n      timestamp\n        /* \"#utility.yul\":3941:3966   */\n      dup2\n      mstore\n        /* \"contracts/HealthWallet.sol\":10903:10913  msg.sender */\n      caller\n      swap2\n      pop\n        /* \"contracts/HealthWallet.sol\":10892:10901  _recordId */\n      dup6\n      swap1\n        /* \"contracts/HealthWallet.sol\":10877:10931  RecordAccessed(_recordId, msg.sender, block.timestamp) */\n      0xdec39eb35dc9ca96737e4515f8a70f5db122e248213ee947b996e1f678ab05b8\n      swap1\n        /* \"#utility.yul\":3929:3931   */\n      0x20\n        /* \"#utility.yul\":3914:3932   */\n      add\n        /* \"contracts/HealthWallet.sol\":10877:10931  RecordAccessed(_recordId, msg.sender, block.timestamp) */\n      tag_374\n        /* \"#utility.yul\":3795:3972   */\n      jump\n        /* \"contracts/HealthWallet.sol\":13076:13223  function revokeProviderAuthorization(address _provider) public onlyRole(DEFAULT_ADMIN_ROLE) {... */\n    tag_138:\n        /* \"@openzeppelin/contracts/access/AccessControl.sol\":2241:2245  0x00 */\n      0x00\n        /* \"@openzeppelin/contracts/access/AccessControl.sol\":2473:2489  _checkRole(role) */\n      tag_395\n        /* \"@openzeppelin/contracts/access/AccessControl.sol\":2241:2245  0x00 */\n      dup2\n        /* \"@openzeppelin/contracts/access/AccessControl.sol\":2473:2483  _checkRole */\n      tag_241\n        /* \"@openzeppelin/contracts/access/AccessControl.sol\":2473:2489  _checkRole(role) */\n      jump\t// in\n    tag_395:\n        /* \"contracts/HealthWallet.sol\":13179:13215  revokeRole(PROVIDER_ROLE, _provider) */\n      tag_246\n      0x00\n      dup1\n      mload\n      0x20\n      data_c5db673750b8988991e755326ed2c44ddaddfe45172e77d196edfccfe0ac5518\n      dup4\n      codecopy\n      dup2\n      mload\n      swap2\n      mstore\n        /* \"contracts/HealthWallet.sol\":13205:13214  _provider */\n      dup4\n        /* \"contracts/HealthWallet.sol\":13179:13189  revokeRole */\n      tag_146\n        /* \"contracts/HealthWallet.sol\":13179:13215  revokeRole(PROVIDER_ROLE, _provider) */\n      jump\t// in\n        /* \"contracts/HealthWallet.sol\":8254:8930  function hasAccess(... */\n    tag_142:\n        /* \"contracts/HealthWallet.sol\":8385:8389  bool */\n      0x00\n        /* \"contracts/HealthWallet.sol\":8418:8428  _requester */\n      dup3\n      sub(shl(0xa0, 0x01), 0x01)\n        /* \"contracts/HealthWallet.sol\":8406:8428  _patient == _requester */\n      and\n        /* \"contracts/HealthWallet.sol\":8406:8414  _patient */\n      dup5\n      sub(shl(0xa0, 0x01), 0x01)\n        /* \"contracts/HealthWallet.sol\":8406:8428  _patient == _requester */\n      and\n      sub\n        /* \"contracts/HealthWallet.sol\":8402:8441  if (_patient == _requester) return true */\n      tag_399\n      jumpi\n      pop\n        /* \"contracts/HealthWallet.sol\":8437:8441  true */\n      0x01\n        /* \"contracts/HealthWallet.sol\":8430:8441  return true */\n      jump(tag_284)\n        /* \"contracts/HealthWallet.sol\":8402:8441  if (_patient == _requester) return true */\n    tag_399:\n      sub(shl(0xa0, 0x01), 0x01)\n        /* \"contracts/HealthWallet.sol\":8466:8492  emergencyContact[_patient] */\n      dup5\n      dup2\n      and\n      0x00\n      swap1\n      dup2\n      mstore\n        /* \"contracts/HealthWallet.sol\":8466:8482  emergencyContact */\n      0x06\n        /* \"contracts/HealthWallet.sol\":8466:8492  emergencyContact[_patient] */\n      0x20\n      mstore\n      0x40\n      swap1\n      keccak256\n      sload\n        /* \"contracts/HealthWallet.sol\":8466:8506  emergencyContact[_patient] == _requester */\n      dup2\n      dup6\n      and\n        /* \"contracts/HealthWallet.sol\":8466:8492  emergencyContact[_patient] */\n      swap2\n      and\n        /* \"contracts/HealthWallet.sol\":8466:8506  emergencyContact[_patient] == _requester */\n      sub\n        /* \"contracts/HealthWallet.sol\":8462:8546  if (emergencyContact[_patient] == _requester) {... */\n      tag_400\n      jumpi\n      pop\n        /* \"contracts/HealthWallet.sol\":8530:8534  true */\n      0x01\n        /* \"contracts/HealthWallet.sol\":8523:8534  return true */\n      jump(tag_284)\n        /* \"contracts/HealthWallet.sol\":8462:8546  if (emergencyContact[_patient] == _requester) {... */\n    tag_400:\n      sub(shl(0xa0, 0x01), 0x01)\n        /* \"contracts/HealthWallet.sol\":8593:8615  accessGrants[_patient] */\n      dup1\n      dup6\n      and\n        /* \"contracts/HealthWallet.sol\":8566:8590  AccessGrant memory grant */\n      0x00\n        /* \"contracts/HealthWallet.sol\":8593:8615  accessGrants[_patient] */\n      swap1\n      dup2\n      mstore\n        /* \"contracts/HealthWallet.sol\":8593:8605  accessGrants */\n      0x04\n        /* \"contracts/HealthWallet.sol\":8593:8615  accessGrants[_patient] */\n      0x20\n      swap1\n      dup2\n      mstore\n      0x40\n      dup1\n      dup4\n      keccak256\n        /* \"contracts/HealthWallet.sol\":8593:8627  accessGrants[_patient][_requester] */\n      dup8\n      dup6\n      and\n      dup5\n      mstore\n      dup3\n      mstore\n      dup1\n      dup4\n      keccak256\n        /* \"contracts/HealthWallet.sol\":8566:8627  AccessGrant memory grant = accessGrants[_patient][_requester] */\n      dup2\n      mload\n      0xa0\n      dup2\n      add\n      dup4\n      mstore\n      dup2\n      sload\n      swap1\n      swap6\n      and\n      dup6\n      mstore\n      0x01\n      dup2\n      add\n      dup1\n      sload\n      dup4\n      mload\n      dup2\n      dup7\n      mul\n      dup2\n      add\n      dup7\n      add\n      swap1\n      swap5\n      mstore\n      dup1\n      dup5\n      mstore\n        /* \"contracts/HealthWallet.sol\":8566:8590  AccessGrant memory grant */\n      swap5\n      swap6\n        /* \"contracts/HealthWallet.sol\":8566:8627  AccessGrant memory grant = accessGrants[_patient][_requester] */\n      swap5\n        /* \"contracts/HealthWallet.sol\":8593:8627  accessGrants[_patient][_requester] */\n      swap2\n      swap4\n        /* \"contracts/HealthWallet.sol\":8566:8627  AccessGrant memory grant = accessGrants[_patient][_requester] */\n      dup6\n      dup2\n      add\n      swap4\n      swap3\n      swap1\n      dup4\n      add\n      dup3\n      dup3\n      dup1\n      iszero\n      tag_401\n      jumpi\n      0x20\n      mul\n      dup3\n      add\n      swap2\n      swap1\n      0x00\n      mstore\n      keccak256(0x00, 0x20)\n      swap1\n    tag_402:\n      dup2\n      sload\n      dup2\n      mstore\n      0x20\n      add\n      swap1\n      0x01\n      add\n      swap1\n      dup1\n      dup4\n      gt\n      tag_402\n      jumpi\n    tag_401:\n      pop\n      pop\n      pop\n      swap2\n      dup4\n      mstore\n      pop\n      pop\n      0x02\n      dup3\n      add\n      sload\n      0x20\n      dup3\n      add\n      mstore\n      0x03\n      dup3\n      add\n      sload\n      0xff\n      and\n      iszero\n      iszero\n      0x40\n      dup3\n      add\n      mstore\n      0x04\n      swap1\n      swap2\n      add\n      sload\n      0x60\n      swap2\n      dup3\n      add\n      mstore\n        /* \"contracts/HealthWallet.sol\":8653:8667  grant.isActive */\n      dup2\n      add\n      mload\n        /* \"contracts/HealthWallet.sol\":8566:8627  AccessGrant memory grant = accessGrants[_patient][_requester] */\n      swap1\n      swap2\n      pop\n        /* \"contracts/HealthWallet.sol\":8648:8681  if (!grant.isActive) return false */\n      tag_403\n      jumpi\n        /* \"contracts/HealthWallet.sol\":8676:8681  false */\n      0x00\n        /* \"contracts/HealthWallet.sol\":8669:8681  return false */\n      swap2\n      pop\n      pop\n      jump(tag_284)\n        /* \"contracts/HealthWallet.sol\":8648:8681  if (!grant.isActive) return false */\n    tag_403:\n        /* \"contracts/HealthWallet.sol\":8714:8719  grant */\n      dup1\n        /* \"contracts/HealthWallet.sol\":8714:8730  grant.expiryTime */\n      0x40\n      add\n      mload\n        /* \"contracts/HealthWallet.sol\":8696:8711  block.timestamp */\n      timestamp\n        /* \"contracts/HealthWallet.sol\":8696:8730  block.timestamp > grant.expiryTime */\n      gt\n        /* \"contracts/HealthWallet.sol\":8692:8744  if (block.timestamp > grant.expiryTime) return false */\n      iszero\n      tag_404\n      jumpi\n        /* \"contracts/HealthWallet.sol\":8739:8744  false */\n      0x00\n        /* \"contracts/HealthWallet.sol\":8732:8744  return false */\n      swap2\n      pop\n      pop\n      jump(tag_284)\n        /* \"contracts/HealthWallet.sol\":8692:8744  if (block.timestamp > grant.expiryTime) return false */\n    tag_404:\n        /* \"contracts/HealthWallet.sol\":8770:8776  uint i */\n      0x00\n        /* \"contracts/HealthWallet.sol\":8765:8890  for (uint i = 0; i < grant.recordIds.length; i++) {... */\n    tag_405:\n        /* \"contracts/HealthWallet.sol\":8786:8791  grant */\n      dup2\n        /* \"contracts/HealthWallet.sol\":8786:8801  grant.recordIds */\n      0x20\n      add\n      mload\n        /* \"contracts/HealthWallet.sol\":8786:8808  grant.recordIds.length */\n      mload\n        /* \"contracts/HealthWallet.sol\":8782:8783  i */\n      dup2\n        /* \"contracts/HealthWallet.sol\":8782:8808  i < grant.recordIds.length */\n      lt\n        /* \"contracts/HealthWallet.sol\":8765:8890  for (uint i = 0; i < grant.recordIds.length; i++) {... */\n      iszero\n      tag_406\n      jumpi\n        /* \"contracts/HealthWallet.sol\":8856:8865  _recordId */\n      dup4\n        /* \"contracts/HealthWallet.sol\":8834:8839  grant */\n      dup3\n        /* \"contracts/HealthWallet.sol\":8834:8849  grant.recordIds */\n      0x20\n      add\n      mload\n        /* \"contracts/HealthWallet.sol\":8850:8851  i */\n      dup3\n        /* \"contracts/HealthWallet.sol\":8834:8852  grant.recordIds[i] */\n      dup2\n      mload\n      dup2\n      lt\n      tag_409\n      jumpi\n      tag_409\n      tag_262\n      jump\t// in\n    tag_409:\n      0x20\n      mul\n      0x20\n      add\n      add\n      mload\n        /* \"contracts/HealthWallet.sol\":8834:8865  grant.recordIds[i] == _recordId */\n      sub\n        /* \"contracts/HealthWallet.sol\":8830:8878  if (grant.recordIds[i] == _recordId) return true */\n      tag_410\n      jumpi\n        /* \"contracts/HealthWallet.sol\":8874:8878  true */\n      0x01\n        /* \"contracts/HealthWallet.sol\":8867:8878  return true */\n      swap3\n      pop\n      pop\n      pop\n      jump(tag_284)\n        /* \"contracts/HealthWallet.sol\":8830:8878  if (grant.recordIds[i] == _recordId) return true */\n    tag_410:\n        /* \"contracts/HealthWallet.sol\":8810:8813  i++ */\n      0x01\n      add\n        /* \"contracts/HealthWallet.sol\":8765:8890  for (uint i = 0; i < grant.recordIds.length; i++) {... */\n      jump(tag_405)\n    tag_406:\n      pop\n        /* \"contracts/HealthWallet.sol\":8917:8922  false */\n      0x00\n      swap6\n        /* \"contracts/HealthWallet.sol\":8254:8930  function hasAccess(... */\n      swap5\n      pop\n      pop\n      pop\n      pop\n      pop\n      jump\t// out\n        /* \"@openzeppelin/contracts/access/AccessControl.sol\":4618:4756  function revokeRole(bytes32 role, address account) public virtual onlyRole(getRoleAdmin(role)) {... */\n    tag_146:\n        /* \"@openzeppelin/contracts/access/AccessControl.sol\":4693:4711  getRoleAdmin(role) */\n      tag_411\n        /* \"@openzeppelin/contracts/access/AccessControl.sol\":4706:4710  role */\n      dup3\n        /* \"@openzeppelin/contracts/access/AccessControl.sol\":4693:4705  getRoleAdmin */\n      tag_82\n        /* \"@openzeppelin/contracts/access/AccessControl.sol\":4693:4711  getRoleAdmin(role) */\n      jump\t// in\n    tag_411:\n        /* \"@openzeppelin/contracts/access/AccessControl.sol\":2473:2489  _checkRole(role) */\n      tag_413\n        /* \"@openzeppelin/contracts/access/AccessControl.sol\":2484:2488  role */\n      dup2\n        /* \"@openzeppelin/contracts/access/AccessControl.sol\":2473:2483  _checkRole */\n      tag_241\n        /* \"@openzeppelin/contracts/access/AccessControl.sol\":2473:2489  _checkRole(role) */\n      jump\t// in\n    tag_413:\n        /* \"@openzeppelin/contracts/access/AccessControl.sol\":4723:4749  _revokeRole(role, account) */\n      tag_303\n        /* \"@openzeppelin/contracts/access/AccessControl.sol\":4735:4739  role */\n      dup4\n        /* \"@openzeppelin/contracts/access/AccessControl.sol\":4741:4748  account */\n      dup4\n        /* \"@openzeppelin/contracts/access/AccessControl.sol\":4723:4734  _revokeRole */\n      tag_310\n        /* \"@openzeppelin/contracts/access/AccessControl.sol\":4723:4749  _revokeRole(role, account) */\n      jump\t// in\n        /* \"@openzeppelin/contracts/access/Ownable.sol\":2543:2758  function transferOwnership(address newOwner) public virtual onlyOwner {... */\n    tag_149:\n        /* \"@openzeppelin/contracts/access/Ownable.sol\":1531:1544  _checkOwner() */\n      tag_417\n        /* \"@openzeppelin/contracts/access/Ownable.sol\":1531:1542  _checkOwner */\n      tag_328\n        /* \"@openzeppelin/contracts/access/Ownable.sol\":1531:1544  _checkOwner() */\n      jump\t// in\n    tag_417:\n      sub(shl(0xa0, 0x01), 0x01)\n        /* \"@openzeppelin/contracts/access/Ownable.sol\":2627:2649  newOwner == address(0) */\n      dup2\n      and\n        /* \"@openzeppelin/contracts/access/Ownable.sol\":2623:2714  if (newOwner == address(0)) {... */\n      tag_419\n      jumpi\n        /* \"@openzeppelin/contracts/access/Ownable.sol\":2700:2701  0 */\n      0x00\n        /* \"@openzeppelin/contracts/access/Ownable.sol\":2672:2703  OwnableInvalidOwner(address(0)) */\n      mload(0x40)\n      shl(0xe0, 0x1e4fbdf7)\n      dup2\n      mstore\n      0x04\n      add\n      tag_153\n      swap2\n      swap1\n      tag_113\n      jump\t// in\n        /* \"@openzeppelin/contracts/access/Ownable.sol\":2623:2714  if (newOwner == address(0)) {... */\n    tag_419:\n        /* \"@openzeppelin/contracts/access/Ownable.sol\":2723:2751  _transferOwnership(newOwner) */\n      tag_421\n        /* \"@openzeppelin/contracts/access/Ownable.sol\":2742:2750  newOwner */\n      dup2\n        /* \"@openzeppelin/contracts/access/Ownable.sol\":2723:2741  _transferOwnership */\n      tag_331\n        /* \"@openzeppelin/contracts/access/Ownable.sol\":2723:2751  _transferOwnership(newOwner) */\n      jump\t// in\n    tag_421:\n        /* \"@openzeppelin/contracts/access/Ownable.sol\":2543:2758  function transferOwnership(address newOwner) public virtual onlyOwner {... */\n      pop\n      jump\t// out\n        /* \"@openzeppelin/contracts/access/AccessControl.sol\":3175:3278  function _checkRole(bytes32 role) internal view virtual {... */\n    tag_241:\n        /* \"@openzeppelin/contracts/access/AccessControl.sol\":3241:3271  _checkRole(role, _msgSender()) */\n      tag_421\n        /* \"@openzeppelin/contracts/access/AccessControl.sol\":3252:3256  role */\n      dup2\n        /* \"@openzeppelin/contracts/utils/Context.sol\":735:745  msg.sender */\n      caller\n        /* \"@openzeppelin/contracts/access/AccessControl.sol\":3241:3251  _checkRole */\n      tag_426\n        /* \"@openzeppelin/contracts/access/AccessControl.sol\":3241:3271  _checkRole(role, _msgSender()) */\n      jump\t// in\n        /* \"contracts/HealthWallet.sol\":11584:11942  function hasGeneralAccess(address _patient, address _requester) ... */\n    tag_252:\n      sub(shl(0xa0, 0x01), 0x01)\n        /* \"contracts/HealthWallet.sol\":11728:11754  emergencyContact[_patient] */\n      dup3\n      dup2\n      and\n        /* \"contracts/HealthWallet.sol\":11701:11705  bool */\n      0x00\n        /* \"contracts/HealthWallet.sol\":11728:11754  emergencyContact[_patient] */\n      swap1\n      dup2\n      mstore\n        /* \"contracts/HealthWallet.sol\":11728:11744  emergencyContact */\n      0x06\n        /* \"contracts/HealthWallet.sol\":11728:11754  emergencyContact[_patient] */\n      0x20\n      mstore\n      0x40\n      dup2\n      keccak256\n      sload\n        /* \"contracts/HealthWallet.sol\":11701:11705  bool */\n      swap1\n      swap2\n        /* \"contracts/HealthWallet.sol\":11728:11768  emergencyContact[_patient] == _requester */\n      dup1\n      dup5\n      and\n        /* \"contracts/HealthWallet.sol\":11728:11754  emergencyContact[_patient] */\n      swap2\n      and\n        /* \"contracts/HealthWallet.sol\":11728:11768  emergencyContact[_patient] == _requester */\n      sub\n        /* \"contracts/HealthWallet.sol\":11724:11781  if (emergencyContact[_patient] == _requester) return true */\n      tag_428\n      jumpi\n      pop\n        /* \"contracts/HealthWallet.sol\":11777:11781  true */\n      0x01\n        /* \"contracts/HealthWallet.sol\":11770:11781  return true */\n      jump(tag_173)\n        /* \"contracts/HealthWallet.sol\":11724:11781  if (emergencyContact[_patient] == _requester) return true */\n    tag_428:\n      sub(shl(0xa0, 0x01), 0x01)\n        /* \"contracts/HealthWallet.sol\":11829:11851  accessGrants[_patient] */\n      dup1\n      dup5\n      and\n        /* \"contracts/HealthWallet.sol\":11802:11826  AccessGrant memory grant */\n      0x00\n        /* \"contracts/HealthWallet.sol\":11829:11851  accessGrants[_patient] */\n      swap1\n      dup2\n      mstore\n        /* \"contracts/HealthWallet.sol\":11829:11841  accessGrants */\n      0x04\n        /* \"contracts/HealthWallet.sol\":11829:11851  accessGrants[_patient] */\n      0x20\n      swap1\n      dup2\n      mstore\n      0x40\n      dup1\n      dup4\n      keccak256\n        /* \"contracts/HealthWallet.sol\":11829:11863  accessGrants[_patient][_requester] */\n      dup7\n      dup6\n      and\n      dup5\n      mstore\n      dup3\n      mstore\n      dup1\n      dup4\n      keccak256\n        /* \"contracts/HealthWallet.sol\":11802:11863  AccessGrant memory grant = accessGrants[_patient][_requester] */\n      dup2\n      mload\n      0xa0\n      dup2\n      add\n      dup4\n      mstore\n      dup2\n      sload\n      swap1\n      swap6\n      and\n      dup6\n      mstore\n      0x01\n      dup2\n      add\n      dup1\n      sload\n      dup4\n      mload\n      dup2\n      dup7\n      mul\n      dup2\n      add\n      dup7\n      add\n      swap1\n      swap5\n      mstore\n      dup1\n      dup5\n      mstore\n        /* \"contracts/HealthWallet.sol\":11802:11826  AccessGrant memory grant */\n      swap5\n      swap6\n        /* \"contracts/HealthWallet.sol\":11802:11863  AccessGrant memory grant = accessGrants[_patient][_requester] */\n      swap5\n        /* \"contracts/HealthWallet.sol\":11829:11863  accessGrants[_patient][_requester] */\n      swap2\n      swap4\n        /* \"contracts/HealthWallet.sol\":11802:11863  AccessGrant memory grant = accessGrants[_patient][_requester] */\n      dup6\n      dup2\n      add\n      swap4\n      swap3\n      swap1\n      dup4\n      add\n      dup3\n      dup3\n      dup1\n      iszero\n      tag_429\n      jumpi\n      0x20\n      mul\n      dup3\n      add\n      swap2\n      swap1\n      0x00\n      mstore\n      keccak256(0x00, 0x20)\n      swap1\n    tag_430:\n      dup2\n      sload\n      dup2\n      mstore\n      0x20\n      add\n      swap1\n      0x01\n      add\n      swap1\n      dup1\n      dup4\n      gt\n      tag_430\n      jumpi\n    tag_429:\n      pop\n      pop\n      pop\n      swap2\n      dup4\n      mstore\n      pop\n      pop\n      0x02\n      dup3\n      add\n      sload\n      0x20\n      dup3\n      add\n      mstore\n      0x03\n      dup3\n      add\n      sload\n      0xff\n      and\n      iszero\n      iszero\n      0x40\n      dup3\n      add\n      mstore\n      0x04\n      swap1\n      swap2\n      add\n      sload\n      0x60\n      swap2\n      dup3\n      add\n      mstore\n        /* \"contracts/HealthWallet.sol\":11881:11895  grant.isActive */\n      dup2\n      add\n      mload\n        /* \"contracts/HealthWallet.sol\":11802:11863  AccessGrant memory grant = accessGrants[_patient][_requester] */\n      swap1\n      swap2\n      pop\n        /* \"contracts/HealthWallet.sol\":11881:11934  grant.isActive && block.timestamp <= grant.expiryTime */\n      dup1\n      iszero\n      tag_431\n      jumpi\n      pop\n        /* \"contracts/HealthWallet.sol\":11918:11923  grant */\n      dup1\n        /* \"contracts/HealthWallet.sol\":11918:11934  grant.expiryTime */\n      0x40\n      add\n      mload\n        /* \"contracts/HealthWallet.sol\":11899:11914  block.timestamp */\n      timestamp\n        /* \"contracts/HealthWallet.sol\":11899:11934  block.timestamp <= grant.expiryTime */\n      gt\n      iszero\n        /* \"contracts/HealthWallet.sol\":11881:11934  grant.isActive && block.timestamp <= grant.expiryTime */\n    tag_431:\n        /* \"contracts/HealthWallet.sol\":11874:11934  return grant.isActive && block.timestamp <= grant.expiryTime */\n      swap5\n        /* \"contracts/HealthWallet.sol\":11584:11942  function hasGeneralAccess(address _patient, address _requester) ... */\n      swap4\n      pop\n      pop\n      pop\n      pop\n      jump\t// out\n        /* \"@openzeppelin/contracts/access/AccessControl.sol\":6155:6471  function _grantRole(bytes32 role, address account) internal virtual returns (bool) {... */\n    tag_304:\n        /* \"@openzeppelin/contracts/access/AccessControl.sol\":6232:6236  bool */\n      0x00\n        /* \"@openzeppelin/contracts/access/AccessControl.sol\":6253:6275  hasRole(role, account) */\n      tag_433\n        /* \"@openzeppelin/contracts/access/AccessControl.sol\":6261:6265  role */\n      dup4\n        /* \"@openzeppelin/contracts/access/AccessControl.sol\":6267:6274  account */\n      dup4\n        /* \"@openzeppelin/contracts/access/AccessControl.sol\":6253:6260  hasRole */\n      tag_119\n        /* \"@openzeppelin/contracts/access/AccessControl.sol\":6253:6275  hasRole(role, account) */\n      jump\t// in\n    tag_433:\n        /* \"@openzeppelin/contracts/access/AccessControl.sol\":6248:6465  if (!hasRole(role, account)) {... */\n      tag_434\n      jumpi\n        /* \"@openzeppelin/contracts/access/AccessControl.sol\":6291:6303  _roles[role] */\n      0x00\n      dup4\n      dup2\n      mstore\n        /* \"@openzeppelin/contracts/access/AccessControl.sol\":6323:6327  true */\n      0x01\n        /* \"@openzeppelin/contracts/access/AccessControl.sol\":6291:6303  _roles[role] */\n      0x20\n      dup2\n      dup2\n      mstore\n      0x40\n      dup1\n      dup5\n      keccak256\n      sub(shl(0xa0, 0x01), 0x01)\n        /* \"@openzeppelin/contracts/access/AccessControl.sol\":6291:6320  _roles[role].hasRole[account] */\n      dup8\n      and\n      dup1\n      dup7\n      mstore\n      swap3\n      mstore\n      dup1\n      dup5\n      keccak256\n        /* \"@openzeppelin/contracts/access/AccessControl.sol\":6291:6327  _roles[role].hasRole[account] = true */\n      dup1\n      sload\n      not(0xff)\n      and\n      swap1\n      swap4\n      or\n      swap1\n      swap3\n      sstore\n        /* \"@openzeppelin/contracts/access/AccessControl.sol\":6346:6386  RoleGranted(role, account, _msgSender()) */\n      swap1\n      mload\n        /* \"@openzeppelin/contracts/utils/Context.sol\":735:745  msg.sender */\n      caller\n      swap3\n        /* \"@openzeppelin/contracts/access/AccessControl.sol\":6291:6303  _roles[role] */\n      dup7\n      swap2\n        /* \"@openzeppelin/contracts/access/AccessControl.sol\":6346:6386  RoleGranted(role, account, _msgSender()) */\n      0x2f8788117e7eff1d82e926ec794901d17c78024a50270940304540a733656f0d\n      swap2\n        /* \"@openzeppelin/contracts/access/AccessControl.sol\":6291:6303  _roles[role] */\n      swap1\n        /* \"@openzeppelin/contracts/access/AccessControl.sol\":6346:6386  RoleGranted(role, account, _msgSender()) */\n      log4\n      pop\n        /* \"@openzeppelin/contracts/access/AccessControl.sol\":6407:6411  true */\n      0x01\n        /* \"@openzeppelin/contracts/access/AccessControl.sol\":6400:6411  return true */\n      jump(tag_173)\n        /* \"@openzeppelin/contracts/access/AccessControl.sol\":6248:6465  if (!hasRole(role, account)) {... */\n    tag_434:\n      pop\n        /* \"@openzeppelin/contracts/access/AccessControl.sol\":6449:6454  false */\n      0x00\n        /* \"@openzeppelin/contracts/access/AccessControl.sol\":6442:6454  return false */\n      jump(tag_173)\n        /* \"@openzeppelin/contracts/access/AccessControl.sol\":6708:7025  function _revokeRole(bytes32 role, address account) internal virtual returns (bool) {... */\n    tag_310:\n        /* \"@openzeppelin/contracts/access/AccessControl.sol\":6786:6790  bool */\n      0x00\n        /* \"@openzeppelin/contracts/access/AccessControl.sol\":6806:6828  hasRole(role, account) */\n      tag_439\n        /* \"@openzeppelin/contracts/access/AccessControl.sol\":6814:6818  role */\n      dup4\n        /* \"@openzeppelin/contracts/access/AccessControl.sol\":6820:6827  account */\n      dup4\n        /* \"@openzeppelin/contracts/access/AccessControl.sol\":6806:6813  hasRole */\n      tag_119\n        /* \"@openzeppelin/contracts/access/AccessControl.sol\":6806:6828  hasRole(role, account) */\n      jump\t// in\n    tag_439:\n        /* \"@openzeppelin/contracts/access/AccessControl.sol\":6802:7019  if (hasRole(role, account)) {... */\n      iszero\n      tag_434\n      jumpi\n        /* \"@openzeppelin/contracts/access/AccessControl.sol\":6876:6881  false */\n      0x00\n        /* \"@openzeppelin/contracts/access/AccessControl.sol\":6844:6856  _roles[role] */\n      dup4\n      dup2\n      mstore\n        /* \"@openzeppelin/contracts/access/AccessControl.sol\":6844:6850  _roles */\n      0x01\n        /* \"@openzeppelin/contracts/access/AccessControl.sol\":6844:6856  _roles[role] */\n      0x20\n      swap1\n      dup2\n      mstore\n      0x40\n      dup1\n      dup4\n      keccak256\n      sub(shl(0xa0, 0x01), 0x01)\n        /* \"@openzeppelin/contracts/access/AccessControl.sol\":6844:6873  _roles[role].hasRole[account] */\n      dup7\n      and\n      dup1\n      dup6\n      mstore\n      swap3\n      mstore\n      dup1\n      dup4\n      keccak256\n        /* \"@openzeppelin/contracts/access/AccessControl.sol\":6844:6881  _roles[role].hasRole[account] = false */\n      dup1\n      sload\n      not(0xff)\n      and\n      swap1\n      sstore\n        /* \"@openzeppelin/contracts/access/AccessControl.sol\":6900:6940  RoleRevoked(role, account, _msgSender()) */\n      mload\n        /* \"@openzeppelin/contracts/utils/Context.sol\":735:745  msg.sender */\n      caller\n      swap3\n        /* \"@openzeppelin/contracts/access/AccessControl.sol\":6844:6856  _roles[role] */\n      dup7\n      swap2\n        /* \"@openzeppelin/contracts/access/AccessControl.sol\":6900:6940  RoleRevoked(role, account, _msgSender()) */\n      0xf6391f5c32d9c69d2a47ea670b442974b53935d1edc7fd64eb21e047a839171b\n      swap2\n        /* \"@openzeppelin/contracts/access/AccessControl.sol\":6876:6881  false */\n      swap1\n        /* \"@openzeppelin/contracts/access/AccessControl.sol\":6900:6940  RoleRevoked(role, account, _msgSender()) */\n      log4\n      pop\n        /* \"@openzeppelin/contracts/access/AccessControl.sol\":6961:6965  true */\n      0x01\n        /* \"@openzeppelin/contracts/access/AccessControl.sol\":6954:6965  return true */\n      jump(tag_173)\n        /* \"@openzeppelin/contracts/access/Ownable.sol\":1796:1958  function _checkOwner() internal view virtual {... */\n    tag_328:\n        /* \"@openzeppelin/contracts/utils/Context.sol\":735:745  msg.sender */\n      caller\n        /* \"@openzeppelin/contracts/access/Ownable.sol\":1855:1862  owner() */\n      tag_445\n        /* \"@openzeppelin/contracts/access/Ownable.sol\":1855:1860  owner */\n      tag_111\n        /* \"@openzeppelin/contracts/access/Ownable.sol\":1855:1862  owner() */\n      jump\t// in\n    tag_445:\n      sub(shl(0xa0, 0x01), 0x01)\n        /* \"@openzeppelin/contracts/access/Ownable.sol\":1855:1878  owner() != _msgSender() */\n      and\n      eq\n        /* \"@openzeppelin/contracts/access/Ownable.sol\":1851:1952  if (owner() != _msgSender()) {... */\n      tag_330\n      jumpi\n        /* \"@openzeppelin/contracts/utils/Context.sol\":735:745  msg.sender */\n      caller\n        /* \"@openzeppelin/contracts/access/Ownable.sol\":1901:1941  OwnableUnauthorizedAccount(_msgSender()) */\n      mload(0x40)\n      shl(0xe0, 0x118cdaa7)\n      dup2\n      mstore\n      0x04\n      add\n      tag_153\n      swap2\n      swap1\n      tag_113\n      jump\t// in\n        /* \"@openzeppelin/contracts/access/Ownable.sol\":2912:3099  function _transferOwnership(address newOwner) internal virtual {... */\n    tag_331:\n        /* \"@openzeppelin/contracts/access/Ownable.sol\":2985:3001  address oldOwner */\n      0x00\n        /* \"@openzeppelin/contracts/access/Ownable.sol\":3004:3010  _owner */\n      dup1\n      sload\n      sub(shl(0xa0, 0x01), 0x01)\n        /* \"@openzeppelin/contracts/access/Ownable.sol\":3020:3037  _owner = newOwner */\n      dup4\n      dup2\n      and\n      not(sub(shl(0xa0, 0x01), 0x01))\n      dup4\n      and\n      dup2\n      or\n      dup5\n      sstore\n        /* \"@openzeppelin/contracts/access/Ownable.sol\":3052:3092  OwnershipTransferred(oldOwner, newOwner) */\n      mload(0x40)\n        /* \"@openzeppelin/contracts/access/Ownable.sol\":3004:3010  _owner */\n      swap2\n      swap1\n      swap3\n      and\n      swap3\n      dup4\n      swap2\n        /* \"@openzeppelin/contracts/access/Ownable.sol\":3052:3092  OwnershipTransferred(oldOwner, newOwner) */\n      0x8be0079c531659141344cd1fd0a4f28419497f9722a3daafe3b4186f6b6457e0\n      swap2\n        /* \"@openzeppelin/contracts/access/Ownable.sol\":2985:3001  address oldOwner */\n      swap1\n        /* \"@openzeppelin/contracts/access/Ownable.sol\":3052:3092  OwnershipTransferred(oldOwner, newOwner) */\n      log3\n        /* \"@openzeppelin/contracts/access/Ownable.sol\":2975:3099  {... */\n      pop\n        /* \"@openzeppelin/contracts/access/Ownable.sol\":2912:3099  function _transferOwnership(address newOwner) internal virtual {... */\n      pop\n      jump\t// out\n        /* \"@openzeppelin/contracts/access/AccessControl.sol\":3408:3605  function _checkRole(bytes32 role, address account) internal view virtual {... */\n    tag_426:\n        /* \"@openzeppelin/contracts/access/AccessControl.sol\":3496:3518  hasRole(role, account) */\n      tag_451\n        /* \"@openzeppelin/contracts/access/AccessControl.sol\":3504:3508  role */\n      dup3\n        /* \"@openzeppelin/contracts/access/AccessControl.sol\":3510:3517  account */\n      dup3\n        /* \"@openzeppelin/contracts/access/AccessControl.sol\":3496:3503  hasRole */\n      tag_119\n        /* \"@openzeppelin/contracts/access/AccessControl.sol\":3496:3518  hasRole(role, account) */\n      jump\t// in\n    tag_451:\n        /* \"@openzeppelin/contracts/access/AccessControl.sol\":3491:3599  if (!hasRole(role, account)) {... */\n      tag_246\n      jumpi\n        /* \"@openzeppelin/contracts/access/AccessControl.sol\":3541:3588  AccessControlUnauthorizedAccount(account, role) */\n      mload(0x40)\n      shl(0xe0, 0xe2517d3f)\n      dup2\n      mstore\n      sub(shl(0xa0, 0x01), 0x01)\n        /* \"#utility.yul\":21158:21190   */\n      dup3\n      and\n        /* \"@openzeppelin/contracts/access/AccessControl.sol\":3541:3588  AccessControlUnauthorizedAccount(account, role) */\n      0x04\n      dup3\n      add\n        /* \"#utility.yul\":21140:21191   */\n      mstore\n        /* \"#utility.yul\":21207:21225   */\n      0x24\n      dup2\n      add\n        /* \"#utility.yul\":21200:21234   */\n      dup4\n      swap1\n      mstore\n        /* \"#utility.yul\":21113:21131   */\n      0x44\n      add\n        /* \"@openzeppelin/contracts/access/AccessControl.sol\":3541:3588  AccessControlUnauthorizedAccount(account, role) */\n      tag_153\n        /* \"#utility.yul\":20966:21240   */\n      jump\n    tag_176:\n      mload(0x40)\n      dup1\n      0x0120\n      add\n      0x40\n      mstore\n      dup1\n      0x00\n      dup2\n      mstore\n      0x20\n      add\n      and(sub(shl(0xa0, 0x01), 0x01), 0x00)\n      dup2\n      mstore\n      0x20\n      add\n      0x60\n      dup2\n      mstore\n      0x20\n      add\n      0x00\n      0x05\n      dup2\n      gt\n      iszero\n      tag_456\n      jumpi\n      tag_456\n      tag_168\n      jump\t// in\n    tag_456:\n      dup2\n      mstore\n      0x00\n      0x20\n      dup3\n      add\n      dup2\n      swap1\n      mstore\n      0x40\n      dup3\n      add\n      dup2\n      swap1\n      mstore\n      0x60\n      dup1\n      dup4\n      add\n      dup3\n      swap1\n      mstore\n      0x80\n      dup4\n      add\n      mstore\n      0xa0\n      swap1\n      swap2\n      add\n      mstore\n      swap1\n      jump\t// out\n    tag_373:\n      dup3\n      dup1\n      sload\n      dup3\n      dup3\n      sstore\n      swap1\n      0x00\n      mstore\n      keccak256(0x00, 0x20)\n      swap1\n      dup2\n      add\n      swap3\n      dup3\n      iszero\n      tag_459\n      jumpi\n      swap2\n      0x20\n      mul\n      dup3\n      add\n    tag_458:\n      dup3\n      dup2\n      gt\n      iszero\n      tag_459\n      jumpi\n      dup3\n      mload\n      dup3\n      sstore\n      swap2\n      0x20\n      add\n      swap2\n      swap1\n      0x01\n      add\n      swap1\n      jump(tag_458)\n    tag_459:\n      pop\n      tag_460\n      swap3\n      swap2\n      pop\n      tag_461\n      jump\t// in\n    tag_460:\n      pop\n      swap1\n      jump\t// out\n    tag_461:\n    tag_462:\n      dup1\n      dup3\n      gt\n      iszero\n      tag_460\n      jumpi\n      0x00\n      dup2\n      sstore\n      0x01\n      add\n      jump(tag_462)\n        /* \"#utility.yul\":14:240   */\n    tag_34:\n        /* \"#utility.yul\":73:79   */\n      0x00\n        /* \"#utility.yul\":126:128   */\n      0x20\n        /* \"#utility.yul\":114:123   */\n      dup3\n        /* \"#utility.yul\":105:112   */\n      dup5\n        /* \"#utility.yul\":101:124   */\n      sub\n        /* \"#utility.yul\":97:129   */\n      slt\n        /* \"#utility.yul\":94:146   */\n      iszero\n      tag_479\n      jumpi\n        /* \"#utility.yul\":142:143   */\n      0x00\n        /* \"#utility.yul\":139:140   */\n      dup1\n        /* \"#utility.yul\":132:144   */\n      revert\n        /* \"#utility.yul\":94:146   */\n    tag_479:\n      pop\n        /* \"#utility.yul\":187:210   */\n      calldataload\n      swap2\n        /* \"#utility.yul\":14:240   */\n      swap1\n      pop\n      jump\t// out\n        /* \"#utility.yul\":245:349   */\n    tag_464:\n      sub(shl(0xa0, 0x01), 0x01)\n        /* \"#utility.yul\":311:342   */\n      and\n        /* \"#utility.yul\":299:343   */\n      swap1\n      mstore\n        /* \"#utility.yul\":245:349   */\n      jump\t// out\n        /* \"#utility.yul\":354:481   */\n    tag_168:\n        /* \"#utility.yul\":415:425   */\n      0x4e487b71\n        /* \"#utility.yul\":410:413   */\n      0xe0\n        /* \"#utility.yul\":406:426   */\n      shl\n        /* \"#utility.yul\":403:404   */\n      0x00\n        /* \"#utility.yul\":396:427   */\n      mstore\n        /* \"#utility.yul\":446:450   */\n      0x21\n        /* \"#utility.yul\":443:444   */\n      0x04\n        /* \"#utility.yul\":436:451   */\n      mstore\n        /* \"#utility.yul\":470:474   */\n      0x24\n        /* \"#utility.yul\":467:468   */\n      0x00\n        /* \"#utility.yul\":460:475   */\n      revert\n        /* \"#utility.yul\":486:1426   */\n    tag_37:\n        /* \"#utility.yul\":728:730   */\n      0x20\n        /* \"#utility.yul\":740:761   */\n      dup1\n      dup3\n      mstore\n        /* \"#utility.yul\":810:823   */\n      dup3\n      mload\n        /* \"#utility.yul\":713:731   */\n      dup3\n      dup3\n      add\n        /* \"#utility.yul\":832:854   */\n      dup2\n      swap1\n      mstore\n        /* \"#utility.yul\":680:684   */\n      0x00\n      swap2\n        /* \"#utility.yul\":911:926   */\n      dup5\n      add\n      swap1\n        /* \"#utility.yul\":885:887   */\n      0x40\n        /* \"#utility.yul\":870:888   */\n      dup5\n      add\n      swap1\n        /* \"#utility.yul\":680:684   */\n      dup4\n        /* \"#utility.yul\":954:1400   */\n    tag_483:\n        /* \"#utility.yul\":968:974   */\n      dup2\n        /* \"#utility.yul\":965:966   */\n      dup2\n        /* \"#utility.yul\":962:975   */\n      lt\n        /* \"#utility.yul\":954:1400   */\n      iszero\n      tag_271\n      jumpi\n        /* \"#utility.yul\":1027:1040   */\n      dup4\n      mload\n        /* \"#utility.yul\":1069:1078   */\n      dup1\n      mload\n      sub(shl(0xa0, 0x01), 0x01)\n        /* \"#utility.yul\":1065:1100   */\n      and\n        /* \"#utility.yul\":1053:1101   */\n      dup5\n      mstore\n        /* \"#utility.yul\":1149:1151   */\n      0x20\n        /* \"#utility.yul\":1141:1152   */\n      dup1\n      dup3\n      add\n        /* \"#utility.yul\":1135:1153   */\n      mload\n        /* \"#utility.yul\":1121:1133   */\n      swap1\n      dup6\n      add\n        /* \"#utility.yul\":1114:1154   */\n      mstore\n        /* \"#utility.yul\":1201:1203   */\n      0x40\n        /* \"#utility.yul\":1193:1204   */\n      add\n        /* \"#utility.yul\":1187:1205   */\n      mload\n        /* \"#utility.yul\":1245:1246   */\n      0x05\n        /* \"#utility.yul\":1228:1247   */\n      dup2\n      lt\n        /* \"#utility.yul\":1218:1271   */\n      tag_487\n      jumpi\n        /* \"#utility.yul\":1251:1269   */\n      tag_487\n      tag_168\n      jump\t// in\n    tag_487:\n        /* \"#utility.yul\":1300:1302   */\n      0x40\n        /* \"#utility.yul\":1291:1303   */\n      dup5\n      add\n        /* \"#utility.yul\":1284:1318   */\n      mstore\n        /* \"#utility.yul\":1387:1389   */\n      0x20\n        /* \"#utility.yul\":1375:1390   */\n      swap4\n      swap1\n      swap4\n      add\n      swap3\n        /* \"#utility.yul\":1347:1351   */\n      0x60\n        /* \"#utility.yul\":1338:1352   */\n      swap1\n      swap3\n      add\n      swap2\n        /* \"#utility.yul\":990:991   */\n      0x01\n        /* \"#utility.yul\":983:992   */\n      add\n        /* \"#utility.yul\":954:1400   */\n      jump(tag_483)\n        /* \"#utility.yul\":1431:1717   */\n    tag_40:\n        /* \"#utility.yul\":1489:1495   */\n      0x00\n        /* \"#utility.yul\":1542:1544   */\n      0x20\n        /* \"#utility.yul\":1530:1539   */\n      dup3\n        /* \"#utility.yul\":1521:1528   */\n      dup5\n        /* \"#utility.yul\":1517:1540   */\n      sub\n        /* \"#utility.yul\":1513:1545   */\n      slt\n        /* \"#utility.yul\":1510:1562   */\n      iszero\n      tag_489\n      jumpi\n        /* \"#utility.yul\":1558:1559   */\n      0x00\n        /* \"#utility.yul\":1555:1556   */\n      dup1\n        /* \"#utility.yul\":1548:1560   */\n      revert\n        /* \"#utility.yul\":1510:1562   */\n    tag_489:\n        /* \"#utility.yul\":1584:1607   */\n      dup2\n      calldataload\n      not(sub(shl(0xe0, 0x01), 0x01))\n        /* \"#utility.yul\":1636:1668   */\n      dup2\n      and\n        /* \"#utility.yul\":1626:1669   */\n      dup2\n      eq\n        /* \"#utility.yul\":1616:1687   */\n      tag_284\n      jumpi\n        /* \"#utility.yul\":1683:1684   */\n      0x00\n        /* \"#utility.yul\":1680:1681   */\n      dup1\n        /* \"#utility.yul\":1673:1685   */\n      revert\n        /* \"#utility.yul\":2010:2410   */\n    tag_466:\n        /* \"#utility.yul\":2052:2055   */\n      0x00\n        /* \"#utility.yul\":2090:2095   */\n      dup2\n        /* \"#utility.yul\":2084:2096   */\n      mload\n        /* \"#utility.yul\":2117:2123   */\n      dup1\n        /* \"#utility.yul\":2112:2115   */\n      dup5\n        /* \"#utility.yul\":2105:2124   */\n      mstore\n        /* \"#utility.yul\":2142:2143   */\n      0x00\n        /* \"#utility.yul\":2152:2291   */\n    tag_494:\n        /* \"#utility.yul\":2166:2172   */\n      dup2\n        /* \"#utility.yul\":2163:2164   */\n      dup2\n        /* \"#utility.yul\":2160:2173   */\n      lt\n        /* \"#utility.yul\":2152:2291   */\n      iszero\n      tag_496\n      jumpi\n        /* \"#utility.yul\":2274:2278   */\n      0x20\n        /* \"#utility.yul\":2259:2272   */\n      dup2\n      dup6\n      add\n        /* \"#utility.yul\":2255:2279   */\n      dup2\n      add\n        /* \"#utility.yul\":2249:2280   */\n      mload\n        /* \"#utility.yul\":2229:2240   */\n      dup7\n      dup4\n      add\n        /* \"#utility.yul\":2225:2247   */\n      dup3\n      add\n        /* \"#utility.yul\":2218:2281   */\n      mstore\n        /* \"#utility.yul\":2181:2193   */\n      add\n        /* \"#utility.yul\":2152:2291   */\n      jump(tag_494)\n    tag_496:\n        /* \"#utility.yul\":2156:2159   */\n      pop\n        /* \"#utility.yul\":2336:2337   */\n      0x00\n        /* \"#utility.yul\":2329:2333   */\n      0x20\n        /* \"#utility.yul\":2320:2326   */\n      dup3\n        /* \"#utility.yul\":2315:2318   */\n      dup7\n        /* \"#utility.yul\":2311:2327   */\n      add\n        /* \"#utility.yul\":2307:2334   */\n      add\n        /* \"#utility.yul\":2300:2338   */\n      mstore\n        /* \"#utility.yul\":2399:2403   */\n      0x20\n        /* \"#utility.yul\":2392:2394   */\n      0x1f\n        /* \"#utility.yul\":2388:2395   */\n      not\n        /* \"#utility.yul\":2383:2385   */\n      0x1f\n        /* \"#utility.yul\":2375:2381   */\n      dup4\n        /* \"#utility.yul\":2371:2386   */\n      add\n        /* \"#utility.yul\":2367:2396   */\n      and\n        /* \"#utility.yul\":2362:2365   */\n      dup6\n        /* \"#utility.yul\":2358:2397   */\n      add\n        /* \"#utility.yul\":2354:2404   */\n      add\n        /* \"#utility.yul\":2347:2404   */\n      swap2\n      pop\n      pop\n        /* \"#utility.yul\":2010:2410   */\n      swap3\n      swap2\n      pop\n      pop\n      jump\t// out\n        /* \"#utility.yul\":2415:2556   */\n    tag_467:\n        /* \"#utility.yul\":2497:2498   */\n      0x06\n        /* \"#utility.yul\":2490:2495   */\n      dup2\n        /* \"#utility.yul\":2487:2499   */\n      lt\n        /* \"#utility.yul\":2477:2523   */\n      tag_499\n      jumpi\n        /* \"#utility.yul\":2503:2521   */\n      tag_499\n      tag_168\n      jump\t// in\n    tag_499:\n        /* \"#utility.yul\":2532:2550   */\n      swap1\n      mstore\n        /* \"#utility.yul\":2415:2556   */\n      jump\t// out\n        /* \"#utility.yul\":2561:3790   */\n    tag_48:\n        /* \"#utility.yul\":2748:2750   */\n      0x20\n        /* \"#utility.yul\":2737:2746   */\n      dup2\n        /* \"#utility.yul\":2730:2751   */\n      mstore\n        /* \"#utility.yul\":2793:2799   */\n      dup2\n        /* \"#utility.yul\":2787:2800   */\n      mload\n        /* \"#utility.yul\":2782:2784   */\n      0x20\n        /* \"#utility.yul\":2771:2780   */\n      dup3\n        /* \"#utility.yul\":2767:2785   */\n      add\n        /* \"#utility.yul\":2760:2801   */\n      mstore\n        /* \"#utility.yul\":2711:2715   */\n      0x00\n        /* \"#utility.yul\":2848:2850   */\n      0x20\n        /* \"#utility.yul\":2840:2846   */\n      dup4\n        /* \"#utility.yul\":2836:2851   */\n      add\n        /* \"#utility.yul\":2830:2852   */\n      mload\n        /* \"#utility.yul\":2861:2913   */\n      tag_501\n        /* \"#utility.yul\":2909:2911   */\n      0x40\n        /* \"#utility.yul\":2898:2907   */\n      dup5\n        /* \"#utility.yul\":2894:2912   */\n      add\n        /* \"#utility.yul\":2880:2892   */\n      dup3\n        /* \"#utility.yul\":2861:2913   */\n      tag_464\n      jump\t// in\n    tag_501:\n      pop\n        /* \"#utility.yul\":2962:2964   */\n      0x40\n        /* \"#utility.yul\":2954:2960   */\n      dup4\n        /* \"#utility.yul\":2950:2965   */\n      add\n        /* \"#utility.yul\":2944:2966   */\n      mload\n        /* \"#utility.yul\":3002:3008   */\n      0x0120\n        /* \"#utility.yul\":2997:2999   */\n      0x60\n        /* \"#utility.yul\":2986:2995   */\n      dup5\n        /* \"#utility.yul\":2982:3000   */\n      add\n        /* \"#utility.yul\":2975:3009   */\n      mstore\n        /* \"#utility.yul\":3032:3086   */\n      tag_502\n        /* \"#utility.yul\":3081:3084   */\n      0x0140\n        /* \"#utility.yul\":3070:3079   */\n      dup5\n        /* \"#utility.yul\":3066:3085   */\n      add\n        /* \"#utility.yul\":3050:3064   */\n      dup3\n        /* \"#utility.yul\":3032:3086   */\n      tag_466\n      jump\t// in\n    tag_502:\n        /* \"#utility.yul\":3018:3086   */\n      swap1\n      pop\n        /* \"#utility.yul\":3135:3137   */\n      0x60\n        /* \"#utility.yul\":3127:3133   */\n      dup5\n        /* \"#utility.yul\":3123:3138   */\n      add\n        /* \"#utility.yul\":3117:3139   */\n      mload\n        /* \"#utility.yul\":3148:3211   */\n      tag_503\n        /* \"#utility.yul\":3206:3209   */\n      0x80\n        /* \"#utility.yul\":3195:3204   */\n      dup6\n        /* \"#utility.yul\":3191:3210   */\n      add\n        /* \"#utility.yul\":3175:3189   */\n      dup3\n        /* \"#utility.yul\":3148:3211   */\n      tag_467\n      jump\t// in\n    tag_503:\n      pop\n        /* \"#utility.yul\":3266:3269   */\n      0x80\n        /* \"#utility.yul\":3258:3264   */\n      dup5\n        /* \"#utility.yul\":3254:3270   */\n      add\n        /* \"#utility.yul\":3248:3271   */\n      mload\n        /* \"#utility.yul\":3242:3245   */\n      0xa0\n        /* \"#utility.yul\":3231:3240   */\n      dup5\n        /* \"#utility.yul\":3227:3246   */\n      add\n        /* \"#utility.yul\":3220:3272   */\n      mstore\n        /* \"#utility.yul\":3321:3324   */\n      0xa0\n        /* \"#utility.yul\":3313:3319   */\n      dup5\n        /* \"#utility.yul\":3309:3325   */\n      add\n        /* \"#utility.yul\":3303:3326   */\n      mload\n        /* \"#utility.yul\":3335:3390   */\n      tag_504\n        /* \"#utility.yul\":3385:3388   */\n      0xc0\n        /* \"#utility.yul\":3374:3383   */\n      dup6\n        /* \"#utility.yul\":3370:3389   */\n      add\n        /* \"#utility.yul\":3354:3368   */\n      dup3\n        /* \"#utility.yul\":3335:3390   */\n      tag_464\n      jump\t// in\n    tag_504:\n      pop\n        /* \"#utility.yul\":3439:3442   */\n      0xc0\n        /* \"#utility.yul\":3427:3443   */\n      dup5\n      add\n        /* \"#utility.yul\":3421:3444   */\n      mload\n        /* \"#utility.yul\":1792:1805   */\n      dup1\n      iszero\n        /* \"#utility.yul\":1785:1806   */\n      iszero\n        /* \"#utility.yul\":3500:3503   */\n      0xe0\n        /* \"#utility.yul\":3485:3504   */\n      dup6\n      add\n        /* \"#utility.yul\":1773:1807   */\n      mstore\n      pop\n        /* \"#utility.yul\":3554:3557   */\n      0xe0\n        /* \"#utility.yul\":3542:3558   */\n      dup5\n      add\n        /* \"#utility.yul\":3536:3559   */\n      mload\n        /* \"#utility.yul\":3600:3622   */\n      dup4\n      dup3\n      sub\n      not(0x1f)\n        /* \"#utility.yul\":3596:3632   */\n      add\n        /* \"#utility.yul\":3590:3593   */\n      0x0100\n        /* \"#utility.yul\":3575:3594   */\n      dup6\n      add\n        /* \"#utility.yul\":3568:3633   */\n      mstore\n        /* \"#utility.yul\":3656:3697   */\n      tag_506\n        /* \"#utility.yul\":3604:3610   */\n      dup3\n        /* \"#utility.yul\":3536:3559   */\n      dup3\n        /* \"#utility.yul\":3656:3697   */\n      tag_466\n      jump\t// in\n    tag_506:\n        /* \"#utility.yul\":3642:3697   */\n      swap2\n      pop\n      pop\n        /* \"#utility.yul\":3755:3758   */\n      0x0100\n        /* \"#utility.yul\":3747:3753   */\n      dup5\n        /* \"#utility.yul\":3743:3759   */\n      add\n        /* \"#utility.yul\":3737:3760   */\n      mload\n        /* \"#utility.yul\":3728:3734   */\n      0x0120\n        /* \"#utility.yul\":3717:3726   */\n      dup5\n        /* \"#utility.yul\":3713:3735   */\n      add\n        /* \"#utility.yul\":3706:3761   */\n      mstore\n        /* \"#utility.yul\":3778:3784   */\n      dup1\n        /* \"#utility.yul\":3770:3784   */\n      swap2\n      pop\n      pop\n        /* \"#utility.yul\":2561:3790   */\n      swap3\n      swap2\n      pop\n      pop\n      jump\t// out\n        /* \"#utility.yul\":3977:4150   */\n    tag_468:\n        /* \"#utility.yul\":4045:4065   */\n      dup1\n      calldataload\n      sub(shl(0xa0, 0x01), 0x01)\n        /* \"#utility.yul\":4094:4125   */\n      dup2\n      and\n        /* \"#utility.yul\":4084:4126   */\n      dup2\n      eq\n        /* \"#utility.yul\":4074:4144   */\n      tag_509\n      jumpi\n        /* \"#utility.yul\":4140:4141   */\n      0x00\n        /* \"#utility.yul\":4137:4138   */\n      dup1\n        /* \"#utility.yul\":4130:4142   */\n      revert\n        /* \"#utility.yul\":4074:4144   */\n    tag_509:\n        /* \"#utility.yul\":3977:4150   */\n      swap2\n      swap1\n      pop\n      jump\t// out\n        /* \"#utility.yul\":4155:4282   */\n    tag_268:\n        /* \"#utility.yul\":4216:4226   */\n      0x4e487b71\n        /* \"#utility.yul\":4211:4214   */\n      0xe0\n        /* \"#utility.yul\":4207:4227   */\n      shl\n        /* \"#utility.yul\":4204:4205   */\n      0x00\n        /* \"#utility.yul\":4197:4228   */\n      mstore\n        /* \"#utility.yul\":4247:4251   */\n      0x41\n        /* \"#utility.yul\":4244:4245   */\n      0x04\n        /* \"#utility.yul\":4237:4252   */\n      mstore\n        /* \"#utility.yul\":4271:4275   */\n      0x24\n        /* \"#utility.yul\":4268:4269   */\n      0x00\n        /* \"#utility.yul\":4261:4276   */\n      revert\n        /* \"#utility.yul\":4287:4562   */\n    tag_469:\n        /* \"#utility.yul\":4358:4360   */\n      0x40\n        /* \"#utility.yul\":4352:4361   */\n      mload\n        /* \"#utility.yul\":4423:4425   */\n      0x1f\n        /* \"#utility.yul\":4404:4417   */\n      dup3\n      add\n      not(0x1f)\n        /* \"#utility.yul\":4400:4427   */\n      and\n        /* \"#utility.yul\":4388:4428   */\n      dup2\n      add\n      sub(shl(0x40, 0x01), 0x01)\n        /* \"#utility.yul\":4443:4477   */\n      dup2\n      gt\n        /* \"#utility.yul\":4479:4501   */\n      dup3\n      dup3\n      lt\n        /* \"#utility.yul\":4440:4502   */\n      or\n        /* \"#utility.yul\":4437:4525   */\n      iszero\n      tag_513\n      jumpi\n        /* \"#utility.yul\":4505:4523   */\n      tag_513\n      tag_268\n      jump\t// in\n    tag_513:\n        /* \"#utility.yul\":4541:4543   */\n      0x40\n        /* \"#utility.yul\":4534:4556   */\n      mstore\n        /* \"#utility.yul\":4287:4562   */\n      swap2\n      swap1\n      pop\n      jump\t// out\n        /* \"#utility.yul\":4567:5126   */\n    tag_470:\n        /* \"#utility.yul\":4610:4615   */\n      0x00\n        /* \"#utility.yul\":4663:4666   */\n      dup3\n        /* \"#utility.yul\":4656:4660   */\n      0x1f\n        /* \"#utility.yul\":4648:4654   */\n      dup4\n        /* \"#utility.yul\":4644:4661   */\n      add\n        /* \"#utility.yul\":4640:4667   */\n      slt\n        /* \"#utility.yul\":4630:4685   */\n      tag_515\n      jumpi\n        /* \"#utility.yul\":4681:4682   */\n      0x00\n        /* \"#utility.yul\":4678:4679   */\n      dup1\n        /* \"#utility.yul\":4671:4683   */\n      revert\n        /* \"#utility.yul\":4630:4685   */\n    tag_515:\n        /* \"#utility.yul\":4708:4728   */\n      dup2\n      calldataload\n      sub(shl(0x40, 0x01), 0x01)\n        /* \"#utility.yul\":4740:4770   */\n      dup2\n      gt\n        /* \"#utility.yul\":4737:4793   */\n      iszero\n      tag_517\n      jumpi\n        /* \"#utility.yul\":4773:4791   */\n      tag_517\n      tag_268\n      jump\t// in\n    tag_517:\n        /* \"#utility.yul\":4817:4876   */\n      tag_518\n        /* \"#utility.yul\":4864:4866   */\n      0x1f\n        /* \"#utility.yul\":4841:4858   */\n      dup3\n      add\n      not(0x1f)\n        /* \"#utility.yul\":4837:4868   */\n      and\n        /* \"#utility.yul\":4870:4874   */\n      0x20\n        /* \"#utility.yul\":4833:4875   */\n      add\n        /* \"#utility.yul\":4817:4876   */\n      tag_469\n      jump\t// in\n    tag_518:\n        /* \"#utility.yul\":4901:4907   */\n      dup2\n        /* \"#utility.yul\":4892:4899   */\n      dup2\n        /* \"#utility.yul\":4885:4908   */\n      mstore\n        /* \"#utility.yul\":4955:4958   */\n      dup5\n        /* \"#utility.yul\":4948:4952   */\n      0x20\n        /* \"#utility.yul\":4939:4945   */\n      dup4\n        /* \"#utility.yul\":4931:4937   */\n      dup7\n        /* \"#utility.yul\":4927:4946   */\n      add\n        /* \"#utility.yul\":4923:4953   */\n      add\n        /* \"#utility.yul\":4920:4959   */\n      gt\n        /* \"#utility.yul\":4917:4976   */\n      iszero\n      tag_519\n      jumpi\n        /* \"#utility.yul\":4972:4973   */\n      0x00\n        /* \"#utility.yul\":4969:4970   */\n      dup1\n        /* \"#utility.yul\":4962:4974   */\n      revert\n        /* \"#utility.yul\":4917:4976   */\n    tag_519:\n        /* \"#utility.yul\":5037:5043   */\n      dup2\n        /* \"#utility.yul\":5030:5034   */\n      0x20\n        /* \"#utility.yul\":5022:5028   */\n      dup6\n        /* \"#utility.yul\":5018:5035   */\n      add\n        /* \"#utility.yul\":5011:5015   */\n      0x20\n        /* \"#utility.yul\":5002:5009   */\n      dup4\n        /* \"#utility.yul\":4998:5016   */\n      add\n        /* \"#utility.yul\":4985:5044   */\n      calldatacopy\n        /* \"#utility.yul\":5093:5094   */\n      0x00\n        /* \"#utility.yul\":5064:5084   */\n      swap2\n      dup2\n      add\n        /* \"#utility.yul\":5086:5090   */\n      0x20\n        /* \"#utility.yul\":5060:5091   */\n      add\n        /* \"#utility.yul\":5053:5095   */\n      swap2\n      swap1\n      swap2\n      mstore\n        /* \"#utility.yul\":5068:5075   */\n      swap4\n        /* \"#utility.yul\":4567:5126   */\n      swap3\n      pop\n      pop\n      pop\n      jump\t// out\n        /* \"#utility.yul\":5131:5282   */\n    tag_471:\n        /* \"#utility.yul\":5207:5227   */\n      dup1\n      calldataload\n        /* \"#utility.yul\":5256:5257   */\n      0x06\n        /* \"#utility.yul\":5246:5258   */\n      dup2\n      lt\n        /* \"#utility.yul\":5236:5276   */\n      tag_509\n      jumpi\n        /* \"#utility.yul\":5272:5273   */\n      0x00\n        /* \"#utility.yul\":5269:5270   */\n      dup1\n        /* \"#utility.yul\":5262:5274   */\n      revert\n        /* \"#utility.yul\":5287:5996   */\n    tag_58:\n        /* \"#utility.yul\":5407:5413   */\n      0x00\n        /* \"#utility.yul\":5415:5421   */\n      dup1\n        /* \"#utility.yul\":5423:5429   */\n      0x00\n        /* \"#utility.yul\":5431:5437   */\n      dup1\n        /* \"#utility.yul\":5484:5487   */\n      0x80\n        /* \"#utility.yul\":5472:5481   */\n      dup6\n        /* \"#utility.yul\":5463:5470   */\n      dup8\n        /* \"#utility.yul\":5459:5482   */\n      sub\n        /* \"#utility.yul\":5455:5488   */\n      slt\n        /* \"#utility.yul\":5452:5505   */\n      iszero\n      tag_523\n      jumpi\n        /* \"#utility.yul\":5501:5502   */\n      0x00\n        /* \"#utility.yul\":5498:5499   */\n      dup1\n        /* \"#utility.yul\":5491:5503   */\n      revert\n        /* \"#utility.yul\":5452:5505   */\n    tag_523:\n        /* \"#utility.yul\":5524:5553   */\n      tag_524\n        /* \"#utility.yul\":5543:5552   */\n      dup6\n        /* \"#utility.yul\":5524:5553   */\n      tag_468\n      jump\t// in\n    tag_524:\n        /* \"#utility.yul\":5514:5553   */\n      swap4\n      pop\n        /* \"#utility.yul\":5604:5606   */\n      0x20\n        /* \"#utility.yul\":5589:5607   */\n      dup6\n      add\n        /* \"#utility.yul\":5576:5608   */\n      calldataload\n      sub(shl(0x40, 0x01), 0x01)\n        /* \"#utility.yul\":5620:5650   */\n      dup2\n      gt\n        /* \"#utility.yul\":5617:5667   */\n      iszero\n      tag_525\n      jumpi\n        /* \"#utility.yul\":5663:5664   */\n      0x00\n        /* \"#utility.yul\":5660:5661   */\n      dup1\n        /* \"#utility.yul\":5653:5665   */\n      revert\n        /* \"#utility.yul\":5617:5667   */\n    tag_525:\n        /* \"#utility.yul\":5686:5736   */\n      tag_526\n        /* \"#utility.yul\":5728:5735   */\n      dup8\n        /* \"#utility.yul\":5719:5725   */\n      dup3\n        /* \"#utility.yul\":5708:5717   */\n      dup9\n        /* \"#utility.yul\":5704:5726   */\n      add\n        /* \"#utility.yul\":5686:5736   */\n      tag_470\n      jump\t// in\n    tag_526:\n        /* \"#utility.yul\":5676:5736   */\n      swap4\n      pop\n      pop\n        /* \"#utility.yul\":5755:5801   */\n      tag_527\n        /* \"#utility.yul\":5797:5799   */\n      0x40\n        /* \"#utility.yul\":5786:5795   */\n      dup7\n        /* \"#utility.yul\":5782:5800   */\n      add\n        /* \"#utility.yul\":5755:5801   */\n      tag_471\n      jump\t// in\n    tag_527:\n        /* \"#utility.yul\":5745:5801   */\n      swap2\n      pop\n        /* \"#utility.yul\":5854:5856   */\n      0x60\n        /* \"#utility.yul\":5839:5857   */\n      dup6\n      add\n        /* \"#utility.yul\":5826:5858   */\n      calldataload\n      sub(shl(0x40, 0x01), 0x01)\n        /* \"#utility.yul\":5870:5902   */\n      dup2\n      gt\n        /* \"#utility.yul\":5867:5919   */\n      iszero\n      tag_528\n      jumpi\n        /* \"#utility.yul\":5915:5916   */\n      0x00\n        /* \"#utility.yul\":5912:5913   */\n      dup1\n        /* \"#utility.yul\":5905:5917   */\n      revert\n        /* \"#utility.yul\":5867:5919   */\n    tag_528:\n        /* \"#utility.yul\":5938:5990   */\n      tag_529\n        /* \"#utility.yul\":5982:5989   */\n      dup8\n        /* \"#utility.yul\":5971:5979   */\n      dup3\n        /* \"#utility.yul\":5960:5969   */\n      dup9\n        /* \"#utility.yul\":5956:5980   */\n      add\n        /* \"#utility.yul\":5938:5990   */\n      tag_470\n      jump\t// in\n    tag_529:\n        /* \"#utility.yul\":5928:5990   */\n      swap2\n      pop\n      pop\n        /* \"#utility.yul\":5287:5996   */\n      swap3\n      swap6\n      swap2\n      swap5\n      pop\n      swap3\n      pop\n      jump\t// out\n        /* \"#utility.yul\":6001:6187   */\n    tag_63:\n        /* \"#utility.yul\":6060:6066   */\n      0x00\n        /* \"#utility.yul\":6113:6115   */\n      0x20\n        /* \"#utility.yul\":6101:6110   */\n      dup3\n        /* \"#utility.yul\":6092:6099   */\n      dup5\n        /* \"#utility.yul\":6088:6111   */\n      sub\n        /* \"#utility.yul\":6084:6116   */\n      slt\n        /* \"#utility.yul\":6081:6133   */\n      iszero\n      tag_531\n      jumpi\n        /* \"#utility.yul\":6129:6130   */\n      0x00\n        /* \"#utility.yul\":6126:6127   */\n      dup1\n        /* \"#utility.yul\":6119:6131   */\n      revert\n        /* \"#utility.yul\":6081:6133   */\n    tag_531:\n        /* \"#utility.yul\":6152:6181   */\n      tag_284\n        /* \"#utility.yul\":6171:6180   */\n      dup3\n        /* \"#utility.yul\":6152:6181   */\n      tag_468\n      jump\t// in\n        /* \"#utility.yul\":6192:6612   */\n    tag_472:\n        /* \"#utility.yul\":6245:6248   */\n      0x00\n        /* \"#utility.yul\":6283:6288   */\n      dup2\n        /* \"#utility.yul\":6277:6289   */\n      mload\n        /* \"#utility.yul\":6310:6316   */\n      dup1\n        /* \"#utility.yul\":6305:6308   */\n      dup5\n        /* \"#utility.yul\":6298:6317   */\n      mstore\n        /* \"#utility.yul\":6342:6346   */\n      0x20\n        /* \"#utility.yul\":6337:6340   */\n      dup5\n        /* \"#utility.yul\":6333:6347   */\n      add\n        /* \"#utility.yul\":6326:6347   */\n      swap4\n      pop\n        /* \"#utility.yul\":6381:6385   */\n      0x20\n        /* \"#utility.yul\":6374:6379   */\n      dup4\n        /* \"#utility.yul\":6370:6386   */\n      add\n        /* \"#utility.yul\":6404:6405   */\n      0x00\n        /* \"#utility.yul\":6414:6587   */\n    tag_534:\n        /* \"#utility.yul\":6428:6434   */\n      dup3\n        /* \"#utility.yul\":6425:6426   */\n      dup2\n        /* \"#utility.yul\":6422:6435   */\n      lt\n        /* \"#utility.yul\":6414:6587   */\n      iszero\n      tag_536\n      jumpi\n        /* \"#utility.yul\":6489:6502   */\n      dup2\n      mload\n        /* \"#utility.yul\":6477:6503   */\n      dup7\n      mstore\n        /* \"#utility.yul\":6532:6536   */\n      0x20\n        /* \"#utility.yul\":6523:6537   */\n      swap6\n      dup7\n      add\n      swap6\n        /* \"#utility.yul\":6560:6577   */\n      swap1\n      swap2\n      add\n      swap1\n        /* \"#utility.yul\":6450:6451   */\n      0x01\n        /* \"#utility.yul\":6443:6452   */\n      add\n        /* \"#utility.yul\":6414:6587   */\n      jump(tag_534)\n    tag_536:\n      pop\n        /* \"#utility.yul\":6603:6606   */\n      swap4\n      swap5\n        /* \"#utility.yul\":6192:6612   */\n      swap4\n      pop\n      pop\n      pop\n      pop\n      jump\t// out\n        /* \"#utility.yul\":6617:6878   */\n    tag_69:\n        /* \"#utility.yul\":6796:6798   */\n      0x20\n        /* \"#utility.yul\":6785:6794   */\n      dup2\n        /* \"#utility.yul\":6778:6799   */\n      mstore\n        /* \"#utility.yul\":6759:6763   */\n      0x00\n        /* \"#utility.yul\":6816:6872   */\n      tag_284\n        /* \"#utility.yul\":6868:6870   */\n      0x20\n        /* \"#utility.yul\":6857:6866   */\n      dup4\n        /* \"#utility.yul\":6853:6871   */\n      add\n        /* \"#utility.yul\":6845:6851   */\n      dup5\n        /* \"#utility.yul\":6816:6872   */\n      tag_472\n      jump\t// in\n        /* \"#utility.yul\":6883:7517   */\n    tag_72:\n        /* \"#utility.yul\":6994:7000   */\n      0x00\n        /* \"#utility.yul\":7002:7008   */\n      dup1\n        /* \"#utility.yul\":7010:7016   */\n      0x00\n        /* \"#utility.yul\":7063:7065   */\n      0x60\n        /* \"#utility.yul\":7051:7060   */\n      dup5\n        /* \"#utility.yul\":7042:7049   */\n      dup7\n        /* \"#utility.yul\":7038:7061   */\n      sub\n        /* \"#utility.yul\":7034:7066   */\n      slt\n        /* \"#utility.yul\":7031:7083   */\n      iszero\n      tag_540\n      jumpi\n        /* \"#utility.yul\":7079:7080   */\n      0x00\n        /* \"#utility.yul\":7076:7077   */\n      dup1\n        /* \"#utility.yul\":7069:7081   */\n      revert\n        /* \"#utility.yul\":7031:7083   */\n    tag_540:\n        /* \"#utility.yul\":7106:7129   */\n      dup4\n      calldataload\n      sub(shl(0x40, 0x01), 0x01)\n        /* \"#utility.yul\":7141:7171   */\n      dup2\n      gt\n        /* \"#utility.yul\":7138:7188   */\n      iszero\n      tag_541\n      jumpi\n        /* \"#utility.yul\":7184:7185   */\n      0x00\n        /* \"#utility.yul\":7181:7182   */\n      dup1\n        /* \"#utility.yul\":7174:7186   */\n      revert\n        /* \"#utility.yul\":7138:7188   */\n    tag_541:\n        /* \"#utility.yul\":7207:7257   */\n      tag_542\n        /* \"#utility.yul\":7249:7256   */\n      dup7\n        /* \"#utility.yul\":7240:7246   */\n      dup3\n        /* \"#utility.yul\":7229:7238   */\n      dup8\n        /* \"#utility.yul\":7225:7247   */\n      add\n        /* \"#utility.yul\":7207:7257   */\n      tag_470\n      jump\t// in\n    tag_542:\n        /* \"#utility.yul\":7197:7257   */\n      swap4\n      pop\n      pop\n        /* \"#utility.yul\":7276:7322   */\n      tag_543\n        /* \"#utility.yul\":7318:7320   */\n      0x20\n        /* \"#utility.yul\":7307:7316   */\n      dup6\n        /* \"#utility.yul\":7303:7321   */\n      add\n        /* \"#utility.yul\":7276:7322   */\n      tag_471\n      jump\t// in\n    tag_543:\n        /* \"#utility.yul\":7266:7322   */\n      swap2\n      pop\n        /* \"#utility.yul\":7375:7377   */\n      0x40\n        /* \"#utility.yul\":7360:7378   */\n      dup5\n      add\n        /* \"#utility.yul\":7347:7379   */\n      calldataload\n      sub(shl(0x40, 0x01), 0x01)\n        /* \"#utility.yul\":7391:7423   */\n      dup2\n      gt\n        /* \"#utility.yul\":7388:7440   */\n      iszero\n      tag_544\n      jumpi\n        /* \"#utility.yul\":7436:7437   */\n      0x00\n        /* \"#utility.yul\":7433:7434   */\n      dup1\n        /* \"#utility.yul\":7426:7438   */\n      revert\n        /* \"#utility.yul\":7388:7440   */\n    tag_544:\n        /* \"#utility.yul\":7459:7511   */\n      tag_545\n        /* \"#utility.yul\":7503:7510   */\n      dup7\n        /* \"#utility.yul\":7492:7500   */\n      dup3\n        /* \"#utility.yul\":7481:7490   */\n      dup8\n        /* \"#utility.yul\":7477:7501   */\n      add\n        /* \"#utility.yul\":7459:7511   */\n      tag_470\n      jump\t// in\n    tag_545:\n        /* \"#utility.yul\":7449:7511   */\n      swap2\n      pop\n      pop\n        /* \"#utility.yul\":6883:7517   */\n      swap3\n      pop\n      swap3\n      pop\n      swap3\n      jump\t// out\n        /* \"#utility.yul\":7935:8235   */\n    tag_90:\n        /* \"#utility.yul\":8003:8009   */\n      0x00\n        /* \"#utility.yul\":8011:8017   */\n      dup1\n        /* \"#utility.yul\":8064:8066   */\n      0x40\n        /* \"#utility.yul\":8052:8061   */\n      dup4\n        /* \"#utility.yul\":8043:8050   */\n      dup6\n        /* \"#utility.yul\":8039:8062   */\n      sub\n        /* \"#utility.yul\":8035:8067   */\n      slt\n        /* \"#utility.yul\":8032:8084   */\n      iszero\n      tag_550\n      jumpi\n        /* \"#utility.yul\":8080:8081   */\n      0x00\n        /* \"#utility.yul\":8077:8078   */\n      dup1\n        /* \"#utility.yul\":8070:8082   */\n      revert\n        /* \"#utility.yul\":8032:8084   */\n    tag_550:\n        /* \"#utility.yul\":8125:8148   */\n      dup3\n      calldataload\n      swap2\n      pop\n        /* \"#utility.yul\":8191:8229   */\n      tag_551\n        /* \"#utility.yul\":8225:8227   */\n      0x20\n        /* \"#utility.yul\":8210:8228   */\n      dup5\n      add\n        /* \"#utility.yul\":8191:8229   */\n      tag_468\n      jump\t// in\n    tag_551:\n        /* \"#utility.yul\":8181:8229   */\n      swap1\n      pop\n        /* \"#utility.yul\":7935:8235   */\n      swap3\n      pop\n      swap3\n      swap1\n      pop\n      jump\t// out\n        /* \"#utility.yul\":8240:8892   */\n    tag_97:\n        /* \"#utility.yul\":8337:8343   */\n      0x00\n        /* \"#utility.yul\":8345:8351   */\n      dup1\n        /* \"#utility.yul\":8353:8359   */\n      0x00\n        /* \"#utility.yul\":8406:8408   */\n      0x60\n        /* \"#utility.yul\":8394:8403   */\n      dup5\n        /* \"#utility.yul\":8385:8392   */\n      dup7\n        /* \"#utility.yul\":8381:8404   */\n      sub\n        /* \"#utility.yul\":8377:8409   */\n      slt\n        /* \"#utility.yul\":8374:8426   */\n      iszero\n      tag_553\n      jumpi\n        /* \"#utility.yul\":8422:8423   */\n      0x00\n        /* \"#utility.yul\":8419:8420   */\n      dup1\n        /* \"#utility.yul\":8412:8424   */\n      revert\n        /* \"#utility.yul\":8374:8426   */\n    tag_553:\n        /* \"#utility.yul\":8467:8490   */\n      dup4\n      calldataload\n      swap3\n      pop\n        /* \"#utility.yul\":8565:8567   */\n      0x20\n        /* \"#utility.yul\":8550:8568   */\n      dup5\n      add\n        /* \"#utility.yul\":8537:8569   */\n      calldataload\n      sub(shl(0x40, 0x01), 0x01)\n        /* \"#utility.yul\":8581:8611   */\n      dup2\n      gt\n        /* \"#utility.yul\":8578:8628   */\n      iszero\n      tag_554\n      jumpi\n        /* \"#utility.yul\":8624:8625   */\n      0x00\n        /* \"#utility.yul\":8621:8622   */\n      dup1\n        /* \"#utility.yul\":8614:8626   */\n      revert\n        /* \"#utility.yul\":8578:8628   */\n    tag_554:\n        /* \"#utility.yul\":8647:8697   */\n      tag_555\n        /* \"#utility.yul\":8689:8696   */\n      dup7\n        /* \"#utility.yul\":8680:8686   */\n      dup3\n        /* \"#utility.yul\":8669:8678   */\n      dup8\n        /* \"#utility.yul\":8665:8687   */\n      add\n        /* \"#utility.yul\":8647:8697   */\n      tag_470\n      jump\t// in\n    tag_555:\n        /* \"#utility.yul\":8637:8697   */\n      swap3\n      pop\n      pop\n        /* \"#utility.yul\":8750:8752   */\n      0x40\n        /* \"#utility.yul\":8735:8753   */\n      dup5\n      add\n        /* \"#utility.yul\":8722:8754   */\n      calldataload\n      sub(shl(0x40, 0x01), 0x01)\n        /* \"#utility.yul\":8766:8798   */\n      dup2\n      gt\n        /* \"#utility.yul\":8763:8815   */\n      iszero\n      tag_544\n      jumpi\n        /* \"#utility.yul\":8811:8812   */\n      0x00\n        /* \"#utility.yul\":8808:8809   */\n      dup1\n        /* \"#utility.yul\":8801:8813   */\n      revert\n        /* \"#utility.yul\":8897:9157   */\n    tag_106:\n        /* \"#utility.yul\":8965:8971   */\n      0x00\n        /* \"#utility.yul\":8973:8979   */\n      dup1\n        /* \"#utility.yul\":9026:9028   */\n      0x40\n        /* \"#utility.yul\":9014:9023   */\n      dup4\n        /* \"#utility.yul\":9005:9012   */\n      dup6\n        /* \"#utility.yul\":9001:9024   */\n      sub\n        /* \"#utility.yul\":8997:9029   */\n      slt\n        /* \"#utility.yul\":8994:9046   */\n      iszero\n      tag_559\n      jumpi\n        /* \"#utility.yul\":9042:9043   */\n      0x00\n        /* \"#utility.yul\":9039:9040   */\n      dup1\n        /* \"#utility.yul\":9032:9044   */\n      revert\n        /* \"#utility.yul\":8994:9046   */\n    tag_559:\n        /* \"#utility.yul\":9065:9094   */\n      tag_560\n        /* \"#utility.yul\":9084:9093   */\n      dup4\n        /* \"#utility.yul\":9065:9094   */\n      tag_468\n      jump\t// in\n    tag_560:\n        /* \"#utility.yul\":9055:9094   */\n      swap2\n      pop\n        /* \"#utility.yul\":9113:9151   */\n      tag_551\n        /* \"#utility.yul\":9147:9149   */\n      0x20\n        /* \"#utility.yul\":9136:9145   */\n      dup5\n        /* \"#utility.yul\":9132:9150   */\n      add\n        /* \"#utility.yul\":9113:9151   */\n      tag_468\n      jump\t// in\n        /* \"#utility.yul\":9162:9830   */\n    tag_109:\n        /* \"#utility.yul\":9347:9349   */\n      0x20\n        /* \"#utility.yul\":9329:9350   */\n      dup1\n      dup3\n      mstore\n        /* \"#utility.yul\":9390:9403   */\n      dup3\n      mload\n      sub(shl(0xa0, 0x01), 0x01)\n        /* \"#utility.yul\":9386:9425   */\n      and\n        /* \"#utility.yul\":9366:9384   */\n      dup3\n      dup3\n      add\n        /* \"#utility.yul\":9359:9426   */\n      mstore\n        /* \"#utility.yul\":9461:9476   */\n      dup3\n      add\n        /* \"#utility.yul\":9455:9477   */\n      mload\n        /* \"#utility.yul\":9413:9416   */\n      0xa0\n        /* \"#utility.yul\":9508:9510   */\n      0x40\n        /* \"#utility.yul\":9493:9511   */\n      dup4\n      add\n        /* \"#utility.yul\":9486:9518   */\n      mstore\n      0x00\n      swap1\n        /* \"#utility.yul\":9541:9604   */\n      tag_563\n        /* \"#utility.yul\":9599:9602   */\n      0xc0\n        /* \"#utility.yul\":9584:9603   */\n      dup5\n      add\n        /* \"#utility.yul\":9455:9477   */\n      dup3\n        /* \"#utility.yul\":9541:9604   */\n      tag_472\n      jump\t// in\n    tag_563:\n        /* \"#utility.yul\":9527:9604   */\n      swap1\n      pop\n        /* \"#utility.yul\":9658:9660   */\n      0x40\n        /* \"#utility.yul\":9650:9656   */\n      dup5\n        /* \"#utility.yul\":9646:9661   */\n      add\n        /* \"#utility.yul\":9640:9662   */\n      mload\n        /* \"#utility.yul\":9635:9637   */\n      0x60\n        /* \"#utility.yul\":9624:9633   */\n      dup5\n        /* \"#utility.yul\":9620:9638   */\n      add\n        /* \"#utility.yul\":9613:9663   */\n      mstore\n        /* \"#utility.yul\":9732:9734   */\n      0x60\n        /* \"#utility.yul\":9724:9730   */\n      dup5\n        /* \"#utility.yul\":9720:9735   */\n      add\n        /* \"#utility.yul\":9714:9736   */\n      mload\n        /* \"#utility.yul\":9707:9737   */\n      iszero\n        /* \"#utility.yul\":9700:9738   */\n      iszero\n        /* \"#utility.yul\":9694:9697   */\n      0x80\n        /* \"#utility.yul\":9683:9692   */\n      dup5\n        /* \"#utility.yul\":9679:9698   */\n      add\n        /* \"#utility.yul\":9672:9739   */\n      mstore\n        /* \"#utility.yul\":9795:9798   */\n      0x80\n        /* \"#utility.yul\":9787:9793   */\n      dup5\n        /* \"#utility.yul\":9783:9799   */\n      add\n        /* \"#utility.yul\":9777:9800   */\n      mload\n        /* \"#utility.yul\":9770:9774   */\n      0xa0\n        /* \"#utility.yul\":9759:9768   */\n      dup5\n        /* \"#utility.yul\":9755:9775   */\n      add\n        /* \"#utility.yul\":9748:9801   */\n      mstore\n        /* \"#utility.yul\":9818:9824   */\n      dup1\n        /* \"#utility.yul\":9810:9824   */\n      swap2\n      pop\n      pop\n        /* \"#utility.yul\":9162:9830   */\n      swap3\n      swap2\n      pop\n      pop\n      jump\t// out\n        /* \"#utility.yul\":9835:10038   */\n    tag_113:\n      sub(shl(0xa0, 0x01), 0x01)\n        /* \"#utility.yul\":9999:10031   */\n      swap2\n      swap1\n      swap2\n      and\n        /* \"#utility.yul\":9981:10032   */\n      dup2\n      mstore\n        /* \"#utility.yul\":9969:9971   */\n      0x20\n        /* \"#utility.yul\":9954:9972   */\n      add\n      swap1\n        /* \"#utility.yul\":9835:10038   */\n      jump\t// out\n        /* \"#utility.yul\":10043:11227   */\n    tag_123:\n        /* \"#utility.yul\":10145:10151   */\n      0x00\n        /* \"#utility.yul\":10153:10159   */\n      dup1\n        /* \"#utility.yul\":10161:10167   */\n      0x00\n        /* \"#utility.yul\":10214:10216   */\n      0x60\n        /* \"#utility.yul\":10202:10211   */\n      dup5\n        /* \"#utility.yul\":10193:10200   */\n      dup7\n        /* \"#utility.yul\":10189:10212   */\n      sub\n        /* \"#utility.yul\":10185:10217   */\n      slt\n        /* \"#utility.yul\":10182:10234   */\n      iszero\n      tag_566\n      jumpi\n        /* \"#utility.yul\":10230:10231   */\n      0x00\n        /* \"#utility.yul\":10227:10228   */\n      dup1\n        /* \"#utility.yul\":10220:10232   */\n      revert\n        /* \"#utility.yul\":10182:10234   */\n    tag_566:\n        /* \"#utility.yul\":10253:10282   */\n      tag_567\n        /* \"#utility.yul\":10272:10281   */\n      dup5\n        /* \"#utility.yul\":10253:10282   */\n      tag_468\n      jump\t// in\n    tag_567:\n        /* \"#utility.yul\":10243:10282   */\n      swap3\n      pop\n        /* \"#utility.yul\":10333:10335   */\n      0x20\n        /* \"#utility.yul\":10318:10336   */\n      dup5\n      add\n        /* \"#utility.yul\":10305:10337   */\n      calldataload\n      sub(shl(0x40, 0x01), 0x01)\n        /* \"#utility.yul\":10349:10379   */\n      dup2\n      gt\n        /* \"#utility.yul\":10346:10396   */\n      iszero\n      tag_568\n      jumpi\n        /* \"#utility.yul\":10392:10393   */\n      0x00\n        /* \"#utility.yul\":10389:10390   */\n      dup1\n        /* \"#utility.yul\":10382:10394   */\n      revert\n        /* \"#utility.yul\":10346:10396   */\n    tag_568:\n        /* \"#utility.yul\":10415:10437   */\n      dup5\n      add\n        /* \"#utility.yul\":10468:10472   */\n      0x1f\n        /* \"#utility.yul\":10460:10473   */\n      dup2\n      add\n        /* \"#utility.yul\":10456:10483   */\n      dup7\n      sgt\n        /* \"#utility.yul\":10446:10501   */\n      tag_569\n      jumpi\n        /* \"#utility.yul\":10497:10498   */\n      0x00\n        /* \"#utility.yul\":10494:10495   */\n      dup1\n        /* \"#utility.yul\":10487:10499   */\n      revert\n        /* \"#utility.yul\":10446:10501   */\n    tag_569:\n        /* \"#utility.yul\":10524:10540   */\n      dup1\n      calldataload\n      sub(shl(0x40, 0x01), 0x01)\n        /* \"#utility.yul\":10552:10582   */\n      dup2\n      gt\n        /* \"#utility.yul\":10549:10605   */\n      iszero\n      tag_571\n      jumpi\n        /* \"#utility.yul\":10585:10603   */\n      tag_571\n      tag_268\n      jump\t// in\n    tag_571:\n        /* \"#utility.yul\":10631:10637   */\n      dup1\n        /* \"#utility.yul\":10628:10629   */\n      0x05\n        /* \"#utility.yul\":10624:10638   */\n      shl\n        /* \"#utility.yul\":10658:10686   */\n      tag_572\n        /* \"#utility.yul\":10682:10684   */\n      0x20\n        /* \"#utility.yul\":10678:10680   */\n      dup3\n        /* \"#utility.yul\":10674:10685   */\n      add\n        /* \"#utility.yul\":10658:10686   */\n      tag_469\n      jump\t// in\n    tag_572:\n        /* \"#utility.yul\":10720:10739   */\n      swap2\n      dup3\n      mstore\n        /* \"#utility.yul\":10764:10766   */\n      0x20\n        /* \"#utility.yul\":10794:10805   */\n      dup2\n      dup5\n      add\n        /* \"#utility.yul\":10790:10810   */\n      dup2\n      add\n      swap3\n        /* \"#utility.yul\":10755:10767   */\n      swap1\n      dup2\n      add\n      swap1\n        /* \"#utility.yul\":10822:10841   */\n      dup10\n      dup5\n      gt\n        /* \"#utility.yul\":10819:10858   */\n      iszero\n      tag_573\n      jumpi\n        /* \"#utility.yul\":10854:10855   */\n      0x00\n        /* \"#utility.yul\":10851:10852   */\n      dup1\n        /* \"#utility.yul\":10844:10856   */\n      revert\n        /* \"#utility.yul\":10819:10858   */\n    tag_573:\n        /* \"#utility.yul\":10886:10888   */\n      0x20\n        /* \"#utility.yul\":10882:10884   */\n      dup6\n        /* \"#utility.yul\":10878:10889   */\n      add\n        /* \"#utility.yul\":10867:10889   */\n      swap5\n      pop\n        /* \"#utility.yul\":10898:11094   */\n    tag_574:\n        /* \"#utility.yul\":10914:10920   */\n      dup4\n        /* \"#utility.yul\":10909:10912   */\n      dup6\n        /* \"#utility.yul\":10906:10921   */\n      lt\n        /* \"#utility.yul\":10898:11094   */\n      iszero\n      tag_576\n      jumpi\n        /* \"#utility.yul\":11004:11021   */\n      dup5\n      calldataload\n        /* \"#utility.yul\":11034:11052   */\n      dup1\n      dup4\n      mstore\n        /* \"#utility.yul\":11081:11083   */\n      0x20\n        /* \"#utility.yul\":10931:10943   */\n      swap6\n      dup7\n      add\n      swap6\n        /* \"#utility.yul\":11004:11021   */\n      swap1\n      swap4\n      pop\n        /* \"#utility.yul\":11072:11084   */\n      swap1\n      swap2\n      add\n      swap1\n        /* \"#utility.yul\":10898:11094   */\n      jump(tag_574)\n    tag_576:\n        /* \"#utility.yul\":10043:11227   */\n      swap7\n      swap10\n        /* \"#utility.yul\":11113:11118   */\n      swap7\n      swap9\n      pop\n      pop\n      pop\n      pop\n        /* \"#utility.yul\":11191:11193   */\n      0x40\n        /* \"#utility.yul\":11176:11194   */\n      swap5\n      swap1\n      swap5\n      add\n        /* \"#utility.yul\":11163:11195   */\n      calldataload\n      swap4\n      pop\n      pop\n      pop\n        /* \"#utility.yul\":10043:11227   */\n      jump\t// out\n        /* \"#utility.yul\":11232:11623   */\n    tag_127:\n        /* \"#utility.yul\":11315:11321   */\n      0x00\n        /* \"#utility.yul\":11323:11329   */\n      dup1\n        /* \"#utility.yul\":11376:11378   */\n      0x40\n        /* \"#utility.yul\":11364:11373   */\n      dup4\n        /* \"#utility.yul\":11355:11362   */\n      dup6\n        /* \"#utility.yul\":11351:11374   */\n      sub\n        /* \"#utility.yul\":11347:11379   */\n      slt\n        /* \"#utility.yul\":11344:11396   */\n      iszero\n      tag_578\n      jumpi\n        /* \"#utility.yul\":11392:11393   */\n      0x00\n        /* \"#utility.yul\":11389:11390   */\n      dup1\n        /* \"#utility.yul\":11382:11394   */\n      revert\n        /* \"#utility.yul\":11344:11396   */\n    tag_578:\n        /* \"#utility.yul\":11437:11460   */\n      dup3\n      calldataload\n      swap2\n      pop\n        /* \"#utility.yul\":11536:11538   */\n      0x20\n        /* \"#utility.yul\":11521:11539   */\n      dup4\n      add\n        /* \"#utility.yul\":11508:11540   */\n      calldataload\n        /* \"#utility.yul\":11571:11572   */\n      0x05\n        /* \"#utility.yul\":11559:11573   */\n      dup2\n      lt\n        /* \"#utility.yul\":11549:11591   */\n      tag_579\n      jumpi\n        /* \"#utility.yul\":11587:11588   */\n      0x00\n        /* \"#utility.yul\":11584:11585   */\n      dup1\n        /* \"#utility.yul\":11577:11589   */\n      revert\n        /* \"#utility.yul\":11549:11591   */\n    tag_579:\n        /* \"#utility.yul\":11610:11617   */\n      dup1\n        /* \"#utility.yul\":11600:11617   */\n      swap2\n      pop\n      pop\n        /* \"#utility.yul\":11232:11623   */\n      swap3\n      pop\n      swap3\n      swap1\n      pop\n      jump\t// out\n        /* \"#utility.yul\":11628:12002   */\n    tag_141:\n        /* \"#utility.yul\":11705:11711   */\n      0x00\n        /* \"#utility.yul\":11713:11719   */\n      dup1\n        /* \"#utility.yul\":11721:11727   */\n      0x00\n        /* \"#utility.yul\":11774:11776   */\n      0x60\n        /* \"#utility.yul\":11762:11771   */\n      dup5\n        /* \"#utility.yul\":11753:11760   */\n      dup7\n        /* \"#utility.yul\":11749:11772   */\n      sub\n        /* \"#utility.yul\":11745:11777   */\n      slt\n        /* \"#utility.yul\":11742:11794   */\n      iszero\n      tag_581\n      jumpi\n        /* \"#utility.yul\":11790:11791   */\n      0x00\n        /* \"#utility.yul\":11787:11788   */\n      dup1\n        /* \"#utility.yul\":11780:11792   */\n      revert\n        /* \"#utility.yul\":11742:11794   */\n    tag_581:\n        /* \"#utility.yul\":11813:11842   */\n      tag_582\n        /* \"#utility.yul\":11832:11841   */\n      dup5\n        /* \"#utility.yul\":11813:11842   */\n      tag_468\n      jump\t// in\n    tag_582:\n        /* \"#utility.yul\":11803:11842   */\n      swap3\n      pop\n        /* \"#utility.yul\":11861:11899   */\n      tag_583\n        /* \"#utility.yul\":11895:11897   */\n      0x20\n        /* \"#utility.yul\":11884:11893   */\n      dup6\n        /* \"#utility.yul\":11880:11898   */\n      add\n        /* \"#utility.yul\":11861:11899   */\n      tag_468\n      jump\t// in\n    tag_583:\n        /* \"#utility.yul\":11628:12002   */\n      swap3\n      swap6\n        /* \"#utility.yul\":11851:11899   */\n      swap3\n      swap5\n      pop\n      pop\n      pop\n        /* \"#utility.yul\":11968:11970   */\n      0x40\n        /* \"#utility.yul\":11953:11971   */\n      swap2\n      swap1\n      swap2\n      add\n        /* \"#utility.yul\":11940:11972   */\n      calldataload\n      swap1\n        /* \"#utility.yul\":11628:12002   */\n      jump\t// out\n        /* \"#utility.yul\":12007:12352   */\n    tag_154:\n        /* \"#utility.yul\":12209:12211   */\n      0x20\n        /* \"#utility.yul\":12191:12212   */\n      dup1\n      dup3\n      mstore\n        /* \"#utility.yul\":12248:12250   */\n      0x15\n        /* \"#utility.yul\":12228:12246   */\n      swap1\n      dup3\n      add\n        /* \"#utility.yul\":12221:12251   */\n      mstore\n      shl(0x5a, 0x149958dbdc9908191bd95cc81b9bdd08195e1a5cdd)\n        /* \"#utility.yul\":12282:12284   */\n      0x40\n        /* \"#utility.yul\":12267:12285   */\n      dup3\n      add\n        /* \"#utility.yul\":12260:12311   */\n      mstore\n        /* \"#utility.yul\":12343:12345   */\n      0x60\n        /* \"#utility.yul\":12328:12346   */\n      add\n      swap1\n        /* \"#utility.yul\":12007:12352   */\n      jump\t// out\n        /* \"#utility.yul\":12357:12701   */\n    tag_157:\n        /* \"#utility.yul\":12559:12561   */\n      0x20\n        /* \"#utility.yul\":12541:12562   */\n      dup1\n      dup3\n      mstore\n        /* \"#utility.yul\":12598:12600   */\n      0x14\n        /* \"#utility.yul\":12578:12596   */\n      swap1\n      dup3\n      add\n        /* \"#utility.yul\":12571:12601   */\n      mstore\n      shl(0x60, 0x5265636f7264206973206e6f7420616374697665)\n        /* \"#utility.yul\":12632:12634   */\n      0x40\n        /* \"#utility.yul\":12617:12635   */\n      dup3\n      add\n        /* \"#utility.yul\":12610:12660   */\n      mstore\n        /* \"#utility.yul\":12692:12694   */\n      0x60\n        /* \"#utility.yul\":12677:12695   */\n      add\n      swap1\n        /* \"#utility.yul\":12357:12701   */\n      jump\t// out\n        /* \"#utility.yul\":12706:13106   */\n    tag_161:\n        /* \"#utility.yul\":12908:12910   */\n      0x20\n        /* \"#utility.yul\":12890:12911   */\n      dup1\n      dup3\n      mstore\n        /* \"#utility.yul\":12947:12949   */\n      0x24\n        /* \"#utility.yul\":12927:12945   */\n      swap1\n      dup3\n      add\n        /* \"#utility.yul\":12920:12950   */\n      mstore\n        /* \"#utility.yul\":12986:13020   */\n      0x4f6e6c792070617469656e742063616e20706572666f726d2074686973206163\n        /* \"#utility.yul\":12981:12983   */\n      0x40\n        /* \"#utility.yul\":12966:12984   */\n      dup3\n      add\n        /* \"#utility.yul\":12959:13021   */\n      mstore\n      shl(0xe1, 0x3a34b7b7)\n        /* \"#utility.yul\":13052:13054   */\n      0x60\n        /* \"#utility.yul\":13037:13055   */\n      dup3\n      add\n        /* \"#utility.yul\":13030:13064   */\n      mstore\n        /* \"#utility.yul\":13096:13099   */\n      0x80\n        /* \"#utility.yul\":13081:13100   */\n      add\n      swap1\n        /* \"#utility.yul\":12706:13106   */\n      jump\t// out\n        /* \"#utility.yul\":13111:13511   */\n    tag_187:\n        /* \"#utility.yul\":13313:13315   */\n      0x20\n        /* \"#utility.yul\":13295:13316   */\n      dup1\n      dup3\n      mstore\n        /* \"#utility.yul\":13352:13354   */\n      0x24\n        /* \"#utility.yul\":13332:13350   */\n      swap1\n      dup3\n      add\n        /* \"#utility.yul\":13325:13355   */\n      mstore\n        /* \"#utility.yul\":13391:13425   */\n      0x4e6f7420617574686f72697a656420746f206163636573732074686973207265\n        /* \"#utility.yul\":13386:13388   */\n      0x40\n        /* \"#utility.yul\":13371:13389   */\n      dup3\n      add\n        /* \"#utility.yul\":13364:13426   */\n      mstore\n      shl(0xe2, 0x18dbdc99)\n        /* \"#utility.yul\":13457:13459   */\n      0x60\n        /* \"#utility.yul\":13442:13460   */\n      dup3\n      add\n        /* \"#utility.yul\":13435:13469   */\n      mstore\n        /* \"#utility.yul\":13501:13504   */\n      0x80\n        /* \"#utility.yul\":13486:13505   */\n      add\n      swap1\n        /* \"#utility.yul\":13111:13511   */\n      jump\t// out\n        /* \"#utility.yul\":13516:13896   */\n    tag_190:\n        /* \"#utility.yul\":13595:13596   */\n      0x01\n        /* \"#utility.yul\":13591:13603   */\n      dup2\n      dup2\n      shr\n      swap1\n        /* \"#utility.yul\":13638:13650   */\n      dup3\n      and\n      dup1\n        /* \"#utility.yul\":13659:13720   */\n      tag_589\n      jumpi\n        /* \"#utility.yul\":13713:13717   */\n      0x7f\n        /* \"#utility.yul\":13705:13711   */\n      dup3\n        /* \"#utility.yul\":13701:13718   */\n      and\n        /* \"#utility.yul\":13691:13718   */\n      swap2\n      pop\n        /* \"#utility.yul\":13659:13720   */\n    tag_589:\n        /* \"#utility.yul\":13766:13768   */\n      0x20\n        /* \"#utility.yul\":13758:13764   */\n      dup3\n        /* \"#utility.yul\":13755:13769   */\n      lt\n        /* \"#utility.yul\":13735:13753   */\n      dup2\n        /* \"#utility.yul\":13732:13770   */\n      sub\n        /* \"#utility.yul\":13729:13890   */\n      tag_590\n      jumpi\n        /* \"#utility.yul\":13812:13822   */\n      0x4e487b71\n        /* \"#utility.yul\":13807:13810   */\n      0xe0\n        /* \"#utility.yul\":13803:13823   */\n      shl\n        /* \"#utility.yul\":13800:13801   */\n      0x00\n        /* \"#utility.yul\":13793:13824   */\n      mstore\n        /* \"#utility.yul\":13847:13851   */\n      0x22\n        /* \"#utility.yul\":13844:13845   */\n      0x04\n        /* \"#utility.yul\":13837:13852   */\n      mstore\n        /* \"#utility.yul\":13875:13879   */\n      0x24\n        /* \"#utility.yul\":13872:13873   */\n      0x00\n        /* \"#utility.yul\":13865:13880   */\n      revert\n        /* \"#utility.yul\":13729:13890   */\n    tag_590:\n      pop\n        /* \"#utility.yul\":13516:13896   */\n      swap2\n      swap1\n      pop\n      jump\t// out\n        /* \"#utility.yul\":14608:14957   */\n    tag_226:\n        /* \"#utility.yul\":14810:14812   */\n      0x20\n        /* \"#utility.yul\":14792:14813   */\n      dup1\n      dup3\n      mstore\n        /* \"#utility.yul\":14849:14851   */\n      0x19\n        /* \"#utility.yul\":14829:14847   */\n      swap1\n      dup3\n      add\n        /* \"#utility.yul\":14822:14852   */\n      mstore\n      shl(0x38, 0x4950465320686173682063616e6e6f7420626520656d707479)\n        /* \"#utility.yul\":14883:14885   */\n      0x40\n        /* \"#utility.yul\":14868:14886   */\n      dup3\n      add\n        /* \"#utility.yul\":14861:14916   */\n      mstore\n        /* \"#utility.yul\":14948:14950   */\n      0x60\n        /* \"#utility.yul\":14933:14951   */\n      add\n      swap1\n        /* \"#utility.yul\":14608:14957   */\n      jump\t// out\n        /* \"#utility.yul\":14962:15089   */\n    tag_473:\n        /* \"#utility.yul\":15023:15033   */\n      0x4e487b71\n        /* \"#utility.yul\":15018:15021   */\n      0xe0\n        /* \"#utility.yul\":15014:15034   */\n      shl\n        /* \"#utility.yul\":15011:15012   */\n      0x00\n        /* \"#utility.yul\":15004:15035   */\n      mstore\n        /* \"#utility.yul\":15054:15058   */\n      0x11\n        /* \"#utility.yul\":15051:15052   */\n      0x04\n        /* \"#utility.yul\":15044:15059   */\n      mstore\n        /* \"#utility.yul\":15078:15082   */\n      0x24\n        /* \"#utility.yul\":15075:15076   */\n      0x00\n        /* \"#utility.yul\":15068:15083   */\n      revert\n        /* \"#utility.yul\":15094:15229   */\n    tag_228:\n        /* \"#utility.yul\":15133:15136   */\n      0x00\n        /* \"#utility.yul\":15154:15171   */\n      0x01\n      dup3\n      add\n        /* \"#utility.yul\":15151:15194   */\n      tag_597\n      jumpi\n        /* \"#utility.yul\":15174:15192   */\n      tag_597\n      tag_473\n      jump\t// in\n    tag_597:\n      pop\n        /* \"#utility.yul\":15221:15222   */\n      0x01\n        /* \"#utility.yul\":15210:15223   */\n      add\n      swap1\n        /* \"#utility.yul\":15094:15229   */\n      jump\t// out\n        /* \"#utility.yul\":15360:15878   */\n    tag_475:\n        /* \"#utility.yul\":15462:15464   */\n      0x1f\n        /* \"#utility.yul\":15457:15460   */\n      dup3\n        /* \"#utility.yul\":15454:15465   */\n      gt\n        /* \"#utility.yul\":15451:15872   */\n      iszero\n      tag_309\n      jumpi\n        /* \"#utility.yul\":15498:15503   */\n      dup1\n        /* \"#utility.yul\":15495:15496   */\n      0x00\n        /* \"#utility.yul\":15488:15504   */\n      mstore\n        /* \"#utility.yul\":15542:15546   */\n      0x20\n        /* \"#utility.yul\":15539:15540   */\n      0x00\n        /* \"#utility.yul\":15529:15547   */\n      keccak256\n        /* \"#utility.yul\":15612:15614   */\n      0x1f\n        /* \"#utility.yul\":15600:15610   */\n      dup5\n        /* \"#utility.yul\":15596:15615   */\n      add\n        /* \"#utility.yul\":15593:15594   */\n      0x05\n        /* \"#utility.yul\":15589:15616   */\n      shr\n        /* \"#utility.yul\":15583:15587   */\n      dup2\n        /* \"#utility.yul\":15579:15617   */\n      add\n        /* \"#utility.yul\":15648:15652   */\n      0x20\n        /* \"#utility.yul\":15636:15646   */\n      dup6\n        /* \"#utility.yul\":15633:15653   */\n      lt\n        /* \"#utility.yul\":15630:15677   */\n      iszero\n      tag_601\n      jumpi\n      pop\n        /* \"#utility.yul\":15671:15675   */\n      dup1\n        /* \"#utility.yul\":15630:15677   */\n    tag_601:\n        /* \"#utility.yul\":15726:15728   */\n      0x1f\n        /* \"#utility.yul\":15721:15724   */\n      dup5\n        /* \"#utility.yul\":15717:15729   */\n      add\n        /* \"#utility.yul\":15714:15715   */\n      0x05\n        /* \"#utility.yul\":15710:15730   */\n      shr\n        /* \"#utility.yul\":15704:15708   */\n      dup3\n        /* \"#utility.yul\":15700:15731   */\n      add\n        /* \"#utility.yul\":15690:15731   */\n      swap2\n      pop\n        /* \"#utility.yul\":15781:15862   */\n    tag_602:\n        /* \"#utility.yul\":15799:15801   */\n      dup2\n        /* \"#utility.yul\":15792:15797   */\n      dup2\n        /* \"#utility.yul\":15789:15802   */\n      lt\n        /* \"#utility.yul\":15781:15862   */\n      iszero\n      tag_604\n      jumpi\n        /* \"#utility.yul\":15858:15859   */\n      0x00\n        /* \"#utility.yul\":15844:15860   */\n      dup2\n      sstore\n        /* \"#utility.yul\":15825:15826   */\n      0x01\n        /* \"#utility.yul\":15814:15827   */\n      add\n        /* \"#utility.yul\":15781:15862   */\n      jump(tag_602)\n    tag_604:\n        /* \"#utility.yul\":15785:15788   */\n      pop\n      pop\n        /* \"#utility.yul\":15360:15878   */\n      pop\n      pop\n      pop\n      jump\t// out\n        /* \"#utility.yul\":16054:17353   */\n    tag_232:\n        /* \"#utility.yul\":16174:16184   */\n      dup2\n      mload\n      sub(shl(0x40, 0x01), 0x01)\n        /* \"#utility.yul\":16196:16226   */\n      dup2\n      gt\n        /* \"#utility.yul\":16193:16249   */\n      iszero\n      tag_608\n      jumpi\n        /* \"#utility.yul\":16229:16247   */\n      tag_608\n      tag_268\n      jump\t// in\n    tag_608:\n        /* \"#utility.yul\":16258:16355   */\n      tag_609\n        /* \"#utility.yul\":16348:16354   */\n      dup2\n        /* \"#utility.yul\":16308:16346   */\n      tag_610\n        /* \"#utility.yul\":16340:16344   */\n      dup5\n        /* \"#utility.yul\":16334:16345   */\n      sload\n        /* \"#utility.yul\":16308:16346   */\n      tag_190\n      jump\t// in\n    tag_610:\n        /* \"#utility.yul\":16302:16306   */\n      dup5\n        /* \"#utility.yul\":16258:16355   */\n      tag_475\n      jump\t// in\n    tag_609:\n        /* \"#utility.yul\":16404:16408   */\n      0x20\n        /* \"#utility.yul\":16435:16437   */\n      0x1f\n        /* \"#utility.yul\":16424:16438   */\n      dup3\n      gt\n        /* \"#utility.yul\":16452:16453   */\n      0x01\n        /* \"#utility.yul\":16447:17096   */\n      dup2\n      eq\n      tag_612\n      jumpi\n        /* \"#utility.yul\":17140:17141   */\n      0x00\n        /* \"#utility.yul\":17157:17163   */\n      dup4\n        /* \"#utility.yul\":17154:17243   */\n      iszero\n      tag_613\n      jumpi\n      pop\n        /* \"#utility.yul\":17209:17228   */\n      dup5\n      dup3\n      add\n        /* \"#utility.yul\":17203:17229   */\n      mload\n        /* \"#utility.yul\":17154:17243   */\n    tag_613:\n      not(0x00)\n        /* \"#utility.yul\":16011:16012   */\n      0x03\n        /* \"#utility.yul\":16007:16018   */\n      dup6\n      swap1\n      shl\n        /* \"#utility.yul\":16003:16027   */\n      shr\n        /* \"#utility.yul\":15999:16028   */\n      not\n        /* \"#utility.yul\":15989:16029   */\n      and\n        /* \"#utility.yul\":16035:16036   */\n      0x01\n        /* \"#utility.yul\":16031:16042   */\n      dup5\n      swap1\n      shl\n        /* \"#utility.yul\":15986:16043   */\n      or\n        /* \"#utility.yul\":17256:17337   */\n      dup5\n      sstore\n        /* \"#utility.yul\":16417:17347   */\n      jump(tag_604)\n        /* \"#utility.yul\":16447:17096   */\n    tag_612:\n        /* \"#utility.yul\":15307:15308   */\n      0x00\n        /* \"#utility.yul\":15300:15314   */\n      dup5\n      dup2\n      mstore\n        /* \"#utility.yul\":15344:15348   */\n      0x20\n        /* \"#utility.yul\":15331:15349   */\n      dup2\n      keccak256\n      not(0x1f)\n        /* \"#utility.yul\":16483:16503   */\n      dup6\n      and\n      swap2\n        /* \"#utility.yul\":16601:16823   */\n    tag_616:\n        /* \"#utility.yul\":16615:16622   */\n      dup3\n        /* \"#utility.yul\":16612:16613   */\n      dup2\n        /* \"#utility.yul\":16609:16623   */\n      lt\n        /* \"#utility.yul\":16601:16823   */\n      iszero\n      tag_618\n      jumpi\n        /* \"#utility.yul\":16697:16716   */\n      dup8\n      dup6\n      add\n        /* \"#utility.yul\":16691:16717   */\n      mload\n        /* \"#utility.yul\":16676:16718   */\n      dup3\n      sstore\n        /* \"#utility.yul\":16804:16808   */\n      0x20\n        /* \"#utility.yul\":16789:16809   */\n      swap5\n      dup6\n      add\n      swap5\n        /* \"#utility.yul\":16757:16758   */\n      0x01\n        /* \"#utility.yul\":16745:16759   */\n      swap1\n      swap3\n      add\n      swap2\n        /* \"#utility.yul\":16631:16643   */\n      add\n        /* \"#utility.yul\":16601:16823   */\n      jump(tag_616)\n    tag_618:\n        /* \"#utility.yul\":16605:16608   */\n      pop\n        /* \"#utility.yul\":16851:16857   */\n      dup5\n        /* \"#utility.yul\":16842:16849   */\n      dup3\n        /* \"#utility.yul\":16839:16858   */\n      lt\n        /* \"#utility.yul\":16836:17037   */\n      iszero\n      tag_619\n      jumpi\n        /* \"#utility.yul\":16912:16931   */\n      dup7\n      dup5\n      add\n        /* \"#utility.yul\":16906:16932   */\n      mload\n      not(0x00)\n        /* \"#utility.yul\":16995:16996   */\n      0x03\n        /* \"#utility.yul\":16991:17005   */\n      dup8\n      swap1\n      shl\n        /* \"#utility.yul\":17007:17010   */\n      0xf8\n        /* \"#utility.yul\":16987:17011   */\n      and\n        /* \"#utility.yul\":16983:17020   */\n      shr\n        /* \"#utility.yul\":16979:17021   */\n      not\n        /* \"#utility.yul\":16964:17022   */\n      and\n        /* \"#utility.yul\":16949:17023   */\n      dup2\n      sstore\n        /* \"#utility.yul\":16836:17037   */\n    tag_619:\n      pop\n      pop\n      pop\n      pop\n        /* \"#utility.yul\":17083:17084   */\n      0x01\n        /* \"#utility.yul\":17067:17081   */\n      swap1\n      dup2\n      shl\n        /* \"#utility.yul\":17063:17085   */\n      add\n        /* \"#utility.yul\":17050:17086   */\n      swap1\n      sstore\n      pop\n        /* \"#utility.yul\":16054:17353   */\n      jump\t// out\n        /* \"#utility.yul\":17358:17681   */\n    tag_238:\n        /* \"#utility.yul\":17547:17549   */\n      0x40\n        /* \"#utility.yul\":17536:17545   */\n      dup2\n        /* \"#utility.yul\":17529:17550   */\n      mstore\n        /* \"#utility.yul\":17510:17514   */\n      0x00\n        /* \"#utility.yul\":17567:17612   */\n      tag_621\n        /* \"#utility.yul\":17608:17610   */\n      0x40\n        /* \"#utility.yul\":17597:17606   */\n      dup4\n        /* \"#utility.yul\":17593:17611   */\n      add\n        /* \"#utility.yul\":17585:17591   */\n      dup6\n        /* \"#utility.yul\":17567:17612   */\n      tag_466\n      jump\t// in\n    tag_621:\n        /* \"#utility.yul\":17559:17612   */\n      swap1\n      pop\n        /* \"#utility.yul\":17621:17675   */\n      tag_284\n        /* \"#utility.yul\":17671:17673   */\n      0x20\n        /* \"#utility.yul\":17660:17669   */\n      dup4\n        /* \"#utility.yul\":17656:17674   */\n      add\n        /* \"#utility.yul\":17648:17654   */\n      dup5\n        /* \"#utility.yul\":17621:17675   */\n      tag_467\n      jump\t// in\n        /* \"#utility.yul\":18039:18377   */\n    tag_255:\n        /* \"#utility.yul\":18241:18243   */\n      0x20\n        /* \"#utility.yul\":18223:18244   */\n      dup1\n      dup3\n      mstore\n        /* \"#utility.yul\":18280:18282   */\n      0x0e\n        /* \"#utility.yul\":18260:18278   */\n      swap1\n      dup3\n      add\n        /* \"#utility.yul\":18253:18283   */\n      mstore\n      shl(0x92, 0x139bdd08185d5d1a1bdc9a5e9959)\n        /* \"#utility.yul\":18314:18316   */\n      0x40\n        /* \"#utility.yul\":18299:18317   */\n      dup3\n      add\n        /* \"#utility.yul\":18292:18336   */\n      mstore\n        /* \"#utility.yul\":18368:18370   */\n      0x60\n        /* \"#utility.yul\":18353:18371   */\n      add\n      swap1\n        /* \"#utility.yul\":18039:18377   */\n      jump\t// out\n        /* \"#utility.yul\":18382:18509   */\n    tag_262:\n        /* \"#utility.yul\":18443:18453   */\n      0x4e487b71\n        /* \"#utility.yul\":18438:18441   */\n      0xe0\n        /* \"#utility.yul\":18434:18454   */\n      shl\n        /* \"#utility.yul\":18431:18432   */\n      0x00\n        /* \"#utility.yul\":18424:18455   */\n      mstore\n        /* \"#utility.yul\":18474:18478   */\n      0x32\n        /* \"#utility.yul\":18471:18472   */\n      0x04\n        /* \"#utility.yul\":18464:18479   */\n      mstore\n        /* \"#utility.yul\":18498:18502   */\n      0x24\n        /* \"#utility.yul\":18495:18496   */\n      0x00\n        /* \"#utility.yul\":18488:18503   */\n      revert\n        /* \"#utility.yul\":18514:18805   */\n    tag_325:\n        /* \"#utility.yul\":18691:18693   */\n      0x40\n        /* \"#utility.yul\":18680:18689   */\n      dup2\n        /* \"#utility.yul\":18673:18694   */\n      mstore\n        /* \"#utility.yul\":18654:18658   */\n      0x00\n        /* \"#utility.yul\":18711:18756   */\n      tag_627\n        /* \"#utility.yul\":18752:18754   */\n      0x40\n        /* \"#utility.yul\":18741:18750   */\n      dup4\n        /* \"#utility.yul\":18737:18755   */\n      add\n        /* \"#utility.yul\":18729:18735   */\n      dup6\n        /* \"#utility.yul\":18711:18756   */\n      tag_466\n      jump\t// in\n    tag_627:\n        /* \"#utility.yul\":18703:18756   */\n      swap1\n      pop\n        /* \"#utility.yul\":18792:18798   */\n      dup3\n        /* \"#utility.yul\":18787:18789   */\n      0x20\n        /* \"#utility.yul\":18776:18785   */\n      dup4\n        /* \"#utility.yul\":18772:18790   */\n      add\n        /* \"#utility.yul\":18765:18799   */\n      mstore\n        /* \"#utility.yul\":18514:18805   */\n      swap4\n      swap3\n      pop\n      pop\n      pop\n      jump\t// out\n        /* \"#utility.yul\":19161:19500   */\n    tag_348:\n        /* \"#utility.yul\":19363:19365   */\n      0x20\n        /* \"#utility.yul\":19345:19366   */\n      dup1\n      dup3\n      mstore\n        /* \"#utility.yul\":19402:19404   */\n      0x0f\n        /* \"#utility.yul\":19382:19400   */\n      swap1\n      dup3\n      add\n        /* \"#utility.yul\":19375:19405   */\n      mstore\n      shl(0x88, 0x496e76616c69642061646472657373)\n        /* \"#utility.yul\":19436:19438   */\n      0x40\n        /* \"#utility.yul\":19421:19439   */\n      dup3\n      add\n        /* \"#utility.yul\":19414:19459   */\n      mstore\n        /* \"#utility.yul\":19491:19493   */\n      0x60\n        /* \"#utility.yul\":19476:19494   */\n      add\n      swap1\n        /* \"#utility.yul\":19161:19500   */\n      jump\t// out\n        /* \"#utility.yul\":20663:20831   */\n    tag_369:\n        /* \"#utility.yul\":20736:20745   */\n      dup1\n      dup3\n      mul\n        /* \"#utility.yul\":20767:20776   */\n      dup2\n      iszero\n        /* \"#utility.yul\":20784:20799   */\n      dup3\n      dup3\n      div\n        /* \"#utility.yul\":20778:20800   */\n      dup5\n      eq\n        /* \"#utility.yul\":20764:20801   */\n      or\n        /* \"#utility.yul\":20754:20825   */\n      tag_173\n      jumpi\n        /* \"#utility.yul\":20805:20823   */\n      tag_173\n      tag_473\n      jump\t// in\n        /* \"#utility.yul\":20836:20961   */\n    tag_371:\n        /* \"#utility.yul\":20901:20910   */\n      dup1\n      dup3\n      add\n        /* \"#utility.yul\":20922:20932   */\n      dup1\n      dup3\n      gt\n        /* \"#utility.yul\":20919:20955   */\n      iszero\n      tag_173\n      jumpi\n        /* \"#utility.yul\":20935:20953   */\n      tag_173\n      tag_473\n      jump\t// in\n    stop\n    data_0a2cf329bf8e9c212d511fb79525c41762f016dade08da9362bb03dde5d5747d 32b3188b62628aabf659cebbab10a599b539bcb0c01a891ab2e37b8be315712e\n    data_c5db673750b8988991e755326ed2c44ddaddfe45172e77d196edfccfe0ac5518 18d9ff454de989bd126b06bd404b47ede75f9e65543e94e8d212f89d7dcbb87c\n\n    auxdata: 0xa264697066735822122085821004d0bd325cb663e540d5aed9418241cba9fb665bd72093c195acbc0e8a64736f6c634300081f0033\n}\n",
				"bytecode": {
					"linkReferences": {},
					"object": "608060405234801561001057600080fd5b50338061003757604051631e4fbdf760e01b81526000600482015260240160405180910390fd5b61004081610052565b5061004c6000336100a2565b50610137565b600080546001600160a01b038381166001600160a01b0319831681178455604051919092169283917f8be0079c531659141344cd1fd0a4f28419497f9722a3daafe3b4186f6b6457e09190a35050565b60008281526001602090815260408083206001600160a01b038516845290915281205460ff1661012d5760008381526001602081815260408084206001600160a01b0387168086529252808420805460ff19169093179092559051339286917f2f8788117e7eff1d82e926ec794901d17c78024a50270940304540a733656f0d9190a4506001610131565b5060005b92915050565b61283c806101466000396000f3fe608060405234801561001057600080fd5b506004361061015f5760003560e01c806301b1d3241461016457806301ffc9a71461018d57806303e9e609146101b0578063061f9811146101d05780630aeacb5e146101e55780630e8dce29146101f7578063112ea2621461020a57806318bd48471461021d5780631b6377b81461023d57806322770d8e14610250578063248a9ca31461026357806324c20a34146102765780632f2ff15d1461028b57806336568abe1461029e5780633812c6a8146102b1578063715018a6146102c457806385e68531146102cc5780638b681c7c146102df5780638da5cb5b146102ff57806391284a891461031457806391d14854146103275780639399e9731461033a578063a02bd29c1461034d578063a217fddf14610360578063b4b07a7014610368578063b995221514610391578063cf56b4eb146103a4578063d547741f146103b7578063f2fde38b146103ca575b600080fd5b610177610172366004611de9565b6103dd565b6040516101849190611e25565b60405180910390f35b6101a061019b366004611e8e565b610541565b6040519015158152602001610184565b6101c36101be366004611de9565b610578565b6040516101849190611f12565b6101e36101de366004611de9565b610802565b005b6007545b604051908152602001610184565b6101e96102053660046120a2565b6108c4565b6101e361021836600461212a565b610b58565b61023061022b36600461212a565b610bd0565b6040516101849190612181565b6101e961024b366004612194565b610da3565b6101a061025e36600461212a565b610f7c565b6101e9610271366004611de9565b610f96565b6101e96000805160206127e783398151915281565b6101e361029936600461220b565b610fac565b6101e36102ac36600461220b565b610fce565b6101e36102bf366004612237565b611006565b6101e3611131565b6101e36102da36600461212a565b611145565b6102f26102ed366004612291565b61120d565b60405161018491906122bb565b61030761133c565b6040516101849190612315565b6101e361032236600461212a565b61134b565b6101a061033536600461220b565b6113a0565b6101e3610348366004612329565b6113cb565b6101e361035b3660046123f3565b611664565b6101e9600081565b61030761037636600461212a565b6006602052600090815260409020546001600160a01b031681565b6101e361039f36600461212a565b611882565b6101a06103b2366004612427565b6118a5565b6101e36103c536600461220b565b611a22565b6101e36103d836600461212a565b611a3e565b6060816000811180156103f257506007548111155b6104175760405162461bcd60e51b815260040161040e90612464565b60405180910390fd5b600081815260036020526040902060050154600160a01b900460ff1661044f5760405162461bcd60e51b815260040161040e90612493565b60008381526003602052604090206001015483906001600160a01b0316331461048a5760405162461bcd60e51b815260040161040e906124c1565b600084815260056020908152604080832080548251818502810185019093528083529193909284015b82821015610534576000848152602090819020604080516060810182526003860290920180546001600160a01b0316835260018101549383019390935260028301549192919083019060ff16600481111561051057610510611e0f565b600481111561052157610521611e0f565b81525050815260200190600101906104b3565b5050505092505050919050565b60006001600160e01b03198216637965db0b60e01b148061057257506301ffc9a760e01b6001600160e01b03198316145b92915050565b610580611d24565b8160008111801561059357506007548111155b6105af5760405162461bcd60e51b815260040161040e90612464565b600081815260036020526040902060050154600160a01b900460ff166105e75760405162461bcd60e51b815260040161040e90612493565b600083815260036020526040902060010154839061060f906001600160a01b031633836118a5565b61062b5760405162461bcd60e51b815260040161040e90612505565b6000848152600360209081526040918290208251610120810184528154815260018201546001600160a01b031692810192909252600281018054929391929184019161067690612549565b80601f01602080910402602001604051908101604052809291908181526020018280546106a290612549565b80156106ef5780601f106106c4576101008083540402835291602001916106ef565b820191906000526020600020905b8154815290600101906020018083116106d257829003601f168201915b5050509183525050600382015460209091019060ff16600581111561071657610716611e0f565b600581111561072757610727611e0f565b81526004820154602082015260058201546001600160a01b0381166040830152600160a01b900460ff161515606082015260068201805460809092019161076d90612549565b80601f016020809104026020016040519081016040528092919081815260200182805461079990612549565b80156107e65780601f106107bb576101008083540402835291602001916107e6565b820191906000526020600020905b8154815290600101906020018083116107c957829003601f168201915b5050505050815260200160078201548152505092505050919050565b8060008111801561081557506007548111155b6108315760405162461bcd60e51b815260040161040e90612464565b600081815260036020526040902060050154600160a01b900460ff166108695760405162461bcd60e51b815260040161040e90612493565b60008281526003602052604090206001015482906001600160a01b031633146108a45760405162461bcd60e51b815260040161040e906124c1565b50506000908152600360205260409020600501805460ff60a01b19169055565b60006108de6000805160206127e7833981519152336113a0565b6109275760405162461bcd60e51b815260206004820152601a6024820152792737ba1030b71030baba3437b934bd32b210383937bb34b232b960311b604482015260640161040e565b6001600160a01b0385166109775760405162461bcd60e51b8152602060048201526017602482015276496e76616c69642070617469656e74206164647265737360481b604482015260640161040e565b60008451116109985760405162461bcd60e51b815260040161040e90612583565b600780549060006109a8836125cc565b91905055506040518061012001604052806007548152602001866001600160a01b031681526020018581526020018460058111156109e8576109e8611e0f565b815242602080830191909152336040808401919091526001606084018190526080840187905260a0909301839052600754600090815260038352819020845181559184015192820180546001600160a01b0319166001600160a01b0390941693909317909255908201516002820190610a619082612633565b50606082015160038201805460ff19166001836005811115610a8557610a85611e0f565b02179055506080820151600482015560a082015160058201805460c08501511515600160a01b026001600160a81b03199091166001600160a01b039093169290921791909117905560e08201516006820190610ae19082612633565b5061010091909101516007918201556001600160a01b0386166000818152600260209081526040808320855481546001810183559185529290932090920155915491519091906000805160206127c783398151915290610b4490889088906126f1565b60405180910390a350600754949350505050565b6000610b6381611a7c565b6001600160a01b038216610bb45760405162461bcd60e51b8152602060048201526018602482015277496e76616c69642070726f7669646572206164647265737360401b604482015260640161040e565b610bcc6000805160206127e783398151915283610fac565b5050565b60606001600160a01b0382163303610c4c576001600160a01b03821660009081526002602090815260409182902080548351818402810184019094528084529091830182828015610c4057602002820191906000526020600020905b815481526020019060010190808311610c2c575b50505050509050919050565b610c568233611a86565b610c725760405162461bcd60e51b815260040161040e90612713565b6001600160a01b038216600090815260026020526040812090805b8254811015610cd857610cbd8533858481548110610cad57610cad61273b565b90600052602060002001546118a5565b15610cd05781610ccc816125cc565b9250505b600101610c8d565b506000816001600160401b03811115610cf357610cf3611fde565b604051908082528060200260200182016040528015610d1c578160200160208202803683370190505b5090506000805b8454811015610d9857610d438733878481548110610cad57610cad61273b565b15610d9057848181548110610d5a57610d5a61273b565b9060005260206000200154838381518110610d7757610d7761273b565b602090810291909101015281610d8c816125cc565b9250505b600101610d23565b509095945050505050565b600080845111610dc55760405162461bcd60e51b815260040161040e90612583565b60078054906000610dd5836125cc565b91905055506040518061012001604052806007548152602001336001600160a01b03168152602001858152602001846005811115610e1557610e15611e0f565b815242602080830191909152336040808401919091526001606084018190526080840187905260a0909301839052600754600090815260038352819020845181559184015192820180546001600160a01b0319166001600160a01b0390941693909317909255908201516002820190610e8e9082612633565b50606082015160038201805460ff19166001836005811115610eb257610eb2611e0f565b02179055506080820151600482015560a082015160058201805460c08501511515600160a01b026001600160a81b03199091166001600160a01b039093169290921791909117905560e08201516006820190610f0e9082612633565b506101009190910151600791820155336000818152600260209081526040808320855481546001810183559185529290932090920155915491519091906000805160206127c783398151915290610f6890889088906126f1565b60405180910390a3506007545b9392505050565b60006105726000805160206127e7833981519152836113a0565b6000908152600160208190526040909120015490565b610fb582610f96565b610fbe81611a7c565b610fc88383611b83565b50505050565b6001600160a01b0381163314610ff75760405163334bd91960e11b815260040160405180910390fd5b6110018282611bfc565b505050565b8260008111801561101957506007548111155b6110355760405162461bcd60e51b815260040161040e90612464565b600081815260036020526040902060050154600160a01b900460ff1661106d5760405162461bcd60e51b815260040161040e90612493565b60008481526003602052604090206001015484906001600160a01b031633146110a85760405162461bcd60e51b815260040161040e906124c1565b6000858152600360205260409020600281016110c48682612633565b50600681016110d38582612633565b506007810180549060006110e6836125cc565b9190505550857f088d9e16504277bf999412471e756eedf1ab2491c6a6399c9d349d3fea6d70cf868360070154604051611121929190612751565b60405180910390a2505050505050565b611139611c69565b6111436000611c9b565b565b3360009081526004602090815260408083206001600160a01b038516845290915290206003015460ff166111b45760405162461bcd60e51b8152602060048201526016602482015275139bc81858dd1a5d99481858d8d95cdcc819dc985b9d60521b604482015260640161040e565b3360008181526004602090815260408083206001600160a01b0386168085529252808320600301805460ff19169055519092917f825c8be24eb0df19500f63e86c29e7d0d951e73056b889b891d85e40938d9b6e91a350565b61124a6040518060a0016040528060006001600160a01b031681526020016060815260200160008152602001600015158152602001600081525090565b336001600160a01b03841614806112695750336001600160a01b038316145b6112855760405162461bcd60e51b815260040161040e90612713565b6001600160a01b0380841660009081526004602090815260408083208685168452825291829020825160a0810184528154909416845260018101805484518185028101850190955280855291938584019390929083018282801561130857602002820191906000526020600020905b8154815260200190600101908083116112f4575b505050918352505060028201546020820152600382015460ff16151560408201526004909101546060909101529392505050565b6000546001600160a01b031690565b6001600160a01b0381166113715760405162461bcd60e51b815260040161040e90612773565b33600090815260066020526040902080546001600160a01b0319166001600160a01b0392909216919091179055565b60009182526001602090815260408084206001600160a01b0393909316845291905290205460ff1690565b6001600160a01b0383166113f15760405162461bcd60e51b815260040161040e90612773565b60008251116114535760405162461bcd60e51b815260206004820152602860248201527f4d757374206772616e742061636365737320746f206174206c65617374206f6e60448201526719481c9958dbdc9960c21b606482015260840161040e565b6000811180156114655750610e428111155b6114a45760405162461bcd60e51b815260206004820152601060248201526f24b73b30b634b210323ab930ba34b7b760811b604482015260640161040e565b60005b825181101561155857336001600160a01b0316600360008584815181106114d0576114d061273b565b6020908102919091018101518252810191909152604001600020600101546001600160a01b0316146115505760405162461bcd60e51b815260206004820152602360248201527f596f7520646f6e2774206f776e20616c6c20737065636966696564207265636f60448201526272647360e81b606482015260840161040e565b6001016114a7565b506000611568826201518061279c565b61157290426127b3565b6040805160a0810182526001600160a01b0387811680835260208084018981528486018790526001606086018190524260808701523360009081526004845287812094815293835295909220845181546001600160a01b031916941693909317835590518051959650929491936115ef9390850192910190611d89565b506040828101516002830155606083015160038301805460ff1916911515919091179055608090920151600490910155518181526001600160a01b0385169033907f65d0cc1e52d49938ca4ad9f423c79c1b84d914b9a683fbc5d3f93ac3cc5635f5906020015b60405180910390a350505050565b8160008111801561167757506007548111155b6116935760405162461bcd60e51b815260040161040e90612464565b600081815260036020526040902060050154600160a01b900460ff166116cb5760405162461bcd60e51b815260040161040e90612493565b60008381526003602052604090206001015483906116f3906001600160a01b031633836118a5565b61170f5760405162461bcd60e51b815260040161040e90612505565b6000848152600360209081526040808320600101546001600160a01b039081168452600690925290912054339116036117955760008481526003602090815260409182902060010154915142815233926001600160a01b0316917ff09b5b37601d747e980aad190f31b7fa72740906d3da5eb0af65d1f89fde166b910160405180910390a35b600560008581526020019081526020016000206040518060600160405280336001600160a01b031681526020014281526020018560048111156117da576117da611e0f565b90528154600180820184556000938452602093849020835160039093020180546001600160a01b0319166001600160a01b0390931692909217825592820151818401556040820151600282018054939492939192909160ff19169083600481111561184757611847611e0f565b02179055505060405142815233915085907fdec39eb35dc9ca96737e4515f8a70f5db122e248213ee947b996e1f678ab05b890602001611656565b600061188d81611a7c565b610bcc6000805160206127e783398151915283611a22565b6000826001600160a01b0316846001600160a01b0316036118c857506001610f75565b6001600160a01b038481166000908152600660205260409020548185169116036118f457506001610f75565b6001600160a01b03808516600090815260046020908152604080832087851684528252808320815160a08101835281549095168552600181018054835181860281018601909452808452949594919385810193929083018282801561197857602002820191906000526020600020905b815481526020019060010190808311611964575b505050918352505060028201546020820152600382015460ff16151560408201526004909101546060918201528101519091506119b9576000915050610f75565b80604001514211156119cf576000915050610f75565b60005b816020015151811015611a165783826020015182815181106119f6576119f661273b565b602002602001015103611a0e57600192505050610f75565b6001016119d2565b50600095945050505050565b611a2b82610f96565b611a3481611a7c565b610fc88383611bfc565b611a46611c69565b6001600160a01b038116611a70576000604051631e4fbdf760e01b815260040161040e9190612315565b611a7981611c9b565b50565b611a798133611ceb565b6001600160a01b038281166000908152600660205260408120549091808416911603611ab457506001610572565b6001600160a01b03808416600090815260046020908152604080832086851684528252808320815160a081018352815490951685526001810180548351818602810186019094528084529495949193858101939290830182828015611b3857602002820191906000526020600020905b815481526020019060010190808311611b24575b505050918352505060028201546020820152600382015460ff16151560408201526004909101546060918201528101519091508015611b7b575080604001514211155b949350505050565b6000611b8f83836113a0565b611bf45760008381526001602081815260408084206001600160a01b0387168086529252808420805460ff19169093179092559051339286917f2f8788117e7eff1d82e926ec794901d17c78024a50270940304540a733656f0d9190a4506001610572565b506000610572565b6000611c0883836113a0565b15611bf45760008381526001602090815260408083206001600160a01b0386168085529252808320805460ff1916905551339286917ff6391f5c32d9c69d2a47ea670b442974b53935d1edc7fd64eb21e047a839171b9190a4506001610572565b33611c7261133c565b6001600160a01b031614611143573360405163118cdaa760e01b815260040161040e9190612315565b600080546001600160a01b038381166001600160a01b0319831681178455604051919092169283917f8be0079c531659141344cd1fd0a4f28419497f9722a3daafe3b4186f6b6457e09190a35050565b611cf582826113a0565b610bcc5760405163e2517d3f60e01b81526001600160a01b03821660048201526024810183905260440161040e565b6040518061012001604052806000815260200160006001600160a01b031681526020016060815260200160006005811115611d6157611d61611e0f565b8152600060208201819052604082018190526060808301829052608083015260a09091015290565b828054828255906000526020600020908101928215611dc4579160200282015b82811115611dc4578251825591602001919060010190611da9565b50611dd0929150611dd4565b5090565b5b80821115611dd05760008155600101611dd5565b600060208284031215611dfb57600080fd5b5035919050565b6001600160a01b03169052565b634e487b7160e01b600052602160045260246000fd5b602080825282518282018190526000918401906040840190835b81811015610d9857835180516001600160a01b03168452602080820151908501526040015160058110611e7457611e74611e0f565b604084015260209390930192606090920191600101611e3f565b600060208284031215611ea057600080fd5b81356001600160e01b031981168114610f7557600080fd5b6000815180845260005b81811015611ede57602081850181015186830182015201611ec2565b506000602082860101526020601f19601f83011685010191505092915050565b60068110611f0e57611f0e611e0f565b9052565b602081528151602082015260006020830151611f316040840182611e02565b5060408301516101206060840152611f4d610140840182611eb8565b90506060840151611f616080850182611efe565b50608084015160a084015260a0840151611f7e60c0850182611e02565b5060c084015180151560e08501525060e0840151838203601f1901610100850152611fa98282611eb8565b9150506101008401516101208401528091505092915050565b80356001600160a01b0381168114611fd957600080fd5b919050565b634e487b7160e01b600052604160045260246000fd5b604051601f8201601f191681016001600160401b038111828210171561201c5761201c611fde565b604052919050565b600082601f83011261203557600080fd5b81356001600160401b0381111561204e5761204e611fde565b612061601f8201601f1916602001611ff4565b81815284602083860101111561207657600080fd5b816020850160208301376000918101602001919091529392505050565b803560068110611fd957600080fd5b600080600080608085870312156120b857600080fd5b6120c185611fc2565b935060208501356001600160401b038111156120dc57600080fd5b6120e887828801612024565b9350506120f760408601612093565b915060608501356001600160401b0381111561211257600080fd5b61211e87828801612024565b91505092959194509250565b60006020828403121561213c57600080fd5b610f7582611fc2565b600081518084526020840193506020830160005b82811015612177578151865260209586019590910190600101612159565b5093949350505050565b602081526000610f756020830184612145565b6000806000606084860312156121a957600080fd5b83356001600160401b038111156121bf57600080fd5b6121cb86828701612024565b9350506121da60208501612093565b915060408401356001600160401b038111156121f557600080fd5b61220186828701612024565b9150509250925092565b6000806040838503121561221e57600080fd5b8235915061222e60208401611fc2565b90509250929050565b60008060006060848603121561224c57600080fd5b8335925060208401356001600160401b0381111561226957600080fd5b61227586828701612024565b92505060408401356001600160401b038111156121f557600080fd5b600080604083850312156122a457600080fd5b6122ad83611fc2565b915061222e60208401611fc2565b602080825282516001600160a01b03168282015282015160a060408301526000906122e960c0840182612145565b905060408401516060840152606084015115156080840152608084015160a08401528091505092915050565b6001600160a01b0391909116815260200190565b60008060006060848603121561233e57600080fd5b61234784611fc2565b925060208401356001600160401b0381111561236257600080fd5b8401601f8101861361237357600080fd5b80356001600160401b0381111561238c5761238c611fde565b8060051b61239c60208201611ff4565b918252602081840181019290810190898411156123b857600080fd5b6020850194505b838510156123de578435808352602095860195909350909101906123bf565b96999698505050506040949094013593505050565b6000806040838503121561240657600080fd5b8235915060208301356005811061241c57600080fd5b809150509250929050565b60008060006060848603121561243c57600080fd5b61244584611fc2565b925061245360208501611fc2565b929592945050506040919091013590565b602080825260159082015274149958dbdc9908191bd95cc81b9bdd08195e1a5cdd605a1b604082015260600190565b6020808252601490820152735265636f7264206973206e6f742061637469766560601b604082015260600190565b60208082526024908201527f4f6e6c792070617469656e742063616e20706572666f726d20746869732061636040820152633a34b7b760e11b606082015260800190565b60208082526024908201527f4e6f7420617574686f72697a656420746f20616363657373207468697320726560408201526318dbdc9960e21b606082015260800190565b600181811c9082168061255d57607f821691505b60208210810361257d57634e487b7160e01b600052602260045260246000fd5b50919050565b6020808252601990820152784950465320686173682063616e6e6f7420626520656d70747960381b604082015260600190565b634e487b7160e01b600052601160045260246000fd5b6000600182016125de576125de6125b6565b5060010190565b601f82111561100157806000526020600020601f840160051c8101602085101561260c5750805b601f840160051c820191505b8181101561262c5760008155600101612618565b5050505050565b81516001600160401b0381111561264c5761264c611fde565b6126608161265a8454612549565b846125e5565b6020601f821160018114612694576000831561267c5750848201515b600019600385901b1c1916600184901b17845561262c565b600084815260208120601f198516915b828110156126c457878501518255602094850194600190920191016126a4565b50848210156126e25786840151600019600387901b60f8161c191681555b50505050600190811b01905550565b6040815260006127046040830185611eb8565b9050610f756020830184611efe565b6020808252600e908201526d139bdd08185d5d1a1bdc9a5e995960921b604082015260600190565b634e487b7160e01b600052603260045260246000fd5b6040815260006127646040830185611eb8565b90508260208301529392505050565b6020808252600f908201526e496e76616c6964206164647265737360881b604082015260600190565b8082028115828204841417610572576105726125b6565b80820180821115610572576105726125b656fe32b3188b62628aabf659cebbab10a599b539bcb0c01a891ab2e37b8be315712e18d9ff454de989bd126b06bd404b47ede75f9e65543e94e8d212f89d7dcbb87ca264697066735822122085821004d0bd325cb663e540d5aed9418241cba9fb665bd72093c195acbc0e8a64736f6c634300081f0033",
					"opcodes": "PUSH1 0x80 PUSH1 0x40 MSTORE CALLVALUE DUP1 ISZERO PUSH2 0x10 JUMPI PUSH1 0x0 DUP1 REVERT JUMPDEST POP CALLER DUP1 PUSH2 0x37 JUMPI PUSH1 0x40 MLOAD PUSH4 0x1E4FBDF7 PUSH1 0xE0 SHL DUP2 MSTORE PUSH1 0x0 PUSH1 0x4 DUP3 ADD MSTORE PUSH1 0x24 ADD PUSH1 0x40 MLOAD DUP1 SWAP2 SUB SWAP1 REVERT JUMPDEST PUSH2 0x40 DUP2 PUSH2 0x52 JUMP JUMPDEST POP PUSH2 0x4C PUSH1 0x0 CALLER PUSH2 0xA2 JUMP JUMPDEST POP PUSH2 0x137 JUMP JUMPDEST PUSH1 0x0 DUP1 SLOAD PUSH1 0x1 PUSH1 0x1 PUSH1 0xA0 SHL SUB DUP4 DUP2 AND PUSH1 0x1 PUSH1 0x1 PUSH1 0xA0 SHL SUB NOT DUP4 AND DUP2 OR DUP5 SSTORE PUSH1 0x40 MLOAD SWAP2 SWAP1 SWAP3 AND SWAP3 DUP4 SWAP2 PUSH32 0x8BE0079C531659141344CD1FD0A4F28419497F9722A3DAAFE3B4186F6B6457E0 SWAP2 SWAP1 LOG3 POP POP JUMP JUMPDEST PUSH1 0x0 DUP3 DUP2 MSTORE PUSH1 0x1 PUSH1 0x20 SWAP1 DUP2 MSTORE PUSH1 0x40 DUP1 DUP4 KECCAK256 PUSH1 0x1 PUSH1 0x1 PUSH1 0xA0 SHL SUB DUP6 AND DUP5 MSTORE SWAP1 SWAP2 MSTORE DUP2 KECCAK256 SLOAD PUSH1 0xFF AND PUSH2 0x12D JUMPI PUSH1 0x0 DUP4 DUP2 MSTORE PUSH1 0x1 PUSH1 0x20 DUP2 DUP2 MSTORE PUSH1 0x40 DUP1 DUP5 KECCAK256 PUSH1 0x1 PUSH1 0x1 PUSH1 0xA0 SHL SUB DUP8 AND DUP1 DUP7 MSTORE SWAP3 MSTORE DUP1 DUP5 KECCAK256 DUP1 SLOAD PUSH1 0xFF NOT AND SWAP1 SWAP4 OR SWAP1 SWAP3 SSTORE SWAP1 MLOAD CALLER SWAP3 DUP7 SWAP2 PUSH32 0x2F8788117E7EFF1D82E926EC794901D17C78024A50270940304540A733656F0D SWAP2 SWAP1 LOG4 POP PUSH1 0x1 PUSH2 0x131 JUMP JUMPDEST POP PUSH1 0x0 JUMPDEST SWAP3 SWAP2 POP POP JUMP JUMPDEST PUSH2 0x283C DUP1 PUSH2 0x146 PUSH1 0x0 CODECOPY PUSH1 0x0 RETURN INVALID PUSH1 0x80 PUSH1 0x40 MSTORE CALLVALUE DUP1 ISZERO PUSH2 0x10 JUMPI PUSH1 0x0 DUP1 REVERT JUMPDEST POP PUSH1 0x4 CALLDATASIZE LT PUSH2 0x15F JUMPI PUSH1 0x0 CALLDATALOAD PUSH1 0xE0 SHR DUP1 PUSH4 0x1B1D324 EQ PUSH2 0x164 JUMPI DUP1 PUSH4 0x1FFC9A7 EQ PUSH2 0x18D JUMPI DUP1 PUSH4 0x3E9E609 EQ PUSH2 0x1B0 JUMPI DUP1 PUSH4 0x61F9811 EQ PUSH2 0x1D0 JUMPI DUP1 PUSH4 0xAEACB5E EQ PUSH2 0x1E5 JUMPI DUP1 PUSH4 0xE8DCE29 EQ PUSH2 0x1F7 JUMPI DUP1 PUSH4 0x112EA262 EQ PUSH2 0x20A JUMPI DUP1 PUSH4 0x18BD4847 EQ PUSH2 0x21D JUMPI DUP1 PUSH4 0x1B6377B8 EQ PUSH2 0x23D JUMPI DUP1 PUSH4 0x22770D8E EQ PUSH2 0x250 JUMPI DUP1 PUSH4 0x248A9CA3 EQ PUSH2 0x263 JUMPI DUP1 PUSH4 0x24C20A34 EQ PUSH2 0x276 JUMPI DUP1 PUSH4 0x2F2FF15D EQ PUSH2 0x28B JUMPI DUP1 PUSH4 0x36568ABE EQ PUSH2 0x29E JUMPI DUP1 PUSH4 0x3812C6A8 EQ PUSH2 0x2B1 JUMPI DUP1 PUSH4 0x715018A6 EQ PUSH2 0x2C4 JUMPI DUP1 PUSH4 0x85E68531 EQ PUSH2 0x2CC JUMPI DUP1 PUSH4 0x8B681C7C EQ PUSH2 0x2DF JUMPI DUP1 PUSH4 0x8DA5CB5B EQ PUSH2 0x2FF JUMPI DUP1 PUSH4 0x91284A89 EQ PUSH2 0x314 JUMPI DUP1 PUSH4 0x91D14854 EQ PUSH2 0x327 JUMPI DUP1 PUSH4 0x9399E973 EQ PUSH2 0x33A JUMPI DUP1 PUSH4 0xA02BD29C EQ PUSH2 0x34D JUMPI DUP1 PUSH4 0xA217FDDF EQ PUSH2 0x360 JUMPI DUP1 PUSH4 0xB4B07A70 EQ PUSH2 0x368 JUMPI DUP1 PUSH4 0xB9952215 EQ PUSH2 0x391 JUMPI DUP1 PUSH4 0xCF56B4EB EQ PUSH2 0x3A4 JUMPI DUP1 PUSH4 0xD547741F EQ PUSH2 0x3B7 JUMPI DUP1 PUSH4 0xF2FDE38B EQ PUSH2 0x3CA JUMPI JUMPDEST PUSH1 0x0 DUP1 REVERT JUMPDEST PUSH2 0x177 PUSH2 0x172 CALLDATASIZE PUSH1 0x4 PUSH2 0x1DE9 JUMP JUMPDEST PUSH2 0x3DD JUMP JUMPDEST PUSH1 0x40 MLOAD PUSH2 0x184 SWAP2 SWAP1 PUSH2 0x1E25 JUMP JUMPDEST PUSH1 0x40 MLOAD DUP1 SWAP2 SUB SWAP1 RETURN JUMPDEST PUSH2 0x1A0 PUSH2 0x19B CALLDATASIZE PUSH1 0x4 PUSH2 0x1E8E JUMP JUMPDEST PUSH2 0x541 JUMP JUMPDEST PUSH1 0x40 MLOAD SWAP1 ISZERO ISZERO DUP2 MSTORE PUSH1 0x20 ADD PUSH2 0x184 JUMP JUMPDEST PUSH2 0x1C3 PUSH2 0x1BE CALLDATASIZE PUSH1 0x4 PUSH2 0x1DE9 JUMP JUMPDEST PUSH2 0x578 JUMP JUMPDEST PUSH1 0x40 MLOAD PUSH2 0x184 SWAP2 SWAP1 PUSH2 0x1F12 JUMP JUMPDEST PUSH2 0x1E3 PUSH2 0x1DE CALLDATASIZE PUSH1 0x4 PUSH2 0x1DE9 JUMP JUMPDEST PUSH2 0x802 JUMP JUMPDEST STOP JUMPDEST PUSH1 0x7 SLOAD JUMPDEST PUSH1 0x40 MLOAD SWAP1 DUP2 MSTORE PUSH1 0x20 ADD PUSH2 0x184 JUMP JUMPDEST PUSH2 0x1E9 PUSH2 0x205 CALLDATASIZE PUSH1 0x4 PUSH2 0x20A2 JUMP JUMPDEST PUSH2 0x8C4 JUMP JUMPDEST PUSH2 0x1E3 PUSH2 0x218 CALLDATASIZE PUSH1 0x4 PUSH2 0x212A JUMP JUMPDEST PUSH2 0xB58 JUMP JUMPDEST PUSH2 0x230 PUSH2 0x22B CALLDATASIZE PUSH1 0x4 PUSH2 0x212A JUMP JUMPDEST PUSH2 0xBD0 JUMP JUMPDEST PUSH1 0x40 MLOAD PUSH2 0x184 SWAP2 SWAP1 PUSH2 0x2181 JUMP JUMPDEST PUSH2 0x1E9 PUSH2 0x24B CALLDATASIZE PUSH1 0x4 PUSH2 0x2194 JUMP JUMPDEST PUSH2 0xDA3 JUMP JUMPDEST PUSH2 0x1A0 PUSH2 0x25E CALLDATASIZE PUSH1 0x4 PUSH2 0x212A JUMP JUMPDEST PUSH2 0xF7C JUMP JUMPDEST PUSH2 0x1E9 PUSH2 0x271 CALLDATASIZE PUSH1 0x4 PUSH2 0x1DE9 JUMP JUMPDEST PUSH2 0xF96 JUMP JUMPDEST PUSH2 0x1E9 PUSH1 0x0 DUP1 MLOAD PUSH1 0x20 PUSH2 0x27E7 DUP4 CODECOPY DUP2 MLOAD SWAP2 MSTORE DUP2 JUMP JUMPDEST PUSH2 0x1E3 PUSH2 0x299 CALLDATASIZE PUSH1 0x4 PUSH2 0x220B JUMP JUMPDEST PUSH2 0xFAC JUMP JUMPDEST PUSH2 0x1E3 PUSH2 0x2AC CALLDATASIZE PUSH1 0x4 PUSH2 0x220B JUMP JUMPDEST PUSH2 0xFCE JUMP JUMPDEST PUSH2 0x1E3 PUSH2 0x2BF CALLDATASIZE PUSH1 0x4 PUSH2 0x2237 JUMP JUMPDEST PUSH2 0x1006 JUMP JUMPDEST PUSH2 0x1E3 PUSH2 0x1131 JUMP JUMPDEST PUSH2 0x1E3 PUSH2 0x2DA CALLDATASIZE PUSH1 0x4 PUSH2 0x212A JUMP JUMPDEST PUSH2 0x1145 JUMP JUMPDEST PUSH2 0x2F2 PUSH2 0x2ED CALLDATASIZE PUSH1 0x4 PUSH2 0x2291 JUMP JUMPDEST PUSH2 0x120D JUMP JUMPDEST PUSH1 0x40 MLOAD PUSH2 0x184 SWAP2 SWAP1 PUSH2 0x22BB JUMP JUMPDEST PUSH2 0x307 PUSH2 0x133C JUMP JUMPDEST PUSH1 0x40 MLOAD PUSH2 0x184 SWAP2 SWAP1 PUSH2 0x2315 JUMP JUMPDEST PUSH2 0x1E3 PUSH2 0x322 CALLDATASIZE PUSH1 0x4 PUSH2 0x212A JUMP JUMPDEST PUSH2 0x134B JUMP JUMPDEST PUSH2 0x1A0 PUSH2 0x335 CALLDATASIZE PUSH1 0x4 PUSH2 0x220B JUMP JUMPDEST PUSH2 0x13A0 JUMP JUMPDEST PUSH2 0x1E3 PUSH2 0x348 CALLDATASIZE PUSH1 0x4 PUSH2 0x2329 JUMP JUMPDEST PUSH2 0x13CB JUMP JUMPDEST PUSH2 0x1E3 PUSH2 0x35B CALLDATASIZE PUSH1 0x4 PUSH2 0x23F3 JUMP JUMPDEST PUSH2 0x1664 JUMP JUMPDEST PUSH2 0x1E9 PUSH1 0x0 DUP2 JUMP JUMPDEST PUSH2 0x307 PUSH2 0x376 CALLDATASIZE PUSH1 0x4 PUSH2 0x212A JUMP JUMPDEST PUSH1 0x6 PUSH1 0x20 MSTORE PUSH1 0x0 SWAP1 DUP2 MSTORE PUSH1 0x40 SWAP1 KECCAK256 SLOAD PUSH1 0x1 PUSH1 0x1 PUSH1 0xA0 SHL SUB AND DUP2 JUMP JUMPDEST PUSH2 0x1E3 PUSH2 0x39F CALLDATASIZE PUSH1 0x4 PUSH2 0x212A JUMP JUMPDEST PUSH2 0x1882 JUMP JUMPDEST PUSH2 0x1A0 PUSH2 0x3B2 CALLDATASIZE PUSH1 0x4 PUSH2 0x2427 JUMP JUMPDEST PUSH2 0x18A5 JUMP JUMPDEST PUSH2 0x1E3 PUSH2 0x3C5 CALLDATASIZE PUSH1 0x4 PUSH2 0x220B JUMP JUMPDEST PUSH2 0x1A22 JUMP JUMPDEST PUSH2 0x1E3 PUSH2 0x3D8 CALLDATASIZE PUSH1 0x4 PUSH2 0x212A JUMP JUMPDEST PUSH2 0x1A3E JUMP JUMPDEST PUSH1 0x60 DUP2 PUSH1 0x0 DUP2 GT DUP1 ISZERO PUSH2 0x3F2 JUMPI POP PUSH1 0x7 SLOAD DUP2 GT ISZERO JUMPDEST PUSH2 0x417 JUMPI PUSH1 0x40 MLOAD PUSH3 0x461BCD PUSH1 0xE5 SHL DUP2 MSTORE PUSH1 0x4 ADD PUSH2 0x40E SWAP1 PUSH2 0x2464 JUMP JUMPDEST PUSH1 0x40 MLOAD DUP1 SWAP2 SUB SWAP1 REVERT JUMPDEST PUSH1 0x0 DUP2 DUP2 MSTORE PUSH1 0x3 PUSH1 0x20 MSTORE PUSH1 0x40 SWAP1 KECCAK256 PUSH1 0x5 ADD SLOAD PUSH1 0x1 PUSH1 0xA0 SHL SWAP1 DIV PUSH1 0xFF AND PUSH2 0x44F JUMPI PUSH1 0x40 MLOAD PUSH3 0x461BCD PUSH1 0xE5 SHL DUP2 MSTORE PUSH1 0x4 ADD PUSH2 0x40E SWAP1 PUSH2 0x2493 JUMP JUMPDEST PUSH1 0x0 DUP4 DUP2 MSTORE PUSH1 0x3 PUSH1 0x20 MSTORE PUSH1 0x40 SWAP1 KECCAK256 PUSH1 0x1 ADD SLOAD DUP4 SWAP1 PUSH1 0x1 PUSH1 0x1 PUSH1 0xA0 SHL SUB AND CALLER EQ PUSH2 0x48A JUMPI PUSH1 0x40 MLOAD PUSH3 0x461BCD PUSH1 0xE5 SHL DUP2 MSTORE PUSH1 0x4 ADD PUSH2 0x40E SWAP1 PUSH2 0x24C1 JUMP JUMPDEST PUSH1 0x0 DUP5 DUP2 MSTORE PUSH1 0x5 PUSH1 0x20 SWAP1 DUP2 MSTORE PUSH1 0x40 DUP1 DUP4 KECCAK256 DUP1 SLOAD DUP3 MLOAD DUP2 DUP6 MUL DUP2 ADD DUP6 ADD SWAP1 SWAP4 MSTORE DUP1 DUP4 MSTORE SWAP2 SWAP4 SWAP1 SWAP3 DUP5 ADD JUMPDEST DUP3 DUP3 LT ISZERO PUSH2 0x534 JUMPI PUSH1 0x0 DUP5 DUP2 MSTORE PUSH1 0x20 SWAP1 DUP2 SWAP1 KECCAK256 PUSH1 0x40 DUP1 MLOAD PUSH1 0x60 DUP2 ADD DUP3 MSTORE PUSH1 0x3 DUP7 MUL SWAP1 SWAP3 ADD DUP1 SLOAD PUSH1 0x1 PUSH1 0x1 PUSH1 0xA0 SHL SUB AND DUP4 MSTORE PUSH1 0x1 DUP2 ADD SLOAD SWAP4 DUP4 ADD SWAP4 SWAP1 SWAP4 MSTORE PUSH1 0x2 DUP4 ADD SLOAD SWAP2 SWAP3 SWAP2 SWAP1 DUP4 ADD SWAP1 PUSH1 0xFF AND PUSH1 0x4 DUP2 GT ISZERO PUSH2 0x510 JUMPI PUSH2 0x510 PUSH2 0x1E0F JUMP JUMPDEST PUSH1 0x4 DUP2 GT ISZERO PUSH2 0x521 JUMPI PUSH2 0x521 PUSH2 0x1E0F JUMP JUMPDEST DUP2 MSTORE POP POP DUP2 MSTORE PUSH1 0x20 ADD SWAP1 PUSH1 0x1 ADD SWAP1 PUSH2 0x4B3 JUMP JUMPDEST POP POP POP POP SWAP3 POP POP POP SWAP2 SWAP1 POP JUMP JUMPDEST PUSH1 0x0 PUSH1 0x1 PUSH1 0x1 PUSH1 0xE0 SHL SUB NOT DUP3 AND PUSH4 0x7965DB0B PUSH1 0xE0 SHL EQ DUP1 PUSH2 0x572 JUMPI POP PUSH4 0x1FFC9A7 PUSH1 0xE0 SHL PUSH1 0x1 PUSH1 0x1 PUSH1 0xE0 SHL SUB NOT DUP4 AND EQ JUMPDEST SWAP3 SWAP2 POP POP JUMP JUMPDEST PUSH2 0x580 PUSH2 0x1D24 JUMP JUMPDEST DUP2 PUSH1 0x0 DUP2 GT DUP1 ISZERO PUSH2 0x593 JUMPI POP PUSH1 0x7 SLOAD DUP2 GT ISZERO JUMPDEST PUSH2 0x5AF JUMPI PUSH1 0x40 MLOAD PUSH3 0x461BCD PUSH1 0xE5 SHL DUP2 MSTORE PUSH1 0x4 ADD PUSH2 0x40E SWAP1 PUSH2 0x2464 JUMP JUMPDEST PUSH1 0x0 DUP2 DUP2 MSTORE PUSH1 0x3 PUSH1 0x20 MSTORE PUSH1 0x40 SWAP1 KECCAK256 PUSH1 0x5 ADD SLOAD PUSH1 0x1 PUSH1 0xA0 SHL SWAP1 DIV PUSH1 0xFF AND PUSH2 0x5E7 JUMPI PUSH1 0x40 MLOAD PUSH3 0x461BCD PUSH1 0xE5 SHL DUP2 MSTORE PUSH1 0x4 ADD PUSH2 0x40E SWAP1 PUSH2 0x2493 JUMP JUMPDEST PUSH1 0x0 DUP4 DUP2 MSTORE PUSH1 0x3 PUSH1 0x20 MSTORE PUSH1 0x40 SWAP1 KECCAK256 PUSH1 0x1 ADD SLOAD DUP4 SWAP1 PUSH2 0x60F SWAP1 PUSH1 0x1 PUSH1 0x1 PUSH1 0xA0 SHL SUB AND CALLER DUP4 PUSH2 0x18A5 JUMP JUMPDEST PUSH2 0x62B JUMPI PUSH1 0x40 MLOAD PUSH3 0x461BCD PUSH1 0xE5 SHL DUP2 MSTORE PUSH1 0x4 ADD PUSH2 0x40E SWAP1 PUSH2 0x2505 JUMP JUMPDEST PUSH1 0x0 DUP5 DUP2 MSTORE PUSH1 0x3 PUSH1 0x20 SWAP1 DUP2 MSTORE PUSH1 0x40 SWAP2 DUP3 SWAP1 KECCAK256 DUP3 MLOAD PUSH2 0x120 DUP2 ADD DUP5 MSTORE DUP2 SLOAD DUP2 MSTORE PUSH1 0x1 DUP3 ADD SLOAD PUSH1 0x1 PUSH1 0x1 PUSH1 0xA0 SHL SUB AND SWAP3 DUP2 ADD SWAP3 SWAP1 SWAP3 MSTORE PUSH1 0x2 DUP2 ADD DUP1 SLOAD SWAP3 SWAP4 SWAP2 SWAP3 SWAP2 DUP5 ADD SWAP2 PUSH2 0x676 SWAP1 PUSH2 0x2549 JUMP JUMPDEST DUP1 PUSH1 0x1F ADD PUSH1 0x20 DUP1 SWAP2 DIV MUL PUSH1 0x20 ADD PUSH1 0x40 MLOAD SWAP1 DUP2 ADD PUSH1 0x40 MSTORE DUP1 SWAP3 SWAP2 SWAP1 DUP2 DUP2 MSTORE PUSH1 0x20 ADD DUP3 DUP1 SLOAD PUSH2 0x6A2 SWAP1 PUSH2 0x2549 JUMP JUMPDEST DUP1 ISZERO PUSH2 0x6EF JUMPI DUP1 PUSH1 0x1F LT PUSH2 0x6C4 JUMPI PUSH2 0x100 DUP1 DUP4 SLOAD DIV MUL DUP4 MSTORE SWAP2 PUSH1 0x20 ADD SWAP2 PUSH2 0x6EF JUMP JUMPDEST DUP3 ADD SWAP2 SWAP1 PUSH1 0x0 MSTORE PUSH1 0x20 PUSH1 0x0 KECCAK256 SWAP1 JUMPDEST DUP2 SLOAD DUP2 MSTORE SWAP1 PUSH1 0x1 ADD SWAP1 PUSH1 0x20 ADD DUP1 DUP4 GT PUSH2 0x6D2 JUMPI DUP3 SWAP1 SUB PUSH1 0x1F AND DUP3 ADD SWAP2 JUMPDEST POP POP POP SWAP2 DUP4 MSTORE POP POP PUSH1 0x3 DUP3 ADD SLOAD PUSH1 0x20 SWAP1 SWAP2 ADD SWAP1 PUSH1 0xFF AND PUSH1 0x5 DUP2 GT ISZERO PUSH2 0x716 JUMPI PUSH2 0x716 PUSH2 0x1E0F JUMP JUMPDEST PUSH1 0x5 DUP2 GT ISZERO PUSH2 0x727 JUMPI PUSH2 0x727 PUSH2 0x1E0F JUMP JUMPDEST DUP2 MSTORE PUSH1 0x4 DUP3 ADD SLOAD PUSH1 0x20 DUP3 ADD MSTORE PUSH1 0x5 DUP3 ADD SLOAD PUSH1 0x1 PUSH1 0x1 PUSH1 0xA0 SHL SUB DUP2 AND PUSH1 0x40 DUP4 ADD MSTORE PUSH1 0x1 PUSH1 0xA0 SHL SWAP1 DIV PUSH1 0xFF AND ISZERO ISZERO PUSH1 0x60 DUP3 ADD MSTORE PUSH1 0x6 DUP3 ADD DUP1 SLOAD PUSH1 0x80 SWAP1 SWAP3 ADD SWAP2 PUSH2 0x76D SWAP1 PUSH2 0x2549 JUMP JUMPDEST DUP1 PUSH1 0x1F ADD PUSH1 0x20 DUP1 SWAP2 DIV MUL PUSH1 0x20 ADD PUSH1 0x40 MLOAD SWAP1 DUP2 ADD PUSH1 0x40 MSTORE DUP1 SWAP3 SWAP2 SWAP1 DUP2 DUP2 MSTORE PUSH1 0x20 ADD DUP3 DUP1 SLOAD PUSH2 0x799 SWAP1 PUSH2 0x2549 JUMP JUMPDEST DUP1 ISZERO PUSH2 0x7E6 JUMPI DUP1 PUSH1 0x1F LT PUSH2 0x7BB JUMPI PUSH2 0x100 DUP1 DUP4 SLOAD DIV MUL DUP4 MSTORE SWAP2 PUSH1 0x20 ADD SWAP2 PUSH2 0x7E6 JUMP JUMPDEST DUP3 ADD SWAP2 SWAP1 PUSH1 0x0 MSTORE PUSH1 0x20 PUSH1 0x0 KECCAK256 SWAP1 JUMPDEST DUP2 SLOAD DUP2 MSTORE SWAP1 PUSH1 0x1 ADD SWAP1 PUSH1 0x20 ADD DUP1 DUP4 GT PUSH2 0x7C9 JUMPI DUP3 SWAP1 SUB PUSH1 0x1F AND DUP3 ADD SWAP2 JUMPDEST POP POP POP POP POP DUP2 MSTORE PUSH1 0x20 ADD PUSH1 0x7 DUP3 ADD SLOAD DUP2 MSTORE POP POP SWAP3 POP POP POP SWAP2 SWAP1 POP JUMP JUMPDEST DUP1 PUSH1 0x0 DUP2 GT DUP1 ISZERO PUSH2 0x815 JUMPI POP PUSH1 0x7 SLOAD DUP2 GT ISZERO JUMPDEST PUSH2 0x831 JUMPI PUSH1 0x40 MLOAD PUSH3 0x461BCD PUSH1 0xE5 SHL DUP2 MSTORE PUSH1 0x4 ADD PUSH2 0x40E SWAP1 PUSH2 0x2464 JUMP JUMPDEST PUSH1 0x0 DUP2 DUP2 MSTORE PUSH1 0x3 PUSH1 0x20 MSTORE PUSH1 0x40 SWAP1 KECCAK256 PUSH1 0x5 ADD SLOAD PUSH1 0x1 PUSH1 0xA0 SHL SWAP1 DIV PUSH1 0xFF AND PUSH2 0x869 JUMPI PUSH1 0x40 MLOAD PUSH3 0x461BCD PUSH1 0xE5 SHL DUP2 MSTORE PUSH1 0x4 ADD PUSH2 0x40E SWAP1 PUSH2 0x2493 JUMP JUMPDEST PUSH1 0x0 DUP3 DUP2 MSTORE PUSH1 0x3 PUSH1 0x20 MSTORE PUSH1 0x40 SWAP1 KECCAK256 PUSH1 0x1 ADD SLOAD DUP3 SWAP1 PUSH1 0x1 PUSH1 0x1 PUSH1 0xA0 SHL SUB AND CALLER EQ PUSH2 0x8A4 JUMPI PUSH1 0x40 MLOAD PUSH3 0x461BCD PUSH1 0xE5 SHL DUP2 MSTORE PUSH1 0x4 ADD PUSH2 0x40E SWAP1 PUSH2 0x24C1 JUMP JUMPDEST POP POP PUSH1 0x0 SWAP1 DUP2 MSTORE PUSH1 0x3 PUSH1 0x20 MSTORE PUSH1 0x40 SWAP1 KECCAK256 PUSH1 0x5 ADD DUP1 SLOAD PUSH1 0xFF PUSH1 0xA0 SHL NOT AND SWAP1 SSTORE JUMP JUMPDEST PUSH1 0x0 PUSH2 0x8DE PUSH1 0x0 DUP1 MLOAD PUSH1 0x20 PUSH2 0x27E7 DUP4 CODECOPY DUP2 MLOAD SWAP2 MSTORE CALLER PUSH2 0x13A0 JUMP JUMPDEST PUSH2 0x927 JUMPI PUSH1 0x40 MLOAD PUSH3 0x461BCD PUSH1 0xE5 SHL DUP2 MSTORE PUSH1 0x20 PUSH1 0x4 DUP3 ADD MSTORE PUSH1 0x1A PUSH1 0x24 DUP3 ADD MSTORE PUSH26 0x2737BA1030B71030BABA3437B934BD32B210383937BB34B232B9 PUSH1 0x31 SHL PUSH1 0x44 DUP3 ADD MSTORE PUSH1 0x64 ADD PUSH2 0x40E JUMP JUMPDEST PUSH1 0x1 PUSH1 0x1 PUSH1 0xA0 SHL SUB DUP6 AND PUSH2 0x977 JUMPI PUSH1 0x40 MLOAD PUSH3 0x461BCD PUSH1 0xE5 SHL DUP2 MSTORE PUSH1 0x20 PUSH1 0x4 DUP3 ADD MSTORE PUSH1 0x17 PUSH1 0x24 DUP3 ADD MSTORE PUSH23 0x496E76616C69642070617469656E742061646472657373 PUSH1 0x48 SHL PUSH1 0x44 DUP3 ADD MSTORE PUSH1 0x64 ADD PUSH2 0x40E JUMP JUMPDEST PUSH1 0x0 DUP5 MLOAD GT PUSH2 0x998 JUMPI PUSH1 0x40 MLOAD PUSH3 0x461BCD PUSH1 0xE5 SHL DUP2 MSTORE PUSH1 0x4 ADD PUSH2 0x40E SWAP1 PUSH2 0x2583 JUMP JUMPDEST PUSH1 0x7 DUP1 SLOAD SWAP1 PUSH1 0x0 PUSH2 0x9A8 DUP4 PUSH2 0x25CC JUMP JUMPDEST SWAP2 SWAP1 POP SSTORE POP PUSH1 0x40 MLOAD DUP1 PUSH2 0x120 ADD PUSH1 0x40 MSTORE DUP1 PUSH1 0x7 SLOAD DUP2 MSTORE PUSH1 0x20 ADD DUP7 PUSH1 0x1 PUSH1 0x1 PUSH1 0xA0 SHL SUB AND DUP2 MSTORE PUSH1 0x20 ADD DUP6 DUP2 MSTORE PUSH1 0x20 ADD DUP5 PUSH1 0x5 DUP2 GT ISZERO PUSH2 0x9E8 JUMPI PUSH2 0x9E8 PUSH2 0x1E0F JUMP JUMPDEST DUP2 MSTORE TIMESTAMP PUSH1 0x20 DUP1 DUP4 ADD SWAP2 SWAP1 SWAP2 MSTORE CALLER PUSH1 0x40 DUP1 DUP5 ADD SWAP2 SWAP1 SWAP2 MSTORE PUSH1 0x1 PUSH1 0x60 DUP5 ADD DUP2 SWAP1 MSTORE PUSH1 0x80 DUP5 ADD DUP8 SWAP1 MSTORE PUSH1 0xA0 SWAP1 SWAP4 ADD DUP4 SWAP1 MSTORE PUSH1 0x7 SLOAD PUSH1 0x0 SWAP1 DUP2 MSTORE PUSH1 0x3 DUP4 MSTORE DUP2 SWAP1 KECCAK256 DUP5 MLOAD DUP2 SSTORE SWAP2 DUP5 ADD MLOAD SWAP3 DUP3 ADD DUP1 SLOAD PUSH1 0x1 PUSH1 0x1 PUSH1 0xA0 SHL SUB NOT AND PUSH1 0x1 PUSH1 0x1 PUSH1 0xA0 SHL SUB SWAP1 SWAP5 AND SWAP4 SWAP1 SWAP4 OR SWAP1 SWAP3 SSTORE SWAP1 DUP3 ADD MLOAD PUSH1 0x2 DUP3 ADD SWAP1 PUSH2 0xA61 SWAP1 DUP3 PUSH2 0x2633 JUMP JUMPDEST POP PUSH1 0x60 DUP3 ADD MLOAD PUSH1 0x3 DUP3 ADD DUP1 SLOAD PUSH1 0xFF NOT AND PUSH1 0x1 DUP4 PUSH1 0x5 DUP2 GT ISZERO PUSH2 0xA85 JUMPI PUSH2 0xA85 PUSH2 0x1E0F JUMP JUMPDEST MUL OR SWAP1 SSTORE POP PUSH1 0x80 DUP3 ADD MLOAD PUSH1 0x4 DUP3 ADD SSTORE PUSH1 0xA0 DUP3 ADD MLOAD PUSH1 0x5 DUP3 ADD DUP1 SLOAD PUSH1 0xC0 DUP6 ADD MLOAD ISZERO ISZERO PUSH1 0x1 PUSH1 0xA0 SHL MUL PUSH1 0x1 PUSH1 0x1 PUSH1 0xA8 SHL SUB NOT SWAP1 SWAP2 AND PUSH1 0x1 PUSH1 0x1 PUSH1 0xA0 SHL SUB SWAP1 SWAP4 AND SWAP3 SWAP1 SWAP3 OR SWAP2 SWAP1 SWAP2 OR SWAP1 SSTORE PUSH1 0xE0 DUP3 ADD MLOAD PUSH1 0x6 DUP3 ADD SWAP1 PUSH2 0xAE1 SWAP1 DUP3 PUSH2 0x2633 JUMP JUMPDEST POP PUSH2 0x100 SWAP2 SWAP1 SWAP2 ADD MLOAD PUSH1 0x7 SWAP2 DUP3 ADD SSTORE PUSH1 0x1 PUSH1 0x1 PUSH1 0xA0 SHL SUB DUP7 AND PUSH1 0x0 DUP2 DUP2 MSTORE PUSH1 0x2 PUSH1 0x20 SWAP1 DUP2 MSTORE PUSH1 0x40 DUP1 DUP4 KECCAK256 DUP6 SLOAD DUP2 SLOAD PUSH1 0x1 DUP2 ADD DUP4 SSTORE SWAP2 DUP6 MSTORE SWAP3 SWAP1 SWAP4 KECCAK256 SWAP1 SWAP3 ADD SSTORE SWAP2 SLOAD SWAP2 MLOAD SWAP1 SWAP2 SWAP1 PUSH1 0x0 DUP1 MLOAD PUSH1 0x20 PUSH2 0x27C7 DUP4 CODECOPY DUP2 MLOAD SWAP2 MSTORE SWAP1 PUSH2 0xB44 SWAP1 DUP9 SWAP1 DUP9 SWAP1 PUSH2 0x26F1 JUMP JUMPDEST PUSH1 0x40 MLOAD DUP1 SWAP2 SUB SWAP1 LOG3 POP PUSH1 0x7 SLOAD SWAP5 SWAP4 POP POP POP POP JUMP JUMPDEST PUSH1 0x0 PUSH2 0xB63 DUP2 PUSH2 0x1A7C JUMP JUMPDEST PUSH1 0x1 PUSH1 0x1 PUSH1 0xA0 SHL SUB DUP3 AND PUSH2 0xBB4 JUMPI PUSH1 0x40 MLOAD PUSH3 0x461BCD PUSH1 0xE5 SHL DUP2 MSTORE PUSH1 0x20 PUSH1 0x4 DUP3 ADD MSTORE PUSH1 0x18 PUSH1 0x24 DUP3 ADD MSTORE PUSH24 0x496E76616C69642070726F76696465722061646472657373 PUSH1 0x40 SHL PUSH1 0x44 DUP3 ADD MSTORE PUSH1 0x64 ADD PUSH2 0x40E JUMP JUMPDEST PUSH2 0xBCC PUSH1 0x0 DUP1 MLOAD PUSH1 0x20 PUSH2 0x27E7 DUP4 CODECOPY DUP2 MLOAD SWAP2 MSTORE DUP4 PUSH2 0xFAC JUMP JUMPDEST POP POP JUMP JUMPDEST PUSH1 0x60 PUSH1 0x1 PUSH1 0x1 PUSH1 0xA0 SHL SUB DUP3 AND CALLER SUB PUSH2 0xC4C JUMPI PUSH1 0x1 PUSH1 0x1 PUSH1 0xA0 SHL SUB DUP3 AND PUSH1 0x0 SWAP1 DUP2 MSTORE PUSH1 0x2 PUSH1 0x20 SWAP1 DUP2 MSTORE PUSH1 0x40 SWAP2 DUP3 SWAP1 KECCAK256 DUP1 SLOAD DUP4 MLOAD DUP2 DUP5 MUL DUP2 ADD DUP5 ADD SWAP1 SWAP5 MSTORE DUP1 DUP5 MSTORE SWAP1 SWAP2 DUP4 ADD DUP3 DUP3 DUP1 ISZERO PUSH2 0xC40 JUMPI PUSH1 0x20 MUL DUP3 ADD SWAP2 SWAP1 PUSH1 0x0 MSTORE PUSH1 0x20 PUSH1 0x0 KECCAK256 SWAP1 JUMPDEST DUP2 SLOAD DUP2 MSTORE PUSH1 0x20 ADD SWAP1 PUSH1 0x1 ADD SWAP1 DUP1 DUP4 GT PUSH2 0xC2C JUMPI JUMPDEST POP POP POP POP POP SWAP1 POP SWAP2 SWAP1 POP JUMP JUMPDEST PUSH2 0xC56 DUP3 CALLER PUSH2 0x1A86 JUMP JUMPDEST PUSH2 0xC72 JUMPI PUSH1 0x40 MLOAD PUSH3 0x461BCD PUSH1 0xE5 SHL DUP2 MSTORE PUSH1 0x4 ADD PUSH2 0x40E SWAP1 PUSH2 0x2713 JUMP JUMPDEST PUSH1 0x1 PUSH1 0x1 PUSH1 0xA0 SHL SUB DUP3 AND PUSH1 0x0 SWAP1 DUP2 MSTORE PUSH1 0x2 PUSH1 0x20 MSTORE PUSH1 0x40 DUP2 KECCAK256 SWAP1 DUP1 JUMPDEST DUP3 SLOAD DUP2 LT ISZERO PUSH2 0xCD8 JUMPI PUSH2 0xCBD DUP6 CALLER DUP6 DUP5 DUP2 SLOAD DUP2 LT PUSH2 0xCAD JUMPI PUSH2 0xCAD PUSH2 0x273B JUMP JUMPDEST SWAP1 PUSH1 0x0 MSTORE PUSH1 0x20 PUSH1 0x0 KECCAK256 ADD SLOAD PUSH2 0x18A5 JUMP JUMPDEST ISZERO PUSH2 0xCD0 JUMPI DUP2 PUSH2 0xCCC DUP2 PUSH2 0x25CC JUMP JUMPDEST SWAP3 POP POP JUMPDEST PUSH1 0x1 ADD PUSH2 0xC8D JUMP JUMPDEST POP PUSH1 0x0 DUP2 PUSH1 0x1 PUSH1 0x1 PUSH1 0x40 SHL SUB DUP2 GT ISZERO PUSH2 0xCF3 JUMPI PUSH2 0xCF3 PUSH2 0x1FDE JUMP JUMPDEST PUSH1 0x40 MLOAD SWAP1 DUP1 DUP3 MSTORE DUP1 PUSH1 0x20 MUL PUSH1 0x20 ADD DUP3 ADD PUSH1 0x40 MSTORE DUP1 ISZERO PUSH2 0xD1C JUMPI DUP2 PUSH1 0x20 ADD PUSH1 0x20 DUP3 MUL DUP1 CALLDATASIZE DUP4 CALLDATACOPY ADD SWAP1 POP JUMPDEST POP SWAP1 POP PUSH1 0x0 DUP1 JUMPDEST DUP5 SLOAD DUP2 LT ISZERO PUSH2 0xD98 JUMPI PUSH2 0xD43 DUP8 CALLER DUP8 DUP5 DUP2 SLOAD DUP2 LT PUSH2 0xCAD JUMPI PUSH2 0xCAD PUSH2 0x273B JUMP JUMPDEST ISZERO PUSH2 0xD90 JUMPI DUP5 DUP2 DUP2 SLOAD DUP2 LT PUSH2 0xD5A JUMPI PUSH2 0xD5A PUSH2 0x273B JUMP JUMPDEST SWAP1 PUSH1 0x0 MSTORE PUSH1 0x20 PUSH1 0x0 KECCAK256 ADD SLOAD DUP4 DUP4 DUP2 MLOAD DUP2 LT PUSH2 0xD77 JUMPI PUSH2 0xD77 PUSH2 0x273B JUMP JUMPDEST PUSH1 0x20 SWAP1 DUP2 MUL SWAP2 SWAP1 SWAP2 ADD ADD MSTORE DUP2 PUSH2 0xD8C DUP2 PUSH2 0x25CC JUMP JUMPDEST SWAP3 POP POP JUMPDEST PUSH1 0x1 ADD PUSH2 0xD23 JUMP JUMPDEST POP SWAP1 SWAP6 SWAP5 POP POP POP POP POP JUMP JUMPDEST PUSH1 0x0 DUP1 DUP5 MLOAD GT PUSH2 0xDC5 JUMPI PUSH1 0x40 MLOAD PUSH3 0x461BCD PUSH1 0xE5 SHL DUP2 MSTORE PUSH1 0x4 ADD PUSH2 0x40E SWAP1 PUSH2 0x2583 JUMP JUMPDEST PUSH1 0x7 DUP1 SLOAD SWAP1 PUSH1 0x0 PUSH2 0xDD5 DUP4 PUSH2 0x25CC JUMP JUMPDEST SWAP2 SWAP1 POP SSTORE POP PUSH1 0x40 MLOAD DUP1 PUSH2 0x120 ADD PUSH1 0x40 MSTORE DUP1 PUSH1 0x7 SLOAD DUP2 MSTORE PUSH1 0x20 ADD CALLER PUSH1 0x1 PUSH1 0x1 PUSH1 0xA0 SHL SUB AND DUP2 MSTORE PUSH1 0x20 ADD DUP6 DUP2 MSTORE PUSH1 0x20 ADD DUP5 PUSH1 0x5 DUP2 GT ISZERO PUSH2 0xE15 JUMPI PUSH2 0xE15 PUSH2 0x1E0F JUMP JUMPDEST DUP2 MSTORE TIMESTAMP PUSH1 0x20 DUP1 DUP4 ADD SWAP2 SWAP1 SWAP2 MSTORE CALLER PUSH1 0x40 DUP1 DUP5 ADD SWAP2 SWAP1 SWAP2 MSTORE PUSH1 0x1 PUSH1 0x60 DUP5 ADD DUP2 SWAP1 MSTORE PUSH1 0x80 DUP5 ADD DUP8 SWAP1 MSTORE PUSH1 0xA0 SWAP1 SWAP4 ADD DUP4 SWAP1 MSTORE PUSH1 0x7 SLOAD PUSH1 0x0 SWAP1 DUP2 MSTORE PUSH1 0x3 DUP4 MSTORE DUP2 SWAP1 KECCAK256 DUP5 MLOAD DUP2 SSTORE SWAP2 DUP5 ADD MLOAD SWAP3 DUP3 ADD DUP1 SLOAD PUSH1 0x1 PUSH1 0x1 PUSH1 0xA0 SHL SUB NOT AND PUSH1 0x1 PUSH1 0x1 PUSH1 0xA0 SHL SUB SWAP1 SWAP5 AND SWAP4 SWAP1 SWAP4 OR SWAP1 SWAP3 SSTORE SWAP1 DUP3 ADD MLOAD PUSH1 0x2 DUP3 ADD SWAP1 PUSH2 0xE8E SWAP1 DUP3 PUSH2 0x2633 JUMP JUMPDEST POP PUSH1 0x60 DUP3 ADD MLOAD PUSH1 0x3 DUP3 ADD DUP1 SLOAD PUSH1 0xFF NOT AND PUSH1 0x1 DUP4 PUSH1 0x5 DUP2 GT ISZERO PUSH2 0xEB2 JUMPI PUSH2 0xEB2 PUSH2 0x1E0F JUMP JUMPDEST MUL OR SWAP1 SSTORE POP PUSH1 0x80 DUP3 ADD MLOAD PUSH1 0x4 DUP3 ADD SSTORE PUSH1 0xA0 DUP3 ADD MLOAD PUSH1 0x5 DUP3 ADD DUP1 SLOAD PUSH1 0xC0 DUP6 ADD MLOAD ISZERO ISZERO PUSH1 0x1 PUSH1 0xA0 SHL MUL PUSH1 0x1 PUSH1 0x1 PUSH1 0xA8 SHL SUB NOT SWAP1 SWAP2 AND PUSH1 0x1 PUSH1 0x1 PUSH1 0xA0 SHL SUB SWAP1 SWAP4 AND SWAP3 SWAP1 SWAP3 OR SWAP2 SWAP1 SWAP2 OR SWAP1 SSTORE PUSH1 0xE0 DUP3 ADD MLOAD PUSH1 0x6 DUP3 ADD SWAP1 PUSH2 0xF0E SWAP1 DUP3 PUSH2 0x2633 JUMP JUMPDEST POP PUSH2 0x100 SWAP2 SWAP1 SWAP2 ADD MLOAD PUSH1 0x7 SWAP2 DUP3 ADD SSTORE CALLER PUSH1 0x0 DUP2 DUP2 MSTORE PUSH1 0x2 PUSH1 0x20 SWAP1 DUP2 MSTORE PUSH1 0x40 DUP1 DUP4 KECCAK256 DUP6 SLOAD DUP2 SLOAD PUSH1 0x1 DUP2 ADD DUP4 SSTORE SWAP2 DUP6 MSTORE SWAP3 SWAP1 SWAP4 KECCAK256 SWAP1 SWAP3 ADD SSTORE SWAP2 SLOAD SWAP2 MLOAD SWAP1 SWAP2 SWAP1 PUSH1 0x0 DUP1 MLOAD PUSH1 0x20 PUSH2 0x27C7 DUP4 CODECOPY DUP2 MLOAD SWAP2 MSTORE SWAP1 PUSH2 0xF68 SWAP1 DUP9 SWAP1 DUP9 SWAP1 PUSH2 0x26F1 JUMP JUMPDEST PUSH1 0x40 MLOAD DUP1 SWAP2 SUB SWAP1 LOG3 POP PUSH1 0x7 SLOAD JUMPDEST SWAP4 SWAP3 POP POP POP JUMP JUMPDEST PUSH1 0x0 PUSH2 0x572 PUSH1 0x0 DUP1 MLOAD PUSH1 0x20 PUSH2 0x27E7 DUP4 CODECOPY DUP2 MLOAD SWAP2 MSTORE DUP4 PUSH2 0x13A0 JUMP JUMPDEST PUSH1 0x0 SWAP1 DUP2 MSTORE PUSH1 0x1 PUSH1 0x20 DUP2 SWAP1 MSTORE PUSH1 0x40 SWAP1 SWAP2 KECCAK256 ADD SLOAD SWAP1 JUMP JUMPDEST PUSH2 0xFB5 DUP3 PUSH2 0xF96 JUMP JUMPDEST PUSH2 0xFBE DUP2 PUSH2 0x1A7C JUMP JUMPDEST PUSH2 0xFC8 DUP4 DUP4 PUSH2 0x1B83 JUMP JUMPDEST POP POP POP POP JUMP JUMPDEST PUSH1 0x1 PUSH1 0x1 PUSH1 0xA0 SHL SUB DUP2 AND CALLER EQ PUSH2 0xFF7 JUMPI PUSH1 0x40 MLOAD PUSH4 0x334BD919 PUSH1 0xE1 SHL DUP2 MSTORE PUSH1 0x4 ADD PUSH1 0x40 MLOAD DUP1 SWAP2 SUB SWAP1 REVERT JUMPDEST PUSH2 0x1001 DUP3 DUP3 PUSH2 0x1BFC JUMP JUMPDEST POP POP POP JUMP JUMPDEST DUP3 PUSH1 0x0 DUP2 GT DUP1 ISZERO PUSH2 0x1019 JUMPI POP PUSH1 0x7 SLOAD DUP2 GT ISZERO JUMPDEST PUSH2 0x1035 JUMPI PUSH1 0x40 MLOAD PUSH3 0x461BCD PUSH1 0xE5 SHL DUP2 MSTORE PUSH1 0x4 ADD PUSH2 0x40E SWAP1 PUSH2 0x2464 JUMP JUMPDEST PUSH1 0x0 DUP2 DUP2 MSTORE PUSH1 0x3 PUSH1 0x20 MSTORE PUSH1 0x40 SWAP1 KECCAK256 PUSH1 0x5 ADD SLOAD PUSH1 0x1 PUSH1 0xA0 SHL SWAP1 DIV PUSH1 0xFF AND PUSH2 0x106D JUMPI PUSH1 0x40 MLOAD PUSH3 0x461BCD PUSH1 0xE5 SHL DUP2 MSTORE PUSH1 0x4 ADD PUSH2 0x40E SWAP1 PUSH2 0x2493 JUMP JUMPDEST PUSH1 0x0 DUP5 DUP2 MSTORE PUSH1 0x3 PUSH1 0x20 MSTORE PUSH1 0x40 SWAP1 KECCAK256 PUSH1 0x1 ADD SLOAD DUP5 SWAP1 PUSH1 0x1 PUSH1 0x1 PUSH1 0xA0 SHL SUB AND CALLER EQ PUSH2 0x10A8 JUMPI PUSH1 0x40 MLOAD PUSH3 0x461BCD PUSH1 0xE5 SHL DUP2 MSTORE PUSH1 0x4 ADD PUSH2 0x40E SWAP1 PUSH2 0x24C1 JUMP JUMPDEST PUSH1 0x0 DUP6 DUP2 MSTORE PUSH1 0x3 PUSH1 0x20 MSTORE PUSH1 0x40 SWAP1 KECCAK256 PUSH1 0x2 DUP2 ADD PUSH2 0x10C4 DUP7 DUP3 PUSH2 0x2633 JUMP JUMPDEST POP PUSH1 0x6 DUP2 ADD PUSH2 0x10D3 DUP6 DUP3 PUSH2 0x2633 JUMP JUMPDEST POP PUSH1 0x7 DUP2 ADD DUP1 SLOAD SWAP1 PUSH1 0x0 PUSH2 0x10E6 DUP4 PUSH2 0x25CC JUMP JUMPDEST SWAP2 SWAP1 POP SSTORE POP DUP6 PUSH32 0x88D9E16504277BF999412471E756EEDF1AB2491C6A6399C9D349D3FEA6D70CF DUP7 DUP4 PUSH1 0x7 ADD SLOAD PUSH1 0x40 MLOAD PUSH2 0x1121 SWAP3 SWAP2 SWAP1 PUSH2 0x2751 JUMP JUMPDEST PUSH1 0x40 MLOAD DUP1 SWAP2 SUB SWAP1 LOG2 POP POP POP POP POP POP JUMP JUMPDEST PUSH2 0x1139 PUSH2 0x1C69 JUMP JUMPDEST PUSH2 0x1143 PUSH1 0x0 PUSH2 0x1C9B JUMP JUMPDEST JUMP JUMPDEST CALLER PUSH1 0x0 SWAP1 DUP2 MSTORE PUSH1 0x4 PUSH1 0x20 SWAP1 DUP2 MSTORE PUSH1 0x40 DUP1 DUP4 KECCAK256 PUSH1 0x1 PUSH1 0x1 PUSH1 0xA0 SHL SUB DUP6 AND DUP5 MSTORE SWAP1 SWAP2 MSTORE SWAP1 KECCAK256 PUSH1 0x3 ADD SLOAD PUSH1 0xFF AND PUSH2 0x11B4 JUMPI PUSH1 0x40 MLOAD PUSH3 0x461BCD PUSH1 0xE5 SHL DUP2 MSTORE PUSH1 0x20 PUSH1 0x4 DUP3 ADD MSTORE PUSH1 0x16 PUSH1 0x24 DUP3 ADD MSTORE PUSH22 0x139BC81858DD1A5D99481858D8D95CDCC819DC985B9D PUSH1 0x52 SHL PUSH1 0x44 DUP3 ADD MSTORE PUSH1 0x64 ADD PUSH2 0x40E JUMP JUMPDEST CALLER PUSH1 0x0 DUP2 DUP2 MSTORE PUSH1 0x4 PUSH1 0x20 SWAP1 DUP2 MSTORE PUSH1 0x40 DUP1 DUP4 KECCAK256 PUSH1 0x1 PUSH1 0x1 PUSH1 0xA0 SHL SUB DUP7 AND DUP1 DUP6 MSTORE SWAP3 MSTORE DUP1 DUP4 KECCAK256 PUSH1 0x3 ADD DUP1 SLOAD PUSH1 0xFF NOT AND SWAP1 SSTORE MLOAD SWAP1 SWAP3 SWAP2 PUSH32 0x825C8BE24EB0DF19500F63E86C29E7D0D951E73056B889B891D85E40938D9B6E SWAP2 LOG3 POP JUMP JUMPDEST PUSH2 0x124A PUSH1 0x40 MLOAD DUP1 PUSH1 0xA0 ADD PUSH1 0x40 MSTORE DUP1 PUSH1 0x0 PUSH1 0x1 PUSH1 0x1 PUSH1 0xA0 SHL SUB AND DUP2 MSTORE PUSH1 0x20 ADD PUSH1 0x60 DUP2 MSTORE PUSH1 0x20 ADD PUSH1 0x0 DUP2 MSTORE PUSH1 0x20 ADD PUSH1 0x0 ISZERO ISZERO DUP2 MSTORE PUSH1 0x20 ADD PUSH1 0x0 DUP2 MSTORE POP SWAP1 JUMP JUMPDEST CALLER PUSH1 0x1 PUSH1 0x1 PUSH1 0xA0 SHL SUB DUP5 AND EQ DUP1 PUSH2 0x1269 JUMPI POP CALLER PUSH1 0x1 PUSH1 0x1 PUSH1 0xA0 SHL SUB DUP4 AND EQ JUMPDEST PUSH2 0x1285 JUMPI PUSH1 0x40 MLOAD PUSH3 0x461BCD PUSH1 0xE5 SHL DUP2 MSTORE PUSH1 0x4 ADD PUSH2 0x40E SWAP1 PUSH2 0x2713 JUMP JUMPDEST PUSH1 0x1 PUSH1 0x1 PUSH1 0xA0 SHL SUB DUP1 DUP5 AND PUSH1 0x0 SWAP1 DUP2 MSTORE PUSH1 0x4 PUSH1 0x20 SWAP1 DUP2 MSTORE PUSH1 0x40 DUP1 DUP4 KECCAK256 DUP7 DUP6 AND DUP5 MSTORE DUP3 MSTORE SWAP2 DUP3 SWAP1 KECCAK256 DUP3 MLOAD PUSH1 0xA0 DUP2 ADD DUP5 MSTORE DUP2 SLOAD SWAP1 SWAP5 AND DUP5 MSTORE PUSH1 0x1 DUP2 ADD DUP1 SLOAD DUP5 MLOAD DUP2 DUP6 MUL DUP2 ADD DUP6 ADD SWAP1 SWAP6 MSTORE DUP1 DUP6 MSTORE SWAP2 SWAP4 DUP6 DUP5 ADD SWAP4 SWAP1 SWAP3 SWAP1 DUP4 ADD DUP3 DUP3 DUP1 ISZERO PUSH2 0x1308 JUMPI PUSH1 0x20 MUL DUP3 ADD SWAP2 SWAP1 PUSH1 0x0 MSTORE PUSH1 0x20 PUSH1 0x0 KECCAK256 SWAP1 JUMPDEST DUP2 SLOAD DUP2 MSTORE PUSH1 0x20 ADD SWAP1 PUSH1 0x1 ADD SWAP1 DUP1 DUP4 GT PUSH2 0x12F4 JUMPI JUMPDEST POP POP POP SWAP2 DUP4 MSTORE POP POP PUSH1 0x2 DUP3 ADD SLOAD PUSH1 0x20 DUP3 ADD MSTORE PUSH1 0x3 DUP3 ADD SLOAD PUSH1 0xFF AND ISZERO ISZERO PUSH1 0x40 DUP3 ADD MSTORE PUSH1 0x4 SWAP1 SWAP2 ADD SLOAD PUSH1 0x60 SWAP1 SWAP2 ADD MSTORE SWAP4 SWAP3 POP POP POP JUMP JUMPDEST PUSH1 0x0 SLOAD PUSH1 0x1 PUSH1 0x1 PUSH1 0xA0 SHL SUB AND SWAP1 JUMP JUMPDEST PUSH1 0x1 PUSH1 0x1 PUSH1 0xA0 SHL SUB DUP2 AND PUSH2 0x1371 JUMPI PUSH1 0x40 MLOAD PUSH3 0x461BCD PUSH1 0xE5 SHL DUP2 MSTORE PUSH1 0x4 ADD PUSH2 0x40E SWAP1 PUSH2 0x2773 JUMP JUMPDEST CALLER PUSH1 0x0 SWAP1 DUP2 MSTORE PUSH1 0x6 PUSH1 0x20 MSTORE PUSH1 0x40 SWAP1 KECCAK256 DUP1 SLOAD PUSH1 0x1 PUSH1 0x1 PUSH1 0xA0 SHL SUB NOT AND PUSH1 0x1 PUSH1 0x1 PUSH1 0xA0 SHL SUB SWAP3 SWAP1 SWAP3 AND SWAP2 SWAP1 SWAP2 OR SWAP1 SSTORE JUMP JUMPDEST PUSH1 0x0 SWAP2 DUP3 MSTORE PUSH1 0x1 PUSH1 0x20 SWAP1 DUP2 MSTORE PUSH1 0x40 DUP1 DUP5 KECCAK256 PUSH1 0x1 PUSH1 0x1 PUSH1 0xA0 SHL SUB SWAP4 SWAP1 SWAP4 AND DUP5 MSTORE SWAP2 SWAP1 MSTORE SWAP1 KECCAK256 SLOAD PUSH1 0xFF AND SWAP1 JUMP JUMPDEST PUSH1 0x1 PUSH1 0x1 PUSH1 0xA0 SHL SUB DUP4 AND PUSH2 0x13F1 JUMPI PUSH1 0x40 MLOAD PUSH3 0x461BCD PUSH1 0xE5 SHL DUP2 MSTORE PUSH1 0x4 ADD PUSH2 0x40E SWAP1 PUSH2 0x2773 JUMP JUMPDEST PUSH1 0x0 DUP3 MLOAD GT PUSH2 0x1453 JUMPI PUSH1 0x40 MLOAD PUSH3 0x461BCD PUSH1 0xE5 SHL DUP2 MSTORE PUSH1 0x20 PUSH1 0x4 DUP3 ADD MSTORE PUSH1 0x28 PUSH1 0x24 DUP3 ADD MSTORE PUSH32 0x4D757374206772616E742061636365737320746F206174206C65617374206F6E PUSH1 0x44 DUP3 ADD MSTORE PUSH8 0x19481C9958DBDC99 PUSH1 0xC2 SHL PUSH1 0x64 DUP3 ADD MSTORE PUSH1 0x84 ADD PUSH2 0x40E JUMP JUMPDEST PUSH1 0x0 DUP2 GT DUP1 ISZERO PUSH2 0x1465 JUMPI POP PUSH2 0xE42 DUP2 GT ISZERO JUMPDEST PUSH2 0x14A4 JUMPI PUSH1 0x40 MLOAD PUSH3 0x461BCD PUSH1 0xE5 SHL DUP2 MSTORE PUSH1 0x20 PUSH1 0x4 DUP3 ADD MSTORE PUSH1 0x10 PUSH1 0x24 DUP3 ADD MSTORE PUSH16 0x24B73B30B634B210323AB930BA34B7B7 PUSH1 0x81 SHL PUSH1 0x44 DUP3 ADD MSTORE PUSH1 0x64 ADD PUSH2 0x40E JUMP JUMPDEST PUSH1 0x0 JUMPDEST DUP3 MLOAD DUP2 LT ISZERO PUSH2 0x1558 JUMPI CALLER PUSH1 0x1 PUSH1 0x1 PUSH1 0xA0 SHL SUB AND PUSH1 0x3 PUSH1 0x0 DUP6 DUP5 DUP2 MLOAD DUP2 LT PUSH2 0x14D0 JUMPI PUSH2 0x14D0 PUSH2 0x273B JUMP JUMPDEST PUSH1 0x20 SWAP1 DUP2 MUL SWAP2 SWAP1 SWAP2 ADD DUP2 ADD MLOAD DUP3 MSTORE DUP2 ADD SWAP2 SWAP1 SWAP2 MSTORE PUSH1 0x40 ADD PUSH1 0x0 KECCAK256 PUSH1 0x1 ADD SLOAD PUSH1 0x1 PUSH1 0x1 PUSH1 0xA0 SHL SUB AND EQ PUSH2 0x1550 JUMPI PUSH1 0x40 MLOAD PUSH3 0x461BCD PUSH1 0xE5 SHL DUP2 MSTORE PUSH1 0x20 PUSH1 0x4 DUP3 ADD MSTORE PUSH1 0x23 PUSH1 0x24 DUP3 ADD MSTORE PUSH32 0x596F7520646F6E2774206F776E20616C6C20737065636966696564207265636F PUSH1 0x44 DUP3 ADD MSTORE PUSH3 0x726473 PUSH1 0xE8 SHL PUSH1 0x64 DUP3 ADD MSTORE PUSH1 0x84 ADD PUSH2 0x40E JUMP JUMPDEST PUSH1 0x1 ADD PUSH2 0x14A7 JUMP JUMPDEST POP PUSH1 0x0 PUSH2 0x1568 DUP3 PUSH3 0x15180 PUSH2 0x279C JUMP JUMPDEST PUSH2 0x1572 SWAP1 TIMESTAMP PUSH2 0x27B3 JUMP JUMPDEST PUSH1 0x40 DUP1 MLOAD PUSH1 0xA0 DUP2 ADD DUP3 MSTORE PUSH1 0x1 PUSH1 0x1 PUSH1 0xA0 SHL SUB DUP8 DUP2 AND DUP1 DUP4 MSTORE PUSH1 0x20 DUP1 DUP5 ADD DUP10 DUP2 MSTORE DUP5 DUP7 ADD DUP8 SWAP1 MSTORE PUSH1 0x1 PUSH1 0x60 DUP7 ADD DUP2 SWAP1 MSTORE TIMESTAMP PUSH1 0x80 DUP8 ADD MSTORE CALLER PUSH1 0x0 SWAP1 DUP2 MSTORE PUSH1 0x4 DUP5 MSTORE DUP8 DUP2 KECCAK256 SWAP5 DUP2 MSTORE SWAP4 DUP4 MSTORE SWAP6 SWAP1 SWAP3 KECCAK256 DUP5 MLOAD DUP2 SLOAD PUSH1 0x1 PUSH1 0x1 PUSH1 0xA0 SHL SUB NOT AND SWAP5 AND SWAP4 SWAP1 SWAP4 OR DUP4 SSTORE SWAP1 MLOAD DUP1 MLOAD SWAP6 SWAP7 POP SWAP3 SWAP5 SWAP2 SWAP4 PUSH2 0x15EF SWAP4 SWAP1 DUP6 ADD SWAP3 SWAP2 ADD SWAP1 PUSH2 0x1D89 JUMP JUMPDEST POP PUSH1 0x40 DUP3 DUP2 ADD MLOAD PUSH1 0x2 DUP4 ADD SSTORE PUSH1 0x60 DUP4 ADD MLOAD PUSH1 0x3 DUP4 ADD DUP1 SLOAD PUSH1 0xFF NOT AND SWAP2 ISZERO ISZERO SWAP2 SWAP1 SWAP2 OR SWAP1 SSTORE PUSH1 0x80 SWAP1 SWAP3 ADD MLOAD PUSH1 0x4 SWAP1 SWAP2 ADD SSTORE MLOAD DUP2 DUP2 MSTORE PUSH1 0x1 PUSH1 0x1 PUSH1 0xA0 SHL SUB DUP6 AND SWAP1 CALLER SWAP1 PUSH32 0x65D0CC1E52D49938CA4AD9F423C79C1B84D914B9A683FBC5D3F93AC3CC5635F5 SWAP1 PUSH1 0x20 ADD JUMPDEST PUSH1 0x40 MLOAD DUP1 SWAP2 SUB SWAP1 LOG3 POP POP POP POP JUMP JUMPDEST DUP2 PUSH1 0x0 DUP2 GT DUP1 ISZERO PUSH2 0x1677 JUMPI POP PUSH1 0x7 SLOAD DUP2 GT ISZERO JUMPDEST PUSH2 0x1693 JUMPI PUSH1 0x40 MLOAD PUSH3 0x461BCD PUSH1 0xE5 SHL DUP2 MSTORE PUSH1 0x4 ADD PUSH2 0x40E SWAP1 PUSH2 0x2464 JUMP JUMPDEST PUSH1 0x0 DUP2 DUP2 MSTORE PUSH1 0x3 PUSH1 0x20 MSTORE PUSH1 0x40 SWAP1 KECCAK256 PUSH1 0x5 ADD SLOAD PUSH1 0x1 PUSH1 0xA0 SHL SWAP1 DIV PUSH1 0xFF AND PUSH2 0x16CB JUMPI PUSH1 0x40 MLOAD PUSH3 0x461BCD PUSH1 0xE5 SHL DUP2 MSTORE PUSH1 0x4 ADD PUSH2 0x40E SWAP1 PUSH2 0x2493 JUMP JUMPDEST PUSH1 0x0 DUP4 DUP2 MSTORE PUSH1 0x3 PUSH1 0x20 MSTORE PUSH1 0x40 SWAP1 KECCAK256 PUSH1 0x1 ADD SLOAD DUP4 SWAP1 PUSH2 0x16F3 SWAP1 PUSH1 0x1 PUSH1 0x1 PUSH1 0xA0 SHL SUB AND CALLER DUP4 PUSH2 0x18A5 JUMP JUMPDEST PUSH2 0x170F JUMPI PUSH1 0x40 MLOAD PUSH3 0x461BCD PUSH1 0xE5 SHL DUP2 MSTORE PUSH1 0x4 ADD PUSH2 0x40E SWAP1 PUSH2 0x2505 JUMP JUMPDEST PUSH1 0x0 DUP5 DUP2 MSTORE PUSH1 0x3 PUSH1 0x20 SWAP1 DUP2 MSTORE PUSH1 0x40 DUP1 DUP4 KECCAK256 PUSH1 0x1 ADD SLOAD PUSH1 0x1 PUSH1 0x1 PUSH1 0xA0 SHL SUB SWAP1 DUP2 AND DUP5 MSTORE PUSH1 0x6 SWAP1 SWAP3 MSTORE SWAP1 SWAP2 KECCAK256 SLOAD CALLER SWAP2 AND SUB PUSH2 0x1795 JUMPI PUSH1 0x0 DUP5 DUP2 MSTORE PUSH1 0x3 PUSH1 0x20 SWAP1 DUP2 MSTORE PUSH1 0x40 SWAP2 DUP3 SWAP1 KECCAK256 PUSH1 0x1 ADD SLOAD SWAP2 MLOAD TIMESTAMP DUP2 MSTORE CALLER SWAP3 PUSH1 0x1 PUSH1 0x1 PUSH1 0xA0 SHL SUB AND SWAP2 PUSH32 0xF09B5B37601D747E980AAD190F31B7FA72740906D3DA5EB0AF65D1F89FDE166B SWAP2 ADD PUSH1 0x40 MLOAD DUP1 SWAP2 SUB SWAP1 LOG3 JUMPDEST PUSH1 0x5 PUSH1 0x0 DUP6 DUP2 MSTORE PUSH1 0x20 ADD SWAP1 DUP2 MSTORE PUSH1 0x20 ADD PUSH1 0x0 KECCAK256 PUSH1 0x40 MLOAD DUP1 PUSH1 0x60 ADD PUSH1 0x40 MSTORE DUP1 CALLER PUSH1 0x1 PUSH1 0x1 PUSH1 0xA0 SHL SUB AND DUP2 MSTORE PUSH1 0x20 ADD TIMESTAMP DUP2 MSTORE PUSH1 0x20 ADD DUP6 PUSH1 0x4 DUP2 GT ISZERO PUSH2 0x17DA JUMPI PUSH2 0x17DA PUSH2 0x1E0F JUMP JUMPDEST SWAP1 MSTORE DUP2 SLOAD PUSH1 0x1 DUP1 DUP3 ADD DUP5 SSTORE PUSH1 0x0 SWAP4 DUP5 MSTORE PUSH1 0x20 SWAP4 DUP5 SWAP1 KECCAK256 DUP4 MLOAD PUSH1 0x3 SWAP1 SWAP4 MUL ADD DUP1 SLOAD PUSH1 0x1 PUSH1 0x1 PUSH1 0xA0 SHL SUB NOT AND PUSH1 0x1 PUSH1 0x1 PUSH1 0xA0 SHL SUB SWAP1 SWAP4 AND SWAP3 SWAP1 SWAP3 OR DUP3 SSTORE SWAP3 DUP3 ADD MLOAD DUP2 DUP5 ADD SSTORE PUSH1 0x40 DUP3 ADD MLOAD PUSH1 0x2 DUP3 ADD DUP1 SLOAD SWAP4 SWAP5 SWAP3 SWAP4 SWAP2 SWAP3 SWAP1 SWAP2 PUSH1 0xFF NOT AND SWAP1 DUP4 PUSH1 0x4 DUP2 GT ISZERO PUSH2 0x1847 JUMPI PUSH2 0x1847 PUSH2 0x1E0F JUMP JUMPDEST MUL OR SWAP1 SSTORE POP POP PUSH1 0x40 MLOAD TIMESTAMP DUP2 MSTORE CALLER SWAP2 POP DUP6 SWAP1 PUSH32 0xDEC39EB35DC9CA96737E4515F8A70F5DB122E248213EE947B996E1F678AB05B8 SWAP1 PUSH1 0x20 ADD PUSH2 0x1656 JUMP JUMPDEST PUSH1 0x0 PUSH2 0x188D DUP2 PUSH2 0x1A7C JUMP JUMPDEST PUSH2 0xBCC PUSH1 0x0 DUP1 MLOAD PUSH1 0x20 PUSH2 0x27E7 DUP4 CODECOPY DUP2 MLOAD SWAP2 MSTORE DUP4 PUSH2 0x1A22 JUMP JUMPDEST PUSH1 0x0 DUP3 PUSH1 0x1 PUSH1 0x1 PUSH1 0xA0 SHL SUB AND DUP5 PUSH1 0x1 PUSH1 0x1 PUSH1 0xA0 SHL SUB AND SUB PUSH2 0x18C8 JUMPI POP PUSH1 0x1 PUSH2 0xF75 JUMP JUMPDEST PUSH1 0x1 PUSH1 0x1 PUSH1 0xA0 SHL SUB DUP5 DUP2 AND PUSH1 0x0 SWAP1 DUP2 MSTORE PUSH1 0x6 PUSH1 0x20 MSTORE PUSH1 0x40 SWAP1 KECCAK256 SLOAD DUP2 DUP6 AND SWAP2 AND SUB PUSH2 0x18F4 JUMPI POP PUSH1 0x1 PUSH2 0xF75 JUMP JUMPDEST PUSH1 0x1 PUSH1 0x1 PUSH1 0xA0 SHL SUB DUP1 DUP6 AND PUSH1 0x0 SWAP1 DUP2 MSTORE PUSH1 0x4 PUSH1 0x20 SWAP1 DUP2 MSTORE PUSH1 0x40 DUP1 DUP4 KECCAK256 DUP8 DUP6 AND DUP5 MSTORE DUP3 MSTORE DUP1 DUP4 KECCAK256 DUP2 MLOAD PUSH1 0xA0 DUP2 ADD DUP4 MSTORE DUP2 SLOAD SWAP1 SWAP6 AND DUP6 MSTORE PUSH1 0x1 DUP2 ADD DUP1 SLOAD DUP4 MLOAD DUP2 DUP7 MUL DUP2 ADD DUP7 ADD SWAP1 SWAP5 MSTORE DUP1 DUP5 MSTORE SWAP5 SWAP6 SWAP5 SWAP2 SWAP4 DUP6 DUP2 ADD SWAP4 SWAP3 SWAP1 DUP4 ADD DUP3 DUP3 DUP1 ISZERO PUSH2 0x1978 JUMPI PUSH1 0x20 MUL DUP3 ADD SWAP2 SWAP1 PUSH1 0x0 MSTORE PUSH1 0x20 PUSH1 0x0 KECCAK256 SWAP1 JUMPDEST DUP2 SLOAD DUP2 MSTORE PUSH1 0x20 ADD SWAP1 PUSH1 0x1 ADD SWAP1 DUP1 DUP4 GT PUSH2 0x1964 JUMPI JUMPDEST POP POP POP SWAP2 DUP4 MSTORE POP POP PUSH1 0x2 DUP3 ADD SLOAD PUSH1 0x20 DUP3 ADD MSTORE PUSH1 0x3 DUP3 ADD SLOAD PUSH1 0xFF AND ISZERO ISZERO PUSH1 0x40 DUP3 ADD MSTORE PUSH1 0x4 SWAP1 SWAP2 ADD SLOAD PUSH1 0x60 SWAP2 DUP3 ADD MSTORE DUP2 ADD MLOAD SWAP1 SWAP2 POP PUSH2 0x19B9 JUMPI PUSH1 0x0 SWAP2 POP POP PUSH2 0xF75 JUMP JUMPDEST DUP1 PUSH1 0x40 ADD MLOAD TIMESTAMP GT ISZERO PUSH2 0x19CF JUMPI PUSH1 0x0 SWAP2 POP POP PUSH2 0xF75 JUMP JUMPDEST PUSH1 0x0 JUMPDEST DUP2 PUSH1 0x20 ADD MLOAD MLOAD DUP2 LT ISZERO PUSH2 0x1A16 JUMPI DUP4 DUP3 PUSH1 0x20 ADD MLOAD DUP3 DUP2 MLOAD DUP2 LT PUSH2 0x19F6 JUMPI PUSH2 0x19F6 PUSH2 0x273B JUMP JUMPDEST PUSH1 0x20 MUL PUSH1 0x20 ADD ADD MLOAD SUB PUSH2 0x1A0E JUMPI PUSH1 0x1 SWAP3 POP POP POP PUSH2 0xF75 JUMP JUMPDEST PUSH1 0x1 ADD PUSH2 0x19D2 JUMP JUMPDEST POP PUSH1 0x0 SWAP6 SWAP5 POP POP POP POP POP JUMP JUMPDEST PUSH2 0x1A2B DUP3 PUSH2 0xF96 JUMP JUMPDEST PUSH2 0x1A34 DUP2 PUSH2 0x1A7C JUMP JUMPDEST PUSH2 0xFC8 DUP4 DUP4 PUSH2 0x1BFC JUMP JUMPDEST PUSH2 0x1A46 PUSH2 0x1C69 JUMP JUMPDEST PUSH1 0x1 PUSH1 0x1 PUSH1 0xA0 SHL SUB DUP2 AND PUSH2 0x1A70 JUMPI PUSH1 0x0 PUSH1 0x40 MLOAD PUSH4 0x1E4FBDF7 PUSH1 0xE0 SHL DUP2 MSTORE PUSH1 0x4 ADD PUSH2 0x40E SWAP2 SWAP1 PUSH2 0x2315 JUMP JUMPDEST PUSH2 0x1A79 DUP2 PUSH2 0x1C9B JUMP JUMPDEST POP JUMP JUMPDEST PUSH2 0x1A79 DUP2 CALLER PUSH2 0x1CEB JUMP JUMPDEST PUSH1 0x1 PUSH1 0x1 PUSH1 0xA0 SHL SUB DUP3 DUP2 AND PUSH1 0x0 SWAP1 DUP2 MSTORE PUSH1 0x6 PUSH1 0x20 MSTORE PUSH1 0x40 DUP2 KECCAK256 SLOAD SWAP1 SWAP2 DUP1 DUP5 AND SWAP2 AND SUB PUSH2 0x1AB4 JUMPI POP PUSH1 0x1 PUSH2 0x572 JUMP JUMPDEST PUSH1 0x1 PUSH1 0x1 PUSH1 0xA0 SHL SUB DUP1 DUP5 AND PUSH1 0x0 SWAP1 DUP2 MSTORE PUSH1 0x4 PUSH1 0x20 SWAP1 DUP2 MSTORE PUSH1 0x40 DUP1 DUP4 KECCAK256 DUP7 DUP6 AND DUP5 MSTORE DUP3 MSTORE DUP1 DUP4 KECCAK256 DUP2 MLOAD PUSH1 0xA0 DUP2 ADD DUP4 MSTORE DUP2 SLOAD SWAP1 SWAP6 AND DUP6 MSTORE PUSH1 0x1 DUP2 ADD DUP1 SLOAD DUP4 MLOAD DUP2 DUP7 MUL DUP2 ADD DUP7 ADD SWAP1 SWAP5 MSTORE DUP1 DUP5 MSTORE SWAP5 SWAP6 SWAP5 SWAP2 SWAP4 DUP6 DUP2 ADD SWAP4 SWAP3 SWAP1 DUP4 ADD DUP3 DUP3 DUP1 ISZERO PUSH2 0x1B38 JUMPI PUSH1 0x20 MUL DUP3 ADD SWAP2 SWAP1 PUSH1 0x0 MSTORE PUSH1 0x20 PUSH1 0x0 KECCAK256 SWAP1 JUMPDEST DUP2 SLOAD DUP2 MSTORE PUSH1 0x20 ADD SWAP1 PUSH1 0x1 ADD SWAP1 DUP1 DUP4 GT PUSH2 0x1B24 JUMPI JUMPDEST POP POP POP SWAP2 DUP4 MSTORE POP POP PUSH1 0x2 DUP3 ADD SLOAD PUSH1 0x20 DUP3 ADD MSTORE PUSH1 0x3 DUP3 ADD SLOAD PUSH1 0xFF AND ISZERO ISZERO PUSH1 0x40 DUP3 ADD MSTORE PUSH1 0x4 SWAP1 SWAP2 ADD SLOAD PUSH1 0x60 SWAP2 DUP3 ADD MSTORE DUP2 ADD MLOAD SWAP1 SWAP2 POP DUP1 ISZERO PUSH2 0x1B7B JUMPI POP DUP1 PUSH1 0x40 ADD MLOAD TIMESTAMP GT ISZERO JUMPDEST SWAP5 SWAP4 POP POP POP POP JUMP JUMPDEST PUSH1 0x0 PUSH2 0x1B8F DUP4 DUP4 PUSH2 0x13A0 JUMP JUMPDEST PUSH2 0x1BF4 JUMPI PUSH1 0x0 DUP4 DUP2 MSTORE PUSH1 0x1 PUSH1 0x20 DUP2 DUP2 MSTORE PUSH1 0x40 DUP1 DUP5 KECCAK256 PUSH1 0x1 PUSH1 0x1 PUSH1 0xA0 SHL SUB DUP8 AND DUP1 DUP7 MSTORE SWAP3 MSTORE DUP1 DUP5 KECCAK256 DUP1 SLOAD PUSH1 0xFF NOT AND SWAP1 SWAP4 OR SWAP1 SWAP3 SSTORE SWAP1 MLOAD CALLER SWAP3 DUP7 SWAP2 PUSH32 0x2F8788117E7EFF1D82E926EC794901D17C78024A50270940304540A733656F0D SWAP2 SWAP1 LOG4 POP PUSH1 0x1 PUSH2 0x572 JUMP JUMPDEST POP PUSH1 0x0 PUSH2 0x572 JUMP JUMPDEST PUSH1 0x0 PUSH2 0x1C08 DUP4 DUP4 PUSH2 0x13A0 JUMP JUMPDEST ISZERO PUSH2 0x1BF4 JUMPI PUSH1 0x0 DUP4 DUP2 MSTORE PUSH1 0x1 PUSH1 0x20 SWAP1 DUP2 MSTORE PUSH1 0x40 DUP1 DUP4 KECCAK256 PUSH1 0x1 PUSH1 0x1 PUSH1 0xA0 SHL SUB DUP7 AND DUP1 DUP6 MSTORE SWAP3 MSTORE DUP1 DUP4 KECCAK256 DUP1 SLOAD PUSH1 0xFF NOT AND SWAP1 SSTORE MLOAD CALLER SWAP3 DUP7 SWAP2 PUSH32 0xF6391F5C32D9C69D2A47EA670B442974B53935D1EDC7FD64EB21E047A839171B SWAP2 SWAP1 LOG4 POP PUSH1 0x1 PUSH2 0x572 JUMP JUMPDEST CALLER PUSH2 0x1C72 PUSH2 0x133C JUMP JUMPDEST PUSH1 0x1 PUSH1 0x1 PUSH1 0xA0 SHL SUB AND EQ PUSH2 0x1143 JUMPI CALLER PUSH1 0x40 MLOAD PUSH4 0x118CDAA7 PUSH1 0xE0 SHL DUP2 MSTORE PUSH1 0x4 ADD PUSH2 0x40E SWAP2 SWAP1 PUSH2 0x2315 JUMP JUMPDEST PUSH1 0x0 DUP1 SLOAD PUSH1 0x1 PUSH1 0x1 PUSH1 0xA0 SHL SUB DUP4 DUP2 AND PUSH1 0x1 PUSH1 0x1 PUSH1 0xA0 SHL SUB NOT DUP4 AND DUP2 OR DUP5 SSTORE PUSH1 0x40 MLOAD SWAP2 SWAP1 SWAP3 AND SWAP3 DUP4 SWAP2 PUSH32 0x8BE0079C531659141344CD1FD0A4F28419497F9722A3DAAFE3B4186F6B6457E0 SWAP2 SWAP1 LOG3 POP POP JUMP JUMPDEST PUSH2 0x1CF5 DUP3 DUP3 PUSH2 0x13A0 JUMP JUMPDEST PUSH2 0xBCC JUMPI PUSH1 0x40 MLOAD PUSH4 0xE2517D3F PUSH1 0xE0 SHL DUP2 MSTORE PUSH1 0x1 PUSH1 0x1 PUSH1 0xA0 SHL SUB DUP3 AND PUSH1 0x4 DUP3 ADD MSTORE PUSH1 0x24 DUP2 ADD DUP4 SWAP1 MSTORE PUSH1 0x44 ADD PUSH2 0x40E JUMP JUMPDEST PUSH1 0x40 MLOAD DUP1 PUSH2 0x120 ADD PUSH1 0x40 MSTORE DUP1 PUSH1 0x0 DUP2 MSTORE PUSH1 0x20 ADD PUSH1 0x0 PUSH1 0x1 PUSH1 0x1 PUSH1 0xA0 SHL SUB AND DUP2 MSTORE PUSH1 0x20 ADD PUSH1 0x60 DUP2 MSTORE PUSH1 0x20 ADD PUSH1 0x0 PUSH1 0x5 DUP2 GT ISZERO PUSH2 0x1D61 JUMPI PUSH2 0x1D61 PUSH2 0x1E0F JUMP JUMPDEST DUP2 MSTORE PUSH1 0x0 PUSH1 0x20 DUP3 ADD DUP2 SWAP1 MSTORE PUSH1 0x40 DUP3 ADD DUP2 SWAP1 MSTORE PUSH1 0x60 DUP1 DUP4 ADD DUP3 SWAP1 MSTORE PUSH1 0x80 DUP4 ADD MSTORE PUSH1 0xA0 SWAP1 SWAP2 ADD MSTORE SWAP1 JUMP JUMPDEST DUP3 DUP1 SLOAD DUP3 DUP3 SSTORE SWAP1 PUSH1 0x0 MSTORE PUSH1 0x20 PUSH1 0x0 KECCAK256 SWAP1 DUP2 ADD SWAP3 DUP3 ISZERO PUSH2 0x1DC4 JUMPI SWAP2 PUSH1 0x20 MUL DUP3 ADD JUMPDEST DUP3 DUP2 GT ISZERO PUSH2 0x1DC4 JUMPI DUP3 MLOAD DUP3 SSTORE SWAP2 PUSH1 0x20 ADD SWAP2 SWAP1 PUSH1 0x1 ADD SWAP1 PUSH2 0x1DA9 JUMP JUMPDEST POP PUSH2 0x1DD0 SWAP3 SWAP2 POP PUSH2 0x1DD4 JUMP JUMPDEST POP SWAP1 JUMP JUMPDEST JUMPDEST DUP1 DUP3 GT ISZERO PUSH2 0x1DD0 JUMPI PUSH1 0x0 DUP2 SSTORE PUSH1 0x1 ADD PUSH2 0x1DD5 JUMP JUMPDEST PUSH1 0x0 PUSH1 0x20 DUP3 DUP5 SUB SLT ISZERO PUSH2 0x1DFB JUMPI PUSH1 0x0 DUP1 REVERT JUMPDEST POP CALLDATALOAD SWAP2 SWAP1 POP JUMP JUMPDEST PUSH1 0x1 PUSH1 0x1 PUSH1 0xA0 SHL SUB AND SWAP1 MSTORE JUMP JUMPDEST PUSH4 0x4E487B71 PUSH1 0xE0 SHL PUSH1 0x0 MSTORE PUSH1 0x21 PUSH1 0x4 MSTORE PUSH1 0x24 PUSH1 0x0 REVERT JUMPDEST PUSH1 0x20 DUP1 DUP3 MSTORE DUP3 MLOAD DUP3 DUP3 ADD DUP2 SWAP1 MSTORE PUSH1 0x0 SWAP2 DUP5 ADD SWAP1 PUSH1 0x40 DUP5 ADD SWAP1 DUP4 JUMPDEST DUP2 DUP2 LT ISZERO PUSH2 0xD98 JUMPI DUP4 MLOAD DUP1 MLOAD PUSH1 0x1 PUSH1 0x1 PUSH1 0xA0 SHL SUB AND DUP5 MSTORE PUSH1 0x20 DUP1 DUP3 ADD MLOAD SWAP1 DUP6 ADD MSTORE PUSH1 0x40 ADD MLOAD PUSH1 0x5 DUP2 LT PUSH2 0x1E74 JUMPI PUSH2 0x1E74 PUSH2 0x1E0F JUMP JUMPDEST PUSH1 0x40 DUP5 ADD MSTORE PUSH1 0x20 SWAP4 SWAP1 SWAP4 ADD SWAP3 PUSH1 0x60 SWAP1 SWAP3 ADD SWAP2 PUSH1 0x1 ADD PUSH2 0x1E3F JUMP JUMPDEST PUSH1 0x0 PUSH1 0x20 DUP3 DUP5 SUB SLT ISZERO PUSH2 0x1EA0 JUMPI PUSH1 0x0 DUP1 REVERT JUMPDEST DUP2 CALLDATALOAD PUSH1 0x1 PUSH1 0x1 PUSH1 0xE0 SHL SUB NOT DUP2 AND DUP2 EQ PUSH2 0xF75 JUMPI PUSH1 0x0 DUP1 REVERT JUMPDEST PUSH1 0x0 DUP2 MLOAD DUP1 DUP5 MSTORE PUSH1 0x0 JUMPDEST DUP2 DUP2 LT ISZERO PUSH2 0x1EDE JUMPI PUSH1 0x20 DUP2 DUP6 ADD DUP2 ADD MLOAD DUP7 DUP4 ADD DUP3 ADD MSTORE ADD PUSH2 0x1EC2 JUMP JUMPDEST POP PUSH1 0x0 PUSH1 0x20 DUP3 DUP7 ADD ADD MSTORE PUSH1 0x20 PUSH1 0x1F NOT PUSH1 0x1F DUP4 ADD AND DUP6 ADD ADD SWAP2 POP POP SWAP3 SWAP2 POP POP JUMP JUMPDEST PUSH1 0x6 DUP2 LT PUSH2 0x1F0E JUMPI PUSH2 0x1F0E PUSH2 0x1E0F JUMP JUMPDEST SWAP1 MSTORE JUMP JUMPDEST PUSH1 0x20 DUP2 MSTORE DUP2 MLOAD PUSH1 0x20 DUP3 ADD MSTORE PUSH1 0x0 PUSH1 0x20 DUP4 ADD MLOAD PUSH2 0x1F31 PUSH1 0x40 DUP5 ADD DUP3 PUSH2 0x1E02 JUMP JUMPDEST POP PUSH1 0x40 DUP4 ADD MLOAD PUSH2 0x120 PUSH1 0x60 DUP5 ADD MSTORE PUSH2 0x1F4D PUSH2 0x140 DUP5 ADD DUP3 PUSH2 0x1EB8 JUMP JUMPDEST SWAP1 POP PUSH1 0x60 DUP5 ADD MLOAD PUSH2 0x1F61 PUSH1 0x80 DUP6 ADD DUP3 PUSH2 0x1EFE JUMP JUMPDEST POP PUSH1 0x80 DUP5 ADD MLOAD PUSH1 0xA0 DUP5 ADD MSTORE PUSH1 0xA0 DUP5 ADD MLOAD PUSH2 0x1F7E PUSH1 0xC0 DUP6 ADD DUP3 PUSH2 0x1E02 JUMP JUMPDEST POP PUSH1 0xC0 DUP5 ADD MLOAD DUP1 ISZERO ISZERO PUSH1 0xE0 DUP6 ADD MSTORE POP PUSH1 0xE0 DUP5 ADD MLOAD DUP4 DUP3 SUB PUSH1 0x1F NOT ADD PUSH2 0x100 DUP6 ADD MSTORE PUSH2 0x1FA9 DUP3 DUP3 PUSH2 0x1EB8 JUMP JUMPDEST SWAP2 POP POP PUSH2 0x100 DUP5 ADD MLOAD PUSH2 0x120 DUP5 ADD MSTORE DUP1 SWAP2 POP POP SWAP3 SWAP2 POP POP JUMP JUMPDEST DUP1 CALLDATALOAD PUSH1 0x1 PUSH1 0x1 PUSH1 0xA0 SHL SUB DUP2 AND DUP2 EQ PUSH2 0x1FD9 JUMPI PUSH1 0x0 DUP1 REVERT JUMPDEST SWAP2 SWAP1 POP JUMP JUMPDEST PUSH4 0x4E487B71 PUSH1 0xE0 SHL PUSH1 0x0 MSTORE PUSH1 0x41 PUSH1 0x4 MSTORE PUSH1 0x24 PUSH1 0x0 REVERT JUMPDEST PUSH1 0x40 MLOAD PUSH1 0x1F DUP3 ADD PUSH1 0x1F NOT AND DUP2 ADD PUSH1 0x1 PUSH1 0x1 PUSH1 0x40 SHL SUB DUP2 GT DUP3 DUP3 LT OR ISZERO PUSH2 0x201C JUMPI PUSH2 0x201C PUSH2 0x1FDE JUMP JUMPDEST PUSH1 0x40 MSTORE SWAP2 SWAP1 POP JUMP JUMPDEST PUSH1 0x0 DUP3 PUSH1 0x1F DUP4 ADD SLT PUSH2 0x2035 JUMPI PUSH1 0x0 DUP1 REVERT JUMPDEST DUP2 CALLDATALOAD PUSH1 0x1 PUSH1 0x1 PUSH1 0x40 SHL SUB DUP2 GT ISZERO PUSH2 0x204E JUMPI PUSH2 0x204E PUSH2 0x1FDE JUMP JUMPDEST PUSH2 0x2061 PUSH1 0x1F DUP3 ADD PUSH1 0x1F NOT AND PUSH1 0x20 ADD PUSH2 0x1FF4 JUMP JUMPDEST DUP2 DUP2 MSTORE DUP5 PUSH1 0x20 DUP4 DUP7 ADD ADD GT ISZERO PUSH2 0x2076 JUMPI PUSH1 0x0 DUP1 REVERT JUMPDEST DUP2 PUSH1 0x20 DUP6 ADD PUSH1 0x20 DUP4 ADD CALLDATACOPY PUSH1 0x0 SWAP2 DUP2 ADD PUSH1 0x20 ADD SWAP2 SWAP1 SWAP2 MSTORE SWAP4 SWAP3 POP POP POP JUMP JUMPDEST DUP1 CALLDATALOAD PUSH1 0x6 DUP2 LT PUSH2 0x1FD9 JUMPI PUSH1 0x0 DUP1 REVERT JUMPDEST PUSH1 0x0 DUP1 PUSH1 0x0 DUP1 PUSH1 0x80 DUP6 DUP8 SUB SLT ISZERO PUSH2 0x20B8 JUMPI PUSH1 0x0 DUP1 REVERT JUMPDEST PUSH2 0x20C1 DUP6 PUSH2 0x1FC2 JUMP JUMPDEST SWAP4 POP PUSH1 0x20 DUP6 ADD CALLDATALOAD PUSH1 0x1 PUSH1 0x1 PUSH1 0x40 SHL SUB DUP2 GT ISZERO PUSH2 0x20DC JUMPI PUSH1 0x0 DUP1 REVERT JUMPDEST PUSH2 0x20E8 DUP8 DUP3 DUP9 ADD PUSH2 0x2024 JUMP JUMPDEST SWAP4 POP POP PUSH2 0x20F7 PUSH1 0x40 DUP7 ADD PUSH2 0x2093 JUMP JUMPDEST SWAP2 POP PUSH1 0x60 DUP6 ADD CALLDATALOAD PUSH1 0x1 PUSH1 0x1 PUSH1 0x40 SHL SUB DUP2 GT ISZERO PUSH2 0x2112 JUMPI PUSH1 0x0 DUP1 REVERT JUMPDEST PUSH2 0x211E DUP8 DUP3 DUP9 ADD PUSH2 0x2024 JUMP JUMPDEST SWAP2 POP POP SWAP3 SWAP6 SWAP2 SWAP5 POP SWAP3 POP JUMP JUMPDEST PUSH1 0x0 PUSH1 0x20 DUP3 DUP5 SUB SLT ISZERO PUSH2 0x213C JUMPI PUSH1 0x0 DUP1 REVERT JUMPDEST PUSH2 0xF75 DUP3 PUSH2 0x1FC2 JUMP JUMPDEST PUSH1 0x0 DUP2 MLOAD DUP1 DUP5 MSTORE PUSH1 0x20 DUP5 ADD SWAP4 POP PUSH1 0x20 DUP4 ADD PUSH1 0x0 JUMPDEST DUP3 DUP2 LT ISZERO PUSH2 0x2177 JUMPI DUP2 MLOAD DUP7 MSTORE PUSH1 0x20 SWAP6 DUP7 ADD SWAP6 SWAP1 SWAP2 ADD SWAP1 PUSH1 0x1 ADD PUSH2 0x2159 JUMP JUMPDEST POP SWAP4 SWAP5 SWAP4 POP POP POP POP JUMP JUMPDEST PUSH1 0x20 DUP2 MSTORE PUSH1 0x0 PUSH2 0xF75 PUSH1 0x20 DUP4 ADD DUP5 PUSH2 0x2145 JUMP JUMPDEST PUSH1 0x0 DUP1 PUSH1 0x0 PUSH1 0x60 DUP5 DUP7 SUB SLT ISZERO PUSH2 0x21A9 JUMPI PUSH1 0x0 DUP1 REVERT JUMPDEST DUP4 CALLDATALOAD PUSH1 0x1 PUSH1 0x1 PUSH1 0x40 SHL SUB DUP2 GT ISZERO PUSH2 0x21BF JUMPI PUSH1 0x0 DUP1 REVERT JUMPDEST PUSH2 0x21CB DUP7 DUP3 DUP8 ADD PUSH2 0x2024 JUMP JUMPDEST SWAP4 POP POP PUSH2 0x21DA PUSH1 0x20 DUP6 ADD PUSH2 0x2093 JUMP JUMPDEST SWAP2 POP PUSH1 0x40 DUP5 ADD CALLDATALOAD PUSH1 0x1 PUSH1 0x1 PUSH1 0x40 SHL SUB DUP2 GT ISZERO PUSH2 0x21F5 JUMPI PUSH1 0x0 DUP1 REVERT JUMPDEST PUSH2 0x2201 DUP7 DUP3 DUP8 ADD PUSH2 0x2024 JUMP JUMPDEST SWAP2 POP POP SWAP3 POP SWAP3 POP SWAP3 JUMP JUMPDEST PUSH1 0x0 DUP1 PUSH1 0x40 DUP4 DUP6 SUB SLT ISZERO PUSH2 0x221E JUMPI PUSH1 0x0 DUP1 REVERT JUMPDEST DUP3 CALLDATALOAD SWAP2 POP PUSH2 0x222E PUSH1 0x20 DUP5 ADD PUSH2 0x1FC2 JUMP JUMPDEST SWAP1 POP SWAP3 POP SWAP3 SWAP1 POP JUMP JUMPDEST PUSH1 0x0 DUP1 PUSH1 0x0 PUSH1 0x60 DUP5 DUP7 SUB SLT ISZERO PUSH2 0x224C JUMPI PUSH1 0x0 DUP1 REVERT JUMPDEST DUP4 CALLDATALOAD SWAP3 POP PUSH1 0x20 DUP5 ADD CALLDATALOAD PUSH1 0x1 PUSH1 0x1 PUSH1 0x40 SHL SUB DUP2 GT ISZERO PUSH2 0x2269 JUMPI PUSH1 0x0 DUP1 REVERT JUMPDEST PUSH2 0x2275 DUP7 DUP3 DUP8 ADD PUSH2 0x2024 JUMP JUMPDEST SWAP3 POP POP PUSH1 0x40 DUP5 ADD CALLDATALOAD PUSH1 0x1 PUSH1 0x1 PUSH1 0x40 SHL SUB DUP2 GT ISZERO PUSH2 0x21F5 JUMPI PUSH1 0x0 DUP1 REVERT JUMPDEST PUSH1 0x0 DUP1 PUSH1 0x40 DUP4 DUP6 SUB SLT ISZERO PUSH2 0x22A4 JUMPI PUSH1 0x0 DUP1 REVERT JUMPDEST PUSH2 0x22AD DUP4 PUSH2 0x1FC2 JUMP JUMPDEST SWAP2 POP PUSH2 0x222E PUSH1 0x20 DUP5 ADD PUSH2 0x1FC2 JUMP JUMPDEST PUSH1 0x20 DUP1 DUP3 MSTORE DUP3 MLOAD PUSH1 0x1 PUSH1 0x1 PUSH1 0xA0 SHL SUB AND DUP3 DUP3 ADD MSTORE DUP3 ADD MLOAD PUSH1 0xA0 PUSH1 0x40 DUP4 ADD MSTORE PUSH1 0x0 SWAP1 PUSH2 0x22E9 PUSH1 0xC0 DUP5 ADD DUP3 PUSH2 0x2145 JUMP JUMPDEST SWAP1 POP PUSH1 0x40 DUP5 ADD MLOAD PUSH1 0x60 DUP5 ADD MSTORE PUSH1 0x60 DUP5 ADD MLOAD ISZERO ISZERO PUSH1 0x80 DUP5 ADD MSTORE PUSH1 0x80 DUP5 ADD MLOAD PUSH1 0xA0 DUP5 ADD MSTORE DUP1 SWAP2 POP POP SWAP3 SWAP2 POP POP JUMP JUMPDEST PUSH1 0x1 PUSH1 0x1 PUSH1 0xA0 SHL SUB SWAP2 SWAP1 SWAP2 AND DUP2 MSTORE PUSH1 0x20 ADD SWAP1 JUMP JUMPDEST PUSH1 0x0 DUP1 PUSH1 0x0 PUSH1 0x60 DUP5 DUP7 SUB SLT ISZERO PUSH2 0x233E JUMPI PUSH1 0x0 DUP1 REVERT JUMPDEST PUSH2 0x2347 DUP5 PUSH2 0x1FC2 JUMP JUMPDEST SWAP3 POP PUSH1 0x20 DUP5 ADD CALLDATALOAD PUSH1 0x1 PUSH1 0x1 PUSH1 0x40 SHL SUB DUP2 GT ISZERO PUSH2 0x2362 JUMPI PUSH1 0x0 DUP1 REVERT JUMPDEST DUP5 ADD PUSH1 0x1F DUP2 ADD DUP7 SGT PUSH2 0x2373 JUMPI PUSH1 0x0 DUP1 REVERT JUMPDEST DUP1 CALLDATALOAD PUSH1 0x1 PUSH1 0x1 PUSH1 0x40 SHL SUB DUP2 GT ISZERO PUSH2 0x238C JUMPI PUSH2 0x238C PUSH2 0x1FDE JUMP JUMPDEST DUP1 PUSH1 0x5 SHL PUSH2 0x239C PUSH1 0x20 DUP3 ADD PUSH2 0x1FF4 JUMP JUMPDEST SWAP2 DUP3 MSTORE PUSH1 0x20 DUP2 DUP5 ADD DUP2 ADD SWAP3 SWAP1 DUP2 ADD SWAP1 DUP10 DUP5 GT ISZERO PUSH2 0x23B8 JUMPI PUSH1 0x0 DUP1 REVERT JUMPDEST PUSH1 0x20 DUP6 ADD SWAP5 POP JUMPDEST DUP4 DUP6 LT ISZERO PUSH2 0x23DE JUMPI DUP5 CALLDATALOAD DUP1 DUP4 MSTORE PUSH1 0x20 SWAP6 DUP7 ADD SWAP6 SWAP1 SWAP4 POP SWAP1 SWAP2 ADD SWAP1 PUSH2 0x23BF JUMP JUMPDEST SWAP7 SWAP10 SWAP7 SWAP9 POP POP POP POP PUSH1 0x40 SWAP5 SWAP1 SWAP5 ADD CALLDATALOAD SWAP4 POP POP POP JUMP JUMPDEST PUSH1 0x0 DUP1 PUSH1 0x40 DUP4 DUP6 SUB SLT ISZERO PUSH2 0x2406 JUMPI PUSH1 0x0 DUP1 REVERT JUMPDEST DUP3 CALLDATALOAD SWAP2 POP PUSH1 0x20 DUP4 ADD CALLDATALOAD PUSH1 0x5 DUP2 LT PUSH2 0x241C JUMPI PUSH1 0x0 DUP1 REVERT JUMPDEST DUP1 SWAP2 POP POP SWAP3 POP SWAP3 SWAP1 POP JUMP JUMPDEST PUSH1 0x0 DUP1 PUSH1 0x0 PUSH1 0x60 DUP5 DUP7 SUB SLT ISZERO PUSH2 0x243C JUMPI PUSH1 0x0 DUP1 REVERT JUMPDEST PUSH2 0x2445 DUP5 PUSH2 0x1FC2 JUMP JUMPDEST SWAP3 POP PUSH2 0x2453 PUSH1 0x20 DUP6 ADD PUSH2 0x1FC2 JUMP JUMPDEST SWAP3 SWAP6 SWAP3 SWAP5 POP POP POP PUSH1 0x40 SWAP2 SWAP1 SWAP2 ADD CALLDATALOAD SWAP1 JUMP JUMPDEST PUSH1 0x20 DUP1 DUP3 MSTORE PUSH1 0x15 SWAP1 DUP3 ADD MSTORE PUSH21 0x149958DBDC9908191BD95CC81B9BDD08195E1A5CDD PUSH1 0x5A SHL PUSH1 0x40 DUP3 ADD MSTORE PUSH1 0x60 ADD SWAP1 JUMP JUMPDEST PUSH1 0x20 DUP1 DUP3 MSTORE PUSH1 0x14 SWAP1 DUP3 ADD MSTORE PUSH20 0x5265636F7264206973206E6F7420616374697665 PUSH1 0x60 SHL PUSH1 0x40 DUP3 ADD MSTORE PUSH1 0x60 ADD SWAP1 JUMP JUMPDEST PUSH1 0x20 DUP1 DUP3 MSTORE PUSH1 0x24 SWAP1 DUP3 ADD MSTORE PUSH32 0x4F6E6C792070617469656E742063616E20706572666F726D2074686973206163 PUSH1 0x40 DUP3 ADD MSTORE PUSH4 0x3A34B7B7 PUSH1 0xE1 SHL PUSH1 0x60 DUP3 ADD MSTORE PUSH1 0x80 ADD SWAP1 JUMP JUMPDEST PUSH1 0x20 DUP1 DUP3 MSTORE PUSH1 0x24 SWAP1 DUP3 ADD MSTORE PUSH32 0x4E6F7420617574686F72697A656420746F206163636573732074686973207265 PUSH1 0x40 DUP3 ADD MSTORE PUSH4 0x18DBDC99 PUSH1 0xE2 SHL PUSH1 0x60 DUP3 ADD MSTORE PUSH1 0x80 ADD SWAP1 JUMP JUMPDEST PUSH1 0x1 DUP2 DUP2 SHR SWAP1 DUP3 AND DUP1 PUSH2 0x255D JUMPI PUSH1 0x7F DUP3 AND SWAP2 POP JUMPDEST PUSH1 0x20 DUP3 LT DUP2 SUB PUSH2 0x257D JUMPI PUSH4 0x4E487B71 PUSH1 0xE0 SHL PUSH1 0x0 MSTORE PUSH1 0x22 PUSH1 0x4 MSTORE PUSH1 0x24 PUSH1 0x0 REVERT JUMPDEST POP SWAP2 SWAP1 POP JUMP JUMPDEST PUSH1 0x20 DUP1 DUP3 MSTORE PUSH1 0x19 SWAP1 DUP3 ADD MSTORE PUSH25 0x4950465320686173682063616E6E6F7420626520656D707479 PUSH1 0x38 SHL PUSH1 0x40 DUP3 ADD MSTORE PUSH1 0x60 ADD SWAP1 JUMP JUMPDEST PUSH4 0x4E487B71 PUSH1 0xE0 SHL PUSH1 0x0 MSTORE PUSH1 0x11 PUSH1 0x4 MSTORE PUSH1 0x24 PUSH1 0x0 REVERT JUMPDEST PUSH1 0x0 PUSH1 0x1 DUP3 ADD PUSH2 0x25DE JUMPI PUSH2 0x25DE PUSH2 0x25B6 JUMP JUMPDEST POP PUSH1 0x1 ADD SWAP1 JUMP JUMPDEST PUSH1 0x1F DUP3 GT ISZERO PUSH2 0x1001 JUMPI DUP1 PUSH1 0x0 MSTORE PUSH1 0x20 PUSH1 0x0 KECCAK256 PUSH1 0x1F DUP5 ADD PUSH1 0x5 SHR DUP2 ADD PUSH1 0x20 DUP6 LT ISZERO PUSH2 0x260C JUMPI POP DUP1 JUMPDEST PUSH1 0x1F DUP5 ADD PUSH1 0x5 SHR DUP3 ADD SWAP2 POP JUMPDEST DUP2 DUP2 LT ISZERO PUSH2 0x262C JUMPI PUSH1 0x0 DUP2 SSTORE PUSH1 0x1 ADD PUSH2 0x2618 JUMP JUMPDEST POP POP POP POP POP JUMP JUMPDEST DUP2 MLOAD PUSH1 0x1 PUSH1 0x1 PUSH1 0x40 SHL SUB DUP2 GT ISZERO PUSH2 0x264C JUMPI PUSH2 0x264C PUSH2 0x1FDE JUMP JUMPDEST PUSH2 0x2660 DUP2 PUSH2 0x265A DUP5 SLOAD PUSH2 0x2549 JUMP JUMPDEST DUP5 PUSH2 0x25E5 JUMP JUMPDEST PUSH1 0x20 PUSH1 0x1F DUP3 GT PUSH1 0x1 DUP2 EQ PUSH2 0x2694 JUMPI PUSH1 0x0 DUP4 ISZERO PUSH2 0x267C JUMPI POP DUP5 DUP3 ADD MLOAD JUMPDEST PUSH1 0x0 NOT PUSH1 0x3 DUP6 SWAP1 SHL SHR NOT AND PUSH1 0x1 DUP5 SWAP1 SHL OR DUP5 SSTORE PUSH2 0x262C JUMP JUMPDEST PUSH1 0x0 DUP5 DUP2 MSTORE PUSH1 0x20 DUP2 KECCAK256 PUSH1 0x1F NOT DUP6 AND SWAP2 JUMPDEST DUP3 DUP2 LT ISZERO PUSH2 0x26C4 JUMPI DUP8 DUP6 ADD MLOAD DUP3 SSTORE PUSH1 0x20 SWAP5 DUP6 ADD SWAP5 PUSH1 0x1 SWAP1 SWAP3 ADD SWAP2 ADD PUSH2 0x26A4 JUMP JUMPDEST POP DUP5 DUP3 LT ISZERO PUSH2 0x26E2 JUMPI DUP7 DUP5 ADD MLOAD PUSH1 0x0 NOT PUSH1 0x3 DUP8 SWAP1 SHL PUSH1 0xF8 AND SHR NOT AND DUP2 SSTORE JUMPDEST POP POP POP POP PUSH1 0x1 SWAP1 DUP2 SHL ADD SWAP1 SSTORE POP JUMP JUMPDEST PUSH1 0x40 DUP2 MSTORE PUSH1 0x0 PUSH2 0x2704 PUSH1 0x40 DUP4 ADD DUP6 PUSH2 0x1EB8 JUMP JUMPDEST SWAP1 POP PUSH2 0xF75 PUSH1 0x20 DUP4 ADD DUP5 PUSH2 0x1EFE JUMP JUMPDEST PUSH1 0x20 DUP1 DUP3 MSTORE PUSH1 0xE SWAP1 DUP3 ADD MSTORE PUSH14 0x139BDD08185D5D1A1BDC9A5E9959 PUSH1 0x92 SHL PUSH1 0x40 DUP3 ADD MSTORE PUSH1 0x60 ADD SWAP1 JUMP JUMPDEST PUSH4 0x4E487B71 PUSH1 0xE0 SHL PUSH1 0x0 MSTORE PUSH1 0x32 PUSH1 0x4 MSTORE PUSH1 0x24 PUSH1 0x0 REVERT JUMPDEST PUSH1 0x40 DUP2 MSTORE PUSH1 0x0 PUSH2 0x2764 PUSH1 0x40 DUP4 ADD DUP6 PUSH2 0x1EB8 JUMP JUMPDEST SWAP1 POP DUP3 PUSH1 0x20 DUP4 ADD MSTORE SWAP4 SWAP3 POP POP POP JUMP JUMPDEST PUSH1 0x20 DUP1 DUP3 MSTORE PUSH1 0xF SWAP1 DUP3 ADD MSTORE PUSH15 0x496E76616C69642061646472657373 PUSH1 0x88 SHL PUSH1 0x40 DUP3 ADD MSTORE PUSH1 0x60 ADD SWAP1 JUMP JUMPDEST DUP1 DUP3 MUL DUP2 ISZERO DUP3 DUP3 DIV DUP5 EQ OR PUSH2 0x572 JUMPI PUSH2 0x572 PUSH2 0x25B6 JUMP JUMPDEST DUP1 DUP3 ADD DUP1 DUP3 GT ISZERO PUSH2 0x572 JUMPI PUSH2 0x572 PUSH2 0x25B6 JUMP INVALID ORIGIN 0xB3 XOR DUP12 PUSH3 0x628AAB 0xF6 MSIZE 0xCE 0xBB 0xAB LT 0xA5 SWAP10 0xB5 CODECOPY 0xBC 0xB0 0xC0 BYTE DUP10 BYTE 0xB2 CALLF 0x7B8B CALLF 0x1571 0x2E XOR 0xD9 SELFDESTRUCT GASLIMIT 0x4D 0xE9 DUP10 0xBD SLT PUSH12 0x6BD404B47EDE75F9E65543E SWAP5 0xE8 0xD2 SLT EXTCALL SWAP14 PUSH30 0xCBB87CA264697066735822122085821004D0BD325CB663E540D5AED94182 COINBASE 0xCB 0xA9 EXTSTATICCALL PUSH7 0x5BD72093C195AC 0xBC 0xE DUP11 PUSH5 0x736F6C6343 STOP ADDMOD 0x1F STOP CALLER "
				},
				"gasEstimates": {
					"creation": {
						"codeDepositCost": "2060000",
						"executionCost": "56674",
						"totalCost": "2116674"
					},
					"external": {
						"DEFAULT_ADMIN_ROLE()": "679",
						"PROVIDER_ROLE()": "infinite",
						"addRecord(string,uint8,string)": "infinite",
						"addRecordByProvider(address,string,uint8,string)": "infinite",
						"authorizeProvider(address)": "infinite",
						"deleteRecord(uint256)": "31155",
						"emergencyContact(address)": "3088",
						"getAccessGrant(address,address)": "infinite",
						"getAuditLogs(uint256)": "infinite",
						"getPatientRecords(address)": "infinite",
						"getRecord(uint256)": "infinite",
						"getRoleAdmin(bytes32)": "2660",
						"getTotalRecords()": "2347",
						"grantAccess(address,uint256[],uint256)": "infinite",
						"grantRole(bytes32,address)": "infinite",
						"hasAccess(address,address,uint256)": "infinite",
						"hasRole(bytes32,address)": "3083",
						"isAuthorizedProvider(address)": "infinite",
						"logAccess(uint256,uint8)": "infinite",
						"owner()": "2744",
						"renounceOwnership()": "infinite",
						"renounceRole(bytes32,address)": "29293",
						"revokeAccess(address)": "28824",
						"revokeProviderAuthorization(address)": "infinite",
						"revokeRole(bytes32,address)": "infinite",
						"setEmergencyContact(address)": "25070",
						"supportsInterface(bytes4)": "437",
						"transferOwnership(address)": "28972",
						"updateRecord(uint256,string,string)": "infinite"
					},
					"internal": {
						"hasGeneralAccess(address,address)": "infinite"
					}
				},
				"methodIdentifiers": {
					"DEFAULT_ADMIN_ROLE()": "a217fddf",
					"PROVIDER_ROLE()": "24c20a34",
					"addRecord(string,uint8,string)": "1b6377b8",
					"addRecordByProvider(address,string,uint8,string)": "0e8dce29",
					"authorizeProvider(address)": "112ea262",
					"deleteRecord(uint256)": "061f9811",
					"emergencyContact(address)": "b4b07a70",
					"getAccessGrant(address,address)": "8b681c7c",
					"getAuditLogs(uint256)": "01b1d324",
					"getPatientRecords(address)": "18bd4847",
					"getRecord(uint256)": "03e9e609",
					"getRoleAdmin(bytes32)": "248a9ca3",
					"getTotalRecords()": "0aeacb5e",
					"grantAccess(address,uint256[],uint256)": "9399e973",
					"grantRole(bytes32,address)": "2f2ff15d",
					"hasAccess(address,address,uint256)": "cf56b4eb",
					"hasRole(bytes32,address)": "91d14854",
					"isAuthorizedProvider(address)": "22770d8e",
					"logAccess(uint256,uint8)": "a02bd29c",
					"owner()": "8da5cb5b",
					"renounceOwnership()": "715018a6",
					"renounceRole(bytes32,address)": "36568abe",
					"revokeAccess(address)": "85e68531",
					"revokeProviderAuthorization(address)": "b9952215",
					"revokeRole(bytes32,address)": "d547741f",
					"setEmergencyContact(address)": "91284a89",
					"supportsInterface(bytes4)": "01ffc9a7",
					"transferOwnership(address)": "f2fde38b",
					"updateRecord(uint256,string,string)": "3812c6a8"
				}
			},
			"storageLayout": {
				"storage": [
					{
						"astId": 388,
						"contract": "contracts/HealthWallet.sol:HealthWallet",
						"label": "_owner",
						"offset": 0,
						"slot": "0",
						"type": "t_address"
					},
					{
						"astId": 27,
						"contract": "contracts/HealthWallet.sol:HealthWallet",
						"label": "_roles",
						"offset": 0,
						"slot": "1",
						"type": "t_mapping(t_bytes32,t_struct(RoleData)22_storage)"
					},
					{
						"astId": 665,
						"contract": "contracts/HealthWallet.sol:HealthWallet",
						"label": "patientRecords",
						"offset": 0,
						"slot": "2",
						"type": "t_mapping(t_address,t_array(t_uint256)dyn_storage)"
					},
					{
						"astId": 670,
						"contract": "contracts/HealthWallet.sol:HealthWallet",
						"label": "records",
						"offset": 0,
						"slot": "3",
						"type": "t_mapping(t_uint256,t_struct(HealthRecord)634_storage)"
					},
					{
						"astId": 677,
						"contract": "contracts/HealthWallet.sol:HealthWallet",
						"label": "accessGrants",
						"offset": 0,
						"slot": "4",
						"type": "t_mapping(t_address,t_mapping(t_address,t_struct(AccessGrant)646_storage))"
					},
					{
						"astId": 683,
						"contract": "contracts/HealthWallet.sol:HealthWallet",
						"label": "auditLogs",
						"offset": 0,
						"slot": "5",
						"type": "t_mapping(t_uint256,t_array(t_struct(AccessLog)660_storage)dyn_storage)"
					},
					{
						"astId": 687,
						"contract": "contracts/HealthWallet.sol:HealthWallet",
						"label": "emergencyContact",
						"offset": 0,
						"slot": "6",
						"type": "t_mapping(t_address,t_address)"
					},
					{
						"astId": 689,
						"contract": "contracts/HealthWallet.sol:HealthWallet",
						"label": "recordCounter",
						"offset": 0,
						"slot": "7",
						"type": "t_uint256"
					}
				],
				"types": {
					"t_address": {
						"encoding": "inplace",
						"label": "address",
						"numberOfBytes": "20"
					},
					"t_array(t_struct(AccessLog)660_storage)dyn_storage": {
						"base": "t_struct(AccessLog)660_storage",
						"encoding": "dynamic_array",
						"label": "struct HealthWallet.AccessLog[]",
						"numberOfBytes": "32"
					},
					"t_array(t_uint256)dyn_storage": {
						"base": "t_uint256",
						"encoding": "dynamic_array",
						"label": "uint256[]",
						"numberOfBytes": "32"
					},
					"t_bool": {
						"encoding": "inplace",
						"label": "bool",
						"numberOfBytes": "1"
					},
					"t_bytes32": {
						"encoding": "inplace",
						"label": "bytes32",
						"numberOfBytes": "32"
					},
					"t_enum(AuditAction)652": {
						"encoding": "inplace",
						"label": "enum HealthWallet.AuditAction",
						"numberOfBytes": "1"
					},
					"t_enum(RecordType)614": {
						"encoding": "inplace",
						"label": "enum HealthWallet.RecordType",
						"numberOfBytes": "1"
					},
					"t_mapping(t_address,t_address)": {
						"encoding": "mapping",
						"key": "t_address",
						"label": "mapping(address => address)",
						"numberOfBytes": "32",
						"value": "t_address"
					},
					"t_mapping(t_address,t_array(t_uint256)dyn_storage)": {
						"encoding": "mapping",
						"key": "t_address",
						"label": "mapping(address => uint256[])",
						"numberOfBytes": "32",
						"value": "t_array(t_uint256)dyn_storage"
					},
					"t_mapping(t_address,t_bool)": {
						"encoding": "mapping",
						"key": "t_address",
						"label": "mapping(address => bool)",
						"numberOfBytes": "32",
						"value": "t_bool"
					},
					"t_mapping(t_address,t_mapping(t_address,t_struct(AccessGrant)646_storage))": {
						"encoding": "mapping",
						"key": "t_address",
						"label": "mapping(address => mapping(address => struct HealthWallet.AccessGrant))",
						"numberOfBytes": "32",
						"value": "t_mapping(t_address,t_struct(AccessGrant)646_storage)"
					},
					"t_mapping(t_address,t_struct(AccessGrant)646_storage)": {
						"encoding": "mapping",
						"key": "t_address",
						"label": "mapping(address => struct HealthWallet.AccessGrant)",
						"numberOfBytes": "32",
						"value": "t_struct(AccessGrant)646_storage"
					},
					"t_mapping(t_bytes32,t_struct(RoleData)22_storage)": {
						"encoding": "mapping",
						"key": "t_bytes32",
						"label": "mapping(bytes32 => struct AccessControl.RoleData)",
						"numberOfBytes": "32",
						"value": "t_struct(RoleData)22_storage"
					},
					"t_mapping(t_uint256,t_array(t_struct(AccessLog)660_storage)dyn_storage)": {
						"encoding": "mapping",
						"key": "t_uint256",
						"label": "mapping(uint256 => struct HealthWallet.AccessLog[])",
						"numberOfBytes": "32",
						"value": "t_array(t_struct(AccessLog)660_storage)dyn_storage"
					},
					"t_mapping(t_uint256,t_struct(HealthRecord)634_storage)": {
						"encoding": "mapping",
						"key": "t_uint256",
						"label": "mapping(uint256 => struct HealthWallet.HealthRecord)",
						"numberOfBytes": "32",
						"value": "t_struct(HealthRecord)634_storage"
					},
					"t_string_storage": {
						"encoding": "bytes",
						"label": "string",
						"numberOfBytes": "32"
					},
					"t_struct(AccessGrant)646_storage": {
						"encoding": "inplace",
						"label": "struct HealthWallet.AccessGrant",
						"members": [
							{
								"astId": 636,
								"contract": "contracts/HealthWallet.sol:HealthWallet",
								"label": "grantedTo",
								"offset": 0,
								"slot": "0",
								"type": "t_address"
							},
							{
								"astId": 639,
								"contract": "contracts/HealthWallet.sol:HealthWallet",
								"label": "recordIds",
								"offset": 0,
								"slot": "1",
								"type": "t_array(t_uint256)dyn_storage"
							},
							{
								"astId": 641,
								"contract": "contracts/HealthWallet.sol:HealthWallet",
								"label": "expiryTime",
								"offset": 0,
								"slot": "2",
								"type": "t_uint256"
							},
							{
								"astId": 643,
								"contract": "contracts/HealthWallet.sol:HealthWallet",
								"label": "isActive",
								"offset": 0,
								"slot": "3",
								"type": "t_bool"
							},
							{
								"astId": 645,
								"contract": "contracts/HealthWallet.sol:HealthWallet",
								"label": "grantedAt",
								"offset": 0,
								"slot": "4",
								"type": "t_uint256"
							}
						],
						"numberOfBytes": "160"
					},
					"t_struct(AccessLog)660_storage": {
						"encoding": "inplace",
						"label": "struct HealthWallet.AccessLog",
						"members": [
							{
								"astId": 654,
								"contract": "contracts/HealthWallet.sol:HealthWallet",
								"label": "accessor",
								"offset": 0,
								"slot": "0",
								"type": "t_address"
							},
							{
								"astId": 656,
								"contract": "contracts/HealthWallet.sol:HealthWallet",
								"label": "timestamp",
								"offset": 0,
								"slot": "1",
								"type": "t_uint256"
							},
							{
								"astId": 659,
								"contract": "contracts/HealthWallet.sol:HealthWallet",
								"label": "action",
								"offset": 0,
								"slot": "2",
								"type": "t_enum(AuditAction)652"
							}
						],
						"numberOfBytes": "96"
					},
					"t_struct(HealthRecord)634_storage": {
						"encoding": "inplace",
						"label": "struct HealthWallet.HealthRecord",
						"members": [
							{
								"astId": 616,
								"contract": "contracts/HealthWallet.sol:HealthWallet",
								"label": "recordId",
								"offset": 0,
								"slot": "0",
								"type": "t_uint256"
							},
							{
								"astId": 618,
								"contract": "contracts/HealthWallet.sol:HealthWallet",
								"label": "patientAddress",
								"offset": 0,
								"slot": "1",
								"type": "t_address"
							},
							{
								"astId": 620,
								"contract": "contracts/HealthWallet.sol:HealthWallet",
								"label": "ipfsHash",
								"offset": 0,
								"slot": "2",
								"type": "t_string_storage"
							},
							{
								"astId": 623,
								"contract": "contracts/HealthWallet.sol:HealthWallet",
								"label": "recordType",
								"offset": 0,
								"slot": "3",
								"type": "t_enum(RecordType)614"
							},
							{
								"astId": 625,
								"contract": "contracts/HealthWallet.sol:HealthWallet",
								"label": "timestamp",
								"offset": 0,
								"slot": "4",
								"type": "t_uint256"
							},
							{
								"astId": 627,
								"contract": "contracts/HealthWallet.sol:HealthWallet",
								"label": "issuedBy",
								"offset": 0,
								"slot": "5",
								"type": "t_address"
							},
							{
								"astId": 629,
								"contract": "contracts/HealthWallet.sol:HealthWallet",
								"label": "isActive",
								"offset": 20,
								"slot": "5",
								"type": "t_bool"
							},
							{
								"astId": 631,
								"contract": "contracts/HealthWallet.sol:HealthWallet",
								"label": "encryptedKey",
								"offset": 0,
								"slot": "6",
								"type": "t_string_storage"
							},
							{
								"astId": 633,
								"contract": "contracts/HealthWallet.sol:HealthWallet",
								"label": "version",
								"offset": 0,
								"slot": "7",
								"type": "t_uint256"
							}
						],
						"numberOfBytes": "256"
					},
					"t_struct(RoleData)22_storage": {
						"encoding": "inplace",
						"label": "struct AccessControl.RoleData",
						"members": [
							{
								"astId": 19,
								"contract": "contracts/HealthWallet.sol:HealthWallet",
								"label": "hasRole",
								"offset": 0,
								"slot": "0",
								"type": "t_mapping(t_address,t_bool)"
							},
							{
								"astId": 21,
								"contract": "contracts/HealthWallet.sol:HealthWallet",
								"label": "adminRole",
								"offset": 0,
								"slot": "1",
								"type": "t_bytes32"
							}
						],
						"numberOfBytes": "64"
					},
					"t_uint256": {
						"encoding": "inplace",
						"label": "uint256",
						"numberOfBytes": "32"
					}
				}
			},
			"userdoc": {
				"kind": "user",
				"methods": {},
				"version": 1
			}
		}
	}
}