{
	"contracts/HealthWallet.sol": {
		"HealthWallet": {
			"abi": [
				{
					"inputs": [],
					"stateMutability": "nonpayable",
					"type": "constructor"
				},
				{
					"inputs": [],
					"name": "AccessControlBadConfirmation",
					"type": "error"
				},
				{
					"inputs": [
						{
							"internalType": "address",
							"name": "account",
							"type": "address"
						},
						{
							"internalType": "bytes32",
							"name": "neededRole",
							"type": "bytes32"
						}
					],
					"name": "AccessControlUnauthorizedAccount",
					"type": "error"
				},
				{
					"inputs": [
						{
							"internalType": "address",
							"name": "owner",
							"type": "address"
						}
					],
					"name": "OwnableInvalidOwner",
					"type": "error"
				},
				{
					"inputs": [
						{
							"internalType": "address",
							"name": "account",
							"type": "address"
						}
					],
					"name": "OwnableUnauthorizedAccount",
					"type": "error"
				},
				{
					"anonymous": false,
					"inputs": [
						{
							"indexed": true,
							"internalType": "address",
							"name": "patient",
							"type": "address"
						},
						{
							"indexed": true,
							"internalType": "address",
							"name": "grantedTo",
							"type": "address"
						},
						{
							"indexed": false,
							"internalType": "uint256",
							"name": "expiryTime",
							"type": "uint256"
						}
					],
					"name": "AccessGranted",
					"type": "event"
				},
				{
					"anonymous": false,
					"inputs": [
						{
							"indexed": true,
							"internalType": "address",
							"name": "patient",
							"type": "address"
						},
						{
							"indexed": true,
							"internalType": "address",
							"name": "revokedFrom",
							"type": "address"
						}
					],
					"name": "AccessRevoked",
					"type": "event"
				},
				{
					"anonymous": false,
					"inputs": [
						{
							"indexed": true,
							"internalType": "address",
							"name": "patient",
							"type": "address"
						},
						{
							"indexed": true,
							"internalType": "address",
							"name": "emergencyContact",
							"type": "address"
						},
						{
							"indexed": false,
							"internalType": "uint256",
							"name": "timestamp",
							"type": "uint256"
						}
					],
					"name": "EmergencyAccessUsed",
					"type": "event"
				},
				{
					"anonymous": false,
					"inputs": [
						{
							"indexed": true,
							"internalType": "address",
							"name": "previousOwner",
							"type": "address"
						},
						{
							"indexed": true,
							"internalType": "address",
							"name": "newOwner",
							"type": "address"
						}
					],
					"name": "OwnershipTransferred",
					"type": "event"
				},
				{
					"anonymous": false,
					"inputs": [
						{
							"indexed": true,
							"internalType": "uint256",
							"name": "recordId",
							"type": "uint256"
						},
						{
							"indexed": true,
							"internalType": "address",
							"name": "accessor",
							"type": "address"
						},
						{
							"indexed": false,
							"internalType": "uint256",
							"name": "timestamp",
							"type": "uint256"
						}
					],
					"name": "RecordAccessed",
					"type": "event"
				},
				{
					"anonymous": false,
					"inputs": [
						{
							"indexed": true,
							"internalType": "uint256",
							"name": "recordId",
							"type": "uint256"
						},
						{
							"indexed": true,
							"internalType": "address",
							"name": "patient",
							"type": "address"
						},
						{
							"indexed": false,
							"internalType": "string",
							"name": "ipfsHash",
							"type": "string"
						},
						{
							"indexed": false,
							"internalType": "enum HealthWallet.RecordType",
							"name": "recordType",
							"type": "uint8"
						}
					],
					"name": "RecordAdded",
					"type": "event"
				},
				{
					"anonymous": false,
					"inputs": [
						{
							"indexed": true,
							"internalType": "uint256",
							"name": "recordId",
							"type": "uint256"
						},
						{
							"indexed": false,
							"internalType": "string",
							"name": "newIpfsHash",
							"type": "string"
						},
						{
							"indexed": false,
							"internalType": "uint256",
							"name": "version",
							"type": "uint256"
						}
					],
					"name": "RecordUpdated",
					"type": "event"
				},
				{
					"anonymous": false,
					"inputs": [
						{
							"indexed": true,
							"internalType": "bytes32",
							"name": "role",
							"type": "bytes32"
						},
						{
							"indexed": true,
							"internalType": "bytes32",
							"name": "previousAdminRole",
							"type": "bytes32"
						},
						{
							"indexed": true,
							"internalType": "bytes32",
							"name": "newAdminRole",
							"type": "bytes32"
						}
					],
					"name": "RoleAdminChanged",
					"type": "event"
				},
				{
					"anonymous": false,
					"inputs": [
						{
							"indexed": true,
							"internalType": "bytes32",
							"name": "role",
							"type": "bytes32"
						},
						{
							"indexed": true,
							"internalType": "address",
							"name": "account",
							"type": "address"
						},
						{
							"indexed": true,
							"internalType": "address",
							"name": "sender",
							"type": "address"
						}
					],
					"name": "RoleGranted",
					"type": "event"
				},
				{
					"anonymous": false,
					"inputs": [
						{
							"indexed": true,
							"internalType": "bytes32",
							"name": "role",
							"type": "bytes32"
						},
						{
							"indexed": true,
							"internalType": "address",
							"name": "account",
							"type": "address"
						},
						{
							"indexed": true,
							"internalType": "address",
							"name": "sender",
							"type": "address"
						}
					],
					"name": "RoleRevoked",
					"type": "event"
				},
				{
					"inputs": [],
					"name": "DEFAULT_ADMIN_ROLE",
					"outputs": [
						{
							"internalType": "bytes32",
							"name": "",
							"type": "bytes32"
						}
					],
					"stateMutability": "view",
					"type": "function"
				},
				{
					"inputs": [],
					"name": "PROVIDER_ROLE",
					"outputs": [
						{
							"internalType": "bytes32",
							"name": "",
							"type": "bytes32"
						}
					],
					"stateMutability": "view",
					"type": "function"
				},
				{
					"inputs": [
						{
							"internalType": "string",
							"name": "_ipfsHash",
							"type": "string"
						},
						{
							"internalType": "enum HealthWallet.RecordType",
							"name": "_recordType",
							"type": "uint8"
						},
						{
							"internalType": "string",
							"name": "_encryptedKey",
							"type": "string"
						}
					],
					"name": "addRecord",
					"outputs": [
						{
							"internalType": "uint256",
							"name": "",
							"type": "uint256"
						}
					],
					"stateMutability": "nonpayable",
					"type": "function"
				},
				{
					"inputs": [
						{
							"internalType": "address",
							"name": "_patientAddress",
							"type": "address"
						},
						{
							"internalType": "string",
							"name": "_ipfsHash",
							"type": "string"
						},
						{
							"internalType": "enum HealthWallet.RecordType",
							"name": "_recordType",
							"type": "uint8"
						},
						{
							"internalType": "string",
							"name": "_encryptedKey",
							"type": "string"
						}
					],
					"name": "addRecordByProvider",
					"outputs": [
						{
							"internalType": "uint256",
							"name": "",
							"type": "uint256"
						}
					],
					"stateMutability": "nonpayable",
					"type": "function"
				},
				{
					"inputs": [
						{
							"internalType": "address",
							"name": "_provider",
							"type": "address"
						}
					],
					"name": "authorizeProvider",
					"outputs": [],
					"stateMutability": "nonpayable",
					"type": "function"
				},
				{
					"inputs": [
						{
							"internalType": "uint256",
							"name": "_recordId",
							"type": "uint256"
						}
					],
					"name": "deleteRecord",
					"outputs": [],
					"stateMutability": "nonpayable",
					"type": "function"
				},
				{
					"inputs": [
						{
							"internalType": "address",
							"name": "",
							"type": "address"
						}
					],
					"name": "emergencyContact",
					"outputs": [
						{
							"internalType": "address",
							"name": "",
							"type": "address"
						}
					],
					"stateMutability": "view",
					"type": "function"
				},
				{
					"inputs": [
						{
							"internalType": "address",
							"name": "_patient",
							"type": "address"
						},
						{
							"internalType": "address",
							"name": "_grantee",
							"type": "address"
						}
					],
					"name": "getAccessGrant",
					"outputs": [
						{
							"components": [
								{
									"internalType": "address",
									"name": "grantedTo",
									"type": "address"
								},
								{
									"internalType": "uint256[]",
									"name": "recordIds",
									"type": "uint256[]"
								},
								{
									"internalType": "uint256",
									"name": "expiryTime",
									"type": "uint256"
								},
								{
									"internalType": "bool",
									"name": "isActive",
									"type": "bool"
								},
								{
									"internalType": "uint256",
									"name": "grantedAt",
									"type": "uint256"
								}
							],
							"internalType": "struct HealthWallet.AccessGrant",
							"name": "",
							"type": "tuple"
						}
					],
					"stateMutability": "view",
					"type": "function"
				},
				{
					"inputs": [
						{
							"internalType": "uint256",
							"name": "_recordId",
							"type": "uint256"
						}
					],
					"name": "getAuditLogs",
					"outputs": [
						{
							"components": [
								{
									"internalType": "address",
									"name": "accessor",
									"type": "address"
								},
								{
									"internalType": "uint256",
									"name": "timestamp",
									"type": "uint256"
								},
								{
									"internalType": "enum HealthWallet.AuditAction",
									"name": "action",
									"type": "uint8"
								}
							],
							"internalType": "struct HealthWallet.AccessLog[]",
							"name": "",
							"type": "tuple[]"
						}
					],
					"stateMutability": "view",
					"type": "function"
				},
				{
					"inputs": [
						{
							"internalType": "address",
							"name": "_patient",
							"type": "address"
						}
					],
					"name": "getPatientRecords",
					"outputs": [
						{
							"internalType": "uint256[]",
							"name": "",
							"type": "uint256[]"
						}
					],
					"stateMutability": "view",
					"type": "function"
				},
				{
					"inputs": [
						{
							"internalType": "uint256",
							"name": "_recordId",
							"type": "uint256"
						}
					],
					"name": "getRecord",
					"outputs": [
						{
							"components": [
								{
									"internalType": "uint256",
									"name": "recordId",
									"type": "uint256"
								},
								{
									"internalType": "address",
									"name": "patientAddress",
									"type": "address"
								},
								{
									"internalType": "string",
									"name": "ipfsHash",
									"type": "string"
								},
								{
									"internalType": "enum HealthWallet.RecordType",
									"name": "recordType",
									"type": "uint8"
								},
								{
									"internalType": "uint256",
									"name": "timestamp",
									"type": "uint256"
								},
								{
									"internalType": "address",
									"name": "issuedBy",
									"type": "address"
								},
								{
									"internalType": "bool",
									"name": "isActive",
									"type": "bool"
								},
								{
									"internalType": "string",
									"name": "encryptedKey",
									"type": "string"
								},
								{
									"internalType": "uint256",
									"name": "version",
									"type": "uint256"
								}
							],
							"internalType": "struct HealthWallet.HealthRecord",
							"name": "",
							"type": "tuple"
						}
					],
					"stateMutability": "view",
					"type": "function"
				},
				{
					"inputs": [
						{
							"internalType": "bytes32",
							"name": "role",
							"type": "bytes32"
						}
					],
					"name": "getRoleAdmin",
					"outputs": [
						{
							"internalType": "bytes32",
							"name": "",
							"type": "bytes32"
						}
					],
					"stateMutability": "view",
					"type": "function"
				},
				{
					"inputs": [],
					"name": "getTotalRecords",
					"outputs": [
						{
							"internalType": "uint256",
							"name": "",
							"type": "uint256"
						}
					],
					"stateMutability": "view",
					"type": "function"
				},
				{
					"inputs": [
						{
							"internalType": "address",
							"name": "_grantee",
							"type": "address"
						},
						{
							"internalType": "uint256[]",
							"name": "_recordIds",
							"type": "uint256[]"
						},
						{
							"internalType": "uint256",
							"name": "_durationInDays",
							"type": "uint256"
						}
					],
					"name": "grantAccess",
					"outputs": [],
					"stateMutability": "nonpayable",
					"type": "function"
				},
				{
					"inputs": [
						{
							"internalType": "bytes32",
							"name": "role",
							"type": "bytes32"
						},
						{
							"internalType": "address",
							"name": "account",
							"type": "address"
						}
					],
					"name": "grantRole",
					"outputs": [],
					"stateMutability": "nonpayable",
					"type": "function"
				},
				{
					"inputs": [
						{
							"internalType": "address",
							"name": "_patient",
							"type": "address"
						},
						{
							"internalType": "address",
							"name": "_requester",
							"type": "address"
						},
						{
							"internalType": "uint256",
							"name": "_recordId",
							"type": "uint256"
						}
					],
					"name": "hasAccess",
					"outputs": [
						{
							"internalType": "bool",
							"name": "",
							"type": "bool"
						}
					],
					"stateMutability": "view",
					"type": "function"
				},
				{
					"inputs": [
						{
							"internalType": "bytes32",
							"name": "role",
							"type": "bytes32"
						},
						{
							"internalType": "address",
							"name": "account",
							"type": "address"
						}
					],
					"name": "hasRole",
					"outputs": [
						{
							"internalType": "bool",
							"name": "",
							"type": "bool"
						}
					],
					"stateMutability": "view",
					"type": "function"
				},
				{
					"inputs": [
						{
							"internalType": "address",
							"name": "_provider",
							"type": "address"
						}
					],
					"name": "isAuthorizedProvider",
					"outputs": [
						{
							"internalType": "bool",
							"name": "",
							"type": "bool"
						}
					],
					"stateMutability": "view",
					"type": "function"
				},
				{
					"inputs": [
						{
							"internalType": "uint256",
							"name": "_recordId",
							"type": "uint256"
						},
						{
							"internalType": "enum HealthWallet.AuditAction",
							"name": "_action",
							"type": "uint8"
						}
					],
					"name": "logAccess",
					"outputs": [],
					"stateMutability": "nonpayable",
					"type": "function"
				},
				{
					"inputs": [],
					"name": "owner",
					"outputs": [
						{
							"internalType": "address",
							"name": "",
							"type": "address"
						}
					],
					"stateMutability": "view",
					"type": "function"
				},
				{
					"inputs": [],
					"name": "renounceOwnership",
					"outputs": [],
					"stateMutability": "nonpayable",
					"type": "function"
				},
				{
					"inputs": [
						{
							"internalType": "bytes32",
							"name": "role",
							"type": "bytes32"
						},
						{
							"internalType": "address",
							"name": "callerConfirmation",
							"type": "address"
						}
					],
					"name": "renounceRole",
					"outputs": [],
					"stateMutability": "nonpayable",
					"type": "function"
				},
				{
					"inputs": [
						{
							"internalType": "address",
							"name": "_grantee",
							"type": "address"
						}
					],
					"name": "revokeAccess",
					"outputs": [],
					"stateMutability": "nonpayable",
					"type": "function"
				},
				{
					"inputs": [
						{
							"internalType": "address",
							"name": "_provider",
							"type": "address"
						}
					],
					"name": "revokeProviderAuthorization",
					"outputs": [],
					"stateMutability": "nonpayable",
					"type": "function"
				},
				{
					"inputs": [
						{
							"internalType": "bytes32",
							"name": "role",
							"type": "bytes32"
						},
						{
							"internalType": "address",
							"name": "account",
							"type": "address"
						}
					],
					"name": "revokeRole",
					"outputs": [],
					"stateMutability": "nonpayable",
					"type": "function"
				},
				{
					"inputs": [
						{
							"internalType": "address",
							"name": "_emergencyContact",
							"type": "address"
						}
					],
					"name": "setEmergencyContact",
					"outputs": [],
					"stateMutability": "nonpayable",
					"type": "function"
				},
				{
					"inputs": [
						{
							"internalType": "bytes4",
							"name": "interfaceId",
							"type": "bytes4"
						}
					],
					"name": "supportsInterface",
					"outputs": [
						{
							"internalType": "bool",
							"name": "",
							"type": "bool"
						}
					],
					"stateMutability": "view",
					"type": "function"
				},
				{
					"inputs": [
						{
							"internalType": "address",
							"name": "newOwner",
							"type": "address"
						}
					],
					"name": "transferOwnership",
					"outputs": [],
					"stateMutability": "nonpayable",
					"type": "function"
				},
				{
					"inputs": [
						{
							"internalType": "uint256",
							"name": "_recordId",
							"type": "uint256"
						},
						{
							"internalType": "string",
							"name": "_newIpfsHash",
							"type": "string"
						},
						{
							"internalType": "string",
							"name": "_newEncryptedKey",
							"type": "string"
						}
					],
					"name": "updateRecord",
					"outputs": [],
					"stateMutability": "nonpayable",
					"type": "function"
				}
			],
			"devdoc": {
				"details": "A decentralized health records management system Uses OpenZeppelin for secure access control",
				"errors": {
					"AccessControlBadConfirmation()": [
						{
							"details": "The caller of a function is not the expected one. NOTE: Don't confuse with {AccessControlUnauthorizedAccount}."
						}
					],
					"AccessControlUnauthorizedAccount(address,bytes32)": [
						{
							"details": "The `account` is missing a role."
						}
					],
					"OwnableInvalidOwner(address)": [
						{
							"details": "The owner is not a valid owner account. (eg. `address(0)`)"
						}
					],
					"OwnableUnauthorizedAccount(address)": [
						{
							"details": "The caller account is not authorized to perform an operation."
						}
					]
				},
				"events": {
					"RoleAdminChanged(bytes32,bytes32,bytes32)": {
						"details": "Emitted when `newAdminRole` is set as ``role``'s admin role, replacing `previousAdminRole` `DEFAULT_ADMIN_ROLE` is the starting admin for all roles, despite {RoleAdminChanged} not being emitted to signal this."
					},
					"RoleGranted(bytes32,address,address)": {
						"details": "Emitted when `account` is granted `role`. `sender` is the account that originated the contract call. This account bears the admin role (for the granted role). Expected in cases where the role was granted using the internal {AccessControl-_grantRole}."
					},
					"RoleRevoked(bytes32,address,address)": {
						"details": "Emitted when `account` is revoked `role`. `sender` is the account that originated the contract call:   - if using `revokeRole`, it is the admin role bearer   - if using `renounceRole`, it is the role bearer (i.e. `account`)"
					}
				},
				"kind": "dev",
				"methods": {
					"addRecord(string,uint8,string)": {
						"details": "Add a new health record"
					},
					"addRecordByProvider(address,string,uint8,string)": {
						"details": "Add a record issued by a healthcare provider"
					},
					"authorizeProvider(address)": {
						"details": "Authorize a healthcare provider (only admin) Uses OpenZeppelin's AccessControl"
					},
					"deleteRecord(uint256)": {
						"details": "Soft delete a record"
					},
					"getAccessGrant(address,address)": {
						"details": "Get access grant details"
					},
					"getAuditLogs(uint256)": {
						"details": "Get audit logs for a record"
					},
					"getPatientRecords(address)": {
						"details": "Get all record IDs for a patient"
					},
					"getRecord(uint256)": {
						"details": "Get details of a specific record"
					},
					"getRoleAdmin(bytes32)": {
						"details": "Returns the admin role that controls `role`. See {grantRole} and {revokeRole}. To change a role's admin, use {_setRoleAdmin}."
					},
					"getTotalRecords()": {
						"details": "Get total number of records"
					},
					"grantAccess(address,uint256[],uint256)": {
						"details": "Grant access to specific records"
					},
					"grantRole(bytes32,address)": {
						"details": "Grants `role` to `account`. If `account` had not been already granted `role`, emits a {RoleGranted} event. Requirements: - the caller must have ``role``'s admin role. May emit a {RoleGranted} event."
					},
					"hasAccess(address,address,uint256)": {
						"details": "Check if an address has access to a specific record"
					},
					"hasRole(bytes32,address)": {
						"details": "Returns `true` if `account` has been granted `role`."
					},
					"isAuthorizedProvider(address)": {
						"details": "Check if an address is an authorized provider"
					},
					"logAccess(uint256,uint8)": {
						"details": "Log access to a record"
					},
					"owner()": {
						"details": "Returns the address of the current owner."
					},
					"renounceOwnership()": {
						"details": "Leaves the contract without owner. It will not be possible to call `onlyOwner` functions. Can only be called by the current owner. NOTE: Renouncing ownership will leave the contract without an owner, thereby disabling any functionality that is only available to the owner."
					},
					"renounceRole(bytes32,address)": {
						"details": "Revokes `role` from the calling account. Roles are often managed via {grantRole} and {revokeRole}: this function's purpose is to provide a mechanism for accounts to lose their privileges if they are compromised (such as when a trusted device is misplaced). If the calling account had been revoked `role`, emits a {RoleRevoked} event. Requirements: - the caller must be `callerConfirmation`. May emit a {RoleRevoked} event."
					},
					"revokeAccess(address)": {
						"details": "Revoke access from a healthcare provider"
					},
					"revokeProviderAuthorization(address)": {
						"details": "Revoke provider authorization (only admin)"
					},
					"revokeRole(bytes32,address)": {
						"details": "Revokes `role` from `account`. If `account` had been granted `role`, emits a {RoleRevoked} event. Requirements: - the caller must have ``role``'s admin role. May emit a {RoleRevoked} event."
					},
					"setEmergencyContact(address)": {
						"details": "Set emergency contact"
					},
					"supportsInterface(bytes4)": {
						"details": "Returns true if this contract implements the interface defined by `interfaceId`. See the corresponding https://eips.ethereum.org/EIPS/eip-165#how-interfaces-are-identified[ERC section] to learn more about how these ids are created. This function call must use less than 30 000 gas."
					},
					"transferOwnership(address)": {
						"details": "Transfers ownership of the contract to a new account (`newOwner`). Can only be called by the current owner."
					},
					"updateRecord(uint256,string,string)": {
						"details": "Update an existing record"
					}
				},
				"title": "HealthWallet",
				"version": 1
			},
			"evm": {
				"assembly": "    /* \"contracts/HealthWallet.sol\":316:13450  contract HealthWallet is Ownable, AccessControl {... */\n  mstore(0x40, 0x80)\n    /* \"contracts/HealthWallet.sol\":2945:3040  constructor() Ownable(msg.sender) {... */\n  callvalue\n  dup1\n  iszero\n  tag_1\n  jumpi\n  0x00\n  dup1\n  revert\ntag_1:\n  pop\n    /* \"contracts/HealthWallet.sol\":2967:2977  msg.sender */\n  caller\n    /* \"@openzeppelin/contracts/access/Ownable.sol\":1297:1298  0 */\n  0x00\n    /* \"@openzeppelin/contracts/access/Ownable.sol\":1273:1299  initialOwner == address(0) */\n  0xffffffffffffffffffffffffffffffffffffffff\n  and\n    /* \"@openzeppelin/contracts/access/Ownable.sol\":1273:1285  initialOwner */\n  dup2\n    /* \"@openzeppelin/contracts/access/Ownable.sol\":1273:1299  initialOwner == address(0) */\n  0xffffffffffffffffffffffffffffffffffffffff\n  and\n  sub\n    /* \"@openzeppelin/contracts/access/Ownable.sol\":1269:1364  if (initialOwner == address(0)) {... */\n  tag_5\n  jumpi\n    /* \"@openzeppelin/contracts/access/Ownable.sol\":1350:1351  0 */\n  0x00\n    /* \"@openzeppelin/contracts/access/Ownable.sol\":1322:1353  OwnableInvalidOwner(address(0)) */\n  mload(0x40)\n  0x1e4fbdf700000000000000000000000000000000000000000000000000000000\n  dup2\n  mstore\n  0x04\n  add\n  tag_6\n  swap2\n  swap1\n  tag_7\n  jump\t// in\ntag_6:\n  mload(0x40)\n  dup1\n  swap2\n  sub\n  swap1\n  revert\n    /* \"@openzeppelin/contracts/access/Ownable.sol\":1269:1364  if (initialOwner == address(0)) {... */\ntag_5:\n    /* \"@openzeppelin/contracts/access/Ownable.sol\":1373:1405  _transferOwnership(initialOwner) */\n  tag_8\n    /* \"@openzeppelin/contracts/access/Ownable.sol\":1392:1404  initialOwner */\n  dup2\n    /* \"@openzeppelin/contracts/access/Ownable.sol\":1373:1391  _transferOwnership */\n  shl(0x20, tag_9)\n    /* \"@openzeppelin/contracts/access/Ownable.sol\":1373:1405  _transferOwnership(initialOwner) */\n  0x20\n  shr\n  jump\t// in\ntag_8:\n    /* \"@openzeppelin/contracts/access/Ownable.sol\":1225:1412  constructor(address initialOwner) {... */\n  pop\n    /* \"contracts/HealthWallet.sol\":2990:3032  _grantRole(DEFAULT_ADMIN_ROLE, msg.sender) */\n  tag_11\n    /* \"@openzeppelin/contracts/access/AccessControl.sol\":2241:2245  0x00 */\n  0x00\n    /* \"contracts/HealthWallet.sol\":3001:3019  DEFAULT_ADMIN_ROLE */\n  dup1\n  shl\n    /* \"contracts/HealthWallet.sol\":3021:3031  msg.sender */\n  caller\n    /* \"contracts/HealthWallet.sol\":2990:3000  _grantRole */\n  shl(0x20, tag_12)\n    /* \"contracts/HealthWallet.sol\":2990:3032  _grantRole(DEFAULT_ADMIN_ROLE, msg.sender) */\n  0x20\n  shr\n  jump\t// in\ntag_11:\n  pop\n    /* \"contracts/HealthWallet.sol\":316:13450  contract HealthWallet is Ownable, AccessControl {... */\n  jump(tag_13)\n    /* \"@openzeppelin/contracts/access/Ownable.sol\":2912:3099  function _transferOwnership(address newOwner) internal virtual {... */\ntag_9:\n    /* \"@openzeppelin/contracts/access/Ownable.sol\":2985:3001  address oldOwner */\n  0x00\n    /* \"@openzeppelin/contracts/access/Ownable.sol\":3004:3010  _owner */\n  dup1\n  0x00\n  swap1\n  sload\n  swap1\n  0x0100\n  exp\n  swap1\n  div\n  0xffffffffffffffffffffffffffffffffffffffff\n  and\n    /* \"@openzeppelin/contracts/access/Ownable.sol\":2985:3010  address oldOwner = _owner */\n  swap1\n  pop\n    /* \"@openzeppelin/contracts/access/Ownable.sol\":3029:3037  newOwner */\n  dup2\n    /* \"@openzeppelin/contracts/access/Ownable.sol\":3020:3026  _owner */\n  0x00\n  dup1\n    /* \"@openzeppelin/contracts/access/Ownable.sol\":3020:3037  _owner = newOwner */\n  0x0100\n  exp\n  dup2\n  sload\n  dup2\n  0xffffffffffffffffffffffffffffffffffffffff\n  mul\n  not\n  and\n  swap1\n  dup4\n  0xffffffffffffffffffffffffffffffffffffffff\n  and\n  mul\n  or\n  swap1\n  sstore\n  pop\n    /* \"@openzeppelin/contracts/access/Ownable.sol\":3083:3091  newOwner */\n  dup2\n    /* \"@openzeppelin/contracts/access/Ownable.sol\":3052:3092  OwnershipTransferred(oldOwner, newOwner) */\n  0xffffffffffffffffffffffffffffffffffffffff\n  and\n    /* \"@openzeppelin/contracts/access/Ownable.sol\":3073:3081  oldOwner */\n  dup2\n    /* \"@openzeppelin/contracts/access/Ownable.sol\":3052:3092  OwnershipTransferred(oldOwner, newOwner) */\n  0xffffffffffffffffffffffffffffffffffffffff\n  and\n  0x8be0079c531659141344cd1fd0a4f28419497f9722a3daafe3b4186f6b6457e0\n  mload(0x40)\n  mload(0x40)\n  dup1\n  swap2\n  sub\n  swap1\n  log3\n    /* \"@openzeppelin/contracts/access/Ownable.sol\":2975:3099  {... */\n  pop\n    /* \"@openzeppelin/contracts/access/Ownable.sol\":2912:3099  function _transferOwnership(address newOwner) internal virtual {... */\n  pop\n  jump\t// out\n    /* \"@openzeppelin/contracts/access/AccessControl.sol\":6155:6471  function _grantRole(bytes32 role, address account) internal virtual returns (bool) {... */\ntag_12:\n    /* \"@openzeppelin/contracts/access/AccessControl.sol\":6232:6236  bool */\n  0x00\n    /* \"@openzeppelin/contracts/access/AccessControl.sol\":6253:6275  hasRole(role, account) */\n  tag_16\n    /* \"@openzeppelin/contracts/access/AccessControl.sol\":6261:6265  role */\n  dup4\n    /* \"@openzeppelin/contracts/access/AccessControl.sol\":6267:6274  account */\n  dup4\n    /* \"@openzeppelin/contracts/access/AccessControl.sol\":6253:6260  hasRole */\n  shl(0x20, tag_17)\n    /* \"@openzeppelin/contracts/access/AccessControl.sol\":6253:6275  hasRole(role, account) */\n  0x20\n  shr\n  jump\t// in\ntag_16:\n    /* \"@openzeppelin/contracts/access/AccessControl.sol\":6248:6465  if (!hasRole(role, account)) {... */\n  tag_18\n  jumpi\n    /* \"@openzeppelin/contracts/access/AccessControl.sol\":6323:6327  true */\n  0x01\n    /* \"@openzeppelin/contracts/access/AccessControl.sol\":6291:6297  _roles */\n  dup1\n    /* \"@openzeppelin/contracts/access/AccessControl.sol\":6291:6303  _roles[role] */\n  0x00\n    /* \"@openzeppelin/contracts/access/AccessControl.sol\":6298:6302  role */\n  dup6\n    /* \"@openzeppelin/contracts/access/AccessControl.sol\":6291:6303  _roles[role] */\n  dup2\n  mstore\n  0x20\n  add\n  swap1\n  dup2\n  mstore\n  0x20\n  add\n  0x00\n  keccak256\n    /* \"@openzeppelin/contracts/access/AccessControl.sol\":6291:6311  _roles[role].hasRole */\n  0x00\n  add\n    /* \"@openzeppelin/contracts/access/AccessControl.sol\":6291:6320  _roles[role].hasRole[account] */\n  0x00\n    /* \"@openzeppelin/contracts/access/AccessControl.sol\":6312:6319  account */\n  dup5\n    /* \"@openzeppelin/contracts/access/AccessControl.sol\":6291:6320  _roles[role].hasRole[account] */\n  0xffffffffffffffffffffffffffffffffffffffff\n  and\n  0xffffffffffffffffffffffffffffffffffffffff\n  and\n  dup2\n  mstore\n  0x20\n  add\n  swap1\n  dup2\n  mstore\n  0x20\n  add\n  0x00\n  keccak256\n  0x00\n    /* \"@openzeppelin/contracts/access/AccessControl.sol\":6291:6327  _roles[role].hasRole[account] = true */\n  0x0100\n  exp\n  dup2\n  sload\n  dup2\n  0xff\n  mul\n  not\n  and\n  swap1\n  dup4\n  iszero\n  iszero\n  mul\n  or\n  swap1\n  sstore\n  pop\n    /* \"@openzeppelin/contracts/access/AccessControl.sol\":6373:6385  _msgSender() */\n  tag_19\n    /* \"@openzeppelin/contracts/access/AccessControl.sol\":6373:6383  _msgSender */\n  shl(0x20, tag_20)\n    /* \"@openzeppelin/contracts/access/AccessControl.sol\":6373:6385  _msgSender() */\n  0x20\n  shr\n  jump\t// in\ntag_19:\n    /* \"@openzeppelin/contracts/access/AccessControl.sol\":6346:6386  RoleGranted(role, account, _msgSender()) */\n  0xffffffffffffffffffffffffffffffffffffffff\n  and\n    /* \"@openzeppelin/contracts/access/AccessControl.sol\":6364:6371  account */\n  dup3\n    /* \"@openzeppelin/contracts/access/AccessControl.sol\":6346:6386  RoleGranted(role, account, _msgSender()) */\n  0xffffffffffffffffffffffffffffffffffffffff\n  and\n    /* \"@openzeppelin/contracts/access/AccessControl.sol\":6358:6362  role */\n  dup5\n    /* \"@openzeppelin/contracts/access/AccessControl.sol\":6346:6386  RoleGranted(role, account, _msgSender()) */\n  0x2f8788117e7eff1d82e926ec794901d17c78024a50270940304540a733656f0d\n  mload(0x40)\n  mload(0x40)\n  dup1\n  swap2\n  sub\n  swap1\n  log4\n    /* \"@openzeppelin/contracts/access/AccessControl.sol\":6407:6411  true */\n  0x01\n    /* \"@openzeppelin/contracts/access/AccessControl.sol\":6400:6411  return true */\n  swap1\n  pop\n  jump(tag_15)\n    /* \"@openzeppelin/contracts/access/AccessControl.sol\":6248:6465  if (!hasRole(role, account)) {... */\ntag_18:\n    /* \"@openzeppelin/contracts/access/AccessControl.sol\":6449:6454  false */\n  0x00\n    /* \"@openzeppelin/contracts/access/AccessControl.sol\":6442:6454  return false */\n  swap1\n  pop\n    /* \"@openzeppelin/contracts/access/AccessControl.sol\":6155:6471  function _grantRole(bytes32 role, address account) internal virtual returns (bool) {... */\ntag_15:\n  swap3\n  swap2\n  pop\n  pop\n  jump\t// out\n    /* \"@openzeppelin/contracts/access/AccessControl.sol\":2830:2966  function hasRole(bytes32 role, address account) public view virtual returns (bool) {... */\ntag_17:\n    /* \"@openzeppelin/contracts/access/AccessControl.sol\":2907:2911  bool */\n  0x00\n    /* \"@openzeppelin/contracts/access/AccessControl.sol\":2930:2936  _roles */\n  0x01\n    /* \"@openzeppelin/contracts/access/AccessControl.sol\":2930:2942  _roles[role] */\n  0x00\n    /* \"@openzeppelin/contracts/access/AccessControl.sol\":2937:2941  role */\n  dup5\n    /* \"@openzeppelin/contracts/access/AccessControl.sol\":2930:2942  _roles[role] */\n  dup2\n  mstore\n  0x20\n  add\n  swap1\n  dup2\n  mstore\n  0x20\n  add\n  0x00\n  keccak256\n    /* \"@openzeppelin/contracts/access/AccessControl.sol\":2930:2950  _roles[role].hasRole */\n  0x00\n  add\n    /* \"@openzeppelin/contracts/access/AccessControl.sol\":2930:2959  _roles[role].hasRole[account] */\n  0x00\n    /* \"@openzeppelin/contracts/access/AccessControl.sol\":2951:2958  account */\n  dup4\n    /* \"@openzeppelin/contracts/access/AccessControl.sol\":2930:2959  _roles[role].hasRole[account] */\n  0xffffffffffffffffffffffffffffffffffffffff\n  and\n  0xffffffffffffffffffffffffffffffffffffffff\n  and\n  dup2\n  mstore\n  0x20\n  add\n  swap1\n  dup2\n  mstore\n  0x20\n  add\n  0x00\n  keccak256\n  0x00\n  swap1\n  sload\n  swap1\n  0x0100\n  exp\n  swap1\n  div\n  0xff\n  and\n    /* \"@openzeppelin/contracts/access/AccessControl.sol\":2923:2959  return _roles[role].hasRole[account] */\n  swap1\n  pop\n    /* \"@openzeppelin/contracts/access/AccessControl.sol\":2830:2966  function hasRole(bytes32 role, address account) public view virtual returns (bool) {... */\n  swap3\n  swap2\n  pop\n  pop\n  jump\t// out\n    /* \"@openzeppelin/contracts/utils/Context.sol\":656:752  function _msgSender() internal view virtual returns (address) {... */\ntag_20:\n    /* \"@openzeppelin/contracts/utils/Context.sol\":709:716  address */\n  0x00\n    /* \"@openzeppelin/contracts/utils/Context.sol\":735:745  msg.sender */\n  caller\n    /* \"@openzeppelin/contracts/utils/Context.sol\":728:745  return msg.sender */\n  swap1\n  pop\n    /* \"@openzeppelin/contracts/utils/Context.sol\":656:752  function _msgSender() internal view virtual returns (address) {... */\n  swap1\n  jump\t// out\n    /* \"#utility.yul\":7:133   */\ntag_24:\n    /* \"#utility.yul\":44:51   */\n  0x00\n    /* \"#utility.yul\":84:126   */\n  0xffffffffffffffffffffffffffffffffffffffff\n    /* \"#utility.yul\":77:82   */\n  dup3\n    /* \"#utility.yul\":73:127   */\n  and\n    /* \"#utility.yul\":62:127   */\n  swap1\n  pop\n    /* \"#utility.yul\":7:133   */\n  swap2\n  swap1\n  pop\n  jump\t// out\n    /* \"#utility.yul\":139:235   */\ntag_25:\n    /* \"#utility.yul\":176:183   */\n  0x00\n    /* \"#utility.yul\":205:229   */\n  tag_30\n    /* \"#utility.yul\":223:228   */\n  dup3\n    /* \"#utility.yul\":205:229   */\n  tag_24\n  jump\t// in\ntag_30:\n    /* \"#utility.yul\":194:229   */\n  swap1\n  pop\n    /* \"#utility.yul\":139:235   */\n  swap2\n  swap1\n  pop\n  jump\t// out\n    /* \"#utility.yul\":241:359   */\ntag_26:\n    /* \"#utility.yul\":328:352   */\n  tag_32\n    /* \"#utility.yul\":346:351   */\n  dup2\n    /* \"#utility.yul\":328:352   */\n  tag_25\n  jump\t// in\ntag_32:\n    /* \"#utility.yul\":323:326   */\n  dup3\n    /* \"#utility.yul\":316:353   */\n  mstore\n    /* \"#utility.yul\":241:359   */\n  pop\n  pop\n  jump\t// out\n    /* \"#utility.yul\":365:587   */\ntag_7:\n    /* \"#utility.yul\":458:462   */\n  0x00\n    /* \"#utility.yul\":496:498   */\n  0x20\n    /* \"#utility.yul\":485:494   */\n  dup3\n    /* \"#utility.yul\":481:499   */\n  add\n    /* \"#utility.yul\":473:499   */\n  swap1\n  pop\n    /* \"#utility.yul\":509:580   */\n  tag_34\n    /* \"#utility.yul\":577:578   */\n  0x00\n    /* \"#utility.yul\":566:575   */\n  dup4\n    /* \"#utility.yul\":562:579   */\n  add\n    /* \"#utility.yul\":553:559   */\n  dup5\n    /* \"#utility.yul\":509:580   */\n  tag_26\n  jump\t// in\ntag_34:\n    /* \"#utility.yul\":365:587   */\n  swap3\n  swap2\n  pop\n  pop\n  jump\t// out\n    /* \"contracts/HealthWallet.sol\":316:13450  contract HealthWallet is Ownable, AccessControl {... */\ntag_13:\n  dataSize(sub_0)\n  dup1\n  dataOffset(sub_0)\n  0x00\n  codecopy\n  0x00\n  return\nstop\n\nsub_0: assembly {\n        /* \"contracts/HealthWallet.sol\":316:13450  contract HealthWallet is Ownable, AccessControl {... */\n      mstore(0x40, 0x80)\n      callvalue\n      dup1\n      iszero\n      tag_1\n      jumpi\n      0x00\n      dup1\n      revert\n    tag_1:\n      pop\n      jumpi(tag_2, lt(calldatasize, 0x04))\n      shr(0xe0, calldataload(0x00))\n      dup1\n      0x3812c6a8\n      gt\n      tag_32\n      jumpi\n      dup1\n      0x9399e973\n      gt\n      tag_33\n      jumpi\n      dup1\n      0xb9952215\n      gt\n      tag_34\n      jumpi\n      dup1\n      0xb9952215\n      eq\n      tag_28\n      jumpi\n      dup1\n      0xcf56b4eb\n      eq\n      tag_29\n      jumpi\n      dup1\n      0xd547741f\n      eq\n      tag_30\n      jumpi\n      dup1\n      0xf2fde38b\n      eq\n      tag_31\n      jumpi\n      jump(tag_2)\n    tag_34:\n      dup1\n      0x9399e973\n      eq\n      tag_24\n      jumpi\n      dup1\n      0xa02bd29c\n      eq\n      tag_25\n      jumpi\n      dup1\n      0xa217fddf\n      eq\n      tag_26\n      jumpi\n      dup1\n      0xb4b07a70\n      eq\n      tag_27\n      jumpi\n      jump(tag_2)\n    tag_33:\n      dup1\n      0x8b681c7c\n      gt\n      tag_35\n      jumpi\n      dup1\n      0x8b681c7c\n      eq\n      tag_20\n      jumpi\n      dup1\n      0x8da5cb5b\n      eq\n      tag_21\n      jumpi\n      dup1\n      0x91284a89\n      eq\n      tag_22\n      jumpi\n      dup1\n      0x91d14854\n      eq\n      tag_23\n      jumpi\n      jump(tag_2)\n    tag_35:\n      dup1\n      0x3812c6a8\n      eq\n      tag_17\n      jumpi\n      dup1\n      0x715018a6\n      eq\n      tag_18\n      jumpi\n      dup1\n      0x85e68531\n      eq\n      tag_19\n      jumpi\n      jump(tag_2)\n    tag_32:\n      dup1\n      0x18bd4847\n      gt\n      tag_36\n      jumpi\n      dup1\n      0x248a9ca3\n      gt\n      tag_37\n      jumpi\n      dup1\n      0x248a9ca3\n      eq\n      tag_13\n      jumpi\n      dup1\n      0x24c20a34\n      eq\n      tag_14\n      jumpi\n      dup1\n      0x2f2ff15d\n      eq\n      tag_15\n      jumpi\n      dup1\n      0x36568abe\n      eq\n      tag_16\n      jumpi\n      jump(tag_2)\n    tag_37:\n      dup1\n      0x18bd4847\n      eq\n      tag_10\n      jumpi\n      dup1\n      0x1b6377b8\n      eq\n      tag_11\n      jumpi\n      dup1\n      0x22770d8e\n      eq\n      tag_12\n      jumpi\n      jump(tag_2)\n    tag_36:\n      dup1\n      0x061f9811\n      gt\n      tag_38\n      jumpi\n      dup1\n      0x061f9811\n      eq\n      tag_6\n      jumpi\n      dup1\n      0x0aeacb5e\n      eq\n      tag_7\n      jumpi\n      dup1\n      0x0e8dce29\n      eq\n      tag_8\n      jumpi\n      dup1\n      0x112ea262\n      eq\n      tag_9\n      jumpi\n      jump(tag_2)\n    tag_38:\n      dup1\n      0x01b1d324\n      eq\n      tag_3\n      jumpi\n      dup1\n      0x01ffc9a7\n      eq\n      tag_4\n      jumpi\n      dup1\n      0x03e9e609\n      eq\n      tag_5\n      jumpi\n    tag_2:\n      0x00\n      dup1\n      revert\n        /* \"contracts/HealthWallet.sol\":11010:11238  function getAuditLogs(uint256 _recordId) ... */\n    tag_3:\n      tag_39\n      0x04\n      dup1\n      calldatasize\n      sub\n      dup2\n      add\n      swap1\n      tag_40\n      swap2\n      swap1\n      tag_41\n      jump\t// in\n    tag_40:\n      tag_42\n      jump\t// in\n    tag_39:\n      mload(0x40)\n      tag_43\n      swap2\n      swap1\n      tag_44\n      jump\t// in\n    tag_43:\n      mload(0x40)\n      dup1\n      swap2\n      sub\n      swap1\n      return\n        /* \"@openzeppelin/contracts/access/AccessControl.sol\":2541:2743  function supportsInterface(bytes4 interfaceId) public view virtual override returns (bool) {... */\n    tag_4:\n      tag_45\n      0x04\n      dup1\n      calldatasize\n      sub\n      dup2\n      add\n      swap1\n      tag_46\n      swap2\n      swap1\n      tag_47\n      jump\t// in\n    tag_46:\n      tag_48\n      jump\t// in\n    tag_45:\n      mload(0x40)\n      tag_49\n      swap2\n      swap1\n      tag_50\n      jump\t// in\n    tag_49:\n      mload(0x40)\n      dup1\n      swap2\n      sub\n      swap1\n      return\n        /* \"contracts/HealthWallet.sol\":9970:10197  function getRecord(uint256 _recordId) ... */\n    tag_5:\n      tag_51\n      0x04\n      dup1\n      calldatasize\n      sub\n      dup2\n      add\n      swap1\n      tag_52\n      swap2\n      swap1\n      tag_41\n      jump\t// in\n    tag_52:\n      tag_53\n      jump\t// in\n    tag_51:\n      mload(0x40)\n      tag_54\n      swap2\n      swap1\n      tag_55\n      jump\t// in\n    tag_54:\n      mload(0x40)\n      dup1\n      swap2\n      sub\n      swap1\n      return\n        /* \"contracts/HealthWallet.sol\":6525:6710  function deleteRecord(uint256 _recordId) ... */\n    tag_6:\n      tag_56\n      0x04\n      dup1\n      calldatasize\n      sub\n      dup2\n      add\n      swap1\n      tag_57\n      swap2\n      swap1\n      tag_41\n      jump\t// in\n    tag_57:\n      tag_58\n      jump\t// in\n    tag_56:\n      stop\n        /* \"contracts/HealthWallet.sol\":12399:12495  function getTotalRecords() public view returns (uint256) {... */\n    tag_7:\n      tag_59\n      tag_60\n      jump\t// in\n    tag_59:\n      mload(0x40)\n      tag_61\n      swap2\n      swap1\n      tag_62\n      jump\t// in\n    tag_61:\n      mload(0x40)\n      dup1\n      swap2\n      sub\n      swap1\n      return\n        /* \"contracts/HealthWallet.sol\":4925:5939  function addRecordByProvider(... */\n    tag_8:\n      tag_63\n      0x04\n      dup1\n      calldatasize\n      sub\n      dup2\n      add\n      swap1\n      tag_64\n      swap2\n      swap1\n      tag_65\n      jump\t// in\n    tag_64:\n      tag_66\n      jump\t// in\n    tag_63:\n      mload(0x40)\n      tag_67\n      swap2\n      swap1\n      tag_62\n      jump\t// in\n    tag_67:\n      mload(0x40)\n      dup1\n      swap2\n      sub\n      swap1\n      return\n        /* \"contracts/HealthWallet.sol\":12783:12990  function authorizeProvider(address _provider) public onlyRole(DEFAULT_ADMIN_ROLE) {... */\n    tag_9:\n      tag_68\n      0x04\n      dup1\n      calldatasize\n      sub\n      dup2\n      add\n      swap1\n      tag_69\n      swap2\n      swap1\n      tag_70\n      jump\t// in\n    tag_69:\n      tag_71\n      jump\t// in\n    tag_68:\n      stop\n        /* \"contracts/HealthWallet.sol\":9006:9894  function getPatientRecords(address _patient) ... */\n    tag_10:\n      tag_72\n      0x04\n      dup1\n      calldatasize\n      sub\n      dup2\n      add\n      swap1\n      tag_73\n      swap2\n      swap1\n      tag_70\n      jump\t// in\n    tag_73:\n      tag_74\n      jump\t// in\n    tag_72:\n      mload(0x40)\n      tag_75\n      swap2\n      swap1\n      tag_76\n      jump\t// in\n    tag_75:\n      mload(0x40)\n      dup1\n      swap2\n      sub\n      swap1\n      return\n        /* \"contracts/HealthWallet.sol\":3981:4837  function addRecord(... */\n    tag_11:\n      tag_77\n      0x04\n      dup1\n      calldatasize\n      sub\n      dup2\n      add\n      swap1\n      tag_78\n      swap2\n      swap1\n      tag_79\n      jump\t// in\n    tag_78:\n      tag_80\n      jump\t// in\n    tag_77:\n      mload(0x40)\n      tag_81\n      swap2\n      swap1\n      tag_62\n      jump\t// in\n    tag_81:\n      mload(0x40)\n      dup1\n      swap2\n      sub\n      swap1\n      return\n        /* \"contracts/HealthWallet.sol\":13312:13447  function isAuthorizedProvider(address _provider) public view returns (bool) {... */\n    tag_12:\n      tag_82\n      0x04\n      dup1\n      calldatasize\n      sub\n      dup2\n      add\n      swap1\n      tag_83\n      swap2\n      swap1\n      tag_70\n      jump\t// in\n    tag_83:\n      tag_84\n      jump\t// in\n    tag_82:\n      mload(0x40)\n      tag_85\n      swap2\n      swap1\n      tag_50\n      jump\t// in\n    tag_85:\n      mload(0x40)\n      dup1\n      swap2\n      sub\n      swap1\n      return\n        /* \"@openzeppelin/contracts/access/AccessControl.sol\":3786:3906  function getRoleAdmin(bytes32 role) public view virtual returns (bytes32) {... */\n    tag_13:\n      tag_86\n      0x04\n      dup1\n      calldatasize\n      sub\n      dup2\n      add\n      swap1\n      tag_87\n      swap2\n      swap1\n      tag_88\n      jump\t// in\n    tag_87:\n      tag_89\n      jump\t// in\n    tag_86:\n      mload(0x40)\n      tag_90\n      swap2\n      swap1\n      tag_91\n      jump\t// in\n    tag_90:\n      mload(0x40)\n      dup1\n      swap2\n      sub\n      swap1\n      return\n        /* \"contracts/HealthWallet.sol\":422:488  bytes32 public constant PROVIDER_ROLE = keccak256(\"PROVIDER_ROLE\") */\n    tag_14:\n      tag_92\n      tag_93\n      jump\t// in\n    tag_92:\n      mload(0x40)\n      tag_94\n      swap2\n      swap1\n      tag_91\n      jump\t// in\n    tag_94:\n      mload(0x40)\n      dup1\n      swap2\n      sub\n      swap1\n      return\n        /* \"@openzeppelin/contracts/access/AccessControl.sol\":4202:4338  function grantRole(bytes32 role, address account) public virtual onlyRole(getRoleAdmin(role)) {... */\n    tag_15:\n      tag_95\n      0x04\n      dup1\n      calldatasize\n      sub\n      dup2\n      add\n      swap1\n      tag_96\n      swap2\n      swap1\n      tag_97\n      jump\t// in\n    tag_96:\n      tag_98\n      jump\t// in\n    tag_95:\n      stop\n        /* \"@openzeppelin/contracts/access/AccessControl.sol\":5304:5549  function renounceRole(bytes32 role, address callerConfirmation) public virtual {... */\n    tag_16:\n      tag_99\n      0x04\n      dup1\n      calldatasize\n      sub\n      dup2\n      add\n      swap1\n      tag_100\n      swap2\n      swap1\n      tag_97\n      jump\t// in\n    tag_100:\n      tag_101\n      jump\t// in\n    tag_99:\n      stop\n        /* \"contracts/HealthWallet.sol\":6008:6461  function updateRecord(... */\n    tag_17:\n      tag_102\n      0x04\n      dup1\n      calldatasize\n      sub\n      dup2\n      add\n      swap1\n      tag_103\n      swap2\n      swap1\n      tag_104\n      jump\t// in\n    tag_103:\n      tag_105\n      jump\t// in\n    tag_102:\n      stop\n        /* \"@openzeppelin/contracts/access/Ownable.sol\":2293:2394  function renounceOwnership() public virtual onlyOwner {... */\n    tag_18:\n      tag_106\n      tag_107\n      jump\t// in\n    tag_106:\n      stop\n        /* \"contracts/HealthWallet.sol\":7902:8159  function revokeAccess(address _grantee) public {... */\n    tag_19:\n      tag_108\n      0x04\n      dup1\n      calldatasize\n      sub\n      dup2\n      add\n      swap1\n      tag_109\n      swap2\n      swap1\n      tag_70\n      jump\t// in\n    tag_109:\n      tag_110\n      jump\t// in\n    tag_108:\n      stop\n        /* \"contracts/HealthWallet.sol\":12010:12328  function getAccessGrant(address _patient, address _grantee) ... */\n    tag_20:\n      tag_111\n      0x04\n      dup1\n      calldatasize\n      sub\n      dup2\n      add\n      swap1\n      tag_112\n      swap2\n      swap1\n      tag_113\n      jump\t// in\n    tag_112:\n      tag_114\n      jump\t// in\n    tag_111:\n      mload(0x40)\n      tag_115\n      swap2\n      swap1\n      tag_116\n      jump\t// in\n    tag_115:\n      mload(0x40)\n      dup1\n      swap2\n      sub\n      swap1\n      return\n        /* \"@openzeppelin/contracts/access/Ownable.sol\":1638:1723  function owner() public view virtual returns (address) {... */\n    tag_21:\n      tag_117\n      tag_118\n      jump\t// in\n    tag_117:\n      mload(0x40)\n      tag_119\n      swap2\n      swap1\n      tag_120\n      jump\t// in\n    tag_119:\n      mload(0x40)\n      dup1\n      swap2\n      sub\n      swap1\n      return\n        /* \"contracts/HealthWallet.sol\":11303:11503  function setEmergencyContact(address _emergencyContact) public {... */\n    tag_22:\n      tag_121\n      0x04\n      dup1\n      calldatasize\n      sub\n      dup2\n      add\n      swap1\n      tag_122\n      swap2\n      swap1\n      tag_70\n      jump\t// in\n    tag_122:\n      tag_123\n      jump\t// in\n    tag_121:\n      stop\n        /* \"@openzeppelin/contracts/access/AccessControl.sol\":2830:2966  function hasRole(bytes32 role, address account) public view virtual returns (bool) {... */\n    tag_23:\n      tag_124\n      0x04\n      dup1\n      calldatasize\n      sub\n      dup2\n      add\n      swap1\n      tag_125\n      swap2\n      swap1\n      tag_97\n      jump\t// in\n    tag_125:\n      tag_126\n      jump\t// in\n    tag_124:\n      mload(0x40)\n      tag_127\n      swap2\n      swap1\n      tag_50\n      jump\t// in\n    tag_127:\n      mload(0x40)\n      dup1\n      swap2\n      sub\n      swap1\n      return\n        /* \"contracts/HealthWallet.sol\":6786:7818  function grantAccess(... */\n    tag_24:\n      tag_128\n      0x04\n      dup1\n      calldatasize\n      sub\n      dup2\n      add\n      swap1\n      tag_129\n      swap2\n      swap1\n      tag_130\n      jump\t// in\n    tag_129:\n      tag_131\n      jump\t// in\n    tag_128:\n      stop\n        /* \"contracts/HealthWallet.sol\":10263:10939  function logAccess(uint256 _recordId, AuditAction _action) ... */\n    tag_25:\n      tag_132\n      0x04\n      dup1\n      calldatasize\n      sub\n      dup2\n      add\n      swap1\n      tag_133\n      swap2\n      swap1\n      tag_134\n      jump\t// in\n    tag_133:\n      tag_135\n      jump\t// in\n    tag_132:\n      stop\n        /* \"@openzeppelin/contracts/access/AccessControl.sol\":2196:2245  bytes32 public constant DEFAULT_ADMIN_ROLE = 0x00 */\n    tag_26:\n      tag_136\n      tag_137\n      jump\t// in\n    tag_136:\n      mload(0x40)\n      tag_138\n      swap2\n      swap1\n      tag_91\n      jump\t// in\n    tag_138:\n      mload(0x40)\n      dup1\n      swap2\n      sub\n      swap1\n      return\n        /* \"contracts/HealthWallet.sol\":1880:1931  mapping(address => address) public emergencyContact */\n    tag_27:\n      tag_139\n      0x04\n      dup1\n      calldatasize\n      sub\n      dup2\n      add\n      swap1\n      tag_140\n      swap2\n      swap1\n      tag_70\n      jump\t// in\n    tag_140:\n      tag_141\n      jump\t// in\n    tag_139:\n      mload(0x40)\n      tag_142\n      swap2\n      swap1\n      tag_120\n      jump\t// in\n    tag_142:\n      mload(0x40)\n      dup1\n      swap2\n      sub\n      swap1\n      return\n        /* \"contracts/HealthWallet.sol\":13076:13223  function revokeProviderAuthorization(address _provider) public onlyRole(DEFAULT_ADMIN_ROLE) {... */\n    tag_28:\n      tag_143\n      0x04\n      dup1\n      calldatasize\n      sub\n      dup2\n      add\n      swap1\n      tag_144\n      swap2\n      swap1\n      tag_70\n      jump\t// in\n    tag_144:\n      tag_145\n      jump\t// in\n    tag_143:\n      stop\n        /* \"contracts/HealthWallet.sol\":8254:8930  function hasAccess(... */\n    tag_29:\n      tag_146\n      0x04\n      dup1\n      calldatasize\n      sub\n      dup2\n      add\n      swap1\n      tag_147\n      swap2\n      swap1\n      tag_148\n      jump\t// in\n    tag_147:\n      tag_149\n      jump\t// in\n    tag_146:\n      mload(0x40)\n      tag_150\n      swap2\n      swap1\n      tag_50\n      jump\t// in\n    tag_150:\n      mload(0x40)\n      dup1\n      swap2\n      sub\n      swap1\n      return\n        /* \"@openzeppelin/contracts/access/AccessControl.sol\":4618:4756  function revokeRole(bytes32 role, address account) public virtual onlyRole(getRoleAdmin(role)) {... */\n    tag_30:\n      tag_151\n      0x04\n      dup1\n      calldatasize\n      sub\n      dup2\n      add\n      swap1\n      tag_152\n      swap2\n      swap1\n      tag_97\n      jump\t// in\n    tag_152:\n      tag_153\n      jump\t// in\n    tag_151:\n      stop\n        /* \"@openzeppelin/contracts/access/Ownable.sol\":2543:2758  function transferOwnership(address newOwner) public virtual onlyOwner {... */\n    tag_31:\n      tag_154\n      0x04\n      dup1\n      calldatasize\n      sub\n      dup2\n      add\n      swap1\n      tag_155\n      swap2\n      swap1\n      tag_70\n      jump\t// in\n    tag_155:\n      tag_156\n      jump\t// in\n    tag_154:\n      stop\n        /* \"contracts/HealthWallet.sol\":11010:11238  function getAuditLogs(uint256 _recordId) ... */\n    tag_42:\n        /* \"contracts/HealthWallet.sol\":11166:11184  AccessLog[] memory */\n      0x60\n        /* \"contracts/HealthWallet.sol\":11105:11114  _recordId */\n      dup2\n        /* \"contracts/HealthWallet.sol\":3766:3767  0 */\n      0x00\n        /* \"contracts/HealthWallet.sol\":3754:3763  _recordId */\n      dup2\n        /* \"contracts/HealthWallet.sol\":3754:3767  _recordId > 0 */\n      gt\n        /* \"contracts/HealthWallet.sol\":3754:3797  _recordId > 0 && _recordId <= recordCounter */\n      dup1\n      iszero\n      tag_158\n      jumpi\n      pop\n        /* \"contracts/HealthWallet.sol\":3784:3797  recordCounter */\n      sload(0x07)\n        /* \"contracts/HealthWallet.sol\":3771:3780  _recordId */\n      dup2\n        /* \"contracts/HealthWallet.sol\":3771:3797  _recordId <= recordCounter */\n      gt\n      iszero\n        /* \"contracts/HealthWallet.sol\":3754:3797  _recordId > 0 && _recordId <= recordCounter */\n    tag_158:\n        /* \"contracts/HealthWallet.sol\":3746:3823  require(_recordId > 0 && _recordId <= recordCounter, \"Record does not exist\") */\n      tag_159\n      jumpi\n      mload(0x40)\n      0x08c379a000000000000000000000000000000000000000000000000000000000\n      dup2\n      mstore\n      0x04\n      add\n      tag_160\n      swap1\n      tag_161\n      jump\t// in\n    tag_160:\n      mload(0x40)\n      dup1\n      swap2\n      sub\n      swap1\n      revert\n    tag_159:\n        /* \"contracts/HealthWallet.sol\":3842:3849  records */\n      0x03\n        /* \"contracts/HealthWallet.sol\":3842:3860  records[_recordId] */\n      0x00\n        /* \"contracts/HealthWallet.sol\":3850:3859  _recordId */\n      dup3\n        /* \"contracts/HealthWallet.sol\":3842:3860  records[_recordId] */\n      dup2\n      mstore\n      0x20\n      add\n      swap1\n      dup2\n      mstore\n      0x20\n      add\n      0x00\n      keccak256\n        /* \"contracts/HealthWallet.sol\":3842:3869  records[_recordId].isActive */\n      0x05\n      add\n      0x14\n      swap1\n      sload\n      swap1\n      0x0100\n      exp\n      swap1\n      div\n      0xff\n      and\n        /* \"contracts/HealthWallet.sol\":3834:3894  require(records[_recordId].isActive, \"Record is not active\") */\n      tag_162\n      jumpi\n      mload(0x40)\n      0x08c379a000000000000000000000000000000000000000000000000000000000\n      dup2\n      mstore\n      0x04\n      add\n      tag_163\n      swap1\n      tag_164\n      jump\t// in\n    tag_163:\n      mload(0x40)\n      dup1\n      swap2\n      sub\n      swap1\n      revert\n    tag_162:\n        /* \"contracts/HealthWallet.sol\":11137:11146  _recordId */\n      dup3\n        /* \"contracts/HealthWallet.sol\":3349:3359  msg.sender */\n      caller\n        /* \"contracts/HealthWallet.sol\":3312:3359  records[_recordId].patientAddress == msg.sender */\n      0xffffffffffffffffffffffffffffffffffffffff\n      and\n        /* \"contracts/HealthWallet.sol\":3312:3319  records */\n      0x03\n        /* \"contracts/HealthWallet.sol\":3312:3330  records[_recordId] */\n      0x00\n        /* \"contracts/HealthWallet.sol\":3320:3329  _recordId */\n      dup4\n        /* \"contracts/HealthWallet.sol\":3312:3330  records[_recordId] */\n      dup2\n      mstore\n      0x20\n      add\n      swap1\n      dup2\n      mstore\n      0x20\n      add\n      0x00\n      keccak256\n        /* \"contracts/HealthWallet.sol\":3312:3345  records[_recordId].patientAddress */\n      0x01\n      add\n      0x00\n      swap1\n      sload\n      swap1\n      0x0100\n      exp\n      swap1\n      div\n      0xffffffffffffffffffffffffffffffffffffffff\n      and\n        /* \"contracts/HealthWallet.sol\":3312:3359  records[_recordId].patientAddress == msg.sender */\n      0xffffffffffffffffffffffffffffffffffffffff\n      and\n      eq\n        /* \"contracts/HealthWallet.sol\":3290:3423  require(... */\n      tag_166\n      jumpi\n      mload(0x40)\n      0x08c379a000000000000000000000000000000000000000000000000000000000\n      dup2\n      mstore\n      0x04\n      add\n      tag_167\n      swap1\n      tag_168\n      jump\t// in\n    tag_167:\n      mload(0x40)\n      dup1\n      swap2\n      sub\n      swap1\n      revert\n    tag_166:\n        /* \"contracts/HealthWallet.sol\":11210:11219  auditLogs */\n      0x05\n        /* \"contracts/HealthWallet.sol\":11210:11230  auditLogs[_recordId] */\n      0x00\n        /* \"contracts/HealthWallet.sol\":11220:11229  _recordId */\n      dup6\n        /* \"contracts/HealthWallet.sol\":11210:11230  auditLogs[_recordId] */\n      dup2\n      mstore\n      0x20\n      add\n      swap1\n      dup2\n      mstore\n      0x20\n      add\n      0x00\n      keccak256\n        /* \"contracts/HealthWallet.sol\":11203:11230  return auditLogs[_recordId] */\n      dup1\n      sload\n      dup1\n      0x20\n      mul\n      0x20\n      add\n      mload(0x40)\n      swap1\n      dup2\n      add\n      0x40\n      mstore\n      dup1\n      swap3\n      swap2\n      swap1\n      dup2\n      dup2\n      mstore\n      0x20\n      add\n      0x00\n      swap1\n    tag_170:\n      dup3\n      dup3\n      lt\n      iszero\n      tag_171\n      jumpi\n      dup4\n      dup3\n      swap1\n      0x00\n      mstore\n      keccak256(0x00, 0x20)\n      swap1\n      0x03\n      mul\n      add\n      mload(0x40)\n      dup1\n      0x60\n      add\n      0x40\n      mstore\n      swap1\n      dup2\n      0x00\n      dup3\n      add\n      0x00\n      swap1\n      sload\n      swap1\n      0x0100\n      exp\n      swap1\n      div\n      0xffffffffffffffffffffffffffffffffffffffff\n      and\n      0xffffffffffffffffffffffffffffffffffffffff\n      and\n      0xffffffffffffffffffffffffffffffffffffffff\n      and\n      dup2\n      mstore\n      0x20\n      add\n      0x01\n      dup3\n      add\n      sload\n      dup2\n      mstore\n      0x20\n      add\n      0x02\n      dup3\n      add\n      0x00\n      swap1\n      sload\n      swap1\n      0x0100\n      exp\n      swap1\n      div\n      0xff\n      and\n      0x04\n      dup2\n      gt\n      iszero\n      tag_173\n      jumpi\n      tag_174\n      tag_175\n      jump\t// in\n    tag_174:\n    tag_173:\n      0x04\n      dup2\n      gt\n      iszero\n      tag_176\n      jumpi\n      tag_177\n      tag_175\n      jump\t// in\n    tag_177:\n    tag_176:\n      dup2\n      mstore\n      pop\n      pop\n      dup2\n      mstore\n      0x20\n      add\n      swap1\n      0x01\n      add\n      swap1\n      jump(tag_170)\n    tag_171:\n      pop\n      pop\n      pop\n      pop\n      swap3\n      pop\n        /* \"contracts/HealthWallet.sol\":3905:3906  _ */\n      pop\n        /* \"contracts/HealthWallet.sol\":11010:11238  function getAuditLogs(uint256 _recordId) ... */\n      pop\n      swap2\n      swap1\n      pop\n      jump\t// out\n        /* \"@openzeppelin/contracts/access/AccessControl.sol\":2541:2743  function supportsInterface(bytes4 interfaceId) public view virtual override returns (bool) {... */\n    tag_48:\n        /* \"@openzeppelin/contracts/access/AccessControl.sol\":2626:2630  bool */\n      0x00\n        /* \"@openzeppelin/contracts/access/AccessControl.sol\":2664:2696  type(IAccessControl).interfaceId */\n      0x7965db0b00000000000000000000000000000000000000000000000000000000\n        /* \"@openzeppelin/contracts/access/AccessControl.sol\":2649:2696  interfaceId == type(IAccessControl).interfaceId */\n      not(0xffffffffffffffffffffffffffffffffffffffffffffffffffffffff)\n      and\n        /* \"@openzeppelin/contracts/access/AccessControl.sol\":2649:2660  interfaceId */\n      dup3\n        /* \"@openzeppelin/contracts/access/AccessControl.sol\":2649:2696  interfaceId == type(IAccessControl).interfaceId */\n      not(0xffffffffffffffffffffffffffffffffffffffffffffffffffffffff)\n      and\n      eq\n        /* \"@openzeppelin/contracts/access/AccessControl.sol\":2649:2736  interfaceId == type(IAccessControl).interfaceId || super.supportsInterface(interfaceId) */\n      dup1\n      tag_179\n      jumpi\n      pop\n        /* \"@openzeppelin/contracts/access/AccessControl.sol\":2700:2736  super.supportsInterface(interfaceId) */\n      tag_180\n        /* \"@openzeppelin/contracts/access/AccessControl.sol\":2724:2735  interfaceId */\n      dup3\n        /* \"@openzeppelin/contracts/access/AccessControl.sol\":2700:2723  super.supportsInterface */\n      tag_181\n        /* \"@openzeppelin/contracts/access/AccessControl.sol\":2700:2736  super.supportsInterface(interfaceId) */\n      jump\t// in\n    tag_180:\n        /* \"@openzeppelin/contracts/access/AccessControl.sol\":2649:2736  interfaceId == type(IAccessControl).interfaceId || super.supportsInterface(interfaceId) */\n    tag_179:\n        /* \"@openzeppelin/contracts/access/AccessControl.sol\":2642:2736  return interfaceId == type(IAccessControl).interfaceId || super.supportsInterface(interfaceId) */\n      swap1\n      pop\n        /* \"@openzeppelin/contracts/access/AccessControl.sol\":2541:2743  function supportsInterface(bytes4 interfaceId) public view virtual override returns (bool) {... */\n      swap2\n      swap1\n      pop\n      jump\t// out\n        /* \"contracts/HealthWallet.sol\":9970:10197  function getRecord(uint256 _recordId) ... */\n    tag_53:\n        /* \"contracts/HealthWallet.sol\":10126:10145  HealthRecord memory */\n      tag_182\n      tag_183\n      jump\t// in\n    tag_182:\n        /* \"contracts/HealthWallet.sol\":10062:10071  _recordId */\n      dup2\n        /* \"contracts/HealthWallet.sol\":3766:3767  0 */\n      0x00\n        /* \"contracts/HealthWallet.sol\":3754:3763  _recordId */\n      dup2\n        /* \"contracts/HealthWallet.sol\":3754:3767  _recordId > 0 */\n      gt\n        /* \"contracts/HealthWallet.sol\":3754:3797  _recordId > 0 && _recordId <= recordCounter */\n      dup1\n      iszero\n      tag_185\n      jumpi\n      pop\n        /* \"contracts/HealthWallet.sol\":3784:3797  recordCounter */\n      sload(0x07)\n        /* \"contracts/HealthWallet.sol\":3771:3780  _recordId */\n      dup2\n        /* \"contracts/HealthWallet.sol\":3771:3797  _recordId <= recordCounter */\n      gt\n      iszero\n        /* \"contracts/HealthWallet.sol\":3754:3797  _recordId > 0 && _recordId <= recordCounter */\n    tag_185:\n        /* \"contracts/HealthWallet.sol\":3746:3823  require(_recordId > 0 && _recordId <= recordCounter, \"Record does not exist\") */\n      tag_186\n      jumpi\n      mload(0x40)\n      0x08c379a000000000000000000000000000000000000000000000000000000000\n      dup2\n      mstore\n      0x04\n      add\n      tag_187\n      swap1\n      tag_161\n      jump\t// in\n    tag_187:\n      mload(0x40)\n      dup1\n      swap2\n      sub\n      swap1\n      revert\n    tag_186:\n        /* \"contracts/HealthWallet.sol\":3842:3849  records */\n      0x03\n        /* \"contracts/HealthWallet.sol\":3842:3860  records[_recordId] */\n      0x00\n        /* \"contracts/HealthWallet.sol\":3850:3859  _recordId */\n      dup3\n        /* \"contracts/HealthWallet.sol\":3842:3860  records[_recordId] */\n      dup2\n      mstore\n      0x20\n      add\n      swap1\n      dup2\n      mstore\n      0x20\n      add\n      0x00\n      keccak256\n        /* \"contracts/HealthWallet.sol\":3842:3869  records[_recordId].isActive */\n      0x05\n      add\n      0x14\n      swap1\n      sload\n      swap1\n      0x0100\n      exp\n      swap1\n      div\n      0xff\n      and\n        /* \"contracts/HealthWallet.sol\":3834:3894  require(records[_recordId].isActive, \"Record is not active\") */\n      tag_188\n      jumpi\n      mload(0x40)\n      0x08c379a000000000000000000000000000000000000000000000000000000000\n      dup2\n      mstore\n      0x04\n      add\n      tag_189\n      swap1\n      tag_164\n      jump\t// in\n    tag_189:\n      mload(0x40)\n      dup1\n      swap2\n      sub\n      swap1\n      revert\n    tag_188:\n        /* \"contracts/HealthWallet.sol\":10097:10106  _recordId */\n      dup3\n        /* \"contracts/HealthWallet.sol\":3531:3598  hasAccess(records[_recordId].patientAddress, msg.sender, _recordId) */\n      tag_191\n        /* \"contracts/HealthWallet.sol\":3541:3548  records */\n      0x03\n        /* \"contracts/HealthWallet.sol\":3541:3559  records[_recordId] */\n      0x00\n        /* \"contracts/HealthWallet.sol\":3549:3558  _recordId */\n      dup4\n        /* \"contracts/HealthWallet.sol\":3541:3559  records[_recordId] */\n      dup2\n      mstore\n      0x20\n      add\n      swap1\n      dup2\n      mstore\n      0x20\n      add\n      0x00\n      keccak256\n        /* \"contracts/HealthWallet.sol\":3541:3574  records[_recordId].patientAddress */\n      0x01\n      add\n      0x00\n      swap1\n      sload\n      swap1\n      0x0100\n      exp\n      swap1\n      div\n      0xffffffffffffffffffffffffffffffffffffffff\n      and\n        /* \"contracts/HealthWallet.sol\":3576:3586  msg.sender */\n      caller\n        /* \"contracts/HealthWallet.sol\":3588:3597  _recordId */\n      dup4\n        /* \"contracts/HealthWallet.sol\":3531:3540  hasAccess */\n      tag_149\n        /* \"contracts/HealthWallet.sol\":3531:3598  hasAccess(records[_recordId].patientAddress, msg.sender, _recordId) */\n      jump\t// in\n    tag_191:\n        /* \"contracts/HealthWallet.sol\":3509:3662  require(... */\n      tag_192\n      jumpi\n      mload(0x40)\n      0x08c379a000000000000000000000000000000000000000000000000000000000\n      dup2\n      mstore\n      0x04\n      add\n      tag_193\n      swap1\n      tag_194\n      jump\t// in\n    tag_193:\n      mload(0x40)\n      dup1\n      swap2\n      sub\n      swap1\n      revert\n    tag_192:\n        /* \"contracts/HealthWallet.sol\":10171:10178  records */\n      0x03\n        /* \"contracts/HealthWallet.sol\":10171:10189  records[_recordId] */\n      0x00\n        /* \"contracts/HealthWallet.sol\":10179:10188  _recordId */\n      dup6\n        /* \"contracts/HealthWallet.sol\":10171:10189  records[_recordId] */\n      dup2\n      mstore\n      0x20\n      add\n      swap1\n      dup2\n      mstore\n      0x20\n      add\n      0x00\n      keccak256\n        /* \"contracts/HealthWallet.sol\":10164:10189  return records[_recordId] */\n      mload(0x40)\n      dup1\n      0x0120\n      add\n      0x40\n      mstore\n      swap1\n      dup2\n      0x00\n      dup3\n      add\n      sload\n      dup2\n      mstore\n      0x20\n      add\n      0x01\n      dup3\n      add\n      0x00\n      swap1\n      sload\n      swap1\n      0x0100\n      exp\n      swap1\n      div\n      0xffffffffffffffffffffffffffffffffffffffff\n      and\n      0xffffffffffffffffffffffffffffffffffffffff\n      and\n      0xffffffffffffffffffffffffffffffffffffffff\n      and\n      dup2\n      mstore\n      0x20\n      add\n      0x02\n      dup3\n      add\n      dup1\n      sload\n      tag_196\n      swap1\n      tag_197\n      jump\t// in\n    tag_196:\n      dup1\n      0x1f\n      add\n      0x20\n      dup1\n      swap2\n      div\n      mul\n      0x20\n      add\n      mload(0x40)\n      swap1\n      dup2\n      add\n      0x40\n      mstore\n      dup1\n      swap3\n      swap2\n      swap1\n      dup2\n      dup2\n      mstore\n      0x20\n      add\n      dup3\n      dup1\n      sload\n      tag_198\n      swap1\n      tag_197\n      jump\t// in\n    tag_198:\n      dup1\n      iszero\n      tag_199\n      jumpi\n      dup1\n      0x1f\n      lt\n      tag_200\n      jumpi\n      0x0100\n      dup1\n      dup4\n      sload\n      div\n      mul\n      dup4\n      mstore\n      swap2\n      0x20\n      add\n      swap2\n      jump(tag_199)\n    tag_200:\n      dup3\n      add\n      swap2\n      swap1\n      0x00\n      mstore\n      keccak256(0x00, 0x20)\n      swap1\n    tag_201:\n      dup2\n      sload\n      dup2\n      mstore\n      swap1\n      0x01\n      add\n      swap1\n      0x20\n      add\n      dup1\n      dup4\n      gt\n      tag_201\n      jumpi\n      dup3\n      swap1\n      sub\n      0x1f\n      and\n      dup3\n      add\n      swap2\n    tag_199:\n      pop\n      pop\n      pop\n      pop\n      pop\n      dup2\n      mstore\n      0x20\n      add\n      0x03\n      dup3\n      add\n      0x00\n      swap1\n      sload\n      swap1\n      0x0100\n      exp\n      swap1\n      div\n      0xff\n      and\n      0x05\n      dup2\n      gt\n      iszero\n      tag_202\n      jumpi\n      tag_203\n      tag_175\n      jump\t// in\n    tag_203:\n    tag_202:\n      0x05\n      dup2\n      gt\n      iszero\n      tag_204\n      jumpi\n      tag_205\n      tag_175\n      jump\t// in\n    tag_205:\n    tag_204:\n      dup2\n      mstore\n      0x20\n      add\n      0x04\n      dup3\n      add\n      sload\n      dup2\n      mstore\n      0x20\n      add\n      0x05\n      dup3\n      add\n      0x00\n      swap1\n      sload\n      swap1\n      0x0100\n      exp\n      swap1\n      div\n      0xffffffffffffffffffffffffffffffffffffffff\n      and\n      0xffffffffffffffffffffffffffffffffffffffff\n      and\n      0xffffffffffffffffffffffffffffffffffffffff\n      and\n      dup2\n      mstore\n      0x20\n      add\n      0x05\n      dup3\n      add\n      0x14\n      swap1\n      sload\n      swap1\n      0x0100\n      exp\n      swap1\n      div\n      0xff\n      and\n      iszero\n      iszero\n      iszero\n      iszero\n      dup2\n      mstore\n      0x20\n      add\n      0x06\n      dup3\n      add\n      dup1\n      sload\n      tag_206\n      swap1\n      tag_197\n      jump\t// in\n    tag_206:\n      dup1\n      0x1f\n      add\n      0x20\n      dup1\n      swap2\n      div\n      mul\n      0x20\n      add\n      mload(0x40)\n      swap1\n      dup2\n      add\n      0x40\n      mstore\n      dup1\n      swap3\n      swap2\n      swap1\n      dup2\n      dup2\n      mstore\n      0x20\n      add\n      dup3\n      dup1\n      sload\n      tag_207\n      swap1\n      tag_197\n      jump\t// in\n    tag_207:\n      dup1\n      iszero\n      tag_208\n      jumpi\n      dup1\n      0x1f\n      lt\n      tag_209\n      jumpi\n      0x0100\n      dup1\n      dup4\n      sload\n      div\n      mul\n      dup4\n      mstore\n      swap2\n      0x20\n      add\n      swap2\n      jump(tag_208)\n    tag_209:\n      dup3\n      add\n      swap2\n      swap1\n      0x00\n      mstore\n      keccak256(0x00, 0x20)\n      swap1\n    tag_210:\n      dup2\n      sload\n      dup2\n      mstore\n      swap1\n      0x01\n      add\n      swap1\n      0x20\n      add\n      dup1\n      dup4\n      gt\n      tag_210\n      jumpi\n      dup3\n      swap1\n      sub\n      0x1f\n      and\n      dup3\n      add\n      swap2\n    tag_208:\n      pop\n      pop\n      pop\n      pop\n      pop\n      dup2\n      mstore\n      0x20\n      add\n      0x07\n      dup3\n      add\n      sload\n      dup2\n      mstore\n      pop\n      pop\n      swap3\n      pop\n        /* \"contracts/HealthWallet.sol\":3905:3906  _ */\n      pop\n        /* \"contracts/HealthWallet.sol\":9970:10197  function getRecord(uint256 _recordId) ... */\n      pop\n      swap2\n      swap1\n      pop\n      jump\t// out\n        /* \"contracts/HealthWallet.sol\":6525:6710  function deleteRecord(uint256 _recordId) ... */\n    tag_58:\n        /* \"contracts/HealthWallet.sol\":6606:6615  _recordId */\n      dup1\n        /* \"contracts/HealthWallet.sol\":3766:3767  0 */\n      0x00\n        /* \"contracts/HealthWallet.sol\":3754:3763  _recordId */\n      dup2\n        /* \"contracts/HealthWallet.sol\":3754:3767  _recordId > 0 */\n      gt\n        /* \"contracts/HealthWallet.sol\":3754:3797  _recordId > 0 && _recordId <= recordCounter */\n      dup1\n      iszero\n      tag_212\n      jumpi\n      pop\n        /* \"contracts/HealthWallet.sol\":3784:3797  recordCounter */\n      sload(0x07)\n        /* \"contracts/HealthWallet.sol\":3771:3780  _recordId */\n      dup2\n        /* \"contracts/HealthWallet.sol\":3771:3797  _recordId <= recordCounter */\n      gt\n      iszero\n        /* \"contracts/HealthWallet.sol\":3754:3797  _recordId > 0 && _recordId <= recordCounter */\n    tag_212:\n        /* \"contracts/HealthWallet.sol\":3746:3823  require(_recordId > 0 && _recordId <= recordCounter, \"Record does not exist\") */\n      tag_213\n      jumpi\n      mload(0x40)\n      0x08c379a000000000000000000000000000000000000000000000000000000000\n      dup2\n      mstore\n      0x04\n      add\n      tag_214\n      swap1\n      tag_161\n      jump\t// in\n    tag_214:\n      mload(0x40)\n      dup1\n      swap2\n      sub\n      swap1\n      revert\n    tag_213:\n        /* \"contracts/HealthWallet.sol\":3842:3849  records */\n      0x03\n        /* \"contracts/HealthWallet.sol\":3842:3860  records[_recordId] */\n      0x00\n        /* \"contracts/HealthWallet.sol\":3850:3859  _recordId */\n      dup3\n        /* \"contracts/HealthWallet.sol\":3842:3860  records[_recordId] */\n      dup2\n      mstore\n      0x20\n      add\n      swap1\n      dup2\n      mstore\n      0x20\n      add\n      0x00\n      keccak256\n        /* \"contracts/HealthWallet.sol\":3842:3869  records[_recordId].isActive */\n      0x05\n      add\n      0x14\n      swap1\n      sload\n      swap1\n      0x0100\n      exp\n      swap1\n      div\n      0xff\n      and\n        /* \"contracts/HealthWallet.sol\":3834:3894  require(records[_recordId].isActive, \"Record is not active\") */\n      tag_215\n      jumpi\n      mload(0x40)\n      0x08c379a000000000000000000000000000000000000000000000000000000000\n      dup2\n      mstore\n      0x04\n      add\n      tag_216\n      swap1\n      tag_164\n      jump\t// in\n    tag_216:\n      mload(0x40)\n      dup1\n      swap2\n      sub\n      swap1\n      revert\n    tag_215:\n        /* \"contracts/HealthWallet.sol\":6639:6648  _recordId */\n      dup2\n        /* \"contracts/HealthWallet.sol\":3349:3359  msg.sender */\n      caller\n        /* \"contracts/HealthWallet.sol\":3312:3359  records[_recordId].patientAddress == msg.sender */\n      0xffffffffffffffffffffffffffffffffffffffff\n      and\n        /* \"contracts/HealthWallet.sol\":3312:3319  records */\n      0x03\n        /* \"contracts/HealthWallet.sol\":3312:3330  records[_recordId] */\n      0x00\n        /* \"contracts/HealthWallet.sol\":3320:3329  _recordId */\n      dup4\n        /* \"contracts/HealthWallet.sol\":3312:3330  records[_recordId] */\n      dup2\n      mstore\n      0x20\n      add\n      swap1\n      dup2\n      mstore\n      0x20\n      add\n      0x00\n      keccak256\n        /* \"contracts/HealthWallet.sol\":3312:3345  records[_recordId].patientAddress */\n      0x01\n      add\n      0x00\n      swap1\n      sload\n      swap1\n      0x0100\n      exp\n      swap1\n      div\n      0xffffffffffffffffffffffffffffffffffffffff\n      and\n        /* \"contracts/HealthWallet.sol\":3312:3359  records[_recordId].patientAddress == msg.sender */\n      0xffffffffffffffffffffffffffffffffffffffff\n      and\n      eq\n        /* \"contracts/HealthWallet.sol\":3290:3423  require(... */\n      tag_218\n      jumpi\n      mload(0x40)\n      0x08c379a000000000000000000000000000000000000000000000000000000000\n      dup2\n      mstore\n      0x04\n      add\n      tag_219\n      swap1\n      tag_168\n      jump\t// in\n    tag_219:\n      mload(0x40)\n      dup1\n      swap2\n      sub\n      swap1\n      revert\n    tag_218:\n        /* \"contracts/HealthWallet.sol\":6697:6702  false */\n      0x00\n        /* \"contracts/HealthWallet.sol\":6667:6674  records */\n      0x03\n        /* \"contracts/HealthWallet.sol\":6667:6685  records[_recordId] */\n      0x00\n        /* \"contracts/HealthWallet.sol\":6675:6684  _recordId */\n      dup6\n        /* \"contracts/HealthWallet.sol\":6667:6685  records[_recordId] */\n      dup2\n      mstore\n      0x20\n      add\n      swap1\n      dup2\n      mstore\n      0x20\n      add\n      0x00\n      keccak256\n        /* \"contracts/HealthWallet.sol\":6667:6694  records[_recordId].isActive */\n      0x05\n      add\n      0x14\n        /* \"contracts/HealthWallet.sol\":6667:6702  records[_recordId].isActive = false */\n      0x0100\n      exp\n      dup2\n      sload\n      dup2\n      0xff\n      mul\n      not\n      and\n      swap1\n      dup4\n      iszero\n      iszero\n      mul\n      or\n      swap1\n      sstore\n      pop\n        /* \"contracts/HealthWallet.sol\":3905:3906  _ */\n      pop\n        /* \"contracts/HealthWallet.sol\":6525:6710  function deleteRecord(uint256 _recordId) ... */\n      pop\n      pop\n      jump\t// out\n        /* \"contracts/HealthWallet.sol\":12399:12495  function getTotalRecords() public view returns (uint256) {... */\n    tag_60:\n        /* \"contracts/HealthWallet.sol\":12447:12454  uint256 */\n      0x00\n        /* \"contracts/HealthWallet.sol\":12474:12487  recordCounter */\n      sload(0x07)\n        /* \"contracts/HealthWallet.sol\":12467:12487  return recordCounter */\n      swap1\n      pop\n        /* \"contracts/HealthWallet.sol\":12399:12495  function getTotalRecords() public view returns (uint256) {... */\n      swap1\n      jump\t// out\n        /* \"contracts/HealthWallet.sol\":4925:5939  function addRecordByProvider(... */\n    tag_66:\n        /* \"contracts/HealthWallet.sol\":5139:5146  uint256 */\n      0x00\n        /* \"contracts/HealthWallet.sol\":3142:3176  hasRole(PROVIDER_ROLE, msg.sender) */\n      tag_223\n        /* \"contracts/HealthWallet.sol\":462:488  keccak256(\"PROVIDER_ROLE\") */\n      0x18d9ff454de989bd126b06bd404b47ede75f9e65543e94e8d212f89d7dcbb87c\n        /* \"contracts/HealthWallet.sol\":3165:3175  msg.sender */\n      caller\n        /* \"contracts/HealthWallet.sol\":3142:3149  hasRole */\n      tag_126\n        /* \"contracts/HealthWallet.sol\":3142:3176  hasRole(PROVIDER_ROLE, msg.sender) */\n      jump\t// in\n    tag_223:\n        /* \"contracts/HealthWallet.sol\":3134:3207  require(hasRole(PROVIDER_ROLE, msg.sender), \"Not an authorized provider\") */\n      tag_224\n      jumpi\n      mload(0x40)\n      0x08c379a000000000000000000000000000000000000000000000000000000000\n      dup2\n      mstore\n      0x04\n      add\n      tag_225\n      swap1\n      tag_226\n      jump\t// in\n    tag_225:\n      mload(0x40)\n      dup1\n      swap2\n      sub\n      swap1\n      revert\n    tag_224:\n        /* \"contracts/HealthWallet.sol\":5194:5195  0 */\n      0x00\n        /* \"contracts/HealthWallet.sol\":5167:5196  _patientAddress != address(0) */\n      0xffffffffffffffffffffffffffffffffffffffff\n      and\n        /* \"contracts/HealthWallet.sol\":5167:5182  _patientAddress */\n      dup6\n        /* \"contracts/HealthWallet.sol\":5167:5196  _patientAddress != address(0) */\n      0xffffffffffffffffffffffffffffffffffffffff\n      and\n      sub\n        /* \"contracts/HealthWallet.sol\":5159:5224  require(_patientAddress != address(0), \"Invalid patient address\") */\n      tag_228\n      jumpi\n      mload(0x40)\n      0x08c379a000000000000000000000000000000000000000000000000000000000\n      dup2\n      mstore\n      0x04\n      add\n      tag_229\n      swap1\n      tag_230\n      jump\t// in\n    tag_229:\n      mload(0x40)\n      dup1\n      swap2\n      sub\n      swap1\n      revert\n    tag_228:\n        /* \"contracts/HealthWallet.sol\":5269:5270  0 */\n      0x00\n        /* \"contracts/HealthWallet.sol\":5249:5258  _ipfsHash */\n      dup5\n        /* \"contracts/HealthWallet.sol\":5243:5266  bytes(_ipfsHash).length */\n      mload\n        /* \"contracts/HealthWallet.sol\":5243:5270  bytes(_ipfsHash).length > 0 */\n      gt\n        /* \"contracts/HealthWallet.sol\":5235:5300  require(bytes(_ipfsHash).length > 0, \"IPFS hash cannot be empty\") */\n      tag_231\n      jumpi\n      mload(0x40)\n      0x08c379a000000000000000000000000000000000000000000000000000000000\n      dup2\n      mstore\n      0x04\n      add\n      tag_232\n      swap1\n      tag_233\n      jump\t// in\n    tag_232:\n      mload(0x40)\n      dup1\n      swap2\n      sub\n      swap1\n      revert\n    tag_231:\n        /* \"contracts/HealthWallet.sol\":5321:5334  recordCounter */\n      0x07\n      0x00\n        /* \"contracts/HealthWallet.sol\":5321:5336  recordCounter++ */\n      dup2\n      sload\n      dup1\n      swap3\n      swap2\n      swap1\n      tag_234\n      swap1\n      tag_235\n      jump\t// in\n    tag_234:\n      swap2\n      swap1\n      pop\n      sstore\n      pop\n        /* \"contracts/HealthWallet.sol\":5382:5735  HealthRecord({... */\n      mload(0x40)\n      dup1\n      0x0120\n      add\n      0x40\n      mstore\n      dup1\n        /* \"contracts/HealthWallet.sol\":5420:5433  recordCounter */\n      sload(0x07)\n        /* \"contracts/HealthWallet.sol\":5382:5735  HealthRecord({... */\n      dup2\n      mstore\n      0x20\n      add\n        /* \"contracts/HealthWallet.sol\":5464:5479  _patientAddress */\n      dup7\n        /* \"contracts/HealthWallet.sol\":5382:5735  HealthRecord({... */\n      0xffffffffffffffffffffffffffffffffffffffff\n      and\n      dup2\n      mstore\n      0x20\n      add\n        /* \"contracts/HealthWallet.sol\":5504:5513  _ipfsHash */\n      dup6\n        /* \"contracts/HealthWallet.sol\":5382:5735  HealthRecord({... */\n      dup2\n      mstore\n      0x20\n      add\n        /* \"contracts/HealthWallet.sol\":5540:5551  _recordType */\n      dup5\n        /* \"contracts/HealthWallet.sol\":5382:5735  HealthRecord({... */\n      0x05\n      dup2\n      gt\n      iszero\n      tag_236\n      jumpi\n      tag_237\n      tag_175\n      jump\t// in\n    tag_237:\n    tag_236:\n      dup2\n      mstore\n      0x20\n      add\n        /* \"contracts/HealthWallet.sol\":5577:5592  block.timestamp */\n      timestamp\n        /* \"contracts/HealthWallet.sol\":5382:5735  HealthRecord({... */\n      dup2\n      mstore\n      0x20\n      add\n        /* \"contracts/HealthWallet.sol\":5617:5627  msg.sender */\n      caller\n        /* \"contracts/HealthWallet.sol\":5382:5735  HealthRecord({... */\n      0xffffffffffffffffffffffffffffffffffffffff\n      and\n      dup2\n      mstore\n      0x20\n      add\n        /* \"contracts/HealthWallet.sol\":5652:5656  true */\n      0x01\n        /* \"contracts/HealthWallet.sol\":5382:5735  HealthRecord({... */\n      iszero\n      iszero\n      dup2\n      mstore\n      0x20\n      add\n        /* \"contracts/HealthWallet.sol\":5685:5698  _encryptedKey */\n      dup4\n        /* \"contracts/HealthWallet.sol\":5382:5735  HealthRecord({... */\n      dup2\n      mstore\n      0x20\n      add\n        /* \"contracts/HealthWallet.sol\":5722:5723  1 */\n      0x01\n        /* \"contracts/HealthWallet.sol\":5382:5735  HealthRecord({... */\n      dup2\n      mstore\n      pop\n        /* \"contracts/HealthWallet.sol\":5357:5364  records */\n      0x03\n        /* \"contracts/HealthWallet.sol\":5357:5379  records[recordCounter] */\n      0x00\n        /* \"contracts/HealthWallet.sol\":5365:5378  recordCounter */\n      sload(0x07)\n        /* \"contracts/HealthWallet.sol\":5357:5379  records[recordCounter] */\n      dup2\n      mstore\n      0x20\n      add\n      swap1\n      dup2\n      mstore\n      0x20\n      add\n      0x00\n      keccak256\n        /* \"contracts/HealthWallet.sol\":5357:5735  records[recordCounter] = HealthRecord({... */\n      0x00\n      dup3\n      add\n      mload\n      dup2\n      0x00\n      add\n      sstore\n      0x20\n      dup3\n      add\n      mload\n      dup2\n      0x01\n      add\n      exp(0x0100, 0x00)\n      dup2\n      sload\n      dup2\n      0xffffffffffffffffffffffffffffffffffffffff\n      mul\n      not\n      and\n      swap1\n      dup4\n      0xffffffffffffffffffffffffffffffffffffffff\n      and\n      mul\n      or\n      swap1\n      sstore\n      pop\n      0x40\n      dup3\n      add\n      mload\n      dup2\n      0x02\n      add\n      swap1\n      dup2\n      tag_238\n      swap2\n      swap1\n      tag_239\n      jump\t// in\n    tag_238:\n      pop\n      0x60\n      dup3\n      add\n      mload\n      dup2\n      0x03\n      add\n      exp(0x0100, 0x00)\n      dup2\n      sload\n      dup2\n      0xff\n      mul\n      not\n      and\n      swap1\n      dup4\n      0x05\n      dup2\n      gt\n      iszero\n      tag_240\n      jumpi\n      tag_241\n      tag_175\n      jump\t// in\n    tag_241:\n    tag_240:\n      mul\n      or\n      swap1\n      sstore\n      pop\n      0x80\n      dup3\n      add\n      mload\n      dup2\n      0x04\n      add\n      sstore\n      0xa0\n      dup3\n      add\n      mload\n      dup2\n      0x05\n      add\n      exp(0x0100, 0x00)\n      dup2\n      sload\n      dup2\n      0xffffffffffffffffffffffffffffffffffffffff\n      mul\n      not\n      and\n      swap1\n      dup4\n      0xffffffffffffffffffffffffffffffffffffffff\n      and\n      mul\n      or\n      swap1\n      sstore\n      pop\n      0xc0\n      dup3\n      add\n      mload\n      dup2\n      0x05\n      add\n      exp(0x0100, 0x14)\n      dup2\n      sload\n      dup2\n      0xff\n      mul\n      not\n      and\n      swap1\n      dup4\n      iszero\n      iszero\n      mul\n      or\n      swap1\n      sstore\n      pop\n      0xe0\n      dup3\n      add\n      mload\n      dup2\n      0x06\n      add\n      swap1\n      dup2\n      tag_242\n      swap2\n      swap1\n      tag_239\n      jump\t// in\n    tag_242:\n      pop\n      0x0100\n      dup3\n      add\n      mload\n      dup2\n      0x07\n      add\n      sstore\n      swap1\n      pop\n      pop\n        /* \"contracts/HealthWallet.sol\":5756:5770  patientRecords */\n      0x02\n        /* \"contracts/HealthWallet.sol\":5756:5787  patientRecords[_patientAddress] */\n      0x00\n        /* \"contracts/HealthWallet.sol\":5771:5786  _patientAddress */\n      dup7\n        /* \"contracts/HealthWallet.sol\":5756:5787  patientRecords[_patientAddress] */\n      0xffffffffffffffffffffffffffffffffffffffff\n      and\n      0xffffffffffffffffffffffffffffffffffffffff\n      and\n      dup2\n      mstore\n      0x20\n      add\n      swap1\n      dup2\n      mstore\n      0x20\n      add\n      0x00\n      keccak256\n        /* \"contracts/HealthWallet.sol\":5793:5806  recordCounter */\n      sload(0x07)\n        /* \"contracts/HealthWallet.sol\":5756:5807  patientRecords[_patientAddress].push(recordCounter) */\n      swap1\n      dup1\n      0x01\n      dup2\n      sload\n      add\n      dup1\n      dup3\n      sstore\n      dup1\n      swap2\n      pop\n      pop\n      0x01\n      swap1\n      sub\n      swap1\n      0x00\n      mstore\n      keccak256(0x00, 0x20)\n      add\n      0x00\n      swap1\n      swap2\n      swap1\n      swap2\n      swap1\n      swap2\n      pop\n      sstore\n        /* \"contracts/HealthWallet.sol\":5860:5875  _patientAddress */\n      dup5\n        /* \"contracts/HealthWallet.sol\":5833:5900  RecordAdded(recordCounter, _patientAddress, _ipfsHash, _recordType) */\n      0xffffffffffffffffffffffffffffffffffffffff\n      and\n        /* \"contracts/HealthWallet.sol\":5845:5858  recordCounter */\n      sload(0x07)\n        /* \"contracts/HealthWallet.sol\":5833:5900  RecordAdded(recordCounter, _patientAddress, _ipfsHash, _recordType) */\n      0x32b3188b62628aabf659cebbab10a599b539bcb0c01a891ab2e37b8be315712e\n        /* \"contracts/HealthWallet.sol\":5877:5886  _ipfsHash */\n      dup7\n        /* \"contracts/HealthWallet.sol\":5888:5899  _recordType */\n      dup7\n        /* \"contracts/HealthWallet.sol\":5833:5900  RecordAdded(recordCounter, _patientAddress, _ipfsHash, _recordType) */\n      mload(0x40)\n      tag_244\n      swap3\n      swap2\n      swap1\n      tag_245\n      jump\t// in\n    tag_244:\n      mload(0x40)\n      dup1\n      swap2\n      sub\n      swap1\n      log3\n        /* \"contracts/HealthWallet.sol\":5918:5931  recordCounter */\n      sload(0x07)\n        /* \"contracts/HealthWallet.sol\":5911:5931  return recordCounter */\n      swap1\n      pop\n        /* \"contracts/HealthWallet.sol\":4925:5939  function addRecordByProvider(... */\n      swap5\n      swap4\n      pop\n      pop\n      pop\n      pop\n      jump\t// out\n        /* \"contracts/HealthWallet.sol\":12783:12990  function authorizeProvider(address _provider) public onlyRole(DEFAULT_ADMIN_ROLE) {... */\n    tag_71:\n        /* \"@openzeppelin/contracts/access/AccessControl.sol\":2241:2245  0x00 */\n      0x00\n        /* \"contracts/HealthWallet.sol\":12845:12863  DEFAULT_ADMIN_ROLE */\n      dup1\n      shl\n        /* \"@openzeppelin/contracts/access/AccessControl.sol\":2473:2489  _checkRole(role) */\n      tag_247\n        /* \"@openzeppelin/contracts/access/AccessControl.sol\":2484:2488  role */\n      dup2\n        /* \"@openzeppelin/contracts/access/AccessControl.sol\":2473:2483  _checkRole */\n      tag_248\n        /* \"@openzeppelin/contracts/access/AccessControl.sol\":2473:2489  _checkRole(role) */\n      jump\t// in\n    tag_247:\n        /* \"contracts/HealthWallet.sol\":12905:12906  0 */\n      0x00\n        /* \"contracts/HealthWallet.sol\":12884:12907  _provider != address(0) */\n      0xffffffffffffffffffffffffffffffffffffffff\n      and\n        /* \"contracts/HealthWallet.sol\":12884:12893  _provider */\n      dup3\n        /* \"contracts/HealthWallet.sol\":12884:12907  _provider != address(0) */\n      0xffffffffffffffffffffffffffffffffffffffff\n      and\n      sub\n        /* \"contracts/HealthWallet.sol\":12876:12936  require(_provider != address(0), \"Invalid provider address\") */\n      tag_250\n      jumpi\n      mload(0x40)\n      0x08c379a000000000000000000000000000000000000000000000000000000000\n      dup2\n      mstore\n      0x04\n      add\n      tag_251\n      swap1\n      tag_252\n      jump\t// in\n    tag_251:\n      mload(0x40)\n      dup1\n      swap2\n      sub\n      swap1\n      revert\n    tag_250:\n        /* \"contracts/HealthWallet.sol\":12947:12982  grantRole(PROVIDER_ROLE, _provider) */\n      tag_253\n        /* \"contracts/HealthWallet.sol\":462:488  keccak256(\"PROVIDER_ROLE\") */\n      0x18d9ff454de989bd126b06bd404b47ede75f9e65543e94e8d212f89d7dcbb87c\n        /* \"contracts/HealthWallet.sol\":12972:12981  _provider */\n      dup4\n        /* \"contracts/HealthWallet.sol\":12947:12956  grantRole */\n      tag_98\n        /* \"contracts/HealthWallet.sol\":12947:12982  grantRole(PROVIDER_ROLE, _provider) */\n      jump\t// in\n    tag_253:\n        /* \"contracts/HealthWallet.sol\":12783:12990  function authorizeProvider(address _provider) public onlyRole(DEFAULT_ADMIN_ROLE) {... */\n      pop\n      pop\n      jump\t// out\n        /* \"contracts/HealthWallet.sol\":9006:9894  function getPatientRecords(address _patient) ... */\n    tag_74:\n        /* \"contracts/HealthWallet.sol\":9102:9118  uint256[] memory */\n      0x60\n        /* \"contracts/HealthWallet.sol\":9155:9163  _patient */\n      dup2\n        /* \"contracts/HealthWallet.sol\":9141:9163  msg.sender == _patient */\n      0xffffffffffffffffffffffffffffffffffffffff\n      and\n        /* \"contracts/HealthWallet.sol\":9141:9151  msg.sender */\n      caller\n        /* \"contracts/HealthWallet.sol\":9141:9163  msg.sender == _patient */\n      0xffffffffffffffffffffffffffffffffffffffff\n      and\n      sub\n        /* \"contracts/HealthWallet.sol\":9137:9223  if (msg.sender == _patient) {... */\n      tag_255\n      jumpi\n        /* \"contracts/HealthWallet.sol\":9187:9201  patientRecords */\n      0x02\n        /* \"contracts/HealthWallet.sol\":9187:9211  patientRecords[_patient] */\n      0x00\n        /* \"contracts/HealthWallet.sol\":9202:9210  _patient */\n      dup4\n        /* \"contracts/HealthWallet.sol\":9187:9211  patientRecords[_patient] */\n      0xffffffffffffffffffffffffffffffffffffffff\n      and\n      0xffffffffffffffffffffffffffffffffffffffff\n      and\n      dup2\n      mstore\n      0x20\n      add\n      swap1\n      dup2\n      mstore\n      0x20\n      add\n      0x00\n      keccak256\n        /* \"contracts/HealthWallet.sol\":9180:9211  return patientRecords[_patient] */\n      dup1\n      sload\n      dup1\n      0x20\n      mul\n      0x20\n      add\n      mload(0x40)\n      swap1\n      dup2\n      add\n      0x40\n      mstore\n      dup1\n      swap3\n      swap2\n      swap1\n      dup2\n      dup2\n      mstore\n      0x20\n      add\n      dup3\n      dup1\n      sload\n      dup1\n      iszero\n      tag_256\n      jumpi\n      0x20\n      mul\n      dup3\n      add\n      swap2\n      swap1\n      0x00\n      mstore\n      keccak256(0x00, 0x20)\n      swap1\n    tag_257:\n      dup2\n      sload\n      dup2\n      mstore\n      0x20\n      add\n      swap1\n      0x01\n      add\n      swap1\n      dup1\n      dup4\n      gt\n      tag_257\n      jumpi\n    tag_256:\n      pop\n      pop\n      pop\n      pop\n      pop\n      swap1\n      pop\n      jump(tag_254)\n        /* \"contracts/HealthWallet.sol\":9137:9223  if (msg.sender == _patient) {... */\n    tag_255:\n        /* \"contracts/HealthWallet.sol\":9243:9281  hasGeneralAccess(_patient, msg.sender) */\n      tag_258\n        /* \"contracts/HealthWallet.sol\":9260:9268  _patient */\n      dup3\n        /* \"contracts/HealthWallet.sol\":9270:9280  msg.sender */\n      caller\n        /* \"contracts/HealthWallet.sol\":9243:9259  hasGeneralAccess */\n      tag_259\n        /* \"contracts/HealthWallet.sol\":9243:9281  hasGeneralAccess(_patient, msg.sender) */\n      jump\t// in\n    tag_258:\n        /* \"contracts/HealthWallet.sol\":9235:9300  require(hasGeneralAccess(_patient, msg.sender), \"Not authorized\") */\n      tag_260\n      jumpi\n      mload(0x40)\n      0x08c379a000000000000000000000000000000000000000000000000000000000\n      dup2\n      mstore\n      0x04\n      add\n      tag_261\n      swap1\n      tag_262\n      jump\t// in\n    tag_261:\n      mload(0x40)\n      dup1\n      swap2\n      sub\n      swap1\n      revert\n    tag_260:\n        /* \"contracts/HealthWallet.sol\":9313:9334  uint256[] storage all */\n      0x00\n        /* \"contracts/HealthWallet.sol\":9337:9351  patientRecords */\n      0x02\n        /* \"contracts/HealthWallet.sol\":9337:9361  patientRecords[_patient] */\n      0x00\n        /* \"contracts/HealthWallet.sol\":9352:9360  _patient */\n      dup5\n        /* \"contracts/HealthWallet.sol\":9337:9361  patientRecords[_patient] */\n      0xffffffffffffffffffffffffffffffffffffffff\n      and\n      0xffffffffffffffffffffffffffffffffffffffff\n      and\n      dup2\n      mstore\n      0x20\n      add\n      swap1\n      dup2\n      mstore\n      0x20\n      add\n      0x00\n      keccak256\n        /* \"contracts/HealthWallet.sol\":9313:9361  uint256[] storage all = patientRecords[_patient] */\n      swap1\n      pop\n        /* \"contracts/HealthWallet.sol\":9372:9392  uint256 allowedCount */\n      0x00\n        /* \"contracts/HealthWallet.sol\":9412:9421  uint256 i */\n      dup1\n        /* \"contracts/HealthWallet.sol\":9407:9568  for (uint256 i = 0; i < all.length; i++) {... */\n    tag_263:\n        /* \"contracts/HealthWallet.sol\":9431:9434  all */\n      dup3\n        /* \"contracts/HealthWallet.sol\":9431:9441  all.length */\n      dup1\n      sload\n      swap1\n      pop\n        /* \"contracts/HealthWallet.sol\":9427:9428  i */\n      dup2\n        /* \"contracts/HealthWallet.sol\":9427:9441  i < all.length */\n      lt\n        /* \"contracts/HealthWallet.sol\":9407:9568  for (uint256 i = 0; i < all.length; i++) {... */\n      iszero\n      tag_264\n      jumpi\n        /* \"contracts/HealthWallet.sol\":9467:9506  hasAccess(_patient, msg.sender, all[i]) */\n      tag_266\n        /* \"contracts/HealthWallet.sol\":9477:9485  _patient */\n      dup6\n        /* \"contracts/HealthWallet.sol\":9487:9497  msg.sender */\n      caller\n        /* \"contracts/HealthWallet.sol\":9499:9502  all */\n      dup6\n        /* \"contracts/HealthWallet.sol\":9503:9504  i */\n      dup5\n        /* \"contracts/HealthWallet.sol\":9499:9505  all[i] */\n      dup2\n      sload\n      dup2\n      lt\n      tag_267\n      jumpi\n      tag_268\n      tag_269\n      jump\t// in\n    tag_268:\n    tag_267:\n      swap1\n      0x00\n      mstore\n      keccak256(0x00, 0x20)\n      add\n      sload\n        /* \"contracts/HealthWallet.sol\":9467:9476  hasAccess */\n      tag_149\n        /* \"contracts/HealthWallet.sol\":9467:9506  hasAccess(_patient, msg.sender, all[i]) */\n      jump\t// in\n    tag_266:\n        /* \"contracts/HealthWallet.sol\":9463:9557  if (hasAccess(_patient, msg.sender, all[i])) {... */\n      iszero\n      tag_271\n      jumpi\n        /* \"contracts/HealthWallet.sol\":9527:9541  allowedCount++ */\n      dup2\n      dup1\n      tag_272\n      swap1\n      tag_235\n      jump\t// in\n    tag_272:\n      swap3\n      pop\n      pop\n        /* \"contracts/HealthWallet.sol\":9463:9557  if (hasAccess(_patient, msg.sender, all[i])) {... */\n    tag_271:\n        /* \"contracts/HealthWallet.sol\":9443:9446  i++ */\n      dup1\n      dup1\n      0x01\n      add\n      swap2\n      pop\n      pop\n        /* \"contracts/HealthWallet.sol\":9407:9568  for (uint256 i = 0; i < all.length; i++) {... */\n      jump(tag_263)\n    tag_264:\n      pop\n        /* \"contracts/HealthWallet.sol\":9580:9603  uint256[] memory result */\n      0x00\n        /* \"contracts/HealthWallet.sol\":9620:9632  allowedCount */\n      dup2\n        /* \"contracts/HealthWallet.sol\":9606:9633  new uint256[](allowedCount) */\n      0xffffffffffffffff\n      dup2\n      gt\n      iszero\n      tag_273\n      jumpi\n      tag_274\n      tag_275\n      jump\t// in\n    tag_274:\n    tag_273:\n      mload(0x40)\n      swap1\n      dup1\n      dup3\n      mstore\n      dup1\n      0x20\n      mul\n      0x20\n      add\n      dup3\n      add\n      0x40\n      mstore\n      dup1\n      iszero\n      tag_276\n      jumpi\n      dup2\n      0x20\n      add\n      0x20\n      dup3\n      mul\n      dup1\n      calldatasize\n      dup4\n      calldatacopy\n      dup1\n      dup3\n      add\n      swap2\n      pop\n      pop\n      swap1\n      pop\n    tag_276:\n      pop\n        /* \"contracts/HealthWallet.sol\":9580:9633  uint256[] memory result = new uint256[](allowedCount) */\n      swap1\n      pop\n        /* \"contracts/HealthWallet.sol\":9644:9655  uint256 idx */\n      0x00\n        /* \"contracts/HealthWallet.sol\":9675:9684  uint256 i */\n      dup1\n        /* \"contracts/HealthWallet.sol\":9670:9861  for (uint256 i = 0; i < all.length; i++) {... */\n    tag_277:\n        /* \"contracts/HealthWallet.sol\":9694:9697  all */\n      dup5\n        /* \"contracts/HealthWallet.sol\":9694:9704  all.length */\n      dup1\n      sload\n      swap1\n      pop\n        /* \"contracts/HealthWallet.sol\":9690:9691  i */\n      dup2\n        /* \"contracts/HealthWallet.sol\":9690:9704  i < all.length */\n      lt\n        /* \"contracts/HealthWallet.sol\":9670:9861  for (uint256 i = 0; i < all.length; i++) {... */\n      iszero\n      tag_278\n      jumpi\n        /* \"contracts/HealthWallet.sol\":9730:9769  hasAccess(_patient, msg.sender, all[i]) */\n      tag_280\n        /* \"contracts/HealthWallet.sol\":9740:9748  _patient */\n      dup8\n        /* \"contracts/HealthWallet.sol\":9750:9760  msg.sender */\n      caller\n        /* \"contracts/HealthWallet.sol\":9762:9765  all */\n      dup8\n        /* \"contracts/HealthWallet.sol\":9766:9767  i */\n      dup5\n        /* \"contracts/HealthWallet.sol\":9762:9768  all[i] */\n      dup2\n      sload\n      dup2\n      lt\n      tag_281\n      jumpi\n      tag_282\n      tag_269\n      jump\t// in\n    tag_282:\n    tag_281:\n      swap1\n      0x00\n      mstore\n      keccak256(0x00, 0x20)\n      add\n      sload\n        /* \"contracts/HealthWallet.sol\":9730:9739  hasAccess */\n      tag_149\n        /* \"contracts/HealthWallet.sol\":9730:9769  hasAccess(_patient, msg.sender, all[i]) */\n      jump\t// in\n    tag_280:\n        /* \"contracts/HealthWallet.sol\":9726:9850  if (hasAccess(_patient, msg.sender, all[i])) {... */\n      iszero\n      tag_284\n      jumpi\n        /* \"contracts/HealthWallet.sol\":9804:9807  all */\n      dup5\n        /* \"contracts/HealthWallet.sol\":9808:9809  i */\n      dup2\n        /* \"contracts/HealthWallet.sol\":9804:9810  all[i] */\n      dup2\n      sload\n      dup2\n      lt\n      tag_285\n      jumpi\n      tag_286\n      tag_269\n      jump\t// in\n    tag_286:\n    tag_285:\n      swap1\n      0x00\n      mstore\n      keccak256(0x00, 0x20)\n      add\n      sload\n        /* \"contracts/HealthWallet.sol\":9790:9796  result */\n      dup4\n        /* \"contracts/HealthWallet.sol\":9797:9800  idx */\n      dup4\n        /* \"contracts/HealthWallet.sol\":9790:9801  result[idx] */\n      dup2\n      mload\n      dup2\n      lt\n      tag_288\n      jumpi\n      tag_289\n      tag_269\n      jump\t// in\n    tag_289:\n    tag_288:\n      0x20\n      mul\n      0x20\n      add\n      add\n        /* \"contracts/HealthWallet.sol\":9790:9810  result[idx] = all[i] */\n      dup2\n      dup2\n      mstore\n      pop\n      pop\n        /* \"contracts/HealthWallet.sol\":9829:9834  idx++ */\n      dup2\n      dup1\n      tag_290\n      swap1\n      tag_235\n      jump\t// in\n    tag_290:\n      swap3\n      pop\n      pop\n        /* \"contracts/HealthWallet.sol\":9726:9850  if (hasAccess(_patient, msg.sender, all[i])) {... */\n    tag_284:\n        /* \"contracts/HealthWallet.sol\":9706:9709  i++ */\n      dup1\n      dup1\n      0x01\n      add\n      swap2\n      pop\n      pop\n        /* \"contracts/HealthWallet.sol\":9670:9861  for (uint256 i = 0; i < all.length; i++) {... */\n      jump(tag_277)\n    tag_278:\n      pop\n        /* \"contracts/HealthWallet.sol\":9880:9886  result */\n      dup2\n        /* \"contracts/HealthWallet.sol\":9873:9886  return result */\n      swap5\n      pop\n      pop\n      pop\n      pop\n      pop\n        /* \"contracts/HealthWallet.sol\":9006:9894  function getPatientRecords(address _patient) ... */\n    tag_254:\n      swap2\n      swap1\n      pop\n      jump\t// out\n        /* \"contracts/HealthWallet.sol\":3981:4837  function addRecord(... */\n    tag_80:\n        /* \"contracts/HealthWallet.sol\":4128:4135  uint256 */\n      0x00\n        /* \"contracts/HealthWallet.sol\":4182:4183  0 */\n      dup1\n        /* \"contracts/HealthWallet.sol\":4162:4171  _ipfsHash */\n      dup5\n        /* \"contracts/HealthWallet.sol\":4156:4179  bytes(_ipfsHash).length */\n      mload\n        /* \"contracts/HealthWallet.sol\":4156:4183  bytes(_ipfsHash).length > 0 */\n      gt\n        /* \"contracts/HealthWallet.sol\":4148:4213  require(bytes(_ipfsHash).length > 0, \"IPFS hash cannot be empty\") */\n      tag_292\n      jumpi\n      mload(0x40)\n      0x08c379a000000000000000000000000000000000000000000000000000000000\n      dup2\n      mstore\n      0x04\n      add\n      tag_293\n      swap1\n      tag_233\n      jump\t// in\n    tag_293:\n      mload(0x40)\n      dup1\n      swap2\n      sub\n      swap1\n      revert\n    tag_292:\n        /* \"contracts/HealthWallet.sol\":4234:4247  recordCounter */\n      0x07\n      0x00\n        /* \"contracts/HealthWallet.sol\":4234:4249  recordCounter++ */\n      dup2\n      sload\n      dup1\n      swap3\n      swap2\n      swap1\n      tag_294\n      swap1\n      tag_235\n      jump\t// in\n    tag_294:\n      swap2\n      swap1\n      pop\n      sstore\n      pop\n        /* \"contracts/HealthWallet.sol\":4295:4643  HealthRecord({... */\n      mload(0x40)\n      dup1\n      0x0120\n      add\n      0x40\n      mstore\n      dup1\n        /* \"contracts/HealthWallet.sol\":4333:4346  recordCounter */\n      sload(0x07)\n        /* \"contracts/HealthWallet.sol\":4295:4643  HealthRecord({... */\n      dup2\n      mstore\n      0x20\n      add\n        /* \"contracts/HealthWallet.sol\":4377:4387  msg.sender */\n      caller\n        /* \"contracts/HealthWallet.sol\":4295:4643  HealthRecord({... */\n      0xffffffffffffffffffffffffffffffffffffffff\n      and\n      dup2\n      mstore\n      0x20\n      add\n        /* \"contracts/HealthWallet.sol\":4412:4421  _ipfsHash */\n      dup6\n        /* \"contracts/HealthWallet.sol\":4295:4643  HealthRecord({... */\n      dup2\n      mstore\n      0x20\n      add\n        /* \"contracts/HealthWallet.sol\":4448:4459  _recordType */\n      dup5\n        /* \"contracts/HealthWallet.sol\":4295:4643  HealthRecord({... */\n      0x05\n      dup2\n      gt\n      iszero\n      tag_295\n      jumpi\n      tag_296\n      tag_175\n      jump\t// in\n    tag_296:\n    tag_295:\n      dup2\n      mstore\n      0x20\n      add\n        /* \"contracts/HealthWallet.sol\":4485:4500  block.timestamp */\n      timestamp\n        /* \"contracts/HealthWallet.sol\":4295:4643  HealthRecord({... */\n      dup2\n      mstore\n      0x20\n      add\n        /* \"contracts/HealthWallet.sol\":4525:4535  msg.sender */\n      caller\n        /* \"contracts/HealthWallet.sol\":4295:4643  HealthRecord({... */\n      0xffffffffffffffffffffffffffffffffffffffff\n      and\n      dup2\n      mstore\n      0x20\n      add\n        /* \"contracts/HealthWallet.sol\":4560:4564  true */\n      0x01\n        /* \"contracts/HealthWallet.sol\":4295:4643  HealthRecord({... */\n      iszero\n      iszero\n      dup2\n      mstore\n      0x20\n      add\n        /* \"contracts/HealthWallet.sol\":4593:4606  _encryptedKey */\n      dup4\n        /* \"contracts/HealthWallet.sol\":4295:4643  HealthRecord({... */\n      dup2\n      mstore\n      0x20\n      add\n        /* \"contracts/HealthWallet.sol\":4630:4631  1 */\n      0x01\n        /* \"contracts/HealthWallet.sol\":4295:4643  HealthRecord({... */\n      dup2\n      mstore\n      pop\n        /* \"contracts/HealthWallet.sol\":4270:4277  records */\n      0x03\n        /* \"contracts/HealthWallet.sol\":4270:4292  records[recordCounter] */\n      0x00\n        /* \"contracts/HealthWallet.sol\":4278:4291  recordCounter */\n      sload(0x07)\n        /* \"contracts/HealthWallet.sol\":4270:4292  records[recordCounter] */\n      dup2\n      mstore\n      0x20\n      add\n      swap1\n      dup2\n      mstore\n      0x20\n      add\n      0x00\n      keccak256\n        /* \"contracts/HealthWallet.sol\":4270:4643  records[recordCounter] = HealthRecord({... */\n      0x00\n      dup3\n      add\n      mload\n      dup2\n      0x00\n      add\n      sstore\n      0x20\n      dup3\n      add\n      mload\n      dup2\n      0x01\n      add\n      exp(0x0100, 0x00)\n      dup2\n      sload\n      dup2\n      0xffffffffffffffffffffffffffffffffffffffff\n      mul\n      not\n      and\n      swap1\n      dup4\n      0xffffffffffffffffffffffffffffffffffffffff\n      and\n      mul\n      or\n      swap1\n      sstore\n      pop\n      0x40\n      dup3\n      add\n      mload\n      dup2\n      0x02\n      add\n      swap1\n      dup2\n      tag_297\n      swap2\n      swap1\n      tag_239\n      jump\t// in\n    tag_297:\n      pop\n      0x60\n      dup3\n      add\n      mload\n      dup2\n      0x03\n      add\n      exp(0x0100, 0x00)\n      dup2\n      sload\n      dup2\n      0xff\n      mul\n      not\n      and\n      swap1\n      dup4\n      0x05\n      dup2\n      gt\n      iszero\n      tag_298\n      jumpi\n      tag_299\n      tag_175\n      jump\t// in\n    tag_299:\n    tag_298:\n      mul\n      or\n      swap1\n      sstore\n      pop\n      0x80\n      dup3\n      add\n      mload\n      dup2\n      0x04\n      add\n      sstore\n      0xa0\n      dup3\n      add\n      mload\n      dup2\n      0x05\n      add\n      exp(0x0100, 0x00)\n      dup2\n      sload\n      dup2\n      0xffffffffffffffffffffffffffffffffffffffff\n      mul\n      not\n      and\n      swap1\n      dup4\n      0xffffffffffffffffffffffffffffffffffffffff\n      and\n      mul\n      or\n      swap1\n      sstore\n      pop\n      0xc0\n      dup3\n      add\n      mload\n      dup2\n      0x05\n      add\n      exp(0x0100, 0x14)\n      dup2\n      sload\n      dup2\n      0xff\n      mul\n      not\n      and\n      swap1\n      dup4\n      iszero\n      iszero\n      mul\n      or\n      swap1\n      sstore\n      pop\n      0xe0\n      dup3\n      add\n      mload\n      dup2\n      0x06\n      add\n      swap1\n      dup2\n      tag_300\n      swap2\n      swap1\n      tag_239\n      jump\t// in\n    tag_300:\n      pop\n      0x0100\n      dup3\n      add\n      mload\n      dup2\n      0x07\n      add\n      sstore\n      swap1\n      pop\n      pop\n        /* \"contracts/HealthWallet.sol\":4664:4678  patientRecords */\n      0x02\n        /* \"contracts/HealthWallet.sol\":4664:4690  patientRecords[msg.sender] */\n      0x00\n        /* \"contracts/HealthWallet.sol\":4679:4689  msg.sender */\n      caller\n        /* \"contracts/HealthWallet.sol\":4664:4690  patientRecords[msg.sender] */\n      0xffffffffffffffffffffffffffffffffffffffff\n      and\n      0xffffffffffffffffffffffffffffffffffffffff\n      and\n      dup2\n      mstore\n      0x20\n      add\n      swap1\n      dup2\n      mstore\n      0x20\n      add\n      0x00\n      keccak256\n        /* \"contracts/HealthWallet.sol\":4696:4709  recordCounter */\n      sload(0x07)\n        /* \"contracts/HealthWallet.sol\":4664:4710  patientRecords[msg.sender].push(recordCounter) */\n      swap1\n      dup1\n      0x01\n      dup2\n      sload\n      add\n      dup1\n      dup3\n      sstore\n      dup1\n      swap2\n      pop\n      pop\n      0x01\n      swap1\n      sub\n      swap1\n      0x00\n      mstore\n      keccak256(0x00, 0x20)\n      add\n      0x00\n      swap1\n      swap2\n      swap1\n      swap2\n      swap1\n      swap2\n      pop\n      sstore\n        /* \"contracts/HealthWallet.sol\":4763:4773  msg.sender */\n      caller\n        /* \"contracts/HealthWallet.sol\":4736:4798  RecordAdded(recordCounter, msg.sender, _ipfsHash, _recordType) */\n      0xffffffffffffffffffffffffffffffffffffffff\n      and\n        /* \"contracts/HealthWallet.sol\":4748:4761  recordCounter */\n      sload(0x07)\n        /* \"contracts/HealthWallet.sol\":4736:4798  RecordAdded(recordCounter, msg.sender, _ipfsHash, _recordType) */\n      0x32b3188b62628aabf659cebbab10a599b539bcb0c01a891ab2e37b8be315712e\n        /* \"contracts/HealthWallet.sol\":4775:4784  _ipfsHash */\n      dup7\n        /* \"contracts/HealthWallet.sol\":4786:4797  _recordType */\n      dup7\n        /* \"contracts/HealthWallet.sol\":4736:4798  RecordAdded(recordCounter, msg.sender, _ipfsHash, _recordType) */\n      mload(0x40)\n      tag_302\n      swap3\n      swap2\n      swap1\n      tag_245\n      jump\t// in\n    tag_302:\n      mload(0x40)\n      dup1\n      swap2\n      sub\n      swap1\n      log3\n        /* \"contracts/HealthWallet.sol\":4816:4829  recordCounter */\n      sload(0x07)\n        /* \"contracts/HealthWallet.sol\":4809:4829  return recordCounter */\n      swap1\n      pop\n        /* \"contracts/HealthWallet.sol\":3981:4837  function addRecord(... */\n      swap4\n      swap3\n      pop\n      pop\n      pop\n      jump\t// out\n        /* \"contracts/HealthWallet.sol\":13312:13447  function isAuthorizedProvider(address _provider) public view returns (bool) {... */\n    tag_84:\n        /* \"contracts/HealthWallet.sol\":13382:13386  bool */\n      0x00\n        /* \"contracts/HealthWallet.sol\":13406:13439  hasRole(PROVIDER_ROLE, _provider) */\n      tag_304\n        /* \"contracts/HealthWallet.sol\":462:488  keccak256(\"PROVIDER_ROLE\") */\n      0x18d9ff454de989bd126b06bd404b47ede75f9e65543e94e8d212f89d7dcbb87c\n        /* \"contracts/HealthWallet.sol\":13429:13438  _provider */\n      dup4\n        /* \"contracts/HealthWallet.sol\":13406:13413  hasRole */\n      tag_126\n        /* \"contracts/HealthWallet.sol\":13406:13439  hasRole(PROVIDER_ROLE, _provider) */\n      jump\t// in\n    tag_304:\n        /* \"contracts/HealthWallet.sol\":13399:13439  return hasRole(PROVIDER_ROLE, _provider) */\n      swap1\n      pop\n        /* \"contracts/HealthWallet.sol\":13312:13447  function isAuthorizedProvider(address _provider) public view returns (bool) {... */\n      swap2\n      swap1\n      pop\n      jump\t// out\n        /* \"@openzeppelin/contracts/access/AccessControl.sol\":3786:3906  function getRoleAdmin(bytes32 role) public view virtual returns (bytes32) {... */\n    tag_89:\n        /* \"@openzeppelin/contracts/access/AccessControl.sol\":3851:3858  bytes32 */\n      0x00\n        /* \"@openzeppelin/contracts/access/AccessControl.sol\":3877:3883  _roles */\n      0x01\n        /* \"@openzeppelin/contracts/access/AccessControl.sol\":3877:3889  _roles[role] */\n      0x00\n        /* \"@openzeppelin/contracts/access/AccessControl.sol\":3884:3888  role */\n      dup4\n        /* \"@openzeppelin/contracts/access/AccessControl.sol\":3877:3889  _roles[role] */\n      dup2\n      mstore\n      0x20\n      add\n      swap1\n      dup2\n      mstore\n      0x20\n      add\n      0x00\n      keccak256\n        /* \"@openzeppelin/contracts/access/AccessControl.sol\":3877:3899  _roles[role].adminRole */\n      0x01\n      add\n      sload\n        /* \"@openzeppelin/contracts/access/AccessControl.sol\":3870:3899  return _roles[role].adminRole */\n      swap1\n      pop\n        /* \"@openzeppelin/contracts/access/AccessControl.sol\":3786:3906  function getRoleAdmin(bytes32 role) public view virtual returns (bytes32) {... */\n      swap2\n      swap1\n      pop\n      jump\t// out\n        /* \"contracts/HealthWallet.sol\":422:488  bytes32 public constant PROVIDER_ROLE = keccak256(\"PROVIDER_ROLE\") */\n    tag_93:\n        /* \"contracts/HealthWallet.sol\":462:488  keccak256(\"PROVIDER_ROLE\") */\n      0x18d9ff454de989bd126b06bd404b47ede75f9e65543e94e8d212f89d7dcbb87c\n        /* \"contracts/HealthWallet.sol\":422:488  bytes32 public constant PROVIDER_ROLE = keccak256(\"PROVIDER_ROLE\") */\n      dup2\n      jump\t// out\n        /* \"@openzeppelin/contracts/access/AccessControl.sol\":4202:4338  function grantRole(bytes32 role, address account) public virtual onlyRole(getRoleAdmin(role)) {... */\n    tag_98:\n        /* \"@openzeppelin/contracts/access/AccessControl.sol\":4276:4294  getRoleAdmin(role) */\n      tag_306\n        /* \"@openzeppelin/contracts/access/AccessControl.sol\":4289:4293  role */\n      dup3\n        /* \"@openzeppelin/contracts/access/AccessControl.sol\":4276:4288  getRoleAdmin */\n      tag_89\n        /* \"@openzeppelin/contracts/access/AccessControl.sol\":4276:4294  getRoleAdmin(role) */\n      jump\t// in\n    tag_306:\n        /* \"@openzeppelin/contracts/access/AccessControl.sol\":2473:2489  _checkRole(role) */\n      tag_308\n        /* \"@openzeppelin/contracts/access/AccessControl.sol\":2484:2488  role */\n      dup2\n        /* \"@openzeppelin/contracts/access/AccessControl.sol\":2473:2483  _checkRole */\n      tag_248\n        /* \"@openzeppelin/contracts/access/AccessControl.sol\":2473:2489  _checkRole(role) */\n      jump\t// in\n    tag_308:\n        /* \"@openzeppelin/contracts/access/AccessControl.sol\":4306:4331  _grantRole(role, account) */\n      tag_310\n        /* \"@openzeppelin/contracts/access/AccessControl.sol\":4317:4321  role */\n      dup4\n        /* \"@openzeppelin/contracts/access/AccessControl.sol\":4323:4330  account */\n      dup4\n        /* \"@openzeppelin/contracts/access/AccessControl.sol\":4306:4316  _grantRole */\n      tag_311\n        /* \"@openzeppelin/contracts/access/AccessControl.sol\":4306:4331  _grantRole(role, account) */\n      jump\t// in\n    tag_310:\n      pop\n        /* \"@openzeppelin/contracts/access/AccessControl.sol\":4202:4338  function grantRole(bytes32 role, address account) public virtual onlyRole(getRoleAdmin(role)) {... */\n      pop\n      pop\n      pop\n      jump\t// out\n        /* \"@openzeppelin/contracts/access/AccessControl.sol\":5304:5549  function renounceRole(bytes32 role, address callerConfirmation) public virtual {... */\n    tag_101:\n        /* \"@openzeppelin/contracts/access/AccessControl.sol\":5419:5431  _msgSender() */\n      tag_313\n        /* \"@openzeppelin/contracts/access/AccessControl.sol\":5419:5429  _msgSender */\n      tag_314\n        /* \"@openzeppelin/contracts/access/AccessControl.sol\":5419:5431  _msgSender() */\n      jump\t// in\n    tag_313:\n        /* \"@openzeppelin/contracts/access/AccessControl.sol\":5397:5431  callerConfirmation != _msgSender() */\n      0xffffffffffffffffffffffffffffffffffffffff\n      and\n        /* \"@openzeppelin/contracts/access/AccessControl.sol\":5397:5415  callerConfirmation */\n      dup2\n        /* \"@openzeppelin/contracts/access/AccessControl.sol\":5397:5431  callerConfirmation != _msgSender() */\n      0xffffffffffffffffffffffffffffffffffffffff\n      and\n      eq\n        /* \"@openzeppelin/contracts/access/AccessControl.sol\":5393:5495  if (callerConfirmation != _msgSender()) {... */\n      tag_315\n      jumpi\n        /* \"@openzeppelin/contracts/access/AccessControl.sol\":5454:5484  AccessControlBadConfirmation() */\n      mload(0x40)\n      0x6697b23200000000000000000000000000000000000000000000000000000000\n      dup2\n      mstore\n      0x04\n      add\n      mload(0x40)\n      dup1\n      swap2\n      sub\n      swap1\n      revert\n        /* \"@openzeppelin/contracts/access/AccessControl.sol\":5393:5495  if (callerConfirmation != _msgSender()) {... */\n    tag_315:\n        /* \"@openzeppelin/contracts/access/AccessControl.sol\":5505:5542  _revokeRole(role, callerConfirmation) */\n      tag_316\n        /* \"@openzeppelin/contracts/access/AccessControl.sol\":5517:5521  role */\n      dup3\n        /* \"@openzeppelin/contracts/access/AccessControl.sol\":5523:5541  callerConfirmation */\n      dup3\n        /* \"@openzeppelin/contracts/access/AccessControl.sol\":5505:5516  _revokeRole */\n      tag_317\n        /* \"@openzeppelin/contracts/access/AccessControl.sol\":5505:5542  _revokeRole(role, callerConfirmation) */\n      jump\t// in\n    tag_316:\n      pop\n        /* \"@openzeppelin/contracts/access/AccessControl.sol\":5304:5549  function renounceRole(bytes32 role, address callerConfirmation) public virtual {... */\n      pop\n      pop\n      jump\t// out\n        /* \"contracts/HealthWallet.sol\":6008:6461  function updateRecord(... */\n    tag_105:\n        /* \"contracts/HealthWallet.sol\":6163:6172  _recordId */\n      dup3\n        /* \"contracts/HealthWallet.sol\":3766:3767  0 */\n      0x00\n        /* \"contracts/HealthWallet.sol\":3754:3763  _recordId */\n      dup2\n        /* \"contracts/HealthWallet.sol\":3754:3767  _recordId > 0 */\n      gt\n        /* \"contracts/HealthWallet.sol\":3754:3797  _recordId > 0 && _recordId <= recordCounter */\n      dup1\n      iszero\n      tag_319\n      jumpi\n      pop\n        /* \"contracts/HealthWallet.sol\":3784:3797  recordCounter */\n      sload(0x07)\n        /* \"contracts/HealthWallet.sol\":3771:3780  _recordId */\n      dup2\n        /* \"contracts/HealthWallet.sol\":3771:3797  _recordId <= recordCounter */\n      gt\n      iszero\n        /* \"contracts/HealthWallet.sol\":3754:3797  _recordId > 0 && _recordId <= recordCounter */\n    tag_319:\n        /* \"contracts/HealthWallet.sol\":3746:3823  require(_recordId > 0 && _recordId <= recordCounter, \"Record does not exist\") */\n      tag_320\n      jumpi\n      mload(0x40)\n      0x08c379a000000000000000000000000000000000000000000000000000000000\n      dup2\n      mstore\n      0x04\n      add\n      tag_321\n      swap1\n      tag_161\n      jump\t// in\n    tag_321:\n      mload(0x40)\n      dup1\n      swap2\n      sub\n      swap1\n      revert\n    tag_320:\n        /* \"contracts/HealthWallet.sol\":3842:3849  records */\n      0x03\n        /* \"contracts/HealthWallet.sol\":3842:3860  records[_recordId] */\n      0x00\n        /* \"contracts/HealthWallet.sol\":3850:3859  _recordId */\n      dup3\n        /* \"contracts/HealthWallet.sol\":3842:3860  records[_recordId] */\n      dup2\n      mstore\n      0x20\n      add\n      swap1\n      dup2\n      mstore\n      0x20\n      add\n      0x00\n      keccak256\n        /* \"contracts/HealthWallet.sol\":3842:3869  records[_recordId].isActive */\n      0x05\n      add\n      0x14\n      swap1\n      sload\n      swap1\n      0x0100\n      exp\n      swap1\n      div\n      0xff\n      and\n        /* \"contracts/HealthWallet.sol\":3834:3894  require(records[_recordId].isActive, \"Record is not active\") */\n      tag_322\n      jumpi\n      mload(0x40)\n      0x08c379a000000000000000000000000000000000000000000000000000000000\n      dup2\n      mstore\n      0x04\n      add\n      tag_323\n      swap1\n      tag_164\n      jump\t// in\n    tag_323:\n      mload(0x40)\n      dup1\n      swap2\n      sub\n      swap1\n      revert\n    tag_322:\n        /* \"contracts/HealthWallet.sol\":6186:6195  _recordId */\n      dup4\n        /* \"contracts/HealthWallet.sol\":3349:3359  msg.sender */\n      caller\n        /* \"contracts/HealthWallet.sol\":3312:3359  records[_recordId].patientAddress == msg.sender */\n      0xffffffffffffffffffffffffffffffffffffffff\n      and\n        /* \"contracts/HealthWallet.sol\":3312:3319  records */\n      0x03\n        /* \"contracts/HealthWallet.sol\":3312:3330  records[_recordId] */\n      0x00\n        /* \"contracts/HealthWallet.sol\":3320:3329  _recordId */\n      dup4\n        /* \"contracts/HealthWallet.sol\":3312:3330  records[_recordId] */\n      dup2\n      mstore\n      0x20\n      add\n      swap1\n      dup2\n      mstore\n      0x20\n      add\n      0x00\n      keccak256\n        /* \"contracts/HealthWallet.sol\":3312:3345  records[_recordId].patientAddress */\n      0x01\n      add\n      0x00\n      swap1\n      sload\n      swap1\n      0x0100\n      exp\n      swap1\n      div\n      0xffffffffffffffffffffffffffffffffffffffff\n      and\n        /* \"contracts/HealthWallet.sol\":3312:3359  records[_recordId].patientAddress == msg.sender */\n      0xffffffffffffffffffffffffffffffffffffffff\n      and\n      eq\n        /* \"contracts/HealthWallet.sol\":3290:3423  require(... */\n      tag_325\n      jumpi\n      mload(0x40)\n      0x08c379a000000000000000000000000000000000000000000000000000000000\n      dup2\n      mstore\n      0x04\n      add\n      tag_326\n      swap1\n      tag_168\n      jump\t// in\n    tag_326:\n      mload(0x40)\n      dup1\n      swap2\n      sub\n      swap1\n      revert\n    tag_325:\n        /* \"contracts/HealthWallet.sol\":6208:6235  HealthRecord storage record */\n      0x00\n        /* \"contracts/HealthWallet.sol\":6238:6245  records */\n      0x03\n        /* \"contracts/HealthWallet.sol\":6238:6256  records[_recordId] */\n      0x00\n        /* \"contracts/HealthWallet.sol\":6246:6255  _recordId */\n      dup8\n        /* \"contracts/HealthWallet.sol\":6238:6256  records[_recordId] */\n      dup2\n      mstore\n      0x20\n      add\n      swap1\n      dup2\n      mstore\n      0x20\n      add\n      0x00\n      keccak256\n        /* \"contracts/HealthWallet.sol\":6208:6256  HealthRecord storage record = records[_recordId] */\n      swap1\n      pop\n        /* \"contracts/HealthWallet.sol\":6285:6297  _newIpfsHash */\n      dup5\n        /* \"contracts/HealthWallet.sol\":6267:6273  record */\n      dup2\n        /* \"contracts/HealthWallet.sol\":6267:6282  record.ipfsHash */\n      0x02\n      add\n        /* \"contracts/HealthWallet.sol\":6267:6297  record.ipfsHash = _newIpfsHash */\n      swap1\n      dup2\n      tag_328\n      swap2\n      swap1\n      tag_239\n      jump\t// in\n    tag_328:\n      pop\n        /* \"contracts/HealthWallet.sol\":6330:6346  _newEncryptedKey */\n      dup4\n        /* \"contracts/HealthWallet.sol\":6308:6314  record */\n      dup2\n        /* \"contracts/HealthWallet.sol\":6308:6327  record.encryptedKey */\n      0x06\n      add\n        /* \"contracts/HealthWallet.sol\":6308:6346  record.encryptedKey = _newEncryptedKey */\n      swap1\n      dup2\n      tag_329\n      swap2\n      swap1\n      tag_239\n      jump\t// in\n    tag_329:\n      pop\n        /* \"contracts/HealthWallet.sol\":6357:6363  record */\n      dup1\n        /* \"contracts/HealthWallet.sol\":6357:6371  record.version */\n      0x07\n      add\n      0x00\n        /* \"contracts/HealthWallet.sol\":6357:6373  record.version++ */\n      dup2\n      sload\n      dup1\n      swap3\n      swap2\n      swap1\n      tag_330\n      swap1\n      tag_235\n      jump\t// in\n    tag_330:\n      swap2\n      swap1\n      pop\n      sstore\n      pop\n        /* \"contracts/HealthWallet.sol\":6413:6422  _recordId */\n      dup6\n        /* \"contracts/HealthWallet.sol\":6399:6453  RecordUpdated(_recordId, _newIpfsHash, record.version) */\n      0x088d9e16504277bf999412471e756eedf1ab2491c6a6399c9d349d3fea6d70cf\n        /* \"contracts/HealthWallet.sol\":6424:6436  _newIpfsHash */\n      dup7\n        /* \"contracts/HealthWallet.sol\":6438:6444  record */\n      dup4\n        /* \"contracts/HealthWallet.sol\":6438:6452  record.version */\n      0x07\n      add\n      sload\n        /* \"contracts/HealthWallet.sol\":6399:6453  RecordUpdated(_recordId, _newIpfsHash, record.version) */\n      mload(0x40)\n      tag_331\n      swap3\n      swap2\n      swap1\n      tag_332\n      jump\t// in\n    tag_331:\n      mload(0x40)\n      dup1\n      swap2\n      sub\n      swap1\n      log2\n        /* \"contracts/HealthWallet.sol\":6197:6461  {... */\n      pop\n        /* \"contracts/HealthWallet.sol\":3905:3906  _ */\n      pop\n        /* \"contracts/HealthWallet.sol\":6008:6461  function updateRecord(... */\n      pop\n      pop\n      pop\n      pop\n      jump\t// out\n        /* \"@openzeppelin/contracts/access/Ownable.sol\":2293:2394  function renounceOwnership() public virtual onlyOwner {... */\n    tag_107:\n        /* \"@openzeppelin/contracts/access/Ownable.sol\":1531:1544  _checkOwner() */\n      tag_334\n        /* \"@openzeppelin/contracts/access/Ownable.sol\":1531:1542  _checkOwner */\n      tag_335\n        /* \"@openzeppelin/contracts/access/Ownable.sol\":1531:1544  _checkOwner() */\n      jump\t// in\n    tag_334:\n        /* \"@openzeppelin/contracts/access/Ownable.sol\":2357:2387  _transferOwnership(address(0)) */\n      tag_337\n        /* \"@openzeppelin/contracts/access/Ownable.sol\":2384:2385  0 */\n      0x00\n        /* \"@openzeppelin/contracts/access/Ownable.sol\":2357:2375  _transferOwnership */\n      tag_338\n        /* \"@openzeppelin/contracts/access/Ownable.sol\":2357:2387  _transferOwnership(address(0)) */\n      jump\t// in\n    tag_337:\n        /* \"@openzeppelin/contracts/access/Ownable.sol\":2293:2394  function renounceOwnership() public virtual onlyOwner {... */\n      jump\t// out\n        /* \"contracts/HealthWallet.sol\":7902:8159  function revokeAccess(address _grantee) public {... */\n    tag_110:\n        /* \"contracts/HealthWallet.sol\":7968:7980  accessGrants */\n      0x04\n        /* \"contracts/HealthWallet.sol\":7968:7992  accessGrants[msg.sender] */\n      0x00\n        /* \"contracts/HealthWallet.sol\":7981:7991  msg.sender */\n      caller\n        /* \"contracts/HealthWallet.sol\":7968:7992  accessGrants[msg.sender] */\n      0xffffffffffffffffffffffffffffffffffffffff\n      and\n      0xffffffffffffffffffffffffffffffffffffffff\n      and\n      dup2\n      mstore\n      0x20\n      add\n      swap1\n      dup2\n      mstore\n      0x20\n      add\n      0x00\n      keccak256\n        /* \"contracts/HealthWallet.sol\":7968:8002  accessGrants[msg.sender][_grantee] */\n      0x00\n        /* \"contracts/HealthWallet.sol\":7993:8001  _grantee */\n      dup3\n        /* \"contracts/HealthWallet.sol\":7968:8002  accessGrants[msg.sender][_grantee] */\n      0xffffffffffffffffffffffffffffffffffffffff\n      and\n      0xffffffffffffffffffffffffffffffffffffffff\n      and\n      dup2\n      mstore\n      0x20\n      add\n      swap1\n      dup2\n      mstore\n      0x20\n      add\n      0x00\n      keccak256\n        /* \"contracts/HealthWallet.sol\":7968:8011  accessGrants[msg.sender][_grantee].isActive */\n      0x03\n      add\n      0x00\n      swap1\n      sload\n      swap1\n      0x0100\n      exp\n      swap1\n      div\n      0xff\n      and\n        /* \"contracts/HealthWallet.sol\":7960:8038  require(accessGrants[msg.sender][_grantee].isActive, \"No active access grant\") */\n      tag_340\n      jumpi\n      mload(0x40)\n      0x08c379a000000000000000000000000000000000000000000000000000000000\n      dup2\n      mstore\n      0x04\n      add\n      tag_341\n      swap1\n      tag_342\n      jump\t// in\n    tag_341:\n      mload(0x40)\n      dup1\n      swap2\n      sub\n      swap1\n      revert\n    tag_340:\n        /* \"contracts/HealthWallet.sol\":8095:8100  false */\n      0x00\n        /* \"contracts/HealthWallet.sol\":8049:8061  accessGrants */\n      0x04\n        /* \"contracts/HealthWallet.sol\":8049:8073  accessGrants[msg.sender] */\n      0x00\n        /* \"contracts/HealthWallet.sol\":8062:8072  msg.sender */\n      caller\n        /* \"contracts/HealthWallet.sol\":8049:8073  accessGrants[msg.sender] */\n      0xffffffffffffffffffffffffffffffffffffffff\n      and\n      0xffffffffffffffffffffffffffffffffffffffff\n      and\n      dup2\n      mstore\n      0x20\n      add\n      swap1\n      dup2\n      mstore\n      0x20\n      add\n      0x00\n      keccak256\n        /* \"contracts/HealthWallet.sol\":8049:8083  accessGrants[msg.sender][_grantee] */\n      0x00\n        /* \"contracts/HealthWallet.sol\":8074:8082  _grantee */\n      dup4\n        /* \"contracts/HealthWallet.sol\":8049:8083  accessGrants[msg.sender][_grantee] */\n      0xffffffffffffffffffffffffffffffffffffffff\n      and\n      0xffffffffffffffffffffffffffffffffffffffff\n      and\n      dup2\n      mstore\n      0x20\n      add\n      swap1\n      dup2\n      mstore\n      0x20\n      add\n      0x00\n      keccak256\n        /* \"contracts/HealthWallet.sol\":8049:8092  accessGrants[msg.sender][_grantee].isActive */\n      0x03\n      add\n      0x00\n        /* \"contracts/HealthWallet.sol\":8049:8100  accessGrants[msg.sender][_grantee].isActive = false */\n      0x0100\n      exp\n      dup2\n      sload\n      dup2\n      0xff\n      mul\n      not\n      and\n      swap1\n      dup4\n      iszero\n      iszero\n      mul\n      or\n      swap1\n      sstore\n      pop\n        /* \"contracts/HealthWallet.sol\":8142:8150  _grantee */\n      dup1\n        /* \"contracts/HealthWallet.sol\":8116:8151  AccessRevoked(msg.sender, _grantee) */\n      0xffffffffffffffffffffffffffffffffffffffff\n      and\n        /* \"contracts/HealthWallet.sol\":8130:8140  msg.sender */\n      caller\n        /* \"contracts/HealthWallet.sol\":8116:8151  AccessRevoked(msg.sender, _grantee) */\n      0xffffffffffffffffffffffffffffffffffffffff\n      and\n      0x825c8be24eb0df19500f63e86c29e7d0d951e73056b889b891d85e40938d9b6e\n      mload(0x40)\n      mload(0x40)\n      dup1\n      swap2\n      sub\n      swap1\n      log3\n        /* \"contracts/HealthWallet.sol\":7902:8159  function revokeAccess(address _grantee) public {... */\n      pop\n      jump\t// out\n        /* \"contracts/HealthWallet.sol\":12010:12328  function getAccessGrant(address _patient, address _grantee) ... */\n    tag_114:\n        /* \"contracts/HealthWallet.sol\":12121:12139  AccessGrant memory */\n      tag_343\n      tag_344\n      jump\t// in\n    tag_343:\n        /* \"contracts/HealthWallet.sol\":12194:12202  _patient */\n      dup3\n        /* \"contracts/HealthWallet.sol\":12180:12202  msg.sender == _patient */\n      0xffffffffffffffffffffffffffffffffffffffff\n      and\n        /* \"contracts/HealthWallet.sol\":12180:12190  msg.sender */\n      caller\n        /* \"contracts/HealthWallet.sol\":12180:12202  msg.sender == _patient */\n      0xffffffffffffffffffffffffffffffffffffffff\n      and\n      eq\n        /* \"contracts/HealthWallet.sol\":12180:12228  msg.sender == _patient || msg.sender == _grantee */\n      dup1\n      tag_346\n      jumpi\n      pop\n        /* \"contracts/HealthWallet.sol\":12220:12228  _grantee */\n      dup2\n        /* \"contracts/HealthWallet.sol\":12206:12228  msg.sender == _grantee */\n      0xffffffffffffffffffffffffffffffffffffffff\n      and\n        /* \"contracts/HealthWallet.sol\":12206:12216  msg.sender */\n      caller\n        /* \"contracts/HealthWallet.sol\":12206:12228  msg.sender == _grantee */\n      0xffffffffffffffffffffffffffffffffffffffff\n      and\n      eq\n        /* \"contracts/HealthWallet.sol\":12180:12228  msg.sender == _patient || msg.sender == _grantee */\n    tag_346:\n        /* \"contracts/HealthWallet.sol\":12158:12270  require(... */\n      tag_347\n      jumpi\n      mload(0x40)\n      0x08c379a000000000000000000000000000000000000000000000000000000000\n      dup2\n      mstore\n      0x04\n      add\n      tag_348\n      swap1\n      tag_262\n      jump\t// in\n    tag_348:\n      mload(0x40)\n      dup1\n      swap2\n      sub\n      swap1\n      revert\n    tag_347:\n        /* \"contracts/HealthWallet.sol\":12288:12300  accessGrants */\n      0x04\n        /* \"contracts/HealthWallet.sol\":12288:12310  accessGrants[_patient] */\n      0x00\n        /* \"contracts/HealthWallet.sol\":12301:12309  _patient */\n      dup5\n        /* \"contracts/HealthWallet.sol\":12288:12310  accessGrants[_patient] */\n      0xffffffffffffffffffffffffffffffffffffffff\n      and\n      0xffffffffffffffffffffffffffffffffffffffff\n      and\n      dup2\n      mstore\n      0x20\n      add\n      swap1\n      dup2\n      mstore\n      0x20\n      add\n      0x00\n      keccak256\n        /* \"contracts/HealthWallet.sol\":12288:12320  accessGrants[_patient][_grantee] */\n      0x00\n        /* \"contracts/HealthWallet.sol\":12311:12319  _grantee */\n      dup4\n        /* \"contracts/HealthWallet.sol\":12288:12320  accessGrants[_patient][_grantee] */\n      0xffffffffffffffffffffffffffffffffffffffff\n      and\n      0xffffffffffffffffffffffffffffffffffffffff\n      and\n      dup2\n      mstore\n      0x20\n      add\n      swap1\n      dup2\n      mstore\n      0x20\n      add\n      0x00\n      keccak256\n        /* \"contracts/HealthWallet.sol\":12281:12320  return accessGrants[_patient][_grantee] */\n      mload(0x40)\n      dup1\n      0xa0\n      add\n      0x40\n      mstore\n      swap1\n      dup2\n      0x00\n      dup3\n      add\n      0x00\n      swap1\n      sload\n      swap1\n      0x0100\n      exp\n      swap1\n      div\n      0xffffffffffffffffffffffffffffffffffffffff\n      and\n      0xffffffffffffffffffffffffffffffffffffffff\n      and\n      0xffffffffffffffffffffffffffffffffffffffff\n      and\n      dup2\n      mstore\n      0x20\n      add\n      0x01\n      dup3\n      add\n      dup1\n      sload\n      dup1\n      0x20\n      mul\n      0x20\n      add\n      mload(0x40)\n      swap1\n      dup2\n      add\n      0x40\n      mstore\n      dup1\n      swap3\n      swap2\n      swap1\n      dup2\n      dup2\n      mstore\n      0x20\n      add\n      dup3\n      dup1\n      sload\n      dup1\n      iszero\n      tag_349\n      jumpi\n      0x20\n      mul\n      dup3\n      add\n      swap2\n      swap1\n      0x00\n      mstore\n      keccak256(0x00, 0x20)\n      swap1\n    tag_350:\n      dup2\n      sload\n      dup2\n      mstore\n      0x20\n      add\n      swap1\n      0x01\n      add\n      swap1\n      dup1\n      dup4\n      gt\n      tag_350\n      jumpi\n    tag_349:\n      pop\n      pop\n      pop\n      pop\n      pop\n      dup2\n      mstore\n      0x20\n      add\n      0x02\n      dup3\n      add\n      sload\n      dup2\n      mstore\n      0x20\n      add\n      0x03\n      dup3\n      add\n      0x00\n      swap1\n      sload\n      swap1\n      0x0100\n      exp\n      swap1\n      div\n      0xff\n      and\n      iszero\n      iszero\n      iszero\n      iszero\n      dup2\n      mstore\n      0x20\n      add\n      0x04\n      dup3\n      add\n      sload\n      dup2\n      mstore\n      pop\n      pop\n      swap1\n      pop\n        /* \"contracts/HealthWallet.sol\":12010:12328  function getAccessGrant(address _patient, address _grantee) ... */\n      swap3\n      swap2\n      pop\n      pop\n      jump\t// out\n        /* \"@openzeppelin/contracts/access/Ownable.sol\":1638:1723  function owner() public view virtual returns (address) {... */\n    tag_118:\n        /* \"@openzeppelin/contracts/access/Ownable.sol\":1684:1691  address */\n      0x00\n        /* \"@openzeppelin/contracts/access/Ownable.sol\":1710:1716  _owner */\n      dup1\n      0x00\n      swap1\n      sload\n      swap1\n      0x0100\n      exp\n      swap1\n      div\n      0xffffffffffffffffffffffffffffffffffffffff\n      and\n        /* \"@openzeppelin/contracts/access/Ownable.sol\":1703:1716  return _owner */\n      swap1\n      pop\n        /* \"@openzeppelin/contracts/access/Ownable.sol\":1638:1723  function owner() public view virtual returns (address) {... */\n      swap1\n      jump\t// out\n        /* \"contracts/HealthWallet.sol\":11303:11503  function setEmergencyContact(address _emergencyContact) public {... */\n    tag_123:\n        /* \"contracts/HealthWallet.sol\":11414:11415  0 */\n      0x00\n        /* \"contracts/HealthWallet.sol\":11385:11416  _emergencyContact != address(0) */\n      0xffffffffffffffffffffffffffffffffffffffff\n      and\n        /* \"contracts/HealthWallet.sol\":11385:11402  _emergencyContact */\n      dup2\n        /* \"contracts/HealthWallet.sol\":11385:11416  _emergencyContact != address(0) */\n      0xffffffffffffffffffffffffffffffffffffffff\n      and\n      sub\n        /* \"contracts/HealthWallet.sol\":11377:11436  require(_emergencyContact != address(0), \"Invalid address\") */\n      tag_353\n      jumpi\n      mload(0x40)\n      0x08c379a000000000000000000000000000000000000000000000000000000000\n      dup2\n      mstore\n      0x04\n      add\n      tag_354\n      swap1\n      tag_355\n      jump\t// in\n    tag_354:\n      mload(0x40)\n      dup1\n      swap2\n      sub\n      swap1\n      revert\n    tag_353:\n        /* \"contracts/HealthWallet.sol\":11478:11495  _emergencyContact */\n      dup1\n        /* \"contracts/HealthWallet.sol\":11447:11463  emergencyContact */\n      0x06\n        /* \"contracts/HealthWallet.sol\":11447:11475  emergencyContact[msg.sender] */\n      0x00\n        /* \"contracts/HealthWallet.sol\":11464:11474  msg.sender */\n      caller\n        /* \"contracts/HealthWallet.sol\":11447:11475  emergencyContact[msg.sender] */\n      0xffffffffffffffffffffffffffffffffffffffff\n      and\n      0xffffffffffffffffffffffffffffffffffffffff\n      and\n      dup2\n      mstore\n      0x20\n      add\n      swap1\n      dup2\n      mstore\n      0x20\n      add\n      0x00\n      keccak256\n      0x00\n        /* \"contracts/HealthWallet.sol\":11447:11495  emergencyContact[msg.sender] = _emergencyContact */\n      0x0100\n      exp\n      dup2\n      sload\n      dup2\n      0xffffffffffffffffffffffffffffffffffffffff\n      mul\n      not\n      and\n      swap1\n      dup4\n      0xffffffffffffffffffffffffffffffffffffffff\n      and\n      mul\n      or\n      swap1\n      sstore\n      pop\n        /* \"contracts/HealthWallet.sol\":11303:11503  function setEmergencyContact(address _emergencyContact) public {... */\n      pop\n      jump\t// out\n        /* \"@openzeppelin/contracts/access/AccessControl.sol\":2830:2966  function hasRole(bytes32 role, address account) public view virtual returns (bool) {... */\n    tag_126:\n        /* \"@openzeppelin/contracts/access/AccessControl.sol\":2907:2911  bool */\n      0x00\n        /* \"@openzeppelin/contracts/access/AccessControl.sol\":2930:2936  _roles */\n      0x01\n        /* \"@openzeppelin/contracts/access/AccessControl.sol\":2930:2942  _roles[role] */\n      0x00\n        /* \"@openzeppelin/contracts/access/AccessControl.sol\":2937:2941  role */\n      dup5\n        /* \"@openzeppelin/contracts/access/AccessControl.sol\":2930:2942  _roles[role] */\n      dup2\n      mstore\n      0x20\n      add\n      swap1\n      dup2\n      mstore\n      0x20\n      add\n      0x00\n      keccak256\n        /* \"@openzeppelin/contracts/access/AccessControl.sol\":2930:2950  _roles[role].hasRole */\n      0x00\n      add\n        /* \"@openzeppelin/contracts/access/AccessControl.sol\":2930:2959  _roles[role].hasRole[account] */\n      0x00\n        /* \"@openzeppelin/contracts/access/AccessControl.sol\":2951:2958  account */\n      dup4\n        /* \"@openzeppelin/contracts/access/AccessControl.sol\":2930:2959  _roles[role].hasRole[account] */\n      0xffffffffffffffffffffffffffffffffffffffff\n      and\n      0xffffffffffffffffffffffffffffffffffffffff\n      and\n      dup2\n      mstore\n      0x20\n      add\n      swap1\n      dup2\n      mstore\n      0x20\n      add\n      0x00\n      keccak256\n      0x00\n      swap1\n      sload\n      swap1\n      0x0100\n      exp\n      swap1\n      div\n      0xff\n      and\n        /* \"@openzeppelin/contracts/access/AccessControl.sol\":2923:2959  return _roles[role].hasRole[account] */\n      swap1\n      pop\n        /* \"@openzeppelin/contracts/access/AccessControl.sol\":2830:2966  function hasRole(bytes32 role, address account) public view virtual returns (bool) {... */\n      swap3\n      swap2\n      pop\n      pop\n      jump\t// out\n        /* \"contracts/HealthWallet.sol\":6786:7818  function grantAccess(... */\n    tag_131:\n        /* \"contracts/HealthWallet.sol\":6959:6960  0 */\n      0x00\n        /* \"contracts/HealthWallet.sol\":6939:6961  _grantee != address(0) */\n      0xffffffffffffffffffffffffffffffffffffffff\n      and\n        /* \"contracts/HealthWallet.sol\":6939:6947  _grantee */\n      dup4\n        /* \"contracts/HealthWallet.sol\":6939:6961  _grantee != address(0) */\n      0xffffffffffffffffffffffffffffffffffffffff\n      and\n      sub\n        /* \"contracts/HealthWallet.sol\":6931:6981  require(_grantee != address(0), \"Invalid address\") */\n      tag_358\n      jumpi\n      mload(0x40)\n      0x08c379a000000000000000000000000000000000000000000000000000000000\n      dup2\n      mstore\n      0x04\n      add\n      tag_359\n      swap1\n      tag_355\n      jump\t// in\n    tag_359:\n      mload(0x40)\n      dup1\n      swap2\n      sub\n      swap1\n      revert\n    tag_358:\n        /* \"contracts/HealthWallet.sol\":7020:7021  0 */\n      0x00\n        /* \"contracts/HealthWallet.sol\":7000:7010  _recordIds */\n      dup3\n        /* \"contracts/HealthWallet.sol\":7000:7017  _recordIds.length */\n      mload\n        /* \"contracts/HealthWallet.sol\":7000:7021  _recordIds.length > 0 */\n      gt\n        /* \"contracts/HealthWallet.sol\":6992:7066  require(_recordIds.length > 0, \"Must grant access to at least one record\") */\n      tag_360\n      jumpi\n      mload(0x40)\n      0x08c379a000000000000000000000000000000000000000000000000000000000\n      dup2\n      mstore\n      0x04\n      add\n      tag_361\n      swap1\n      tag_362\n      jump\t// in\n    tag_361:\n      mload(0x40)\n      dup1\n      swap2\n      sub\n      swap1\n      revert\n    tag_360:\n        /* \"contracts/HealthWallet.sol\":7103:7104  0 */\n      0x00\n        /* \"contracts/HealthWallet.sol\":7085:7100  _durationInDays */\n      dup2\n        /* \"contracts/HealthWallet.sol\":7085:7104  _durationInDays > 0 */\n      gt\n        /* \"contracts/HealthWallet.sol\":7085:7131  _durationInDays > 0 && _durationInDays <= 3650 */\n      dup1\n      iszero\n      tag_363\n      jumpi\n      pop\n        /* \"contracts/HealthWallet.sol\":7127:7131  3650 */\n      0x0e42\n        /* \"contracts/HealthWallet.sol\":7108:7123  _durationInDays */\n      dup2\n        /* \"contracts/HealthWallet.sol\":7108:7131  _durationInDays <= 3650 */\n      gt\n      iszero\n        /* \"contracts/HealthWallet.sol\":7085:7131  _durationInDays > 0 && _durationInDays <= 3650 */\n    tag_363:\n        /* \"contracts/HealthWallet.sol\":7077:7152  require(_durationInDays > 0 && _durationInDays <= 3650, \"Invalid duration\") */\n      tag_364\n      jumpi\n      mload(0x40)\n      0x08c379a000000000000000000000000000000000000000000000000000000000\n      dup2\n      mstore\n      0x04\n      add\n      tag_365\n      swap1\n      tag_366\n      jump\t// in\n    tag_365:\n      mload(0x40)\n      dup1\n      swap2\n      sub\n      swap1\n      revert\n    tag_364:\n        /* \"contracts/HealthWallet.sol\":7178:7184  uint i */\n      0x00\n        /* \"contracts/HealthWallet.sol\":7173:7393  for (uint i = 0; i < _recordIds.length; i++) {... */\n    tag_367:\n        /* \"contracts/HealthWallet.sol\":7194:7204  _recordIds */\n      dup3\n        /* \"contracts/HealthWallet.sol\":7194:7211  _recordIds.length */\n      mload\n        /* \"contracts/HealthWallet.sol\":7190:7191  i */\n      dup2\n        /* \"contracts/HealthWallet.sol\":7190:7211  i < _recordIds.length */\n      lt\n        /* \"contracts/HealthWallet.sol\":7173:7393  for (uint i = 0; i < _recordIds.length; i++) {... */\n      iszero\n      tag_368\n      jumpi\n        /* \"contracts/HealthWallet.sol\":7300:7310  msg.sender */\n      caller\n        /* \"contracts/HealthWallet.sol\":7259:7310  records[_recordIds[i]].patientAddress == msg.sender */\n      0xffffffffffffffffffffffffffffffffffffffff\n      and\n        /* \"contracts/HealthWallet.sol\":7259:7266  records */\n      0x03\n        /* \"contracts/HealthWallet.sol\":7259:7281  records[_recordIds[i]] */\n      0x00\n        /* \"contracts/HealthWallet.sol\":7267:7277  _recordIds */\n      dup6\n        /* \"contracts/HealthWallet.sol\":7278:7279  i */\n      dup5\n        /* \"contracts/HealthWallet.sol\":7267:7280  _recordIds[i] */\n      dup2\n      mload\n      dup2\n      lt\n      tag_370\n      jumpi\n      tag_371\n      tag_269\n      jump\t// in\n    tag_371:\n    tag_370:\n      0x20\n      mul\n      0x20\n      add\n      add\n      mload\n        /* \"contracts/HealthWallet.sol\":7259:7281  records[_recordIds[i]] */\n      dup2\n      mstore\n      0x20\n      add\n      swap1\n      dup2\n      mstore\n      0x20\n      add\n      0x00\n      keccak256\n        /* \"contracts/HealthWallet.sol\":7259:7296  records[_recordIds[i]].patientAddress */\n      0x01\n      add\n      0x00\n      swap1\n      sload\n      swap1\n      0x0100\n      exp\n      swap1\n      div\n      0xffffffffffffffffffffffffffffffffffffffff\n      and\n        /* \"contracts/HealthWallet.sol\":7259:7310  records[_recordIds[i]].patientAddress == msg.sender */\n      0xffffffffffffffffffffffffffffffffffffffff\n      and\n      eq\n        /* \"contracts/HealthWallet.sol\":7233:7381  require(... */\n      tag_372\n      jumpi\n      mload(0x40)\n      0x08c379a000000000000000000000000000000000000000000000000000000000\n      dup2\n      mstore\n      0x04\n      add\n      tag_373\n      swap1\n      tag_374\n      jump\t// in\n    tag_373:\n      mload(0x40)\n      dup1\n      swap2\n      sub\n      swap1\n      revert\n    tag_372:\n        /* \"contracts/HealthWallet.sol\":7213:7216  i++ */\n      dup1\n      dup1\n      0x01\n      add\n      swap2\n      pop\n      pop\n        /* \"contracts/HealthWallet.sol\":7173:7393  for (uint i = 0; i < _recordIds.length; i++) {... */\n      jump(tag_367)\n    tag_368:\n      pop\n        /* \"contracts/HealthWallet.sol\":7413:7431  uint256 expiryTime */\n      0x00\n        /* \"contracts/HealthWallet.sol\":7471:7477  1 days */\n      0x015180\n        /* \"contracts/HealthWallet.sol\":7453:7468  _durationInDays */\n      dup3\n        /* \"contracts/HealthWallet.sol\":7453:7477  _durationInDays * 1 days */\n      tag_375\n      swap2\n      swap1\n      tag_376\n      jump\t// in\n    tag_375:\n        /* \"contracts/HealthWallet.sol\":7434:7449  block.timestamp */\n      timestamp\n        /* \"contracts/HealthWallet.sol\":7434:7478  block.timestamp + (_durationInDays * 1 days) */\n      tag_377\n      swap2\n      swap1\n      tag_378\n      jump\t// in\n    tag_377:\n        /* \"contracts/HealthWallet.sol\":7413:7478  uint256 expiryTime = block.timestamp + (_durationInDays * 1 days) */\n      swap1\n      pop\n        /* \"contracts/HealthWallet.sol\":7536:7737  AccessGrant({... */\n      mload(0x40)\n      dup1\n      0xa0\n      add\n      0x40\n      mstore\n      dup1\n        /* \"contracts/HealthWallet.sol\":7574:7582  _grantee */\n      dup6\n        /* \"contracts/HealthWallet.sol\":7536:7737  AccessGrant({... */\n      0xffffffffffffffffffffffffffffffffffffffff\n      and\n      dup2\n      mstore\n      0x20\n      add\n        /* \"contracts/HealthWallet.sol\":7608:7618  _recordIds */\n      dup5\n        /* \"contracts/HealthWallet.sol\":7536:7737  AccessGrant({... */\n      dup2\n      mstore\n      0x20\n      add\n        /* \"contracts/HealthWallet.sol\":7645:7655  expiryTime */\n      dup3\n        /* \"contracts/HealthWallet.sol\":7536:7737  AccessGrant({... */\n      dup2\n      mstore\n      0x20\n      add\n        /* \"contracts/HealthWallet.sol\":7680:7684  true */\n      0x01\n        /* \"contracts/HealthWallet.sol\":7536:7737  AccessGrant({... */\n      iszero\n      iszero\n      dup2\n      mstore\n      0x20\n      add\n        /* \"contracts/HealthWallet.sol\":7710:7725  block.timestamp */\n      timestamp\n        /* \"contracts/HealthWallet.sol\":7536:7737  AccessGrant({... */\n      dup2\n      mstore\n      pop\n        /* \"contracts/HealthWallet.sol\":7499:7511  accessGrants */\n      0x04\n        /* \"contracts/HealthWallet.sol\":7499:7523  accessGrants[msg.sender] */\n      0x00\n        /* \"contracts/HealthWallet.sol\":7512:7522  msg.sender */\n      caller\n        /* \"contracts/HealthWallet.sol\":7499:7523  accessGrants[msg.sender] */\n      0xffffffffffffffffffffffffffffffffffffffff\n      and\n      0xffffffffffffffffffffffffffffffffffffffff\n      and\n      dup2\n      mstore\n      0x20\n      add\n      swap1\n      dup2\n      mstore\n      0x20\n      add\n      0x00\n      keccak256\n        /* \"contracts/HealthWallet.sol\":7499:7533  accessGrants[msg.sender][_grantee] */\n      0x00\n        /* \"contracts/HealthWallet.sol\":7524:7532  _grantee */\n      dup7\n        /* \"contracts/HealthWallet.sol\":7499:7533  accessGrants[msg.sender][_grantee] */\n      0xffffffffffffffffffffffffffffffffffffffff\n      and\n      0xffffffffffffffffffffffffffffffffffffffff\n      and\n      dup2\n      mstore\n      0x20\n      add\n      swap1\n      dup2\n      mstore\n      0x20\n      add\n      0x00\n      keccak256\n        /* \"contracts/HealthWallet.sol\":7499:7737  accessGrants[msg.sender][_grantee] = AccessGrant({... */\n      0x00\n      dup3\n      add\n      mload\n      dup2\n      0x00\n      add\n      exp(0x0100, 0x00)\n      dup2\n      sload\n      dup2\n      0xffffffffffffffffffffffffffffffffffffffff\n      mul\n      not\n      and\n      swap1\n      dup4\n      0xffffffffffffffffffffffffffffffffffffffff\n      and\n      mul\n      or\n      swap1\n      sstore\n      pop\n      0x20\n      dup3\n      add\n      mload\n      dup2\n      0x01\n      add\n      swap1\n      dup1\n      mload\n      swap1\n      0x20\n      add\n      swap1\n      tag_379\n      swap3\n      swap2\n      swap1\n      tag_380\n      jump\t// in\n    tag_379:\n      pop\n      0x40\n      dup3\n      add\n      mload\n      dup2\n      0x02\n      add\n      sstore\n      0x60\n      dup3\n      add\n      mload\n      dup2\n      0x03\n      add\n      exp(0x0100, 0x00)\n      dup2\n      sload\n      dup2\n      0xff\n      mul\n      not\n      and\n      swap1\n      dup4\n      iszero\n      iszero\n      mul\n      or\n      swap1\n      sstore\n      pop\n      0x80\n      dup3\n      add\n      mload\n      dup2\n      0x04\n      add\n      sstore\n      swap1\n      pop\n      pop\n        /* \"contracts/HealthWallet.sol\":7789:7797  _grantee */\n      dup4\n        /* \"contracts/HealthWallet.sol\":7763:7810  AccessGranted(msg.sender, _grantee, expiryTime) */\n      0xffffffffffffffffffffffffffffffffffffffff\n      and\n        /* \"contracts/HealthWallet.sol\":7777:7787  msg.sender */\n      caller\n        /* \"contracts/HealthWallet.sol\":7763:7810  AccessGranted(msg.sender, _grantee, expiryTime) */\n      0xffffffffffffffffffffffffffffffffffffffff\n      and\n      0x65d0cc1e52d49938ca4ad9f423c79c1b84d914b9a683fbc5d3f93ac3cc5635f5\n        /* \"contracts/HealthWallet.sol\":7799:7809  expiryTime */\n      dup4\n        /* \"contracts/HealthWallet.sol\":7763:7810  AccessGranted(msg.sender, _grantee, expiryTime) */\n      mload(0x40)\n      tag_381\n      swap2\n      swap1\n      tag_62\n      jump\t// in\n    tag_381:\n      mload(0x40)\n      dup1\n      swap2\n      sub\n      swap1\n      log3\n        /* \"contracts/HealthWallet.sol\":6920:7818  {... */\n      pop\n        /* \"contracts/HealthWallet.sol\":6786:7818  function grantAccess(... */\n      pop\n      pop\n      pop\n      jump\t// out\n        /* \"contracts/HealthWallet.sol\":10263:10939  function logAccess(uint256 _recordId, AuditAction _action) ... */\n    tag_135:\n        /* \"contracts/HealthWallet.sol\":10362:10371  _recordId */\n      dup2\n        /* \"contracts/HealthWallet.sol\":3766:3767  0 */\n      0x00\n        /* \"contracts/HealthWallet.sol\":3754:3763  _recordId */\n      dup2\n        /* \"contracts/HealthWallet.sol\":3754:3767  _recordId > 0 */\n      gt\n        /* \"contracts/HealthWallet.sol\":3754:3797  _recordId > 0 && _recordId <= recordCounter */\n      dup1\n      iszero\n      tag_383\n      jumpi\n      pop\n        /* \"contracts/HealthWallet.sol\":3784:3797  recordCounter */\n      sload(0x07)\n        /* \"contracts/HealthWallet.sol\":3771:3780  _recordId */\n      dup2\n        /* \"contracts/HealthWallet.sol\":3771:3797  _recordId <= recordCounter */\n      gt\n      iszero\n        /* \"contracts/HealthWallet.sol\":3754:3797  _recordId > 0 && _recordId <= recordCounter */\n    tag_383:\n        /* \"contracts/HealthWallet.sol\":3746:3823  require(_recordId > 0 && _recordId <= recordCounter, \"Record does not exist\") */\n      tag_384\n      jumpi\n      mload(0x40)\n      0x08c379a000000000000000000000000000000000000000000000000000000000\n      dup2\n      mstore\n      0x04\n      add\n      tag_385\n      swap1\n      tag_161\n      jump\t// in\n    tag_385:\n      mload(0x40)\n      dup1\n      swap2\n      sub\n      swap1\n      revert\n    tag_384:\n        /* \"contracts/HealthWallet.sol\":3842:3849  records */\n      0x03\n        /* \"contracts/HealthWallet.sol\":3842:3860  records[_recordId] */\n      0x00\n        /* \"contracts/HealthWallet.sol\":3850:3859  _recordId */\n      dup3\n        /* \"contracts/HealthWallet.sol\":3842:3860  records[_recordId] */\n      dup2\n      mstore\n      0x20\n      add\n      swap1\n      dup2\n      mstore\n      0x20\n      add\n      0x00\n      keccak256\n        /* \"contracts/HealthWallet.sol\":3842:3869  records[_recordId].isActive */\n      0x05\n      add\n      0x14\n      swap1\n      sload\n      swap1\n      0x0100\n      exp\n      swap1\n      div\n      0xff\n      and\n        /* \"contracts/HealthWallet.sol\":3834:3894  require(records[_recordId].isActive, \"Record is not active\") */\n      tag_386\n      jumpi\n      mload(0x40)\n      0x08c379a000000000000000000000000000000000000000000000000000000000\n      dup2\n      mstore\n      0x04\n      add\n      tag_387\n      swap1\n      tag_164\n      jump\t// in\n    tag_387:\n      mload(0x40)\n      dup1\n      swap2\n      sub\n      swap1\n      revert\n    tag_386:\n        /* \"contracts/HealthWallet.sol\":10397:10406  _recordId */\n      dup3\n        /* \"contracts/HealthWallet.sol\":3531:3598  hasAccess(records[_recordId].patientAddress, msg.sender, _recordId) */\n      tag_389\n        /* \"contracts/HealthWallet.sol\":3541:3548  records */\n      0x03\n        /* \"contracts/HealthWallet.sol\":3541:3559  records[_recordId] */\n      0x00\n        /* \"contracts/HealthWallet.sol\":3549:3558  _recordId */\n      dup4\n        /* \"contracts/HealthWallet.sol\":3541:3559  records[_recordId] */\n      dup2\n      mstore\n      0x20\n      add\n      swap1\n      dup2\n      mstore\n      0x20\n      add\n      0x00\n      keccak256\n        /* \"contracts/HealthWallet.sol\":3541:3574  records[_recordId].patientAddress */\n      0x01\n      add\n      0x00\n      swap1\n      sload\n      swap1\n      0x0100\n      exp\n      swap1\n      div\n      0xffffffffffffffffffffffffffffffffffffffff\n      and\n        /* \"contracts/HealthWallet.sol\":3576:3586  msg.sender */\n      caller\n        /* \"contracts/HealthWallet.sol\":3588:3597  _recordId */\n      dup4\n        /* \"contracts/HealthWallet.sol\":3531:3540  hasAccess */\n      tag_149\n        /* \"contracts/HealthWallet.sol\":3531:3598  hasAccess(records[_recordId].patientAddress, msg.sender, _recordId) */\n      jump\t// in\n    tag_389:\n        /* \"contracts/HealthWallet.sol\":3509:3662  require(... */\n      tag_390\n      jumpi\n      mload(0x40)\n      0x08c379a000000000000000000000000000000000000000000000000000000000\n      dup2\n      mstore\n      0x04\n      add\n      tag_391\n      swap1\n      tag_194\n      jump\t// in\n    tag_391:\n      mload(0x40)\n      dup1\n      swap2\n      sub\n      swap1\n      revert\n    tag_390:\n        /* \"contracts/HealthWallet.sol\":10483:10493  msg.sender */\n      caller\n        /* \"contracts/HealthWallet.sol\":10428:10493  emergencyContact[records[_recordId].patientAddress] == msg.sender */\n      0xffffffffffffffffffffffffffffffffffffffff\n      and\n        /* \"contracts/HealthWallet.sol\":10428:10444  emergencyContact */\n      0x06\n        /* \"contracts/HealthWallet.sol\":10428:10479  emergencyContact[records[_recordId].patientAddress] */\n      0x00\n        /* \"contracts/HealthWallet.sol\":10445:10452  records */\n      0x03\n        /* \"contracts/HealthWallet.sol\":10445:10463  records[_recordId] */\n      0x00\n        /* \"contracts/HealthWallet.sol\":10453:10462  _recordId */\n      dup9\n        /* \"contracts/HealthWallet.sol\":10445:10463  records[_recordId] */\n      dup2\n      mstore\n      0x20\n      add\n      swap1\n      dup2\n      mstore\n      0x20\n      add\n      0x00\n      keccak256\n        /* \"contracts/HealthWallet.sol\":10445:10478  records[_recordId].patientAddress */\n      0x01\n      add\n      0x00\n      swap1\n      sload\n      swap1\n      0x0100\n      exp\n      swap1\n      div\n      0xffffffffffffffffffffffffffffffffffffffff\n      and\n        /* \"contracts/HealthWallet.sol\":10428:10479  emergencyContact[records[_recordId].patientAddress] */\n      0xffffffffffffffffffffffffffffffffffffffff\n      and\n      0xffffffffffffffffffffffffffffffffffffffff\n      and\n      dup2\n      mstore\n      0x20\n      add\n      swap1\n      dup2\n      mstore\n      0x20\n      add\n      0x00\n      keccak256\n      0x00\n      swap1\n      sload\n      swap1\n      0x0100\n      exp\n      swap1\n      div\n      0xffffffffffffffffffffffffffffffffffffffff\n      and\n        /* \"contracts/HealthWallet.sol\":10428:10493  emergencyContact[records[_recordId].patientAddress] == msg.sender */\n      0xffffffffffffffffffffffffffffffffffffffff\n      and\n      sub\n        /* \"contracts/HealthWallet.sol\":10424:10676  if (emergencyContact[records[_recordId].patientAddress] == msg.sender) {... */\n      tag_393\n      jumpi\n        /* \"contracts/HealthWallet.sol\":10605:10615  msg.sender */\n      caller\n        /* \"contracts/HealthWallet.sol\":10515:10664  EmergencyAccessUsed(... */\n      0xffffffffffffffffffffffffffffffffffffffff\n      and\n        /* \"contracts/HealthWallet.sol\":10553:10560  records */\n      0x03\n        /* \"contracts/HealthWallet.sol\":10553:10571  records[_recordId] */\n      0x00\n        /* \"contracts/HealthWallet.sol\":10561:10570  _recordId */\n      dup7\n        /* \"contracts/HealthWallet.sol\":10553:10571  records[_recordId] */\n      dup2\n      mstore\n      0x20\n      add\n      swap1\n      dup2\n      mstore\n      0x20\n      add\n      0x00\n      keccak256\n        /* \"contracts/HealthWallet.sol\":10553:10586  records[_recordId].patientAddress */\n      0x01\n      add\n      0x00\n      swap1\n      sload\n      swap1\n      0x0100\n      exp\n      swap1\n      div\n      0xffffffffffffffffffffffffffffffffffffffff\n      and\n        /* \"contracts/HealthWallet.sol\":10515:10664  EmergencyAccessUsed(... */\n      0xffffffffffffffffffffffffffffffffffffffff\n      and\n      0xf09b5b37601d747e980aad190f31b7fa72740906d3da5eb0af65d1f89fde166b\n        /* \"contracts/HealthWallet.sol\":10634:10649  block.timestamp */\n      timestamp\n        /* \"contracts/HealthWallet.sol\":10515:10664  EmergencyAccessUsed(... */\n      mload(0x40)\n      tag_394\n      swap2\n      swap1\n      tag_62\n      jump\t// in\n    tag_394:\n      mload(0x40)\n      dup1\n      swap2\n      sub\n      swap1\n      log3\n        /* \"contracts/HealthWallet.sol\":10424:10676  if (emergencyContact[records[_recordId].patientAddress] == msg.sender) {... */\n    tag_393:\n        /* \"contracts/HealthWallet.sol\":10696:10705  auditLogs */\n      0x05\n        /* \"contracts/HealthWallet.sol\":10696:10716  auditLogs[_recordId] */\n      0x00\n        /* \"contracts/HealthWallet.sol\":10706:10715  _recordId */\n      dup6\n        /* \"contracts/HealthWallet.sol\":10696:10716  auditLogs[_recordId] */\n      dup2\n      mstore\n      0x20\n      add\n      swap1\n      dup2\n      mstore\n      0x20\n      add\n      0x00\n      keccak256\n        /* \"contracts/HealthWallet.sol\":10722:10850  AccessLog({... */\n      mload(0x40)\n      dup1\n      0x60\n      add\n      0x40\n      mstore\n      dup1\n        /* \"contracts/HealthWallet.sol\":10757:10767  msg.sender */\n      caller\n        /* \"contracts/HealthWallet.sol\":10722:10850  AccessLog({... */\n      0xffffffffffffffffffffffffffffffffffffffff\n      and\n      dup2\n      mstore\n      0x20\n      add\n        /* \"contracts/HealthWallet.sol\":10793:10808  block.timestamp */\n      timestamp\n        /* \"contracts/HealthWallet.sol\":10722:10850  AccessLog({... */\n      dup2\n      mstore\n      0x20\n      add\n        /* \"contracts/HealthWallet.sol\":10831:10838  _action */\n      dup6\n        /* \"contracts/HealthWallet.sol\":10722:10850  AccessLog({... */\n      0x04\n      dup2\n      gt\n      iszero\n      tag_395\n      jumpi\n      tag_396\n      tag_175\n      jump\t// in\n    tag_396:\n    tag_395:\n      dup2\n      mstore\n      pop\n        /* \"contracts/HealthWallet.sol\":10696:10851  auditLogs[_recordId].push(AccessLog({... */\n      swap1\n      dup1\n      0x01\n      dup2\n      sload\n      add\n      dup1\n      dup3\n      sstore\n      dup1\n      swap2\n      pop\n      pop\n      0x01\n      swap1\n      sub\n      swap1\n      0x00\n      mstore\n      keccak256(0x00, 0x20)\n      swap1\n      0x03\n      mul\n      add\n      0x00\n      swap1\n      swap2\n      swap1\n      swap2\n      swap1\n      swap2\n      pop\n      0x00\n      dup3\n      add\n      mload\n      dup2\n      0x00\n      add\n      exp(0x0100, 0x00)\n      dup2\n      sload\n      dup2\n      0xffffffffffffffffffffffffffffffffffffffff\n      mul\n      not\n      and\n      swap1\n      dup4\n      0xffffffffffffffffffffffffffffffffffffffff\n      and\n      mul\n      or\n      swap1\n      sstore\n      pop\n      0x20\n      dup3\n      add\n      mload\n      dup2\n      0x01\n      add\n      sstore\n      0x40\n      dup3\n      add\n      mload\n      dup2\n      0x02\n      add\n      exp(0x0100, 0x00)\n      dup2\n      sload\n      dup2\n      0xff\n      mul\n      not\n      and\n      swap1\n      dup4\n      0x04\n      dup2\n      gt\n      iszero\n      tag_398\n      jumpi\n      tag_399\n      tag_175\n      jump\t// in\n    tag_399:\n    tag_398:\n      mul\n      or\n      swap1\n      sstore\n      pop\n      pop\n      pop\n        /* \"contracts/HealthWallet.sol\":10903:10913  msg.sender */\n      caller\n        /* \"contracts/HealthWallet.sol\":10877:10931  RecordAccessed(_recordId, msg.sender, block.timestamp) */\n      0xffffffffffffffffffffffffffffffffffffffff\n      and\n        /* \"contracts/HealthWallet.sol\":10892:10901  _recordId */\n      dup5\n        /* \"contracts/HealthWallet.sol\":10877:10931  RecordAccessed(_recordId, msg.sender, block.timestamp) */\n      0xdec39eb35dc9ca96737e4515f8a70f5db122e248213ee947b996e1f678ab05b8\n        /* \"contracts/HealthWallet.sol\":10915:10930  block.timestamp */\n      timestamp\n        /* \"contracts/HealthWallet.sol\":10877:10931  RecordAccessed(_recordId, msg.sender, block.timestamp) */\n      mload(0x40)\n      tag_400\n      swap2\n      swap1\n      tag_62\n      jump\t// in\n    tag_400:\n      mload(0x40)\n      dup1\n      swap2\n      sub\n      swap1\n      log3\n        /* \"contracts/HealthWallet.sol\":3905:3906  _ */\n      pop\n        /* \"contracts/HealthWallet.sol\":10263:10939  function logAccess(uint256 _recordId, AuditAction _action) ... */\n      pop\n      pop\n      pop\n      jump\t// out\n        /* \"@openzeppelin/contracts/access/AccessControl.sol\":2196:2245  bytes32 public constant DEFAULT_ADMIN_ROLE = 0x00 */\n    tag_137:\n        /* \"@openzeppelin/contracts/access/AccessControl.sol\":2241:2245  0x00 */\n      0x00\n        /* \"@openzeppelin/contracts/access/AccessControl.sol\":2196:2245  bytes32 public constant DEFAULT_ADMIN_ROLE = 0x00 */\n      dup1\n      shl\n      dup2\n      jump\t// out\n        /* \"contracts/HealthWallet.sol\":1880:1931  mapping(address => address) public emergencyContact */\n    tag_141:\n      mstore(0x20, 0x06)\n      dup1\n      0x00\n      mstore\n      keccak256(0x00, 0x40)\n      0x00\n      swap2\n      pop\n      sload\n      swap1\n      0x0100\n      exp\n      swap1\n      div\n      0xffffffffffffffffffffffffffffffffffffffff\n      and\n      dup2\n      jump\t// out\n        /* \"contracts/HealthWallet.sol\":13076:13223  function revokeProviderAuthorization(address _provider) public onlyRole(DEFAULT_ADMIN_ROLE) {... */\n    tag_145:\n        /* \"@openzeppelin/contracts/access/AccessControl.sol\":2241:2245  0x00 */\n      0x00\n        /* \"contracts/HealthWallet.sol\":13148:13166  DEFAULT_ADMIN_ROLE */\n      dup1\n      shl\n        /* \"@openzeppelin/contracts/access/AccessControl.sol\":2473:2489  _checkRole(role) */\n      tag_402\n        /* \"@openzeppelin/contracts/access/AccessControl.sol\":2484:2488  role */\n      dup2\n        /* \"@openzeppelin/contracts/access/AccessControl.sol\":2473:2483  _checkRole */\n      tag_248\n        /* \"@openzeppelin/contracts/access/AccessControl.sol\":2473:2489  _checkRole(role) */\n      jump\t// in\n    tag_402:\n        /* \"contracts/HealthWallet.sol\":13179:13215  revokeRole(PROVIDER_ROLE, _provider) */\n      tag_404\n        /* \"contracts/HealthWallet.sol\":462:488  keccak256(\"PROVIDER_ROLE\") */\n      0x18d9ff454de989bd126b06bd404b47ede75f9e65543e94e8d212f89d7dcbb87c\n        /* \"contracts/HealthWallet.sol\":13205:13214  _provider */\n      dup4\n        /* \"contracts/HealthWallet.sol\":13179:13189  revokeRole */\n      tag_153\n        /* \"contracts/HealthWallet.sol\":13179:13215  revokeRole(PROVIDER_ROLE, _provider) */\n      jump\t// in\n    tag_404:\n        /* \"contracts/HealthWallet.sol\":13076:13223  function revokeProviderAuthorization(address _provider) public onlyRole(DEFAULT_ADMIN_ROLE) {... */\n      pop\n      pop\n      jump\t// out\n        /* \"contracts/HealthWallet.sol\":8254:8930  function hasAccess(... */\n    tag_149:\n        /* \"contracts/HealthWallet.sol\":8385:8389  bool */\n      0x00\n        /* \"contracts/HealthWallet.sol\":8418:8428  _requester */\n      dup3\n        /* \"contracts/HealthWallet.sol\":8406:8428  _patient == _requester */\n      0xffffffffffffffffffffffffffffffffffffffff\n      and\n        /* \"contracts/HealthWallet.sol\":8406:8414  _patient */\n      dup5\n        /* \"contracts/HealthWallet.sol\":8406:8428  _patient == _requester */\n      0xffffffffffffffffffffffffffffffffffffffff\n      and\n      sub\n        /* \"contracts/HealthWallet.sol\":8402:8441  if (_patient == _requester) return true */\n      tag_406\n      jumpi\n        /* \"contracts/HealthWallet.sol\":8437:8441  true */\n      0x01\n        /* \"contracts/HealthWallet.sol\":8430:8441  return true */\n      swap1\n      pop\n      jump(tag_405)\n        /* \"contracts/HealthWallet.sol\":8402:8441  if (_patient == _requester) return true */\n    tag_406:\n        /* \"contracts/HealthWallet.sol\":8496:8506  _requester */\n      dup3\n        /* \"contracts/HealthWallet.sol\":8466:8506  emergencyContact[_patient] == _requester */\n      0xffffffffffffffffffffffffffffffffffffffff\n      and\n        /* \"contracts/HealthWallet.sol\":8466:8482  emergencyContact */\n      0x06\n        /* \"contracts/HealthWallet.sol\":8466:8492  emergencyContact[_patient] */\n      0x00\n        /* \"contracts/HealthWallet.sol\":8483:8491  _patient */\n      dup7\n        /* \"contracts/HealthWallet.sol\":8466:8492  emergencyContact[_patient] */\n      0xffffffffffffffffffffffffffffffffffffffff\n      and\n      0xffffffffffffffffffffffffffffffffffffffff\n      and\n      dup2\n      mstore\n      0x20\n      add\n      swap1\n      dup2\n      mstore\n      0x20\n      add\n      0x00\n      keccak256\n      0x00\n      swap1\n      sload\n      swap1\n      0x0100\n      exp\n      swap1\n      div\n      0xffffffffffffffffffffffffffffffffffffffff\n      and\n        /* \"contracts/HealthWallet.sol\":8466:8506  emergencyContact[_patient] == _requester */\n      0xffffffffffffffffffffffffffffffffffffffff\n      and\n      sub\n        /* \"contracts/HealthWallet.sol\":8462:8546  if (emergencyContact[_patient] == _requester) {... */\n      tag_407\n      jumpi\n        /* \"contracts/HealthWallet.sol\":8530:8534  true */\n      0x01\n        /* \"contracts/HealthWallet.sol\":8523:8534  return true */\n      swap1\n      pop\n      jump(tag_405)\n        /* \"contracts/HealthWallet.sol\":8462:8546  if (emergencyContact[_patient] == _requester) {... */\n    tag_407:\n        /* \"contracts/HealthWallet.sol\":8566:8590  AccessGrant memory grant */\n      0x00\n        /* \"contracts/HealthWallet.sol\":8593:8605  accessGrants */\n      0x04\n        /* \"contracts/HealthWallet.sol\":8593:8615  accessGrants[_patient] */\n      0x00\n        /* \"contracts/HealthWallet.sol\":8606:8614  _patient */\n      dup7\n        /* \"contracts/HealthWallet.sol\":8593:8615  accessGrants[_patient] */\n      0xffffffffffffffffffffffffffffffffffffffff\n      and\n      0xffffffffffffffffffffffffffffffffffffffff\n      and\n      dup2\n      mstore\n      0x20\n      add\n      swap1\n      dup2\n      mstore\n      0x20\n      add\n      0x00\n      keccak256\n        /* \"contracts/HealthWallet.sol\":8593:8627  accessGrants[_patient][_requester] */\n      0x00\n        /* \"contracts/HealthWallet.sol\":8616:8626  _requester */\n      dup6\n        /* \"contracts/HealthWallet.sol\":8593:8627  accessGrants[_patient][_requester] */\n      0xffffffffffffffffffffffffffffffffffffffff\n      and\n      0xffffffffffffffffffffffffffffffffffffffff\n      and\n      dup2\n      mstore\n      0x20\n      add\n      swap1\n      dup2\n      mstore\n      0x20\n      add\n      0x00\n      keccak256\n        /* \"contracts/HealthWallet.sol\":8566:8627  AccessGrant memory grant = accessGrants[_patient][_requester] */\n      mload(0x40)\n      dup1\n      0xa0\n      add\n      0x40\n      mstore\n      swap1\n      dup2\n      0x00\n      dup3\n      add\n      0x00\n      swap1\n      sload\n      swap1\n      0x0100\n      exp\n      swap1\n      div\n      0xffffffffffffffffffffffffffffffffffffffff\n      and\n      0xffffffffffffffffffffffffffffffffffffffff\n      and\n      0xffffffffffffffffffffffffffffffffffffffff\n      and\n      dup2\n      mstore\n      0x20\n      add\n      0x01\n      dup3\n      add\n      dup1\n      sload\n      dup1\n      0x20\n      mul\n      0x20\n      add\n      mload(0x40)\n      swap1\n      dup2\n      add\n      0x40\n      mstore\n      dup1\n      swap3\n      swap2\n      swap1\n      dup2\n      dup2\n      mstore\n      0x20\n      add\n      dup3\n      dup1\n      sload\n      dup1\n      iszero\n      tag_408\n      jumpi\n      0x20\n      mul\n      dup3\n      add\n      swap2\n      swap1\n      0x00\n      mstore\n      keccak256(0x00, 0x20)\n      swap1\n    tag_409:\n      dup2\n      sload\n      dup2\n      mstore\n      0x20\n      add\n      swap1\n      0x01\n      add\n      swap1\n      dup1\n      dup4\n      gt\n      tag_409\n      jumpi\n    tag_408:\n      pop\n      pop\n      pop\n      pop\n      pop\n      dup2\n      mstore\n      0x20\n      add\n      0x02\n      dup3\n      add\n      sload\n      dup2\n      mstore\n      0x20\n      add\n      0x03\n      dup3\n      add\n      0x00\n      swap1\n      sload\n      swap1\n      0x0100\n      exp\n      swap1\n      div\n      0xff\n      and\n      iszero\n      iszero\n      iszero\n      iszero\n      dup2\n      mstore\n      0x20\n      add\n      0x04\n      dup3\n      add\n      sload\n      dup2\n      mstore\n      pop\n      pop\n      swap1\n      pop\n        /* \"contracts/HealthWallet.sol\":8653:8658  grant */\n      dup1\n        /* \"contracts/HealthWallet.sol\":8653:8667  grant.isActive */\n      0x60\n      add\n      mload\n        /* \"contracts/HealthWallet.sol\":8648:8681  if (!grant.isActive) return false */\n      tag_410\n      jumpi\n        /* \"contracts/HealthWallet.sol\":8676:8681  false */\n      0x00\n        /* \"contracts/HealthWallet.sol\":8669:8681  return false */\n      swap2\n      pop\n      pop\n      jump(tag_405)\n        /* \"contracts/HealthWallet.sol\":8648:8681  if (!grant.isActive) return false */\n    tag_410:\n        /* \"contracts/HealthWallet.sol\":8714:8719  grant */\n      dup1\n        /* \"contracts/HealthWallet.sol\":8714:8730  grant.expiryTime */\n      0x40\n      add\n      mload\n        /* \"contracts/HealthWallet.sol\":8696:8711  block.timestamp */\n      timestamp\n        /* \"contracts/HealthWallet.sol\":8696:8730  block.timestamp > grant.expiryTime */\n      gt\n        /* \"contracts/HealthWallet.sol\":8692:8744  if (block.timestamp > grant.expiryTime) return false */\n      iszero\n      tag_411\n      jumpi\n        /* \"contracts/HealthWallet.sol\":8739:8744  false */\n      0x00\n        /* \"contracts/HealthWallet.sol\":8732:8744  return false */\n      swap2\n      pop\n      pop\n      jump(tag_405)\n        /* \"contracts/HealthWallet.sol\":8692:8744  if (block.timestamp > grant.expiryTime) return false */\n    tag_411:\n        /* \"contracts/HealthWallet.sol\":8770:8776  uint i */\n      0x00\n        /* \"contracts/HealthWallet.sol\":8765:8890  for (uint i = 0; i < grant.recordIds.length; i++) {... */\n    tag_412:\n        /* \"contracts/HealthWallet.sol\":8786:8791  grant */\n      dup2\n        /* \"contracts/HealthWallet.sol\":8786:8801  grant.recordIds */\n      0x20\n      add\n      mload\n        /* \"contracts/HealthWallet.sol\":8786:8808  grant.recordIds.length */\n      mload\n        /* \"contracts/HealthWallet.sol\":8782:8783  i */\n      dup2\n        /* \"contracts/HealthWallet.sol\":8782:8808  i < grant.recordIds.length */\n      lt\n        /* \"contracts/HealthWallet.sol\":8765:8890  for (uint i = 0; i < grant.recordIds.length; i++) {... */\n      iszero\n      tag_413\n      jumpi\n        /* \"contracts/HealthWallet.sol\":8856:8865  _recordId */\n      dup4\n        /* \"contracts/HealthWallet.sol\":8834:8839  grant */\n      dup3\n        /* \"contracts/HealthWallet.sol\":8834:8849  grant.recordIds */\n      0x20\n      add\n      mload\n        /* \"contracts/HealthWallet.sol\":8850:8851  i */\n      dup3\n        /* \"contracts/HealthWallet.sol\":8834:8852  grant.recordIds[i] */\n      dup2\n      mload\n      dup2\n      lt\n      tag_415\n      jumpi\n      tag_416\n      tag_269\n      jump\t// in\n    tag_416:\n    tag_415:\n      0x20\n      mul\n      0x20\n      add\n      add\n      mload\n        /* \"contracts/HealthWallet.sol\":8834:8865  grant.recordIds[i] == _recordId */\n      sub\n        /* \"contracts/HealthWallet.sol\":8830:8878  if (grant.recordIds[i] == _recordId) return true */\n      tag_417\n      jumpi\n        /* \"contracts/HealthWallet.sol\":8874:8878  true */\n      0x01\n        /* \"contracts/HealthWallet.sol\":8867:8878  return true */\n      swap3\n      pop\n      pop\n      pop\n      jump(tag_405)\n        /* \"contracts/HealthWallet.sol\":8830:8878  if (grant.recordIds[i] == _recordId) return true */\n    tag_417:\n        /* \"contracts/HealthWallet.sol\":8810:8813  i++ */\n      dup1\n      dup1\n      0x01\n      add\n      swap2\n      pop\n      pop\n        /* \"contracts/HealthWallet.sol\":8765:8890  for (uint i = 0; i < grant.recordIds.length; i++) {... */\n      jump(tag_412)\n    tag_413:\n      pop\n        /* \"contracts/HealthWallet.sol\":8917:8922  false */\n      0x00\n        /* \"contracts/HealthWallet.sol\":8910:8922  return false */\n      swap2\n      pop\n      pop\n        /* \"contracts/HealthWallet.sol\":8254:8930  function hasAccess(... */\n    tag_405:\n      swap4\n      swap3\n      pop\n      pop\n      pop\n      jump\t// out\n        /* \"@openzeppelin/contracts/access/AccessControl.sol\":4618:4756  function revokeRole(bytes32 role, address account) public virtual onlyRole(getRoleAdmin(role)) {... */\n    tag_153:\n        /* \"@openzeppelin/contracts/access/AccessControl.sol\":4693:4711  getRoleAdmin(role) */\n      tag_418\n        /* \"@openzeppelin/contracts/access/AccessControl.sol\":4706:4710  role */\n      dup3\n        /* \"@openzeppelin/contracts/access/AccessControl.sol\":4693:4705  getRoleAdmin */\n      tag_89\n        /* \"@openzeppelin/contracts/access/AccessControl.sol\":4693:4711  getRoleAdmin(role) */\n      jump\t// in\n    tag_418:\n        /* \"@openzeppelin/contracts/access/AccessControl.sol\":2473:2489  _checkRole(role) */\n      tag_420\n        /* \"@openzeppelin/contracts/access/AccessControl.sol\":2484:2488  role */\n      dup2\n        /* \"@openzeppelin/contracts/access/AccessControl.sol\":2473:2483  _checkRole */\n      tag_248\n        /* \"@openzeppelin/contracts/access/AccessControl.sol\":2473:2489  _checkRole(role) */\n      jump\t// in\n    tag_420:\n        /* \"@openzeppelin/contracts/access/AccessControl.sol\":4723:4749  _revokeRole(role, account) */\n      tag_422\n        /* \"@openzeppelin/contracts/access/AccessControl.sol\":4735:4739  role */\n      dup4\n        /* \"@openzeppelin/contracts/access/AccessControl.sol\":4741:4748  account */\n      dup4\n        /* \"@openzeppelin/contracts/access/AccessControl.sol\":4723:4734  _revokeRole */\n      tag_317\n        /* \"@openzeppelin/contracts/access/AccessControl.sol\":4723:4749  _revokeRole(role, account) */\n      jump\t// in\n    tag_422:\n      pop\n        /* \"@openzeppelin/contracts/access/AccessControl.sol\":4618:4756  function revokeRole(bytes32 role, address account) public virtual onlyRole(getRoleAdmin(role)) {... */\n      pop\n      pop\n      pop\n      jump\t// out\n        /* \"@openzeppelin/contracts/access/Ownable.sol\":2543:2758  function transferOwnership(address newOwner) public virtual onlyOwner {... */\n    tag_156:\n        /* \"@openzeppelin/contracts/access/Ownable.sol\":1531:1544  _checkOwner() */\n      tag_424\n        /* \"@openzeppelin/contracts/access/Ownable.sol\":1531:1542  _checkOwner */\n      tag_335\n        /* \"@openzeppelin/contracts/access/Ownable.sol\":1531:1544  _checkOwner() */\n      jump\t// in\n    tag_424:\n        /* \"@openzeppelin/contracts/access/Ownable.sol\":2647:2648  0 */\n      0x00\n        /* \"@openzeppelin/contracts/access/Ownable.sol\":2627:2649  newOwner == address(0) */\n      0xffffffffffffffffffffffffffffffffffffffff\n      and\n        /* \"@openzeppelin/contracts/access/Ownable.sol\":2627:2635  newOwner */\n      dup2\n        /* \"@openzeppelin/contracts/access/Ownable.sol\":2627:2649  newOwner == address(0) */\n      0xffffffffffffffffffffffffffffffffffffffff\n      and\n      sub\n        /* \"@openzeppelin/contracts/access/Ownable.sol\":2623:2714  if (newOwner == address(0)) {... */\n      tag_426\n      jumpi\n        /* \"@openzeppelin/contracts/access/Ownable.sol\":2700:2701  0 */\n      0x00\n        /* \"@openzeppelin/contracts/access/Ownable.sol\":2672:2703  OwnableInvalidOwner(address(0)) */\n      mload(0x40)\n      0x1e4fbdf700000000000000000000000000000000000000000000000000000000\n      dup2\n      mstore\n      0x04\n      add\n      tag_427\n      swap2\n      swap1\n      tag_120\n      jump\t// in\n    tag_427:\n      mload(0x40)\n      dup1\n      swap2\n      sub\n      swap1\n      revert\n        /* \"@openzeppelin/contracts/access/Ownable.sol\":2623:2714  if (newOwner == address(0)) {... */\n    tag_426:\n        /* \"@openzeppelin/contracts/access/Ownable.sol\":2723:2751  _transferOwnership(newOwner) */\n      tag_428\n        /* \"@openzeppelin/contracts/access/Ownable.sol\":2742:2750  newOwner */\n      dup2\n        /* \"@openzeppelin/contracts/access/Ownable.sol\":2723:2741  _transferOwnership */\n      tag_338\n        /* \"@openzeppelin/contracts/access/Ownable.sol\":2723:2751  _transferOwnership(newOwner) */\n      jump\t// in\n    tag_428:\n        /* \"@openzeppelin/contracts/access/Ownable.sol\":2543:2758  function transferOwnership(address newOwner) public virtual onlyOwner {... */\n      pop\n      jump\t// out\n        /* \"@openzeppelin/contracts/utils/introspection/ERC165.sol\":730:876  function supportsInterface(bytes4 interfaceId) public view virtual returns (bool) {... */\n    tag_181:\n        /* \"@openzeppelin/contracts/utils/introspection/ERC165.sol\":806:810  bool */\n      0x00\n        /* \"@openzeppelin/contracts/utils/introspection/ERC165.sol\":844:869  type(IERC165).interfaceId */\n      0x01ffc9a700000000000000000000000000000000000000000000000000000000\n        /* \"@openzeppelin/contracts/utils/introspection/ERC165.sol\":829:869  interfaceId == type(IERC165).interfaceId */\n      not(0xffffffffffffffffffffffffffffffffffffffffffffffffffffffff)\n      and\n        /* \"@openzeppelin/contracts/utils/introspection/ERC165.sol\":829:840  interfaceId */\n      dup3\n        /* \"@openzeppelin/contracts/utils/introspection/ERC165.sol\":829:869  interfaceId == type(IERC165).interfaceId */\n      not(0xffffffffffffffffffffffffffffffffffffffffffffffffffffffff)\n      and\n      eq\n        /* \"@openzeppelin/contracts/utils/introspection/ERC165.sol\":822:869  return interfaceId == type(IERC165).interfaceId */\n      swap1\n      pop\n        /* \"@openzeppelin/contracts/utils/introspection/ERC165.sol\":730:876  function supportsInterface(bytes4 interfaceId) public view virtual returns (bool) {... */\n      swap2\n      swap1\n      pop\n      jump\t// out\n        /* \"@openzeppelin/contracts/access/AccessControl.sol\":3175:3278  function _checkRole(bytes32 role) internal view virtual {... */\n    tag_248:\n        /* \"@openzeppelin/contracts/access/AccessControl.sol\":3241:3271  _checkRole(role, _msgSender()) */\n      tag_431\n        /* \"@openzeppelin/contracts/access/AccessControl.sol\":3252:3256  role */\n      dup2\n        /* \"@openzeppelin/contracts/access/AccessControl.sol\":3258:3270  _msgSender() */\n      tag_432\n        /* \"@openzeppelin/contracts/access/AccessControl.sol\":3258:3268  _msgSender */\n      tag_314\n        /* \"@openzeppelin/contracts/access/AccessControl.sol\":3258:3270  _msgSender() */\n      jump\t// in\n    tag_432:\n        /* \"@openzeppelin/contracts/access/AccessControl.sol\":3241:3251  _checkRole */\n      tag_433\n        /* \"@openzeppelin/contracts/access/AccessControl.sol\":3241:3271  _checkRole(role, _msgSender()) */\n      jump\t// in\n    tag_431:\n        /* \"@openzeppelin/contracts/access/AccessControl.sol\":3175:3278  function _checkRole(bytes32 role) internal view virtual {... */\n      pop\n      jump\t// out\n        /* \"contracts/HealthWallet.sol\":11584:11942  function hasGeneralAccess(address _patient, address _requester) ... */\n    tag_259:\n        /* \"contracts/HealthWallet.sol\":11701:11705  bool */\n      0x00\n        /* \"contracts/HealthWallet.sol\":11758:11768  _requester */\n      dup2\n        /* \"contracts/HealthWallet.sol\":11728:11768  emergencyContact[_patient] == _requester */\n      0xffffffffffffffffffffffffffffffffffffffff\n      and\n        /* \"contracts/HealthWallet.sol\":11728:11744  emergencyContact */\n      0x06\n        /* \"contracts/HealthWallet.sol\":11728:11754  emergencyContact[_patient] */\n      0x00\n        /* \"contracts/HealthWallet.sol\":11745:11753  _patient */\n      dup6\n        /* \"contracts/HealthWallet.sol\":11728:11754  emergencyContact[_patient] */\n      0xffffffffffffffffffffffffffffffffffffffff\n      and\n      0xffffffffffffffffffffffffffffffffffffffff\n      and\n      dup2\n      mstore\n      0x20\n      add\n      swap1\n      dup2\n      mstore\n      0x20\n      add\n      0x00\n      keccak256\n      0x00\n      swap1\n      sload\n      swap1\n      0x0100\n      exp\n      swap1\n      div\n      0xffffffffffffffffffffffffffffffffffffffff\n      and\n        /* \"contracts/HealthWallet.sol\":11728:11768  emergencyContact[_patient] == _requester */\n      0xffffffffffffffffffffffffffffffffffffffff\n      and\n      sub\n        /* \"contracts/HealthWallet.sol\":11724:11781  if (emergencyContact[_patient] == _requester) return true */\n      tag_435\n      jumpi\n        /* \"contracts/HealthWallet.sol\":11777:11781  true */\n      0x01\n        /* \"contracts/HealthWallet.sol\":11770:11781  return true */\n      swap1\n      pop\n      jump(tag_434)\n        /* \"contracts/HealthWallet.sol\":11724:11781  if (emergencyContact[_patient] == _requester) return true */\n    tag_435:\n        /* \"contracts/HealthWallet.sol\":11802:11826  AccessGrant memory grant */\n      0x00\n        /* \"contracts/HealthWallet.sol\":11829:11841  accessGrants */\n      0x04\n        /* \"contracts/HealthWallet.sol\":11829:11851  accessGrants[_patient] */\n      0x00\n        /* \"contracts/HealthWallet.sol\":11842:11850  _patient */\n      dup6\n        /* \"contracts/HealthWallet.sol\":11829:11851  accessGrants[_patient] */\n      0xffffffffffffffffffffffffffffffffffffffff\n      and\n      0xffffffffffffffffffffffffffffffffffffffff\n      and\n      dup2\n      mstore\n      0x20\n      add\n      swap1\n      dup2\n      mstore\n      0x20\n      add\n      0x00\n      keccak256\n        /* \"contracts/HealthWallet.sol\":11829:11863  accessGrants[_patient][_requester] */\n      0x00\n        /* \"contracts/HealthWallet.sol\":11852:11862  _requester */\n      dup5\n        /* \"contracts/HealthWallet.sol\":11829:11863  accessGrants[_patient][_requester] */\n      0xffffffffffffffffffffffffffffffffffffffff\n      and\n      0xffffffffffffffffffffffffffffffffffffffff\n      and\n      dup2\n      mstore\n      0x20\n      add\n      swap1\n      dup2\n      mstore\n      0x20\n      add\n      0x00\n      keccak256\n        /* \"contracts/HealthWallet.sol\":11802:11863  AccessGrant memory grant = accessGrants[_patient][_requester] */\n      mload(0x40)\n      dup1\n      0xa0\n      add\n      0x40\n      mstore\n      swap1\n      dup2\n      0x00\n      dup3\n      add\n      0x00\n      swap1\n      sload\n      swap1\n      0x0100\n      exp\n      swap1\n      div\n      0xffffffffffffffffffffffffffffffffffffffff\n      and\n      0xffffffffffffffffffffffffffffffffffffffff\n      and\n      0xffffffffffffffffffffffffffffffffffffffff\n      and\n      dup2\n      mstore\n      0x20\n      add\n      0x01\n      dup3\n      add\n      dup1\n      sload\n      dup1\n      0x20\n      mul\n      0x20\n      add\n      mload(0x40)\n      swap1\n      dup2\n      add\n      0x40\n      mstore\n      dup1\n      swap3\n      swap2\n      swap1\n      dup2\n      dup2\n      mstore\n      0x20\n      add\n      dup3\n      dup1\n      sload\n      dup1\n      iszero\n      tag_436\n      jumpi\n      0x20\n      mul\n      dup3\n      add\n      swap2\n      swap1\n      0x00\n      mstore\n      keccak256(0x00, 0x20)\n      swap1\n    tag_437:\n      dup2\n      sload\n      dup2\n      mstore\n      0x20\n      add\n      swap1\n      0x01\n      add\n      swap1\n      dup1\n      dup4\n      gt\n      tag_437\n      jumpi\n    tag_436:\n      pop\n      pop\n      pop\n      pop\n      pop\n      dup2\n      mstore\n      0x20\n      add\n      0x02\n      dup3\n      add\n      sload\n      dup2\n      mstore\n      0x20\n      add\n      0x03\n      dup3\n      add\n      0x00\n      swap1\n      sload\n      swap1\n      0x0100\n      exp\n      swap1\n      div\n      0xff\n      and\n      iszero\n      iszero\n      iszero\n      iszero\n      dup2\n      mstore\n      0x20\n      add\n      0x04\n      dup3\n      add\n      sload\n      dup2\n      mstore\n      pop\n      pop\n      swap1\n      pop\n        /* \"contracts/HealthWallet.sol\":11881:11886  grant */\n      dup1\n        /* \"contracts/HealthWallet.sol\":11881:11895  grant.isActive */\n      0x60\n      add\n      mload\n        /* \"contracts/HealthWallet.sol\":11881:11934  grant.isActive && block.timestamp <= grant.expiryTime */\n      dup1\n      iszero\n      tag_438\n      jumpi\n      pop\n        /* \"contracts/HealthWallet.sol\":11918:11923  grant */\n      dup1\n        /* \"contracts/HealthWallet.sol\":11918:11934  grant.expiryTime */\n      0x40\n      add\n      mload\n        /* \"contracts/HealthWallet.sol\":11899:11914  block.timestamp */\n      timestamp\n        /* \"contracts/HealthWallet.sol\":11899:11934  block.timestamp <= grant.expiryTime */\n      gt\n      iszero\n        /* \"contracts/HealthWallet.sol\":11881:11934  grant.isActive && block.timestamp <= grant.expiryTime */\n    tag_438:\n        /* \"contracts/HealthWallet.sol\":11874:11934  return grant.isActive && block.timestamp <= grant.expiryTime */\n      swap2\n      pop\n      pop\n        /* \"contracts/HealthWallet.sol\":11584:11942  function hasGeneralAccess(address _patient, address _requester) ... */\n    tag_434:\n      swap3\n      swap2\n      pop\n      pop\n      jump\t// out\n        /* \"@openzeppelin/contracts/access/AccessControl.sol\":6155:6471  function _grantRole(bytes32 role, address account) internal virtual returns (bool) {... */\n    tag_311:\n        /* \"@openzeppelin/contracts/access/AccessControl.sol\":6232:6236  bool */\n      0x00\n        /* \"@openzeppelin/contracts/access/AccessControl.sol\":6253:6275  hasRole(role, account) */\n      tag_440\n        /* \"@openzeppelin/contracts/access/AccessControl.sol\":6261:6265  role */\n      dup4\n        /* \"@openzeppelin/contracts/access/AccessControl.sol\":6267:6274  account */\n      dup4\n        /* \"@openzeppelin/contracts/access/AccessControl.sol\":6253:6260  hasRole */\n      tag_126\n        /* \"@openzeppelin/contracts/access/AccessControl.sol\":6253:6275  hasRole(role, account) */\n      jump\t// in\n    tag_440:\n        /* \"@openzeppelin/contracts/access/AccessControl.sol\":6248:6465  if (!hasRole(role, account)) {... */\n      tag_441\n      jumpi\n        /* \"@openzeppelin/contracts/access/AccessControl.sol\":6323:6327  true */\n      0x01\n        /* \"@openzeppelin/contracts/access/AccessControl.sol\":6291:6297  _roles */\n      dup1\n        /* \"@openzeppelin/contracts/access/AccessControl.sol\":6291:6303  _roles[role] */\n      0x00\n        /* \"@openzeppelin/contracts/access/AccessControl.sol\":6298:6302  role */\n      dup6\n        /* \"@openzeppelin/contracts/access/AccessControl.sol\":6291:6303  _roles[role] */\n      dup2\n      mstore\n      0x20\n      add\n      swap1\n      dup2\n      mstore\n      0x20\n      add\n      0x00\n      keccak256\n        /* \"@openzeppelin/contracts/access/AccessControl.sol\":6291:6311  _roles[role].hasRole */\n      0x00\n      add\n        /* \"@openzeppelin/contracts/access/AccessControl.sol\":6291:6320  _roles[role].hasRole[account] */\n      0x00\n        /* \"@openzeppelin/contracts/access/AccessControl.sol\":6312:6319  account */\n      dup5\n        /* \"@openzeppelin/contracts/access/AccessControl.sol\":6291:6320  _roles[role].hasRole[account] */\n      0xffffffffffffffffffffffffffffffffffffffff\n      and\n      0xffffffffffffffffffffffffffffffffffffffff\n      and\n      dup2\n      mstore\n      0x20\n      add\n      swap1\n      dup2\n      mstore\n      0x20\n      add\n      0x00\n      keccak256\n      0x00\n        /* \"@openzeppelin/contracts/access/AccessControl.sol\":6291:6327  _roles[role].hasRole[account] = true */\n      0x0100\n      exp\n      dup2\n      sload\n      dup2\n      0xff\n      mul\n      not\n      and\n      swap1\n      dup4\n      iszero\n      iszero\n      mul\n      or\n      swap1\n      sstore\n      pop\n        /* \"@openzeppelin/contracts/access/AccessControl.sol\":6373:6385  _msgSender() */\n      tag_442\n        /* \"@openzeppelin/contracts/access/AccessControl.sol\":6373:6383  _msgSender */\n      tag_314\n        /* \"@openzeppelin/contracts/access/AccessControl.sol\":6373:6385  _msgSender() */\n      jump\t// in\n    tag_442:\n        /* \"@openzeppelin/contracts/access/AccessControl.sol\":6346:6386  RoleGranted(role, account, _msgSender()) */\n      0xffffffffffffffffffffffffffffffffffffffff\n      and\n        /* \"@openzeppelin/contracts/access/AccessControl.sol\":6364:6371  account */\n      dup3\n        /* \"@openzeppelin/contracts/access/AccessControl.sol\":6346:6386  RoleGranted(role, account, _msgSender()) */\n      0xffffffffffffffffffffffffffffffffffffffff\n      and\n        /* \"@openzeppelin/contracts/access/AccessControl.sol\":6358:6362  role */\n      dup5\n        /* \"@openzeppelin/contracts/access/AccessControl.sol\":6346:6386  RoleGranted(role, account, _msgSender()) */\n      0x2f8788117e7eff1d82e926ec794901d17c78024a50270940304540a733656f0d\n      mload(0x40)\n      mload(0x40)\n      dup1\n      swap2\n      sub\n      swap1\n      log4\n        /* \"@openzeppelin/contracts/access/AccessControl.sol\":6407:6411  true */\n      0x01\n        /* \"@openzeppelin/contracts/access/AccessControl.sol\":6400:6411  return true */\n      swap1\n      pop\n      jump(tag_439)\n        /* \"@openzeppelin/contracts/access/AccessControl.sol\":6248:6465  if (!hasRole(role, account)) {... */\n    tag_441:\n        /* \"@openzeppelin/contracts/access/AccessControl.sol\":6449:6454  false */\n      0x00\n        /* \"@openzeppelin/contracts/access/AccessControl.sol\":6442:6454  return false */\n      swap1\n      pop\n        /* \"@openzeppelin/contracts/access/AccessControl.sol\":6155:6471  function _grantRole(bytes32 role, address account) internal virtual returns (bool) {... */\n    tag_439:\n      swap3\n      swap2\n      pop\n      pop\n      jump\t// out\n        /* \"@openzeppelin/contracts/utils/Context.sol\":656:752  function _msgSender() internal view virtual returns (address) {... */\n    tag_314:\n        /* \"@openzeppelin/contracts/utils/Context.sol\":709:716  address */\n      0x00\n        /* \"@openzeppelin/contracts/utils/Context.sol\":735:745  msg.sender */\n      caller\n        /* \"@openzeppelin/contracts/utils/Context.sol\":728:745  return msg.sender */\n      swap1\n      pop\n        /* \"@openzeppelin/contracts/utils/Context.sol\":656:752  function _msgSender() internal view virtual returns (address) {... */\n      swap1\n      jump\t// out\n        /* \"@openzeppelin/contracts/access/AccessControl.sol\":6708:7025  function _revokeRole(bytes32 role, address account) internal virtual returns (bool) {... */\n    tag_317:\n        /* \"@openzeppelin/contracts/access/AccessControl.sol\":6786:6790  bool */\n      0x00\n        /* \"@openzeppelin/contracts/access/AccessControl.sol\":6806:6828  hasRole(role, account) */\n      tag_446\n        /* \"@openzeppelin/contracts/access/AccessControl.sol\":6814:6818  role */\n      dup4\n        /* \"@openzeppelin/contracts/access/AccessControl.sol\":6820:6827  account */\n      dup4\n        /* \"@openzeppelin/contracts/access/AccessControl.sol\":6806:6813  hasRole */\n      tag_126\n        /* \"@openzeppelin/contracts/access/AccessControl.sol\":6806:6828  hasRole(role, account) */\n      jump\t// in\n    tag_446:\n        /* \"@openzeppelin/contracts/access/AccessControl.sol\":6802:7019  if (hasRole(role, account)) {... */\n      iszero\n      tag_447\n      jumpi\n        /* \"@openzeppelin/contracts/access/AccessControl.sol\":6876:6881  false */\n      0x00\n        /* \"@openzeppelin/contracts/access/AccessControl.sol\":6844:6850  _roles */\n      0x01\n        /* \"@openzeppelin/contracts/access/AccessControl.sol\":6844:6856  _roles[role] */\n      0x00\n        /* \"@openzeppelin/contracts/access/AccessControl.sol\":6851:6855  role */\n      dup6\n        /* \"@openzeppelin/contracts/access/AccessControl.sol\":6844:6856  _roles[role] */\n      dup2\n      mstore\n      0x20\n      add\n      swap1\n      dup2\n      mstore\n      0x20\n      add\n      0x00\n      keccak256\n        /* \"@openzeppelin/contracts/access/AccessControl.sol\":6844:6864  _roles[role].hasRole */\n      0x00\n      add\n        /* \"@openzeppelin/contracts/access/AccessControl.sol\":6844:6873  _roles[role].hasRole[account] */\n      0x00\n        /* \"@openzeppelin/contracts/access/AccessControl.sol\":6865:6872  account */\n      dup5\n        /* \"@openzeppelin/contracts/access/AccessControl.sol\":6844:6873  _roles[role].hasRole[account] */\n      0xffffffffffffffffffffffffffffffffffffffff\n      and\n      0xffffffffffffffffffffffffffffffffffffffff\n      and\n      dup2\n      mstore\n      0x20\n      add\n      swap1\n      dup2\n      mstore\n      0x20\n      add\n      0x00\n      keccak256\n      0x00\n        /* \"@openzeppelin/contracts/access/AccessControl.sol\":6844:6881  _roles[role].hasRole[account] = false */\n      0x0100\n      exp\n      dup2\n      sload\n      dup2\n      0xff\n      mul\n      not\n      and\n      swap1\n      dup4\n      iszero\n      iszero\n      mul\n      or\n      swap1\n      sstore\n      pop\n        /* \"@openzeppelin/contracts/access/AccessControl.sol\":6927:6939  _msgSender() */\n      tag_448\n        /* \"@openzeppelin/contracts/access/AccessControl.sol\":6927:6937  _msgSender */\n      tag_314\n        /* \"@openzeppelin/contracts/access/AccessControl.sol\":6927:6939  _msgSender() */\n      jump\t// in\n    tag_448:\n        /* \"@openzeppelin/contracts/access/AccessControl.sol\":6900:6940  RoleRevoked(role, account, _msgSender()) */\n      0xffffffffffffffffffffffffffffffffffffffff\n      and\n        /* \"@openzeppelin/contracts/access/AccessControl.sol\":6918:6925  account */\n      dup3\n        /* \"@openzeppelin/contracts/access/AccessControl.sol\":6900:6940  RoleRevoked(role, account, _msgSender()) */\n      0xffffffffffffffffffffffffffffffffffffffff\n      and\n        /* \"@openzeppelin/contracts/access/AccessControl.sol\":6912:6916  role */\n      dup5\n        /* \"@openzeppelin/contracts/access/AccessControl.sol\":6900:6940  RoleRevoked(role, account, _msgSender()) */\n      0xf6391f5c32d9c69d2a47ea670b442974b53935d1edc7fd64eb21e047a839171b\n      mload(0x40)\n      mload(0x40)\n      dup1\n      swap2\n      sub\n      swap1\n      log4\n        /* \"@openzeppelin/contracts/access/AccessControl.sol\":6961:6965  true */\n      0x01\n        /* \"@openzeppelin/contracts/access/AccessControl.sol\":6954:6965  return true */\n      swap1\n      pop\n      jump(tag_445)\n        /* \"@openzeppelin/contracts/access/AccessControl.sol\":6802:7019  if (hasRole(role, account)) {... */\n    tag_447:\n        /* \"@openzeppelin/contracts/access/AccessControl.sol\":7003:7008  false */\n      0x00\n        /* \"@openzeppelin/contracts/access/AccessControl.sol\":6996:7008  return false */\n      swap1\n      pop\n        /* \"@openzeppelin/contracts/access/AccessControl.sol\":6708:7025  function _revokeRole(bytes32 role, address account) internal virtual returns (bool) {... */\n    tag_445:\n      swap3\n      swap2\n      pop\n      pop\n      jump\t// out\n        /* \"@openzeppelin/contracts/access/Ownable.sol\":1796:1958  function _checkOwner() internal view virtual {... */\n    tag_335:\n        /* \"@openzeppelin/contracts/access/Ownable.sol\":1866:1878  _msgSender() */\n      tag_451\n        /* \"@openzeppelin/contracts/access/Ownable.sol\":1866:1876  _msgSender */\n      tag_314\n        /* \"@openzeppelin/contracts/access/Ownable.sol\":1866:1878  _msgSender() */\n      jump\t// in\n    tag_451:\n        /* \"@openzeppelin/contracts/access/Ownable.sol\":1855:1878  owner() != _msgSender() */\n      0xffffffffffffffffffffffffffffffffffffffff\n      and\n        /* \"@openzeppelin/contracts/access/Ownable.sol\":1855:1862  owner() */\n      tag_452\n        /* \"@openzeppelin/contracts/access/Ownable.sol\":1855:1860  owner */\n      tag_118\n        /* \"@openzeppelin/contracts/access/Ownable.sol\":1855:1862  owner() */\n      jump\t// in\n    tag_452:\n        /* \"@openzeppelin/contracts/access/Ownable.sol\":1855:1878  owner() != _msgSender() */\n      0xffffffffffffffffffffffffffffffffffffffff\n      and\n      eq\n        /* \"@openzeppelin/contracts/access/Ownable.sol\":1851:1952  if (owner() != _msgSender()) {... */\n      tag_453\n      jumpi\n        /* \"@openzeppelin/contracts/access/Ownable.sol\":1928:1940  _msgSender() */\n      tag_454\n        /* \"@openzeppelin/contracts/access/Ownable.sol\":1928:1938  _msgSender */\n      tag_314\n        /* \"@openzeppelin/contracts/access/Ownable.sol\":1928:1940  _msgSender() */\n      jump\t// in\n    tag_454:\n        /* \"@openzeppelin/contracts/access/Ownable.sol\":1901:1941  OwnableUnauthorizedAccount(_msgSender()) */\n      mload(0x40)\n      0x118cdaa700000000000000000000000000000000000000000000000000000000\n      dup2\n      mstore\n      0x04\n      add\n      tag_455\n      swap2\n      swap1\n      tag_120\n      jump\t// in\n    tag_455:\n      mload(0x40)\n      dup1\n      swap2\n      sub\n      swap1\n      revert\n        /* \"@openzeppelin/contracts/access/Ownable.sol\":1851:1952  if (owner() != _msgSender()) {... */\n    tag_453:\n        /* \"@openzeppelin/contracts/access/Ownable.sol\":1796:1958  function _checkOwner() internal view virtual {... */\n      jump\t// out\n        /* \"@openzeppelin/contracts/access/Ownable.sol\":2912:3099  function _transferOwnership(address newOwner) internal virtual {... */\n    tag_338:\n        /* \"@openzeppelin/contracts/access/Ownable.sol\":2985:3001  address oldOwner */\n      0x00\n        /* \"@openzeppelin/contracts/access/Ownable.sol\":3004:3010  _owner */\n      dup1\n      0x00\n      swap1\n      sload\n      swap1\n      0x0100\n      exp\n      swap1\n      div\n      0xffffffffffffffffffffffffffffffffffffffff\n      and\n        /* \"@openzeppelin/contracts/access/Ownable.sol\":2985:3010  address oldOwner = _owner */\n      swap1\n      pop\n        /* \"@openzeppelin/contracts/access/Ownable.sol\":3029:3037  newOwner */\n      dup2\n        /* \"@openzeppelin/contracts/access/Ownable.sol\":3020:3026  _owner */\n      0x00\n      dup1\n        /* \"@openzeppelin/contracts/access/Ownable.sol\":3020:3037  _owner = newOwner */\n      0x0100\n      exp\n      dup2\n      sload\n      dup2\n      0xffffffffffffffffffffffffffffffffffffffff\n      mul\n      not\n      and\n      swap1\n      dup4\n      0xffffffffffffffffffffffffffffffffffffffff\n      and\n      mul\n      or\n      swap1\n      sstore\n      pop\n        /* \"@openzeppelin/contracts/access/Ownable.sol\":3083:3091  newOwner */\n      dup2\n        /* \"@openzeppelin/contracts/access/Ownable.sol\":3052:3092  OwnershipTransferred(oldOwner, newOwner) */\n      0xffffffffffffffffffffffffffffffffffffffff\n      and\n        /* \"@openzeppelin/contracts/access/Ownable.sol\":3073:3081  oldOwner */\n      dup2\n        /* \"@openzeppelin/contracts/access/Ownable.sol\":3052:3092  OwnershipTransferred(oldOwner, newOwner) */\n      0xffffffffffffffffffffffffffffffffffffffff\n      and\n      0x8be0079c531659141344cd1fd0a4f28419497f9722a3daafe3b4186f6b6457e0\n      mload(0x40)\n      mload(0x40)\n      dup1\n      swap2\n      sub\n      swap1\n      log3\n        /* \"@openzeppelin/contracts/access/Ownable.sol\":2975:3099  {... */\n      pop\n        /* \"@openzeppelin/contracts/access/Ownable.sol\":2912:3099  function _transferOwnership(address newOwner) internal virtual {... */\n      pop\n      jump\t// out\n        /* \"@openzeppelin/contracts/access/AccessControl.sol\":3408:3605  function _checkRole(bytes32 role, address account) internal view virtual {... */\n    tag_433:\n        /* \"@openzeppelin/contracts/access/AccessControl.sol\":3496:3518  hasRole(role, account) */\n      tag_458\n        /* \"@openzeppelin/contracts/access/AccessControl.sol\":3504:3508  role */\n      dup3\n        /* \"@openzeppelin/contracts/access/AccessControl.sol\":3510:3517  account */\n      dup3\n        /* \"@openzeppelin/contracts/access/AccessControl.sol\":3496:3503  hasRole */\n      tag_126\n        /* \"@openzeppelin/contracts/access/AccessControl.sol\":3496:3518  hasRole(role, account) */\n      jump\t// in\n    tag_458:\n        /* \"@openzeppelin/contracts/access/AccessControl.sol\":3491:3599  if (!hasRole(role, account)) {... */\n      tag_459\n      jumpi\n        /* \"@openzeppelin/contracts/access/AccessControl.sol\":3574:3581  account */\n      dup1\n        /* \"@openzeppelin/contracts/access/AccessControl.sol\":3583:3587  role */\n      dup3\n        /* \"@openzeppelin/contracts/access/AccessControl.sol\":3541:3588  AccessControlUnauthorizedAccount(account, role) */\n      mload(0x40)\n      0xe2517d3f00000000000000000000000000000000000000000000000000000000\n      dup2\n      mstore\n      0x04\n      add\n      tag_460\n      swap3\n      swap2\n      swap1\n      tag_461\n      jump\t// in\n    tag_460:\n      mload(0x40)\n      dup1\n      swap2\n      sub\n      swap1\n      revert\n        /* \"@openzeppelin/contracts/access/AccessControl.sol\":3491:3599  if (!hasRole(role, account)) {... */\n    tag_459:\n        /* \"@openzeppelin/contracts/access/AccessControl.sol\":3408:3605  function _checkRole(bytes32 role, address account) internal view virtual {... */\n      pop\n      pop\n      jump\t// out\n    tag_183:\n      mload(0x40)\n      dup1\n      0x0120\n      add\n      0x40\n      mstore\n      dup1\n      0x00\n      dup2\n      mstore\n      0x20\n      add\n      and(0xffffffffffffffffffffffffffffffffffffffff, 0x00)\n      dup2\n      mstore\n      0x20\n      add\n      0x60\n      dup2\n      mstore\n      0x20\n      add\n      0x00\n      0x05\n      dup2\n      gt\n      iszero\n      tag_462\n      jumpi\n      tag_463\n      tag_175\n      jump\t// in\n    tag_463:\n    tag_462:\n      dup2\n      mstore\n      0x20\n      add\n      0x00\n      dup2\n      mstore\n      0x20\n      add\n      and(0xffffffffffffffffffffffffffffffffffffffff, 0x00)\n      dup2\n      mstore\n      0x20\n      add\n      iszero(iszero(0x00))\n      dup2\n      mstore\n      0x20\n      add\n      0x60\n      dup2\n      mstore\n      0x20\n      add\n      0x00\n      dup2\n      mstore\n      pop\n      swap1\n      jump\t// out\n    tag_344:\n      mload(0x40)\n      dup1\n      0xa0\n      add\n      0x40\n      mstore\n      dup1\n      and(0xffffffffffffffffffffffffffffffffffffffff, 0x00)\n      dup2\n      mstore\n      0x20\n      add\n      0x60\n      dup2\n      mstore\n      0x20\n      add\n      0x00\n      dup2\n      mstore\n      0x20\n      add\n      iszero(iszero(0x00))\n      dup2\n      mstore\n      0x20\n      add\n      0x00\n      dup2\n      mstore\n      pop\n      swap1\n      jump\t// out\n    tag_380:\n      dup3\n      dup1\n      sload\n      dup3\n      dup3\n      sstore\n      swap1\n      0x00\n      mstore\n      keccak256(0x00, 0x20)\n      swap1\n      dup2\n      add\n      swap3\n      dup3\n      iszero\n      tag_464\n      jumpi\n      swap2\n      0x20\n      mul\n      dup3\n      add\n    tag_465:\n      dup3\n      dup2\n      gt\n      iszero\n      tag_466\n      jumpi\n      dup3\n      mload\n      dup3\n      sstore\n      swap2\n      0x20\n      add\n      swap2\n      swap1\n      0x01\n      add\n      swap1\n      jump(tag_465)\n    tag_466:\n    tag_464:\n      pop\n      swap1\n      pop\n      tag_467\n      swap2\n      swap1\n      tag_468\n      jump\t// in\n    tag_467:\n      pop\n      swap1\n      jump\t// out\n    tag_468:\n    tag_469:\n      dup1\n      dup3\n      gt\n      iszero\n      tag_470\n      jumpi\n      0x00\n      dup2\n      0x00\n      swap1\n      sstore\n      pop\n      0x01\n      add\n      jump(tag_469)\n    tag_470:\n      pop\n      swap1\n      jump\t// out\n        /* \"#utility.yul\":7:82   */\n    tag_471:\n        /* \"#utility.yul\":40:46   */\n      0x00\n        /* \"#utility.yul\":73:75   */\n      0x40\n        /* \"#utility.yul\":67:76   */\n      mload\n        /* \"#utility.yul\":57:76   */\n      swap1\n      pop\n        /* \"#utility.yul\":7:82   */\n      swap1\n      jump\t// out\n        /* \"#utility.yul\":88:205   */\n    tag_472:\n        /* \"#utility.yul\":197:198   */\n      0x00\n        /* \"#utility.yul\":194:195   */\n      dup1\n        /* \"#utility.yul\":187:199   */\n      revert\n        /* \"#utility.yul\":211:328   */\n    tag_473:\n        /* \"#utility.yul\":320:321   */\n      0x00\n        /* \"#utility.yul\":317:318   */\n      dup1\n        /* \"#utility.yul\":310:322   */\n      revert\n        /* \"#utility.yul\":334:411   */\n    tag_474:\n        /* \"#utility.yul\":371:378   */\n      0x00\n        /* \"#utility.yul\":400:405   */\n      dup2\n        /* \"#utility.yul\":389:405   */\n      swap1\n      pop\n        /* \"#utility.yul\":334:411   */\n      swap2\n      swap1\n      pop\n      jump\t// out\n        /* \"#utility.yul\":417:539   */\n    tag_475:\n        /* \"#utility.yul\":490:514   */\n      tag_595\n        /* \"#utility.yul\":508:513   */\n      dup2\n        /* \"#utility.yul\":490:514   */\n      tag_474\n      jump\t// in\n    tag_595:\n        /* \"#utility.yul\":483:488   */\n      dup2\n        /* \"#utility.yul\":480:515   */\n      eq\n        /* \"#utility.yul\":470:533   */\n      tag_596\n      jumpi\n        /* \"#utility.yul\":529:530   */\n      0x00\n        /* \"#utility.yul\":526:527   */\n      dup1\n        /* \"#utility.yul\":519:531   */\n      revert\n        /* \"#utility.yul\":470:533   */\n    tag_596:\n        /* \"#utility.yul\":417:539   */\n      pop\n      jump\t// out\n        /* \"#utility.yul\":545:684   */\n    tag_476:\n        /* \"#utility.yul\":591:596   */\n      0x00\n        /* \"#utility.yul\":629:635   */\n      dup2\n        /* \"#utility.yul\":616:636   */\n      calldataload\n        /* \"#utility.yul\":607:636   */\n      swap1\n      pop\n        /* \"#utility.yul\":645:678   */\n      tag_598\n        /* \"#utility.yul\":672:677   */\n      dup2\n        /* \"#utility.yul\":645:678   */\n      tag_475\n      jump\t// in\n    tag_598:\n        /* \"#utility.yul\":545:684   */\n      swap3\n      swap2\n      pop\n      pop\n      jump\t// out\n        /* \"#utility.yul\":690:1019   */\n    tag_41:\n        /* \"#utility.yul\":749:755   */\n      0x00\n        /* \"#utility.yul\":798:800   */\n      0x20\n        /* \"#utility.yul\":786:795   */\n      dup3\n        /* \"#utility.yul\":777:784   */\n      dup5\n        /* \"#utility.yul\":773:796   */\n      sub\n        /* \"#utility.yul\":769:801   */\n      slt\n        /* \"#utility.yul\":766:885   */\n      iszero\n      tag_600\n      jumpi\n        /* \"#utility.yul\":804:883   */\n      tag_601\n      tag_472\n      jump\t// in\n    tag_601:\n        /* \"#utility.yul\":766:885   */\n    tag_600:\n        /* \"#utility.yul\":924:925   */\n      0x00\n        /* \"#utility.yul\":949:1002   */\n      tag_602\n        /* \"#utility.yul\":994:1001   */\n      dup5\n        /* \"#utility.yul\":985:991   */\n      dup3\n        /* \"#utility.yul\":974:983   */\n      dup6\n        /* \"#utility.yul\":970:992   */\n      add\n        /* \"#utility.yul\":949:1002   */\n      tag_476\n      jump\t// in\n    tag_602:\n        /* \"#utility.yul\":939:1002   */\n      swap2\n      pop\n        /* \"#utility.yul\":895:1012   */\n      pop\n        /* \"#utility.yul\":690:1019   */\n      swap3\n      swap2\n      pop\n      pop\n      jump\t// out\n        /* \"#utility.yul\":1025:1165   */\n    tag_477:\n        /* \"#utility.yul\":1118:1124   */\n      0x00\n        /* \"#utility.yul\":1152:1157   */\n      dup2\n        /* \"#utility.yul\":1146:1158   */\n      mload\n        /* \"#utility.yul\":1136:1158   */\n      swap1\n      pop\n        /* \"#utility.yul\":1025:1165   */\n      swap2\n      swap1\n      pop\n      jump\t// out\n        /* \"#utility.yul\":1171:1381   */\n    tag_478:\n        /* \"#utility.yul\":1296:1307   */\n      0x00\n        /* \"#utility.yul\":1330:1336   */\n      dup3\n        /* \"#utility.yul\":1325:1328   */\n      dup3\n        /* \"#utility.yul\":1318:1337   */\n      mstore\n        /* \"#utility.yul\":1370:1374   */\n      0x20\n        /* \"#utility.yul\":1365:1368   */\n      dup3\n        /* \"#utility.yul\":1361:1375   */\n      add\n        /* \"#utility.yul\":1346:1375   */\n      swap1\n      pop\n        /* \"#utility.yul\":1171:1381   */\n      swap3\n      swap2\n      pop\n      pop\n      jump\t// out\n        /* \"#utility.yul\":1387:1545   */\n    tag_479:\n        /* \"#utility.yul\":1480:1484   */\n      0x00\n        /* \"#utility.yul\":1503:1506   */\n      dup2\n        /* \"#utility.yul\":1495:1506   */\n      swap1\n      pop\n        /* \"#utility.yul\":1533:1537   */\n      0x20\n        /* \"#utility.yul\":1528:1531   */\n      dup3\n        /* \"#utility.yul\":1524:1538   */\n      add\n        /* \"#utility.yul\":1516:1538   */\n      swap1\n      pop\n        /* \"#utility.yul\":1387:1545   */\n      swap2\n      swap1\n      pop\n      jump\t// out\n        /* \"#utility.yul\":1551:1677   */\n    tag_480:\n        /* \"#utility.yul\":1588:1595   */\n      0x00\n        /* \"#utility.yul\":1628:1670   */\n      0xffffffffffffffffffffffffffffffffffffffff\n        /* \"#utility.yul\":1621:1626   */\n      dup3\n        /* \"#utility.yul\":1617:1671   */\n      and\n        /* \"#utility.yul\":1606:1671   */\n      swap1\n      pop\n        /* \"#utility.yul\":1551:1677   */\n      swap2\n      swap1\n      pop\n      jump\t// out\n        /* \"#utility.yul\":1683:1779   */\n    tag_481:\n        /* \"#utility.yul\":1720:1727   */\n      0x00\n        /* \"#utility.yul\":1749:1773   */\n      tag_608\n        /* \"#utility.yul\":1767:1772   */\n      dup3\n        /* \"#utility.yul\":1749:1773   */\n      tag_480\n      jump\t// in\n    tag_608:\n        /* \"#utility.yul\":1738:1773   */\n      swap1\n      pop\n        /* \"#utility.yul\":1683:1779   */\n      swap2\n      swap1\n      pop\n      jump\t// out\n        /* \"#utility.yul\":1785:1893   */\n    tag_482:\n        /* \"#utility.yul\":1862:1886   */\n      tag_610\n        /* \"#utility.yul\":1880:1885   */\n      dup2\n        /* \"#utility.yul\":1862:1886   */\n      tag_481\n      jump\t// in\n    tag_610:\n        /* \"#utility.yul\":1857:1860   */\n      dup3\n        /* \"#utility.yul\":1850:1887   */\n      mstore\n        /* \"#utility.yul\":1785:1893   */\n      pop\n      pop\n      jump\t// out\n        /* \"#utility.yul\":1899:2007   */\n    tag_483:\n        /* \"#utility.yul\":1976:2000   */\n      tag_612\n        /* \"#utility.yul\":1994:1999   */\n      dup2\n        /* \"#utility.yul\":1976:2000   */\n      tag_474\n      jump\t// in\n    tag_612:\n        /* \"#utility.yul\":1971:1974   */\n      dup3\n        /* \"#utility.yul\":1964:2001   */\n      mstore\n        /* \"#utility.yul\":1899:2007   */\n      pop\n      pop\n      jump\t// out\n        /* \"#utility.yul\":2013:2193   */\n    tag_175:\n        /* \"#utility.yul\":2061:2138   */\n      0x4e487b7100000000000000000000000000000000000000000000000000000000\n        /* \"#utility.yul\":2058:2059   */\n      0x00\n        /* \"#utility.yul\":2051:2139   */\n      mstore\n        /* \"#utility.yul\":2158:2162   */\n      0x21\n        /* \"#utility.yul\":2155:2156   */\n      0x04\n        /* \"#utility.yul\":2148:2163   */\n      mstore\n        /* \"#utility.yul\":2182:2186   */\n      0x24\n        /* \"#utility.yul\":2179:2180   */\n      0x00\n        /* \"#utility.yul\":2172:2187   */\n      revert\n        /* \"#utility.yul\":2199:2319   */\n    tag_484:\n        /* \"#utility.yul\":2287:2288   */\n      0x05\n        /* \"#utility.yul\":2280:2285   */\n      dup2\n        /* \"#utility.yul\":2277:2289   */\n      lt\n        /* \"#utility.yul\":2267:2313   */\n      tag_615\n      jumpi\n        /* \"#utility.yul\":2293:2311   */\n      tag_616\n      tag_175\n      jump\t// in\n    tag_616:\n        /* \"#utility.yul\":2267:2313   */\n    tag_615:\n        /* \"#utility.yul\":2199:2319   */\n      pop\n      jump\t// out\n        /* \"#utility.yul\":2325:2466   */\n    tag_485:\n        /* \"#utility.yul\":2377:2384   */\n      0x00\n        /* \"#utility.yul\":2406:2411   */\n      dup2\n        /* \"#utility.yul\":2395:2411   */\n      swap1\n      pop\n        /* \"#utility.yul\":2412:2460   */\n      tag_618\n        /* \"#utility.yul\":2454:2459   */\n      dup3\n        /* \"#utility.yul\":2412:2460   */\n      tag_484\n      jump\t// in\n    tag_618:\n        /* \"#utility.yul\":2325:2466   */\n      swap2\n      swap1\n      pop\n      jump\t// out\n        /* \"#utility.yul\":2472:2613   */\n    tag_486:\n        /* \"#utility.yul\":2535:2544   */\n      0x00\n        /* \"#utility.yul\":2568:2607   */\n      tag_620\n        /* \"#utility.yul\":2601:2606   */\n      dup3\n        /* \"#utility.yul\":2568:2607   */\n      tag_485\n      jump\t// in\n    tag_620:\n        /* \"#utility.yul\":2555:2607   */\n      swap1\n      pop\n        /* \"#utility.yul\":2472:2613   */\n      swap2\n      swap1\n      pop\n      jump\t// out\n        /* \"#utility.yul\":2619:2766   */\n    tag_487:\n        /* \"#utility.yul\":2709:2759   */\n      tag_622\n        /* \"#utility.yul\":2753:2758   */\n      dup2\n        /* \"#utility.yul\":2709:2759   */\n      tag_486\n      jump\t// in\n    tag_622:\n        /* \"#utility.yul\":2704:2707   */\n      dup3\n        /* \"#utility.yul\":2697:2760   */\n      mstore\n        /* \"#utility.yul\":2619:2766   */\n      pop\n      pop\n      jump\t// out\n        /* \"#utility.yul\":2842:3539   */\n    tag_488:\n        /* \"#utility.yul\":2981:2985   */\n      0x60\n        /* \"#utility.yul\":2976:2979   */\n      dup3\n        /* \"#utility.yul\":2972:2986   */\n      add\n        /* \"#utility.yul\":3072:3076   */\n      0x00\n        /* \"#utility.yul\":3065:3070   */\n      dup3\n        /* \"#utility.yul\":3061:3077   */\n      add\n        /* \"#utility.yul\":3055:3078   */\n      mload\n        /* \"#utility.yul\":3091:3154   */\n      tag_624\n        /* \"#utility.yul\":3148:3152   */\n      0x00\n        /* \"#utility.yul\":3143:3146   */\n      dup6\n        /* \"#utility.yul\":3139:3153   */\n      add\n        /* \"#utility.yul\":3125:3137   */\n      dup3\n        /* \"#utility.yul\":3091:3154   */\n      tag_482\n      jump\t// in\n    tag_624:\n        /* \"#utility.yul\":2996:3164   */\n      pop\n        /* \"#utility.yul\":3251:3255   */\n      0x20\n        /* \"#utility.yul\":3244:3249   */\n      dup3\n        /* \"#utility.yul\":3240:3256   */\n      add\n        /* \"#utility.yul\":3234:3257   */\n      mload\n        /* \"#utility.yul\":3270:3333   */\n      tag_625\n        /* \"#utility.yul\":3327:3331   */\n      0x20\n        /* \"#utility.yul\":3322:3325   */\n      dup6\n        /* \"#utility.yul\":3318:3332   */\n      add\n        /* \"#utility.yul\":3304:3316   */\n      dup3\n        /* \"#utility.yul\":3270:3333   */\n      tag_483\n      jump\t// in\n    tag_625:\n        /* \"#utility.yul\":3174:3343   */\n      pop\n        /* \"#utility.yul\":3427:3431   */\n      0x40\n        /* \"#utility.yul\":3420:3425   */\n      dup3\n        /* \"#utility.yul\":3416:3432   */\n      add\n        /* \"#utility.yul\":3410:3433   */\n      mload\n        /* \"#utility.yul\":3446:3522   */\n      tag_626\n        /* \"#utility.yul\":3516:3520   */\n      0x40\n        /* \"#utility.yul\":3511:3514   */\n      dup6\n        /* \"#utility.yul\":3507:3521   */\n      add\n        /* \"#utility.yul\":3493:3505   */\n      dup3\n        /* \"#utility.yul\":3446:3522   */\n      tag_487\n      jump\t// in\n    tag_626:\n        /* \"#utility.yul\":3353:3532   */\n      pop\n        /* \"#utility.yul\":2950:3539   */\n      pop\n        /* \"#utility.yul\":2842:3539   */\n      pop\n      pop\n      jump\t// out\n        /* \"#utility.yul\":3545:3828   */\n    tag_489:\n        /* \"#utility.yul\":3666:3676   */\n      0x00\n        /* \"#utility.yul\":3687:3785   */\n      tag_628\n        /* \"#utility.yul\":3781:3784   */\n      dup4\n        /* \"#utility.yul\":3773:3779   */\n      dup4\n        /* \"#utility.yul\":3687:3785   */\n      tag_488\n      jump\t// in\n    tag_628:\n        /* \"#utility.yul\":3817:3821   */\n      0x60\n        /* \"#utility.yul\":3812:3815   */\n      dup4\n        /* \"#utility.yul\":3808:3822   */\n      add\n        /* \"#utility.yul\":3794:3822   */\n      swap1\n      pop\n        /* \"#utility.yul\":3545:3828   */\n      swap3\n      swap2\n      pop\n      pop\n      jump\t// out\n        /* \"#utility.yul\":3834:3973   */\n    tag_490:\n        /* \"#utility.yul\":3930:3934   */\n      0x00\n        /* \"#utility.yul\":3962:3966   */\n      0x20\n        /* \"#utility.yul\":3957:3960   */\n      dup3\n        /* \"#utility.yul\":3953:3967   */\n      add\n        /* \"#utility.yul\":3945:3967   */\n      swap1\n      pop\n        /* \"#utility.yul\":3834:3973   */\n      swap2\n      swap1\n      pop\n      jump\t// out\n        /* \"#utility.yul\":4053:4993   */\n    tag_491:\n        /* \"#utility.yul\":4224:4227   */\n      0x00\n        /* \"#utility.yul\":4253:4333   */\n      tag_631\n        /* \"#utility.yul\":4327:4332   */\n      dup3\n        /* \"#utility.yul\":4253:4333   */\n      tag_477\n      jump\t// in\n    tag_631:\n        /* \"#utility.yul\":4349:4461   */\n      tag_632\n        /* \"#utility.yul\":4454:4460   */\n      dup2\n        /* \"#utility.yul\":4449:4452   */\n      dup6\n        /* \"#utility.yul\":4349:4461   */\n      tag_478\n      jump\t// in\n    tag_632:\n        /* \"#utility.yul\":4342:4461   */\n      swap4\n      pop\n        /* \"#utility.yul\":4485:4567   */\n      tag_633\n        /* \"#utility.yul\":4561:4566   */\n      dup4\n        /* \"#utility.yul\":4485:4567   */\n      tag_479\n      jump\t// in\n    tag_633:\n        /* \"#utility.yul\":4590:4597   */\n      dup1\n        /* \"#utility.yul\":4621:4622   */\n      0x00\n        /* \"#utility.yul\":4606:4968   */\n    tag_634:\n        /* \"#utility.yul\":4631:4637   */\n      dup4\n        /* \"#utility.yul\":4628:4629   */\n      dup2\n        /* \"#utility.yul\":4625:4638   */\n      lt\n        /* \"#utility.yul\":4606:4968   */\n      iszero\n      tag_636\n      jumpi\n        /* \"#utility.yul\":4707:4713   */\n      dup2\n        /* \"#utility.yul\":4701:4714   */\n      mload\n        /* \"#utility.yul\":4734:4849   */\n      tag_637\n        /* \"#utility.yul\":4845:4848   */\n      dup9\n        /* \"#utility.yul\":4830:4843   */\n      dup3\n        /* \"#utility.yul\":4734:4849   */\n      tag_489\n      jump\t// in\n    tag_637:\n        /* \"#utility.yul\":4727:4849   */\n      swap8\n      pop\n        /* \"#utility.yul\":4872:4958   */\n      tag_638\n        /* \"#utility.yul\":4951:4957   */\n      dup4\n        /* \"#utility.yul\":4872:4958   */\n      tag_490\n      jump\t// in\n    tag_638:\n        /* \"#utility.yul\":4862:4958   */\n      swap3\n      pop\n        /* \"#utility.yul\":4666:4968   */\n      pop\n        /* \"#utility.yul\":4653:4654   */\n      0x01\n        /* \"#utility.yul\":4650:4651   */\n      dup2\n        /* \"#utility.yul\":4646:4655   */\n      add\n        /* \"#utility.yul\":4641:4655   */\n      swap1\n      pop\n        /* \"#utility.yul\":4606:4968   */\n      jump(tag_634)\n    tag_636:\n        /* \"#utility.yul\":4610:4624   */\n      pop\n        /* \"#utility.yul\":4984:4987   */\n      dup6\n        /* \"#utility.yul\":4977:4987   */\n      swap4\n      pop\n        /* \"#utility.yul\":4229:4993   */\n      pop\n      pop\n      pop\n        /* \"#utility.yul\":4053:4993   */\n      swap3\n      swap2\n      pop\n      pop\n      jump\t// out\n        /* \"#utility.yul\":4999:5476   */\n    tag_44:\n        /* \"#utility.yul\":5194:5198   */\n      0x00\n        /* \"#utility.yul\":5232:5234   */\n      0x20\n        /* \"#utility.yul\":5221:5230   */\n      dup3\n        /* \"#utility.yul\":5217:5235   */\n      add\n        /* \"#utility.yul\":5209:5235   */\n      swap1\n      pop\n        /* \"#utility.yul\":5281:5290   */\n      dup2\n        /* \"#utility.yul\":5275:5279   */\n      dup2\n        /* \"#utility.yul\":5271:5291   */\n      sub\n        /* \"#utility.yul\":5267:5268   */\n      0x00\n        /* \"#utility.yul\":5256:5265   */\n      dup4\n        /* \"#utility.yul\":5252:5269   */\n      add\n        /* \"#utility.yul\":5245:5292   */\n      mstore\n        /* \"#utility.yul\":5309:5469   */\n      tag_640\n        /* \"#utility.yul\":5464:5468   */\n      dup2\n        /* \"#utility.yul\":5455:5461   */\n      dup5\n        /* \"#utility.yul\":5309:5469   */\n      tag_491\n      jump\t// in\n    tag_640:\n        /* \"#utility.yul\":5301:5469   */\n      swap1\n      pop\n        /* \"#utility.yul\":4999:5476   */\n      swap3\n      swap2\n      pop\n      pop\n      jump\t// out\n        /* \"#utility.yul\":5482:5631   */\n    tag_492:\n        /* \"#utility.yul\":5518:5525   */\n      0x00\n        /* \"#utility.yul\":5558:5624   */\n      0xffffffff00000000000000000000000000000000000000000000000000000000\n        /* \"#utility.yul\":5551:5556   */\n      dup3\n        /* \"#utility.yul\":5547:5625   */\n      and\n        /* \"#utility.yul\":5536:5625   */\n      swap1\n      pop\n        /* \"#utility.yul\":5482:5631   */\n      swap2\n      swap1\n      pop\n      jump\t// out\n        /* \"#utility.yul\":5637:5757   */\n    tag_493:\n        /* \"#utility.yul\":5709:5732   */\n      tag_643\n        /* \"#utility.yul\":5726:5731   */\n      dup2\n        /* \"#utility.yul\":5709:5732   */\n      tag_492\n      jump\t// in\n    tag_643:\n        /* \"#utility.yul\":5702:5707   */\n      dup2\n        /* \"#utility.yul\":5699:5733   */\n      eq\n        /* \"#utility.yul\":5689:5751   */\n      tag_644\n      jumpi\n        /* \"#utility.yul\":5747:5748   */\n      0x00\n        /* \"#utility.yul\":5744:5745   */\n      dup1\n        /* \"#utility.yul\":5737:5749   */\n      revert\n        /* \"#utility.yul\":5689:5751   */\n    tag_644:\n        /* \"#utility.yul\":5637:5757   */\n      pop\n      jump\t// out\n        /* \"#utility.yul\":5763:5900   */\n    tag_494:\n        /* \"#utility.yul\":5808:5813   */\n      0x00\n        /* \"#utility.yul\":5846:5852   */\n      dup2\n        /* \"#utility.yul\":5833:5853   */\n      calldataload\n        /* \"#utility.yul\":5824:5853   */\n      swap1\n      pop\n        /* \"#utility.yul\":5862:5894   */\n      tag_646\n        /* \"#utility.yul\":5888:5893   */\n      dup2\n        /* \"#utility.yul\":5862:5894   */\n      tag_493\n      jump\t// in\n    tag_646:\n        /* \"#utility.yul\":5763:5900   */\n      swap3\n      swap2\n      pop\n      pop\n      jump\t// out\n        /* \"#utility.yul\":5906:6233   */\n    tag_47:\n        /* \"#utility.yul\":5964:5970   */\n      0x00\n        /* \"#utility.yul\":6013:6015   */\n      0x20\n        /* \"#utility.yul\":6001:6010   */\n      dup3\n        /* \"#utility.yul\":5992:5999   */\n      dup5\n        /* \"#utility.yul\":5988:6011   */\n      sub\n        /* \"#utility.yul\":5984:6016   */\n      slt\n        /* \"#utility.yul\":5981:6100   */\n      iszero\n      tag_648\n      jumpi\n        /* \"#utility.yul\":6019:6098   */\n      tag_649\n      tag_472\n      jump\t// in\n    tag_649:\n        /* \"#utility.yul\":5981:6100   */\n    tag_648:\n        /* \"#utility.yul\":6139:6140   */\n      0x00\n        /* \"#utility.yul\":6164:6216   */\n      tag_650\n        /* \"#utility.yul\":6208:6215   */\n      dup5\n        /* \"#utility.yul\":6199:6205   */\n      dup3\n        /* \"#utility.yul\":6188:6197   */\n      dup6\n        /* \"#utility.yul\":6184:6206   */\n      add\n        /* \"#utility.yul\":6164:6216   */\n      tag_494\n      jump\t// in\n    tag_650:\n        /* \"#utility.yul\":6154:6216   */\n      swap2\n      pop\n        /* \"#utility.yul\":6110:6226   */\n      pop\n        /* \"#utility.yul\":5906:6233   */\n      swap3\n      swap2\n      pop\n      pop\n      jump\t// out\n        /* \"#utility.yul\":6239:6329   */\n    tag_495:\n        /* \"#utility.yul\":6273:6280   */\n      0x00\n        /* \"#utility.yul\":6316:6321   */\n      dup2\n        /* \"#utility.yul\":6309:6322   */\n      iszero\n        /* \"#utility.yul\":6302:6323   */\n      iszero\n        /* \"#utility.yul\":6291:6323   */\n      swap1\n      pop\n        /* \"#utility.yul\":6239:6329   */\n      swap2\n      swap1\n      pop\n      jump\t// out\n        /* \"#utility.yul\":6335:6444   */\n    tag_496:\n        /* \"#utility.yul\":6416:6437   */\n      tag_653\n        /* \"#utility.yul\":6431:6436   */\n      dup2\n        /* \"#utility.yul\":6416:6437   */\n      tag_495\n      jump\t// in\n    tag_653:\n        /* \"#utility.yul\":6411:6414   */\n      dup3\n        /* \"#utility.yul\":6404:6438   */\n      mstore\n        /* \"#utility.yul\":6335:6444   */\n      pop\n      pop\n      jump\t// out\n        /* \"#utility.yul\":6450:6660   */\n    tag_50:\n        /* \"#utility.yul\":6537:6541   */\n      0x00\n        /* \"#utility.yul\":6575:6577   */\n      0x20\n        /* \"#utility.yul\":6564:6573   */\n      dup3\n        /* \"#utility.yul\":6560:6578   */\n      add\n        /* \"#utility.yul\":6552:6578   */\n      swap1\n      pop\n        /* \"#utility.yul\":6588:6653   */\n      tag_655\n        /* \"#utility.yul\":6650:6651   */\n      0x00\n        /* \"#utility.yul\":6639:6648   */\n      dup4\n        /* \"#utility.yul\":6635:6652   */\n      add\n        /* \"#utility.yul\":6626:6632   */\n      dup5\n        /* \"#utility.yul\":6588:6653   */\n      tag_496\n      jump\t// in\n    tag_655:\n        /* \"#utility.yul\":6450:6660   */\n      swap3\n      swap2\n      pop\n      pop\n      jump\t// out\n        /* \"#utility.yul\":6666:6765   */\n    tag_497:\n        /* \"#utility.yul\":6718:6724   */\n      0x00\n        /* \"#utility.yul\":6752:6757   */\n      dup2\n        /* \"#utility.yul\":6746:6758   */\n      mload\n        /* \"#utility.yul\":6736:6758   */\n      swap1\n      pop\n        /* \"#utility.yul\":6666:6765   */\n      swap2\n      swap1\n      pop\n      jump\t// out\n        /* \"#utility.yul\":6771:6930   */\n    tag_498:\n        /* \"#utility.yul\":6845:6856   */\n      0x00\n        /* \"#utility.yul\":6879:6885   */\n      dup3\n        /* \"#utility.yul\":6874:6877   */\n      dup3\n        /* \"#utility.yul\":6867:6886   */\n      mstore\n        /* \"#utility.yul\":6919:6923   */\n      0x20\n        /* \"#utility.yul\":6914:6917   */\n      dup3\n        /* \"#utility.yul\":6910:6924   */\n      add\n        /* \"#utility.yul\":6895:6924   */\n      swap1\n      pop\n        /* \"#utility.yul\":6771:6930   */\n      swap3\n      swap2\n      pop\n      pop\n      jump\t// out\n        /* \"#utility.yul\":6936:7184   */\n    tag_499:\n        /* \"#utility.yul\":7018:7019   */\n      0x00\n        /* \"#utility.yul\":7028:7141   */\n    tag_659:\n        /* \"#utility.yul\":7042:7048   */\n      dup4\n        /* \"#utility.yul\":7039:7040   */\n      dup2\n        /* \"#utility.yul\":7036:7049   */\n      lt\n        /* \"#utility.yul\":7028:7141   */\n      iszero\n      tag_661\n      jumpi\n        /* \"#utility.yul\":7127:7128   */\n      dup1\n        /* \"#utility.yul\":7122:7125   */\n      dup3\n        /* \"#utility.yul\":7118:7129   */\n      add\n        /* \"#utility.yul\":7112:7130   */\n      mload\n        /* \"#utility.yul\":7108:7109   */\n      dup2\n        /* \"#utility.yul\":7103:7106   */\n      dup5\n        /* \"#utility.yul\":7099:7110   */\n      add\n        /* \"#utility.yul\":7092:7131   */\n      mstore\n        /* \"#utility.yul\":7064:7066   */\n      0x20\n        /* \"#utility.yul\":7061:7062   */\n      dup2\n        /* \"#utility.yul\":7057:7067   */\n      add\n        /* \"#utility.yul\":7052:7067   */\n      swap1\n      pop\n        /* \"#utility.yul\":7028:7141   */\n      jump(tag_659)\n    tag_661:\n        /* \"#utility.yul\":7175:7176   */\n      0x00\n        /* \"#utility.yul\":7166:7172   */\n      dup5\n        /* \"#utility.yul\":7161:7164   */\n      dup5\n        /* \"#utility.yul\":7157:7173   */\n      add\n        /* \"#utility.yul\":7150:7177   */\n      mstore\n        /* \"#utility.yul\":6998:7184   */\n      pop\n        /* \"#utility.yul\":6936:7184   */\n      pop\n      pop\n      pop\n      jump\t// out\n        /* \"#utility.yul\":7190:7292   */\n    tag_500:\n        /* \"#utility.yul\":7231:7237   */\n      0x00\n        /* \"#utility.yul\":7282:7284   */\n      0x1f\n        /* \"#utility.yul\":7278:7285   */\n      not\n        /* \"#utility.yul\":7273:7275   */\n      0x1f\n        /* \"#utility.yul\":7266:7271   */\n      dup4\n        /* \"#utility.yul\":7262:7276   */\n      add\n        /* \"#utility.yul\":7258:7286   */\n      and\n        /* \"#utility.yul\":7248:7286   */\n      swap1\n      pop\n        /* \"#utility.yul\":7190:7292   */\n      swap2\n      swap1\n      pop\n      jump\t// out\n        /* \"#utility.yul\":7298:7655   */\n    tag_501:\n        /* \"#utility.yul\":7376:7379   */\n      0x00\n        /* \"#utility.yul\":7404:7443   */\n      tag_664\n        /* \"#utility.yul\":7437:7442   */\n      dup3\n        /* \"#utility.yul\":7404:7443   */\n      tag_497\n      jump\t// in\n    tag_664:\n        /* \"#utility.yul\":7459:7520   */\n      tag_665\n        /* \"#utility.yul\":7513:7519   */\n      dup2\n        /* \"#utility.yul\":7508:7511   */\n      dup6\n        /* \"#utility.yul\":7459:7520   */\n      tag_498\n      jump\t// in\n    tag_665:\n        /* \"#utility.yul\":7452:7520   */\n      swap4\n      pop\n        /* \"#utility.yul\":7529:7594   */\n      tag_666\n        /* \"#utility.yul\":7587:7593   */\n      dup2\n        /* \"#utility.yul\":7582:7585   */\n      dup6\n        /* \"#utility.yul\":7575:7579   */\n      0x20\n        /* \"#utility.yul\":7568:7573   */\n      dup7\n        /* \"#utility.yul\":7564:7580   */\n      add\n        /* \"#utility.yul\":7529:7594   */\n      tag_499\n      jump\t// in\n    tag_666:\n        /* \"#utility.yul\":7619:7648   */\n      tag_667\n        /* \"#utility.yul\":7641:7647   */\n      dup2\n        /* \"#utility.yul\":7619:7648   */\n      tag_500\n      jump\t// in\n    tag_667:\n        /* \"#utility.yul\":7614:7617   */\n      dup5\n        /* \"#utility.yul\":7610:7649   */\n      add\n        /* \"#utility.yul\":7603:7649   */\n      swap2\n      pop\n        /* \"#utility.yul\":7380:7655   */\n      pop\n        /* \"#utility.yul\":7298:7655   */\n      swap3\n      swap2\n      pop\n      pop\n      jump\t// out\n        /* \"#utility.yul\":7661:7780   */\n    tag_502:\n        /* \"#utility.yul\":7748:7749   */\n      0x06\n        /* \"#utility.yul\":7741:7746   */\n      dup2\n        /* \"#utility.yul\":7738:7750   */\n      lt\n        /* \"#utility.yul\":7728:7774   */\n      tag_669\n      jumpi\n        /* \"#utility.yul\":7754:7772   */\n      tag_670\n      tag_175\n      jump\t// in\n    tag_670:\n        /* \"#utility.yul\":7728:7774   */\n    tag_669:\n        /* \"#utility.yul\":7661:7780   */\n      pop\n      jump\t// out\n        /* \"#utility.yul\":7786:7925   */\n    tag_503:\n        /* \"#utility.yul\":7837:7844   */\n      0x00\n        /* \"#utility.yul\":7866:7871   */\n      dup2\n        /* \"#utility.yul\":7855:7871   */\n      swap1\n      pop\n        /* \"#utility.yul\":7872:7919   */\n      tag_672\n        /* \"#utility.yul\":7913:7918   */\n      dup3\n        /* \"#utility.yul\":7872:7919   */\n      tag_502\n      jump\t// in\n    tag_672:\n        /* \"#utility.yul\":7786:7925   */\n      swap2\n      swap1\n      pop\n      jump\t// out\n        /* \"#utility.yul\":7931:8070   */\n    tag_504:\n        /* \"#utility.yul\":7993:8002   */\n      0x00\n        /* \"#utility.yul\":8026:8064   */\n      tag_674\n        /* \"#utility.yul\":8058:8063   */\n      dup3\n        /* \"#utility.yul\":8026:8064   */\n      tag_503\n      jump\t// in\n    tag_674:\n        /* \"#utility.yul\":8013:8064   */\n      swap1\n      pop\n        /* \"#utility.yul\":7931:8070   */\n      swap2\n      swap1\n      pop\n      jump\t// out\n        /* \"#utility.yul\":8076:8221   */\n    tag_505:\n        /* \"#utility.yul\":8165:8214   */\n      tag_676\n        /* \"#utility.yul\":8208:8213   */\n      dup2\n        /* \"#utility.yul\":8165:8214   */\n      tag_504\n      jump\t// in\n    tag_676:\n        /* \"#utility.yul\":8160:8163   */\n      dup3\n        /* \"#utility.yul\":8153:8215   */\n      mstore\n        /* \"#utility.yul\":8076:8221   */\n      pop\n      pop\n      jump\t// out\n        /* \"#utility.yul\":8227:8326   */\n    tag_506:\n        /* \"#utility.yul\":8298:8319   */\n      tag_678\n        /* \"#utility.yul\":8313:8318   */\n      dup2\n        /* \"#utility.yul\":8298:8319   */\n      tag_495\n      jump\t// in\n    tag_678:\n        /* \"#utility.yul\":8293:8296   */\n      dup3\n        /* \"#utility.yul\":8286:8320   */\n      mstore\n        /* \"#utility.yul\":8227:8326   */\n      pop\n      pop\n      jump\t// out\n        /* \"#utility.yul\":8408:10371   */\n    tag_507:\n        /* \"#utility.yul\":8535:8538   */\n      0x00\n        /* \"#utility.yul\":8571:8577   */\n      0x0120\n        /* \"#utility.yul\":8566:8569   */\n      dup4\n        /* \"#utility.yul\":8562:8578   */\n      add\n        /* \"#utility.yul\":8664:8668   */\n      0x00\n        /* \"#utility.yul\":8657:8662   */\n      dup4\n        /* \"#utility.yul\":8653:8669   */\n      add\n        /* \"#utility.yul\":8647:8670   */\n      mload\n        /* \"#utility.yul\":8683:8746   */\n      tag_680\n        /* \"#utility.yul\":8740:8744   */\n      0x00\n        /* \"#utility.yul\":8735:8738   */\n      dup7\n        /* \"#utility.yul\":8731:8745   */\n      add\n        /* \"#utility.yul\":8717:8729   */\n      dup3\n        /* \"#utility.yul\":8683:8746   */\n      tag_483\n      jump\t// in\n    tag_680:\n        /* \"#utility.yul\":8588:8756   */\n      pop\n        /* \"#utility.yul\":8848:8852   */\n      0x20\n        /* \"#utility.yul\":8841:8846   */\n      dup4\n        /* \"#utility.yul\":8837:8853   */\n      add\n        /* \"#utility.yul\":8831:8854   */\n      mload\n        /* \"#utility.yul\":8867:8930   */\n      tag_681\n        /* \"#utility.yul\":8924:8928   */\n      0x20\n        /* \"#utility.yul\":8919:8922   */\n      dup7\n        /* \"#utility.yul\":8915:8929   */\n      add\n        /* \"#utility.yul\":8901:8913   */\n      dup3\n        /* \"#utility.yul\":8867:8930   */\n      tag_482\n      jump\t// in\n    tag_681:\n        /* \"#utility.yul\":8766:8940   */\n      pop\n        /* \"#utility.yul\":9026:9030   */\n      0x40\n        /* \"#utility.yul\":9019:9024   */\n      dup4\n        /* \"#utility.yul\":9015:9031   */\n      add\n        /* \"#utility.yul\":9009:9032   */\n      mload\n        /* \"#utility.yul\":9079:9082   */\n      dup5\n        /* \"#utility.yul\":9073:9077   */\n      dup3\n        /* \"#utility.yul\":9069:9083   */\n      sub\n        /* \"#utility.yul\":9062:9066   */\n      0x40\n        /* \"#utility.yul\":9057:9060   */\n      dup7\n        /* \"#utility.yul\":9053:9067   */\n      add\n        /* \"#utility.yul\":9046:9084   */\n      mstore\n        /* \"#utility.yul\":9105:9178   */\n      tag_682\n        /* \"#utility.yul\":9173:9177   */\n      dup3\n        /* \"#utility.yul\":9159:9171   */\n      dup3\n        /* \"#utility.yul\":9105:9178   */\n      tag_501\n      jump\t// in\n    tag_682:\n        /* \"#utility.yul\":9097:9178   */\n      swap2\n      pop\n        /* \"#utility.yul\":8950:9189   */\n      pop\n        /* \"#utility.yul\":9277:9281   */\n      0x60\n        /* \"#utility.yul\":9270:9275   */\n      dup4\n        /* \"#utility.yul\":9266:9282   */\n      add\n        /* \"#utility.yul\":9260:9283   */\n      mload\n        /* \"#utility.yul\":9296:9371   */\n      tag_683\n        /* \"#utility.yul\":9365:9369   */\n      0x60\n        /* \"#utility.yul\":9360:9363   */\n      dup7\n        /* \"#utility.yul\":9356:9370   */\n      add\n        /* \"#utility.yul\":9342:9354   */\n      dup3\n        /* \"#utility.yul\":9296:9371   */\n      tag_505\n      jump\t// in\n    tag_683:\n        /* \"#utility.yul\":9199:9381   */\n      pop\n        /* \"#utility.yul\":9468:9472   */\n      0x80\n        /* \"#utility.yul\":9461:9466   */\n      dup4\n        /* \"#utility.yul\":9457:9473   */\n      add\n        /* \"#utility.yul\":9451:9474   */\n      mload\n        /* \"#utility.yul\":9487:9550   */\n      tag_684\n        /* \"#utility.yul\":9544:9548   */\n      0x80\n        /* \"#utility.yul\":9539:9542   */\n      dup7\n        /* \"#utility.yul\":9535:9549   */\n      add\n        /* \"#utility.yul\":9521:9533   */\n      dup3\n        /* \"#utility.yul\":9487:9550   */\n      tag_483\n      jump\t// in\n    tag_684:\n        /* \"#utility.yul\":9391:9560   */\n      pop\n        /* \"#utility.yul\":9646:9650   */\n      0xa0\n        /* \"#utility.yul\":9639:9644   */\n      dup4\n        /* \"#utility.yul\":9635:9651   */\n      add\n        /* \"#utility.yul\":9629:9652   */\n      mload\n        /* \"#utility.yul\":9665:9728   */\n      tag_685\n        /* \"#utility.yul\":9722:9726   */\n      0xa0\n        /* \"#utility.yul\":9717:9720   */\n      dup7\n        /* \"#utility.yul\":9713:9727   */\n      add\n        /* \"#utility.yul\":9699:9711   */\n      dup3\n        /* \"#utility.yul\":9665:9728   */\n      tag_482\n      jump\t// in\n    tag_685:\n        /* \"#utility.yul\":9570:9738   */\n      pop\n        /* \"#utility.yul\":9824:9828   */\n      0xc0\n        /* \"#utility.yul\":9817:9822   */\n      dup4\n        /* \"#utility.yul\":9813:9829   */\n      add\n        /* \"#utility.yul\":9807:9830   */\n      mload\n        /* \"#utility.yul\":9843:9900   */\n      tag_686\n        /* \"#utility.yul\":9894:9898   */\n      0xc0\n        /* \"#utility.yul\":9889:9892   */\n      dup7\n        /* \"#utility.yul\":9885:9899   */\n      add\n        /* \"#utility.yul\":9871:9883   */\n      dup3\n        /* \"#utility.yul\":9843:9900   */\n      tag_506\n      jump\t// in\n    tag_686:\n        /* \"#utility.yul\":9748:9910   */\n      pop\n        /* \"#utility.yul\":10000:10004   */\n      0xe0\n        /* \"#utility.yul\":9993:9998   */\n      dup4\n        /* \"#utility.yul\":9989:10005   */\n      add\n        /* \"#utility.yul\":9983:10006   */\n      mload\n        /* \"#utility.yul\":10053:10056   */\n      dup5\n        /* \"#utility.yul\":10047:10051   */\n      dup3\n        /* \"#utility.yul\":10043:10057   */\n      sub\n        /* \"#utility.yul\":10036:10040   */\n      0xe0\n        /* \"#utility.yul\":10031:10034   */\n      dup7\n        /* \"#utility.yul\":10027:10041   */\n      add\n        /* \"#utility.yul\":10020:10058   */\n      mstore\n        /* \"#utility.yul\":10079:10152   */\n      tag_687\n        /* \"#utility.yul\":10147:10151   */\n      dup3\n        /* \"#utility.yul\":10133:10145   */\n      dup3\n        /* \"#utility.yul\":10079:10152   */\n      tag_501\n      jump\t// in\n    tag_687:\n        /* \"#utility.yul\":10071:10152   */\n      swap2\n      pop\n        /* \"#utility.yul\":9920:10163   */\n      pop\n        /* \"#utility.yul\":10248:10254   */\n      0x0100\n        /* \"#utility.yul\":10241:10246   */\n      dup4\n        /* \"#utility.yul\":10237:10255   */\n      add\n        /* \"#utility.yul\":10231:10256   */\n      mload\n        /* \"#utility.yul\":10269:10334   */\n      tag_688\n        /* \"#utility.yul\":10326:10332   */\n      0x0100\n        /* \"#utility.yul\":10321:10324   */\n      dup7\n        /* \"#utility.yul\":10317:10333   */\n      add\n        /* \"#utility.yul\":10303:10315   */\n      dup3\n        /* \"#utility.yul\":10269:10334   */\n      tag_483\n      jump\t// in\n    tag_688:\n        /* \"#utility.yul\":10173:10344   */\n      pop\n        /* \"#utility.yul\":10361:10365   */\n      dup1\n        /* \"#utility.yul\":10354:10365   */\n      swap2\n      pop\n        /* \"#utility.yul\":8540:10371   */\n      pop\n        /* \"#utility.yul\":8408:10371   */\n      swap3\n      swap2\n      pop\n      pop\n      jump\t// out\n        /* \"#utility.yul\":10377:10766   */\n    tag_55:\n        /* \"#utility.yul\":10528:10532   */\n      0x00\n        /* \"#utility.yul\":10566:10568   */\n      0x20\n        /* \"#utility.yul\":10555:10564   */\n      dup3\n        /* \"#utility.yul\":10551:10569   */\n      add\n        /* \"#utility.yul\":10543:10569   */\n      swap1\n      pop\n        /* \"#utility.yul\":10615:10624   */\n      dup2\n        /* \"#utility.yul\":10609:10613   */\n      dup2\n        /* \"#utility.yul\":10605:10625   */\n      sub\n        /* \"#utility.yul\":10601:10602   */\n      0x00\n        /* \"#utility.yul\":10590:10599   */\n      dup4\n        /* \"#utility.yul\":10586:10603   */\n      add\n        /* \"#utility.yul\":10579:10626   */\n      mstore\n        /* \"#utility.yul\":10643:10759   */\n      tag_690\n        /* \"#utility.yul\":10754:10758   */\n      dup2\n        /* \"#utility.yul\":10745:10751   */\n      dup5\n        /* \"#utility.yul\":10643:10759   */\n      tag_507\n      jump\t// in\n    tag_690:\n        /* \"#utility.yul\":10635:10759   */\n      swap1\n      pop\n        /* \"#utility.yul\":10377:10766   */\n      swap3\n      swap2\n      pop\n      pop\n      jump\t// out\n        /* \"#utility.yul\":10772:10890   */\n    tag_508:\n        /* \"#utility.yul\":10859:10883   */\n      tag_692\n        /* \"#utility.yul\":10877:10882   */\n      dup2\n        /* \"#utility.yul\":10859:10883   */\n      tag_474\n      jump\t// in\n    tag_692:\n        /* \"#utility.yul\":10854:10857   */\n      dup3\n        /* \"#utility.yul\":10847:10884   */\n      mstore\n        /* \"#utility.yul\":10772:10890   */\n      pop\n      pop\n      jump\t// out\n        /* \"#utility.yul\":10896:11118   */\n    tag_62:\n        /* \"#utility.yul\":10989:10993   */\n      0x00\n        /* \"#utility.yul\":11027:11029   */\n      0x20\n        /* \"#utility.yul\":11016:11025   */\n      dup3\n        /* \"#utility.yul\":11012:11030   */\n      add\n        /* \"#utility.yul\":11004:11030   */\n      swap1\n      pop\n        /* \"#utility.yul\":11040:11111   */\n      tag_694\n        /* \"#utility.yul\":11108:11109   */\n      0x00\n        /* \"#utility.yul\":11097:11106   */\n      dup4\n        /* \"#utility.yul\":11093:11110   */\n      add\n        /* \"#utility.yul\":11084:11090   */\n      dup5\n        /* \"#utility.yul\":11040:11111   */\n      tag_508\n      jump\t// in\n    tag_694:\n        /* \"#utility.yul\":10896:11118   */\n      swap3\n      swap2\n      pop\n      pop\n      jump\t// out\n        /* \"#utility.yul\":11124:11246   */\n    tag_509:\n        /* \"#utility.yul\":11197:11221   */\n      tag_696\n        /* \"#utility.yul\":11215:11220   */\n      dup2\n        /* \"#utility.yul\":11197:11221   */\n      tag_481\n      jump\t// in\n    tag_696:\n        /* \"#utility.yul\":11190:11195   */\n      dup2\n        /* \"#utility.yul\":11187:11222   */\n      eq\n        /* \"#utility.yul\":11177:11240   */\n      tag_697\n      jumpi\n        /* \"#utility.yul\":11236:11237   */\n      0x00\n        /* \"#utility.yul\":11233:11234   */\n      dup1\n        /* \"#utility.yul\":11226:11238   */\n      revert\n        /* \"#utility.yul\":11177:11240   */\n    tag_697:\n        /* \"#utility.yul\":11124:11246   */\n      pop\n      jump\t// out\n        /* \"#utility.yul\":11252:11391   */\n    tag_510:\n        /* \"#utility.yul\":11298:11303   */\n      0x00\n        /* \"#utility.yul\":11336:11342   */\n      dup2\n        /* \"#utility.yul\":11323:11343   */\n      calldataload\n        /* \"#utility.yul\":11314:11343   */\n      swap1\n      pop\n        /* \"#utility.yul\":11352:11385   */\n      tag_699\n        /* \"#utility.yul\":11379:11384   */\n      dup2\n        /* \"#utility.yul\":11352:11385   */\n      tag_509\n      jump\t// in\n    tag_699:\n        /* \"#utility.yul\":11252:11391   */\n      swap3\n      swap2\n      pop\n      pop\n      jump\t// out\n        /* \"#utility.yul\":11397:11514   */\n    tag_511:\n        /* \"#utility.yul\":11506:11507   */\n      0x00\n        /* \"#utility.yul\":11503:11504   */\n      dup1\n        /* \"#utility.yul\":11496:11508   */\n      revert\n        /* \"#utility.yul\":11520:11637   */\n    tag_512:\n        /* \"#utility.yul\":11629:11630   */\n      0x00\n        /* \"#utility.yul\":11626:11627   */\n      dup1\n        /* \"#utility.yul\":11619:11631   */\n      revert\n        /* \"#utility.yul\":11643:11823   */\n    tag_275:\n        /* \"#utility.yul\":11691:11768   */\n      0x4e487b7100000000000000000000000000000000000000000000000000000000\n        /* \"#utility.yul\":11688:11689   */\n      0x00\n        /* \"#utility.yul\":11681:11769   */\n      mstore\n        /* \"#utility.yul\":11788:11792   */\n      0x41\n        /* \"#utility.yul\":11785:11786   */\n      0x04\n        /* \"#utility.yul\":11778:11793   */\n      mstore\n        /* \"#utility.yul\":11812:11816   */\n      0x24\n        /* \"#utility.yul\":11809:11810   */\n      0x00\n        /* \"#utility.yul\":11802:11817   */\n      revert\n        /* \"#utility.yul\":11829:12110   */\n    tag_513:\n        /* \"#utility.yul\":11912:11939   */\n      tag_704\n        /* \"#utility.yul\":11934:11938   */\n      dup3\n        /* \"#utility.yul\":11912:11939   */\n      tag_500\n      jump\t// in\n    tag_704:\n        /* \"#utility.yul\":11904:11910   */\n      dup2\n        /* \"#utility.yul\":11900:11940   */\n      add\n        /* \"#utility.yul\":12042:12048   */\n      dup2\n        /* \"#utility.yul\":12030:12040   */\n      dup2\n        /* \"#utility.yul\":12027:12049   */\n      lt\n        /* \"#utility.yul\":12006:12024   */\n      0xffffffffffffffff\n        /* \"#utility.yul\":11994:12004   */\n      dup3\n        /* \"#utility.yul\":11991:12025   */\n      gt\n        /* \"#utility.yul\":11988:12050   */\n      or\n        /* \"#utility.yul\":11985:12073   */\n      iszero\n      tag_705\n      jumpi\n        /* \"#utility.yul\":12053:12071   */\n      tag_706\n      tag_275\n      jump\t// in\n    tag_706:\n        /* \"#utility.yul\":11985:12073   */\n    tag_705:\n        /* \"#utility.yul\":12093:12103   */\n      dup1\n        /* \"#utility.yul\":12089:12091   */\n      0x40\n        /* \"#utility.yul\":12082:12104   */\n      mstore\n        /* \"#utility.yul\":11872:12110   */\n      pop\n        /* \"#utility.yul\":11829:12110   */\n      pop\n      pop\n      jump\t// out\n        /* \"#utility.yul\":12116:12245   */\n    tag_514:\n        /* \"#utility.yul\":12150:12156   */\n      0x00\n        /* \"#utility.yul\":12177:12197   */\n      tag_708\n      tag_471\n      jump\t// in\n    tag_708:\n        /* \"#utility.yul\":12167:12197   */\n      swap1\n      pop\n        /* \"#utility.yul\":12206:12239   */\n      tag_709\n        /* \"#utility.yul\":12234:12238   */\n      dup3\n        /* \"#utility.yul\":12226:12232   */\n      dup3\n        /* \"#utility.yul\":12206:12239   */\n      tag_513\n      jump\t// in\n    tag_709:\n        /* \"#utility.yul\":12116:12245   */\n      swap2\n      swap1\n      pop\n      jump\t// out\n        /* \"#utility.yul\":12251:12559   */\n    tag_515:\n        /* \"#utility.yul\":12313:12317   */\n      0x00\n        /* \"#utility.yul\":12403:12421   */\n      0xffffffffffffffff\n        /* \"#utility.yul\":12395:12401   */\n      dup3\n        /* \"#utility.yul\":12392:12422   */\n      gt\n        /* \"#utility.yul\":12389:12445   */\n      iszero\n      tag_711\n      jumpi\n        /* \"#utility.yul\":12425:12443   */\n      tag_712\n      tag_275\n      jump\t// in\n    tag_712:\n        /* \"#utility.yul\":12389:12445   */\n    tag_711:\n        /* \"#utility.yul\":12463:12492   */\n      tag_713\n        /* \"#utility.yul\":12485:12491   */\n      dup3\n        /* \"#utility.yul\":12463:12492   */\n      tag_500\n      jump\t// in\n    tag_713:\n        /* \"#utility.yul\":12455:12492   */\n      swap1\n      pop\n        /* \"#utility.yul\":12547:12551   */\n      0x20\n        /* \"#utility.yul\":12541:12545   */\n      dup2\n        /* \"#utility.yul\":12537:12552   */\n      add\n        /* \"#utility.yul\":12529:12552   */\n      swap1\n      pop\n        /* \"#utility.yul\":12251:12559   */\n      swap2\n      swap1\n      pop\n      jump\t// out\n        /* \"#utility.yul\":12565:12713   */\n    tag_516:\n        /* \"#utility.yul\":12663:12669   */\n      dup3\n        /* \"#utility.yul\":12658:12661   */\n      dup2\n        /* \"#utility.yul\":12653:12656   */\n      dup4\n        /* \"#utility.yul\":12640:12670   */\n      calldatacopy\n        /* \"#utility.yul\":12704:12705   */\n      0x00\n        /* \"#utility.yul\":12695:12701   */\n      dup4\n        /* \"#utility.yul\":12690:12693   */\n      dup4\n        /* \"#utility.yul\":12686:12702   */\n      add\n        /* \"#utility.yul\":12679:12706   */\n      mstore\n        /* \"#utility.yul\":12565:12713   */\n      pop\n      pop\n      pop\n      jump\t// out\n        /* \"#utility.yul\":12719:13144   */\n    tag_517:\n        /* \"#utility.yul\":12797:12802   */\n      0x00\n        /* \"#utility.yul\":12822:12888   */\n      tag_716\n        /* \"#utility.yul\":12838:12887   */\n      tag_717\n        /* \"#utility.yul\":12880:12886   */\n      dup5\n        /* \"#utility.yul\":12838:12887   */\n      tag_515\n      jump\t// in\n    tag_717:\n        /* \"#utility.yul\":12822:12888   */\n      tag_514\n      jump\t// in\n    tag_716:\n        /* \"#utility.yul\":12813:12888   */\n      swap1\n      pop\n        /* \"#utility.yul\":12911:12917   */\n      dup3\n        /* \"#utility.yul\":12904:12909   */\n      dup2\n        /* \"#utility.yul\":12897:12918   */\n      mstore\n        /* \"#utility.yul\":12949:12953   */\n      0x20\n        /* \"#utility.yul\":12942:12947   */\n      dup2\n        /* \"#utility.yul\":12938:12954   */\n      add\n        /* \"#utility.yul\":12987:12990   */\n      dup5\n        /* \"#utility.yul\":12978:12984   */\n      dup5\n        /* \"#utility.yul\":12973:12976   */\n      dup5\n        /* \"#utility.yul\":12969:12985   */\n      add\n        /* \"#utility.yul\":12966:12991   */\n      gt\n        /* \"#utility.yul\":12963:13075   */\n      iszero\n      tag_718\n      jumpi\n        /* \"#utility.yul\":12994:13073   */\n      tag_719\n      tag_512\n      jump\t// in\n    tag_719:\n        /* \"#utility.yul\":12963:13075   */\n    tag_718:\n        /* \"#utility.yul\":13084:13138   */\n      tag_720\n        /* \"#utility.yul\":13131:13137   */\n      dup5\n        /* \"#utility.yul\":13126:13129   */\n      dup3\n        /* \"#utility.yul\":13121:13124   */\n      dup6\n        /* \"#utility.yul\":13084:13138   */\n      tag_516\n      jump\t// in\n    tag_720:\n        /* \"#utility.yul\":12803:13144   */\n      pop\n        /* \"#utility.yul\":12719:13144   */\n      swap4\n      swap3\n      pop\n      pop\n      pop\n      jump\t// out\n        /* \"#utility.yul\":13164:13504   */\n    tag_518:\n        /* \"#utility.yul\":13220:13225   */\n      0x00\n        /* \"#utility.yul\":13269:13272   */\n      dup3\n        /* \"#utility.yul\":13262:13266   */\n      0x1f\n        /* \"#utility.yul\":13254:13260   */\n      dup4\n        /* \"#utility.yul\":13250:13267   */\n      add\n        /* \"#utility.yul\":13246:13273   */\n      slt\n        /* \"#utility.yul\":13236:13358   */\n      tag_722\n      jumpi\n        /* \"#utility.yul\":13277:13356   */\n      tag_723\n      tag_511\n      jump\t// in\n    tag_723:\n        /* \"#utility.yul\":13236:13358   */\n    tag_722:\n        /* \"#utility.yul\":13394:13400   */\n      dup2\n        /* \"#utility.yul\":13381:13401   */\n      calldataload\n        /* \"#utility.yul\":13419:13498   */\n      tag_724\n        /* \"#utility.yul\":13494:13497   */\n      dup5\n        /* \"#utility.yul\":13486:13492   */\n      dup3\n        /* \"#utility.yul\":13479:13483   */\n      0x20\n        /* \"#utility.yul\":13471:13477   */\n      dup7\n        /* \"#utility.yul\":13467:13484   */\n      add\n        /* \"#utility.yul\":13419:13498   */\n      tag_517\n      jump\t// in\n    tag_724:\n        /* \"#utility.yul\":13410:13498   */\n      swap2\n      pop\n        /* \"#utility.yul\":13226:13504   */\n      pop\n        /* \"#utility.yul\":13164:13504   */\n      swap3\n      swap2\n      pop\n      pop\n      jump\t// out\n        /* \"#utility.yul\":13510:13623   */\n    tag_519:\n        /* \"#utility.yul\":13597:13598   */\n      0x06\n        /* \"#utility.yul\":13590:13595   */\n      dup2\n        /* \"#utility.yul\":13587:13599   */\n      lt\n        /* \"#utility.yul\":13577:13617   */\n      tag_726\n      jumpi\n        /* \"#utility.yul\":13613:13614   */\n      0x00\n        /* \"#utility.yul\":13610:13611   */\n      dup1\n        /* \"#utility.yul\":13603:13615   */\n      revert\n        /* \"#utility.yul\":13577:13617   */\n    tag_726:\n        /* \"#utility.yul\":13510:13623   */\n      pop\n      jump\t// out\n        /* \"#utility.yul\":13629:13796   */\n    tag_520:\n        /* \"#utility.yul\":13689:13694   */\n      0x00\n        /* \"#utility.yul\":13727:13733   */\n      dup2\n        /* \"#utility.yul\":13714:13734   */\n      calldataload\n        /* \"#utility.yul\":13705:13734   */\n      swap1\n      pop\n        /* \"#utility.yul\":13743:13790   */\n      tag_728\n        /* \"#utility.yul\":13784:13789   */\n      dup2\n        /* \"#utility.yul\":13743:13790   */\n      tag_519\n      jump\t// in\n    tag_728:\n        /* \"#utility.yul\":13629:13796   */\n      swap3\n      swap2\n      pop\n      pop\n      jump\t// out\n        /* \"#utility.yul\":13802:14955   */\n    tag_65:\n        /* \"#utility.yul\":13922:13928   */\n      0x00\n        /* \"#utility.yul\":13930:13936   */\n      dup1\n        /* \"#utility.yul\":13938:13944   */\n      0x00\n        /* \"#utility.yul\":13946:13952   */\n      dup1\n        /* \"#utility.yul\":13995:13998   */\n      0x80\n        /* \"#utility.yul\":13983:13992   */\n      dup6\n        /* \"#utility.yul\":13974:13981   */\n      dup8\n        /* \"#utility.yul\":13970:13993   */\n      sub\n        /* \"#utility.yul\":13966:13999   */\n      slt\n        /* \"#utility.yul\":13963:14083   */\n      iszero\n      tag_730\n      jumpi\n        /* \"#utility.yul\":14002:14081   */\n      tag_731\n      tag_472\n      jump\t// in\n    tag_731:\n        /* \"#utility.yul\":13963:14083   */\n    tag_730:\n        /* \"#utility.yul\":14122:14123   */\n      0x00\n        /* \"#utility.yul\":14147:14200   */\n      tag_732\n        /* \"#utility.yul\":14192:14199   */\n      dup8\n        /* \"#utility.yul\":14183:14189   */\n      dup3\n        /* \"#utility.yul\":14172:14181   */\n      dup9\n        /* \"#utility.yul\":14168:14190   */\n      add\n        /* \"#utility.yul\":14147:14200   */\n      tag_510\n      jump\t// in\n    tag_732:\n        /* \"#utility.yul\":14137:14200   */\n      swap5\n      pop\n        /* \"#utility.yul\":14093:14210   */\n      pop\n        /* \"#utility.yul\":14277:14279   */\n      0x20\n        /* \"#utility.yul\":14266:14275   */\n      dup6\n        /* \"#utility.yul\":14262:14280   */\n      add\n        /* \"#utility.yul\":14249:14281   */\n      calldataload\n        /* \"#utility.yul\":14308:14326   */\n      0xffffffffffffffff\n        /* \"#utility.yul\":14300:14306   */\n      dup2\n        /* \"#utility.yul\":14297:14327   */\n      gt\n        /* \"#utility.yul\":14294:14411   */\n      iszero\n      tag_733\n      jumpi\n        /* \"#utility.yul\":14330:14409   */\n      tag_734\n      tag_473\n      jump\t// in\n    tag_734:\n        /* \"#utility.yul\":14294:14411   */\n    tag_733:\n        /* \"#utility.yul\":14435:14498   */\n      tag_735\n        /* \"#utility.yul\":14490:14497   */\n      dup8\n        /* \"#utility.yul\":14481:14487   */\n      dup3\n        /* \"#utility.yul\":14470:14479   */\n      dup9\n        /* \"#utility.yul\":14466:14488   */\n      add\n        /* \"#utility.yul\":14435:14498   */\n      tag_518\n      jump\t// in\n    tag_735:\n        /* \"#utility.yul\":14425:14498   */\n      swap4\n      pop\n        /* \"#utility.yul\":14220:14508   */\n      pop\n        /* \"#utility.yul\":14547:14549   */\n      0x40\n        /* \"#utility.yul\":14573:14640   */\n      tag_736\n        /* \"#utility.yul\":14632:14639   */\n      dup8\n        /* \"#utility.yul\":14623:14629   */\n      dup3\n        /* \"#utility.yul\":14612:14621   */\n      dup9\n        /* \"#utility.yul\":14608:14630   */\n      add\n        /* \"#utility.yul\":14573:14640   */\n      tag_520\n      jump\t// in\n    tag_736:\n        /* \"#utility.yul\":14563:14640   */\n      swap3\n      pop\n        /* \"#utility.yul\":14518:14650   */\n      pop\n        /* \"#utility.yul\":14717:14719   */\n      0x60\n        /* \"#utility.yul\":14706:14715   */\n      dup6\n        /* \"#utility.yul\":14702:14720   */\n      add\n        /* \"#utility.yul\":14689:14721   */\n      calldataload\n        /* \"#utility.yul\":14748:14766   */\n      0xffffffffffffffff\n        /* \"#utility.yul\":14740:14746   */\n      dup2\n        /* \"#utility.yul\":14737:14767   */\n      gt\n        /* \"#utility.yul\":14734:14851   */\n      iszero\n      tag_737\n      jumpi\n        /* \"#utility.yul\":14770:14849   */\n      tag_738\n      tag_473\n      jump\t// in\n    tag_738:\n        /* \"#utility.yul\":14734:14851   */\n    tag_737:\n        /* \"#utility.yul\":14875:14938   */\n      tag_739\n        /* \"#utility.yul\":14930:14937   */\n      dup8\n        /* \"#utility.yul\":14921:14927   */\n      dup3\n        /* \"#utility.yul\":14910:14919   */\n      dup9\n        /* \"#utility.yul\":14906:14928   */\n      add\n        /* \"#utility.yul\":14875:14938   */\n      tag_518\n      jump\t// in\n    tag_739:\n        /* \"#utility.yul\":14865:14938   */\n      swap2\n      pop\n        /* \"#utility.yul\":14660:14948   */\n      pop\n        /* \"#utility.yul\":13802:14955   */\n      swap3\n      swap6\n      swap2\n      swap5\n      pop\n      swap3\n      pop\n      jump\t// out\n        /* \"#utility.yul\":14961:15290   */\n    tag_70:\n        /* \"#utility.yul\":15020:15026   */\n      0x00\n        /* \"#utility.yul\":15069:15071   */\n      0x20\n        /* \"#utility.yul\":15057:15066   */\n      dup3\n        /* \"#utility.yul\":15048:15055   */\n      dup5\n        /* \"#utility.yul\":15044:15067   */\n      sub\n        /* \"#utility.yul\":15040:15072   */\n      slt\n        /* \"#utility.yul\":15037:15156   */\n      iszero\n      tag_741\n      jumpi\n        /* \"#utility.yul\":15075:15154   */\n      tag_742\n      tag_472\n      jump\t// in\n    tag_742:\n        /* \"#utility.yul\":15037:15156   */\n    tag_741:\n        /* \"#utility.yul\":15195:15196   */\n      0x00\n        /* \"#utility.yul\":15220:15273   */\n      tag_743\n        /* \"#utility.yul\":15265:15272   */\n      dup5\n        /* \"#utility.yul\":15256:15262   */\n      dup3\n        /* \"#utility.yul\":15245:15254   */\n      dup6\n        /* \"#utility.yul\":15241:15263   */\n      add\n        /* \"#utility.yul\":15220:15273   */\n      tag_510\n      jump\t// in\n    tag_743:\n        /* \"#utility.yul\":15210:15273   */\n      swap2\n      pop\n        /* \"#utility.yul\":15166:15283   */\n      pop\n        /* \"#utility.yul\":14961:15290   */\n      swap3\n      swap2\n      pop\n      pop\n      jump\t// out\n        /* \"#utility.yul\":15296:15410   */\n    tag_521:\n        /* \"#utility.yul\":15363:15369   */\n      0x00\n        /* \"#utility.yul\":15397:15402   */\n      dup2\n        /* \"#utility.yul\":15391:15403   */\n      mload\n        /* \"#utility.yul\":15381:15403   */\n      swap1\n      pop\n        /* \"#utility.yul\":15296:15410   */\n      swap2\n      swap1\n      pop\n      jump\t// out\n        /* \"#utility.yul\":15416:15600   */\n    tag_522:\n        /* \"#utility.yul\":15515:15526   */\n      0x00\n        /* \"#utility.yul\":15549:15555   */\n      dup3\n        /* \"#utility.yul\":15544:15547   */\n      dup3\n        /* \"#utility.yul\":15537:15556   */\n      mstore\n        /* \"#utility.yul\":15589:15593   */\n      0x20\n        /* \"#utility.yul\":15584:15587   */\n      dup3\n        /* \"#utility.yul\":15580:15594   */\n      add\n        /* \"#utility.yul\":15565:15594   */\n      swap1\n      pop\n        /* \"#utility.yul\":15416:15600   */\n      swap3\n      swap2\n      pop\n      pop\n      jump\t// out\n        /* \"#utility.yul\":15606:15738   */\n    tag_523:\n        /* \"#utility.yul\":15673:15677   */\n      0x00\n        /* \"#utility.yul\":15696:15699   */\n      dup2\n        /* \"#utility.yul\":15688:15699   */\n      swap1\n      pop\n        /* \"#utility.yul\":15726:15730   */\n      0x20\n        /* \"#utility.yul\":15721:15724   */\n      dup3\n        /* \"#utility.yul\":15717:15731   */\n      add\n        /* \"#utility.yul\":15709:15731   */\n      swap1\n      pop\n        /* \"#utility.yul\":15606:15738   */\n      swap2\n      swap1\n      pop\n      jump\t// out\n        /* \"#utility.yul\":15744:15923   */\n    tag_524:\n        /* \"#utility.yul\":15813:15823   */\n      0x00\n        /* \"#utility.yul\":15834:15880   */\n      tag_748\n        /* \"#utility.yul\":15876:15879   */\n      dup4\n        /* \"#utility.yul\":15868:15874   */\n      dup4\n        /* \"#utility.yul\":15834:15880   */\n      tag_483\n      jump\t// in\n    tag_748:\n        /* \"#utility.yul\":15912:15916   */\n      0x20\n        /* \"#utility.yul\":15907:15910   */\n      dup4\n        /* \"#utility.yul\":15903:15917   */\n      add\n        /* \"#utility.yul\":15889:15917   */\n      swap1\n      pop\n        /* \"#utility.yul\":15744:15923   */\n      swap3\n      swap2\n      pop\n      pop\n      jump\t// out\n        /* \"#utility.yul\":15929:16042   */\n    tag_525:\n        /* \"#utility.yul\":15999:16003   */\n      0x00\n        /* \"#utility.yul\":16031:16035   */\n      0x20\n        /* \"#utility.yul\":16026:16029   */\n      dup3\n        /* \"#utility.yul\":16022:16036   */\n      add\n        /* \"#utility.yul\":16014:16036   */\n      swap1\n      pop\n        /* \"#utility.yul\":15929:16042   */\n      swap2\n      swap1\n      pop\n      jump\t// out\n        /* \"#utility.yul\":16078:16810   */\n    tag_526:\n        /* \"#utility.yul\":16197:16200   */\n      0x00\n        /* \"#utility.yul\":16226:16280   */\n      tag_751\n        /* \"#utility.yul\":16274:16279   */\n      dup3\n        /* \"#utility.yul\":16226:16280   */\n      tag_521\n      jump\t// in\n    tag_751:\n        /* \"#utility.yul\":16296:16382   */\n      tag_752\n        /* \"#utility.yul\":16375:16381   */\n      dup2\n        /* \"#utility.yul\":16370:16373   */\n      dup6\n        /* \"#utility.yul\":16296:16382   */\n      tag_522\n      jump\t// in\n    tag_752:\n        /* \"#utility.yul\":16289:16382   */\n      swap4\n      pop\n        /* \"#utility.yul\":16406:16462   */\n      tag_753\n        /* \"#utility.yul\":16456:16461   */\n      dup4\n        /* \"#utility.yul\":16406:16462   */\n      tag_523\n      jump\t// in\n    tag_753:\n        /* \"#utility.yul\":16485:16492   */\n      dup1\n        /* \"#utility.yul\":16516:16517   */\n      0x00\n        /* \"#utility.yul\":16501:16785   */\n    tag_754:\n        /* \"#utility.yul\":16526:16532   */\n      dup4\n        /* \"#utility.yul\":16523:16524   */\n      dup2\n        /* \"#utility.yul\":16520:16533   */\n      lt\n        /* \"#utility.yul\":16501:16785   */\n      iszero\n      tag_756\n      jumpi\n        /* \"#utility.yul\":16602:16608   */\n      dup2\n        /* \"#utility.yul\":16596:16609   */\n      mload\n        /* \"#utility.yul\":16629:16692   */\n      tag_757\n        /* \"#utility.yul\":16688:16691   */\n      dup9\n        /* \"#utility.yul\":16673:16686   */\n      dup3\n        /* \"#utility.yul\":16629:16692   */\n      tag_524\n      jump\t// in\n    tag_757:\n        /* \"#utility.yul\":16622:16692   */\n      swap8\n      pop\n        /* \"#utility.yul\":16715:16775   */\n      tag_758\n        /* \"#utility.yul\":16768:16774   */\n      dup4\n        /* \"#utility.yul\":16715:16775   */\n      tag_525\n      jump\t// in\n    tag_758:\n        /* \"#utility.yul\":16705:16775   */\n      swap3\n      pop\n        /* \"#utility.yul\":16561:16785   */\n      pop\n        /* \"#utility.yul\":16548:16549   */\n      0x01\n        /* \"#utility.yul\":16545:16546   */\n      dup2\n        /* \"#utility.yul\":16541:16550   */\n      add\n        /* \"#utility.yul\":16536:16550   */\n      swap1\n      pop\n        /* \"#utility.yul\":16501:16785   */\n      jump(tag_754)\n    tag_756:\n        /* \"#utility.yul\":16505:16519   */\n      pop\n        /* \"#utility.yul\":16801:16804   */\n      dup6\n        /* \"#utility.yul\":16794:16804   */\n      swap4\n      pop\n        /* \"#utility.yul\":16202:16810   */\n      pop\n      pop\n      pop\n        /* \"#utility.yul\":16078:16810   */\n      swap3\n      swap2\n      pop\n      pop\n      jump\t// out\n        /* \"#utility.yul\":16816:17189   */\n    tag_76:\n        /* \"#utility.yul\":16959:16963   */\n      0x00\n        /* \"#utility.yul\":16997:16999   */\n      0x20\n        /* \"#utility.yul\":16986:16995   */\n      dup3\n        /* \"#utility.yul\":16982:17000   */\n      add\n        /* \"#utility.yul\":16974:17000   */\n      swap1\n      pop\n        /* \"#utility.yul\":17046:17055   */\n      dup2\n        /* \"#utility.yul\":17040:17044   */\n      dup2\n        /* \"#utility.yul\":17036:17056   */\n      sub\n        /* \"#utility.yul\":17032:17033   */\n      0x00\n        /* \"#utility.yul\":17021:17030   */\n      dup4\n        /* \"#utility.yul\":17017:17034   */\n      add\n        /* \"#utility.yul\":17010:17057   */\n      mstore\n        /* \"#utility.yul\":17074:17182   */\n      tag_760\n        /* \"#utility.yul\":17177:17181   */\n      dup2\n        /* \"#utility.yul\":17168:17174   */\n      dup5\n        /* \"#utility.yul\":17074:17182   */\n      tag_526\n      jump\t// in\n    tag_760:\n        /* \"#utility.yul\":17066:17182   */\n      swap1\n      pop\n        /* \"#utility.yul\":16816:17189   */\n      swap3\n      swap2\n      pop\n      pop\n      jump\t// out\n        /* \"#utility.yul\":17195:18202   */\n    tag_79:\n        /* \"#utility.yul\":17306:17312   */\n      0x00\n        /* \"#utility.yul\":17314:17320   */\n      dup1\n        /* \"#utility.yul\":17322:17328   */\n      0x00\n        /* \"#utility.yul\":17371:17373   */\n      0x60\n        /* \"#utility.yul\":17359:17368   */\n      dup5\n        /* \"#utility.yul\":17350:17357   */\n      dup7\n        /* \"#utility.yul\":17346:17369   */\n      sub\n        /* \"#utility.yul\":17342:17374   */\n      slt\n        /* \"#utility.yul\":17339:17458   */\n      iszero\n      tag_762\n      jumpi\n        /* \"#utility.yul\":17377:17456   */\n      tag_763\n      tag_472\n      jump\t// in\n    tag_763:\n        /* \"#utility.yul\":17339:17458   */\n    tag_762:\n        /* \"#utility.yul\":17525:17526   */\n      0x00\n        /* \"#utility.yul\":17514:17523   */\n      dup5\n        /* \"#utility.yul\":17510:17527   */\n      add\n        /* \"#utility.yul\":17497:17528   */\n      calldataload\n        /* \"#utility.yul\":17555:17573   */\n      0xffffffffffffffff\n        /* \"#utility.yul\":17547:17553   */\n      dup2\n        /* \"#utility.yul\":17544:17574   */\n      gt\n        /* \"#utility.yul\":17541:17658   */\n      iszero\n      tag_764\n      jumpi\n        /* \"#utility.yul\":17577:17656   */\n      tag_765\n      tag_473\n      jump\t// in\n    tag_765:\n        /* \"#utility.yul\":17541:17658   */\n    tag_764:\n        /* \"#utility.yul\":17682:17745   */\n      tag_766\n        /* \"#utility.yul\":17737:17744   */\n      dup7\n        /* \"#utility.yul\":17728:17734   */\n      dup3\n        /* \"#utility.yul\":17717:17726   */\n      dup8\n        /* \"#utility.yul\":17713:17735   */\n      add\n        /* \"#utility.yul\":17682:17745   */\n      tag_518\n      jump\t// in\n    tag_766:\n        /* \"#utility.yul\":17672:17745   */\n      swap4\n      pop\n        /* \"#utility.yul\":17468:17755   */\n      pop\n        /* \"#utility.yul\":17794:17796   */\n      0x20\n        /* \"#utility.yul\":17820:17887   */\n      tag_767\n        /* \"#utility.yul\":17879:17886   */\n      dup7\n        /* \"#utility.yul\":17870:17876   */\n      dup3\n        /* \"#utility.yul\":17859:17868   */\n      dup8\n        /* \"#utility.yul\":17855:17877   */\n      add\n        /* \"#utility.yul\":17820:17887   */\n      tag_520\n      jump\t// in\n    tag_767:\n        /* \"#utility.yul\":17810:17887   */\n      swap3\n      pop\n        /* \"#utility.yul\":17765:17897   */\n      pop\n        /* \"#utility.yul\":17964:17966   */\n      0x40\n        /* \"#utility.yul\":17953:17962   */\n      dup5\n        /* \"#utility.yul\":17949:17967   */\n      add\n        /* \"#utility.yul\":17936:17968   */\n      calldataload\n        /* \"#utility.yul\":17995:18013   */\n      0xffffffffffffffff\n        /* \"#utility.yul\":17987:17993   */\n      dup2\n        /* \"#utility.yul\":17984:18014   */\n      gt\n        /* \"#utility.yul\":17981:18098   */\n      iszero\n      tag_768\n      jumpi\n        /* \"#utility.yul\":18017:18096   */\n      tag_769\n      tag_473\n      jump\t// in\n    tag_769:\n        /* \"#utility.yul\":17981:18098   */\n    tag_768:\n        /* \"#utility.yul\":18122:18185   */\n      tag_770\n        /* \"#utility.yul\":18177:18184   */\n      dup7\n        /* \"#utility.yul\":18168:18174   */\n      dup3\n        /* \"#utility.yul\":18157:18166   */\n      dup8\n        /* \"#utility.yul\":18153:18175   */\n      add\n        /* \"#utility.yul\":18122:18185   */\n      tag_518\n      jump\t// in\n    tag_770:\n        /* \"#utility.yul\":18112:18185   */\n      swap2\n      pop\n        /* \"#utility.yul\":17907:18195   */\n      pop\n        /* \"#utility.yul\":17195:18202   */\n      swap3\n      pop\n      swap3\n      pop\n      swap3\n      jump\t// out\n        /* \"#utility.yul\":18208:18285   */\n    tag_527:\n        /* \"#utility.yul\":18245:18252   */\n      0x00\n        /* \"#utility.yul\":18274:18279   */\n      dup2\n        /* \"#utility.yul\":18263:18279   */\n      swap1\n      pop\n        /* \"#utility.yul\":18208:18285   */\n      swap2\n      swap1\n      pop\n      jump\t// out\n        /* \"#utility.yul\":18291:18413   */\n    tag_528:\n        /* \"#utility.yul\":18364:18388   */\n      tag_773\n        /* \"#utility.yul\":18382:18387   */\n      dup2\n        /* \"#utility.yul\":18364:18388   */\n      tag_527\n      jump\t// in\n    tag_773:\n        /* \"#utility.yul\":18357:18362   */\n      dup2\n        /* \"#utility.yul\":18354:18389   */\n      eq\n        /* \"#utility.yul\":18344:18407   */\n      tag_774\n      jumpi\n        /* \"#utility.yul\":18403:18404   */\n      0x00\n        /* \"#utility.yul\":18400:18401   */\n      dup1\n        /* \"#utility.yul\":18393:18405   */\n      revert\n        /* \"#utility.yul\":18344:18407   */\n    tag_774:\n        /* \"#utility.yul\":18291:18413   */\n      pop\n      jump\t// out\n        /* \"#utility.yul\":18419:18558   */\n    tag_529:\n        /* \"#utility.yul\":18465:18470   */\n      0x00\n        /* \"#utility.yul\":18503:18509   */\n      dup2\n        /* \"#utility.yul\":18490:18510   */\n      calldataload\n        /* \"#utility.yul\":18481:18510   */\n      swap1\n      pop\n        /* \"#utility.yul\":18519:18552   */\n      tag_776\n        /* \"#utility.yul\":18546:18551   */\n      dup2\n        /* \"#utility.yul\":18519:18552   */\n      tag_528\n      jump\t// in\n    tag_776:\n        /* \"#utility.yul\":18419:18558   */\n      swap3\n      swap2\n      pop\n      pop\n      jump\t// out\n        /* \"#utility.yul\":18564:18893   */\n    tag_88:\n        /* \"#utility.yul\":18623:18629   */\n      0x00\n        /* \"#utility.yul\":18672:18674   */\n      0x20\n        /* \"#utility.yul\":18660:18669   */\n      dup3\n        /* \"#utility.yul\":18651:18658   */\n      dup5\n        /* \"#utility.yul\":18647:18670   */\n      sub\n        /* \"#utility.yul\":18643:18675   */\n      slt\n        /* \"#utility.yul\":18640:18759   */\n      iszero\n      tag_778\n      jumpi\n        /* \"#utility.yul\":18678:18757   */\n      tag_779\n      tag_472\n      jump\t// in\n    tag_779:\n        /* \"#utility.yul\":18640:18759   */\n    tag_778:\n        /* \"#utility.yul\":18798:18799   */\n      0x00\n        /* \"#utility.yul\":18823:18876   */\n      tag_780\n        /* \"#utility.yul\":18868:18875   */\n      dup5\n        /* \"#utility.yul\":18859:18865   */\n      dup3\n        /* \"#utility.yul\":18848:18857   */\n      dup6\n        /* \"#utility.yul\":18844:18866   */\n      add\n        /* \"#utility.yul\":18823:18876   */\n      tag_529\n      jump\t// in\n    tag_780:\n        /* \"#utility.yul\":18813:18876   */\n      swap2\n      pop\n        /* \"#utility.yul\":18769:18886   */\n      pop\n        /* \"#utility.yul\":18564:18893   */\n      swap3\n      swap2\n      pop\n      pop\n      jump\t// out\n        /* \"#utility.yul\":18899:19017   */\n    tag_530:\n        /* \"#utility.yul\":18986:19010   */\n      tag_782\n        /* \"#utility.yul\":19004:19009   */\n      dup2\n        /* \"#utility.yul\":18986:19010   */\n      tag_527\n      jump\t// in\n    tag_782:\n        /* \"#utility.yul\":18981:18984   */\n      dup3\n        /* \"#utility.yul\":18974:19011   */\n      mstore\n        /* \"#utility.yul\":18899:19017   */\n      pop\n      pop\n      jump\t// out\n        /* \"#utility.yul\":19023:19245   */\n    tag_91:\n        /* \"#utility.yul\":19116:19120   */\n      0x00\n        /* \"#utility.yul\":19154:19156   */\n      0x20\n        /* \"#utility.yul\":19143:19152   */\n      dup3\n        /* \"#utility.yul\":19139:19157   */\n      add\n        /* \"#utility.yul\":19131:19157   */\n      swap1\n      pop\n        /* \"#utility.yul\":19167:19238   */\n      tag_784\n        /* \"#utility.yul\":19235:19236   */\n      0x00\n        /* \"#utility.yul\":19224:19233   */\n      dup4\n        /* \"#utility.yul\":19220:19237   */\n      add\n        /* \"#utility.yul\":19211:19217   */\n      dup5\n        /* \"#utility.yul\":19167:19238   */\n      tag_530\n      jump\t// in\n    tag_784:\n        /* \"#utility.yul\":19023:19245   */\n      swap3\n      swap2\n      pop\n      pop\n      jump\t// out\n        /* \"#utility.yul\":19251:19725   */\n    tag_97:\n        /* \"#utility.yul\":19319:19325   */\n      0x00\n        /* \"#utility.yul\":19327:19333   */\n      dup1\n        /* \"#utility.yul\":19376:19378   */\n      0x40\n        /* \"#utility.yul\":19364:19373   */\n      dup4\n        /* \"#utility.yul\":19355:19362   */\n      dup6\n        /* \"#utility.yul\":19351:19374   */\n      sub\n        /* \"#utility.yul\":19347:19379   */\n      slt\n        /* \"#utility.yul\":19344:19463   */\n      iszero\n      tag_786\n      jumpi\n        /* \"#utility.yul\":19382:19461   */\n      tag_787\n      tag_472\n      jump\t// in\n    tag_787:\n        /* \"#utility.yul\":19344:19463   */\n    tag_786:\n        /* \"#utility.yul\":19502:19503   */\n      0x00\n        /* \"#utility.yul\":19527:19580   */\n      tag_788\n        /* \"#utility.yul\":19572:19579   */\n      dup6\n        /* \"#utility.yul\":19563:19569   */\n      dup3\n        /* \"#utility.yul\":19552:19561   */\n      dup7\n        /* \"#utility.yul\":19548:19570   */\n      add\n        /* \"#utility.yul\":19527:19580   */\n      tag_529\n      jump\t// in\n    tag_788:\n        /* \"#utility.yul\":19517:19580   */\n      swap3\n      pop\n        /* \"#utility.yul\":19473:19590   */\n      pop\n        /* \"#utility.yul\":19629:19631   */\n      0x20\n        /* \"#utility.yul\":19655:19708   */\n      tag_789\n        /* \"#utility.yul\":19700:19707   */\n      dup6\n        /* \"#utility.yul\":19691:19697   */\n      dup3\n        /* \"#utility.yul\":19680:19689   */\n      dup7\n        /* \"#utility.yul\":19676:19698   */\n      add\n        /* \"#utility.yul\":19655:19708   */\n      tag_510\n      jump\t// in\n    tag_789:\n        /* \"#utility.yul\":19645:19708   */\n      swap2\n      pop\n        /* \"#utility.yul\":19600:19718   */\n      pop\n        /* \"#utility.yul\":19251:19725   */\n      swap3\n      pop\n      swap3\n      swap1\n      pop\n      jump\t// out\n        /* \"#utility.yul\":19731:20710   */\n    tag_104:\n        /* \"#utility.yul\":19828:19834   */\n      0x00\n        /* \"#utility.yul\":19836:19842   */\n      dup1\n        /* \"#utility.yul\":19844:19850   */\n      0x00\n        /* \"#utility.yul\":19893:19895   */\n      0x60\n        /* \"#utility.yul\":19881:19890   */\n      dup5\n        /* \"#utility.yul\":19872:19879   */\n      dup7\n        /* \"#utility.yul\":19868:19891   */\n      sub\n        /* \"#utility.yul\":19864:19896   */\n      slt\n        /* \"#utility.yul\":19861:19980   */\n      iszero\n      tag_791\n      jumpi\n        /* \"#utility.yul\":19899:19978   */\n      tag_792\n      tag_472\n      jump\t// in\n    tag_792:\n        /* \"#utility.yul\":19861:19980   */\n    tag_791:\n        /* \"#utility.yul\":20019:20020   */\n      0x00\n        /* \"#utility.yul\":20044:20097   */\n      tag_793\n        /* \"#utility.yul\":20089:20096   */\n      dup7\n        /* \"#utility.yul\":20080:20086   */\n      dup3\n        /* \"#utility.yul\":20069:20078   */\n      dup8\n        /* \"#utility.yul\":20065:20087   */\n      add\n        /* \"#utility.yul\":20044:20097   */\n      tag_476\n      jump\t// in\n    tag_793:\n        /* \"#utility.yul\":20034:20097   */\n      swap4\n      pop\n        /* \"#utility.yul\":19990:20107   */\n      pop\n        /* \"#utility.yul\":20174:20176   */\n      0x20\n        /* \"#utility.yul\":20163:20172   */\n      dup5\n        /* \"#utility.yul\":20159:20177   */\n      add\n        /* \"#utility.yul\":20146:20178   */\n      calldataload\n        /* \"#utility.yul\":20205:20223   */\n      0xffffffffffffffff\n        /* \"#utility.yul\":20197:20203   */\n      dup2\n        /* \"#utility.yul\":20194:20224   */\n      gt\n        /* \"#utility.yul\":20191:20308   */\n      iszero\n      tag_794\n      jumpi\n        /* \"#utility.yul\":20227:20306   */\n      tag_795\n      tag_473\n      jump\t// in\n    tag_795:\n        /* \"#utility.yul\":20191:20308   */\n    tag_794:\n        /* \"#utility.yul\":20332:20395   */\n      tag_796\n        /* \"#utility.yul\":20387:20394   */\n      dup7\n        /* \"#utility.yul\":20378:20384   */\n      dup3\n        /* \"#utility.yul\":20367:20376   */\n      dup8\n        /* \"#utility.yul\":20363:20385   */\n      add\n        /* \"#utility.yul\":20332:20395   */\n      tag_518\n      jump\t// in\n    tag_796:\n        /* \"#utility.yul\":20322:20395   */\n      swap3\n      pop\n        /* \"#utility.yul\":20117:20405   */\n      pop\n        /* \"#utility.yul\":20472:20474   */\n      0x40\n        /* \"#utility.yul\":20461:20470   */\n      dup5\n        /* \"#utility.yul\":20457:20475   */\n      add\n        /* \"#utility.yul\":20444:20476   */\n      calldataload\n        /* \"#utility.yul\":20503:20521   */\n      0xffffffffffffffff\n        /* \"#utility.yul\":20495:20501   */\n      dup2\n        /* \"#utility.yul\":20492:20522   */\n      gt\n        /* \"#utility.yul\":20489:20606   */\n      iszero\n      tag_797\n      jumpi\n        /* \"#utility.yul\":20525:20604   */\n      tag_798\n      tag_473\n      jump\t// in\n    tag_798:\n        /* \"#utility.yul\":20489:20606   */\n    tag_797:\n        /* \"#utility.yul\":20630:20693   */\n      tag_799\n        /* \"#utility.yul\":20685:20692   */\n      dup7\n        /* \"#utility.yul\":20676:20682   */\n      dup3\n        /* \"#utility.yul\":20665:20674   */\n      dup8\n        /* \"#utility.yul\":20661:20683   */\n      add\n        /* \"#utility.yul\":20630:20693   */\n      tag_518\n      jump\t// in\n    tag_799:\n        /* \"#utility.yul\":20620:20693   */\n      swap2\n      pop\n        /* \"#utility.yul\":20415:20703   */\n      pop\n        /* \"#utility.yul\":19731:20710   */\n      swap3\n      pop\n      swap3\n      pop\n      swap3\n      jump\t// out\n        /* \"#utility.yul\":20716:21190   */\n    tag_113:\n        /* \"#utility.yul\":20784:20790   */\n      0x00\n        /* \"#utility.yul\":20792:20798   */\n      dup1\n        /* \"#utility.yul\":20841:20843   */\n      0x40\n        /* \"#utility.yul\":20829:20838   */\n      dup4\n        /* \"#utility.yul\":20820:20827   */\n      dup6\n        /* \"#utility.yul\":20816:20839   */\n      sub\n        /* \"#utility.yul\":20812:20844   */\n      slt\n        /* \"#utility.yul\":20809:20928   */\n      iszero\n      tag_801\n      jumpi\n        /* \"#utility.yul\":20847:20926   */\n      tag_802\n      tag_472\n      jump\t// in\n    tag_802:\n        /* \"#utility.yul\":20809:20928   */\n    tag_801:\n        /* \"#utility.yul\":20967:20968   */\n      0x00\n        /* \"#utility.yul\":20992:21045   */\n      tag_803\n        /* \"#utility.yul\":21037:21044   */\n      dup6\n        /* \"#utility.yul\":21028:21034   */\n      dup3\n        /* \"#utility.yul\":21017:21026   */\n      dup7\n        /* \"#utility.yul\":21013:21035   */\n      add\n        /* \"#utility.yul\":20992:21045   */\n      tag_510\n      jump\t// in\n    tag_803:\n        /* \"#utility.yul\":20982:21045   */\n      swap3\n      pop\n        /* \"#utility.yul\":20938:21055   */\n      pop\n        /* \"#utility.yul\":21094:21096   */\n      0x20\n        /* \"#utility.yul\":21120:21173   */\n      tag_804\n        /* \"#utility.yul\":21165:21172   */\n      dup6\n        /* \"#utility.yul\":21156:21162   */\n      dup3\n        /* \"#utility.yul\":21145:21154   */\n      dup7\n        /* \"#utility.yul\":21141:21163   */\n      add\n        /* \"#utility.yul\":21120:21173   */\n      tag_510\n      jump\t// in\n    tag_804:\n        /* \"#utility.yul\":21110:21173   */\n      swap2\n      pop\n        /* \"#utility.yul\":21065:21183   */\n      pop\n        /* \"#utility.yul\":20716:21190   */\n      swap3\n      pop\n      swap3\n      swap1\n      pop\n      jump\t// out\n        /* \"#utility.yul\":21196:21370   */\n    tag_531:\n        /* \"#utility.yul\":21285:21296   */\n      0x00\n        /* \"#utility.yul\":21319:21325   */\n      dup3\n        /* \"#utility.yul\":21314:21317   */\n      dup3\n        /* \"#utility.yul\":21307:21326   */\n      mstore\n        /* \"#utility.yul\":21359:21363   */\n      0x20\n        /* \"#utility.yul\":21354:21357   */\n      dup3\n        /* \"#utility.yul\":21350:21364   */\n      add\n        /* \"#utility.yul\":21335:21364   */\n      swap1\n      pop\n        /* \"#utility.yul\":21196:21370   */\n      swap3\n      swap2\n      pop\n      pop\n      jump\t// out\n        /* \"#utility.yul\":21406:22118   */\n    tag_532:\n        /* \"#utility.yul\":21515:21518   */\n      0x00\n        /* \"#utility.yul\":21544:21598   */\n      tag_807\n        /* \"#utility.yul\":21592:21597   */\n      dup3\n        /* \"#utility.yul\":21544:21598   */\n      tag_521\n      jump\t// in\n    tag_807:\n        /* \"#utility.yul\":21614:21690   */\n      tag_808\n        /* \"#utility.yul\":21683:21689   */\n      dup2\n        /* \"#utility.yul\":21678:21681   */\n      dup6\n        /* \"#utility.yul\":21614:21690   */\n      tag_531\n      jump\t// in\n    tag_808:\n        /* \"#utility.yul\":21607:21690   */\n      swap4\n      pop\n        /* \"#utility.yul\":21714:21770   */\n      tag_809\n        /* \"#utility.yul\":21764:21769   */\n      dup4\n        /* \"#utility.yul\":21714:21770   */\n      tag_523\n      jump\t// in\n    tag_809:\n        /* \"#utility.yul\":21793:21800   */\n      dup1\n        /* \"#utility.yul\":21824:21825   */\n      0x00\n        /* \"#utility.yul\":21809:22093   */\n    tag_810:\n        /* \"#utility.yul\":21834:21840   */\n      dup4\n        /* \"#utility.yul\":21831:21832   */\n      dup2\n        /* \"#utility.yul\":21828:21841   */\n      lt\n        /* \"#utility.yul\":21809:22093   */\n      iszero\n      tag_812\n      jumpi\n        /* \"#utility.yul\":21910:21916   */\n      dup2\n        /* \"#utility.yul\":21904:21917   */\n      mload\n        /* \"#utility.yul\":21937:22000   */\n      tag_813\n        /* \"#utility.yul\":21996:21999   */\n      dup9\n        /* \"#utility.yul\":21981:21994   */\n      dup3\n        /* \"#utility.yul\":21937:22000   */\n      tag_524\n      jump\t// in\n    tag_813:\n        /* \"#utility.yul\":21930:22000   */\n      swap8\n      pop\n        /* \"#utility.yul\":22023:22083   */\n      tag_814\n        /* \"#utility.yul\":22076:22082   */\n      dup4\n        /* \"#utility.yul\":22023:22083   */\n      tag_525\n      jump\t// in\n    tag_814:\n        /* \"#utility.yul\":22013:22083   */\n      swap3\n      pop\n        /* \"#utility.yul\":21869:22093   */\n      pop\n        /* \"#utility.yul\":21856:21857   */\n      0x01\n        /* \"#utility.yul\":21853:21854   */\n      dup2\n        /* \"#utility.yul\":21849:21858   */\n      add\n        /* \"#utility.yul\":21844:21858   */\n      swap1\n      pop\n        /* \"#utility.yul\":21809:22093   */\n      jump(tag_810)\n    tag_812:\n        /* \"#utility.yul\":21813:21827   */\n      pop\n        /* \"#utility.yul\":22109:22112   */\n      dup6\n        /* \"#utility.yul\":22102:22112   */\n      swap4\n      pop\n        /* \"#utility.yul\":21520:22118   */\n      pop\n      pop\n      pop\n        /* \"#utility.yul\":21406:22118   */\n      swap3\n      swap2\n      pop\n      pop\n      jump\t// out\n        /* \"#utility.yul\":22198:23381   */\n    tag_533:\n        /* \"#utility.yul\":22323:22326   */\n      0x00\n        /* \"#utility.yul\":22359:22363   */\n      0xa0\n        /* \"#utility.yul\":22354:22357   */\n      dup4\n        /* \"#utility.yul\":22350:22364   */\n      add\n        /* \"#utility.yul\":22451:22455   */\n      0x00\n        /* \"#utility.yul\":22444:22449   */\n      dup4\n        /* \"#utility.yul\":22440:22456   */\n      add\n        /* \"#utility.yul\":22434:22457   */\n      mload\n        /* \"#utility.yul\":22470:22533   */\n      tag_816\n        /* \"#utility.yul\":22527:22531   */\n      0x00\n        /* \"#utility.yul\":22522:22525   */\n      dup7\n        /* \"#utility.yul\":22518:22532   */\n      add\n        /* \"#utility.yul\":22504:22516   */\n      dup3\n        /* \"#utility.yul\":22470:22533   */\n      tag_482\n      jump\t// in\n    tag_816:\n        /* \"#utility.yul\":22374:22543   */\n      pop\n        /* \"#utility.yul\":22630:22634   */\n      0x20\n        /* \"#utility.yul\":22623:22628   */\n      dup4\n        /* \"#utility.yul\":22619:22635   */\n      add\n        /* \"#utility.yul\":22613:22636   */\n      mload\n        /* \"#utility.yul\":22683:22686   */\n      dup5\n        /* \"#utility.yul\":22677:22681   */\n      dup3\n        /* \"#utility.yul\":22673:22687   */\n      sub\n        /* \"#utility.yul\":22666:22670   */\n      0x20\n        /* \"#utility.yul\":22661:22664   */\n      dup7\n        /* \"#utility.yul\":22657:22671   */\n      add\n        /* \"#utility.yul\":22650:22688   */\n      mstore\n        /* \"#utility.yul\":22709:22812   */\n      tag_817\n        /* \"#utility.yul\":22807:22811   */\n      dup3\n        /* \"#utility.yul\":22793:22805   */\n      dup3\n        /* \"#utility.yul\":22709:22812   */\n      tag_532\n      jump\t// in\n    tag_817:\n        /* \"#utility.yul\":22701:22812   */\n      swap2\n      pop\n        /* \"#utility.yul\":22553:22823   */\n      pop\n        /* \"#utility.yul\":22911:22915   */\n      0x40\n        /* \"#utility.yul\":22904:22909   */\n      dup4\n        /* \"#utility.yul\":22900:22916   */\n      add\n        /* \"#utility.yul\":22894:22917   */\n      mload\n        /* \"#utility.yul\":22930:22993   */\n      tag_818\n        /* \"#utility.yul\":22987:22991   */\n      0x40\n        /* \"#utility.yul\":22982:22985   */\n      dup7\n        /* \"#utility.yul\":22978:22992   */\n      add\n        /* \"#utility.yul\":22964:22976   */\n      dup3\n        /* \"#utility.yul\":22930:22993   */\n      tag_483\n      jump\t// in\n    tag_818:\n        /* \"#utility.yul\":22833:23003   */\n      pop\n        /* \"#utility.yul\":23089:23093   */\n      0x60\n        /* \"#utility.yul\":23082:23087   */\n      dup4\n        /* \"#utility.yul\":23078:23094   */\n      add\n        /* \"#utility.yul\":23072:23095   */\n      mload\n        /* \"#utility.yul\":23108:23165   */\n      tag_819\n        /* \"#utility.yul\":23159:23163   */\n      0x60\n        /* \"#utility.yul\":23154:23157   */\n      dup7\n        /* \"#utility.yul\":23150:23164   */\n      add\n        /* \"#utility.yul\":23136:23148   */\n      dup3\n        /* \"#utility.yul\":23108:23165   */\n      tag_506\n      jump\t// in\n    tag_819:\n        /* \"#utility.yul\":23013:23175   */\n      pop\n        /* \"#utility.yul\":23262:23266   */\n      0x80\n        /* \"#utility.yul\":23255:23260   */\n      dup4\n        /* \"#utility.yul\":23251:23267   */\n      add\n        /* \"#utility.yul\":23245:23268   */\n      mload\n        /* \"#utility.yul\":23281:23344   */\n      tag_820\n        /* \"#utility.yul\":23338:23342   */\n      0x80\n        /* \"#utility.yul\":23333:23336   */\n      dup7\n        /* \"#utility.yul\":23329:23343   */\n      add\n        /* \"#utility.yul\":23315:23327   */\n      dup3\n        /* \"#utility.yul\":23281:23344   */\n      tag_483\n      jump\t// in\n    tag_820:\n        /* \"#utility.yul\":23185:23354   */\n      pop\n        /* \"#utility.yul\":23371:23375   */\n      dup1\n        /* \"#utility.yul\":23364:23375   */\n      swap2\n      pop\n        /* \"#utility.yul\":22328:23381   */\n      pop\n        /* \"#utility.yul\":22198:23381   */\n      swap3\n      swap2\n      pop\n      pop\n      jump\t// out\n        /* \"#utility.yul\":23387:23772   */\n    tag_116:\n        /* \"#utility.yul\":23536:23540   */\n      0x00\n        /* \"#utility.yul\":23574:23576   */\n      0x20\n        /* \"#utility.yul\":23563:23572   */\n      dup3\n        /* \"#utility.yul\":23559:23577   */\n      add\n        /* \"#utility.yul\":23551:23577   */\n      swap1\n      pop\n        /* \"#utility.yul\":23623:23632   */\n      dup2\n        /* \"#utility.yul\":23617:23621   */\n      dup2\n        /* \"#utility.yul\":23613:23633   */\n      sub\n        /* \"#utility.yul\":23609:23610   */\n      0x00\n        /* \"#utility.yul\":23598:23607   */\n      dup4\n        /* \"#utility.yul\":23594:23611   */\n      add\n        /* \"#utility.yul\":23587:23634   */\n      mstore\n        /* \"#utility.yul\":23651:23765   */\n      tag_822\n        /* \"#utility.yul\":23760:23764   */\n      dup2\n        /* \"#utility.yul\":23751:23757   */\n      dup5\n        /* \"#utility.yul\":23651:23765   */\n      tag_533\n      jump\t// in\n    tag_822:\n        /* \"#utility.yul\":23643:23765   */\n      swap1\n      pop\n        /* \"#utility.yul\":23387:23772   */\n      swap3\n      swap2\n      pop\n      pop\n      jump\t// out\n        /* \"#utility.yul\":23778:23896   */\n    tag_534:\n        /* \"#utility.yul\":23865:23889   */\n      tag_824\n        /* \"#utility.yul\":23883:23888   */\n      dup2\n        /* \"#utility.yul\":23865:23889   */\n      tag_481\n      jump\t// in\n    tag_824:\n        /* \"#utility.yul\":23860:23863   */\n      dup3\n        /* \"#utility.yul\":23853:23890   */\n      mstore\n        /* \"#utility.yul\":23778:23896   */\n      pop\n      pop\n      jump\t// out\n        /* \"#utility.yul\":23902:24124   */\n    tag_120:\n        /* \"#utility.yul\":23995:23999   */\n      0x00\n        /* \"#utility.yul\":24033:24035   */\n      0x20\n        /* \"#utility.yul\":24022:24031   */\n      dup3\n        /* \"#utility.yul\":24018:24036   */\n      add\n        /* \"#utility.yul\":24010:24036   */\n      swap1\n      pop\n        /* \"#utility.yul\":24046:24117   */\n      tag_826\n        /* \"#utility.yul\":24114:24115   */\n      0x00\n        /* \"#utility.yul\":24103:24112   */\n      dup4\n        /* \"#utility.yul\":24099:24116   */\n      add\n        /* \"#utility.yul\":24090:24096   */\n      dup5\n        /* \"#utility.yul\":24046:24117   */\n      tag_534\n      jump\t// in\n    tag_826:\n        /* \"#utility.yul\":23902:24124   */\n      swap3\n      swap2\n      pop\n      pop\n      jump\t// out\n        /* \"#utility.yul\":24130:24441   */\n    tag_535:\n        /* \"#utility.yul\":24207:24211   */\n      0x00\n        /* \"#utility.yul\":24297:24315   */\n      0xffffffffffffffff\n        /* \"#utility.yul\":24289:24295   */\n      dup3\n        /* \"#utility.yul\":24286:24316   */\n      gt\n        /* \"#utility.yul\":24283:24339   */\n      iszero\n      tag_828\n      jumpi\n        /* \"#utility.yul\":24319:24337   */\n      tag_829\n      tag_275\n      jump\t// in\n    tag_829:\n        /* \"#utility.yul\":24283:24339   */\n    tag_828:\n        /* \"#utility.yul\":24369:24373   */\n      0x20\n        /* \"#utility.yul\":24361:24367   */\n      dup3\n        /* \"#utility.yul\":24357:24374   */\n      mul\n        /* \"#utility.yul\":24349:24374   */\n      swap1\n      pop\n        /* \"#utility.yul\":24429:24433   */\n      0x20\n        /* \"#utility.yul\":24423:24427   */\n      dup2\n        /* \"#utility.yul\":24419:24434   */\n      add\n        /* \"#utility.yul\":24411:24434   */\n      swap1\n      pop\n        /* \"#utility.yul\":24130:24441   */\n      swap2\n      swap1\n      pop\n      jump\t// out\n        /* \"#utility.yul\":24447:24564   */\n    tag_536:\n        /* \"#utility.yul\":24556:24557   */\n      0x00\n        /* \"#utility.yul\":24553:24554   */\n      dup1\n        /* \"#utility.yul\":24546:24558   */\n      revert\n        /* \"#utility.yul\":24587:25297   */\n    tag_537:\n        /* \"#utility.yul\":24683:24688   */\n      0x00\n        /* \"#utility.yul\":24708:24789   */\n      tag_832\n        /* \"#utility.yul\":24724:24788   */\n      tag_833\n        /* \"#utility.yul\":24781:24787   */\n      dup5\n        /* \"#utility.yul\":24724:24788   */\n      tag_535\n      jump\t// in\n    tag_833:\n        /* \"#utility.yul\":24708:24789   */\n      tag_514\n      jump\t// in\n    tag_832:\n        /* \"#utility.yul\":24699:24789   */\n      swap1\n      pop\n        /* \"#utility.yul\":24809:24814   */\n      dup1\n        /* \"#utility.yul\":24838:24844   */\n      dup4\n        /* \"#utility.yul\":24831:24836   */\n      dup3\n        /* \"#utility.yul\":24824:24845   */\n      mstore\n        /* \"#utility.yul\":24872:24876   */\n      0x20\n        /* \"#utility.yul\":24865:24870   */\n      dup3\n        /* \"#utility.yul\":24861:24877   */\n      add\n        /* \"#utility.yul\":24854:24877   */\n      swap1\n      pop\n        /* \"#utility.yul\":24925:24929   */\n      0x20\n        /* \"#utility.yul\":24917:24923   */\n      dup5\n        /* \"#utility.yul\":24913:24930   */\n      mul\n        /* \"#utility.yul\":24905:24911   */\n      dup4\n        /* \"#utility.yul\":24901:24931   */\n      add\n        /* \"#utility.yul\":24954:24957   */\n      dup6\n        /* \"#utility.yul\":24946:24952   */\n      dup2\n        /* \"#utility.yul\":24943:24958   */\n      gt\n        /* \"#utility.yul\":24940:25062   */\n      iszero\n      tag_834\n      jumpi\n        /* \"#utility.yul\":24973:25052   */\n      tag_835\n      tag_536\n      jump\t// in\n    tag_835:\n        /* \"#utility.yul\":24940:25062   */\n    tag_834:\n        /* \"#utility.yul\":25088:25094   */\n      dup4\n        /* \"#utility.yul\":25071:25291   */\n    tag_836:\n        /* \"#utility.yul\":25105:25111   */\n      dup2\n        /* \"#utility.yul\":25100:25103   */\n      dup2\n        /* \"#utility.yul\":25097:25112   */\n      lt\n        /* \"#utility.yul\":25071:25291   */\n      iszero\n      tag_838\n      jumpi\n        /* \"#utility.yul\":25180:25183   */\n      dup1\n        /* \"#utility.yul\":25209:25246   */\n      tag_839\n        /* \"#utility.yul\":25242:25245   */\n      dup9\n        /* \"#utility.yul\":25230:25240   */\n      dup3\n        /* \"#utility.yul\":25209:25246   */\n      tag_476\n      jump\t// in\n    tag_839:\n        /* \"#utility.yul\":25204:25207   */\n      dup5\n        /* \"#utility.yul\":25197:25247   */\n      mstore\n        /* \"#utility.yul\":25276:25280   */\n      0x20\n        /* \"#utility.yul\":25271:25274   */\n      dup5\n        /* \"#utility.yul\":25267:25281   */\n      add\n        /* \"#utility.yul\":25260:25281   */\n      swap4\n      pop\n        /* \"#utility.yul\":25147:25291   */\n      pop\n        /* \"#utility.yul\":25131:25135   */\n      0x20\n        /* \"#utility.yul\":25126:25129   */\n      dup2\n        /* \"#utility.yul\":25122:25136   */\n      add\n        /* \"#utility.yul\":25115:25136   */\n      swap1\n      pop\n        /* \"#utility.yul\":25071:25291   */\n      jump(tag_836)\n    tag_838:\n        /* \"#utility.yul\":25075:25096   */\n      pop\n        /* \"#utility.yul\":24689:25297   */\n      pop\n      pop\n        /* \"#utility.yul\":24587:25297   */\n      swap4\n      swap3\n      pop\n      pop\n      pop\n      jump\t// out\n        /* \"#utility.yul\":25320:25690   */\n    tag_538:\n        /* \"#utility.yul\":25391:25396   */\n      0x00\n        /* \"#utility.yul\":25440:25443   */\n      dup3\n        /* \"#utility.yul\":25433:25437   */\n      0x1f\n        /* \"#utility.yul\":25425:25431   */\n      dup4\n        /* \"#utility.yul\":25421:25438   */\n      add\n        /* \"#utility.yul\":25417:25444   */\n      slt\n        /* \"#utility.yul\":25407:25529   */\n      tag_841\n      jumpi\n        /* \"#utility.yul\":25448:25527   */\n      tag_842\n      tag_511\n      jump\t// in\n    tag_842:\n        /* \"#utility.yul\":25407:25529   */\n    tag_841:\n        /* \"#utility.yul\":25565:25571   */\n      dup2\n        /* \"#utility.yul\":25552:25572   */\n      calldataload\n        /* \"#utility.yul\":25590:25684   */\n      tag_843\n        /* \"#utility.yul\":25680:25683   */\n      dup5\n        /* \"#utility.yul\":25672:25678   */\n      dup3\n        /* \"#utility.yul\":25665:25669   */\n      0x20\n        /* \"#utility.yul\":25657:25663   */\n      dup7\n        /* \"#utility.yul\":25653:25670   */\n      add\n        /* \"#utility.yul\":25590:25684   */\n      tag_537\n      jump\t// in\n    tag_843:\n        /* \"#utility.yul\":25581:25684   */\n      swap2\n      pop\n        /* \"#utility.yul\":25397:25690   */\n      pop\n        /* \"#utility.yul\":25320:25690   */\n      swap3\n      swap2\n      pop\n      pop\n      jump\t// out\n        /* \"#utility.yul\":25696:26525   */\n    tag_130:\n        /* \"#utility.yul\":25798:25804   */\n      0x00\n        /* \"#utility.yul\":25806:25812   */\n      dup1\n        /* \"#utility.yul\":25814:25820   */\n      0x00\n        /* \"#utility.yul\":25863:25865   */\n      0x60\n        /* \"#utility.yul\":25851:25860   */\n      dup5\n        /* \"#utility.yul\":25842:25849   */\n      dup7\n        /* \"#utility.yul\":25838:25861   */\n      sub\n        /* \"#utility.yul\":25834:25866   */\n      slt\n        /* \"#utility.yul\":25831:25950   */\n      iszero\n      tag_845\n      jumpi\n        /* \"#utility.yul\":25869:25948   */\n      tag_846\n      tag_472\n      jump\t// in\n    tag_846:\n        /* \"#utility.yul\":25831:25950   */\n    tag_845:\n        /* \"#utility.yul\":25989:25990   */\n      0x00\n        /* \"#utility.yul\":26014:26067   */\n      tag_847\n        /* \"#utility.yul\":26059:26066   */\n      dup7\n        /* \"#utility.yul\":26050:26056   */\n      dup3\n        /* \"#utility.yul\":26039:26048   */\n      dup8\n        /* \"#utility.yul\":26035:26057   */\n      add\n        /* \"#utility.yul\":26014:26067   */\n      tag_510\n      jump\t// in\n    tag_847:\n        /* \"#utility.yul\":26004:26067   */\n      swap4\n      pop\n        /* \"#utility.yul\":25960:26077   */\n      pop\n        /* \"#utility.yul\":26144:26146   */\n      0x20\n        /* \"#utility.yul\":26133:26142   */\n      dup5\n        /* \"#utility.yul\":26129:26147   */\n      add\n        /* \"#utility.yul\":26116:26148   */\n      calldataload\n        /* \"#utility.yul\":26175:26193   */\n      0xffffffffffffffff\n        /* \"#utility.yul\":26167:26173   */\n      dup2\n        /* \"#utility.yul\":26164:26194   */\n      gt\n        /* \"#utility.yul\":26161:26278   */\n      iszero\n      tag_848\n      jumpi\n        /* \"#utility.yul\":26197:26276   */\n      tag_849\n      tag_473\n      jump\t// in\n    tag_849:\n        /* \"#utility.yul\":26161:26278   */\n    tag_848:\n        /* \"#utility.yul\":26302:26380   */\n      tag_850\n        /* \"#utility.yul\":26372:26379   */\n      dup7\n        /* \"#utility.yul\":26363:26369   */\n      dup3\n        /* \"#utility.yul\":26352:26361   */\n      dup8\n        /* \"#utility.yul\":26348:26370   */\n      add\n        /* \"#utility.yul\":26302:26380   */\n      tag_538\n      jump\t// in\n    tag_850:\n        /* \"#utility.yul\":26292:26380   */\n      swap3\n      pop\n        /* \"#utility.yul\":26087:26390   */\n      pop\n        /* \"#utility.yul\":26429:26431   */\n      0x40\n        /* \"#utility.yul\":26455:26508   */\n      tag_851\n        /* \"#utility.yul\":26500:26507   */\n      dup7\n        /* \"#utility.yul\":26491:26497   */\n      dup3\n        /* \"#utility.yul\":26480:26489   */\n      dup8\n        /* \"#utility.yul\":26476:26498   */\n      add\n        /* \"#utility.yul\":26455:26508   */\n      tag_476\n      jump\t// in\n    tag_851:\n        /* \"#utility.yul\":26445:26508   */\n      swap2\n      pop\n        /* \"#utility.yul\":26400:26518   */\n      pop\n        /* \"#utility.yul\":25696:26525   */\n      swap3\n      pop\n      swap3\n      pop\n      swap3\n      jump\t// out\n        /* \"#utility.yul\":26531:26645   */\n    tag_539:\n        /* \"#utility.yul\":26619:26620   */\n      0x05\n        /* \"#utility.yul\":26612:26617   */\n      dup2\n        /* \"#utility.yul\":26609:26621   */\n      lt\n        /* \"#utility.yul\":26599:26639   */\n      tag_853\n      jumpi\n        /* \"#utility.yul\":26635:26636   */\n      0x00\n        /* \"#utility.yul\":26632:26633   */\n      dup1\n        /* \"#utility.yul\":26625:26637   */\n      revert\n        /* \"#utility.yul\":26599:26639   */\n    tag_853:\n        /* \"#utility.yul\":26531:26645   */\n      pop\n      jump\t// out\n        /* \"#utility.yul\":26651:26820   */\n    tag_540:\n        /* \"#utility.yul\":26712:26717   */\n      0x00\n        /* \"#utility.yul\":26750:26756   */\n      dup2\n        /* \"#utility.yul\":26737:26757   */\n      calldataload\n        /* \"#utility.yul\":26728:26757   */\n      swap1\n      pop\n        /* \"#utility.yul\":26766:26814   */\n      tag_855\n        /* \"#utility.yul\":26808:26813   */\n      dup2\n        /* \"#utility.yul\":26766:26814   */\n      tag_539\n      jump\t// in\n    tag_855:\n        /* \"#utility.yul\":26651:26820   */\n      swap3\n      swap2\n      pop\n      pop\n      jump\t// out\n        /* \"#utility.yul\":26826:27330   */\n    tag_134:\n        /* \"#utility.yul\":26909:26915   */\n      0x00\n        /* \"#utility.yul\":26917:26923   */\n      dup1\n        /* \"#utility.yul\":26966:26968   */\n      0x40\n        /* \"#utility.yul\":26954:26963   */\n      dup4\n        /* \"#utility.yul\":26945:26952   */\n      dup6\n        /* \"#utility.yul\":26941:26964   */\n      sub\n        /* \"#utility.yul\":26937:26969   */\n      slt\n        /* \"#utility.yul\":26934:27053   */\n      iszero\n      tag_857\n      jumpi\n        /* \"#utility.yul\":26972:27051   */\n      tag_858\n      tag_472\n      jump\t// in\n    tag_858:\n        /* \"#utility.yul\":26934:27053   */\n    tag_857:\n        /* \"#utility.yul\":27092:27093   */\n      0x00\n        /* \"#utility.yul\":27117:27170   */\n      tag_859\n        /* \"#utility.yul\":27162:27169   */\n      dup6\n        /* \"#utility.yul\":27153:27159   */\n      dup3\n        /* \"#utility.yul\":27142:27151   */\n      dup7\n        /* \"#utility.yul\":27138:27160   */\n      add\n        /* \"#utility.yul\":27117:27170   */\n      tag_476\n      jump\t// in\n    tag_859:\n        /* \"#utility.yul\":27107:27170   */\n      swap3\n      pop\n        /* \"#utility.yul\":27063:27180   */\n      pop\n        /* \"#utility.yul\":27219:27221   */\n      0x20\n        /* \"#utility.yul\":27245:27313   */\n      tag_860\n        /* \"#utility.yul\":27305:27312   */\n      dup6\n        /* \"#utility.yul\":27296:27302   */\n      dup3\n        /* \"#utility.yul\":27285:27294   */\n      dup7\n        /* \"#utility.yul\":27281:27303   */\n      add\n        /* \"#utility.yul\":27245:27313   */\n      tag_540\n      jump\t// in\n    tag_860:\n        /* \"#utility.yul\":27235:27313   */\n      swap2\n      pop\n        /* \"#utility.yul\":27190:27323   */\n      pop\n        /* \"#utility.yul\":26826:27330   */\n      swap3\n      pop\n      swap3\n      swap1\n      pop\n      jump\t// out\n        /* \"#utility.yul\":27336:27955   */\n    tag_148:\n        /* \"#utility.yul\":27413:27419   */\n      0x00\n        /* \"#utility.yul\":27421:27427   */\n      dup1\n        /* \"#utility.yul\":27429:27435   */\n      0x00\n        /* \"#utility.yul\":27478:27480   */\n      0x60\n        /* \"#utility.yul\":27466:27475   */\n      dup5\n        /* \"#utility.yul\":27457:27464   */\n      dup7\n        /* \"#utility.yul\":27453:27476   */\n      sub\n        /* \"#utility.yul\":27449:27481   */\n      slt\n        /* \"#utility.yul\":27446:27565   */\n      iszero\n      tag_862\n      jumpi\n        /* \"#utility.yul\":27484:27563   */\n      tag_863\n      tag_472\n      jump\t// in\n    tag_863:\n        /* \"#utility.yul\":27446:27565   */\n    tag_862:\n        /* \"#utility.yul\":27604:27605   */\n      0x00\n        /* \"#utility.yul\":27629:27682   */\n      tag_864\n        /* \"#utility.yul\":27674:27681   */\n      dup7\n        /* \"#utility.yul\":27665:27671   */\n      dup3\n        /* \"#utility.yul\":27654:27663   */\n      dup8\n        /* \"#utility.yul\":27650:27672   */\n      add\n        /* \"#utility.yul\":27629:27682   */\n      tag_510\n      jump\t// in\n    tag_864:\n        /* \"#utility.yul\":27619:27682   */\n      swap4\n      pop\n        /* \"#utility.yul\":27575:27692   */\n      pop\n        /* \"#utility.yul\":27731:27733   */\n      0x20\n        /* \"#utility.yul\":27757:27810   */\n      tag_865\n        /* \"#utility.yul\":27802:27809   */\n      dup7\n        /* \"#utility.yul\":27793:27799   */\n      dup3\n        /* \"#utility.yul\":27782:27791   */\n      dup8\n        /* \"#utility.yul\":27778:27800   */\n      add\n        /* \"#utility.yul\":27757:27810   */\n      tag_510\n      jump\t// in\n    tag_865:\n        /* \"#utility.yul\":27747:27810   */\n      swap3\n      pop\n        /* \"#utility.yul\":27702:27820   */\n      pop\n        /* \"#utility.yul\":27859:27861   */\n      0x40\n        /* \"#utility.yul\":27885:27938   */\n      tag_866\n        /* \"#utility.yul\":27930:27937   */\n      dup7\n        /* \"#utility.yul\":27921:27927   */\n      dup3\n        /* \"#utility.yul\":27910:27919   */\n      dup8\n        /* \"#utility.yul\":27906:27928   */\n      add\n        /* \"#utility.yul\":27885:27938   */\n      tag_476\n      jump\t// in\n    tag_866:\n        /* \"#utility.yul\":27875:27938   */\n      swap2\n      pop\n        /* \"#utility.yul\":27830:27948   */\n      pop\n        /* \"#utility.yul\":27336:27955   */\n      swap3\n      pop\n      swap3\n      pop\n      swap3\n      jump\t// out\n        /* \"#utility.yul\":27961:28130   */\n    tag_541:\n        /* \"#utility.yul\":28045:28056   */\n      0x00\n        /* \"#utility.yul\":28079:28085   */\n      dup3\n        /* \"#utility.yul\":28074:28077   */\n      dup3\n        /* \"#utility.yul\":28067:28086   */\n      mstore\n        /* \"#utility.yul\":28119:28123   */\n      0x20\n        /* \"#utility.yul\":28114:28117   */\n      dup3\n        /* \"#utility.yul\":28110:28124   */\n      add\n        /* \"#utility.yul\":28095:28124   */\n      swap1\n      pop\n        /* \"#utility.yul\":27961:28130   */\n      swap3\n      swap2\n      pop\n      pop\n      jump\t// out\n        /* \"#utility.yul\":28136:28307   */\n    tag_542:\n        /* \"#utility.yul\":28276:28299   */\n      0x5265636f726420646f6573206e6f742065786973740000000000000000000000\n        /* \"#utility.yul\":28272:28273   */\n      0x00\n        /* \"#utility.yul\":28264:28270   */\n      dup3\n        /* \"#utility.yul\":28260:28274   */\n      add\n        /* \"#utility.yul\":28253:28300   */\n      mstore\n        /* \"#utility.yul\":28136:28307   */\n      pop\n      jump\t// out\n        /* \"#utility.yul\":28313:28679   */\n    tag_543:\n        /* \"#utility.yul\":28455:28458   */\n      0x00\n        /* \"#utility.yul\":28476:28543   */\n      tag_870\n        /* \"#utility.yul\":28540:28542   */\n      0x15\n        /* \"#utility.yul\":28535:28538   */\n      dup4\n        /* \"#utility.yul\":28476:28543   */\n      tag_541\n      jump\t// in\n    tag_870:\n        /* \"#utility.yul\":28469:28543   */\n      swap2\n      pop\n        /* \"#utility.yul\":28552:28645   */\n      tag_871\n        /* \"#utility.yul\":28641:28644   */\n      dup3\n        /* \"#utility.yul\":28552:28645   */\n      tag_542\n      jump\t// in\n    tag_871:\n        /* \"#utility.yul\":28670:28672   */\n      0x20\n        /* \"#utility.yul\":28665:28668   */\n      dup3\n        /* \"#utility.yul\":28661:28673   */\n      add\n        /* \"#utility.yul\":28654:28673   */\n      swap1\n      pop\n        /* \"#utility.yul\":28313:28679   */\n      swap2\n      swap1\n      pop\n      jump\t// out\n        /* \"#utility.yul\":28685:29104   */\n    tag_161:\n        /* \"#utility.yul\":28851:28855   */\n      0x00\n        /* \"#utility.yul\":28889:28891   */\n      0x20\n        /* \"#utility.yul\":28878:28887   */\n      dup3\n        /* \"#utility.yul\":28874:28892   */\n      add\n        /* \"#utility.yul\":28866:28892   */\n      swap1\n      pop\n        /* \"#utility.yul\":28938:28947   */\n      dup2\n        /* \"#utility.yul\":28932:28936   */\n      dup2\n        /* \"#utility.yul\":28928:28948   */\n      sub\n        /* \"#utility.yul\":28924:28925   */\n      0x00\n        /* \"#utility.yul\":28913:28922   */\n      dup4\n        /* \"#utility.yul\":28909:28926   */\n      add\n        /* \"#utility.yul\":28902:28949   */\n      mstore\n        /* \"#utility.yul\":28966:29097   */\n      tag_873\n        /* \"#utility.yul\":29092:29096   */\n      dup2\n        /* \"#utility.yul\":28966:29097   */\n      tag_543\n      jump\t// in\n    tag_873:\n        /* \"#utility.yul\":28958:29097   */\n      swap1\n      pop\n        /* \"#utility.yul\":28685:29104   */\n      swap2\n      swap1\n      pop\n      jump\t// out\n        /* \"#utility.yul\":29110:29280   */\n    tag_544:\n        /* \"#utility.yul\":29250:29272   */\n      0x5265636f7264206973206e6f7420616374697665000000000000000000000000\n        /* \"#utility.yul\":29246:29247   */\n      0x00\n        /* \"#utility.yul\":29238:29244   */\n      dup3\n        /* \"#utility.yul\":29234:29248   */\n      add\n        /* \"#utility.yul\":29227:29273   */\n      mstore\n        /* \"#utility.yul\":29110:29280   */\n      pop\n      jump\t// out\n        /* \"#utility.yul\":29286:29652   */\n    tag_545:\n        /* \"#utility.yul\":29428:29431   */\n      0x00\n        /* \"#utility.yul\":29449:29516   */\n      tag_876\n        /* \"#utility.yul\":29513:29515   */\n      0x14\n        /* \"#utility.yul\":29508:29511   */\n      dup4\n        /* \"#utility.yul\":29449:29516   */\n      tag_541\n      jump\t// in\n    tag_876:\n        /* \"#utility.yul\":29442:29516   */\n      swap2\n      pop\n        /* \"#utility.yul\":29525:29618   */\n      tag_877\n        /* \"#utility.yul\":29614:29617   */\n      dup3\n        /* \"#utility.yul\":29525:29618   */\n      tag_544\n      jump\t// in\n    tag_877:\n        /* \"#utility.yul\":29643:29645   */\n      0x20\n        /* \"#utility.yul\":29638:29641   */\n      dup3\n        /* \"#utility.yul\":29634:29646   */\n      add\n        /* \"#utility.yul\":29627:29646   */\n      swap1\n      pop\n        /* \"#utility.yul\":29286:29652   */\n      swap2\n      swap1\n      pop\n      jump\t// out\n        /* \"#utility.yul\":29658:30077   */\n    tag_164:\n        /* \"#utility.yul\":29824:29828   */\n      0x00\n        /* \"#utility.yul\":29862:29864   */\n      0x20\n        /* \"#utility.yul\":29851:29860   */\n      dup3\n        /* \"#utility.yul\":29847:29865   */\n      add\n        /* \"#utility.yul\":29839:29865   */\n      swap1\n      pop\n        /* \"#utility.yul\":29911:29920   */\n      dup2\n        /* \"#utility.yul\":29905:29909   */\n      dup2\n        /* \"#utility.yul\":29901:29921   */\n      sub\n        /* \"#utility.yul\":29897:29898   */\n      0x00\n        /* \"#utility.yul\":29886:29895   */\n      dup4\n        /* \"#utility.yul\":29882:29899   */\n      add\n        /* \"#utility.yul\":29875:29922   */\n      mstore\n        /* \"#utility.yul\":29939:30070   */\n      tag_879\n        /* \"#utility.yul\":30065:30069   */\n      dup2\n        /* \"#utility.yul\":29939:30070   */\n      tag_545\n      jump\t// in\n    tag_879:\n        /* \"#utility.yul\":29931:30070   */\n      swap1\n      pop\n        /* \"#utility.yul\":29658:30077   */\n      swap2\n      swap1\n      pop\n      jump\t// out\n        /* \"#utility.yul\":30083:30306   */\n    tag_546:\n        /* \"#utility.yul\":30223:30257   */\n      0x4f6e6c792070617469656e742063616e20706572666f726d2074686973206163\n        /* \"#utility.yul\":30219:30220   */\n      0x00\n        /* \"#utility.yul\":30211:30217   */\n      dup3\n        /* \"#utility.yul\":30207:30221   */\n      add\n        /* \"#utility.yul\":30200:30258   */\n      mstore\n        /* \"#utility.yul\":30292:30298   */\n      0x74696f6e00000000000000000000000000000000000000000000000000000000\n        /* \"#utility.yul\":30287:30289   */\n      0x20\n        /* \"#utility.yul\":30279:30285   */\n      dup3\n        /* \"#utility.yul\":30275:30290   */\n      add\n        /* \"#utility.yul\":30268:30299   */\n      mstore\n        /* \"#utility.yul\":30083:30306   */\n      pop\n      jump\t// out\n        /* \"#utility.yul\":30312:30678   */\n    tag_547:\n        /* \"#utility.yul\":30454:30457   */\n      0x00\n        /* \"#utility.yul\":30475:30542   */\n      tag_882\n        /* \"#utility.yul\":30539:30541   */\n      0x24\n        /* \"#utility.yul\":30534:30537   */\n      dup4\n        /* \"#utility.yul\":30475:30542   */\n      tag_541\n      jump\t// in\n    tag_882:\n        /* \"#utility.yul\":30468:30542   */\n      swap2\n      pop\n        /* \"#utility.yul\":30551:30644   */\n      tag_883\n        /* \"#utility.yul\":30640:30643   */\n      dup3\n        /* \"#utility.yul\":30551:30644   */\n      tag_546\n      jump\t// in\n    tag_883:\n        /* \"#utility.yul\":30669:30671   */\n      0x40\n        /* \"#utility.yul\":30664:30667   */\n      dup3\n        /* \"#utility.yul\":30660:30672   */\n      add\n        /* \"#utility.yul\":30653:30672   */\n      swap1\n      pop\n        /* \"#utility.yul\":30312:30678   */\n      swap2\n      swap1\n      pop\n      jump\t// out\n        /* \"#utility.yul\":30684:31103   */\n    tag_168:\n        /* \"#utility.yul\":30850:30854   */\n      0x00\n        /* \"#utility.yul\":30888:30890   */\n      0x20\n        /* \"#utility.yul\":30877:30886   */\n      dup3\n        /* \"#utility.yul\":30873:30891   */\n      add\n        /* \"#utility.yul\":30865:30891   */\n      swap1\n      pop\n        /* \"#utility.yul\":30937:30946   */\n      dup2\n        /* \"#utility.yul\":30931:30935   */\n      dup2\n        /* \"#utility.yul\":30927:30947   */\n      sub\n        /* \"#utility.yul\":30923:30924   */\n      0x00\n        /* \"#utility.yul\":30912:30921   */\n      dup4\n        /* \"#utility.yul\":30908:30925   */\n      add\n        /* \"#utility.yul\":30901:30948   */\n      mstore\n        /* \"#utility.yul\":30965:31096   */\n      tag_885\n        /* \"#utility.yul\":31091:31095   */\n      dup2\n        /* \"#utility.yul\":30965:31096   */\n      tag_547\n      jump\t// in\n    tag_885:\n        /* \"#utility.yul\":30957:31096   */\n      swap1\n      pop\n        /* \"#utility.yul\":30684:31103   */\n      swap2\n      swap1\n      pop\n      jump\t// out\n        /* \"#utility.yul\":31109:31332   */\n    tag_548:\n        /* \"#utility.yul\":31249:31283   */\n      0x4e6f7420617574686f72697a656420746f206163636573732074686973207265\n        /* \"#utility.yul\":31245:31246   */\n      0x00\n        /* \"#utility.yul\":31237:31243   */\n      dup3\n        /* \"#utility.yul\":31233:31247   */\n      add\n        /* \"#utility.yul\":31226:31284   */\n      mstore\n        /* \"#utility.yul\":31318:31324   */\n      0x636f726400000000000000000000000000000000000000000000000000000000\n        /* \"#utility.yul\":31313:31315   */\n      0x20\n        /* \"#utility.yul\":31305:31311   */\n      dup3\n        /* \"#utility.yul\":31301:31316   */\n      add\n        /* \"#utility.yul\":31294:31325   */\n      mstore\n        /* \"#utility.yul\":31109:31332   */\n      pop\n      jump\t// out\n        /* \"#utility.yul\":31338:31704   */\n    tag_549:\n        /* \"#utility.yul\":31480:31483   */\n      0x00\n        /* \"#utility.yul\":31501:31568   */\n      tag_888\n        /* \"#utility.yul\":31565:31567   */\n      0x24\n        /* \"#utility.yul\":31560:31563   */\n      dup4\n        /* \"#utility.yul\":31501:31568   */\n      tag_541\n      jump\t// in\n    tag_888:\n        /* \"#utility.yul\":31494:31568   */\n      swap2\n      pop\n        /* \"#utility.yul\":31577:31670   */\n      tag_889\n        /* \"#utility.yul\":31666:31669   */\n      dup3\n        /* \"#utility.yul\":31577:31670   */\n      tag_548\n      jump\t// in\n    tag_889:\n        /* \"#utility.yul\":31695:31697   */\n      0x40\n        /* \"#utility.yul\":31690:31693   */\n      dup3\n        /* \"#utility.yul\":31686:31698   */\n      add\n        /* \"#utility.yul\":31679:31698   */\n      swap1\n      pop\n        /* \"#utility.yul\":31338:31704   */\n      swap2\n      swap1\n      pop\n      jump\t// out\n        /* \"#utility.yul\":31710:32129   */\n    tag_194:\n        /* \"#utility.yul\":31876:31880   */\n      0x00\n        /* \"#utility.yul\":31914:31916   */\n      0x20\n        /* \"#utility.yul\":31903:31912   */\n      dup3\n        /* \"#utility.yul\":31899:31917   */\n      add\n        /* \"#utility.yul\":31891:31917   */\n      swap1\n      pop\n        /* \"#utility.yul\":31963:31972   */\n      dup2\n        /* \"#utility.yul\":31957:31961   */\n      dup2\n        /* \"#utility.yul\":31953:31973   */\n      sub\n        /* \"#utility.yul\":31949:31950   */\n      0x00\n        /* \"#utility.yul\":31938:31947   */\n      dup4\n        /* \"#utility.yul\":31934:31951   */\n      add\n        /* \"#utility.yul\":31927:31974   */\n      mstore\n        /* \"#utility.yul\":31991:32122   */\n      tag_891\n        /* \"#utility.yul\":32117:32121   */\n      dup2\n        /* \"#utility.yul\":31991:32122   */\n      tag_549\n      jump\t// in\n    tag_891:\n        /* \"#utility.yul\":31983:32122   */\n      swap1\n      pop\n        /* \"#utility.yul\":31710:32129   */\n      swap2\n      swap1\n      pop\n      jump\t// out\n        /* \"#utility.yul\":32135:32315   */\n    tag_550:\n        /* \"#utility.yul\":32183:32260   */\n      0x4e487b7100000000000000000000000000000000000000000000000000000000\n        /* \"#utility.yul\":32180:32181   */\n      0x00\n        /* \"#utility.yul\":32173:32261   */\n      mstore\n        /* \"#utility.yul\":32280:32284   */\n      0x22\n        /* \"#utility.yul\":32277:32278   */\n      0x04\n        /* \"#utility.yul\":32270:32285   */\n      mstore\n        /* \"#utility.yul\":32304:32308   */\n      0x24\n        /* \"#utility.yul\":32301:32302   */\n      0x00\n        /* \"#utility.yul\":32294:32309   */\n      revert\n        /* \"#utility.yul\":32321:32641   */\n    tag_197:\n        /* \"#utility.yul\":32365:32371   */\n      0x00\n        /* \"#utility.yul\":32402:32403   */\n      0x02\n        /* \"#utility.yul\":32396:32400   */\n      dup3\n        /* \"#utility.yul\":32392:32404   */\n      div\n        /* \"#utility.yul\":32382:32404   */\n      swap1\n      pop\n        /* \"#utility.yul\":32449:32450   */\n      0x01\n        /* \"#utility.yul\":32443:32447   */\n      dup3\n        /* \"#utility.yul\":32439:32451   */\n      and\n        /* \"#utility.yul\":32470:32488   */\n      dup1\n        /* \"#utility.yul\":32460:32541   */\n      tag_894\n      jumpi\n        /* \"#utility.yul\":32526:32530   */\n      0x7f\n        /* \"#utility.yul\":32518:32524   */\n      dup3\n        /* \"#utility.yul\":32514:32531   */\n      and\n        /* \"#utility.yul\":32504:32531   */\n      swap2\n      pop\n        /* \"#utility.yul\":32460:32541   */\n    tag_894:\n        /* \"#utility.yul\":32588:32590   */\n      0x20\n        /* \"#utility.yul\":32580:32586   */\n      dup3\n        /* \"#utility.yul\":32577:32591   */\n      lt\n        /* \"#utility.yul\":32557:32575   */\n      dup2\n        /* \"#utility.yul\":32554:32592   */\n      sub\n        /* \"#utility.yul\":32551:32635   */\n      tag_895\n      jumpi\n        /* \"#utility.yul\":32607:32625   */\n      tag_896\n      tag_550\n      jump\t// in\n    tag_896:\n        /* \"#utility.yul\":32551:32635   */\n    tag_895:\n        /* \"#utility.yul\":32372:32641   */\n      pop\n        /* \"#utility.yul\":32321:32641   */\n      swap2\n      swap1\n      pop\n      jump\t// out\n        /* \"#utility.yul\":32647:32823   */\n    tag_551:\n        /* \"#utility.yul\":32787:32815   */\n      0x4e6f7420616e20617574686f72697a65642070726f7669646572000000000000\n        /* \"#utility.yul\":32783:32784   */\n      0x00\n        /* \"#utility.yul\":32775:32781   */\n      dup3\n        /* \"#utility.yul\":32771:32785   */\n      add\n        /* \"#utility.yul\":32764:32816   */\n      mstore\n        /* \"#utility.yul\":32647:32823   */\n      pop\n      jump\t// out\n        /* \"#utility.yul\":32829:33195   */\n    tag_552:\n        /* \"#utility.yul\":32971:32974   */\n      0x00\n        /* \"#utility.yul\":32992:33059   */\n      tag_899\n        /* \"#utility.yul\":33056:33058   */\n      0x1a\n        /* \"#utility.yul\":33051:33054   */\n      dup4\n        /* \"#utility.yul\":32992:33059   */\n      tag_541\n      jump\t// in\n    tag_899:\n        /* \"#utility.yul\":32985:33059   */\n      swap2\n      pop\n        /* \"#utility.yul\":33068:33161   */\n      tag_900\n        /* \"#utility.yul\":33157:33160   */\n      dup3\n        /* \"#utility.yul\":33068:33161   */\n      tag_551\n      jump\t// in\n    tag_900:\n        /* \"#utility.yul\":33186:33188   */\n      0x20\n        /* \"#utility.yul\":33181:33184   */\n      dup3\n        /* \"#utility.yul\":33177:33189   */\n      add\n        /* \"#utility.yul\":33170:33189   */\n      swap1\n      pop\n        /* \"#utility.yul\":32829:33195   */\n      swap2\n      swap1\n      pop\n      jump\t// out\n        /* \"#utility.yul\":33201:33620   */\n    tag_226:\n        /* \"#utility.yul\":33367:33371   */\n      0x00\n        /* \"#utility.yul\":33405:33407   */\n      0x20\n        /* \"#utility.yul\":33394:33403   */\n      dup3\n        /* \"#utility.yul\":33390:33408   */\n      add\n        /* \"#utility.yul\":33382:33408   */\n      swap1\n      pop\n        /* \"#utility.yul\":33454:33463   */\n      dup2\n        /* \"#utility.yul\":33448:33452   */\n      dup2\n        /* \"#utility.yul\":33444:33464   */\n      sub\n        /* \"#utility.yul\":33440:33441   */\n      0x00\n        /* \"#utility.yul\":33429:33438   */\n      dup4\n        /* \"#utility.yul\":33425:33442   */\n      add\n        /* \"#utility.yul\":33418:33465   */\n      mstore\n        /* \"#utility.yul\":33482:33613   */\n      tag_902\n        /* \"#utility.yul\":33608:33612   */\n      dup2\n        /* \"#utility.yul\":33482:33613   */\n      tag_552\n      jump\t// in\n    tag_902:\n        /* \"#utility.yul\":33474:33613   */\n      swap1\n      pop\n        /* \"#utility.yul\":33201:33620   */\n      swap2\n      swap1\n      pop\n      jump\t// out\n        /* \"#utility.yul\":33626:33799   */\n    tag_553:\n        /* \"#utility.yul\":33766:33791   */\n      0x496e76616c69642070617469656e742061646472657373000000000000000000\n        /* \"#utility.yul\":33762:33763   */\n      0x00\n        /* \"#utility.yul\":33754:33760   */\n      dup3\n        /* \"#utility.yul\":33750:33764   */\n      add\n        /* \"#utility.yul\":33743:33792   */\n      mstore\n        /* \"#utility.yul\":33626:33799   */\n      pop\n      jump\t// out\n        /* \"#utility.yul\":33805:34171   */\n    tag_554:\n        /* \"#utility.yul\":33947:33950   */\n      0x00\n        /* \"#utility.yul\":33968:34035   */\n      tag_905\n        /* \"#utility.yul\":34032:34034   */\n      0x17\n        /* \"#utility.yul\":34027:34030   */\n      dup4\n        /* \"#utility.yul\":33968:34035   */\n      tag_541\n      jump\t// in\n    tag_905:\n        /* \"#utility.yul\":33961:34035   */\n      swap2\n      pop\n        /* \"#utility.yul\":34044:34137   */\n      tag_906\n        /* \"#utility.yul\":34133:34136   */\n      dup3\n        /* \"#utility.yul\":34044:34137   */\n      tag_553\n      jump\t// in\n    tag_906:\n        /* \"#utility.yul\":34162:34164   */\n      0x20\n        /* \"#utility.yul\":34157:34160   */\n      dup3\n        /* \"#utility.yul\":34153:34165   */\n      add\n        /* \"#utility.yul\":34146:34165   */\n      swap1\n      pop\n        /* \"#utility.yul\":33805:34171   */\n      swap2\n      swap1\n      pop\n      jump\t// out\n        /* \"#utility.yul\":34177:34596   */\n    tag_230:\n        /* \"#utility.yul\":34343:34347   */\n      0x00\n        /* \"#utility.yul\":34381:34383   */\n      0x20\n        /* \"#utility.yul\":34370:34379   */\n      dup3\n        /* \"#utility.yul\":34366:34384   */\n      add\n        /* \"#utility.yul\":34358:34384   */\n      swap1\n      pop\n        /* \"#utility.yul\":34430:34439   */\n      dup2\n        /* \"#utility.yul\":34424:34428   */\n      dup2\n        /* \"#utility.yul\":34420:34440   */\n      sub\n        /* \"#utility.yul\":34416:34417   */\n      0x00\n        /* \"#utility.yul\":34405:34414   */\n      dup4\n        /* \"#utility.yul\":34401:34418   */\n      add\n        /* \"#utility.yul\":34394:34441   */\n      mstore\n        /* \"#utility.yul\":34458:34589   */\n      tag_908\n        /* \"#utility.yul\":34584:34588   */\n      dup2\n        /* \"#utility.yul\":34458:34589   */\n      tag_554\n      jump\t// in\n    tag_908:\n        /* \"#utility.yul\":34450:34589   */\n      swap1\n      pop\n        /* \"#utility.yul\":34177:34596   */\n      swap2\n      swap1\n      pop\n      jump\t// out\n        /* \"#utility.yul\":34602:34777   */\n    tag_555:\n        /* \"#utility.yul\":34742:34769   */\n      0x4950465320686173682063616e6e6f7420626520656d70747900000000000000\n        /* \"#utility.yul\":34738:34739   */\n      0x00\n        /* \"#utility.yul\":34730:34736   */\n      dup3\n        /* \"#utility.yul\":34726:34740   */\n      add\n        /* \"#utility.yul\":34719:34770   */\n      mstore\n        /* \"#utility.yul\":34602:34777   */\n      pop\n      jump\t// out\n        /* \"#utility.yul\":34783:35149   */\n    tag_556:\n        /* \"#utility.yul\":34925:34928   */\n      0x00\n        /* \"#utility.yul\":34946:35013   */\n      tag_911\n        /* \"#utility.yul\":35010:35012   */\n      0x19\n        /* \"#utility.yul\":35005:35008   */\n      dup4\n        /* \"#utility.yul\":34946:35013   */\n      tag_541\n      jump\t// in\n    tag_911:\n        /* \"#utility.yul\":34939:35013   */\n      swap2\n      pop\n        /* \"#utility.yul\":35022:35115   */\n      tag_912\n        /* \"#utility.yul\":35111:35114   */\n      dup3\n        /* \"#utility.yul\":35022:35115   */\n      tag_555\n      jump\t// in\n    tag_912:\n        /* \"#utility.yul\":35140:35142   */\n      0x20\n        /* \"#utility.yul\":35135:35138   */\n      dup3\n        /* \"#utility.yul\":35131:35143   */\n      add\n        /* \"#utility.yul\":35124:35143   */\n      swap1\n      pop\n        /* \"#utility.yul\":34783:35149   */\n      swap2\n      swap1\n      pop\n      jump\t// out\n        /* \"#utility.yul\":35155:35574   */\n    tag_233:\n        /* \"#utility.yul\":35321:35325   */\n      0x00\n        /* \"#utility.yul\":35359:35361   */\n      0x20\n        /* \"#utility.yul\":35348:35357   */\n      dup3\n        /* \"#utility.yul\":35344:35362   */\n      add\n        /* \"#utility.yul\":35336:35362   */\n      swap1\n      pop\n        /* \"#utility.yul\":35408:35417   */\n      dup2\n        /* \"#utility.yul\":35402:35406   */\n      dup2\n        /* \"#utility.yul\":35398:35418   */\n      sub\n        /* \"#utility.yul\":35394:35395   */\n      0x00\n        /* \"#utility.yul\":35383:35392   */\n      dup4\n        /* \"#utility.yul\":35379:35396   */\n      add\n        /* \"#utility.yul\":35372:35419   */\n      mstore\n        /* \"#utility.yul\":35436:35567   */\n      tag_914\n        /* \"#utility.yul\":35562:35566   */\n      dup2\n        /* \"#utility.yul\":35436:35567   */\n      tag_556\n      jump\t// in\n    tag_914:\n        /* \"#utility.yul\":35428:35567   */\n      swap1\n      pop\n        /* \"#utility.yul\":35155:35574   */\n      swap2\n      swap1\n      pop\n      jump\t// out\n        /* \"#utility.yul\":35580:35760   */\n    tag_557:\n        /* \"#utility.yul\":35628:35705   */\n      0x4e487b7100000000000000000000000000000000000000000000000000000000\n        /* \"#utility.yul\":35625:35626   */\n      0x00\n        /* \"#utility.yul\":35618:35706   */\n      mstore\n        /* \"#utility.yul\":35725:35729   */\n      0x11\n        /* \"#utility.yul\":35722:35723   */\n      0x04\n        /* \"#utility.yul\":35715:35730   */\n      mstore\n        /* \"#utility.yul\":35749:35753   */\n      0x24\n        /* \"#utility.yul\":35746:35747   */\n      0x00\n        /* \"#utility.yul\":35739:35754   */\n      revert\n        /* \"#utility.yul\":35766:35999   */\n    tag_235:\n        /* \"#utility.yul\":35805:35808   */\n      0x00\n        /* \"#utility.yul\":35828:35852   */\n      tag_917\n        /* \"#utility.yul\":35846:35851   */\n      dup3\n        /* \"#utility.yul\":35828:35852   */\n      tag_474\n      jump\t// in\n    tag_917:\n        /* \"#utility.yul\":35819:35852   */\n      swap2\n      pop\n        /* \"#utility.yul\":35874:35940   */\n      0xffffffffffffffffffffffffffffffffffffffffffffffffffffffffffffffff\n        /* \"#utility.yul\":35867:35872   */\n      dup3\n        /* \"#utility.yul\":35864:35941   */\n      sub\n        /* \"#utility.yul\":35861:35964   */\n      tag_918\n      jumpi\n        /* \"#utility.yul\":35944:35962   */\n      tag_919\n      tag_557\n      jump\t// in\n    tag_919:\n        /* \"#utility.yul\":35861:35964   */\n    tag_918:\n        /* \"#utility.yul\":35991:35992   */\n      0x01\n        /* \"#utility.yul\":35984:35989   */\n      dup3\n        /* \"#utility.yul\":35980:35993   */\n      add\n        /* \"#utility.yul\":35973:35993   */\n      swap1\n      pop\n        /* \"#utility.yul\":35766:35999   */\n      swap2\n      swap1\n      pop\n      jump\t// out\n        /* \"#utility.yul\":36005:36146   */\n    tag_558:\n        /* \"#utility.yul\":36054:36058   */\n      0x00\n        /* \"#utility.yul\":36077:36080   */\n      dup2\n        /* \"#utility.yul\":36069:36080   */\n      swap1\n      pop\n        /* \"#utility.yul\":36100:36103   */\n      dup2\n        /* \"#utility.yul\":36097:36098   */\n      0x00\n        /* \"#utility.yul\":36090:36104   */\n      mstore\n        /* \"#utility.yul\":36134:36138   */\n      0x20\n        /* \"#utility.yul\":36131:36132   */\n      0x00\n        /* \"#utility.yul\":36121:36139   */\n      keccak256\n        /* \"#utility.yul\":36113:36139   */\n      swap1\n      pop\n        /* \"#utility.yul\":36005:36146   */\n      swap2\n      swap1\n      pop\n      jump\t// out\n        /* \"#utility.yul\":36152:36245   */\n    tag_559:\n        /* \"#utility.yul\":36189:36195   */\n      0x00\n        /* \"#utility.yul\":36236:36238   */\n      0x20\n        /* \"#utility.yul\":36231:36233   */\n      0x1f\n        /* \"#utility.yul\":36224:36229   */\n      dup4\n        /* \"#utility.yul\":36220:36234   */\n      add\n        /* \"#utility.yul\":36216:36239   */\n      div\n        /* \"#utility.yul\":36206:36239   */\n      swap1\n      pop\n        /* \"#utility.yul\":36152:36245   */\n      swap2\n      swap1\n      pop\n      jump\t// out\n        /* \"#utility.yul\":36251:36358   */\n    tag_560:\n        /* \"#utility.yul\":36295:36303   */\n      0x00\n        /* \"#utility.yul\":36345:36350   */\n      dup3\n        /* \"#utility.yul\":36339:36343   */\n      dup3\n        /* \"#utility.yul\":36335:36351   */\n      shl\n        /* \"#utility.yul\":36314:36351   */\n      swap1\n      pop\n        /* \"#utility.yul\":36251:36358   */\n      swap3\n      swap2\n      pop\n      pop\n      jump\t// out\n        /* \"#utility.yul\":36364:36757   */\n    tag_561:\n        /* \"#utility.yul\":36433:36439   */\n      0x00\n        /* \"#utility.yul\":36483:36484   */\n      0x08\n        /* \"#utility.yul\":36471:36481   */\n      dup4\n        /* \"#utility.yul\":36467:36485   */\n      mul\n        /* \"#utility.yul\":36506:36603   */\n      tag_924\n        /* \"#utility.yul\":36536:36602   */\n      0xffffffffffffffffffffffffffffffffffffffffffffffffffffffffffffffff\n        /* \"#utility.yul\":36525:36534   */\n      dup3\n        /* \"#utility.yul\":36506:36603   */\n      tag_560\n      jump\t// in\n    tag_924:\n        /* \"#utility.yul\":36624:36663   */\n      tag_925\n        /* \"#utility.yul\":36654:36662   */\n      dup7\n        /* \"#utility.yul\":36643:36652   */\n      dup4\n        /* \"#utility.yul\":36624:36663   */\n      tag_560\n      jump\t// in\n    tag_925:\n        /* \"#utility.yul\":36612:36663   */\n      swap6\n      pop\n        /* \"#utility.yul\":36696:36700   */\n      dup1\n        /* \"#utility.yul\":36692:36701   */\n      not\n        /* \"#utility.yul\":36685:36690   */\n      dup5\n        /* \"#utility.yul\":36681:36702   */\n      and\n        /* \"#utility.yul\":36672:36702   */\n      swap4\n      pop\n        /* \"#utility.yul\":36745:36749   */\n      dup1\n        /* \"#utility.yul\":36735:36743   */\n      dup7\n        /* \"#utility.yul\":36731:36750   */\n      and\n        /* \"#utility.yul\":36724:36729   */\n      dup5\n        /* \"#utility.yul\":36721:36751   */\n      or\n        /* \"#utility.yul\":36711:36751   */\n      swap3\n      pop\n        /* \"#utility.yul\":36440:36757   */\n      pop\n      pop\n        /* \"#utility.yul\":36364:36757   */\n      swap4\n      swap3\n      pop\n      pop\n      pop\n      jump\t// out\n        /* \"#utility.yul\":36763:36823   */\n    tag_562:\n        /* \"#utility.yul\":36791:36794   */\n      0x00\n        /* \"#utility.yul\":36812:36817   */\n      dup2\n        /* \"#utility.yul\":36805:36817   */\n      swap1\n      pop\n        /* \"#utility.yul\":36763:36823   */\n      swap2\n      swap1\n      pop\n      jump\t// out\n        /* \"#utility.yul\":36829:36971   */\n    tag_563:\n        /* \"#utility.yul\":36879:36888   */\n      0x00\n        /* \"#utility.yul\":36912:36965   */\n      tag_928\n        /* \"#utility.yul\":36930:36964   */\n      tag_929\n        /* \"#utility.yul\":36939:36963   */\n      tag_930\n        /* \"#utility.yul\":36957:36962   */\n      dup5\n        /* \"#utility.yul\":36939:36963   */\n      tag_474\n      jump\t// in\n    tag_930:\n        /* \"#utility.yul\":36930:36964   */\n      tag_562\n      jump\t// in\n    tag_929:\n        /* \"#utility.yul\":36912:36965   */\n      tag_474\n      jump\t// in\n    tag_928:\n        /* \"#utility.yul\":36899:36965   */\n      swap1\n      pop\n        /* \"#utility.yul\":36829:36971   */\n      swap2\n      swap1\n      pop\n      jump\t// out\n        /* \"#utility.yul\":36977:37052   */\n    tag_564:\n        /* \"#utility.yul\":37020:37023   */\n      0x00\n        /* \"#utility.yul\":37041:37046   */\n      dup2\n        /* \"#utility.yul\":37034:37046   */\n      swap1\n      pop\n        /* \"#utility.yul\":36977:37052   */\n      swap2\n      swap1\n      pop\n      jump\t// out\n        /* \"#utility.yul\":37058:37327   */\n    tag_565:\n        /* \"#utility.yul\":37168:37207   */\n      tag_933\n        /* \"#utility.yul\":37199:37206   */\n      dup4\n        /* \"#utility.yul\":37168:37207   */\n      tag_563\n      jump\t// in\n    tag_933:\n        /* \"#utility.yul\":37229:37320   */\n      tag_934\n        /* \"#utility.yul\":37278:37319   */\n      tag_935\n        /* \"#utility.yul\":37302:37318   */\n      dup3\n        /* \"#utility.yul\":37278:37319   */\n      tag_564\n      jump\t// in\n    tag_935:\n        /* \"#utility.yul\":37270:37276   */\n      dup5\n        /* \"#utility.yul\":37263:37267   */\n      dup5\n        /* \"#utility.yul\":37257:37268   */\n      sload\n        /* \"#utility.yul\":37229:37320   */\n      tag_561\n      jump\t// in\n    tag_934:\n        /* \"#utility.yul\":37223:37227   */\n      dup3\n        /* \"#utility.yul\":37216:37321   */\n      sstore\n        /* \"#utility.yul\":37134:37327   */\n      pop\n        /* \"#utility.yul\":37058:37327   */\n      pop\n      pop\n      pop\n      jump\t// out\n        /* \"#utility.yul\":37333:37406   */\n    tag_566:\n        /* \"#utility.yul\":37378:37381   */\n      0x00\n        /* \"#utility.yul\":37333:37406   */\n      swap1\n      jump\t// out\n        /* \"#utility.yul\":37412:37601   */\n    tag_567:\n        /* \"#utility.yul\":37489:37521   */\n      tag_938\n      tag_566\n      jump\t// in\n    tag_938:\n        /* \"#utility.yul\":37530:37595   */\n      tag_939\n        /* \"#utility.yul\":37588:37594   */\n      dup2\n        /* \"#utility.yul\":37580:37586   */\n      dup5\n        /* \"#utility.yul\":37574:37578   */\n      dup5\n        /* \"#utility.yul\":37530:37595   */\n      tag_565\n      jump\t// in\n    tag_939:\n        /* \"#utility.yul\":37465:37601   */\n      pop\n        /* \"#utility.yul\":37412:37601   */\n      pop\n      pop\n      jump\t// out\n        /* \"#utility.yul\":37607:37793   */\n    tag_568:\n        /* \"#utility.yul\":37667:37787   */\n    tag_941:\n        /* \"#utility.yul\":37684:37687   */\n      dup2\n        /* \"#utility.yul\":37677:37682   */\n      dup2\n        /* \"#utility.yul\":37674:37688   */\n      lt\n        /* \"#utility.yul\":37667:37787   */\n      iszero\n      tag_943\n      jumpi\n        /* \"#utility.yul\":37738:37777   */\n      tag_944\n        /* \"#utility.yul\":37775:37776   */\n      0x00\n        /* \"#utility.yul\":37768:37773   */\n      dup3\n        /* \"#utility.yul\":37738:37777   */\n      tag_567\n      jump\t// in\n    tag_944:\n        /* \"#utility.yul\":37711:37712   */\n      0x01\n        /* \"#utility.yul\":37704:37709   */\n      dup2\n        /* \"#utility.yul\":37700:37713   */\n      add\n        /* \"#utility.yul\":37691:37713   */\n      swap1\n      pop\n        /* \"#utility.yul\":37667:37787   */\n      jump(tag_941)\n    tag_943:\n        /* \"#utility.yul\":37607:37793   */\n      pop\n      pop\n      jump\t// out\n        /* \"#utility.yul\":37799:38342   */\n    tag_569:\n        /* \"#utility.yul\":37900:37902   */\n      0x1f\n        /* \"#utility.yul\":37895:37898   */\n      dup3\n        /* \"#utility.yul\":37892:37903   */\n      gt\n        /* \"#utility.yul\":37889:38335   */\n      iszero\n      tag_946\n      jumpi\n        /* \"#utility.yul\":37934:37972   */\n      tag_947\n        /* \"#utility.yul\":37966:37971   */\n      dup2\n        /* \"#utility.yul\":37934:37972   */\n      tag_558\n      jump\t// in\n    tag_947:\n        /* \"#utility.yul\":38018:38047   */\n      tag_948\n        /* \"#utility.yul\":38036:38046   */\n      dup5\n        /* \"#utility.yul\":38018:38047   */\n      tag_559\n      jump\t// in\n    tag_948:\n        /* \"#utility.yul\":38008:38016   */\n      dup2\n        /* \"#utility.yul\":38004:38048   */\n      add\n        /* \"#utility.yul\":38201:38203   */\n      0x20\n        /* \"#utility.yul\":38189:38199   */\n      dup6\n        /* \"#utility.yul\":38186:38204   */\n      lt\n        /* \"#utility.yul\":38183:38232   */\n      iszero\n      tag_949\n      jumpi\n        /* \"#utility.yul\":38222:38230   */\n      dup2\n        /* \"#utility.yul\":38207:38230   */\n      swap1\n      pop\n        /* \"#utility.yul\":38183:38232   */\n    tag_949:\n        /* \"#utility.yul\":38245:38325   */\n      tag_950\n        /* \"#utility.yul\":38301:38323   */\n      tag_951\n        /* \"#utility.yul\":38319:38322   */\n      dup6\n        /* \"#utility.yul\":38301:38323   */\n      tag_559\n      jump\t// in\n    tag_951:\n        /* \"#utility.yul\":38291:38299   */\n      dup4\n        /* \"#utility.yul\":38287:38324   */\n      add\n        /* \"#utility.yul\":38274:38285   */\n      dup3\n        /* \"#utility.yul\":38245:38325   */\n      tag_568\n      jump\t// in\n    tag_950:\n        /* \"#utility.yul\":37904:38335   */\n      pop\n      pop\n        /* \"#utility.yul\":37889:38335   */\n    tag_946:\n        /* \"#utility.yul\":37799:38342   */\n      pop\n      pop\n      pop\n      jump\t// out\n        /* \"#utility.yul\":38348:38465   */\n    tag_570:\n        /* \"#utility.yul\":38402:38410   */\n      0x00\n        /* \"#utility.yul\":38452:38457   */\n      dup3\n        /* \"#utility.yul\":38446:38450   */\n      dup3\n        /* \"#utility.yul\":38442:38458   */\n      shr\n        /* \"#utility.yul\":38421:38458   */\n      swap1\n      pop\n        /* \"#utility.yul\":38348:38465   */\n      swap3\n      swap2\n      pop\n      pop\n      jump\t// out\n        /* \"#utility.yul\":38471:38640   */\n    tag_571:\n        /* \"#utility.yul\":38515:38521   */\n      0x00\n        /* \"#utility.yul\":38548:38599   */\n      tag_954\n        /* \"#utility.yul\":38596:38597   */\n      0x00\n        /* \"#utility.yul\":38592:38598   */\n      not\n        /* \"#utility.yul\":38584:38589   */\n      dup5\n        /* \"#utility.yul\":38581:38582   */\n      0x08\n        /* \"#utility.yul\":38577:38590   */\n      mul\n        /* \"#utility.yul\":38548:38599   */\n      tag_570\n      jump\t// in\n    tag_954:\n        /* \"#utility.yul\":38544:38600   */\n      not\n        /* \"#utility.yul\":38629:38633   */\n      dup1\n        /* \"#utility.yul\":38623:38627   */\n      dup4\n        /* \"#utility.yul\":38619:38634   */\n      and\n        /* \"#utility.yul\":38609:38634   */\n      swap2\n      pop\n        /* \"#utility.yul\":38522:38640   */\n      pop\n        /* \"#utility.yul\":38471:38640   */\n      swap3\n      swap2\n      pop\n      pop\n      jump\t// out\n        /* \"#utility.yul\":38645:38940   */\n    tag_572:\n        /* \"#utility.yul\":38721:38725   */\n      0x00\n        /* \"#utility.yul\":38867:38896   */\n      tag_956\n        /* \"#utility.yul\":38892:38895   */\n      dup4\n        /* \"#utility.yul\":38886:38890   */\n      dup4\n        /* \"#utility.yul\":38867:38896   */\n      tag_571\n      jump\t// in\n    tag_956:\n        /* \"#utility.yul\":38859:38896   */\n      swap2\n      pop\n        /* \"#utility.yul\":38929:38932   */\n      dup3\n        /* \"#utility.yul\":38926:38927   */\n      0x02\n        /* \"#utility.yul\":38922:38933   */\n      mul\n        /* \"#utility.yul\":38916:38920   */\n      dup3\n        /* \"#utility.yul\":38913:38934   */\n      or\n        /* \"#utility.yul\":38905:38934   */\n      swap1\n      pop\n        /* \"#utility.yul\":38645:38940   */\n      swap3\n      swap2\n      pop\n      pop\n      jump\t// out\n        /* \"#utility.yul\":38945:40340   */\n    tag_239:\n        /* \"#utility.yul\":39062:39099   */\n      tag_958\n        /* \"#utility.yul\":39095:39098   */\n      dup3\n        /* \"#utility.yul\":39062:39099   */\n      tag_497\n      jump\t// in\n    tag_958:\n        /* \"#utility.yul\":39164:39182   */\n      0xffffffffffffffff\n        /* \"#utility.yul\":39156:39162   */\n      dup2\n        /* \"#utility.yul\":39153:39183   */\n      gt\n        /* \"#utility.yul\":39150:39206   */\n      iszero\n      tag_959\n      jumpi\n        /* \"#utility.yul\":39186:39204   */\n      tag_960\n      tag_275\n      jump\t// in\n    tag_960:\n        /* \"#utility.yul\":39150:39206   */\n    tag_959:\n        /* \"#utility.yul\":39230:39268   */\n      tag_961\n        /* \"#utility.yul\":39262:39266   */\n      dup3\n        /* \"#utility.yul\":39256:39267   */\n      sload\n        /* \"#utility.yul\":39230:39268   */\n      tag_197\n      jump\t// in\n    tag_961:\n        /* \"#utility.yul\":39315:39382   */\n      tag_962\n        /* \"#utility.yul\":39375:39381   */\n      dup3\n        /* \"#utility.yul\":39367:39373   */\n      dup3\n        /* \"#utility.yul\":39361:39365   */\n      dup6\n        /* \"#utility.yul\":39315:39382   */\n      tag_569\n      jump\t// in\n    tag_962:\n        /* \"#utility.yul\":39409:39410   */\n      0x00\n        /* \"#utility.yul\":39433:39437   */\n      0x20\n        /* \"#utility.yul\":39420:39437   */\n      swap1\n      pop\n        /* \"#utility.yul\":39465:39467   */\n      0x1f\n        /* \"#utility.yul\":39457:39463   */\n      dup4\n        /* \"#utility.yul\":39454:39468   */\n      gt\n        /* \"#utility.yul\":39482:39483   */\n      0x01\n        /* \"#utility.yul\":39477:40095   */\n      dup2\n      eq\n      tag_964\n      jumpi\n        /* \"#utility.yul\":40139:40140   */\n      0x00\n        /* \"#utility.yul\":40156:40162   */\n      dup5\n        /* \"#utility.yul\":40153:40230   */\n      iszero\n      tag_965\n      jumpi\n        /* \"#utility.yul\":40205:40214   */\n      dup3\n        /* \"#utility.yul\":40200:40203   */\n      dup8\n        /* \"#utility.yul\":40196:40215   */\n      add\n        /* \"#utility.yul\":40190:40216   */\n      mload\n        /* \"#utility.yul\":40181:40216   */\n      swap1\n      pop\n        /* \"#utility.yul\":40153:40230   */\n    tag_965:\n        /* \"#utility.yul\":40256:40323   */\n      tag_966\n        /* \"#utility.yul\":40316:40322   */\n      dup6\n        /* \"#utility.yul\":40309:40314   */\n      dup3\n        /* \"#utility.yul\":40256:40323   */\n      tag_572\n      jump\t// in\n    tag_966:\n        /* \"#utility.yul\":40250:40254   */\n      dup7\n        /* \"#utility.yul\":40243:40324   */\n      sstore\n        /* \"#utility.yul\":40112:40334   */\n      pop\n        /* \"#utility.yul\":39447:40334   */\n      jump(tag_963)\n        /* \"#utility.yul\":39477:40095   */\n    tag_964:\n        /* \"#utility.yul\":39529:39533   */\n      0x1f\n        /* \"#utility.yul\":39525:39534   */\n      not\n        /* \"#utility.yul\":39517:39523   */\n      dup5\n        /* \"#utility.yul\":39513:39535   */\n      and\n        /* \"#utility.yul\":39563:39600   */\n      tag_967\n        /* \"#utility.yul\":39595:39599   */\n      dup7\n        /* \"#utility.yul\":39563:39600   */\n      tag_558\n      jump\t// in\n    tag_967:\n        /* \"#utility.yul\":39622:39623   */\n      0x00\n        /* \"#utility.yul\":39636:39844   */\n    tag_968:\n        /* \"#utility.yul\":39650:39657   */\n      dup3\n        /* \"#utility.yul\":39647:39648   */\n      dup2\n        /* \"#utility.yul\":39644:39658   */\n      lt\n        /* \"#utility.yul\":39636:39844   */\n      iszero\n      tag_970\n      jumpi\n        /* \"#utility.yul\":39729:39738   */\n      dup5\n        /* \"#utility.yul\":39724:39727   */\n      dup10\n        /* \"#utility.yul\":39720:39739   */\n      add\n        /* \"#utility.yul\":39714:39740   */\n      mload\n        /* \"#utility.yul\":39706:39712   */\n      dup3\n        /* \"#utility.yul\":39699:39741   */\n      sstore\n        /* \"#utility.yul\":39780:39781   */\n      0x01\n        /* \"#utility.yul\":39772:39778   */\n      dup3\n        /* \"#utility.yul\":39768:39782   */\n      add\n        /* \"#utility.yul\":39758:39782   */\n      swap2\n      pop\n        /* \"#utility.yul\":39827:39829   */\n      0x20\n        /* \"#utility.yul\":39816:39825   */\n      dup6\n        /* \"#utility.yul\":39812:39830   */\n      add\n        /* \"#utility.yul\":39799:39830   */\n      swap5\n      pop\n        /* \"#utility.yul\":39673:39677   */\n      0x20\n        /* \"#utility.yul\":39670:39671   */\n      dup2\n        /* \"#utility.yul\":39666:39678   */\n      add\n        /* \"#utility.yul\":39661:39678   */\n      swap1\n      pop\n        /* \"#utility.yul\":39636:39844   */\n      jump(tag_968)\n    tag_970:\n        /* \"#utility.yul\":39872:39878   */\n      dup7\n        /* \"#utility.yul\":39863:39870   */\n      dup4\n        /* \"#utility.yul\":39860:39879   */\n      lt\n        /* \"#utility.yul\":39857:40036   */\n      iszero\n      tag_971\n      jumpi\n        /* \"#utility.yul\":39930:39939   */\n      dup5\n        /* \"#utility.yul\":39925:39928   */\n      dup10\n        /* \"#utility.yul\":39921:39940   */\n      add\n        /* \"#utility.yul\":39915:39941   */\n      mload\n        /* \"#utility.yul\":39973:40021   */\n      tag_972\n        /* \"#utility.yul\":40015:40019   */\n      0x1f\n        /* \"#utility.yul\":40007:40013   */\n      dup10\n        /* \"#utility.yul\":40003:40020   */\n      and\n        /* \"#utility.yul\":39992:40001   */\n      dup3\n        /* \"#utility.yul\":39973:40021   */\n      tag_571\n      jump\t// in\n    tag_972:\n        /* \"#utility.yul\":39965:39971   */\n      dup4\n        /* \"#utility.yul\":39958:40022   */\n      sstore\n        /* \"#utility.yul\":39880:40036   */\n      pop\n        /* \"#utility.yul\":39857:40036   */\n    tag_971:\n        /* \"#utility.yul\":40082:40083   */\n      0x01\n        /* \"#utility.yul\":40078:40079   */\n      0x02\n        /* \"#utility.yul\":40070:40076   */\n      dup9\n        /* \"#utility.yul\":40066:40080   */\n      mul\n        /* \"#utility.yul\":40062:40084   */\n      add\n        /* \"#utility.yul\":40056:40060   */\n      dup9\n        /* \"#utility.yul\":40049:40085   */\n      sstore\n        /* \"#utility.yul\":39484:40095   */\n      pop\n      pop\n      pop\n        /* \"#utility.yul\":39447:40334   */\n    tag_963:\n      pop\n        /* \"#utility.yul\":39037:40340   */\n      pop\n      pop\n      pop\n        /* \"#utility.yul\":38945:40340   */\n      pop\n      pop\n      jump\t// out\n        /* \"#utility.yul\":40346:40723   */\n    tag_573:\n        /* \"#utility.yul\":40434:40437   */\n      0x00\n        /* \"#utility.yul\":40462:40501   */\n      tag_974\n        /* \"#utility.yul\":40495:40500   */\n      dup3\n        /* \"#utility.yul\":40462:40501   */\n      tag_497\n      jump\t// in\n    tag_974:\n        /* \"#utility.yul\":40517:40588   */\n      tag_975\n        /* \"#utility.yul\":40581:40587   */\n      dup2\n        /* \"#utility.yul\":40576:40579   */\n      dup6\n        /* \"#utility.yul\":40517:40588   */\n      tag_541\n      jump\t// in\n    tag_975:\n        /* \"#utility.yul\":40510:40588   */\n      swap4\n      pop\n        /* \"#utility.yul\":40597:40662   */\n      tag_976\n        /* \"#utility.yul\":40655:40661   */\n      dup2\n        /* \"#utility.yul\":40650:40653   */\n      dup6\n        /* \"#utility.yul\":40643:40647   */\n      0x20\n        /* \"#utility.yul\":40636:40641   */\n      dup7\n        /* \"#utility.yul\":40632:40648   */\n      add\n        /* \"#utility.yul\":40597:40662   */\n      tag_499\n      jump\t// in\n    tag_976:\n        /* \"#utility.yul\":40687:40716   */\n      tag_977\n        /* \"#utility.yul\":40709:40715   */\n      dup2\n        /* \"#utility.yul\":40687:40716   */\n      tag_500\n      jump\t// in\n    tag_977:\n        /* \"#utility.yul\":40682:40685   */\n      dup5\n        /* \"#utility.yul\":40678:40717   */\n      add\n        /* \"#utility.yul\":40671:40717   */\n      swap2\n      pop\n        /* \"#utility.yul\":40438:40723   */\n      pop\n        /* \"#utility.yul\":40346:40723   */\n      swap3\n      swap2\n      pop\n      pop\n      jump\t// out\n        /* \"#utility.yul\":40729:40884   */\n    tag_574:\n        /* \"#utility.yul\":40828:40877   */\n      tag_979\n        /* \"#utility.yul\":40871:40876   */\n      dup2\n        /* \"#utility.yul\":40828:40877   */\n      tag_504\n      jump\t// in\n    tag_979:\n        /* \"#utility.yul\":40823:40826   */\n      dup3\n        /* \"#utility.yul\":40816:40878   */\n      mstore\n        /* \"#utility.yul\":40729:40884   */\n      pop\n      pop\n      jump\t// out\n        /* \"#utility.yul\":40890:41337   */\n    tag_245:\n        /* \"#utility.yul\":41043:41047   */\n      0x00\n        /* \"#utility.yul\":41081:41083   */\n      0x40\n        /* \"#utility.yul\":41070:41079   */\n      dup3\n        /* \"#utility.yul\":41066:41084   */\n      add\n        /* \"#utility.yul\":41058:41084   */\n      swap1\n      pop\n        /* \"#utility.yul\":41130:41139   */\n      dup2\n        /* \"#utility.yul\":41124:41128   */\n      dup2\n        /* \"#utility.yul\":41120:41140   */\n      sub\n        /* \"#utility.yul\":41116:41117   */\n      0x00\n        /* \"#utility.yul\":41105:41114   */\n      dup4\n        /* \"#utility.yul\":41101:41118   */\n      add\n        /* \"#utility.yul\":41094:41141   */\n      mstore\n        /* \"#utility.yul\":41158:41236   */\n      tag_981\n        /* \"#utility.yul\":41231:41235   */\n      dup2\n        /* \"#utility.yul\":41222:41228   */\n      dup6\n        /* \"#utility.yul\":41158:41236   */\n      tag_573\n      jump\t// in\n    tag_981:\n        /* \"#utility.yul\":41150:41236   */\n      swap1\n      pop\n        /* \"#utility.yul\":41246:41330   */\n      tag_982\n        /* \"#utility.yul\":41326:41328   */\n      0x20\n        /* \"#utility.yul\":41315:41324   */\n      dup4\n        /* \"#utility.yul\":41311:41329   */\n      add\n        /* \"#utility.yul\":41302:41308   */\n      dup5\n        /* \"#utility.yul\":41246:41330   */\n      tag_574\n      jump\t// in\n    tag_982:\n        /* \"#utility.yul\":40890:41337   */\n      swap4\n      swap3\n      pop\n      pop\n      pop\n      jump\t// out\n        /* \"#utility.yul\":41343:41517   */\n    tag_575:\n        /* \"#utility.yul\":41483:41509   */\n      0x496e76616c69642070726f766964657220616464726573730000000000000000\n        /* \"#utility.yul\":41479:41480   */\n      0x00\n        /* \"#utility.yul\":41471:41477   */\n      dup3\n        /* \"#utility.yul\":41467:41481   */\n      add\n        /* \"#utility.yul\":41460:41510   */\n      mstore\n        /* \"#utility.yul\":41343:41517   */\n      pop\n      jump\t// out\n        /* \"#utility.yul\":41523:41889   */\n    tag_576:\n        /* \"#utility.yul\":41665:41668   */\n      0x00\n        /* \"#utility.yul\":41686:41753   */\n      tag_985\n        /* \"#utility.yul\":41750:41752   */\n      0x18\n        /* \"#utility.yul\":41745:41748   */\n      dup4\n        /* \"#utility.yul\":41686:41753   */\n      tag_541\n      jump\t// in\n    tag_985:\n        /* \"#utility.yul\":41679:41753   */\n      swap2\n      pop\n        /* \"#utility.yul\":41762:41855   */\n      tag_986\n        /* \"#utility.yul\":41851:41854   */\n      dup3\n        /* \"#utility.yul\":41762:41855   */\n      tag_575\n      jump\t// in\n    tag_986:\n        /* \"#utility.yul\":41880:41882   */\n      0x20\n        /* \"#utility.yul\":41875:41878   */\n      dup3\n        /* \"#utility.yul\":41871:41883   */\n      add\n        /* \"#utility.yul\":41864:41883   */\n      swap1\n      pop\n        /* \"#utility.yul\":41523:41889   */\n      swap2\n      swap1\n      pop\n      jump\t// out\n        /* \"#utility.yul\":41895:42314   */\n    tag_252:\n        /* \"#utility.yul\":42061:42065   */\n      0x00\n        /* \"#utility.yul\":42099:42101   */\n      0x20\n        /* \"#utility.yul\":42088:42097   */\n      dup3\n        /* \"#utility.yul\":42084:42102   */\n      add\n        /* \"#utility.yul\":42076:42102   */\n      swap1\n      pop\n        /* \"#utility.yul\":42148:42157   */\n      dup2\n        /* \"#utility.yul\":42142:42146   */\n      dup2\n        /* \"#utility.yul\":42138:42158   */\n      sub\n        /* \"#utility.yul\":42134:42135   */\n      0x00\n        /* \"#utility.yul\":42123:42132   */\n      dup4\n        /* \"#utility.yul\":42119:42136   */\n      add\n        /* \"#utility.yul\":42112:42159   */\n      mstore\n        /* \"#utility.yul\":42176:42307   */\n      tag_988\n        /* \"#utility.yul\":42302:42306   */\n      dup2\n        /* \"#utility.yul\":42176:42307   */\n      tag_576\n      jump\t// in\n    tag_988:\n        /* \"#utility.yul\":42168:42307   */\n      swap1\n      pop\n        /* \"#utility.yul\":41895:42314   */\n      swap2\n      swap1\n      pop\n      jump\t// out\n        /* \"#utility.yul\":42320:42484   */\n    tag_577:\n        /* \"#utility.yul\":42460:42476   */\n      0x4e6f7420617574686f72697a6564000000000000000000000000000000000000\n        /* \"#utility.yul\":42456:42457   */\n      0x00\n        /* \"#utility.yul\":42448:42454   */\n      dup3\n        /* \"#utility.yul\":42444:42458   */\n      add\n        /* \"#utility.yul\":42437:42477   */\n      mstore\n        /* \"#utility.yul\":42320:42484   */\n      pop\n      jump\t// out\n        /* \"#utility.yul\":42490:42856   */\n    tag_578:\n        /* \"#utility.yul\":42632:42635   */\n      0x00\n        /* \"#utility.yul\":42653:42720   */\n      tag_991\n        /* \"#utility.yul\":42717:42719   */\n      0x0e\n        /* \"#utility.yul\":42712:42715   */\n      dup4\n        /* \"#utility.yul\":42653:42720   */\n      tag_541\n      jump\t// in\n    tag_991:\n        /* \"#utility.yul\":42646:42720   */\n      swap2\n      pop\n        /* \"#utility.yul\":42729:42822   */\n      tag_992\n        /* \"#utility.yul\":42818:42821   */\n      dup3\n        /* \"#utility.yul\":42729:42822   */\n      tag_577\n      jump\t// in\n    tag_992:\n        /* \"#utility.yul\":42847:42849   */\n      0x20\n        /* \"#utility.yul\":42842:42845   */\n      dup3\n        /* \"#utility.yul\":42838:42850   */\n      add\n        /* \"#utility.yul\":42831:42850   */\n      swap1\n      pop\n        /* \"#utility.yul\":42490:42856   */\n      swap2\n      swap1\n      pop\n      jump\t// out\n        /* \"#utility.yul\":42862:43281   */\n    tag_262:\n        /* \"#utility.yul\":43028:43032   */\n      0x00\n        /* \"#utility.yul\":43066:43068   */\n      0x20\n        /* \"#utility.yul\":43055:43064   */\n      dup3\n        /* \"#utility.yul\":43051:43069   */\n      add\n        /* \"#utility.yul\":43043:43069   */\n      swap1\n      pop\n        /* \"#utility.yul\":43115:43124   */\n      dup2\n        /* \"#utility.yul\":43109:43113   */\n      dup2\n        /* \"#utility.yul\":43105:43125   */\n      sub\n        /* \"#utility.yul\":43101:43102   */\n      0x00\n        /* \"#utility.yul\":43090:43099   */\n      dup4\n        /* \"#utility.yul\":43086:43103   */\n      add\n        /* \"#utility.yul\":43079:43126   */\n      mstore\n        /* \"#utility.yul\":43143:43274   */\n      tag_994\n        /* \"#utility.yul\":43269:43273   */\n      dup2\n        /* \"#utility.yul\":43143:43274   */\n      tag_578\n      jump\t// in\n    tag_994:\n        /* \"#utility.yul\":43135:43274   */\n      swap1\n      pop\n        /* \"#utility.yul\":42862:43281   */\n      swap2\n      swap1\n      pop\n      jump\t// out\n        /* \"#utility.yul\":43287:43467   */\n    tag_269:\n        /* \"#utility.yul\":43335:43412   */\n      0x4e487b7100000000000000000000000000000000000000000000000000000000\n        /* \"#utility.yul\":43332:43333   */\n      0x00\n        /* \"#utility.yul\":43325:43413   */\n      mstore\n        /* \"#utility.yul\":43432:43436   */\n      0x32\n        /* \"#utility.yul\":43429:43430   */\n      0x04\n        /* \"#utility.yul\":43422:43437   */\n      mstore\n        /* \"#utility.yul\":43456:43460   */\n      0x24\n        /* \"#utility.yul\":43453:43454   */\n      0x00\n        /* \"#utility.yul\":43446:43461   */\n      revert\n        /* \"#utility.yul\":43473:43896   */\n    tag_332:\n        /* \"#utility.yul\":43614:43618   */\n      0x00\n        /* \"#utility.yul\":43652:43654   */\n      0x40\n        /* \"#utility.yul\":43641:43650   */\n      dup3\n        /* \"#utility.yul\":43637:43655   */\n      add\n        /* \"#utility.yul\":43629:43655   */\n      swap1\n      pop\n        /* \"#utility.yul\":43701:43710   */\n      dup2\n        /* \"#utility.yul\":43695:43699   */\n      dup2\n        /* \"#utility.yul\":43691:43711   */\n      sub\n        /* \"#utility.yul\":43687:43688   */\n      0x00\n        /* \"#utility.yul\":43676:43685   */\n      dup4\n        /* \"#utility.yul\":43672:43689   */\n      add\n        /* \"#utility.yul\":43665:43712   */\n      mstore\n        /* \"#utility.yul\":43729:43807   */\n      tag_997\n        /* \"#utility.yul\":43802:43806   */\n      dup2\n        /* \"#utility.yul\":43793:43799   */\n      dup6\n        /* \"#utility.yul\":43729:43807   */\n      tag_573\n      jump\t// in\n    tag_997:\n        /* \"#utility.yul\":43721:43807   */\n      swap1\n      pop\n        /* \"#utility.yul\":43817:43889   */\n      tag_998\n        /* \"#utility.yul\":43885:43887   */\n      0x20\n        /* \"#utility.yul\":43874:43883   */\n      dup4\n        /* \"#utility.yul\":43870:43888   */\n      add\n        /* \"#utility.yul\":43861:43867   */\n      dup5\n        /* \"#utility.yul\":43817:43889   */\n      tag_508\n      jump\t// in\n    tag_998:\n        /* \"#utility.yul\":43473:43896   */\n      swap4\n      swap3\n      pop\n      pop\n      pop\n      jump\t// out\n        /* \"#utility.yul\":43902:44074   */\n    tag_579:\n        /* \"#utility.yul\":44042:44066   */\n      0x4e6f2061637469766520616363657373206772616e7400000000000000000000\n        /* \"#utility.yul\":44038:44039   */\n      0x00\n        /* \"#utility.yul\":44030:44036   */\n      dup3\n        /* \"#utility.yul\":44026:44040   */\n      add\n        /* \"#utility.yul\":44019:44067   */\n      mstore\n        /* \"#utility.yul\":43902:44074   */\n      pop\n      jump\t// out\n        /* \"#utility.yul\":44080:44446   */\n    tag_580:\n        /* \"#utility.yul\":44222:44225   */\n      0x00\n        /* \"#utility.yul\":44243:44310   */\n      tag_1001\n        /* \"#utility.yul\":44307:44309   */\n      0x16\n        /* \"#utility.yul\":44302:44305   */\n      dup4\n        /* \"#utility.yul\":44243:44310   */\n      tag_541\n      jump\t// in\n    tag_1001:\n        /* \"#utility.yul\":44236:44310   */\n      swap2\n      pop\n        /* \"#utility.yul\":44319:44412   */\n      tag_1002\n        /* \"#utility.yul\":44408:44411   */\n      dup3\n        /* \"#utility.yul\":44319:44412   */\n      tag_579\n      jump\t// in\n    tag_1002:\n        /* \"#utility.yul\":44437:44439   */\n      0x20\n        /* \"#utility.yul\":44432:44435   */\n      dup3\n        /* \"#utility.yul\":44428:44440   */\n      add\n        /* \"#utility.yul\":44421:44440   */\n      swap1\n      pop\n        /* \"#utility.yul\":44080:44446   */\n      swap2\n      swap1\n      pop\n      jump\t// out\n        /* \"#utility.yul\":44452:44871   */\n    tag_342:\n        /* \"#utility.yul\":44618:44622   */\n      0x00\n        /* \"#utility.yul\":44656:44658   */\n      0x20\n        /* \"#utility.yul\":44645:44654   */\n      dup3\n        /* \"#utility.yul\":44641:44659   */\n      add\n        /* \"#utility.yul\":44633:44659   */\n      swap1\n      pop\n        /* \"#utility.yul\":44705:44714   */\n      dup2\n        /* \"#utility.yul\":44699:44703   */\n      dup2\n        /* \"#utility.yul\":44695:44715   */\n      sub\n        /* \"#utility.yul\":44691:44692   */\n      0x00\n        /* \"#utility.yul\":44680:44689   */\n      dup4\n        /* \"#utility.yul\":44676:44693   */\n      add\n        /* \"#utility.yul\":44669:44716   */\n      mstore\n        /* \"#utility.yul\":44733:44864   */\n      tag_1004\n        /* \"#utility.yul\":44859:44863   */\n      dup2\n        /* \"#utility.yul\":44733:44864   */\n      tag_580\n      jump\t// in\n    tag_1004:\n        /* \"#utility.yul\":44725:44864   */\n      swap1\n      pop\n        /* \"#utility.yul\":44452:44871   */\n      swap2\n      swap1\n      pop\n      jump\t// out\n        /* \"#utility.yul\":44877:45042   */\n    tag_581:\n        /* \"#utility.yul\":45017:45034   */\n      0x496e76616c696420616464726573730000000000000000000000000000000000\n        /* \"#utility.yul\":45013:45014   */\n      0x00\n        /* \"#utility.yul\":45005:45011   */\n      dup3\n        /* \"#utility.yul\":45001:45015   */\n      add\n        /* \"#utility.yul\":44994:45035   */\n      mstore\n        /* \"#utility.yul\":44877:45042   */\n      pop\n      jump\t// out\n        /* \"#utility.yul\":45048:45414   */\n    tag_582:\n        /* \"#utility.yul\":45190:45193   */\n      0x00\n        /* \"#utility.yul\":45211:45278   */\n      tag_1007\n        /* \"#utility.yul\":45275:45277   */\n      0x0f\n        /* \"#utility.yul\":45270:45273   */\n      dup4\n        /* \"#utility.yul\":45211:45278   */\n      tag_541\n      jump\t// in\n    tag_1007:\n        /* \"#utility.yul\":45204:45278   */\n      swap2\n      pop\n        /* \"#utility.yul\":45287:45380   */\n      tag_1008\n        /* \"#utility.yul\":45376:45379   */\n      dup3\n        /* \"#utility.yul\":45287:45380   */\n      tag_581\n      jump\t// in\n    tag_1008:\n        /* \"#utility.yul\":45405:45407   */\n      0x20\n        /* \"#utility.yul\":45400:45403   */\n      dup3\n        /* \"#utility.yul\":45396:45408   */\n      add\n        /* \"#utility.yul\":45389:45408   */\n      swap1\n      pop\n        /* \"#utility.yul\":45048:45414   */\n      swap2\n      swap1\n      pop\n      jump\t// out\n        /* \"#utility.yul\":45420:45839   */\n    tag_355:\n        /* \"#utility.yul\":45586:45590   */\n      0x00\n        /* \"#utility.yul\":45624:45626   */\n      0x20\n        /* \"#utility.yul\":45613:45622   */\n      dup3\n        /* \"#utility.yul\":45609:45627   */\n      add\n        /* \"#utility.yul\":45601:45627   */\n      swap1\n      pop\n        /* \"#utility.yul\":45673:45682   */\n      dup2\n        /* \"#utility.yul\":45667:45671   */\n      dup2\n        /* \"#utility.yul\":45663:45683   */\n      sub\n        /* \"#utility.yul\":45659:45660   */\n      0x00\n        /* \"#utility.yul\":45648:45657   */\n      dup4\n        /* \"#utility.yul\":45644:45661   */\n      add\n        /* \"#utility.yul\":45637:45684   */\n      mstore\n        /* \"#utility.yul\":45701:45832   */\n      tag_1010\n        /* \"#utility.yul\":45827:45831   */\n      dup2\n        /* \"#utility.yul\":45701:45832   */\n      tag_582\n      jump\t// in\n    tag_1010:\n        /* \"#utility.yul\":45693:45832   */\n      swap1\n      pop\n        /* \"#utility.yul\":45420:45839   */\n      swap2\n      swap1\n      pop\n      jump\t// out\n        /* \"#utility.yul\":45845:46072   */\n    tag_583:\n        /* \"#utility.yul\":45985:46019   */\n      0x4d757374206772616e742061636365737320746f206174206c65617374206f6e\n        /* \"#utility.yul\":45981:45982   */\n      0x00\n        /* \"#utility.yul\":45973:45979   */\n      dup3\n        /* \"#utility.yul\":45969:45983   */\n      add\n        /* \"#utility.yul\":45962:46020   */\n      mstore\n        /* \"#utility.yul\":46054:46064   */\n      0x65207265636f7264000000000000000000000000000000000000000000000000\n        /* \"#utility.yul\":46049:46051   */\n      0x20\n        /* \"#utility.yul\":46041:46047   */\n      dup3\n        /* \"#utility.yul\":46037:46052   */\n      add\n        /* \"#utility.yul\":46030:46065   */\n      mstore\n        /* \"#utility.yul\":45845:46072   */\n      pop\n      jump\t// out\n        /* \"#utility.yul\":46078:46444   */\n    tag_584:\n        /* \"#utility.yul\":46220:46223   */\n      0x00\n        /* \"#utility.yul\":46241:46308   */\n      tag_1013\n        /* \"#utility.yul\":46305:46307   */\n      0x28\n        /* \"#utility.yul\":46300:46303   */\n      dup4\n        /* \"#utility.yul\":46241:46308   */\n      tag_541\n      jump\t// in\n    tag_1013:\n        /* \"#utility.yul\":46234:46308   */\n      swap2\n      pop\n        /* \"#utility.yul\":46317:46410   */\n      tag_1014\n        /* \"#utility.yul\":46406:46409   */\n      dup3\n        /* \"#utility.yul\":46317:46410   */\n      tag_583\n      jump\t// in\n    tag_1014:\n        /* \"#utility.yul\":46435:46437   */\n      0x40\n        /* \"#utility.yul\":46430:46433   */\n      dup3\n        /* \"#utility.yul\":46426:46438   */\n      add\n        /* \"#utility.yul\":46419:46438   */\n      swap1\n      pop\n        /* \"#utility.yul\":46078:46444   */\n      swap2\n      swap1\n      pop\n      jump\t// out\n        /* \"#utility.yul\":46450:46869   */\n    tag_362:\n        /* \"#utility.yul\":46616:46620   */\n      0x00\n        /* \"#utility.yul\":46654:46656   */\n      0x20\n        /* \"#utility.yul\":46643:46652   */\n      dup3\n        /* \"#utility.yul\":46639:46657   */\n      add\n        /* \"#utility.yul\":46631:46657   */\n      swap1\n      pop\n        /* \"#utility.yul\":46703:46712   */\n      dup2\n        /* \"#utility.yul\":46697:46701   */\n      dup2\n        /* \"#utility.yul\":46693:46713   */\n      sub\n        /* \"#utility.yul\":46689:46690   */\n      0x00\n        /* \"#utility.yul\":46678:46687   */\n      dup4\n        /* \"#utility.yul\":46674:46691   */\n      add\n        /* \"#utility.yul\":46667:46714   */\n      mstore\n        /* \"#utility.yul\":46731:46862   */\n      tag_1016\n        /* \"#utility.yul\":46857:46861   */\n      dup2\n        /* \"#utility.yul\":46731:46862   */\n      tag_584\n      jump\t// in\n    tag_1016:\n        /* \"#utility.yul\":46723:46862   */\n      swap1\n      pop\n        /* \"#utility.yul\":46450:46869   */\n      swap2\n      swap1\n      pop\n      jump\t// out\n        /* \"#utility.yul\":46875:47041   */\n    tag_585:\n        /* \"#utility.yul\":47015:47033   */\n      0x496e76616c6964206475726174696f6e00000000000000000000000000000000\n        /* \"#utility.yul\":47011:47012   */\n      0x00\n        /* \"#utility.yul\":47003:47009   */\n      dup3\n        /* \"#utility.yul\":46999:47013   */\n      add\n        /* \"#utility.yul\":46992:47034   */\n      mstore\n        /* \"#utility.yul\":46875:47041   */\n      pop\n      jump\t// out\n        /* \"#utility.yul\":47047:47413   */\n    tag_586:\n        /* \"#utility.yul\":47189:47192   */\n      0x00\n        /* \"#utility.yul\":47210:47277   */\n      tag_1019\n        /* \"#utility.yul\":47274:47276   */\n      0x10\n        /* \"#utility.yul\":47269:47272   */\n      dup4\n        /* \"#utility.yul\":47210:47277   */\n      tag_541\n      jump\t// in\n    tag_1019:\n        /* \"#utility.yul\":47203:47277   */\n      swap2\n      pop\n        /* \"#utility.yul\":47286:47379   */\n      tag_1020\n        /* \"#utility.yul\":47375:47378   */\n      dup3\n        /* \"#utility.yul\":47286:47379   */\n      tag_585\n      jump\t// in\n    tag_1020:\n        /* \"#utility.yul\":47404:47406   */\n      0x20\n        /* \"#utility.yul\":47399:47402   */\n      dup3\n        /* \"#utility.yul\":47395:47407   */\n      add\n        /* \"#utility.yul\":47388:47407   */\n      swap1\n      pop\n        /* \"#utility.yul\":47047:47413   */\n      swap2\n      swap1\n      pop\n      jump\t// out\n        /* \"#utility.yul\":47419:47838   */\n    tag_366:\n        /* \"#utility.yul\":47585:47589   */\n      0x00\n        /* \"#utility.yul\":47623:47625   */\n      0x20\n        /* \"#utility.yul\":47612:47621   */\n      dup3\n        /* \"#utility.yul\":47608:47626   */\n      add\n        /* \"#utility.yul\":47600:47626   */\n      swap1\n      pop\n        /* \"#utility.yul\":47672:47681   */\n      dup2\n        /* \"#utility.yul\":47666:47670   */\n      dup2\n        /* \"#utility.yul\":47662:47682   */\n      sub\n        /* \"#utility.yul\":47658:47659   */\n      0x00\n        /* \"#utility.yul\":47647:47656   */\n      dup4\n        /* \"#utility.yul\":47643:47660   */\n      add\n        /* \"#utility.yul\":47636:47683   */\n      mstore\n        /* \"#utility.yul\":47700:47831   */\n      tag_1022\n        /* \"#utility.yul\":47826:47830   */\n      dup2\n        /* \"#utility.yul\":47700:47831   */\n      tag_586\n      jump\t// in\n    tag_1022:\n        /* \"#utility.yul\":47692:47831   */\n      swap1\n      pop\n        /* \"#utility.yul\":47419:47838   */\n      swap2\n      swap1\n      pop\n      jump\t// out\n        /* \"#utility.yul\":47844:48066   */\n    tag_587:\n        /* \"#utility.yul\":47984:48018   */\n      0x596f7520646f6e2774206f776e20616c6c20737065636966696564207265636f\n        /* \"#utility.yul\":47980:47981   */\n      0x00\n        /* \"#utility.yul\":47972:47978   */\n      dup3\n        /* \"#utility.yul\":47968:47982   */\n      add\n        /* \"#utility.yul\":47961:48019   */\n      mstore\n        /* \"#utility.yul\":48053:48058   */\n      0x7264730000000000000000000000000000000000000000000000000000000000\n        /* \"#utility.yul\":48048:48050   */\n      0x20\n        /* \"#utility.yul\":48040:48046   */\n      dup3\n        /* \"#utility.yul\":48036:48051   */\n      add\n        /* \"#utility.yul\":48029:48059   */\n      mstore\n        /* \"#utility.yul\":47844:48066   */\n      pop\n      jump\t// out\n        /* \"#utility.yul\":48072:48438   */\n    tag_588:\n        /* \"#utility.yul\":48214:48217   */\n      0x00\n        /* \"#utility.yul\":48235:48302   */\n      tag_1025\n        /* \"#utility.yul\":48299:48301   */\n      0x23\n        /* \"#utility.yul\":48294:48297   */\n      dup4\n        /* \"#utility.yul\":48235:48302   */\n      tag_541\n      jump\t// in\n    tag_1025:\n        /* \"#utility.yul\":48228:48302   */\n      swap2\n      pop\n        /* \"#utility.yul\":48311:48404   */\n      tag_1026\n        /* \"#utility.yul\":48400:48403   */\n      dup3\n        /* \"#utility.yul\":48311:48404   */\n      tag_587\n      jump\t// in\n    tag_1026:\n        /* \"#utility.yul\":48429:48431   */\n      0x40\n        /* \"#utility.yul\":48424:48427   */\n      dup3\n        /* \"#utility.yul\":48420:48432   */\n      add\n        /* \"#utility.yul\":48413:48432   */\n      swap1\n      pop\n        /* \"#utility.yul\":48072:48438   */\n      swap2\n      swap1\n      pop\n      jump\t// out\n        /* \"#utility.yul\":48444:48863   */\n    tag_374:\n        /* \"#utility.yul\":48610:48614   */\n      0x00\n        /* \"#utility.yul\":48648:48650   */\n      0x20\n        /* \"#utility.yul\":48637:48646   */\n      dup3\n        /* \"#utility.yul\":48633:48651   */\n      add\n        /* \"#utility.yul\":48625:48651   */\n      swap1\n      pop\n        /* \"#utility.yul\":48697:48706   */\n      dup2\n        /* \"#utility.yul\":48691:48695   */\n      dup2\n        /* \"#utility.yul\":48687:48707   */\n      sub\n        /* \"#utility.yul\":48683:48684   */\n      0x00\n        /* \"#utility.yul\":48672:48681   */\n      dup4\n        /* \"#utility.yul\":48668:48685   */\n      add\n        /* \"#utility.yul\":48661:48708   */\n      mstore\n        /* \"#utility.yul\":48725:48856   */\n      tag_1028\n        /* \"#utility.yul\":48851:48855   */\n      dup2\n        /* \"#utility.yul\":48725:48856   */\n      tag_588\n      jump\t// in\n    tag_1028:\n        /* \"#utility.yul\":48717:48856   */\n      swap1\n      pop\n        /* \"#utility.yul\":48444:48863   */\n      swap2\n      swap1\n      pop\n      jump\t// out\n        /* \"#utility.yul\":48869:49279   */\n    tag_376:\n        /* \"#utility.yul\":48909:48916   */\n      0x00\n        /* \"#utility.yul\":48932:48952   */\n      tag_1030\n        /* \"#utility.yul\":48950:48951   */\n      dup3\n        /* \"#utility.yul\":48932:48952   */\n      tag_474\n      jump\t// in\n    tag_1030:\n        /* \"#utility.yul\":48927:48952   */\n      swap2\n      pop\n        /* \"#utility.yul\":48966:48986   */\n      tag_1031\n        /* \"#utility.yul\":48984:48985   */\n      dup4\n        /* \"#utility.yul\":48966:48986   */\n      tag_474\n      jump\t// in\n    tag_1031:\n        /* \"#utility.yul\":48961:48986   */\n      swap3\n      pop\n        /* \"#utility.yul\":49021:49022   */\n      dup3\n        /* \"#utility.yul\":49018:49019   */\n      dup3\n        /* \"#utility.yul\":49014:49023   */\n      mul\n        /* \"#utility.yul\":49043:49073   */\n      tag_1032\n        /* \"#utility.yul\":49061:49072   */\n      dup2\n        /* \"#utility.yul\":49043:49073   */\n      tag_474\n      jump\t// in\n    tag_1032:\n        /* \"#utility.yul\":49032:49073   */\n      swap2\n      pop\n        /* \"#utility.yul\":49222:49223   */\n      dup3\n        /* \"#utility.yul\":49213:49220   */\n      dup3\n        /* \"#utility.yul\":49209:49224   */\n      div\n        /* \"#utility.yul\":49206:49207   */\n      dup5\n        /* \"#utility.yul\":49203:49225   */\n      eq\n        /* \"#utility.yul\":49183:49184   */\n      dup4\n        /* \"#utility.yul\":49176:49185   */\n      iszero\n        /* \"#utility.yul\":49156:49239   */\n      or\n        /* \"#utility.yul\":49133:49272   */\n      tag_1033\n      jumpi\n        /* \"#utility.yul\":49252:49270   */\n      tag_1034\n      tag_557\n      jump\t// in\n    tag_1034:\n        /* \"#utility.yul\":49133:49272   */\n    tag_1033:\n        /* \"#utility.yul\":48917:49279   */\n      pop\n        /* \"#utility.yul\":48869:49279   */\n      swap3\n      swap2\n      pop\n      pop\n      jump\t// out\n        /* \"#utility.yul\":49285:49476   */\n    tag_378:\n        /* \"#utility.yul\":49325:49328   */\n      0x00\n        /* \"#utility.yul\":49344:49364   */\n      tag_1036\n        /* \"#utility.yul\":49362:49363   */\n      dup3\n        /* \"#utility.yul\":49344:49364   */\n      tag_474\n      jump\t// in\n    tag_1036:\n        /* \"#utility.yul\":49339:49364   */\n      swap2\n      pop\n        /* \"#utility.yul\":49378:49398   */\n      tag_1037\n        /* \"#utility.yul\":49396:49397   */\n      dup4\n        /* \"#utility.yul\":49378:49398   */\n      tag_474\n      jump\t// in\n    tag_1037:\n        /* \"#utility.yul\":49373:49398   */\n      swap3\n      pop\n        /* \"#utility.yul\":49421:49422   */\n      dup3\n        /* \"#utility.yul\":49418:49419   */\n      dup3\n        /* \"#utility.yul\":49414:49423   */\n      add\n        /* \"#utility.yul\":49407:49423   */\n      swap1\n      pop\n        /* \"#utility.yul\":49442:49445   */\n      dup1\n        /* \"#utility.yul\":49439:49440   */\n      dup3\n        /* \"#utility.yul\":49436:49446   */\n      gt\n        /* \"#utility.yul\":49433:49469   */\n      iszero\n      tag_1038\n      jumpi\n        /* \"#utility.yul\":49449:49467   */\n      tag_1039\n      tag_557\n      jump\t// in\n    tag_1039:\n        /* \"#utility.yul\":49433:49469   */\n    tag_1038:\n        /* \"#utility.yul\":49285:49476   */\n      swap3\n      swap2\n      pop\n      pop\n      jump\t// out\n        /* \"#utility.yul\":49482:49814   */\n    tag_461:\n        /* \"#utility.yul\":49603:49607   */\n      0x00\n        /* \"#utility.yul\":49641:49643   */\n      0x40\n        /* \"#utility.yul\":49630:49639   */\n      dup3\n        /* \"#utility.yul\":49626:49644   */\n      add\n        /* \"#utility.yul\":49618:49644   */\n      swap1\n      pop\n        /* \"#utility.yul\":49654:49725   */\n      tag_1041\n        /* \"#utility.yul\":49722:49723   */\n      0x00\n        /* \"#utility.yul\":49711:49720   */\n      dup4\n        /* \"#utility.yul\":49707:49724   */\n      add\n        /* \"#utility.yul\":49698:49704   */\n      dup6\n        /* \"#utility.yul\":49654:49725   */\n      tag_534\n      jump\t// in\n    tag_1041:\n        /* \"#utility.yul\":49735:49807   */\n      tag_1042\n        /* \"#utility.yul\":49803:49805   */\n      0x20\n        /* \"#utility.yul\":49792:49801   */\n      dup4\n        /* \"#utility.yul\":49788:49806   */\n      add\n        /* \"#utility.yul\":49779:49785   */\n      dup5\n        /* \"#utility.yul\":49735:49807   */\n      tag_530\n      jump\t// in\n    tag_1042:\n        /* \"#utility.yul\":49482:49814   */\n      swap4\n      swap3\n      pop\n      pop\n      pop\n      jump\t// out\n\n    auxdata: 0xa26469706673582212201fc698e54337a6b22582eb80e2a65114e566f7a8e21d85060d98af7fb6bf60cd64736f6c634300081e0033\n}\n",
				"bytecode": {
					"linkReferences": {},
					"object": "608060405234801561001057600080fd5b5033600073ffffffffffffffffffffffffffffffffffffffff168173ffffffffffffffffffffffffffffffffffffffff16036100845760006040517f1e4fbdf700000000000000000000000000000000000000000000000000000000815260040161007b9190610322565b60405180910390fd5b610093816100ad60201b60201c565b506100a76000801b3361017160201b60201c565b5061033d565b60008060009054906101000a900473ffffffffffffffffffffffffffffffffffffffff169050816000806101000a81548173ffffffffffffffffffffffffffffffffffffffff021916908373ffffffffffffffffffffffffffffffffffffffff1602179055508173ffffffffffffffffffffffffffffffffffffffff168173ffffffffffffffffffffffffffffffffffffffff167f8be0079c531659141344cd1fd0a4f28419497f9722a3daafe3b4186f6b6457e060405160405180910390a35050565b6000610183838361026e60201b60201c565b61026357600180600085815260200190815260200160002060000160008473ffffffffffffffffffffffffffffffffffffffff1673ffffffffffffffffffffffffffffffffffffffff16815260200190815260200160002060006101000a81548160ff0219169083151502179055506102006102d960201b60201c565b73ffffffffffffffffffffffffffffffffffffffff168273ffffffffffffffffffffffffffffffffffffffff16847f2f8788117e7eff1d82e926ec794901d17c78024a50270940304540a733656f0d60405160405180910390a460019050610268565b600090505b92915050565b60006001600084815260200190815260200160002060000160008373ffffffffffffffffffffffffffffffffffffffff1673ffffffffffffffffffffffffffffffffffffffff16815260200190815260200160002060009054906101000a900460ff16905092915050565b600033905090565b600073ffffffffffffffffffffffffffffffffffffffff82169050919050565b600061030c826102e1565b9050919050565b61031c81610301565b82525050565b60006020820190506103376000830184610313565b92915050565b614c758061034c6000396000f3fe608060405234801561001057600080fd5b50600436106101cf5760003560e01c80633812c6a8116101045780639399e973116100a2578063b995221511610071578063b995221514610562578063cf56b4eb1461057e578063d547741f146105ae578063f2fde38b146105ca576101cf565b80639399e973146104dc578063a02bd29c146104f8578063a217fddf14610514578063b4b07a7014610532576101cf565b80638b681c7c116100de5780638b681c7c146104425780638da5cb5b1461047257806391284a891461049057806391d14854146104ac576101cf565b80633812c6a814610400578063715018a61461041c57806385e6853114610426576101cf565b806318bd484711610171578063248a9ca31161014b578063248a9ca31461037a57806324c20a34146103aa5780632f2ff15d146103c857806336568abe146103e4576101cf565b806318bd4847146102ea5780631b6377b81461031a57806322770d8e1461034a576101cf565b8063061f9811116101ad578063061f9811146102645780630aeacb5e146102805780630e8dce291461029e578063112ea262146102ce576101cf565b806301b1d324146101d457806301ffc9a71461020457806303e9e60914610234575b600080fd5b6101ee60048036038101906101e991906133bc565b6105e6565b6040516101fb91906135a1565b60405180910390f35b61021e6004803603810190610219919061361b565b61084f565b60405161022b9190613663565b60405180910390f35b61024e600480360381019061024991906133bc565b6108c9565b60405161025b9190613831565b60405180910390f35b61027e600480360381019061027991906133bc565b610c73565b005b610288610e01565b6040516102959190613862565b60405180910390f35b6102b860048036038101906102b39190613a03565b610e0b565b6040516102c59190613862565b60405180910390f35b6102e860048036038101906102e39190613aa2565b6111ce565b005b61030460048036038101906102ff9190613aa2565b611278565b6040516103119190613b7e565b60405180910390f35b610334600480360381019061032f9190613ba0565b611519565b6040516103419190613862565b60405180910390f35b610364600480360381019061035f9190613aa2565b611802565b6040516103719190613663565b60405180910390f35b610394600480360381019061038f9190613c61565b611835565b6040516103a19190613c9d565b60405180910390f35b6103b2611855565b6040516103bf9190613c9d565b60405180910390f35b6103e260048036038101906103dd9190613cb8565b611879565b005b6103fe60048036038101906103f99190613cb8565b61189b565b005b61041a60048036038101906104159190613cf8565b611916565b005b610424611b0b565b005b610440600480360381019061043b9190613aa2565b611b1f565b005b61045c60048036038101906104579190613d83565b611ce0565b6040516104699190613ea8565b60405180910390f35b61047a611ef8565b6040516104879190613ed9565b60405180910390f35b6104aa60048036038101906104a59190613aa2565b611f21565b005b6104c660048036038101906104c19190613cb8565b612011565b6040516104d39190613663565b60405180910390f35b6104f660048036038101906104f19190613fbc565b61207c565b005b610512600480360381019061050d9190614050565b612438565b005b61051c612829565b6040516105299190613c9d565b60405180910390f35b61054c60048036038101906105479190613aa2565b612830565b6040516105599190613ed9565b60405180910390f35b61057c60048036038101906105779190613aa2565b612863565b005b61059860048036038101906105939190614090565b61289e565b6040516105a59190613663565b60405180910390f35b6105c860048036038101906105c39190613cb8565b612b63565b005b6105e460048036038101906105df9190613aa2565b612b85565b005b6060816000811180156105fb57506007548111155b61063a576040517f08c379a000000000000000000000000000000000000000000000000000000000815260040161063190614140565b60405180910390fd5b6003600082815260200190815260200160002060050160149054906101000a900460ff1661069d576040517f08c379a0000000000000000000000000000000000000000000000000000000008152600401610694906141ac565b60405180910390fd5b823373ffffffffffffffffffffffffffffffffffffffff166003600083815260200190815260200160002060010160009054906101000a900473ffffffffffffffffffffffffffffffffffffffff1673ffffffffffffffffffffffffffffffffffffffff1614610742576040517f08c379a00000000000000000000000000000000000000000000000000000000081526004016107399061423e565b60405180910390fd5b60056000858152602001908152602001600020805480602002602001604051908101604052809291908181526020016000905b8282101561084257838290600052602060002090600302016040518060600160405290816000820160009054906101000a900473ffffffffffffffffffffffffffffffffffffffff1673ffffffffffffffffffffffffffffffffffffffff1673ffffffffffffffffffffffffffffffffffffffff168152602001600182015481526020016002820160009054906101000a900460ff16600481111561081d5761081c613465565b5b600481111561082f5761082e613465565b5b8152505081526020019060010190610775565b5050505092505050919050565b60007f7965db0b000000000000000000000000000000000000000000000000000000007bffffffffffffffffffffffffffffffffffffffffffffffffffffffff1916827bffffffffffffffffffffffffffffffffffffffffffffffffffffffff191614806108c257506108c182612c0b565b5b9050919050565b6108d1613235565b816000811180156108e457506007548111155b610923576040517f08c379a000000000000000000000000000000000000000000000000000000000815260040161091a90614140565b60405180910390fd5b6003600082815260200190815260200160002060050160149054906101000a900460ff16610986576040517f08c379a000000000000000000000000000000000000000000000000000000000815260040161097d906141ac565b60405180910390fd5b826109c86003600083815260200190815260200160002060010160009054906101000a900473ffffffffffffffffffffffffffffffffffffffff16338361289e565b610a07576040517f08c379a00000000000000000000000000000000000000000000000000000000081526004016109fe906142d0565b60405180910390fd5b6003600085815260200190815260200160002060405180610120016040529081600082015481526020016001820160009054906101000a900473ffffffffffffffffffffffffffffffffffffffff1673ffffffffffffffffffffffffffffffffffffffff1673ffffffffffffffffffffffffffffffffffffffff168152602001600282018054610a969061431f565b80601f0160208091040260200160405190810160405280929190818152602001828054610ac29061431f565b8015610b0f5780601f10610ae457610100808354040283529160200191610b0f565b820191906000526020600020905b815481529060010190602001808311610af257829003601f168201915b505050505081526020016003820160009054906101000a900460ff166005811115610b3d57610b3c613465565b5b6005811115610b4f57610b4e613465565b5b8152602001600482015481526020016005820160009054906101000a900473ffffffffffffffffffffffffffffffffffffffff1673ffffffffffffffffffffffffffffffffffffffff1673ffffffffffffffffffffffffffffffffffffffff1681526020016005820160149054906101000a900460ff16151515158152602001600682018054610bde9061431f565b80601f0160208091040260200160405190810160405280929190818152602001828054610c0a9061431f565b8015610c575780601f10610c2c57610100808354040283529160200191610c57565b820191906000526020600020905b815481529060010190602001808311610c3a57829003601f168201915b5050505050815260200160078201548152505092505050919050565b80600081118015610c8657506007548111155b610cc5576040517f08c379a0000000000000000000000000000000000000000000000000000000008152600401610cbc90614140565b60405180910390fd5b6003600082815260200190815260200160002060050160149054906101000a900460ff16610d28576040517f08c379a0000000000000000000000000000000000000000000000000000000008152600401610d1f906141ac565b60405180910390fd5b813373ffffffffffffffffffffffffffffffffffffffff166003600083815260200190815260200160002060010160009054906101000a900473ffffffffffffffffffffffffffffffffffffffff1673ffffffffffffffffffffffffffffffffffffffff1614610dcd576040517f08c379a0000000000000000000000000000000000000000000000000000000008152600401610dc49061423e565b60405180910390fd5b60006003600085815260200190815260200160002060050160146101000a81548160ff021916908315150217905550505050565b6000600754905090565b6000610e377f18d9ff454de989bd126b06bd404b47ede75f9e65543e94e8d212f89d7dcbb87c33612011565b610e76576040517f08c379a0000000000000000000000000000000000000000000000000000000008152600401610e6d9061439c565b60405180910390fd5b600073ffffffffffffffffffffffffffffffffffffffff168573ffffffffffffffffffffffffffffffffffffffff1603610ee5576040517f08c379a0000000000000000000000000000000000000000000000000000000008152600401610edc90614408565b60405180910390fd5b6000845111610f29576040517f08c379a0000000000000000000000000000000000000000000000000000000008152600401610f2090614474565b60405180910390fd5b60076000815480929190610f3c906144c3565b919050555060405180610120016040528060075481526020018673ffffffffffffffffffffffffffffffffffffffff168152602001858152602001846005811115610f8a57610f89613465565b5b81526020014281526020013373ffffffffffffffffffffffffffffffffffffffff16815260200160011515815260200183815260200160018152506003600060075481526020019081526020016000206000820151816000015560208201518160010160006101000a81548173ffffffffffffffffffffffffffffffffffffffff021916908373ffffffffffffffffffffffffffffffffffffffff160217905550604082015181600201908161104091906146b7565b5060608201518160030160006101000a81548160ff0219169083600581111561106c5761106b613465565b5b02179055506080820151816004015560a08201518160050160006101000a81548173ffffffffffffffffffffffffffffffffffffffff021916908373ffffffffffffffffffffffffffffffffffffffff16021790555060c08201518160050160146101000a81548160ff02191690831515021790555060e08201518160060190816110f791906146b7565b506101008201518160070155905050600260008673ffffffffffffffffffffffffffffffffffffffff1673ffffffffffffffffffffffffffffffffffffffff16815260200190815260200160002060075490806001815401808255809150506001900390600052602060002001600090919091909150558473ffffffffffffffffffffffffffffffffffffffff166007547f32b3188b62628aabf659cebbab10a599b539bcb0c01a891ab2e37b8be315712e86866040516111b99291906147d1565b60405180910390a36007549050949350505050565b6000801b6111db81612c75565b600073ffffffffffffffffffffffffffffffffffffffff168273ffffffffffffffffffffffffffffffffffffffff160361124a576040517f08c379a00000000000000000000000000000000000000000000000000000000081526004016112419061484d565b60405180910390fd5b6112747f18d9ff454de989bd126b06bd404b47ede75f9e65543e94e8d212f89d7dcbb87c83611879565b5050565b60608173ffffffffffffffffffffffffffffffffffffffff163373ffffffffffffffffffffffffffffffffffffffff160361134257600260008373ffffffffffffffffffffffffffffffffffffffff1673ffffffffffffffffffffffffffffffffffffffff16815260200190815260200160002080548060200260200160405190810160405280929190818152602001828054801561133657602002820191906000526020600020905b815481526020019060010190808311611322575b50505050509050611514565b61134c8233612c89565b61138b576040517f08c379a0000000000000000000000000000000000000000000000000000000008152600401611382906148b9565b60405180910390fd5b6000600260008473ffffffffffffffffffffffffffffffffffffffff1673ffffffffffffffffffffffffffffffffffffffff16815260200190815260200160002090506000805b82805490508110156114275761140685338584815481106113f6576113f56148d9565b5b906000526020600020015461289e565b1561141a578180611416906144c3565b9250505b80806001019150506113d2565b5060008167ffffffffffffffff811115611444576114436138b3565b5b6040519080825280602002602001820160405280156114725781602001602082028036833780820191505090505b5090506000805b848054905081101561150b576114ad873387848154811061149d5761149c6148d9565b5b906000526020600020015461289e565b156114fe578481815481106114c5576114c46148d9565b5b90600052602060002001548383815181106114e3576114e26148d9565b5b60200260200101818152505081806114fa906144c3565b9250505b8080600101915050611479565b50819450505050505b919050565b60008084511161155e576040517f08c379a000000000000000000000000000000000000000000000000000000000815260040161155590614474565b60405180910390fd5b60076000815480929190611571906144c3565b919050555060405180610120016040528060075481526020013373ffffffffffffffffffffffffffffffffffffffff1681526020018581526020018460058111156115bf576115be613465565b5b81526020014281526020013373ffffffffffffffffffffffffffffffffffffffff16815260200160011515815260200183815260200160018152506003600060075481526020019081526020016000206000820151816000015560208201518160010160006101000a81548173ffffffffffffffffffffffffffffffffffffffff021916908373ffffffffffffffffffffffffffffffffffffffff160217905550604082015181600201908161167591906146b7565b5060608201518160030160006101000a81548160ff021916908360058111156116a1576116a0613465565b5b02179055506080820151816004015560a08201518160050160006101000a81548173ffffffffffffffffffffffffffffffffffffffff021916908373ffffffffffffffffffffffffffffffffffffffff16021790555060c08201518160050160146101000a81548160ff02191690831515021790555060e082015181600601908161172c91906146b7565b506101008201518160070155905050600260003373ffffffffffffffffffffffffffffffffffffffff1673ffffffffffffffffffffffffffffffffffffffff16815260200190815260200160002060075490806001815401808255809150506001900390600052602060002001600090919091909150553373ffffffffffffffffffffffffffffffffffffffff166007547f32b3188b62628aabf659cebbab10a599b539bcb0c01a891ab2e37b8be315712e86866040516117ee9291906147d1565b60405180910390a360075490509392505050565b600061182e7f18d9ff454de989bd126b06bd404b47ede75f9e65543e94e8d212f89d7dcbb87c83612011565b9050919050565b600060016000838152602001908152602001600020600101549050919050565b7f18d9ff454de989bd126b06bd404b47ede75f9e65543e94e8d212f89d7dcbb87c81565b61188282611835565b61188b81612c75565b6118958383612ead565b50505050565b6118a3612f9e565b73ffffffffffffffffffffffffffffffffffffffff168173ffffffffffffffffffffffffffffffffffffffff1614611907576040517f6697b23200000000000000000000000000000000000000000000000000000000815260040160405180910390fd5b6119118282612fa6565b505050565b8260008111801561192957506007548111155b611968576040517f08c379a000000000000000000000000000000000000000000000000000000000815260040161195f90614140565b60405180910390fd5b6003600082815260200190815260200160002060050160149054906101000a900460ff166119cb576040517f08c379a00000000000000000000000000000000000000000000000000000000081526004016119c2906141ac565b60405180910390fd5b833373ffffffffffffffffffffffffffffffffffffffff166003600083815260200190815260200160002060010160009054906101000a900473ffffffffffffffffffffffffffffffffffffffff1673ffffffffffffffffffffffffffffffffffffffff1614611a70576040517f08c379a0000000000000000000000000000000000000000000000000000000008152600401611a679061423e565b60405180910390fd5b600060036000878152602001908152602001600020905084816002019081611a9891906146b7565b5083816006019081611aaa91906146b7565b50806007016000815480929190611ac0906144c3565b9190505550857f088d9e16504277bf999412471e756eedf1ab2491c6a6399c9d349d3fea6d70cf868360070154604051611afb929190614908565b60405180910390a2505050505050565b611b13613099565b611b1d6000613120565b565b600460003373ffffffffffffffffffffffffffffffffffffffff1673ffffffffffffffffffffffffffffffffffffffff16815260200190815260200160002060008273ffffffffffffffffffffffffffffffffffffffff1673ffffffffffffffffffffffffffffffffffffffff16815260200190815260200160002060030160009054906101000a900460ff16611beb576040517f08c379a0000000000000000000000000000000000000000000000000000000008152600401611be290614984565b60405180910390fd5b6000600460003373ffffffffffffffffffffffffffffffffffffffff1673ffffffffffffffffffffffffffffffffffffffff16815260200190815260200160002060008373ffffffffffffffffffffffffffffffffffffffff1673ffffffffffffffffffffffffffffffffffffffff16815260200190815260200160002060030160006101000a81548160ff0219169083151502179055508073ffffffffffffffffffffffffffffffffffffffff163373ffffffffffffffffffffffffffffffffffffffff167f825c8be24eb0df19500f63e86c29e7d0d951e73056b889b891d85e40938d9b6e60405160405180910390a350565b611ce86132c1565b8273ffffffffffffffffffffffffffffffffffffffff163373ffffffffffffffffffffffffffffffffffffffff161480611d4d57508173ffffffffffffffffffffffffffffffffffffffff163373ffffffffffffffffffffffffffffffffffffffff16145b611d8c576040517f08c379a0000000000000000000000000000000000000000000000000000000008152600401611d83906148b9565b60405180910390fd5b600460008473ffffffffffffffffffffffffffffffffffffffff1673ffffffffffffffffffffffffffffffffffffffff16815260200190815260200160002060008373ffffffffffffffffffffffffffffffffffffffff1673ffffffffffffffffffffffffffffffffffffffff1681526020019081526020016000206040518060a00160405290816000820160009054906101000a900473ffffffffffffffffffffffffffffffffffffffff1673ffffffffffffffffffffffffffffffffffffffff1673ffffffffffffffffffffffffffffffffffffffff16815260200160018201805480602002602001604051908101604052809291908181526020018280548015611eb857602002820191906000526020600020905b815481526020019060010190808311611ea4575b50505050508152602001600282015481526020016003820160009054906101000a900460ff16151515158152602001600482015481525050905092915050565b60008060009054906101000a900473ffffffffffffffffffffffffffffffffffffffff16905090565b600073ffffffffffffffffffffffffffffffffffffffff168173ffffffffffffffffffffffffffffffffffffffff1603611f90576040517f08c379a0000000000000000000000000000000000000000000000000000000008152600401611f87906149f0565b60405180910390fd5b80600660003373ffffffffffffffffffffffffffffffffffffffff1673ffffffffffffffffffffffffffffffffffffffff16815260200190815260200160002060006101000a81548173ffffffffffffffffffffffffffffffffffffffff021916908373ffffffffffffffffffffffffffffffffffffffff16021790555050565b60006001600084815260200190815260200160002060000160008373ffffffffffffffffffffffffffffffffffffffff1673ffffffffffffffffffffffffffffffffffffffff16815260200190815260200160002060009054906101000a900460ff16905092915050565b600073ffffffffffffffffffffffffffffffffffffffff168373ffffffffffffffffffffffffffffffffffffffff16036120eb576040517f08c379a00000000000000000000000000000000000000000000000000000000081526004016120e2906149f0565b60405180910390fd5b600082511161212f576040517f08c379a000000000000000000000000000000000000000000000000000000000815260040161212690614a82565b60405180910390fd5b6000811180156121415750610e428111155b612180576040517f08c379a000000000000000000000000000000000000000000000000000000000815260040161217790614aee565b60405180910390fd5b60005b8251811015612257573373ffffffffffffffffffffffffffffffffffffffff16600360008584815181106121ba576121b96148d9565b5b6020026020010151815260200190815260200160002060010160009054906101000a900473ffffffffffffffffffffffffffffffffffffffff1673ffffffffffffffffffffffffffffffffffffffff161461224a576040517f08c379a000000000000000000000000000000000000000000000000000000000815260040161224190614b80565b60405180910390fd5b8080600101915050612183565b50600062015180826122699190614ba0565b426122749190614be2565b90506040518060a001604052808573ffffffffffffffffffffffffffffffffffffffff16815260200184815260200182815260200160011515815260200142815250600460003373ffffffffffffffffffffffffffffffffffffffff1673ffffffffffffffffffffffffffffffffffffffff16815260200190815260200160002060008673ffffffffffffffffffffffffffffffffffffffff1673ffffffffffffffffffffffffffffffffffffffff16815260200190815260200160002060008201518160000160006101000a81548173ffffffffffffffffffffffffffffffffffffffff021916908373ffffffffffffffffffffffffffffffffffffffff1602179055506020820151816001019080519060200190612395929190613308565b506040820151816002015560608201518160030160006101000a81548160ff021916908315150217905550608082015181600401559050508373ffffffffffffffffffffffffffffffffffffffff163373ffffffffffffffffffffffffffffffffffffffff167f65d0cc1e52d49938ca4ad9f423c79c1b84d914b9a683fbc5d3f93ac3cc5635f58360405161242a9190613862565b60405180910390a350505050565b8160008111801561244b57506007548111155b61248a576040517f08c379a000000000000000000000000000000000000000000000000000000000815260040161248190614140565b60405180910390fd5b6003600082815260200190815260200160002060050160149054906101000a900460ff166124ed576040517f08c379a00000000000000000000000000000000000000000000000000000000081526004016124e4906141ac565b60405180910390fd5b8261252f6003600083815260200190815260200160002060010160009054906101000a900473ffffffffffffffffffffffffffffffffffffffff16338361289e565b61256e576040517f08c379a0000000000000000000000000000000000000000000000000000000008152600401612565906142d0565b60405180910390fd5b3373ffffffffffffffffffffffffffffffffffffffff16600660006003600088815260200190815260200160002060010160009054906101000a900473ffffffffffffffffffffffffffffffffffffffff1673ffffffffffffffffffffffffffffffffffffffff1673ffffffffffffffffffffffffffffffffffffffff16815260200190815260200160002060009054906101000a900473ffffffffffffffffffffffffffffffffffffffff1673ffffffffffffffffffffffffffffffffffffffff16036126d2573373ffffffffffffffffffffffffffffffffffffffff166003600086815260200190815260200160002060010160009054906101000a900473ffffffffffffffffffffffffffffffffffffffff1673ffffffffffffffffffffffffffffffffffffffff167ff09b5b37601d747e980aad190f31b7fa72740906d3da5eb0af65d1f89fde166b426040516126c99190613862565b60405180910390a35b6005600085815260200190815260200160002060405180606001604052803373ffffffffffffffffffffffffffffffffffffffff16815260200142815260200185600481111561272557612724613465565b5b815250908060018154018082558091505060019003906000526020600020906003020160009091909190915060008201518160000160006101000a81548173ffffffffffffffffffffffffffffffffffffffff021916908373ffffffffffffffffffffffffffffffffffffffff1602179055506020820151816001015560408201518160020160006101000a81548160ff021916908360048111156127cd576127cc613465565b5b021790555050503373ffffffffffffffffffffffffffffffffffffffff16847fdec39eb35dc9ca96737e4515f8a70f5db122e248213ee947b996e1f678ab05b84260405161281b9190613862565b60405180910390a350505050565b6000801b81565b60066020528060005260406000206000915054906101000a900473ffffffffffffffffffffffffffffffffffffffff1681565b6000801b61287081612c75565b61289a7f18d9ff454de989bd126b06bd404b47ede75f9e65543e94e8d212f89d7dcbb87c83612b63565b5050565b60008273ffffffffffffffffffffffffffffffffffffffff168473ffffffffffffffffffffffffffffffffffffffff16036128dc5760019050612b5c565b8273ffffffffffffffffffffffffffffffffffffffff16600660008673ffffffffffffffffffffffffffffffffffffffff1673ffffffffffffffffffffffffffffffffffffffff16815260200190815260200160002060009054906101000a900473ffffffffffffffffffffffffffffffffffffffff1673ffffffffffffffffffffffffffffffffffffffff16036129775760019050612b5c565b6000600460008673ffffffffffffffffffffffffffffffffffffffff1673ffffffffffffffffffffffffffffffffffffffff16815260200190815260200160002060008573ffffffffffffffffffffffffffffffffffffffff1673ffffffffffffffffffffffffffffffffffffffff1681526020019081526020016000206040518060a00160405290816000820160009054906101000a900473ffffffffffffffffffffffffffffffffffffffff1673ffffffffffffffffffffffffffffffffffffffff1673ffffffffffffffffffffffffffffffffffffffff16815260200160018201805480602002602001604051908101604052809291908181526020018280548015612aa557602002820191906000526020600020905b815481526020019060010190808311612a91575b50505050508152602001600282015481526020016003820160009054906101000a900460ff1615151515815260200160048201548152505090508060600151612af2576000915050612b5c565b8060400151421115612b08576000915050612b5c565b60005b816020015151811015612b55578382602001518281518110612b3057612b2f6148d9565b5b602002602001015103612b4857600192505050612b5c565b8080600101915050612b0b565b5060009150505b9392505050565b612b6c82611835565b612b7581612c75565b612b7f8383612fa6565b50505050565b612b8d613099565b600073ffffffffffffffffffffffffffffffffffffffff168173ffffffffffffffffffffffffffffffffffffffff1603612bff5760006040517f1e4fbdf7000000000000000000000000000000000000000000000000000000008152600401612bf69190613ed9565b60405180910390fd5b612c0881613120565b50565b60007f01ffc9a7000000000000000000000000000000000000000000000000000000007bffffffffffffffffffffffffffffffffffffffffffffffffffffffff1916827bffffffffffffffffffffffffffffffffffffffffffffffffffffffff1916149050919050565b612c8681612c81612f9e565b6131e4565b50565b60008173ffffffffffffffffffffffffffffffffffffffff16600660008573ffffffffffffffffffffffffffffffffffffffff1673ffffffffffffffffffffffffffffffffffffffff16815260200190815260200160002060009054906101000a900473ffffffffffffffffffffffffffffffffffffffff1673ffffffffffffffffffffffffffffffffffffffff1603612d265760019050612ea7565b6000600460008573ffffffffffffffffffffffffffffffffffffffff1673ffffffffffffffffffffffffffffffffffffffff16815260200190815260200160002060008473ffffffffffffffffffffffffffffffffffffffff1673ffffffffffffffffffffffffffffffffffffffff1681526020019081526020016000206040518060a00160405290816000820160009054906101000a900473ffffffffffffffffffffffffffffffffffffffff1673ffffffffffffffffffffffffffffffffffffffff1673ffffffffffffffffffffffffffffffffffffffff16815260200160018201805480602002602001604051908101604052809291908181526020018280548015612e5457602002820191906000526020600020905b815481526020019060010190808311612e40575b50505050508152602001600282015481526020016003820160009054906101000a900460ff16151515158152602001600482015481525050905080606001518015612ea3575080604001514211155b9150505b92915050565b6000612eb98383612011565b612f9357600180600085815260200190815260200160002060000160008473ffffffffffffffffffffffffffffffffffffffff1673ffffffffffffffffffffffffffffffffffffffff16815260200190815260200160002060006101000a81548160ff021916908315150217905550612f30612f9e565b73ffffffffffffffffffffffffffffffffffffffff168273ffffffffffffffffffffffffffffffffffffffff16847f2f8788117e7eff1d82e926ec794901d17c78024a50270940304540a733656f0d60405160405180910390a460019050612f98565b600090505b92915050565b600033905090565b6000612fb28383612011565b1561308e5760006001600085815260200190815260200160002060000160008473ffffffffffffffffffffffffffffffffffffffff1673ffffffffffffffffffffffffffffffffffffffff16815260200190815260200160002060006101000a81548160ff02191690831515021790555061302b612f9e565b73ffffffffffffffffffffffffffffffffffffffff168273ffffffffffffffffffffffffffffffffffffffff16847ff6391f5c32d9c69d2a47ea670b442974b53935d1edc7fd64eb21e047a839171b60405160405180910390a460019050613093565b600090505b92915050565b6130a1612f9e565b73ffffffffffffffffffffffffffffffffffffffff166130bf611ef8565b73ffffffffffffffffffffffffffffffffffffffff161461311e576130e2612f9e565b6040517f118cdaa70000000000000000000000000000000000000000000000000000000081526004016131159190613ed9565b60405180910390fd5b565b60008060009054906101000a900473ffffffffffffffffffffffffffffffffffffffff169050816000806101000a81548173ffffffffffffffffffffffffffffffffffffffff021916908373ffffffffffffffffffffffffffffffffffffffff1602179055508173ffffffffffffffffffffffffffffffffffffffff168173ffffffffffffffffffffffffffffffffffffffff167f8be0079c531659141344cd1fd0a4f28419497f9722a3daafe3b4186f6b6457e060405160405180910390a35050565b6131ee8282612011565b6132315780826040517fe2517d3f000000000000000000000000000000000000000000000000000000008152600401613228929190614c16565b60405180910390fd5b5050565b60405180610120016040528060008152602001600073ffffffffffffffffffffffffffffffffffffffff16815260200160608152602001600060058111156132805761327f613465565b5b815260200160008152602001600073ffffffffffffffffffffffffffffffffffffffff16815260200160001515815260200160608152602001600081525090565b6040518060a00160405280600073ffffffffffffffffffffffffffffffffffffffff1681526020016060815260200160008152602001600015158152602001600081525090565b828054828255906000526020600020908101928215613344579160200282015b82811115613343578251825591602001919060010190613328565b5b5090506133519190613355565b5090565b5b8082111561336e576000816000905550600101613356565b5090565b6000604051905090565b600080fd5b600080fd5b6000819050919050565b61339981613386565b81146133a457600080fd5b50565b6000813590506133b681613390565b92915050565b6000602082840312156133d2576133d161337c565b5b60006133e0848285016133a7565b91505092915050565b600081519050919050565b600082825260208201905092915050565b6000819050602082019050919050565b600073ffffffffffffffffffffffffffffffffffffffff82169050919050565b600061344082613415565b9050919050565b61345081613435565b82525050565b61345f81613386565b82525050565b7f4e487b7100000000000000000000000000000000000000000000000000000000600052602160045260246000fd5b600581106134a5576134a4613465565b5b50565b60008190506134b682613494565b919050565b60006134c6826134a8565b9050919050565b6134d6816134bb565b82525050565b6060820160008201516134f26000850182613447565b5060208201516135056020850182613456565b50604082015161351860408501826134cd565b50505050565b600061352a83836134dc565b60608301905092915050565b6000602082019050919050565b600061354e826133e9565b61355881856133f4565b935061356383613405565b8060005b8381101561359457815161357b888261351e565b975061358683613536565b925050600181019050613567565b5085935050505092915050565b600060208201905081810360008301526135bb8184613543565b905092915050565b60007fffffffff0000000000000000000000000000000000000000000000000000000082169050919050565b6135f8816135c3565b811461360357600080fd5b50565b600081359050613615816135ef565b92915050565b6000602082840312156136315761363061337c565b5b600061363f84828501613606565b91505092915050565b60008115159050919050565b61365d81613648565b82525050565b60006020820190506136786000830184613654565b92915050565b600081519050919050565b600082825260208201905092915050565b60005b838110156136b857808201518184015260208101905061369d565b60008484015250505050565b6000601f19601f8301169050919050565b60006136e08261367e565b6136ea8185613689565b93506136fa81856020860161369a565b613703816136c4565b840191505092915050565b6006811061371f5761371e613465565b5b50565b60008190506137308261370e565b919050565b600061374082613722565b9050919050565b61375081613735565b82525050565b61375f81613648565b82525050565b60006101208301600083015161377e6000860182613456565b5060208301516137916020860182613447565b50604083015184820360408601526137a982826136d5565b91505060608301516137be6060860182613747565b5060808301516137d16080860182613456565b5060a08301516137e460a0860182613447565b5060c08301516137f760c0860182613756565b5060e083015184820360e086015261380f82826136d5565b915050610100830151613826610100860182613456565b508091505092915050565b6000602082019050818103600083015261384b8184613765565b905092915050565b61385c81613386565b82525050565b60006020820190506138776000830184613853565b92915050565b61388681613435565b811461389157600080fd5b50565b6000813590506138a38161387d565b92915050565b600080fd5b600080fd5b7f4e487b7100000000000000000000000000000000000000000000000000000000600052604160045260246000fd5b6138eb826136c4565b810181811067ffffffffffffffff8211171561390a576139096138b3565b5b80604052505050565b600061391d613372565b905061392982826138e2565b919050565b600067ffffffffffffffff821115613949576139486138b3565b5b613952826136c4565b9050602081019050919050565b82818337600083830152505050565b600061398161397c8461392e565b613913565b90508281526020810184848401111561399d5761399c6138ae565b5b6139a884828561395f565b509392505050565b600082601f8301126139c5576139c46138a9565b5b81356139d584826020860161396e565b91505092915050565b600681106139eb57600080fd5b50565b6000813590506139fd816139de565b92915050565b60008060008060808587031215613a1d57613a1c61337c565b5b6000613a2b87828801613894565b945050602085013567ffffffffffffffff811115613a4c57613a4b613381565b5b613a58878288016139b0565b9350506040613a69878288016139ee565b925050606085013567ffffffffffffffff811115613a8a57613a89613381565b5b613a96878288016139b0565b91505092959194509250565b600060208284031215613ab857613ab761337c565b5b6000613ac684828501613894565b91505092915050565b600081519050919050565b600082825260208201905092915050565b6000819050602082019050919050565b6000613b078383613456565b60208301905092915050565b6000602082019050919050565b6000613b2b82613acf565b613b358185613ada565b9350613b4083613aeb565b8060005b83811015613b71578151613b588882613afb565b9750613b6383613b13565b925050600181019050613b44565b5085935050505092915050565b60006020820190508181036000830152613b988184613b20565b905092915050565b600080600060608486031215613bb957613bb861337c565b5b600084013567ffffffffffffffff811115613bd757613bd6613381565b5b613be3868287016139b0565b9350506020613bf4868287016139ee565b925050604084013567ffffffffffffffff811115613c1557613c14613381565b5b613c21868287016139b0565b9150509250925092565b6000819050919050565b613c3e81613c2b565b8114613c4957600080fd5b50565b600081359050613c5b81613c35565b92915050565b600060208284031215613c7757613c7661337c565b5b6000613c8584828501613c4c565b91505092915050565b613c9781613c2b565b82525050565b6000602082019050613cb26000830184613c8e565b92915050565b60008060408385031215613ccf57613cce61337c565b5b6000613cdd85828601613c4c565b9250506020613cee85828601613894565b9150509250929050565b600080600060608486031215613d1157613d1061337c565b5b6000613d1f868287016133a7565b935050602084013567ffffffffffffffff811115613d4057613d3f613381565b5b613d4c868287016139b0565b925050604084013567ffffffffffffffff811115613d6d57613d6c613381565b5b613d79868287016139b0565b9150509250925092565b60008060408385031215613d9a57613d9961337c565b5b6000613da885828601613894565b9250506020613db985828601613894565b9150509250929050565b600082825260208201905092915050565b6000613ddf82613acf565b613de98185613dc3565b9350613df483613aeb565b8060005b83811015613e25578151613e0c8882613afb565b9750613e1783613b13565b925050600181019050613df8565b5085935050505092915050565b600060a083016000830151613e4a6000860182613447565b5060208301518482036020860152613e628282613dd4565b9150506040830151613e776040860182613456565b506060830151613e8a6060860182613756565b506080830151613e9d6080860182613456565b508091505092915050565b60006020820190508181036000830152613ec28184613e32565b905092915050565b613ed381613435565b82525050565b6000602082019050613eee6000830184613eca565b92915050565b600067ffffffffffffffff821115613f0f57613f0e6138b3565b5b602082029050602081019050919050565b600080fd5b6000613f38613f3384613ef4565b613913565b90508083825260208201905060208402830185811115613f5b57613f5a613f20565b5b835b81811015613f845780613f7088826133a7565b845260208401935050602081019050613f5d565b5050509392505050565b600082601f830112613fa357613fa26138a9565b5b8135613fb3848260208601613f25565b91505092915050565b600080600060608486031215613fd557613fd461337c565b5b6000613fe386828701613894565b935050602084013567ffffffffffffffff81111561400457614003613381565b5b61401086828701613f8e565b9250506040614021868287016133a7565b9150509250925092565b6005811061403857600080fd5b50565b60008135905061404a8161402b565b92915050565b600080604083850312156140675761406661337c565b5b6000614075858286016133a7565b92505060206140868582860161403b565b9150509250929050565b6000806000606084860312156140a9576140a861337c565b5b60006140b786828701613894565b93505060206140c886828701613894565b92505060406140d9868287016133a7565b9150509250925092565b600082825260208201905092915050565b7f5265636f726420646f6573206e6f742065786973740000000000000000000000600082015250565b600061412a6015836140e3565b9150614135826140f4565b602082019050919050565b600060208201905081810360008301526141598161411d565b9050919050565b7f5265636f7264206973206e6f7420616374697665000000000000000000000000600082015250565b60006141966014836140e3565b91506141a182614160565b602082019050919050565b600060208201905081810360008301526141c581614189565b9050919050565b7f4f6e6c792070617469656e742063616e20706572666f726d207468697320616360008201527f74696f6e00000000000000000000000000000000000000000000000000000000602082015250565b60006142286024836140e3565b9150614233826141cc565b604082019050919050565b600060208201905081810360008301526142578161421b565b9050919050565b7f4e6f7420617574686f72697a656420746f20616363657373207468697320726560008201527f636f726400000000000000000000000000000000000000000000000000000000602082015250565b60006142ba6024836140e3565b91506142c58261425e565b604082019050919050565b600060208201905081810360008301526142e9816142ad565b9050919050565b7f4e487b7100000000000000000000000000000000000000000000000000000000600052602260045260246000fd5b6000600282049050600182168061433757607f821691505b60208210810361434a576143496142f0565b5b50919050565b7f4e6f7420616e20617574686f72697a65642070726f7669646572000000000000600082015250565b6000614386601a836140e3565b915061439182614350565b602082019050919050565b600060208201905081810360008301526143b581614379565b9050919050565b7f496e76616c69642070617469656e742061646472657373000000000000000000600082015250565b60006143f26017836140e3565b91506143fd826143bc565b602082019050919050565b60006020820190508181036000830152614421816143e5565b9050919050565b7f4950465320686173682063616e6e6f7420626520656d70747900000000000000600082015250565b600061445e6019836140e3565b915061446982614428565b602082019050919050565b6000602082019050818103600083015261448d81614451565b9050919050565b7f4e487b7100000000000000000000000000000000000000000000000000000000600052601160045260246000fd5b60006144ce82613386565b91507fffffffffffffffffffffffffffffffffffffffffffffffffffffffffffffffff8203614500576144ff614494565b5b600182019050919050565b60008190508160005260206000209050919050565b60006020601f8301049050919050565b600082821b905092915050565b60006008830261456d7fffffffffffffffffffffffffffffffffffffffffffffffffffffffffffffffff82614530565b6145778683614530565b95508019841693508086168417925050509392505050565b6000819050919050565b60006145b46145af6145aa84613386565b61458f565b613386565b9050919050565b6000819050919050565b6145ce83614599565b6145e26145da826145bb565b84845461453d565b825550505050565b600090565b6145f76145ea565b6146028184846145c5565b505050565b5b818110156146265761461b6000826145ef565b600181019050614608565b5050565b601f82111561466b5761463c8161450b565b61464584614520565b81016020851015614654578190505b61466861466085614520565b830182614607565b50505b505050565b600082821c905092915050565b600061468e60001984600802614670565b1980831691505092915050565b60006146a7838361467d565b9150826002028217905092915050565b6146c08261367e565b67ffffffffffffffff8111156146d9576146d86138b3565b5b6146e3825461431f565b6146ee82828561462a565b600060209050601f831160018114614721576000841561470f578287015190505b614719858261469b565b865550614781565b601f19841661472f8661450b565b60005b8281101561475757848901518255600182019150602085019450602081019050614732565b868310156147745784890151614770601f89168261467d565b8355505b6001600288020188555050505b505050505050565b60006147948261367e565b61479e81856140e3565b93506147ae81856020860161369a565b6147b7816136c4565b840191505092915050565b6147cb81613735565b82525050565b600060408201905081810360008301526147eb8185614789565b90506147fa60208301846147c2565b9392505050565b7f496e76616c69642070726f766964657220616464726573730000000000000000600082015250565b60006148376018836140e3565b915061484282614801565b602082019050919050565b600060208201905081810360008301526148668161482a565b9050919050565b7f4e6f7420617574686f72697a6564000000000000000000000000000000000000600082015250565b60006148a3600e836140e3565b91506148ae8261486d565b602082019050919050565b600060208201905081810360008301526148d281614896565b9050919050565b7f4e487b7100000000000000000000000000000000000000000000000000000000600052603260045260246000fd5b600060408201905081810360008301526149228185614789565b90506149316020830184613853565b9392505050565b7f4e6f2061637469766520616363657373206772616e7400000000000000000000600082015250565b600061496e6016836140e3565b915061497982614938565b602082019050919050565b6000602082019050818103600083015261499d81614961565b9050919050565b7f496e76616c696420616464726573730000000000000000000000000000000000600082015250565b60006149da600f836140e3565b91506149e5826149a4565b602082019050919050565b60006020820190508181036000830152614a09816149cd565b9050919050565b7f4d757374206772616e742061636365737320746f206174206c65617374206f6e60008201527f65207265636f7264000000000000000000000000000000000000000000000000602082015250565b6000614a6c6028836140e3565b9150614a7782614a10565b604082019050919050565b60006020820190508181036000830152614a9b81614a5f565b9050919050565b7f496e76616c6964206475726174696f6e00000000000000000000000000000000600082015250565b6000614ad86010836140e3565b9150614ae382614aa2565b602082019050919050565b60006020820190508181036000830152614b0781614acb565b9050919050565b7f596f7520646f6e2774206f776e20616c6c20737065636966696564207265636f60008201527f7264730000000000000000000000000000000000000000000000000000000000602082015250565b6000614b6a6023836140e3565b9150614b7582614b0e565b604082019050919050565b60006020820190508181036000830152614b9981614b5d565b9050919050565b6000614bab82613386565b9150614bb683613386565b9250828202614bc481613386565b91508282048414831517614bdb57614bda614494565b5b5092915050565b6000614bed82613386565b9150614bf883613386565b9250828201905080821115614c1057614c0f614494565b5b92915050565b6000604082019050614c2b6000830185613eca565b614c386020830184613c8e565b939250505056fea26469706673582212201fc698e54337a6b22582eb80e2a65114e566f7a8e21d85060d98af7fb6bf60cd64736f6c634300081e0033",
					"opcodes": "PUSH1 0x80 PUSH1 0x40 MSTORE CALLVALUE DUP1 ISZERO PUSH2 0x10 JUMPI PUSH1 0x0 DUP1 REVERT JUMPDEST POP CALLER PUSH1 0x0 PUSH20 0xFFFFFFFFFFFFFFFFFFFFFFFFFFFFFFFFFFFFFFFF AND DUP2 PUSH20 0xFFFFFFFFFFFFFFFFFFFFFFFFFFFFFFFFFFFFFFFF AND SUB PUSH2 0x84 JUMPI PUSH1 0x0 PUSH1 0x40 MLOAD PUSH32 0x1E4FBDF700000000000000000000000000000000000000000000000000000000 DUP2 MSTORE PUSH1 0x4 ADD PUSH2 0x7B SWAP2 SWAP1 PUSH2 0x322 JUMP JUMPDEST PUSH1 0x40 MLOAD DUP1 SWAP2 SUB SWAP1 REVERT JUMPDEST PUSH2 0x93 DUP2 PUSH2 0xAD PUSH1 0x20 SHL PUSH1 0x20 SHR JUMP JUMPDEST POP PUSH2 0xA7 PUSH1 0x0 DUP1 SHL CALLER PUSH2 0x171 PUSH1 0x20 SHL PUSH1 0x20 SHR JUMP JUMPDEST POP PUSH2 0x33D JUMP JUMPDEST PUSH1 0x0 DUP1 PUSH1 0x0 SWAP1 SLOAD SWAP1 PUSH2 0x100 EXP SWAP1 DIV PUSH20 0xFFFFFFFFFFFFFFFFFFFFFFFFFFFFFFFFFFFFFFFF AND SWAP1 POP DUP2 PUSH1 0x0 DUP1 PUSH2 0x100 EXP DUP2 SLOAD DUP2 PUSH20 0xFFFFFFFFFFFFFFFFFFFFFFFFFFFFFFFFFFFFFFFF MUL NOT AND SWAP1 DUP4 PUSH20 0xFFFFFFFFFFFFFFFFFFFFFFFFFFFFFFFFFFFFFFFF AND MUL OR SWAP1 SSTORE POP DUP2 PUSH20 0xFFFFFFFFFFFFFFFFFFFFFFFFFFFFFFFFFFFFFFFF AND DUP2 PUSH20 0xFFFFFFFFFFFFFFFFFFFFFFFFFFFFFFFFFFFFFFFF AND PUSH32 0x8BE0079C531659141344CD1FD0A4F28419497F9722A3DAAFE3B4186F6B6457E0 PUSH1 0x40 MLOAD PUSH1 0x40 MLOAD DUP1 SWAP2 SUB SWAP1 LOG3 POP POP JUMP JUMPDEST PUSH1 0x0 PUSH2 0x183 DUP4 DUP4 PUSH2 0x26E PUSH1 0x20 SHL PUSH1 0x20 SHR JUMP JUMPDEST PUSH2 0x263 JUMPI PUSH1 0x1 DUP1 PUSH1 0x0 DUP6 DUP2 MSTORE PUSH1 0x20 ADD SWAP1 DUP2 MSTORE PUSH1 0x20 ADD PUSH1 0x0 KECCAK256 PUSH1 0x0 ADD PUSH1 0x0 DUP5 PUSH20 0xFFFFFFFFFFFFFFFFFFFFFFFFFFFFFFFFFFFFFFFF AND PUSH20 0xFFFFFFFFFFFFFFFFFFFFFFFFFFFFFFFFFFFFFFFF AND DUP2 MSTORE PUSH1 0x20 ADD SWAP1 DUP2 MSTORE PUSH1 0x20 ADD PUSH1 0x0 KECCAK256 PUSH1 0x0 PUSH2 0x100 EXP DUP2 SLOAD DUP2 PUSH1 0xFF MUL NOT AND SWAP1 DUP4 ISZERO ISZERO MUL OR SWAP1 SSTORE POP PUSH2 0x200 PUSH2 0x2D9 PUSH1 0x20 SHL PUSH1 0x20 SHR JUMP JUMPDEST PUSH20 0xFFFFFFFFFFFFFFFFFFFFFFFFFFFFFFFFFFFFFFFF AND DUP3 PUSH20 0xFFFFFFFFFFFFFFFFFFFFFFFFFFFFFFFFFFFFFFFF AND DUP5 PUSH32 0x2F8788117E7EFF1D82E926EC794901D17C78024A50270940304540A733656F0D PUSH1 0x40 MLOAD PUSH1 0x40 MLOAD DUP1 SWAP2 SUB SWAP1 LOG4 PUSH1 0x1 SWAP1 POP PUSH2 0x268 JUMP JUMPDEST PUSH1 0x0 SWAP1 POP JUMPDEST SWAP3 SWAP2 POP POP JUMP JUMPDEST PUSH1 0x0 PUSH1 0x1 PUSH1 0x0 DUP5 DUP2 MSTORE PUSH1 0x20 ADD SWAP1 DUP2 MSTORE PUSH1 0x20 ADD PUSH1 0x0 KECCAK256 PUSH1 0x0 ADD PUSH1 0x0 DUP4 PUSH20 0xFFFFFFFFFFFFFFFFFFFFFFFFFFFFFFFFFFFFFFFF AND PUSH20 0xFFFFFFFFFFFFFFFFFFFFFFFFFFFFFFFFFFFFFFFF AND DUP2 MSTORE PUSH1 0x20 ADD SWAP1 DUP2 MSTORE PUSH1 0x20 ADD PUSH1 0x0 KECCAK256 PUSH1 0x0 SWAP1 SLOAD SWAP1 PUSH2 0x100 EXP SWAP1 DIV PUSH1 0xFF AND SWAP1 POP SWAP3 SWAP2 POP POP JUMP JUMPDEST PUSH1 0x0 CALLER SWAP1 POP SWAP1 JUMP JUMPDEST PUSH1 0x0 PUSH20 0xFFFFFFFFFFFFFFFFFFFFFFFFFFFFFFFFFFFFFFFF DUP3 AND SWAP1 POP SWAP2 SWAP1 POP JUMP JUMPDEST PUSH1 0x0 PUSH2 0x30C DUP3 PUSH2 0x2E1 JUMP JUMPDEST SWAP1 POP SWAP2 SWAP1 POP JUMP JUMPDEST PUSH2 0x31C DUP2 PUSH2 0x301 JUMP JUMPDEST DUP3 MSTORE POP POP JUMP JUMPDEST PUSH1 0x0 PUSH1 0x20 DUP3 ADD SWAP1 POP PUSH2 0x337 PUSH1 0x0 DUP4 ADD DUP5 PUSH2 0x313 JUMP JUMPDEST SWAP3 SWAP2 POP POP JUMP JUMPDEST PUSH2 0x4C75 DUP1 PUSH2 0x34C PUSH1 0x0 CODECOPY PUSH1 0x0 RETURN INVALID PUSH1 0x80 PUSH1 0x40 MSTORE CALLVALUE DUP1 ISZERO PUSH2 0x10 JUMPI PUSH1 0x0 DUP1 REVERT JUMPDEST POP PUSH1 0x4 CALLDATASIZE LT PUSH2 0x1CF JUMPI PUSH1 0x0 CALLDATALOAD PUSH1 0xE0 SHR DUP1 PUSH4 0x3812C6A8 GT PUSH2 0x104 JUMPI DUP1 PUSH4 0x9399E973 GT PUSH2 0xA2 JUMPI DUP1 PUSH4 0xB9952215 GT PUSH2 0x71 JUMPI DUP1 PUSH4 0xB9952215 EQ PUSH2 0x562 JUMPI DUP1 PUSH4 0xCF56B4EB EQ PUSH2 0x57E JUMPI DUP1 PUSH4 0xD547741F EQ PUSH2 0x5AE JUMPI DUP1 PUSH4 0xF2FDE38B EQ PUSH2 0x5CA JUMPI PUSH2 0x1CF JUMP JUMPDEST DUP1 PUSH4 0x9399E973 EQ PUSH2 0x4DC JUMPI DUP1 PUSH4 0xA02BD29C EQ PUSH2 0x4F8 JUMPI DUP1 PUSH4 0xA217FDDF EQ PUSH2 0x514 JUMPI DUP1 PUSH4 0xB4B07A70 EQ PUSH2 0x532 JUMPI PUSH2 0x1CF JUMP JUMPDEST DUP1 PUSH4 0x8B681C7C GT PUSH2 0xDE JUMPI DUP1 PUSH4 0x8B681C7C EQ PUSH2 0x442 JUMPI DUP1 PUSH4 0x8DA5CB5B EQ PUSH2 0x472 JUMPI DUP1 PUSH4 0x91284A89 EQ PUSH2 0x490 JUMPI DUP1 PUSH4 0x91D14854 EQ PUSH2 0x4AC JUMPI PUSH2 0x1CF JUMP JUMPDEST DUP1 PUSH4 0x3812C6A8 EQ PUSH2 0x400 JUMPI DUP1 PUSH4 0x715018A6 EQ PUSH2 0x41C JUMPI DUP1 PUSH4 0x85E68531 EQ PUSH2 0x426 JUMPI PUSH2 0x1CF JUMP JUMPDEST DUP1 PUSH4 0x18BD4847 GT PUSH2 0x171 JUMPI DUP1 PUSH4 0x248A9CA3 GT PUSH2 0x14B JUMPI DUP1 PUSH4 0x248A9CA3 EQ PUSH2 0x37A JUMPI DUP1 PUSH4 0x24C20A34 EQ PUSH2 0x3AA JUMPI DUP1 PUSH4 0x2F2FF15D EQ PUSH2 0x3C8 JUMPI DUP1 PUSH4 0x36568ABE EQ PUSH2 0x3E4 JUMPI PUSH2 0x1CF JUMP JUMPDEST DUP1 PUSH4 0x18BD4847 EQ PUSH2 0x2EA JUMPI DUP1 PUSH4 0x1B6377B8 EQ PUSH2 0x31A JUMPI DUP1 PUSH4 0x22770D8E EQ PUSH2 0x34A JUMPI PUSH2 0x1CF JUMP JUMPDEST DUP1 PUSH4 0x61F9811 GT PUSH2 0x1AD JUMPI DUP1 PUSH4 0x61F9811 EQ PUSH2 0x264 JUMPI DUP1 PUSH4 0xAEACB5E EQ PUSH2 0x280 JUMPI DUP1 PUSH4 0xE8DCE29 EQ PUSH2 0x29E JUMPI DUP1 PUSH4 0x112EA262 EQ PUSH2 0x2CE JUMPI PUSH2 0x1CF JUMP JUMPDEST DUP1 PUSH4 0x1B1D324 EQ PUSH2 0x1D4 JUMPI DUP1 PUSH4 0x1FFC9A7 EQ PUSH2 0x204 JUMPI DUP1 PUSH4 0x3E9E609 EQ PUSH2 0x234 JUMPI JUMPDEST PUSH1 0x0 DUP1 REVERT JUMPDEST PUSH2 0x1EE PUSH1 0x4 DUP1 CALLDATASIZE SUB DUP2 ADD SWAP1 PUSH2 0x1E9 SWAP2 SWAP1 PUSH2 0x33BC JUMP JUMPDEST PUSH2 0x5E6 JUMP JUMPDEST PUSH1 0x40 MLOAD PUSH2 0x1FB SWAP2 SWAP1 PUSH2 0x35A1 JUMP JUMPDEST PUSH1 0x40 MLOAD DUP1 SWAP2 SUB SWAP1 RETURN JUMPDEST PUSH2 0x21E PUSH1 0x4 DUP1 CALLDATASIZE SUB DUP2 ADD SWAP1 PUSH2 0x219 SWAP2 SWAP1 PUSH2 0x361B JUMP JUMPDEST PUSH2 0x84F JUMP JUMPDEST PUSH1 0x40 MLOAD PUSH2 0x22B SWAP2 SWAP1 PUSH2 0x3663 JUMP JUMPDEST PUSH1 0x40 MLOAD DUP1 SWAP2 SUB SWAP1 RETURN JUMPDEST PUSH2 0x24E PUSH1 0x4 DUP1 CALLDATASIZE SUB DUP2 ADD SWAP1 PUSH2 0x249 SWAP2 SWAP1 PUSH2 0x33BC JUMP JUMPDEST PUSH2 0x8C9 JUMP JUMPDEST PUSH1 0x40 MLOAD PUSH2 0x25B SWAP2 SWAP1 PUSH2 0x3831 JUMP JUMPDEST PUSH1 0x40 MLOAD DUP1 SWAP2 SUB SWAP1 RETURN JUMPDEST PUSH2 0x27E PUSH1 0x4 DUP1 CALLDATASIZE SUB DUP2 ADD SWAP1 PUSH2 0x279 SWAP2 SWAP1 PUSH2 0x33BC JUMP JUMPDEST PUSH2 0xC73 JUMP JUMPDEST STOP JUMPDEST PUSH2 0x288 PUSH2 0xE01 JUMP JUMPDEST PUSH1 0x40 MLOAD PUSH2 0x295 SWAP2 SWAP1 PUSH2 0x3862 JUMP JUMPDEST PUSH1 0x40 MLOAD DUP1 SWAP2 SUB SWAP1 RETURN JUMPDEST PUSH2 0x2B8 PUSH1 0x4 DUP1 CALLDATASIZE SUB DUP2 ADD SWAP1 PUSH2 0x2B3 SWAP2 SWAP1 PUSH2 0x3A03 JUMP JUMPDEST PUSH2 0xE0B JUMP JUMPDEST PUSH1 0x40 MLOAD PUSH2 0x2C5 SWAP2 SWAP1 PUSH2 0x3862 JUMP JUMPDEST PUSH1 0x40 MLOAD DUP1 SWAP2 SUB SWAP1 RETURN JUMPDEST PUSH2 0x2E8 PUSH1 0x4 DUP1 CALLDATASIZE SUB DUP2 ADD SWAP1 PUSH2 0x2E3 SWAP2 SWAP1 PUSH2 0x3AA2 JUMP JUMPDEST PUSH2 0x11CE JUMP JUMPDEST STOP JUMPDEST PUSH2 0x304 PUSH1 0x4 DUP1 CALLDATASIZE SUB DUP2 ADD SWAP1 PUSH2 0x2FF SWAP2 SWAP1 PUSH2 0x3AA2 JUMP JUMPDEST PUSH2 0x1278 JUMP JUMPDEST PUSH1 0x40 MLOAD PUSH2 0x311 SWAP2 SWAP1 PUSH2 0x3B7E JUMP JUMPDEST PUSH1 0x40 MLOAD DUP1 SWAP2 SUB SWAP1 RETURN JUMPDEST PUSH2 0x334 PUSH1 0x4 DUP1 CALLDATASIZE SUB DUP2 ADD SWAP1 PUSH2 0x32F SWAP2 SWAP1 PUSH2 0x3BA0 JUMP JUMPDEST PUSH2 0x1519 JUMP JUMPDEST PUSH1 0x40 MLOAD PUSH2 0x341 SWAP2 SWAP1 PUSH2 0x3862 JUMP JUMPDEST PUSH1 0x40 MLOAD DUP1 SWAP2 SUB SWAP1 RETURN JUMPDEST PUSH2 0x364 PUSH1 0x4 DUP1 CALLDATASIZE SUB DUP2 ADD SWAP1 PUSH2 0x35F SWAP2 SWAP1 PUSH2 0x3AA2 JUMP JUMPDEST PUSH2 0x1802 JUMP JUMPDEST PUSH1 0x40 MLOAD PUSH2 0x371 SWAP2 SWAP1 PUSH2 0x3663 JUMP JUMPDEST PUSH1 0x40 MLOAD DUP1 SWAP2 SUB SWAP1 RETURN JUMPDEST PUSH2 0x394 PUSH1 0x4 DUP1 CALLDATASIZE SUB DUP2 ADD SWAP1 PUSH2 0x38F SWAP2 SWAP1 PUSH2 0x3C61 JUMP JUMPDEST PUSH2 0x1835 JUMP JUMPDEST PUSH1 0x40 MLOAD PUSH2 0x3A1 SWAP2 SWAP1 PUSH2 0x3C9D JUMP JUMPDEST PUSH1 0x40 MLOAD DUP1 SWAP2 SUB SWAP1 RETURN JUMPDEST PUSH2 0x3B2 PUSH2 0x1855 JUMP JUMPDEST PUSH1 0x40 MLOAD PUSH2 0x3BF SWAP2 SWAP1 PUSH2 0x3C9D JUMP JUMPDEST PUSH1 0x40 MLOAD DUP1 SWAP2 SUB SWAP1 RETURN JUMPDEST PUSH2 0x3E2 PUSH1 0x4 DUP1 CALLDATASIZE SUB DUP2 ADD SWAP1 PUSH2 0x3DD SWAP2 SWAP1 PUSH2 0x3CB8 JUMP JUMPDEST PUSH2 0x1879 JUMP JUMPDEST STOP JUMPDEST PUSH2 0x3FE PUSH1 0x4 DUP1 CALLDATASIZE SUB DUP2 ADD SWAP1 PUSH2 0x3F9 SWAP2 SWAP1 PUSH2 0x3CB8 JUMP JUMPDEST PUSH2 0x189B JUMP JUMPDEST STOP JUMPDEST PUSH2 0x41A PUSH1 0x4 DUP1 CALLDATASIZE SUB DUP2 ADD SWAP1 PUSH2 0x415 SWAP2 SWAP1 PUSH2 0x3CF8 JUMP JUMPDEST PUSH2 0x1916 JUMP JUMPDEST STOP JUMPDEST PUSH2 0x424 PUSH2 0x1B0B JUMP JUMPDEST STOP JUMPDEST PUSH2 0x440 PUSH1 0x4 DUP1 CALLDATASIZE SUB DUP2 ADD SWAP1 PUSH2 0x43B SWAP2 SWAP1 PUSH2 0x3AA2 JUMP JUMPDEST PUSH2 0x1B1F JUMP JUMPDEST STOP JUMPDEST PUSH2 0x45C PUSH1 0x4 DUP1 CALLDATASIZE SUB DUP2 ADD SWAP1 PUSH2 0x457 SWAP2 SWAP1 PUSH2 0x3D83 JUMP JUMPDEST PUSH2 0x1CE0 JUMP JUMPDEST PUSH1 0x40 MLOAD PUSH2 0x469 SWAP2 SWAP1 PUSH2 0x3EA8 JUMP JUMPDEST PUSH1 0x40 MLOAD DUP1 SWAP2 SUB SWAP1 RETURN JUMPDEST PUSH2 0x47A PUSH2 0x1EF8 JUMP JUMPDEST PUSH1 0x40 MLOAD PUSH2 0x487 SWAP2 SWAP1 PUSH2 0x3ED9 JUMP JUMPDEST PUSH1 0x40 MLOAD DUP1 SWAP2 SUB SWAP1 RETURN JUMPDEST PUSH2 0x4AA PUSH1 0x4 DUP1 CALLDATASIZE SUB DUP2 ADD SWAP1 PUSH2 0x4A5 SWAP2 SWAP1 PUSH2 0x3AA2 JUMP JUMPDEST PUSH2 0x1F21 JUMP JUMPDEST STOP JUMPDEST PUSH2 0x4C6 PUSH1 0x4 DUP1 CALLDATASIZE SUB DUP2 ADD SWAP1 PUSH2 0x4C1 SWAP2 SWAP1 PUSH2 0x3CB8 JUMP JUMPDEST PUSH2 0x2011 JUMP JUMPDEST PUSH1 0x40 MLOAD PUSH2 0x4D3 SWAP2 SWAP1 PUSH2 0x3663 JUMP JUMPDEST PUSH1 0x40 MLOAD DUP1 SWAP2 SUB SWAP1 RETURN JUMPDEST PUSH2 0x4F6 PUSH1 0x4 DUP1 CALLDATASIZE SUB DUP2 ADD SWAP1 PUSH2 0x4F1 SWAP2 SWAP1 PUSH2 0x3FBC JUMP JUMPDEST PUSH2 0x207C JUMP JUMPDEST STOP JUMPDEST PUSH2 0x512 PUSH1 0x4 DUP1 CALLDATASIZE SUB DUP2 ADD SWAP1 PUSH2 0x50D SWAP2 SWAP1 PUSH2 0x4050 JUMP JUMPDEST PUSH2 0x2438 JUMP JUMPDEST STOP JUMPDEST PUSH2 0x51C PUSH2 0x2829 JUMP JUMPDEST PUSH1 0x40 MLOAD PUSH2 0x529 SWAP2 SWAP1 PUSH2 0x3C9D JUMP JUMPDEST PUSH1 0x40 MLOAD DUP1 SWAP2 SUB SWAP1 RETURN JUMPDEST PUSH2 0x54C PUSH1 0x4 DUP1 CALLDATASIZE SUB DUP2 ADD SWAP1 PUSH2 0x547 SWAP2 SWAP1 PUSH2 0x3AA2 JUMP JUMPDEST PUSH2 0x2830 JUMP JUMPDEST PUSH1 0x40 MLOAD PUSH2 0x559 SWAP2 SWAP1 PUSH2 0x3ED9 JUMP JUMPDEST PUSH1 0x40 MLOAD DUP1 SWAP2 SUB SWAP1 RETURN JUMPDEST PUSH2 0x57C PUSH1 0x4 DUP1 CALLDATASIZE SUB DUP2 ADD SWAP1 PUSH2 0x577 SWAP2 SWAP1 PUSH2 0x3AA2 JUMP JUMPDEST PUSH2 0x2863 JUMP JUMPDEST STOP JUMPDEST PUSH2 0x598 PUSH1 0x4 DUP1 CALLDATASIZE SUB DUP2 ADD SWAP1 PUSH2 0x593 SWAP2 SWAP1 PUSH2 0x4090 JUMP JUMPDEST PUSH2 0x289E JUMP JUMPDEST PUSH1 0x40 MLOAD PUSH2 0x5A5 SWAP2 SWAP1 PUSH2 0x3663 JUMP JUMPDEST PUSH1 0x40 MLOAD DUP1 SWAP2 SUB SWAP1 RETURN JUMPDEST PUSH2 0x5C8 PUSH1 0x4 DUP1 CALLDATASIZE SUB DUP2 ADD SWAP1 PUSH2 0x5C3 SWAP2 SWAP1 PUSH2 0x3CB8 JUMP JUMPDEST PUSH2 0x2B63 JUMP JUMPDEST STOP JUMPDEST PUSH2 0x5E4 PUSH1 0x4 DUP1 CALLDATASIZE SUB DUP2 ADD SWAP1 PUSH2 0x5DF SWAP2 SWAP1 PUSH2 0x3AA2 JUMP JUMPDEST PUSH2 0x2B85 JUMP JUMPDEST STOP JUMPDEST PUSH1 0x60 DUP2 PUSH1 0x0 DUP2 GT DUP1 ISZERO PUSH2 0x5FB JUMPI POP PUSH1 0x7 SLOAD DUP2 GT ISZERO JUMPDEST PUSH2 0x63A JUMPI PUSH1 0x40 MLOAD PUSH32 0x8C379A000000000000000000000000000000000000000000000000000000000 DUP2 MSTORE PUSH1 0x4 ADD PUSH2 0x631 SWAP1 PUSH2 0x4140 JUMP JUMPDEST PUSH1 0x40 MLOAD DUP1 SWAP2 SUB SWAP1 REVERT JUMPDEST PUSH1 0x3 PUSH1 0x0 DUP3 DUP2 MSTORE PUSH1 0x20 ADD SWAP1 DUP2 MSTORE PUSH1 0x20 ADD PUSH1 0x0 KECCAK256 PUSH1 0x5 ADD PUSH1 0x14 SWAP1 SLOAD SWAP1 PUSH2 0x100 EXP SWAP1 DIV PUSH1 0xFF AND PUSH2 0x69D JUMPI PUSH1 0x40 MLOAD PUSH32 0x8C379A000000000000000000000000000000000000000000000000000000000 DUP2 MSTORE PUSH1 0x4 ADD PUSH2 0x694 SWAP1 PUSH2 0x41AC JUMP JUMPDEST PUSH1 0x40 MLOAD DUP1 SWAP2 SUB SWAP1 REVERT JUMPDEST DUP3 CALLER PUSH20 0xFFFFFFFFFFFFFFFFFFFFFFFFFFFFFFFFFFFFFFFF AND PUSH1 0x3 PUSH1 0x0 DUP4 DUP2 MSTORE PUSH1 0x20 ADD SWAP1 DUP2 MSTORE PUSH1 0x20 ADD PUSH1 0x0 KECCAK256 PUSH1 0x1 ADD PUSH1 0x0 SWAP1 SLOAD SWAP1 PUSH2 0x100 EXP SWAP1 DIV PUSH20 0xFFFFFFFFFFFFFFFFFFFFFFFFFFFFFFFFFFFFFFFF AND PUSH20 0xFFFFFFFFFFFFFFFFFFFFFFFFFFFFFFFFFFFFFFFF AND EQ PUSH2 0x742 JUMPI PUSH1 0x40 MLOAD PUSH32 0x8C379A000000000000000000000000000000000000000000000000000000000 DUP2 MSTORE PUSH1 0x4 ADD PUSH2 0x739 SWAP1 PUSH2 0x423E JUMP JUMPDEST PUSH1 0x40 MLOAD DUP1 SWAP2 SUB SWAP1 REVERT JUMPDEST PUSH1 0x5 PUSH1 0x0 DUP6 DUP2 MSTORE PUSH1 0x20 ADD SWAP1 DUP2 MSTORE PUSH1 0x20 ADD PUSH1 0x0 KECCAK256 DUP1 SLOAD DUP1 PUSH1 0x20 MUL PUSH1 0x20 ADD PUSH1 0x40 MLOAD SWAP1 DUP2 ADD PUSH1 0x40 MSTORE DUP1 SWAP3 SWAP2 SWAP1 DUP2 DUP2 MSTORE PUSH1 0x20 ADD PUSH1 0x0 SWAP1 JUMPDEST DUP3 DUP3 LT ISZERO PUSH2 0x842 JUMPI DUP4 DUP3 SWAP1 PUSH1 0x0 MSTORE PUSH1 0x20 PUSH1 0x0 KECCAK256 SWAP1 PUSH1 0x3 MUL ADD PUSH1 0x40 MLOAD DUP1 PUSH1 0x60 ADD PUSH1 0x40 MSTORE SWAP1 DUP2 PUSH1 0x0 DUP3 ADD PUSH1 0x0 SWAP1 SLOAD SWAP1 PUSH2 0x100 EXP SWAP1 DIV PUSH20 0xFFFFFFFFFFFFFFFFFFFFFFFFFFFFFFFFFFFFFFFF AND PUSH20 0xFFFFFFFFFFFFFFFFFFFFFFFFFFFFFFFFFFFFFFFF AND PUSH20 0xFFFFFFFFFFFFFFFFFFFFFFFFFFFFFFFFFFFFFFFF AND DUP2 MSTORE PUSH1 0x20 ADD PUSH1 0x1 DUP3 ADD SLOAD DUP2 MSTORE PUSH1 0x20 ADD PUSH1 0x2 DUP3 ADD PUSH1 0x0 SWAP1 SLOAD SWAP1 PUSH2 0x100 EXP SWAP1 DIV PUSH1 0xFF AND PUSH1 0x4 DUP2 GT ISZERO PUSH2 0x81D JUMPI PUSH2 0x81C PUSH2 0x3465 JUMP JUMPDEST JUMPDEST PUSH1 0x4 DUP2 GT ISZERO PUSH2 0x82F JUMPI PUSH2 0x82E PUSH2 0x3465 JUMP JUMPDEST JUMPDEST DUP2 MSTORE POP POP DUP2 MSTORE PUSH1 0x20 ADD SWAP1 PUSH1 0x1 ADD SWAP1 PUSH2 0x775 JUMP JUMPDEST POP POP POP POP SWAP3 POP POP POP SWAP2 SWAP1 POP JUMP JUMPDEST PUSH1 0x0 PUSH32 0x7965DB0B00000000000000000000000000000000000000000000000000000000 PUSH28 0xFFFFFFFFFFFFFFFFFFFFFFFFFFFFFFFFFFFFFFFFFFFFFFFFFFFFFFFF NOT AND DUP3 PUSH28 0xFFFFFFFFFFFFFFFFFFFFFFFFFFFFFFFFFFFFFFFFFFFFFFFFFFFFFFFF NOT AND EQ DUP1 PUSH2 0x8C2 JUMPI POP PUSH2 0x8C1 DUP3 PUSH2 0x2C0B JUMP JUMPDEST JUMPDEST SWAP1 POP SWAP2 SWAP1 POP JUMP JUMPDEST PUSH2 0x8D1 PUSH2 0x3235 JUMP JUMPDEST DUP2 PUSH1 0x0 DUP2 GT DUP1 ISZERO PUSH2 0x8E4 JUMPI POP PUSH1 0x7 SLOAD DUP2 GT ISZERO JUMPDEST PUSH2 0x923 JUMPI PUSH1 0x40 MLOAD PUSH32 0x8C379A000000000000000000000000000000000000000000000000000000000 DUP2 MSTORE PUSH1 0x4 ADD PUSH2 0x91A SWAP1 PUSH2 0x4140 JUMP JUMPDEST PUSH1 0x40 MLOAD DUP1 SWAP2 SUB SWAP1 REVERT JUMPDEST PUSH1 0x3 PUSH1 0x0 DUP3 DUP2 MSTORE PUSH1 0x20 ADD SWAP1 DUP2 MSTORE PUSH1 0x20 ADD PUSH1 0x0 KECCAK256 PUSH1 0x5 ADD PUSH1 0x14 SWAP1 SLOAD SWAP1 PUSH2 0x100 EXP SWAP1 DIV PUSH1 0xFF AND PUSH2 0x986 JUMPI PUSH1 0x40 MLOAD PUSH32 0x8C379A000000000000000000000000000000000000000000000000000000000 DUP2 MSTORE PUSH1 0x4 ADD PUSH2 0x97D SWAP1 PUSH2 0x41AC JUMP JUMPDEST PUSH1 0x40 MLOAD DUP1 SWAP2 SUB SWAP1 REVERT JUMPDEST DUP3 PUSH2 0x9C8 PUSH1 0x3 PUSH1 0x0 DUP4 DUP2 MSTORE PUSH1 0x20 ADD SWAP1 DUP2 MSTORE PUSH1 0x20 ADD PUSH1 0x0 KECCAK256 PUSH1 0x1 ADD PUSH1 0x0 SWAP1 SLOAD SWAP1 PUSH2 0x100 EXP SWAP1 DIV PUSH20 0xFFFFFFFFFFFFFFFFFFFFFFFFFFFFFFFFFFFFFFFF AND CALLER DUP4 PUSH2 0x289E JUMP JUMPDEST PUSH2 0xA07 JUMPI PUSH1 0x40 MLOAD PUSH32 0x8C379A000000000000000000000000000000000000000000000000000000000 DUP2 MSTORE PUSH1 0x4 ADD PUSH2 0x9FE SWAP1 PUSH2 0x42D0 JUMP JUMPDEST PUSH1 0x40 MLOAD DUP1 SWAP2 SUB SWAP1 REVERT JUMPDEST PUSH1 0x3 PUSH1 0x0 DUP6 DUP2 MSTORE PUSH1 0x20 ADD SWAP1 DUP2 MSTORE PUSH1 0x20 ADD PUSH1 0x0 KECCAK256 PUSH1 0x40 MLOAD DUP1 PUSH2 0x120 ADD PUSH1 0x40 MSTORE SWAP1 DUP2 PUSH1 0x0 DUP3 ADD SLOAD DUP2 MSTORE PUSH1 0x20 ADD PUSH1 0x1 DUP3 ADD PUSH1 0x0 SWAP1 SLOAD SWAP1 PUSH2 0x100 EXP SWAP1 DIV PUSH20 0xFFFFFFFFFFFFFFFFFFFFFFFFFFFFFFFFFFFFFFFF AND PUSH20 0xFFFFFFFFFFFFFFFFFFFFFFFFFFFFFFFFFFFFFFFF AND PUSH20 0xFFFFFFFFFFFFFFFFFFFFFFFFFFFFFFFFFFFFFFFF AND DUP2 MSTORE PUSH1 0x20 ADD PUSH1 0x2 DUP3 ADD DUP1 SLOAD PUSH2 0xA96 SWAP1 PUSH2 0x431F JUMP JUMPDEST DUP1 PUSH1 0x1F ADD PUSH1 0x20 DUP1 SWAP2 DIV MUL PUSH1 0x20 ADD PUSH1 0x40 MLOAD SWAP1 DUP2 ADD PUSH1 0x40 MSTORE DUP1 SWAP3 SWAP2 SWAP1 DUP2 DUP2 MSTORE PUSH1 0x20 ADD DUP3 DUP1 SLOAD PUSH2 0xAC2 SWAP1 PUSH2 0x431F JUMP JUMPDEST DUP1 ISZERO PUSH2 0xB0F JUMPI DUP1 PUSH1 0x1F LT PUSH2 0xAE4 JUMPI PUSH2 0x100 DUP1 DUP4 SLOAD DIV MUL DUP4 MSTORE SWAP2 PUSH1 0x20 ADD SWAP2 PUSH2 0xB0F JUMP JUMPDEST DUP3 ADD SWAP2 SWAP1 PUSH1 0x0 MSTORE PUSH1 0x20 PUSH1 0x0 KECCAK256 SWAP1 JUMPDEST DUP2 SLOAD DUP2 MSTORE SWAP1 PUSH1 0x1 ADD SWAP1 PUSH1 0x20 ADD DUP1 DUP4 GT PUSH2 0xAF2 JUMPI DUP3 SWAP1 SUB PUSH1 0x1F AND DUP3 ADD SWAP2 JUMPDEST POP POP POP POP POP DUP2 MSTORE PUSH1 0x20 ADD PUSH1 0x3 DUP3 ADD PUSH1 0x0 SWAP1 SLOAD SWAP1 PUSH2 0x100 EXP SWAP1 DIV PUSH1 0xFF AND PUSH1 0x5 DUP2 GT ISZERO PUSH2 0xB3D JUMPI PUSH2 0xB3C PUSH2 0x3465 JUMP JUMPDEST JUMPDEST PUSH1 0x5 DUP2 GT ISZERO PUSH2 0xB4F JUMPI PUSH2 0xB4E PUSH2 0x3465 JUMP JUMPDEST JUMPDEST DUP2 MSTORE PUSH1 0x20 ADD PUSH1 0x4 DUP3 ADD SLOAD DUP2 MSTORE PUSH1 0x20 ADD PUSH1 0x5 DUP3 ADD PUSH1 0x0 SWAP1 SLOAD SWAP1 PUSH2 0x100 EXP SWAP1 DIV PUSH20 0xFFFFFFFFFFFFFFFFFFFFFFFFFFFFFFFFFFFFFFFF AND PUSH20 0xFFFFFFFFFFFFFFFFFFFFFFFFFFFFFFFFFFFFFFFF AND PUSH20 0xFFFFFFFFFFFFFFFFFFFFFFFFFFFFFFFFFFFFFFFF AND DUP2 MSTORE PUSH1 0x20 ADD PUSH1 0x5 DUP3 ADD PUSH1 0x14 SWAP1 SLOAD SWAP1 PUSH2 0x100 EXP SWAP1 DIV PUSH1 0xFF AND ISZERO ISZERO ISZERO ISZERO DUP2 MSTORE PUSH1 0x20 ADD PUSH1 0x6 DUP3 ADD DUP1 SLOAD PUSH2 0xBDE SWAP1 PUSH2 0x431F JUMP JUMPDEST DUP1 PUSH1 0x1F ADD PUSH1 0x20 DUP1 SWAP2 DIV MUL PUSH1 0x20 ADD PUSH1 0x40 MLOAD SWAP1 DUP2 ADD PUSH1 0x40 MSTORE DUP1 SWAP3 SWAP2 SWAP1 DUP2 DUP2 MSTORE PUSH1 0x20 ADD DUP3 DUP1 SLOAD PUSH2 0xC0A SWAP1 PUSH2 0x431F JUMP JUMPDEST DUP1 ISZERO PUSH2 0xC57 JUMPI DUP1 PUSH1 0x1F LT PUSH2 0xC2C JUMPI PUSH2 0x100 DUP1 DUP4 SLOAD DIV MUL DUP4 MSTORE SWAP2 PUSH1 0x20 ADD SWAP2 PUSH2 0xC57 JUMP JUMPDEST DUP3 ADD SWAP2 SWAP1 PUSH1 0x0 MSTORE PUSH1 0x20 PUSH1 0x0 KECCAK256 SWAP1 JUMPDEST DUP2 SLOAD DUP2 MSTORE SWAP1 PUSH1 0x1 ADD SWAP1 PUSH1 0x20 ADD DUP1 DUP4 GT PUSH2 0xC3A JUMPI DUP3 SWAP1 SUB PUSH1 0x1F AND DUP3 ADD SWAP2 JUMPDEST POP POP POP POP POP DUP2 MSTORE PUSH1 0x20 ADD PUSH1 0x7 DUP3 ADD SLOAD DUP2 MSTORE POP POP SWAP3 POP POP POP SWAP2 SWAP1 POP JUMP JUMPDEST DUP1 PUSH1 0x0 DUP2 GT DUP1 ISZERO PUSH2 0xC86 JUMPI POP PUSH1 0x7 SLOAD DUP2 GT ISZERO JUMPDEST PUSH2 0xCC5 JUMPI PUSH1 0x40 MLOAD PUSH32 0x8C379A000000000000000000000000000000000000000000000000000000000 DUP2 MSTORE PUSH1 0x4 ADD PUSH2 0xCBC SWAP1 PUSH2 0x4140 JUMP JUMPDEST PUSH1 0x40 MLOAD DUP1 SWAP2 SUB SWAP1 REVERT JUMPDEST PUSH1 0x3 PUSH1 0x0 DUP3 DUP2 MSTORE PUSH1 0x20 ADD SWAP1 DUP2 MSTORE PUSH1 0x20 ADD PUSH1 0x0 KECCAK256 PUSH1 0x5 ADD PUSH1 0x14 SWAP1 SLOAD SWAP1 PUSH2 0x100 EXP SWAP1 DIV PUSH1 0xFF AND PUSH2 0xD28 JUMPI PUSH1 0x40 MLOAD PUSH32 0x8C379A000000000000000000000000000000000000000000000000000000000 DUP2 MSTORE PUSH1 0x4 ADD PUSH2 0xD1F SWAP1 PUSH2 0x41AC JUMP JUMPDEST PUSH1 0x40 MLOAD DUP1 SWAP2 SUB SWAP1 REVERT JUMPDEST DUP2 CALLER PUSH20 0xFFFFFFFFFFFFFFFFFFFFFFFFFFFFFFFFFFFFFFFF AND PUSH1 0x3 PUSH1 0x0 DUP4 DUP2 MSTORE PUSH1 0x20 ADD SWAP1 DUP2 MSTORE PUSH1 0x20 ADD PUSH1 0x0 KECCAK256 PUSH1 0x1 ADD PUSH1 0x0 SWAP1 SLOAD SWAP1 PUSH2 0x100 EXP SWAP1 DIV PUSH20 0xFFFFFFFFFFFFFFFFFFFFFFFFFFFFFFFFFFFFFFFF AND PUSH20 0xFFFFFFFFFFFFFFFFFFFFFFFFFFFFFFFFFFFFFFFF AND EQ PUSH2 0xDCD JUMPI PUSH1 0x40 MLOAD PUSH32 0x8C379A000000000000000000000000000000000000000000000000000000000 DUP2 MSTORE PUSH1 0x4 ADD PUSH2 0xDC4 SWAP1 PUSH2 0x423E JUMP JUMPDEST PUSH1 0x40 MLOAD DUP1 SWAP2 SUB SWAP1 REVERT JUMPDEST PUSH1 0x0 PUSH1 0x3 PUSH1 0x0 DUP6 DUP2 MSTORE PUSH1 0x20 ADD SWAP1 DUP2 MSTORE PUSH1 0x20 ADD PUSH1 0x0 KECCAK256 PUSH1 0x5 ADD PUSH1 0x14 PUSH2 0x100 EXP DUP2 SLOAD DUP2 PUSH1 0xFF MUL NOT AND SWAP1 DUP4 ISZERO ISZERO MUL OR SWAP1 SSTORE POP POP POP POP JUMP JUMPDEST PUSH1 0x0 PUSH1 0x7 SLOAD SWAP1 POP SWAP1 JUMP JUMPDEST PUSH1 0x0 PUSH2 0xE37 PUSH32 0x18D9FF454DE989BD126B06BD404B47EDE75F9E65543E94E8D212F89D7DCBB87C CALLER PUSH2 0x2011 JUMP JUMPDEST PUSH2 0xE76 JUMPI PUSH1 0x40 MLOAD PUSH32 0x8C379A000000000000000000000000000000000000000000000000000000000 DUP2 MSTORE PUSH1 0x4 ADD PUSH2 0xE6D SWAP1 PUSH2 0x439C JUMP JUMPDEST PUSH1 0x40 MLOAD DUP1 SWAP2 SUB SWAP1 REVERT JUMPDEST PUSH1 0x0 PUSH20 0xFFFFFFFFFFFFFFFFFFFFFFFFFFFFFFFFFFFFFFFF AND DUP6 PUSH20 0xFFFFFFFFFFFFFFFFFFFFFFFFFFFFFFFFFFFFFFFF AND SUB PUSH2 0xEE5 JUMPI PUSH1 0x40 MLOAD PUSH32 0x8C379A000000000000000000000000000000000000000000000000000000000 DUP2 MSTORE PUSH1 0x4 ADD PUSH2 0xEDC SWAP1 PUSH2 0x4408 JUMP JUMPDEST PUSH1 0x40 MLOAD DUP1 SWAP2 SUB SWAP1 REVERT JUMPDEST PUSH1 0x0 DUP5 MLOAD GT PUSH2 0xF29 JUMPI PUSH1 0x40 MLOAD PUSH32 0x8C379A000000000000000000000000000000000000000000000000000000000 DUP2 MSTORE PUSH1 0x4 ADD PUSH2 0xF20 SWAP1 PUSH2 0x4474 JUMP JUMPDEST PUSH1 0x40 MLOAD DUP1 SWAP2 SUB SWAP1 REVERT JUMPDEST PUSH1 0x7 PUSH1 0x0 DUP2 SLOAD DUP1 SWAP3 SWAP2 SWAP1 PUSH2 0xF3C SWAP1 PUSH2 0x44C3 JUMP JUMPDEST SWAP2 SWAP1 POP SSTORE POP PUSH1 0x40 MLOAD DUP1 PUSH2 0x120 ADD PUSH1 0x40 MSTORE DUP1 PUSH1 0x7 SLOAD DUP2 MSTORE PUSH1 0x20 ADD DUP7 PUSH20 0xFFFFFFFFFFFFFFFFFFFFFFFFFFFFFFFFFFFFFFFF AND DUP2 MSTORE PUSH1 0x20 ADD DUP6 DUP2 MSTORE PUSH1 0x20 ADD DUP5 PUSH1 0x5 DUP2 GT ISZERO PUSH2 0xF8A JUMPI PUSH2 0xF89 PUSH2 0x3465 JUMP JUMPDEST JUMPDEST DUP2 MSTORE PUSH1 0x20 ADD TIMESTAMP DUP2 MSTORE PUSH1 0x20 ADD CALLER PUSH20 0xFFFFFFFFFFFFFFFFFFFFFFFFFFFFFFFFFFFFFFFF AND DUP2 MSTORE PUSH1 0x20 ADD PUSH1 0x1 ISZERO ISZERO DUP2 MSTORE PUSH1 0x20 ADD DUP4 DUP2 MSTORE PUSH1 0x20 ADD PUSH1 0x1 DUP2 MSTORE POP PUSH1 0x3 PUSH1 0x0 PUSH1 0x7 SLOAD DUP2 MSTORE PUSH1 0x20 ADD SWAP1 DUP2 MSTORE PUSH1 0x20 ADD PUSH1 0x0 KECCAK256 PUSH1 0x0 DUP3 ADD MLOAD DUP2 PUSH1 0x0 ADD SSTORE PUSH1 0x20 DUP3 ADD MLOAD DUP2 PUSH1 0x1 ADD PUSH1 0x0 PUSH2 0x100 EXP DUP2 SLOAD DUP2 PUSH20 0xFFFFFFFFFFFFFFFFFFFFFFFFFFFFFFFFFFFFFFFF MUL NOT AND SWAP1 DUP4 PUSH20 0xFFFFFFFFFFFFFFFFFFFFFFFFFFFFFFFFFFFFFFFF AND MUL OR SWAP1 SSTORE POP PUSH1 0x40 DUP3 ADD MLOAD DUP2 PUSH1 0x2 ADD SWAP1 DUP2 PUSH2 0x1040 SWAP2 SWAP1 PUSH2 0x46B7 JUMP JUMPDEST POP PUSH1 0x60 DUP3 ADD MLOAD DUP2 PUSH1 0x3 ADD PUSH1 0x0 PUSH2 0x100 EXP DUP2 SLOAD DUP2 PUSH1 0xFF MUL NOT AND SWAP1 DUP4 PUSH1 0x5 DUP2 GT ISZERO PUSH2 0x106C JUMPI PUSH2 0x106B PUSH2 0x3465 JUMP JUMPDEST JUMPDEST MUL OR SWAP1 SSTORE POP PUSH1 0x80 DUP3 ADD MLOAD DUP2 PUSH1 0x4 ADD SSTORE PUSH1 0xA0 DUP3 ADD MLOAD DUP2 PUSH1 0x5 ADD PUSH1 0x0 PUSH2 0x100 EXP DUP2 SLOAD DUP2 PUSH20 0xFFFFFFFFFFFFFFFFFFFFFFFFFFFFFFFFFFFFFFFF MUL NOT AND SWAP1 DUP4 PUSH20 0xFFFFFFFFFFFFFFFFFFFFFFFFFFFFFFFFFFFFFFFF AND MUL OR SWAP1 SSTORE POP PUSH1 0xC0 DUP3 ADD MLOAD DUP2 PUSH1 0x5 ADD PUSH1 0x14 PUSH2 0x100 EXP DUP2 SLOAD DUP2 PUSH1 0xFF MUL NOT AND SWAP1 DUP4 ISZERO ISZERO MUL OR SWAP1 SSTORE POP PUSH1 0xE0 DUP3 ADD MLOAD DUP2 PUSH1 0x6 ADD SWAP1 DUP2 PUSH2 0x10F7 SWAP2 SWAP1 PUSH2 0x46B7 JUMP JUMPDEST POP PUSH2 0x100 DUP3 ADD MLOAD DUP2 PUSH1 0x7 ADD SSTORE SWAP1 POP POP PUSH1 0x2 PUSH1 0x0 DUP7 PUSH20 0xFFFFFFFFFFFFFFFFFFFFFFFFFFFFFFFFFFFFFFFF AND PUSH20 0xFFFFFFFFFFFFFFFFFFFFFFFFFFFFFFFFFFFFFFFF AND DUP2 MSTORE PUSH1 0x20 ADD SWAP1 DUP2 MSTORE PUSH1 0x20 ADD PUSH1 0x0 KECCAK256 PUSH1 0x7 SLOAD SWAP1 DUP1 PUSH1 0x1 DUP2 SLOAD ADD DUP1 DUP3 SSTORE DUP1 SWAP2 POP POP PUSH1 0x1 SWAP1 SUB SWAP1 PUSH1 0x0 MSTORE PUSH1 0x20 PUSH1 0x0 KECCAK256 ADD PUSH1 0x0 SWAP1 SWAP2 SWAP1 SWAP2 SWAP1 SWAP2 POP SSTORE DUP5 PUSH20 0xFFFFFFFFFFFFFFFFFFFFFFFFFFFFFFFFFFFFFFFF AND PUSH1 0x7 SLOAD PUSH32 0x32B3188B62628AABF659CEBBAB10A599B539BCB0C01A891AB2E37B8BE315712E DUP7 DUP7 PUSH1 0x40 MLOAD PUSH2 0x11B9 SWAP3 SWAP2 SWAP1 PUSH2 0x47D1 JUMP JUMPDEST PUSH1 0x40 MLOAD DUP1 SWAP2 SUB SWAP1 LOG3 PUSH1 0x7 SLOAD SWAP1 POP SWAP5 SWAP4 POP POP POP POP JUMP JUMPDEST PUSH1 0x0 DUP1 SHL PUSH2 0x11DB DUP2 PUSH2 0x2C75 JUMP JUMPDEST PUSH1 0x0 PUSH20 0xFFFFFFFFFFFFFFFFFFFFFFFFFFFFFFFFFFFFFFFF AND DUP3 PUSH20 0xFFFFFFFFFFFFFFFFFFFFFFFFFFFFFFFFFFFFFFFF AND SUB PUSH2 0x124A JUMPI PUSH1 0x40 MLOAD PUSH32 0x8C379A000000000000000000000000000000000000000000000000000000000 DUP2 MSTORE PUSH1 0x4 ADD PUSH2 0x1241 SWAP1 PUSH2 0x484D JUMP JUMPDEST PUSH1 0x40 MLOAD DUP1 SWAP2 SUB SWAP1 REVERT JUMPDEST PUSH2 0x1274 PUSH32 0x18D9FF454DE989BD126B06BD404B47EDE75F9E65543E94E8D212F89D7DCBB87C DUP4 PUSH2 0x1879 JUMP JUMPDEST POP POP JUMP JUMPDEST PUSH1 0x60 DUP2 PUSH20 0xFFFFFFFFFFFFFFFFFFFFFFFFFFFFFFFFFFFFFFFF AND CALLER PUSH20 0xFFFFFFFFFFFFFFFFFFFFFFFFFFFFFFFFFFFFFFFF AND SUB PUSH2 0x1342 JUMPI PUSH1 0x2 PUSH1 0x0 DUP4 PUSH20 0xFFFFFFFFFFFFFFFFFFFFFFFFFFFFFFFFFFFFFFFF AND PUSH20 0xFFFFFFFFFFFFFFFFFFFFFFFFFFFFFFFFFFFFFFFF AND DUP2 MSTORE PUSH1 0x20 ADD SWAP1 DUP2 MSTORE PUSH1 0x20 ADD PUSH1 0x0 KECCAK256 DUP1 SLOAD DUP1 PUSH1 0x20 MUL PUSH1 0x20 ADD PUSH1 0x40 MLOAD SWAP1 DUP2 ADD PUSH1 0x40 MSTORE DUP1 SWAP3 SWAP2 SWAP1 DUP2 DUP2 MSTORE PUSH1 0x20 ADD DUP3 DUP1 SLOAD DUP1 ISZERO PUSH2 0x1336 JUMPI PUSH1 0x20 MUL DUP3 ADD SWAP2 SWAP1 PUSH1 0x0 MSTORE PUSH1 0x20 PUSH1 0x0 KECCAK256 SWAP1 JUMPDEST DUP2 SLOAD DUP2 MSTORE PUSH1 0x20 ADD SWAP1 PUSH1 0x1 ADD SWAP1 DUP1 DUP4 GT PUSH2 0x1322 JUMPI JUMPDEST POP POP POP POP POP SWAP1 POP PUSH2 0x1514 JUMP JUMPDEST PUSH2 0x134C DUP3 CALLER PUSH2 0x2C89 JUMP JUMPDEST PUSH2 0x138B JUMPI PUSH1 0x40 MLOAD PUSH32 0x8C379A000000000000000000000000000000000000000000000000000000000 DUP2 MSTORE PUSH1 0x4 ADD PUSH2 0x1382 SWAP1 PUSH2 0x48B9 JUMP JUMPDEST PUSH1 0x40 MLOAD DUP1 SWAP2 SUB SWAP1 REVERT JUMPDEST PUSH1 0x0 PUSH1 0x2 PUSH1 0x0 DUP5 PUSH20 0xFFFFFFFFFFFFFFFFFFFFFFFFFFFFFFFFFFFFFFFF AND PUSH20 0xFFFFFFFFFFFFFFFFFFFFFFFFFFFFFFFFFFFFFFFF AND DUP2 MSTORE PUSH1 0x20 ADD SWAP1 DUP2 MSTORE PUSH1 0x20 ADD PUSH1 0x0 KECCAK256 SWAP1 POP PUSH1 0x0 DUP1 JUMPDEST DUP3 DUP1 SLOAD SWAP1 POP DUP2 LT ISZERO PUSH2 0x1427 JUMPI PUSH2 0x1406 DUP6 CALLER DUP6 DUP5 DUP2 SLOAD DUP2 LT PUSH2 0x13F6 JUMPI PUSH2 0x13F5 PUSH2 0x48D9 JUMP JUMPDEST JUMPDEST SWAP1 PUSH1 0x0 MSTORE PUSH1 0x20 PUSH1 0x0 KECCAK256 ADD SLOAD PUSH2 0x289E JUMP JUMPDEST ISZERO PUSH2 0x141A JUMPI DUP2 DUP1 PUSH2 0x1416 SWAP1 PUSH2 0x44C3 JUMP JUMPDEST SWAP3 POP POP JUMPDEST DUP1 DUP1 PUSH1 0x1 ADD SWAP2 POP POP PUSH2 0x13D2 JUMP JUMPDEST POP PUSH1 0x0 DUP2 PUSH8 0xFFFFFFFFFFFFFFFF DUP2 GT ISZERO PUSH2 0x1444 JUMPI PUSH2 0x1443 PUSH2 0x38B3 JUMP JUMPDEST JUMPDEST PUSH1 0x40 MLOAD SWAP1 DUP1 DUP3 MSTORE DUP1 PUSH1 0x20 MUL PUSH1 0x20 ADD DUP3 ADD PUSH1 0x40 MSTORE DUP1 ISZERO PUSH2 0x1472 JUMPI DUP2 PUSH1 0x20 ADD PUSH1 0x20 DUP3 MUL DUP1 CALLDATASIZE DUP4 CALLDATACOPY DUP1 DUP3 ADD SWAP2 POP POP SWAP1 POP JUMPDEST POP SWAP1 POP PUSH1 0x0 DUP1 JUMPDEST DUP5 DUP1 SLOAD SWAP1 POP DUP2 LT ISZERO PUSH2 0x150B JUMPI PUSH2 0x14AD DUP8 CALLER DUP8 DUP5 DUP2 SLOAD DUP2 LT PUSH2 0x149D JUMPI PUSH2 0x149C PUSH2 0x48D9 JUMP JUMPDEST JUMPDEST SWAP1 PUSH1 0x0 MSTORE PUSH1 0x20 PUSH1 0x0 KECCAK256 ADD SLOAD PUSH2 0x289E JUMP JUMPDEST ISZERO PUSH2 0x14FE JUMPI DUP5 DUP2 DUP2 SLOAD DUP2 LT PUSH2 0x14C5 JUMPI PUSH2 0x14C4 PUSH2 0x48D9 JUMP JUMPDEST JUMPDEST SWAP1 PUSH1 0x0 MSTORE PUSH1 0x20 PUSH1 0x0 KECCAK256 ADD SLOAD DUP4 DUP4 DUP2 MLOAD DUP2 LT PUSH2 0x14E3 JUMPI PUSH2 0x14E2 PUSH2 0x48D9 JUMP JUMPDEST JUMPDEST PUSH1 0x20 MUL PUSH1 0x20 ADD ADD DUP2 DUP2 MSTORE POP POP DUP2 DUP1 PUSH2 0x14FA SWAP1 PUSH2 0x44C3 JUMP JUMPDEST SWAP3 POP POP JUMPDEST DUP1 DUP1 PUSH1 0x1 ADD SWAP2 POP POP PUSH2 0x1479 JUMP JUMPDEST POP DUP2 SWAP5 POP POP POP POP POP JUMPDEST SWAP2 SWAP1 POP JUMP JUMPDEST PUSH1 0x0 DUP1 DUP5 MLOAD GT PUSH2 0x155E JUMPI PUSH1 0x40 MLOAD PUSH32 0x8C379A000000000000000000000000000000000000000000000000000000000 DUP2 MSTORE PUSH1 0x4 ADD PUSH2 0x1555 SWAP1 PUSH2 0x4474 JUMP JUMPDEST PUSH1 0x40 MLOAD DUP1 SWAP2 SUB SWAP1 REVERT JUMPDEST PUSH1 0x7 PUSH1 0x0 DUP2 SLOAD DUP1 SWAP3 SWAP2 SWAP1 PUSH2 0x1571 SWAP1 PUSH2 0x44C3 JUMP JUMPDEST SWAP2 SWAP1 POP SSTORE POP PUSH1 0x40 MLOAD DUP1 PUSH2 0x120 ADD PUSH1 0x40 MSTORE DUP1 PUSH1 0x7 SLOAD DUP2 MSTORE PUSH1 0x20 ADD CALLER PUSH20 0xFFFFFFFFFFFFFFFFFFFFFFFFFFFFFFFFFFFFFFFF AND DUP2 MSTORE PUSH1 0x20 ADD DUP6 DUP2 MSTORE PUSH1 0x20 ADD DUP5 PUSH1 0x5 DUP2 GT ISZERO PUSH2 0x15BF JUMPI PUSH2 0x15BE PUSH2 0x3465 JUMP JUMPDEST JUMPDEST DUP2 MSTORE PUSH1 0x20 ADD TIMESTAMP DUP2 MSTORE PUSH1 0x20 ADD CALLER PUSH20 0xFFFFFFFFFFFFFFFFFFFFFFFFFFFFFFFFFFFFFFFF AND DUP2 MSTORE PUSH1 0x20 ADD PUSH1 0x1 ISZERO ISZERO DUP2 MSTORE PUSH1 0x20 ADD DUP4 DUP2 MSTORE PUSH1 0x20 ADD PUSH1 0x1 DUP2 MSTORE POP PUSH1 0x3 PUSH1 0x0 PUSH1 0x7 SLOAD DUP2 MSTORE PUSH1 0x20 ADD SWAP1 DUP2 MSTORE PUSH1 0x20 ADD PUSH1 0x0 KECCAK256 PUSH1 0x0 DUP3 ADD MLOAD DUP2 PUSH1 0x0 ADD SSTORE PUSH1 0x20 DUP3 ADD MLOAD DUP2 PUSH1 0x1 ADD PUSH1 0x0 PUSH2 0x100 EXP DUP2 SLOAD DUP2 PUSH20 0xFFFFFFFFFFFFFFFFFFFFFFFFFFFFFFFFFFFFFFFF MUL NOT AND SWAP1 DUP4 PUSH20 0xFFFFFFFFFFFFFFFFFFFFFFFFFFFFFFFFFFFFFFFF AND MUL OR SWAP1 SSTORE POP PUSH1 0x40 DUP3 ADD MLOAD DUP2 PUSH1 0x2 ADD SWAP1 DUP2 PUSH2 0x1675 SWAP2 SWAP1 PUSH2 0x46B7 JUMP JUMPDEST POP PUSH1 0x60 DUP3 ADD MLOAD DUP2 PUSH1 0x3 ADD PUSH1 0x0 PUSH2 0x100 EXP DUP2 SLOAD DUP2 PUSH1 0xFF MUL NOT AND SWAP1 DUP4 PUSH1 0x5 DUP2 GT ISZERO PUSH2 0x16A1 JUMPI PUSH2 0x16A0 PUSH2 0x3465 JUMP JUMPDEST JUMPDEST MUL OR SWAP1 SSTORE POP PUSH1 0x80 DUP3 ADD MLOAD DUP2 PUSH1 0x4 ADD SSTORE PUSH1 0xA0 DUP3 ADD MLOAD DUP2 PUSH1 0x5 ADD PUSH1 0x0 PUSH2 0x100 EXP DUP2 SLOAD DUP2 PUSH20 0xFFFFFFFFFFFFFFFFFFFFFFFFFFFFFFFFFFFFFFFF MUL NOT AND SWAP1 DUP4 PUSH20 0xFFFFFFFFFFFFFFFFFFFFFFFFFFFFFFFFFFFFFFFF AND MUL OR SWAP1 SSTORE POP PUSH1 0xC0 DUP3 ADD MLOAD DUP2 PUSH1 0x5 ADD PUSH1 0x14 PUSH2 0x100 EXP DUP2 SLOAD DUP2 PUSH1 0xFF MUL NOT AND SWAP1 DUP4 ISZERO ISZERO MUL OR SWAP1 SSTORE POP PUSH1 0xE0 DUP3 ADD MLOAD DUP2 PUSH1 0x6 ADD SWAP1 DUP2 PUSH2 0x172C SWAP2 SWAP1 PUSH2 0x46B7 JUMP JUMPDEST POP PUSH2 0x100 DUP3 ADD MLOAD DUP2 PUSH1 0x7 ADD SSTORE SWAP1 POP POP PUSH1 0x2 PUSH1 0x0 CALLER PUSH20 0xFFFFFFFFFFFFFFFFFFFFFFFFFFFFFFFFFFFFFFFF AND PUSH20 0xFFFFFFFFFFFFFFFFFFFFFFFFFFFFFFFFFFFFFFFF AND DUP2 MSTORE PUSH1 0x20 ADD SWAP1 DUP2 MSTORE PUSH1 0x20 ADD PUSH1 0x0 KECCAK256 PUSH1 0x7 SLOAD SWAP1 DUP1 PUSH1 0x1 DUP2 SLOAD ADD DUP1 DUP3 SSTORE DUP1 SWAP2 POP POP PUSH1 0x1 SWAP1 SUB SWAP1 PUSH1 0x0 MSTORE PUSH1 0x20 PUSH1 0x0 KECCAK256 ADD PUSH1 0x0 SWAP1 SWAP2 SWAP1 SWAP2 SWAP1 SWAP2 POP SSTORE CALLER PUSH20 0xFFFFFFFFFFFFFFFFFFFFFFFFFFFFFFFFFFFFFFFF AND PUSH1 0x7 SLOAD PUSH32 0x32B3188B62628AABF659CEBBAB10A599B539BCB0C01A891AB2E37B8BE315712E DUP7 DUP7 PUSH1 0x40 MLOAD PUSH2 0x17EE SWAP3 SWAP2 SWAP1 PUSH2 0x47D1 JUMP JUMPDEST PUSH1 0x40 MLOAD DUP1 SWAP2 SUB SWAP1 LOG3 PUSH1 0x7 SLOAD SWAP1 POP SWAP4 SWAP3 POP POP POP JUMP JUMPDEST PUSH1 0x0 PUSH2 0x182E PUSH32 0x18D9FF454DE989BD126B06BD404B47EDE75F9E65543E94E8D212F89D7DCBB87C DUP4 PUSH2 0x2011 JUMP JUMPDEST SWAP1 POP SWAP2 SWAP1 POP JUMP JUMPDEST PUSH1 0x0 PUSH1 0x1 PUSH1 0x0 DUP4 DUP2 MSTORE PUSH1 0x20 ADD SWAP1 DUP2 MSTORE PUSH1 0x20 ADD PUSH1 0x0 KECCAK256 PUSH1 0x1 ADD SLOAD SWAP1 POP SWAP2 SWAP1 POP JUMP JUMPDEST PUSH32 0x18D9FF454DE989BD126B06BD404B47EDE75F9E65543E94E8D212F89D7DCBB87C DUP2 JUMP JUMPDEST PUSH2 0x1882 DUP3 PUSH2 0x1835 JUMP JUMPDEST PUSH2 0x188B DUP2 PUSH2 0x2C75 JUMP JUMPDEST PUSH2 0x1895 DUP4 DUP4 PUSH2 0x2EAD JUMP JUMPDEST POP POP POP POP JUMP JUMPDEST PUSH2 0x18A3 PUSH2 0x2F9E JUMP JUMPDEST PUSH20 0xFFFFFFFFFFFFFFFFFFFFFFFFFFFFFFFFFFFFFFFF AND DUP2 PUSH20 0xFFFFFFFFFFFFFFFFFFFFFFFFFFFFFFFFFFFFFFFF AND EQ PUSH2 0x1907 JUMPI PUSH1 0x40 MLOAD PUSH32 0x6697B23200000000000000000000000000000000000000000000000000000000 DUP2 MSTORE PUSH1 0x4 ADD PUSH1 0x40 MLOAD DUP1 SWAP2 SUB SWAP1 REVERT JUMPDEST PUSH2 0x1911 DUP3 DUP3 PUSH2 0x2FA6 JUMP JUMPDEST POP POP POP JUMP JUMPDEST DUP3 PUSH1 0x0 DUP2 GT DUP1 ISZERO PUSH2 0x1929 JUMPI POP PUSH1 0x7 SLOAD DUP2 GT ISZERO JUMPDEST PUSH2 0x1968 JUMPI PUSH1 0x40 MLOAD PUSH32 0x8C379A000000000000000000000000000000000000000000000000000000000 DUP2 MSTORE PUSH1 0x4 ADD PUSH2 0x195F SWAP1 PUSH2 0x4140 JUMP JUMPDEST PUSH1 0x40 MLOAD DUP1 SWAP2 SUB SWAP1 REVERT JUMPDEST PUSH1 0x3 PUSH1 0x0 DUP3 DUP2 MSTORE PUSH1 0x20 ADD SWAP1 DUP2 MSTORE PUSH1 0x20 ADD PUSH1 0x0 KECCAK256 PUSH1 0x5 ADD PUSH1 0x14 SWAP1 SLOAD SWAP1 PUSH2 0x100 EXP SWAP1 DIV PUSH1 0xFF AND PUSH2 0x19CB JUMPI PUSH1 0x40 MLOAD PUSH32 0x8C379A000000000000000000000000000000000000000000000000000000000 DUP2 MSTORE PUSH1 0x4 ADD PUSH2 0x19C2 SWAP1 PUSH2 0x41AC JUMP JUMPDEST PUSH1 0x40 MLOAD DUP1 SWAP2 SUB SWAP1 REVERT JUMPDEST DUP4 CALLER PUSH20 0xFFFFFFFFFFFFFFFFFFFFFFFFFFFFFFFFFFFFFFFF AND PUSH1 0x3 PUSH1 0x0 DUP4 DUP2 MSTORE PUSH1 0x20 ADD SWAP1 DUP2 MSTORE PUSH1 0x20 ADD PUSH1 0x0 KECCAK256 PUSH1 0x1 ADD PUSH1 0x0 SWAP1 SLOAD SWAP1 PUSH2 0x100 EXP SWAP1 DIV PUSH20 0xFFFFFFFFFFFFFFFFFFFFFFFFFFFFFFFFFFFFFFFF AND PUSH20 0xFFFFFFFFFFFFFFFFFFFFFFFFFFFFFFFFFFFFFFFF AND EQ PUSH2 0x1A70 JUMPI PUSH1 0x40 MLOAD PUSH32 0x8C379A000000000000000000000000000000000000000000000000000000000 DUP2 MSTORE PUSH1 0x4 ADD PUSH2 0x1A67 SWAP1 PUSH2 0x423E JUMP JUMPDEST PUSH1 0x40 MLOAD DUP1 SWAP2 SUB SWAP1 REVERT JUMPDEST PUSH1 0x0 PUSH1 0x3 PUSH1 0x0 DUP8 DUP2 MSTORE PUSH1 0x20 ADD SWAP1 DUP2 MSTORE PUSH1 0x20 ADD PUSH1 0x0 KECCAK256 SWAP1 POP DUP5 DUP2 PUSH1 0x2 ADD SWAP1 DUP2 PUSH2 0x1A98 SWAP2 SWAP1 PUSH2 0x46B7 JUMP JUMPDEST POP DUP4 DUP2 PUSH1 0x6 ADD SWAP1 DUP2 PUSH2 0x1AAA SWAP2 SWAP1 PUSH2 0x46B7 JUMP JUMPDEST POP DUP1 PUSH1 0x7 ADD PUSH1 0x0 DUP2 SLOAD DUP1 SWAP3 SWAP2 SWAP1 PUSH2 0x1AC0 SWAP1 PUSH2 0x44C3 JUMP JUMPDEST SWAP2 SWAP1 POP SSTORE POP DUP6 PUSH32 0x88D9E16504277BF999412471E756EEDF1AB2491C6A6399C9D349D3FEA6D70CF DUP7 DUP4 PUSH1 0x7 ADD SLOAD PUSH1 0x40 MLOAD PUSH2 0x1AFB SWAP3 SWAP2 SWAP1 PUSH2 0x4908 JUMP JUMPDEST PUSH1 0x40 MLOAD DUP1 SWAP2 SUB SWAP1 LOG2 POP POP POP POP POP POP JUMP JUMPDEST PUSH2 0x1B13 PUSH2 0x3099 JUMP JUMPDEST PUSH2 0x1B1D PUSH1 0x0 PUSH2 0x3120 JUMP JUMPDEST JUMP JUMPDEST PUSH1 0x4 PUSH1 0x0 CALLER PUSH20 0xFFFFFFFFFFFFFFFFFFFFFFFFFFFFFFFFFFFFFFFF AND PUSH20 0xFFFFFFFFFFFFFFFFFFFFFFFFFFFFFFFFFFFFFFFF AND DUP2 MSTORE PUSH1 0x20 ADD SWAP1 DUP2 MSTORE PUSH1 0x20 ADD PUSH1 0x0 KECCAK256 PUSH1 0x0 DUP3 PUSH20 0xFFFFFFFFFFFFFFFFFFFFFFFFFFFFFFFFFFFFFFFF AND PUSH20 0xFFFFFFFFFFFFFFFFFFFFFFFFFFFFFFFFFFFFFFFF AND DUP2 MSTORE PUSH1 0x20 ADD SWAP1 DUP2 MSTORE PUSH1 0x20 ADD PUSH1 0x0 KECCAK256 PUSH1 0x3 ADD PUSH1 0x0 SWAP1 SLOAD SWAP1 PUSH2 0x100 EXP SWAP1 DIV PUSH1 0xFF AND PUSH2 0x1BEB JUMPI PUSH1 0x40 MLOAD PUSH32 0x8C379A000000000000000000000000000000000000000000000000000000000 DUP2 MSTORE PUSH1 0x4 ADD PUSH2 0x1BE2 SWAP1 PUSH2 0x4984 JUMP JUMPDEST PUSH1 0x40 MLOAD DUP1 SWAP2 SUB SWAP1 REVERT JUMPDEST PUSH1 0x0 PUSH1 0x4 PUSH1 0x0 CALLER PUSH20 0xFFFFFFFFFFFFFFFFFFFFFFFFFFFFFFFFFFFFFFFF AND PUSH20 0xFFFFFFFFFFFFFFFFFFFFFFFFFFFFFFFFFFFFFFFF AND DUP2 MSTORE PUSH1 0x20 ADD SWAP1 DUP2 MSTORE PUSH1 0x20 ADD PUSH1 0x0 KECCAK256 PUSH1 0x0 DUP4 PUSH20 0xFFFFFFFFFFFFFFFFFFFFFFFFFFFFFFFFFFFFFFFF AND PUSH20 0xFFFFFFFFFFFFFFFFFFFFFFFFFFFFFFFFFFFFFFFF AND DUP2 MSTORE PUSH1 0x20 ADD SWAP1 DUP2 MSTORE PUSH1 0x20 ADD PUSH1 0x0 KECCAK256 PUSH1 0x3 ADD PUSH1 0x0 PUSH2 0x100 EXP DUP2 SLOAD DUP2 PUSH1 0xFF MUL NOT AND SWAP1 DUP4 ISZERO ISZERO MUL OR SWAP1 SSTORE POP DUP1 PUSH20 0xFFFFFFFFFFFFFFFFFFFFFFFFFFFFFFFFFFFFFFFF AND CALLER PUSH20 0xFFFFFFFFFFFFFFFFFFFFFFFFFFFFFFFFFFFFFFFF AND PUSH32 0x825C8BE24EB0DF19500F63E86C29E7D0D951E73056B889B891D85E40938D9B6E PUSH1 0x40 MLOAD PUSH1 0x40 MLOAD DUP1 SWAP2 SUB SWAP1 LOG3 POP JUMP JUMPDEST PUSH2 0x1CE8 PUSH2 0x32C1 JUMP JUMPDEST DUP3 PUSH20 0xFFFFFFFFFFFFFFFFFFFFFFFFFFFFFFFFFFFFFFFF AND CALLER PUSH20 0xFFFFFFFFFFFFFFFFFFFFFFFFFFFFFFFFFFFFFFFF AND EQ DUP1 PUSH2 0x1D4D JUMPI POP DUP2 PUSH20 0xFFFFFFFFFFFFFFFFFFFFFFFFFFFFFFFFFFFFFFFF AND CALLER PUSH20 0xFFFFFFFFFFFFFFFFFFFFFFFFFFFFFFFFFFFFFFFF AND EQ JUMPDEST PUSH2 0x1D8C JUMPI PUSH1 0x40 MLOAD PUSH32 0x8C379A000000000000000000000000000000000000000000000000000000000 DUP2 MSTORE PUSH1 0x4 ADD PUSH2 0x1D83 SWAP1 PUSH2 0x48B9 JUMP JUMPDEST PUSH1 0x40 MLOAD DUP1 SWAP2 SUB SWAP1 REVERT JUMPDEST PUSH1 0x4 PUSH1 0x0 DUP5 PUSH20 0xFFFFFFFFFFFFFFFFFFFFFFFFFFFFFFFFFFFFFFFF AND PUSH20 0xFFFFFFFFFFFFFFFFFFFFFFFFFFFFFFFFFFFFFFFF AND DUP2 MSTORE PUSH1 0x20 ADD SWAP1 DUP2 MSTORE PUSH1 0x20 ADD PUSH1 0x0 KECCAK256 PUSH1 0x0 DUP4 PUSH20 0xFFFFFFFFFFFFFFFFFFFFFFFFFFFFFFFFFFFFFFFF AND PUSH20 0xFFFFFFFFFFFFFFFFFFFFFFFFFFFFFFFFFFFFFFFF AND DUP2 MSTORE PUSH1 0x20 ADD SWAP1 DUP2 MSTORE PUSH1 0x20 ADD PUSH1 0x0 KECCAK256 PUSH1 0x40 MLOAD DUP1 PUSH1 0xA0 ADD PUSH1 0x40 MSTORE SWAP1 DUP2 PUSH1 0x0 DUP3 ADD PUSH1 0x0 SWAP1 SLOAD SWAP1 PUSH2 0x100 EXP SWAP1 DIV PUSH20 0xFFFFFFFFFFFFFFFFFFFFFFFFFFFFFFFFFFFFFFFF AND PUSH20 0xFFFFFFFFFFFFFFFFFFFFFFFFFFFFFFFFFFFFFFFF AND PUSH20 0xFFFFFFFFFFFFFFFFFFFFFFFFFFFFFFFFFFFFFFFF AND DUP2 MSTORE PUSH1 0x20 ADD PUSH1 0x1 DUP3 ADD DUP1 SLOAD DUP1 PUSH1 0x20 MUL PUSH1 0x20 ADD PUSH1 0x40 MLOAD SWAP1 DUP2 ADD PUSH1 0x40 MSTORE DUP1 SWAP3 SWAP2 SWAP1 DUP2 DUP2 MSTORE PUSH1 0x20 ADD DUP3 DUP1 SLOAD DUP1 ISZERO PUSH2 0x1EB8 JUMPI PUSH1 0x20 MUL DUP3 ADD SWAP2 SWAP1 PUSH1 0x0 MSTORE PUSH1 0x20 PUSH1 0x0 KECCAK256 SWAP1 JUMPDEST DUP2 SLOAD DUP2 MSTORE PUSH1 0x20 ADD SWAP1 PUSH1 0x1 ADD SWAP1 DUP1 DUP4 GT PUSH2 0x1EA4 JUMPI JUMPDEST POP POP POP POP POP DUP2 MSTORE PUSH1 0x20 ADD PUSH1 0x2 DUP3 ADD SLOAD DUP2 MSTORE PUSH1 0x20 ADD PUSH1 0x3 DUP3 ADD PUSH1 0x0 SWAP1 SLOAD SWAP1 PUSH2 0x100 EXP SWAP1 DIV PUSH1 0xFF AND ISZERO ISZERO ISZERO ISZERO DUP2 MSTORE PUSH1 0x20 ADD PUSH1 0x4 DUP3 ADD SLOAD DUP2 MSTORE POP POP SWAP1 POP SWAP3 SWAP2 POP POP JUMP JUMPDEST PUSH1 0x0 DUP1 PUSH1 0x0 SWAP1 SLOAD SWAP1 PUSH2 0x100 EXP SWAP1 DIV PUSH20 0xFFFFFFFFFFFFFFFFFFFFFFFFFFFFFFFFFFFFFFFF AND SWAP1 POP SWAP1 JUMP JUMPDEST PUSH1 0x0 PUSH20 0xFFFFFFFFFFFFFFFFFFFFFFFFFFFFFFFFFFFFFFFF AND DUP2 PUSH20 0xFFFFFFFFFFFFFFFFFFFFFFFFFFFFFFFFFFFFFFFF AND SUB PUSH2 0x1F90 JUMPI PUSH1 0x40 MLOAD PUSH32 0x8C379A000000000000000000000000000000000000000000000000000000000 DUP2 MSTORE PUSH1 0x4 ADD PUSH2 0x1F87 SWAP1 PUSH2 0x49F0 JUMP JUMPDEST PUSH1 0x40 MLOAD DUP1 SWAP2 SUB SWAP1 REVERT JUMPDEST DUP1 PUSH1 0x6 PUSH1 0x0 CALLER PUSH20 0xFFFFFFFFFFFFFFFFFFFFFFFFFFFFFFFFFFFFFFFF AND PUSH20 0xFFFFFFFFFFFFFFFFFFFFFFFFFFFFFFFFFFFFFFFF AND DUP2 MSTORE PUSH1 0x20 ADD SWAP1 DUP2 MSTORE PUSH1 0x20 ADD PUSH1 0x0 KECCAK256 PUSH1 0x0 PUSH2 0x100 EXP DUP2 SLOAD DUP2 PUSH20 0xFFFFFFFFFFFFFFFFFFFFFFFFFFFFFFFFFFFFFFFF MUL NOT AND SWAP1 DUP4 PUSH20 0xFFFFFFFFFFFFFFFFFFFFFFFFFFFFFFFFFFFFFFFF AND MUL OR SWAP1 SSTORE POP POP JUMP JUMPDEST PUSH1 0x0 PUSH1 0x1 PUSH1 0x0 DUP5 DUP2 MSTORE PUSH1 0x20 ADD SWAP1 DUP2 MSTORE PUSH1 0x20 ADD PUSH1 0x0 KECCAK256 PUSH1 0x0 ADD PUSH1 0x0 DUP4 PUSH20 0xFFFFFFFFFFFFFFFFFFFFFFFFFFFFFFFFFFFFFFFF AND PUSH20 0xFFFFFFFFFFFFFFFFFFFFFFFFFFFFFFFFFFFFFFFF AND DUP2 MSTORE PUSH1 0x20 ADD SWAP1 DUP2 MSTORE PUSH1 0x20 ADD PUSH1 0x0 KECCAK256 PUSH1 0x0 SWAP1 SLOAD SWAP1 PUSH2 0x100 EXP SWAP1 DIV PUSH1 0xFF AND SWAP1 POP SWAP3 SWAP2 POP POP JUMP JUMPDEST PUSH1 0x0 PUSH20 0xFFFFFFFFFFFFFFFFFFFFFFFFFFFFFFFFFFFFFFFF AND DUP4 PUSH20 0xFFFFFFFFFFFFFFFFFFFFFFFFFFFFFFFFFFFFFFFF AND SUB PUSH2 0x20EB JUMPI PUSH1 0x40 MLOAD PUSH32 0x8C379A000000000000000000000000000000000000000000000000000000000 DUP2 MSTORE PUSH1 0x4 ADD PUSH2 0x20E2 SWAP1 PUSH2 0x49F0 JUMP JUMPDEST PUSH1 0x40 MLOAD DUP1 SWAP2 SUB SWAP1 REVERT JUMPDEST PUSH1 0x0 DUP3 MLOAD GT PUSH2 0x212F JUMPI PUSH1 0x40 MLOAD PUSH32 0x8C379A000000000000000000000000000000000000000000000000000000000 DUP2 MSTORE PUSH1 0x4 ADD PUSH2 0x2126 SWAP1 PUSH2 0x4A82 JUMP JUMPDEST PUSH1 0x40 MLOAD DUP1 SWAP2 SUB SWAP1 REVERT JUMPDEST PUSH1 0x0 DUP2 GT DUP1 ISZERO PUSH2 0x2141 JUMPI POP PUSH2 0xE42 DUP2 GT ISZERO JUMPDEST PUSH2 0x2180 JUMPI PUSH1 0x40 MLOAD PUSH32 0x8C379A000000000000000000000000000000000000000000000000000000000 DUP2 MSTORE PUSH1 0x4 ADD PUSH2 0x2177 SWAP1 PUSH2 0x4AEE JUMP JUMPDEST PUSH1 0x40 MLOAD DUP1 SWAP2 SUB SWAP1 REVERT JUMPDEST PUSH1 0x0 JUMPDEST DUP3 MLOAD DUP2 LT ISZERO PUSH2 0x2257 JUMPI CALLER PUSH20 0xFFFFFFFFFFFFFFFFFFFFFFFFFFFFFFFFFFFFFFFF AND PUSH1 0x3 PUSH1 0x0 DUP6 DUP5 DUP2 MLOAD DUP2 LT PUSH2 0x21BA JUMPI PUSH2 0x21B9 PUSH2 0x48D9 JUMP JUMPDEST JUMPDEST PUSH1 0x20 MUL PUSH1 0x20 ADD ADD MLOAD DUP2 MSTORE PUSH1 0x20 ADD SWAP1 DUP2 MSTORE PUSH1 0x20 ADD PUSH1 0x0 KECCAK256 PUSH1 0x1 ADD PUSH1 0x0 SWAP1 SLOAD SWAP1 PUSH2 0x100 EXP SWAP1 DIV PUSH20 0xFFFFFFFFFFFFFFFFFFFFFFFFFFFFFFFFFFFFFFFF AND PUSH20 0xFFFFFFFFFFFFFFFFFFFFFFFFFFFFFFFFFFFFFFFF AND EQ PUSH2 0x224A JUMPI PUSH1 0x40 MLOAD PUSH32 0x8C379A000000000000000000000000000000000000000000000000000000000 DUP2 MSTORE PUSH1 0x4 ADD PUSH2 0x2241 SWAP1 PUSH2 0x4B80 JUMP JUMPDEST PUSH1 0x40 MLOAD DUP1 SWAP2 SUB SWAP1 REVERT JUMPDEST DUP1 DUP1 PUSH1 0x1 ADD SWAP2 POP POP PUSH2 0x2183 JUMP JUMPDEST POP PUSH1 0x0 PUSH3 0x15180 DUP3 PUSH2 0x2269 SWAP2 SWAP1 PUSH2 0x4BA0 JUMP JUMPDEST TIMESTAMP PUSH2 0x2274 SWAP2 SWAP1 PUSH2 0x4BE2 JUMP JUMPDEST SWAP1 POP PUSH1 0x40 MLOAD DUP1 PUSH1 0xA0 ADD PUSH1 0x40 MSTORE DUP1 DUP6 PUSH20 0xFFFFFFFFFFFFFFFFFFFFFFFFFFFFFFFFFFFFFFFF AND DUP2 MSTORE PUSH1 0x20 ADD DUP5 DUP2 MSTORE PUSH1 0x20 ADD DUP3 DUP2 MSTORE PUSH1 0x20 ADD PUSH1 0x1 ISZERO ISZERO DUP2 MSTORE PUSH1 0x20 ADD TIMESTAMP DUP2 MSTORE POP PUSH1 0x4 PUSH1 0x0 CALLER PUSH20 0xFFFFFFFFFFFFFFFFFFFFFFFFFFFFFFFFFFFFFFFF AND PUSH20 0xFFFFFFFFFFFFFFFFFFFFFFFFFFFFFFFFFFFFFFFF AND DUP2 MSTORE PUSH1 0x20 ADD SWAP1 DUP2 MSTORE PUSH1 0x20 ADD PUSH1 0x0 KECCAK256 PUSH1 0x0 DUP7 PUSH20 0xFFFFFFFFFFFFFFFFFFFFFFFFFFFFFFFFFFFFFFFF AND PUSH20 0xFFFFFFFFFFFFFFFFFFFFFFFFFFFFFFFFFFFFFFFF AND DUP2 MSTORE PUSH1 0x20 ADD SWAP1 DUP2 MSTORE PUSH1 0x20 ADD PUSH1 0x0 KECCAK256 PUSH1 0x0 DUP3 ADD MLOAD DUP2 PUSH1 0x0 ADD PUSH1 0x0 PUSH2 0x100 EXP DUP2 SLOAD DUP2 PUSH20 0xFFFFFFFFFFFFFFFFFFFFFFFFFFFFFFFFFFFFFFFF MUL NOT AND SWAP1 DUP4 PUSH20 0xFFFFFFFFFFFFFFFFFFFFFFFFFFFFFFFFFFFFFFFF AND MUL OR SWAP1 SSTORE POP PUSH1 0x20 DUP3 ADD MLOAD DUP2 PUSH1 0x1 ADD SWAP1 DUP1 MLOAD SWAP1 PUSH1 0x20 ADD SWAP1 PUSH2 0x2395 SWAP3 SWAP2 SWAP1 PUSH2 0x3308 JUMP JUMPDEST POP PUSH1 0x40 DUP3 ADD MLOAD DUP2 PUSH1 0x2 ADD SSTORE PUSH1 0x60 DUP3 ADD MLOAD DUP2 PUSH1 0x3 ADD PUSH1 0x0 PUSH2 0x100 EXP DUP2 SLOAD DUP2 PUSH1 0xFF MUL NOT AND SWAP1 DUP4 ISZERO ISZERO MUL OR SWAP1 SSTORE POP PUSH1 0x80 DUP3 ADD MLOAD DUP2 PUSH1 0x4 ADD SSTORE SWAP1 POP POP DUP4 PUSH20 0xFFFFFFFFFFFFFFFFFFFFFFFFFFFFFFFFFFFFFFFF AND CALLER PUSH20 0xFFFFFFFFFFFFFFFFFFFFFFFFFFFFFFFFFFFFFFFF AND PUSH32 0x65D0CC1E52D49938CA4AD9F423C79C1B84D914B9A683FBC5D3F93AC3CC5635F5 DUP4 PUSH1 0x40 MLOAD PUSH2 0x242A SWAP2 SWAP1 PUSH2 0x3862 JUMP JUMPDEST PUSH1 0x40 MLOAD DUP1 SWAP2 SUB SWAP1 LOG3 POP POP POP POP JUMP JUMPDEST DUP2 PUSH1 0x0 DUP2 GT DUP1 ISZERO PUSH2 0x244B JUMPI POP PUSH1 0x7 SLOAD DUP2 GT ISZERO JUMPDEST PUSH2 0x248A JUMPI PUSH1 0x40 MLOAD PUSH32 0x8C379A000000000000000000000000000000000000000000000000000000000 DUP2 MSTORE PUSH1 0x4 ADD PUSH2 0x2481 SWAP1 PUSH2 0x4140 JUMP JUMPDEST PUSH1 0x40 MLOAD DUP1 SWAP2 SUB SWAP1 REVERT JUMPDEST PUSH1 0x3 PUSH1 0x0 DUP3 DUP2 MSTORE PUSH1 0x20 ADD SWAP1 DUP2 MSTORE PUSH1 0x20 ADD PUSH1 0x0 KECCAK256 PUSH1 0x5 ADD PUSH1 0x14 SWAP1 SLOAD SWAP1 PUSH2 0x100 EXP SWAP1 DIV PUSH1 0xFF AND PUSH2 0x24ED JUMPI PUSH1 0x40 MLOAD PUSH32 0x8C379A000000000000000000000000000000000000000000000000000000000 DUP2 MSTORE PUSH1 0x4 ADD PUSH2 0x24E4 SWAP1 PUSH2 0x41AC JUMP JUMPDEST PUSH1 0x40 MLOAD DUP1 SWAP2 SUB SWAP1 REVERT JUMPDEST DUP3 PUSH2 0x252F PUSH1 0x3 PUSH1 0x0 DUP4 DUP2 MSTORE PUSH1 0x20 ADD SWAP1 DUP2 MSTORE PUSH1 0x20 ADD PUSH1 0x0 KECCAK256 PUSH1 0x1 ADD PUSH1 0x0 SWAP1 SLOAD SWAP1 PUSH2 0x100 EXP SWAP1 DIV PUSH20 0xFFFFFFFFFFFFFFFFFFFFFFFFFFFFFFFFFFFFFFFF AND CALLER DUP4 PUSH2 0x289E JUMP JUMPDEST PUSH2 0x256E JUMPI PUSH1 0x40 MLOAD PUSH32 0x8C379A000000000000000000000000000000000000000000000000000000000 DUP2 MSTORE PUSH1 0x4 ADD PUSH2 0x2565 SWAP1 PUSH2 0x42D0 JUMP JUMPDEST PUSH1 0x40 MLOAD DUP1 SWAP2 SUB SWAP1 REVERT JUMPDEST CALLER PUSH20 0xFFFFFFFFFFFFFFFFFFFFFFFFFFFFFFFFFFFFFFFF AND PUSH1 0x6 PUSH1 0x0 PUSH1 0x3 PUSH1 0x0 DUP9 DUP2 MSTORE PUSH1 0x20 ADD SWAP1 DUP2 MSTORE PUSH1 0x20 ADD PUSH1 0x0 KECCAK256 PUSH1 0x1 ADD PUSH1 0x0 SWAP1 SLOAD SWAP1 PUSH2 0x100 EXP SWAP1 DIV PUSH20 0xFFFFFFFFFFFFFFFFFFFFFFFFFFFFFFFFFFFFFFFF AND PUSH20 0xFFFFFFFFFFFFFFFFFFFFFFFFFFFFFFFFFFFFFFFF AND PUSH20 0xFFFFFFFFFFFFFFFFFFFFFFFFFFFFFFFFFFFFFFFF AND DUP2 MSTORE PUSH1 0x20 ADD SWAP1 DUP2 MSTORE PUSH1 0x20 ADD PUSH1 0x0 KECCAK256 PUSH1 0x0 SWAP1 SLOAD SWAP1 PUSH2 0x100 EXP SWAP1 DIV PUSH20 0xFFFFFFFFFFFFFFFFFFFFFFFFFFFFFFFFFFFFFFFF AND PUSH20 0xFFFFFFFFFFFFFFFFFFFFFFFFFFFFFFFFFFFFFFFF AND SUB PUSH2 0x26D2 JUMPI CALLER PUSH20 0xFFFFFFFFFFFFFFFFFFFFFFFFFFFFFFFFFFFFFFFF AND PUSH1 0x3 PUSH1 0x0 DUP7 DUP2 MSTORE PUSH1 0x20 ADD SWAP1 DUP2 MSTORE PUSH1 0x20 ADD PUSH1 0x0 KECCAK256 PUSH1 0x1 ADD PUSH1 0x0 SWAP1 SLOAD SWAP1 PUSH2 0x100 EXP SWAP1 DIV PUSH20 0xFFFFFFFFFFFFFFFFFFFFFFFFFFFFFFFFFFFFFFFF AND PUSH20 0xFFFFFFFFFFFFFFFFFFFFFFFFFFFFFFFFFFFFFFFF AND PUSH32 0xF09B5B37601D747E980AAD190F31B7FA72740906D3DA5EB0AF65D1F89FDE166B TIMESTAMP PUSH1 0x40 MLOAD PUSH2 0x26C9 SWAP2 SWAP1 PUSH2 0x3862 JUMP JUMPDEST PUSH1 0x40 MLOAD DUP1 SWAP2 SUB SWAP1 LOG3 JUMPDEST PUSH1 0x5 PUSH1 0x0 DUP6 DUP2 MSTORE PUSH1 0x20 ADD SWAP1 DUP2 MSTORE PUSH1 0x20 ADD PUSH1 0x0 KECCAK256 PUSH1 0x40 MLOAD DUP1 PUSH1 0x60 ADD PUSH1 0x40 MSTORE DUP1 CALLER PUSH20 0xFFFFFFFFFFFFFFFFFFFFFFFFFFFFFFFFFFFFFFFF AND DUP2 MSTORE PUSH1 0x20 ADD TIMESTAMP DUP2 MSTORE PUSH1 0x20 ADD DUP6 PUSH1 0x4 DUP2 GT ISZERO PUSH2 0x2725 JUMPI PUSH2 0x2724 PUSH2 0x3465 JUMP JUMPDEST JUMPDEST DUP2 MSTORE POP SWAP1 DUP1 PUSH1 0x1 DUP2 SLOAD ADD DUP1 DUP3 SSTORE DUP1 SWAP2 POP POP PUSH1 0x1 SWAP1 SUB SWAP1 PUSH1 0x0 MSTORE PUSH1 0x20 PUSH1 0x0 KECCAK256 SWAP1 PUSH1 0x3 MUL ADD PUSH1 0x0 SWAP1 SWAP2 SWAP1 SWAP2 SWAP1 SWAP2 POP PUSH1 0x0 DUP3 ADD MLOAD DUP2 PUSH1 0x0 ADD PUSH1 0x0 PUSH2 0x100 EXP DUP2 SLOAD DUP2 PUSH20 0xFFFFFFFFFFFFFFFFFFFFFFFFFFFFFFFFFFFFFFFF MUL NOT AND SWAP1 DUP4 PUSH20 0xFFFFFFFFFFFFFFFFFFFFFFFFFFFFFFFFFFFFFFFF AND MUL OR SWAP1 SSTORE POP PUSH1 0x20 DUP3 ADD MLOAD DUP2 PUSH1 0x1 ADD SSTORE PUSH1 0x40 DUP3 ADD MLOAD DUP2 PUSH1 0x2 ADD PUSH1 0x0 PUSH2 0x100 EXP DUP2 SLOAD DUP2 PUSH1 0xFF MUL NOT AND SWAP1 DUP4 PUSH1 0x4 DUP2 GT ISZERO PUSH2 0x27CD JUMPI PUSH2 0x27CC PUSH2 0x3465 JUMP JUMPDEST JUMPDEST MUL OR SWAP1 SSTORE POP POP POP CALLER PUSH20 0xFFFFFFFFFFFFFFFFFFFFFFFFFFFFFFFFFFFFFFFF AND DUP5 PUSH32 0xDEC39EB35DC9CA96737E4515F8A70F5DB122E248213EE947B996E1F678AB05B8 TIMESTAMP PUSH1 0x40 MLOAD PUSH2 0x281B SWAP2 SWAP1 PUSH2 0x3862 JUMP JUMPDEST PUSH1 0x40 MLOAD DUP1 SWAP2 SUB SWAP1 LOG3 POP POP POP POP JUMP JUMPDEST PUSH1 0x0 DUP1 SHL DUP2 JUMP JUMPDEST PUSH1 0x6 PUSH1 0x20 MSTORE DUP1 PUSH1 0x0 MSTORE PUSH1 0x40 PUSH1 0x0 KECCAK256 PUSH1 0x0 SWAP2 POP SLOAD SWAP1 PUSH2 0x100 EXP SWAP1 DIV PUSH20 0xFFFFFFFFFFFFFFFFFFFFFFFFFFFFFFFFFFFFFFFF AND DUP2 JUMP JUMPDEST PUSH1 0x0 DUP1 SHL PUSH2 0x2870 DUP2 PUSH2 0x2C75 JUMP JUMPDEST PUSH2 0x289A PUSH32 0x18D9FF454DE989BD126B06BD404B47EDE75F9E65543E94E8D212F89D7DCBB87C DUP4 PUSH2 0x2B63 JUMP JUMPDEST POP POP JUMP JUMPDEST PUSH1 0x0 DUP3 PUSH20 0xFFFFFFFFFFFFFFFFFFFFFFFFFFFFFFFFFFFFFFFF AND DUP5 PUSH20 0xFFFFFFFFFFFFFFFFFFFFFFFFFFFFFFFFFFFFFFFF AND SUB PUSH2 0x28DC JUMPI PUSH1 0x1 SWAP1 POP PUSH2 0x2B5C JUMP JUMPDEST DUP3 PUSH20 0xFFFFFFFFFFFFFFFFFFFFFFFFFFFFFFFFFFFFFFFF AND PUSH1 0x6 PUSH1 0x0 DUP7 PUSH20 0xFFFFFFFFFFFFFFFFFFFFFFFFFFFFFFFFFFFFFFFF AND PUSH20 0xFFFFFFFFFFFFFFFFFFFFFFFFFFFFFFFFFFFFFFFF AND DUP2 MSTORE PUSH1 0x20 ADD SWAP1 DUP2 MSTORE PUSH1 0x20 ADD PUSH1 0x0 KECCAK256 PUSH1 0x0 SWAP1 SLOAD SWAP1 PUSH2 0x100 EXP SWAP1 DIV PUSH20 0xFFFFFFFFFFFFFFFFFFFFFFFFFFFFFFFFFFFFFFFF AND PUSH20 0xFFFFFFFFFFFFFFFFFFFFFFFFFFFFFFFFFFFFFFFF AND SUB PUSH2 0x2977 JUMPI PUSH1 0x1 SWAP1 POP PUSH2 0x2B5C JUMP JUMPDEST PUSH1 0x0 PUSH1 0x4 PUSH1 0x0 DUP7 PUSH20 0xFFFFFFFFFFFFFFFFFFFFFFFFFFFFFFFFFFFFFFFF AND PUSH20 0xFFFFFFFFFFFFFFFFFFFFFFFFFFFFFFFFFFFFFFFF AND DUP2 MSTORE PUSH1 0x20 ADD SWAP1 DUP2 MSTORE PUSH1 0x20 ADD PUSH1 0x0 KECCAK256 PUSH1 0x0 DUP6 PUSH20 0xFFFFFFFFFFFFFFFFFFFFFFFFFFFFFFFFFFFFFFFF AND PUSH20 0xFFFFFFFFFFFFFFFFFFFFFFFFFFFFFFFFFFFFFFFF AND DUP2 MSTORE PUSH1 0x20 ADD SWAP1 DUP2 MSTORE PUSH1 0x20 ADD PUSH1 0x0 KECCAK256 PUSH1 0x40 MLOAD DUP1 PUSH1 0xA0 ADD PUSH1 0x40 MSTORE SWAP1 DUP2 PUSH1 0x0 DUP3 ADD PUSH1 0x0 SWAP1 SLOAD SWAP1 PUSH2 0x100 EXP SWAP1 DIV PUSH20 0xFFFFFFFFFFFFFFFFFFFFFFFFFFFFFFFFFFFFFFFF AND PUSH20 0xFFFFFFFFFFFFFFFFFFFFFFFFFFFFFFFFFFFFFFFF AND PUSH20 0xFFFFFFFFFFFFFFFFFFFFFFFFFFFFFFFFFFFFFFFF AND DUP2 MSTORE PUSH1 0x20 ADD PUSH1 0x1 DUP3 ADD DUP1 SLOAD DUP1 PUSH1 0x20 MUL PUSH1 0x20 ADD PUSH1 0x40 MLOAD SWAP1 DUP2 ADD PUSH1 0x40 MSTORE DUP1 SWAP3 SWAP2 SWAP1 DUP2 DUP2 MSTORE PUSH1 0x20 ADD DUP3 DUP1 SLOAD DUP1 ISZERO PUSH2 0x2AA5 JUMPI PUSH1 0x20 MUL DUP3 ADD SWAP2 SWAP1 PUSH1 0x0 MSTORE PUSH1 0x20 PUSH1 0x0 KECCAK256 SWAP1 JUMPDEST DUP2 SLOAD DUP2 MSTORE PUSH1 0x20 ADD SWAP1 PUSH1 0x1 ADD SWAP1 DUP1 DUP4 GT PUSH2 0x2A91 JUMPI JUMPDEST POP POP POP POP POP DUP2 MSTORE PUSH1 0x20 ADD PUSH1 0x2 DUP3 ADD SLOAD DUP2 MSTORE PUSH1 0x20 ADD PUSH1 0x3 DUP3 ADD PUSH1 0x0 SWAP1 SLOAD SWAP1 PUSH2 0x100 EXP SWAP1 DIV PUSH1 0xFF AND ISZERO ISZERO ISZERO ISZERO DUP2 MSTORE PUSH1 0x20 ADD PUSH1 0x4 DUP3 ADD SLOAD DUP2 MSTORE POP POP SWAP1 POP DUP1 PUSH1 0x60 ADD MLOAD PUSH2 0x2AF2 JUMPI PUSH1 0x0 SWAP2 POP POP PUSH2 0x2B5C JUMP JUMPDEST DUP1 PUSH1 0x40 ADD MLOAD TIMESTAMP GT ISZERO PUSH2 0x2B08 JUMPI PUSH1 0x0 SWAP2 POP POP PUSH2 0x2B5C JUMP JUMPDEST PUSH1 0x0 JUMPDEST DUP2 PUSH1 0x20 ADD MLOAD MLOAD DUP2 LT ISZERO PUSH2 0x2B55 JUMPI DUP4 DUP3 PUSH1 0x20 ADD MLOAD DUP3 DUP2 MLOAD DUP2 LT PUSH2 0x2B30 JUMPI PUSH2 0x2B2F PUSH2 0x48D9 JUMP JUMPDEST JUMPDEST PUSH1 0x20 MUL PUSH1 0x20 ADD ADD MLOAD SUB PUSH2 0x2B48 JUMPI PUSH1 0x1 SWAP3 POP POP POP PUSH2 0x2B5C JUMP JUMPDEST DUP1 DUP1 PUSH1 0x1 ADD SWAP2 POP POP PUSH2 0x2B0B JUMP JUMPDEST POP PUSH1 0x0 SWAP2 POP POP JUMPDEST SWAP4 SWAP3 POP POP POP JUMP JUMPDEST PUSH2 0x2B6C DUP3 PUSH2 0x1835 JUMP JUMPDEST PUSH2 0x2B75 DUP2 PUSH2 0x2C75 JUMP JUMPDEST PUSH2 0x2B7F DUP4 DUP4 PUSH2 0x2FA6 JUMP JUMPDEST POP POP POP POP JUMP JUMPDEST PUSH2 0x2B8D PUSH2 0x3099 JUMP JUMPDEST PUSH1 0x0 PUSH20 0xFFFFFFFFFFFFFFFFFFFFFFFFFFFFFFFFFFFFFFFF AND DUP2 PUSH20 0xFFFFFFFFFFFFFFFFFFFFFFFFFFFFFFFFFFFFFFFF AND SUB PUSH2 0x2BFF JUMPI PUSH1 0x0 PUSH1 0x40 MLOAD PUSH32 0x1E4FBDF700000000000000000000000000000000000000000000000000000000 DUP2 MSTORE PUSH1 0x4 ADD PUSH2 0x2BF6 SWAP2 SWAP1 PUSH2 0x3ED9 JUMP JUMPDEST PUSH1 0x40 MLOAD DUP1 SWAP2 SUB SWAP1 REVERT JUMPDEST PUSH2 0x2C08 DUP2 PUSH2 0x3120 JUMP JUMPDEST POP JUMP JUMPDEST PUSH1 0x0 PUSH32 0x1FFC9A700000000000000000000000000000000000000000000000000000000 PUSH28 0xFFFFFFFFFFFFFFFFFFFFFFFFFFFFFFFFFFFFFFFFFFFFFFFFFFFFFFFF NOT AND DUP3 PUSH28 0xFFFFFFFFFFFFFFFFFFFFFFFFFFFFFFFFFFFFFFFFFFFFFFFFFFFFFFFF NOT AND EQ SWAP1 POP SWAP2 SWAP1 POP JUMP JUMPDEST PUSH2 0x2C86 DUP2 PUSH2 0x2C81 PUSH2 0x2F9E JUMP JUMPDEST PUSH2 0x31E4 JUMP JUMPDEST POP JUMP JUMPDEST PUSH1 0x0 DUP2 PUSH20 0xFFFFFFFFFFFFFFFFFFFFFFFFFFFFFFFFFFFFFFFF AND PUSH1 0x6 PUSH1 0x0 DUP6 PUSH20 0xFFFFFFFFFFFFFFFFFFFFFFFFFFFFFFFFFFFFFFFF AND PUSH20 0xFFFFFFFFFFFFFFFFFFFFFFFFFFFFFFFFFFFFFFFF AND DUP2 MSTORE PUSH1 0x20 ADD SWAP1 DUP2 MSTORE PUSH1 0x20 ADD PUSH1 0x0 KECCAK256 PUSH1 0x0 SWAP1 SLOAD SWAP1 PUSH2 0x100 EXP SWAP1 DIV PUSH20 0xFFFFFFFFFFFFFFFFFFFFFFFFFFFFFFFFFFFFFFFF AND PUSH20 0xFFFFFFFFFFFFFFFFFFFFFFFFFFFFFFFFFFFFFFFF AND SUB PUSH2 0x2D26 JUMPI PUSH1 0x1 SWAP1 POP PUSH2 0x2EA7 JUMP JUMPDEST PUSH1 0x0 PUSH1 0x4 PUSH1 0x0 DUP6 PUSH20 0xFFFFFFFFFFFFFFFFFFFFFFFFFFFFFFFFFFFFFFFF AND PUSH20 0xFFFFFFFFFFFFFFFFFFFFFFFFFFFFFFFFFFFFFFFF AND DUP2 MSTORE PUSH1 0x20 ADD SWAP1 DUP2 MSTORE PUSH1 0x20 ADD PUSH1 0x0 KECCAK256 PUSH1 0x0 DUP5 PUSH20 0xFFFFFFFFFFFFFFFFFFFFFFFFFFFFFFFFFFFFFFFF AND PUSH20 0xFFFFFFFFFFFFFFFFFFFFFFFFFFFFFFFFFFFFFFFF AND DUP2 MSTORE PUSH1 0x20 ADD SWAP1 DUP2 MSTORE PUSH1 0x20 ADD PUSH1 0x0 KECCAK256 PUSH1 0x40 MLOAD DUP1 PUSH1 0xA0 ADD PUSH1 0x40 MSTORE SWAP1 DUP2 PUSH1 0x0 DUP3 ADD PUSH1 0x0 SWAP1 SLOAD SWAP1 PUSH2 0x100 EXP SWAP1 DIV PUSH20 0xFFFFFFFFFFFFFFFFFFFFFFFFFFFFFFFFFFFFFFFF AND PUSH20 0xFFFFFFFFFFFFFFFFFFFFFFFFFFFFFFFFFFFFFFFF AND PUSH20 0xFFFFFFFFFFFFFFFFFFFFFFFFFFFFFFFFFFFFFFFF AND DUP2 MSTORE PUSH1 0x20 ADD PUSH1 0x1 DUP3 ADD DUP1 SLOAD DUP1 PUSH1 0x20 MUL PUSH1 0x20 ADD PUSH1 0x40 MLOAD SWAP1 DUP2 ADD PUSH1 0x40 MSTORE DUP1 SWAP3 SWAP2 SWAP1 DUP2 DUP2 MSTORE PUSH1 0x20 ADD DUP3 DUP1 SLOAD DUP1 ISZERO PUSH2 0x2E54 JUMPI PUSH1 0x20 MUL DUP3 ADD SWAP2 SWAP1 PUSH1 0x0 MSTORE PUSH1 0x20 PUSH1 0x0 KECCAK256 SWAP1 JUMPDEST DUP2 SLOAD DUP2 MSTORE PUSH1 0x20 ADD SWAP1 PUSH1 0x1 ADD SWAP1 DUP1 DUP4 GT PUSH2 0x2E40 JUMPI JUMPDEST POP POP POP POP POP DUP2 MSTORE PUSH1 0x20 ADD PUSH1 0x2 DUP3 ADD SLOAD DUP2 MSTORE PUSH1 0x20 ADD PUSH1 0x3 DUP3 ADD PUSH1 0x0 SWAP1 SLOAD SWAP1 PUSH2 0x100 EXP SWAP1 DIV PUSH1 0xFF AND ISZERO ISZERO ISZERO ISZERO DUP2 MSTORE PUSH1 0x20 ADD PUSH1 0x4 DUP3 ADD SLOAD DUP2 MSTORE POP POP SWAP1 POP DUP1 PUSH1 0x60 ADD MLOAD DUP1 ISZERO PUSH2 0x2EA3 JUMPI POP DUP1 PUSH1 0x40 ADD MLOAD TIMESTAMP GT ISZERO JUMPDEST SWAP2 POP POP JUMPDEST SWAP3 SWAP2 POP POP JUMP JUMPDEST PUSH1 0x0 PUSH2 0x2EB9 DUP4 DUP4 PUSH2 0x2011 JUMP JUMPDEST PUSH2 0x2F93 JUMPI PUSH1 0x1 DUP1 PUSH1 0x0 DUP6 DUP2 MSTORE PUSH1 0x20 ADD SWAP1 DUP2 MSTORE PUSH1 0x20 ADD PUSH1 0x0 KECCAK256 PUSH1 0x0 ADD PUSH1 0x0 DUP5 PUSH20 0xFFFFFFFFFFFFFFFFFFFFFFFFFFFFFFFFFFFFFFFF AND PUSH20 0xFFFFFFFFFFFFFFFFFFFFFFFFFFFFFFFFFFFFFFFF AND DUP2 MSTORE PUSH1 0x20 ADD SWAP1 DUP2 MSTORE PUSH1 0x20 ADD PUSH1 0x0 KECCAK256 PUSH1 0x0 PUSH2 0x100 EXP DUP2 SLOAD DUP2 PUSH1 0xFF MUL NOT AND SWAP1 DUP4 ISZERO ISZERO MUL OR SWAP1 SSTORE POP PUSH2 0x2F30 PUSH2 0x2F9E JUMP JUMPDEST PUSH20 0xFFFFFFFFFFFFFFFFFFFFFFFFFFFFFFFFFFFFFFFF AND DUP3 PUSH20 0xFFFFFFFFFFFFFFFFFFFFFFFFFFFFFFFFFFFFFFFF AND DUP5 PUSH32 0x2F8788117E7EFF1D82E926EC794901D17C78024A50270940304540A733656F0D PUSH1 0x40 MLOAD PUSH1 0x40 MLOAD DUP1 SWAP2 SUB SWAP1 LOG4 PUSH1 0x1 SWAP1 POP PUSH2 0x2F98 JUMP JUMPDEST PUSH1 0x0 SWAP1 POP JUMPDEST SWAP3 SWAP2 POP POP JUMP JUMPDEST PUSH1 0x0 CALLER SWAP1 POP SWAP1 JUMP JUMPDEST PUSH1 0x0 PUSH2 0x2FB2 DUP4 DUP4 PUSH2 0x2011 JUMP JUMPDEST ISZERO PUSH2 0x308E JUMPI PUSH1 0x0 PUSH1 0x1 PUSH1 0x0 DUP6 DUP2 MSTORE PUSH1 0x20 ADD SWAP1 DUP2 MSTORE PUSH1 0x20 ADD PUSH1 0x0 KECCAK256 PUSH1 0x0 ADD PUSH1 0x0 DUP5 PUSH20 0xFFFFFFFFFFFFFFFFFFFFFFFFFFFFFFFFFFFFFFFF AND PUSH20 0xFFFFFFFFFFFFFFFFFFFFFFFFFFFFFFFFFFFFFFFF AND DUP2 MSTORE PUSH1 0x20 ADD SWAP1 DUP2 MSTORE PUSH1 0x20 ADD PUSH1 0x0 KECCAK256 PUSH1 0x0 PUSH2 0x100 EXP DUP2 SLOAD DUP2 PUSH1 0xFF MUL NOT AND SWAP1 DUP4 ISZERO ISZERO MUL OR SWAP1 SSTORE POP PUSH2 0x302B PUSH2 0x2F9E JUMP JUMPDEST PUSH20 0xFFFFFFFFFFFFFFFFFFFFFFFFFFFFFFFFFFFFFFFF AND DUP3 PUSH20 0xFFFFFFFFFFFFFFFFFFFFFFFFFFFFFFFFFFFFFFFF AND DUP5 PUSH32 0xF6391F5C32D9C69D2A47EA670B442974B53935D1EDC7FD64EB21E047A839171B PUSH1 0x40 MLOAD PUSH1 0x40 MLOAD DUP1 SWAP2 SUB SWAP1 LOG4 PUSH1 0x1 SWAP1 POP PUSH2 0x3093 JUMP JUMPDEST PUSH1 0x0 SWAP1 POP JUMPDEST SWAP3 SWAP2 POP POP JUMP JUMPDEST PUSH2 0x30A1 PUSH2 0x2F9E JUMP JUMPDEST PUSH20 0xFFFFFFFFFFFFFFFFFFFFFFFFFFFFFFFFFFFFFFFF AND PUSH2 0x30BF PUSH2 0x1EF8 JUMP JUMPDEST PUSH20 0xFFFFFFFFFFFFFFFFFFFFFFFFFFFFFFFFFFFFFFFF AND EQ PUSH2 0x311E JUMPI PUSH2 0x30E2 PUSH2 0x2F9E JUMP JUMPDEST PUSH1 0x40 MLOAD PUSH32 0x118CDAA700000000000000000000000000000000000000000000000000000000 DUP2 MSTORE PUSH1 0x4 ADD PUSH2 0x3115 SWAP2 SWAP1 PUSH2 0x3ED9 JUMP JUMPDEST PUSH1 0x40 MLOAD DUP1 SWAP2 SUB SWAP1 REVERT JUMPDEST JUMP JUMPDEST PUSH1 0x0 DUP1 PUSH1 0x0 SWAP1 SLOAD SWAP1 PUSH2 0x100 EXP SWAP1 DIV PUSH20 0xFFFFFFFFFFFFFFFFFFFFFFFFFFFFFFFFFFFFFFFF AND SWAP1 POP DUP2 PUSH1 0x0 DUP1 PUSH2 0x100 EXP DUP2 SLOAD DUP2 PUSH20 0xFFFFFFFFFFFFFFFFFFFFFFFFFFFFFFFFFFFFFFFF MUL NOT AND SWAP1 DUP4 PUSH20 0xFFFFFFFFFFFFFFFFFFFFFFFFFFFFFFFFFFFFFFFF AND MUL OR SWAP1 SSTORE POP DUP2 PUSH20 0xFFFFFFFFFFFFFFFFFFFFFFFFFFFFFFFFFFFFFFFF AND DUP2 PUSH20 0xFFFFFFFFFFFFFFFFFFFFFFFFFFFFFFFFFFFFFFFF AND PUSH32 0x8BE0079C531659141344CD1FD0A4F28419497F9722A3DAAFE3B4186F6B6457E0 PUSH1 0x40 MLOAD PUSH1 0x40 MLOAD DUP1 SWAP2 SUB SWAP1 LOG3 POP POP JUMP JUMPDEST PUSH2 0x31EE DUP3 DUP3 PUSH2 0x2011 JUMP JUMPDEST PUSH2 0x3231 JUMPI DUP1 DUP3 PUSH1 0x40 MLOAD PUSH32 0xE2517D3F00000000000000000000000000000000000000000000000000000000 DUP2 MSTORE PUSH1 0x4 ADD PUSH2 0x3228 SWAP3 SWAP2 SWAP1 PUSH2 0x4C16 JUMP JUMPDEST PUSH1 0x40 MLOAD DUP1 SWAP2 SUB SWAP1 REVERT JUMPDEST POP POP JUMP JUMPDEST PUSH1 0x40 MLOAD DUP1 PUSH2 0x120 ADD PUSH1 0x40 MSTORE DUP1 PUSH1 0x0 DUP2 MSTORE PUSH1 0x20 ADD PUSH1 0x0 PUSH20 0xFFFFFFFFFFFFFFFFFFFFFFFFFFFFFFFFFFFFFFFF AND DUP2 MSTORE PUSH1 0x20 ADD PUSH1 0x60 DUP2 MSTORE PUSH1 0x20 ADD PUSH1 0x0 PUSH1 0x5 DUP2 GT ISZERO PUSH2 0x3280 JUMPI PUSH2 0x327F PUSH2 0x3465 JUMP JUMPDEST JUMPDEST DUP2 MSTORE PUSH1 0x20 ADD PUSH1 0x0 DUP2 MSTORE PUSH1 0x20 ADD PUSH1 0x0 PUSH20 0xFFFFFFFFFFFFFFFFFFFFFFFFFFFFFFFFFFFFFFFF AND DUP2 MSTORE PUSH1 0x20 ADD PUSH1 0x0 ISZERO ISZERO DUP2 MSTORE PUSH1 0x20 ADD PUSH1 0x60 DUP2 MSTORE PUSH1 0x20 ADD PUSH1 0x0 DUP2 MSTORE POP SWAP1 JUMP JUMPDEST PUSH1 0x40 MLOAD DUP1 PUSH1 0xA0 ADD PUSH1 0x40 MSTORE DUP1 PUSH1 0x0 PUSH20 0xFFFFFFFFFFFFFFFFFFFFFFFFFFFFFFFFFFFFFFFF AND DUP2 MSTORE PUSH1 0x20 ADD PUSH1 0x60 DUP2 MSTORE PUSH1 0x20 ADD PUSH1 0x0 DUP2 MSTORE PUSH1 0x20 ADD PUSH1 0x0 ISZERO ISZERO DUP2 MSTORE PUSH1 0x20 ADD PUSH1 0x0 DUP2 MSTORE POP SWAP1 JUMP JUMPDEST DUP3 DUP1 SLOAD DUP3 DUP3 SSTORE SWAP1 PUSH1 0x0 MSTORE PUSH1 0x20 PUSH1 0x0 KECCAK256 SWAP1 DUP2 ADD SWAP3 DUP3 ISZERO PUSH2 0x3344 JUMPI SWAP2 PUSH1 0x20 MUL DUP3 ADD JUMPDEST DUP3 DUP2 GT ISZERO PUSH2 0x3343 JUMPI DUP3 MLOAD DUP3 SSTORE SWAP2 PUSH1 0x20 ADD SWAP2 SWAP1 PUSH1 0x1 ADD SWAP1 PUSH2 0x3328 JUMP JUMPDEST JUMPDEST POP SWAP1 POP PUSH2 0x3351 SWAP2 SWAP1 PUSH2 0x3355 JUMP JUMPDEST POP SWAP1 JUMP JUMPDEST JUMPDEST DUP1 DUP3 GT ISZERO PUSH2 0x336E JUMPI PUSH1 0x0 DUP2 PUSH1 0x0 SWAP1 SSTORE POP PUSH1 0x1 ADD PUSH2 0x3356 JUMP JUMPDEST POP SWAP1 JUMP JUMPDEST PUSH1 0x0 PUSH1 0x40 MLOAD SWAP1 POP SWAP1 JUMP JUMPDEST PUSH1 0x0 DUP1 REVERT JUMPDEST PUSH1 0x0 DUP1 REVERT JUMPDEST PUSH1 0x0 DUP2 SWAP1 POP SWAP2 SWAP1 POP JUMP JUMPDEST PUSH2 0x3399 DUP2 PUSH2 0x3386 JUMP JUMPDEST DUP2 EQ PUSH2 0x33A4 JUMPI PUSH1 0x0 DUP1 REVERT JUMPDEST POP JUMP JUMPDEST PUSH1 0x0 DUP2 CALLDATALOAD SWAP1 POP PUSH2 0x33B6 DUP2 PUSH2 0x3390 JUMP JUMPDEST SWAP3 SWAP2 POP POP JUMP JUMPDEST PUSH1 0x0 PUSH1 0x20 DUP3 DUP5 SUB SLT ISZERO PUSH2 0x33D2 JUMPI PUSH2 0x33D1 PUSH2 0x337C JUMP JUMPDEST JUMPDEST PUSH1 0x0 PUSH2 0x33E0 DUP5 DUP3 DUP6 ADD PUSH2 0x33A7 JUMP JUMPDEST SWAP2 POP POP SWAP3 SWAP2 POP POP JUMP JUMPDEST PUSH1 0x0 DUP2 MLOAD SWAP1 POP SWAP2 SWAP1 POP JUMP JUMPDEST PUSH1 0x0 DUP3 DUP3 MSTORE PUSH1 0x20 DUP3 ADD SWAP1 POP SWAP3 SWAP2 POP POP JUMP JUMPDEST PUSH1 0x0 DUP2 SWAP1 POP PUSH1 0x20 DUP3 ADD SWAP1 POP SWAP2 SWAP1 POP JUMP JUMPDEST PUSH1 0x0 PUSH20 0xFFFFFFFFFFFFFFFFFFFFFFFFFFFFFFFFFFFFFFFF DUP3 AND SWAP1 POP SWAP2 SWAP1 POP JUMP JUMPDEST PUSH1 0x0 PUSH2 0x3440 DUP3 PUSH2 0x3415 JUMP JUMPDEST SWAP1 POP SWAP2 SWAP1 POP JUMP JUMPDEST PUSH2 0x3450 DUP2 PUSH2 0x3435 JUMP JUMPDEST DUP3 MSTORE POP POP JUMP JUMPDEST PUSH2 0x345F DUP2 PUSH2 0x3386 JUMP JUMPDEST DUP3 MSTORE POP POP JUMP JUMPDEST PUSH32 0x4E487B7100000000000000000000000000000000000000000000000000000000 PUSH1 0x0 MSTORE PUSH1 0x21 PUSH1 0x4 MSTORE PUSH1 0x24 PUSH1 0x0 REVERT JUMPDEST PUSH1 0x5 DUP2 LT PUSH2 0x34A5 JUMPI PUSH2 0x34A4 PUSH2 0x3465 JUMP JUMPDEST JUMPDEST POP JUMP JUMPDEST PUSH1 0x0 DUP2 SWAP1 POP PUSH2 0x34B6 DUP3 PUSH2 0x3494 JUMP JUMPDEST SWAP2 SWAP1 POP JUMP JUMPDEST PUSH1 0x0 PUSH2 0x34C6 DUP3 PUSH2 0x34A8 JUMP JUMPDEST SWAP1 POP SWAP2 SWAP1 POP JUMP JUMPDEST PUSH2 0x34D6 DUP2 PUSH2 0x34BB JUMP JUMPDEST DUP3 MSTORE POP POP JUMP JUMPDEST PUSH1 0x60 DUP3 ADD PUSH1 0x0 DUP3 ADD MLOAD PUSH2 0x34F2 PUSH1 0x0 DUP6 ADD DUP3 PUSH2 0x3447 JUMP JUMPDEST POP PUSH1 0x20 DUP3 ADD MLOAD PUSH2 0x3505 PUSH1 0x20 DUP6 ADD DUP3 PUSH2 0x3456 JUMP JUMPDEST POP PUSH1 0x40 DUP3 ADD MLOAD PUSH2 0x3518 PUSH1 0x40 DUP6 ADD DUP3 PUSH2 0x34CD JUMP JUMPDEST POP POP POP POP JUMP JUMPDEST PUSH1 0x0 PUSH2 0x352A DUP4 DUP4 PUSH2 0x34DC JUMP JUMPDEST PUSH1 0x60 DUP4 ADD SWAP1 POP SWAP3 SWAP2 POP POP JUMP JUMPDEST PUSH1 0x0 PUSH1 0x20 DUP3 ADD SWAP1 POP SWAP2 SWAP1 POP JUMP JUMPDEST PUSH1 0x0 PUSH2 0x354E DUP3 PUSH2 0x33E9 JUMP JUMPDEST PUSH2 0x3558 DUP2 DUP6 PUSH2 0x33F4 JUMP JUMPDEST SWAP4 POP PUSH2 0x3563 DUP4 PUSH2 0x3405 JUMP JUMPDEST DUP1 PUSH1 0x0 JUMPDEST DUP4 DUP2 LT ISZERO PUSH2 0x3594 JUMPI DUP2 MLOAD PUSH2 0x357B DUP9 DUP3 PUSH2 0x351E JUMP JUMPDEST SWAP8 POP PUSH2 0x3586 DUP4 PUSH2 0x3536 JUMP JUMPDEST SWAP3 POP POP PUSH1 0x1 DUP2 ADD SWAP1 POP PUSH2 0x3567 JUMP JUMPDEST POP DUP6 SWAP4 POP POP POP POP SWAP3 SWAP2 POP POP JUMP JUMPDEST PUSH1 0x0 PUSH1 0x20 DUP3 ADD SWAP1 POP DUP2 DUP2 SUB PUSH1 0x0 DUP4 ADD MSTORE PUSH2 0x35BB DUP2 DUP5 PUSH2 0x3543 JUMP JUMPDEST SWAP1 POP SWAP3 SWAP2 POP POP JUMP JUMPDEST PUSH1 0x0 PUSH32 0xFFFFFFFF00000000000000000000000000000000000000000000000000000000 DUP3 AND SWAP1 POP SWAP2 SWAP1 POP JUMP JUMPDEST PUSH2 0x35F8 DUP2 PUSH2 0x35C3 JUMP JUMPDEST DUP2 EQ PUSH2 0x3603 JUMPI PUSH1 0x0 DUP1 REVERT JUMPDEST POP JUMP JUMPDEST PUSH1 0x0 DUP2 CALLDATALOAD SWAP1 POP PUSH2 0x3615 DUP2 PUSH2 0x35EF JUMP JUMPDEST SWAP3 SWAP2 POP POP JUMP JUMPDEST PUSH1 0x0 PUSH1 0x20 DUP3 DUP5 SUB SLT ISZERO PUSH2 0x3631 JUMPI PUSH2 0x3630 PUSH2 0x337C JUMP JUMPDEST JUMPDEST PUSH1 0x0 PUSH2 0x363F DUP5 DUP3 DUP6 ADD PUSH2 0x3606 JUMP JUMPDEST SWAP2 POP POP SWAP3 SWAP2 POP POP JUMP JUMPDEST PUSH1 0x0 DUP2 ISZERO ISZERO SWAP1 POP SWAP2 SWAP1 POP JUMP JUMPDEST PUSH2 0x365D DUP2 PUSH2 0x3648 JUMP JUMPDEST DUP3 MSTORE POP POP JUMP JUMPDEST PUSH1 0x0 PUSH1 0x20 DUP3 ADD SWAP1 POP PUSH2 0x3678 PUSH1 0x0 DUP4 ADD DUP5 PUSH2 0x3654 JUMP JUMPDEST SWAP3 SWAP2 POP POP JUMP JUMPDEST PUSH1 0x0 DUP2 MLOAD SWAP1 POP SWAP2 SWAP1 POP JUMP JUMPDEST PUSH1 0x0 DUP3 DUP3 MSTORE PUSH1 0x20 DUP3 ADD SWAP1 POP SWAP3 SWAP2 POP POP JUMP JUMPDEST PUSH1 0x0 JUMPDEST DUP4 DUP2 LT ISZERO PUSH2 0x36B8 JUMPI DUP1 DUP3 ADD MLOAD DUP2 DUP5 ADD MSTORE PUSH1 0x20 DUP2 ADD SWAP1 POP PUSH2 0x369D JUMP JUMPDEST PUSH1 0x0 DUP5 DUP5 ADD MSTORE POP POP POP POP JUMP JUMPDEST PUSH1 0x0 PUSH1 0x1F NOT PUSH1 0x1F DUP4 ADD AND SWAP1 POP SWAP2 SWAP1 POP JUMP JUMPDEST PUSH1 0x0 PUSH2 0x36E0 DUP3 PUSH2 0x367E JUMP JUMPDEST PUSH2 0x36EA DUP2 DUP6 PUSH2 0x3689 JUMP JUMPDEST SWAP4 POP PUSH2 0x36FA DUP2 DUP6 PUSH1 0x20 DUP7 ADD PUSH2 0x369A JUMP JUMPDEST PUSH2 0x3703 DUP2 PUSH2 0x36C4 JUMP JUMPDEST DUP5 ADD SWAP2 POP POP SWAP3 SWAP2 POP POP JUMP JUMPDEST PUSH1 0x6 DUP2 LT PUSH2 0x371F JUMPI PUSH2 0x371E PUSH2 0x3465 JUMP JUMPDEST JUMPDEST POP JUMP JUMPDEST PUSH1 0x0 DUP2 SWAP1 POP PUSH2 0x3730 DUP3 PUSH2 0x370E JUMP JUMPDEST SWAP2 SWAP1 POP JUMP JUMPDEST PUSH1 0x0 PUSH2 0x3740 DUP3 PUSH2 0x3722 JUMP JUMPDEST SWAP1 POP SWAP2 SWAP1 POP JUMP JUMPDEST PUSH2 0x3750 DUP2 PUSH2 0x3735 JUMP JUMPDEST DUP3 MSTORE POP POP JUMP JUMPDEST PUSH2 0x375F DUP2 PUSH2 0x3648 JUMP JUMPDEST DUP3 MSTORE POP POP JUMP JUMPDEST PUSH1 0x0 PUSH2 0x120 DUP4 ADD PUSH1 0x0 DUP4 ADD MLOAD PUSH2 0x377E PUSH1 0x0 DUP7 ADD DUP3 PUSH2 0x3456 JUMP JUMPDEST POP PUSH1 0x20 DUP4 ADD MLOAD PUSH2 0x3791 PUSH1 0x20 DUP7 ADD DUP3 PUSH2 0x3447 JUMP JUMPDEST POP PUSH1 0x40 DUP4 ADD MLOAD DUP5 DUP3 SUB PUSH1 0x40 DUP7 ADD MSTORE PUSH2 0x37A9 DUP3 DUP3 PUSH2 0x36D5 JUMP JUMPDEST SWAP2 POP POP PUSH1 0x60 DUP4 ADD MLOAD PUSH2 0x37BE PUSH1 0x60 DUP7 ADD DUP3 PUSH2 0x3747 JUMP JUMPDEST POP PUSH1 0x80 DUP4 ADD MLOAD PUSH2 0x37D1 PUSH1 0x80 DUP7 ADD DUP3 PUSH2 0x3456 JUMP JUMPDEST POP PUSH1 0xA0 DUP4 ADD MLOAD PUSH2 0x37E4 PUSH1 0xA0 DUP7 ADD DUP3 PUSH2 0x3447 JUMP JUMPDEST POP PUSH1 0xC0 DUP4 ADD MLOAD PUSH2 0x37F7 PUSH1 0xC0 DUP7 ADD DUP3 PUSH2 0x3756 JUMP JUMPDEST POP PUSH1 0xE0 DUP4 ADD MLOAD DUP5 DUP3 SUB PUSH1 0xE0 DUP7 ADD MSTORE PUSH2 0x380F DUP3 DUP3 PUSH2 0x36D5 JUMP JUMPDEST SWAP2 POP POP PUSH2 0x100 DUP4 ADD MLOAD PUSH2 0x3826 PUSH2 0x100 DUP7 ADD DUP3 PUSH2 0x3456 JUMP JUMPDEST POP DUP1 SWAP2 POP POP SWAP3 SWAP2 POP POP JUMP JUMPDEST PUSH1 0x0 PUSH1 0x20 DUP3 ADD SWAP1 POP DUP2 DUP2 SUB PUSH1 0x0 DUP4 ADD MSTORE PUSH2 0x384B DUP2 DUP5 PUSH2 0x3765 JUMP JUMPDEST SWAP1 POP SWAP3 SWAP2 POP POP JUMP JUMPDEST PUSH2 0x385C DUP2 PUSH2 0x3386 JUMP JUMPDEST DUP3 MSTORE POP POP JUMP JUMPDEST PUSH1 0x0 PUSH1 0x20 DUP3 ADD SWAP1 POP PUSH2 0x3877 PUSH1 0x0 DUP4 ADD DUP5 PUSH2 0x3853 JUMP JUMPDEST SWAP3 SWAP2 POP POP JUMP JUMPDEST PUSH2 0x3886 DUP2 PUSH2 0x3435 JUMP JUMPDEST DUP2 EQ PUSH2 0x3891 JUMPI PUSH1 0x0 DUP1 REVERT JUMPDEST POP JUMP JUMPDEST PUSH1 0x0 DUP2 CALLDATALOAD SWAP1 POP PUSH2 0x38A3 DUP2 PUSH2 0x387D JUMP JUMPDEST SWAP3 SWAP2 POP POP JUMP JUMPDEST PUSH1 0x0 DUP1 REVERT JUMPDEST PUSH1 0x0 DUP1 REVERT JUMPDEST PUSH32 0x4E487B7100000000000000000000000000000000000000000000000000000000 PUSH1 0x0 MSTORE PUSH1 0x41 PUSH1 0x4 MSTORE PUSH1 0x24 PUSH1 0x0 REVERT JUMPDEST PUSH2 0x38EB DUP3 PUSH2 0x36C4 JUMP JUMPDEST DUP2 ADD DUP2 DUP2 LT PUSH8 0xFFFFFFFFFFFFFFFF DUP3 GT OR ISZERO PUSH2 0x390A JUMPI PUSH2 0x3909 PUSH2 0x38B3 JUMP JUMPDEST JUMPDEST DUP1 PUSH1 0x40 MSTORE POP POP POP JUMP JUMPDEST PUSH1 0x0 PUSH2 0x391D PUSH2 0x3372 JUMP JUMPDEST SWAP1 POP PUSH2 0x3929 DUP3 DUP3 PUSH2 0x38E2 JUMP JUMPDEST SWAP2 SWAP1 POP JUMP JUMPDEST PUSH1 0x0 PUSH8 0xFFFFFFFFFFFFFFFF DUP3 GT ISZERO PUSH2 0x3949 JUMPI PUSH2 0x3948 PUSH2 0x38B3 JUMP JUMPDEST JUMPDEST PUSH2 0x3952 DUP3 PUSH2 0x36C4 JUMP JUMPDEST SWAP1 POP PUSH1 0x20 DUP2 ADD SWAP1 POP SWAP2 SWAP1 POP JUMP JUMPDEST DUP3 DUP2 DUP4 CALLDATACOPY PUSH1 0x0 DUP4 DUP4 ADD MSTORE POP POP POP JUMP JUMPDEST PUSH1 0x0 PUSH2 0x3981 PUSH2 0x397C DUP5 PUSH2 0x392E JUMP JUMPDEST PUSH2 0x3913 JUMP JUMPDEST SWAP1 POP DUP3 DUP2 MSTORE PUSH1 0x20 DUP2 ADD DUP5 DUP5 DUP5 ADD GT ISZERO PUSH2 0x399D JUMPI PUSH2 0x399C PUSH2 0x38AE JUMP JUMPDEST JUMPDEST PUSH2 0x39A8 DUP5 DUP3 DUP6 PUSH2 0x395F JUMP JUMPDEST POP SWAP4 SWAP3 POP POP POP JUMP JUMPDEST PUSH1 0x0 DUP3 PUSH1 0x1F DUP4 ADD SLT PUSH2 0x39C5 JUMPI PUSH2 0x39C4 PUSH2 0x38A9 JUMP JUMPDEST JUMPDEST DUP2 CALLDATALOAD PUSH2 0x39D5 DUP5 DUP3 PUSH1 0x20 DUP7 ADD PUSH2 0x396E JUMP JUMPDEST SWAP2 POP POP SWAP3 SWAP2 POP POP JUMP JUMPDEST PUSH1 0x6 DUP2 LT PUSH2 0x39EB JUMPI PUSH1 0x0 DUP1 REVERT JUMPDEST POP JUMP JUMPDEST PUSH1 0x0 DUP2 CALLDATALOAD SWAP1 POP PUSH2 0x39FD DUP2 PUSH2 0x39DE JUMP JUMPDEST SWAP3 SWAP2 POP POP JUMP JUMPDEST PUSH1 0x0 DUP1 PUSH1 0x0 DUP1 PUSH1 0x80 DUP6 DUP8 SUB SLT ISZERO PUSH2 0x3A1D JUMPI PUSH2 0x3A1C PUSH2 0x337C JUMP JUMPDEST JUMPDEST PUSH1 0x0 PUSH2 0x3A2B DUP8 DUP3 DUP9 ADD PUSH2 0x3894 JUMP JUMPDEST SWAP5 POP POP PUSH1 0x20 DUP6 ADD CALLDATALOAD PUSH8 0xFFFFFFFFFFFFFFFF DUP2 GT ISZERO PUSH2 0x3A4C JUMPI PUSH2 0x3A4B PUSH2 0x3381 JUMP JUMPDEST JUMPDEST PUSH2 0x3A58 DUP8 DUP3 DUP9 ADD PUSH2 0x39B0 JUMP JUMPDEST SWAP4 POP POP PUSH1 0x40 PUSH2 0x3A69 DUP8 DUP3 DUP9 ADD PUSH2 0x39EE JUMP JUMPDEST SWAP3 POP POP PUSH1 0x60 DUP6 ADD CALLDATALOAD PUSH8 0xFFFFFFFFFFFFFFFF DUP2 GT ISZERO PUSH2 0x3A8A JUMPI PUSH2 0x3A89 PUSH2 0x3381 JUMP JUMPDEST JUMPDEST PUSH2 0x3A96 DUP8 DUP3 DUP9 ADD PUSH2 0x39B0 JUMP JUMPDEST SWAP2 POP POP SWAP3 SWAP6 SWAP2 SWAP5 POP SWAP3 POP JUMP JUMPDEST PUSH1 0x0 PUSH1 0x20 DUP3 DUP5 SUB SLT ISZERO PUSH2 0x3AB8 JUMPI PUSH2 0x3AB7 PUSH2 0x337C JUMP JUMPDEST JUMPDEST PUSH1 0x0 PUSH2 0x3AC6 DUP5 DUP3 DUP6 ADD PUSH2 0x3894 JUMP JUMPDEST SWAP2 POP POP SWAP3 SWAP2 POP POP JUMP JUMPDEST PUSH1 0x0 DUP2 MLOAD SWAP1 POP SWAP2 SWAP1 POP JUMP JUMPDEST PUSH1 0x0 DUP3 DUP3 MSTORE PUSH1 0x20 DUP3 ADD SWAP1 POP SWAP3 SWAP2 POP POP JUMP JUMPDEST PUSH1 0x0 DUP2 SWAP1 POP PUSH1 0x20 DUP3 ADD SWAP1 POP SWAP2 SWAP1 POP JUMP JUMPDEST PUSH1 0x0 PUSH2 0x3B07 DUP4 DUP4 PUSH2 0x3456 JUMP JUMPDEST PUSH1 0x20 DUP4 ADD SWAP1 POP SWAP3 SWAP2 POP POP JUMP JUMPDEST PUSH1 0x0 PUSH1 0x20 DUP3 ADD SWAP1 POP SWAP2 SWAP1 POP JUMP JUMPDEST PUSH1 0x0 PUSH2 0x3B2B DUP3 PUSH2 0x3ACF JUMP JUMPDEST PUSH2 0x3B35 DUP2 DUP6 PUSH2 0x3ADA JUMP JUMPDEST SWAP4 POP PUSH2 0x3B40 DUP4 PUSH2 0x3AEB JUMP JUMPDEST DUP1 PUSH1 0x0 JUMPDEST DUP4 DUP2 LT ISZERO PUSH2 0x3B71 JUMPI DUP2 MLOAD PUSH2 0x3B58 DUP9 DUP3 PUSH2 0x3AFB JUMP JUMPDEST SWAP8 POP PUSH2 0x3B63 DUP4 PUSH2 0x3B13 JUMP JUMPDEST SWAP3 POP POP PUSH1 0x1 DUP2 ADD SWAP1 POP PUSH2 0x3B44 JUMP JUMPDEST POP DUP6 SWAP4 POP POP POP POP SWAP3 SWAP2 POP POP JUMP JUMPDEST PUSH1 0x0 PUSH1 0x20 DUP3 ADD SWAP1 POP DUP2 DUP2 SUB PUSH1 0x0 DUP4 ADD MSTORE PUSH2 0x3B98 DUP2 DUP5 PUSH2 0x3B20 JUMP JUMPDEST SWAP1 POP SWAP3 SWAP2 POP POP JUMP JUMPDEST PUSH1 0x0 DUP1 PUSH1 0x0 PUSH1 0x60 DUP5 DUP7 SUB SLT ISZERO PUSH2 0x3BB9 JUMPI PUSH2 0x3BB8 PUSH2 0x337C JUMP JUMPDEST JUMPDEST PUSH1 0x0 DUP5 ADD CALLDATALOAD PUSH8 0xFFFFFFFFFFFFFFFF DUP2 GT ISZERO PUSH2 0x3BD7 JUMPI PUSH2 0x3BD6 PUSH2 0x3381 JUMP JUMPDEST JUMPDEST PUSH2 0x3BE3 DUP7 DUP3 DUP8 ADD PUSH2 0x39B0 JUMP JUMPDEST SWAP4 POP POP PUSH1 0x20 PUSH2 0x3BF4 DUP7 DUP3 DUP8 ADD PUSH2 0x39EE JUMP JUMPDEST SWAP3 POP POP PUSH1 0x40 DUP5 ADD CALLDATALOAD PUSH8 0xFFFFFFFFFFFFFFFF DUP2 GT ISZERO PUSH2 0x3C15 JUMPI PUSH2 0x3C14 PUSH2 0x3381 JUMP JUMPDEST JUMPDEST PUSH2 0x3C21 DUP7 DUP3 DUP8 ADD PUSH2 0x39B0 JUMP JUMPDEST SWAP2 POP POP SWAP3 POP SWAP3 POP SWAP3 JUMP JUMPDEST PUSH1 0x0 DUP2 SWAP1 POP SWAP2 SWAP1 POP JUMP JUMPDEST PUSH2 0x3C3E DUP2 PUSH2 0x3C2B JUMP JUMPDEST DUP2 EQ PUSH2 0x3C49 JUMPI PUSH1 0x0 DUP1 REVERT JUMPDEST POP JUMP JUMPDEST PUSH1 0x0 DUP2 CALLDATALOAD SWAP1 POP PUSH2 0x3C5B DUP2 PUSH2 0x3C35 JUMP JUMPDEST SWAP3 SWAP2 POP POP JUMP JUMPDEST PUSH1 0x0 PUSH1 0x20 DUP3 DUP5 SUB SLT ISZERO PUSH2 0x3C77 JUMPI PUSH2 0x3C76 PUSH2 0x337C JUMP JUMPDEST JUMPDEST PUSH1 0x0 PUSH2 0x3C85 DUP5 DUP3 DUP6 ADD PUSH2 0x3C4C JUMP JUMPDEST SWAP2 POP POP SWAP3 SWAP2 POP POP JUMP JUMPDEST PUSH2 0x3C97 DUP2 PUSH2 0x3C2B JUMP JUMPDEST DUP3 MSTORE POP POP JUMP JUMPDEST PUSH1 0x0 PUSH1 0x20 DUP3 ADD SWAP1 POP PUSH2 0x3CB2 PUSH1 0x0 DUP4 ADD DUP5 PUSH2 0x3C8E JUMP JUMPDEST SWAP3 SWAP2 POP POP JUMP JUMPDEST PUSH1 0x0 DUP1 PUSH1 0x40 DUP4 DUP6 SUB SLT ISZERO PUSH2 0x3CCF JUMPI PUSH2 0x3CCE PUSH2 0x337C JUMP JUMPDEST JUMPDEST PUSH1 0x0 PUSH2 0x3CDD DUP6 DUP3 DUP7 ADD PUSH2 0x3C4C JUMP JUMPDEST SWAP3 POP POP PUSH1 0x20 PUSH2 0x3CEE DUP6 DUP3 DUP7 ADD PUSH2 0x3894 JUMP JUMPDEST SWAP2 POP POP SWAP3 POP SWAP3 SWAP1 POP JUMP JUMPDEST PUSH1 0x0 DUP1 PUSH1 0x0 PUSH1 0x60 DUP5 DUP7 SUB SLT ISZERO PUSH2 0x3D11 JUMPI PUSH2 0x3D10 PUSH2 0x337C JUMP JUMPDEST JUMPDEST PUSH1 0x0 PUSH2 0x3D1F DUP7 DUP3 DUP8 ADD PUSH2 0x33A7 JUMP JUMPDEST SWAP4 POP POP PUSH1 0x20 DUP5 ADD CALLDATALOAD PUSH8 0xFFFFFFFFFFFFFFFF DUP2 GT ISZERO PUSH2 0x3D40 JUMPI PUSH2 0x3D3F PUSH2 0x3381 JUMP JUMPDEST JUMPDEST PUSH2 0x3D4C DUP7 DUP3 DUP8 ADD PUSH2 0x39B0 JUMP JUMPDEST SWAP3 POP POP PUSH1 0x40 DUP5 ADD CALLDATALOAD PUSH8 0xFFFFFFFFFFFFFFFF DUP2 GT ISZERO PUSH2 0x3D6D JUMPI PUSH2 0x3D6C PUSH2 0x3381 JUMP JUMPDEST JUMPDEST PUSH2 0x3D79 DUP7 DUP3 DUP8 ADD PUSH2 0x39B0 JUMP JUMPDEST SWAP2 POP POP SWAP3 POP SWAP3 POP SWAP3 JUMP JUMPDEST PUSH1 0x0 DUP1 PUSH1 0x40 DUP4 DUP6 SUB SLT ISZERO PUSH2 0x3D9A JUMPI PUSH2 0x3D99 PUSH2 0x337C JUMP JUMPDEST JUMPDEST PUSH1 0x0 PUSH2 0x3DA8 DUP6 DUP3 DUP7 ADD PUSH2 0x3894 JUMP JUMPDEST SWAP3 POP POP PUSH1 0x20 PUSH2 0x3DB9 DUP6 DUP3 DUP7 ADD PUSH2 0x3894 JUMP JUMPDEST SWAP2 POP POP SWAP3 POP SWAP3 SWAP1 POP JUMP JUMPDEST PUSH1 0x0 DUP3 DUP3 MSTORE PUSH1 0x20 DUP3 ADD SWAP1 POP SWAP3 SWAP2 POP POP JUMP JUMPDEST PUSH1 0x0 PUSH2 0x3DDF DUP3 PUSH2 0x3ACF JUMP JUMPDEST PUSH2 0x3DE9 DUP2 DUP6 PUSH2 0x3DC3 JUMP JUMPDEST SWAP4 POP PUSH2 0x3DF4 DUP4 PUSH2 0x3AEB JUMP JUMPDEST DUP1 PUSH1 0x0 JUMPDEST DUP4 DUP2 LT ISZERO PUSH2 0x3E25 JUMPI DUP2 MLOAD PUSH2 0x3E0C DUP9 DUP3 PUSH2 0x3AFB JUMP JUMPDEST SWAP8 POP PUSH2 0x3E17 DUP4 PUSH2 0x3B13 JUMP JUMPDEST SWAP3 POP POP PUSH1 0x1 DUP2 ADD SWAP1 POP PUSH2 0x3DF8 JUMP JUMPDEST POP DUP6 SWAP4 POP POP POP POP SWAP3 SWAP2 POP POP JUMP JUMPDEST PUSH1 0x0 PUSH1 0xA0 DUP4 ADD PUSH1 0x0 DUP4 ADD MLOAD PUSH2 0x3E4A PUSH1 0x0 DUP7 ADD DUP3 PUSH2 0x3447 JUMP JUMPDEST POP PUSH1 0x20 DUP4 ADD MLOAD DUP5 DUP3 SUB PUSH1 0x20 DUP7 ADD MSTORE PUSH2 0x3E62 DUP3 DUP3 PUSH2 0x3DD4 JUMP JUMPDEST SWAP2 POP POP PUSH1 0x40 DUP4 ADD MLOAD PUSH2 0x3E77 PUSH1 0x40 DUP7 ADD DUP3 PUSH2 0x3456 JUMP JUMPDEST POP PUSH1 0x60 DUP4 ADD MLOAD PUSH2 0x3E8A PUSH1 0x60 DUP7 ADD DUP3 PUSH2 0x3756 JUMP JUMPDEST POP PUSH1 0x80 DUP4 ADD MLOAD PUSH2 0x3E9D PUSH1 0x80 DUP7 ADD DUP3 PUSH2 0x3456 JUMP JUMPDEST POP DUP1 SWAP2 POP POP SWAP3 SWAP2 POP POP JUMP JUMPDEST PUSH1 0x0 PUSH1 0x20 DUP3 ADD SWAP1 POP DUP2 DUP2 SUB PUSH1 0x0 DUP4 ADD MSTORE PUSH2 0x3EC2 DUP2 DUP5 PUSH2 0x3E32 JUMP JUMPDEST SWAP1 POP SWAP3 SWAP2 POP POP JUMP JUMPDEST PUSH2 0x3ED3 DUP2 PUSH2 0x3435 JUMP JUMPDEST DUP3 MSTORE POP POP JUMP JUMPDEST PUSH1 0x0 PUSH1 0x20 DUP3 ADD SWAP1 POP PUSH2 0x3EEE PUSH1 0x0 DUP4 ADD DUP5 PUSH2 0x3ECA JUMP JUMPDEST SWAP3 SWAP2 POP POP JUMP JUMPDEST PUSH1 0x0 PUSH8 0xFFFFFFFFFFFFFFFF DUP3 GT ISZERO PUSH2 0x3F0F JUMPI PUSH2 0x3F0E PUSH2 0x38B3 JUMP JUMPDEST JUMPDEST PUSH1 0x20 DUP3 MUL SWAP1 POP PUSH1 0x20 DUP2 ADD SWAP1 POP SWAP2 SWAP1 POP JUMP JUMPDEST PUSH1 0x0 DUP1 REVERT JUMPDEST PUSH1 0x0 PUSH2 0x3F38 PUSH2 0x3F33 DUP5 PUSH2 0x3EF4 JUMP JUMPDEST PUSH2 0x3913 JUMP JUMPDEST SWAP1 POP DUP1 DUP4 DUP3 MSTORE PUSH1 0x20 DUP3 ADD SWAP1 POP PUSH1 0x20 DUP5 MUL DUP4 ADD DUP6 DUP2 GT ISZERO PUSH2 0x3F5B JUMPI PUSH2 0x3F5A PUSH2 0x3F20 JUMP JUMPDEST JUMPDEST DUP4 JUMPDEST DUP2 DUP2 LT ISZERO PUSH2 0x3F84 JUMPI DUP1 PUSH2 0x3F70 DUP9 DUP3 PUSH2 0x33A7 JUMP JUMPDEST DUP5 MSTORE PUSH1 0x20 DUP5 ADD SWAP4 POP POP PUSH1 0x20 DUP2 ADD SWAP1 POP PUSH2 0x3F5D JUMP JUMPDEST POP POP POP SWAP4 SWAP3 POP POP POP JUMP JUMPDEST PUSH1 0x0 DUP3 PUSH1 0x1F DUP4 ADD SLT PUSH2 0x3FA3 JUMPI PUSH2 0x3FA2 PUSH2 0x38A9 JUMP JUMPDEST JUMPDEST DUP2 CALLDATALOAD PUSH2 0x3FB3 DUP5 DUP3 PUSH1 0x20 DUP7 ADD PUSH2 0x3F25 JUMP JUMPDEST SWAP2 POP POP SWAP3 SWAP2 POP POP JUMP JUMPDEST PUSH1 0x0 DUP1 PUSH1 0x0 PUSH1 0x60 DUP5 DUP7 SUB SLT ISZERO PUSH2 0x3FD5 JUMPI PUSH2 0x3FD4 PUSH2 0x337C JUMP JUMPDEST JUMPDEST PUSH1 0x0 PUSH2 0x3FE3 DUP7 DUP3 DUP8 ADD PUSH2 0x3894 JUMP JUMPDEST SWAP4 POP POP PUSH1 0x20 DUP5 ADD CALLDATALOAD PUSH8 0xFFFFFFFFFFFFFFFF DUP2 GT ISZERO PUSH2 0x4004 JUMPI PUSH2 0x4003 PUSH2 0x3381 JUMP JUMPDEST JUMPDEST PUSH2 0x4010 DUP7 DUP3 DUP8 ADD PUSH2 0x3F8E JUMP JUMPDEST SWAP3 POP POP PUSH1 0x40 PUSH2 0x4021 DUP7 DUP3 DUP8 ADD PUSH2 0x33A7 JUMP JUMPDEST SWAP2 POP POP SWAP3 POP SWAP3 POP SWAP3 JUMP JUMPDEST PUSH1 0x5 DUP2 LT PUSH2 0x4038 JUMPI PUSH1 0x0 DUP1 REVERT JUMPDEST POP JUMP JUMPDEST PUSH1 0x0 DUP2 CALLDATALOAD SWAP1 POP PUSH2 0x404A DUP2 PUSH2 0x402B JUMP JUMPDEST SWAP3 SWAP2 POP POP JUMP JUMPDEST PUSH1 0x0 DUP1 PUSH1 0x40 DUP4 DUP6 SUB SLT ISZERO PUSH2 0x4067 JUMPI PUSH2 0x4066 PUSH2 0x337C JUMP JUMPDEST JUMPDEST PUSH1 0x0 PUSH2 0x4075 DUP6 DUP3 DUP7 ADD PUSH2 0x33A7 JUMP JUMPDEST SWAP3 POP POP PUSH1 0x20 PUSH2 0x4086 DUP6 DUP3 DUP7 ADD PUSH2 0x403B JUMP JUMPDEST SWAP2 POP POP SWAP3 POP SWAP3 SWAP1 POP JUMP JUMPDEST PUSH1 0x0 DUP1 PUSH1 0x0 PUSH1 0x60 DUP5 DUP7 SUB SLT ISZERO PUSH2 0x40A9 JUMPI PUSH2 0x40A8 PUSH2 0x337C JUMP JUMPDEST JUMPDEST PUSH1 0x0 PUSH2 0x40B7 DUP7 DUP3 DUP8 ADD PUSH2 0x3894 JUMP JUMPDEST SWAP4 POP POP PUSH1 0x20 PUSH2 0x40C8 DUP7 DUP3 DUP8 ADD PUSH2 0x3894 JUMP JUMPDEST SWAP3 POP POP PUSH1 0x40 PUSH2 0x40D9 DUP7 DUP3 DUP8 ADD PUSH2 0x33A7 JUMP JUMPDEST SWAP2 POP POP SWAP3 POP SWAP3 POP SWAP3 JUMP JUMPDEST PUSH1 0x0 DUP3 DUP3 MSTORE PUSH1 0x20 DUP3 ADD SWAP1 POP SWAP3 SWAP2 POP POP JUMP JUMPDEST PUSH32 0x5265636F726420646F6573206E6F742065786973740000000000000000000000 PUSH1 0x0 DUP3 ADD MSTORE POP JUMP JUMPDEST PUSH1 0x0 PUSH2 0x412A PUSH1 0x15 DUP4 PUSH2 0x40E3 JUMP JUMPDEST SWAP2 POP PUSH2 0x4135 DUP3 PUSH2 0x40F4 JUMP JUMPDEST PUSH1 0x20 DUP3 ADD SWAP1 POP SWAP2 SWAP1 POP JUMP JUMPDEST PUSH1 0x0 PUSH1 0x20 DUP3 ADD SWAP1 POP DUP2 DUP2 SUB PUSH1 0x0 DUP4 ADD MSTORE PUSH2 0x4159 DUP2 PUSH2 0x411D JUMP JUMPDEST SWAP1 POP SWAP2 SWAP1 POP JUMP JUMPDEST PUSH32 0x5265636F7264206973206E6F7420616374697665000000000000000000000000 PUSH1 0x0 DUP3 ADD MSTORE POP JUMP JUMPDEST PUSH1 0x0 PUSH2 0x4196 PUSH1 0x14 DUP4 PUSH2 0x40E3 JUMP JUMPDEST SWAP2 POP PUSH2 0x41A1 DUP3 PUSH2 0x4160 JUMP JUMPDEST PUSH1 0x20 DUP3 ADD SWAP1 POP SWAP2 SWAP1 POP JUMP JUMPDEST PUSH1 0x0 PUSH1 0x20 DUP3 ADD SWAP1 POP DUP2 DUP2 SUB PUSH1 0x0 DUP4 ADD MSTORE PUSH2 0x41C5 DUP2 PUSH2 0x4189 JUMP JUMPDEST SWAP1 POP SWAP2 SWAP1 POP JUMP JUMPDEST PUSH32 0x4F6E6C792070617469656E742063616E20706572666F726D2074686973206163 PUSH1 0x0 DUP3 ADD MSTORE PUSH32 0x74696F6E00000000000000000000000000000000000000000000000000000000 PUSH1 0x20 DUP3 ADD MSTORE POP JUMP JUMPDEST PUSH1 0x0 PUSH2 0x4228 PUSH1 0x24 DUP4 PUSH2 0x40E3 JUMP JUMPDEST SWAP2 POP PUSH2 0x4233 DUP3 PUSH2 0x41CC JUMP JUMPDEST PUSH1 0x40 DUP3 ADD SWAP1 POP SWAP2 SWAP1 POP JUMP JUMPDEST PUSH1 0x0 PUSH1 0x20 DUP3 ADD SWAP1 POP DUP2 DUP2 SUB PUSH1 0x0 DUP4 ADD MSTORE PUSH2 0x4257 DUP2 PUSH2 0x421B JUMP JUMPDEST SWAP1 POP SWAP2 SWAP1 POP JUMP JUMPDEST PUSH32 0x4E6F7420617574686F72697A656420746F206163636573732074686973207265 PUSH1 0x0 DUP3 ADD MSTORE PUSH32 0x636F726400000000000000000000000000000000000000000000000000000000 PUSH1 0x20 DUP3 ADD MSTORE POP JUMP JUMPDEST PUSH1 0x0 PUSH2 0x42BA PUSH1 0x24 DUP4 PUSH2 0x40E3 JUMP JUMPDEST SWAP2 POP PUSH2 0x42C5 DUP3 PUSH2 0x425E JUMP JUMPDEST PUSH1 0x40 DUP3 ADD SWAP1 POP SWAP2 SWAP1 POP JUMP JUMPDEST PUSH1 0x0 PUSH1 0x20 DUP3 ADD SWAP1 POP DUP2 DUP2 SUB PUSH1 0x0 DUP4 ADD MSTORE PUSH2 0x42E9 DUP2 PUSH2 0x42AD JUMP JUMPDEST SWAP1 POP SWAP2 SWAP1 POP JUMP JUMPDEST PUSH32 0x4E487B7100000000000000000000000000000000000000000000000000000000 PUSH1 0x0 MSTORE PUSH1 0x22 PUSH1 0x4 MSTORE PUSH1 0x24 PUSH1 0x0 REVERT JUMPDEST PUSH1 0x0 PUSH1 0x2 DUP3 DIV SWAP1 POP PUSH1 0x1 DUP3 AND DUP1 PUSH2 0x4337 JUMPI PUSH1 0x7F DUP3 AND SWAP2 POP JUMPDEST PUSH1 0x20 DUP3 LT DUP2 SUB PUSH2 0x434A JUMPI PUSH2 0x4349 PUSH2 0x42F0 JUMP JUMPDEST JUMPDEST POP SWAP2 SWAP1 POP JUMP JUMPDEST PUSH32 0x4E6F7420616E20617574686F72697A65642070726F7669646572000000000000 PUSH1 0x0 DUP3 ADD MSTORE POP JUMP JUMPDEST PUSH1 0x0 PUSH2 0x4386 PUSH1 0x1A DUP4 PUSH2 0x40E3 JUMP JUMPDEST SWAP2 POP PUSH2 0x4391 DUP3 PUSH2 0x4350 JUMP JUMPDEST PUSH1 0x20 DUP3 ADD SWAP1 POP SWAP2 SWAP1 POP JUMP JUMPDEST PUSH1 0x0 PUSH1 0x20 DUP3 ADD SWAP1 POP DUP2 DUP2 SUB PUSH1 0x0 DUP4 ADD MSTORE PUSH2 0x43B5 DUP2 PUSH2 0x4379 JUMP JUMPDEST SWAP1 POP SWAP2 SWAP1 POP JUMP JUMPDEST PUSH32 0x496E76616C69642070617469656E742061646472657373000000000000000000 PUSH1 0x0 DUP3 ADD MSTORE POP JUMP JUMPDEST PUSH1 0x0 PUSH2 0x43F2 PUSH1 0x17 DUP4 PUSH2 0x40E3 JUMP JUMPDEST SWAP2 POP PUSH2 0x43FD DUP3 PUSH2 0x43BC JUMP JUMPDEST PUSH1 0x20 DUP3 ADD SWAP1 POP SWAP2 SWAP1 POP JUMP JUMPDEST PUSH1 0x0 PUSH1 0x20 DUP3 ADD SWAP1 POP DUP2 DUP2 SUB PUSH1 0x0 DUP4 ADD MSTORE PUSH2 0x4421 DUP2 PUSH2 0x43E5 JUMP JUMPDEST SWAP1 POP SWAP2 SWAP1 POP JUMP JUMPDEST PUSH32 0x4950465320686173682063616E6E6F7420626520656D70747900000000000000 PUSH1 0x0 DUP3 ADD MSTORE POP JUMP JUMPDEST PUSH1 0x0 PUSH2 0x445E PUSH1 0x19 DUP4 PUSH2 0x40E3 JUMP JUMPDEST SWAP2 POP PUSH2 0x4469 DUP3 PUSH2 0x4428 JUMP JUMPDEST PUSH1 0x20 DUP3 ADD SWAP1 POP SWAP2 SWAP1 POP JUMP JUMPDEST PUSH1 0x0 PUSH1 0x20 DUP3 ADD SWAP1 POP DUP2 DUP2 SUB PUSH1 0x0 DUP4 ADD MSTORE PUSH2 0x448D DUP2 PUSH2 0x4451 JUMP JUMPDEST SWAP1 POP SWAP2 SWAP1 POP JUMP JUMPDEST PUSH32 0x4E487B7100000000000000000000000000000000000000000000000000000000 PUSH1 0x0 MSTORE PUSH1 0x11 PUSH1 0x4 MSTORE PUSH1 0x24 PUSH1 0x0 REVERT JUMPDEST PUSH1 0x0 PUSH2 0x44CE DUP3 PUSH2 0x3386 JUMP JUMPDEST SWAP2 POP PUSH32 0xFFFFFFFFFFFFFFFFFFFFFFFFFFFFFFFFFFFFFFFFFFFFFFFFFFFFFFFFFFFFFFFF DUP3 SUB PUSH2 0x4500 JUMPI PUSH2 0x44FF PUSH2 0x4494 JUMP JUMPDEST JUMPDEST PUSH1 0x1 DUP3 ADD SWAP1 POP SWAP2 SWAP1 POP JUMP JUMPDEST PUSH1 0x0 DUP2 SWAP1 POP DUP2 PUSH1 0x0 MSTORE PUSH1 0x20 PUSH1 0x0 KECCAK256 SWAP1 POP SWAP2 SWAP1 POP JUMP JUMPDEST PUSH1 0x0 PUSH1 0x20 PUSH1 0x1F DUP4 ADD DIV SWAP1 POP SWAP2 SWAP1 POP JUMP JUMPDEST PUSH1 0x0 DUP3 DUP3 SHL SWAP1 POP SWAP3 SWAP2 POP POP JUMP JUMPDEST PUSH1 0x0 PUSH1 0x8 DUP4 MUL PUSH2 0x456D PUSH32 0xFFFFFFFFFFFFFFFFFFFFFFFFFFFFFFFFFFFFFFFFFFFFFFFFFFFFFFFFFFFFFFFF DUP3 PUSH2 0x4530 JUMP JUMPDEST PUSH2 0x4577 DUP7 DUP4 PUSH2 0x4530 JUMP JUMPDEST SWAP6 POP DUP1 NOT DUP5 AND SWAP4 POP DUP1 DUP7 AND DUP5 OR SWAP3 POP POP POP SWAP4 SWAP3 POP POP POP JUMP JUMPDEST PUSH1 0x0 DUP2 SWAP1 POP SWAP2 SWAP1 POP JUMP JUMPDEST PUSH1 0x0 PUSH2 0x45B4 PUSH2 0x45AF PUSH2 0x45AA DUP5 PUSH2 0x3386 JUMP JUMPDEST PUSH2 0x458F JUMP JUMPDEST PUSH2 0x3386 JUMP JUMPDEST SWAP1 POP SWAP2 SWAP1 POP JUMP JUMPDEST PUSH1 0x0 DUP2 SWAP1 POP SWAP2 SWAP1 POP JUMP JUMPDEST PUSH2 0x45CE DUP4 PUSH2 0x4599 JUMP JUMPDEST PUSH2 0x45E2 PUSH2 0x45DA DUP3 PUSH2 0x45BB JUMP JUMPDEST DUP5 DUP5 SLOAD PUSH2 0x453D JUMP JUMPDEST DUP3 SSTORE POP POP POP POP JUMP JUMPDEST PUSH1 0x0 SWAP1 JUMP JUMPDEST PUSH2 0x45F7 PUSH2 0x45EA JUMP JUMPDEST PUSH2 0x4602 DUP2 DUP5 DUP5 PUSH2 0x45C5 JUMP JUMPDEST POP POP POP JUMP JUMPDEST JUMPDEST DUP2 DUP2 LT ISZERO PUSH2 0x4626 JUMPI PUSH2 0x461B PUSH1 0x0 DUP3 PUSH2 0x45EF JUMP JUMPDEST PUSH1 0x1 DUP2 ADD SWAP1 POP PUSH2 0x4608 JUMP JUMPDEST POP POP JUMP JUMPDEST PUSH1 0x1F DUP3 GT ISZERO PUSH2 0x466B JUMPI PUSH2 0x463C DUP2 PUSH2 0x450B JUMP JUMPDEST PUSH2 0x4645 DUP5 PUSH2 0x4520 JUMP JUMPDEST DUP2 ADD PUSH1 0x20 DUP6 LT ISZERO PUSH2 0x4654 JUMPI DUP2 SWAP1 POP JUMPDEST PUSH2 0x4668 PUSH2 0x4660 DUP6 PUSH2 0x4520 JUMP JUMPDEST DUP4 ADD DUP3 PUSH2 0x4607 JUMP JUMPDEST POP POP JUMPDEST POP POP POP JUMP JUMPDEST PUSH1 0x0 DUP3 DUP3 SHR SWAP1 POP SWAP3 SWAP2 POP POP JUMP JUMPDEST PUSH1 0x0 PUSH2 0x468E PUSH1 0x0 NOT DUP5 PUSH1 0x8 MUL PUSH2 0x4670 JUMP JUMPDEST NOT DUP1 DUP4 AND SWAP2 POP POP SWAP3 SWAP2 POP POP JUMP JUMPDEST PUSH1 0x0 PUSH2 0x46A7 DUP4 DUP4 PUSH2 0x467D JUMP JUMPDEST SWAP2 POP DUP3 PUSH1 0x2 MUL DUP3 OR SWAP1 POP SWAP3 SWAP2 POP POP JUMP JUMPDEST PUSH2 0x46C0 DUP3 PUSH2 0x367E JUMP JUMPDEST PUSH8 0xFFFFFFFFFFFFFFFF DUP2 GT ISZERO PUSH2 0x46D9 JUMPI PUSH2 0x46D8 PUSH2 0x38B3 JUMP JUMPDEST JUMPDEST PUSH2 0x46E3 DUP3 SLOAD PUSH2 0x431F JUMP JUMPDEST PUSH2 0x46EE DUP3 DUP3 DUP6 PUSH2 0x462A JUMP JUMPDEST PUSH1 0x0 PUSH1 0x20 SWAP1 POP PUSH1 0x1F DUP4 GT PUSH1 0x1 DUP2 EQ PUSH2 0x4721 JUMPI PUSH1 0x0 DUP5 ISZERO PUSH2 0x470F JUMPI DUP3 DUP8 ADD MLOAD SWAP1 POP JUMPDEST PUSH2 0x4719 DUP6 DUP3 PUSH2 0x469B JUMP JUMPDEST DUP7 SSTORE POP PUSH2 0x4781 JUMP JUMPDEST PUSH1 0x1F NOT DUP5 AND PUSH2 0x472F DUP7 PUSH2 0x450B JUMP JUMPDEST PUSH1 0x0 JUMPDEST DUP3 DUP2 LT ISZERO PUSH2 0x4757 JUMPI DUP5 DUP10 ADD MLOAD DUP3 SSTORE PUSH1 0x1 DUP3 ADD SWAP2 POP PUSH1 0x20 DUP6 ADD SWAP5 POP PUSH1 0x20 DUP2 ADD SWAP1 POP PUSH2 0x4732 JUMP JUMPDEST DUP7 DUP4 LT ISZERO PUSH2 0x4774 JUMPI DUP5 DUP10 ADD MLOAD PUSH2 0x4770 PUSH1 0x1F DUP10 AND DUP3 PUSH2 0x467D JUMP JUMPDEST DUP4 SSTORE POP JUMPDEST PUSH1 0x1 PUSH1 0x2 DUP9 MUL ADD DUP9 SSTORE POP POP POP JUMPDEST POP POP POP POP POP POP JUMP JUMPDEST PUSH1 0x0 PUSH2 0x4794 DUP3 PUSH2 0x367E JUMP JUMPDEST PUSH2 0x479E DUP2 DUP6 PUSH2 0x40E3 JUMP JUMPDEST SWAP4 POP PUSH2 0x47AE DUP2 DUP6 PUSH1 0x20 DUP7 ADD PUSH2 0x369A JUMP JUMPDEST PUSH2 0x47B7 DUP2 PUSH2 0x36C4 JUMP JUMPDEST DUP5 ADD SWAP2 POP POP SWAP3 SWAP2 POP POP JUMP JUMPDEST PUSH2 0x47CB DUP2 PUSH2 0x3735 JUMP JUMPDEST DUP3 MSTORE POP POP JUMP JUMPDEST PUSH1 0x0 PUSH1 0x40 DUP3 ADD SWAP1 POP DUP2 DUP2 SUB PUSH1 0x0 DUP4 ADD MSTORE PUSH2 0x47EB DUP2 DUP6 PUSH2 0x4789 JUMP JUMPDEST SWAP1 POP PUSH2 0x47FA PUSH1 0x20 DUP4 ADD DUP5 PUSH2 0x47C2 JUMP JUMPDEST SWAP4 SWAP3 POP POP POP JUMP JUMPDEST PUSH32 0x496E76616C69642070726F766964657220616464726573730000000000000000 PUSH1 0x0 DUP3 ADD MSTORE POP JUMP JUMPDEST PUSH1 0x0 PUSH2 0x4837 PUSH1 0x18 DUP4 PUSH2 0x40E3 JUMP JUMPDEST SWAP2 POP PUSH2 0x4842 DUP3 PUSH2 0x4801 JUMP JUMPDEST PUSH1 0x20 DUP3 ADD SWAP1 POP SWAP2 SWAP1 POP JUMP JUMPDEST PUSH1 0x0 PUSH1 0x20 DUP3 ADD SWAP1 POP DUP2 DUP2 SUB PUSH1 0x0 DUP4 ADD MSTORE PUSH2 0x4866 DUP2 PUSH2 0x482A JUMP JUMPDEST SWAP1 POP SWAP2 SWAP1 POP JUMP JUMPDEST PUSH32 0x4E6F7420617574686F72697A6564000000000000000000000000000000000000 PUSH1 0x0 DUP3 ADD MSTORE POP JUMP JUMPDEST PUSH1 0x0 PUSH2 0x48A3 PUSH1 0xE DUP4 PUSH2 0x40E3 JUMP JUMPDEST SWAP2 POP PUSH2 0x48AE DUP3 PUSH2 0x486D JUMP JUMPDEST PUSH1 0x20 DUP3 ADD SWAP1 POP SWAP2 SWAP1 POP JUMP JUMPDEST PUSH1 0x0 PUSH1 0x20 DUP3 ADD SWAP1 POP DUP2 DUP2 SUB PUSH1 0x0 DUP4 ADD MSTORE PUSH2 0x48D2 DUP2 PUSH2 0x4896 JUMP JUMPDEST SWAP1 POP SWAP2 SWAP1 POP JUMP JUMPDEST PUSH32 0x4E487B7100000000000000000000000000000000000000000000000000000000 PUSH1 0x0 MSTORE PUSH1 0x32 PUSH1 0x4 MSTORE PUSH1 0x24 PUSH1 0x0 REVERT JUMPDEST PUSH1 0x0 PUSH1 0x40 DUP3 ADD SWAP1 POP DUP2 DUP2 SUB PUSH1 0x0 DUP4 ADD MSTORE PUSH2 0x4922 DUP2 DUP6 PUSH2 0x4789 JUMP JUMPDEST SWAP1 POP PUSH2 0x4931 PUSH1 0x20 DUP4 ADD DUP5 PUSH2 0x3853 JUMP JUMPDEST SWAP4 SWAP3 POP POP POP JUMP JUMPDEST PUSH32 0x4E6F2061637469766520616363657373206772616E7400000000000000000000 PUSH1 0x0 DUP3 ADD MSTORE POP JUMP JUMPDEST PUSH1 0x0 PUSH2 0x496E PUSH1 0x16 DUP4 PUSH2 0x40E3 JUMP JUMPDEST SWAP2 POP PUSH2 0x4979 DUP3 PUSH2 0x4938 JUMP JUMPDEST PUSH1 0x20 DUP3 ADD SWAP1 POP SWAP2 SWAP1 POP JUMP JUMPDEST PUSH1 0x0 PUSH1 0x20 DUP3 ADD SWAP1 POP DUP2 DUP2 SUB PUSH1 0x0 DUP4 ADD MSTORE PUSH2 0x499D DUP2 PUSH2 0x4961 JUMP JUMPDEST SWAP1 POP SWAP2 SWAP1 POP JUMP JUMPDEST PUSH32 0x496E76616C696420616464726573730000000000000000000000000000000000 PUSH1 0x0 DUP3 ADD MSTORE POP JUMP JUMPDEST PUSH1 0x0 PUSH2 0x49DA PUSH1 0xF DUP4 PUSH2 0x40E3 JUMP JUMPDEST SWAP2 POP PUSH2 0x49E5 DUP3 PUSH2 0x49A4 JUMP JUMPDEST PUSH1 0x20 DUP3 ADD SWAP1 POP SWAP2 SWAP1 POP JUMP JUMPDEST PUSH1 0x0 PUSH1 0x20 DUP3 ADD SWAP1 POP DUP2 DUP2 SUB PUSH1 0x0 DUP4 ADD MSTORE PUSH2 0x4A09 DUP2 PUSH2 0x49CD JUMP JUMPDEST SWAP1 POP SWAP2 SWAP1 POP JUMP JUMPDEST PUSH32 0x4D757374206772616E742061636365737320746F206174206C65617374206F6E PUSH1 0x0 DUP3 ADD MSTORE PUSH32 0x65207265636F7264000000000000000000000000000000000000000000000000 PUSH1 0x20 DUP3 ADD MSTORE POP JUMP JUMPDEST PUSH1 0x0 PUSH2 0x4A6C PUSH1 0x28 DUP4 PUSH2 0x40E3 JUMP JUMPDEST SWAP2 POP PUSH2 0x4A77 DUP3 PUSH2 0x4A10 JUMP JUMPDEST PUSH1 0x40 DUP3 ADD SWAP1 POP SWAP2 SWAP1 POP JUMP JUMPDEST PUSH1 0x0 PUSH1 0x20 DUP3 ADD SWAP1 POP DUP2 DUP2 SUB PUSH1 0x0 DUP4 ADD MSTORE PUSH2 0x4A9B DUP2 PUSH2 0x4A5F JUMP JUMPDEST SWAP1 POP SWAP2 SWAP1 POP JUMP JUMPDEST PUSH32 0x496E76616C6964206475726174696F6E00000000000000000000000000000000 PUSH1 0x0 DUP3 ADD MSTORE POP JUMP JUMPDEST PUSH1 0x0 PUSH2 0x4AD8 PUSH1 0x10 DUP4 PUSH2 0x40E3 JUMP JUMPDEST SWAP2 POP PUSH2 0x4AE3 DUP3 PUSH2 0x4AA2 JUMP JUMPDEST PUSH1 0x20 DUP3 ADD SWAP1 POP SWAP2 SWAP1 POP JUMP JUMPDEST PUSH1 0x0 PUSH1 0x20 DUP3 ADD SWAP1 POP DUP2 DUP2 SUB PUSH1 0x0 DUP4 ADD MSTORE PUSH2 0x4B07 DUP2 PUSH2 0x4ACB JUMP JUMPDEST SWAP1 POP SWAP2 SWAP1 POP JUMP JUMPDEST PUSH32 0x596F7520646F6E2774206F776E20616C6C20737065636966696564207265636F PUSH1 0x0 DUP3 ADD MSTORE PUSH32 0x7264730000000000000000000000000000000000000000000000000000000000 PUSH1 0x20 DUP3 ADD MSTORE POP JUMP JUMPDEST PUSH1 0x0 PUSH2 0x4B6A PUSH1 0x23 DUP4 PUSH2 0x40E3 JUMP JUMPDEST SWAP2 POP PUSH2 0x4B75 DUP3 PUSH2 0x4B0E JUMP JUMPDEST PUSH1 0x40 DUP3 ADD SWAP1 POP SWAP2 SWAP1 POP JUMP JUMPDEST PUSH1 0x0 PUSH1 0x20 DUP3 ADD SWAP1 POP DUP2 DUP2 SUB PUSH1 0x0 DUP4 ADD MSTORE PUSH2 0x4B99 DUP2 PUSH2 0x4B5D JUMP JUMPDEST SWAP1 POP SWAP2 SWAP1 POP JUMP JUMPDEST PUSH1 0x0 PUSH2 0x4BAB DUP3 PUSH2 0x3386 JUMP JUMPDEST SWAP2 POP PUSH2 0x4BB6 DUP4 PUSH2 0x3386 JUMP JUMPDEST SWAP3 POP DUP3 DUP3 MUL PUSH2 0x4BC4 DUP2 PUSH2 0x3386 JUMP JUMPDEST SWAP2 POP DUP3 DUP3 DIV DUP5 EQ DUP4 ISZERO OR PUSH2 0x4BDB JUMPI PUSH2 0x4BDA PUSH2 0x4494 JUMP JUMPDEST JUMPDEST POP SWAP3 SWAP2 POP POP JUMP JUMPDEST PUSH1 0x0 PUSH2 0x4BED DUP3 PUSH2 0x3386 JUMP JUMPDEST SWAP2 POP PUSH2 0x4BF8 DUP4 PUSH2 0x3386 JUMP JUMPDEST SWAP3 POP DUP3 DUP3 ADD SWAP1 POP DUP1 DUP3 GT ISZERO PUSH2 0x4C10 JUMPI PUSH2 0x4C0F PUSH2 0x4494 JUMP JUMPDEST JUMPDEST SWAP3 SWAP2 POP POP JUMP JUMPDEST PUSH1 0x0 PUSH1 0x40 DUP3 ADD SWAP1 POP PUSH2 0x4C2B PUSH1 0x0 DUP4 ADD DUP6 PUSH2 0x3ECA JUMP JUMPDEST PUSH2 0x4C38 PUSH1 0x20 DUP4 ADD DUP5 PUSH2 0x3C8E JUMP JUMPDEST SWAP4 SWAP3 POP POP POP JUMP INVALID LOG2 PUSH5 0x6970667358 0x22 SLT KECCAK256 0x1F 0xC6 SWAP9 JUMPF 0x4337 0xA6 0xB2 0x25 DUP3 0xEB DUP1 0xE2 0xA6 MLOAD EQ JUMPF 0x66F7 0xA8 0xE2 SAR DUP6 MOD 0xD SWAP9 0xAF PUSH32 0xB6BF60CD64736F6C634300081E00330000000000000000000000000000000000 "
				},
				"gasEstimates": {
					"creation": {
						"codeDepositCost": "3914600",
						"executionCost": "infinite",
						"totalCost": "infinite"
					},
					"external": {
						"DEFAULT_ADMIN_ROLE()": "424",
						"PROVIDER_ROLE()": "396",
						"addRecord(string,uint8,string)": "infinite",
						"addRecordByProvider(address,string,uint8,string)": "infinite",
						"authorizeProvider(address)": "infinite",
						"deleteRecord(uint256)": "31561",
						"emergencyContact(address)": "infinite",
						"getAccessGrant(address,address)": "infinite",
						"getAuditLogs(uint256)": "infinite",
						"getPatientRecords(address)": "infinite",
						"getRecord(uint256)": "infinite",
						"getRoleAdmin(bytes32)": "infinite",
						"getTotalRecords()": "2505",
						"grantAccess(address,uint256[],uint256)": "infinite",
						"grantRole(bytes32,address)": "infinite",
						"hasAccess(address,address,uint256)": "infinite",
						"hasRole(bytes32,address)": "3251",
						"isAuthorizedProvider(address)": "3105",
						"logAccess(uint256,uint8)": "infinite",
						"owner()": "2589",
						"renounceOwnership()": "infinite",
						"renounceRole(bytes32,address)": "infinite",
						"revokeAccess(address)": "28879",
						"revokeProviderAuthorization(address)": "infinite",
						"revokeRole(bytes32,address)": "infinite",
						"setEmergencyContact(address)": "24935",
						"supportsInterface(bytes4)": "796",
						"transferOwnership(address)": "infinite",
						"updateRecord(uint256,string,string)": "infinite"
					},
					"internal": {
						"hasGeneralAccess(address,address)": "infinite"
					}
				},
				"methodIdentifiers": {
					"DEFAULT_ADMIN_ROLE()": "a217fddf",
					"PROVIDER_ROLE()": "24c20a34",
					"addRecord(string,uint8,string)": "1b6377b8",
					"addRecordByProvider(address,string,uint8,string)": "0e8dce29",
					"authorizeProvider(address)": "112ea262",
					"deleteRecord(uint256)": "061f9811",
					"emergencyContact(address)": "b4b07a70",
					"getAccessGrant(address,address)": "8b681c7c",
					"getAuditLogs(uint256)": "01b1d324",
					"getPatientRecords(address)": "18bd4847",
					"getRecord(uint256)": "03e9e609",
					"getRoleAdmin(bytes32)": "248a9ca3",
					"getTotalRecords()": "0aeacb5e",
					"grantAccess(address,uint256[],uint256)": "9399e973",
					"grantRole(bytes32,address)": "2f2ff15d",
					"hasAccess(address,address,uint256)": "cf56b4eb",
					"hasRole(bytes32,address)": "91d14854",
					"isAuthorizedProvider(address)": "22770d8e",
					"logAccess(uint256,uint8)": "a02bd29c",
					"owner()": "8da5cb5b",
					"renounceOwnership()": "715018a6",
					"renounceRole(bytes32,address)": "36568abe",
					"revokeAccess(address)": "85e68531",
					"revokeProviderAuthorization(address)": "b9952215",
					"revokeRole(bytes32,address)": "d547741f",
					"setEmergencyContact(address)": "91284a89",
					"supportsInterface(bytes4)": "01ffc9a7",
					"transferOwnership(address)": "f2fde38b",
					"updateRecord(uint256,string,string)": "3812c6a8"
				}
			},
			"storageLayout": {
				"storage": [
					{
						"astId": 388,
						"contract": "contracts/HealthWallet.sol:HealthWallet",
						"label": "_owner",
						"offset": 0,
						"slot": "0",
						"type": "t_address"
					},
					{
						"astId": 27,
						"contract": "contracts/HealthWallet.sol:HealthWallet",
						"label": "_roles",
						"offset": 0,
						"slot": "1",
						"type": "t_mapping(t_bytes32,t_struct(RoleData)22_storage)"
					},
					{
						"astId": 665,
						"contract": "contracts/HealthWallet.sol:HealthWallet",
						"label": "patientRecords",
						"offset": 0,
						"slot": "2",
						"type": "t_mapping(t_address,t_array(t_uint256)dyn_storage)"
					},
					{
						"astId": 670,
						"contract": "contracts/HealthWallet.sol:HealthWallet",
						"label": "records",
						"offset": 0,
						"slot": "3",
						"type": "t_mapping(t_uint256,t_struct(HealthRecord)634_storage)"
					},
					{
						"astId": 677,
						"contract": "contracts/HealthWallet.sol:HealthWallet",
						"label": "accessGrants",
						"offset": 0,
						"slot": "4",
						"type": "t_mapping(t_address,t_mapping(t_address,t_struct(AccessGrant)646_storage))"
					},
					{
						"astId": 683,
						"contract": "contracts/HealthWallet.sol:HealthWallet",
						"label": "auditLogs",
						"offset": 0,
						"slot": "5",
						"type": "t_mapping(t_uint256,t_array(t_struct(AccessLog)660_storage)dyn_storage)"
					},
					{
						"astId": 687,
						"contract": "contracts/HealthWallet.sol:HealthWallet",
						"label": "emergencyContact",
						"offset": 0,
						"slot": "6",
						"type": "t_mapping(t_address,t_address)"
					},
					{
						"astId": 689,
						"contract": "contracts/HealthWallet.sol:HealthWallet",
						"label": "recordCounter",
						"offset": 0,
						"slot": "7",
						"type": "t_uint256"
					}
				],
				"types": {
					"t_address": {
						"encoding": "inplace",
						"label": "address",
						"numberOfBytes": "20"
					},
					"t_array(t_struct(AccessLog)660_storage)dyn_storage": {
						"base": "t_struct(AccessLog)660_storage",
						"encoding": "dynamic_array",
						"label": "struct HealthWallet.AccessLog[]",
						"numberOfBytes": "32"
					},
					"t_array(t_uint256)dyn_storage": {
						"base": "t_uint256",
						"encoding": "dynamic_array",
						"label": "uint256[]",
						"numberOfBytes": "32"
					},
					"t_bool": {
						"encoding": "inplace",
						"label": "bool",
						"numberOfBytes": "1"
					},
					"t_bytes32": {
						"encoding": "inplace",
						"label": "bytes32",
						"numberOfBytes": "32"
					},
					"t_enum(AuditAction)652": {
						"encoding": "inplace",
						"label": "enum HealthWallet.AuditAction",
						"numberOfBytes": "1"
					},
					"t_enum(RecordType)614": {
						"encoding": "inplace",
						"label": "enum HealthWallet.RecordType",
						"numberOfBytes": "1"
					},
					"t_mapping(t_address,t_address)": {
						"encoding": "mapping",
						"key": "t_address",
						"label": "mapping(address => address)",
						"numberOfBytes": "32",
						"value": "t_address"
					},
					"t_mapping(t_address,t_array(t_uint256)dyn_storage)": {
						"encoding": "mapping",
						"key": "t_address",
						"label": "mapping(address => uint256[])",
						"numberOfBytes": "32",
						"value": "t_array(t_uint256)dyn_storage"
					},
					"t_mapping(t_address,t_bool)": {
						"encoding": "mapping",
						"key": "t_address",
						"label": "mapping(address => bool)",
						"numberOfBytes": "32",
						"value": "t_bool"
					},
					"t_mapping(t_address,t_mapping(t_address,t_struct(AccessGrant)646_storage))": {
						"encoding": "mapping",
						"key": "t_address",
						"label": "mapping(address => mapping(address => struct HealthWallet.AccessGrant))",
						"numberOfBytes": "32",
						"value": "t_mapping(t_address,t_struct(AccessGrant)646_storage)"
					},
					"t_mapping(t_address,t_struct(AccessGrant)646_storage)": {
						"encoding": "mapping",
						"key": "t_address",
						"label": "mapping(address => struct HealthWallet.AccessGrant)",
						"numberOfBytes": "32",
						"value": "t_struct(AccessGrant)646_storage"
					},
					"t_mapping(t_bytes32,t_struct(RoleData)22_storage)": {
						"encoding": "mapping",
						"key": "t_bytes32",
						"label": "mapping(bytes32 => struct AccessControl.RoleData)",
						"numberOfBytes": "32",
						"value": "t_struct(RoleData)22_storage"
					},
					"t_mapping(t_uint256,t_array(t_struct(AccessLog)660_storage)dyn_storage)": {
						"encoding": "mapping",
						"key": "t_uint256",
						"label": "mapping(uint256 => struct HealthWallet.AccessLog[])",
						"numberOfBytes": "32",
						"value": "t_array(t_struct(AccessLog)660_storage)dyn_storage"
					},
					"t_mapping(t_uint256,t_struct(HealthRecord)634_storage)": {
						"encoding": "mapping",
						"key": "t_uint256",
						"label": "mapping(uint256 => struct HealthWallet.HealthRecord)",
						"numberOfBytes": "32",
						"value": "t_struct(HealthRecord)634_storage"
					},
					"t_string_storage": {
						"encoding": "bytes",
						"label": "string",
						"numberOfBytes": "32"
					},
					"t_struct(AccessGrant)646_storage": {
						"encoding": "inplace",
						"label": "struct HealthWallet.AccessGrant",
						"members": [
							{
								"astId": 636,
								"contract": "contracts/HealthWallet.sol:HealthWallet",
								"label": "grantedTo",
								"offset": 0,
								"slot": "0",
								"type": "t_address"
							},
							{
								"astId": 639,
								"contract": "contracts/HealthWallet.sol:HealthWallet",
								"label": "recordIds",
								"offset": 0,
								"slot": "1",
								"type": "t_array(t_uint256)dyn_storage"
							},
							{
								"astId": 641,
								"contract": "contracts/HealthWallet.sol:HealthWallet",
								"label": "expiryTime",
								"offset": 0,
								"slot": "2",
								"type": "t_uint256"
							},
							{
								"astId": 643,
								"contract": "contracts/HealthWallet.sol:HealthWallet",
								"label": "isActive",
								"offset": 0,
								"slot": "3",
								"type": "t_bool"
							},
							{
								"astId": 645,
								"contract": "contracts/HealthWallet.sol:HealthWallet",
								"label": "grantedAt",
								"offset": 0,
								"slot": "4",
								"type": "t_uint256"
							}
						],
						"numberOfBytes": "160"
					},
					"t_struct(AccessLog)660_storage": {
						"encoding": "inplace",
						"label": "struct HealthWallet.AccessLog",
						"members": [
							{
								"astId": 654,
								"contract": "contracts/HealthWallet.sol:HealthWallet",
								"label": "accessor",
								"offset": 0,
								"slot": "0",
								"type": "t_address"
							},
							{
								"astId": 656,
								"contract": "contracts/HealthWallet.sol:HealthWallet",
								"label": "timestamp",
								"offset": 0,
								"slot": "1",
								"type": "t_uint256"
							},
							{
								"astId": 659,
								"contract": "contracts/HealthWallet.sol:HealthWallet",
								"label": "action",
								"offset": 0,
								"slot": "2",
								"type": "t_enum(AuditAction)652"
							}
						],
						"numberOfBytes": "96"
					},
					"t_struct(HealthRecord)634_storage": {
						"encoding": "inplace",
						"label": "struct HealthWallet.HealthRecord",
						"members": [
							{
								"astId": 616,
								"contract": "contracts/HealthWallet.sol:HealthWallet",
								"label": "recordId",
								"offset": 0,
								"slot": "0",
								"type": "t_uint256"
							},
							{
								"astId": 618,
								"contract": "contracts/HealthWallet.sol:HealthWallet",
								"label": "patientAddress",
								"offset": 0,
								"slot": "1",
								"type": "t_address"
							},
							{
								"astId": 620,
								"contract": "contracts/HealthWallet.sol:HealthWallet",
								"label": "ipfsHash",
								"offset": 0,
								"slot": "2",
								"type": "t_string_storage"
							},
							{
								"astId": 623,
								"contract": "contracts/HealthWallet.sol:HealthWallet",
								"label": "recordType",
								"offset": 0,
								"slot": "3",
								"type": "t_enum(RecordType)614"
							},
							{
								"astId": 625,
								"contract": "contracts/HealthWallet.sol:HealthWallet",
								"label": "timestamp",
								"offset": 0,
								"slot": "4",
								"type": "t_uint256"
							},
							{
								"astId": 627,
								"contract": "contracts/HealthWallet.sol:HealthWallet",
								"label": "issuedBy",
								"offset": 0,
								"slot": "5",
								"type": "t_address"
							},
							{
								"astId": 629,
								"contract": "contracts/HealthWallet.sol:HealthWallet",
								"label": "isActive",
								"offset": 20,
								"slot": "5",
								"type": "t_bool"
							},
							{
								"astId": 631,
								"contract": "contracts/HealthWallet.sol:HealthWallet",
								"label": "encryptedKey",
								"offset": 0,
								"slot": "6",
								"type": "t_string_storage"
							},
							{
								"astId": 633,
								"contract": "contracts/HealthWallet.sol:HealthWallet",
								"label": "version",
								"offset": 0,
								"slot": "7",
								"type": "t_uint256"
							}
						],
						"numberOfBytes": "256"
					},
					"t_struct(RoleData)22_storage": {
						"encoding": "inplace",
						"label": "struct AccessControl.RoleData",
						"members": [
							{
								"astId": 19,
								"contract": "contracts/HealthWallet.sol:HealthWallet",
								"label": "hasRole",
								"offset": 0,
								"slot": "0",
								"type": "t_mapping(t_address,t_bool)"
							},
							{
								"astId": 21,
								"contract": "contracts/HealthWallet.sol:HealthWallet",
								"label": "adminRole",
								"offset": 0,
								"slot": "1",
								"type": "t_bytes32"
							}
						],
						"numberOfBytes": "64"
					},
					"t_uint256": {
						"encoding": "inplace",
						"label": "uint256",
						"numberOfBytes": "32"
					}
				}
			},
			"userdoc": {
				"kind": "user",
				"methods": {},
				"version": 1
			}
		}
	}
}