{
	"contracts/HealthWallet.sol": {
		"HealthWallet": {
			"abi": [
				{
					"anonymous": false,
					"inputs": [
						{
							"indexed": true,
							"internalType": "address",
							"name": "patient",
							"type": "address"
						},
						{
							"indexed": true,
							"internalType": "address",
							"name": "grantedTo",
							"type": "address"
						},
						{
							"indexed": false,
							"internalType": "uint256",
							"name": "expiryTime",
							"type": "uint256"
						}
					],
					"name": "AccessGranted",
					"type": "event"
				},
				{
					"anonymous": false,
					"inputs": [
						{
							"indexed": true,
							"internalType": "address",
							"name": "patient",
							"type": "address"
						},
						{
							"indexed": true,
							"internalType": "address",
							"name": "revokedFrom",
							"type": "address"
						}
					],
					"name": "AccessRevoked",
					"type": "event"
				},
				{
					"anonymous": false,
					"inputs": [
						{
							"indexed": true,
							"internalType": "address",
							"name": "patient",
							"type": "address"
						},
						{
							"indexed": true,
							"internalType": "address",
							"name": "emergencyContact",
							"type": "address"
						},
						{
							"indexed": false,
							"internalType": "uint256",
							"name": "timestamp",
							"type": "uint256"
						}
					],
					"name": "EmergencyAccessUsed",
					"type": "event"
				},
				{
					"anonymous": false,
					"inputs": [
						{
							"indexed": true,
							"internalType": "uint256",
							"name": "recordId",
							"type": "uint256"
						},
						{
							"indexed": true,
							"internalType": "address",
							"name": "accessor",
							"type": "address"
						},
						{
							"indexed": false,
							"internalType": "uint256",
							"name": "timestamp",
							"type": "uint256"
						}
					],
					"name": "RecordAccessed",
					"type": "event"
				},
				{
					"anonymous": false,
					"inputs": [
						{
							"indexed": true,
							"internalType": "uint256",
							"name": "recordId",
							"type": "uint256"
						},
						{
							"indexed": true,
							"internalType": "address",
							"name": "patient",
							"type": "address"
						},
						{
							"indexed": false,
							"internalType": "string",
							"name": "ipfsHash",
							"type": "string"
						},
						{
							"indexed": false,
							"internalType": "enum HealthWallet.RecordType",
							"name": "recordType",
							"type": "uint8"
						}
					],
					"name": "RecordAdded",
					"type": "event"
				},
				{
					"anonymous": false,
					"inputs": [
						{
							"indexed": true,
							"internalType": "uint256",
							"name": "recordId",
							"type": "uint256"
						},
						{
							"indexed": false,
							"internalType": "string",
							"name": "newIpfsHash",
							"type": "string"
						},
						{
							"indexed": false,
							"internalType": "uint256",
							"name": "version",
							"type": "uint256"
						}
					],
					"name": "RecordUpdated",
					"type": "event"
				},
				{
					"inputs": [
						{
							"internalType": "string",
							"name": "_ipfsHash",
							"type": "string"
						},
						{
							"internalType": "enum HealthWallet.RecordType",
							"name": "_recordType",
							"type": "uint8"
						},
						{
							"internalType": "string",
							"name": "_encryptedKey",
							"type": "string"
						}
					],
					"name": "addRecord",
					"outputs": [
						{
							"internalType": "uint256",
							"name": "",
							"type": "uint256"
						}
					],
					"stateMutability": "nonpayable",
					"type": "function"
				},
				{
					"inputs": [
						{
							"internalType": "address",
							"name": "_patientAddress",
							"type": "address"
						},
						{
							"internalType": "string",
							"name": "_ipfsHash",
							"type": "string"
						},
						{
							"internalType": "enum HealthWallet.RecordType",
							"name": "_recordType",
							"type": "uint8"
						},
						{
							"internalType": "string",
							"name": "_encryptedKey",
							"type": "string"
						}
					],
					"name": "addRecordByProvider",
					"outputs": [
						{
							"internalType": "uint256",
							"name": "",
							"type": "uint256"
						}
					],
					"stateMutability": "nonpayable",
					"type": "function"
				},
				{
					"inputs": [
						{
							"internalType": "uint256",
							"name": "_recordId",
							"type": "uint256"
						}
					],
					"name": "deleteRecord",
					"outputs": [],
					"stateMutability": "nonpayable",
					"type": "function"
				},
				{
					"inputs": [
						{
							"internalType": "address",
							"name": "",
							"type": "address"
						}
					],
					"name": "emergencyContact",
					"outputs": [
						{
							"internalType": "address",
							"name": "",
							"type": "address"
						}
					],
					"stateMutability": "view",
					"type": "function"
				},
				{
					"inputs": [
						{
							"internalType": "address",
							"name": "_patient",
							"type": "address"
						},
						{
							"internalType": "address",
							"name": "_grantee",
							"type": "address"
						}
					],
					"name": "getAccessGrant",
					"outputs": [
						{
							"components": [
								{
									"internalType": "address",
									"name": "grantedTo",
									"type": "address"
								},
								{
									"internalType": "uint256[]",
									"name": "recordIds",
									"type": "uint256[]"
								},
								{
									"internalType": "uint256",
									"name": "expiryTime",
									"type": "uint256"
								},
								{
									"internalType": "bool",
									"name": "isActive",
									"type": "bool"
								},
								{
									"internalType": "uint256",
									"name": "grantedAt",
									"type": "uint256"
								}
							],
							"internalType": "struct HealthWallet.AccessGrant",
							"name": "",
							"type": "tuple"
						}
					],
					"stateMutability": "view",
					"type": "function"
				},
				{
					"inputs": [
						{
							"internalType": "uint256",
							"name": "_recordId",
							"type": "uint256"
						}
					],
					"name": "getAuditLogs",
					"outputs": [
						{
							"components": [
								{
									"internalType": "address",
									"name": "accessor",
									"type": "address"
								},
								{
									"internalType": "uint256",
									"name": "timestamp",
									"type": "uint256"
								},
								{
									"internalType": "string",
									"name": "action",
									"type": "string"
								}
							],
							"internalType": "struct HealthWallet.AccessLog[]",
							"name": "",
							"type": "tuple[]"
						}
					],
					"stateMutability": "view",
					"type": "function"
				},
				{
					"inputs": [
						{
							"internalType": "address",
							"name": "_patient",
							"type": "address"
						}
					],
					"name": "getPatientRecords",
					"outputs": [
						{
							"internalType": "uint256[]",
							"name": "",
							"type": "uint256[]"
						}
					],
					"stateMutability": "view",
					"type": "function"
				},
				{
					"inputs": [
						{
							"internalType": "uint256",
							"name": "_recordId",
							"type": "uint256"
						}
					],
					"name": "getRecord",
					"outputs": [
						{
							"components": [
								{
									"internalType": "uint256",
									"name": "recordId",
									"type": "uint256"
								},
								{
									"internalType": "address",
									"name": "patientAddress",
									"type": "address"
								},
								{
									"internalType": "string",
									"name": "ipfsHash",
									"type": "string"
								},
								{
									"internalType": "enum HealthWallet.RecordType",
									"name": "recordType",
									"type": "uint8"
								},
								{
									"internalType": "uint256",
									"name": "timestamp",
									"type": "uint256"
								},
								{
									"internalType": "address",
									"name": "issuedBy",
									"type": "address"
								},
								{
									"internalType": "bool",
									"name": "isActive",
									"type": "bool"
								},
								{
									"internalType": "string",
									"name": "encryptedKey",
									"type": "string"
								},
								{
									"internalType": "uint256",
									"name": "version",
									"type": "uint256"
								}
							],
							"internalType": "struct HealthWallet.HealthRecord",
							"name": "",
							"type": "tuple"
						}
					],
					"stateMutability": "view",
					"type": "function"
				},
				{
					"inputs": [],
					"name": "getTotalRecords",
					"outputs": [
						{
							"internalType": "uint256",
							"name": "",
							"type": "uint256"
						}
					],
					"stateMutability": "view",
					"type": "function"
				},
				{
					"inputs": [
						{
							"internalType": "address",
							"name": "_grantee",
							"type": "address"
						},
						{
							"internalType": "uint256[]",
							"name": "_recordIds",
							"type": "uint256[]"
						},
						{
							"internalType": "uint256",
							"name": "_durationInDays",
							"type": "uint256"
						}
					],
					"name": "grantAccess",
					"outputs": [],
					"stateMutability": "nonpayable",
					"type": "function"
				},
				{
					"inputs": [
						{
							"internalType": "address",
							"name": "_patient",
							"type": "address"
						},
						{
							"internalType": "address",
							"name": "_requester",
							"type": "address"
						},
						{
							"internalType": "uint256",
							"name": "_recordId",
							"type": "uint256"
						}
					],
					"name": "hasAccess",
					"outputs": [
						{
							"internalType": "bool",
							"name": "",
							"type": "bool"
						}
					],
					"stateMutability": "view",
					"type": "function"
				},
				{
					"inputs": [
						{
							"internalType": "uint256",
							"name": "_recordId",
							"type": "uint256"
						},
						{
							"internalType": "string",
							"name": "_action",
							"type": "string"
						}
					],
					"name": "logAccess",
					"outputs": [],
					"stateMutability": "nonpayable",
					"type": "function"
				},
				{
					"inputs": [
						{
							"internalType": "address",
							"name": "_grantee",
							"type": "address"
						}
					],
					"name": "revokeAccess",
					"outputs": [],
					"stateMutability": "nonpayable",
					"type": "function"
				},
				{
					"inputs": [
						{
							"internalType": "address",
							"name": "_emergencyContact",
							"type": "address"
						}
					],
					"name": "setEmergencyContact",
					"outputs": [],
					"stateMutability": "nonpayable",
					"type": "function"
				},
				{
					"inputs": [
						{
							"internalType": "uint256",
							"name": "_recordId",
							"type": "uint256"
						},
						{
							"internalType": "string",
							"name": "_newIpfsHash",
							"type": "string"
						},
						{
							"internalType": "string",
							"name": "_newEncryptedKey",
							"type": "string"
						}
					],
					"name": "updateRecord",
					"outputs": [],
					"stateMutability": "nonpayable",
					"type": "function"
				}
			],
			"devdoc": {
				"details": "A decentralized health records management system Stores metadata and IPFS pointers on-chain, actual health data on IPFS",
				"kind": "dev",
				"methods": {
					"addRecord(string,uint8,string)": {
						"details": "Add a new health record",
						"params": {
							"_encryptedKey": "Encrypted symmetric key for decryption",
							"_ipfsHash": "IPFS hash where encrypted health data is stored",
							"_recordType": "Type of health record"
						},
						"returns": {
							"_0": "recordId The ID of the newly created record"
						}
					},
					"addRecordByProvider(address,string,uint8,string)": {
						"details": "Add a record issued by a healthcare provider",
						"params": {
							"_encryptedKey": "Encrypted key for the patient",
							"_ipfsHash": "IPFS hash of the encrypted data",
							"_patientAddress": "Address of the patient",
							"_recordType": "Type of record"
						}
					},
					"deleteRecord(uint256)": {
						"details": "Soft delete a record",
						"params": {
							"_recordId": "ID of the record to delete"
						}
					},
					"getAccessGrant(address,address)": {
						"details": "Get access grant details",
						"params": {
							"_grantee": "Grantee address",
							"_patient": "Patient address"
						},
						"returns": {
							"_0": "AccessGrant struct"
						}
					},
					"getAuditLogs(uint256)": {
						"details": "Get audit logs for a record",
						"params": {
							"_recordId": "Record ID"
						},
						"returns": {
							"_0": "Array of AccessLog entries"
						}
					},
					"getPatientRecords(address)": {
						"details": "Get all record IDs for a patient",
						"params": {
							"_patient": "Patient's address"
						},
						"returns": {
							"_0": "Array of record IDs"
						}
					},
					"getRecord(uint256)": {
						"details": "Get details of a specific record",
						"params": {
							"_recordId": "Record ID"
						},
						"returns": {
							"_0": "HealthRecord struct"
						}
					},
					"getTotalRecords()": {
						"details": "Get total number of records in the system",
						"returns": {
							"_0": "Total record count"
						}
					},
					"grantAccess(address,uint256[],uint256)": {
						"details": "Grant access to specific records for a healthcare provider",
						"params": {
							"_durationInDays": "How many days the access should last",
							"_grantee": "Address to grant access to",
							"_recordIds": "Array of record IDs to grant access to"
						}
					},
					"hasAccess(address,address,uint256)": {
						"details": "Check if an address has access to a specific record",
						"params": {
							"_patient": "Patient's address",
							"_recordId": "Record ID to check access for",
							"_requester": "Address requesting access"
						},
						"returns": {
							"_0": "bool True if access is granted"
						}
					},
					"logAccess(uint256,string)": {
						"details": "Log access to a record (for audit trail)",
						"params": {
							"_action": "Action being performed",
							"_recordId": "Record being accessed"
						}
					},
					"revokeAccess(address)": {
						"details": "Revoke access from a healthcare provider",
						"params": {
							"_grantee": "Address to revoke access from"
						}
					},
					"setEmergencyContact(address)": {
						"details": "Set emergency contact who can access all records",
						"params": {
							"_emergencyContact": "Address of emergency contact"
						}
					},
					"updateRecord(uint256,string,string)": {
						"details": "Update an existing record (creates a new version)",
						"params": {
							"_newEncryptedKey": "New encrypted key",
							"_newIpfsHash": "New IPFS hash",
							"_recordId": "ID of the record to update"
						}
					}
				},
				"title": "HealthWallet",
				"version": 1
			},
			"evm": {
				"assembly": "    /* \"contracts/HealthWallet.sol\":227:13572  contract HealthWallet {... */\n  mstore(0x40, 0x80)\n  callvalue\n  dup1\n  iszero\n  tag_1\n  jumpi\n  revert(0x00, 0x00)\ntag_1:\n  pop\n  dataSize(sub_0)\n  dup1\n  dataOffset(sub_0)\n  0x00\n  codecopy\n  0x00\n  return\nstop\n\nsub_0: assembly {\n        /* \"contracts/HealthWallet.sol\":227:13572  contract HealthWallet {... */\n      mstore(0x40, 0x80)\n      callvalue\n      dup1\n      iszero\n      tag_1\n      jumpi\n      revert(0x00, 0x00)\n    tag_1:\n      pop\n      jumpi(tag_2, lt(calldatasize, 0x04))\n      shr(0xe0, calldataload(0x00))\n      dup1\n      0x3812c6a8\n      gt\n      tag_18\n      jumpi\n      dup1\n      0x91284a89\n      gt\n      tag_19\n      jumpi\n      dup1\n      0x91284a89\n      eq\n      tag_14\n      jumpi\n      dup1\n      0x9399e973\n      eq\n      tag_15\n      jumpi\n      dup1\n      0xb4b07a70\n      eq\n      tag_16\n      jumpi\n      dup1\n      0xcf56b4eb\n      eq\n      tag_17\n      jumpi\n      jump(tag_2)\n    tag_19:\n      dup1\n      0x3812c6a8\n      eq\n      tag_10\n      jumpi\n      dup1\n      0x67502cdf\n      eq\n      tag_11\n      jumpi\n      dup1\n      0x85e68531\n      eq\n      tag_12\n      jumpi\n      dup1\n      0x8b681c7c\n      eq\n      tag_13\n      jumpi\n      jump(tag_2)\n    tag_18:\n      dup1\n      0x0aeacb5e\n      gt\n      tag_20\n      jumpi\n      dup1\n      0x0aeacb5e\n      eq\n      tag_6\n      jumpi\n      dup1\n      0x0e8dce29\n      eq\n      tag_7\n      jumpi\n      dup1\n      0x18bd4847\n      eq\n      tag_8\n      jumpi\n      dup1\n      0x1b6377b8\n      eq\n      tag_9\n      jumpi\n      jump(tag_2)\n    tag_20:\n      dup1\n      0x01b1d324\n      eq\n      tag_3\n      jumpi\n      dup1\n      0x03e9e609\n      eq\n      tag_4\n      jumpi\n      dup1\n      0x061f9811\n      eq\n      tag_5\n      jumpi\n    tag_2:\n      revert(0x00, 0x00)\n        /* \"contracts/HealthWallet.sol\":11717:11912  function getAuditLogs(uint256 _recordId) ... */\n    tag_3:\n      tag_21\n      0x04\n      dup1\n      calldatasize\n      sub\n      dup2\n      add\n      swap1\n      tag_22\n      swap2\n      swap1\n      tag_23\n      jump\t// in\n    tag_22:\n      tag_24\n      jump\t// in\n    tag_21:\n      mload(0x40)\n      tag_25\n      swap2\n      swap1\n      tag_26\n      jump\t// in\n    tag_25:\n      mload(0x40)\n      dup1\n      swap2\n      sub\n      swap1\n      return\n        /* \"contracts/HealthWallet.sol\":10758:10985  function getRecord(uint256 _recordId) ... */\n    tag_4:\n      tag_27\n      0x04\n      dup1\n      calldatasize\n      sub\n      dup2\n      add\n      swap1\n      tag_28\n      swap2\n      swap1\n      tag_23\n      jump\t// in\n    tag_28:\n      tag_29\n      jump\t// in\n    tag_27:\n      mload(0x40)\n      tag_30\n      swap2\n      swap1\n      tag_31\n      jump\t// in\n    tag_30:\n      mload(0x40)\n      dup1\n      swap2\n      sub\n      swap1\n      return\n        /* \"contracts/HealthWallet.sol\":7200:7385  function deleteRecord(uint256 _recordId) ... */\n    tag_5:\n      tag_32\n      0x04\n      dup1\n      calldatasize\n      sub\n      dup2\n      add\n      swap1\n      tag_33\n      swap2\n      swap1\n      tag_23\n      jump\t// in\n    tag_33:\n      tag_34\n      jump\t// in\n    tag_32:\n      stop\n        /* \"contracts/HealthWallet.sol\":13473:13569  function getTotalRecords() public view returns (uint256) {... */\n    tag_6:\n      tag_35\n      tag_36\n      jump\t// in\n    tag_35:\n      mload(0x40)\n      tag_37\n      swap2\n      swap1\n      tag_38\n      jump\t// in\n    tag_37:\n      mload(0x40)\n      dup1\n      swap2\n      sub\n      swap1\n      return\n        /* \"contracts/HealthWallet.sol\":5403:6394  function addRecordByProvider(... */\n    tag_7:\n      tag_39\n      0x04\n      dup1\n      calldatasize\n      sub\n      dup2\n      add\n      swap1\n      tag_40\n      swap2\n      swap1\n      tag_41\n      jump\t// in\n    tag_40:\n      tag_42\n      jump\t// in\n    tag_39:\n      mload(0x40)\n      tag_43\n      swap2\n      swap1\n      tag_38\n      jump\t// in\n    tag_43:\n      mload(0x40)\n      dup1\n      swap2\n      sub\n      swap1\n      return\n        /* \"contracts/HealthWallet.sol\":10302:10611  function getPatientRecords(address _patient) ... */\n    tag_8:\n      tag_44\n      0x04\n      dup1\n      calldatasize\n      sub\n      dup2\n      add\n      swap1\n      tag_45\n      swap2\n      swap1\n      tag_46\n      jump\t// in\n    tag_45:\n      tag_47\n      jump\t// in\n    tag_44:\n      mload(0x40)\n      tag_48\n      swap2\n      swap1\n      tag_49\n      jump\t// in\n    tag_48:\n      mload(0x40)\n      dup1\n      swap2\n      sub\n      swap1\n      return\n        /* \"contracts/HealthWallet.sol\":4247:5103  function addRecord(... */\n    tag_9:\n      tag_50\n      0x04\n      dup1\n      calldatasize\n      sub\n      dup2\n      add\n      swap1\n      tag_51\n      swap2\n      swap1\n      tag_52\n      jump\t// in\n    tag_51:\n      tag_53\n      jump\t// in\n    tag_50:\n      mload(0x40)\n      tag_54\n      swap2\n      swap1\n      tag_38\n      jump\t// in\n    tag_54:\n      mload(0x40)\n      dup1\n      swap2\n      sub\n      swap1\n      return\n        /* \"contracts/HealthWallet.sol\":6631:7084  function updateRecord(... */\n    tag_10:\n      tag_55\n      0x04\n      dup1\n      calldatasize\n      sub\n      dup2\n      add\n      swap1\n      tag_56\n      swap2\n      swap1\n      tag_57\n      jump\t// in\n    tag_56:\n      tag_58\n      jump\t// in\n    tag_55:\n      stop\n        /* \"contracts/HealthWallet.sol\":11162:11568  function logAccess(uint256 _recordId, string memory _action) ... */\n    tag_11:\n      tag_59\n      0x04\n      dup1\n      calldatasize\n      sub\n      dup2\n      add\n      swap1\n      tag_60\n      swap2\n      swap1\n      tag_61\n      jump\t// in\n    tag_60:\n      tag_62\n      jump\t// in\n    tag_59:\n      stop\n        /* \"contracts/HealthWallet.sol\":8799:9056  function revokeAccess(address _grantee) public {... */\n    tag_12:\n      tag_63\n      0x04\n      dup1\n      calldatasize\n      sub\n      dup2\n      add\n      swap1\n      tag_64\n      swap2\n      swap1\n      tag_46\n      jump\t// in\n    tag_64:\n      tag_65\n      jump\t// in\n    tag_63:\n      stop\n        /* \"contracts/HealthWallet.sol\":13035:13353  function getAccessGrant(address _patient, address _grantee) ... */\n    tag_13:\n      tag_66\n      0x04\n      dup1\n      calldatasize\n      sub\n      dup2\n      add\n      swap1\n      tag_67\n      swap2\n      swap1\n      tag_68\n      jump\t// in\n    tag_67:\n      tag_69\n      jump\t// in\n    tag_66:\n      mload(0x40)\n      tag_70\n      swap2\n      swap1\n      tag_71\n      jump\t// in\n    tag_70:\n      mload(0x40)\n      dup1\n      swap2\n      sub\n      swap1\n      return\n        /* \"contracts/HealthWallet.sol\":12066:12266  function setEmergencyContact(address _emergencyContact) public {... */\n    tag_14:\n      tag_72\n      0x04\n      dup1\n      calldatasize\n      sub\n      dup2\n      add\n      swap1\n      tag_73\n      swap2\n      swap1\n      tag_46\n      jump\t// in\n    tag_73:\n      tag_74\n      jump\t// in\n    tag_72:\n      stop\n        /* \"contracts/HealthWallet.sol\":7671:8661  function grantAccess(... */\n    tag_15:\n      tag_75\n      0x04\n      dup1\n      calldatasize\n      sub\n      dup2\n      add\n      swap1\n      tag_76\n      swap2\n      swap1\n      tag_77\n      jump\t// in\n    tag_76:\n      tag_78\n      jump\t// in\n    tag_75:\n      stop\n        /* \"contracts/HealthWallet.sol\":2182:2233  mapping(address => address) public emergencyContact */\n    tag_16:\n      tag_79\n      0x04\n      dup1\n      calldatasize\n      sub\n      dup2\n      add\n      swap1\n      tag_80\n      swap2\n      swap1\n      tag_46\n      jump\t// in\n    tag_80:\n      tag_81\n      jump\t// in\n    tag_79:\n      mload(0x40)\n      tag_82\n      swap2\n      swap1\n      tag_83\n      jump\t// in\n    tag_82:\n      mload(0x40)\n      dup1\n      swap2\n      sub\n      swap1\n      return\n        /* \"contracts/HealthWallet.sol\":9347:10148  function hasAccess(... */\n    tag_17:\n      tag_84\n      0x04\n      dup1\n      calldatasize\n      sub\n      dup2\n      add\n      swap1\n      tag_85\n      swap2\n      swap1\n      tag_86\n      jump\t// in\n    tag_85:\n      tag_87\n      jump\t// in\n    tag_84:\n      mload(0x40)\n      tag_88\n      swap2\n      swap1\n      tag_89\n      jump\t// in\n    tag_88:\n      mload(0x40)\n      dup1\n      swap2\n      sub\n      swap1\n      return\n        /* \"contracts/HealthWallet.sol\":11717:11912  function getAuditLogs(uint256 _recordId) ... */\n    tag_24:\n        /* \"contracts/HealthWallet.sol\":11840:11858  AccessLog[] memory */\n      0x60\n        /* \"contracts/HealthWallet.sol\":11811:11820  _recordId */\n      dup2\n        /* \"contracts/HealthWallet.sol\":3365:3375  msg.sender */\n      caller\n        /* \"contracts/HealthWallet.sol\":3328:3375  records[_recordId].patientAddress == msg.sender */\n      0xffffffffffffffffffffffffffffffffffffffff\n      and\n        /* \"contracts/HealthWallet.sol\":3328:3335  records */\n      0x01\n        /* \"contracts/HealthWallet.sol\":3328:3346  records[_recordId] */\n      0x00\n        /* \"contracts/HealthWallet.sol\":3336:3345  _recordId */\n      dup4\n        /* \"contracts/HealthWallet.sol\":3328:3346  records[_recordId] */\n      dup2\n      mstore\n      0x20\n      add\n      swap1\n      dup2\n      mstore\n      0x20\n      add\n      0x00\n      keccak256\n        /* \"contracts/HealthWallet.sol\":3328:3361  records[_recordId].patientAddress */\n      0x01\n      add\n      0x00\n      swap1\n      sload\n      swap1\n      0x0100\n      exp\n      swap1\n      div\n      0xffffffffffffffffffffffffffffffffffffffff\n      and\n        /* \"contracts/HealthWallet.sol\":3328:3375  records[_recordId].patientAddress == msg.sender */\n      0xffffffffffffffffffffffffffffffffffffffff\n      and\n      eq\n        /* \"contracts/HealthWallet.sol\":3306:3439  require(... */\n      tag_91\n      jumpi\n      mload(0x40)\n      0x08c379a000000000000000000000000000000000000000000000000000000000\n      dup2\n      mstore\n      0x04\n      add\n      tag_92\n      swap1\n      tag_93\n      jump\t// in\n    tag_92:\n      mload(0x40)\n      dup1\n      swap2\n      sub\n      swap1\n      revert\n    tag_91:\n        /* \"contracts/HealthWallet.sol\":11884:11893  auditLogs */\n      0x03\n        /* \"contracts/HealthWallet.sol\":11884:11904  auditLogs[_recordId] */\n      0x00\n        /* \"contracts/HealthWallet.sol\":11894:11903  _recordId */\n      dup5\n        /* \"contracts/HealthWallet.sol\":11884:11904  auditLogs[_recordId] */\n      dup2\n      mstore\n      0x20\n      add\n      swap1\n      dup2\n      mstore\n      0x20\n      add\n      0x00\n      keccak256\n        /* \"contracts/HealthWallet.sol\":11877:11904  return auditLogs[_recordId] */\n      dup1\n      sload\n      dup1\n      0x20\n      mul\n      0x20\n      add\n      mload(0x40)\n      swap1\n      dup2\n      add\n      0x40\n      mstore\n      dup1\n      swap3\n      swap2\n      swap1\n      dup2\n      dup2\n      mstore\n      0x20\n      add\n      0x00\n      swap1\n    tag_95:\n      dup3\n      dup3\n      lt\n      iszero\n      tag_96\n      jumpi\n      dup4\n      dup3\n      swap1\n      0x00\n      mstore\n      keccak256(0x00, 0x20)\n      swap1\n      0x03\n      mul\n      add\n      mload(0x40)\n      dup1\n      0x60\n      add\n      0x40\n      mstore\n      swap1\n      dup2\n      0x00\n      dup3\n      add\n      0x00\n      swap1\n      sload\n      swap1\n      0x0100\n      exp\n      swap1\n      div\n      0xffffffffffffffffffffffffffffffffffffffff\n      and\n      0xffffffffffffffffffffffffffffffffffffffff\n      and\n      0xffffffffffffffffffffffffffffffffffffffff\n      and\n      dup2\n      mstore\n      0x20\n      add\n      0x01\n      dup3\n      add\n      sload\n      dup2\n      mstore\n      0x20\n      add\n      0x02\n      dup3\n      add\n      dup1\n      sload\n      tag_98\n      swap1\n      tag_99\n      jump\t// in\n    tag_98:\n      dup1\n      0x1f\n      add\n      0x20\n      dup1\n      swap2\n      div\n      mul\n      0x20\n      add\n      mload(0x40)\n      swap1\n      dup2\n      add\n      0x40\n      mstore\n      dup1\n      swap3\n      swap2\n      swap1\n      dup2\n      dup2\n      mstore\n      0x20\n      add\n      dup3\n      dup1\n      sload\n      tag_100\n      swap1\n      tag_99\n      jump\t// in\n    tag_100:\n      dup1\n      iszero\n      tag_101\n      jumpi\n      dup1\n      0x1f\n      lt\n      tag_102\n      jumpi\n      0x0100\n      dup1\n      dup4\n      sload\n      div\n      mul\n      dup4\n      mstore\n      swap2\n      0x20\n      add\n      swap2\n      jump(tag_101)\n    tag_102:\n      dup3\n      add\n      swap2\n      swap1\n      0x00\n      mstore\n      keccak256(0x00, 0x20)\n      swap1\n    tag_103:\n      dup2\n      sload\n      dup2\n      mstore\n      swap1\n      0x01\n      add\n      swap1\n      0x20\n      add\n      dup1\n      dup4\n      gt\n      tag_103\n      jumpi\n      dup3\n      swap1\n      sub\n      0x1f\n      and\n      dup3\n      add\n      swap2\n    tag_101:\n      pop\n      pop\n      pop\n      pop\n      pop\n      dup2\n      mstore\n      pop\n      pop\n      dup2\n      mstore\n      0x20\n      add\n      swap1\n      0x01\n      add\n      swap1\n      jump(tag_95)\n    tag_96:\n      pop\n      pop\n      pop\n      pop\n      swap2\n      pop\n        /* \"contracts/HealthWallet.sol\":11717:11912  function getAuditLogs(uint256 _recordId) ... */\n      pop\n      swap2\n      swap1\n      pop\n      jump\t// out\n        /* \"contracts/HealthWallet.sol\":10758:10985  function getRecord(uint256 _recordId) ... */\n    tag_29:\n        /* \"contracts/HealthWallet.sol\":10914:10933  HealthRecord memory */\n      tag_104\n      tag_105\n      jump\t// in\n    tag_104:\n        /* \"contracts/HealthWallet.sol\":10850:10859  _recordId */\n      dup2\n        /* \"contracts/HealthWallet.sol\":3782:3783  0 */\n      0x00\n        /* \"contracts/HealthWallet.sol\":3770:3779  _recordId */\n      dup2\n        /* \"contracts/HealthWallet.sol\":3770:3783  _recordId > 0 */\n      gt\n        /* \"contracts/HealthWallet.sol\":3770:3813  _recordId > 0 && _recordId <= recordCounter */\n      dup1\n      iszero\n      tag_107\n      jumpi\n      pop\n        /* \"contracts/HealthWallet.sol\":3800:3813  recordCounter */\n      sload(0x05)\n        /* \"contracts/HealthWallet.sol\":3787:3796  _recordId */\n      dup2\n        /* \"contracts/HealthWallet.sol\":3787:3813  _recordId <= recordCounter */\n      gt\n      iszero\n        /* \"contracts/HealthWallet.sol\":3770:3813  _recordId > 0 && _recordId <= recordCounter */\n    tag_107:\n        /* \"contracts/HealthWallet.sol\":3762:3839  require(_recordId > 0 && _recordId <= recordCounter, \"Record does not exist\") */\n      tag_108\n      jumpi\n      mload(0x40)\n      0x08c379a000000000000000000000000000000000000000000000000000000000\n      dup2\n      mstore\n      0x04\n      add\n      tag_109\n      swap1\n      tag_110\n      jump\t// in\n    tag_109:\n      mload(0x40)\n      dup1\n      swap2\n      sub\n      swap1\n      revert\n    tag_108:\n        /* \"contracts/HealthWallet.sol\":3858:3865  records */\n      0x01\n        /* \"contracts/HealthWallet.sol\":3858:3876  records[_recordId] */\n      0x00\n        /* \"contracts/HealthWallet.sol\":3866:3875  _recordId */\n      dup3\n        /* \"contracts/HealthWallet.sol\":3858:3876  records[_recordId] */\n      dup2\n      mstore\n      0x20\n      add\n      swap1\n      dup2\n      mstore\n      0x20\n      add\n      0x00\n      keccak256\n        /* \"contracts/HealthWallet.sol\":3858:3885  records[_recordId].isActive */\n      0x05\n      add\n      0x14\n      swap1\n      sload\n      swap1\n      0x0100\n      exp\n      swap1\n      div\n      0xff\n      and\n        /* \"contracts/HealthWallet.sol\":3850:3910  require(records[_recordId].isActive, \"Record is not active\") */\n      tag_111\n      jumpi\n      mload(0x40)\n      0x08c379a000000000000000000000000000000000000000000000000000000000\n      dup2\n      mstore\n      0x04\n      add\n      tag_112\n      swap1\n      tag_113\n      jump\t// in\n    tag_112:\n      mload(0x40)\n      dup1\n      swap2\n      sub\n      swap1\n      revert\n    tag_111:\n        /* \"contracts/HealthWallet.sol\":10885:10894  _recordId */\n      dup3\n        /* \"contracts/HealthWallet.sol\":3547:3614  hasAccess(records[_recordId].patientAddress, msg.sender, _recordId) */\n      tag_115\n        /* \"contracts/HealthWallet.sol\":3557:3564  records */\n      0x01\n        /* \"contracts/HealthWallet.sol\":3557:3575  records[_recordId] */\n      0x00\n        /* \"contracts/HealthWallet.sol\":3565:3574  _recordId */\n      dup4\n        /* \"contracts/HealthWallet.sol\":3557:3575  records[_recordId] */\n      dup2\n      mstore\n      0x20\n      add\n      swap1\n      dup2\n      mstore\n      0x20\n      add\n      0x00\n      keccak256\n        /* \"contracts/HealthWallet.sol\":3557:3590  records[_recordId].patientAddress */\n      0x01\n      add\n      0x00\n      swap1\n      sload\n      swap1\n      0x0100\n      exp\n      swap1\n      div\n      0xffffffffffffffffffffffffffffffffffffffff\n      and\n        /* \"contracts/HealthWallet.sol\":3592:3602  msg.sender */\n      caller\n        /* \"contracts/HealthWallet.sol\":3604:3613  _recordId */\n      dup4\n        /* \"contracts/HealthWallet.sol\":3547:3556  hasAccess */\n      tag_87\n        /* \"contracts/HealthWallet.sol\":3547:3614  hasAccess(records[_recordId].patientAddress, msg.sender, _recordId) */\n      jump\t// in\n    tag_115:\n        /* \"contracts/HealthWallet.sol\":3525:3678  require(... */\n      tag_116\n      jumpi\n      mload(0x40)\n      0x08c379a000000000000000000000000000000000000000000000000000000000\n      dup2\n      mstore\n      0x04\n      add\n      tag_117\n      swap1\n      tag_118\n      jump\t// in\n    tag_117:\n      mload(0x40)\n      dup1\n      swap2\n      sub\n      swap1\n      revert\n    tag_116:\n        /* \"contracts/HealthWallet.sol\":10959:10966  records */\n      0x01\n        /* \"contracts/HealthWallet.sol\":10959:10977  records[_recordId] */\n      0x00\n        /* \"contracts/HealthWallet.sol\":10967:10976  _recordId */\n      dup6\n        /* \"contracts/HealthWallet.sol\":10959:10977  records[_recordId] */\n      dup2\n      mstore\n      0x20\n      add\n      swap1\n      dup2\n      mstore\n      0x20\n      add\n      0x00\n      keccak256\n        /* \"contracts/HealthWallet.sol\":10952:10977  return records[_recordId] */\n      mload(0x40)\n      dup1\n      0x0120\n      add\n      0x40\n      mstore\n      swap1\n      dup2\n      0x00\n      dup3\n      add\n      sload\n      dup2\n      mstore\n      0x20\n      add\n      0x01\n      dup3\n      add\n      0x00\n      swap1\n      sload\n      swap1\n      0x0100\n      exp\n      swap1\n      div\n      0xffffffffffffffffffffffffffffffffffffffff\n      and\n      0xffffffffffffffffffffffffffffffffffffffff\n      and\n      0xffffffffffffffffffffffffffffffffffffffff\n      and\n      dup2\n      mstore\n      0x20\n      add\n      0x02\n      dup3\n      add\n      dup1\n      sload\n      tag_120\n      swap1\n      tag_99\n      jump\t// in\n    tag_120:\n      dup1\n      0x1f\n      add\n      0x20\n      dup1\n      swap2\n      div\n      mul\n      0x20\n      add\n      mload(0x40)\n      swap1\n      dup2\n      add\n      0x40\n      mstore\n      dup1\n      swap3\n      swap2\n      swap1\n      dup2\n      dup2\n      mstore\n      0x20\n      add\n      dup3\n      dup1\n      sload\n      tag_121\n      swap1\n      tag_99\n      jump\t// in\n    tag_121:\n      dup1\n      iszero\n      tag_122\n      jumpi\n      dup1\n      0x1f\n      lt\n      tag_123\n      jumpi\n      0x0100\n      dup1\n      dup4\n      sload\n      div\n      mul\n      dup4\n      mstore\n      swap2\n      0x20\n      add\n      swap2\n      jump(tag_122)\n    tag_123:\n      dup3\n      add\n      swap2\n      swap1\n      0x00\n      mstore\n      keccak256(0x00, 0x20)\n      swap1\n    tag_124:\n      dup2\n      sload\n      dup2\n      mstore\n      swap1\n      0x01\n      add\n      swap1\n      0x20\n      add\n      dup1\n      dup4\n      gt\n      tag_124\n      jumpi\n      dup3\n      swap1\n      sub\n      0x1f\n      and\n      dup3\n      add\n      swap2\n    tag_122:\n      pop\n      pop\n      pop\n      pop\n      pop\n      dup2\n      mstore\n      0x20\n      add\n      0x03\n      dup3\n      add\n      0x00\n      swap1\n      sload\n      swap1\n      0x0100\n      exp\n      swap1\n      div\n      0xff\n      and\n      0x05\n      dup2\n      gt\n      iszero\n      tag_125\n      jumpi\n      tag_126\n      tag_127\n      jump\t// in\n    tag_126:\n    tag_125:\n      0x05\n      dup2\n      gt\n      iszero\n      tag_128\n      jumpi\n      tag_129\n      tag_127\n      jump\t// in\n    tag_129:\n    tag_128:\n      dup2\n      mstore\n      0x20\n      add\n      0x04\n      dup3\n      add\n      sload\n      dup2\n      mstore\n      0x20\n      add\n      0x05\n      dup3\n      add\n      0x00\n      swap1\n      sload\n      swap1\n      0x0100\n      exp\n      swap1\n      div\n      0xffffffffffffffffffffffffffffffffffffffff\n      and\n      0xffffffffffffffffffffffffffffffffffffffff\n      and\n      0xffffffffffffffffffffffffffffffffffffffff\n      and\n      dup2\n      mstore\n      0x20\n      add\n      0x05\n      dup3\n      add\n      0x14\n      swap1\n      sload\n      swap1\n      0x0100\n      exp\n      swap1\n      div\n      0xff\n      and\n      iszero\n      iszero\n      iszero\n      iszero\n      dup2\n      mstore\n      0x20\n      add\n      0x06\n      dup3\n      add\n      dup1\n      sload\n      tag_130\n      swap1\n      tag_99\n      jump\t// in\n    tag_130:\n      dup1\n      0x1f\n      add\n      0x20\n      dup1\n      swap2\n      div\n      mul\n      0x20\n      add\n      mload(0x40)\n      swap1\n      dup2\n      add\n      0x40\n      mstore\n      dup1\n      swap3\n      swap2\n      swap1\n      dup2\n      dup2\n      mstore\n      0x20\n      add\n      dup3\n      dup1\n      sload\n      tag_131\n      swap1\n      tag_99\n      jump\t// in\n    tag_131:\n      dup1\n      iszero\n      tag_132\n      jumpi\n      dup1\n      0x1f\n      lt\n      tag_133\n      jumpi\n      0x0100\n      dup1\n      dup4\n      sload\n      div\n      mul\n      dup4\n      mstore\n      swap2\n      0x20\n      add\n      swap2\n      jump(tag_132)\n    tag_133:\n      dup3\n      add\n      swap2\n      swap1\n      0x00\n      mstore\n      keccak256(0x00, 0x20)\n      swap1\n    tag_134:\n      dup2\n      sload\n      dup2\n      mstore\n      swap1\n      0x01\n      add\n      swap1\n      0x20\n      add\n      dup1\n      dup4\n      gt\n      tag_134\n      jumpi\n      dup3\n      swap1\n      sub\n      0x1f\n      and\n      dup3\n      add\n      swap2\n    tag_132:\n      pop\n      pop\n      pop\n      pop\n      pop\n      dup2\n      mstore\n      0x20\n      add\n      0x07\n      dup3\n      add\n      sload\n      dup2\n      mstore\n      pop\n      pop\n      swap3\n      pop\n        /* \"contracts/HealthWallet.sol\":3921:3922  _ */\n      pop\n        /* \"contracts/HealthWallet.sol\":10758:10985  function getRecord(uint256 _recordId) ... */\n      pop\n      swap2\n      swap1\n      pop\n      jump\t// out\n        /* \"contracts/HealthWallet.sol\":7200:7385  function deleteRecord(uint256 _recordId) ... */\n    tag_34:\n        /* \"contracts/HealthWallet.sol\":7280:7289  _recordId */\n      dup1\n        /* \"contracts/HealthWallet.sol\":3365:3375  msg.sender */\n      caller\n        /* \"contracts/HealthWallet.sol\":3328:3375  records[_recordId].patientAddress == msg.sender */\n      0xffffffffffffffffffffffffffffffffffffffff\n      and\n        /* \"contracts/HealthWallet.sol\":3328:3335  records */\n      0x01\n        /* \"contracts/HealthWallet.sol\":3328:3346  records[_recordId] */\n      0x00\n        /* \"contracts/HealthWallet.sol\":3336:3345  _recordId */\n      dup4\n        /* \"contracts/HealthWallet.sol\":3328:3346  records[_recordId] */\n      dup2\n      mstore\n      0x20\n      add\n      swap1\n      dup2\n      mstore\n      0x20\n      add\n      0x00\n      keccak256\n        /* \"contracts/HealthWallet.sol\":3328:3361  records[_recordId].patientAddress */\n      0x01\n      add\n      0x00\n      swap1\n      sload\n      swap1\n      0x0100\n      exp\n      swap1\n      div\n      0xffffffffffffffffffffffffffffffffffffffff\n      and\n        /* \"contracts/HealthWallet.sol\":3328:3375  records[_recordId].patientAddress == msg.sender */\n      0xffffffffffffffffffffffffffffffffffffffff\n      and\n      eq\n        /* \"contracts/HealthWallet.sol\":3306:3439  require(... */\n      tag_136\n      jumpi\n      mload(0x40)\n      0x08c379a000000000000000000000000000000000000000000000000000000000\n      dup2\n      mstore\n      0x04\n      add\n      tag_137\n      swap1\n      tag_93\n      jump\t// in\n    tag_137:\n      mload(0x40)\n      dup1\n      swap2\n      sub\n      swap1\n      revert\n    tag_136:\n        /* \"contracts/HealthWallet.sol\":7314:7323  _recordId */\n      dup2\n        /* \"contracts/HealthWallet.sol\":3782:3783  0 */\n      0x00\n        /* \"contracts/HealthWallet.sol\":3770:3779  _recordId */\n      dup2\n        /* \"contracts/HealthWallet.sol\":3770:3783  _recordId > 0 */\n      gt\n        /* \"contracts/HealthWallet.sol\":3770:3813  _recordId > 0 && _recordId <= recordCounter */\n      dup1\n      iszero\n      tag_139\n      jumpi\n      pop\n        /* \"contracts/HealthWallet.sol\":3800:3813  recordCounter */\n      sload(0x05)\n        /* \"contracts/HealthWallet.sol\":3787:3796  _recordId */\n      dup2\n        /* \"contracts/HealthWallet.sol\":3787:3813  _recordId <= recordCounter */\n      gt\n      iszero\n        /* \"contracts/HealthWallet.sol\":3770:3813  _recordId > 0 && _recordId <= recordCounter */\n    tag_139:\n        /* \"contracts/HealthWallet.sol\":3762:3839  require(_recordId > 0 && _recordId <= recordCounter, \"Record does not exist\") */\n      tag_140\n      jumpi\n      mload(0x40)\n      0x08c379a000000000000000000000000000000000000000000000000000000000\n      dup2\n      mstore\n      0x04\n      add\n      tag_141\n      swap1\n      tag_110\n      jump\t// in\n    tag_141:\n      mload(0x40)\n      dup1\n      swap2\n      sub\n      swap1\n      revert\n    tag_140:\n        /* \"contracts/HealthWallet.sol\":3858:3865  records */\n      0x01\n        /* \"contracts/HealthWallet.sol\":3858:3876  records[_recordId] */\n      0x00\n        /* \"contracts/HealthWallet.sol\":3866:3875  _recordId */\n      dup3\n        /* \"contracts/HealthWallet.sol\":3858:3876  records[_recordId] */\n      dup2\n      mstore\n      0x20\n      add\n      swap1\n      dup2\n      mstore\n      0x20\n      add\n      0x00\n      keccak256\n        /* \"contracts/HealthWallet.sol\":3858:3885  records[_recordId].isActive */\n      0x05\n      add\n      0x14\n      swap1\n      sload\n      swap1\n      0x0100\n      exp\n      swap1\n      div\n      0xff\n      and\n        /* \"contracts/HealthWallet.sol\":3850:3910  require(records[_recordId].isActive, \"Record is not active\") */\n      tag_142\n      jumpi\n      mload(0x40)\n      0x08c379a000000000000000000000000000000000000000000000000000000000\n      dup2\n      mstore\n      0x04\n      add\n      tag_143\n      swap1\n      tag_113\n      jump\t// in\n    tag_143:\n      mload(0x40)\n      dup1\n      swap2\n      sub\n      swap1\n      revert\n    tag_142:\n        /* \"contracts/HealthWallet.sol\":7372:7377  false */\n      0x00\n        /* \"contracts/HealthWallet.sol\":7342:7349  records */\n      0x01\n        /* \"contracts/HealthWallet.sol\":7342:7360  records[_recordId] */\n      0x00\n        /* \"contracts/HealthWallet.sol\":7350:7359  _recordId */\n      dup6\n        /* \"contracts/HealthWallet.sol\":7342:7360  records[_recordId] */\n      dup2\n      mstore\n      0x20\n      add\n      swap1\n      dup2\n      mstore\n      0x20\n      add\n      0x00\n      keccak256\n        /* \"contracts/HealthWallet.sol\":7342:7369  records[_recordId].isActive */\n      0x05\n      add\n      0x14\n        /* \"contracts/HealthWallet.sol\":7342:7377  records[_recordId].isActive = false */\n      0x0100\n      exp\n      dup2\n      sload\n      dup2\n      0xff\n      mul\n      not\n      and\n      swap1\n      dup4\n      iszero\n      iszero\n      mul\n      or\n      swap1\n      sstore\n      pop\n        /* \"contracts/HealthWallet.sol\":3450:3451  _ */\n      pop\n        /* \"contracts/HealthWallet.sol\":7200:7385  function deleteRecord(uint256 _recordId) ... */\n      pop\n      pop\n      jump\t// out\n        /* \"contracts/HealthWallet.sol\":13473:13569  function getTotalRecords() public view returns (uint256) {... */\n    tag_36:\n        /* \"contracts/HealthWallet.sol\":13521:13528  uint256 */\n      0x00\n        /* \"contracts/HealthWallet.sol\":13548:13561  recordCounter */\n      sload(0x05)\n        /* \"contracts/HealthWallet.sol\":13541:13561  return recordCounter */\n      swap1\n      pop\n        /* \"contracts/HealthWallet.sol\":13473:13569  function getTotalRecords() public view returns (uint256) {... */\n      swap1\n      jump\t// out\n        /* \"contracts/HealthWallet.sol\":5403:6394  function addRecordByProvider(... */\n    tag_42:\n        /* \"contracts/HealthWallet.sol\":5594:5601  uint256 */\n      0x00\n        /* \"contracts/HealthWallet.sol\":5649:5650  0 */\n      0x00\n        /* \"contracts/HealthWallet.sol\":5622:5651  _patientAddress != address(0) */\n      0xffffffffffffffffffffffffffffffffffffffff\n      and\n        /* \"contracts/HealthWallet.sol\":5622:5637  _patientAddress */\n      dup6\n        /* \"contracts/HealthWallet.sol\":5622:5651  _patientAddress != address(0) */\n      0xffffffffffffffffffffffffffffffffffffffff\n      and\n      sub\n        /* \"contracts/HealthWallet.sol\":5614:5679  require(_patientAddress != address(0), \"Invalid patient address\") */\n      tag_147\n      jumpi\n      mload(0x40)\n      0x08c379a000000000000000000000000000000000000000000000000000000000\n      dup2\n      mstore\n      0x04\n      add\n      tag_148\n      swap1\n      tag_149\n      jump\t// in\n    tag_148:\n      mload(0x40)\n      dup1\n      swap2\n      sub\n      swap1\n      revert\n    tag_147:\n        /* \"contracts/HealthWallet.sol\":5724:5725  0 */\n      0x00\n        /* \"contracts/HealthWallet.sol\":5704:5713  _ipfsHash */\n      dup5\n        /* \"contracts/HealthWallet.sol\":5698:5721  bytes(_ipfsHash).length */\n      mload\n        /* \"contracts/HealthWallet.sol\":5698:5725  bytes(_ipfsHash).length > 0 */\n      gt\n        /* \"contracts/HealthWallet.sol\":5690:5755  require(bytes(_ipfsHash).length > 0, \"IPFS hash cannot be empty\") */\n      tag_150\n      jumpi\n      mload(0x40)\n      0x08c379a000000000000000000000000000000000000000000000000000000000\n      dup2\n      mstore\n      0x04\n      add\n      tag_151\n      swap1\n      tag_152\n      jump\t// in\n    tag_151:\n      mload(0x40)\n      dup1\n      swap2\n      sub\n      swap1\n      revert\n    tag_150:\n        /* \"contracts/HealthWallet.sol\":5776:5789  recordCounter */\n      0x05\n      0x00\n        /* \"contracts/HealthWallet.sol\":5776:5791  recordCounter++ */\n      dup2\n      sload\n      dup1\n      swap3\n      swap2\n      swap1\n      tag_153\n      swap1\n      tag_154\n      jump\t// in\n    tag_153:\n      swap2\n      swap1\n      pop\n      sstore\n      pop\n        /* \"contracts/HealthWallet.sol\":5837:6190  HealthRecord({... */\n      mload(0x40)\n      dup1\n      0x0120\n      add\n      0x40\n      mstore\n      dup1\n        /* \"contracts/HealthWallet.sol\":5875:5888  recordCounter */\n      sload(0x05)\n        /* \"contracts/HealthWallet.sol\":5837:6190  HealthRecord({... */\n      dup2\n      mstore\n      0x20\n      add\n        /* \"contracts/HealthWallet.sol\":5919:5934  _patientAddress */\n      dup7\n        /* \"contracts/HealthWallet.sol\":5837:6190  HealthRecord({... */\n      0xffffffffffffffffffffffffffffffffffffffff\n      and\n      dup2\n      mstore\n      0x20\n      add\n        /* \"contracts/HealthWallet.sol\":5959:5968  _ipfsHash */\n      dup6\n        /* \"contracts/HealthWallet.sol\":5837:6190  HealthRecord({... */\n      dup2\n      mstore\n      0x20\n      add\n        /* \"contracts/HealthWallet.sol\":5995:6006  _recordType */\n      dup5\n        /* \"contracts/HealthWallet.sol\":5837:6190  HealthRecord({... */\n      0x05\n      dup2\n      gt\n      iszero\n      tag_155\n      jumpi\n      tag_156\n      tag_127\n      jump\t// in\n    tag_156:\n    tag_155:\n      dup2\n      mstore\n      0x20\n      add\n        /* \"contracts/HealthWallet.sol\":6032:6047  block.timestamp */\n      timestamp\n        /* \"contracts/HealthWallet.sol\":5837:6190  HealthRecord({... */\n      dup2\n      mstore\n      0x20\n      add\n        /* \"contracts/HealthWallet.sol\":6072:6082  msg.sender */\n      caller\n        /* \"contracts/HealthWallet.sol\":5837:6190  HealthRecord({... */\n      0xffffffffffffffffffffffffffffffffffffffff\n      and\n      dup2\n      mstore\n      0x20\n      add\n        /* \"contracts/HealthWallet.sol\":6107:6111  true */\n      0x01\n        /* \"contracts/HealthWallet.sol\":5837:6190  HealthRecord({... */\n      iszero\n      iszero\n      dup2\n      mstore\n      0x20\n      add\n        /* \"contracts/HealthWallet.sol\":6140:6153  _encryptedKey */\n      dup4\n        /* \"contracts/HealthWallet.sol\":5837:6190  HealthRecord({... */\n      dup2\n      mstore\n      0x20\n      add\n        /* \"contracts/HealthWallet.sol\":6177:6178  1 */\n      0x01\n        /* \"contracts/HealthWallet.sol\":5837:6190  HealthRecord({... */\n      dup2\n      mstore\n      pop\n        /* \"contracts/HealthWallet.sol\":5812:5819  records */\n      0x01\n        /* \"contracts/HealthWallet.sol\":5812:5834  records[recordCounter] */\n      0x00\n        /* \"contracts/HealthWallet.sol\":5820:5833  recordCounter */\n      sload(0x05)\n        /* \"contracts/HealthWallet.sol\":5812:5834  records[recordCounter] */\n      dup2\n      mstore\n      0x20\n      add\n      swap1\n      dup2\n      mstore\n      0x20\n      add\n      0x00\n      keccak256\n        /* \"contracts/HealthWallet.sol\":5812:6190  records[recordCounter] = HealthRecord({... */\n      0x00\n      dup3\n      add\n      mload\n      dup2\n      0x00\n      add\n      sstore\n      0x20\n      dup3\n      add\n      mload\n      dup2\n      0x01\n      add\n      exp(0x0100, 0x00)\n      dup2\n      sload\n      dup2\n      0xffffffffffffffffffffffffffffffffffffffff\n      mul\n      not\n      and\n      swap1\n      dup4\n      0xffffffffffffffffffffffffffffffffffffffff\n      and\n      mul\n      or\n      swap1\n      sstore\n      pop\n      0x40\n      dup3\n      add\n      mload\n      dup2\n      0x02\n      add\n      swap1\n      dup2\n      tag_157\n      swap2\n      swap1\n      tag_158\n      jump\t// in\n    tag_157:\n      pop\n      0x60\n      dup3\n      add\n      mload\n      dup2\n      0x03\n      add\n      exp(0x0100, 0x00)\n      dup2\n      sload\n      dup2\n      0xff\n      mul\n      not\n      and\n      swap1\n      dup4\n      0x05\n      dup2\n      gt\n      iszero\n      tag_159\n      jumpi\n      tag_160\n      tag_127\n      jump\t// in\n    tag_160:\n    tag_159:\n      mul\n      or\n      swap1\n      sstore\n      pop\n      0x80\n      dup3\n      add\n      mload\n      dup2\n      0x04\n      add\n      sstore\n      0xa0\n      dup3\n      add\n      mload\n      dup2\n      0x05\n      add\n      exp(0x0100, 0x00)\n      dup2\n      sload\n      dup2\n      0xffffffffffffffffffffffffffffffffffffffff\n      mul\n      not\n      and\n      swap1\n      dup4\n      0xffffffffffffffffffffffffffffffffffffffff\n      and\n      mul\n      or\n      swap1\n      sstore\n      pop\n      0xc0\n      dup3\n      add\n      mload\n      dup2\n      0x05\n      add\n      exp(0x0100, 0x14)\n      dup2\n      sload\n      dup2\n      0xff\n      mul\n      not\n      and\n      swap1\n      dup4\n      iszero\n      iszero\n      mul\n      or\n      swap1\n      sstore\n      pop\n      0xe0\n      dup3\n      add\n      mload\n      dup2\n      0x06\n      add\n      swap1\n      dup2\n      tag_161\n      swap2\n      swap1\n      tag_158\n      jump\t// in\n    tag_161:\n      pop\n      0x0100\n      dup3\n      add\n      mload\n      dup2\n      0x07\n      add\n      sstore\n      swap1\n      pop\n      pop\n        /* \"contracts/HealthWallet.sol\":6211:6225  patientRecords */\n      0x00\n        /* \"contracts/HealthWallet.sol\":6211:6242  patientRecords[_patientAddress] */\n      0x00\n        /* \"contracts/HealthWallet.sol\":6226:6241  _patientAddress */\n      dup7\n        /* \"contracts/HealthWallet.sol\":6211:6242  patientRecords[_patientAddress] */\n      0xffffffffffffffffffffffffffffffffffffffff\n      and\n      0xffffffffffffffffffffffffffffffffffffffff\n      and\n      dup2\n      mstore\n      0x20\n      add\n      swap1\n      dup2\n      mstore\n      0x20\n      add\n      0x00\n      keccak256\n        /* \"contracts/HealthWallet.sol\":6248:6261  recordCounter */\n      sload(0x05)\n        /* \"contracts/HealthWallet.sol\":6211:6262  patientRecords[_patientAddress].push(recordCounter) */\n      swap1\n      dup1\n      0x01\n      dup2\n      sload\n      add\n      dup1\n      dup3\n      sstore\n      dup1\n      swap2\n      pop\n      pop\n      0x01\n      swap1\n      sub\n      swap1\n      0x00\n      mstore\n      keccak256(0x00, 0x20)\n      add\n      0x00\n      swap1\n      swap2\n      swap1\n      swap2\n      swap1\n      swap2\n      pop\n      sstore\n        /* \"contracts/HealthWallet.sol\":6315:6330  _patientAddress */\n      dup5\n        /* \"contracts/HealthWallet.sol\":6288:6355  RecordAdded(recordCounter, _patientAddress, _ipfsHash, _recordType) */\n      0xffffffffffffffffffffffffffffffffffffffff\n      and\n        /* \"contracts/HealthWallet.sol\":6300:6313  recordCounter */\n      sload(0x05)\n        /* \"contracts/HealthWallet.sol\":6288:6355  RecordAdded(recordCounter, _patientAddress, _ipfsHash, _recordType) */\n      0x32b3188b62628aabf659cebbab10a599b539bcb0c01a891ab2e37b8be315712e\n        /* \"contracts/HealthWallet.sol\":6332:6341  _ipfsHash */\n      dup7\n        /* \"contracts/HealthWallet.sol\":6343:6354  _recordType */\n      dup7\n        /* \"contracts/HealthWallet.sol\":6288:6355  RecordAdded(recordCounter, _patientAddress, _ipfsHash, _recordType) */\n      mload(0x40)\n      tag_163\n      swap3\n      swap2\n      swap1\n      tag_164\n      jump\t// in\n    tag_163:\n      mload(0x40)\n      dup1\n      swap2\n      sub\n      swap1\n      log3\n        /* \"contracts/HealthWallet.sol\":6373:6386  recordCounter */\n      sload(0x05)\n        /* \"contracts/HealthWallet.sol\":6366:6386  return recordCounter */\n      swap1\n      pop\n        /* \"contracts/HealthWallet.sol\":5403:6394  function addRecordByProvider(... */\n      swap5\n      swap4\n      pop\n      pop\n      pop\n      pop\n      jump\t// out\n        /* \"contracts/HealthWallet.sol\":10302:10611  function getPatientRecords(address _patient) ... */\n    tag_47:\n        /* \"contracts/HealthWallet.sol\":10398:10414  uint256[] memory */\n      0x60\n        /* \"contracts/HealthWallet.sol\":10469:10477  _patient */\n      dup2\n        /* \"contracts/HealthWallet.sol\":10455:10477  msg.sender == _patient */\n      0xffffffffffffffffffffffffffffffffffffffff\n      and\n        /* \"contracts/HealthWallet.sol\":10455:10465  msg.sender */\n      caller\n        /* \"contracts/HealthWallet.sol\":10455:10477  msg.sender == _patient */\n      0xffffffffffffffffffffffffffffffffffffffff\n      and\n      eq\n        /* \"contracts/HealthWallet.sol\":10455:10519  msg.sender == _patient || hasGeneralAccess(_patient, msg.sender) */\n      dup1\n      tag_166\n      jumpi\n      pop\n        /* \"contracts/HealthWallet.sol\":10481:10519  hasGeneralAccess(_patient, msg.sender) */\n      tag_167\n        /* \"contracts/HealthWallet.sol\":10498:10506  _patient */\n      dup3\n        /* \"contracts/HealthWallet.sol\":10508:10518  msg.sender */\n      caller\n        /* \"contracts/HealthWallet.sol\":10481:10497  hasGeneralAccess */\n      tag_168\n        /* \"contracts/HealthWallet.sol\":10481:10519  hasGeneralAccess(_patient, msg.sender) */\n      jump\t// in\n    tag_167:\n        /* \"contracts/HealthWallet.sol\":10455:10519  msg.sender == _patient || hasGeneralAccess(_patient, msg.sender) */\n    tag_166:\n        /* \"contracts/HealthWallet.sol\":10433:10561  require(... */\n      tag_169\n      jumpi\n      mload(0x40)\n      0x08c379a000000000000000000000000000000000000000000000000000000000\n      dup2\n      mstore\n      0x04\n      add\n      tag_170\n      swap1\n      tag_171\n      jump\t// in\n    tag_170:\n      mload(0x40)\n      dup1\n      swap2\n      sub\n      swap1\n      revert\n    tag_169:\n        /* \"contracts/HealthWallet.sol\":10579:10593  patientRecords */\n      0x00\n        /* \"contracts/HealthWallet.sol\":10579:10603  patientRecords[_patient] */\n      0x00\n        /* \"contracts/HealthWallet.sol\":10594:10602  _patient */\n      dup4\n        /* \"contracts/HealthWallet.sol\":10579:10603  patientRecords[_patient] */\n      0xffffffffffffffffffffffffffffffffffffffff\n      and\n      0xffffffffffffffffffffffffffffffffffffffff\n      and\n      dup2\n      mstore\n      0x20\n      add\n      swap1\n      dup2\n      mstore\n      0x20\n      add\n      0x00\n      keccak256\n        /* \"contracts/HealthWallet.sol\":10572:10603  return patientRecords[_patient] */\n      dup1\n      sload\n      dup1\n      0x20\n      mul\n      0x20\n      add\n      mload(0x40)\n      swap1\n      dup2\n      add\n      0x40\n      mstore\n      dup1\n      swap3\n      swap2\n      swap1\n      dup2\n      dup2\n      mstore\n      0x20\n      add\n      dup3\n      dup1\n      sload\n      dup1\n      iszero\n      tag_172\n      jumpi\n      0x20\n      mul\n      dup3\n      add\n      swap2\n      swap1\n      0x00\n      mstore\n      keccak256(0x00, 0x20)\n      swap1\n    tag_173:\n      dup2\n      sload\n      dup2\n      mstore\n      0x20\n      add\n      swap1\n      0x01\n      add\n      swap1\n      dup1\n      dup4\n      gt\n      tag_173\n      jumpi\n    tag_172:\n      pop\n      pop\n      pop\n      pop\n      pop\n      swap1\n      pop\n        /* \"contracts/HealthWallet.sol\":10302:10611  function getPatientRecords(address _patient) ... */\n      swap2\n      swap1\n      pop\n      jump\t// out\n        /* \"contracts/HealthWallet.sol\":4247:5103  function addRecord(... */\n    tag_53:\n        /* \"contracts/HealthWallet.sol\":4394:4401  uint256 */\n      0x00\n        /* \"contracts/HealthWallet.sol\":4448:4449  0 */\n      0x00\n        /* \"contracts/HealthWallet.sol\":4428:4437  _ipfsHash */\n      dup5\n        /* \"contracts/HealthWallet.sol\":4422:4445  bytes(_ipfsHash).length */\n      mload\n        /* \"contracts/HealthWallet.sol\":4422:4449  bytes(_ipfsHash).length > 0 */\n      gt\n        /* \"contracts/HealthWallet.sol\":4414:4479  require(bytes(_ipfsHash).length > 0, \"IPFS hash cannot be empty\") */\n      tag_175\n      jumpi\n      mload(0x40)\n      0x08c379a000000000000000000000000000000000000000000000000000000000\n      dup2\n      mstore\n      0x04\n      add\n      tag_176\n      swap1\n      tag_152\n      jump\t// in\n    tag_176:\n      mload(0x40)\n      dup1\n      swap2\n      sub\n      swap1\n      revert\n    tag_175:\n        /* \"contracts/HealthWallet.sol\":4500:4513  recordCounter */\n      0x05\n      0x00\n        /* \"contracts/HealthWallet.sol\":4500:4515  recordCounter++ */\n      dup2\n      sload\n      dup1\n      swap3\n      swap2\n      swap1\n      tag_177\n      swap1\n      tag_154\n      jump\t// in\n    tag_177:\n      swap2\n      swap1\n      pop\n      sstore\n      pop\n        /* \"contracts/HealthWallet.sol\":4561:4909  HealthRecord({... */\n      mload(0x40)\n      dup1\n      0x0120\n      add\n      0x40\n      mstore\n      dup1\n        /* \"contracts/HealthWallet.sol\":4599:4612  recordCounter */\n      sload(0x05)\n        /* \"contracts/HealthWallet.sol\":4561:4909  HealthRecord({... */\n      dup2\n      mstore\n      0x20\n      add\n        /* \"contracts/HealthWallet.sol\":4643:4653  msg.sender */\n      caller\n        /* \"contracts/HealthWallet.sol\":4561:4909  HealthRecord({... */\n      0xffffffffffffffffffffffffffffffffffffffff\n      and\n      dup2\n      mstore\n      0x20\n      add\n        /* \"contracts/HealthWallet.sol\":4678:4687  _ipfsHash */\n      dup6\n        /* \"contracts/HealthWallet.sol\":4561:4909  HealthRecord({... */\n      dup2\n      mstore\n      0x20\n      add\n        /* \"contracts/HealthWallet.sol\":4714:4725  _recordType */\n      dup5\n        /* \"contracts/HealthWallet.sol\":4561:4909  HealthRecord({... */\n      0x05\n      dup2\n      gt\n      iszero\n      tag_178\n      jumpi\n      tag_179\n      tag_127\n      jump\t// in\n    tag_179:\n    tag_178:\n      dup2\n      mstore\n      0x20\n      add\n        /* \"contracts/HealthWallet.sol\":4751:4766  block.timestamp */\n      timestamp\n        /* \"contracts/HealthWallet.sol\":4561:4909  HealthRecord({... */\n      dup2\n      mstore\n      0x20\n      add\n        /* \"contracts/HealthWallet.sol\":4791:4801  msg.sender */\n      caller\n        /* \"contracts/HealthWallet.sol\":4561:4909  HealthRecord({... */\n      0xffffffffffffffffffffffffffffffffffffffff\n      and\n      dup2\n      mstore\n      0x20\n      add\n        /* \"contracts/HealthWallet.sol\":4826:4830  true */\n      0x01\n        /* \"contracts/HealthWallet.sol\":4561:4909  HealthRecord({... */\n      iszero\n      iszero\n      dup2\n      mstore\n      0x20\n      add\n        /* \"contracts/HealthWallet.sol\":4859:4872  _encryptedKey */\n      dup4\n        /* \"contracts/HealthWallet.sol\":4561:4909  HealthRecord({... */\n      dup2\n      mstore\n      0x20\n      add\n        /* \"contracts/HealthWallet.sol\":4896:4897  1 */\n      0x01\n        /* \"contracts/HealthWallet.sol\":4561:4909  HealthRecord({... */\n      dup2\n      mstore\n      pop\n        /* \"contracts/HealthWallet.sol\":4536:4543  records */\n      0x01\n        /* \"contracts/HealthWallet.sol\":4536:4558  records[recordCounter] */\n      0x00\n        /* \"contracts/HealthWallet.sol\":4544:4557  recordCounter */\n      sload(0x05)\n        /* \"contracts/HealthWallet.sol\":4536:4558  records[recordCounter] */\n      dup2\n      mstore\n      0x20\n      add\n      swap1\n      dup2\n      mstore\n      0x20\n      add\n      0x00\n      keccak256\n        /* \"contracts/HealthWallet.sol\":4536:4909  records[recordCounter] = HealthRecord({... */\n      0x00\n      dup3\n      add\n      mload\n      dup2\n      0x00\n      add\n      sstore\n      0x20\n      dup3\n      add\n      mload\n      dup2\n      0x01\n      add\n      exp(0x0100, 0x00)\n      dup2\n      sload\n      dup2\n      0xffffffffffffffffffffffffffffffffffffffff\n      mul\n      not\n      and\n      swap1\n      dup4\n      0xffffffffffffffffffffffffffffffffffffffff\n      and\n      mul\n      or\n      swap1\n      sstore\n      pop\n      0x40\n      dup3\n      add\n      mload\n      dup2\n      0x02\n      add\n      swap1\n      dup2\n      tag_180\n      swap2\n      swap1\n      tag_158\n      jump\t// in\n    tag_180:\n      pop\n      0x60\n      dup3\n      add\n      mload\n      dup2\n      0x03\n      add\n      exp(0x0100, 0x00)\n      dup2\n      sload\n      dup2\n      0xff\n      mul\n      not\n      and\n      swap1\n      dup4\n      0x05\n      dup2\n      gt\n      iszero\n      tag_181\n      jumpi\n      tag_182\n      tag_127\n      jump\t// in\n    tag_182:\n    tag_181:\n      mul\n      or\n      swap1\n      sstore\n      pop\n      0x80\n      dup3\n      add\n      mload\n      dup2\n      0x04\n      add\n      sstore\n      0xa0\n      dup3\n      add\n      mload\n      dup2\n      0x05\n      add\n      exp(0x0100, 0x00)\n      dup2\n      sload\n      dup2\n      0xffffffffffffffffffffffffffffffffffffffff\n      mul\n      not\n      and\n      swap1\n      dup4\n      0xffffffffffffffffffffffffffffffffffffffff\n      and\n      mul\n      or\n      swap1\n      sstore\n      pop\n      0xc0\n      dup3\n      add\n      mload\n      dup2\n      0x05\n      add\n      exp(0x0100, 0x14)\n      dup2\n      sload\n      dup2\n      0xff\n      mul\n      not\n      and\n      swap1\n      dup4\n      iszero\n      iszero\n      mul\n      or\n      swap1\n      sstore\n      pop\n      0xe0\n      dup3\n      add\n      mload\n      dup2\n      0x06\n      add\n      swap1\n      dup2\n      tag_183\n      swap2\n      swap1\n      tag_158\n      jump\t// in\n    tag_183:\n      pop\n      0x0100\n      dup3\n      add\n      mload\n      dup2\n      0x07\n      add\n      sstore\n      swap1\n      pop\n      pop\n        /* \"contracts/HealthWallet.sol\":4930:4944  patientRecords */\n      0x00\n        /* \"contracts/HealthWallet.sol\":4930:4956  patientRecords[msg.sender] */\n      0x00\n        /* \"contracts/HealthWallet.sol\":4945:4955  msg.sender */\n      caller\n        /* \"contracts/HealthWallet.sol\":4930:4956  patientRecords[msg.sender] */\n      0xffffffffffffffffffffffffffffffffffffffff\n      and\n      0xffffffffffffffffffffffffffffffffffffffff\n      and\n      dup2\n      mstore\n      0x20\n      add\n      swap1\n      dup2\n      mstore\n      0x20\n      add\n      0x00\n      keccak256\n        /* \"contracts/HealthWallet.sol\":4962:4975  recordCounter */\n      sload(0x05)\n        /* \"contracts/HealthWallet.sol\":4930:4976  patientRecords[msg.sender].push(recordCounter) */\n      swap1\n      dup1\n      0x01\n      dup2\n      sload\n      add\n      dup1\n      dup3\n      sstore\n      dup1\n      swap2\n      pop\n      pop\n      0x01\n      swap1\n      sub\n      swap1\n      0x00\n      mstore\n      keccak256(0x00, 0x20)\n      add\n      0x00\n      swap1\n      swap2\n      swap1\n      swap2\n      swap1\n      swap2\n      pop\n      sstore\n        /* \"contracts/HealthWallet.sol\":5029:5039  msg.sender */\n      caller\n        /* \"contracts/HealthWallet.sol\":5002:5064  RecordAdded(recordCounter, msg.sender, _ipfsHash, _recordType) */\n      0xffffffffffffffffffffffffffffffffffffffff\n      and\n        /* \"contracts/HealthWallet.sol\":5014:5027  recordCounter */\n      sload(0x05)\n        /* \"contracts/HealthWallet.sol\":5002:5064  RecordAdded(recordCounter, msg.sender, _ipfsHash, _recordType) */\n      0x32b3188b62628aabf659cebbab10a599b539bcb0c01a891ab2e37b8be315712e\n        /* \"contracts/HealthWallet.sol\":5041:5050  _ipfsHash */\n      dup7\n        /* \"contracts/HealthWallet.sol\":5052:5063  _recordType */\n      dup7\n        /* \"contracts/HealthWallet.sol\":5002:5064  RecordAdded(recordCounter, msg.sender, _ipfsHash, _recordType) */\n      mload(0x40)\n      tag_185\n      swap3\n      swap2\n      swap1\n      tag_164\n      jump\t// in\n    tag_185:\n      mload(0x40)\n      dup1\n      swap2\n      sub\n      swap1\n      log3\n        /* \"contracts/HealthWallet.sol\":5082:5095  recordCounter */\n      sload(0x05)\n        /* \"contracts/HealthWallet.sol\":5075:5095  return recordCounter */\n      swap1\n      pop\n        /* \"contracts/HealthWallet.sol\":4247:5103  function addRecord(... */\n      swap4\n      swap3\n      pop\n      pop\n      pop\n      jump\t// out\n        /* \"contracts/HealthWallet.sol\":6631:7084  function updateRecord(... */\n    tag_58:\n        /* \"contracts/HealthWallet.sol\":6785:6794  _recordId */\n      dup3\n        /* \"contracts/HealthWallet.sol\":3365:3375  msg.sender */\n      caller\n        /* \"contracts/HealthWallet.sol\":3328:3375  records[_recordId].patientAddress == msg.sender */\n      0xffffffffffffffffffffffffffffffffffffffff\n      and\n        /* \"contracts/HealthWallet.sol\":3328:3335  records */\n      0x01\n        /* \"contracts/HealthWallet.sol\":3328:3346  records[_recordId] */\n      0x00\n        /* \"contracts/HealthWallet.sol\":3336:3345  _recordId */\n      dup4\n        /* \"contracts/HealthWallet.sol\":3328:3346  records[_recordId] */\n      dup2\n      mstore\n      0x20\n      add\n      swap1\n      dup2\n      mstore\n      0x20\n      add\n      0x00\n      keccak256\n        /* \"contracts/HealthWallet.sol\":3328:3361  records[_recordId].patientAddress */\n      0x01\n      add\n      0x00\n      swap1\n      sload\n      swap1\n      0x0100\n      exp\n      swap1\n      div\n      0xffffffffffffffffffffffffffffffffffffffff\n      and\n        /* \"contracts/HealthWallet.sol\":3328:3375  records[_recordId].patientAddress == msg.sender */\n      0xffffffffffffffffffffffffffffffffffffffff\n      and\n      eq\n        /* \"contracts/HealthWallet.sol\":3306:3439  require(... */\n      tag_187\n      jumpi\n      mload(0x40)\n      0x08c379a000000000000000000000000000000000000000000000000000000000\n      dup2\n      mstore\n      0x04\n      add\n      tag_188\n      swap1\n      tag_93\n      jump\t// in\n    tag_188:\n      mload(0x40)\n      dup1\n      swap2\n      sub\n      swap1\n      revert\n    tag_187:\n        /* \"contracts/HealthWallet.sol\":6809:6818  _recordId */\n      dup4\n        /* \"contracts/HealthWallet.sol\":3782:3783  0 */\n      0x00\n        /* \"contracts/HealthWallet.sol\":3770:3779  _recordId */\n      dup2\n        /* \"contracts/HealthWallet.sol\":3770:3783  _recordId > 0 */\n      gt\n        /* \"contracts/HealthWallet.sol\":3770:3813  _recordId > 0 && _recordId <= recordCounter */\n      dup1\n      iszero\n      tag_190\n      jumpi\n      pop\n        /* \"contracts/HealthWallet.sol\":3800:3813  recordCounter */\n      sload(0x05)\n        /* \"contracts/HealthWallet.sol\":3787:3796  _recordId */\n      dup2\n        /* \"contracts/HealthWallet.sol\":3787:3813  _recordId <= recordCounter */\n      gt\n      iszero\n        /* \"contracts/HealthWallet.sol\":3770:3813  _recordId > 0 && _recordId <= recordCounter */\n    tag_190:\n        /* \"contracts/HealthWallet.sol\":3762:3839  require(_recordId > 0 && _recordId <= recordCounter, \"Record does not exist\") */\n      tag_191\n      jumpi\n      mload(0x40)\n      0x08c379a000000000000000000000000000000000000000000000000000000000\n      dup2\n      mstore\n      0x04\n      add\n      tag_192\n      swap1\n      tag_110\n      jump\t// in\n    tag_192:\n      mload(0x40)\n      dup1\n      swap2\n      sub\n      swap1\n      revert\n    tag_191:\n        /* \"contracts/HealthWallet.sol\":3858:3865  records */\n      0x01\n        /* \"contracts/HealthWallet.sol\":3858:3876  records[_recordId] */\n      0x00\n        /* \"contracts/HealthWallet.sol\":3866:3875  _recordId */\n      dup3\n        /* \"contracts/HealthWallet.sol\":3858:3876  records[_recordId] */\n      dup2\n      mstore\n      0x20\n      add\n      swap1\n      dup2\n      mstore\n      0x20\n      add\n      0x00\n      keccak256\n        /* \"contracts/HealthWallet.sol\":3858:3885  records[_recordId].isActive */\n      0x05\n      add\n      0x14\n      swap1\n      sload\n      swap1\n      0x0100\n      exp\n      swap1\n      div\n      0xff\n      and\n        /* \"contracts/HealthWallet.sol\":3850:3910  require(records[_recordId].isActive, \"Record is not active\") */\n      tag_193\n      jumpi\n      mload(0x40)\n      0x08c379a000000000000000000000000000000000000000000000000000000000\n      dup2\n      mstore\n      0x04\n      add\n      tag_194\n      swap1\n      tag_113\n      jump\t// in\n    tag_194:\n      mload(0x40)\n      dup1\n      swap2\n      sub\n      swap1\n      revert\n    tag_193:\n        /* \"contracts/HealthWallet.sol\":6831:6858  HealthRecord storage record */\n      0x00\n        /* \"contracts/HealthWallet.sol\":6861:6868  records */\n      0x01\n        /* \"contracts/HealthWallet.sol\":6861:6879  records[_recordId] */\n      0x00\n        /* \"contracts/HealthWallet.sol\":6869:6878  _recordId */\n      dup8\n        /* \"contracts/HealthWallet.sol\":6861:6879  records[_recordId] */\n      dup2\n      mstore\n      0x20\n      add\n      swap1\n      dup2\n      mstore\n      0x20\n      add\n      0x00\n      keccak256\n        /* \"contracts/HealthWallet.sol\":6831:6879  HealthRecord storage record = records[_recordId] */\n      swap1\n      pop\n        /* \"contracts/HealthWallet.sol\":6908:6920  _newIpfsHash */\n      dup5\n        /* \"contracts/HealthWallet.sol\":6890:6896  record */\n      dup2\n        /* \"contracts/HealthWallet.sol\":6890:6905  record.ipfsHash */\n      0x02\n      add\n        /* \"contracts/HealthWallet.sol\":6890:6920  record.ipfsHash = _newIpfsHash */\n      swap1\n      dup2\n      tag_196\n      swap2\n      swap1\n      tag_158\n      jump\t// in\n    tag_196:\n      pop\n        /* \"contracts/HealthWallet.sol\":6953:6969  _newEncryptedKey */\n      dup4\n        /* \"contracts/HealthWallet.sol\":6931:6937  record */\n      dup2\n        /* \"contracts/HealthWallet.sol\":6931:6950  record.encryptedKey */\n      0x06\n      add\n        /* \"contracts/HealthWallet.sol\":6931:6969  record.encryptedKey = _newEncryptedKey */\n      swap1\n      dup2\n      tag_197\n      swap2\n      swap1\n      tag_158\n      jump\t// in\n    tag_197:\n      pop\n        /* \"contracts/HealthWallet.sol\":6980:6986  record */\n      dup1\n        /* \"contracts/HealthWallet.sol\":6980:6994  record.version */\n      0x07\n      add\n      0x00\n        /* \"contracts/HealthWallet.sol\":6980:6996  record.version++ */\n      dup2\n      sload\n      dup1\n      swap3\n      swap2\n      swap1\n      tag_198\n      swap1\n      tag_154\n      jump\t// in\n    tag_198:\n      swap2\n      swap1\n      pop\n      sstore\n      pop\n        /* \"contracts/HealthWallet.sol\":7036:7045  _recordId */\n      dup6\n        /* \"contracts/HealthWallet.sol\":7022:7076  RecordUpdated(_recordId, _newIpfsHash, record.version) */\n      0x088d9e16504277bf999412471e756eedf1ab2491c6a6399c9d349d3fea6d70cf\n        /* \"contracts/HealthWallet.sol\":7047:7059  _newIpfsHash */\n      dup7\n        /* \"contracts/HealthWallet.sol\":7061:7067  record */\n      dup4\n        /* \"contracts/HealthWallet.sol\":7061:7075  record.version */\n      0x07\n      add\n      sload\n        /* \"contracts/HealthWallet.sol\":7022:7076  RecordUpdated(_recordId, _newIpfsHash, record.version) */\n      mload(0x40)\n      tag_199\n      swap3\n      swap2\n      swap1\n      tag_200\n      jump\t// in\n    tag_199:\n      mload(0x40)\n      dup1\n      swap2\n      sub\n      swap1\n      log2\n        /* \"contracts/HealthWallet.sol\":6820:7084  {... */\n      pop\n        /* \"contracts/HealthWallet.sol\":3450:3451  _ */\n      pop\n        /* \"contracts/HealthWallet.sol\":6631:7084  function updateRecord(... */\n      pop\n      pop\n      pop\n      pop\n      jump\t// out\n        /* \"contracts/HealthWallet.sol\":11162:11568  function logAccess(uint256 _recordId, string memory _action) ... */\n    tag_62:\n        /* \"contracts/HealthWallet.sol\":11263:11272  _recordId */\n      dup2\n        /* \"contracts/HealthWallet.sol\":3782:3783  0 */\n      0x00\n        /* \"contracts/HealthWallet.sol\":3770:3779  _recordId */\n      dup2\n        /* \"contracts/HealthWallet.sol\":3770:3783  _recordId > 0 */\n      gt\n        /* \"contracts/HealthWallet.sol\":3770:3813  _recordId > 0 && _recordId <= recordCounter */\n      dup1\n      iszero\n      tag_202\n      jumpi\n      pop\n        /* \"contracts/HealthWallet.sol\":3800:3813  recordCounter */\n      sload(0x05)\n        /* \"contracts/HealthWallet.sol\":3787:3796  _recordId */\n      dup2\n        /* \"contracts/HealthWallet.sol\":3787:3813  _recordId <= recordCounter */\n      gt\n      iszero\n        /* \"contracts/HealthWallet.sol\":3770:3813  _recordId > 0 && _recordId <= recordCounter */\n    tag_202:\n        /* \"contracts/HealthWallet.sol\":3762:3839  require(_recordId > 0 && _recordId <= recordCounter, \"Record does not exist\") */\n      tag_203\n      jumpi\n      mload(0x40)\n      0x08c379a000000000000000000000000000000000000000000000000000000000\n      dup2\n      mstore\n      0x04\n      add\n      tag_204\n      swap1\n      tag_110\n      jump\t// in\n    tag_204:\n      mload(0x40)\n      dup1\n      swap2\n      sub\n      swap1\n      revert\n    tag_203:\n        /* \"contracts/HealthWallet.sol\":3858:3865  records */\n      0x01\n        /* \"contracts/HealthWallet.sol\":3858:3876  records[_recordId] */\n      0x00\n        /* \"contracts/HealthWallet.sol\":3866:3875  _recordId */\n      dup3\n        /* \"contracts/HealthWallet.sol\":3858:3876  records[_recordId] */\n      dup2\n      mstore\n      0x20\n      add\n      swap1\n      dup2\n      mstore\n      0x20\n      add\n      0x00\n      keccak256\n        /* \"contracts/HealthWallet.sol\":3858:3885  records[_recordId].isActive */\n      0x05\n      add\n      0x14\n      swap1\n      sload\n      swap1\n      0x0100\n      exp\n      swap1\n      div\n      0xff\n      and\n        /* \"contracts/HealthWallet.sol\":3850:3910  require(records[_recordId].isActive, \"Record is not active\") */\n      tag_205\n      jumpi\n      mload(0x40)\n      0x08c379a000000000000000000000000000000000000000000000000000000000\n      dup2\n      mstore\n      0x04\n      add\n      tag_206\n      swap1\n      tag_113\n      jump\t// in\n    tag_206:\n      mload(0x40)\n      dup1\n      swap2\n      sub\n      swap1\n      revert\n    tag_205:\n        /* \"contracts/HealthWallet.sol\":11298:11307  _recordId */\n      dup3\n        /* \"contracts/HealthWallet.sol\":3547:3614  hasAccess(records[_recordId].patientAddress, msg.sender, _recordId) */\n      tag_208\n        /* \"contracts/HealthWallet.sol\":3557:3564  records */\n      0x01\n        /* \"contracts/HealthWallet.sol\":3557:3575  records[_recordId] */\n      0x00\n        /* \"contracts/HealthWallet.sol\":3565:3574  _recordId */\n      dup4\n        /* \"contracts/HealthWallet.sol\":3557:3575  records[_recordId] */\n      dup2\n      mstore\n      0x20\n      add\n      swap1\n      dup2\n      mstore\n      0x20\n      add\n      0x00\n      keccak256\n        /* \"contracts/HealthWallet.sol\":3557:3590  records[_recordId].patientAddress */\n      0x01\n      add\n      0x00\n      swap1\n      sload\n      swap1\n      0x0100\n      exp\n      swap1\n      div\n      0xffffffffffffffffffffffffffffffffffffffff\n      and\n        /* \"contracts/HealthWallet.sol\":3592:3602  msg.sender */\n      caller\n        /* \"contracts/HealthWallet.sol\":3604:3613  _recordId */\n      dup4\n        /* \"contracts/HealthWallet.sol\":3547:3556  hasAccess */\n      tag_87\n        /* \"contracts/HealthWallet.sol\":3547:3614  hasAccess(records[_recordId].patientAddress, msg.sender, _recordId) */\n      jump\t// in\n    tag_208:\n        /* \"contracts/HealthWallet.sol\":3525:3678  require(... */\n      tag_209\n      jumpi\n      mload(0x40)\n      0x08c379a000000000000000000000000000000000000000000000000000000000\n      dup2\n      mstore\n      0x04\n      add\n      tag_210\n      swap1\n      tag_118\n      jump\t// in\n    tag_210:\n      mload(0x40)\n      dup1\n      swap2\n      sub\n      swap1\n      revert\n    tag_209:\n        /* \"contracts/HealthWallet.sol\":11325:11334  auditLogs */\n      0x03\n        /* \"contracts/HealthWallet.sol\":11325:11345  auditLogs[_recordId] */\n      0x00\n        /* \"contracts/HealthWallet.sol\":11335:11344  _recordId */\n      dup6\n        /* \"contracts/HealthWallet.sol\":11325:11345  auditLogs[_recordId] */\n      dup2\n      mstore\n      0x20\n      add\n      swap1\n      dup2\n      mstore\n      0x20\n      add\n      0x00\n      keccak256\n        /* \"contracts/HealthWallet.sol\":11351:11479  AccessLog({... */\n      mload(0x40)\n      dup1\n      0x60\n      add\n      0x40\n      mstore\n      dup1\n        /* \"contracts/HealthWallet.sol\":11386:11396  msg.sender */\n      caller\n        /* \"contracts/HealthWallet.sol\":11351:11479  AccessLog({... */\n      0xffffffffffffffffffffffffffffffffffffffff\n      and\n      dup2\n      mstore\n      0x20\n      add\n        /* \"contracts/HealthWallet.sol\":11422:11437  block.timestamp */\n      timestamp\n        /* \"contracts/HealthWallet.sol\":11351:11479  AccessLog({... */\n      dup2\n      mstore\n      0x20\n      add\n        /* \"contracts/HealthWallet.sol\":11460:11467  _action */\n      dup6\n        /* \"contracts/HealthWallet.sol\":11351:11479  AccessLog({... */\n      dup2\n      mstore\n      pop\n        /* \"contracts/HealthWallet.sol\":11325:11480  auditLogs[_recordId].push(AccessLog({... */\n      swap1\n      dup1\n      0x01\n      dup2\n      sload\n      add\n      dup1\n      dup3\n      sstore\n      dup1\n      swap2\n      pop\n      pop\n      0x01\n      swap1\n      sub\n      swap1\n      0x00\n      mstore\n      keccak256(0x00, 0x20)\n      swap1\n      0x03\n      mul\n      add\n      0x00\n      swap1\n      swap2\n      swap1\n      swap2\n      swap1\n      swap2\n      pop\n      0x00\n      dup3\n      add\n      mload\n      dup2\n      0x00\n      add\n      exp(0x0100, 0x00)\n      dup2\n      sload\n      dup2\n      0xffffffffffffffffffffffffffffffffffffffff\n      mul\n      not\n      and\n      swap1\n      dup4\n      0xffffffffffffffffffffffffffffffffffffffff\n      and\n      mul\n      or\n      swap1\n      sstore\n      pop\n      0x20\n      dup3\n      add\n      mload\n      dup2\n      0x01\n      add\n      sstore\n      0x40\n      dup3\n      add\n      mload\n      dup2\n      0x02\n      add\n      swap1\n      dup2\n      tag_213\n      swap2\n      swap1\n      tag_158\n      jump\t// in\n    tag_213:\n      pop\n      pop\n      pop\n        /* \"contracts/HealthWallet.sol\":11532:11542  msg.sender */\n      caller\n        /* \"contracts/HealthWallet.sol\":11506:11560  RecordAccessed(_recordId, msg.sender, block.timestamp) */\n      0xffffffffffffffffffffffffffffffffffffffff\n      and\n        /* \"contracts/HealthWallet.sol\":11521:11530  _recordId */\n      dup5\n        /* \"contracts/HealthWallet.sol\":11506:11560  RecordAccessed(_recordId, msg.sender, block.timestamp) */\n      0xdec39eb35dc9ca96737e4515f8a70f5db122e248213ee947b996e1f678ab05b8\n        /* \"contracts/HealthWallet.sol\":11544:11559  block.timestamp */\n      timestamp\n        /* \"contracts/HealthWallet.sol\":11506:11560  RecordAccessed(_recordId, msg.sender, block.timestamp) */\n      mload(0x40)\n      tag_214\n      swap2\n      swap1\n      tag_38\n      jump\t// in\n    tag_214:\n      mload(0x40)\n      dup1\n      swap2\n      sub\n      swap1\n      log3\n        /* \"contracts/HealthWallet.sol\":3921:3922  _ */\n      pop\n        /* \"contracts/HealthWallet.sol\":11162:11568  function logAccess(uint256 _recordId, string memory _action) ... */\n      pop\n      pop\n      pop\n      jump\t// out\n        /* \"contracts/HealthWallet.sol\":8799:9056  function revokeAccess(address _grantee) public {... */\n    tag_65:\n        /* \"contracts/HealthWallet.sol\":8865:8877  accessGrants */\n      0x02\n        /* \"contracts/HealthWallet.sol\":8865:8889  accessGrants[msg.sender] */\n      0x00\n        /* \"contracts/HealthWallet.sol\":8878:8888  msg.sender */\n      caller\n        /* \"contracts/HealthWallet.sol\":8865:8889  accessGrants[msg.sender] */\n      0xffffffffffffffffffffffffffffffffffffffff\n      and\n      0xffffffffffffffffffffffffffffffffffffffff\n      and\n      dup2\n      mstore\n      0x20\n      add\n      swap1\n      dup2\n      mstore\n      0x20\n      add\n      0x00\n      keccak256\n        /* \"contracts/HealthWallet.sol\":8865:8899  accessGrants[msg.sender][_grantee] */\n      0x00\n        /* \"contracts/HealthWallet.sol\":8890:8898  _grantee */\n      dup3\n        /* \"contracts/HealthWallet.sol\":8865:8899  accessGrants[msg.sender][_grantee] */\n      0xffffffffffffffffffffffffffffffffffffffff\n      and\n      0xffffffffffffffffffffffffffffffffffffffff\n      and\n      dup2\n      mstore\n      0x20\n      add\n      swap1\n      dup2\n      mstore\n      0x20\n      add\n      0x00\n      keccak256\n        /* \"contracts/HealthWallet.sol\":8865:8908  accessGrants[msg.sender][_grantee].isActive */\n      0x03\n      add\n      0x00\n      swap1\n      sload\n      swap1\n      0x0100\n      exp\n      swap1\n      div\n      0xff\n      and\n        /* \"contracts/HealthWallet.sol\":8857:8935  require(accessGrants[msg.sender][_grantee].isActive, \"No active access grant\") */\n      tag_216\n      jumpi\n      mload(0x40)\n      0x08c379a000000000000000000000000000000000000000000000000000000000\n      dup2\n      mstore\n      0x04\n      add\n      tag_217\n      swap1\n      tag_218\n      jump\t// in\n    tag_217:\n      mload(0x40)\n      dup1\n      swap2\n      sub\n      swap1\n      revert\n    tag_216:\n        /* \"contracts/HealthWallet.sol\":8992:8997  false */\n      0x00\n        /* \"contracts/HealthWallet.sol\":8946:8958  accessGrants */\n      0x02\n        /* \"contracts/HealthWallet.sol\":8946:8970  accessGrants[msg.sender] */\n      0x00\n        /* \"contracts/HealthWallet.sol\":8959:8969  msg.sender */\n      caller\n        /* \"contracts/HealthWallet.sol\":8946:8970  accessGrants[msg.sender] */\n      0xffffffffffffffffffffffffffffffffffffffff\n      and\n      0xffffffffffffffffffffffffffffffffffffffff\n      and\n      dup2\n      mstore\n      0x20\n      add\n      swap1\n      dup2\n      mstore\n      0x20\n      add\n      0x00\n      keccak256\n        /* \"contracts/HealthWallet.sol\":8946:8980  accessGrants[msg.sender][_grantee] */\n      0x00\n        /* \"contracts/HealthWallet.sol\":8971:8979  _grantee */\n      dup4\n        /* \"contracts/HealthWallet.sol\":8946:8980  accessGrants[msg.sender][_grantee] */\n      0xffffffffffffffffffffffffffffffffffffffff\n      and\n      0xffffffffffffffffffffffffffffffffffffffff\n      and\n      dup2\n      mstore\n      0x20\n      add\n      swap1\n      dup2\n      mstore\n      0x20\n      add\n      0x00\n      keccak256\n        /* \"contracts/HealthWallet.sol\":8946:8989  accessGrants[msg.sender][_grantee].isActive */\n      0x03\n      add\n      0x00\n        /* \"contracts/HealthWallet.sol\":8946:8997  accessGrants[msg.sender][_grantee].isActive = false */\n      0x0100\n      exp\n      dup2\n      sload\n      dup2\n      0xff\n      mul\n      not\n      and\n      swap1\n      dup4\n      iszero\n      iszero\n      mul\n      or\n      swap1\n      sstore\n      pop\n        /* \"contracts/HealthWallet.sol\":9039:9047  _grantee */\n      dup1\n        /* \"contracts/HealthWallet.sol\":9013:9048  AccessRevoked(msg.sender, _grantee) */\n      0xffffffffffffffffffffffffffffffffffffffff\n      and\n        /* \"contracts/HealthWallet.sol\":9027:9037  msg.sender */\n      caller\n        /* \"contracts/HealthWallet.sol\":9013:9048  AccessRevoked(msg.sender, _grantee) */\n      0xffffffffffffffffffffffffffffffffffffffff\n      and\n      0x825c8be24eb0df19500f63e86c29e7d0d951e73056b889b891d85e40938d9b6e\n      mload(0x40)\n      mload(0x40)\n      dup1\n      swap2\n      sub\n      swap1\n      log3\n        /* \"contracts/HealthWallet.sol\":8799:9056  function revokeAccess(address _grantee) public {... */\n      pop\n      jump\t// out\n        /* \"contracts/HealthWallet.sol\":13035:13353  function getAccessGrant(address _patient, address _grantee) ... */\n    tag_69:\n        /* \"contracts/HealthWallet.sol\":13146:13164  AccessGrant memory */\n      tag_219\n      tag_220\n      jump\t// in\n    tag_219:\n        /* \"contracts/HealthWallet.sol\":13219:13227  _patient */\n      dup3\n        /* \"contracts/HealthWallet.sol\":13205:13227  msg.sender == _patient */\n      0xffffffffffffffffffffffffffffffffffffffff\n      and\n        /* \"contracts/HealthWallet.sol\":13205:13215  msg.sender */\n      caller\n        /* \"contracts/HealthWallet.sol\":13205:13227  msg.sender == _patient */\n      0xffffffffffffffffffffffffffffffffffffffff\n      and\n      eq\n        /* \"contracts/HealthWallet.sol\":13205:13253  msg.sender == _patient || msg.sender == _grantee */\n      dup1\n      tag_222\n      jumpi\n      pop\n        /* \"contracts/HealthWallet.sol\":13245:13253  _grantee */\n      dup2\n        /* \"contracts/HealthWallet.sol\":13231:13253  msg.sender == _grantee */\n      0xffffffffffffffffffffffffffffffffffffffff\n      and\n        /* \"contracts/HealthWallet.sol\":13231:13241  msg.sender */\n      caller\n        /* \"contracts/HealthWallet.sol\":13231:13253  msg.sender == _grantee */\n      0xffffffffffffffffffffffffffffffffffffffff\n      and\n      eq\n        /* \"contracts/HealthWallet.sol\":13205:13253  msg.sender == _patient || msg.sender == _grantee */\n    tag_222:\n        /* \"contracts/HealthWallet.sol\":13183:13295  require(... */\n      tag_223\n      jumpi\n      mload(0x40)\n      0x08c379a000000000000000000000000000000000000000000000000000000000\n      dup2\n      mstore\n      0x04\n      add\n      tag_224\n      swap1\n      tag_171\n      jump\t// in\n    tag_224:\n      mload(0x40)\n      dup1\n      swap2\n      sub\n      swap1\n      revert\n    tag_223:\n        /* \"contracts/HealthWallet.sol\":13313:13325  accessGrants */\n      0x02\n        /* \"contracts/HealthWallet.sol\":13313:13335  accessGrants[_patient] */\n      0x00\n        /* \"contracts/HealthWallet.sol\":13326:13334  _patient */\n      dup5\n        /* \"contracts/HealthWallet.sol\":13313:13335  accessGrants[_patient] */\n      0xffffffffffffffffffffffffffffffffffffffff\n      and\n      0xffffffffffffffffffffffffffffffffffffffff\n      and\n      dup2\n      mstore\n      0x20\n      add\n      swap1\n      dup2\n      mstore\n      0x20\n      add\n      0x00\n      keccak256\n        /* \"contracts/HealthWallet.sol\":13313:13345  accessGrants[_patient][_grantee] */\n      0x00\n        /* \"contracts/HealthWallet.sol\":13336:13344  _grantee */\n      dup4\n        /* \"contracts/HealthWallet.sol\":13313:13345  accessGrants[_patient][_grantee] */\n      0xffffffffffffffffffffffffffffffffffffffff\n      and\n      0xffffffffffffffffffffffffffffffffffffffff\n      and\n      dup2\n      mstore\n      0x20\n      add\n      swap1\n      dup2\n      mstore\n      0x20\n      add\n      0x00\n      keccak256\n        /* \"contracts/HealthWallet.sol\":13306:13345  return accessGrants[_patient][_grantee] */\n      mload(0x40)\n      dup1\n      0xa0\n      add\n      0x40\n      mstore\n      swap1\n      dup2\n      0x00\n      dup3\n      add\n      0x00\n      swap1\n      sload\n      swap1\n      0x0100\n      exp\n      swap1\n      div\n      0xffffffffffffffffffffffffffffffffffffffff\n      and\n      0xffffffffffffffffffffffffffffffffffffffff\n      and\n      0xffffffffffffffffffffffffffffffffffffffff\n      and\n      dup2\n      mstore\n      0x20\n      add\n      0x01\n      dup3\n      add\n      dup1\n      sload\n      dup1\n      0x20\n      mul\n      0x20\n      add\n      mload(0x40)\n      swap1\n      dup2\n      add\n      0x40\n      mstore\n      dup1\n      swap3\n      swap2\n      swap1\n      dup2\n      dup2\n      mstore\n      0x20\n      add\n      dup3\n      dup1\n      sload\n      dup1\n      iszero\n      tag_225\n      jumpi\n      0x20\n      mul\n      dup3\n      add\n      swap2\n      swap1\n      0x00\n      mstore\n      keccak256(0x00, 0x20)\n      swap1\n    tag_226:\n      dup2\n      sload\n      dup2\n      mstore\n      0x20\n      add\n      swap1\n      0x01\n      add\n      swap1\n      dup1\n      dup4\n      gt\n      tag_226\n      jumpi\n    tag_225:\n      pop\n      pop\n      pop\n      pop\n      pop\n      dup2\n      mstore\n      0x20\n      add\n      0x02\n      dup3\n      add\n      sload\n      dup2\n      mstore\n      0x20\n      add\n      0x03\n      dup3\n      add\n      0x00\n      swap1\n      sload\n      swap1\n      0x0100\n      exp\n      swap1\n      div\n      0xff\n      and\n      iszero\n      iszero\n      iszero\n      iszero\n      dup2\n      mstore\n      0x20\n      add\n      0x04\n      dup3\n      add\n      sload\n      dup2\n      mstore\n      pop\n      pop\n      swap1\n      pop\n        /* \"contracts/HealthWallet.sol\":13035:13353  function getAccessGrant(address _patient, address _grantee) ... */\n      swap3\n      swap2\n      pop\n      pop\n      jump\t// out\n        /* \"contracts/HealthWallet.sol\":12066:12266  function setEmergencyContact(address _emergencyContact) public {... */\n    tag_74:\n        /* \"contracts/HealthWallet.sol\":12177:12178  0 */\n      0x00\n        /* \"contracts/HealthWallet.sol\":12148:12179  _emergencyContact != address(0) */\n      0xffffffffffffffffffffffffffffffffffffffff\n      and\n        /* \"contracts/HealthWallet.sol\":12148:12165  _emergencyContact */\n      dup2\n        /* \"contracts/HealthWallet.sol\":12148:12179  _emergencyContact != address(0) */\n      0xffffffffffffffffffffffffffffffffffffffff\n      and\n      sub\n        /* \"contracts/HealthWallet.sol\":12140:12199  require(_emergencyContact != address(0), \"Invalid address\") */\n      tag_228\n      jumpi\n      mload(0x40)\n      0x08c379a000000000000000000000000000000000000000000000000000000000\n      dup2\n      mstore\n      0x04\n      add\n      tag_229\n      swap1\n      tag_230\n      jump\t// in\n    tag_229:\n      mload(0x40)\n      dup1\n      swap2\n      sub\n      swap1\n      revert\n    tag_228:\n        /* \"contracts/HealthWallet.sol\":12241:12258  _emergencyContact */\n      dup1\n        /* \"contracts/HealthWallet.sol\":12210:12226  emergencyContact */\n      0x04\n        /* \"contracts/HealthWallet.sol\":12210:12238  emergencyContact[msg.sender] */\n      0x00\n        /* \"contracts/HealthWallet.sol\":12227:12237  msg.sender */\n      caller\n        /* \"contracts/HealthWallet.sol\":12210:12238  emergencyContact[msg.sender] */\n      0xffffffffffffffffffffffffffffffffffffffff\n      and\n      0xffffffffffffffffffffffffffffffffffffffff\n      and\n      dup2\n      mstore\n      0x20\n      add\n      swap1\n      dup2\n      mstore\n      0x20\n      add\n      0x00\n      keccak256\n      0x00\n        /* \"contracts/HealthWallet.sol\":12210:12258  emergencyContact[msg.sender] = _emergencyContact */\n      0x0100\n      exp\n      dup2\n      sload\n      dup2\n      0xffffffffffffffffffffffffffffffffffffffff\n      mul\n      not\n      and\n      swap1\n      dup4\n      0xffffffffffffffffffffffffffffffffffffffff\n      and\n      mul\n      or\n      swap1\n      sstore\n      pop\n        /* \"contracts/HealthWallet.sol\":12066:12266  function setEmergencyContact(address _emergencyContact) public {... */\n      pop\n      jump\t// out\n        /* \"contracts/HealthWallet.sol\":7671:8661  function grantAccess(... */\n    tag_78:\n        /* \"contracts/HealthWallet.sol\":7844:7845  0 */\n      0x00\n        /* \"contracts/HealthWallet.sol\":7824:7846  _grantee != address(0) */\n      0xffffffffffffffffffffffffffffffffffffffff\n      and\n        /* \"contracts/HealthWallet.sol\":7824:7832  _grantee */\n      dup4\n        /* \"contracts/HealthWallet.sol\":7824:7846  _grantee != address(0) */\n      0xffffffffffffffffffffffffffffffffffffffff\n      and\n      sub\n        /* \"contracts/HealthWallet.sol\":7816:7866  require(_grantee != address(0), \"Invalid address\") */\n      tag_232\n      jumpi\n      mload(0x40)\n      0x08c379a000000000000000000000000000000000000000000000000000000000\n      dup2\n      mstore\n      0x04\n      add\n      tag_233\n      swap1\n      tag_230\n      jump\t// in\n    tag_233:\n      mload(0x40)\n      dup1\n      swap2\n      sub\n      swap1\n      revert\n    tag_232:\n        /* \"contracts/HealthWallet.sol\":7905:7906  0 */\n      0x00\n        /* \"contracts/HealthWallet.sol\":7885:7895  _recordIds */\n      dup3\n        /* \"contracts/HealthWallet.sol\":7885:7902  _recordIds.length */\n      mload\n        /* \"contracts/HealthWallet.sol\":7885:7906  _recordIds.length > 0 */\n      gt\n        /* \"contracts/HealthWallet.sol\":7877:7951  require(_recordIds.length > 0, \"Must grant access to at least one record\") */\n      tag_234\n      jumpi\n      mload(0x40)\n      0x08c379a000000000000000000000000000000000000000000000000000000000\n      dup2\n      mstore\n      0x04\n      add\n      tag_235\n      swap1\n      tag_236\n      jump\t// in\n    tag_235:\n      mload(0x40)\n      dup1\n      swap2\n      sub\n      swap1\n      revert\n    tag_234:\n        /* \"contracts/HealthWallet.sol\":8021:8027  uint i */\n      0x00\n        /* \"contracts/HealthWallet.sol\":8030:8031  0 */\n      0x00\n        /* \"contracts/HealthWallet.sol\":8021:8031  uint i = 0 */\n      swap1\n      pop\n        /* \"contracts/HealthWallet.sol\":8016:8236  for (uint i = 0; i < _recordIds.length; i++) {... */\n    tag_237:\n        /* \"contracts/HealthWallet.sol\":8037:8047  _recordIds */\n      dup3\n        /* \"contracts/HealthWallet.sol\":8037:8054  _recordIds.length */\n      mload\n        /* \"contracts/HealthWallet.sol\":8033:8034  i */\n      dup2\n        /* \"contracts/HealthWallet.sol\":8033:8054  i < _recordIds.length */\n      lt\n        /* \"contracts/HealthWallet.sol\":8016:8236  for (uint i = 0; i < _recordIds.length; i++) {... */\n      iszero\n      tag_238\n      jumpi\n        /* \"contracts/HealthWallet.sol\":8143:8153  msg.sender */\n      caller\n        /* \"contracts/HealthWallet.sol\":8102:8153  records[_recordIds[i]].patientAddress == msg.sender */\n      0xffffffffffffffffffffffffffffffffffffffff\n      and\n        /* \"contracts/HealthWallet.sol\":8102:8109  records */\n      0x01\n        /* \"contracts/HealthWallet.sol\":8102:8124  records[_recordIds[i]] */\n      0x00\n        /* \"contracts/HealthWallet.sol\":8110:8120  _recordIds */\n      dup6\n        /* \"contracts/HealthWallet.sol\":8121:8122  i */\n      dup5\n        /* \"contracts/HealthWallet.sol\":8110:8123  _recordIds[i] */\n      dup2\n      mload\n      dup2\n      lt\n      tag_240\n      jumpi\n      tag_241\n      tag_242\n      jump\t// in\n    tag_241:\n    tag_240:\n      0x20\n      mul\n      0x20\n      add\n      add\n      mload\n        /* \"contracts/HealthWallet.sol\":8102:8124  records[_recordIds[i]] */\n      dup2\n      mstore\n      0x20\n      add\n      swap1\n      dup2\n      mstore\n      0x20\n      add\n      0x00\n      keccak256\n        /* \"contracts/HealthWallet.sol\":8102:8139  records[_recordIds[i]].patientAddress */\n      0x01\n      add\n      0x00\n      swap1\n      sload\n      swap1\n      0x0100\n      exp\n      swap1\n      div\n      0xffffffffffffffffffffffffffffffffffffffff\n      and\n        /* \"contracts/HealthWallet.sol\":8102:8153  records[_recordIds[i]].patientAddress == msg.sender */\n      0xffffffffffffffffffffffffffffffffffffffff\n      and\n      eq\n        /* \"contracts/HealthWallet.sol\":8076:8224  require(... */\n      tag_243\n      jumpi\n      mload(0x40)\n      0x08c379a000000000000000000000000000000000000000000000000000000000\n      dup2\n      mstore\n      0x04\n      add\n      tag_244\n      swap1\n      tag_245\n      jump\t// in\n    tag_244:\n      mload(0x40)\n      dup1\n      swap2\n      sub\n      swap1\n      revert\n    tag_243:\n        /* \"contracts/HealthWallet.sol\":8056:8059  i++ */\n      dup1\n      dup1\n      0x01\n      add\n      swap2\n      pop\n      pop\n        /* \"contracts/HealthWallet.sol\":8016:8236  for (uint i = 0; i < _recordIds.length; i++) {... */\n      jump(tag_237)\n    tag_238:\n      pop\n        /* \"contracts/HealthWallet.sol\":8256:8274  uint256 expiryTime */\n      0x00\n        /* \"contracts/HealthWallet.sol\":8314:8320  1 days */\n      0x015180\n        /* \"contracts/HealthWallet.sol\":8296:8311  _durationInDays */\n      dup3\n        /* \"contracts/HealthWallet.sol\":8296:8320  _durationInDays * 1 days */\n      tag_246\n      swap2\n      swap1\n      tag_247\n      jump\t// in\n    tag_246:\n        /* \"contracts/HealthWallet.sol\":8277:8292  block.timestamp */\n      timestamp\n        /* \"contracts/HealthWallet.sol\":8277:8321  block.timestamp + (_durationInDays * 1 days) */\n      tag_248\n      swap2\n      swap1\n      tag_249\n      jump\t// in\n    tag_248:\n        /* \"contracts/HealthWallet.sol\":8256:8321  uint256 expiryTime = block.timestamp + (_durationInDays * 1 days) */\n      swap1\n      pop\n        /* \"contracts/HealthWallet.sol\":8379:8580  AccessGrant({... */\n      mload(0x40)\n      dup1\n      0xa0\n      add\n      0x40\n      mstore\n      dup1\n        /* \"contracts/HealthWallet.sol\":8417:8425  _grantee */\n      dup6\n        /* \"contracts/HealthWallet.sol\":8379:8580  AccessGrant({... */\n      0xffffffffffffffffffffffffffffffffffffffff\n      and\n      dup2\n      mstore\n      0x20\n      add\n        /* \"contracts/HealthWallet.sol\":8451:8461  _recordIds */\n      dup5\n        /* \"contracts/HealthWallet.sol\":8379:8580  AccessGrant({... */\n      dup2\n      mstore\n      0x20\n      add\n        /* \"contracts/HealthWallet.sol\":8488:8498  expiryTime */\n      dup3\n        /* \"contracts/HealthWallet.sol\":8379:8580  AccessGrant({... */\n      dup2\n      mstore\n      0x20\n      add\n        /* \"contracts/HealthWallet.sol\":8523:8527  true */\n      0x01\n        /* \"contracts/HealthWallet.sol\":8379:8580  AccessGrant({... */\n      iszero\n      iszero\n      dup2\n      mstore\n      0x20\n      add\n        /* \"contracts/HealthWallet.sol\":8553:8568  block.timestamp */\n      timestamp\n        /* \"contracts/HealthWallet.sol\":8379:8580  AccessGrant({... */\n      dup2\n      mstore\n      pop\n        /* \"contracts/HealthWallet.sol\":8342:8354  accessGrants */\n      0x02\n        /* \"contracts/HealthWallet.sol\":8342:8366  accessGrants[msg.sender] */\n      0x00\n        /* \"contracts/HealthWallet.sol\":8355:8365  msg.sender */\n      caller\n        /* \"contracts/HealthWallet.sol\":8342:8366  accessGrants[msg.sender] */\n      0xffffffffffffffffffffffffffffffffffffffff\n      and\n      0xffffffffffffffffffffffffffffffffffffffff\n      and\n      dup2\n      mstore\n      0x20\n      add\n      swap1\n      dup2\n      mstore\n      0x20\n      add\n      0x00\n      keccak256\n        /* \"contracts/HealthWallet.sol\":8342:8376  accessGrants[msg.sender][_grantee] */\n      0x00\n        /* \"contracts/HealthWallet.sol\":8367:8375  _grantee */\n      dup7\n        /* \"contracts/HealthWallet.sol\":8342:8376  accessGrants[msg.sender][_grantee] */\n      0xffffffffffffffffffffffffffffffffffffffff\n      and\n      0xffffffffffffffffffffffffffffffffffffffff\n      and\n      dup2\n      mstore\n      0x20\n      add\n      swap1\n      dup2\n      mstore\n      0x20\n      add\n      0x00\n      keccak256\n        /* \"contracts/HealthWallet.sol\":8342:8580  accessGrants[msg.sender][_grantee] = AccessGrant({... */\n      0x00\n      dup3\n      add\n      mload\n      dup2\n      0x00\n      add\n      exp(0x0100, 0x00)\n      dup2\n      sload\n      dup2\n      0xffffffffffffffffffffffffffffffffffffffff\n      mul\n      not\n      and\n      swap1\n      dup4\n      0xffffffffffffffffffffffffffffffffffffffff\n      and\n      mul\n      or\n      swap1\n      sstore\n      pop\n      0x20\n      dup3\n      add\n      mload\n      dup2\n      0x01\n      add\n      swap1\n      dup1\n      mload\n      swap1\n      0x20\n      add\n      swap1\n      tag_250\n      swap3\n      swap2\n      swap1\n      tag_251\n      jump\t// in\n    tag_250:\n      pop\n      0x40\n      dup3\n      add\n      mload\n      dup2\n      0x02\n      add\n      sstore\n      0x60\n      dup3\n      add\n      mload\n      dup2\n      0x03\n      add\n      exp(0x0100, 0x00)\n      dup2\n      sload\n      dup2\n      0xff\n      mul\n      not\n      and\n      swap1\n      dup4\n      iszero\n      iszero\n      mul\n      or\n      swap1\n      sstore\n      pop\n      0x80\n      dup3\n      add\n      mload\n      dup2\n      0x04\n      add\n      sstore\n      swap1\n      pop\n      pop\n        /* \"contracts/HealthWallet.sol\":8632:8640  _grantee */\n      dup4\n        /* \"contracts/HealthWallet.sol\":8606:8653  AccessGranted(msg.sender, _grantee, expiryTime) */\n      0xffffffffffffffffffffffffffffffffffffffff\n      and\n        /* \"contracts/HealthWallet.sol\":8620:8630  msg.sender */\n      caller\n        /* \"contracts/HealthWallet.sol\":8606:8653  AccessGranted(msg.sender, _grantee, expiryTime) */\n      0xffffffffffffffffffffffffffffffffffffffff\n      and\n      0x65d0cc1e52d49938ca4ad9f423c79c1b84d914b9a683fbc5d3f93ac3cc5635f5\n        /* \"contracts/HealthWallet.sol\":8642:8652  expiryTime */\n      dup4\n        /* \"contracts/HealthWallet.sol\":8606:8653  AccessGranted(msg.sender, _grantee, expiryTime) */\n      mload(0x40)\n      tag_252\n      swap2\n      swap1\n      tag_38\n      jump\t// in\n    tag_252:\n      mload(0x40)\n      dup1\n      swap2\n      sub\n      swap1\n      log3\n        /* \"contracts/HealthWallet.sol\":7805:8661  {... */\n      pop\n        /* \"contracts/HealthWallet.sol\":7671:8661  function grantAccess(... */\n      pop\n      pop\n      pop\n      jump\t// out\n        /* \"contracts/HealthWallet.sol\":2182:2233  mapping(address => address) public emergencyContact */\n    tag_81:\n      mstore(0x20, 0x04)\n      dup1\n      0x00\n      mstore\n      keccak256(0x00, 0x40)\n      0x00\n      swap2\n      pop\n      sload\n      swap1\n      0x0100\n      exp\n      swap1\n      div\n      0xffffffffffffffffffffffffffffffffffffffff\n      and\n      dup2\n      jump\t// out\n        /* \"contracts/HealthWallet.sol\":9347:10148  function hasAccess(... */\n    tag_87:\n        /* \"contracts/HealthWallet.sol\":9478:9482  bool */\n      0x00\n        /* \"contracts/HealthWallet.sol\":9570:9580  _requester */\n      dup3\n        /* \"contracts/HealthWallet.sol\":9558:9580  _patient == _requester */\n      0xffffffffffffffffffffffffffffffffffffffff\n      and\n        /* \"contracts/HealthWallet.sol\":9558:9566  _patient */\n      dup5\n        /* \"contracts/HealthWallet.sol\":9558:9580  _patient == _requester */\n      0xffffffffffffffffffffffffffffffffffffffff\n      and\n      sub\n        /* \"contracts/HealthWallet.sol\":9554:9593  if (_patient == _requester) return true */\n      tag_254\n      jumpi\n        /* \"contracts/HealthWallet.sol\":9589:9593  true */\n      0x01\n        /* \"contracts/HealthWallet.sol\":9582:9593  return true */\n      swap1\n      pop\n      jump(tag_253)\n        /* \"contracts/HealthWallet.sol\":9554:9593  if (_patient == _requester) return true */\n    tag_254:\n        /* \"contracts/HealthWallet.sol\":9691:9701  _requester */\n      dup3\n        /* \"contracts/HealthWallet.sol\":9661:9701  emergencyContact[_patient] == _requester */\n      0xffffffffffffffffffffffffffffffffffffffff\n      and\n        /* \"contracts/HealthWallet.sol\":9661:9677  emergencyContact */\n      0x04\n        /* \"contracts/HealthWallet.sol\":9661:9687  emergencyContact[_patient] */\n      0x00\n        /* \"contracts/HealthWallet.sol\":9678:9686  _patient */\n      dup7\n        /* \"contracts/HealthWallet.sol\":9661:9687  emergencyContact[_patient] */\n      0xffffffffffffffffffffffffffffffffffffffff\n      and\n      0xffffffffffffffffffffffffffffffffffffffff\n      and\n      dup2\n      mstore\n      0x20\n      add\n      swap1\n      dup2\n      mstore\n      0x20\n      add\n      0x00\n      keccak256\n      0x00\n      swap1\n      sload\n      swap1\n      0x0100\n      exp\n      swap1\n      div\n      0xffffffffffffffffffffffffffffffffffffffff\n      and\n        /* \"contracts/HealthWallet.sol\":9661:9701  emergencyContact[_patient] == _requester */\n      0xffffffffffffffffffffffffffffffffffffffff\n      and\n      sub\n        /* \"contracts/HealthWallet.sol\":9657:9714  if (emergencyContact[_patient] == _requester) return true */\n      tag_255\n      jumpi\n        /* \"contracts/HealthWallet.sol\":9710:9714  true */\n      0x01\n        /* \"contracts/HealthWallet.sol\":9703:9714  return true */\n      swap1\n      pop\n      jump(tag_253)\n        /* \"contracts/HealthWallet.sol\":9657:9714  if (emergencyContact[_patient] == _requester) return true */\n    tag_255:\n        /* \"contracts/HealthWallet.sol\":9735:9759  AccessGrant memory grant */\n      0x00\n        /* \"contracts/HealthWallet.sol\":9762:9774  accessGrants */\n      0x02\n        /* \"contracts/HealthWallet.sol\":9762:9784  accessGrants[_patient] */\n      0x00\n        /* \"contracts/HealthWallet.sol\":9775:9783  _patient */\n      dup7\n        /* \"contracts/HealthWallet.sol\":9762:9784  accessGrants[_patient] */\n      0xffffffffffffffffffffffffffffffffffffffff\n      and\n      0xffffffffffffffffffffffffffffffffffffffff\n      and\n      dup2\n      mstore\n      0x20\n      add\n      swap1\n      dup2\n      mstore\n      0x20\n      add\n      0x00\n      keccak256\n        /* \"contracts/HealthWallet.sol\":9762:9796  accessGrants[_patient][_requester] */\n      0x00\n        /* \"contracts/HealthWallet.sol\":9785:9795  _requester */\n      dup6\n        /* \"contracts/HealthWallet.sol\":9762:9796  accessGrants[_patient][_requester] */\n      0xffffffffffffffffffffffffffffffffffffffff\n      and\n      0xffffffffffffffffffffffffffffffffffffffff\n      and\n      dup2\n      mstore\n      0x20\n      add\n      swap1\n      dup2\n      mstore\n      0x20\n      add\n      0x00\n      keccak256\n        /* \"contracts/HealthWallet.sol\":9735:9796  AccessGrant memory grant = accessGrants[_patient][_requester] */\n      mload(0x40)\n      dup1\n      0xa0\n      add\n      0x40\n      mstore\n      swap1\n      dup2\n      0x00\n      dup3\n      add\n      0x00\n      swap1\n      sload\n      swap1\n      0x0100\n      exp\n      swap1\n      div\n      0xffffffffffffffffffffffffffffffffffffffff\n      and\n      0xffffffffffffffffffffffffffffffffffffffff\n      and\n      0xffffffffffffffffffffffffffffffffffffffff\n      and\n      dup2\n      mstore\n      0x20\n      add\n      0x01\n      dup3\n      add\n      dup1\n      sload\n      dup1\n      0x20\n      mul\n      0x20\n      add\n      mload(0x40)\n      swap1\n      dup2\n      add\n      0x40\n      mstore\n      dup1\n      swap3\n      swap2\n      swap1\n      dup2\n      dup2\n      mstore\n      0x20\n      add\n      dup3\n      dup1\n      sload\n      dup1\n      iszero\n      tag_256\n      jumpi\n      0x20\n      mul\n      dup3\n      add\n      swap2\n      swap1\n      0x00\n      mstore\n      keccak256(0x00, 0x20)\n      swap1\n    tag_257:\n      dup2\n      sload\n      dup2\n      mstore\n      0x20\n      add\n      swap1\n      0x01\n      add\n      swap1\n      dup1\n      dup4\n      gt\n      tag_257\n      jumpi\n    tag_256:\n      pop\n      pop\n      pop\n      pop\n      pop\n      dup2\n      mstore\n      0x20\n      add\n      0x02\n      dup3\n      add\n      sload\n      dup2\n      mstore\n      0x20\n      add\n      0x03\n      dup3\n      add\n      0x00\n      swap1\n      sload\n      swap1\n      0x0100\n      exp\n      swap1\n      div\n      0xff\n      and\n      iszero\n      iszero\n      iszero\n      iszero\n      dup2\n      mstore\n      0x20\n      add\n      0x04\n      dup3\n      add\n      sload\n      dup2\n      mstore\n      pop\n      pop\n      swap1\n      pop\n        /* \"contracts/HealthWallet.sol\":9822:9827  grant */\n      dup1\n        /* \"contracts/HealthWallet.sol\":9822:9836  grant.isActive */\n      0x60\n      add\n      mload\n        /* \"contracts/HealthWallet.sol\":9817:9850  if (!grant.isActive) return false */\n      tag_258\n      jumpi\n        /* \"contracts/HealthWallet.sol\":9845:9850  false */\n      0x00\n        /* \"contracts/HealthWallet.sol\":9838:9850  return false */\n      swap2\n      pop\n      pop\n      jump(tag_253)\n        /* \"contracts/HealthWallet.sol\":9817:9850  if (!grant.isActive) return false */\n    tag_258:\n        /* \"contracts/HealthWallet.sol\":9883:9888  grant */\n      dup1\n        /* \"contracts/HealthWallet.sol\":9883:9899  grant.expiryTime */\n      0x40\n      add\n      mload\n        /* \"contracts/HealthWallet.sol\":9865:9880  block.timestamp */\n      timestamp\n        /* \"contracts/HealthWallet.sol\":9865:9899  block.timestamp > grant.expiryTime */\n      gt\n        /* \"contracts/HealthWallet.sol\":9861:9913  if (block.timestamp > grant.expiryTime) return false */\n      iszero\n      tag_259\n      jumpi\n        /* \"contracts/HealthWallet.sol\":9908:9913  false */\n      0x00\n        /* \"contracts/HealthWallet.sol\":9901:9913  return false */\n      swap2\n      pop\n      pop\n      jump(tag_253)\n        /* \"contracts/HealthWallet.sol\":9861:9913  if (block.timestamp > grant.expiryTime) return false */\n    tag_259:\n        /* \"contracts/HealthWallet.sol\":9988:9994  uint i */\n      0x00\n        /* \"contracts/HealthWallet.sol\":9997:9998  0 */\n      0x00\n        /* \"contracts/HealthWallet.sol\":9988:9998  uint i = 0 */\n      swap1\n      pop\n        /* \"contracts/HealthWallet.sol\":9983:10108  for (uint i = 0; i < grant.recordIds.length; i++) {... */\n    tag_260:\n        /* \"contracts/HealthWallet.sol\":10004:10009  grant */\n      dup2\n        /* \"contracts/HealthWallet.sol\":10004:10019  grant.recordIds */\n      0x20\n      add\n      mload\n        /* \"contracts/HealthWallet.sol\":10004:10026  grant.recordIds.length */\n      mload\n        /* \"contracts/HealthWallet.sol\":10000:10001  i */\n      dup2\n        /* \"contracts/HealthWallet.sol\":10000:10026  i < grant.recordIds.length */\n      lt\n        /* \"contracts/HealthWallet.sol\":9983:10108  for (uint i = 0; i < grant.recordIds.length; i++) {... */\n      iszero\n      tag_261\n      jumpi\n        /* \"contracts/HealthWallet.sol\":10074:10083  _recordId */\n      dup4\n        /* \"contracts/HealthWallet.sol\":10052:10057  grant */\n      dup3\n        /* \"contracts/HealthWallet.sol\":10052:10067  grant.recordIds */\n      0x20\n      add\n      mload\n        /* \"contracts/HealthWallet.sol\":10068:10069  i */\n      dup3\n        /* \"contracts/HealthWallet.sol\":10052:10070  grant.recordIds[i] */\n      dup2\n      mload\n      dup2\n      lt\n      tag_263\n      jumpi\n      tag_264\n      tag_242\n      jump\t// in\n    tag_264:\n    tag_263:\n      0x20\n      mul\n      0x20\n      add\n      add\n      mload\n        /* \"contracts/HealthWallet.sol\":10052:10083  grant.recordIds[i] == _recordId */\n      sub\n        /* \"contracts/HealthWallet.sol\":10048:10096  if (grant.recordIds[i] == _recordId) return true */\n      tag_265\n      jumpi\n        /* \"contracts/HealthWallet.sol\":10092:10096  true */\n      0x01\n        /* \"contracts/HealthWallet.sol\":10085:10096  return true */\n      swap3\n      pop\n      pop\n      pop\n      jump(tag_253)\n        /* \"contracts/HealthWallet.sol\":10048:10096  if (grant.recordIds[i] == _recordId) return true */\n    tag_265:\n        /* \"contracts/HealthWallet.sol\":10028:10031  i++ */\n      dup1\n      dup1\n      0x01\n      add\n      swap2\n      pop\n      pop\n        /* \"contracts/HealthWallet.sol\":9983:10108  for (uint i = 0; i < grant.recordIds.length; i++) {... */\n      jump(tag_260)\n    tag_261:\n      pop\n        /* \"contracts/HealthWallet.sol\":10135:10140  false */\n      0x00\n        /* \"contracts/HealthWallet.sol\":10128:10140  return false */\n      swap2\n      pop\n      pop\n        /* \"contracts/HealthWallet.sol\":9347:10148  function hasAccess(... */\n    tag_253:\n      swap4\n      swap3\n      pop\n      pop\n      pop\n      jump\t// out\n        /* \"contracts/HealthWallet.sol\":12494:12852  function hasGeneralAccess(address _patient, address _requester) ... */\n    tag_168:\n        /* \"contracts/HealthWallet.sol\":12611:12615  bool */\n      0x00\n        /* \"contracts/HealthWallet.sol\":12668:12678  _requester */\n      dup2\n        /* \"contracts/HealthWallet.sol\":12638:12678  emergencyContact[_patient] == _requester */\n      0xffffffffffffffffffffffffffffffffffffffff\n      and\n        /* \"contracts/HealthWallet.sol\":12638:12654  emergencyContact */\n      0x04\n        /* \"contracts/HealthWallet.sol\":12638:12664  emergencyContact[_patient] */\n      0x00\n        /* \"contracts/HealthWallet.sol\":12655:12663  _patient */\n      dup6\n        /* \"contracts/HealthWallet.sol\":12638:12664  emergencyContact[_patient] */\n      0xffffffffffffffffffffffffffffffffffffffff\n      and\n      0xffffffffffffffffffffffffffffffffffffffff\n      and\n      dup2\n      mstore\n      0x20\n      add\n      swap1\n      dup2\n      mstore\n      0x20\n      add\n      0x00\n      keccak256\n      0x00\n      swap1\n      sload\n      swap1\n      0x0100\n      exp\n      swap1\n      div\n      0xffffffffffffffffffffffffffffffffffffffff\n      and\n        /* \"contracts/HealthWallet.sol\":12638:12678  emergencyContact[_patient] == _requester */\n      0xffffffffffffffffffffffffffffffffffffffff\n      and\n      sub\n        /* \"contracts/HealthWallet.sol\":12634:12691  if (emergencyContact[_patient] == _requester) return true */\n      tag_267\n      jumpi\n        /* \"contracts/HealthWallet.sol\":12687:12691  true */\n      0x01\n        /* \"contracts/HealthWallet.sol\":12680:12691  return true */\n      swap1\n      pop\n      jump(tag_266)\n        /* \"contracts/HealthWallet.sol\":12634:12691  if (emergencyContact[_patient] == _requester) return true */\n    tag_267:\n        /* \"contracts/HealthWallet.sol\":12712:12736  AccessGrant memory grant */\n      0x00\n        /* \"contracts/HealthWallet.sol\":12739:12751  accessGrants */\n      0x02\n        /* \"contracts/HealthWallet.sol\":12739:12761  accessGrants[_patient] */\n      0x00\n        /* \"contracts/HealthWallet.sol\":12752:12760  _patient */\n      dup6\n        /* \"contracts/HealthWallet.sol\":12739:12761  accessGrants[_patient] */\n      0xffffffffffffffffffffffffffffffffffffffff\n      and\n      0xffffffffffffffffffffffffffffffffffffffff\n      and\n      dup2\n      mstore\n      0x20\n      add\n      swap1\n      dup2\n      mstore\n      0x20\n      add\n      0x00\n      keccak256\n        /* \"contracts/HealthWallet.sol\":12739:12773  accessGrants[_patient][_requester] */\n      0x00\n        /* \"contracts/HealthWallet.sol\":12762:12772  _requester */\n      dup5\n        /* \"contracts/HealthWallet.sol\":12739:12773  accessGrants[_patient][_requester] */\n      0xffffffffffffffffffffffffffffffffffffffff\n      and\n      0xffffffffffffffffffffffffffffffffffffffff\n      and\n      dup2\n      mstore\n      0x20\n      add\n      swap1\n      dup2\n      mstore\n      0x20\n      add\n      0x00\n      keccak256\n        /* \"contracts/HealthWallet.sol\":12712:12773  AccessGrant memory grant = accessGrants[_patient][_requester] */\n      mload(0x40)\n      dup1\n      0xa0\n      add\n      0x40\n      mstore\n      swap1\n      dup2\n      0x00\n      dup3\n      add\n      0x00\n      swap1\n      sload\n      swap1\n      0x0100\n      exp\n      swap1\n      div\n      0xffffffffffffffffffffffffffffffffffffffff\n      and\n      0xffffffffffffffffffffffffffffffffffffffff\n      and\n      0xffffffffffffffffffffffffffffffffffffffff\n      and\n      dup2\n      mstore\n      0x20\n      add\n      0x01\n      dup3\n      add\n      dup1\n      sload\n      dup1\n      0x20\n      mul\n      0x20\n      add\n      mload(0x40)\n      swap1\n      dup2\n      add\n      0x40\n      mstore\n      dup1\n      swap3\n      swap2\n      swap1\n      dup2\n      dup2\n      mstore\n      0x20\n      add\n      dup3\n      dup1\n      sload\n      dup1\n      iszero\n      tag_268\n      jumpi\n      0x20\n      mul\n      dup3\n      add\n      swap2\n      swap1\n      0x00\n      mstore\n      keccak256(0x00, 0x20)\n      swap1\n    tag_269:\n      dup2\n      sload\n      dup2\n      mstore\n      0x20\n      add\n      swap1\n      0x01\n      add\n      swap1\n      dup1\n      dup4\n      gt\n      tag_269\n      jumpi\n    tag_268:\n      pop\n      pop\n      pop\n      pop\n      pop\n      dup2\n      mstore\n      0x20\n      add\n      0x02\n      dup3\n      add\n      sload\n      dup2\n      mstore\n      0x20\n      add\n      0x03\n      dup3\n      add\n      0x00\n      swap1\n      sload\n      swap1\n      0x0100\n      exp\n      swap1\n      div\n      0xff\n      and\n      iszero\n      iszero\n      iszero\n      iszero\n      dup2\n      mstore\n      0x20\n      add\n      0x04\n      dup3\n      add\n      sload\n      dup2\n      mstore\n      pop\n      pop\n      swap1\n      pop\n        /* \"contracts/HealthWallet.sol\":12791:12796  grant */\n      dup1\n        /* \"contracts/HealthWallet.sol\":12791:12805  grant.isActive */\n      0x60\n      add\n      mload\n        /* \"contracts/HealthWallet.sol\":12791:12844  grant.isActive && block.timestamp <= grant.expiryTime */\n      dup1\n      iszero\n      tag_270\n      jumpi\n      pop\n        /* \"contracts/HealthWallet.sol\":12828:12833  grant */\n      dup1\n        /* \"contracts/HealthWallet.sol\":12828:12844  grant.expiryTime */\n      0x40\n      add\n      mload\n        /* \"contracts/HealthWallet.sol\":12809:12824  block.timestamp */\n      timestamp\n        /* \"contracts/HealthWallet.sol\":12809:12844  block.timestamp <= grant.expiryTime */\n      gt\n      iszero\n        /* \"contracts/HealthWallet.sol\":12791:12844  grant.isActive && block.timestamp <= grant.expiryTime */\n    tag_270:\n        /* \"contracts/HealthWallet.sol\":12784:12844  return grant.isActive && block.timestamp <= grant.expiryTime */\n      swap2\n      pop\n      pop\n        /* \"contracts/HealthWallet.sol\":12494:12852  function hasGeneralAccess(address _patient, address _requester) ... */\n    tag_266:\n      swap3\n      swap2\n      pop\n      pop\n      jump\t// out\n    tag_105:\n      mload(0x40)\n      dup1\n      0x0120\n      add\n      0x40\n      mstore\n      dup1\n      0x00\n      dup2\n      mstore\n      0x20\n      add\n      and(0xffffffffffffffffffffffffffffffffffffffff, 0x00)\n      dup2\n      mstore\n      0x20\n      add\n      0x60\n      dup2\n      mstore\n      0x20\n      add\n      0x00\n      0x05\n      dup2\n      gt\n      iszero\n      tag_271\n      jumpi\n      tag_272\n      tag_127\n      jump\t// in\n    tag_272:\n    tag_271:\n      dup2\n      mstore\n      0x20\n      add\n      0x00\n      dup2\n      mstore\n      0x20\n      add\n      and(0xffffffffffffffffffffffffffffffffffffffff, 0x00)\n      dup2\n      mstore\n      0x20\n      add\n      iszero(iszero(0x00))\n      dup2\n      mstore\n      0x20\n      add\n      0x60\n      dup2\n      mstore\n      0x20\n      add\n      0x00\n      dup2\n      mstore\n      pop\n      swap1\n      jump\t// out\n    tag_220:\n      mload(0x40)\n      dup1\n      0xa0\n      add\n      0x40\n      mstore\n      dup1\n      and(0xffffffffffffffffffffffffffffffffffffffff, 0x00)\n      dup2\n      mstore\n      0x20\n      add\n      0x60\n      dup2\n      mstore\n      0x20\n      add\n      0x00\n      dup2\n      mstore\n      0x20\n      add\n      iszero(iszero(0x00))\n      dup2\n      mstore\n      0x20\n      add\n      0x00\n      dup2\n      mstore\n      pop\n      swap1\n      jump\t// out\n    tag_251:\n      dup3\n      dup1\n      sload\n      dup3\n      dup3\n      sstore\n      swap1\n      0x00\n      mstore\n      keccak256(0x00, 0x20)\n      swap1\n      dup2\n      add\n      swap3\n      dup3\n      iszero\n      tag_273\n      jumpi\n      swap2\n      0x20\n      mul\n      dup3\n      add\n    tag_274:\n      dup3\n      dup2\n      gt\n      iszero\n      tag_275\n      jumpi\n      dup3\n      mload\n      dup3\n      sstore\n      swap2\n      0x20\n      add\n      swap2\n      swap1\n      0x01\n      add\n      swap1\n      jump(tag_274)\n    tag_275:\n    tag_273:\n      pop\n      swap1\n      pop\n      tag_276\n      swap2\n      swap1\n      tag_277\n      jump\t// in\n    tag_276:\n      pop\n      swap1\n      jump\t// out\n    tag_277:\n    tag_278:\n      dup1\n      dup3\n      gt\n      iszero\n      tag_279\n      jumpi\n      0x00\n      dup2\n      0x00\n      swap1\n      sstore\n      pop\n      0x01\n      add\n      jump(tag_278)\n    tag_279:\n      pop\n      swap1\n      jump\t// out\n        /* \"#utility.yul\":7:82   */\n    tag_280:\n        /* \"#utility.yul\":40:46   */\n      0x00\n        /* \"#utility.yul\":73:75   */\n      0x40\n        /* \"#utility.yul\":67:76   */\n      mload\n        /* \"#utility.yul\":57:76   */\n      swap1\n      pop\n        /* \"#utility.yul\":7:82   */\n      swap1\n      jump\t// out\n        /* \"#utility.yul\":88:205   */\n    tag_281:\n        /* \"#utility.yul\":197:198   */\n      0x00\n        /* \"#utility.yul\":194:195   */\n      0x00\n        /* \"#utility.yul\":187:199   */\n      revert\n        /* \"#utility.yul\":211:328   */\n    tag_282:\n        /* \"#utility.yul\":320:321   */\n      0x00\n        /* \"#utility.yul\":317:318   */\n      0x00\n        /* \"#utility.yul\":310:322   */\n      revert\n        /* \"#utility.yul\":334:411   */\n    tag_283:\n        /* \"#utility.yul\":371:378   */\n      0x00\n        /* \"#utility.yul\":400:405   */\n      dup2\n        /* \"#utility.yul\":389:405   */\n      swap1\n      pop\n        /* \"#utility.yul\":334:411   */\n      swap2\n      swap1\n      pop\n      jump\t// out\n        /* \"#utility.yul\":417:539   */\n    tag_284:\n        /* \"#utility.yul\":490:514   */\n      tag_386\n        /* \"#utility.yul\":508:513   */\n      dup2\n        /* \"#utility.yul\":490:514   */\n      tag_283\n      jump\t// in\n    tag_386:\n        /* \"#utility.yul\":483:488   */\n      dup2\n        /* \"#utility.yul\":480:515   */\n      eq\n        /* \"#utility.yul\":470:533   */\n      tag_387\n      jumpi\n        /* \"#utility.yul\":529:530   */\n      0x00\n        /* \"#utility.yul\":526:527   */\n      0x00\n        /* \"#utility.yul\":519:531   */\n      revert\n        /* \"#utility.yul\":470:533   */\n    tag_387:\n        /* \"#utility.yul\":417:539   */\n      pop\n      jump\t// out\n        /* \"#utility.yul\":545:684   */\n    tag_285:\n        /* \"#utility.yul\":591:596   */\n      0x00\n        /* \"#utility.yul\":629:635   */\n      dup2\n        /* \"#utility.yul\":616:636   */\n      calldataload\n        /* \"#utility.yul\":607:636   */\n      swap1\n      pop\n        /* \"#utility.yul\":645:678   */\n      tag_389\n        /* \"#utility.yul\":672:677   */\n      dup2\n        /* \"#utility.yul\":645:678   */\n      tag_284\n      jump\t// in\n    tag_389:\n        /* \"#utility.yul\":545:684   */\n      swap3\n      swap2\n      pop\n      pop\n      jump\t// out\n        /* \"#utility.yul\":690:1019   */\n    tag_23:\n        /* \"#utility.yul\":749:755   */\n      0x00\n        /* \"#utility.yul\":798:800   */\n      0x20\n        /* \"#utility.yul\":786:795   */\n      dup3\n        /* \"#utility.yul\":777:784   */\n      dup5\n        /* \"#utility.yul\":773:796   */\n      sub\n        /* \"#utility.yul\":769:801   */\n      slt\n        /* \"#utility.yul\":766:885   */\n      iszero\n      tag_391\n      jumpi\n        /* \"#utility.yul\":804:883   */\n      tag_392\n      tag_281\n      jump\t// in\n    tag_392:\n        /* \"#utility.yul\":766:885   */\n    tag_391:\n        /* \"#utility.yul\":924:925   */\n      0x00\n        /* \"#utility.yul\":949:1002   */\n      tag_393\n        /* \"#utility.yul\":994:1001   */\n      dup5\n        /* \"#utility.yul\":985:991   */\n      dup3\n        /* \"#utility.yul\":974:983   */\n      dup6\n        /* \"#utility.yul\":970:992   */\n      add\n        /* \"#utility.yul\":949:1002   */\n      tag_285\n      jump\t// in\n    tag_393:\n        /* \"#utility.yul\":939:1002   */\n      swap2\n      pop\n        /* \"#utility.yul\":895:1012   */\n      pop\n        /* \"#utility.yul\":690:1019   */\n      swap3\n      swap2\n      pop\n      pop\n      jump\t// out\n        /* \"#utility.yul\":1025:1164   */\n    tag_286:\n        /* \"#utility.yul\":1117:1123   */\n      0x00\n        /* \"#utility.yul\":1151:1156   */\n      dup2\n        /* \"#utility.yul\":1145:1157   */\n      mload\n        /* \"#utility.yul\":1135:1157   */\n      swap1\n      pop\n        /* \"#utility.yul\":1025:1164   */\n      swap2\n      swap1\n      pop\n      jump\t// out\n        /* \"#utility.yul\":1170:1379   */\n    tag_287:\n        /* \"#utility.yul\":1294:1305   */\n      0x00\n        /* \"#utility.yul\":1328:1334   */\n      dup3\n        /* \"#utility.yul\":1323:1326   */\n      dup3\n        /* \"#utility.yul\":1316:1335   */\n      mstore\n        /* \"#utility.yul\":1368:1372   */\n      0x20\n        /* \"#utility.yul\":1363:1366   */\n      dup3\n        /* \"#utility.yul\":1359:1373   */\n      add\n        /* \"#utility.yul\":1344:1373   */\n      swap1\n      pop\n        /* \"#utility.yul\":1170:1379   */\n      swap3\n      swap2\n      pop\n      pop\n      jump\t// out\n        /* \"#utility.yul\":1385:1542   */\n    tag_288:\n        /* \"#utility.yul\":1477:1481   */\n      0x00\n        /* \"#utility.yul\":1500:1503   */\n      dup2\n        /* \"#utility.yul\":1492:1503   */\n      swap1\n      pop\n        /* \"#utility.yul\":1530:1534   */\n      0x20\n        /* \"#utility.yul\":1525:1528   */\n      dup3\n        /* \"#utility.yul\":1521:1535   */\n      add\n        /* \"#utility.yul\":1513:1535   */\n      swap1\n      pop\n        /* \"#utility.yul\":1385:1542   */\n      swap2\n      swap1\n      pop\n      jump\t// out\n        /* \"#utility.yul\":1548:1674   */\n    tag_289:\n        /* \"#utility.yul\":1585:1592   */\n      0x00\n        /* \"#utility.yul\":1625:1667   */\n      0xffffffffffffffffffffffffffffffffffffffff\n        /* \"#utility.yul\":1618:1623   */\n      dup3\n        /* \"#utility.yul\":1614:1668   */\n      and\n        /* \"#utility.yul\":1603:1668   */\n      swap1\n      pop\n        /* \"#utility.yul\":1548:1674   */\n      swap2\n      swap1\n      pop\n      jump\t// out\n        /* \"#utility.yul\":1680:1776   */\n    tag_290:\n        /* \"#utility.yul\":1717:1724   */\n      0x00\n        /* \"#utility.yul\":1746:1770   */\n      tag_399\n        /* \"#utility.yul\":1764:1769   */\n      dup3\n        /* \"#utility.yul\":1746:1770   */\n      tag_289\n      jump\t// in\n    tag_399:\n        /* \"#utility.yul\":1735:1770   */\n      swap1\n      pop\n        /* \"#utility.yul\":1680:1776   */\n      swap2\n      swap1\n      pop\n      jump\t// out\n        /* \"#utility.yul\":1782:1890   */\n    tag_291:\n        /* \"#utility.yul\":1859:1883   */\n      tag_401\n        /* \"#utility.yul\":1877:1882   */\n      dup2\n        /* \"#utility.yul\":1859:1883   */\n      tag_290\n      jump\t// in\n    tag_401:\n        /* \"#utility.yul\":1854:1857   */\n      dup3\n        /* \"#utility.yul\":1847:1884   */\n      mstore\n        /* \"#utility.yul\":1782:1890   */\n      pop\n      pop\n      jump\t// out\n        /* \"#utility.yul\":1896:2004   */\n    tag_292:\n        /* \"#utility.yul\":1973:1997   */\n      tag_403\n        /* \"#utility.yul\":1991:1996   */\n      dup2\n        /* \"#utility.yul\":1973:1997   */\n      tag_283\n      jump\t// in\n    tag_403:\n        /* \"#utility.yul\":1968:1971   */\n      dup3\n        /* \"#utility.yul\":1961:1998   */\n      mstore\n        /* \"#utility.yul\":1896:2004   */\n      pop\n      pop\n      jump\t// out\n        /* \"#utility.yul\":2010:2109   */\n    tag_293:\n        /* \"#utility.yul\":2062:2068   */\n      0x00\n        /* \"#utility.yul\":2096:2101   */\n      dup2\n        /* \"#utility.yul\":2090:2102   */\n      mload\n        /* \"#utility.yul\":2080:2102   */\n      swap1\n      pop\n        /* \"#utility.yul\":2010:2109   */\n      swap2\n      swap1\n      pop\n      jump\t// out\n        /* \"#utility.yul\":2115:2274   */\n    tag_294:\n        /* \"#utility.yul\":2189:2200   */\n      0x00\n        /* \"#utility.yul\":2223:2229   */\n      dup3\n        /* \"#utility.yul\":2218:2221   */\n      dup3\n        /* \"#utility.yul\":2211:2230   */\n      mstore\n        /* \"#utility.yul\":2263:2267   */\n      0x20\n        /* \"#utility.yul\":2258:2261   */\n      dup3\n        /* \"#utility.yul\":2254:2268   */\n      add\n        /* \"#utility.yul\":2239:2268   */\n      swap1\n      pop\n        /* \"#utility.yul\":2115:2274   */\n      swap3\n      swap2\n      pop\n      pop\n      jump\t// out\n        /* \"#utility.yul\":2280:2419   */\n    tag_295:\n        /* \"#utility.yul\":2369:2375   */\n      dup3\n        /* \"#utility.yul\":2364:2367   */\n      dup2\n        /* \"#utility.yul\":2359:2362   */\n      dup4\n        /* \"#utility.yul\":2353:2376   */\n      mcopy\n        /* \"#utility.yul\":2410:2411   */\n      0x00\n        /* \"#utility.yul\":2401:2407   */\n      dup4\n        /* \"#utility.yul\":2396:2399   */\n      dup4\n        /* \"#utility.yul\":2392:2408   */\n      add\n        /* \"#utility.yul\":2385:2412   */\n      mstore\n        /* \"#utility.yul\":2280:2419   */\n      pop\n      pop\n      pop\n      jump\t// out\n        /* \"#utility.yul\":2425:2527   */\n    tag_296:\n        /* \"#utility.yul\":2466:2472   */\n      0x00\n        /* \"#utility.yul\":2517:2519   */\n      0x1f\n        /* \"#utility.yul\":2513:2520   */\n      not\n        /* \"#utility.yul\":2508:2510   */\n      0x1f\n        /* \"#utility.yul\":2501:2506   */\n      dup4\n        /* \"#utility.yul\":2497:2511   */\n      add\n        /* \"#utility.yul\":2493:2521   */\n      and\n        /* \"#utility.yul\":2483:2521   */\n      swap1\n      pop\n        /* \"#utility.yul\":2425:2527   */\n      swap2\n      swap1\n      pop\n      jump\t// out\n        /* \"#utility.yul\":2533:2890   */\n    tag_297:\n        /* \"#utility.yul\":2611:2614   */\n      0x00\n        /* \"#utility.yul\":2639:2678   */\n      tag_409\n        /* \"#utility.yul\":2672:2677   */\n      dup3\n        /* \"#utility.yul\":2639:2678   */\n      tag_293\n      jump\t// in\n    tag_409:\n        /* \"#utility.yul\":2694:2755   */\n      tag_410\n        /* \"#utility.yul\":2748:2754   */\n      dup2\n        /* \"#utility.yul\":2743:2746   */\n      dup6\n        /* \"#utility.yul\":2694:2755   */\n      tag_294\n      jump\t// in\n    tag_410:\n        /* \"#utility.yul\":2687:2755   */\n      swap4\n      pop\n        /* \"#utility.yul\":2764:2829   */\n      tag_411\n        /* \"#utility.yul\":2822:2828   */\n      dup2\n        /* \"#utility.yul\":2817:2820   */\n      dup6\n        /* \"#utility.yul\":2810:2814   */\n      0x20\n        /* \"#utility.yul\":2803:2808   */\n      dup7\n        /* \"#utility.yul\":2799:2815   */\n      add\n        /* \"#utility.yul\":2764:2829   */\n      tag_295\n      jump\t// in\n    tag_411:\n        /* \"#utility.yul\":2854:2883   */\n      tag_412\n        /* \"#utility.yul\":2876:2882   */\n      dup2\n        /* \"#utility.yul\":2854:2883   */\n      tag_296\n      jump\t// in\n    tag_412:\n        /* \"#utility.yul\":2849:2852   */\n      dup5\n        /* \"#utility.yul\":2845:2884   */\n      add\n        /* \"#utility.yul\":2838:2884   */\n      swap2\n      pop\n        /* \"#utility.yul\":2615:2890   */\n      pop\n        /* \"#utility.yul\":2533:2890   */\n      swap3\n      swap2\n      pop\n      pop\n      jump\t// out\n        /* \"#utility.yul\":2966:3747   */\n    tag_298:\n        /* \"#utility.yul\":3075:3078   */\n      0x00\n        /* \"#utility.yul\":3111:3115   */\n      0x60\n        /* \"#utility.yul\":3106:3109   */\n      dup4\n        /* \"#utility.yul\":3102:3116   */\n      add\n        /* \"#utility.yul\":3202:3206   */\n      0x00\n        /* \"#utility.yul\":3195:3200   */\n      dup4\n        /* \"#utility.yul\":3191:3207   */\n      add\n        /* \"#utility.yul\":3185:3208   */\n      mload\n        /* \"#utility.yul\":3221:3284   */\n      tag_414\n        /* \"#utility.yul\":3278:3282   */\n      0x00\n        /* \"#utility.yul\":3273:3276   */\n      dup7\n        /* \"#utility.yul\":3269:3283   */\n      add\n        /* \"#utility.yul\":3255:3267   */\n      dup3\n        /* \"#utility.yul\":3221:3284   */\n      tag_291\n      jump\t// in\n    tag_414:\n        /* \"#utility.yul\":3126:3294   */\n      pop\n        /* \"#utility.yul\":3381:3385   */\n      0x20\n        /* \"#utility.yul\":3374:3379   */\n      dup4\n        /* \"#utility.yul\":3370:3386   */\n      add\n        /* \"#utility.yul\":3364:3387   */\n      mload\n        /* \"#utility.yul\":3400:3463   */\n      tag_415\n        /* \"#utility.yul\":3457:3461   */\n      0x20\n        /* \"#utility.yul\":3452:3455   */\n      dup7\n        /* \"#utility.yul\":3448:3462   */\n      add\n        /* \"#utility.yul\":3434:3446   */\n      dup3\n        /* \"#utility.yul\":3400:3463   */\n      tag_292\n      jump\t// in\n    tag_415:\n        /* \"#utility.yul\":3304:3473   */\n      pop\n        /* \"#utility.yul\":3557:3561   */\n      0x40\n        /* \"#utility.yul\":3550:3555   */\n      dup4\n        /* \"#utility.yul\":3546:3562   */\n      add\n        /* \"#utility.yul\":3540:3563   */\n      mload\n        /* \"#utility.yul\":3610:3613   */\n      dup5\n        /* \"#utility.yul\":3604:3608   */\n      dup3\n        /* \"#utility.yul\":3600:3614   */\n      sub\n        /* \"#utility.yul\":3593:3597   */\n      0x40\n        /* \"#utility.yul\":3588:3591   */\n      dup7\n        /* \"#utility.yul\":3584:3598   */\n      add\n        /* \"#utility.yul\":3577:3615   */\n      mstore\n        /* \"#utility.yul\":3636:3709   */\n      tag_416\n        /* \"#utility.yul\":3704:3708   */\n      dup3\n        /* \"#utility.yul\":3690:3702   */\n      dup3\n        /* \"#utility.yul\":3636:3709   */\n      tag_297\n      jump\t// in\n    tag_416:\n        /* \"#utility.yul\":3628:3709   */\n      swap2\n      pop\n        /* \"#utility.yul\":3483:3720   */\n      pop\n        /* \"#utility.yul\":3737:3741   */\n      dup1\n        /* \"#utility.yul\":3730:3741   */\n      swap2\n      pop\n        /* \"#utility.yul\":3080:3747   */\n      pop\n        /* \"#utility.yul\":2966:3747   */\n      swap3\n      swap2\n      pop\n      pop\n      jump\t// out\n        /* \"#utility.yul\":3753:4009   */\n    tag_299:\n        /* \"#utility.yul\":3872:3882   */\n      0x00\n        /* \"#utility.yul\":3907:4003   */\n      tag_418\n        /* \"#utility.yul\":3999:4002   */\n      dup4\n        /* \"#utility.yul\":3991:3997   */\n      dup4\n        /* \"#utility.yul\":3907:4003   */\n      tag_298\n      jump\t// in\n    tag_418:\n        /* \"#utility.yul\":3893:4003   */\n      swap1\n      pop\n        /* \"#utility.yul\":3753:4009   */\n      swap3\n      swap2\n      pop\n      pop\n      jump\t// out\n        /* \"#utility.yul\":4015:4153   */\n    tag_300:\n        /* \"#utility.yul\":4110:4114   */\n      0x00\n        /* \"#utility.yul\":4142:4146   */\n      0x20\n        /* \"#utility.yul\":4137:4140   */\n      dup3\n        /* \"#utility.yul\":4133:4147   */\n      add\n        /* \"#utility.yul\":4125:4147   */\n      swap1\n      pop\n        /* \"#utility.yul\":4015:4153   */\n      swap2\n      swap1\n      pop\n      jump\t// out\n        /* \"#utility.yul\":4233:5344   */\n    tag_301:\n        /* \"#utility.yul\":4402:4405   */\n      0x00\n        /* \"#utility.yul\":4431:4510   */\n      tag_421\n        /* \"#utility.yul\":4504:4509   */\n      dup3\n        /* \"#utility.yul\":4431:4510   */\n      tag_286\n      jump\t// in\n    tag_421:\n        /* \"#utility.yul\":4526:4637   */\n      tag_422\n        /* \"#utility.yul\":4630:4636   */\n      dup2\n        /* \"#utility.yul\":4625:4628   */\n      dup6\n        /* \"#utility.yul\":4526:4637   */\n      tag_287\n      jump\t// in\n    tag_422:\n        /* \"#utility.yul\":4519:4637   */\n      swap4\n      pop\n        /* \"#utility.yul\":4663:4666   */\n      dup4\n        /* \"#utility.yul\":4708:4712   */\n      0x20\n        /* \"#utility.yul\":4700:4706   */\n      dup3\n        /* \"#utility.yul\":4696:4713   */\n      mul\n        /* \"#utility.yul\":4691:4694   */\n      dup6\n        /* \"#utility.yul\":4687:4714   */\n      add\n        /* \"#utility.yul\":4738:4819   */\n      tag_423\n        /* \"#utility.yul\":4813:4818   */\n      dup6\n        /* \"#utility.yul\":4738:4819   */\n      tag_288\n      jump\t// in\n    tag_423:\n        /* \"#utility.yul\":4842:4849   */\n      dup1\n        /* \"#utility.yul\":4873:4874   */\n      0x00\n        /* \"#utility.yul\":4858:5299   */\n    tag_424:\n        /* \"#utility.yul\":4883:4889   */\n      dup6\n        /* \"#utility.yul\":4880:4881   */\n      dup2\n        /* \"#utility.yul\":4877:4890   */\n      lt\n        /* \"#utility.yul\":4858:5299   */\n      iszero\n      tag_426\n      jumpi\n        /* \"#utility.yul\":4954:4963   */\n      dup5\n        /* \"#utility.yul\":4948:4952   */\n      dup5\n        /* \"#utility.yul\":4944:4964   */\n      sub\n        /* \"#utility.yul\":4939:4942   */\n      dup10\n        /* \"#utility.yul\":4932:4965   */\n      mstore\n        /* \"#utility.yul\":5005:5011   */\n      dup2\n        /* \"#utility.yul\":4999:5012   */\n      mload\n        /* \"#utility.yul\":5033:5147   */\n      tag_427\n        /* \"#utility.yul\":5142:5146   */\n      dup6\n        /* \"#utility.yul\":5127:5140   */\n      dup3\n        /* \"#utility.yul\":5033:5147   */\n      tag_299\n      jump\t// in\n    tag_427:\n        /* \"#utility.yul\":5025:5147   */\n      swap5\n      pop\n        /* \"#utility.yul\":5170:5255   */\n      tag_428\n        /* \"#utility.yul\":5248:5254   */\n      dup4\n        /* \"#utility.yul\":5170:5255   */\n      tag_300\n      jump\t// in\n    tag_428:\n        /* \"#utility.yul\":5160:5255   */\n      swap3\n      pop\n        /* \"#utility.yul\":5284:5288   */\n      0x20\n        /* \"#utility.yul\":5279:5282   */\n      dup11\n        /* \"#utility.yul\":5275:5289   */\n      add\n        /* \"#utility.yul\":5268:5289   */\n      swap10\n      pop\n        /* \"#utility.yul\":4918:5299   */\n      pop\n        /* \"#utility.yul\":4905:4906   */\n      0x01\n        /* \"#utility.yul\":4902:4903   */\n      dup2\n        /* \"#utility.yul\":4898:4907   */\n      add\n        /* \"#utility.yul\":4893:4907   */\n      swap1\n      pop\n        /* \"#utility.yul\":4858:5299   */\n      jump(tag_424)\n    tag_426:\n        /* \"#utility.yul\":4862:4876   */\n      pop\n        /* \"#utility.yul\":5315:5319   */\n      dup3\n        /* \"#utility.yul\":5308:5319   */\n      swap8\n      pop\n        /* \"#utility.yul\":5335:5338   */\n      dup8\n        /* \"#utility.yul\":5328:5338   */\n      swap6\n      pop\n        /* \"#utility.yul\":4407:5344   */\n      pop\n      pop\n      pop\n      pop\n      pop\n        /* \"#utility.yul\":4233:5344   */\n      swap3\n      swap2\n      pop\n      pop\n      jump\t// out\n        /* \"#utility.yul\":5350:5823   */\n    tag_26:\n        /* \"#utility.yul\":5543:5547   */\n      0x00\n        /* \"#utility.yul\":5581:5583   */\n      0x20\n        /* \"#utility.yul\":5570:5579   */\n      dup3\n        /* \"#utility.yul\":5566:5584   */\n      add\n        /* \"#utility.yul\":5558:5584   */\n      swap1\n      pop\n        /* \"#utility.yul\":5630:5639   */\n      dup2\n        /* \"#utility.yul\":5624:5628   */\n      dup2\n        /* \"#utility.yul\":5620:5640   */\n      sub\n        /* \"#utility.yul\":5616:5617   */\n      0x00\n        /* \"#utility.yul\":5605:5614   */\n      dup4\n        /* \"#utility.yul\":5601:5618   */\n      add\n        /* \"#utility.yul\":5594:5641   */\n      mstore\n        /* \"#utility.yul\":5658:5816   */\n      tag_430\n        /* \"#utility.yul\":5811:5815   */\n      dup2\n        /* \"#utility.yul\":5802:5808   */\n      dup5\n        /* \"#utility.yul\":5658:5816   */\n      tag_301\n      jump\t// in\n    tag_430:\n        /* \"#utility.yul\":5650:5816   */\n      swap1\n      pop\n        /* \"#utility.yul\":5350:5823   */\n      swap3\n      swap2\n      pop\n      pop\n      jump\t// out\n        /* \"#utility.yul\":5829:6009   */\n    tag_127:\n        /* \"#utility.yul\":5877:5954   */\n      0x4e487b7100000000000000000000000000000000000000000000000000000000\n        /* \"#utility.yul\":5874:5875   */\n      0x00\n        /* \"#utility.yul\":5867:5955   */\n      mstore\n        /* \"#utility.yul\":5974:5978   */\n      0x21\n        /* \"#utility.yul\":5971:5972   */\n      0x04\n        /* \"#utility.yul\":5964:5979   */\n      mstore\n        /* \"#utility.yul\":5998:6002   */\n      0x24\n        /* \"#utility.yul\":5995:5996   */\n      0x00\n        /* \"#utility.yul\":5988:6003   */\n      revert\n        /* \"#utility.yul\":6015:6132   */\n    tag_302:\n        /* \"#utility.yul\":6100:6101   */\n      0x06\n        /* \"#utility.yul\":6093:6098   */\n      dup2\n        /* \"#utility.yul\":6090:6102   */\n      lt\n        /* \"#utility.yul\":6080:6126   */\n      tag_433\n      jumpi\n        /* \"#utility.yul\":6106:6124   */\n      tag_434\n      tag_127\n      jump\t// in\n    tag_434:\n        /* \"#utility.yul\":6080:6126   */\n    tag_433:\n        /* \"#utility.yul\":6015:6132   */\n      pop\n      jump\t// out\n        /* \"#utility.yul\":6138:6273   */\n    tag_303:\n        /* \"#utility.yul\":6187:6194   */\n      0x00\n        /* \"#utility.yul\":6216:6221   */\n      dup2\n        /* \"#utility.yul\":6205:6221   */\n      swap1\n      pop\n        /* \"#utility.yul\":6222:6267   */\n      tag_436\n        /* \"#utility.yul\":6261:6266   */\n      dup3\n        /* \"#utility.yul\":6222:6267   */\n      tag_302\n      jump\t// in\n    tag_436:\n        /* \"#utility.yul\":6138:6273   */\n      swap2\n      swap1\n      pop\n      jump\t// out\n        /* \"#utility.yul\":6279:6414   */\n    tag_304:\n        /* \"#utility.yul\":6339:6348   */\n      0x00\n        /* \"#utility.yul\":6372:6408   */\n      tag_438\n        /* \"#utility.yul\":6402:6407   */\n      dup3\n        /* \"#utility.yul\":6372:6408   */\n      tag_303\n      jump\t// in\n    tag_438:\n        /* \"#utility.yul\":6359:6408   */\n      swap1\n      pop\n        /* \"#utility.yul\":6279:6414   */\n      swap2\n      swap1\n      pop\n      jump\t// out\n        /* \"#utility.yul\":6420:6561   */\n    tag_305:\n        /* \"#utility.yul\":6507:6554   */\n      tag_440\n        /* \"#utility.yul\":6548:6553   */\n      dup2\n        /* \"#utility.yul\":6507:6554   */\n      tag_304\n      jump\t// in\n    tag_440:\n        /* \"#utility.yul\":6502:6505   */\n      dup3\n        /* \"#utility.yul\":6495:6555   */\n      mstore\n        /* \"#utility.yul\":6420:6561   */\n      pop\n      pop\n      jump\t// out\n        /* \"#utility.yul\":6567:6657   */\n    tag_306:\n        /* \"#utility.yul\":6601:6608   */\n      0x00\n        /* \"#utility.yul\":6644:6649   */\n      dup2\n        /* \"#utility.yul\":6637:6650   */\n      iszero\n        /* \"#utility.yul\":6630:6651   */\n      iszero\n        /* \"#utility.yul\":6619:6651   */\n      swap1\n      pop\n        /* \"#utility.yul\":6567:6657   */\n      swap2\n      swap1\n      pop\n      jump\t// out\n        /* \"#utility.yul\":6663:6762   */\n    tag_307:\n        /* \"#utility.yul\":6734:6755   */\n      tag_443\n        /* \"#utility.yul\":6749:6754   */\n      dup2\n        /* \"#utility.yul\":6734:6755   */\n      tag_306\n      jump\t// in\n    tag_443:\n        /* \"#utility.yul\":6729:6732   */\n      dup3\n        /* \"#utility.yul\":6722:6756   */\n      mstore\n        /* \"#utility.yul\":6663:6762   */\n      pop\n      pop\n      jump\t// out\n        /* \"#utility.yul\":6844:8803   */\n    tag_308:\n        /* \"#utility.yul\":6969:6972   */\n      0x00\n        /* \"#utility.yul\":7005:7011   */\n      0x0120\n        /* \"#utility.yul\":7000:7003   */\n      dup4\n        /* \"#utility.yul\":6996:7012   */\n      add\n        /* \"#utility.yul\":7098:7102   */\n      0x00\n        /* \"#utility.yul\":7091:7096   */\n      dup4\n        /* \"#utility.yul\":7087:7103   */\n      add\n        /* \"#utility.yul\":7081:7104   */\n      mload\n        /* \"#utility.yul\":7117:7180   */\n      tag_445\n        /* \"#utility.yul\":7174:7178   */\n      0x00\n        /* \"#utility.yul\":7169:7172   */\n      dup7\n        /* \"#utility.yul\":7165:7179   */\n      add\n        /* \"#utility.yul\":7151:7163   */\n      dup3\n        /* \"#utility.yul\":7117:7180   */\n      tag_292\n      jump\t// in\n    tag_445:\n        /* \"#utility.yul\":7022:7190   */\n      pop\n        /* \"#utility.yul\":7282:7286   */\n      0x20\n        /* \"#utility.yul\":7275:7280   */\n      dup4\n        /* \"#utility.yul\":7271:7287   */\n      add\n        /* \"#utility.yul\":7265:7288   */\n      mload\n        /* \"#utility.yul\":7301:7364   */\n      tag_446\n        /* \"#utility.yul\":7358:7362   */\n      0x20\n        /* \"#utility.yul\":7353:7356   */\n      dup7\n        /* \"#utility.yul\":7349:7363   */\n      add\n        /* \"#utility.yul\":7335:7347   */\n      dup3\n        /* \"#utility.yul\":7301:7364   */\n      tag_291\n      jump\t// in\n    tag_446:\n        /* \"#utility.yul\":7200:7374   */\n      pop\n        /* \"#utility.yul\":7460:7464   */\n      0x40\n        /* \"#utility.yul\":7453:7458   */\n      dup4\n        /* \"#utility.yul\":7449:7465   */\n      add\n        /* \"#utility.yul\":7443:7466   */\n      mload\n        /* \"#utility.yul\":7513:7516   */\n      dup5\n        /* \"#utility.yul\":7507:7511   */\n      dup3\n        /* \"#utility.yul\":7503:7517   */\n      sub\n        /* \"#utility.yul\":7496:7500   */\n      0x40\n        /* \"#utility.yul\":7491:7494   */\n      dup7\n        /* \"#utility.yul\":7487:7501   */\n      add\n        /* \"#utility.yul\":7480:7518   */\n      mstore\n        /* \"#utility.yul\":7539:7612   */\n      tag_447\n        /* \"#utility.yul\":7607:7611   */\n      dup3\n        /* \"#utility.yul\":7593:7605   */\n      dup3\n        /* \"#utility.yul\":7539:7612   */\n      tag_297\n      jump\t// in\n    tag_447:\n        /* \"#utility.yul\":7531:7612   */\n      swap2\n      pop\n        /* \"#utility.yul\":7384:7623   */\n      pop\n        /* \"#utility.yul\":7711:7715   */\n      0x60\n        /* \"#utility.yul\":7704:7709   */\n      dup4\n        /* \"#utility.yul\":7700:7716   */\n      add\n        /* \"#utility.yul\":7694:7717   */\n      mload\n        /* \"#utility.yul\":7730:7803   */\n      tag_448\n        /* \"#utility.yul\":7797:7801   */\n      0x60\n        /* \"#utility.yul\":7792:7795   */\n      dup7\n        /* \"#utility.yul\":7788:7802   */\n      add\n        /* \"#utility.yul\":7774:7786   */\n      dup3\n        /* \"#utility.yul\":7730:7803   */\n      tag_305\n      jump\t// in\n    tag_448:\n        /* \"#utility.yul\":7633:7813   */\n      pop\n        /* \"#utility.yul\":7900:7904   */\n      0x80\n        /* \"#utility.yul\":7893:7898   */\n      dup4\n        /* \"#utility.yul\":7889:7905   */\n      add\n        /* \"#utility.yul\":7883:7906   */\n      mload\n        /* \"#utility.yul\":7919:7982   */\n      tag_449\n        /* \"#utility.yul\":7976:7980   */\n      0x80\n        /* \"#utility.yul\":7971:7974   */\n      dup7\n        /* \"#utility.yul\":7967:7981   */\n      add\n        /* \"#utility.yul\":7953:7965   */\n      dup3\n        /* \"#utility.yul\":7919:7982   */\n      tag_292\n      jump\t// in\n    tag_449:\n        /* \"#utility.yul\":7823:7992   */\n      pop\n        /* \"#utility.yul\":8078:8082   */\n      0xa0\n        /* \"#utility.yul\":8071:8076   */\n      dup4\n        /* \"#utility.yul\":8067:8083   */\n      add\n        /* \"#utility.yul\":8061:8084   */\n      mload\n        /* \"#utility.yul\":8097:8160   */\n      tag_450\n        /* \"#utility.yul\":8154:8158   */\n      0xa0\n        /* \"#utility.yul\":8149:8152   */\n      dup7\n        /* \"#utility.yul\":8145:8159   */\n      add\n        /* \"#utility.yul\":8131:8143   */\n      dup3\n        /* \"#utility.yul\":8097:8160   */\n      tag_291\n      jump\t// in\n    tag_450:\n        /* \"#utility.yul\":8002:8170   */\n      pop\n        /* \"#utility.yul\":8256:8260   */\n      0xc0\n        /* \"#utility.yul\":8249:8254   */\n      dup4\n        /* \"#utility.yul\":8245:8261   */\n      add\n        /* \"#utility.yul\":8239:8262   */\n      mload\n        /* \"#utility.yul\":8275:8332   */\n      tag_451\n        /* \"#utility.yul\":8326:8330   */\n      0xc0\n        /* \"#utility.yul\":8321:8324   */\n      dup7\n        /* \"#utility.yul\":8317:8331   */\n      add\n        /* \"#utility.yul\":8303:8315   */\n      dup3\n        /* \"#utility.yul\":8275:8332   */\n      tag_307\n      jump\t// in\n    tag_451:\n        /* \"#utility.yul\":8180:8342   */\n      pop\n        /* \"#utility.yul\":8432:8436   */\n      0xe0\n        /* \"#utility.yul\":8425:8430   */\n      dup4\n        /* \"#utility.yul\":8421:8437   */\n      add\n        /* \"#utility.yul\":8415:8438   */\n      mload\n        /* \"#utility.yul\":8485:8488   */\n      dup5\n        /* \"#utility.yul\":8479:8483   */\n      dup3\n        /* \"#utility.yul\":8475:8489   */\n      sub\n        /* \"#utility.yul\":8468:8472   */\n      0xe0\n        /* \"#utility.yul\":8463:8466   */\n      dup7\n        /* \"#utility.yul\":8459:8473   */\n      add\n        /* \"#utility.yul\":8452:8490   */\n      mstore\n        /* \"#utility.yul\":8511:8584   */\n      tag_452\n        /* \"#utility.yul\":8579:8583   */\n      dup3\n        /* \"#utility.yul\":8565:8577   */\n      dup3\n        /* \"#utility.yul\":8511:8584   */\n      tag_297\n      jump\t// in\n    tag_452:\n        /* \"#utility.yul\":8503:8584   */\n      swap2\n      pop\n        /* \"#utility.yul\":8352:8595   */\n      pop\n        /* \"#utility.yul\":8680:8686   */\n      0x0100\n        /* \"#utility.yul\":8673:8678   */\n      dup4\n        /* \"#utility.yul\":8669:8687   */\n      add\n        /* \"#utility.yul\":8663:8688   */\n      mload\n        /* \"#utility.yul\":8701:8766   */\n      tag_453\n        /* \"#utility.yul\":8758:8764   */\n      0x0100\n        /* \"#utility.yul\":8753:8756   */\n      dup7\n        /* \"#utility.yul\":8749:8765   */\n      add\n        /* \"#utility.yul\":8735:8747   */\n      dup3\n        /* \"#utility.yul\":8701:8766   */\n      tag_292\n      jump\t// in\n    tag_453:\n        /* \"#utility.yul\":8605:8776   */\n      pop\n        /* \"#utility.yul\":8793:8797   */\n      dup1\n        /* \"#utility.yul\":8786:8797   */\n      swap2\n      pop\n        /* \"#utility.yul\":6974:8803   */\n      pop\n        /* \"#utility.yul\":6844:8803   */\n      swap3\n      swap2\n      pop\n      pop\n      jump\t// out\n        /* \"#utility.yul\":8809:9194   */\n    tag_31:\n        /* \"#utility.yul\":8958:8962   */\n      0x00\n        /* \"#utility.yul\":8996:8998   */\n      0x20\n        /* \"#utility.yul\":8985:8994   */\n      dup3\n        /* \"#utility.yul\":8981:8999   */\n      add\n        /* \"#utility.yul\":8973:8999   */\n      swap1\n      pop\n        /* \"#utility.yul\":9045:9054   */\n      dup2\n        /* \"#utility.yul\":9039:9043   */\n      dup2\n        /* \"#utility.yul\":9035:9055   */\n      sub\n        /* \"#utility.yul\":9031:9032   */\n      0x00\n        /* \"#utility.yul\":9020:9029   */\n      dup4\n        /* \"#utility.yul\":9016:9033   */\n      add\n        /* \"#utility.yul\":9009:9056   */\n      mstore\n        /* \"#utility.yul\":9073:9187   */\n      tag_455\n        /* \"#utility.yul\":9182:9186   */\n      dup2\n        /* \"#utility.yul\":9173:9179   */\n      dup5\n        /* \"#utility.yul\":9073:9187   */\n      tag_308\n      jump\t// in\n    tag_455:\n        /* \"#utility.yul\":9065:9187   */\n      swap1\n      pop\n        /* \"#utility.yul\":8809:9194   */\n      swap3\n      swap2\n      pop\n      pop\n      jump\t// out\n        /* \"#utility.yul\":9200:9318   */\n    tag_309:\n        /* \"#utility.yul\":9287:9311   */\n      tag_457\n        /* \"#utility.yul\":9305:9310   */\n      dup2\n        /* \"#utility.yul\":9287:9311   */\n      tag_283\n      jump\t// in\n    tag_457:\n        /* \"#utility.yul\":9282:9285   */\n      dup3\n        /* \"#utility.yul\":9275:9312   */\n      mstore\n        /* \"#utility.yul\":9200:9318   */\n      pop\n      pop\n      jump\t// out\n        /* \"#utility.yul\":9324:9546   */\n    tag_38:\n        /* \"#utility.yul\":9417:9421   */\n      0x00\n        /* \"#utility.yul\":9455:9457   */\n      0x20\n        /* \"#utility.yul\":9444:9453   */\n      dup3\n        /* \"#utility.yul\":9440:9458   */\n      add\n        /* \"#utility.yul\":9432:9458   */\n      swap1\n      pop\n        /* \"#utility.yul\":9468:9539   */\n      tag_459\n        /* \"#utility.yul\":9536:9537   */\n      0x00\n        /* \"#utility.yul\":9525:9534   */\n      dup4\n        /* \"#utility.yul\":9521:9538   */\n      add\n        /* \"#utility.yul\":9512:9518   */\n      dup5\n        /* \"#utility.yul\":9468:9539   */\n      tag_309\n      jump\t// in\n    tag_459:\n        /* \"#utility.yul\":9324:9546   */\n      swap3\n      swap2\n      pop\n      pop\n      jump\t// out\n        /* \"#utility.yul\":9552:9674   */\n    tag_310:\n        /* \"#utility.yul\":9625:9649   */\n      tag_461\n        /* \"#utility.yul\":9643:9648   */\n      dup2\n        /* \"#utility.yul\":9625:9649   */\n      tag_290\n      jump\t// in\n    tag_461:\n        /* \"#utility.yul\":9618:9623   */\n      dup2\n        /* \"#utility.yul\":9615:9650   */\n      eq\n        /* \"#utility.yul\":9605:9668   */\n      tag_462\n      jumpi\n        /* \"#utility.yul\":9664:9665   */\n      0x00\n        /* \"#utility.yul\":9661:9662   */\n      0x00\n        /* \"#utility.yul\":9654:9666   */\n      revert\n        /* \"#utility.yul\":9605:9668   */\n    tag_462:\n        /* \"#utility.yul\":9552:9674   */\n      pop\n      jump\t// out\n        /* \"#utility.yul\":9680:9819   */\n    tag_311:\n        /* \"#utility.yul\":9726:9731   */\n      0x00\n        /* \"#utility.yul\":9764:9770   */\n      dup2\n        /* \"#utility.yul\":9751:9771   */\n      calldataload\n        /* \"#utility.yul\":9742:9771   */\n      swap1\n      pop\n        /* \"#utility.yul\":9780:9813   */\n      tag_464\n        /* \"#utility.yul\":9807:9812   */\n      dup2\n        /* \"#utility.yul\":9780:9813   */\n      tag_310\n      jump\t// in\n    tag_464:\n        /* \"#utility.yul\":9680:9819   */\n      swap3\n      swap2\n      pop\n      pop\n      jump\t// out\n        /* \"#utility.yul\":9825:9942   */\n    tag_312:\n        /* \"#utility.yul\":9934:9935   */\n      0x00\n        /* \"#utility.yul\":9931:9932   */\n      0x00\n        /* \"#utility.yul\":9924:9936   */\n      revert\n        /* \"#utility.yul\":9948:10065   */\n    tag_313:\n        /* \"#utility.yul\":10057:10058   */\n      0x00\n        /* \"#utility.yul\":10054:10055   */\n      0x00\n        /* \"#utility.yul\":10047:10059   */\n      revert\n        /* \"#utility.yul\":10071:10251   */\n    tag_314:\n        /* \"#utility.yul\":10119:10196   */\n      0x4e487b7100000000000000000000000000000000000000000000000000000000\n        /* \"#utility.yul\":10116:10117   */\n      0x00\n        /* \"#utility.yul\":10109:10197   */\n      mstore\n        /* \"#utility.yul\":10216:10220   */\n      0x41\n        /* \"#utility.yul\":10213:10214   */\n      0x04\n        /* \"#utility.yul\":10206:10221   */\n      mstore\n        /* \"#utility.yul\":10240:10244   */\n      0x24\n        /* \"#utility.yul\":10237:10238   */\n      0x00\n        /* \"#utility.yul\":10230:10245   */\n      revert\n        /* \"#utility.yul\":10257:10538   */\n    tag_315:\n        /* \"#utility.yul\":10340:10367   */\n      tag_469\n        /* \"#utility.yul\":10362:10366   */\n      dup3\n        /* \"#utility.yul\":10340:10367   */\n      tag_296\n      jump\t// in\n    tag_469:\n        /* \"#utility.yul\":10332:10338   */\n      dup2\n        /* \"#utility.yul\":10328:10368   */\n      add\n        /* \"#utility.yul\":10470:10476   */\n      dup2\n        /* \"#utility.yul\":10458:10468   */\n      dup2\n        /* \"#utility.yul\":10455:10477   */\n      lt\n        /* \"#utility.yul\":10434:10452   */\n      0xffffffffffffffff\n        /* \"#utility.yul\":10422:10432   */\n      dup3\n        /* \"#utility.yul\":10419:10453   */\n      gt\n        /* \"#utility.yul\":10416:10478   */\n      or\n        /* \"#utility.yul\":10413:10501   */\n      iszero\n      tag_470\n      jumpi\n        /* \"#utility.yul\":10481:10499   */\n      tag_471\n      tag_314\n      jump\t// in\n    tag_471:\n        /* \"#utility.yul\":10413:10501   */\n    tag_470:\n        /* \"#utility.yul\":10521:10531   */\n      dup1\n        /* \"#utility.yul\":10517:10519   */\n      0x40\n        /* \"#utility.yul\":10510:10532   */\n      mstore\n        /* \"#utility.yul\":10300:10538   */\n      pop\n        /* \"#utility.yul\":10257:10538   */\n      pop\n      pop\n      jump\t// out\n        /* \"#utility.yul\":10544:10673   */\n    tag_316:\n        /* \"#utility.yul\":10578:10584   */\n      0x00\n        /* \"#utility.yul\":10605:10625   */\n      tag_473\n      tag_280\n      jump\t// in\n    tag_473:\n        /* \"#utility.yul\":10595:10625   */\n      swap1\n      pop\n        /* \"#utility.yul\":10634:10667   */\n      tag_474\n        /* \"#utility.yul\":10662:10666   */\n      dup3\n        /* \"#utility.yul\":10654:10660   */\n      dup3\n        /* \"#utility.yul\":10634:10667   */\n      tag_315\n      jump\t// in\n    tag_474:\n        /* \"#utility.yul\":10544:10673   */\n      swap2\n      swap1\n      pop\n      jump\t// out\n        /* \"#utility.yul\":10679:10987   */\n    tag_317:\n        /* \"#utility.yul\":10741:10745   */\n      0x00\n        /* \"#utility.yul\":10831:10849   */\n      0xffffffffffffffff\n        /* \"#utility.yul\":10823:10829   */\n      dup3\n        /* \"#utility.yul\":10820:10850   */\n      gt\n        /* \"#utility.yul\":10817:10873   */\n      iszero\n      tag_476\n      jumpi\n        /* \"#utility.yul\":10853:10871   */\n      tag_477\n      tag_314\n      jump\t// in\n    tag_477:\n        /* \"#utility.yul\":10817:10873   */\n    tag_476:\n        /* \"#utility.yul\":10891:10920   */\n      tag_478\n        /* \"#utility.yul\":10913:10919   */\n      dup3\n        /* \"#utility.yul\":10891:10920   */\n      tag_296\n      jump\t// in\n    tag_478:\n        /* \"#utility.yul\":10883:10920   */\n      swap1\n      pop\n        /* \"#utility.yul\":10975:10979   */\n      0x20\n        /* \"#utility.yul\":10969:10973   */\n      dup2\n        /* \"#utility.yul\":10965:10980   */\n      add\n        /* \"#utility.yul\":10957:10980   */\n      swap1\n      pop\n        /* \"#utility.yul\":10679:10987   */\n      swap2\n      swap1\n      pop\n      jump\t// out\n        /* \"#utility.yul\":10993:11141   */\n    tag_318:\n        /* \"#utility.yul\":11091:11097   */\n      dup3\n        /* \"#utility.yul\":11086:11089   */\n      dup2\n        /* \"#utility.yul\":11081:11084   */\n      dup4\n        /* \"#utility.yul\":11068:11098   */\n      calldatacopy\n        /* \"#utility.yul\":11132:11133   */\n      0x00\n        /* \"#utility.yul\":11123:11129   */\n      dup4\n        /* \"#utility.yul\":11118:11121   */\n      dup4\n        /* \"#utility.yul\":11114:11130   */\n      add\n        /* \"#utility.yul\":11107:11134   */\n      mstore\n        /* \"#utility.yul\":10993:11141   */\n      pop\n      pop\n      pop\n      jump\t// out\n        /* \"#utility.yul\":11147:11572   */\n    tag_319:\n        /* \"#utility.yul\":11225:11230   */\n      0x00\n        /* \"#utility.yul\":11250:11316   */\n      tag_481\n        /* \"#utility.yul\":11266:11315   */\n      tag_482\n        /* \"#utility.yul\":11308:11314   */\n      dup5\n        /* \"#utility.yul\":11266:11315   */\n      tag_317\n      jump\t// in\n    tag_482:\n        /* \"#utility.yul\":11250:11316   */\n      tag_316\n      jump\t// in\n    tag_481:\n        /* \"#utility.yul\":11241:11316   */\n      swap1\n      pop\n        /* \"#utility.yul\":11339:11345   */\n      dup3\n        /* \"#utility.yul\":11332:11337   */\n      dup2\n        /* \"#utility.yul\":11325:11346   */\n      mstore\n        /* \"#utility.yul\":11377:11381   */\n      0x20\n        /* \"#utility.yul\":11370:11375   */\n      dup2\n        /* \"#utility.yul\":11366:11382   */\n      add\n        /* \"#utility.yul\":11415:11418   */\n      dup5\n        /* \"#utility.yul\":11406:11412   */\n      dup5\n        /* \"#utility.yul\":11401:11404   */\n      dup5\n        /* \"#utility.yul\":11397:11413   */\n      add\n        /* \"#utility.yul\":11394:11419   */\n      gt\n        /* \"#utility.yul\":11391:11503   */\n      iszero\n      tag_483\n      jumpi\n        /* \"#utility.yul\":11422:11501   */\n      tag_484\n      tag_313\n      jump\t// in\n    tag_484:\n        /* \"#utility.yul\":11391:11503   */\n    tag_483:\n        /* \"#utility.yul\":11512:11566   */\n      tag_485\n        /* \"#utility.yul\":11559:11565   */\n      dup5\n        /* \"#utility.yul\":11554:11557   */\n      dup3\n        /* \"#utility.yul\":11549:11552   */\n      dup6\n        /* \"#utility.yul\":11512:11566   */\n      tag_318\n      jump\t// in\n    tag_485:\n        /* \"#utility.yul\":11231:11572   */\n      pop\n        /* \"#utility.yul\":11147:11572   */\n      swap4\n      swap3\n      pop\n      pop\n      pop\n      jump\t// out\n        /* \"#utility.yul\":11592:11932   */\n    tag_320:\n        /* \"#utility.yul\":11648:11653   */\n      0x00\n        /* \"#utility.yul\":11697:11700   */\n      dup3\n        /* \"#utility.yul\":11690:11694   */\n      0x1f\n        /* \"#utility.yul\":11682:11688   */\n      dup4\n        /* \"#utility.yul\":11678:11695   */\n      add\n        /* \"#utility.yul\":11674:11701   */\n      slt\n        /* \"#utility.yul\":11664:11786   */\n      tag_487\n      jumpi\n        /* \"#utility.yul\":11705:11784   */\n      tag_488\n      tag_312\n      jump\t// in\n    tag_488:\n        /* \"#utility.yul\":11664:11786   */\n    tag_487:\n        /* \"#utility.yul\":11822:11828   */\n      dup2\n        /* \"#utility.yul\":11809:11829   */\n      calldataload\n        /* \"#utility.yul\":11847:11926   */\n      tag_489\n        /* \"#utility.yul\":11922:11925   */\n      dup5\n        /* \"#utility.yul\":11914:11920   */\n      dup3\n        /* \"#utility.yul\":11907:11911   */\n      0x20\n        /* \"#utility.yul\":11899:11905   */\n      dup7\n        /* \"#utility.yul\":11895:11912   */\n      add\n        /* \"#utility.yul\":11847:11926   */\n      tag_319\n      jump\t// in\n    tag_489:\n        /* \"#utility.yul\":11838:11926   */\n      swap2\n      pop\n        /* \"#utility.yul\":11654:11932   */\n      pop\n        /* \"#utility.yul\":11592:11932   */\n      swap3\n      swap2\n      pop\n      pop\n      jump\t// out\n        /* \"#utility.yul\":11938:12049   */\n    tag_321:\n        /* \"#utility.yul\":12023:12024   */\n      0x06\n        /* \"#utility.yul\":12016:12021   */\n      dup2\n        /* \"#utility.yul\":12013:12025   */\n      lt\n        /* \"#utility.yul\":12003:12043   */\n      tag_491\n      jumpi\n        /* \"#utility.yul\":12039:12040   */\n      0x00\n        /* \"#utility.yul\":12036:12037   */\n      0x00\n        /* \"#utility.yul\":12029:12041   */\n      revert\n        /* \"#utility.yul\":12003:12043   */\n    tag_491:\n        /* \"#utility.yul\":11938:12049   */\n      pop\n      jump\t// out\n        /* \"#utility.yul\":12055:12218   */\n    tag_322:\n        /* \"#utility.yul\":12113:12118   */\n      0x00\n        /* \"#utility.yul\":12151:12157   */\n      dup2\n        /* \"#utility.yul\":12138:12158   */\n      calldataload\n        /* \"#utility.yul\":12129:12158   */\n      swap1\n      pop\n        /* \"#utility.yul\":12167:12212   */\n      tag_493\n        /* \"#utility.yul\":12206:12211   */\n      dup2\n        /* \"#utility.yul\":12167:12212   */\n      tag_321\n      jump\t// in\n    tag_493:\n        /* \"#utility.yul\":12055:12218   */\n      swap3\n      swap2\n      pop\n      pop\n      jump\t// out\n        /* \"#utility.yul\":12224:13373   */\n    tag_41:\n        /* \"#utility.yul\":12342:12348   */\n      0x00\n        /* \"#utility.yul\":12350:12356   */\n      0x00\n        /* \"#utility.yul\":12358:12364   */\n      0x00\n        /* \"#utility.yul\":12366:12372   */\n      0x00\n        /* \"#utility.yul\":12415:12418   */\n      0x80\n        /* \"#utility.yul\":12403:12412   */\n      dup6\n        /* \"#utility.yul\":12394:12401   */\n      dup8\n        /* \"#utility.yul\":12390:12413   */\n      sub\n        /* \"#utility.yul\":12386:12419   */\n      slt\n        /* \"#utility.yul\":12383:12503   */\n      iszero\n      tag_495\n      jumpi\n        /* \"#utility.yul\":12422:12501   */\n      tag_496\n      tag_281\n      jump\t// in\n    tag_496:\n        /* \"#utility.yul\":12383:12503   */\n    tag_495:\n        /* \"#utility.yul\":12542:12543   */\n      0x00\n        /* \"#utility.yul\":12567:12620   */\n      tag_497\n        /* \"#utility.yul\":12612:12619   */\n      dup8\n        /* \"#utility.yul\":12603:12609   */\n      dup3\n        /* \"#utility.yul\":12592:12601   */\n      dup9\n        /* \"#utility.yul\":12588:12610   */\n      add\n        /* \"#utility.yul\":12567:12620   */\n      tag_311\n      jump\t// in\n    tag_497:\n        /* \"#utility.yul\":12557:12620   */\n      swap5\n      pop\n        /* \"#utility.yul\":12513:12630   */\n      pop\n        /* \"#utility.yul\":12697:12699   */\n      0x20\n        /* \"#utility.yul\":12686:12695   */\n      dup6\n        /* \"#utility.yul\":12682:12700   */\n      add\n        /* \"#utility.yul\":12669:12701   */\n      calldataload\n        /* \"#utility.yul\":12728:12746   */\n      0xffffffffffffffff\n        /* \"#utility.yul\":12720:12726   */\n      dup2\n        /* \"#utility.yul\":12717:12747   */\n      gt\n        /* \"#utility.yul\":12714:12831   */\n      iszero\n      tag_498\n      jumpi\n        /* \"#utility.yul\":12750:12829   */\n      tag_499\n      tag_282\n      jump\t// in\n    tag_499:\n        /* \"#utility.yul\":12714:12831   */\n    tag_498:\n        /* \"#utility.yul\":12855:12918   */\n      tag_500\n        /* \"#utility.yul\":12910:12917   */\n      dup8\n        /* \"#utility.yul\":12901:12907   */\n      dup3\n        /* \"#utility.yul\":12890:12899   */\n      dup9\n        /* \"#utility.yul\":12886:12908   */\n      add\n        /* \"#utility.yul\":12855:12918   */\n      tag_320\n      jump\t// in\n    tag_500:\n        /* \"#utility.yul\":12845:12918   */\n      swap4\n      pop\n        /* \"#utility.yul\":12640:12928   */\n      pop\n        /* \"#utility.yul\":12967:12969   */\n      0x40\n        /* \"#utility.yul\":12993:13058   */\n      tag_501\n        /* \"#utility.yul\":13050:13057   */\n      dup8\n        /* \"#utility.yul\":13041:13047   */\n      dup3\n        /* \"#utility.yul\":13030:13039   */\n      dup9\n        /* \"#utility.yul\":13026:13048   */\n      add\n        /* \"#utility.yul\":12993:13058   */\n      tag_322\n      jump\t// in\n    tag_501:\n        /* \"#utility.yul\":12983:13058   */\n      swap3\n      pop\n        /* \"#utility.yul\":12938:13068   */\n      pop\n        /* \"#utility.yul\":13135:13137   */\n      0x60\n        /* \"#utility.yul\":13124:13133   */\n      dup6\n        /* \"#utility.yul\":13120:13138   */\n      add\n        /* \"#utility.yul\":13107:13139   */\n      calldataload\n        /* \"#utility.yul\":13166:13184   */\n      0xffffffffffffffff\n        /* \"#utility.yul\":13158:13164   */\n      dup2\n        /* \"#utility.yul\":13155:13185   */\n      gt\n        /* \"#utility.yul\":13152:13269   */\n      iszero\n      tag_502\n      jumpi\n        /* \"#utility.yul\":13188:13267   */\n      tag_503\n      tag_282\n      jump\t// in\n    tag_503:\n        /* \"#utility.yul\":13152:13269   */\n    tag_502:\n        /* \"#utility.yul\":13293:13356   */\n      tag_504\n        /* \"#utility.yul\":13348:13355   */\n      dup8\n        /* \"#utility.yul\":13339:13345   */\n      dup3\n        /* \"#utility.yul\":13328:13337   */\n      dup9\n        /* \"#utility.yul\":13324:13346   */\n      add\n        /* \"#utility.yul\":13293:13356   */\n      tag_320\n      jump\t// in\n    tag_504:\n        /* \"#utility.yul\":13283:13356   */\n      swap2\n      pop\n        /* \"#utility.yul\":13078:13366   */\n      pop\n        /* \"#utility.yul\":12224:13373   */\n      swap3\n      swap6\n      swap2\n      swap5\n      pop\n      swap3\n      pop\n      jump\t// out\n        /* \"#utility.yul\":13379:13708   */\n    tag_46:\n        /* \"#utility.yul\":13438:13444   */\n      0x00\n        /* \"#utility.yul\":13487:13489   */\n      0x20\n        /* \"#utility.yul\":13475:13484   */\n      dup3\n        /* \"#utility.yul\":13466:13473   */\n      dup5\n        /* \"#utility.yul\":13462:13485   */\n      sub\n        /* \"#utility.yul\":13458:13490   */\n      slt\n        /* \"#utility.yul\":13455:13574   */\n      iszero\n      tag_506\n      jumpi\n        /* \"#utility.yul\":13493:13572   */\n      tag_507\n      tag_281\n      jump\t// in\n    tag_507:\n        /* \"#utility.yul\":13455:13574   */\n    tag_506:\n        /* \"#utility.yul\":13613:13614   */\n      0x00\n        /* \"#utility.yul\":13638:13691   */\n      tag_508\n        /* \"#utility.yul\":13683:13690   */\n      dup5\n        /* \"#utility.yul\":13674:13680   */\n      dup3\n        /* \"#utility.yul\":13663:13672   */\n      dup6\n        /* \"#utility.yul\":13659:13681   */\n      add\n        /* \"#utility.yul\":13638:13691   */\n      tag_311\n      jump\t// in\n    tag_508:\n        /* \"#utility.yul\":13628:13691   */\n      swap2\n      pop\n        /* \"#utility.yul\":13584:13701   */\n      pop\n        /* \"#utility.yul\":13379:13708   */\n      swap3\n      swap2\n      pop\n      pop\n      jump\t// out\n        /* \"#utility.yul\":13714:13828   */\n    tag_323:\n        /* \"#utility.yul\":13781:13787   */\n      0x00\n        /* \"#utility.yul\":13815:13820   */\n      dup2\n        /* \"#utility.yul\":13809:13821   */\n      mload\n        /* \"#utility.yul\":13799:13821   */\n      swap1\n      pop\n        /* \"#utility.yul\":13714:13828   */\n      swap2\n      swap1\n      pop\n      jump\t// out\n        /* \"#utility.yul\":13834:14018   */\n    tag_324:\n        /* \"#utility.yul\":13933:13944   */\n      0x00\n        /* \"#utility.yul\":13967:13973   */\n      dup3\n        /* \"#utility.yul\":13962:13965   */\n      dup3\n        /* \"#utility.yul\":13955:13974   */\n      mstore\n        /* \"#utility.yul\":14007:14011   */\n      0x20\n        /* \"#utility.yul\":14002:14005   */\n      dup3\n        /* \"#utility.yul\":13998:14012   */\n      add\n        /* \"#utility.yul\":13983:14012   */\n      swap1\n      pop\n        /* \"#utility.yul\":13834:14018   */\n      swap3\n      swap2\n      pop\n      pop\n      jump\t// out\n        /* \"#utility.yul\":14024:14156   */\n    tag_325:\n        /* \"#utility.yul\":14091:14095   */\n      0x00\n        /* \"#utility.yul\":14114:14117   */\n      dup2\n        /* \"#utility.yul\":14106:14117   */\n      swap1\n      pop\n        /* \"#utility.yul\":14144:14148   */\n      0x20\n        /* \"#utility.yul\":14139:14142   */\n      dup3\n        /* \"#utility.yul\":14135:14149   */\n      add\n        /* \"#utility.yul\":14127:14149   */\n      swap1\n      pop\n        /* \"#utility.yul\":14024:14156   */\n      swap2\n      swap1\n      pop\n      jump\t// out\n        /* \"#utility.yul\":14162:14341   */\n    tag_326:\n        /* \"#utility.yul\":14231:14241   */\n      0x00\n        /* \"#utility.yul\":14252:14298   */\n      tag_513\n        /* \"#utility.yul\":14294:14297   */\n      dup4\n        /* \"#utility.yul\":14286:14292   */\n      dup4\n        /* \"#utility.yul\":14252:14298   */\n      tag_292\n      jump\t// in\n    tag_513:\n        /* \"#utility.yul\":14330:14334   */\n      0x20\n        /* \"#utility.yul\":14325:14328   */\n      dup4\n        /* \"#utility.yul\":14321:14335   */\n      add\n        /* \"#utility.yul\":14307:14335   */\n      swap1\n      pop\n        /* \"#utility.yul\":14162:14341   */\n      swap3\n      swap2\n      pop\n      pop\n      jump\t// out\n        /* \"#utility.yul\":14347:14460   */\n    tag_327:\n        /* \"#utility.yul\":14417:14421   */\n      0x00\n        /* \"#utility.yul\":14449:14453   */\n      0x20\n        /* \"#utility.yul\":14444:14447   */\n      dup3\n        /* \"#utility.yul\":14440:14454   */\n      add\n        /* \"#utility.yul\":14432:14454   */\n      swap1\n      pop\n        /* \"#utility.yul\":14347:14460   */\n      swap2\n      swap1\n      pop\n      jump\t// out\n        /* \"#utility.yul\":14496:15228   */\n    tag_328:\n        /* \"#utility.yul\":14615:14618   */\n      0x00\n        /* \"#utility.yul\":14644:14698   */\n      tag_516\n        /* \"#utility.yul\":14692:14697   */\n      dup3\n        /* \"#utility.yul\":14644:14698   */\n      tag_323\n      jump\t// in\n    tag_516:\n        /* \"#utility.yul\":14714:14800   */\n      tag_517\n        /* \"#utility.yul\":14793:14799   */\n      dup2\n        /* \"#utility.yul\":14788:14791   */\n      dup6\n        /* \"#utility.yul\":14714:14800   */\n      tag_324\n      jump\t// in\n    tag_517:\n        /* \"#utility.yul\":14707:14800   */\n      swap4\n      pop\n        /* \"#utility.yul\":14824:14880   */\n      tag_518\n        /* \"#utility.yul\":14874:14879   */\n      dup4\n        /* \"#utility.yul\":14824:14880   */\n      tag_325\n      jump\t// in\n    tag_518:\n        /* \"#utility.yul\":14903:14910   */\n      dup1\n        /* \"#utility.yul\":14934:14935   */\n      0x00\n        /* \"#utility.yul\":14919:15203   */\n    tag_519:\n        /* \"#utility.yul\":14944:14950   */\n      dup4\n        /* \"#utility.yul\":14941:14942   */\n      dup2\n        /* \"#utility.yul\":14938:14951   */\n      lt\n        /* \"#utility.yul\":14919:15203   */\n      iszero\n      tag_521\n      jumpi\n        /* \"#utility.yul\":15020:15026   */\n      dup2\n        /* \"#utility.yul\":15014:15027   */\n      mload\n        /* \"#utility.yul\":15047:15110   */\n      tag_522\n        /* \"#utility.yul\":15106:15109   */\n      dup9\n        /* \"#utility.yul\":15091:15104   */\n      dup3\n        /* \"#utility.yul\":15047:15110   */\n      tag_326\n      jump\t// in\n    tag_522:\n        /* \"#utility.yul\":15040:15110   */\n      swap8\n      pop\n        /* \"#utility.yul\":15133:15193   */\n      tag_523\n        /* \"#utility.yul\":15186:15192   */\n      dup4\n        /* \"#utility.yul\":15133:15193   */\n      tag_327\n      jump\t// in\n    tag_523:\n        /* \"#utility.yul\":15123:15193   */\n      swap3\n      pop\n        /* \"#utility.yul\":14979:15203   */\n      pop\n        /* \"#utility.yul\":14966:14967   */\n      0x01\n        /* \"#utility.yul\":14963:14964   */\n      dup2\n        /* \"#utility.yul\":14959:14968   */\n      add\n        /* \"#utility.yul\":14954:14968   */\n      swap1\n      pop\n        /* \"#utility.yul\":14919:15203   */\n      jump(tag_519)\n    tag_521:\n        /* \"#utility.yul\":14923:14937   */\n      pop\n        /* \"#utility.yul\":15219:15222   */\n      dup6\n        /* \"#utility.yul\":15212:15222   */\n      swap4\n      pop\n        /* \"#utility.yul\":14620:15228   */\n      pop\n      pop\n      pop\n        /* \"#utility.yul\":14496:15228   */\n      swap3\n      swap2\n      pop\n      pop\n      jump\t// out\n        /* \"#utility.yul\":15234:15607   */\n    tag_49:\n        /* \"#utility.yul\":15377:15381   */\n      0x00\n        /* \"#utility.yul\":15415:15417   */\n      0x20\n        /* \"#utility.yul\":15404:15413   */\n      dup3\n        /* \"#utility.yul\":15400:15418   */\n      add\n        /* \"#utility.yul\":15392:15418   */\n      swap1\n      pop\n        /* \"#utility.yul\":15464:15473   */\n      dup2\n        /* \"#utility.yul\":15458:15462   */\n      dup2\n        /* \"#utility.yul\":15454:15474   */\n      sub\n        /* \"#utility.yul\":15450:15451   */\n      0x00\n        /* \"#utility.yul\":15439:15448   */\n      dup4\n        /* \"#utility.yul\":15435:15452   */\n      add\n        /* \"#utility.yul\":15428:15475   */\n      mstore\n        /* \"#utility.yul\":15492:15600   */\n      tag_525\n        /* \"#utility.yul\":15595:15599   */\n      dup2\n        /* \"#utility.yul\":15586:15592   */\n      dup5\n        /* \"#utility.yul\":15492:15600   */\n      tag_328\n      jump\t// in\n    tag_525:\n        /* \"#utility.yul\":15484:15600   */\n      swap1\n      pop\n        /* \"#utility.yul\":15234:15607   */\n      swap3\n      swap2\n      pop\n      pop\n      jump\t// out\n        /* \"#utility.yul\":15613:16616   */\n    tag_52:\n        /* \"#utility.yul\":15722:15728   */\n      0x00\n        /* \"#utility.yul\":15730:15736   */\n      0x00\n        /* \"#utility.yul\":15738:15744   */\n      0x00\n        /* \"#utility.yul\":15787:15789   */\n      0x60\n        /* \"#utility.yul\":15775:15784   */\n      dup5\n        /* \"#utility.yul\":15766:15773   */\n      dup7\n        /* \"#utility.yul\":15762:15785   */\n      sub\n        /* \"#utility.yul\":15758:15790   */\n      slt\n        /* \"#utility.yul\":15755:15874   */\n      iszero\n      tag_527\n      jumpi\n        /* \"#utility.yul\":15793:15872   */\n      tag_528\n      tag_281\n      jump\t// in\n    tag_528:\n        /* \"#utility.yul\":15755:15874   */\n    tag_527:\n        /* \"#utility.yul\":15941:15942   */\n      0x00\n        /* \"#utility.yul\":15930:15939   */\n      dup5\n        /* \"#utility.yul\":15926:15943   */\n      add\n        /* \"#utility.yul\":15913:15944   */\n      calldataload\n        /* \"#utility.yul\":15971:15989   */\n      0xffffffffffffffff\n        /* \"#utility.yul\":15963:15969   */\n      dup2\n        /* \"#utility.yul\":15960:15990   */\n      gt\n        /* \"#utility.yul\":15957:16074   */\n      iszero\n      tag_529\n      jumpi\n        /* \"#utility.yul\":15993:16072   */\n      tag_530\n      tag_282\n      jump\t// in\n    tag_530:\n        /* \"#utility.yul\":15957:16074   */\n    tag_529:\n        /* \"#utility.yul\":16098:16161   */\n      tag_531\n        /* \"#utility.yul\":16153:16160   */\n      dup7\n        /* \"#utility.yul\":16144:16150   */\n      dup3\n        /* \"#utility.yul\":16133:16142   */\n      dup8\n        /* \"#utility.yul\":16129:16151   */\n      add\n        /* \"#utility.yul\":16098:16161   */\n      tag_320\n      jump\t// in\n    tag_531:\n        /* \"#utility.yul\":16088:16161   */\n      swap4\n      pop\n        /* \"#utility.yul\":15884:16171   */\n      pop\n        /* \"#utility.yul\":16210:16212   */\n      0x20\n        /* \"#utility.yul\":16236:16301   */\n      tag_532\n        /* \"#utility.yul\":16293:16300   */\n      dup7\n        /* \"#utility.yul\":16284:16290   */\n      dup3\n        /* \"#utility.yul\":16273:16282   */\n      dup8\n        /* \"#utility.yul\":16269:16291   */\n      add\n        /* \"#utility.yul\":16236:16301   */\n      tag_322\n      jump\t// in\n    tag_532:\n        /* \"#utility.yul\":16226:16301   */\n      swap3\n      pop\n        /* \"#utility.yul\":16181:16311   */\n      pop\n        /* \"#utility.yul\":16378:16380   */\n      0x40\n        /* \"#utility.yul\":16367:16376   */\n      dup5\n        /* \"#utility.yul\":16363:16381   */\n      add\n        /* \"#utility.yul\":16350:16382   */\n      calldataload\n        /* \"#utility.yul\":16409:16427   */\n      0xffffffffffffffff\n        /* \"#utility.yul\":16401:16407   */\n      dup2\n        /* \"#utility.yul\":16398:16428   */\n      gt\n        /* \"#utility.yul\":16395:16512   */\n      iszero\n      tag_533\n      jumpi\n        /* \"#utility.yul\":16431:16510   */\n      tag_534\n      tag_282\n      jump\t// in\n    tag_534:\n        /* \"#utility.yul\":16395:16512   */\n    tag_533:\n        /* \"#utility.yul\":16536:16599   */\n      tag_535\n        /* \"#utility.yul\":16591:16598   */\n      dup7\n        /* \"#utility.yul\":16582:16588   */\n      dup3\n        /* \"#utility.yul\":16571:16580   */\n      dup8\n        /* \"#utility.yul\":16567:16589   */\n      add\n        /* \"#utility.yul\":16536:16599   */\n      tag_320\n      jump\t// in\n    tag_535:\n        /* \"#utility.yul\":16526:16599   */\n      swap2\n      pop\n        /* \"#utility.yul\":16321:16609   */\n      pop\n        /* \"#utility.yul\":15613:16616   */\n      swap3\n      pop\n      swap3\n      pop\n      swap3\n      jump\t// out\n        /* \"#utility.yul\":16622:17601   */\n    tag_57:\n        /* \"#utility.yul\":16719:16725   */\n      0x00\n        /* \"#utility.yul\":16727:16733   */\n      0x00\n        /* \"#utility.yul\":16735:16741   */\n      0x00\n        /* \"#utility.yul\":16784:16786   */\n      0x60\n        /* \"#utility.yul\":16772:16781   */\n      dup5\n        /* \"#utility.yul\":16763:16770   */\n      dup7\n        /* \"#utility.yul\":16759:16782   */\n      sub\n        /* \"#utility.yul\":16755:16787   */\n      slt\n        /* \"#utility.yul\":16752:16871   */\n      iszero\n      tag_537\n      jumpi\n        /* \"#utility.yul\":16790:16869   */\n      tag_538\n      tag_281\n      jump\t// in\n    tag_538:\n        /* \"#utility.yul\":16752:16871   */\n    tag_537:\n        /* \"#utility.yul\":16910:16911   */\n      0x00\n        /* \"#utility.yul\":16935:16988   */\n      tag_539\n        /* \"#utility.yul\":16980:16987   */\n      dup7\n        /* \"#utility.yul\":16971:16977   */\n      dup3\n        /* \"#utility.yul\":16960:16969   */\n      dup8\n        /* \"#utility.yul\":16956:16978   */\n      add\n        /* \"#utility.yul\":16935:16988   */\n      tag_285\n      jump\t// in\n    tag_539:\n        /* \"#utility.yul\":16925:16988   */\n      swap4\n      pop\n        /* \"#utility.yul\":16881:16998   */\n      pop\n        /* \"#utility.yul\":17065:17067   */\n      0x20\n        /* \"#utility.yul\":17054:17063   */\n      dup5\n        /* \"#utility.yul\":17050:17068   */\n      add\n        /* \"#utility.yul\":17037:17069   */\n      calldataload\n        /* \"#utility.yul\":17096:17114   */\n      0xffffffffffffffff\n        /* \"#utility.yul\":17088:17094   */\n      dup2\n        /* \"#utility.yul\":17085:17115   */\n      gt\n        /* \"#utility.yul\":17082:17199   */\n      iszero\n      tag_540\n      jumpi\n        /* \"#utility.yul\":17118:17197   */\n      tag_541\n      tag_282\n      jump\t// in\n    tag_541:\n        /* \"#utility.yul\":17082:17199   */\n    tag_540:\n        /* \"#utility.yul\":17223:17286   */\n      tag_542\n        /* \"#utility.yul\":17278:17285   */\n      dup7\n        /* \"#utility.yul\":17269:17275   */\n      dup3\n        /* \"#utility.yul\":17258:17267   */\n      dup8\n        /* \"#utility.yul\":17254:17276   */\n      add\n        /* \"#utility.yul\":17223:17286   */\n      tag_320\n      jump\t// in\n    tag_542:\n        /* \"#utility.yul\":17213:17286   */\n      swap3\n      pop\n        /* \"#utility.yul\":17008:17296   */\n      pop\n        /* \"#utility.yul\":17363:17365   */\n      0x40\n        /* \"#utility.yul\":17352:17361   */\n      dup5\n        /* \"#utility.yul\":17348:17366   */\n      add\n        /* \"#utility.yul\":17335:17367   */\n      calldataload\n        /* \"#utility.yul\":17394:17412   */\n      0xffffffffffffffff\n        /* \"#utility.yul\":17386:17392   */\n      dup2\n        /* \"#utility.yul\":17383:17413   */\n      gt\n        /* \"#utility.yul\":17380:17497   */\n      iszero\n      tag_543\n      jumpi\n        /* \"#utility.yul\":17416:17495   */\n      tag_544\n      tag_282\n      jump\t// in\n    tag_544:\n        /* \"#utility.yul\":17380:17497   */\n    tag_543:\n        /* \"#utility.yul\":17521:17584   */\n      tag_545\n        /* \"#utility.yul\":17576:17583   */\n      dup7\n        /* \"#utility.yul\":17567:17573   */\n      dup3\n        /* \"#utility.yul\":17556:17565   */\n      dup8\n        /* \"#utility.yul\":17552:17574   */\n      add\n        /* \"#utility.yul\":17521:17584   */\n      tag_320\n      jump\t// in\n    tag_545:\n        /* \"#utility.yul\":17511:17584   */\n      swap2\n      pop\n        /* \"#utility.yul\":17306:17594   */\n      pop\n        /* \"#utility.yul\":16622:17601   */\n      swap3\n      pop\n      swap3\n      pop\n      swap3\n      jump\t// out\n        /* \"#utility.yul\":17607:18261   */\n    tag_61:\n        /* \"#utility.yul\":17685:17691   */\n      0x00\n        /* \"#utility.yul\":17693:17699   */\n      0x00\n        /* \"#utility.yul\":17742:17744   */\n      0x40\n        /* \"#utility.yul\":17730:17739   */\n      dup4\n        /* \"#utility.yul\":17721:17728   */\n      dup6\n        /* \"#utility.yul\":17717:17740   */\n      sub\n        /* \"#utility.yul\":17713:17745   */\n      slt\n        /* \"#utility.yul\":17710:17829   */\n      iszero\n      tag_547\n      jumpi\n        /* \"#utility.yul\":17748:17827   */\n      tag_548\n      tag_281\n      jump\t// in\n    tag_548:\n        /* \"#utility.yul\":17710:17829   */\n    tag_547:\n        /* \"#utility.yul\":17868:17869   */\n      0x00\n        /* \"#utility.yul\":17893:17946   */\n      tag_549\n        /* \"#utility.yul\":17938:17945   */\n      dup6\n        /* \"#utility.yul\":17929:17935   */\n      dup3\n        /* \"#utility.yul\":17918:17927   */\n      dup7\n        /* \"#utility.yul\":17914:17936   */\n      add\n        /* \"#utility.yul\":17893:17946   */\n      tag_285\n      jump\t// in\n    tag_549:\n        /* \"#utility.yul\":17883:17946   */\n      swap3\n      pop\n        /* \"#utility.yul\":17839:17956   */\n      pop\n        /* \"#utility.yul\":18023:18025   */\n      0x20\n        /* \"#utility.yul\":18012:18021   */\n      dup4\n        /* \"#utility.yul\":18008:18026   */\n      add\n        /* \"#utility.yul\":17995:18027   */\n      calldataload\n        /* \"#utility.yul\":18054:18072   */\n      0xffffffffffffffff\n        /* \"#utility.yul\":18046:18052   */\n      dup2\n        /* \"#utility.yul\":18043:18073   */\n      gt\n        /* \"#utility.yul\":18040:18157   */\n      iszero\n      tag_550\n      jumpi\n        /* \"#utility.yul\":18076:18155   */\n      tag_551\n      tag_282\n      jump\t// in\n    tag_551:\n        /* \"#utility.yul\":18040:18157   */\n    tag_550:\n        /* \"#utility.yul\":18181:18244   */\n      tag_552\n        /* \"#utility.yul\":18236:18243   */\n      dup6\n        /* \"#utility.yul\":18227:18233   */\n      dup3\n        /* \"#utility.yul\":18216:18225   */\n      dup7\n        /* \"#utility.yul\":18212:18234   */\n      add\n        /* \"#utility.yul\":18181:18244   */\n      tag_320\n      jump\t// in\n    tag_552:\n        /* \"#utility.yul\":18171:18244   */\n      swap2\n      pop\n        /* \"#utility.yul\":17966:18254   */\n      pop\n        /* \"#utility.yul\":17607:18261   */\n      swap3\n      pop\n      swap3\n      swap1\n      pop\n      jump\t// out\n        /* \"#utility.yul\":18267:18741   */\n    tag_68:\n        /* \"#utility.yul\":18335:18341   */\n      0x00\n        /* \"#utility.yul\":18343:18349   */\n      0x00\n        /* \"#utility.yul\":18392:18394   */\n      0x40\n        /* \"#utility.yul\":18380:18389   */\n      dup4\n        /* \"#utility.yul\":18371:18378   */\n      dup6\n        /* \"#utility.yul\":18367:18390   */\n      sub\n        /* \"#utility.yul\":18363:18395   */\n      slt\n        /* \"#utility.yul\":18360:18479   */\n      iszero\n      tag_554\n      jumpi\n        /* \"#utility.yul\":18398:18477   */\n      tag_555\n      tag_281\n      jump\t// in\n    tag_555:\n        /* \"#utility.yul\":18360:18479   */\n    tag_554:\n        /* \"#utility.yul\":18518:18519   */\n      0x00\n        /* \"#utility.yul\":18543:18596   */\n      tag_556\n        /* \"#utility.yul\":18588:18595   */\n      dup6\n        /* \"#utility.yul\":18579:18585   */\n      dup3\n        /* \"#utility.yul\":18568:18577   */\n      dup7\n        /* \"#utility.yul\":18564:18586   */\n      add\n        /* \"#utility.yul\":18543:18596   */\n      tag_311\n      jump\t// in\n    tag_556:\n        /* \"#utility.yul\":18533:18596   */\n      swap3\n      pop\n        /* \"#utility.yul\":18489:18606   */\n      pop\n        /* \"#utility.yul\":18645:18647   */\n      0x20\n        /* \"#utility.yul\":18671:18724   */\n      tag_557\n        /* \"#utility.yul\":18716:18723   */\n      dup6\n        /* \"#utility.yul\":18707:18713   */\n      dup3\n        /* \"#utility.yul\":18696:18705   */\n      dup7\n        /* \"#utility.yul\":18692:18714   */\n      add\n        /* \"#utility.yul\":18671:18724   */\n      tag_311\n      jump\t// in\n    tag_557:\n        /* \"#utility.yul\":18661:18724   */\n      swap2\n      pop\n        /* \"#utility.yul\":18616:18734   */\n      pop\n        /* \"#utility.yul\":18267:18741   */\n      swap3\n      pop\n      swap3\n      swap1\n      pop\n      jump\t// out\n        /* \"#utility.yul\":18747:18921   */\n    tag_329:\n        /* \"#utility.yul\":18836:18847   */\n      0x00\n        /* \"#utility.yul\":18870:18876   */\n      dup3\n        /* \"#utility.yul\":18865:18868   */\n      dup3\n        /* \"#utility.yul\":18858:18877   */\n      mstore\n        /* \"#utility.yul\":18910:18914   */\n      0x20\n        /* \"#utility.yul\":18905:18908   */\n      dup3\n        /* \"#utility.yul\":18901:18915   */\n      add\n        /* \"#utility.yul\":18886:18915   */\n      swap1\n      pop\n        /* \"#utility.yul\":18747:18921   */\n      swap3\n      swap2\n      pop\n      pop\n      jump\t// out\n        /* \"#utility.yul\":18957:19669   */\n    tag_330:\n        /* \"#utility.yul\":19066:19069   */\n      0x00\n        /* \"#utility.yul\":19095:19149   */\n      tag_560\n        /* \"#utility.yul\":19143:19148   */\n      dup3\n        /* \"#utility.yul\":19095:19149   */\n      tag_323\n      jump\t// in\n    tag_560:\n        /* \"#utility.yul\":19165:19241   */\n      tag_561\n        /* \"#utility.yul\":19234:19240   */\n      dup2\n        /* \"#utility.yul\":19229:19232   */\n      dup6\n        /* \"#utility.yul\":19165:19241   */\n      tag_329\n      jump\t// in\n    tag_561:\n        /* \"#utility.yul\":19158:19241   */\n      swap4\n      pop\n        /* \"#utility.yul\":19265:19321   */\n      tag_562\n        /* \"#utility.yul\":19315:19320   */\n      dup4\n        /* \"#utility.yul\":19265:19321   */\n      tag_325\n      jump\t// in\n    tag_562:\n        /* \"#utility.yul\":19344:19351   */\n      dup1\n        /* \"#utility.yul\":19375:19376   */\n      0x00\n        /* \"#utility.yul\":19360:19644   */\n    tag_563:\n        /* \"#utility.yul\":19385:19391   */\n      dup4\n        /* \"#utility.yul\":19382:19383   */\n      dup2\n        /* \"#utility.yul\":19379:19392   */\n      lt\n        /* \"#utility.yul\":19360:19644   */\n      iszero\n      tag_565\n      jumpi\n        /* \"#utility.yul\":19461:19467   */\n      dup2\n        /* \"#utility.yul\":19455:19468   */\n      mload\n        /* \"#utility.yul\":19488:19551   */\n      tag_566\n        /* \"#utility.yul\":19547:19550   */\n      dup9\n        /* \"#utility.yul\":19532:19545   */\n      dup3\n        /* \"#utility.yul\":19488:19551   */\n      tag_326\n      jump\t// in\n    tag_566:\n        /* \"#utility.yul\":19481:19551   */\n      swap8\n      pop\n        /* \"#utility.yul\":19574:19634   */\n      tag_567\n        /* \"#utility.yul\":19627:19633   */\n      dup4\n        /* \"#utility.yul\":19574:19634   */\n      tag_327\n      jump\t// in\n    tag_567:\n        /* \"#utility.yul\":19564:19634   */\n      swap3\n      pop\n        /* \"#utility.yul\":19420:19644   */\n      pop\n        /* \"#utility.yul\":19407:19408   */\n      0x01\n        /* \"#utility.yul\":19404:19405   */\n      dup2\n        /* \"#utility.yul\":19400:19409   */\n      add\n        /* \"#utility.yul\":19395:19409   */\n      swap1\n      pop\n        /* \"#utility.yul\":19360:19644   */\n      jump(tag_563)\n    tag_565:\n        /* \"#utility.yul\":19364:19378   */\n      pop\n        /* \"#utility.yul\":19660:19663   */\n      dup6\n        /* \"#utility.yul\":19653:19663   */\n      swap4\n      pop\n        /* \"#utility.yul\":19071:19669   */\n      pop\n      pop\n      pop\n        /* \"#utility.yul\":18957:19669   */\n      swap3\n      swap2\n      pop\n      pop\n      jump\t// out\n        /* \"#utility.yul\":19749:20930   */\n    tag_331:\n        /* \"#utility.yul\":19872:19875   */\n      0x00\n        /* \"#utility.yul\":19908:19912   */\n      0xa0\n        /* \"#utility.yul\":19903:19906   */\n      dup4\n        /* \"#utility.yul\":19899:19913   */\n      add\n        /* \"#utility.yul\":20000:20004   */\n      0x00\n        /* \"#utility.yul\":19993:19998   */\n      dup4\n        /* \"#utility.yul\":19989:20005   */\n      add\n        /* \"#utility.yul\":19983:20006   */\n      mload\n        /* \"#utility.yul\":20019:20082   */\n      tag_569\n        /* \"#utility.yul\":20076:20080   */\n      0x00\n        /* \"#utility.yul\":20071:20074   */\n      dup7\n        /* \"#utility.yul\":20067:20081   */\n      add\n        /* \"#utility.yul\":20053:20065   */\n      dup3\n        /* \"#utility.yul\":20019:20082   */\n      tag_291\n      jump\t// in\n    tag_569:\n        /* \"#utility.yul\":19923:20092   */\n      pop\n        /* \"#utility.yul\":20179:20183   */\n      0x20\n        /* \"#utility.yul\":20172:20177   */\n      dup4\n        /* \"#utility.yul\":20168:20184   */\n      add\n        /* \"#utility.yul\":20162:20185   */\n      mload\n        /* \"#utility.yul\":20232:20235   */\n      dup5\n        /* \"#utility.yul\":20226:20230   */\n      dup3\n        /* \"#utility.yul\":20222:20236   */\n      sub\n        /* \"#utility.yul\":20215:20219   */\n      0x20\n        /* \"#utility.yul\":20210:20213   */\n      dup7\n        /* \"#utility.yul\":20206:20220   */\n      add\n        /* \"#utility.yul\":20199:20237   */\n      mstore\n        /* \"#utility.yul\":20258:20361   */\n      tag_570\n        /* \"#utility.yul\":20356:20360   */\n      dup3\n        /* \"#utility.yul\":20342:20354   */\n      dup3\n        /* \"#utility.yul\":20258:20361   */\n      tag_330\n      jump\t// in\n    tag_570:\n        /* \"#utility.yul\":20250:20361   */\n      swap2\n      pop\n        /* \"#utility.yul\":20102:20372   */\n      pop\n        /* \"#utility.yul\":20460:20464   */\n      0x40\n        /* \"#utility.yul\":20453:20458   */\n      dup4\n        /* \"#utility.yul\":20449:20465   */\n      add\n        /* \"#utility.yul\":20443:20466   */\n      mload\n        /* \"#utility.yul\":20479:20542   */\n      tag_571\n        /* \"#utility.yul\":20536:20540   */\n      0x40\n        /* \"#utility.yul\":20531:20534   */\n      dup7\n        /* \"#utility.yul\":20527:20541   */\n      add\n        /* \"#utility.yul\":20513:20525   */\n      dup3\n        /* \"#utility.yul\":20479:20542   */\n      tag_292\n      jump\t// in\n    tag_571:\n        /* \"#utility.yul\":20382:20552   */\n      pop\n        /* \"#utility.yul\":20638:20642   */\n      0x60\n        /* \"#utility.yul\":20631:20636   */\n      dup4\n        /* \"#utility.yul\":20627:20643   */\n      add\n        /* \"#utility.yul\":20621:20644   */\n      mload\n        /* \"#utility.yul\":20657:20714   */\n      tag_572\n        /* \"#utility.yul\":20708:20712   */\n      0x60\n        /* \"#utility.yul\":20703:20706   */\n      dup7\n        /* \"#utility.yul\":20699:20713   */\n      add\n        /* \"#utility.yul\":20685:20697   */\n      dup3\n        /* \"#utility.yul\":20657:20714   */\n      tag_307\n      jump\t// in\n    tag_572:\n        /* \"#utility.yul\":20562:20724   */\n      pop\n        /* \"#utility.yul\":20811:20815   */\n      0x80\n        /* \"#utility.yul\":20804:20809   */\n      dup4\n        /* \"#utility.yul\":20800:20816   */\n      add\n        /* \"#utility.yul\":20794:20817   */\n      mload\n        /* \"#utility.yul\":20830:20893   */\n      tag_573\n        /* \"#utility.yul\":20887:20891   */\n      0x80\n        /* \"#utility.yul\":20882:20885   */\n      dup7\n        /* \"#utility.yul\":20878:20892   */\n      add\n        /* \"#utility.yul\":20864:20876   */\n      dup3\n        /* \"#utility.yul\":20830:20893   */\n      tag_292\n      jump\t// in\n    tag_573:\n        /* \"#utility.yul\":20734:20903   */\n      pop\n        /* \"#utility.yul\":20920:20924   */\n      dup1\n        /* \"#utility.yul\":20913:20924   */\n      swap2\n      pop\n        /* \"#utility.yul\":19877:20930   */\n      pop\n        /* \"#utility.yul\":19749:20930   */\n      swap3\n      swap2\n      pop\n      pop\n      jump\t// out\n        /* \"#utility.yul\":20936:21317   */\n    tag_71:\n        /* \"#utility.yul\":21083:21087   */\n      0x00\n        /* \"#utility.yul\":21121:21123   */\n      0x20\n        /* \"#utility.yul\":21110:21119   */\n      dup3\n        /* \"#utility.yul\":21106:21124   */\n      add\n        /* \"#utility.yul\":21098:21124   */\n      swap1\n      pop\n        /* \"#utility.yul\":21170:21179   */\n      dup2\n        /* \"#utility.yul\":21164:21168   */\n      dup2\n        /* \"#utility.yul\":21160:21180   */\n      sub\n        /* \"#utility.yul\":21156:21157   */\n      0x00\n        /* \"#utility.yul\":21145:21154   */\n      dup4\n        /* \"#utility.yul\":21141:21158   */\n      add\n        /* \"#utility.yul\":21134:21181   */\n      mstore\n        /* \"#utility.yul\":21198:21310   */\n      tag_575\n        /* \"#utility.yul\":21305:21309   */\n      dup2\n        /* \"#utility.yul\":21296:21302   */\n      dup5\n        /* \"#utility.yul\":21198:21310   */\n      tag_331\n      jump\t// in\n    tag_575:\n        /* \"#utility.yul\":21190:21310   */\n      swap1\n      pop\n        /* \"#utility.yul\":20936:21317   */\n      swap3\n      swap2\n      pop\n      pop\n      jump\t// out\n        /* \"#utility.yul\":21323:21634   */\n    tag_332:\n        /* \"#utility.yul\":21400:21404   */\n      0x00\n        /* \"#utility.yul\":21490:21508   */\n      0xffffffffffffffff\n        /* \"#utility.yul\":21482:21488   */\n      dup3\n        /* \"#utility.yul\":21479:21509   */\n      gt\n        /* \"#utility.yul\":21476:21532   */\n      iszero\n      tag_577\n      jumpi\n        /* \"#utility.yul\":21512:21530   */\n      tag_578\n      tag_314\n      jump\t// in\n    tag_578:\n        /* \"#utility.yul\":21476:21532   */\n    tag_577:\n        /* \"#utility.yul\":21562:21566   */\n      0x20\n        /* \"#utility.yul\":21554:21560   */\n      dup3\n        /* \"#utility.yul\":21550:21567   */\n      mul\n        /* \"#utility.yul\":21542:21567   */\n      swap1\n      pop\n        /* \"#utility.yul\":21622:21626   */\n      0x20\n        /* \"#utility.yul\":21616:21620   */\n      dup2\n        /* \"#utility.yul\":21612:21627   */\n      add\n        /* \"#utility.yul\":21604:21627   */\n      swap1\n      pop\n        /* \"#utility.yul\":21323:21634   */\n      swap2\n      swap1\n      pop\n      jump\t// out\n        /* \"#utility.yul\":21640:21757   */\n    tag_333:\n        /* \"#utility.yul\":21749:21750   */\n      0x00\n        /* \"#utility.yul\":21746:21747   */\n      0x00\n        /* \"#utility.yul\":21739:21751   */\n      revert\n        /* \"#utility.yul\":21780:22490   */\n    tag_334:\n        /* \"#utility.yul\":21876:21881   */\n      0x00\n        /* \"#utility.yul\":21901:21982   */\n      tag_581\n        /* \"#utility.yul\":21917:21981   */\n      tag_582\n        /* \"#utility.yul\":21974:21980   */\n      dup5\n        /* \"#utility.yul\":21917:21981   */\n      tag_332\n      jump\t// in\n    tag_582:\n        /* \"#utility.yul\":21901:21982   */\n      tag_316\n      jump\t// in\n    tag_581:\n        /* \"#utility.yul\":21892:21982   */\n      swap1\n      pop\n        /* \"#utility.yul\":22002:22007   */\n      dup1\n        /* \"#utility.yul\":22031:22037   */\n      dup4\n        /* \"#utility.yul\":22024:22029   */\n      dup3\n        /* \"#utility.yul\":22017:22038   */\n      mstore\n        /* \"#utility.yul\":22065:22069   */\n      0x20\n        /* \"#utility.yul\":22058:22063   */\n      dup3\n        /* \"#utility.yul\":22054:22070   */\n      add\n        /* \"#utility.yul\":22047:22070   */\n      swap1\n      pop\n        /* \"#utility.yul\":22118:22122   */\n      0x20\n        /* \"#utility.yul\":22110:22116   */\n      dup5\n        /* \"#utility.yul\":22106:22123   */\n      mul\n        /* \"#utility.yul\":22098:22104   */\n      dup4\n        /* \"#utility.yul\":22094:22124   */\n      add\n        /* \"#utility.yul\":22147:22150   */\n      dup6\n        /* \"#utility.yul\":22139:22145   */\n      dup2\n        /* \"#utility.yul\":22136:22151   */\n      gt\n        /* \"#utility.yul\":22133:22255   */\n      iszero\n      tag_583\n      jumpi\n        /* \"#utility.yul\":22166:22245   */\n      tag_584\n      tag_333\n      jump\t// in\n    tag_584:\n        /* \"#utility.yul\":22133:22255   */\n    tag_583:\n        /* \"#utility.yul\":22281:22287   */\n      dup4\n        /* \"#utility.yul\":22264:22484   */\n    tag_585:\n        /* \"#utility.yul\":22298:22304   */\n      dup2\n        /* \"#utility.yul\":22293:22296   */\n      dup2\n        /* \"#utility.yul\":22290:22305   */\n      lt\n        /* \"#utility.yul\":22264:22484   */\n      iszero\n      tag_587\n      jumpi\n        /* \"#utility.yul\":22373:22376   */\n      dup1\n        /* \"#utility.yul\":22402:22439   */\n      tag_588\n        /* \"#utility.yul\":22435:22438   */\n      dup9\n        /* \"#utility.yul\":22423:22433   */\n      dup3\n        /* \"#utility.yul\":22402:22439   */\n      tag_285\n      jump\t// in\n    tag_588:\n        /* \"#utility.yul\":22397:22400   */\n      dup5\n        /* \"#utility.yul\":22390:22440   */\n      mstore\n        /* \"#utility.yul\":22469:22473   */\n      0x20\n        /* \"#utility.yul\":22464:22467   */\n      dup5\n        /* \"#utility.yul\":22460:22474   */\n      add\n        /* \"#utility.yul\":22453:22474   */\n      swap4\n      pop\n        /* \"#utility.yul\":22340:22484   */\n      pop\n        /* \"#utility.yul\":22324:22328   */\n      0x20\n        /* \"#utility.yul\":22319:22322   */\n      dup2\n        /* \"#utility.yul\":22315:22329   */\n      add\n        /* \"#utility.yul\":22308:22329   */\n      swap1\n      pop\n        /* \"#utility.yul\":22264:22484   */\n      jump(tag_585)\n    tag_587:\n        /* \"#utility.yul\":22268:22289   */\n      pop\n        /* \"#utility.yul\":21882:22490   */\n      pop\n      pop\n        /* \"#utility.yul\":21780:22490   */\n      swap4\n      swap3\n      pop\n      pop\n      pop\n      jump\t// out\n        /* \"#utility.yul\":22513:22883   */\n    tag_335:\n        /* \"#utility.yul\":22584:22589   */\n      0x00\n        /* \"#utility.yul\":22633:22636   */\n      dup3\n        /* \"#utility.yul\":22626:22630   */\n      0x1f\n        /* \"#utility.yul\":22618:22624   */\n      dup4\n        /* \"#utility.yul\":22614:22631   */\n      add\n        /* \"#utility.yul\":22610:22637   */\n      slt\n        /* \"#utility.yul\":22600:22722   */\n      tag_590\n      jumpi\n        /* \"#utility.yul\":22641:22720   */\n      tag_591\n      tag_312\n      jump\t// in\n    tag_591:\n        /* \"#utility.yul\":22600:22722   */\n    tag_590:\n        /* \"#utility.yul\":22758:22764   */\n      dup2\n        /* \"#utility.yul\":22745:22765   */\n      calldataload\n        /* \"#utility.yul\":22783:22877   */\n      tag_592\n        /* \"#utility.yul\":22873:22876   */\n      dup5\n        /* \"#utility.yul\":22865:22871   */\n      dup3\n        /* \"#utility.yul\":22858:22862   */\n      0x20\n        /* \"#utility.yul\":22850:22856   */\n      dup7\n        /* \"#utility.yul\":22846:22863   */\n      add\n        /* \"#utility.yul\":22783:22877   */\n      tag_334\n      jump\t// in\n    tag_592:\n        /* \"#utility.yul\":22774:22877   */\n      swap2\n      pop\n        /* \"#utility.yul\":22590:22883   */\n      pop\n        /* \"#utility.yul\":22513:22883   */\n      swap3\n      swap2\n      pop\n      pop\n      jump\t// out\n        /* \"#utility.yul\":22889:23718   */\n    tag_77:\n        /* \"#utility.yul\":22991:22997   */\n      0x00\n        /* \"#utility.yul\":22999:23005   */\n      0x00\n        /* \"#utility.yul\":23007:23013   */\n      0x00\n        /* \"#utility.yul\":23056:23058   */\n      0x60\n        /* \"#utility.yul\":23044:23053   */\n      dup5\n        /* \"#utility.yul\":23035:23042   */\n      dup7\n        /* \"#utility.yul\":23031:23054   */\n      sub\n        /* \"#utility.yul\":23027:23059   */\n      slt\n        /* \"#utility.yul\":23024:23143   */\n      iszero\n      tag_594\n      jumpi\n        /* \"#utility.yul\":23062:23141   */\n      tag_595\n      tag_281\n      jump\t// in\n    tag_595:\n        /* \"#utility.yul\":23024:23143   */\n    tag_594:\n        /* \"#utility.yul\":23182:23183   */\n      0x00\n        /* \"#utility.yul\":23207:23260   */\n      tag_596\n        /* \"#utility.yul\":23252:23259   */\n      dup7\n        /* \"#utility.yul\":23243:23249   */\n      dup3\n        /* \"#utility.yul\":23232:23241   */\n      dup8\n        /* \"#utility.yul\":23228:23250   */\n      add\n        /* \"#utility.yul\":23207:23260   */\n      tag_311\n      jump\t// in\n    tag_596:\n        /* \"#utility.yul\":23197:23260   */\n      swap4\n      pop\n        /* \"#utility.yul\":23153:23270   */\n      pop\n        /* \"#utility.yul\":23337:23339   */\n      0x20\n        /* \"#utility.yul\":23326:23335   */\n      dup5\n        /* \"#utility.yul\":23322:23340   */\n      add\n        /* \"#utility.yul\":23309:23341   */\n      calldataload\n        /* \"#utility.yul\":23368:23386   */\n      0xffffffffffffffff\n        /* \"#utility.yul\":23360:23366   */\n      dup2\n        /* \"#utility.yul\":23357:23387   */\n      gt\n        /* \"#utility.yul\":23354:23471   */\n      iszero\n      tag_597\n      jumpi\n        /* \"#utility.yul\":23390:23469   */\n      tag_598\n      tag_282\n      jump\t// in\n    tag_598:\n        /* \"#utility.yul\":23354:23471   */\n    tag_597:\n        /* \"#utility.yul\":23495:23573   */\n      tag_599\n        /* \"#utility.yul\":23565:23572   */\n      dup7\n        /* \"#utility.yul\":23556:23562   */\n      dup3\n        /* \"#utility.yul\":23545:23554   */\n      dup8\n        /* \"#utility.yul\":23541:23563   */\n      add\n        /* \"#utility.yul\":23495:23573   */\n      tag_335\n      jump\t// in\n    tag_599:\n        /* \"#utility.yul\":23485:23573   */\n      swap3\n      pop\n        /* \"#utility.yul\":23280:23583   */\n      pop\n        /* \"#utility.yul\":23622:23624   */\n      0x40\n        /* \"#utility.yul\":23648:23701   */\n      tag_600\n        /* \"#utility.yul\":23693:23700   */\n      dup7\n        /* \"#utility.yul\":23684:23690   */\n      dup3\n        /* \"#utility.yul\":23673:23682   */\n      dup8\n        /* \"#utility.yul\":23669:23691   */\n      add\n        /* \"#utility.yul\":23648:23701   */\n      tag_285\n      jump\t// in\n    tag_600:\n        /* \"#utility.yul\":23638:23701   */\n      swap2\n      pop\n        /* \"#utility.yul\":23593:23711   */\n      pop\n        /* \"#utility.yul\":22889:23718   */\n      swap3\n      pop\n      swap3\n      pop\n      swap3\n      jump\t// out\n        /* \"#utility.yul\":23724:23842   */\n    tag_336:\n        /* \"#utility.yul\":23811:23835   */\n      tag_602\n        /* \"#utility.yul\":23829:23834   */\n      dup2\n        /* \"#utility.yul\":23811:23835   */\n      tag_290\n      jump\t// in\n    tag_602:\n        /* \"#utility.yul\":23806:23809   */\n      dup3\n        /* \"#utility.yul\":23799:23836   */\n      mstore\n        /* \"#utility.yul\":23724:23842   */\n      pop\n      pop\n      jump\t// out\n        /* \"#utility.yul\":23848:24070   */\n    tag_83:\n        /* \"#utility.yul\":23941:23945   */\n      0x00\n        /* \"#utility.yul\":23979:23981   */\n      0x20\n        /* \"#utility.yul\":23968:23977   */\n      dup3\n        /* \"#utility.yul\":23964:23982   */\n      add\n        /* \"#utility.yul\":23956:23982   */\n      swap1\n      pop\n        /* \"#utility.yul\":23992:24063   */\n      tag_604\n        /* \"#utility.yul\":24060:24061   */\n      0x00\n        /* \"#utility.yul\":24049:24058   */\n      dup4\n        /* \"#utility.yul\":24045:24062   */\n      add\n        /* \"#utility.yul\":24036:24042   */\n      dup5\n        /* \"#utility.yul\":23992:24063   */\n      tag_336\n      jump\t// in\n    tag_604:\n        /* \"#utility.yul\":23848:24070   */\n      swap3\n      swap2\n      pop\n      pop\n      jump\t// out\n        /* \"#utility.yul\":24076:24695   */\n    tag_86:\n        /* \"#utility.yul\":24153:24159   */\n      0x00\n        /* \"#utility.yul\":24161:24167   */\n      0x00\n        /* \"#utility.yul\":24169:24175   */\n      0x00\n        /* \"#utility.yul\":24218:24220   */\n      0x60\n        /* \"#utility.yul\":24206:24215   */\n      dup5\n        /* \"#utility.yul\":24197:24204   */\n      dup7\n        /* \"#utility.yul\":24193:24216   */\n      sub\n        /* \"#utility.yul\":24189:24221   */\n      slt\n        /* \"#utility.yul\":24186:24305   */\n      iszero\n      tag_606\n      jumpi\n        /* \"#utility.yul\":24224:24303   */\n      tag_607\n      tag_281\n      jump\t// in\n    tag_607:\n        /* \"#utility.yul\":24186:24305   */\n    tag_606:\n        /* \"#utility.yul\":24344:24345   */\n      0x00\n        /* \"#utility.yul\":24369:24422   */\n      tag_608\n        /* \"#utility.yul\":24414:24421   */\n      dup7\n        /* \"#utility.yul\":24405:24411   */\n      dup3\n        /* \"#utility.yul\":24394:24403   */\n      dup8\n        /* \"#utility.yul\":24390:24412   */\n      add\n        /* \"#utility.yul\":24369:24422   */\n      tag_311\n      jump\t// in\n    tag_608:\n        /* \"#utility.yul\":24359:24422   */\n      swap4\n      pop\n        /* \"#utility.yul\":24315:24432   */\n      pop\n        /* \"#utility.yul\":24471:24473   */\n      0x20\n        /* \"#utility.yul\":24497:24550   */\n      tag_609\n        /* \"#utility.yul\":24542:24549   */\n      dup7\n        /* \"#utility.yul\":24533:24539   */\n      dup3\n        /* \"#utility.yul\":24522:24531   */\n      dup8\n        /* \"#utility.yul\":24518:24540   */\n      add\n        /* \"#utility.yul\":24497:24550   */\n      tag_311\n      jump\t// in\n    tag_609:\n        /* \"#utility.yul\":24487:24550   */\n      swap3\n      pop\n        /* \"#utility.yul\":24442:24560   */\n      pop\n        /* \"#utility.yul\":24599:24601   */\n      0x40\n        /* \"#utility.yul\":24625:24678   */\n      tag_610\n        /* \"#utility.yul\":24670:24677   */\n      dup7\n        /* \"#utility.yul\":24661:24667   */\n      dup3\n        /* \"#utility.yul\":24650:24659   */\n      dup8\n        /* \"#utility.yul\":24646:24668   */\n      add\n        /* \"#utility.yul\":24625:24678   */\n      tag_285\n      jump\t// in\n    tag_610:\n        /* \"#utility.yul\":24615:24678   */\n      swap2\n      pop\n        /* \"#utility.yul\":24570:24688   */\n      pop\n        /* \"#utility.yul\":24076:24695   */\n      swap3\n      pop\n      swap3\n      pop\n      swap3\n      jump\t// out\n        /* \"#utility.yul\":24701:24810   */\n    tag_337:\n        /* \"#utility.yul\":24782:24803   */\n      tag_612\n        /* \"#utility.yul\":24797:24802   */\n      dup2\n        /* \"#utility.yul\":24782:24803   */\n      tag_306\n      jump\t// in\n    tag_612:\n        /* \"#utility.yul\":24777:24780   */\n      dup3\n        /* \"#utility.yul\":24770:24804   */\n      mstore\n        /* \"#utility.yul\":24701:24810   */\n      pop\n      pop\n      jump\t// out\n        /* \"#utility.yul\":24816:25026   */\n    tag_89:\n        /* \"#utility.yul\":24903:24907   */\n      0x00\n        /* \"#utility.yul\":24941:24943   */\n      0x20\n        /* \"#utility.yul\":24930:24939   */\n      dup3\n        /* \"#utility.yul\":24926:24944   */\n      add\n        /* \"#utility.yul\":24918:24944   */\n      swap1\n      pop\n        /* \"#utility.yul\":24954:25019   */\n      tag_614\n        /* \"#utility.yul\":25016:25017   */\n      0x00\n        /* \"#utility.yul\":25005:25014   */\n      dup4\n        /* \"#utility.yul\":25001:25018   */\n      add\n        /* \"#utility.yul\":24992:24998   */\n      dup5\n        /* \"#utility.yul\":24954:25019   */\n      tag_337\n      jump\t// in\n    tag_614:\n        /* \"#utility.yul\":24816:25026   */\n      swap3\n      swap2\n      pop\n      pop\n      jump\t// out\n        /* \"#utility.yul\":25032:25201   */\n    tag_338:\n        /* \"#utility.yul\":25116:25127   */\n      0x00\n        /* \"#utility.yul\":25150:25156   */\n      dup3\n        /* \"#utility.yul\":25145:25148   */\n      dup3\n        /* \"#utility.yul\":25138:25157   */\n      mstore\n        /* \"#utility.yul\":25190:25194   */\n      0x20\n        /* \"#utility.yul\":25185:25188   */\n      dup3\n        /* \"#utility.yul\":25181:25195   */\n      add\n        /* \"#utility.yul\":25166:25195   */\n      swap1\n      pop\n        /* \"#utility.yul\":25032:25201   */\n      swap3\n      swap2\n      pop\n      pop\n      jump\t// out\n        /* \"#utility.yul\":25207:25430   */\n    tag_339:\n        /* \"#utility.yul\":25347:25381   */\n      0x4f6e6c792070617469656e742063616e20706572666f726d2074686973206163\n        /* \"#utility.yul\":25343:25344   */\n      0x00\n        /* \"#utility.yul\":25335:25341   */\n      dup3\n        /* \"#utility.yul\":25331:25345   */\n      add\n        /* \"#utility.yul\":25324:25382   */\n      mstore\n        /* \"#utility.yul\":25416:25422   */\n      0x74696f6e00000000000000000000000000000000000000000000000000000000\n        /* \"#utility.yul\":25411:25413   */\n      0x20\n        /* \"#utility.yul\":25403:25409   */\n      dup3\n        /* \"#utility.yul\":25399:25414   */\n      add\n        /* \"#utility.yul\":25392:25423   */\n      mstore\n        /* \"#utility.yul\":25207:25430   */\n      pop\n      jump\t// out\n        /* \"#utility.yul\":25436:25802   */\n    tag_340:\n        /* \"#utility.yul\":25578:25581   */\n      0x00\n        /* \"#utility.yul\":25599:25666   */\n      tag_618\n        /* \"#utility.yul\":25663:25665   */\n      0x24\n        /* \"#utility.yul\":25658:25661   */\n      dup4\n        /* \"#utility.yul\":25599:25666   */\n      tag_338\n      jump\t// in\n    tag_618:\n        /* \"#utility.yul\":25592:25666   */\n      swap2\n      pop\n        /* \"#utility.yul\":25675:25768   */\n      tag_619\n        /* \"#utility.yul\":25764:25767   */\n      dup3\n        /* \"#utility.yul\":25675:25768   */\n      tag_339\n      jump\t// in\n    tag_619:\n        /* \"#utility.yul\":25793:25795   */\n      0x40\n        /* \"#utility.yul\":25788:25791   */\n      dup3\n        /* \"#utility.yul\":25784:25796   */\n      add\n        /* \"#utility.yul\":25777:25796   */\n      swap1\n      pop\n        /* \"#utility.yul\":25436:25802   */\n      swap2\n      swap1\n      pop\n      jump\t// out\n        /* \"#utility.yul\":25808:26227   */\n    tag_93:\n        /* \"#utility.yul\":25974:25978   */\n      0x00\n        /* \"#utility.yul\":26012:26014   */\n      0x20\n        /* \"#utility.yul\":26001:26010   */\n      dup3\n        /* \"#utility.yul\":25997:26015   */\n      add\n        /* \"#utility.yul\":25989:26015   */\n      swap1\n      pop\n        /* \"#utility.yul\":26061:26070   */\n      dup2\n        /* \"#utility.yul\":26055:26059   */\n      dup2\n        /* \"#utility.yul\":26051:26071   */\n      sub\n        /* \"#utility.yul\":26047:26048   */\n      0x00\n        /* \"#utility.yul\":26036:26045   */\n      dup4\n        /* \"#utility.yul\":26032:26049   */\n      add\n        /* \"#utility.yul\":26025:26072   */\n      mstore\n        /* \"#utility.yul\":26089:26220   */\n      tag_621\n        /* \"#utility.yul\":26215:26219   */\n      dup2\n        /* \"#utility.yul\":26089:26220   */\n      tag_340\n      jump\t// in\n    tag_621:\n        /* \"#utility.yul\":26081:26220   */\n      swap1\n      pop\n        /* \"#utility.yul\":25808:26227   */\n      swap2\n      swap1\n      pop\n      jump\t// out\n        /* \"#utility.yul\":26233:26413   */\n    tag_341:\n        /* \"#utility.yul\":26281:26358   */\n      0x4e487b7100000000000000000000000000000000000000000000000000000000\n        /* \"#utility.yul\":26278:26279   */\n      0x00\n        /* \"#utility.yul\":26271:26359   */\n      mstore\n        /* \"#utility.yul\":26378:26382   */\n      0x22\n        /* \"#utility.yul\":26375:26376   */\n      0x04\n        /* \"#utility.yul\":26368:26383   */\n      mstore\n        /* \"#utility.yul\":26402:26406   */\n      0x24\n        /* \"#utility.yul\":26399:26400   */\n      0x00\n        /* \"#utility.yul\":26392:26407   */\n      revert\n        /* \"#utility.yul\":26419:26739   */\n    tag_99:\n        /* \"#utility.yul\":26463:26469   */\n      0x00\n        /* \"#utility.yul\":26500:26501   */\n      0x02\n        /* \"#utility.yul\":26494:26498   */\n      dup3\n        /* \"#utility.yul\":26490:26502   */\n      div\n        /* \"#utility.yul\":26480:26502   */\n      swap1\n      pop\n        /* \"#utility.yul\":26547:26548   */\n      0x01\n        /* \"#utility.yul\":26541:26545   */\n      dup3\n        /* \"#utility.yul\":26537:26549   */\n      and\n        /* \"#utility.yul\":26568:26586   */\n      dup1\n        /* \"#utility.yul\":26558:26639   */\n      tag_624\n      jumpi\n        /* \"#utility.yul\":26624:26628   */\n      0x7f\n        /* \"#utility.yul\":26616:26622   */\n      dup3\n        /* \"#utility.yul\":26612:26629   */\n      and\n        /* \"#utility.yul\":26602:26629   */\n      swap2\n      pop\n        /* \"#utility.yul\":26558:26639   */\n    tag_624:\n        /* \"#utility.yul\":26686:26688   */\n      0x20\n        /* \"#utility.yul\":26678:26684   */\n      dup3\n        /* \"#utility.yul\":26675:26689   */\n      lt\n        /* \"#utility.yul\":26655:26673   */\n      dup2\n        /* \"#utility.yul\":26652:26690   */\n      sub\n        /* \"#utility.yul\":26649:26733   */\n      tag_625\n      jumpi\n        /* \"#utility.yul\":26705:26723   */\n      tag_626\n      tag_341\n      jump\t// in\n    tag_626:\n        /* \"#utility.yul\":26649:26733   */\n    tag_625:\n        /* \"#utility.yul\":26470:26739   */\n      pop\n        /* \"#utility.yul\":26419:26739   */\n      swap2\n      swap1\n      pop\n      jump\t// out\n        /* \"#utility.yul\":26745:26916   */\n    tag_342:\n        /* \"#utility.yul\":26885:26908   */\n      0x5265636f726420646f6573206e6f742065786973740000000000000000000000\n        /* \"#utility.yul\":26881:26882   */\n      0x00\n        /* \"#utility.yul\":26873:26879   */\n      dup3\n        /* \"#utility.yul\":26869:26883   */\n      add\n        /* \"#utility.yul\":26862:26909   */\n      mstore\n        /* \"#utility.yul\":26745:26916   */\n      pop\n      jump\t// out\n        /* \"#utility.yul\":26922:27288   */\n    tag_343:\n        /* \"#utility.yul\":27064:27067   */\n      0x00\n        /* \"#utility.yul\":27085:27152   */\n      tag_629\n        /* \"#utility.yul\":27149:27151   */\n      0x15\n        /* \"#utility.yul\":27144:27147   */\n      dup4\n        /* \"#utility.yul\":27085:27152   */\n      tag_338\n      jump\t// in\n    tag_629:\n        /* \"#utility.yul\":27078:27152   */\n      swap2\n      pop\n        /* \"#utility.yul\":27161:27254   */\n      tag_630\n        /* \"#utility.yul\":27250:27253   */\n      dup3\n        /* \"#utility.yul\":27161:27254   */\n      tag_342\n      jump\t// in\n    tag_630:\n        /* \"#utility.yul\":27279:27281   */\n      0x20\n        /* \"#utility.yul\":27274:27277   */\n      dup3\n        /* \"#utility.yul\":27270:27282   */\n      add\n        /* \"#utility.yul\":27263:27282   */\n      swap1\n      pop\n        /* \"#utility.yul\":26922:27288   */\n      swap2\n      swap1\n      pop\n      jump\t// out\n        /* \"#utility.yul\":27294:27713   */\n    tag_110:\n        /* \"#utility.yul\":27460:27464   */\n      0x00\n        /* \"#utility.yul\":27498:27500   */\n      0x20\n        /* \"#utility.yul\":27487:27496   */\n      dup3\n        /* \"#utility.yul\":27483:27501   */\n      add\n        /* \"#utility.yul\":27475:27501   */\n      swap1\n      pop\n        /* \"#utility.yul\":27547:27556   */\n      dup2\n        /* \"#utility.yul\":27541:27545   */\n      dup2\n        /* \"#utility.yul\":27537:27557   */\n      sub\n        /* \"#utility.yul\":27533:27534   */\n      0x00\n        /* \"#utility.yul\":27522:27531   */\n      dup4\n        /* \"#utility.yul\":27518:27535   */\n      add\n        /* \"#utility.yul\":27511:27558   */\n      mstore\n        /* \"#utility.yul\":27575:27706   */\n      tag_632\n        /* \"#utility.yul\":27701:27705   */\n      dup2\n        /* \"#utility.yul\":27575:27706   */\n      tag_343\n      jump\t// in\n    tag_632:\n        /* \"#utility.yul\":27567:27706   */\n      swap1\n      pop\n        /* \"#utility.yul\":27294:27713   */\n      swap2\n      swap1\n      pop\n      jump\t// out\n        /* \"#utility.yul\":27719:27889   */\n    tag_344:\n        /* \"#utility.yul\":27859:27881   */\n      0x5265636f7264206973206e6f7420616374697665000000000000000000000000\n        /* \"#utility.yul\":27855:27856   */\n      0x00\n        /* \"#utility.yul\":27847:27853   */\n      dup3\n        /* \"#utility.yul\":27843:27857   */\n      add\n        /* \"#utility.yul\":27836:27882   */\n      mstore\n        /* \"#utility.yul\":27719:27889   */\n      pop\n      jump\t// out\n        /* \"#utility.yul\":27895:28261   */\n    tag_345:\n        /* \"#utility.yul\":28037:28040   */\n      0x00\n        /* \"#utility.yul\":28058:28125   */\n      tag_635\n        /* \"#utility.yul\":28122:28124   */\n      0x14\n        /* \"#utility.yul\":28117:28120   */\n      dup4\n        /* \"#utility.yul\":28058:28125   */\n      tag_338\n      jump\t// in\n    tag_635:\n        /* \"#utility.yul\":28051:28125   */\n      swap2\n      pop\n        /* \"#utility.yul\":28134:28227   */\n      tag_636\n        /* \"#utility.yul\":28223:28226   */\n      dup3\n        /* \"#utility.yul\":28134:28227   */\n      tag_344\n      jump\t// in\n    tag_636:\n        /* \"#utility.yul\":28252:28254   */\n      0x20\n        /* \"#utility.yul\":28247:28250   */\n      dup3\n        /* \"#utility.yul\":28243:28255   */\n      add\n        /* \"#utility.yul\":28236:28255   */\n      swap1\n      pop\n        /* \"#utility.yul\":27895:28261   */\n      swap2\n      swap1\n      pop\n      jump\t// out\n        /* \"#utility.yul\":28267:28686   */\n    tag_113:\n        /* \"#utility.yul\":28433:28437   */\n      0x00\n        /* \"#utility.yul\":28471:28473   */\n      0x20\n        /* \"#utility.yul\":28460:28469   */\n      dup3\n        /* \"#utility.yul\":28456:28474   */\n      add\n        /* \"#utility.yul\":28448:28474   */\n      swap1\n      pop\n        /* \"#utility.yul\":28520:28529   */\n      dup2\n        /* \"#utility.yul\":28514:28518   */\n      dup2\n        /* \"#utility.yul\":28510:28530   */\n      sub\n        /* \"#utility.yul\":28506:28507   */\n      0x00\n        /* \"#utility.yul\":28495:28504   */\n      dup4\n        /* \"#utility.yul\":28491:28508   */\n      add\n        /* \"#utility.yul\":28484:28531   */\n      mstore\n        /* \"#utility.yul\":28548:28679   */\n      tag_638\n        /* \"#utility.yul\":28674:28678   */\n      dup2\n        /* \"#utility.yul\":28548:28679   */\n      tag_345\n      jump\t// in\n    tag_638:\n        /* \"#utility.yul\":28540:28679   */\n      swap1\n      pop\n        /* \"#utility.yul\":28267:28686   */\n      swap2\n      swap1\n      pop\n      jump\t// out\n        /* \"#utility.yul\":28692:28915   */\n    tag_346:\n        /* \"#utility.yul\":28832:28866   */\n      0x4e6f7420617574686f72697a656420746f206163636573732074686973207265\n        /* \"#utility.yul\":28828:28829   */\n      0x00\n        /* \"#utility.yul\":28820:28826   */\n      dup3\n        /* \"#utility.yul\":28816:28830   */\n      add\n        /* \"#utility.yul\":28809:28867   */\n      mstore\n        /* \"#utility.yul\":28901:28907   */\n      0x636f726400000000000000000000000000000000000000000000000000000000\n        /* \"#utility.yul\":28896:28898   */\n      0x20\n        /* \"#utility.yul\":28888:28894   */\n      dup3\n        /* \"#utility.yul\":28884:28899   */\n      add\n        /* \"#utility.yul\":28877:28908   */\n      mstore\n        /* \"#utility.yul\":28692:28915   */\n      pop\n      jump\t// out\n        /* \"#utility.yul\":28921:29287   */\n    tag_347:\n        /* \"#utility.yul\":29063:29066   */\n      0x00\n        /* \"#utility.yul\":29084:29151   */\n      tag_641\n        /* \"#utility.yul\":29148:29150   */\n      0x24\n        /* \"#utility.yul\":29143:29146   */\n      dup4\n        /* \"#utility.yul\":29084:29151   */\n      tag_338\n      jump\t// in\n    tag_641:\n        /* \"#utility.yul\":29077:29151   */\n      swap2\n      pop\n        /* \"#utility.yul\":29160:29253   */\n      tag_642\n        /* \"#utility.yul\":29249:29252   */\n      dup3\n        /* \"#utility.yul\":29160:29253   */\n      tag_346\n      jump\t// in\n    tag_642:\n        /* \"#utility.yul\":29278:29280   */\n      0x40\n        /* \"#utility.yul\":29273:29276   */\n      dup3\n        /* \"#utility.yul\":29269:29281   */\n      add\n        /* \"#utility.yul\":29262:29281   */\n      swap1\n      pop\n        /* \"#utility.yul\":28921:29287   */\n      swap2\n      swap1\n      pop\n      jump\t// out\n        /* \"#utility.yul\":29293:29712   */\n    tag_118:\n        /* \"#utility.yul\":29459:29463   */\n      0x00\n        /* \"#utility.yul\":29497:29499   */\n      0x20\n        /* \"#utility.yul\":29486:29495   */\n      dup3\n        /* \"#utility.yul\":29482:29500   */\n      add\n        /* \"#utility.yul\":29474:29500   */\n      swap1\n      pop\n        /* \"#utility.yul\":29546:29555   */\n      dup2\n        /* \"#utility.yul\":29540:29544   */\n      dup2\n        /* \"#utility.yul\":29536:29556   */\n      sub\n        /* \"#utility.yul\":29532:29533   */\n      0x00\n        /* \"#utility.yul\":29521:29530   */\n      dup4\n        /* \"#utility.yul\":29517:29534   */\n      add\n        /* \"#utility.yul\":29510:29557   */\n      mstore\n        /* \"#utility.yul\":29574:29705   */\n      tag_644\n        /* \"#utility.yul\":29700:29704   */\n      dup2\n        /* \"#utility.yul\":29574:29705   */\n      tag_347\n      jump\t// in\n    tag_644:\n        /* \"#utility.yul\":29566:29705   */\n      swap1\n      pop\n        /* \"#utility.yul\":29293:29712   */\n      swap2\n      swap1\n      pop\n      jump\t// out\n        /* \"#utility.yul\":29718:29891   */\n    tag_348:\n        /* \"#utility.yul\":29858:29883   */\n      0x496e76616c69642070617469656e742061646472657373000000000000000000\n        /* \"#utility.yul\":29854:29855   */\n      0x00\n        /* \"#utility.yul\":29846:29852   */\n      dup3\n        /* \"#utility.yul\":29842:29856   */\n      add\n        /* \"#utility.yul\":29835:29884   */\n      mstore\n        /* \"#utility.yul\":29718:29891   */\n      pop\n      jump\t// out\n        /* \"#utility.yul\":29897:30263   */\n    tag_349:\n        /* \"#utility.yul\":30039:30042   */\n      0x00\n        /* \"#utility.yul\":30060:30127   */\n      tag_647\n        /* \"#utility.yul\":30124:30126   */\n      0x17\n        /* \"#utility.yul\":30119:30122   */\n      dup4\n        /* \"#utility.yul\":30060:30127   */\n      tag_338\n      jump\t// in\n    tag_647:\n        /* \"#utility.yul\":30053:30127   */\n      swap2\n      pop\n        /* \"#utility.yul\":30136:30229   */\n      tag_648\n        /* \"#utility.yul\":30225:30228   */\n      dup3\n        /* \"#utility.yul\":30136:30229   */\n      tag_348\n      jump\t// in\n    tag_648:\n        /* \"#utility.yul\":30254:30256   */\n      0x20\n        /* \"#utility.yul\":30249:30252   */\n      dup3\n        /* \"#utility.yul\":30245:30257   */\n      add\n        /* \"#utility.yul\":30238:30257   */\n      swap1\n      pop\n        /* \"#utility.yul\":29897:30263   */\n      swap2\n      swap1\n      pop\n      jump\t// out\n        /* \"#utility.yul\":30269:30688   */\n    tag_149:\n        /* \"#utility.yul\":30435:30439   */\n      0x00\n        /* \"#utility.yul\":30473:30475   */\n      0x20\n        /* \"#utility.yul\":30462:30471   */\n      dup3\n        /* \"#utility.yul\":30458:30476   */\n      add\n        /* \"#utility.yul\":30450:30476   */\n      swap1\n      pop\n        /* \"#utility.yul\":30522:30531   */\n      dup2\n        /* \"#utility.yul\":30516:30520   */\n      dup2\n        /* \"#utility.yul\":30512:30532   */\n      sub\n        /* \"#utility.yul\":30508:30509   */\n      0x00\n        /* \"#utility.yul\":30497:30506   */\n      dup4\n        /* \"#utility.yul\":30493:30510   */\n      add\n        /* \"#utility.yul\":30486:30533   */\n      mstore\n        /* \"#utility.yul\":30550:30681   */\n      tag_650\n        /* \"#utility.yul\":30676:30680   */\n      dup2\n        /* \"#utility.yul\":30550:30681   */\n      tag_349\n      jump\t// in\n    tag_650:\n        /* \"#utility.yul\":30542:30681   */\n      swap1\n      pop\n        /* \"#utility.yul\":30269:30688   */\n      swap2\n      swap1\n      pop\n      jump\t// out\n        /* \"#utility.yul\":30694:30869   */\n    tag_350:\n        /* \"#utility.yul\":30834:30861   */\n      0x4950465320686173682063616e6e6f7420626520656d70747900000000000000\n        /* \"#utility.yul\":30830:30831   */\n      0x00\n        /* \"#utility.yul\":30822:30828   */\n      dup3\n        /* \"#utility.yul\":30818:30832   */\n      add\n        /* \"#utility.yul\":30811:30862   */\n      mstore\n        /* \"#utility.yul\":30694:30869   */\n      pop\n      jump\t// out\n        /* \"#utility.yul\":30875:31241   */\n    tag_351:\n        /* \"#utility.yul\":31017:31020   */\n      0x00\n        /* \"#utility.yul\":31038:31105   */\n      tag_653\n        /* \"#utility.yul\":31102:31104   */\n      0x19\n        /* \"#utility.yul\":31097:31100   */\n      dup4\n        /* \"#utility.yul\":31038:31105   */\n      tag_338\n      jump\t// in\n    tag_653:\n        /* \"#utility.yul\":31031:31105   */\n      swap2\n      pop\n        /* \"#utility.yul\":31114:31207   */\n      tag_654\n        /* \"#utility.yul\":31203:31206   */\n      dup3\n        /* \"#utility.yul\":31114:31207   */\n      tag_350\n      jump\t// in\n    tag_654:\n        /* \"#utility.yul\":31232:31234   */\n      0x20\n        /* \"#utility.yul\":31227:31230   */\n      dup3\n        /* \"#utility.yul\":31223:31235   */\n      add\n        /* \"#utility.yul\":31216:31235   */\n      swap1\n      pop\n        /* \"#utility.yul\":30875:31241   */\n      swap2\n      swap1\n      pop\n      jump\t// out\n        /* \"#utility.yul\":31247:31666   */\n    tag_152:\n        /* \"#utility.yul\":31413:31417   */\n      0x00\n        /* \"#utility.yul\":31451:31453   */\n      0x20\n        /* \"#utility.yul\":31440:31449   */\n      dup3\n        /* \"#utility.yul\":31436:31454   */\n      add\n        /* \"#utility.yul\":31428:31454   */\n      swap1\n      pop\n        /* \"#utility.yul\":31500:31509   */\n      dup2\n        /* \"#utility.yul\":31494:31498   */\n      dup2\n        /* \"#utility.yul\":31490:31510   */\n      sub\n        /* \"#utility.yul\":31486:31487   */\n      0x00\n        /* \"#utility.yul\":31475:31484   */\n      dup4\n        /* \"#utility.yul\":31471:31488   */\n      add\n        /* \"#utility.yul\":31464:31511   */\n      mstore\n        /* \"#utility.yul\":31528:31659   */\n      tag_656\n        /* \"#utility.yul\":31654:31658   */\n      dup2\n        /* \"#utility.yul\":31528:31659   */\n      tag_351\n      jump\t// in\n    tag_656:\n        /* \"#utility.yul\":31520:31659   */\n      swap1\n      pop\n        /* \"#utility.yul\":31247:31666   */\n      swap2\n      swap1\n      pop\n      jump\t// out\n        /* \"#utility.yul\":31672:31852   */\n    tag_352:\n        /* \"#utility.yul\":31720:31797   */\n      0x4e487b7100000000000000000000000000000000000000000000000000000000\n        /* \"#utility.yul\":31717:31718   */\n      0x00\n        /* \"#utility.yul\":31710:31798   */\n      mstore\n        /* \"#utility.yul\":31817:31821   */\n      0x11\n        /* \"#utility.yul\":31814:31815   */\n      0x04\n        /* \"#utility.yul\":31807:31822   */\n      mstore\n        /* \"#utility.yul\":31841:31845   */\n      0x24\n        /* \"#utility.yul\":31838:31839   */\n      0x00\n        /* \"#utility.yul\":31831:31846   */\n      revert\n        /* \"#utility.yul\":31858:32091   */\n    tag_154:\n        /* \"#utility.yul\":31897:31900   */\n      0x00\n        /* \"#utility.yul\":31920:31944   */\n      tag_659\n        /* \"#utility.yul\":31938:31943   */\n      dup3\n        /* \"#utility.yul\":31920:31944   */\n      tag_283\n      jump\t// in\n    tag_659:\n        /* \"#utility.yul\":31911:31944   */\n      swap2\n      pop\n        /* \"#utility.yul\":31966:32032   */\n      0xffffffffffffffffffffffffffffffffffffffffffffffffffffffffffffffff\n        /* \"#utility.yul\":31959:31964   */\n      dup3\n        /* \"#utility.yul\":31956:32033   */\n      sub\n        /* \"#utility.yul\":31953:32056   */\n      tag_660\n      jumpi\n        /* \"#utility.yul\":32036:32054   */\n      tag_661\n      tag_352\n      jump\t// in\n    tag_661:\n        /* \"#utility.yul\":31953:32056   */\n    tag_660:\n        /* \"#utility.yul\":32083:32084   */\n      0x01\n        /* \"#utility.yul\":32076:32081   */\n      dup3\n        /* \"#utility.yul\":32072:32085   */\n      add\n        /* \"#utility.yul\":32065:32085   */\n      swap1\n      pop\n        /* \"#utility.yul\":31858:32091   */\n      swap2\n      swap1\n      pop\n      jump\t// out\n        /* \"#utility.yul\":32097:32238   */\n    tag_353:\n        /* \"#utility.yul\":32146:32150   */\n      0x00\n        /* \"#utility.yul\":32169:32172   */\n      dup2\n        /* \"#utility.yul\":32161:32172   */\n      swap1\n      pop\n        /* \"#utility.yul\":32192:32195   */\n      dup2\n        /* \"#utility.yul\":32189:32190   */\n      0x00\n        /* \"#utility.yul\":32182:32196   */\n      mstore\n        /* \"#utility.yul\":32226:32230   */\n      0x20\n        /* \"#utility.yul\":32223:32224   */\n      0x00\n        /* \"#utility.yul\":32213:32231   */\n      keccak256\n        /* \"#utility.yul\":32205:32231   */\n      swap1\n      pop\n        /* \"#utility.yul\":32097:32238   */\n      swap2\n      swap1\n      pop\n      jump\t// out\n        /* \"#utility.yul\":32244:32337   */\n    tag_354:\n        /* \"#utility.yul\":32281:32287   */\n      0x00\n        /* \"#utility.yul\":32328:32330   */\n      0x20\n        /* \"#utility.yul\":32323:32325   */\n      0x1f\n        /* \"#utility.yul\":32316:32321   */\n      dup4\n        /* \"#utility.yul\":32312:32326   */\n      add\n        /* \"#utility.yul\":32308:32331   */\n      div\n        /* \"#utility.yul\":32298:32331   */\n      swap1\n      pop\n        /* \"#utility.yul\":32244:32337   */\n      swap2\n      swap1\n      pop\n      jump\t// out\n        /* \"#utility.yul\":32343:32450   */\n    tag_355:\n        /* \"#utility.yul\":32387:32395   */\n      0x00\n        /* \"#utility.yul\":32437:32442   */\n      dup3\n        /* \"#utility.yul\":32431:32435   */\n      dup3\n        /* \"#utility.yul\":32427:32443   */\n      shl\n        /* \"#utility.yul\":32406:32443   */\n      swap1\n      pop\n        /* \"#utility.yul\":32343:32450   */\n      swap3\n      swap2\n      pop\n      pop\n      jump\t// out\n        /* \"#utility.yul\":32456:32849   */\n    tag_356:\n        /* \"#utility.yul\":32525:32531   */\n      0x00\n        /* \"#utility.yul\":32575:32576   */\n      0x08\n        /* \"#utility.yul\":32563:32573   */\n      dup4\n        /* \"#utility.yul\":32559:32577   */\n      mul\n        /* \"#utility.yul\":32598:32695   */\n      tag_666\n        /* \"#utility.yul\":32628:32694   */\n      0xffffffffffffffffffffffffffffffffffffffffffffffffffffffffffffffff\n        /* \"#utility.yul\":32617:32626   */\n      dup3\n        /* \"#utility.yul\":32598:32695   */\n      tag_355\n      jump\t// in\n    tag_666:\n        /* \"#utility.yul\":32716:32755   */\n      tag_667\n        /* \"#utility.yul\":32746:32754   */\n      dup7\n        /* \"#utility.yul\":32735:32744   */\n      dup4\n        /* \"#utility.yul\":32716:32755   */\n      tag_355\n      jump\t// in\n    tag_667:\n        /* \"#utility.yul\":32704:32755   */\n      swap6\n      pop\n        /* \"#utility.yul\":32788:32792   */\n      dup1\n        /* \"#utility.yul\":32784:32793   */\n      not\n        /* \"#utility.yul\":32777:32782   */\n      dup5\n        /* \"#utility.yul\":32773:32794   */\n      and\n        /* \"#utility.yul\":32764:32794   */\n      swap4\n      pop\n        /* \"#utility.yul\":32837:32841   */\n      dup1\n        /* \"#utility.yul\":32827:32835   */\n      dup7\n        /* \"#utility.yul\":32823:32842   */\n      and\n        /* \"#utility.yul\":32816:32821   */\n      dup5\n        /* \"#utility.yul\":32813:32843   */\n      or\n        /* \"#utility.yul\":32803:32843   */\n      swap3\n      pop\n        /* \"#utility.yul\":32532:32849   */\n      pop\n      pop\n        /* \"#utility.yul\":32456:32849   */\n      swap4\n      swap3\n      pop\n      pop\n      pop\n      jump\t// out\n        /* \"#utility.yul\":32855:32915   */\n    tag_357:\n        /* \"#utility.yul\":32883:32886   */\n      0x00\n        /* \"#utility.yul\":32904:32909   */\n      dup2\n        /* \"#utility.yul\":32897:32909   */\n      swap1\n      pop\n        /* \"#utility.yul\":32855:32915   */\n      swap2\n      swap1\n      pop\n      jump\t// out\n        /* \"#utility.yul\":32921:33063   */\n    tag_358:\n        /* \"#utility.yul\":32971:32980   */\n      0x00\n        /* \"#utility.yul\":33004:33057   */\n      tag_670\n        /* \"#utility.yul\":33022:33056   */\n      tag_671\n        /* \"#utility.yul\":33031:33055   */\n      tag_672\n        /* \"#utility.yul\":33049:33054   */\n      dup5\n        /* \"#utility.yul\":33031:33055   */\n      tag_283\n      jump\t// in\n    tag_672:\n        /* \"#utility.yul\":33022:33056   */\n      tag_357\n      jump\t// in\n    tag_671:\n        /* \"#utility.yul\":33004:33057   */\n      tag_283\n      jump\t// in\n    tag_670:\n        /* \"#utility.yul\":32991:33057   */\n      swap1\n      pop\n        /* \"#utility.yul\":32921:33063   */\n      swap2\n      swap1\n      pop\n      jump\t// out\n        /* \"#utility.yul\":33069:33144   */\n    tag_359:\n        /* \"#utility.yul\":33112:33115   */\n      0x00\n        /* \"#utility.yul\":33133:33138   */\n      dup2\n        /* \"#utility.yul\":33126:33138   */\n      swap1\n      pop\n        /* \"#utility.yul\":33069:33144   */\n      swap2\n      swap1\n      pop\n      jump\t// out\n        /* \"#utility.yul\":33150:33419   */\n    tag_360:\n        /* \"#utility.yul\":33260:33299   */\n      tag_675\n        /* \"#utility.yul\":33291:33298   */\n      dup4\n        /* \"#utility.yul\":33260:33299   */\n      tag_358\n      jump\t// in\n    tag_675:\n        /* \"#utility.yul\":33321:33412   */\n      tag_676\n        /* \"#utility.yul\":33370:33411   */\n      tag_677\n        /* \"#utility.yul\":33394:33410   */\n      dup3\n        /* \"#utility.yul\":33370:33411   */\n      tag_359\n      jump\t// in\n    tag_677:\n        /* \"#utility.yul\":33362:33368   */\n      dup5\n        /* \"#utility.yul\":33355:33359   */\n      dup5\n        /* \"#utility.yul\":33349:33360   */\n      sload\n        /* \"#utility.yul\":33321:33412   */\n      tag_356\n      jump\t// in\n    tag_676:\n        /* \"#utility.yul\":33315:33319   */\n      dup3\n        /* \"#utility.yul\":33308:33413   */\n      sstore\n        /* \"#utility.yul\":33226:33419   */\n      pop\n        /* \"#utility.yul\":33150:33419   */\n      pop\n      pop\n      pop\n      jump\t// out\n        /* \"#utility.yul\":33425:33498   */\n    tag_361:\n        /* \"#utility.yul\":33470:33473   */\n      0x00\n        /* \"#utility.yul\":33491:33492   */\n      0x00\n        /* \"#utility.yul\":33484:33492   */\n      swap1\n      pop\n        /* \"#utility.yul\":33425:33498   */\n      swap1\n      jump\t// out\n        /* \"#utility.yul\":33504:33693   */\n    tag_362:\n        /* \"#utility.yul\":33581:33613   */\n      tag_680\n      tag_361\n      jump\t// in\n    tag_680:\n        /* \"#utility.yul\":33622:33687   */\n      tag_681\n        /* \"#utility.yul\":33680:33686   */\n      dup2\n        /* \"#utility.yul\":33672:33678   */\n      dup5\n        /* \"#utility.yul\":33666:33670   */\n      dup5\n        /* \"#utility.yul\":33622:33687   */\n      tag_360\n      jump\t// in\n    tag_681:\n        /* \"#utility.yul\":33557:33693   */\n      pop\n        /* \"#utility.yul\":33504:33693   */\n      pop\n      pop\n      jump\t// out\n        /* \"#utility.yul\":33699:33885   */\n    tag_363:\n        /* \"#utility.yul\":33759:33879   */\n    tag_683:\n        /* \"#utility.yul\":33776:33779   */\n      dup2\n        /* \"#utility.yul\":33769:33774   */\n      dup2\n        /* \"#utility.yul\":33766:33780   */\n      lt\n        /* \"#utility.yul\":33759:33879   */\n      iszero\n      tag_685\n      jumpi\n        /* \"#utility.yul\":33830:33869   */\n      tag_686\n        /* \"#utility.yul\":33867:33868   */\n      0x00\n        /* \"#utility.yul\":33860:33865   */\n      dup3\n        /* \"#utility.yul\":33830:33869   */\n      tag_362\n      jump\t// in\n    tag_686:\n        /* \"#utility.yul\":33803:33804   */\n      0x01\n        /* \"#utility.yul\":33796:33801   */\n      dup2\n        /* \"#utility.yul\":33792:33805   */\n      add\n        /* \"#utility.yul\":33783:33805   */\n      swap1\n      pop\n        /* \"#utility.yul\":33759:33879   */\n      jump(tag_683)\n    tag_685:\n        /* \"#utility.yul\":33699:33885   */\n      pop\n      pop\n      jump\t// out\n        /* \"#utility.yul\":33891:34434   */\n    tag_364:\n        /* \"#utility.yul\":33992:33994   */\n      0x1f\n        /* \"#utility.yul\":33987:33990   */\n      dup3\n        /* \"#utility.yul\":33984:33995   */\n      gt\n        /* \"#utility.yul\":33981:34427   */\n      iszero\n      tag_688\n      jumpi\n        /* \"#utility.yul\":34026:34064   */\n      tag_689\n        /* \"#utility.yul\":34058:34063   */\n      dup2\n        /* \"#utility.yul\":34026:34064   */\n      tag_353\n      jump\t// in\n    tag_689:\n        /* \"#utility.yul\":34110:34139   */\n      tag_690\n        /* \"#utility.yul\":34128:34138   */\n      dup5\n        /* \"#utility.yul\":34110:34139   */\n      tag_354\n      jump\t// in\n    tag_690:\n        /* \"#utility.yul\":34100:34108   */\n      dup2\n        /* \"#utility.yul\":34096:34140   */\n      add\n        /* \"#utility.yul\":34293:34295   */\n      0x20\n        /* \"#utility.yul\":34281:34291   */\n      dup6\n        /* \"#utility.yul\":34278:34296   */\n      lt\n        /* \"#utility.yul\":34275:34324   */\n      iszero\n      tag_691\n      jumpi\n        /* \"#utility.yul\":34314:34322   */\n      dup2\n        /* \"#utility.yul\":34299:34322   */\n      swap1\n      pop\n        /* \"#utility.yul\":34275:34324   */\n    tag_691:\n        /* \"#utility.yul\":34337:34417   */\n      tag_692\n        /* \"#utility.yul\":34393:34415   */\n      tag_693\n        /* \"#utility.yul\":34411:34414   */\n      dup6\n        /* \"#utility.yul\":34393:34415   */\n      tag_354\n      jump\t// in\n    tag_693:\n        /* \"#utility.yul\":34383:34391   */\n      dup4\n        /* \"#utility.yul\":34379:34416   */\n      add\n        /* \"#utility.yul\":34366:34377   */\n      dup3\n        /* \"#utility.yul\":34337:34417   */\n      tag_363\n      jump\t// in\n    tag_692:\n        /* \"#utility.yul\":33996:34427   */\n      pop\n      pop\n        /* \"#utility.yul\":33981:34427   */\n    tag_688:\n        /* \"#utility.yul\":33891:34434   */\n      pop\n      pop\n      pop\n      jump\t// out\n        /* \"#utility.yul\":34440:34557   */\n    tag_365:\n        /* \"#utility.yul\":34494:34502   */\n      0x00\n        /* \"#utility.yul\":34544:34549   */\n      dup3\n        /* \"#utility.yul\":34538:34542   */\n      dup3\n        /* \"#utility.yul\":34534:34550   */\n      shr\n        /* \"#utility.yul\":34513:34550   */\n      swap1\n      pop\n        /* \"#utility.yul\":34440:34557   */\n      swap3\n      swap2\n      pop\n      pop\n      jump\t// out\n        /* \"#utility.yul\":34563:34732   */\n    tag_366:\n        /* \"#utility.yul\":34607:34613   */\n      0x00\n        /* \"#utility.yul\":34640:34691   */\n      tag_696\n        /* \"#utility.yul\":34688:34689   */\n      0x00\n        /* \"#utility.yul\":34684:34690   */\n      not\n        /* \"#utility.yul\":34676:34681   */\n      dup5\n        /* \"#utility.yul\":34673:34674   */\n      0x08\n        /* \"#utility.yul\":34669:34682   */\n      mul\n        /* \"#utility.yul\":34640:34691   */\n      tag_365\n      jump\t// in\n    tag_696:\n        /* \"#utility.yul\":34636:34692   */\n      not\n        /* \"#utility.yul\":34721:34725   */\n      dup1\n        /* \"#utility.yul\":34715:34719   */\n      dup4\n        /* \"#utility.yul\":34711:34726   */\n      and\n        /* \"#utility.yul\":34701:34726   */\n      swap2\n      pop\n        /* \"#utility.yul\":34614:34732   */\n      pop\n        /* \"#utility.yul\":34563:34732   */\n      swap3\n      swap2\n      pop\n      pop\n      jump\t// out\n        /* \"#utility.yul\":34737:35032   */\n    tag_367:\n        /* \"#utility.yul\":34813:34817   */\n      0x00\n        /* \"#utility.yul\":34959:34988   */\n      tag_698\n        /* \"#utility.yul\":34984:34987   */\n      dup4\n        /* \"#utility.yul\":34978:34982   */\n      dup4\n        /* \"#utility.yul\":34959:34988   */\n      tag_366\n      jump\t// in\n    tag_698:\n        /* \"#utility.yul\":34951:34988   */\n      swap2\n      pop\n        /* \"#utility.yul\":35021:35024   */\n      dup3\n        /* \"#utility.yul\":35018:35019   */\n      0x02\n        /* \"#utility.yul\":35014:35025   */\n      mul\n        /* \"#utility.yul\":35008:35012   */\n      dup3\n        /* \"#utility.yul\":35005:35026   */\n      or\n        /* \"#utility.yul\":34997:35026   */\n      swap1\n      pop\n        /* \"#utility.yul\":34737:35032   */\n      swap3\n      swap2\n      pop\n      pop\n      jump\t// out\n        /* \"#utility.yul\":35037:36432   */\n    tag_158:\n        /* \"#utility.yul\":35154:35191   */\n      tag_700\n        /* \"#utility.yul\":35187:35190   */\n      dup3\n        /* \"#utility.yul\":35154:35191   */\n      tag_293\n      jump\t// in\n    tag_700:\n        /* \"#utility.yul\":35256:35274   */\n      0xffffffffffffffff\n        /* \"#utility.yul\":35248:35254   */\n      dup2\n        /* \"#utility.yul\":35245:35275   */\n      gt\n        /* \"#utility.yul\":35242:35298   */\n      iszero\n      tag_701\n      jumpi\n        /* \"#utility.yul\":35278:35296   */\n      tag_702\n      tag_314\n      jump\t// in\n    tag_702:\n        /* \"#utility.yul\":35242:35298   */\n    tag_701:\n        /* \"#utility.yul\":35322:35360   */\n      tag_703\n        /* \"#utility.yul\":35354:35358   */\n      dup3\n        /* \"#utility.yul\":35348:35359   */\n      sload\n        /* \"#utility.yul\":35322:35360   */\n      tag_99\n      jump\t// in\n    tag_703:\n        /* \"#utility.yul\":35407:35474   */\n      tag_704\n        /* \"#utility.yul\":35467:35473   */\n      dup3\n        /* \"#utility.yul\":35459:35465   */\n      dup3\n        /* \"#utility.yul\":35453:35457   */\n      dup6\n        /* \"#utility.yul\":35407:35474   */\n      tag_364\n      jump\t// in\n    tag_704:\n        /* \"#utility.yul\":35501:35502   */\n      0x00\n        /* \"#utility.yul\":35525:35529   */\n      0x20\n        /* \"#utility.yul\":35512:35529   */\n      swap1\n      pop\n        /* \"#utility.yul\":35557:35559   */\n      0x1f\n        /* \"#utility.yul\":35549:35555   */\n      dup4\n        /* \"#utility.yul\":35546:35560   */\n      gt\n        /* \"#utility.yul\":35574:35575   */\n      0x01\n        /* \"#utility.yul\":35569:36187   */\n      dup2\n      eq\n      tag_706\n      jumpi\n        /* \"#utility.yul\":36231:36232   */\n      0x00\n        /* \"#utility.yul\":36248:36254   */\n      dup5\n        /* \"#utility.yul\":36245:36322   */\n      iszero\n      tag_707\n      jumpi\n        /* \"#utility.yul\":36297:36306   */\n      dup3\n        /* \"#utility.yul\":36292:36295   */\n      dup8\n        /* \"#utility.yul\":36288:36307   */\n      add\n        /* \"#utility.yul\":36282:36308   */\n      mload\n        /* \"#utility.yul\":36273:36308   */\n      swap1\n      pop\n        /* \"#utility.yul\":36245:36322   */\n    tag_707:\n        /* \"#utility.yul\":36348:36415   */\n      tag_708\n        /* \"#utility.yul\":36408:36414   */\n      dup6\n        /* \"#utility.yul\":36401:36406   */\n      dup3\n        /* \"#utility.yul\":36348:36415   */\n      tag_367\n      jump\t// in\n    tag_708:\n        /* \"#utility.yul\":36342:36346   */\n      dup7\n        /* \"#utility.yul\":36335:36416   */\n      sstore\n        /* \"#utility.yul\":36204:36426   */\n      pop\n        /* \"#utility.yul\":35539:36426   */\n      jump(tag_705)\n        /* \"#utility.yul\":35569:36187   */\n    tag_706:\n        /* \"#utility.yul\":35621:35625   */\n      0x1f\n        /* \"#utility.yul\":35617:35626   */\n      not\n        /* \"#utility.yul\":35609:35615   */\n      dup5\n        /* \"#utility.yul\":35605:35627   */\n      and\n        /* \"#utility.yul\":35655:35692   */\n      tag_709\n        /* \"#utility.yul\":35687:35691   */\n      dup7\n        /* \"#utility.yul\":35655:35692   */\n      tag_353\n      jump\t// in\n    tag_709:\n        /* \"#utility.yul\":35714:35715   */\n      0x00\n        /* \"#utility.yul\":35728:35936   */\n    tag_710:\n        /* \"#utility.yul\":35742:35749   */\n      dup3\n        /* \"#utility.yul\":35739:35740   */\n      dup2\n        /* \"#utility.yul\":35736:35750   */\n      lt\n        /* \"#utility.yul\":35728:35936   */\n      iszero\n      tag_712\n      jumpi\n        /* \"#utility.yul\":35821:35830   */\n      dup5\n        /* \"#utility.yul\":35816:35819   */\n      dup10\n        /* \"#utility.yul\":35812:35831   */\n      add\n        /* \"#utility.yul\":35806:35832   */\n      mload\n        /* \"#utility.yul\":35798:35804   */\n      dup3\n        /* \"#utility.yul\":35791:35833   */\n      sstore\n        /* \"#utility.yul\":35872:35873   */\n      0x01\n        /* \"#utility.yul\":35864:35870   */\n      dup3\n        /* \"#utility.yul\":35860:35874   */\n      add\n        /* \"#utility.yul\":35850:35874   */\n      swap2\n      pop\n        /* \"#utility.yul\":35919:35921   */\n      0x20\n        /* \"#utility.yul\":35908:35917   */\n      dup6\n        /* \"#utility.yul\":35904:35922   */\n      add\n        /* \"#utility.yul\":35891:35922   */\n      swap5\n      pop\n        /* \"#utility.yul\":35765:35769   */\n      0x20\n        /* \"#utility.yul\":35762:35763   */\n      dup2\n        /* \"#utility.yul\":35758:35770   */\n      add\n        /* \"#utility.yul\":35753:35770   */\n      swap1\n      pop\n        /* \"#utility.yul\":35728:35936   */\n      jump(tag_710)\n    tag_712:\n        /* \"#utility.yul\":35964:35970   */\n      dup7\n        /* \"#utility.yul\":35955:35962   */\n      dup4\n        /* \"#utility.yul\":35952:35971   */\n      lt\n        /* \"#utility.yul\":35949:36128   */\n      iszero\n      tag_713\n      jumpi\n        /* \"#utility.yul\":36022:36031   */\n      dup5\n        /* \"#utility.yul\":36017:36020   */\n      dup10\n        /* \"#utility.yul\":36013:36032   */\n      add\n        /* \"#utility.yul\":36007:36033   */\n      mload\n        /* \"#utility.yul\":36065:36113   */\n      tag_714\n        /* \"#utility.yul\":36107:36111   */\n      0x1f\n        /* \"#utility.yul\":36099:36105   */\n      dup10\n        /* \"#utility.yul\":36095:36112   */\n      and\n        /* \"#utility.yul\":36084:36093   */\n      dup3\n        /* \"#utility.yul\":36065:36113   */\n      tag_366\n      jump\t// in\n    tag_714:\n        /* \"#utility.yul\":36057:36063   */\n      dup4\n        /* \"#utility.yul\":36050:36114   */\n      sstore\n        /* \"#utility.yul\":35972:36128   */\n      pop\n        /* \"#utility.yul\":35949:36128   */\n    tag_713:\n        /* \"#utility.yul\":36174:36175   */\n      0x01\n        /* \"#utility.yul\":36170:36171   */\n      0x02\n        /* \"#utility.yul\":36162:36168   */\n      dup9\n        /* \"#utility.yul\":36158:36172   */\n      mul\n        /* \"#utility.yul\":36154:36176   */\n      add\n        /* \"#utility.yul\":36148:36152   */\n      dup9\n        /* \"#utility.yul\":36141:36177   */\n      sstore\n        /* \"#utility.yul\":35576:36187   */\n      pop\n      pop\n      pop\n        /* \"#utility.yul\":35539:36426   */\n    tag_705:\n      pop\n        /* \"#utility.yul\":35129:36432   */\n      pop\n      pop\n      pop\n        /* \"#utility.yul\":35037:36432   */\n      pop\n      pop\n      jump\t// out\n        /* \"#utility.yul\":36438:36815   */\n    tag_368:\n        /* \"#utility.yul\":36526:36529   */\n      0x00\n        /* \"#utility.yul\":36554:36593   */\n      tag_716\n        /* \"#utility.yul\":36587:36592   */\n      dup3\n        /* \"#utility.yul\":36554:36593   */\n      tag_293\n      jump\t// in\n    tag_716:\n        /* \"#utility.yul\":36609:36680   */\n      tag_717\n        /* \"#utility.yul\":36673:36679   */\n      dup2\n        /* \"#utility.yul\":36668:36671   */\n      dup6\n        /* \"#utility.yul\":36609:36680   */\n      tag_338\n      jump\t// in\n    tag_717:\n        /* \"#utility.yul\":36602:36680   */\n      swap4\n      pop\n        /* \"#utility.yul\":36689:36754   */\n      tag_718\n        /* \"#utility.yul\":36747:36753   */\n      dup2\n        /* \"#utility.yul\":36742:36745   */\n      dup6\n        /* \"#utility.yul\":36735:36739   */\n      0x20\n        /* \"#utility.yul\":36728:36733   */\n      dup7\n        /* \"#utility.yul\":36724:36740   */\n      add\n        /* \"#utility.yul\":36689:36754   */\n      tag_295\n      jump\t// in\n    tag_718:\n        /* \"#utility.yul\":36779:36808   */\n      tag_719\n        /* \"#utility.yul\":36801:36807   */\n      dup2\n        /* \"#utility.yul\":36779:36808   */\n      tag_296\n      jump\t// in\n    tag_719:\n        /* \"#utility.yul\":36774:36777   */\n      dup5\n        /* \"#utility.yul\":36770:36809   */\n      add\n        /* \"#utility.yul\":36763:36809   */\n      swap2\n      pop\n        /* \"#utility.yul\":36530:36815   */\n      pop\n        /* \"#utility.yul\":36438:36815   */\n      swap3\n      swap2\n      pop\n      pop\n      jump\t// out\n        /* \"#utility.yul\":36821:36972   */\n    tag_369:\n        /* \"#utility.yul\":36918:36965   */\n      tag_721\n        /* \"#utility.yul\":36959:36964   */\n      dup2\n        /* \"#utility.yul\":36918:36965   */\n      tag_304\n      jump\t// in\n    tag_721:\n        /* \"#utility.yul\":36913:36916   */\n      dup3\n        /* \"#utility.yul\":36906:36966   */\n      mstore\n        /* \"#utility.yul\":36821:36972   */\n      pop\n      pop\n      jump\t// out\n        /* \"#utility.yul\":36978:37421   */\n    tag_164:\n        /* \"#utility.yul\":37129:37133   */\n      0x00\n        /* \"#utility.yul\":37167:37169   */\n      0x40\n        /* \"#utility.yul\":37156:37165   */\n      dup3\n        /* \"#utility.yul\":37152:37170   */\n      add\n        /* \"#utility.yul\":37144:37170   */\n      swap1\n      pop\n        /* \"#utility.yul\":37216:37225   */\n      dup2\n        /* \"#utility.yul\":37210:37214   */\n      dup2\n        /* \"#utility.yul\":37206:37226   */\n      sub\n        /* \"#utility.yul\":37202:37203   */\n      0x00\n        /* \"#utility.yul\":37191:37200   */\n      dup4\n        /* \"#utility.yul\":37187:37204   */\n      add\n        /* \"#utility.yul\":37180:37227   */\n      mstore\n        /* \"#utility.yul\":37244:37322   */\n      tag_723\n        /* \"#utility.yul\":37317:37321   */\n      dup2\n        /* \"#utility.yul\":37308:37314   */\n      dup6\n        /* \"#utility.yul\":37244:37322   */\n      tag_368\n      jump\t// in\n    tag_723:\n        /* \"#utility.yul\":37236:37322   */\n      swap1\n      pop\n        /* \"#utility.yul\":37332:37414   */\n      tag_724\n        /* \"#utility.yul\":37410:37412   */\n      0x20\n        /* \"#utility.yul\":37399:37408   */\n      dup4\n        /* \"#utility.yul\":37395:37413   */\n      add\n        /* \"#utility.yul\":37386:37392   */\n      dup5\n        /* \"#utility.yul\":37332:37414   */\n      tag_369\n      jump\t// in\n    tag_724:\n        /* \"#utility.yul\":36978:37421   */\n      swap4\n      swap3\n      pop\n      pop\n      pop\n      jump\t// out\n        /* \"#utility.yul\":37427:37591   */\n    tag_370:\n        /* \"#utility.yul\":37567:37583   */\n      0x4e6f7420617574686f72697a6564000000000000000000000000000000000000\n        /* \"#utility.yul\":37563:37564   */\n      0x00\n        /* \"#utility.yul\":37555:37561   */\n      dup3\n        /* \"#utility.yul\":37551:37565   */\n      add\n        /* \"#utility.yul\":37544:37584   */\n      mstore\n        /* \"#utility.yul\":37427:37591   */\n      pop\n      jump\t// out\n        /* \"#utility.yul\":37597:37963   */\n    tag_371:\n        /* \"#utility.yul\":37739:37742   */\n      0x00\n        /* \"#utility.yul\":37760:37827   */\n      tag_727\n        /* \"#utility.yul\":37824:37826   */\n      0x0e\n        /* \"#utility.yul\":37819:37822   */\n      dup4\n        /* \"#utility.yul\":37760:37827   */\n      tag_338\n      jump\t// in\n    tag_727:\n        /* \"#utility.yul\":37753:37827   */\n      swap2\n      pop\n        /* \"#utility.yul\":37836:37929   */\n      tag_728\n        /* \"#utility.yul\":37925:37928   */\n      dup3\n        /* \"#utility.yul\":37836:37929   */\n      tag_370\n      jump\t// in\n    tag_728:\n        /* \"#utility.yul\":37954:37956   */\n      0x20\n        /* \"#utility.yul\":37949:37952   */\n      dup3\n        /* \"#utility.yul\":37945:37957   */\n      add\n        /* \"#utility.yul\":37938:37957   */\n      swap1\n      pop\n        /* \"#utility.yul\":37597:37963   */\n      swap2\n      swap1\n      pop\n      jump\t// out\n        /* \"#utility.yul\":37969:38388   */\n    tag_171:\n        /* \"#utility.yul\":38135:38139   */\n      0x00\n        /* \"#utility.yul\":38173:38175   */\n      0x20\n        /* \"#utility.yul\":38162:38171   */\n      dup3\n        /* \"#utility.yul\":38158:38176   */\n      add\n        /* \"#utility.yul\":38150:38176   */\n      swap1\n      pop\n        /* \"#utility.yul\":38222:38231   */\n      dup2\n        /* \"#utility.yul\":38216:38220   */\n      dup2\n        /* \"#utility.yul\":38212:38232   */\n      sub\n        /* \"#utility.yul\":38208:38209   */\n      0x00\n        /* \"#utility.yul\":38197:38206   */\n      dup4\n        /* \"#utility.yul\":38193:38210   */\n      add\n        /* \"#utility.yul\":38186:38233   */\n      mstore\n        /* \"#utility.yul\":38250:38381   */\n      tag_730\n        /* \"#utility.yul\":38376:38380   */\n      dup2\n        /* \"#utility.yul\":38250:38381   */\n      tag_371\n      jump\t// in\n    tag_730:\n        /* \"#utility.yul\":38242:38381   */\n      swap1\n      pop\n        /* \"#utility.yul\":37969:38388   */\n      swap2\n      swap1\n      pop\n      jump\t// out\n        /* \"#utility.yul\":38394:38817   */\n    tag_200:\n        /* \"#utility.yul\":38535:38539   */\n      0x00\n        /* \"#utility.yul\":38573:38575   */\n      0x40\n        /* \"#utility.yul\":38562:38571   */\n      dup3\n        /* \"#utility.yul\":38558:38576   */\n      add\n        /* \"#utility.yul\":38550:38576   */\n      swap1\n      pop\n        /* \"#utility.yul\":38622:38631   */\n      dup2\n        /* \"#utility.yul\":38616:38620   */\n      dup2\n        /* \"#utility.yul\":38612:38632   */\n      sub\n        /* \"#utility.yul\":38608:38609   */\n      0x00\n        /* \"#utility.yul\":38597:38606   */\n      dup4\n        /* \"#utility.yul\":38593:38610   */\n      add\n        /* \"#utility.yul\":38586:38633   */\n      mstore\n        /* \"#utility.yul\":38650:38728   */\n      tag_732\n        /* \"#utility.yul\":38723:38727   */\n      dup2\n        /* \"#utility.yul\":38714:38720   */\n      dup6\n        /* \"#utility.yul\":38650:38728   */\n      tag_368\n      jump\t// in\n    tag_732:\n        /* \"#utility.yul\":38642:38728   */\n      swap1\n      pop\n        /* \"#utility.yul\":38738:38810   */\n      tag_733\n        /* \"#utility.yul\":38806:38808   */\n      0x20\n        /* \"#utility.yul\":38795:38804   */\n      dup4\n        /* \"#utility.yul\":38791:38809   */\n      add\n        /* \"#utility.yul\":38782:38788   */\n      dup5\n        /* \"#utility.yul\":38738:38810   */\n      tag_309\n      jump\t// in\n    tag_733:\n        /* \"#utility.yul\":38394:38817   */\n      swap4\n      swap3\n      pop\n      pop\n      pop\n      jump\t// out\n        /* \"#utility.yul\":38823:38995   */\n    tag_372:\n        /* \"#utility.yul\":38963:38987   */\n      0x4e6f2061637469766520616363657373206772616e7400000000000000000000\n        /* \"#utility.yul\":38959:38960   */\n      0x00\n        /* \"#utility.yul\":38951:38957   */\n      dup3\n        /* \"#utility.yul\":38947:38961   */\n      add\n        /* \"#utility.yul\":38940:38988   */\n      mstore\n        /* \"#utility.yul\":38823:38995   */\n      pop\n      jump\t// out\n        /* \"#utility.yul\":39001:39367   */\n    tag_373:\n        /* \"#utility.yul\":39143:39146   */\n      0x00\n        /* \"#utility.yul\":39164:39231   */\n      tag_736\n        /* \"#utility.yul\":39228:39230   */\n      0x16\n        /* \"#utility.yul\":39223:39226   */\n      dup4\n        /* \"#utility.yul\":39164:39231   */\n      tag_338\n      jump\t// in\n    tag_736:\n        /* \"#utility.yul\":39157:39231   */\n      swap2\n      pop\n        /* \"#utility.yul\":39240:39333   */\n      tag_737\n        /* \"#utility.yul\":39329:39332   */\n      dup3\n        /* \"#utility.yul\":39240:39333   */\n      tag_372\n      jump\t// in\n    tag_737:\n        /* \"#utility.yul\":39358:39360   */\n      0x20\n        /* \"#utility.yul\":39353:39356   */\n      dup3\n        /* \"#utility.yul\":39349:39361   */\n      add\n        /* \"#utility.yul\":39342:39361   */\n      swap1\n      pop\n        /* \"#utility.yul\":39001:39367   */\n      swap2\n      swap1\n      pop\n      jump\t// out\n        /* \"#utility.yul\":39373:39792   */\n    tag_218:\n        /* \"#utility.yul\":39539:39543   */\n      0x00\n        /* \"#utility.yul\":39577:39579   */\n      0x20\n        /* \"#utility.yul\":39566:39575   */\n      dup3\n        /* \"#utility.yul\":39562:39580   */\n      add\n        /* \"#utility.yul\":39554:39580   */\n      swap1\n      pop\n        /* \"#utility.yul\":39626:39635   */\n      dup2\n        /* \"#utility.yul\":39620:39624   */\n      dup2\n        /* \"#utility.yul\":39616:39636   */\n      sub\n        /* \"#utility.yul\":39612:39613   */\n      0x00\n        /* \"#utility.yul\":39601:39610   */\n      dup4\n        /* \"#utility.yul\":39597:39614   */\n      add\n        /* \"#utility.yul\":39590:39637   */\n      mstore\n        /* \"#utility.yul\":39654:39785   */\n      tag_739\n        /* \"#utility.yul\":39780:39784   */\n      dup2\n        /* \"#utility.yul\":39654:39785   */\n      tag_373\n      jump\t// in\n    tag_739:\n        /* \"#utility.yul\":39646:39785   */\n      swap1\n      pop\n        /* \"#utility.yul\":39373:39792   */\n      swap2\n      swap1\n      pop\n      jump\t// out\n        /* \"#utility.yul\":39798:39963   */\n    tag_374:\n        /* \"#utility.yul\":39938:39955   */\n      0x496e76616c696420616464726573730000000000000000000000000000000000\n        /* \"#utility.yul\":39934:39935   */\n      0x00\n        /* \"#utility.yul\":39926:39932   */\n      dup3\n        /* \"#utility.yul\":39922:39936   */\n      add\n        /* \"#utility.yul\":39915:39956   */\n      mstore\n        /* \"#utility.yul\":39798:39963   */\n      pop\n      jump\t// out\n        /* \"#utility.yul\":39969:40335   */\n    tag_375:\n        /* \"#utility.yul\":40111:40114   */\n      0x00\n        /* \"#utility.yul\":40132:40199   */\n      tag_742\n        /* \"#utility.yul\":40196:40198   */\n      0x0f\n        /* \"#utility.yul\":40191:40194   */\n      dup4\n        /* \"#utility.yul\":40132:40199   */\n      tag_338\n      jump\t// in\n    tag_742:\n        /* \"#utility.yul\":40125:40199   */\n      swap2\n      pop\n        /* \"#utility.yul\":40208:40301   */\n      tag_743\n        /* \"#utility.yul\":40297:40300   */\n      dup3\n        /* \"#utility.yul\":40208:40301   */\n      tag_374\n      jump\t// in\n    tag_743:\n        /* \"#utility.yul\":40326:40328   */\n      0x20\n        /* \"#utility.yul\":40321:40324   */\n      dup3\n        /* \"#utility.yul\":40317:40329   */\n      add\n        /* \"#utility.yul\":40310:40329   */\n      swap1\n      pop\n        /* \"#utility.yul\":39969:40335   */\n      swap2\n      swap1\n      pop\n      jump\t// out\n        /* \"#utility.yul\":40341:40760   */\n    tag_230:\n        /* \"#utility.yul\":40507:40511   */\n      0x00\n        /* \"#utility.yul\":40545:40547   */\n      0x20\n        /* \"#utility.yul\":40534:40543   */\n      dup3\n        /* \"#utility.yul\":40530:40548   */\n      add\n        /* \"#utility.yul\":40522:40548   */\n      swap1\n      pop\n        /* \"#utility.yul\":40594:40603   */\n      dup2\n        /* \"#utility.yul\":40588:40592   */\n      dup2\n        /* \"#utility.yul\":40584:40604   */\n      sub\n        /* \"#utility.yul\":40580:40581   */\n      0x00\n        /* \"#utility.yul\":40569:40578   */\n      dup4\n        /* \"#utility.yul\":40565:40582   */\n      add\n        /* \"#utility.yul\":40558:40605   */\n      mstore\n        /* \"#utility.yul\":40622:40753   */\n      tag_745\n        /* \"#utility.yul\":40748:40752   */\n      dup2\n        /* \"#utility.yul\":40622:40753   */\n      tag_375\n      jump\t// in\n    tag_745:\n        /* \"#utility.yul\":40614:40753   */\n      swap1\n      pop\n        /* \"#utility.yul\":40341:40760   */\n      swap2\n      swap1\n      pop\n      jump\t// out\n        /* \"#utility.yul\":40766:40993   */\n    tag_376:\n        /* \"#utility.yul\":40906:40940   */\n      0x4d757374206772616e742061636365737320746f206174206c65617374206f6e\n        /* \"#utility.yul\":40902:40903   */\n      0x00\n        /* \"#utility.yul\":40894:40900   */\n      dup3\n        /* \"#utility.yul\":40890:40904   */\n      add\n        /* \"#utility.yul\":40883:40941   */\n      mstore\n        /* \"#utility.yul\":40975:40985   */\n      0x65207265636f7264000000000000000000000000000000000000000000000000\n        /* \"#utility.yul\":40970:40972   */\n      0x20\n        /* \"#utility.yul\":40962:40968   */\n      dup3\n        /* \"#utility.yul\":40958:40973   */\n      add\n        /* \"#utility.yul\":40951:40986   */\n      mstore\n        /* \"#utility.yul\":40766:40993   */\n      pop\n      jump\t// out\n        /* \"#utility.yul\":40999:41365   */\n    tag_377:\n        /* \"#utility.yul\":41141:41144   */\n      0x00\n        /* \"#utility.yul\":41162:41229   */\n      tag_748\n        /* \"#utility.yul\":41226:41228   */\n      0x28\n        /* \"#utility.yul\":41221:41224   */\n      dup4\n        /* \"#utility.yul\":41162:41229   */\n      tag_338\n      jump\t// in\n    tag_748:\n        /* \"#utility.yul\":41155:41229   */\n      swap2\n      pop\n        /* \"#utility.yul\":41238:41331   */\n      tag_749\n        /* \"#utility.yul\":41327:41330   */\n      dup3\n        /* \"#utility.yul\":41238:41331   */\n      tag_376\n      jump\t// in\n    tag_749:\n        /* \"#utility.yul\":41356:41358   */\n      0x40\n        /* \"#utility.yul\":41351:41354   */\n      dup3\n        /* \"#utility.yul\":41347:41359   */\n      add\n        /* \"#utility.yul\":41340:41359   */\n      swap1\n      pop\n        /* \"#utility.yul\":40999:41365   */\n      swap2\n      swap1\n      pop\n      jump\t// out\n        /* \"#utility.yul\":41371:41790   */\n    tag_236:\n        /* \"#utility.yul\":41537:41541   */\n      0x00\n        /* \"#utility.yul\":41575:41577   */\n      0x20\n        /* \"#utility.yul\":41564:41573   */\n      dup3\n        /* \"#utility.yul\":41560:41578   */\n      add\n        /* \"#utility.yul\":41552:41578   */\n      swap1\n      pop\n        /* \"#utility.yul\":41624:41633   */\n      dup2\n        /* \"#utility.yul\":41618:41622   */\n      dup2\n        /* \"#utility.yul\":41614:41634   */\n      sub\n        /* \"#utility.yul\":41610:41611   */\n      0x00\n        /* \"#utility.yul\":41599:41608   */\n      dup4\n        /* \"#utility.yul\":41595:41612   */\n      add\n        /* \"#utility.yul\":41588:41635   */\n      mstore\n        /* \"#utility.yul\":41652:41783   */\n      tag_751\n        /* \"#utility.yul\":41778:41782   */\n      dup2\n        /* \"#utility.yul\":41652:41783   */\n      tag_377\n      jump\t// in\n    tag_751:\n        /* \"#utility.yul\":41644:41783   */\n      swap1\n      pop\n        /* \"#utility.yul\":41371:41790   */\n      swap2\n      swap1\n      pop\n      jump\t// out\n        /* \"#utility.yul\":41796:41976   */\n    tag_242:\n        /* \"#utility.yul\":41844:41921   */\n      0x4e487b7100000000000000000000000000000000000000000000000000000000\n        /* \"#utility.yul\":41841:41842   */\n      0x00\n        /* \"#utility.yul\":41834:41922   */\n      mstore\n        /* \"#utility.yul\":41941:41945   */\n      0x32\n        /* \"#utility.yul\":41938:41939   */\n      0x04\n        /* \"#utility.yul\":41931:41946   */\n      mstore\n        /* \"#utility.yul\":41965:41969   */\n      0x24\n        /* \"#utility.yul\":41962:41963   */\n      0x00\n        /* \"#utility.yul\":41955:41970   */\n      revert\n        /* \"#utility.yul\":41982:42204   */\n    tag_378:\n        /* \"#utility.yul\":42122:42156   */\n      0x596f7520646f6e2774206f776e20616c6c20737065636966696564207265636f\n        /* \"#utility.yul\":42118:42119   */\n      0x00\n        /* \"#utility.yul\":42110:42116   */\n      dup3\n        /* \"#utility.yul\":42106:42120   */\n      add\n        /* \"#utility.yul\":42099:42157   */\n      mstore\n        /* \"#utility.yul\":42191:42196   */\n      0x7264730000000000000000000000000000000000000000000000000000000000\n        /* \"#utility.yul\":42186:42188   */\n      0x20\n        /* \"#utility.yul\":42178:42184   */\n      dup3\n        /* \"#utility.yul\":42174:42189   */\n      add\n        /* \"#utility.yul\":42167:42197   */\n      mstore\n        /* \"#utility.yul\":41982:42204   */\n      pop\n      jump\t// out\n        /* \"#utility.yul\":42210:42576   */\n    tag_379:\n        /* \"#utility.yul\":42352:42355   */\n      0x00\n        /* \"#utility.yul\":42373:42440   */\n      tag_755\n        /* \"#utility.yul\":42437:42439   */\n      0x23\n        /* \"#utility.yul\":42432:42435   */\n      dup4\n        /* \"#utility.yul\":42373:42440   */\n      tag_338\n      jump\t// in\n    tag_755:\n        /* \"#utility.yul\":42366:42440   */\n      swap2\n      pop\n        /* \"#utility.yul\":42449:42542   */\n      tag_756\n        /* \"#utility.yul\":42538:42541   */\n      dup3\n        /* \"#utility.yul\":42449:42542   */\n      tag_378\n      jump\t// in\n    tag_756:\n        /* \"#utility.yul\":42567:42569   */\n      0x40\n        /* \"#utility.yul\":42562:42565   */\n      dup3\n        /* \"#utility.yul\":42558:42570   */\n      add\n        /* \"#utility.yul\":42551:42570   */\n      swap1\n      pop\n        /* \"#utility.yul\":42210:42576   */\n      swap2\n      swap1\n      pop\n      jump\t// out\n        /* \"#utility.yul\":42582:43001   */\n    tag_245:\n        /* \"#utility.yul\":42748:42752   */\n      0x00\n        /* \"#utility.yul\":42786:42788   */\n      0x20\n        /* \"#utility.yul\":42775:42784   */\n      dup3\n        /* \"#utility.yul\":42771:42789   */\n      add\n        /* \"#utility.yul\":42763:42789   */\n      swap1\n      pop\n        /* \"#utility.yul\":42835:42844   */\n      dup2\n        /* \"#utility.yul\":42829:42833   */\n      dup2\n        /* \"#utility.yul\":42825:42845   */\n      sub\n        /* \"#utility.yul\":42821:42822   */\n      0x00\n        /* \"#utility.yul\":42810:42819   */\n      dup4\n        /* \"#utility.yul\":42806:42823   */\n      add\n        /* \"#utility.yul\":42799:42846   */\n      mstore\n        /* \"#utility.yul\":42863:42994   */\n      tag_758\n        /* \"#utility.yul\":42989:42993   */\n      dup2\n        /* \"#utility.yul\":42863:42994   */\n      tag_379\n      jump\t// in\n    tag_758:\n        /* \"#utility.yul\":42855:42994   */\n      swap1\n      pop\n        /* \"#utility.yul\":42582:43001   */\n      swap2\n      swap1\n      pop\n      jump\t// out\n        /* \"#utility.yul\":43007:43417   */\n    tag_247:\n        /* \"#utility.yul\":43047:43054   */\n      0x00\n        /* \"#utility.yul\":43070:43090   */\n      tag_760\n        /* \"#utility.yul\":43088:43089   */\n      dup3\n        /* \"#utility.yul\":43070:43090   */\n      tag_283\n      jump\t// in\n    tag_760:\n        /* \"#utility.yul\":43065:43090   */\n      swap2\n      pop\n        /* \"#utility.yul\":43104:43124   */\n      tag_761\n        /* \"#utility.yul\":43122:43123   */\n      dup4\n        /* \"#utility.yul\":43104:43124   */\n      tag_283\n      jump\t// in\n    tag_761:\n        /* \"#utility.yul\":43099:43124   */\n      swap3\n      pop\n        /* \"#utility.yul\":43159:43160   */\n      dup3\n        /* \"#utility.yul\":43156:43157   */\n      dup3\n        /* \"#utility.yul\":43152:43161   */\n      mul\n        /* \"#utility.yul\":43181:43211   */\n      tag_762\n        /* \"#utility.yul\":43199:43210   */\n      dup2\n        /* \"#utility.yul\":43181:43211   */\n      tag_283\n      jump\t// in\n    tag_762:\n        /* \"#utility.yul\":43170:43211   */\n      swap2\n      pop\n        /* \"#utility.yul\":43360:43361   */\n      dup3\n        /* \"#utility.yul\":43351:43358   */\n      dup3\n        /* \"#utility.yul\":43347:43362   */\n      div\n        /* \"#utility.yul\":43344:43345   */\n      dup5\n        /* \"#utility.yul\":43341:43363   */\n      eq\n        /* \"#utility.yul\":43321:43322   */\n      dup4\n        /* \"#utility.yul\":43314:43323   */\n      iszero\n        /* \"#utility.yul\":43294:43377   */\n      or\n        /* \"#utility.yul\":43271:43410   */\n      tag_763\n      jumpi\n        /* \"#utility.yul\":43390:43408   */\n      tag_764\n      tag_352\n      jump\t// in\n    tag_764:\n        /* \"#utility.yul\":43271:43410   */\n    tag_763:\n        /* \"#utility.yul\":43055:43417   */\n      pop\n        /* \"#utility.yul\":43007:43417   */\n      swap3\n      swap2\n      pop\n      pop\n      jump\t// out\n        /* \"#utility.yul\":43423:43614   */\n    tag_249:\n        /* \"#utility.yul\":43463:43466   */\n      0x00\n        /* \"#utility.yul\":43482:43502   */\n      tag_766\n        /* \"#utility.yul\":43500:43501   */\n      dup3\n        /* \"#utility.yul\":43482:43502   */\n      tag_283\n      jump\t// in\n    tag_766:\n        /* \"#utility.yul\":43477:43502   */\n      swap2\n      pop\n        /* \"#utility.yul\":43516:43536   */\n      tag_767\n        /* \"#utility.yul\":43534:43535   */\n      dup4\n        /* \"#utility.yul\":43516:43536   */\n      tag_283\n      jump\t// in\n    tag_767:\n        /* \"#utility.yul\":43511:43536   */\n      swap3\n      pop\n        /* \"#utility.yul\":43559:43560   */\n      dup3\n        /* \"#utility.yul\":43556:43557   */\n      dup3\n        /* \"#utility.yul\":43552:43561   */\n      add\n        /* \"#utility.yul\":43545:43561   */\n      swap1\n      pop\n        /* \"#utility.yul\":43580:43583   */\n      dup1\n        /* \"#utility.yul\":43577:43578   */\n      dup3\n        /* \"#utility.yul\":43574:43584   */\n      gt\n        /* \"#utility.yul\":43571:43607   */\n      iszero\n      tag_768\n      jumpi\n        /* \"#utility.yul\":43587:43605   */\n      tag_769\n      tag_352\n      jump\t// in\n    tag_769:\n        /* \"#utility.yul\":43571:43607   */\n    tag_768:\n        /* \"#utility.yul\":43423:43614   */\n      swap3\n      swap2\n      pop\n      pop\n      jump\t// out\n\n    auxdata: 0xa2646970667358221220baab528e2b75d23d2e9103f192cc34802f079804cff4f6bace91ec87b6e4d20f64736f6c634300081e0033\n}\n",
				"bytecode": {
					"linkReferences": {},
					"object": "6080604052348015600e575f5ffd5b5061395b8061001c5f395ff3fe608060405234801561000f575f5ffd5b50600436106100f3575f3560e01c80633812c6a81161009557806391284a891161006457806391284a89146102a55780639399e973146102c1578063b4b07a70146102dd578063cf56b4eb1461030d576100f3565b80633812c6a81461022157806367502cdf1461023d57806385e68531146102595780638b681c7c14610275576100f3565b80630aeacb5e116100d15780630aeacb5e146101735780630e8dce291461019157806318bd4847146101c15780631b6377b8146101f1576100f3565b806301b1d324146100f757806303e9e60914610127578063061f981114610157575b5f5ffd5b610111600480360381019061010c9190612453565b61033d565b60405161011e9190612644565b60405180910390f35b610141600480360381019061013c9190612453565b61053b565b60405161014e91906127ba565b60405180910390f35b610171600480360381019061016c9190612453565b6108d5565b005b61017b610a5a565b60405161018891906127e9565b60405180910390f35b6101ab60048036038101906101a6919061297b565b610a63565b6040516101b891906127e9565b60405180910390f35b6101db60048036038101906101d69190612a17565b610dac565b6040516101e89190612aea565b60405180910390f35b61020b60048036038101906102069190612b0a565b610ebd565b60405161021891906127e9565b60405180910390f35b61023b60048036038101906102369190612b92565b611197565b005b61025760048036038101906102529190612c1a565b611382565b005b610273600480360381019061026e9190612a17565b6115d5565b005b61028f600480360381019061028a9190612c74565b61178b565b60405161029c9190612d91565b60405180910390f35b6102bf60048036038101906102ba9190612a17565b61199a565b005b6102db60048036038101906102d69190612e75565b611a86565b005b6102f760048036038101906102f29190612a17565b611de5565b6040516103049190612ef0565b60405180910390f35b61032760048036038101906103229190612f09565b611e15565b6040516103349190612f68565b60405180910390f35b6060813373ffffffffffffffffffffffffffffffffffffffff1660015f8381526020019081526020015f206001015f9054906101000a900473ffffffffffffffffffffffffffffffffffffffff1673ffffffffffffffffffffffffffffffffffffffff16146103e1576040517f08c379a00000000000000000000000000000000000000000000000000000000081526004016103d890613001565b60405180910390fd5b60035f8481526020019081526020015f20805480602002602001604051908101604052809291908181526020015f905b8282101561052f578382905f5260205f2090600302016040518060600160405290815f82015f9054906101000a900473ffffffffffffffffffffffffffffffffffffffff1673ffffffffffffffffffffffffffffffffffffffff1673ffffffffffffffffffffffffffffffffffffffff168152602001600182015481526020016002820180546104a09061304c565b80601f01602080910402602001604051908101604052809291908181526020018280546104cc9061304c565b80156105175780601f106104ee57610100808354040283529160200191610517565b820191905f5260205f20905b8154815290600101906020018083116104fa57829003601f168201915b50505050508152505081526020019060010190610411565b50505050915050919050565b6105436122e1565b815f8111801561055557506005548111155b610594576040517f08c379a000000000000000000000000000000000000000000000000000000000815260040161058b906130c6565b60405180910390fd5b60015f8281526020019081526020015f2060050160149054906101000a900460ff166105f5576040517f08c379a00000000000000000000000000000000000000000000000000000000081526004016105ec9061312e565b60405180910390fd5b8261063460015f8381526020019081526020015f206001015f9054906101000a900473ffffffffffffffffffffffffffffffffffffffff163383611e15565b610673576040517f08c379a000000000000000000000000000000000000000000000000000000000815260040161066a906131bc565b60405180910390fd5b60015f8581526020019081526020015f20604051806101200160405290815f8201548152602001600182015f9054906101000a900473ffffffffffffffffffffffffffffffffffffffff1673ffffffffffffffffffffffffffffffffffffffff1673ffffffffffffffffffffffffffffffffffffffff1681526020016002820180546106fe9061304c565b80601f016020809104026020016040519081016040528092919081815260200182805461072a9061304c565b80156107755780601f1061074c57610100808354040283529160200191610775565b820191905f5260205f20905b81548152906001019060200180831161075857829003601f168201915b50505050508152602001600382015f9054906101000a900460ff1660058111156107a2576107a1612664565b5b60058111156107b4576107b3612664565b5b815260200160048201548152602001600582015f9054906101000a900473ffffffffffffffffffffffffffffffffffffffff1673ffffffffffffffffffffffffffffffffffffffff1673ffffffffffffffffffffffffffffffffffffffff1681526020016005820160149054906101000a900460ff161515151581526020016006820180546108429061304c565b80601f016020809104026020016040519081016040528092919081815260200182805461086e9061304c565b80156108b95780601f10610890576101008083540402835291602001916108b9565b820191905f5260205f20905b81548152906001019060200180831161089c57829003601f168201915b5050505050815260200160078201548152505092505050919050565b803373ffffffffffffffffffffffffffffffffffffffff1660015f8381526020019081526020015f206001015f9054906101000a900473ffffffffffffffffffffffffffffffffffffffff1673ffffffffffffffffffffffffffffffffffffffff1614610977576040517f08c379a000000000000000000000000000000000000000000000000000000000815260040161096e90613001565b60405180910390fd5b815f8111801561098957506005548111155b6109c8576040517f08c379a00000000000000000000000000000000000000000000000000000000081526004016109bf906130c6565b60405180910390fd5b60015f8281526020019081526020015f2060050160149054906101000a900460ff16610a29576040517f08c379a0000000000000000000000000000000000000000000000000000000008152600401610a209061312e565b60405180910390fd5b5f60015f8581526020019081526020015f2060050160146101000a81548160ff021916908315150217905550505050565b5f600554905090565b5f5f73ffffffffffffffffffffffffffffffffffffffff168573ffffffffffffffffffffffffffffffffffffffff1603610ad2576040517f08c379a0000000000000000000000000000000000000000000000000000000008152600401610ac990613224565b60405180910390fd5b5f845111610b15576040517f08c379a0000000000000000000000000000000000000000000000000000000008152600401610b0c9061328c565b60405180910390fd5b60055f815480929190610b27906132d7565b919050555060405180610120016040528060055481526020018673ffffffffffffffffffffffffffffffffffffffff168152602001858152602001846005811115610b7557610b74612664565b5b81526020014281526020013373ffffffffffffffffffffffffffffffffffffffff168152602001600115158152602001838152602001600181525060015f60055481526020019081526020015f205f820151815f01556020820151816001015f6101000a81548173ffffffffffffffffffffffffffffffffffffffff021916908373ffffffffffffffffffffffffffffffffffffffff1602179055506040820151816002019081610c2691906134be565b506060820151816003015f6101000a81548160ff02191690836005811115610c5157610c50612664565b5b02179055506080820151816004015560a0820151816005015f6101000a81548173ffffffffffffffffffffffffffffffffffffffff021916908373ffffffffffffffffffffffffffffffffffffffff16021790555060c08201518160050160146101000a81548160ff02191690831515021790555060e0820151816006019081610cdb91906134be565b5061010082015181600701559050505f5f8673ffffffffffffffffffffffffffffffffffffffff1673ffffffffffffffffffffffffffffffffffffffff1681526020019081526020015f20600554908060018154018082558091505060019003905f5260205f20015f90919091909150558473ffffffffffffffffffffffffffffffffffffffff166005547f32b3188b62628aabf659cebbab10a599b539bcb0c01a891ab2e37b8be315712e8686604051610d979291906135d4565b60405180910390a36005549050949350505050565b60608173ffffffffffffffffffffffffffffffffffffffff163373ffffffffffffffffffffffffffffffffffffffff161480610dee5750610ded82336120cb565b5b610e2d576040517f08c379a0000000000000000000000000000000000000000000000000000000008152600401610e249061364c565b60405180910390fd5b5f5f8373ffffffffffffffffffffffffffffffffffffffff1673ffffffffffffffffffffffffffffffffffffffff1681526020019081526020015f20805480602002602001604051908101604052809291908181526020018280548015610eb157602002820191905f5260205f20905b815481526020019060010190808311610e9d575b50505050509050919050565b5f5f845111610f01576040517f08c379a0000000000000000000000000000000000000000000000000000000008152600401610ef89061328c565b60405180910390fd5b60055f815480929190610f13906132d7565b919050555060405180610120016040528060055481526020013373ffffffffffffffffffffffffffffffffffffffff168152602001858152602001846005811115610f6157610f60612664565b5b81526020014281526020013373ffffffffffffffffffffffffffffffffffffffff168152602001600115158152602001838152602001600181525060015f60055481526020019081526020015f205f820151815f01556020820151816001015f6101000a81548173ffffffffffffffffffffffffffffffffffffffff021916908373ffffffffffffffffffffffffffffffffffffffff160217905550604082015181600201908161101291906134be565b506060820151816003015f6101000a81548160ff0219169083600581111561103d5761103c612664565b5b02179055506080820151816004015560a0820151816005015f6101000a81548173ffffffffffffffffffffffffffffffffffffffff021916908373ffffffffffffffffffffffffffffffffffffffff16021790555060c08201518160050160146101000a81548160ff02191690831515021790555060e08201518160060190816110c791906134be565b5061010082015181600701559050505f5f3373ffffffffffffffffffffffffffffffffffffffff1673ffffffffffffffffffffffffffffffffffffffff1681526020019081526020015f20600554908060018154018082558091505060019003905f5260205f20015f90919091909150553373ffffffffffffffffffffffffffffffffffffffff166005547f32b3188b62628aabf659cebbab10a599b539bcb0c01a891ab2e37b8be315712e86866040516111839291906135d4565b60405180910390a360055490509392505050565b823373ffffffffffffffffffffffffffffffffffffffff1660015f8381526020019081526020015f206001015f9054906101000a900473ffffffffffffffffffffffffffffffffffffffff1673ffffffffffffffffffffffffffffffffffffffff1614611239576040517f08c379a000000000000000000000000000000000000000000000000000000000815260040161123090613001565b60405180910390fd5b835f8111801561124b57506005548111155b61128a576040517f08c379a0000000000000000000000000000000000000000000000000000000008152600401611281906130c6565b60405180910390fd5b60015f8281526020019081526020015f2060050160149054906101000a900460ff166112eb576040517f08c379a00000000000000000000000000000000000000000000000000000000081526004016112e29061312e565b60405180910390fd5b5f60015f8781526020019081526020015f2090508481600201908161131091906134be565b508381600601908161132291906134be565b50806007015f815480929190611337906132d7565b9190505550857f088d9e16504277bf999412471e756eedf1ab2491c6a6399c9d349d3fea6d70cf86836007015460405161137292919061366a565b60405180910390a2505050505050565b815f8111801561139457506005548111155b6113d3576040517f08c379a00000000000000000000000000000000000000000000000000000000081526004016113ca906130c6565b60405180910390fd5b60015f8281526020019081526020015f2060050160149054906101000a900460ff16611434576040517f08c379a000000000000000000000000000000000000000000000000000000000815260040161142b9061312e565b60405180910390fd5b8261147360015f8381526020019081526020015f206001015f9054906101000a900473ffffffffffffffffffffffffffffffffffffffff163383611e15565b6114b2576040517f08c379a00000000000000000000000000000000000000000000000000000000081526004016114a9906131bc565b60405180910390fd5b60035f8581526020019081526020015f2060405180606001604052803373ffffffffffffffffffffffffffffffffffffffff16815260200142815260200185815250908060018154018082558091505060019003905f5260205f2090600302015f909190919091505f820151815f015f6101000a81548173ffffffffffffffffffffffffffffffffffffffff021916908373ffffffffffffffffffffffffffffffffffffffff16021790555060208201518160010155604082015181600201908161157d91906134be565b5050503373ffffffffffffffffffffffffffffffffffffffff16847fdec39eb35dc9ca96737e4515f8a70f5db122e248213ee947b996e1f678ab05b8426040516115c791906127e9565b60405180910390a350505050565b60025f3373ffffffffffffffffffffffffffffffffffffffff1673ffffffffffffffffffffffffffffffffffffffff1681526020019081526020015f205f8273ffffffffffffffffffffffffffffffffffffffff1673ffffffffffffffffffffffffffffffffffffffff1681526020019081526020015f206003015f9054906101000a900460ff1661169c576040517f08c379a0000000000000000000000000000000000000000000000000000000008152600401611693906136e2565b60405180910390fd5b5f60025f3373ffffffffffffffffffffffffffffffffffffffff1673ffffffffffffffffffffffffffffffffffffffff1681526020019081526020015f205f8373ffffffffffffffffffffffffffffffffffffffff1673ffffffffffffffffffffffffffffffffffffffff1681526020019081526020015f206003015f6101000a81548160ff0219169083151502179055508073ffffffffffffffffffffffffffffffffffffffff163373ffffffffffffffffffffffffffffffffffffffff167f825c8be24eb0df19500f63e86c29e7d0d951e73056b889b891d85e40938d9b6e60405160405180910390a350565b611793612366565b8273ffffffffffffffffffffffffffffffffffffffff163373ffffffffffffffffffffffffffffffffffffffff1614806117f857508173ffffffffffffffffffffffffffffffffffffffff163373ffffffffffffffffffffffffffffffffffffffff16145b611837576040517f08c379a000000000000000000000000000000000000000000000000000000000815260040161182e9061364c565b60405180910390fd5b60025f8473ffffffffffffffffffffffffffffffffffffffff1673ffffffffffffffffffffffffffffffffffffffff1681526020019081526020015f205f8373ffffffffffffffffffffffffffffffffffffffff1673ffffffffffffffffffffffffffffffffffffffff1681526020019081526020015f206040518060a00160405290815f82015f9054906101000a900473ffffffffffffffffffffffffffffffffffffffff1673ffffffffffffffffffffffffffffffffffffffff1673ffffffffffffffffffffffffffffffffffffffff1681526020016001820180548060200260200160405190810160405280929190818152602001828054801561195b57602002820191905f5260205f20905b815481526020019060010190808311611947575b5050505050815260200160028201548152602001600382015f9054906101000a900460ff16151515158152602001600482015481525050905092915050565b5f73ffffffffffffffffffffffffffffffffffffffff168173ffffffffffffffffffffffffffffffffffffffff1603611a08576040517f08c379a00000000000000000000000000000000000000000000000000000000081526004016119ff9061374a565b60405180910390fd5b8060045f3373ffffffffffffffffffffffffffffffffffffffff1673ffffffffffffffffffffffffffffffffffffffff1681526020019081526020015f205f6101000a81548173ffffffffffffffffffffffffffffffffffffffff021916908373ffffffffffffffffffffffffffffffffffffffff16021790555050565b5f73ffffffffffffffffffffffffffffffffffffffff168373ffffffffffffffffffffffffffffffffffffffff1603611af4576040517f08c379a0000000000000000000000000000000000000000000000000000000008152600401611aeb9061374a565b60405180910390fd5b5f825111611b37576040517f08c379a0000000000000000000000000000000000000000000000000000000008152600401611b2e906137d8565b60405180910390fd5b5f5f90505b8251811015611c0d573373ffffffffffffffffffffffffffffffffffffffff1660015f858481518110611b7257611b716137f6565b5b602002602001015181526020019081526020015f206001015f9054906101000a900473ffffffffffffffffffffffffffffffffffffffff1673ffffffffffffffffffffffffffffffffffffffff1614611c00576040517f08c379a0000000000000000000000000000000000000000000000000000000008152600401611bf790613893565b60405180910390fd5b8080600101915050611b3c565b505f6201518082611c1e91906138b1565b42611c2991906138f2565b90506040518060a001604052808573ffffffffffffffffffffffffffffffffffffffff1681526020018481526020018281526020016001151581526020014281525060025f3373ffffffffffffffffffffffffffffffffffffffff1673ffffffffffffffffffffffffffffffffffffffff1681526020019081526020015f205f8673ffffffffffffffffffffffffffffffffffffffff1673ffffffffffffffffffffffffffffffffffffffff1681526020019081526020015f205f820151815f015f6101000a81548173ffffffffffffffffffffffffffffffffffffffff021916908373ffffffffffffffffffffffffffffffffffffffff1602179055506020820151816001019080519060200190611d439291906123a9565b50604082015181600201556060820151816003015f6101000a81548160ff021916908315150217905550608082015181600401559050508373ffffffffffffffffffffffffffffffffffffffff163373ffffffffffffffffffffffffffffffffffffffff167f65d0cc1e52d49938ca4ad9f423c79c1b84d914b9a683fbc5d3f93ac3cc5635f583604051611dd791906127e9565b60405180910390a350505050565b6004602052805f5260405f205f915054906101000a900473ffffffffffffffffffffffffffffffffffffffff1681565b5f8273ffffffffffffffffffffffffffffffffffffffff168473ffffffffffffffffffffffffffffffffffffffff1603611e5257600190506120c4565b8273ffffffffffffffffffffffffffffffffffffffff1660045f8673ffffffffffffffffffffffffffffffffffffffff1673ffffffffffffffffffffffffffffffffffffffff1681526020019081526020015f205f9054906101000a900473ffffffffffffffffffffffffffffffffffffffff1673ffffffffffffffffffffffffffffffffffffffff1603611eea57600190506120c4565b5f60025f8673ffffffffffffffffffffffffffffffffffffffff1673ffffffffffffffffffffffffffffffffffffffff1681526020019081526020015f205f8573ffffffffffffffffffffffffffffffffffffffff1673ffffffffffffffffffffffffffffffffffffffff1681526020019081526020015f206040518060a00160405290815f82015f9054906101000a900473ffffffffffffffffffffffffffffffffffffffff1673ffffffffffffffffffffffffffffffffffffffff1673ffffffffffffffffffffffffffffffffffffffff1681526020016001820180548060200260200160405190810160405280929190818152602001828054801561200f57602002820191905f5260205f20905b815481526020019060010190808311611ffb575b5050505050815260200160028201548152602001600382015f9054906101000a900460ff161515151581526020016004820154815250509050806060015161205a575f9150506120c4565b806040015142111561206f575f9150506120c4565b5f5f90505b8160200151518110156120be578382602001518281518110612099576120986137f6565b5b6020026020010151036120b1576001925050506120c4565b8080600101915050612074565b505f9150505b9392505050565b5f8173ffffffffffffffffffffffffffffffffffffffff1660045f8573ffffffffffffffffffffffffffffffffffffffff1673ffffffffffffffffffffffffffffffffffffffff1681526020019081526020015f205f9054906101000a900473ffffffffffffffffffffffffffffffffffffffff1673ffffffffffffffffffffffffffffffffffffffff160361216457600190506122db565b5f60025f8573ffffffffffffffffffffffffffffffffffffffff1673ffffffffffffffffffffffffffffffffffffffff1681526020019081526020015f205f8473ffffffffffffffffffffffffffffffffffffffff1673ffffffffffffffffffffffffffffffffffffffff1681526020019081526020015f206040518060a00160405290815f82015f9054906101000a900473ffffffffffffffffffffffffffffffffffffffff1673ffffffffffffffffffffffffffffffffffffffff1673ffffffffffffffffffffffffffffffffffffffff1681526020016001820180548060200260200160405190810160405280929190818152602001828054801561228957602002820191905f5260205f20905b815481526020019060010190808311612275575b5050505050815260200160028201548152602001600382015f9054906101000a900460ff161515151581526020016004820154815250509050806060015180156122d7575080604001514211155b9150505b92915050565b6040518061012001604052805f81526020015f73ffffffffffffffffffffffffffffffffffffffff168152602001606081526020015f600581111561232957612328612664565b5b81526020015f81526020015f73ffffffffffffffffffffffffffffffffffffffff1681526020015f15158152602001606081526020015f81525090565b6040518060a001604052805f73ffffffffffffffffffffffffffffffffffffffff168152602001606081526020015f81526020015f151581526020015f81525090565b828054828255905f5260205f209081019282156123e3579160200282015b828111156123e25782518255916020019190600101906123c7565b5b5090506123f091906123f4565b5090565b5b8082111561240b575f815f9055506001016123f5565b5090565b5f604051905090565b5f5ffd5b5f5ffd5b5f819050919050565b61243281612420565b811461243c575f5ffd5b50565b5f8135905061244d81612429565b92915050565b5f6020828403121561246857612467612418565b5b5f6124758482850161243f565b91505092915050565b5f81519050919050565b5f82825260208201905092915050565b5f819050602082019050919050565b5f73ffffffffffffffffffffffffffffffffffffffff82169050919050565b5f6124d0826124a7565b9050919050565b6124e0816124c6565b82525050565b6124ef81612420565b82525050565b5f81519050919050565b5f82825260208201905092915050565b8281835e5f83830152505050565b5f601f19601f8301169050919050565b5f612537826124f5565b61254181856124ff565b935061255181856020860161250f565b61255a8161251d565b840191505092915050565b5f606083015f83015161257a5f8601826124d7565b50602083015161258d60208601826124e6565b50604083015184820360408601526125a5828261252d565b9150508091505092915050565b5f6125bd8383612565565b905092915050565b5f602082019050919050565b5f6125db8261247e565b6125e58185612488565b9350836020820285016125f785612498565b805f5b85811015612632578484038952815161261385826125b2565b945061261e836125c5565b925060208a019950506001810190506125fa565b50829750879550505050505092915050565b5f6020820190508181035f83015261265c81846125d1565b905092915050565b7f4e487b71000000000000000000000000000000000000000000000000000000005f52602160045260245ffd5b600681106126a2576126a1612664565b5b50565b5f8190506126b282612691565b919050565b5f6126c1826126a5565b9050919050565b6126d1816126b7565b82525050565b5f8115159050919050565b6126eb816126d7565b82525050565b5f61012083015f8301516127075f8601826124e6565b50602083015161271a60208601826124d7565b5060408301518482036040860152612732828261252d565b915050606083015161274760608601826126c8565b50608083015161275a60808601826124e6565b5060a083015161276d60a08601826124d7565b5060c083015161278060c08601826126e2565b5060e083015184820360e0860152612798828261252d565b9150506101008301516127af6101008601826124e6565b508091505092915050565b5f6020820190508181035f8301526127d281846126f1565b905092915050565b6127e381612420565b82525050565b5f6020820190506127fc5f8301846127da565b92915050565b61280b816124c6565b8114612815575f5ffd5b50565b5f8135905061282681612802565b92915050565b5f5ffd5b5f5ffd5b7f4e487b71000000000000000000000000000000000000000000000000000000005f52604160045260245ffd5b61286a8261251d565b810181811067ffffffffffffffff8211171561288957612888612834565b5b80604052505050565b5f61289b61240f565b90506128a78282612861565b919050565b5f67ffffffffffffffff8211156128c6576128c5612834565b5b6128cf8261251d565b9050602081019050919050565b828183375f83830152505050565b5f6128fc6128f7846128ac565b612892565b90508281526020810184848401111561291857612917612830565b5b6129238482856128dc565b509392505050565b5f82601f83011261293f5761293e61282c565b5b813561294f8482602086016128ea565b91505092915050565b60068110612964575f5ffd5b50565b5f8135905061297581612958565b92915050565b5f5f5f5f6080858703121561299357612992612418565b5b5f6129a087828801612818565b945050602085013567ffffffffffffffff8111156129c1576129c061241c565b5b6129cd8782880161292b565b93505060406129de87828801612967565b925050606085013567ffffffffffffffff8111156129ff576129fe61241c565b5b612a0b8782880161292b565b91505092959194509250565b5f60208284031215612a2c57612a2b612418565b5b5f612a3984828501612818565b91505092915050565b5f81519050919050565b5f82825260208201905092915050565b5f819050602082019050919050565b5f612a7683836124e6565b60208301905092915050565b5f602082019050919050565b5f612a9882612a42565b612aa28185612a4c565b9350612aad83612a5c565b805f5b83811015612add578151612ac48882612a6b565b9750612acf83612a82565b925050600181019050612ab0565b5085935050505092915050565b5f6020820190508181035f830152612b028184612a8e565b905092915050565b5f5f5f60608486031215612b2157612b20612418565b5b5f84013567ffffffffffffffff811115612b3e57612b3d61241c565b5b612b4a8682870161292b565b9350506020612b5b86828701612967565b925050604084013567ffffffffffffffff811115612b7c57612b7b61241c565b5b612b888682870161292b565b9150509250925092565b5f5f5f60608486031215612ba957612ba8612418565b5b5f612bb68682870161243f565b935050602084013567ffffffffffffffff811115612bd757612bd661241c565b5b612be38682870161292b565b925050604084013567ffffffffffffffff811115612c0457612c0361241c565b5b612c108682870161292b565b9150509250925092565b5f5f60408385031215612c3057612c2f612418565b5b5f612c3d8582860161243f565b925050602083013567ffffffffffffffff811115612c5e57612c5d61241c565b5b612c6a8582860161292b565b9150509250929050565b5f5f60408385031215612c8a57612c89612418565b5b5f612c9785828601612818565b9250506020612ca885828601612818565b9150509250929050565b5f82825260208201905092915050565b5f612ccc82612a42565b612cd68185612cb2565b9350612ce183612a5c565b805f5b83811015612d11578151612cf88882612a6b565b9750612d0383612a82565b925050600181019050612ce4565b5085935050505092915050565b5f60a083015f830151612d335f8601826124d7565b5060208301518482036020860152612d4b8282612cc2565b9150506040830151612d6060408601826124e6565b506060830151612d7360608601826126e2565b506080830151612d8660808601826124e6565b508091505092915050565b5f6020820190508181035f830152612da98184612d1e565b905092915050565b5f67ffffffffffffffff821115612dcb57612dca612834565b5b602082029050602081019050919050565b5f5ffd5b5f612df2612ded84612db1565b612892565b90508083825260208201905060208402830185811115612e1557612e14612ddc565b5b835b81811015612e3e5780612e2a888261243f565b845260208401935050602081019050612e17565b5050509392505050565b5f82601f830112612e5c57612e5b61282c565b5b8135612e6c848260208601612de0565b91505092915050565b5f5f5f60608486031215612e8c57612e8b612418565b5b5f612e9986828701612818565b935050602084013567ffffffffffffffff811115612eba57612eb961241c565b5b612ec686828701612e48565b9250506040612ed78682870161243f565b9150509250925092565b612eea816124c6565b82525050565b5f602082019050612f035f830184612ee1565b92915050565b5f5f5f60608486031215612f2057612f1f612418565b5b5f612f2d86828701612818565b9350506020612f3e86828701612818565b9250506040612f4f8682870161243f565b9150509250925092565b612f62816126d7565b82525050565b5f602082019050612f7b5f830184612f59565b92915050565b5f82825260208201905092915050565b7f4f6e6c792070617469656e742063616e20706572666f726d20746869732061635f8201527f74696f6e00000000000000000000000000000000000000000000000000000000602082015250565b5f612feb602483612f81565b9150612ff682612f91565b604082019050919050565b5f6020820190508181035f83015261301881612fdf565b9050919050565b7f4e487b71000000000000000000000000000000000000000000000000000000005f52602260045260245ffd5b5f600282049050600182168061306357607f821691505b6020821081036130765761307561301f565b5b50919050565b7f5265636f726420646f6573206e6f7420657869737400000000000000000000005f82015250565b5f6130b0601583612f81565b91506130bb8261307c565b602082019050919050565b5f6020820190508181035f8301526130dd816130a4565b9050919050565b7f5265636f7264206973206e6f74206163746976650000000000000000000000005f82015250565b5f613118601483612f81565b9150613123826130e4565b602082019050919050565b5f6020820190508181035f8301526131458161310c565b9050919050565b7f4e6f7420617574686f72697a656420746f2061636365737320746869732072655f8201527f636f726400000000000000000000000000000000000000000000000000000000602082015250565b5f6131a6602483612f81565b91506131b18261314c565b604082019050919050565b5f6020820190508181035f8301526131d38161319a565b9050919050565b7f496e76616c69642070617469656e7420616464726573730000000000000000005f82015250565b5f61320e601783612f81565b9150613219826131da565b602082019050919050565b5f6020820190508181035f83015261323b81613202565b9050919050565b7f4950465320686173682063616e6e6f7420626520656d707479000000000000005f82015250565b5f613276601983612f81565b915061328182613242565b602082019050919050565b5f6020820190508181035f8301526132a38161326a565b9050919050565b7f4e487b71000000000000000000000000000000000000000000000000000000005f52601160045260245ffd5b5f6132e182612420565b91507fffffffffffffffffffffffffffffffffffffffffffffffffffffffffffffffff8203613313576133126132aa565b5b600182019050919050565b5f819050815f5260205f209050919050565b5f6020601f8301049050919050565b5f82821b905092915050565b5f6008830261337a7fffffffffffffffffffffffffffffffffffffffffffffffffffffffffffffffff8261333f565b613384868361333f565b95508019841693508086168417925050509392505050565b5f819050919050565b5f6133bf6133ba6133b584612420565b61339c565b612420565b9050919050565b5f819050919050565b6133d8836133a5565b6133ec6133e4826133c6565b84845461334b565b825550505050565b5f5f905090565b6134036133f4565b61340e8184846133cf565b505050565b5b81811015613431576134265f826133fb565b600181019050613414565b5050565b601f821115613476576134478161331e565b61345084613330565b8101602085101561345f578190505b61347361346b85613330565b830182613413565b50505b505050565b5f82821c905092915050565b5f6134965f198460080261347b565b1980831691505092915050565b5f6134ae8383613487565b9150826002028217905092915050565b6134c7826124f5565b67ffffffffffffffff8111156134e0576134df612834565b5b6134ea825461304c565b6134f5828285613435565b5f60209050601f831160018114613526575f8415613514578287015190505b61351e85826134a3565b865550613585565b601f1984166135348661331e565b5f5b8281101561355b57848901518255600182019150602085019450602081019050613536565b868310156135785784890151613574601f891682613487565b8355505b6001600288020188555050505b505050505050565b5f613597826124f5565b6135a18185612f81565b93506135b181856020860161250f565b6135ba8161251d565b840191505092915050565b6135ce816126b7565b82525050565b5f6040820190508181035f8301526135ec818561358d565b90506135fb60208301846135c5565b9392505050565b7f4e6f7420617574686f72697a65640000000000000000000000000000000000005f82015250565b5f613636600e83612f81565b915061364182613602565b602082019050919050565b5f6020820190508181035f8301526136638161362a565b9050919050565b5f6040820190508181035f830152613682818561358d565b905061369160208301846127da565b9392505050565b7f4e6f2061637469766520616363657373206772616e74000000000000000000005f82015250565b5f6136cc601683612f81565b91506136d782613698565b602082019050919050565b5f6020820190508181035f8301526136f9816136c0565b9050919050565b7f496e76616c6964206164647265737300000000000000000000000000000000005f82015250565b5f613734600f83612f81565b915061373f82613700565b602082019050919050565b5f6020820190508181035f83015261376181613728565b9050919050565b7f4d757374206772616e742061636365737320746f206174206c65617374206f6e5f8201527f65207265636f7264000000000000000000000000000000000000000000000000602082015250565b5f6137c2602883612f81565b91506137cd82613768565b604082019050919050565b5f6020820190508181035f8301526137ef816137b6565b9050919050565b7f4e487b71000000000000000000000000000000000000000000000000000000005f52603260045260245ffd5b7f596f7520646f6e2774206f776e20616c6c20737065636966696564207265636f5f8201527f7264730000000000000000000000000000000000000000000000000000000000602082015250565b5f61387d602383612f81565b915061388882613823565b604082019050919050565b5f6020820190508181035f8301526138aa81613871565b9050919050565b5f6138bb82612420565b91506138c683612420565b92508282026138d481612420565b915082820484148315176138eb576138ea6132aa565b5b5092915050565b5f6138fc82612420565b915061390783612420565b925082820190508082111561391f5761391e6132aa565b5b9291505056fea2646970667358221220baab528e2b75d23d2e9103f192cc34802f079804cff4f6bace91ec87b6e4d20f64736f6c634300081e0033",
					"opcodes": "PUSH1 0x80 PUSH1 0x40 MSTORE CALLVALUE DUP1 ISZERO PUSH1 0xE JUMPI PUSH0 PUSH0 REVERT JUMPDEST POP PUSH2 0x395B DUP1 PUSH2 0x1C PUSH0 CODECOPY PUSH0 RETURN INVALID PUSH1 0x80 PUSH1 0x40 MSTORE CALLVALUE DUP1 ISZERO PUSH2 0xF JUMPI PUSH0 PUSH0 REVERT JUMPDEST POP PUSH1 0x4 CALLDATASIZE LT PUSH2 0xF3 JUMPI PUSH0 CALLDATALOAD PUSH1 0xE0 SHR DUP1 PUSH4 0x3812C6A8 GT PUSH2 0x95 JUMPI DUP1 PUSH4 0x91284A89 GT PUSH2 0x64 JUMPI DUP1 PUSH4 0x91284A89 EQ PUSH2 0x2A5 JUMPI DUP1 PUSH4 0x9399E973 EQ PUSH2 0x2C1 JUMPI DUP1 PUSH4 0xB4B07A70 EQ PUSH2 0x2DD JUMPI DUP1 PUSH4 0xCF56B4EB EQ PUSH2 0x30D JUMPI PUSH2 0xF3 JUMP JUMPDEST DUP1 PUSH4 0x3812C6A8 EQ PUSH2 0x221 JUMPI DUP1 PUSH4 0x67502CDF EQ PUSH2 0x23D JUMPI DUP1 PUSH4 0x85E68531 EQ PUSH2 0x259 JUMPI DUP1 PUSH4 0x8B681C7C EQ PUSH2 0x275 JUMPI PUSH2 0xF3 JUMP JUMPDEST DUP1 PUSH4 0xAEACB5E GT PUSH2 0xD1 JUMPI DUP1 PUSH4 0xAEACB5E EQ PUSH2 0x173 JUMPI DUP1 PUSH4 0xE8DCE29 EQ PUSH2 0x191 JUMPI DUP1 PUSH4 0x18BD4847 EQ PUSH2 0x1C1 JUMPI DUP1 PUSH4 0x1B6377B8 EQ PUSH2 0x1F1 JUMPI PUSH2 0xF3 JUMP JUMPDEST DUP1 PUSH4 0x1B1D324 EQ PUSH2 0xF7 JUMPI DUP1 PUSH4 0x3E9E609 EQ PUSH2 0x127 JUMPI DUP1 PUSH4 0x61F9811 EQ PUSH2 0x157 JUMPI JUMPDEST PUSH0 PUSH0 REVERT JUMPDEST PUSH2 0x111 PUSH1 0x4 DUP1 CALLDATASIZE SUB DUP2 ADD SWAP1 PUSH2 0x10C SWAP2 SWAP1 PUSH2 0x2453 JUMP JUMPDEST PUSH2 0x33D JUMP JUMPDEST PUSH1 0x40 MLOAD PUSH2 0x11E SWAP2 SWAP1 PUSH2 0x2644 JUMP JUMPDEST PUSH1 0x40 MLOAD DUP1 SWAP2 SUB SWAP1 RETURN JUMPDEST PUSH2 0x141 PUSH1 0x4 DUP1 CALLDATASIZE SUB DUP2 ADD SWAP1 PUSH2 0x13C SWAP2 SWAP1 PUSH2 0x2453 JUMP JUMPDEST PUSH2 0x53B JUMP JUMPDEST PUSH1 0x40 MLOAD PUSH2 0x14E SWAP2 SWAP1 PUSH2 0x27BA JUMP JUMPDEST PUSH1 0x40 MLOAD DUP1 SWAP2 SUB SWAP1 RETURN JUMPDEST PUSH2 0x171 PUSH1 0x4 DUP1 CALLDATASIZE SUB DUP2 ADD SWAP1 PUSH2 0x16C SWAP2 SWAP1 PUSH2 0x2453 JUMP JUMPDEST PUSH2 0x8D5 JUMP JUMPDEST STOP JUMPDEST PUSH2 0x17B PUSH2 0xA5A JUMP JUMPDEST PUSH1 0x40 MLOAD PUSH2 0x188 SWAP2 SWAP1 PUSH2 0x27E9 JUMP JUMPDEST PUSH1 0x40 MLOAD DUP1 SWAP2 SUB SWAP1 RETURN JUMPDEST PUSH2 0x1AB PUSH1 0x4 DUP1 CALLDATASIZE SUB DUP2 ADD SWAP1 PUSH2 0x1A6 SWAP2 SWAP1 PUSH2 0x297B JUMP JUMPDEST PUSH2 0xA63 JUMP JUMPDEST PUSH1 0x40 MLOAD PUSH2 0x1B8 SWAP2 SWAP1 PUSH2 0x27E9 JUMP JUMPDEST PUSH1 0x40 MLOAD DUP1 SWAP2 SUB SWAP1 RETURN JUMPDEST PUSH2 0x1DB PUSH1 0x4 DUP1 CALLDATASIZE SUB DUP2 ADD SWAP1 PUSH2 0x1D6 SWAP2 SWAP1 PUSH2 0x2A17 JUMP JUMPDEST PUSH2 0xDAC JUMP JUMPDEST PUSH1 0x40 MLOAD PUSH2 0x1E8 SWAP2 SWAP1 PUSH2 0x2AEA JUMP JUMPDEST PUSH1 0x40 MLOAD DUP1 SWAP2 SUB SWAP1 RETURN JUMPDEST PUSH2 0x20B PUSH1 0x4 DUP1 CALLDATASIZE SUB DUP2 ADD SWAP1 PUSH2 0x206 SWAP2 SWAP1 PUSH2 0x2B0A JUMP JUMPDEST PUSH2 0xEBD JUMP JUMPDEST PUSH1 0x40 MLOAD PUSH2 0x218 SWAP2 SWAP1 PUSH2 0x27E9 JUMP JUMPDEST PUSH1 0x40 MLOAD DUP1 SWAP2 SUB SWAP1 RETURN JUMPDEST PUSH2 0x23B PUSH1 0x4 DUP1 CALLDATASIZE SUB DUP2 ADD SWAP1 PUSH2 0x236 SWAP2 SWAP1 PUSH2 0x2B92 JUMP JUMPDEST PUSH2 0x1197 JUMP JUMPDEST STOP JUMPDEST PUSH2 0x257 PUSH1 0x4 DUP1 CALLDATASIZE SUB DUP2 ADD SWAP1 PUSH2 0x252 SWAP2 SWAP1 PUSH2 0x2C1A JUMP JUMPDEST PUSH2 0x1382 JUMP JUMPDEST STOP JUMPDEST PUSH2 0x273 PUSH1 0x4 DUP1 CALLDATASIZE SUB DUP2 ADD SWAP1 PUSH2 0x26E SWAP2 SWAP1 PUSH2 0x2A17 JUMP JUMPDEST PUSH2 0x15D5 JUMP JUMPDEST STOP JUMPDEST PUSH2 0x28F PUSH1 0x4 DUP1 CALLDATASIZE SUB DUP2 ADD SWAP1 PUSH2 0x28A SWAP2 SWAP1 PUSH2 0x2C74 JUMP JUMPDEST PUSH2 0x178B JUMP JUMPDEST PUSH1 0x40 MLOAD PUSH2 0x29C SWAP2 SWAP1 PUSH2 0x2D91 JUMP JUMPDEST PUSH1 0x40 MLOAD DUP1 SWAP2 SUB SWAP1 RETURN JUMPDEST PUSH2 0x2BF PUSH1 0x4 DUP1 CALLDATASIZE SUB DUP2 ADD SWAP1 PUSH2 0x2BA SWAP2 SWAP1 PUSH2 0x2A17 JUMP JUMPDEST PUSH2 0x199A JUMP JUMPDEST STOP JUMPDEST PUSH2 0x2DB PUSH1 0x4 DUP1 CALLDATASIZE SUB DUP2 ADD SWAP1 PUSH2 0x2D6 SWAP2 SWAP1 PUSH2 0x2E75 JUMP JUMPDEST PUSH2 0x1A86 JUMP JUMPDEST STOP JUMPDEST PUSH2 0x2F7 PUSH1 0x4 DUP1 CALLDATASIZE SUB DUP2 ADD SWAP1 PUSH2 0x2F2 SWAP2 SWAP1 PUSH2 0x2A17 JUMP JUMPDEST PUSH2 0x1DE5 JUMP JUMPDEST PUSH1 0x40 MLOAD PUSH2 0x304 SWAP2 SWAP1 PUSH2 0x2EF0 JUMP JUMPDEST PUSH1 0x40 MLOAD DUP1 SWAP2 SUB SWAP1 RETURN JUMPDEST PUSH2 0x327 PUSH1 0x4 DUP1 CALLDATASIZE SUB DUP2 ADD SWAP1 PUSH2 0x322 SWAP2 SWAP1 PUSH2 0x2F09 JUMP JUMPDEST PUSH2 0x1E15 JUMP JUMPDEST PUSH1 0x40 MLOAD PUSH2 0x334 SWAP2 SWAP1 PUSH2 0x2F68 JUMP JUMPDEST PUSH1 0x40 MLOAD DUP1 SWAP2 SUB SWAP1 RETURN JUMPDEST PUSH1 0x60 DUP2 CALLER PUSH20 0xFFFFFFFFFFFFFFFFFFFFFFFFFFFFFFFFFFFFFFFF AND PUSH1 0x1 PUSH0 DUP4 DUP2 MSTORE PUSH1 0x20 ADD SWAP1 DUP2 MSTORE PUSH1 0x20 ADD PUSH0 KECCAK256 PUSH1 0x1 ADD PUSH0 SWAP1 SLOAD SWAP1 PUSH2 0x100 EXP SWAP1 DIV PUSH20 0xFFFFFFFFFFFFFFFFFFFFFFFFFFFFFFFFFFFFFFFF AND PUSH20 0xFFFFFFFFFFFFFFFFFFFFFFFFFFFFFFFFFFFFFFFF AND EQ PUSH2 0x3E1 JUMPI PUSH1 0x40 MLOAD PUSH32 0x8C379A000000000000000000000000000000000000000000000000000000000 DUP2 MSTORE PUSH1 0x4 ADD PUSH2 0x3D8 SWAP1 PUSH2 0x3001 JUMP JUMPDEST PUSH1 0x40 MLOAD DUP1 SWAP2 SUB SWAP1 REVERT JUMPDEST PUSH1 0x3 PUSH0 DUP5 DUP2 MSTORE PUSH1 0x20 ADD SWAP1 DUP2 MSTORE PUSH1 0x20 ADD PUSH0 KECCAK256 DUP1 SLOAD DUP1 PUSH1 0x20 MUL PUSH1 0x20 ADD PUSH1 0x40 MLOAD SWAP1 DUP2 ADD PUSH1 0x40 MSTORE DUP1 SWAP3 SWAP2 SWAP1 DUP2 DUP2 MSTORE PUSH1 0x20 ADD PUSH0 SWAP1 JUMPDEST DUP3 DUP3 LT ISZERO PUSH2 0x52F JUMPI DUP4 DUP3 SWAP1 PUSH0 MSTORE PUSH1 0x20 PUSH0 KECCAK256 SWAP1 PUSH1 0x3 MUL ADD PUSH1 0x40 MLOAD DUP1 PUSH1 0x60 ADD PUSH1 0x40 MSTORE SWAP1 DUP2 PUSH0 DUP3 ADD PUSH0 SWAP1 SLOAD SWAP1 PUSH2 0x100 EXP SWAP1 DIV PUSH20 0xFFFFFFFFFFFFFFFFFFFFFFFFFFFFFFFFFFFFFFFF AND PUSH20 0xFFFFFFFFFFFFFFFFFFFFFFFFFFFFFFFFFFFFFFFF AND PUSH20 0xFFFFFFFFFFFFFFFFFFFFFFFFFFFFFFFFFFFFFFFF AND DUP2 MSTORE PUSH1 0x20 ADD PUSH1 0x1 DUP3 ADD SLOAD DUP2 MSTORE PUSH1 0x20 ADD PUSH1 0x2 DUP3 ADD DUP1 SLOAD PUSH2 0x4A0 SWAP1 PUSH2 0x304C JUMP JUMPDEST DUP1 PUSH1 0x1F ADD PUSH1 0x20 DUP1 SWAP2 DIV MUL PUSH1 0x20 ADD PUSH1 0x40 MLOAD SWAP1 DUP2 ADD PUSH1 0x40 MSTORE DUP1 SWAP3 SWAP2 SWAP1 DUP2 DUP2 MSTORE PUSH1 0x20 ADD DUP3 DUP1 SLOAD PUSH2 0x4CC SWAP1 PUSH2 0x304C JUMP JUMPDEST DUP1 ISZERO PUSH2 0x517 JUMPI DUP1 PUSH1 0x1F LT PUSH2 0x4EE JUMPI PUSH2 0x100 DUP1 DUP4 SLOAD DIV MUL DUP4 MSTORE SWAP2 PUSH1 0x20 ADD SWAP2 PUSH2 0x517 JUMP JUMPDEST DUP3 ADD SWAP2 SWAP1 PUSH0 MSTORE PUSH1 0x20 PUSH0 KECCAK256 SWAP1 JUMPDEST DUP2 SLOAD DUP2 MSTORE SWAP1 PUSH1 0x1 ADD SWAP1 PUSH1 0x20 ADD DUP1 DUP4 GT PUSH2 0x4FA JUMPI DUP3 SWAP1 SUB PUSH1 0x1F AND DUP3 ADD SWAP2 JUMPDEST POP POP POP POP POP DUP2 MSTORE POP POP DUP2 MSTORE PUSH1 0x20 ADD SWAP1 PUSH1 0x1 ADD SWAP1 PUSH2 0x411 JUMP JUMPDEST POP POP POP POP SWAP2 POP POP SWAP2 SWAP1 POP JUMP JUMPDEST PUSH2 0x543 PUSH2 0x22E1 JUMP JUMPDEST DUP2 PUSH0 DUP2 GT DUP1 ISZERO PUSH2 0x555 JUMPI POP PUSH1 0x5 SLOAD DUP2 GT ISZERO JUMPDEST PUSH2 0x594 JUMPI PUSH1 0x40 MLOAD PUSH32 0x8C379A000000000000000000000000000000000000000000000000000000000 DUP2 MSTORE PUSH1 0x4 ADD PUSH2 0x58B SWAP1 PUSH2 0x30C6 JUMP JUMPDEST PUSH1 0x40 MLOAD DUP1 SWAP2 SUB SWAP1 REVERT JUMPDEST PUSH1 0x1 PUSH0 DUP3 DUP2 MSTORE PUSH1 0x20 ADD SWAP1 DUP2 MSTORE PUSH1 0x20 ADD PUSH0 KECCAK256 PUSH1 0x5 ADD PUSH1 0x14 SWAP1 SLOAD SWAP1 PUSH2 0x100 EXP SWAP1 DIV PUSH1 0xFF AND PUSH2 0x5F5 JUMPI PUSH1 0x40 MLOAD PUSH32 0x8C379A000000000000000000000000000000000000000000000000000000000 DUP2 MSTORE PUSH1 0x4 ADD PUSH2 0x5EC SWAP1 PUSH2 0x312E JUMP JUMPDEST PUSH1 0x40 MLOAD DUP1 SWAP2 SUB SWAP1 REVERT JUMPDEST DUP3 PUSH2 0x634 PUSH1 0x1 PUSH0 DUP4 DUP2 MSTORE PUSH1 0x20 ADD SWAP1 DUP2 MSTORE PUSH1 0x20 ADD PUSH0 KECCAK256 PUSH1 0x1 ADD PUSH0 SWAP1 SLOAD SWAP1 PUSH2 0x100 EXP SWAP1 DIV PUSH20 0xFFFFFFFFFFFFFFFFFFFFFFFFFFFFFFFFFFFFFFFF AND CALLER DUP4 PUSH2 0x1E15 JUMP JUMPDEST PUSH2 0x673 JUMPI PUSH1 0x40 MLOAD PUSH32 0x8C379A000000000000000000000000000000000000000000000000000000000 DUP2 MSTORE PUSH1 0x4 ADD PUSH2 0x66A SWAP1 PUSH2 0x31BC JUMP JUMPDEST PUSH1 0x40 MLOAD DUP1 SWAP2 SUB SWAP1 REVERT JUMPDEST PUSH1 0x1 PUSH0 DUP6 DUP2 MSTORE PUSH1 0x20 ADD SWAP1 DUP2 MSTORE PUSH1 0x20 ADD PUSH0 KECCAK256 PUSH1 0x40 MLOAD DUP1 PUSH2 0x120 ADD PUSH1 0x40 MSTORE SWAP1 DUP2 PUSH0 DUP3 ADD SLOAD DUP2 MSTORE PUSH1 0x20 ADD PUSH1 0x1 DUP3 ADD PUSH0 SWAP1 SLOAD SWAP1 PUSH2 0x100 EXP SWAP1 DIV PUSH20 0xFFFFFFFFFFFFFFFFFFFFFFFFFFFFFFFFFFFFFFFF AND PUSH20 0xFFFFFFFFFFFFFFFFFFFFFFFFFFFFFFFFFFFFFFFF AND PUSH20 0xFFFFFFFFFFFFFFFFFFFFFFFFFFFFFFFFFFFFFFFF AND DUP2 MSTORE PUSH1 0x20 ADD PUSH1 0x2 DUP3 ADD DUP1 SLOAD PUSH2 0x6FE SWAP1 PUSH2 0x304C JUMP JUMPDEST DUP1 PUSH1 0x1F ADD PUSH1 0x20 DUP1 SWAP2 DIV MUL PUSH1 0x20 ADD PUSH1 0x40 MLOAD SWAP1 DUP2 ADD PUSH1 0x40 MSTORE DUP1 SWAP3 SWAP2 SWAP1 DUP2 DUP2 MSTORE PUSH1 0x20 ADD DUP3 DUP1 SLOAD PUSH2 0x72A SWAP1 PUSH2 0x304C JUMP JUMPDEST DUP1 ISZERO PUSH2 0x775 JUMPI DUP1 PUSH1 0x1F LT PUSH2 0x74C JUMPI PUSH2 0x100 DUP1 DUP4 SLOAD DIV MUL DUP4 MSTORE SWAP2 PUSH1 0x20 ADD SWAP2 PUSH2 0x775 JUMP JUMPDEST DUP3 ADD SWAP2 SWAP1 PUSH0 MSTORE PUSH1 0x20 PUSH0 KECCAK256 SWAP1 JUMPDEST DUP2 SLOAD DUP2 MSTORE SWAP1 PUSH1 0x1 ADD SWAP1 PUSH1 0x20 ADD DUP1 DUP4 GT PUSH2 0x758 JUMPI DUP3 SWAP1 SUB PUSH1 0x1F AND DUP3 ADD SWAP2 JUMPDEST POP POP POP POP POP DUP2 MSTORE PUSH1 0x20 ADD PUSH1 0x3 DUP3 ADD PUSH0 SWAP1 SLOAD SWAP1 PUSH2 0x100 EXP SWAP1 DIV PUSH1 0xFF AND PUSH1 0x5 DUP2 GT ISZERO PUSH2 0x7A2 JUMPI PUSH2 0x7A1 PUSH2 0x2664 JUMP JUMPDEST JUMPDEST PUSH1 0x5 DUP2 GT ISZERO PUSH2 0x7B4 JUMPI PUSH2 0x7B3 PUSH2 0x2664 JUMP JUMPDEST JUMPDEST DUP2 MSTORE PUSH1 0x20 ADD PUSH1 0x4 DUP3 ADD SLOAD DUP2 MSTORE PUSH1 0x20 ADD PUSH1 0x5 DUP3 ADD PUSH0 SWAP1 SLOAD SWAP1 PUSH2 0x100 EXP SWAP1 DIV PUSH20 0xFFFFFFFFFFFFFFFFFFFFFFFFFFFFFFFFFFFFFFFF AND PUSH20 0xFFFFFFFFFFFFFFFFFFFFFFFFFFFFFFFFFFFFFFFF AND PUSH20 0xFFFFFFFFFFFFFFFFFFFFFFFFFFFFFFFFFFFFFFFF AND DUP2 MSTORE PUSH1 0x20 ADD PUSH1 0x5 DUP3 ADD PUSH1 0x14 SWAP1 SLOAD SWAP1 PUSH2 0x100 EXP SWAP1 DIV PUSH1 0xFF AND ISZERO ISZERO ISZERO ISZERO DUP2 MSTORE PUSH1 0x20 ADD PUSH1 0x6 DUP3 ADD DUP1 SLOAD PUSH2 0x842 SWAP1 PUSH2 0x304C JUMP JUMPDEST DUP1 PUSH1 0x1F ADD PUSH1 0x20 DUP1 SWAP2 DIV MUL PUSH1 0x20 ADD PUSH1 0x40 MLOAD SWAP1 DUP2 ADD PUSH1 0x40 MSTORE DUP1 SWAP3 SWAP2 SWAP1 DUP2 DUP2 MSTORE PUSH1 0x20 ADD DUP3 DUP1 SLOAD PUSH2 0x86E SWAP1 PUSH2 0x304C JUMP JUMPDEST DUP1 ISZERO PUSH2 0x8B9 JUMPI DUP1 PUSH1 0x1F LT PUSH2 0x890 JUMPI PUSH2 0x100 DUP1 DUP4 SLOAD DIV MUL DUP4 MSTORE SWAP2 PUSH1 0x20 ADD SWAP2 PUSH2 0x8B9 JUMP JUMPDEST DUP3 ADD SWAP2 SWAP1 PUSH0 MSTORE PUSH1 0x20 PUSH0 KECCAK256 SWAP1 JUMPDEST DUP2 SLOAD DUP2 MSTORE SWAP1 PUSH1 0x1 ADD SWAP1 PUSH1 0x20 ADD DUP1 DUP4 GT PUSH2 0x89C JUMPI DUP3 SWAP1 SUB PUSH1 0x1F AND DUP3 ADD SWAP2 JUMPDEST POP POP POP POP POP DUP2 MSTORE PUSH1 0x20 ADD PUSH1 0x7 DUP3 ADD SLOAD DUP2 MSTORE POP POP SWAP3 POP POP POP SWAP2 SWAP1 POP JUMP JUMPDEST DUP1 CALLER PUSH20 0xFFFFFFFFFFFFFFFFFFFFFFFFFFFFFFFFFFFFFFFF AND PUSH1 0x1 PUSH0 DUP4 DUP2 MSTORE PUSH1 0x20 ADD SWAP1 DUP2 MSTORE PUSH1 0x20 ADD PUSH0 KECCAK256 PUSH1 0x1 ADD PUSH0 SWAP1 SLOAD SWAP1 PUSH2 0x100 EXP SWAP1 DIV PUSH20 0xFFFFFFFFFFFFFFFFFFFFFFFFFFFFFFFFFFFFFFFF AND PUSH20 0xFFFFFFFFFFFFFFFFFFFFFFFFFFFFFFFFFFFFFFFF AND EQ PUSH2 0x977 JUMPI PUSH1 0x40 MLOAD PUSH32 0x8C379A000000000000000000000000000000000000000000000000000000000 DUP2 MSTORE PUSH1 0x4 ADD PUSH2 0x96E SWAP1 PUSH2 0x3001 JUMP JUMPDEST PUSH1 0x40 MLOAD DUP1 SWAP2 SUB SWAP1 REVERT JUMPDEST DUP2 PUSH0 DUP2 GT DUP1 ISZERO PUSH2 0x989 JUMPI POP PUSH1 0x5 SLOAD DUP2 GT ISZERO JUMPDEST PUSH2 0x9C8 JUMPI PUSH1 0x40 MLOAD PUSH32 0x8C379A000000000000000000000000000000000000000000000000000000000 DUP2 MSTORE PUSH1 0x4 ADD PUSH2 0x9BF SWAP1 PUSH2 0x30C6 JUMP JUMPDEST PUSH1 0x40 MLOAD DUP1 SWAP2 SUB SWAP1 REVERT JUMPDEST PUSH1 0x1 PUSH0 DUP3 DUP2 MSTORE PUSH1 0x20 ADD SWAP1 DUP2 MSTORE PUSH1 0x20 ADD PUSH0 KECCAK256 PUSH1 0x5 ADD PUSH1 0x14 SWAP1 SLOAD SWAP1 PUSH2 0x100 EXP SWAP1 DIV PUSH1 0xFF AND PUSH2 0xA29 JUMPI PUSH1 0x40 MLOAD PUSH32 0x8C379A000000000000000000000000000000000000000000000000000000000 DUP2 MSTORE PUSH1 0x4 ADD PUSH2 0xA20 SWAP1 PUSH2 0x312E JUMP JUMPDEST PUSH1 0x40 MLOAD DUP1 SWAP2 SUB SWAP1 REVERT JUMPDEST PUSH0 PUSH1 0x1 PUSH0 DUP6 DUP2 MSTORE PUSH1 0x20 ADD SWAP1 DUP2 MSTORE PUSH1 0x20 ADD PUSH0 KECCAK256 PUSH1 0x5 ADD PUSH1 0x14 PUSH2 0x100 EXP DUP2 SLOAD DUP2 PUSH1 0xFF MUL NOT AND SWAP1 DUP4 ISZERO ISZERO MUL OR SWAP1 SSTORE POP POP POP POP JUMP JUMPDEST PUSH0 PUSH1 0x5 SLOAD SWAP1 POP SWAP1 JUMP JUMPDEST PUSH0 PUSH0 PUSH20 0xFFFFFFFFFFFFFFFFFFFFFFFFFFFFFFFFFFFFFFFF AND DUP6 PUSH20 0xFFFFFFFFFFFFFFFFFFFFFFFFFFFFFFFFFFFFFFFF AND SUB PUSH2 0xAD2 JUMPI PUSH1 0x40 MLOAD PUSH32 0x8C379A000000000000000000000000000000000000000000000000000000000 DUP2 MSTORE PUSH1 0x4 ADD PUSH2 0xAC9 SWAP1 PUSH2 0x3224 JUMP JUMPDEST PUSH1 0x40 MLOAD DUP1 SWAP2 SUB SWAP1 REVERT JUMPDEST PUSH0 DUP5 MLOAD GT PUSH2 0xB15 JUMPI PUSH1 0x40 MLOAD PUSH32 0x8C379A000000000000000000000000000000000000000000000000000000000 DUP2 MSTORE PUSH1 0x4 ADD PUSH2 0xB0C SWAP1 PUSH2 0x328C JUMP JUMPDEST PUSH1 0x40 MLOAD DUP1 SWAP2 SUB SWAP1 REVERT JUMPDEST PUSH1 0x5 PUSH0 DUP2 SLOAD DUP1 SWAP3 SWAP2 SWAP1 PUSH2 0xB27 SWAP1 PUSH2 0x32D7 JUMP JUMPDEST SWAP2 SWAP1 POP SSTORE POP PUSH1 0x40 MLOAD DUP1 PUSH2 0x120 ADD PUSH1 0x40 MSTORE DUP1 PUSH1 0x5 SLOAD DUP2 MSTORE PUSH1 0x20 ADD DUP7 PUSH20 0xFFFFFFFFFFFFFFFFFFFFFFFFFFFFFFFFFFFFFFFF AND DUP2 MSTORE PUSH1 0x20 ADD DUP6 DUP2 MSTORE PUSH1 0x20 ADD DUP5 PUSH1 0x5 DUP2 GT ISZERO PUSH2 0xB75 JUMPI PUSH2 0xB74 PUSH2 0x2664 JUMP JUMPDEST JUMPDEST DUP2 MSTORE PUSH1 0x20 ADD TIMESTAMP DUP2 MSTORE PUSH1 0x20 ADD CALLER PUSH20 0xFFFFFFFFFFFFFFFFFFFFFFFFFFFFFFFFFFFFFFFF AND DUP2 MSTORE PUSH1 0x20 ADD PUSH1 0x1 ISZERO ISZERO DUP2 MSTORE PUSH1 0x20 ADD DUP4 DUP2 MSTORE PUSH1 0x20 ADD PUSH1 0x1 DUP2 MSTORE POP PUSH1 0x1 PUSH0 PUSH1 0x5 SLOAD DUP2 MSTORE PUSH1 0x20 ADD SWAP1 DUP2 MSTORE PUSH1 0x20 ADD PUSH0 KECCAK256 PUSH0 DUP3 ADD MLOAD DUP2 PUSH0 ADD SSTORE PUSH1 0x20 DUP3 ADD MLOAD DUP2 PUSH1 0x1 ADD PUSH0 PUSH2 0x100 EXP DUP2 SLOAD DUP2 PUSH20 0xFFFFFFFFFFFFFFFFFFFFFFFFFFFFFFFFFFFFFFFF MUL NOT AND SWAP1 DUP4 PUSH20 0xFFFFFFFFFFFFFFFFFFFFFFFFFFFFFFFFFFFFFFFF AND MUL OR SWAP1 SSTORE POP PUSH1 0x40 DUP3 ADD MLOAD DUP2 PUSH1 0x2 ADD SWAP1 DUP2 PUSH2 0xC26 SWAP2 SWAP1 PUSH2 0x34BE JUMP JUMPDEST POP PUSH1 0x60 DUP3 ADD MLOAD DUP2 PUSH1 0x3 ADD PUSH0 PUSH2 0x100 EXP DUP2 SLOAD DUP2 PUSH1 0xFF MUL NOT AND SWAP1 DUP4 PUSH1 0x5 DUP2 GT ISZERO PUSH2 0xC51 JUMPI PUSH2 0xC50 PUSH2 0x2664 JUMP JUMPDEST JUMPDEST MUL OR SWAP1 SSTORE POP PUSH1 0x80 DUP3 ADD MLOAD DUP2 PUSH1 0x4 ADD SSTORE PUSH1 0xA0 DUP3 ADD MLOAD DUP2 PUSH1 0x5 ADD PUSH0 PUSH2 0x100 EXP DUP2 SLOAD DUP2 PUSH20 0xFFFFFFFFFFFFFFFFFFFFFFFFFFFFFFFFFFFFFFFF MUL NOT AND SWAP1 DUP4 PUSH20 0xFFFFFFFFFFFFFFFFFFFFFFFFFFFFFFFFFFFFFFFF AND MUL OR SWAP1 SSTORE POP PUSH1 0xC0 DUP3 ADD MLOAD DUP2 PUSH1 0x5 ADD PUSH1 0x14 PUSH2 0x100 EXP DUP2 SLOAD DUP2 PUSH1 0xFF MUL NOT AND SWAP1 DUP4 ISZERO ISZERO MUL OR SWAP1 SSTORE POP PUSH1 0xE0 DUP3 ADD MLOAD DUP2 PUSH1 0x6 ADD SWAP1 DUP2 PUSH2 0xCDB SWAP2 SWAP1 PUSH2 0x34BE JUMP JUMPDEST POP PUSH2 0x100 DUP3 ADD MLOAD DUP2 PUSH1 0x7 ADD SSTORE SWAP1 POP POP PUSH0 PUSH0 DUP7 PUSH20 0xFFFFFFFFFFFFFFFFFFFFFFFFFFFFFFFFFFFFFFFF AND PUSH20 0xFFFFFFFFFFFFFFFFFFFFFFFFFFFFFFFFFFFFFFFF AND DUP2 MSTORE PUSH1 0x20 ADD SWAP1 DUP2 MSTORE PUSH1 0x20 ADD PUSH0 KECCAK256 PUSH1 0x5 SLOAD SWAP1 DUP1 PUSH1 0x1 DUP2 SLOAD ADD DUP1 DUP3 SSTORE DUP1 SWAP2 POP POP PUSH1 0x1 SWAP1 SUB SWAP1 PUSH0 MSTORE PUSH1 0x20 PUSH0 KECCAK256 ADD PUSH0 SWAP1 SWAP2 SWAP1 SWAP2 SWAP1 SWAP2 POP SSTORE DUP5 PUSH20 0xFFFFFFFFFFFFFFFFFFFFFFFFFFFFFFFFFFFFFFFF AND PUSH1 0x5 SLOAD PUSH32 0x32B3188B62628AABF659CEBBAB10A599B539BCB0C01A891AB2E37B8BE315712E DUP7 DUP7 PUSH1 0x40 MLOAD PUSH2 0xD97 SWAP3 SWAP2 SWAP1 PUSH2 0x35D4 JUMP JUMPDEST PUSH1 0x40 MLOAD DUP1 SWAP2 SUB SWAP1 LOG3 PUSH1 0x5 SLOAD SWAP1 POP SWAP5 SWAP4 POP POP POP POP JUMP JUMPDEST PUSH1 0x60 DUP2 PUSH20 0xFFFFFFFFFFFFFFFFFFFFFFFFFFFFFFFFFFFFFFFF AND CALLER PUSH20 0xFFFFFFFFFFFFFFFFFFFFFFFFFFFFFFFFFFFFFFFF AND EQ DUP1 PUSH2 0xDEE JUMPI POP PUSH2 0xDED DUP3 CALLER PUSH2 0x20CB JUMP JUMPDEST JUMPDEST PUSH2 0xE2D JUMPI PUSH1 0x40 MLOAD PUSH32 0x8C379A000000000000000000000000000000000000000000000000000000000 DUP2 MSTORE PUSH1 0x4 ADD PUSH2 0xE24 SWAP1 PUSH2 0x364C JUMP JUMPDEST PUSH1 0x40 MLOAD DUP1 SWAP2 SUB SWAP1 REVERT JUMPDEST PUSH0 PUSH0 DUP4 PUSH20 0xFFFFFFFFFFFFFFFFFFFFFFFFFFFFFFFFFFFFFFFF AND PUSH20 0xFFFFFFFFFFFFFFFFFFFFFFFFFFFFFFFFFFFFFFFF AND DUP2 MSTORE PUSH1 0x20 ADD SWAP1 DUP2 MSTORE PUSH1 0x20 ADD PUSH0 KECCAK256 DUP1 SLOAD DUP1 PUSH1 0x20 MUL PUSH1 0x20 ADD PUSH1 0x40 MLOAD SWAP1 DUP2 ADD PUSH1 0x40 MSTORE DUP1 SWAP3 SWAP2 SWAP1 DUP2 DUP2 MSTORE PUSH1 0x20 ADD DUP3 DUP1 SLOAD DUP1 ISZERO PUSH2 0xEB1 JUMPI PUSH1 0x20 MUL DUP3 ADD SWAP2 SWAP1 PUSH0 MSTORE PUSH1 0x20 PUSH0 KECCAK256 SWAP1 JUMPDEST DUP2 SLOAD DUP2 MSTORE PUSH1 0x20 ADD SWAP1 PUSH1 0x1 ADD SWAP1 DUP1 DUP4 GT PUSH2 0xE9D JUMPI JUMPDEST POP POP POP POP POP SWAP1 POP SWAP2 SWAP1 POP JUMP JUMPDEST PUSH0 PUSH0 DUP5 MLOAD GT PUSH2 0xF01 JUMPI PUSH1 0x40 MLOAD PUSH32 0x8C379A000000000000000000000000000000000000000000000000000000000 DUP2 MSTORE PUSH1 0x4 ADD PUSH2 0xEF8 SWAP1 PUSH2 0x328C JUMP JUMPDEST PUSH1 0x40 MLOAD DUP1 SWAP2 SUB SWAP1 REVERT JUMPDEST PUSH1 0x5 PUSH0 DUP2 SLOAD DUP1 SWAP3 SWAP2 SWAP1 PUSH2 0xF13 SWAP1 PUSH2 0x32D7 JUMP JUMPDEST SWAP2 SWAP1 POP SSTORE POP PUSH1 0x40 MLOAD DUP1 PUSH2 0x120 ADD PUSH1 0x40 MSTORE DUP1 PUSH1 0x5 SLOAD DUP2 MSTORE PUSH1 0x20 ADD CALLER PUSH20 0xFFFFFFFFFFFFFFFFFFFFFFFFFFFFFFFFFFFFFFFF AND DUP2 MSTORE PUSH1 0x20 ADD DUP6 DUP2 MSTORE PUSH1 0x20 ADD DUP5 PUSH1 0x5 DUP2 GT ISZERO PUSH2 0xF61 JUMPI PUSH2 0xF60 PUSH2 0x2664 JUMP JUMPDEST JUMPDEST DUP2 MSTORE PUSH1 0x20 ADD TIMESTAMP DUP2 MSTORE PUSH1 0x20 ADD CALLER PUSH20 0xFFFFFFFFFFFFFFFFFFFFFFFFFFFFFFFFFFFFFFFF AND DUP2 MSTORE PUSH1 0x20 ADD PUSH1 0x1 ISZERO ISZERO DUP2 MSTORE PUSH1 0x20 ADD DUP4 DUP2 MSTORE PUSH1 0x20 ADD PUSH1 0x1 DUP2 MSTORE POP PUSH1 0x1 PUSH0 PUSH1 0x5 SLOAD DUP2 MSTORE PUSH1 0x20 ADD SWAP1 DUP2 MSTORE PUSH1 0x20 ADD PUSH0 KECCAK256 PUSH0 DUP3 ADD MLOAD DUP2 PUSH0 ADD SSTORE PUSH1 0x20 DUP3 ADD MLOAD DUP2 PUSH1 0x1 ADD PUSH0 PUSH2 0x100 EXP DUP2 SLOAD DUP2 PUSH20 0xFFFFFFFFFFFFFFFFFFFFFFFFFFFFFFFFFFFFFFFF MUL NOT AND SWAP1 DUP4 PUSH20 0xFFFFFFFFFFFFFFFFFFFFFFFFFFFFFFFFFFFFFFFF AND MUL OR SWAP1 SSTORE POP PUSH1 0x40 DUP3 ADD MLOAD DUP2 PUSH1 0x2 ADD SWAP1 DUP2 PUSH2 0x1012 SWAP2 SWAP1 PUSH2 0x34BE JUMP JUMPDEST POP PUSH1 0x60 DUP3 ADD MLOAD DUP2 PUSH1 0x3 ADD PUSH0 PUSH2 0x100 EXP DUP2 SLOAD DUP2 PUSH1 0xFF MUL NOT AND SWAP1 DUP4 PUSH1 0x5 DUP2 GT ISZERO PUSH2 0x103D JUMPI PUSH2 0x103C PUSH2 0x2664 JUMP JUMPDEST JUMPDEST MUL OR SWAP1 SSTORE POP PUSH1 0x80 DUP3 ADD MLOAD DUP2 PUSH1 0x4 ADD SSTORE PUSH1 0xA0 DUP3 ADD MLOAD DUP2 PUSH1 0x5 ADD PUSH0 PUSH2 0x100 EXP DUP2 SLOAD DUP2 PUSH20 0xFFFFFFFFFFFFFFFFFFFFFFFFFFFFFFFFFFFFFFFF MUL NOT AND SWAP1 DUP4 PUSH20 0xFFFFFFFFFFFFFFFFFFFFFFFFFFFFFFFFFFFFFFFF AND MUL OR SWAP1 SSTORE POP PUSH1 0xC0 DUP3 ADD MLOAD DUP2 PUSH1 0x5 ADD PUSH1 0x14 PUSH2 0x100 EXP DUP2 SLOAD DUP2 PUSH1 0xFF MUL NOT AND SWAP1 DUP4 ISZERO ISZERO MUL OR SWAP1 SSTORE POP PUSH1 0xE0 DUP3 ADD MLOAD DUP2 PUSH1 0x6 ADD SWAP1 DUP2 PUSH2 0x10C7 SWAP2 SWAP1 PUSH2 0x34BE JUMP JUMPDEST POP PUSH2 0x100 DUP3 ADD MLOAD DUP2 PUSH1 0x7 ADD SSTORE SWAP1 POP POP PUSH0 PUSH0 CALLER PUSH20 0xFFFFFFFFFFFFFFFFFFFFFFFFFFFFFFFFFFFFFFFF AND PUSH20 0xFFFFFFFFFFFFFFFFFFFFFFFFFFFFFFFFFFFFFFFF AND DUP2 MSTORE PUSH1 0x20 ADD SWAP1 DUP2 MSTORE PUSH1 0x20 ADD PUSH0 KECCAK256 PUSH1 0x5 SLOAD SWAP1 DUP1 PUSH1 0x1 DUP2 SLOAD ADD DUP1 DUP3 SSTORE DUP1 SWAP2 POP POP PUSH1 0x1 SWAP1 SUB SWAP1 PUSH0 MSTORE PUSH1 0x20 PUSH0 KECCAK256 ADD PUSH0 SWAP1 SWAP2 SWAP1 SWAP2 SWAP1 SWAP2 POP SSTORE CALLER PUSH20 0xFFFFFFFFFFFFFFFFFFFFFFFFFFFFFFFFFFFFFFFF AND PUSH1 0x5 SLOAD PUSH32 0x32B3188B62628AABF659CEBBAB10A599B539BCB0C01A891AB2E37B8BE315712E DUP7 DUP7 PUSH1 0x40 MLOAD PUSH2 0x1183 SWAP3 SWAP2 SWAP1 PUSH2 0x35D4 JUMP JUMPDEST PUSH1 0x40 MLOAD DUP1 SWAP2 SUB SWAP1 LOG3 PUSH1 0x5 SLOAD SWAP1 POP SWAP4 SWAP3 POP POP POP JUMP JUMPDEST DUP3 CALLER PUSH20 0xFFFFFFFFFFFFFFFFFFFFFFFFFFFFFFFFFFFFFFFF AND PUSH1 0x1 PUSH0 DUP4 DUP2 MSTORE PUSH1 0x20 ADD SWAP1 DUP2 MSTORE PUSH1 0x20 ADD PUSH0 KECCAK256 PUSH1 0x1 ADD PUSH0 SWAP1 SLOAD SWAP1 PUSH2 0x100 EXP SWAP1 DIV PUSH20 0xFFFFFFFFFFFFFFFFFFFFFFFFFFFFFFFFFFFFFFFF AND PUSH20 0xFFFFFFFFFFFFFFFFFFFFFFFFFFFFFFFFFFFFFFFF AND EQ PUSH2 0x1239 JUMPI PUSH1 0x40 MLOAD PUSH32 0x8C379A000000000000000000000000000000000000000000000000000000000 DUP2 MSTORE PUSH1 0x4 ADD PUSH2 0x1230 SWAP1 PUSH2 0x3001 JUMP JUMPDEST PUSH1 0x40 MLOAD DUP1 SWAP2 SUB SWAP1 REVERT JUMPDEST DUP4 PUSH0 DUP2 GT DUP1 ISZERO PUSH2 0x124B JUMPI POP PUSH1 0x5 SLOAD DUP2 GT ISZERO JUMPDEST PUSH2 0x128A JUMPI PUSH1 0x40 MLOAD PUSH32 0x8C379A000000000000000000000000000000000000000000000000000000000 DUP2 MSTORE PUSH1 0x4 ADD PUSH2 0x1281 SWAP1 PUSH2 0x30C6 JUMP JUMPDEST PUSH1 0x40 MLOAD DUP1 SWAP2 SUB SWAP1 REVERT JUMPDEST PUSH1 0x1 PUSH0 DUP3 DUP2 MSTORE PUSH1 0x20 ADD SWAP1 DUP2 MSTORE PUSH1 0x20 ADD PUSH0 KECCAK256 PUSH1 0x5 ADD PUSH1 0x14 SWAP1 SLOAD SWAP1 PUSH2 0x100 EXP SWAP1 DIV PUSH1 0xFF AND PUSH2 0x12EB JUMPI PUSH1 0x40 MLOAD PUSH32 0x8C379A000000000000000000000000000000000000000000000000000000000 DUP2 MSTORE PUSH1 0x4 ADD PUSH2 0x12E2 SWAP1 PUSH2 0x312E JUMP JUMPDEST PUSH1 0x40 MLOAD DUP1 SWAP2 SUB SWAP1 REVERT JUMPDEST PUSH0 PUSH1 0x1 PUSH0 DUP8 DUP2 MSTORE PUSH1 0x20 ADD SWAP1 DUP2 MSTORE PUSH1 0x20 ADD PUSH0 KECCAK256 SWAP1 POP DUP5 DUP2 PUSH1 0x2 ADD SWAP1 DUP2 PUSH2 0x1310 SWAP2 SWAP1 PUSH2 0x34BE JUMP JUMPDEST POP DUP4 DUP2 PUSH1 0x6 ADD SWAP1 DUP2 PUSH2 0x1322 SWAP2 SWAP1 PUSH2 0x34BE JUMP JUMPDEST POP DUP1 PUSH1 0x7 ADD PUSH0 DUP2 SLOAD DUP1 SWAP3 SWAP2 SWAP1 PUSH2 0x1337 SWAP1 PUSH2 0x32D7 JUMP JUMPDEST SWAP2 SWAP1 POP SSTORE POP DUP6 PUSH32 0x88D9E16504277BF999412471E756EEDF1AB2491C6A6399C9D349D3FEA6D70CF DUP7 DUP4 PUSH1 0x7 ADD SLOAD PUSH1 0x40 MLOAD PUSH2 0x1372 SWAP3 SWAP2 SWAP1 PUSH2 0x366A JUMP JUMPDEST PUSH1 0x40 MLOAD DUP1 SWAP2 SUB SWAP1 LOG2 POP POP POP POP POP POP JUMP JUMPDEST DUP2 PUSH0 DUP2 GT DUP1 ISZERO PUSH2 0x1394 JUMPI POP PUSH1 0x5 SLOAD DUP2 GT ISZERO JUMPDEST PUSH2 0x13D3 JUMPI PUSH1 0x40 MLOAD PUSH32 0x8C379A000000000000000000000000000000000000000000000000000000000 DUP2 MSTORE PUSH1 0x4 ADD PUSH2 0x13CA SWAP1 PUSH2 0x30C6 JUMP JUMPDEST PUSH1 0x40 MLOAD DUP1 SWAP2 SUB SWAP1 REVERT JUMPDEST PUSH1 0x1 PUSH0 DUP3 DUP2 MSTORE PUSH1 0x20 ADD SWAP1 DUP2 MSTORE PUSH1 0x20 ADD PUSH0 KECCAK256 PUSH1 0x5 ADD PUSH1 0x14 SWAP1 SLOAD SWAP1 PUSH2 0x100 EXP SWAP1 DIV PUSH1 0xFF AND PUSH2 0x1434 JUMPI PUSH1 0x40 MLOAD PUSH32 0x8C379A000000000000000000000000000000000000000000000000000000000 DUP2 MSTORE PUSH1 0x4 ADD PUSH2 0x142B SWAP1 PUSH2 0x312E JUMP JUMPDEST PUSH1 0x40 MLOAD DUP1 SWAP2 SUB SWAP1 REVERT JUMPDEST DUP3 PUSH2 0x1473 PUSH1 0x1 PUSH0 DUP4 DUP2 MSTORE PUSH1 0x20 ADD SWAP1 DUP2 MSTORE PUSH1 0x20 ADD PUSH0 KECCAK256 PUSH1 0x1 ADD PUSH0 SWAP1 SLOAD SWAP1 PUSH2 0x100 EXP SWAP1 DIV PUSH20 0xFFFFFFFFFFFFFFFFFFFFFFFFFFFFFFFFFFFFFFFF AND CALLER DUP4 PUSH2 0x1E15 JUMP JUMPDEST PUSH2 0x14B2 JUMPI PUSH1 0x40 MLOAD PUSH32 0x8C379A000000000000000000000000000000000000000000000000000000000 DUP2 MSTORE PUSH1 0x4 ADD PUSH2 0x14A9 SWAP1 PUSH2 0x31BC JUMP JUMPDEST PUSH1 0x40 MLOAD DUP1 SWAP2 SUB SWAP1 REVERT JUMPDEST PUSH1 0x3 PUSH0 DUP6 DUP2 MSTORE PUSH1 0x20 ADD SWAP1 DUP2 MSTORE PUSH1 0x20 ADD PUSH0 KECCAK256 PUSH1 0x40 MLOAD DUP1 PUSH1 0x60 ADD PUSH1 0x40 MSTORE DUP1 CALLER PUSH20 0xFFFFFFFFFFFFFFFFFFFFFFFFFFFFFFFFFFFFFFFF AND DUP2 MSTORE PUSH1 0x20 ADD TIMESTAMP DUP2 MSTORE PUSH1 0x20 ADD DUP6 DUP2 MSTORE POP SWAP1 DUP1 PUSH1 0x1 DUP2 SLOAD ADD DUP1 DUP3 SSTORE DUP1 SWAP2 POP POP PUSH1 0x1 SWAP1 SUB SWAP1 PUSH0 MSTORE PUSH1 0x20 PUSH0 KECCAK256 SWAP1 PUSH1 0x3 MUL ADD PUSH0 SWAP1 SWAP2 SWAP1 SWAP2 SWAP1 SWAP2 POP PUSH0 DUP3 ADD MLOAD DUP2 PUSH0 ADD PUSH0 PUSH2 0x100 EXP DUP2 SLOAD DUP2 PUSH20 0xFFFFFFFFFFFFFFFFFFFFFFFFFFFFFFFFFFFFFFFF MUL NOT AND SWAP1 DUP4 PUSH20 0xFFFFFFFFFFFFFFFFFFFFFFFFFFFFFFFFFFFFFFFF AND MUL OR SWAP1 SSTORE POP PUSH1 0x20 DUP3 ADD MLOAD DUP2 PUSH1 0x1 ADD SSTORE PUSH1 0x40 DUP3 ADD MLOAD DUP2 PUSH1 0x2 ADD SWAP1 DUP2 PUSH2 0x157D SWAP2 SWAP1 PUSH2 0x34BE JUMP JUMPDEST POP POP POP CALLER PUSH20 0xFFFFFFFFFFFFFFFFFFFFFFFFFFFFFFFFFFFFFFFF AND DUP5 PUSH32 0xDEC39EB35DC9CA96737E4515F8A70F5DB122E248213EE947B996E1F678AB05B8 TIMESTAMP PUSH1 0x40 MLOAD PUSH2 0x15C7 SWAP2 SWAP1 PUSH2 0x27E9 JUMP JUMPDEST PUSH1 0x40 MLOAD DUP1 SWAP2 SUB SWAP1 LOG3 POP POP POP POP JUMP JUMPDEST PUSH1 0x2 PUSH0 CALLER PUSH20 0xFFFFFFFFFFFFFFFFFFFFFFFFFFFFFFFFFFFFFFFF AND PUSH20 0xFFFFFFFFFFFFFFFFFFFFFFFFFFFFFFFFFFFFFFFF AND DUP2 MSTORE PUSH1 0x20 ADD SWAP1 DUP2 MSTORE PUSH1 0x20 ADD PUSH0 KECCAK256 PUSH0 DUP3 PUSH20 0xFFFFFFFFFFFFFFFFFFFFFFFFFFFFFFFFFFFFFFFF AND PUSH20 0xFFFFFFFFFFFFFFFFFFFFFFFFFFFFFFFFFFFFFFFF AND DUP2 MSTORE PUSH1 0x20 ADD SWAP1 DUP2 MSTORE PUSH1 0x20 ADD PUSH0 KECCAK256 PUSH1 0x3 ADD PUSH0 SWAP1 SLOAD SWAP1 PUSH2 0x100 EXP SWAP1 DIV PUSH1 0xFF AND PUSH2 0x169C JUMPI PUSH1 0x40 MLOAD PUSH32 0x8C379A000000000000000000000000000000000000000000000000000000000 DUP2 MSTORE PUSH1 0x4 ADD PUSH2 0x1693 SWAP1 PUSH2 0x36E2 JUMP JUMPDEST PUSH1 0x40 MLOAD DUP1 SWAP2 SUB SWAP1 REVERT JUMPDEST PUSH0 PUSH1 0x2 PUSH0 CALLER PUSH20 0xFFFFFFFFFFFFFFFFFFFFFFFFFFFFFFFFFFFFFFFF AND PUSH20 0xFFFFFFFFFFFFFFFFFFFFFFFFFFFFFFFFFFFFFFFF AND DUP2 MSTORE PUSH1 0x20 ADD SWAP1 DUP2 MSTORE PUSH1 0x20 ADD PUSH0 KECCAK256 PUSH0 DUP4 PUSH20 0xFFFFFFFFFFFFFFFFFFFFFFFFFFFFFFFFFFFFFFFF AND PUSH20 0xFFFFFFFFFFFFFFFFFFFFFFFFFFFFFFFFFFFFFFFF AND DUP2 MSTORE PUSH1 0x20 ADD SWAP1 DUP2 MSTORE PUSH1 0x20 ADD PUSH0 KECCAK256 PUSH1 0x3 ADD PUSH0 PUSH2 0x100 EXP DUP2 SLOAD DUP2 PUSH1 0xFF MUL NOT AND SWAP1 DUP4 ISZERO ISZERO MUL OR SWAP1 SSTORE POP DUP1 PUSH20 0xFFFFFFFFFFFFFFFFFFFFFFFFFFFFFFFFFFFFFFFF AND CALLER PUSH20 0xFFFFFFFFFFFFFFFFFFFFFFFFFFFFFFFFFFFFFFFF AND PUSH32 0x825C8BE24EB0DF19500F63E86C29E7D0D951E73056B889B891D85E40938D9B6E PUSH1 0x40 MLOAD PUSH1 0x40 MLOAD DUP1 SWAP2 SUB SWAP1 LOG3 POP JUMP JUMPDEST PUSH2 0x1793 PUSH2 0x2366 JUMP JUMPDEST DUP3 PUSH20 0xFFFFFFFFFFFFFFFFFFFFFFFFFFFFFFFFFFFFFFFF AND CALLER PUSH20 0xFFFFFFFFFFFFFFFFFFFFFFFFFFFFFFFFFFFFFFFF AND EQ DUP1 PUSH2 0x17F8 JUMPI POP DUP2 PUSH20 0xFFFFFFFFFFFFFFFFFFFFFFFFFFFFFFFFFFFFFFFF AND CALLER PUSH20 0xFFFFFFFFFFFFFFFFFFFFFFFFFFFFFFFFFFFFFFFF AND EQ JUMPDEST PUSH2 0x1837 JUMPI PUSH1 0x40 MLOAD PUSH32 0x8C379A000000000000000000000000000000000000000000000000000000000 DUP2 MSTORE PUSH1 0x4 ADD PUSH2 0x182E SWAP1 PUSH2 0x364C JUMP JUMPDEST PUSH1 0x40 MLOAD DUP1 SWAP2 SUB SWAP1 REVERT JUMPDEST PUSH1 0x2 PUSH0 DUP5 PUSH20 0xFFFFFFFFFFFFFFFFFFFFFFFFFFFFFFFFFFFFFFFF AND PUSH20 0xFFFFFFFFFFFFFFFFFFFFFFFFFFFFFFFFFFFFFFFF AND DUP2 MSTORE PUSH1 0x20 ADD SWAP1 DUP2 MSTORE PUSH1 0x20 ADD PUSH0 KECCAK256 PUSH0 DUP4 PUSH20 0xFFFFFFFFFFFFFFFFFFFFFFFFFFFFFFFFFFFFFFFF AND PUSH20 0xFFFFFFFFFFFFFFFFFFFFFFFFFFFFFFFFFFFFFFFF AND DUP2 MSTORE PUSH1 0x20 ADD SWAP1 DUP2 MSTORE PUSH1 0x20 ADD PUSH0 KECCAK256 PUSH1 0x40 MLOAD DUP1 PUSH1 0xA0 ADD PUSH1 0x40 MSTORE SWAP1 DUP2 PUSH0 DUP3 ADD PUSH0 SWAP1 SLOAD SWAP1 PUSH2 0x100 EXP SWAP1 DIV PUSH20 0xFFFFFFFFFFFFFFFFFFFFFFFFFFFFFFFFFFFFFFFF AND PUSH20 0xFFFFFFFFFFFFFFFFFFFFFFFFFFFFFFFFFFFFFFFF AND PUSH20 0xFFFFFFFFFFFFFFFFFFFFFFFFFFFFFFFFFFFFFFFF AND DUP2 MSTORE PUSH1 0x20 ADD PUSH1 0x1 DUP3 ADD DUP1 SLOAD DUP1 PUSH1 0x20 MUL PUSH1 0x20 ADD PUSH1 0x40 MLOAD SWAP1 DUP2 ADD PUSH1 0x40 MSTORE DUP1 SWAP3 SWAP2 SWAP1 DUP2 DUP2 MSTORE PUSH1 0x20 ADD DUP3 DUP1 SLOAD DUP1 ISZERO PUSH2 0x195B JUMPI PUSH1 0x20 MUL DUP3 ADD SWAP2 SWAP1 PUSH0 MSTORE PUSH1 0x20 PUSH0 KECCAK256 SWAP1 JUMPDEST DUP2 SLOAD DUP2 MSTORE PUSH1 0x20 ADD SWAP1 PUSH1 0x1 ADD SWAP1 DUP1 DUP4 GT PUSH2 0x1947 JUMPI JUMPDEST POP POP POP POP POP DUP2 MSTORE PUSH1 0x20 ADD PUSH1 0x2 DUP3 ADD SLOAD DUP2 MSTORE PUSH1 0x20 ADD PUSH1 0x3 DUP3 ADD PUSH0 SWAP1 SLOAD SWAP1 PUSH2 0x100 EXP SWAP1 DIV PUSH1 0xFF AND ISZERO ISZERO ISZERO ISZERO DUP2 MSTORE PUSH1 0x20 ADD PUSH1 0x4 DUP3 ADD SLOAD DUP2 MSTORE POP POP SWAP1 POP SWAP3 SWAP2 POP POP JUMP JUMPDEST PUSH0 PUSH20 0xFFFFFFFFFFFFFFFFFFFFFFFFFFFFFFFFFFFFFFFF AND DUP2 PUSH20 0xFFFFFFFFFFFFFFFFFFFFFFFFFFFFFFFFFFFFFFFF AND SUB PUSH2 0x1A08 JUMPI PUSH1 0x40 MLOAD PUSH32 0x8C379A000000000000000000000000000000000000000000000000000000000 DUP2 MSTORE PUSH1 0x4 ADD PUSH2 0x19FF SWAP1 PUSH2 0x374A JUMP JUMPDEST PUSH1 0x40 MLOAD DUP1 SWAP2 SUB SWAP1 REVERT JUMPDEST DUP1 PUSH1 0x4 PUSH0 CALLER PUSH20 0xFFFFFFFFFFFFFFFFFFFFFFFFFFFFFFFFFFFFFFFF AND PUSH20 0xFFFFFFFFFFFFFFFFFFFFFFFFFFFFFFFFFFFFFFFF AND DUP2 MSTORE PUSH1 0x20 ADD SWAP1 DUP2 MSTORE PUSH1 0x20 ADD PUSH0 KECCAK256 PUSH0 PUSH2 0x100 EXP DUP2 SLOAD DUP2 PUSH20 0xFFFFFFFFFFFFFFFFFFFFFFFFFFFFFFFFFFFFFFFF MUL NOT AND SWAP1 DUP4 PUSH20 0xFFFFFFFFFFFFFFFFFFFFFFFFFFFFFFFFFFFFFFFF AND MUL OR SWAP1 SSTORE POP POP JUMP JUMPDEST PUSH0 PUSH20 0xFFFFFFFFFFFFFFFFFFFFFFFFFFFFFFFFFFFFFFFF AND DUP4 PUSH20 0xFFFFFFFFFFFFFFFFFFFFFFFFFFFFFFFFFFFFFFFF AND SUB PUSH2 0x1AF4 JUMPI PUSH1 0x40 MLOAD PUSH32 0x8C379A000000000000000000000000000000000000000000000000000000000 DUP2 MSTORE PUSH1 0x4 ADD PUSH2 0x1AEB SWAP1 PUSH2 0x374A JUMP JUMPDEST PUSH1 0x40 MLOAD DUP1 SWAP2 SUB SWAP1 REVERT JUMPDEST PUSH0 DUP3 MLOAD GT PUSH2 0x1B37 JUMPI PUSH1 0x40 MLOAD PUSH32 0x8C379A000000000000000000000000000000000000000000000000000000000 DUP2 MSTORE PUSH1 0x4 ADD PUSH2 0x1B2E SWAP1 PUSH2 0x37D8 JUMP JUMPDEST PUSH1 0x40 MLOAD DUP1 SWAP2 SUB SWAP1 REVERT JUMPDEST PUSH0 PUSH0 SWAP1 POP JUMPDEST DUP3 MLOAD DUP2 LT ISZERO PUSH2 0x1C0D JUMPI CALLER PUSH20 0xFFFFFFFFFFFFFFFFFFFFFFFFFFFFFFFFFFFFFFFF AND PUSH1 0x1 PUSH0 DUP6 DUP5 DUP2 MLOAD DUP2 LT PUSH2 0x1B72 JUMPI PUSH2 0x1B71 PUSH2 0x37F6 JUMP JUMPDEST JUMPDEST PUSH1 0x20 MUL PUSH1 0x20 ADD ADD MLOAD DUP2 MSTORE PUSH1 0x20 ADD SWAP1 DUP2 MSTORE PUSH1 0x20 ADD PUSH0 KECCAK256 PUSH1 0x1 ADD PUSH0 SWAP1 SLOAD SWAP1 PUSH2 0x100 EXP SWAP1 DIV PUSH20 0xFFFFFFFFFFFFFFFFFFFFFFFFFFFFFFFFFFFFFFFF AND PUSH20 0xFFFFFFFFFFFFFFFFFFFFFFFFFFFFFFFFFFFFFFFF AND EQ PUSH2 0x1C00 JUMPI PUSH1 0x40 MLOAD PUSH32 0x8C379A000000000000000000000000000000000000000000000000000000000 DUP2 MSTORE PUSH1 0x4 ADD PUSH2 0x1BF7 SWAP1 PUSH2 0x3893 JUMP JUMPDEST PUSH1 0x40 MLOAD DUP1 SWAP2 SUB SWAP1 REVERT JUMPDEST DUP1 DUP1 PUSH1 0x1 ADD SWAP2 POP POP PUSH2 0x1B3C JUMP JUMPDEST POP PUSH0 PUSH3 0x15180 DUP3 PUSH2 0x1C1E SWAP2 SWAP1 PUSH2 0x38B1 JUMP JUMPDEST TIMESTAMP PUSH2 0x1C29 SWAP2 SWAP1 PUSH2 0x38F2 JUMP JUMPDEST SWAP1 POP PUSH1 0x40 MLOAD DUP1 PUSH1 0xA0 ADD PUSH1 0x40 MSTORE DUP1 DUP6 PUSH20 0xFFFFFFFFFFFFFFFFFFFFFFFFFFFFFFFFFFFFFFFF AND DUP2 MSTORE PUSH1 0x20 ADD DUP5 DUP2 MSTORE PUSH1 0x20 ADD DUP3 DUP2 MSTORE PUSH1 0x20 ADD PUSH1 0x1 ISZERO ISZERO DUP2 MSTORE PUSH1 0x20 ADD TIMESTAMP DUP2 MSTORE POP PUSH1 0x2 PUSH0 CALLER PUSH20 0xFFFFFFFFFFFFFFFFFFFFFFFFFFFFFFFFFFFFFFFF AND PUSH20 0xFFFFFFFFFFFFFFFFFFFFFFFFFFFFFFFFFFFFFFFF AND DUP2 MSTORE PUSH1 0x20 ADD SWAP1 DUP2 MSTORE PUSH1 0x20 ADD PUSH0 KECCAK256 PUSH0 DUP7 PUSH20 0xFFFFFFFFFFFFFFFFFFFFFFFFFFFFFFFFFFFFFFFF AND PUSH20 0xFFFFFFFFFFFFFFFFFFFFFFFFFFFFFFFFFFFFFFFF AND DUP2 MSTORE PUSH1 0x20 ADD SWAP1 DUP2 MSTORE PUSH1 0x20 ADD PUSH0 KECCAK256 PUSH0 DUP3 ADD MLOAD DUP2 PUSH0 ADD PUSH0 PUSH2 0x100 EXP DUP2 SLOAD DUP2 PUSH20 0xFFFFFFFFFFFFFFFFFFFFFFFFFFFFFFFFFFFFFFFF MUL NOT AND SWAP1 DUP4 PUSH20 0xFFFFFFFFFFFFFFFFFFFFFFFFFFFFFFFFFFFFFFFF AND MUL OR SWAP1 SSTORE POP PUSH1 0x20 DUP3 ADD MLOAD DUP2 PUSH1 0x1 ADD SWAP1 DUP1 MLOAD SWAP1 PUSH1 0x20 ADD SWAP1 PUSH2 0x1D43 SWAP3 SWAP2 SWAP1 PUSH2 0x23A9 JUMP JUMPDEST POP PUSH1 0x40 DUP3 ADD MLOAD DUP2 PUSH1 0x2 ADD SSTORE PUSH1 0x60 DUP3 ADD MLOAD DUP2 PUSH1 0x3 ADD PUSH0 PUSH2 0x100 EXP DUP2 SLOAD DUP2 PUSH1 0xFF MUL NOT AND SWAP1 DUP4 ISZERO ISZERO MUL OR SWAP1 SSTORE POP PUSH1 0x80 DUP3 ADD MLOAD DUP2 PUSH1 0x4 ADD SSTORE SWAP1 POP POP DUP4 PUSH20 0xFFFFFFFFFFFFFFFFFFFFFFFFFFFFFFFFFFFFFFFF AND CALLER PUSH20 0xFFFFFFFFFFFFFFFFFFFFFFFFFFFFFFFFFFFFFFFF AND PUSH32 0x65D0CC1E52D49938CA4AD9F423C79C1B84D914B9A683FBC5D3F93AC3CC5635F5 DUP4 PUSH1 0x40 MLOAD PUSH2 0x1DD7 SWAP2 SWAP1 PUSH2 0x27E9 JUMP JUMPDEST PUSH1 0x40 MLOAD DUP1 SWAP2 SUB SWAP1 LOG3 POP POP POP POP JUMP JUMPDEST PUSH1 0x4 PUSH1 0x20 MSTORE DUP1 PUSH0 MSTORE PUSH1 0x40 PUSH0 KECCAK256 PUSH0 SWAP2 POP SLOAD SWAP1 PUSH2 0x100 EXP SWAP1 DIV PUSH20 0xFFFFFFFFFFFFFFFFFFFFFFFFFFFFFFFFFFFFFFFF AND DUP2 JUMP JUMPDEST PUSH0 DUP3 PUSH20 0xFFFFFFFFFFFFFFFFFFFFFFFFFFFFFFFFFFFFFFFF AND DUP5 PUSH20 0xFFFFFFFFFFFFFFFFFFFFFFFFFFFFFFFFFFFFFFFF AND SUB PUSH2 0x1E52 JUMPI PUSH1 0x1 SWAP1 POP PUSH2 0x20C4 JUMP JUMPDEST DUP3 PUSH20 0xFFFFFFFFFFFFFFFFFFFFFFFFFFFFFFFFFFFFFFFF AND PUSH1 0x4 PUSH0 DUP7 PUSH20 0xFFFFFFFFFFFFFFFFFFFFFFFFFFFFFFFFFFFFFFFF AND PUSH20 0xFFFFFFFFFFFFFFFFFFFFFFFFFFFFFFFFFFFFFFFF AND DUP2 MSTORE PUSH1 0x20 ADD SWAP1 DUP2 MSTORE PUSH1 0x20 ADD PUSH0 KECCAK256 PUSH0 SWAP1 SLOAD SWAP1 PUSH2 0x100 EXP SWAP1 DIV PUSH20 0xFFFFFFFFFFFFFFFFFFFFFFFFFFFFFFFFFFFFFFFF AND PUSH20 0xFFFFFFFFFFFFFFFFFFFFFFFFFFFFFFFFFFFFFFFF AND SUB PUSH2 0x1EEA JUMPI PUSH1 0x1 SWAP1 POP PUSH2 0x20C4 JUMP JUMPDEST PUSH0 PUSH1 0x2 PUSH0 DUP7 PUSH20 0xFFFFFFFFFFFFFFFFFFFFFFFFFFFFFFFFFFFFFFFF AND PUSH20 0xFFFFFFFFFFFFFFFFFFFFFFFFFFFFFFFFFFFFFFFF AND DUP2 MSTORE PUSH1 0x20 ADD SWAP1 DUP2 MSTORE PUSH1 0x20 ADD PUSH0 KECCAK256 PUSH0 DUP6 PUSH20 0xFFFFFFFFFFFFFFFFFFFFFFFFFFFFFFFFFFFFFFFF AND PUSH20 0xFFFFFFFFFFFFFFFFFFFFFFFFFFFFFFFFFFFFFFFF AND DUP2 MSTORE PUSH1 0x20 ADD SWAP1 DUP2 MSTORE PUSH1 0x20 ADD PUSH0 KECCAK256 PUSH1 0x40 MLOAD DUP1 PUSH1 0xA0 ADD PUSH1 0x40 MSTORE SWAP1 DUP2 PUSH0 DUP3 ADD PUSH0 SWAP1 SLOAD SWAP1 PUSH2 0x100 EXP SWAP1 DIV PUSH20 0xFFFFFFFFFFFFFFFFFFFFFFFFFFFFFFFFFFFFFFFF AND PUSH20 0xFFFFFFFFFFFFFFFFFFFFFFFFFFFFFFFFFFFFFFFF AND PUSH20 0xFFFFFFFFFFFFFFFFFFFFFFFFFFFFFFFFFFFFFFFF AND DUP2 MSTORE PUSH1 0x20 ADD PUSH1 0x1 DUP3 ADD DUP1 SLOAD DUP1 PUSH1 0x20 MUL PUSH1 0x20 ADD PUSH1 0x40 MLOAD SWAP1 DUP2 ADD PUSH1 0x40 MSTORE DUP1 SWAP3 SWAP2 SWAP1 DUP2 DUP2 MSTORE PUSH1 0x20 ADD DUP3 DUP1 SLOAD DUP1 ISZERO PUSH2 0x200F JUMPI PUSH1 0x20 MUL DUP3 ADD SWAP2 SWAP1 PUSH0 MSTORE PUSH1 0x20 PUSH0 KECCAK256 SWAP1 JUMPDEST DUP2 SLOAD DUP2 MSTORE PUSH1 0x20 ADD SWAP1 PUSH1 0x1 ADD SWAP1 DUP1 DUP4 GT PUSH2 0x1FFB JUMPI JUMPDEST POP POP POP POP POP DUP2 MSTORE PUSH1 0x20 ADD PUSH1 0x2 DUP3 ADD SLOAD DUP2 MSTORE PUSH1 0x20 ADD PUSH1 0x3 DUP3 ADD PUSH0 SWAP1 SLOAD SWAP1 PUSH2 0x100 EXP SWAP1 DIV PUSH1 0xFF AND ISZERO ISZERO ISZERO ISZERO DUP2 MSTORE PUSH1 0x20 ADD PUSH1 0x4 DUP3 ADD SLOAD DUP2 MSTORE POP POP SWAP1 POP DUP1 PUSH1 0x60 ADD MLOAD PUSH2 0x205A JUMPI PUSH0 SWAP2 POP POP PUSH2 0x20C4 JUMP JUMPDEST DUP1 PUSH1 0x40 ADD MLOAD TIMESTAMP GT ISZERO PUSH2 0x206F JUMPI PUSH0 SWAP2 POP POP PUSH2 0x20C4 JUMP JUMPDEST PUSH0 PUSH0 SWAP1 POP JUMPDEST DUP2 PUSH1 0x20 ADD MLOAD MLOAD DUP2 LT ISZERO PUSH2 0x20BE JUMPI DUP4 DUP3 PUSH1 0x20 ADD MLOAD DUP3 DUP2 MLOAD DUP2 LT PUSH2 0x2099 JUMPI PUSH2 0x2098 PUSH2 0x37F6 JUMP JUMPDEST JUMPDEST PUSH1 0x20 MUL PUSH1 0x20 ADD ADD MLOAD SUB PUSH2 0x20B1 JUMPI PUSH1 0x1 SWAP3 POP POP POP PUSH2 0x20C4 JUMP JUMPDEST DUP1 DUP1 PUSH1 0x1 ADD SWAP2 POP POP PUSH2 0x2074 JUMP JUMPDEST POP PUSH0 SWAP2 POP POP JUMPDEST SWAP4 SWAP3 POP POP POP JUMP JUMPDEST PUSH0 DUP2 PUSH20 0xFFFFFFFFFFFFFFFFFFFFFFFFFFFFFFFFFFFFFFFF AND PUSH1 0x4 PUSH0 DUP6 PUSH20 0xFFFFFFFFFFFFFFFFFFFFFFFFFFFFFFFFFFFFFFFF AND PUSH20 0xFFFFFFFFFFFFFFFFFFFFFFFFFFFFFFFFFFFFFFFF AND DUP2 MSTORE PUSH1 0x20 ADD SWAP1 DUP2 MSTORE PUSH1 0x20 ADD PUSH0 KECCAK256 PUSH0 SWAP1 SLOAD SWAP1 PUSH2 0x100 EXP SWAP1 DIV PUSH20 0xFFFFFFFFFFFFFFFFFFFFFFFFFFFFFFFFFFFFFFFF AND PUSH20 0xFFFFFFFFFFFFFFFFFFFFFFFFFFFFFFFFFFFFFFFF AND SUB PUSH2 0x2164 JUMPI PUSH1 0x1 SWAP1 POP PUSH2 0x22DB JUMP JUMPDEST PUSH0 PUSH1 0x2 PUSH0 DUP6 PUSH20 0xFFFFFFFFFFFFFFFFFFFFFFFFFFFFFFFFFFFFFFFF AND PUSH20 0xFFFFFFFFFFFFFFFFFFFFFFFFFFFFFFFFFFFFFFFF AND DUP2 MSTORE PUSH1 0x20 ADD SWAP1 DUP2 MSTORE PUSH1 0x20 ADD PUSH0 KECCAK256 PUSH0 DUP5 PUSH20 0xFFFFFFFFFFFFFFFFFFFFFFFFFFFFFFFFFFFFFFFF AND PUSH20 0xFFFFFFFFFFFFFFFFFFFFFFFFFFFFFFFFFFFFFFFF AND DUP2 MSTORE PUSH1 0x20 ADD SWAP1 DUP2 MSTORE PUSH1 0x20 ADD PUSH0 KECCAK256 PUSH1 0x40 MLOAD DUP1 PUSH1 0xA0 ADD PUSH1 0x40 MSTORE SWAP1 DUP2 PUSH0 DUP3 ADD PUSH0 SWAP1 SLOAD SWAP1 PUSH2 0x100 EXP SWAP1 DIV PUSH20 0xFFFFFFFFFFFFFFFFFFFFFFFFFFFFFFFFFFFFFFFF AND PUSH20 0xFFFFFFFFFFFFFFFFFFFFFFFFFFFFFFFFFFFFFFFF AND PUSH20 0xFFFFFFFFFFFFFFFFFFFFFFFFFFFFFFFFFFFFFFFF AND DUP2 MSTORE PUSH1 0x20 ADD PUSH1 0x1 DUP3 ADD DUP1 SLOAD DUP1 PUSH1 0x20 MUL PUSH1 0x20 ADD PUSH1 0x40 MLOAD SWAP1 DUP2 ADD PUSH1 0x40 MSTORE DUP1 SWAP3 SWAP2 SWAP1 DUP2 DUP2 MSTORE PUSH1 0x20 ADD DUP3 DUP1 SLOAD DUP1 ISZERO PUSH2 0x2289 JUMPI PUSH1 0x20 MUL DUP3 ADD SWAP2 SWAP1 PUSH0 MSTORE PUSH1 0x20 PUSH0 KECCAK256 SWAP1 JUMPDEST DUP2 SLOAD DUP2 MSTORE PUSH1 0x20 ADD SWAP1 PUSH1 0x1 ADD SWAP1 DUP1 DUP4 GT PUSH2 0x2275 JUMPI JUMPDEST POP POP POP POP POP DUP2 MSTORE PUSH1 0x20 ADD PUSH1 0x2 DUP3 ADD SLOAD DUP2 MSTORE PUSH1 0x20 ADD PUSH1 0x3 DUP3 ADD PUSH0 SWAP1 SLOAD SWAP1 PUSH2 0x100 EXP SWAP1 DIV PUSH1 0xFF AND ISZERO ISZERO ISZERO ISZERO DUP2 MSTORE PUSH1 0x20 ADD PUSH1 0x4 DUP3 ADD SLOAD DUP2 MSTORE POP POP SWAP1 POP DUP1 PUSH1 0x60 ADD MLOAD DUP1 ISZERO PUSH2 0x22D7 JUMPI POP DUP1 PUSH1 0x40 ADD MLOAD TIMESTAMP GT ISZERO JUMPDEST SWAP2 POP POP JUMPDEST SWAP3 SWAP2 POP POP JUMP JUMPDEST PUSH1 0x40 MLOAD DUP1 PUSH2 0x120 ADD PUSH1 0x40 MSTORE DUP1 PUSH0 DUP2 MSTORE PUSH1 0x20 ADD PUSH0 PUSH20 0xFFFFFFFFFFFFFFFFFFFFFFFFFFFFFFFFFFFFFFFF AND DUP2 MSTORE PUSH1 0x20 ADD PUSH1 0x60 DUP2 MSTORE PUSH1 0x20 ADD PUSH0 PUSH1 0x5 DUP2 GT ISZERO PUSH2 0x2329 JUMPI PUSH2 0x2328 PUSH2 0x2664 JUMP JUMPDEST JUMPDEST DUP2 MSTORE PUSH1 0x20 ADD PUSH0 DUP2 MSTORE PUSH1 0x20 ADD PUSH0 PUSH20 0xFFFFFFFFFFFFFFFFFFFFFFFFFFFFFFFFFFFFFFFF AND DUP2 MSTORE PUSH1 0x20 ADD PUSH0 ISZERO ISZERO DUP2 MSTORE PUSH1 0x20 ADD PUSH1 0x60 DUP2 MSTORE PUSH1 0x20 ADD PUSH0 DUP2 MSTORE POP SWAP1 JUMP JUMPDEST PUSH1 0x40 MLOAD DUP1 PUSH1 0xA0 ADD PUSH1 0x40 MSTORE DUP1 PUSH0 PUSH20 0xFFFFFFFFFFFFFFFFFFFFFFFFFFFFFFFFFFFFFFFF AND DUP2 MSTORE PUSH1 0x20 ADD PUSH1 0x60 DUP2 MSTORE PUSH1 0x20 ADD PUSH0 DUP2 MSTORE PUSH1 0x20 ADD PUSH0 ISZERO ISZERO DUP2 MSTORE PUSH1 0x20 ADD PUSH0 DUP2 MSTORE POP SWAP1 JUMP JUMPDEST DUP3 DUP1 SLOAD DUP3 DUP3 SSTORE SWAP1 PUSH0 MSTORE PUSH1 0x20 PUSH0 KECCAK256 SWAP1 DUP2 ADD SWAP3 DUP3 ISZERO PUSH2 0x23E3 JUMPI SWAP2 PUSH1 0x20 MUL DUP3 ADD JUMPDEST DUP3 DUP2 GT ISZERO PUSH2 0x23E2 JUMPI DUP3 MLOAD DUP3 SSTORE SWAP2 PUSH1 0x20 ADD SWAP2 SWAP1 PUSH1 0x1 ADD SWAP1 PUSH2 0x23C7 JUMP JUMPDEST JUMPDEST POP SWAP1 POP PUSH2 0x23F0 SWAP2 SWAP1 PUSH2 0x23F4 JUMP JUMPDEST POP SWAP1 JUMP JUMPDEST JUMPDEST DUP1 DUP3 GT ISZERO PUSH2 0x240B JUMPI PUSH0 DUP2 PUSH0 SWAP1 SSTORE POP PUSH1 0x1 ADD PUSH2 0x23F5 JUMP JUMPDEST POP SWAP1 JUMP JUMPDEST PUSH0 PUSH1 0x40 MLOAD SWAP1 POP SWAP1 JUMP JUMPDEST PUSH0 PUSH0 REVERT JUMPDEST PUSH0 PUSH0 REVERT JUMPDEST PUSH0 DUP2 SWAP1 POP SWAP2 SWAP1 POP JUMP JUMPDEST PUSH2 0x2432 DUP2 PUSH2 0x2420 JUMP JUMPDEST DUP2 EQ PUSH2 0x243C JUMPI PUSH0 PUSH0 REVERT JUMPDEST POP JUMP JUMPDEST PUSH0 DUP2 CALLDATALOAD SWAP1 POP PUSH2 0x244D DUP2 PUSH2 0x2429 JUMP JUMPDEST SWAP3 SWAP2 POP POP JUMP JUMPDEST PUSH0 PUSH1 0x20 DUP3 DUP5 SUB SLT ISZERO PUSH2 0x2468 JUMPI PUSH2 0x2467 PUSH2 0x2418 JUMP JUMPDEST JUMPDEST PUSH0 PUSH2 0x2475 DUP5 DUP3 DUP6 ADD PUSH2 0x243F JUMP JUMPDEST SWAP2 POP POP SWAP3 SWAP2 POP POP JUMP JUMPDEST PUSH0 DUP2 MLOAD SWAP1 POP SWAP2 SWAP1 POP JUMP JUMPDEST PUSH0 DUP3 DUP3 MSTORE PUSH1 0x20 DUP3 ADD SWAP1 POP SWAP3 SWAP2 POP POP JUMP JUMPDEST PUSH0 DUP2 SWAP1 POP PUSH1 0x20 DUP3 ADD SWAP1 POP SWAP2 SWAP1 POP JUMP JUMPDEST PUSH0 PUSH20 0xFFFFFFFFFFFFFFFFFFFFFFFFFFFFFFFFFFFFFFFF DUP3 AND SWAP1 POP SWAP2 SWAP1 POP JUMP JUMPDEST PUSH0 PUSH2 0x24D0 DUP3 PUSH2 0x24A7 JUMP JUMPDEST SWAP1 POP SWAP2 SWAP1 POP JUMP JUMPDEST PUSH2 0x24E0 DUP2 PUSH2 0x24C6 JUMP JUMPDEST DUP3 MSTORE POP POP JUMP JUMPDEST PUSH2 0x24EF DUP2 PUSH2 0x2420 JUMP JUMPDEST DUP3 MSTORE POP POP JUMP JUMPDEST PUSH0 DUP2 MLOAD SWAP1 POP SWAP2 SWAP1 POP JUMP JUMPDEST PUSH0 DUP3 DUP3 MSTORE PUSH1 0x20 DUP3 ADD SWAP1 POP SWAP3 SWAP2 POP POP JUMP JUMPDEST DUP3 DUP2 DUP4 MCOPY PUSH0 DUP4 DUP4 ADD MSTORE POP POP POP JUMP JUMPDEST PUSH0 PUSH1 0x1F NOT PUSH1 0x1F DUP4 ADD AND SWAP1 POP SWAP2 SWAP1 POP JUMP JUMPDEST PUSH0 PUSH2 0x2537 DUP3 PUSH2 0x24F5 JUMP JUMPDEST PUSH2 0x2541 DUP2 DUP6 PUSH2 0x24FF JUMP JUMPDEST SWAP4 POP PUSH2 0x2551 DUP2 DUP6 PUSH1 0x20 DUP7 ADD PUSH2 0x250F JUMP JUMPDEST PUSH2 0x255A DUP2 PUSH2 0x251D JUMP JUMPDEST DUP5 ADD SWAP2 POP POP SWAP3 SWAP2 POP POP JUMP JUMPDEST PUSH0 PUSH1 0x60 DUP4 ADD PUSH0 DUP4 ADD MLOAD PUSH2 0x257A PUSH0 DUP7 ADD DUP3 PUSH2 0x24D7 JUMP JUMPDEST POP PUSH1 0x20 DUP4 ADD MLOAD PUSH2 0x258D PUSH1 0x20 DUP7 ADD DUP3 PUSH2 0x24E6 JUMP JUMPDEST POP PUSH1 0x40 DUP4 ADD MLOAD DUP5 DUP3 SUB PUSH1 0x40 DUP7 ADD MSTORE PUSH2 0x25A5 DUP3 DUP3 PUSH2 0x252D JUMP JUMPDEST SWAP2 POP POP DUP1 SWAP2 POP POP SWAP3 SWAP2 POP POP JUMP JUMPDEST PUSH0 PUSH2 0x25BD DUP4 DUP4 PUSH2 0x2565 JUMP JUMPDEST SWAP1 POP SWAP3 SWAP2 POP POP JUMP JUMPDEST PUSH0 PUSH1 0x20 DUP3 ADD SWAP1 POP SWAP2 SWAP1 POP JUMP JUMPDEST PUSH0 PUSH2 0x25DB DUP3 PUSH2 0x247E JUMP JUMPDEST PUSH2 0x25E5 DUP2 DUP6 PUSH2 0x2488 JUMP JUMPDEST SWAP4 POP DUP4 PUSH1 0x20 DUP3 MUL DUP6 ADD PUSH2 0x25F7 DUP6 PUSH2 0x2498 JUMP JUMPDEST DUP1 PUSH0 JUMPDEST DUP6 DUP2 LT ISZERO PUSH2 0x2632 JUMPI DUP5 DUP5 SUB DUP10 MSTORE DUP2 MLOAD PUSH2 0x2613 DUP6 DUP3 PUSH2 0x25B2 JUMP JUMPDEST SWAP5 POP PUSH2 0x261E DUP4 PUSH2 0x25C5 JUMP JUMPDEST SWAP3 POP PUSH1 0x20 DUP11 ADD SWAP10 POP POP PUSH1 0x1 DUP2 ADD SWAP1 POP PUSH2 0x25FA JUMP JUMPDEST POP DUP3 SWAP8 POP DUP8 SWAP6 POP POP POP POP POP POP SWAP3 SWAP2 POP POP JUMP JUMPDEST PUSH0 PUSH1 0x20 DUP3 ADD SWAP1 POP DUP2 DUP2 SUB PUSH0 DUP4 ADD MSTORE PUSH2 0x265C DUP2 DUP5 PUSH2 0x25D1 JUMP JUMPDEST SWAP1 POP SWAP3 SWAP2 POP POP JUMP JUMPDEST PUSH32 0x4E487B7100000000000000000000000000000000000000000000000000000000 PUSH0 MSTORE PUSH1 0x21 PUSH1 0x4 MSTORE PUSH1 0x24 PUSH0 REVERT JUMPDEST PUSH1 0x6 DUP2 LT PUSH2 0x26A2 JUMPI PUSH2 0x26A1 PUSH2 0x2664 JUMP JUMPDEST JUMPDEST POP JUMP JUMPDEST PUSH0 DUP2 SWAP1 POP PUSH2 0x26B2 DUP3 PUSH2 0x2691 JUMP JUMPDEST SWAP2 SWAP1 POP JUMP JUMPDEST PUSH0 PUSH2 0x26C1 DUP3 PUSH2 0x26A5 JUMP JUMPDEST SWAP1 POP SWAP2 SWAP1 POP JUMP JUMPDEST PUSH2 0x26D1 DUP2 PUSH2 0x26B7 JUMP JUMPDEST DUP3 MSTORE POP POP JUMP JUMPDEST PUSH0 DUP2 ISZERO ISZERO SWAP1 POP SWAP2 SWAP1 POP JUMP JUMPDEST PUSH2 0x26EB DUP2 PUSH2 0x26D7 JUMP JUMPDEST DUP3 MSTORE POP POP JUMP JUMPDEST PUSH0 PUSH2 0x120 DUP4 ADD PUSH0 DUP4 ADD MLOAD PUSH2 0x2707 PUSH0 DUP7 ADD DUP3 PUSH2 0x24E6 JUMP JUMPDEST POP PUSH1 0x20 DUP4 ADD MLOAD PUSH2 0x271A PUSH1 0x20 DUP7 ADD DUP3 PUSH2 0x24D7 JUMP JUMPDEST POP PUSH1 0x40 DUP4 ADD MLOAD DUP5 DUP3 SUB PUSH1 0x40 DUP7 ADD MSTORE PUSH2 0x2732 DUP3 DUP3 PUSH2 0x252D JUMP JUMPDEST SWAP2 POP POP PUSH1 0x60 DUP4 ADD MLOAD PUSH2 0x2747 PUSH1 0x60 DUP7 ADD DUP3 PUSH2 0x26C8 JUMP JUMPDEST POP PUSH1 0x80 DUP4 ADD MLOAD PUSH2 0x275A PUSH1 0x80 DUP7 ADD DUP3 PUSH2 0x24E6 JUMP JUMPDEST POP PUSH1 0xA0 DUP4 ADD MLOAD PUSH2 0x276D PUSH1 0xA0 DUP7 ADD DUP3 PUSH2 0x24D7 JUMP JUMPDEST POP PUSH1 0xC0 DUP4 ADD MLOAD PUSH2 0x2780 PUSH1 0xC0 DUP7 ADD DUP3 PUSH2 0x26E2 JUMP JUMPDEST POP PUSH1 0xE0 DUP4 ADD MLOAD DUP5 DUP3 SUB PUSH1 0xE0 DUP7 ADD MSTORE PUSH2 0x2798 DUP3 DUP3 PUSH2 0x252D JUMP JUMPDEST SWAP2 POP POP PUSH2 0x100 DUP4 ADD MLOAD PUSH2 0x27AF PUSH2 0x100 DUP7 ADD DUP3 PUSH2 0x24E6 JUMP JUMPDEST POP DUP1 SWAP2 POP POP SWAP3 SWAP2 POP POP JUMP JUMPDEST PUSH0 PUSH1 0x20 DUP3 ADD SWAP1 POP DUP2 DUP2 SUB PUSH0 DUP4 ADD MSTORE PUSH2 0x27D2 DUP2 DUP5 PUSH2 0x26F1 JUMP JUMPDEST SWAP1 POP SWAP3 SWAP2 POP POP JUMP JUMPDEST PUSH2 0x27E3 DUP2 PUSH2 0x2420 JUMP JUMPDEST DUP3 MSTORE POP POP JUMP JUMPDEST PUSH0 PUSH1 0x20 DUP3 ADD SWAP1 POP PUSH2 0x27FC PUSH0 DUP4 ADD DUP5 PUSH2 0x27DA JUMP JUMPDEST SWAP3 SWAP2 POP POP JUMP JUMPDEST PUSH2 0x280B DUP2 PUSH2 0x24C6 JUMP JUMPDEST DUP2 EQ PUSH2 0x2815 JUMPI PUSH0 PUSH0 REVERT JUMPDEST POP JUMP JUMPDEST PUSH0 DUP2 CALLDATALOAD SWAP1 POP PUSH2 0x2826 DUP2 PUSH2 0x2802 JUMP JUMPDEST SWAP3 SWAP2 POP POP JUMP JUMPDEST PUSH0 PUSH0 REVERT JUMPDEST PUSH0 PUSH0 REVERT JUMPDEST PUSH32 0x4E487B7100000000000000000000000000000000000000000000000000000000 PUSH0 MSTORE PUSH1 0x41 PUSH1 0x4 MSTORE PUSH1 0x24 PUSH0 REVERT JUMPDEST PUSH2 0x286A DUP3 PUSH2 0x251D JUMP JUMPDEST DUP2 ADD DUP2 DUP2 LT PUSH8 0xFFFFFFFFFFFFFFFF DUP3 GT OR ISZERO PUSH2 0x2889 JUMPI PUSH2 0x2888 PUSH2 0x2834 JUMP JUMPDEST JUMPDEST DUP1 PUSH1 0x40 MSTORE POP POP POP JUMP JUMPDEST PUSH0 PUSH2 0x289B PUSH2 0x240F JUMP JUMPDEST SWAP1 POP PUSH2 0x28A7 DUP3 DUP3 PUSH2 0x2861 JUMP JUMPDEST SWAP2 SWAP1 POP JUMP JUMPDEST PUSH0 PUSH8 0xFFFFFFFFFFFFFFFF DUP3 GT ISZERO PUSH2 0x28C6 JUMPI PUSH2 0x28C5 PUSH2 0x2834 JUMP JUMPDEST JUMPDEST PUSH2 0x28CF DUP3 PUSH2 0x251D JUMP JUMPDEST SWAP1 POP PUSH1 0x20 DUP2 ADD SWAP1 POP SWAP2 SWAP1 POP JUMP JUMPDEST DUP3 DUP2 DUP4 CALLDATACOPY PUSH0 DUP4 DUP4 ADD MSTORE POP POP POP JUMP JUMPDEST PUSH0 PUSH2 0x28FC PUSH2 0x28F7 DUP5 PUSH2 0x28AC JUMP JUMPDEST PUSH2 0x2892 JUMP JUMPDEST SWAP1 POP DUP3 DUP2 MSTORE PUSH1 0x20 DUP2 ADD DUP5 DUP5 DUP5 ADD GT ISZERO PUSH2 0x2918 JUMPI PUSH2 0x2917 PUSH2 0x2830 JUMP JUMPDEST JUMPDEST PUSH2 0x2923 DUP5 DUP3 DUP6 PUSH2 0x28DC JUMP JUMPDEST POP SWAP4 SWAP3 POP POP POP JUMP JUMPDEST PUSH0 DUP3 PUSH1 0x1F DUP4 ADD SLT PUSH2 0x293F JUMPI PUSH2 0x293E PUSH2 0x282C JUMP JUMPDEST JUMPDEST DUP2 CALLDATALOAD PUSH2 0x294F DUP5 DUP3 PUSH1 0x20 DUP7 ADD PUSH2 0x28EA JUMP JUMPDEST SWAP2 POP POP SWAP3 SWAP2 POP POP JUMP JUMPDEST PUSH1 0x6 DUP2 LT PUSH2 0x2964 JUMPI PUSH0 PUSH0 REVERT JUMPDEST POP JUMP JUMPDEST PUSH0 DUP2 CALLDATALOAD SWAP1 POP PUSH2 0x2975 DUP2 PUSH2 0x2958 JUMP JUMPDEST SWAP3 SWAP2 POP POP JUMP JUMPDEST PUSH0 PUSH0 PUSH0 PUSH0 PUSH1 0x80 DUP6 DUP8 SUB SLT ISZERO PUSH2 0x2993 JUMPI PUSH2 0x2992 PUSH2 0x2418 JUMP JUMPDEST JUMPDEST PUSH0 PUSH2 0x29A0 DUP8 DUP3 DUP9 ADD PUSH2 0x2818 JUMP JUMPDEST SWAP5 POP POP PUSH1 0x20 DUP6 ADD CALLDATALOAD PUSH8 0xFFFFFFFFFFFFFFFF DUP2 GT ISZERO PUSH2 0x29C1 JUMPI PUSH2 0x29C0 PUSH2 0x241C JUMP JUMPDEST JUMPDEST PUSH2 0x29CD DUP8 DUP3 DUP9 ADD PUSH2 0x292B JUMP JUMPDEST SWAP4 POP POP PUSH1 0x40 PUSH2 0x29DE DUP8 DUP3 DUP9 ADD PUSH2 0x2967 JUMP JUMPDEST SWAP3 POP POP PUSH1 0x60 DUP6 ADD CALLDATALOAD PUSH8 0xFFFFFFFFFFFFFFFF DUP2 GT ISZERO PUSH2 0x29FF JUMPI PUSH2 0x29FE PUSH2 0x241C JUMP JUMPDEST JUMPDEST PUSH2 0x2A0B DUP8 DUP3 DUP9 ADD PUSH2 0x292B JUMP JUMPDEST SWAP2 POP POP SWAP3 SWAP6 SWAP2 SWAP5 POP SWAP3 POP JUMP JUMPDEST PUSH0 PUSH1 0x20 DUP3 DUP5 SUB SLT ISZERO PUSH2 0x2A2C JUMPI PUSH2 0x2A2B PUSH2 0x2418 JUMP JUMPDEST JUMPDEST PUSH0 PUSH2 0x2A39 DUP5 DUP3 DUP6 ADD PUSH2 0x2818 JUMP JUMPDEST SWAP2 POP POP SWAP3 SWAP2 POP POP JUMP JUMPDEST PUSH0 DUP2 MLOAD SWAP1 POP SWAP2 SWAP1 POP JUMP JUMPDEST PUSH0 DUP3 DUP3 MSTORE PUSH1 0x20 DUP3 ADD SWAP1 POP SWAP3 SWAP2 POP POP JUMP JUMPDEST PUSH0 DUP2 SWAP1 POP PUSH1 0x20 DUP3 ADD SWAP1 POP SWAP2 SWAP1 POP JUMP JUMPDEST PUSH0 PUSH2 0x2A76 DUP4 DUP4 PUSH2 0x24E6 JUMP JUMPDEST PUSH1 0x20 DUP4 ADD SWAP1 POP SWAP3 SWAP2 POP POP JUMP JUMPDEST PUSH0 PUSH1 0x20 DUP3 ADD SWAP1 POP SWAP2 SWAP1 POP JUMP JUMPDEST PUSH0 PUSH2 0x2A98 DUP3 PUSH2 0x2A42 JUMP JUMPDEST PUSH2 0x2AA2 DUP2 DUP6 PUSH2 0x2A4C JUMP JUMPDEST SWAP4 POP PUSH2 0x2AAD DUP4 PUSH2 0x2A5C JUMP JUMPDEST DUP1 PUSH0 JUMPDEST DUP4 DUP2 LT ISZERO PUSH2 0x2ADD JUMPI DUP2 MLOAD PUSH2 0x2AC4 DUP9 DUP3 PUSH2 0x2A6B JUMP JUMPDEST SWAP8 POP PUSH2 0x2ACF DUP4 PUSH2 0x2A82 JUMP JUMPDEST SWAP3 POP POP PUSH1 0x1 DUP2 ADD SWAP1 POP PUSH2 0x2AB0 JUMP JUMPDEST POP DUP6 SWAP4 POP POP POP POP SWAP3 SWAP2 POP POP JUMP JUMPDEST PUSH0 PUSH1 0x20 DUP3 ADD SWAP1 POP DUP2 DUP2 SUB PUSH0 DUP4 ADD MSTORE PUSH2 0x2B02 DUP2 DUP5 PUSH2 0x2A8E JUMP JUMPDEST SWAP1 POP SWAP3 SWAP2 POP POP JUMP JUMPDEST PUSH0 PUSH0 PUSH0 PUSH1 0x60 DUP5 DUP7 SUB SLT ISZERO PUSH2 0x2B21 JUMPI PUSH2 0x2B20 PUSH2 0x2418 JUMP JUMPDEST JUMPDEST PUSH0 DUP5 ADD CALLDATALOAD PUSH8 0xFFFFFFFFFFFFFFFF DUP2 GT ISZERO PUSH2 0x2B3E JUMPI PUSH2 0x2B3D PUSH2 0x241C JUMP JUMPDEST JUMPDEST PUSH2 0x2B4A DUP7 DUP3 DUP8 ADD PUSH2 0x292B JUMP JUMPDEST SWAP4 POP POP PUSH1 0x20 PUSH2 0x2B5B DUP7 DUP3 DUP8 ADD PUSH2 0x2967 JUMP JUMPDEST SWAP3 POP POP PUSH1 0x40 DUP5 ADD CALLDATALOAD PUSH8 0xFFFFFFFFFFFFFFFF DUP2 GT ISZERO PUSH2 0x2B7C JUMPI PUSH2 0x2B7B PUSH2 0x241C JUMP JUMPDEST JUMPDEST PUSH2 0x2B88 DUP7 DUP3 DUP8 ADD PUSH2 0x292B JUMP JUMPDEST SWAP2 POP POP SWAP3 POP SWAP3 POP SWAP3 JUMP JUMPDEST PUSH0 PUSH0 PUSH0 PUSH1 0x60 DUP5 DUP7 SUB SLT ISZERO PUSH2 0x2BA9 JUMPI PUSH2 0x2BA8 PUSH2 0x2418 JUMP JUMPDEST JUMPDEST PUSH0 PUSH2 0x2BB6 DUP7 DUP3 DUP8 ADD PUSH2 0x243F JUMP JUMPDEST SWAP4 POP POP PUSH1 0x20 DUP5 ADD CALLDATALOAD PUSH8 0xFFFFFFFFFFFFFFFF DUP2 GT ISZERO PUSH2 0x2BD7 JUMPI PUSH2 0x2BD6 PUSH2 0x241C JUMP JUMPDEST JUMPDEST PUSH2 0x2BE3 DUP7 DUP3 DUP8 ADD PUSH2 0x292B JUMP JUMPDEST SWAP3 POP POP PUSH1 0x40 DUP5 ADD CALLDATALOAD PUSH8 0xFFFFFFFFFFFFFFFF DUP2 GT ISZERO PUSH2 0x2C04 JUMPI PUSH2 0x2C03 PUSH2 0x241C JUMP JUMPDEST JUMPDEST PUSH2 0x2C10 DUP7 DUP3 DUP8 ADD PUSH2 0x292B JUMP JUMPDEST SWAP2 POP POP SWAP3 POP SWAP3 POP SWAP3 JUMP JUMPDEST PUSH0 PUSH0 PUSH1 0x40 DUP4 DUP6 SUB SLT ISZERO PUSH2 0x2C30 JUMPI PUSH2 0x2C2F PUSH2 0x2418 JUMP JUMPDEST JUMPDEST PUSH0 PUSH2 0x2C3D DUP6 DUP3 DUP7 ADD PUSH2 0x243F JUMP JUMPDEST SWAP3 POP POP PUSH1 0x20 DUP4 ADD CALLDATALOAD PUSH8 0xFFFFFFFFFFFFFFFF DUP2 GT ISZERO PUSH2 0x2C5E JUMPI PUSH2 0x2C5D PUSH2 0x241C JUMP JUMPDEST JUMPDEST PUSH2 0x2C6A DUP6 DUP3 DUP7 ADD PUSH2 0x292B JUMP JUMPDEST SWAP2 POP POP SWAP3 POP SWAP3 SWAP1 POP JUMP JUMPDEST PUSH0 PUSH0 PUSH1 0x40 DUP4 DUP6 SUB SLT ISZERO PUSH2 0x2C8A JUMPI PUSH2 0x2C89 PUSH2 0x2418 JUMP JUMPDEST JUMPDEST PUSH0 PUSH2 0x2C97 DUP6 DUP3 DUP7 ADD PUSH2 0x2818 JUMP JUMPDEST SWAP3 POP POP PUSH1 0x20 PUSH2 0x2CA8 DUP6 DUP3 DUP7 ADD PUSH2 0x2818 JUMP JUMPDEST SWAP2 POP POP SWAP3 POP SWAP3 SWAP1 POP JUMP JUMPDEST PUSH0 DUP3 DUP3 MSTORE PUSH1 0x20 DUP3 ADD SWAP1 POP SWAP3 SWAP2 POP POP JUMP JUMPDEST PUSH0 PUSH2 0x2CCC DUP3 PUSH2 0x2A42 JUMP JUMPDEST PUSH2 0x2CD6 DUP2 DUP6 PUSH2 0x2CB2 JUMP JUMPDEST SWAP4 POP PUSH2 0x2CE1 DUP4 PUSH2 0x2A5C JUMP JUMPDEST DUP1 PUSH0 JUMPDEST DUP4 DUP2 LT ISZERO PUSH2 0x2D11 JUMPI DUP2 MLOAD PUSH2 0x2CF8 DUP9 DUP3 PUSH2 0x2A6B JUMP JUMPDEST SWAP8 POP PUSH2 0x2D03 DUP4 PUSH2 0x2A82 JUMP JUMPDEST SWAP3 POP POP PUSH1 0x1 DUP2 ADD SWAP1 POP PUSH2 0x2CE4 JUMP JUMPDEST POP DUP6 SWAP4 POP POP POP POP SWAP3 SWAP2 POP POP JUMP JUMPDEST PUSH0 PUSH1 0xA0 DUP4 ADD PUSH0 DUP4 ADD MLOAD PUSH2 0x2D33 PUSH0 DUP7 ADD DUP3 PUSH2 0x24D7 JUMP JUMPDEST POP PUSH1 0x20 DUP4 ADD MLOAD DUP5 DUP3 SUB PUSH1 0x20 DUP7 ADD MSTORE PUSH2 0x2D4B DUP3 DUP3 PUSH2 0x2CC2 JUMP JUMPDEST SWAP2 POP POP PUSH1 0x40 DUP4 ADD MLOAD PUSH2 0x2D60 PUSH1 0x40 DUP7 ADD DUP3 PUSH2 0x24E6 JUMP JUMPDEST POP PUSH1 0x60 DUP4 ADD MLOAD PUSH2 0x2D73 PUSH1 0x60 DUP7 ADD DUP3 PUSH2 0x26E2 JUMP JUMPDEST POP PUSH1 0x80 DUP4 ADD MLOAD PUSH2 0x2D86 PUSH1 0x80 DUP7 ADD DUP3 PUSH2 0x24E6 JUMP JUMPDEST POP DUP1 SWAP2 POP POP SWAP3 SWAP2 POP POP JUMP JUMPDEST PUSH0 PUSH1 0x20 DUP3 ADD SWAP1 POP DUP2 DUP2 SUB PUSH0 DUP4 ADD MSTORE PUSH2 0x2DA9 DUP2 DUP5 PUSH2 0x2D1E JUMP JUMPDEST SWAP1 POP SWAP3 SWAP2 POP POP JUMP JUMPDEST PUSH0 PUSH8 0xFFFFFFFFFFFFFFFF DUP3 GT ISZERO PUSH2 0x2DCB JUMPI PUSH2 0x2DCA PUSH2 0x2834 JUMP JUMPDEST JUMPDEST PUSH1 0x20 DUP3 MUL SWAP1 POP PUSH1 0x20 DUP2 ADD SWAP1 POP SWAP2 SWAP1 POP JUMP JUMPDEST PUSH0 PUSH0 REVERT JUMPDEST PUSH0 PUSH2 0x2DF2 PUSH2 0x2DED DUP5 PUSH2 0x2DB1 JUMP JUMPDEST PUSH2 0x2892 JUMP JUMPDEST SWAP1 POP DUP1 DUP4 DUP3 MSTORE PUSH1 0x20 DUP3 ADD SWAP1 POP PUSH1 0x20 DUP5 MUL DUP4 ADD DUP6 DUP2 GT ISZERO PUSH2 0x2E15 JUMPI PUSH2 0x2E14 PUSH2 0x2DDC JUMP JUMPDEST JUMPDEST DUP4 JUMPDEST DUP2 DUP2 LT ISZERO PUSH2 0x2E3E JUMPI DUP1 PUSH2 0x2E2A DUP9 DUP3 PUSH2 0x243F JUMP JUMPDEST DUP5 MSTORE PUSH1 0x20 DUP5 ADD SWAP4 POP POP PUSH1 0x20 DUP2 ADD SWAP1 POP PUSH2 0x2E17 JUMP JUMPDEST POP POP POP SWAP4 SWAP3 POP POP POP JUMP JUMPDEST PUSH0 DUP3 PUSH1 0x1F DUP4 ADD SLT PUSH2 0x2E5C JUMPI PUSH2 0x2E5B PUSH2 0x282C JUMP JUMPDEST JUMPDEST DUP2 CALLDATALOAD PUSH2 0x2E6C DUP5 DUP3 PUSH1 0x20 DUP7 ADD PUSH2 0x2DE0 JUMP JUMPDEST SWAP2 POP POP SWAP3 SWAP2 POP POP JUMP JUMPDEST PUSH0 PUSH0 PUSH0 PUSH1 0x60 DUP5 DUP7 SUB SLT ISZERO PUSH2 0x2E8C JUMPI PUSH2 0x2E8B PUSH2 0x2418 JUMP JUMPDEST JUMPDEST PUSH0 PUSH2 0x2E99 DUP7 DUP3 DUP8 ADD PUSH2 0x2818 JUMP JUMPDEST SWAP4 POP POP PUSH1 0x20 DUP5 ADD CALLDATALOAD PUSH8 0xFFFFFFFFFFFFFFFF DUP2 GT ISZERO PUSH2 0x2EBA JUMPI PUSH2 0x2EB9 PUSH2 0x241C JUMP JUMPDEST JUMPDEST PUSH2 0x2EC6 DUP7 DUP3 DUP8 ADD PUSH2 0x2E48 JUMP JUMPDEST SWAP3 POP POP PUSH1 0x40 PUSH2 0x2ED7 DUP7 DUP3 DUP8 ADD PUSH2 0x243F JUMP JUMPDEST SWAP2 POP POP SWAP3 POP SWAP3 POP SWAP3 JUMP JUMPDEST PUSH2 0x2EEA DUP2 PUSH2 0x24C6 JUMP JUMPDEST DUP3 MSTORE POP POP JUMP JUMPDEST PUSH0 PUSH1 0x20 DUP3 ADD SWAP1 POP PUSH2 0x2F03 PUSH0 DUP4 ADD DUP5 PUSH2 0x2EE1 JUMP JUMPDEST SWAP3 SWAP2 POP POP JUMP JUMPDEST PUSH0 PUSH0 PUSH0 PUSH1 0x60 DUP5 DUP7 SUB SLT ISZERO PUSH2 0x2F20 JUMPI PUSH2 0x2F1F PUSH2 0x2418 JUMP JUMPDEST JUMPDEST PUSH0 PUSH2 0x2F2D DUP7 DUP3 DUP8 ADD PUSH2 0x2818 JUMP JUMPDEST SWAP4 POP POP PUSH1 0x20 PUSH2 0x2F3E DUP7 DUP3 DUP8 ADD PUSH2 0x2818 JUMP JUMPDEST SWAP3 POP POP PUSH1 0x40 PUSH2 0x2F4F DUP7 DUP3 DUP8 ADD PUSH2 0x243F JUMP JUMPDEST SWAP2 POP POP SWAP3 POP SWAP3 POP SWAP3 JUMP JUMPDEST PUSH2 0x2F62 DUP2 PUSH2 0x26D7 JUMP JUMPDEST DUP3 MSTORE POP POP JUMP JUMPDEST PUSH0 PUSH1 0x20 DUP3 ADD SWAP1 POP PUSH2 0x2F7B PUSH0 DUP4 ADD DUP5 PUSH2 0x2F59 JUMP JUMPDEST SWAP3 SWAP2 POP POP JUMP JUMPDEST PUSH0 DUP3 DUP3 MSTORE PUSH1 0x20 DUP3 ADD SWAP1 POP SWAP3 SWAP2 POP POP JUMP JUMPDEST PUSH32 0x4F6E6C792070617469656E742063616E20706572666F726D2074686973206163 PUSH0 DUP3 ADD MSTORE PUSH32 0x74696F6E00000000000000000000000000000000000000000000000000000000 PUSH1 0x20 DUP3 ADD MSTORE POP JUMP JUMPDEST PUSH0 PUSH2 0x2FEB PUSH1 0x24 DUP4 PUSH2 0x2F81 JUMP JUMPDEST SWAP2 POP PUSH2 0x2FF6 DUP3 PUSH2 0x2F91 JUMP JUMPDEST PUSH1 0x40 DUP3 ADD SWAP1 POP SWAP2 SWAP1 POP JUMP JUMPDEST PUSH0 PUSH1 0x20 DUP3 ADD SWAP1 POP DUP2 DUP2 SUB PUSH0 DUP4 ADD MSTORE PUSH2 0x3018 DUP2 PUSH2 0x2FDF JUMP JUMPDEST SWAP1 POP SWAP2 SWAP1 POP JUMP JUMPDEST PUSH32 0x4E487B7100000000000000000000000000000000000000000000000000000000 PUSH0 MSTORE PUSH1 0x22 PUSH1 0x4 MSTORE PUSH1 0x24 PUSH0 REVERT JUMPDEST PUSH0 PUSH1 0x2 DUP3 DIV SWAP1 POP PUSH1 0x1 DUP3 AND DUP1 PUSH2 0x3063 JUMPI PUSH1 0x7F DUP3 AND SWAP2 POP JUMPDEST PUSH1 0x20 DUP3 LT DUP2 SUB PUSH2 0x3076 JUMPI PUSH2 0x3075 PUSH2 0x301F JUMP JUMPDEST JUMPDEST POP SWAP2 SWAP1 POP JUMP JUMPDEST PUSH32 0x5265636F726420646F6573206E6F742065786973740000000000000000000000 PUSH0 DUP3 ADD MSTORE POP JUMP JUMPDEST PUSH0 PUSH2 0x30B0 PUSH1 0x15 DUP4 PUSH2 0x2F81 JUMP JUMPDEST SWAP2 POP PUSH2 0x30BB DUP3 PUSH2 0x307C JUMP JUMPDEST PUSH1 0x20 DUP3 ADD SWAP1 POP SWAP2 SWAP1 POP JUMP JUMPDEST PUSH0 PUSH1 0x20 DUP3 ADD SWAP1 POP DUP2 DUP2 SUB PUSH0 DUP4 ADD MSTORE PUSH2 0x30DD DUP2 PUSH2 0x30A4 JUMP JUMPDEST SWAP1 POP SWAP2 SWAP1 POP JUMP JUMPDEST PUSH32 0x5265636F7264206973206E6F7420616374697665000000000000000000000000 PUSH0 DUP3 ADD MSTORE POP JUMP JUMPDEST PUSH0 PUSH2 0x3118 PUSH1 0x14 DUP4 PUSH2 0x2F81 JUMP JUMPDEST SWAP2 POP PUSH2 0x3123 DUP3 PUSH2 0x30E4 JUMP JUMPDEST PUSH1 0x20 DUP3 ADD SWAP1 POP SWAP2 SWAP1 POP JUMP JUMPDEST PUSH0 PUSH1 0x20 DUP3 ADD SWAP1 POP DUP2 DUP2 SUB PUSH0 DUP4 ADD MSTORE PUSH2 0x3145 DUP2 PUSH2 0x310C JUMP JUMPDEST SWAP1 POP SWAP2 SWAP1 POP JUMP JUMPDEST PUSH32 0x4E6F7420617574686F72697A656420746F206163636573732074686973207265 PUSH0 DUP3 ADD MSTORE PUSH32 0x636F726400000000000000000000000000000000000000000000000000000000 PUSH1 0x20 DUP3 ADD MSTORE POP JUMP JUMPDEST PUSH0 PUSH2 0x31A6 PUSH1 0x24 DUP4 PUSH2 0x2F81 JUMP JUMPDEST SWAP2 POP PUSH2 0x31B1 DUP3 PUSH2 0x314C JUMP JUMPDEST PUSH1 0x40 DUP3 ADD SWAP1 POP SWAP2 SWAP1 POP JUMP JUMPDEST PUSH0 PUSH1 0x20 DUP3 ADD SWAP1 POP DUP2 DUP2 SUB PUSH0 DUP4 ADD MSTORE PUSH2 0x31D3 DUP2 PUSH2 0x319A JUMP JUMPDEST SWAP1 POP SWAP2 SWAP1 POP JUMP JUMPDEST PUSH32 0x496E76616C69642070617469656E742061646472657373000000000000000000 PUSH0 DUP3 ADD MSTORE POP JUMP JUMPDEST PUSH0 PUSH2 0x320E PUSH1 0x17 DUP4 PUSH2 0x2F81 JUMP JUMPDEST SWAP2 POP PUSH2 0x3219 DUP3 PUSH2 0x31DA JUMP JUMPDEST PUSH1 0x20 DUP3 ADD SWAP1 POP SWAP2 SWAP1 POP JUMP JUMPDEST PUSH0 PUSH1 0x20 DUP3 ADD SWAP1 POP DUP2 DUP2 SUB PUSH0 DUP4 ADD MSTORE PUSH2 0x323B DUP2 PUSH2 0x3202 JUMP JUMPDEST SWAP1 POP SWAP2 SWAP1 POP JUMP JUMPDEST PUSH32 0x4950465320686173682063616E6E6F7420626520656D70747900000000000000 PUSH0 DUP3 ADD MSTORE POP JUMP JUMPDEST PUSH0 PUSH2 0x3276 PUSH1 0x19 DUP4 PUSH2 0x2F81 JUMP JUMPDEST SWAP2 POP PUSH2 0x3281 DUP3 PUSH2 0x3242 JUMP JUMPDEST PUSH1 0x20 DUP3 ADD SWAP1 POP SWAP2 SWAP1 POP JUMP JUMPDEST PUSH0 PUSH1 0x20 DUP3 ADD SWAP1 POP DUP2 DUP2 SUB PUSH0 DUP4 ADD MSTORE PUSH2 0x32A3 DUP2 PUSH2 0x326A JUMP JUMPDEST SWAP1 POP SWAP2 SWAP1 POP JUMP JUMPDEST PUSH32 0x4E487B7100000000000000000000000000000000000000000000000000000000 PUSH0 MSTORE PUSH1 0x11 PUSH1 0x4 MSTORE PUSH1 0x24 PUSH0 REVERT JUMPDEST PUSH0 PUSH2 0x32E1 DUP3 PUSH2 0x2420 JUMP JUMPDEST SWAP2 POP PUSH32 0xFFFFFFFFFFFFFFFFFFFFFFFFFFFFFFFFFFFFFFFFFFFFFFFFFFFFFFFFFFFFFFFF DUP3 SUB PUSH2 0x3313 JUMPI PUSH2 0x3312 PUSH2 0x32AA JUMP JUMPDEST JUMPDEST PUSH1 0x1 DUP3 ADD SWAP1 POP SWAP2 SWAP1 POP JUMP JUMPDEST PUSH0 DUP2 SWAP1 POP DUP2 PUSH0 MSTORE PUSH1 0x20 PUSH0 KECCAK256 SWAP1 POP SWAP2 SWAP1 POP JUMP JUMPDEST PUSH0 PUSH1 0x20 PUSH1 0x1F DUP4 ADD DIV SWAP1 POP SWAP2 SWAP1 POP JUMP JUMPDEST PUSH0 DUP3 DUP3 SHL SWAP1 POP SWAP3 SWAP2 POP POP JUMP JUMPDEST PUSH0 PUSH1 0x8 DUP4 MUL PUSH2 0x337A PUSH32 0xFFFFFFFFFFFFFFFFFFFFFFFFFFFFFFFFFFFFFFFFFFFFFFFFFFFFFFFFFFFFFFFF DUP3 PUSH2 0x333F JUMP JUMPDEST PUSH2 0x3384 DUP7 DUP4 PUSH2 0x333F JUMP JUMPDEST SWAP6 POP DUP1 NOT DUP5 AND SWAP4 POP DUP1 DUP7 AND DUP5 OR SWAP3 POP POP POP SWAP4 SWAP3 POP POP POP JUMP JUMPDEST PUSH0 DUP2 SWAP1 POP SWAP2 SWAP1 POP JUMP JUMPDEST PUSH0 PUSH2 0x33BF PUSH2 0x33BA PUSH2 0x33B5 DUP5 PUSH2 0x2420 JUMP JUMPDEST PUSH2 0x339C JUMP JUMPDEST PUSH2 0x2420 JUMP JUMPDEST SWAP1 POP SWAP2 SWAP1 POP JUMP JUMPDEST PUSH0 DUP2 SWAP1 POP SWAP2 SWAP1 POP JUMP JUMPDEST PUSH2 0x33D8 DUP4 PUSH2 0x33A5 JUMP JUMPDEST PUSH2 0x33EC PUSH2 0x33E4 DUP3 PUSH2 0x33C6 JUMP JUMPDEST DUP5 DUP5 SLOAD PUSH2 0x334B JUMP JUMPDEST DUP3 SSTORE POP POP POP POP JUMP JUMPDEST PUSH0 PUSH0 SWAP1 POP SWAP1 JUMP JUMPDEST PUSH2 0x3403 PUSH2 0x33F4 JUMP JUMPDEST PUSH2 0x340E DUP2 DUP5 DUP5 PUSH2 0x33CF JUMP JUMPDEST POP POP POP JUMP JUMPDEST JUMPDEST DUP2 DUP2 LT ISZERO PUSH2 0x3431 JUMPI PUSH2 0x3426 PUSH0 DUP3 PUSH2 0x33FB JUMP JUMPDEST PUSH1 0x1 DUP2 ADD SWAP1 POP PUSH2 0x3414 JUMP JUMPDEST POP POP JUMP JUMPDEST PUSH1 0x1F DUP3 GT ISZERO PUSH2 0x3476 JUMPI PUSH2 0x3447 DUP2 PUSH2 0x331E JUMP JUMPDEST PUSH2 0x3450 DUP5 PUSH2 0x3330 JUMP JUMPDEST DUP2 ADD PUSH1 0x20 DUP6 LT ISZERO PUSH2 0x345F JUMPI DUP2 SWAP1 POP JUMPDEST PUSH2 0x3473 PUSH2 0x346B DUP6 PUSH2 0x3330 JUMP JUMPDEST DUP4 ADD DUP3 PUSH2 0x3413 JUMP JUMPDEST POP POP JUMPDEST POP POP POP JUMP JUMPDEST PUSH0 DUP3 DUP3 SHR SWAP1 POP SWAP3 SWAP2 POP POP JUMP JUMPDEST PUSH0 PUSH2 0x3496 PUSH0 NOT DUP5 PUSH1 0x8 MUL PUSH2 0x347B JUMP JUMPDEST NOT DUP1 DUP4 AND SWAP2 POP POP SWAP3 SWAP2 POP POP JUMP JUMPDEST PUSH0 PUSH2 0x34AE DUP4 DUP4 PUSH2 0x3487 JUMP JUMPDEST SWAP2 POP DUP3 PUSH1 0x2 MUL DUP3 OR SWAP1 POP SWAP3 SWAP2 POP POP JUMP JUMPDEST PUSH2 0x34C7 DUP3 PUSH2 0x24F5 JUMP JUMPDEST PUSH8 0xFFFFFFFFFFFFFFFF DUP2 GT ISZERO PUSH2 0x34E0 JUMPI PUSH2 0x34DF PUSH2 0x2834 JUMP JUMPDEST JUMPDEST PUSH2 0x34EA DUP3 SLOAD PUSH2 0x304C JUMP JUMPDEST PUSH2 0x34F5 DUP3 DUP3 DUP6 PUSH2 0x3435 JUMP JUMPDEST PUSH0 PUSH1 0x20 SWAP1 POP PUSH1 0x1F DUP4 GT PUSH1 0x1 DUP2 EQ PUSH2 0x3526 JUMPI PUSH0 DUP5 ISZERO PUSH2 0x3514 JUMPI DUP3 DUP8 ADD MLOAD SWAP1 POP JUMPDEST PUSH2 0x351E DUP6 DUP3 PUSH2 0x34A3 JUMP JUMPDEST DUP7 SSTORE POP PUSH2 0x3585 JUMP JUMPDEST PUSH1 0x1F NOT DUP5 AND PUSH2 0x3534 DUP7 PUSH2 0x331E JUMP JUMPDEST PUSH0 JUMPDEST DUP3 DUP2 LT ISZERO PUSH2 0x355B JUMPI DUP5 DUP10 ADD MLOAD DUP3 SSTORE PUSH1 0x1 DUP3 ADD SWAP2 POP PUSH1 0x20 DUP6 ADD SWAP5 POP PUSH1 0x20 DUP2 ADD SWAP1 POP PUSH2 0x3536 JUMP JUMPDEST DUP7 DUP4 LT ISZERO PUSH2 0x3578 JUMPI DUP5 DUP10 ADD MLOAD PUSH2 0x3574 PUSH1 0x1F DUP10 AND DUP3 PUSH2 0x3487 JUMP JUMPDEST DUP4 SSTORE POP JUMPDEST PUSH1 0x1 PUSH1 0x2 DUP9 MUL ADD DUP9 SSTORE POP POP POP JUMPDEST POP POP POP POP POP POP JUMP JUMPDEST PUSH0 PUSH2 0x3597 DUP3 PUSH2 0x24F5 JUMP JUMPDEST PUSH2 0x35A1 DUP2 DUP6 PUSH2 0x2F81 JUMP JUMPDEST SWAP4 POP PUSH2 0x35B1 DUP2 DUP6 PUSH1 0x20 DUP7 ADD PUSH2 0x250F JUMP JUMPDEST PUSH2 0x35BA DUP2 PUSH2 0x251D JUMP JUMPDEST DUP5 ADD SWAP2 POP POP SWAP3 SWAP2 POP POP JUMP JUMPDEST PUSH2 0x35CE DUP2 PUSH2 0x26B7 JUMP JUMPDEST DUP3 MSTORE POP POP JUMP JUMPDEST PUSH0 PUSH1 0x40 DUP3 ADD SWAP1 POP DUP2 DUP2 SUB PUSH0 DUP4 ADD MSTORE PUSH2 0x35EC DUP2 DUP6 PUSH2 0x358D JUMP JUMPDEST SWAP1 POP PUSH2 0x35FB PUSH1 0x20 DUP4 ADD DUP5 PUSH2 0x35C5 JUMP JUMPDEST SWAP4 SWAP3 POP POP POP JUMP JUMPDEST PUSH32 0x4E6F7420617574686F72697A6564000000000000000000000000000000000000 PUSH0 DUP3 ADD MSTORE POP JUMP JUMPDEST PUSH0 PUSH2 0x3636 PUSH1 0xE DUP4 PUSH2 0x2F81 JUMP JUMPDEST SWAP2 POP PUSH2 0x3641 DUP3 PUSH2 0x3602 JUMP JUMPDEST PUSH1 0x20 DUP3 ADD SWAP1 POP SWAP2 SWAP1 POP JUMP JUMPDEST PUSH0 PUSH1 0x20 DUP3 ADD SWAP1 POP DUP2 DUP2 SUB PUSH0 DUP4 ADD MSTORE PUSH2 0x3663 DUP2 PUSH2 0x362A JUMP JUMPDEST SWAP1 POP SWAP2 SWAP1 POP JUMP JUMPDEST PUSH0 PUSH1 0x40 DUP3 ADD SWAP1 POP DUP2 DUP2 SUB PUSH0 DUP4 ADD MSTORE PUSH2 0x3682 DUP2 DUP6 PUSH2 0x358D JUMP JUMPDEST SWAP1 POP PUSH2 0x3691 PUSH1 0x20 DUP4 ADD DUP5 PUSH2 0x27DA JUMP JUMPDEST SWAP4 SWAP3 POP POP POP JUMP JUMPDEST PUSH32 0x4E6F2061637469766520616363657373206772616E7400000000000000000000 PUSH0 DUP3 ADD MSTORE POP JUMP JUMPDEST PUSH0 PUSH2 0x36CC PUSH1 0x16 DUP4 PUSH2 0x2F81 JUMP JUMPDEST SWAP2 POP PUSH2 0x36D7 DUP3 PUSH2 0x3698 JUMP JUMPDEST PUSH1 0x20 DUP3 ADD SWAP1 POP SWAP2 SWAP1 POP JUMP JUMPDEST PUSH0 PUSH1 0x20 DUP3 ADD SWAP1 POP DUP2 DUP2 SUB PUSH0 DUP4 ADD MSTORE PUSH2 0x36F9 DUP2 PUSH2 0x36C0 JUMP JUMPDEST SWAP1 POP SWAP2 SWAP1 POP JUMP JUMPDEST PUSH32 0x496E76616C696420616464726573730000000000000000000000000000000000 PUSH0 DUP3 ADD MSTORE POP JUMP JUMPDEST PUSH0 PUSH2 0x3734 PUSH1 0xF DUP4 PUSH2 0x2F81 JUMP JUMPDEST SWAP2 POP PUSH2 0x373F DUP3 PUSH2 0x3700 JUMP JUMPDEST PUSH1 0x20 DUP3 ADD SWAP1 POP SWAP2 SWAP1 POP JUMP JUMPDEST PUSH0 PUSH1 0x20 DUP3 ADD SWAP1 POP DUP2 DUP2 SUB PUSH0 DUP4 ADD MSTORE PUSH2 0x3761 DUP2 PUSH2 0x3728 JUMP JUMPDEST SWAP1 POP SWAP2 SWAP1 POP JUMP JUMPDEST PUSH32 0x4D757374206772616E742061636365737320746F206174206C65617374206F6E PUSH0 DUP3 ADD MSTORE PUSH32 0x65207265636F7264000000000000000000000000000000000000000000000000 PUSH1 0x20 DUP3 ADD MSTORE POP JUMP JUMPDEST PUSH0 PUSH2 0x37C2 PUSH1 0x28 DUP4 PUSH2 0x2F81 JUMP JUMPDEST SWAP2 POP PUSH2 0x37CD DUP3 PUSH2 0x3768 JUMP JUMPDEST PUSH1 0x40 DUP3 ADD SWAP1 POP SWAP2 SWAP1 POP JUMP JUMPDEST PUSH0 PUSH1 0x20 DUP3 ADD SWAP1 POP DUP2 DUP2 SUB PUSH0 DUP4 ADD MSTORE PUSH2 0x37EF DUP2 PUSH2 0x37B6 JUMP JUMPDEST SWAP1 POP SWAP2 SWAP1 POP JUMP JUMPDEST PUSH32 0x4E487B7100000000000000000000000000000000000000000000000000000000 PUSH0 MSTORE PUSH1 0x32 PUSH1 0x4 MSTORE PUSH1 0x24 PUSH0 REVERT JUMPDEST PUSH32 0x596F7520646F6E2774206F776E20616C6C20737065636966696564207265636F PUSH0 DUP3 ADD MSTORE PUSH32 0x7264730000000000000000000000000000000000000000000000000000000000 PUSH1 0x20 DUP3 ADD MSTORE POP JUMP JUMPDEST PUSH0 PUSH2 0x387D PUSH1 0x23 DUP4 PUSH2 0x2F81 JUMP JUMPDEST SWAP2 POP PUSH2 0x3888 DUP3 PUSH2 0x3823 JUMP JUMPDEST PUSH1 0x40 DUP3 ADD SWAP1 POP SWAP2 SWAP1 POP JUMP JUMPDEST PUSH0 PUSH1 0x20 DUP3 ADD SWAP1 POP DUP2 DUP2 SUB PUSH0 DUP4 ADD MSTORE PUSH2 0x38AA DUP2 PUSH2 0x3871 JUMP JUMPDEST SWAP1 POP SWAP2 SWAP1 POP JUMP JUMPDEST PUSH0 PUSH2 0x38BB DUP3 PUSH2 0x2420 JUMP JUMPDEST SWAP2 POP PUSH2 0x38C6 DUP4 PUSH2 0x2420 JUMP JUMPDEST SWAP3 POP DUP3 DUP3 MUL PUSH2 0x38D4 DUP2 PUSH2 0x2420 JUMP JUMPDEST SWAP2 POP DUP3 DUP3 DIV DUP5 EQ DUP4 ISZERO OR PUSH2 0x38EB JUMPI PUSH2 0x38EA PUSH2 0x32AA JUMP JUMPDEST JUMPDEST POP SWAP3 SWAP2 POP POP JUMP JUMPDEST PUSH0 PUSH2 0x38FC DUP3 PUSH2 0x2420 JUMP JUMPDEST SWAP2 POP PUSH2 0x3907 DUP4 PUSH2 0x2420 JUMP JUMPDEST SWAP3 POP DUP3 DUP3 ADD SWAP1 POP DUP1 DUP3 GT ISZERO PUSH2 0x391F JUMPI PUSH2 0x391E PUSH2 0x32AA JUMP JUMPDEST JUMPDEST SWAP3 SWAP2 POP POP JUMP INVALID LOG2 PUSH5 0x6970667358 0x22 SLT KECCAK256 0xBA 0xAB MSTORE DUP15 0x2B PUSH22 0xD23D2E9103F192CC34802F079804CFF4F6BACE91EC87 0xB6 RETF 0xD2 0xF PUSH5 0x736F6C6343 STOP ADDMOD 0x1E STOP CALLER "
				},
				"gasEstimates": {
					"creation": {
						"codeDepositCost": "2936600",
						"executionCost": "3214",
						"totalCost": "2939814"
					},
					"external": {
						"addRecord(string,uint8,string)": "infinite",
						"addRecordByProvider(address,string,uint8,string)": "infinite",
						"deleteRecord(uint256)": "31569",
						"emergencyContact(address)": "infinite",
						"getAccessGrant(address,address)": "infinite",
						"getAuditLogs(uint256)": "infinite",
						"getPatientRecords(address)": "infinite",
						"getRecord(uint256)": "infinite",
						"getTotalRecords()": "2455",
						"grantAccess(address,uint256[],uint256)": "infinite",
						"hasAccess(address,address,uint256)": "infinite",
						"logAccess(uint256,string)": "infinite",
						"revokeAccess(address)": "28839",
						"setEmergencyContact(address)": "24858",
						"updateRecord(uint256,string,string)": "infinite"
					},
					"internal": {
						"hasGeneralAccess(address,address)": "infinite"
					}
				},
				"methodIdentifiers": {
					"addRecord(string,uint8,string)": "1b6377b8",
					"addRecordByProvider(address,string,uint8,string)": "0e8dce29",
					"deleteRecord(uint256)": "061f9811",
					"emergencyContact(address)": "b4b07a70",
					"getAccessGrant(address,address)": "8b681c7c",
					"getAuditLogs(uint256)": "01b1d324",
					"getPatientRecords(address)": "18bd4847",
					"getRecord(uint256)": "03e9e609",
					"getTotalRecords()": "0aeacb5e",
					"grantAccess(address,uint256[],uint256)": "9399e973",
					"hasAccess(address,address,uint256)": "cf56b4eb",
					"logAccess(uint256,string)": "67502cdf",
					"revokeAccess(address)": "85e68531",
					"setEmergencyContact(address)": "91284a89",
					"updateRecord(uint256,string,string)": "3812c6a8"
				}
			},
			"storageLayout": {
				"storage": [
					{
						"astId": 53,
						"contract": "contracts/HealthWallet.sol:HealthWallet",
						"label": "patientRecords",
						"offset": 0,
						"slot": "0",
						"type": "t_mapping(t_address,t_array(t_uint256)dyn_storage)"
					},
					{
						"astId": 58,
						"contract": "contracts/HealthWallet.sol:HealthWallet",
						"label": "records",
						"offset": 0,
						"slot": "1",
						"type": "t_mapping(t_uint256,t_struct(HealthRecord)29_storage)"
					},
					{
						"astId": 65,
						"contract": "contracts/HealthWallet.sol:HealthWallet",
						"label": "accessGrants",
						"offset": 0,
						"slot": "2",
						"type": "t_mapping(t_address,t_mapping(t_address,t_struct(AccessGrant)41_storage))"
					},
					{
						"astId": 71,
						"contract": "contracts/HealthWallet.sol:HealthWallet",
						"label": "auditLogs",
						"offset": 0,
						"slot": "3",
						"type": "t_mapping(t_uint256,t_array(t_struct(AccessLog)48_storage)dyn_storage)"
					},
					{
						"astId": 75,
						"contract": "contracts/HealthWallet.sol:HealthWallet",
						"label": "emergencyContact",
						"offset": 0,
						"slot": "4",
						"type": "t_mapping(t_address,t_address)"
					},
					{
						"astId": 77,
						"contract": "contracts/HealthWallet.sol:HealthWallet",
						"label": "recordCounter",
						"offset": 0,
						"slot": "5",
						"type": "t_uint256"
					}
				],
				"types": {
					"t_address": {
						"encoding": "inplace",
						"label": "address",
						"numberOfBytes": "20"
					},
					"t_array(t_struct(AccessLog)48_storage)dyn_storage": {
						"base": "t_struct(AccessLog)48_storage",
						"encoding": "dynamic_array",
						"label": "struct HealthWallet.AccessLog[]",
						"numberOfBytes": "32"
					},
					"t_array(t_uint256)dyn_storage": {
						"base": "t_uint256",
						"encoding": "dynamic_array",
						"label": "uint256[]",
						"numberOfBytes": "32"
					},
					"t_bool": {
						"encoding": "inplace",
						"label": "bool",
						"numberOfBytes": "1"
					},
					"t_enum(RecordType)9": {
						"encoding": "inplace",
						"label": "enum HealthWallet.RecordType",
						"numberOfBytes": "1"
					},
					"t_mapping(t_address,t_address)": {
						"encoding": "mapping",
						"key": "t_address",
						"label": "mapping(address => address)",
						"numberOfBytes": "32",
						"value": "t_address"
					},
					"t_mapping(t_address,t_array(t_uint256)dyn_storage)": {
						"encoding": "mapping",
						"key": "t_address",
						"label": "mapping(address => uint256[])",
						"numberOfBytes": "32",
						"value": "t_array(t_uint256)dyn_storage"
					},
					"t_mapping(t_address,t_mapping(t_address,t_struct(AccessGrant)41_storage))": {
						"encoding": "mapping",
						"key": "t_address",
						"label": "mapping(address => mapping(address => struct HealthWallet.AccessGrant))",
						"numberOfBytes": "32",
						"value": "t_mapping(t_address,t_struct(AccessGrant)41_storage)"
					},
					"t_mapping(t_address,t_struct(AccessGrant)41_storage)": {
						"encoding": "mapping",
						"key": "t_address",
						"label": "mapping(address => struct HealthWallet.AccessGrant)",
						"numberOfBytes": "32",
						"value": "t_struct(AccessGrant)41_storage"
					},
					"t_mapping(t_uint256,t_array(t_struct(AccessLog)48_storage)dyn_storage)": {
						"encoding": "mapping",
						"key": "t_uint256",
						"label": "mapping(uint256 => struct HealthWallet.AccessLog[])",
						"numberOfBytes": "32",
						"value": "t_array(t_struct(AccessLog)48_storage)dyn_storage"
					},
					"t_mapping(t_uint256,t_struct(HealthRecord)29_storage)": {
						"encoding": "mapping",
						"key": "t_uint256",
						"label": "mapping(uint256 => struct HealthWallet.HealthRecord)",
						"numberOfBytes": "32",
						"value": "t_struct(HealthRecord)29_storage"
					},
					"t_string_storage": {
						"encoding": "bytes",
						"label": "string",
						"numberOfBytes": "32"
					},
					"t_struct(AccessGrant)41_storage": {
						"encoding": "inplace",
						"label": "struct HealthWallet.AccessGrant",
						"members": [
							{
								"astId": 31,
								"contract": "contracts/HealthWallet.sol:HealthWallet",
								"label": "grantedTo",
								"offset": 0,
								"slot": "0",
								"type": "t_address"
							},
							{
								"astId": 34,
								"contract": "contracts/HealthWallet.sol:HealthWallet",
								"label": "recordIds",
								"offset": 0,
								"slot": "1",
								"type": "t_array(t_uint256)dyn_storage"
							},
							{
								"astId": 36,
								"contract": "contracts/HealthWallet.sol:HealthWallet",
								"label": "expiryTime",
								"offset": 0,
								"slot": "2",
								"type": "t_uint256"
							},
							{
								"astId": 38,
								"contract": "contracts/HealthWallet.sol:HealthWallet",
								"label": "isActive",
								"offset": 0,
								"slot": "3",
								"type": "t_bool"
							},
							{
								"astId": 40,
								"contract": "contracts/HealthWallet.sol:HealthWallet",
								"label": "grantedAt",
								"offset": 0,
								"slot": "4",
								"type": "t_uint256"
							}
						],
						"numberOfBytes": "160"
					},
					"t_struct(AccessLog)48_storage": {
						"encoding": "inplace",
						"label": "struct HealthWallet.AccessLog",
						"members": [
							{
								"astId": 43,
								"contract": "contracts/HealthWallet.sol:HealthWallet",
								"label": "accessor",
								"offset": 0,
								"slot": "0",
								"type": "t_address"
							},
							{
								"astId": 45,
								"contract": "contracts/HealthWallet.sol:HealthWallet",
								"label": "timestamp",
								"offset": 0,
								"slot": "1",
								"type": "t_uint256"
							},
							{
								"astId": 47,
								"contract": "contracts/HealthWallet.sol:HealthWallet",
								"label": "action",
								"offset": 0,
								"slot": "2",
								"type": "t_string_storage"
							}
						],
						"numberOfBytes": "96"
					},
					"t_struct(HealthRecord)29_storage": {
						"encoding": "inplace",
						"label": "struct HealthWallet.HealthRecord",
						"members": [
							{
								"astId": 11,
								"contract": "contracts/HealthWallet.sol:HealthWallet",
								"label": "recordId",
								"offset": 0,
								"slot": "0",
								"type": "t_uint256"
							},
							{
								"astId": 13,
								"contract": "contracts/HealthWallet.sol:HealthWallet",
								"label": "patientAddress",
								"offset": 0,
								"slot": "1",
								"type": "t_address"
							},
							{
								"astId": 15,
								"contract": "contracts/HealthWallet.sol:HealthWallet",
								"label": "ipfsHash",
								"offset": 0,
								"slot": "2",
								"type": "t_string_storage"
							},
							{
								"astId": 18,
								"contract": "contracts/HealthWallet.sol:HealthWallet",
								"label": "recordType",
								"offset": 0,
								"slot": "3",
								"type": "t_enum(RecordType)9"
							},
							{
								"astId": 20,
								"contract": "contracts/HealthWallet.sol:HealthWallet",
								"label": "timestamp",
								"offset": 0,
								"slot": "4",
								"type": "t_uint256"
							},
							{
								"astId": 22,
								"contract": "contracts/HealthWallet.sol:HealthWallet",
								"label": "issuedBy",
								"offset": 0,
								"slot": "5",
								"type": "t_address"
							},
							{
								"astId": 24,
								"contract": "contracts/HealthWallet.sol:HealthWallet",
								"label": "isActive",
								"offset": 20,
								"slot": "5",
								"type": "t_bool"
							},
							{
								"astId": 26,
								"contract": "contracts/HealthWallet.sol:HealthWallet",
								"label": "encryptedKey",
								"offset": 0,
								"slot": "6",
								"type": "t_string_storage"
							},
							{
								"astId": 28,
								"contract": "contracts/HealthWallet.sol:HealthWallet",
								"label": "version",
								"offset": 0,
								"slot": "7",
								"type": "t_uint256"
							}
						],
						"numberOfBytes": "256"
					},
					"t_uint256": {
						"encoding": "inplace",
						"label": "uint256",
						"numberOfBytes": "32"
					}
				}
			},
			"userdoc": {
				"kind": "user",
				"methods": {},
				"version": 1
			}
		}
	}
}