{
	"data": {
		"bytecode": {
			"linkReferences": {},
			"object": "6080604052348015600f57600080fd5b5033600160006101000a81548173ffffffffffffffffffffffffffffffffffffffff021916908373ffffffffffffffffffffffffffffffffffffffff160217905550610375806100606000396000f3fe608060405234801561001057600080fd5b506004361061004c5760003560e01c80635c36b1861461005157806360fe47b11461006f5780636d4ce63c1461008b5780638da5cb5b146100a9575b600080fd5b6100596100c7565b6040516100669190610206565b60405180910390f35b61008960048036038101906100849190610263565b610104565b005b610093610147565b6040516100a0919061029f565b60405180910390f35b6100b1610150565b6040516100be91906102fb565b60405180910390f35b60606040518060400160405280601c81526020017f506f6e672120436f6e6e656374696f6e207375636365737366756c2e00000000815250905090565b806000819055507f77d9004587bb5fc3ad16da094ff026e703fbd97a9d869dc949ed35efc9291283813360405161013c929190610316565b60405180910390a150565b60008054905090565b600160009054906101000a900473ffffffffffffffffffffffffffffffffffffffff1681565b600081519050919050565b600082825260208201905092915050565b60005b838110156101b0578082015181840152602081019050610195565b60008484015250505050565b6000601f19601f8301169050919050565b60006101d882610176565b6101e28185610181565b93506101f2818560208601610192565b6101fb816101bc565b840191505092915050565b6000602082019050818103600083015261022081846101cd565b905092915050565b600080fd5b6000819050919050565b6102408161022d565b811461024b57600080fd5b50565b60008135905061025d81610237565b92915050565b60006020828403121561027957610278610228565b5b60006102878482850161024e565b91505092915050565b6102998161022d565b82525050565b60006020820190506102b46000830184610290565b92915050565b600073ffffffffffffffffffffffffffffffffffffffff82169050919050565b60006102e5826102ba565b9050919050565b6102f5816102da565b82525050565b600060208201905061031060008301846102ec565b92915050565b600060408201905061032b6000830185610290565b61033860208301846102ec565b939250505056fea264697066735822122056ee176ce4d4c045d1c28fee5acc66a55ec27f3c078ef2348f6dd9b76278c65e64736f6c634300081e0033",
			"opcodes": "PUSH1 0x80 PUSH1 0x40 MSTORE CALLVALUE DUP1 ISZERO PUSH1 0xF JUMPI PUSH1 0x0 DUP1 REVERT JUMPDEST POP CALLER PUSH1 0x1 PUSH1 0x0 PUSH2 0x100 EXP DUP2 SLOAD DUP2 PUSH20 0xFFFFFFFFFFFFFFFFFFFFFFFFFFFFFFFFFFFFFFFF MUL NOT AND SWAP1 DUP4 PUSH20 0xFFFFFFFFFFFFFFFFFFFFFFFFFFFFFFFFFFFFFFFF AND MUL OR SWAP1 SSTORE POP PUSH2 0x375 DUP1 PUSH2 0x60 PUSH1 0x0 CODECOPY PUSH1 0x0 RETURN INVALID PUSH1 0x80 PUSH1 0x40 MSTORE CALLVALUE DUP1 ISZERO PUSH2 0x10 JUMPI PUSH1 0x0 DUP1 REVERT JUMPDEST POP PUSH1 0x4 CALLDATASIZE LT PUSH2 0x4C JUMPI PUSH1 0x0 CALLDATALOAD PUSH1 0xE0 SHR DUP1 PUSH4 0x5C36B186 EQ PUSH2 0x51 JUMPI DUP1 PUSH4 0x60FE47B1 EQ PUSH2 0x6F JUMPI DUP1 PUSH4 0x6D4CE63C EQ PUSH2 0x8B JUMPI DUP1 PUSH4 0x8DA5CB5B EQ PUSH2 0xA9 JUMPI JUMPDEST PUSH1 0x0 DUP1 REVERT JUMPDEST PUSH2 0x59 PUSH2 0xC7 JUMP JUMPDEST PUSH1 0x40 MLOAD PUSH2 0x66 SWAP2 SWAP1 PUSH2 0x206 JUMP JUMPDEST PUSH1 0x40 MLOAD DUP1 SWAP2 SUB SWAP1 RETURN JUMPDEST PUSH2 0x89 PUSH1 0x4 DUP1 CALLDATASIZE SUB DUP2 ADD SWAP1 PUSH2 0x84 SWAP2 SWAP1 PUSH2 0x263 JUMP JUMPDEST PUSH2 0x104 JUMP JUMPDEST STOP JUMPDEST PUSH2 0x93 PUSH2 0x147 JUMP JUMPDEST PUSH1 0x40 MLOAD PUSH2 0xA0 SWAP2 SWAP1 PUSH2 0x29F JUMP JUMPDEST PUSH1 0x40 MLOAD DUP1 SWAP2 SUB SWAP1 RETURN JUMPDEST PUSH2 0xB1 PUSH2 0x150 JUMP JUMPDEST PUSH1 0x40 MLOAD PUSH2 0xBE SWAP2 SWAP1 PUSH2 0x2FB JUMP JUMPDEST PUSH1 0x40 MLOAD DUP1 SWAP2 SUB SWAP1 RETURN JUMPDEST PUSH1 0x60 PUSH1 0x40 MLOAD DUP1 PUSH1 0x40 ADD PUSH1 0x40 MSTORE DUP1 PUSH1 0x1C DUP2 MSTORE PUSH1 0x20 ADD PUSH32 0x506F6E672120436F6E6E656374696F6E207375636365737366756C2E00000000 DUP2 MSTORE POP SWAP1 POP SWAP1 JUMP JUMPDEST DUP1 PUSH1 0x0 DUP2 SWAP1 SSTORE POP PUSH32 0x77D9004587BB5FC3AD16DA094FF026E703FBD97A9D869DC949ED35EFC9291283 DUP2 CALLER PUSH1 0x40 MLOAD PUSH2 0x13C SWAP3 SWAP2 SWAP1 PUSH2 0x316 JUMP JUMPDEST PUSH1 0x40 MLOAD DUP1 SWAP2 SUB SWAP1 LOG1 POP JUMP JUMPDEST PUSH1 0x0 DUP1 SLOAD SWAP1 POP SWAP1 JUMP JUMPDEST PUSH1 0x1 PUSH1 0x0 SWAP1 SLOAD SWAP1 PUSH2 0x100 EXP SWAP1 DIV PUSH20 0xFFFFFFFFFFFFFFFFFFFFFFFFFFFFFFFFFFFFFFFF AND DUP2 JUMP JUMPDEST PUSH1 0x0 DUP2 MLOAD SWAP1 POP SWAP2 SWAP1 POP JUMP JUMPDEST PUSH1 0x0 DUP3 DUP3 MSTORE PUSH1 0x20 DUP3 ADD SWAP1 POP SWAP3 SWAP2 POP POP JUMP JUMPDEST PUSH1 0x0 JUMPDEST DUP4 DUP2 LT ISZERO PUSH2 0x1B0 JUMPI DUP1 DUP3 ADD MLOAD DUP2 DUP5 ADD MSTORE PUSH1 0x20 DUP2 ADD SWAP1 POP PUSH2 0x195 JUMP JUMPDEST PUSH1 0x0 DUP5 DUP5 ADD MSTORE POP POP POP POP JUMP JUMPDEST PUSH1 0x0 PUSH1 0x1F NOT PUSH1 0x1F DUP4 ADD AND SWAP1 POP SWAP2 SWAP1 POP JUMP JUMPDEST PUSH1 0x0 PUSH2 0x1D8 DUP3 PUSH2 0x176 JUMP JUMPDEST PUSH2 0x1E2 DUP2 DUP6 PUSH2 0x181 JUMP JUMPDEST SWAP4 POP PUSH2 0x1F2 DUP2 DUP6 PUSH1 0x20 DUP7 ADD PUSH2 0x192 JUMP JUMPDEST PUSH2 0x1FB DUP2 PUSH2 0x1BC JUMP JUMPDEST DUP5 ADD SWAP2 POP POP SWAP3 SWAP2 POP POP JUMP JUMPDEST PUSH1 0x0 PUSH1 0x20 DUP3 ADD SWAP1 POP DUP2 DUP2 SUB PUSH1 0x0 DUP4 ADD MSTORE PUSH2 0x220 DUP2 DUP5 PUSH2 0x1CD JUMP JUMPDEST SWAP1 POP SWAP3 SWAP2 POP POP JUMP JUMPDEST PUSH1 0x0 DUP1 REVERT JUMPDEST PUSH1 0x0 DUP2 SWAP1 POP SWAP2 SWAP1 POP JUMP JUMPDEST PUSH2 0x240 DUP2 PUSH2 0x22D JUMP JUMPDEST DUP2 EQ PUSH2 0x24B JUMPI PUSH1 0x0 DUP1 REVERT JUMPDEST POP JUMP JUMPDEST PUSH1 0x0 DUP2 CALLDATALOAD SWAP1 POP PUSH2 0x25D DUP2 PUSH2 0x237 JUMP JUMPDEST SWAP3 SWAP2 POP POP JUMP JUMPDEST PUSH1 0x0 PUSH1 0x20 DUP3 DUP5 SUB SLT ISZERO PUSH2 0x279 JUMPI PUSH2 0x278 PUSH2 0x228 JUMP JUMPDEST JUMPDEST PUSH1 0x0 PUSH2 0x287 DUP5 DUP3 DUP6 ADD PUSH2 0x24E JUMP JUMPDEST SWAP2 POP POP SWAP3 SWAP2 POP POP JUMP JUMPDEST PUSH2 0x299 DUP2 PUSH2 0x22D JUMP JUMPDEST DUP3 MSTORE POP POP JUMP JUMPDEST PUSH1 0x0 PUSH1 0x20 DUP3 ADD SWAP1 POP PUSH2 0x2B4 PUSH1 0x0 DUP4 ADD DUP5 PUSH2 0x290 JUMP JUMPDEST SWAP3 SWAP2 POP POP JUMP JUMPDEST PUSH1 0x0 PUSH20 0xFFFFFFFFFFFFFFFFFFFFFFFFFFFFFFFFFFFFFFFF DUP3 AND SWAP1 POP SWAP2 SWAP1 POP JUMP JUMPDEST PUSH1 0x0 PUSH2 0x2E5 DUP3 PUSH2 0x2BA JUMP JUMPDEST SWAP1 POP SWAP2 SWAP1 POP JUMP JUMPDEST PUSH2 0x2F5 DUP2 PUSH2 0x2DA JUMP JUMPDEST DUP3 MSTORE POP POP JUMP JUMPDEST PUSH1 0x0 PUSH1 0x20 DUP3 ADD SWAP1 POP PUSH2 0x310 PUSH1 0x0 DUP4 ADD DUP5 PUSH2 0x2EC JUMP JUMPDEST SWAP3 SWAP2 POP POP JUMP JUMPDEST PUSH1 0x0 PUSH1 0x40 DUP3 ADD SWAP1 POP PUSH2 0x32B PUSH1 0x0 DUP4 ADD DUP6 PUSH2 0x290 JUMP JUMPDEST PUSH2 0x338 PUSH1 0x20 DUP4 ADD DUP5 PUSH2 0x2EC JUMP JUMPDEST SWAP4 SWAP3 POP POP POP JUMP INVALID LOG2 PUSH5 0x6970667358 0x22 SLT KECCAK256 JUMP RETURNCONTRACT 0x17 PUSH13 0xE4D4C045D1C28FEE5ACC66A55E 0xC2 PUSH32 0x3C078EF2348F6DD9B76278C65E64736F6C634300081E00330000000000000000 "
		},
		"gasEstimates": {
			"creation": {
				"codeDepositCost": "177000",
				"executionCost": "24486",
				"totalCost": "201486"
			},
			"external": {
				"get()": "2459",
				"owner()": "2558",
				"ping()": "infinite",
				"set(uint256)": "infinite"
			}
		},
		"methodIdentifiers": {
			"get()": "6d4ce63c",
			"owner()": "8da5cb5b",
			"ping()": "5c36b186",
			"set(uint256)": "60fe47b1"
		}
	},
	"abi": [
		{
			"inputs": [],
			"stateMutability": "nonpayable",
			"type": "constructor"
		},
		{
			"anonymous": false,
			"inputs": [
				{
					"indexed": false,
					"internalType": "uint256",
					"name": "newValue",
					"type": "uint256"
				},
				{
					"indexed": false,
					"internalType": "address",
					"name": "updater",
					"type": "address"
				}
			],
			"name": "DataUpdated",
			"type": "event"
		},
		{
			"inputs": [],
			"name": "get",
			"outputs": [
				{
					"internalType": "uint256",
					"name": "",
					"type": "uint256"
				}
			],
			"stateMutability": "view",
			"type": "function"
		},
		{
			"inputs": [],
			"name": "owner",
			"outputs": [
				{
					"internalType": "address",
					"name": "",
					"type": "address"
				}
			],
			"stateMutability": "view",
			"type": "function"
		},
		{
			"inputs": [],
			"name": "ping",
			"outputs": [
				{
					"internalType": "string",
					"name": "",
					"type": "string"
				}
			],
			"stateMutability": "pure",
			"type": "function"
		},
		{
			"inputs": [
				{
					"internalType": "uint256",
					"name": "_newValue",
					"type": "uint256"
				}
			],
			"name": "set",
			"outputs": [],
			"stateMutability": "nonpayable",
			"type": "function"
		}
	]
}