{
	"data": {
		"bytecode": {
			"linkReferences": {},
			"object": "608060405234801561001057600080fd5b50338061003757604051631e4fbdf760e01b81526000600482015260240160405180910390fd5b61004081610057565b5060016002556100516000336100a7565b5061013c565b600080546001600160a01b038381166001600160a01b0319831681178455604051919092169283917f8be0079c531659141344cd1fd0a4f28419497f9722a3daafe3b4186f6b6457e09190a35050565b60008281526001602090815260408083206001600160a01b038516845290915281205460ff166101325760008381526001602081815260408084206001600160a01b0387168086529252808420805460ff19169093179092559051339286917f2f8788117e7eff1d82e926ec794901d17c78024a50270940304540a733656f0d9190a4506001610136565b5060005b92915050565b613f858061014b6000396000f3fe608060405234801561001057600080fd5b506004361061023b5760003560e01c806301ffc9a7146102405780630402e73514610268578063045af3341461028b578063052a01f6146102c257806318b98101146102d7578063248a9ca3146102f75780632c81df051461030a5780632f2ff15d146103435780632f4afbad1461035657806336568abe146103695780633f4ba83a1461037c578063420b23a21461038457806348def2f7146103975780634adbe62c146103aa57806350038737146103ca5780635c975abb146103dd578063627e86f2146103e8578063685d5b8b146104085780636e1d616e14610428578063715018a61461043d5780637e0ecee0146104455780637e14f8cd1461045857806382673e771461046b5780638456cb591461048057806386c4aea2146104885780638939f8981461049b5780638da5cb5b146104ae57806391284a89146104b657806391d14854146104c9578063a217fddf146104dc578063a4fbb117146104e4578063a65b27db146104f7578063aa361c281461050a578063aa83f4d81461052a578063b3568f321461053d578063b752a74b14610550578063b85d4af014610565578063c5b9985814610578578063d3e5ec4b1461058b578063d547741f1461059e578063df015dc1146105b1578063df9a4f56146105c4578063e653d375146105d7578063e7069c13146105f7578063ee67e73d1461060a578063f17245f91461062a578063f2fde38b14610659578063f6871d9e1461066c578063f6ba66781461067f575b600080fd5b61025361024e366004613178565b610694565b60405190151581526020015b60405180910390f35b61027d600080516020613e9083398151915281565b60405190815260200161025f565b600454600554600654600754600854604080519586526020860194909452928401919091526060830152608082015260a00161025f565b6102d56102d03660046131be565b6106cb565b005b6102ea6102e53660046131be565b610731565b60405161025f91906131d9565b61027d61030536600461321c565b610802565b6103366103183660046131be565b6001600160a01b039081166000908152601960205260409020541690565b60405161025f9190613235565b6102d5610351366004613249565b610818565b6102ea6103643660046131be565b61083a565b6102d5610377366004613249565b610900565b6102d5610938565b61027d610392366004613328565b61094e565b61027d6103a5366004613393565b610ab4565b6103bd6103b836600461321c565b610ca8565b60405161025f919061343e565b6102d56103d836600461321c565b610e39565b60035460ff16610253565b6103fb6103f636600461321c565b610ec5565b60405161025f919061349a565b61041b61041636600461321c565b6110c6565b60405161025f9190613528565b61027d600080516020613ef083398151915281565b6102d561123d565b6102d56104533660046131be565b611251565b61027d610466366004613593565b6112ab565b61027d600080516020613f1083398151915281565b6102d56113fe565b6102d5610496366004613604565b611411565b61027d6104a936600461368b565b6114c8565b6103366116a9565b6102d56104c43660046131be565b6116b8565b6102536104d7366004613249565b611735565b61027d600081565b61027d6104f2366004613755565b611760565b6102d5610505366004613818565b611ab1565b61051d61051836600461321c565b611b71565b60405161025f91906138a0565b6102ea6105383660046131be565b611e84565b6102d561054b3660046131be565b611f36565b61027d600080516020613ed083398151915281565b6102ea6105733660046131be565b611f90565b6102d56105863660046131be565b612040565b6102d561059936600461397a565b61209a565b6102d56105ac366004613249565b6121a4565b6102ea6105bf3660046131be565b6121c0565b6102d56105d23660046131be565b612286565b6105ea6105e536600461321c565b6122e0565b60405161025f9190613a50565b6102d5610605366004613ae9565b612594565b61061d6106183660046131be565b612721565b60405161025f9190613b59565b6102536106383660046131be565b6001600160a01b031660009081526009602052604090206004015460ff1690565b6102d56106673660046131be565b612990565b6102d561067a366004613bbc565b6129cb565b61027d600080516020613f3083398151915281565b60006001600160e01b03198216637965db0b60e01b14806106c557506301ffc9a760e01b6001600160e01b03198316145b92915050565b60006106d681612a28565b6106ee600080516020613e9083398151915283610818565b816001600160a01b0316600080516020613eb0833981519152600080516020613e9083398151915260405161072591815260200190565b60405180910390a25050565b6060816003336001600160a01b03831614806107535750610753823383612a32565b806107715750610771600080516020613ef083398151915233611735565b6107965760405162461bcd60e51b815260040161078d90613be6565b60405180910390fd5b6001600160a01b0384166000908152600e6020908152604091829020805483518184028101840190945280845290918301828280156107f457602002820191906000526020600020905b8154815260200190600101908083116107e0575b505050505092505050919050565b6000908152600160208190526040909120015490565b61082182610802565b61082a81612a28565b6108348383612df1565b50505050565b6060816002336001600160a01b038316148061085c575061085c823383612a32565b8061087a575061087a600080516020613ef083398151915233611735565b6108965760405162461bcd60e51b815260040161078d90613be6565b6001600160a01b0384166000908152600c6020908152604091829020805483518184028101840190945280845290918301828280156107f457602002820191906000526020600020908154815260200190600101908083116107e057505050505092505050919050565b6001600160a01b03811633146109295760405163334bd91960e11b815260040160405180910390fd5b6109338282612e6a565b505050565b600061094381612a28565b61094b612ed7565b50565b6000610958612f23565b3360009081526009602052604090206004015460ff1661098a5760405162461bcd60e51b815260040161078d90613c09565b6004805490600061099a83613c2a565b90915550506004546040805160c08101825282815260208082018981528815158385015260608301889052608083018790524260a08401526000858152600b90925292902081518155915190919060018201906109f79082613cd9565b5060408281015160028301805460ff1916911515919091179055606083015160038301556080830151600483015560a0909201516005909101556000828152601460209081528282208054336001600160a01b03199091168117909155808352600a82528383208054600181018255908452919092200183905590518291907fb9e5855c05b4297baf0b4f6174bd05a6bd6d2e22a10a228d364b4350dcee191890610aa3908a90613d97565b60405180910390a395945050505050565b6000610abe612f23565b336001600160a01b0386161480610adb5750610adb853385612a32565b80610af95750610af9600080516020613ef083398151915233611735565b610b355760405162461bcd60e51b815260206004820152600d60248201526c2737903832b936b4b9b9b4b7b760991b604482015260640161078d565b60088054906000610b4583613c2a565b90915550506008546040805160c08101825282815233602082015290810186905260608101856004811115610b7c57610b7c6134fe565b815242602080830191909152604091820186905260008481526013825282902083518155908301516001820180546001600160a01b0319166001600160a01b03909216919091179055908201516002820190610bd89082613cd9565b50606082015160038201805460ff19166001836004811115610bfc57610bfc6134fe565b02179055506080820151600482015560a090910151600590910155600081815260186020908152604080832080546001600160a01b0319166001600160a01b038b169081179091558084526012835281842080546001810182559085529290932090910183905551829133917fcc936e965cb312f996247a9f5c0929b57c3078f4d25f38c1e1fa8171238e54a790610c979089904290613daa565b60405180910390a495945050505050565b610ce36040518060c0016040528060008152602001606081526020016000151581526020016000815260200160008152602001600081525090565b6000828152601460205260409020546001600160a01b031633811480610d105750610d1081336001612a32565b80610d2e5750610d2e600080516020613ef083398151915233611735565b610d4a5760405162461bcd60e51b815260040161078d90613be6565b600b60008481526020019081526020016000206040518060c001604052908160008201548152602001600182018054610d8290613c51565b80601f0160208091040260200160405190810160405280929190818152602001828054610dae90613c51565b8015610dfb5780601f10610dd057610100808354040283529160200191610dfb565b820191906000526020600020905b815481529060010190602001808311610dde57829003601f168201915b5050509183525050600282015460ff161515602082015260038201546040820152600482015460608201526005909101546080909101529392505050565b610e41612f23565b60008181526017602052604090205481906001600160a01b03163314610e795760405162461bcd60e51b815260040161078d90613dc5565b600082815260116020526040808220600701805461ff00191661020017905551839133917fecc5422bdbc6a29eb33382a149718b65f504d9ebfc6aa2d2b142bcc6ad837a6b9190a35050565b610ef76040518060a0016040528060008152602001606081526020016060815260200160008152602001600081525090565b6000828152601560205260409020546001600160a01b031633811480610f245750610f2481336002612a32565b80610f425750610f42600080516020613ef083398151915233611735565b610f5e5760405162461bcd60e51b815260040161078d90613be6565b600d60008481526020019081526020016000206040518060a001604052908160008201548152602001600182018054610f9690613c51565b80601f0160208091040260200160405190810160405280929190818152602001828054610fc290613c51565b801561100f5780601f10610fe45761010080835404028352916020019161100f565b820191906000526020600020905b815481529060010190602001808311610ff257829003601f168201915b5050505050815260200160028201805461102890613c51565b80601f016020809104026020016040519081016040528092919081815260200182805461105490613c51565b80156110a15780601f10611076576101008083540402835291602001916110a1565b820191906000526020600020905b81548152906001019060200180831161108457829003601f168201915b5050505050815260200160038201548152602001600482015481525050915050919050565b6110ce613066565b6000828152601860205260409020546001600160a01b0316338114806111075750611107600080516020613ef083398151915233611735565b6111235760405162461bcd60e51b815260040161078d90613de8565b600083815260136020908152604091829020825160c0810184528154815260018201546001600160a01b031692810192909252600281018054929391929184019161116d90613c51565b80601f016020809104026020016040519081016040528092919081815260200182805461119990613c51565b80156111e65780601f106111bb576101008083540402835291602001916111e6565b820191906000526020600020905b8154815290600101906020018083116111c957829003601f168201915b5050509183525050600382015460209091019060ff16600481111561120d5761120d6134fe565b600481111561121e5761121e6134fe565b8152600482015460208201526005909101546040909101529392505050565b611245612f47565b61124f6000612f79565b565b600061125c81612a28565b611274600080516020613ed083398151915283610818565b816001600160a01b0316600080516020613eb0833981519152600080516020613ed083398151915260405161072591815260200190565b60006112b5612f23565b3360009081526009602052604090206004015460ff166112e75760405162461bcd60e51b815260040161078d90613c09565b600580549060006112f783613c2a565b90915550506005546040805160a0810182528281526020808201888152828401889052606083018790524260808401526000858152600d909252929020815181559151909190600182019061134c9082613cd9565b50604082015160028201906113619082613cd9565b5060608201516003820155608090910151600490910155600081815260156020908152604080832080546001600160a01b03191633908117909155808452600c8352818420805460018101825590855292909320909101839055518291907f248b56445b6b2964c05eb68404feebe918d6d28de7f6386fc4cabb9e0b70d500906113ec908990613d97565b60405180910390a390505b9392505050565b600061140981612a28565b61094b612fc9565b611419612f23565b60008481526015602052604090205484906001600160a01b031633146114515760405162461bcd60e51b815260040161078d90613dc5565b6000858152600d602052604090206001810161146d8682613cd9565b506002810161147c8582613cd9565b5060038101839055604051869033907f44f08082ef5253266e365753c1e7cea2b4bb2025062f0cf4e2288fc811d941c8906114b8908990613d97565b60405180910390a3505050505050565b60006114d2612f23565b3360009081526009602052604090206004015460ff166115045760405162461bcd60e51b815260040161078d90613c09565b6006805490600061151483613c2a565b919050555060006006549050604051806101000160405280828152602001898152602001888152602001876007811115611550576115506134fe565b8152861515602080830191909152604080830188905242606084015260809092018690526000848152600f825291909120825181559082015160018201906115989082613cd9565b50604082015160028201906115ad9082613cd9565b50606082015160038201805460ff191660018360078111156115d1576115d16134fe565b021790555060808201516003820180549115156101000261ff001990921691909117905560a0820151600482015560c0820151600582015560e0820151600682019061161d9082613cd9565b505050600081815260166020908152604080832080546001600160a01b03191633908117909155808452600e8352818420805460018101825590855292909320909101839055518291907f7e2ac09f9bde6130ff92917c5d2cc031afbba4154566e196417aa56eb041679390611696908a908d90613e09565b60405180910390a3979650505050505050565b6000546001600160a01b031690565b6001600160a01b0381166116de5760405162461bcd60e51b815260040161078d90613e31565b3360008181526019602052604080822080546001600160a01b0319166001600160a01b03861690811790915590519092917ff0e65fe0d2436800e6455b857dbfbc38741836ade6b9bf9b8177b377317c1d5e91a350565b60009182526001602090815260408084206001600160a01b0393909316845291905290205460ff1690565b600061176a612f23565b3360009081526009602052604090206004015460ff1661179c5760405162461bcd60e51b815260040161078d90613c09565b6001600160a01b0389166117c25760405162461bcd60e51b815260040161078d90613e31565b336001600160a01b038a160361180a5760405162461bcd60e51b815260206004820152600d60248201526c4e6f2073656c662d736861726560981b604482015260640161078d565b42841161184a5760405162461bcd60e51b815260206004820152600e60248201526d496e76616c69642065787069727960901b604482015260640161078d565b6007805490600061185a83613c2a565b9190505550600060075490506040518061016001604052808281526020018b6001600160a01b031681526020018a81526020018981526020018860068111156118a5576118a56134fe565b81526020018760048111156118bc576118bc6134fe565b81526020014281526020018681526020018560028111156118df576118df6134fe565b815260200160008152602090810185905260008381526011825260409081902083518155918301516001830180546001600160a01b0319166001600160a01b039092169190911790558201516002820155606082015160038201906119449082613cd9565b50608082015160048201805460ff19166001836006811115611968576119686134fe565b021790555060a08201518160040160016101000a81548160ff02191690836004811115611997576119976134fe565b021790555060c0820151600582015560e0820151600682015561010082015160078201805460ff191660018360028111156119d4576119d46134fe565b021790555061012082015160078201805461ff0019166101008360028111156119ff576119ff6134fe565b02179055506101408201516008820190611a199082613cd9565b505050600081815260176020908152604080832080546001600160a01b03191633908117909155808452601083528184208054600181018255908552929093209091018390555182916001600160a01b038d16917f0a659897907550ad23df4acc58af8f2928fb8c5f64323d619580011b039a864990611a9c908b908b90613daa565b60405180910390a49998505050505050505050565b611ab9612f23565b60008581526014602052604090205485906001600160a01b03163314611af15760405162461bcd60e51b815260040161078d90613dc5565b6000868152600b6020526040902060018101611b0d8782613cd9565b5060028101805460ff19168615151790556003810184905560048101839055604051879033907f4d3508c2ade1f9d136f8852a5ed95ace66534d58ab56c35dd69e8ae6ecc8a71190611b60908a90613d97565b60405180910390a350505050505050565b611b796130b6565b6000828152601760205260409020546001600160a01b031633811480611bb857506000838152601160205260409020600101546001600160a01b031633145b80611bd65750611bd6600080516020613ef083398151915233611735565b611bf25760405162461bcd60e51b815260040161078d90613de8565b60008381526011602090815260408083208151610160810183528154815260018201546001600160a01b031693810193909352600281015491830191909152600381018054606084019190611c4690613c51565b80601f0160208091040260200160405190810160405280929190818152602001828054611c7290613c51565b8015611cbf5780601f10611c9457610100808354040283529160200191611cbf565b820191906000526020600020905b815481529060010190602001808311611ca257829003601f168201915b5050509183525050600482015460209091019060ff166006811115611ce657611ce66134fe565b6006811115611cf757611cf76134fe565b81526020016004820160019054906101000a900460ff166004811115611d1f57611d1f6134fe565b6004811115611d3057611d306134fe565b81526005820154602082015260068201546040820152600782015460609091019060ff166002811115611d6557611d656134fe565b6002811115611d7657611d766134fe565b81526020016007820160019054906101000a900460ff166002811115611d9e57611d9e6134fe565b6002811115611daf57611daf6134fe565b8152602001600882018054611dc390613c51565b80601f0160208091040260200160405190810160405280929190818152602001828054611def90613c51565b8015611e3c5780601f10611e1157610100808354040283529160200191611e3c565b820191906000526020600020905b815481529060010190602001808311611e1f57829003601f168201915b50505050508152505090508060e0015142118015611e70575060008161012001516002811115611e6e57611e6e6134fe565b145b156113f75760016101208201529392505050565b6060336001600160a01b0383161480611eb05750611eb0600080516020613ef083398151915233611735565b611ecc5760405162461bcd60e51b815260040161078d90613de8565b6001600160a01b03821660009081526010602090815260409182902080548351818402810184019094528084529091830182828015611f2a57602002820191906000526020600020905b815481526020019060010190808311611f16575b50505050509050919050565b6000611f4181612a28565b611f59600080516020613f1083398151915283610818565b816001600160a01b0316600080516020613eb0833981519152600080516020613f1083398151915260405161072591815260200190565b6060336001600160a01b0383161480611fbc5750611fbc600080516020613ef083398151915233611735565b611fd85760405162461bcd60e51b815260040161078d90613de8565b6001600160a01b03821660009081526012602090815260409182902080548351818402810184019094528084529091830182828015611f2a5760200282019190600052602060002090815481526020019060010190808311611f165750505050509050919050565b600061204b81612a28565b612063600080516020613f3083398151915283610818565b816001600160a01b0316600080516020613eb0833981519152600080516020613f3083398151915260405161072591815260200190565b6120a2612f23565b60008781526016602052604090205487906001600160a01b031633146120da5760405162461bcd60e51b815260040161078d90613dc5565b6000888152600f60205260409020600181016120f68982613cd9565b50600281016121058882613cd9565b5060038101805487919060ff19166001836007811115612127576121276134fe565b021790555060038101805461ff0019166101008715150217905560048101849055600681016121568482613cd9565b5088336001600160a01b03167f0194f475ed1a7936bc502c5f68be59ab8b4e5ef3adc105d56862f112b1547f258a6040516121919190613d97565b60405180910390a3505050505050505050565b6121ad82610802565b6121b681612a28565b6108348383612e6a565b6060816001336001600160a01b03831614806121e257506121e2823383612a32565b806122005750612200600080516020613ef083398151915233611735565b61221c5760405162461bcd60e51b815260040161078d90613be6565b6001600160a01b0384166000908152600a6020908152604091829020805483518184028101840190945280845290918301828280156107f457602002820191906000526020600020908154815260200190600101908083116107e057505050505092505050919050565b600061229181612a28565b6122a9600080516020613ef083398151915283610818565b816001600160a01b0316600080516020613eb0833981519152600080516020613ef083398151915260405161072591815260200190565b6122e8613120565b6000828152601660205260409020546001600160a01b031633811480612315575061231581336003612a32565b806123335750612333600080516020613ef083398151915233611735565b61234f5760405162461bcd60e51b815260040161078d90613be6565b600f6000848152602001908152602001600020604051806101000160405290816000820154815260200160018201805461238890613c51565b80601f01602080910402602001604051908101604052809291908181526020018280546123b490613c51565b80156124015780601f106123d657610100808354040283529160200191612401565b820191906000526020600020905b8154815290600101906020018083116123e457829003601f168201915b5050505050815260200160028201805461241a90613c51565b80601f016020809104026020016040519081016040528092919081815260200182805461244690613c51565b80156124935780601f1061246857610100808354040283529160200191612493565b820191906000526020600020905b81548152906001019060200180831161247657829003601f168201915b5050509183525050600382015460209091019060ff1660078111156124ba576124ba6134fe565b60078111156124cb576124cb6134fe565b81526003820154610100900460ff1615156020820152600482015460408201526005820154606082015260068201805460809092019161250a90613c51565b80601f016020809104026020016040519081016040528092919081815260200182805461253690613c51565b80156125835780601f1061255857610100808354040283529160200191612583565b820191906000526020600020905b81548152906001019060200180831161256657829003601f168201915b505050505081525050915050919050565b61259c612f23565b3360009081526009602052604090206004015460ff16158015612694576040805160c08101825285815260208082018690524282840181905260608301526001608083015260a08201859052336000908152600990915291909120815181906126059082613cd9565b50602082015160018201556040820151600282015560608201516003820155608082015160048201805460ff191691151591909117905560a082015160058201906126509082613cd9565b50506040513391507f5df23ea22902b85acdb8170e942605ab253b9f31accc498d0a7c3a43d300c675906126879087904290613e57565b60405180910390a2610834565b3360009081526009602052604090206126ad8582613cd9565b50336000908152600960205260409020600181018490554260038201556005016126d78382613cd9565b50336001600160a01b03167f4bb993e40976c9f9359a7e8001431c7b30c1645654767bfd93570c6795ab5abd8542604051612713929190613e57565b60405180910390a250505050565b61275f6040518060c0016040528060608152602001600080191681526020016000815260200160008152602001600015158152602001606081525090565b816000336001600160a01b038316148061277f575061277f823383612a32565b8061279d575061279d600080516020613ef083398151915233611735565b6127b95760405162461bcd60e51b815260040161078d90613be6565b6001600160a01b03841660009081526009602052604090206004015460ff166128105760405162461bcd60e51b8152602060048201526009602482015268139bdd08199bdd5b9960ba1b604482015260640161078d565b6001600160a01b03841660009081526009602052604090819020815160c0810190925280548290829061284290613c51565b80601f016020809104026020016040519081016040528092919081815260200182805461286e90613c51565b80156128bb5780601f10612890576101008083540402835291602001916128bb565b820191906000526020600020905b81548152906001019060200180831161289e57829003601f168201915b5050509183525050600182015460208201526002820154604082015260038201546060820152600482015460ff161515608082015260058201805460a09092019161290590613c51565b80601f016020809104026020016040519081016040528092919081815260200182805461293190613c51565b801561297e5780601f106129535761010080835404028352916020019161297e565b820191906000526020600020905b81548152906001019060200180831161296157829003601f168201915b50505050508152505092505050919050565b612998612f47565b6001600160a01b0381166129c2576000604051631e4fbdf760e01b815260040161078d9190613235565b61094b81612f79565b60006129d681612a28565b6129e082846121a4565b826001600160a01b03167f2ec6b3b60cf0b79d925a613d31f267dfa6bbe1350819a7785767e183bfb3d87f83604051612a1b91815260200190565b60405180910390a2505050565b61094b8133613006565b6001600160a01b038316600090815260106020908152604080832080548251818502810185019093528083528493830182828015612a8f57602002820191906000526020600020905b815481526020019060010190808311612a7b575b5050505050905060005b8151811015612de557600060116000848481518110612aba57612aba613e79565b6020026020010151815260200190815260200160002060405180610160016040529081600082015481526020016001820160009054906101000a90046001600160a01b03166001600160a01b03166001600160a01b0316815260200160028201548152602001600382018054612b2f90613c51565b80601f0160208091040260200160405190810160405280929190818152602001828054612b5b90613c51565b8015612ba85780601f10612b7d57610100808354040283529160200191612ba8565b820191906000526020600020905b815481529060010190602001808311612b8b57829003601f168201915b5050509183525050600482015460209091019060ff166006811115612bcf57612bcf6134fe565b6006811115612be057612be06134fe565b81526020016004820160019054906101000a900460ff166004811115612c0857612c086134fe565b6004811115612c1957612c196134fe565b81526005820154602082015260068201546040820152600782015460609091019060ff166002811115612c4e57612c4e6134fe565b6002811115612c5f57612c5f6134fe565b81526020016007820160019054906101000a900460ff166002811115612c8757612c876134fe565b6002811115612c9857612c986134fe565b8152602001600882018054612cac90613c51565b80601f0160208091040260200160405190810160405280929190818152602001828054612cd890613c51565b8015612d255780601f10612cfa57610100808354040283529160200191612d25565b820191906000526020600020905b815481529060010190602001808311612d0857829003601f168201915b5050505050815250509050856001600160a01b031681602001516001600160a01b0316148015612d6b575060008161012001516002811115612d6957612d696134fe565b145b8015612d7b57508060e001514211155b8015612dcb5750846004811115612d9457612d946134fe565b8160a001516004811115612daa57612daa6134fe565b1480612dcb575060048160a001516004811115612dc957612dc96134fe565b145b15612ddc57600193505050506113f7565b50600101612a99565b50600095945050505050565b6000612dfd8383611735565b612e625760008381526001602081815260408084206001600160a01b0387168086529252808420805460ff19169093179092559051339286917f2f8788117e7eff1d82e926ec794901d17c78024a50270940304540a733656f0d9190a45060016106c5565b5060006106c5565b6000612e768383611735565b15612e625760008381526001602090815260408083206001600160a01b0386168085529252808320805460ff1916905551339286917ff6391f5c32d9c69d2a47ea670b442974b53935d1edc7fd64eb21e047a839171b9190a45060016106c5565b612edf613043565b6003805460ff191690557f5db9ee0a495bf2e6ff9c91a7834c1ba4fdd244a5e8aa4e537bd38aeae4b073aa335b604051612f199190613235565b60405180910390a1565b60035460ff161561124f5760405163d93c066560e01b815260040160405180910390fd5b33612f506116a9565b6001600160a01b03161461124f573360405163118cdaa760e01b815260040161078d9190613235565b600080546001600160a01b038381166001600160a01b0319831681178455604051919092169283917f8be0079c531659141344cd1fd0a4f28419497f9722a3daafe3b4186f6b6457e09190a35050565b612fd1612f23565b6003805460ff191660011790557f62e78cea01bee320cd4e420270b5ea74000d11b0c9f74754ebdbfc544b05a258612f0c3390565b6130108282611735565b61303f5760405163e2517d3f60e01b81526001600160a01b03821660048201526024810183905260440161078d565b5050565b60035460ff1661124f57604051638dfc202b60e01b815260040160405180910390fd5b6040518060c001604052806000815260200160006001600160a01b0316815260200160608152602001600060048111156130a2576130a26134fe565b815260006020820181905260409091015290565b604080516101608101825260008082526020820181905291810182905260608082015290608082019081526020016000815260200160008152602001600081526020016000600281111561310c5761310c6134fe565b815260200160008152602001606081525090565b60405180610100016040528060008152602001606081526020016060815260200160006007811115613154576131546134fe565b81526020016000151581526020016000815260200160008152602001606081525090565b60006020828403121561318a57600080fd5b81356001600160e01b0319811681146113f757600080fd5b80356001600160a01b03811681146131b957600080fd5b919050565b6000602082840312156131d057600080fd5b6113f7826131a2565b602080825282518282018190526000918401906040840190835b818110156132115783518352602093840193909201916001016131f3565b509095945050505050565b60006020828403121561322e57600080fd5b5035919050565b6001600160a01b0391909116815260200190565b6000806040838503121561325c57600080fd5b8235915061326c602084016131a2565b90509250929050565b634e487b7160e01b600052604160045260246000fd5b600082601f83011261329c57600080fd5b81356001600160401b038111156132b5576132b5613275565b604051601f8201601f19908116603f011681016001600160401b03811182821017156132e3576132e3613275565b6040528181528382016020018510156132fb57600080fd5b816020850160208301376000918101602001919091529392505050565b803580151581146131b957600080fd5b6000806000806080858703121561333e57600080fd5b84356001600160401b0381111561335457600080fd5b6133608782880161328b565b94505061336f60208601613318565b93969395505050506040820135916060013590565b8035600581106131b957600080fd5b600080600080608085870312156133a957600080fd5b6133b2856131a2565b935060208501356001600160401b038111156133cd57600080fd5b6133d98782880161328b565b9350506133e860408601613384565b9396929550929360600135925050565b6000815180845260005b8181101561341e57602081850181015186830182015201613402565b506000602082860101526020601f19601f83011685010191505092915050565b60208152815160208201526000602083015160c0604084015261346460e08401826133f8565b905060408401511515606084015260608401516080840152608084015160a084015260a084015160c08401528091505092915050565b60208152815160208201526000602083015160a060408401526134c060c08401826133f8565b90506040840151601f198483030160608501526134dd82826133f8565b91505060608401516080840152608084015160a08401528091505092915050565b634e487b7160e01b600052602160045260246000fd5b60058110613524576135246134fe565b9052565b602081528151602082015260018060a01b0360208301511660408201526000604083015160c0606084015261356060e08401826133f8565b905060608401516135746080850182613514565b50608084015160a084015260a084015160c08401528091505092915050565b6000806000606084860312156135a857600080fd5b83356001600160401b038111156135be57600080fd5b6135ca8682870161328b565b93505060208401356001600160401b038111156135e657600080fd5b6135f28682870161328b565b93969395505050506040919091013590565b6000806000806080858703121561361a57600080fd5b8435935060208501356001600160401b0381111561363757600080fd5b6136438782880161328b565b93505060408501356001600160401b0381111561365f57600080fd5b61366b8782880161328b565b949793965093946060013593505050565b8035600881106131b957600080fd5b60008060008060008060c087890312156136a457600080fd5b86356001600160401b038111156136ba57600080fd5b6136c689828a0161328b565b96505060208701356001600160401b038111156136e257600080fd5b6136ee89828a0161328b565b9550506136fd6040880161367c565b935061370b60608801613318565b92506080870135915060a08701356001600160401b0381111561372d57600080fd5b61373989828a0161328b565b9150509295509295509295565b8035600381106131b957600080fd5b600080600080600080600080610100898b03121561377257600080fd5b61377b896131a2565b97506020890135965060408901356001600160401b0381111561379d57600080fd5b6137a98b828c0161328b565b9650506060890135600781106137be57600080fd5b94506137cc60808a01613384565b935060a089013592506137e160c08a01613746565b915060e08901356001600160401b038111156137fc57600080fd5b6138088b828c0161328b565b9150509295985092959890939650565b600080600080600060a0868803121561383057600080fd5b8535945060208601356001600160401b0381111561384d57600080fd5b6138598882890161328b565b94505061386860408701613318565b94979396509394606081013594506080013592915050565b60078110613524576135246134fe565b60038110613524576135246134fe565b6020815281516020820152600060208301516138c760408401826001600160a01b03169052565b5060408301516060830152606083015161016060808401526138ed6101808401826133f8565b9050608084015161390160a0850182613880565b5060a084015161391460c0850182613514565b5060c084015160e084015260e084015161010084015261010084015161393e610120850182613890565b50610120840151613953610140850182613890565b50610140840151838203601f190161016085015261397182826133f8565b95945050505050565b600080600080600080600060e0888a03121561399557600080fd5b8735965060208801356001600160401b038111156139b257600080fd5b6139be8a828b0161328b565b96505060408801356001600160401b038111156139da57600080fd5b6139e68a828b0161328b565b9550506139f56060890161367c565b9350613a0360808901613318565b925060a0880135915060c08801356001600160401b03811115613a2557600080fd5b613a318a828b0161328b565b91505092959891949750929550565b60088110613524576135246134fe565b6020815281516020820152600060208301516101006040840152613a786101208401826133f8565b90506040840151601f19848303016060850152613a9582826133f8565b9150506060840151613aaa6080850182613a40565b50608084015180151560a08501525060a084015160c084015260c084015160e084015260e0840151601f198483030161010085015261397182826133f8565b600080600060608486031215613afe57600080fd5b83356001600160401b03811115613b1457600080fd5b613b208682870161328b565b9350506020840135915060408401356001600160401b03811115613b4357600080fd5b613b4f8682870161328b565b9150509250925092565b602081526000825160c06020840152613b7560e08401826133f8565b90506020840151604084015260408401516060840152606084015160808401526080840151151560a084015260a0840151601f198483030160c085015261397182826133f8565b60008060408385031215613bcf57600080fd5b613bd8836131a2565b946020939093013593505050565b6020808252600990820152684e6f2061636365737360b81b604082015260600190565b6020808252600790820152664e6f20696e666f60c81b604082015260600190565b600060018201613c4a57634e487b7160e01b600052601160045260246000fd5b5060010190565b600181811c90821680613c6557607f821691505b602082108103613c8557634e487b7160e01b600052602260045260246000fd5b50919050565b601f82111561093357806000526020600020601f840160051c81016020851015613cb25750805b601f840160051c820191505b81811015613cd25760008155600101613cbe565b5050505050565b81516001600160401b03811115613cf257613cf2613275565b613d0681613d008454613c51565b84613c8b565b6020601f821160018114613d3a5760008315613d225750848201515b600019600385901b1c1916600184901b178455613cd2565b600084815260208120601f198516915b82811015613d6a5787850151825560209485019460019092019101613d4a565b5084821015613d885786840151600019600387901b60f8161c191681555b50505050600190811b01905550565b6020815260006113f760208301846133f8565b60408101613db88285613514565b8260208301529392505050565b6020808252600990820152682737ba1037bbb732b960b91b604082015260600190565b60208082526007908201526609cde40c2eae8d60cb1b604082015260600190565b613e138184613a40565b604060208201526000613e2960408301846133f8565b949350505050565b6020808252600c908201526b24b73b30b634b21030b2323960a11b604082015260600190565b604081526000613e6a60408301856133f8565b90508260208301529392505050565b634e487b7160e01b600052603260045260246000fdfe8825c62207077c41710fe5144a6467477a643e911c9ab3785826111f7c94ed8b18c9d97edfcf27865aca8a4f478a1b4429b4c82fb5ded476e9f317f74573d01bfec7cd74e5c65b641d49ecc2e89f646c7c0bcae85dc50f9616bf9c798cedda8b59a1c48e5837ad7a7f3dcedcbe129bf3249ec4fbf651fd4f5e2600ead39fe2f51976159518e32c975351d3eb18509d62ab7629098636e52c6ce63466e939167fc8f5b4140cca307cd927e59cbeea8291bffeee228fc677f0fa059aef7b4dd8d5a26469706673582212204be5f44003af53dd85a26e8b362b3dd7993372e2444f18e99ab72ba24dc494c164736f6c634300081f0033",
			"opcodes": "PUSH1 0x80 PUSH1 0x40 MSTORE CALLVALUE DUP1 ISZERO PUSH2 0x10 JUMPI PUSH1 0x0 DUP1 REVERT JUMPDEST POP CALLER DUP1 PUSH2 0x37 JUMPI PUSH1 0x40 MLOAD PUSH4 0x1E4FBDF7 PUSH1 0xE0 SHL DUP2 MSTORE PUSH1 0x0 PUSH1 0x4 DUP3 ADD MSTORE PUSH1 0x24 ADD PUSH1 0x40 MLOAD DUP1 SWAP2 SUB SWAP1 REVERT JUMPDEST PUSH2 0x40 DUP2 PUSH2 0x57 JUMP JUMPDEST POP PUSH1 0x1 PUSH1 0x2 SSTORE PUSH2 0x51 PUSH1 0x0 CALLER PUSH2 0xA7 JUMP JUMPDEST POP PUSH2 0x13C JUMP JUMPDEST PUSH1 0x0 DUP1 SLOAD PUSH1 0x1 PUSH1 0x1 PUSH1 0xA0 SHL SUB DUP4 DUP2 AND PUSH1 0x1 PUSH1 0x1 PUSH1 0xA0 SHL SUB NOT DUP4 AND DUP2 OR DUP5 SSTORE PUSH1 0x40 MLOAD SWAP2 SWAP1 SWAP3 AND SWAP3 DUP4 SWAP2 PUSH32 0x8BE0079C531659141344CD1FD0A4F28419497F9722A3DAAFE3B4186F6B6457E0 SWAP2 SWAP1 LOG3 POP POP JUMP JUMPDEST PUSH1 0x0 DUP3 DUP2 MSTORE PUSH1 0x1 PUSH1 0x20 SWAP1 DUP2 MSTORE PUSH1 0x40 DUP1 DUP4 KECCAK256 PUSH1 0x1 PUSH1 0x1 PUSH1 0xA0 SHL SUB DUP6 AND DUP5 MSTORE SWAP1 SWAP2 MSTORE DUP2 KECCAK256 SLOAD PUSH1 0xFF AND PUSH2 0x132 JUMPI PUSH1 0x0 DUP4 DUP2 MSTORE PUSH1 0x1 PUSH1 0x20 DUP2 DUP2 MSTORE PUSH1 0x40 DUP1 DUP5 KECCAK256 PUSH1 0x1 PUSH1 0x1 PUSH1 0xA0 SHL SUB DUP8 AND DUP1 DUP7 MSTORE SWAP3 MSTORE DUP1 DUP5 KECCAK256 DUP1 SLOAD PUSH1 0xFF NOT AND SWAP1 SWAP4 OR SWAP1 SWAP3 SSTORE SWAP1 MLOAD CALLER SWAP3 DUP7 SWAP2 PUSH32 0x2F8788117E7EFF1D82E926EC794901D17C78024A50270940304540A733656F0D SWAP2 SWAP1 LOG4 POP PUSH1 0x1 PUSH2 0x136 JUMP JUMPDEST POP PUSH1 0x0 JUMPDEST SWAP3 SWAP2 POP POP JUMP JUMPDEST PUSH2 0x3F85 DUP1 PUSH2 0x14B PUSH1 0x0 CODECOPY PUSH1 0x0 RETURN INVALID PUSH1 0x80 PUSH1 0x40 MSTORE CALLVALUE DUP1 ISZERO PUSH2 0x10 JUMPI PUSH1 0x0 DUP1 REVERT JUMPDEST POP PUSH1 0x4 CALLDATASIZE LT PUSH2 0x23B JUMPI PUSH1 0x0 CALLDATALOAD PUSH1 0xE0 SHR DUP1 PUSH4 0x1FFC9A7 EQ PUSH2 0x240 JUMPI DUP1 PUSH4 0x402E735 EQ PUSH2 0x268 JUMPI DUP1 PUSH4 0x45AF334 EQ PUSH2 0x28B JUMPI DUP1 PUSH4 0x52A01F6 EQ PUSH2 0x2C2 JUMPI DUP1 PUSH4 0x18B98101 EQ PUSH2 0x2D7 JUMPI DUP1 PUSH4 0x248A9CA3 EQ PUSH2 0x2F7 JUMPI DUP1 PUSH4 0x2C81DF05 EQ PUSH2 0x30A JUMPI DUP1 PUSH4 0x2F2FF15D EQ PUSH2 0x343 JUMPI DUP1 PUSH4 0x2F4AFBAD EQ PUSH2 0x356 JUMPI DUP1 PUSH4 0x36568ABE EQ PUSH2 0x369 JUMPI DUP1 PUSH4 0x3F4BA83A EQ PUSH2 0x37C JUMPI DUP1 PUSH4 0x420B23A2 EQ PUSH2 0x384 JUMPI DUP1 PUSH4 0x48DEF2F7 EQ PUSH2 0x397 JUMPI DUP1 PUSH4 0x4ADBE62C EQ PUSH2 0x3AA JUMPI DUP1 PUSH4 0x50038737 EQ PUSH2 0x3CA JUMPI DUP1 PUSH4 0x5C975ABB EQ PUSH2 0x3DD JUMPI DUP1 PUSH4 0x627E86F2 EQ PUSH2 0x3E8 JUMPI DUP1 PUSH4 0x685D5B8B EQ PUSH2 0x408 JUMPI DUP1 PUSH4 0x6E1D616E EQ PUSH2 0x428 JUMPI DUP1 PUSH4 0x715018A6 EQ PUSH2 0x43D JUMPI DUP1 PUSH4 0x7E0ECEE0 EQ PUSH2 0x445 JUMPI DUP1 PUSH4 0x7E14F8CD EQ PUSH2 0x458 JUMPI DUP1 PUSH4 0x82673E77 EQ PUSH2 0x46B JUMPI DUP1 PUSH4 0x8456CB59 EQ PUSH2 0x480 JUMPI DUP1 PUSH4 0x86C4AEA2 EQ PUSH2 0x488 JUMPI DUP1 PUSH4 0x8939F898 EQ PUSH2 0x49B JUMPI DUP1 PUSH4 0x8DA5CB5B EQ PUSH2 0x4AE JUMPI DUP1 PUSH4 0x91284A89 EQ PUSH2 0x4B6 JUMPI DUP1 PUSH4 0x91D14854 EQ PUSH2 0x4C9 JUMPI DUP1 PUSH4 0xA217FDDF EQ PUSH2 0x4DC JUMPI DUP1 PUSH4 0xA4FBB117 EQ PUSH2 0x4E4 JUMPI DUP1 PUSH4 0xA65B27DB EQ PUSH2 0x4F7 JUMPI DUP1 PUSH4 0xAA361C28 EQ PUSH2 0x50A JUMPI DUP1 PUSH4 0xAA83F4D8 EQ PUSH2 0x52A JUMPI DUP1 PUSH4 0xB3568F32 EQ PUSH2 0x53D JUMPI DUP1 PUSH4 0xB752A74B EQ PUSH2 0x550 JUMPI DUP1 PUSH4 0xB85D4AF0 EQ PUSH2 0x565 JUMPI DUP1 PUSH4 0xC5B99858 EQ PUSH2 0x578 JUMPI DUP1 PUSH4 0xD3E5EC4B EQ PUSH2 0x58B JUMPI DUP1 PUSH4 0xD547741F EQ PUSH2 0x59E JUMPI DUP1 PUSH4 0xDF015DC1 EQ PUSH2 0x5B1 JUMPI DUP1 PUSH4 0xDF9A4F56 EQ PUSH2 0x5C4 JUMPI DUP1 PUSH4 0xE653D375 EQ PUSH2 0x5D7 JUMPI DUP1 PUSH4 0xE7069C13 EQ PUSH2 0x5F7 JUMPI DUP1 PUSH4 0xEE67E73D EQ PUSH2 0x60A JUMPI DUP1 PUSH4 0xF17245F9 EQ PUSH2 0x62A JUMPI DUP1 PUSH4 0xF2FDE38B EQ PUSH2 0x659 JUMPI DUP1 PUSH4 0xF6871D9E EQ PUSH2 0x66C JUMPI DUP1 PUSH4 0xF6BA6678 EQ PUSH2 0x67F JUMPI JUMPDEST PUSH1 0x0 DUP1 REVERT JUMPDEST PUSH2 0x253 PUSH2 0x24E CALLDATASIZE PUSH1 0x4 PUSH2 0x3178 JUMP JUMPDEST PUSH2 0x694 JUMP JUMPDEST PUSH1 0x40 MLOAD SWAP1 ISZERO ISZERO DUP2 MSTORE PUSH1 0x20 ADD JUMPDEST PUSH1 0x40 MLOAD DUP1 SWAP2 SUB SWAP1 RETURN JUMPDEST PUSH2 0x27D PUSH1 0x0 DUP1 MLOAD PUSH1 0x20 PUSH2 0x3E90 DUP4 CODECOPY DUP2 MLOAD SWAP2 MSTORE DUP2 JUMP JUMPDEST PUSH1 0x40 MLOAD SWAP1 DUP2 MSTORE PUSH1 0x20 ADD PUSH2 0x25F JUMP JUMPDEST PUSH1 0x4 SLOAD PUSH1 0x5 SLOAD PUSH1 0x6 SLOAD PUSH1 0x7 SLOAD PUSH1 0x8 SLOAD PUSH1 0x40 DUP1 MLOAD SWAP6 DUP7 MSTORE PUSH1 0x20 DUP7 ADD SWAP5 SWAP1 SWAP5 MSTORE SWAP3 DUP5 ADD SWAP2 SWAP1 SWAP2 MSTORE PUSH1 0x60 DUP4 ADD MSTORE PUSH1 0x80 DUP3 ADD MSTORE PUSH1 0xA0 ADD PUSH2 0x25F JUMP JUMPDEST PUSH2 0x2D5 PUSH2 0x2D0 CALLDATASIZE PUSH1 0x4 PUSH2 0x31BE JUMP JUMPDEST PUSH2 0x6CB JUMP JUMPDEST STOP JUMPDEST PUSH2 0x2EA PUSH2 0x2E5 CALLDATASIZE PUSH1 0x4 PUSH2 0x31BE JUMP JUMPDEST PUSH2 0x731 JUMP JUMPDEST PUSH1 0x40 MLOAD PUSH2 0x25F SWAP2 SWAP1 PUSH2 0x31D9 JUMP JUMPDEST PUSH2 0x27D PUSH2 0x305 CALLDATASIZE PUSH1 0x4 PUSH2 0x321C JUMP JUMPDEST PUSH2 0x802 JUMP JUMPDEST PUSH2 0x336 PUSH2 0x318 CALLDATASIZE PUSH1 0x4 PUSH2 0x31BE JUMP JUMPDEST PUSH1 0x1 PUSH1 0x1 PUSH1 0xA0 SHL SUB SWAP1 DUP2 AND PUSH1 0x0 SWAP1 DUP2 MSTORE PUSH1 0x19 PUSH1 0x20 MSTORE PUSH1 0x40 SWAP1 KECCAK256 SLOAD AND SWAP1 JUMP JUMPDEST PUSH1 0x40 MLOAD PUSH2 0x25F SWAP2 SWAP1 PUSH2 0x3235 JUMP JUMPDEST PUSH2 0x2D5 PUSH2 0x351 CALLDATASIZE PUSH1 0x4 PUSH2 0x3249 JUMP JUMPDEST PUSH2 0x818 JUMP JUMPDEST PUSH2 0x2EA PUSH2 0x364 CALLDATASIZE PUSH1 0x4 PUSH2 0x31BE JUMP JUMPDEST PUSH2 0x83A JUMP JUMPDEST PUSH2 0x2D5 PUSH2 0x377 CALLDATASIZE PUSH1 0x4 PUSH2 0x3249 JUMP JUMPDEST PUSH2 0x900 JUMP JUMPDEST PUSH2 0x2D5 PUSH2 0x938 JUMP JUMPDEST PUSH2 0x27D PUSH2 0x392 CALLDATASIZE PUSH1 0x4 PUSH2 0x3328 JUMP JUMPDEST PUSH2 0x94E JUMP JUMPDEST PUSH2 0x27D PUSH2 0x3A5 CALLDATASIZE PUSH1 0x4 PUSH2 0x3393 JUMP JUMPDEST PUSH2 0xAB4 JUMP JUMPDEST PUSH2 0x3BD PUSH2 0x3B8 CALLDATASIZE PUSH1 0x4 PUSH2 0x321C JUMP JUMPDEST PUSH2 0xCA8 JUMP JUMPDEST PUSH1 0x40 MLOAD PUSH2 0x25F SWAP2 SWAP1 PUSH2 0x343E JUMP JUMPDEST PUSH2 0x2D5 PUSH2 0x3D8 CALLDATASIZE PUSH1 0x4 PUSH2 0x321C JUMP JUMPDEST PUSH2 0xE39 JUMP JUMPDEST PUSH1 0x3 SLOAD PUSH1 0xFF AND PUSH2 0x253 JUMP JUMPDEST PUSH2 0x3FB PUSH2 0x3F6 CALLDATASIZE PUSH1 0x4 PUSH2 0x321C JUMP JUMPDEST PUSH2 0xEC5 JUMP JUMPDEST PUSH1 0x40 MLOAD PUSH2 0x25F SWAP2 SWAP1 PUSH2 0x349A JUMP JUMPDEST PUSH2 0x41B PUSH2 0x416 CALLDATASIZE PUSH1 0x4 PUSH2 0x321C JUMP JUMPDEST PUSH2 0x10C6 JUMP JUMPDEST PUSH1 0x40 MLOAD PUSH2 0x25F SWAP2 SWAP1 PUSH2 0x3528 JUMP JUMPDEST PUSH2 0x27D PUSH1 0x0 DUP1 MLOAD PUSH1 0x20 PUSH2 0x3EF0 DUP4 CODECOPY DUP2 MLOAD SWAP2 MSTORE DUP2 JUMP JUMPDEST PUSH2 0x2D5 PUSH2 0x123D JUMP JUMPDEST PUSH2 0x2D5 PUSH2 0x453 CALLDATASIZE PUSH1 0x4 PUSH2 0x31BE JUMP JUMPDEST PUSH2 0x1251 JUMP JUMPDEST PUSH2 0x27D PUSH2 0x466 CALLDATASIZE PUSH1 0x4 PUSH2 0x3593 JUMP JUMPDEST PUSH2 0x12AB JUMP JUMPDEST PUSH2 0x27D PUSH1 0x0 DUP1 MLOAD PUSH1 0x20 PUSH2 0x3F10 DUP4 CODECOPY DUP2 MLOAD SWAP2 MSTORE DUP2 JUMP JUMPDEST PUSH2 0x2D5 PUSH2 0x13FE JUMP JUMPDEST PUSH2 0x2D5 PUSH2 0x496 CALLDATASIZE PUSH1 0x4 PUSH2 0x3604 JUMP JUMPDEST PUSH2 0x1411 JUMP JUMPDEST PUSH2 0x27D PUSH2 0x4A9 CALLDATASIZE PUSH1 0x4 PUSH2 0x368B JUMP JUMPDEST PUSH2 0x14C8 JUMP JUMPDEST PUSH2 0x336 PUSH2 0x16A9 JUMP JUMPDEST PUSH2 0x2D5 PUSH2 0x4C4 CALLDATASIZE PUSH1 0x4 PUSH2 0x31BE JUMP JUMPDEST PUSH2 0x16B8 JUMP JUMPDEST PUSH2 0x253 PUSH2 0x4D7 CALLDATASIZE PUSH1 0x4 PUSH2 0x3249 JUMP JUMPDEST PUSH2 0x1735 JUMP JUMPDEST PUSH2 0x27D PUSH1 0x0 DUP2 JUMP JUMPDEST PUSH2 0x27D PUSH2 0x4F2 CALLDATASIZE PUSH1 0x4 PUSH2 0x3755 JUMP JUMPDEST PUSH2 0x1760 JUMP JUMPDEST PUSH2 0x2D5 PUSH2 0x505 CALLDATASIZE PUSH1 0x4 PUSH2 0x3818 JUMP JUMPDEST PUSH2 0x1AB1 JUMP JUMPDEST PUSH2 0x51D PUSH2 0x518 CALLDATASIZE PUSH1 0x4 PUSH2 0x321C JUMP JUMPDEST PUSH2 0x1B71 JUMP JUMPDEST PUSH1 0x40 MLOAD PUSH2 0x25F SWAP2 SWAP1 PUSH2 0x38A0 JUMP JUMPDEST PUSH2 0x2EA PUSH2 0x538 CALLDATASIZE PUSH1 0x4 PUSH2 0x31BE JUMP JUMPDEST PUSH2 0x1E84 JUMP JUMPDEST PUSH2 0x2D5 PUSH2 0x54B CALLDATASIZE PUSH1 0x4 PUSH2 0x31BE JUMP JUMPDEST PUSH2 0x1F36 JUMP JUMPDEST PUSH2 0x27D PUSH1 0x0 DUP1 MLOAD PUSH1 0x20 PUSH2 0x3ED0 DUP4 CODECOPY DUP2 MLOAD SWAP2 MSTORE DUP2 JUMP JUMPDEST PUSH2 0x2EA PUSH2 0x573 CALLDATASIZE PUSH1 0x4 PUSH2 0x31BE JUMP JUMPDEST PUSH2 0x1F90 JUMP JUMPDEST PUSH2 0x2D5 PUSH2 0x586 CALLDATASIZE PUSH1 0x4 PUSH2 0x31BE JUMP JUMPDEST PUSH2 0x2040 JUMP JUMPDEST PUSH2 0x2D5 PUSH2 0x599 CALLDATASIZE PUSH1 0x4 PUSH2 0x397A JUMP JUMPDEST PUSH2 0x209A JUMP JUMPDEST PUSH2 0x2D5 PUSH2 0x5AC CALLDATASIZE PUSH1 0x4 PUSH2 0x3249 JUMP JUMPDEST PUSH2 0x21A4 JUMP JUMPDEST PUSH2 0x2EA PUSH2 0x5BF CALLDATASIZE PUSH1 0x4 PUSH2 0x31BE JUMP JUMPDEST PUSH2 0x21C0 JUMP JUMPDEST PUSH2 0x2D5 PUSH2 0x5D2 CALLDATASIZE PUSH1 0x4 PUSH2 0x31BE JUMP JUMPDEST PUSH2 0x2286 JUMP JUMPDEST PUSH2 0x5EA PUSH2 0x5E5 CALLDATASIZE PUSH1 0x4 PUSH2 0x321C JUMP JUMPDEST PUSH2 0x22E0 JUMP JUMPDEST PUSH1 0x40 MLOAD PUSH2 0x25F SWAP2 SWAP1 PUSH2 0x3A50 JUMP JUMPDEST PUSH2 0x2D5 PUSH2 0x605 CALLDATASIZE PUSH1 0x4 PUSH2 0x3AE9 JUMP JUMPDEST PUSH2 0x2594 JUMP JUMPDEST PUSH2 0x61D PUSH2 0x618 CALLDATASIZE PUSH1 0x4 PUSH2 0x31BE JUMP JUMPDEST PUSH2 0x2721 JUMP JUMPDEST PUSH1 0x40 MLOAD PUSH2 0x25F SWAP2 SWAP1 PUSH2 0x3B59 JUMP JUMPDEST PUSH2 0x253 PUSH2 0x638 CALLDATASIZE PUSH1 0x4 PUSH2 0x31BE JUMP JUMPDEST PUSH1 0x1 PUSH1 0x1 PUSH1 0xA0 SHL SUB AND PUSH1 0x0 SWAP1 DUP2 MSTORE PUSH1 0x9 PUSH1 0x20 MSTORE PUSH1 0x40 SWAP1 KECCAK256 PUSH1 0x4 ADD SLOAD PUSH1 0xFF AND SWAP1 JUMP JUMPDEST PUSH2 0x2D5 PUSH2 0x667 CALLDATASIZE PUSH1 0x4 PUSH2 0x31BE JUMP JUMPDEST PUSH2 0x2990 JUMP JUMPDEST PUSH2 0x2D5 PUSH2 0x67A CALLDATASIZE PUSH1 0x4 PUSH2 0x3BBC JUMP JUMPDEST PUSH2 0x29CB JUMP JUMPDEST PUSH2 0x27D PUSH1 0x0 DUP1 MLOAD PUSH1 0x20 PUSH2 0x3F30 DUP4 CODECOPY DUP2 MLOAD SWAP2 MSTORE DUP2 JUMP JUMPDEST PUSH1 0x0 PUSH1 0x1 PUSH1 0x1 PUSH1 0xE0 SHL SUB NOT DUP3 AND PUSH4 0x7965DB0B PUSH1 0xE0 SHL EQ DUP1 PUSH2 0x6C5 JUMPI POP PUSH4 0x1FFC9A7 PUSH1 0xE0 SHL PUSH1 0x1 PUSH1 0x1 PUSH1 0xE0 SHL SUB NOT DUP4 AND EQ JUMPDEST SWAP3 SWAP2 POP POP JUMP JUMPDEST PUSH1 0x0 PUSH2 0x6D6 DUP2 PUSH2 0x2A28 JUMP JUMPDEST PUSH2 0x6EE PUSH1 0x0 DUP1 MLOAD PUSH1 0x20 PUSH2 0x3E90 DUP4 CODECOPY DUP2 MLOAD SWAP2 MSTORE DUP4 PUSH2 0x818 JUMP JUMPDEST DUP2 PUSH1 0x1 PUSH1 0x1 PUSH1 0xA0 SHL SUB AND PUSH1 0x0 DUP1 MLOAD PUSH1 0x20 PUSH2 0x3EB0 DUP4 CODECOPY DUP2 MLOAD SWAP2 MSTORE PUSH1 0x0 DUP1 MLOAD PUSH1 0x20 PUSH2 0x3E90 DUP4 CODECOPY DUP2 MLOAD SWAP2 MSTORE PUSH1 0x40 MLOAD PUSH2 0x725 SWAP2 DUP2 MSTORE PUSH1 0x20 ADD SWAP1 JUMP JUMPDEST PUSH1 0x40 MLOAD DUP1 SWAP2 SUB SWAP1 LOG2 POP POP JUMP JUMPDEST PUSH1 0x60 DUP2 PUSH1 0x3 CALLER PUSH1 0x1 PUSH1 0x1 PUSH1 0xA0 SHL SUB DUP4 AND EQ DUP1 PUSH2 0x753 JUMPI POP PUSH2 0x753 DUP3 CALLER DUP4 PUSH2 0x2A32 JUMP JUMPDEST DUP1 PUSH2 0x771 JUMPI POP PUSH2 0x771 PUSH1 0x0 DUP1 MLOAD PUSH1 0x20 PUSH2 0x3EF0 DUP4 CODECOPY DUP2 MLOAD SWAP2 MSTORE CALLER PUSH2 0x1735 JUMP JUMPDEST PUSH2 0x796 JUMPI PUSH1 0x40 MLOAD PUSH3 0x461BCD PUSH1 0xE5 SHL DUP2 MSTORE PUSH1 0x4 ADD PUSH2 0x78D SWAP1 PUSH2 0x3BE6 JUMP JUMPDEST PUSH1 0x40 MLOAD DUP1 SWAP2 SUB SWAP1 REVERT JUMPDEST PUSH1 0x1 PUSH1 0x1 PUSH1 0xA0 SHL SUB DUP5 AND PUSH1 0x0 SWAP1 DUP2 MSTORE PUSH1 0xE PUSH1 0x20 SWAP1 DUP2 MSTORE PUSH1 0x40 SWAP2 DUP3 SWAP1 KECCAK256 DUP1 SLOAD DUP4 MLOAD DUP2 DUP5 MUL DUP2 ADD DUP5 ADD SWAP1 SWAP5 MSTORE DUP1 DUP5 MSTORE SWAP1 SWAP2 DUP4 ADD DUP3 DUP3 DUP1 ISZERO PUSH2 0x7F4 JUMPI PUSH1 0x20 MUL DUP3 ADD SWAP2 SWAP1 PUSH1 0x0 MSTORE PUSH1 0x20 PUSH1 0x0 KECCAK256 SWAP1 JUMPDEST DUP2 SLOAD DUP2 MSTORE PUSH1 0x20 ADD SWAP1 PUSH1 0x1 ADD SWAP1 DUP1 DUP4 GT PUSH2 0x7E0 JUMPI JUMPDEST POP POP POP POP POP SWAP3 POP POP POP SWAP2 SWAP1 POP JUMP JUMPDEST PUSH1 0x0 SWAP1 DUP2 MSTORE PUSH1 0x1 PUSH1 0x20 DUP2 SWAP1 MSTORE PUSH1 0x40 SWAP1 SWAP2 KECCAK256 ADD SLOAD SWAP1 JUMP JUMPDEST PUSH2 0x821 DUP3 PUSH2 0x802 JUMP JUMPDEST PUSH2 0x82A DUP2 PUSH2 0x2A28 JUMP JUMPDEST PUSH2 0x834 DUP4 DUP4 PUSH2 0x2DF1 JUMP JUMPDEST POP POP POP POP JUMP JUMPDEST PUSH1 0x60 DUP2 PUSH1 0x2 CALLER PUSH1 0x1 PUSH1 0x1 PUSH1 0xA0 SHL SUB DUP4 AND EQ DUP1 PUSH2 0x85C JUMPI POP PUSH2 0x85C DUP3 CALLER DUP4 PUSH2 0x2A32 JUMP JUMPDEST DUP1 PUSH2 0x87A JUMPI POP PUSH2 0x87A PUSH1 0x0 DUP1 MLOAD PUSH1 0x20 PUSH2 0x3EF0 DUP4 CODECOPY DUP2 MLOAD SWAP2 MSTORE CALLER PUSH2 0x1735 JUMP JUMPDEST PUSH2 0x896 JUMPI PUSH1 0x40 MLOAD PUSH3 0x461BCD PUSH1 0xE5 SHL DUP2 MSTORE PUSH1 0x4 ADD PUSH2 0x78D SWAP1 PUSH2 0x3BE6 JUMP JUMPDEST PUSH1 0x1 PUSH1 0x1 PUSH1 0xA0 SHL SUB DUP5 AND PUSH1 0x0 SWAP1 DUP2 MSTORE PUSH1 0xC PUSH1 0x20 SWAP1 DUP2 MSTORE PUSH1 0x40 SWAP2 DUP3 SWAP1 KECCAK256 DUP1 SLOAD DUP4 MLOAD DUP2 DUP5 MUL DUP2 ADD DUP5 ADD SWAP1 SWAP5 MSTORE DUP1 DUP5 MSTORE SWAP1 SWAP2 DUP4 ADD DUP3 DUP3 DUP1 ISZERO PUSH2 0x7F4 JUMPI PUSH1 0x20 MUL DUP3 ADD SWAP2 SWAP1 PUSH1 0x0 MSTORE PUSH1 0x20 PUSH1 0x0 KECCAK256 SWAP1 DUP2 SLOAD DUP2 MSTORE PUSH1 0x20 ADD SWAP1 PUSH1 0x1 ADD SWAP1 DUP1 DUP4 GT PUSH2 0x7E0 JUMPI POP POP POP POP POP SWAP3 POP POP POP SWAP2 SWAP1 POP JUMP JUMPDEST PUSH1 0x1 PUSH1 0x1 PUSH1 0xA0 SHL SUB DUP2 AND CALLER EQ PUSH2 0x929 JUMPI PUSH1 0x40 MLOAD PUSH4 0x334BD919 PUSH1 0xE1 SHL DUP2 MSTORE PUSH1 0x4 ADD PUSH1 0x40 MLOAD DUP1 SWAP2 SUB SWAP1 REVERT JUMPDEST PUSH2 0x933 DUP3 DUP3 PUSH2 0x2E6A JUMP JUMPDEST POP POP POP JUMP JUMPDEST PUSH1 0x0 PUSH2 0x943 DUP2 PUSH2 0x2A28 JUMP JUMPDEST PUSH2 0x94B PUSH2 0x2ED7 JUMP JUMPDEST POP JUMP JUMPDEST PUSH1 0x0 PUSH2 0x958 PUSH2 0x2F23 JUMP JUMPDEST CALLER PUSH1 0x0 SWAP1 DUP2 MSTORE PUSH1 0x9 PUSH1 0x20 MSTORE PUSH1 0x40 SWAP1 KECCAK256 PUSH1 0x4 ADD SLOAD PUSH1 0xFF AND PUSH2 0x98A JUMPI PUSH1 0x40 MLOAD PUSH3 0x461BCD PUSH1 0xE5 SHL DUP2 MSTORE PUSH1 0x4 ADD PUSH2 0x78D SWAP1 PUSH2 0x3C09 JUMP JUMPDEST PUSH1 0x4 DUP1 SLOAD SWAP1 PUSH1 0x0 PUSH2 0x99A DUP4 PUSH2 0x3C2A JUMP JUMPDEST SWAP1 SWAP2 SSTORE POP POP PUSH1 0x4 SLOAD PUSH1 0x40 DUP1 MLOAD PUSH1 0xC0 DUP2 ADD DUP3 MSTORE DUP3 DUP2 MSTORE PUSH1 0x20 DUP1 DUP3 ADD DUP10 DUP2 MSTORE DUP9 ISZERO ISZERO DUP4 DUP6 ADD MSTORE PUSH1 0x60 DUP4 ADD DUP9 SWAP1 MSTORE PUSH1 0x80 DUP4 ADD DUP8 SWAP1 MSTORE TIMESTAMP PUSH1 0xA0 DUP5 ADD MSTORE PUSH1 0x0 DUP6 DUP2 MSTORE PUSH1 0xB SWAP1 SWAP3 MSTORE SWAP3 SWAP1 KECCAK256 DUP2 MLOAD DUP2 SSTORE SWAP2 MLOAD SWAP1 SWAP2 SWAP1 PUSH1 0x1 DUP3 ADD SWAP1 PUSH2 0x9F7 SWAP1 DUP3 PUSH2 0x3CD9 JUMP JUMPDEST POP PUSH1 0x40 DUP3 DUP2 ADD MLOAD PUSH1 0x2 DUP4 ADD DUP1 SLOAD PUSH1 0xFF NOT AND SWAP2 ISZERO ISZERO SWAP2 SWAP1 SWAP2 OR SWAP1 SSTORE PUSH1 0x60 DUP4 ADD MLOAD PUSH1 0x3 DUP4 ADD SSTORE PUSH1 0x80 DUP4 ADD MLOAD PUSH1 0x4 DUP4 ADD SSTORE PUSH1 0xA0 SWAP1 SWAP3 ADD MLOAD PUSH1 0x5 SWAP1 SWAP2 ADD SSTORE PUSH1 0x0 DUP3 DUP2 MSTORE PUSH1 0x14 PUSH1 0x20 SWAP1 DUP2 MSTORE DUP3 DUP3 KECCAK256 DUP1 SLOAD CALLER PUSH1 0x1 PUSH1 0x1 PUSH1 0xA0 SHL SUB NOT SWAP1 SWAP2 AND DUP2 OR SWAP1 SWAP2 SSTORE DUP1 DUP4 MSTORE PUSH1 0xA DUP3 MSTORE DUP4 DUP4 KECCAK256 DUP1 SLOAD PUSH1 0x1 DUP2 ADD DUP3 SSTORE SWAP1 DUP5 MSTORE SWAP2 SWAP1 SWAP3 KECCAK256 ADD DUP4 SWAP1 SSTORE SWAP1 MLOAD DUP3 SWAP2 SWAP1 PUSH32 0xB9E5855C05B4297BAF0B4F6174BD05A6BD6D2E22A10A228D364B4350DCEE1918 SWAP1 PUSH2 0xAA3 SWAP1 DUP11 SWAP1 PUSH2 0x3D97 JUMP JUMPDEST PUSH1 0x40 MLOAD DUP1 SWAP2 SUB SWAP1 LOG3 SWAP6 SWAP5 POP POP POP POP POP JUMP JUMPDEST PUSH1 0x0 PUSH2 0xABE PUSH2 0x2F23 JUMP JUMPDEST CALLER PUSH1 0x1 PUSH1 0x1 PUSH1 0xA0 SHL SUB DUP7 AND EQ DUP1 PUSH2 0xADB JUMPI POP PUSH2 0xADB DUP6 CALLER DUP6 PUSH2 0x2A32 JUMP JUMPDEST DUP1 PUSH2 0xAF9 JUMPI POP PUSH2 0xAF9 PUSH1 0x0 DUP1 MLOAD PUSH1 0x20 PUSH2 0x3EF0 DUP4 CODECOPY DUP2 MLOAD SWAP2 MSTORE CALLER PUSH2 0x1735 JUMP JUMPDEST PUSH2 0xB35 JUMPI PUSH1 0x40 MLOAD PUSH3 0x461BCD PUSH1 0xE5 SHL DUP2 MSTORE PUSH1 0x20 PUSH1 0x4 DUP3 ADD MSTORE PUSH1 0xD PUSH1 0x24 DUP3 ADD MSTORE PUSH13 0x2737903832B936B4B9B9B4B7B7 PUSH1 0x99 SHL PUSH1 0x44 DUP3 ADD MSTORE PUSH1 0x64 ADD PUSH2 0x78D JUMP JUMPDEST PUSH1 0x8 DUP1 SLOAD SWAP1 PUSH1 0x0 PUSH2 0xB45 DUP4 PUSH2 0x3C2A JUMP JUMPDEST SWAP1 SWAP2 SSTORE POP POP PUSH1 0x8 SLOAD PUSH1 0x40 DUP1 MLOAD PUSH1 0xC0 DUP2 ADD DUP3 MSTORE DUP3 DUP2 MSTORE CALLER PUSH1 0x20 DUP3 ADD MSTORE SWAP1 DUP2 ADD DUP7 SWAP1 MSTORE PUSH1 0x60 DUP2 ADD DUP6 PUSH1 0x4 DUP2 GT ISZERO PUSH2 0xB7C JUMPI PUSH2 0xB7C PUSH2 0x34FE JUMP JUMPDEST DUP2 MSTORE TIMESTAMP PUSH1 0x20 DUP1 DUP4 ADD SWAP2 SWAP1 SWAP2 MSTORE PUSH1 0x40 SWAP2 DUP3 ADD DUP7 SWAP1 MSTORE PUSH1 0x0 DUP5 DUP2 MSTORE PUSH1 0x13 DUP3 MSTORE DUP3 SWAP1 KECCAK256 DUP4 MLOAD DUP2 SSTORE SWAP1 DUP4 ADD MLOAD PUSH1 0x1 DUP3 ADD DUP1 SLOAD PUSH1 0x1 PUSH1 0x1 PUSH1 0xA0 SHL SUB NOT AND PUSH1 0x1 PUSH1 0x1 PUSH1 0xA0 SHL SUB SWAP1 SWAP3 AND SWAP2 SWAP1 SWAP2 OR SWAP1 SSTORE SWAP1 DUP3 ADD MLOAD PUSH1 0x2 DUP3 ADD SWAP1 PUSH2 0xBD8 SWAP1 DUP3 PUSH2 0x3CD9 JUMP JUMPDEST POP PUSH1 0x60 DUP3 ADD MLOAD PUSH1 0x3 DUP3 ADD DUP1 SLOAD PUSH1 0xFF NOT AND PUSH1 0x1 DUP4 PUSH1 0x4 DUP2 GT ISZERO PUSH2 0xBFC JUMPI PUSH2 0xBFC PUSH2 0x34FE JUMP JUMPDEST MUL OR SWAP1 SSTORE POP PUSH1 0x80 DUP3 ADD MLOAD PUSH1 0x4 DUP3 ADD SSTORE PUSH1 0xA0 SWAP1 SWAP2 ADD MLOAD PUSH1 0x5 SWAP1 SWAP2 ADD SSTORE PUSH1 0x0 DUP2 DUP2 MSTORE PUSH1 0x18 PUSH1 0x20 SWAP1 DUP2 MSTORE PUSH1 0x40 DUP1 DUP4 KECCAK256 DUP1 SLOAD PUSH1 0x1 PUSH1 0x1 PUSH1 0xA0 SHL SUB NOT AND PUSH1 0x1 PUSH1 0x1 PUSH1 0xA0 SHL SUB DUP12 AND SWAP1 DUP2 OR SWAP1 SWAP2 SSTORE DUP1 DUP5 MSTORE PUSH1 0x12 DUP4 MSTORE DUP2 DUP5 KECCAK256 DUP1 SLOAD PUSH1 0x1 DUP2 ADD DUP3 SSTORE SWAP1 DUP6 MSTORE SWAP3 SWAP1 SWAP4 KECCAK256 SWAP1 SWAP2 ADD DUP4 SWAP1 SSTORE MLOAD DUP3 SWAP2 CALLER SWAP2 PUSH32 0xCC936E965CB312F996247A9F5C0929B57C3078F4D25F38C1E1FA8171238E54A7 SWAP1 PUSH2 0xC97 SWAP1 DUP10 SWAP1 TIMESTAMP SWAP1 PUSH2 0x3DAA JUMP JUMPDEST PUSH1 0x40 MLOAD DUP1 SWAP2 SUB SWAP1 LOG4 SWAP6 SWAP5 POP POP POP POP POP JUMP JUMPDEST PUSH2 0xCE3 PUSH1 0x40 MLOAD DUP1 PUSH1 0xC0 ADD PUSH1 0x40 MSTORE DUP1 PUSH1 0x0 DUP2 MSTORE PUSH1 0x20 ADD PUSH1 0x60 DUP2 MSTORE PUSH1 0x20 ADD PUSH1 0x0 ISZERO ISZERO DUP2 MSTORE PUSH1 0x20 ADD PUSH1 0x0 DUP2 MSTORE PUSH1 0x20 ADD PUSH1 0x0 DUP2 MSTORE PUSH1 0x20 ADD PUSH1 0x0 DUP2 MSTORE POP SWAP1 JUMP JUMPDEST PUSH1 0x0 DUP3 DUP2 MSTORE PUSH1 0x14 PUSH1 0x20 MSTORE PUSH1 0x40 SWAP1 KECCAK256 SLOAD PUSH1 0x1 PUSH1 0x1 PUSH1 0xA0 SHL SUB AND CALLER DUP2 EQ DUP1 PUSH2 0xD10 JUMPI POP PUSH2 0xD10 DUP2 CALLER PUSH1 0x1 PUSH2 0x2A32 JUMP JUMPDEST DUP1 PUSH2 0xD2E JUMPI POP PUSH2 0xD2E PUSH1 0x0 DUP1 MLOAD PUSH1 0x20 PUSH2 0x3EF0 DUP4 CODECOPY DUP2 MLOAD SWAP2 MSTORE CALLER PUSH2 0x1735 JUMP JUMPDEST PUSH2 0xD4A JUMPI PUSH1 0x40 MLOAD PUSH3 0x461BCD PUSH1 0xE5 SHL DUP2 MSTORE PUSH1 0x4 ADD PUSH2 0x78D SWAP1 PUSH2 0x3BE6 JUMP JUMPDEST PUSH1 0xB PUSH1 0x0 DUP5 DUP2 MSTORE PUSH1 0x20 ADD SWAP1 DUP2 MSTORE PUSH1 0x20 ADD PUSH1 0x0 KECCAK256 PUSH1 0x40 MLOAD DUP1 PUSH1 0xC0 ADD PUSH1 0x40 MSTORE SWAP1 DUP2 PUSH1 0x0 DUP3 ADD SLOAD DUP2 MSTORE PUSH1 0x20 ADD PUSH1 0x1 DUP3 ADD DUP1 SLOAD PUSH2 0xD82 SWAP1 PUSH2 0x3C51 JUMP JUMPDEST DUP1 PUSH1 0x1F ADD PUSH1 0x20 DUP1 SWAP2 DIV MUL PUSH1 0x20 ADD PUSH1 0x40 MLOAD SWAP1 DUP2 ADD PUSH1 0x40 MSTORE DUP1 SWAP3 SWAP2 SWAP1 DUP2 DUP2 MSTORE PUSH1 0x20 ADD DUP3 DUP1 SLOAD PUSH2 0xDAE SWAP1 PUSH2 0x3C51 JUMP JUMPDEST DUP1 ISZERO PUSH2 0xDFB JUMPI DUP1 PUSH1 0x1F LT PUSH2 0xDD0 JUMPI PUSH2 0x100 DUP1 DUP4 SLOAD DIV MUL DUP4 MSTORE SWAP2 PUSH1 0x20 ADD SWAP2 PUSH2 0xDFB JUMP JUMPDEST DUP3 ADD SWAP2 SWAP1 PUSH1 0x0 MSTORE PUSH1 0x20 PUSH1 0x0 KECCAK256 SWAP1 JUMPDEST DUP2 SLOAD DUP2 MSTORE SWAP1 PUSH1 0x1 ADD SWAP1 PUSH1 0x20 ADD DUP1 DUP4 GT PUSH2 0xDDE JUMPI DUP3 SWAP1 SUB PUSH1 0x1F AND DUP3 ADD SWAP2 JUMPDEST POP POP POP SWAP2 DUP4 MSTORE POP POP PUSH1 0x2 DUP3 ADD SLOAD PUSH1 0xFF AND ISZERO ISZERO PUSH1 0x20 DUP3 ADD MSTORE PUSH1 0x3 DUP3 ADD SLOAD PUSH1 0x40 DUP3 ADD MSTORE PUSH1 0x4 DUP3 ADD SLOAD PUSH1 0x60 DUP3 ADD MSTORE PUSH1 0x5 SWAP1 SWAP2 ADD SLOAD PUSH1 0x80 SWAP1 SWAP2 ADD MSTORE SWAP4 SWAP3 POP POP POP JUMP JUMPDEST PUSH2 0xE41 PUSH2 0x2F23 JUMP JUMPDEST PUSH1 0x0 DUP2 DUP2 MSTORE PUSH1 0x17 PUSH1 0x20 MSTORE PUSH1 0x40 SWAP1 KECCAK256 SLOAD DUP2 SWAP1 PUSH1 0x1 PUSH1 0x1 PUSH1 0xA0 SHL SUB AND CALLER EQ PUSH2 0xE79 JUMPI PUSH1 0x40 MLOAD PUSH3 0x461BCD PUSH1 0xE5 SHL DUP2 MSTORE PUSH1 0x4 ADD PUSH2 0x78D SWAP1 PUSH2 0x3DC5 JUMP JUMPDEST PUSH1 0x0 DUP3 DUP2 MSTORE PUSH1 0x11 PUSH1 0x20 MSTORE PUSH1 0x40 DUP1 DUP3 KECCAK256 PUSH1 0x7 ADD DUP1 SLOAD PUSH2 0xFF00 NOT AND PUSH2 0x200 OR SWAP1 SSTORE MLOAD DUP4 SWAP2 CALLER SWAP2 PUSH32 0xECC5422BDBC6A29EB33382A149718B65F504D9EBFC6AA2D2B142BCC6AD837A6B SWAP2 SWAP1 LOG3 POP POP JUMP JUMPDEST PUSH2 0xEF7 PUSH1 0x40 MLOAD DUP1 PUSH1 0xA0 ADD PUSH1 0x40 MSTORE DUP1 PUSH1 0x0 DUP2 MSTORE PUSH1 0x20 ADD PUSH1 0x60 DUP2 MSTORE PUSH1 0x20 ADD PUSH1 0x60 DUP2 MSTORE PUSH1 0x20 ADD PUSH1 0x0 DUP2 MSTORE PUSH1 0x20 ADD PUSH1 0x0 DUP2 MSTORE POP SWAP1 JUMP JUMPDEST PUSH1 0x0 DUP3 DUP2 MSTORE PUSH1 0x15 PUSH1 0x20 MSTORE PUSH1 0x40 SWAP1 KECCAK256 SLOAD PUSH1 0x1 PUSH1 0x1 PUSH1 0xA0 SHL SUB AND CALLER DUP2 EQ DUP1 PUSH2 0xF24 JUMPI POP PUSH2 0xF24 DUP2 CALLER PUSH1 0x2 PUSH2 0x2A32 JUMP JUMPDEST DUP1 PUSH2 0xF42 JUMPI POP PUSH2 0xF42 PUSH1 0x0 DUP1 MLOAD PUSH1 0x20 PUSH2 0x3EF0 DUP4 CODECOPY DUP2 MLOAD SWAP2 MSTORE CALLER PUSH2 0x1735 JUMP JUMPDEST PUSH2 0xF5E JUMPI PUSH1 0x40 MLOAD PUSH3 0x461BCD PUSH1 0xE5 SHL DUP2 MSTORE PUSH1 0x4 ADD PUSH2 0x78D SWAP1 PUSH2 0x3BE6 JUMP JUMPDEST PUSH1 0xD PUSH1 0x0 DUP5 DUP2 MSTORE PUSH1 0x20 ADD SWAP1 DUP2 MSTORE PUSH1 0x20 ADD PUSH1 0x0 KECCAK256 PUSH1 0x40 MLOAD DUP1 PUSH1 0xA0 ADD PUSH1 0x40 MSTORE SWAP1 DUP2 PUSH1 0x0 DUP3 ADD SLOAD DUP2 MSTORE PUSH1 0x20 ADD PUSH1 0x1 DUP3 ADD DUP1 SLOAD PUSH2 0xF96 SWAP1 PUSH2 0x3C51 JUMP JUMPDEST DUP1 PUSH1 0x1F ADD PUSH1 0x20 DUP1 SWAP2 DIV MUL PUSH1 0x20 ADD PUSH1 0x40 MLOAD SWAP1 DUP2 ADD PUSH1 0x40 MSTORE DUP1 SWAP3 SWAP2 SWAP1 DUP2 DUP2 MSTORE PUSH1 0x20 ADD DUP3 DUP1 SLOAD PUSH2 0xFC2 SWAP1 PUSH2 0x3C51 JUMP JUMPDEST DUP1 ISZERO PUSH2 0x100F JUMPI DUP1 PUSH1 0x1F LT PUSH2 0xFE4 JUMPI PUSH2 0x100 DUP1 DUP4 SLOAD DIV MUL DUP4 MSTORE SWAP2 PUSH1 0x20 ADD SWAP2 PUSH2 0x100F JUMP JUMPDEST DUP3 ADD SWAP2 SWAP1 PUSH1 0x0 MSTORE PUSH1 0x20 PUSH1 0x0 KECCAK256 SWAP1 JUMPDEST DUP2 SLOAD DUP2 MSTORE SWAP1 PUSH1 0x1 ADD SWAP1 PUSH1 0x20 ADD DUP1 DUP4 GT PUSH2 0xFF2 JUMPI DUP3 SWAP1 SUB PUSH1 0x1F AND DUP3 ADD SWAP2 JUMPDEST POP POP POP POP POP DUP2 MSTORE PUSH1 0x20 ADD PUSH1 0x2 DUP3 ADD DUP1 SLOAD PUSH2 0x1028 SWAP1 PUSH2 0x3C51 JUMP JUMPDEST DUP1 PUSH1 0x1F ADD PUSH1 0x20 DUP1 SWAP2 DIV MUL PUSH1 0x20 ADD PUSH1 0x40 MLOAD SWAP1 DUP2 ADD PUSH1 0x40 MSTORE DUP1 SWAP3 SWAP2 SWAP1 DUP2 DUP2 MSTORE PUSH1 0x20 ADD DUP3 DUP1 SLOAD PUSH2 0x1054 SWAP1 PUSH2 0x3C51 JUMP JUMPDEST DUP1 ISZERO PUSH2 0x10A1 JUMPI DUP1 PUSH1 0x1F LT PUSH2 0x1076 JUMPI PUSH2 0x100 DUP1 DUP4 SLOAD DIV MUL DUP4 MSTORE SWAP2 PUSH1 0x20 ADD SWAP2 PUSH2 0x10A1 JUMP JUMPDEST DUP3 ADD SWAP2 SWAP1 PUSH1 0x0 MSTORE PUSH1 0x20 PUSH1 0x0 KECCAK256 SWAP1 JUMPDEST DUP2 SLOAD DUP2 MSTORE SWAP1 PUSH1 0x1 ADD SWAP1 PUSH1 0x20 ADD DUP1 DUP4 GT PUSH2 0x1084 JUMPI DUP3 SWAP1 SUB PUSH1 0x1F AND DUP3 ADD SWAP2 JUMPDEST POP POP POP POP POP DUP2 MSTORE PUSH1 0x20 ADD PUSH1 0x3 DUP3 ADD SLOAD DUP2 MSTORE PUSH1 0x20 ADD PUSH1 0x4 DUP3 ADD SLOAD DUP2 MSTORE POP POP SWAP2 POP POP SWAP2 SWAP1 POP JUMP JUMPDEST PUSH2 0x10CE PUSH2 0x3066 JUMP JUMPDEST PUSH1 0x0 DUP3 DUP2 MSTORE PUSH1 0x18 PUSH1 0x20 MSTORE PUSH1 0x40 SWAP1 KECCAK256 SLOAD PUSH1 0x1 PUSH1 0x1 PUSH1 0xA0 SHL SUB AND CALLER DUP2 EQ DUP1 PUSH2 0x1107 JUMPI POP PUSH2 0x1107 PUSH1 0x0 DUP1 MLOAD PUSH1 0x20 PUSH2 0x3EF0 DUP4 CODECOPY DUP2 MLOAD SWAP2 MSTORE CALLER PUSH2 0x1735 JUMP JUMPDEST PUSH2 0x1123 JUMPI PUSH1 0x40 MLOAD PUSH3 0x461BCD PUSH1 0xE5 SHL DUP2 MSTORE PUSH1 0x4 ADD PUSH2 0x78D SWAP1 PUSH2 0x3DE8 JUMP JUMPDEST PUSH1 0x0 DUP4 DUP2 MSTORE PUSH1 0x13 PUSH1 0x20 SWAP1 DUP2 MSTORE PUSH1 0x40 SWAP2 DUP3 SWAP1 KECCAK256 DUP3 MLOAD PUSH1 0xC0 DUP2 ADD DUP5 MSTORE DUP2 SLOAD DUP2 MSTORE PUSH1 0x1 DUP3 ADD SLOAD PUSH1 0x1 PUSH1 0x1 PUSH1 0xA0 SHL SUB AND SWAP3 DUP2 ADD SWAP3 SWAP1 SWAP3 MSTORE PUSH1 0x2 DUP2 ADD DUP1 SLOAD SWAP3 SWAP4 SWAP2 SWAP3 SWAP2 DUP5 ADD SWAP2 PUSH2 0x116D SWAP1 PUSH2 0x3C51 JUMP JUMPDEST DUP1 PUSH1 0x1F ADD PUSH1 0x20 DUP1 SWAP2 DIV MUL PUSH1 0x20 ADD PUSH1 0x40 MLOAD SWAP1 DUP2 ADD PUSH1 0x40 MSTORE DUP1 SWAP3 SWAP2 SWAP1 DUP2 DUP2 MSTORE PUSH1 0x20 ADD DUP3 DUP1 SLOAD PUSH2 0x1199 SWAP1 PUSH2 0x3C51 JUMP JUMPDEST DUP1 ISZERO PUSH2 0x11E6 JUMPI DUP1 PUSH1 0x1F LT PUSH2 0x11BB JUMPI PUSH2 0x100 DUP1 DUP4 SLOAD DIV MUL DUP4 MSTORE SWAP2 PUSH1 0x20 ADD SWAP2 PUSH2 0x11E6 JUMP JUMPDEST DUP3 ADD SWAP2 SWAP1 PUSH1 0x0 MSTORE PUSH1 0x20 PUSH1 0x0 KECCAK256 SWAP1 JUMPDEST DUP2 SLOAD DUP2 MSTORE SWAP1 PUSH1 0x1 ADD SWAP1 PUSH1 0x20 ADD DUP1 DUP4 GT PUSH2 0x11C9 JUMPI DUP3 SWAP1 SUB PUSH1 0x1F AND DUP3 ADD SWAP2 JUMPDEST POP POP POP SWAP2 DUP4 MSTORE POP POP PUSH1 0x3 DUP3 ADD SLOAD PUSH1 0x20 SWAP1 SWAP2 ADD SWAP1 PUSH1 0xFF AND PUSH1 0x4 DUP2 GT ISZERO PUSH2 0x120D JUMPI PUSH2 0x120D PUSH2 0x34FE JUMP JUMPDEST PUSH1 0x4 DUP2 GT ISZERO PUSH2 0x121E JUMPI PUSH2 0x121E PUSH2 0x34FE JUMP JUMPDEST DUP2 MSTORE PUSH1 0x4 DUP3 ADD SLOAD PUSH1 0x20 DUP3 ADD MSTORE PUSH1 0x5 SWAP1 SWAP2 ADD SLOAD PUSH1 0x40 SWAP1 SWAP2 ADD MSTORE SWAP4 SWAP3 POP POP POP JUMP JUMPDEST PUSH2 0x1245 PUSH2 0x2F47 JUMP JUMPDEST PUSH2 0x124F PUSH1 0x0 PUSH2 0x2F79 JUMP JUMPDEST JUMP JUMPDEST PUSH1 0x0 PUSH2 0x125C DUP2 PUSH2 0x2A28 JUMP JUMPDEST PUSH2 0x1274 PUSH1 0x0 DUP1 MLOAD PUSH1 0x20 PUSH2 0x3ED0 DUP4 CODECOPY DUP2 MLOAD SWAP2 MSTORE DUP4 PUSH2 0x818 JUMP JUMPDEST DUP2 PUSH1 0x1 PUSH1 0x1 PUSH1 0xA0 SHL SUB AND PUSH1 0x0 DUP1 MLOAD PUSH1 0x20 PUSH2 0x3EB0 DUP4 CODECOPY DUP2 MLOAD SWAP2 MSTORE PUSH1 0x0 DUP1 MLOAD PUSH1 0x20 PUSH2 0x3ED0 DUP4 CODECOPY DUP2 MLOAD SWAP2 MSTORE PUSH1 0x40 MLOAD PUSH2 0x725 SWAP2 DUP2 MSTORE PUSH1 0x20 ADD SWAP1 JUMP JUMPDEST PUSH1 0x0 PUSH2 0x12B5 PUSH2 0x2F23 JUMP JUMPDEST CALLER PUSH1 0x0 SWAP1 DUP2 MSTORE PUSH1 0x9 PUSH1 0x20 MSTORE PUSH1 0x40 SWAP1 KECCAK256 PUSH1 0x4 ADD SLOAD PUSH1 0xFF AND PUSH2 0x12E7 JUMPI PUSH1 0x40 MLOAD PUSH3 0x461BCD PUSH1 0xE5 SHL DUP2 MSTORE PUSH1 0x4 ADD PUSH2 0x78D SWAP1 PUSH2 0x3C09 JUMP JUMPDEST PUSH1 0x5 DUP1 SLOAD SWAP1 PUSH1 0x0 PUSH2 0x12F7 DUP4 PUSH2 0x3C2A JUMP JUMPDEST SWAP1 SWAP2 SSTORE POP POP PUSH1 0x5 SLOAD PUSH1 0x40 DUP1 MLOAD PUSH1 0xA0 DUP2 ADD DUP3 MSTORE DUP3 DUP2 MSTORE PUSH1 0x20 DUP1 DUP3 ADD DUP9 DUP2 MSTORE DUP3 DUP5 ADD DUP9 SWAP1 MSTORE PUSH1 0x60 DUP4 ADD DUP8 SWAP1 MSTORE TIMESTAMP PUSH1 0x80 DUP5 ADD MSTORE PUSH1 0x0 DUP6 DUP2 MSTORE PUSH1 0xD SWAP1 SWAP3 MSTORE SWAP3 SWAP1 KECCAK256 DUP2 MLOAD DUP2 SSTORE SWAP2 MLOAD SWAP1 SWAP2 SWAP1 PUSH1 0x1 DUP3 ADD SWAP1 PUSH2 0x134C SWAP1 DUP3 PUSH2 0x3CD9 JUMP JUMPDEST POP PUSH1 0x40 DUP3 ADD MLOAD PUSH1 0x2 DUP3 ADD SWAP1 PUSH2 0x1361 SWAP1 DUP3 PUSH2 0x3CD9 JUMP JUMPDEST POP PUSH1 0x60 DUP3 ADD MLOAD PUSH1 0x3 DUP3 ADD SSTORE PUSH1 0x80 SWAP1 SWAP2 ADD MLOAD PUSH1 0x4 SWAP1 SWAP2 ADD SSTORE PUSH1 0x0 DUP2 DUP2 MSTORE PUSH1 0x15 PUSH1 0x20 SWAP1 DUP2 MSTORE PUSH1 0x40 DUP1 DUP4 KECCAK256 DUP1 SLOAD PUSH1 0x1 PUSH1 0x1 PUSH1 0xA0 SHL SUB NOT AND CALLER SWAP1 DUP2 OR SWAP1 SWAP2 SSTORE DUP1 DUP5 MSTORE PUSH1 0xC DUP4 MSTORE DUP2 DUP5 KECCAK256 DUP1 SLOAD PUSH1 0x1 DUP2 ADD DUP3 SSTORE SWAP1 DUP6 MSTORE SWAP3 SWAP1 SWAP4 KECCAK256 SWAP1 SWAP2 ADD DUP4 SWAP1 SSTORE MLOAD DUP3 SWAP2 SWAP1 PUSH32 0x248B56445B6B2964C05EB68404FEEBE918D6D28DE7F6386FC4CABB9E0B70D500 SWAP1 PUSH2 0x13EC SWAP1 DUP10 SWAP1 PUSH2 0x3D97 JUMP JUMPDEST PUSH1 0x40 MLOAD DUP1 SWAP2 SUB SWAP1 LOG3 SWAP1 POP JUMPDEST SWAP4 SWAP3 POP POP POP JUMP JUMPDEST PUSH1 0x0 PUSH2 0x1409 DUP2 PUSH2 0x2A28 JUMP JUMPDEST PUSH2 0x94B PUSH2 0x2FC9 JUMP JUMPDEST PUSH2 0x1419 PUSH2 0x2F23 JUMP JUMPDEST PUSH1 0x0 DUP5 DUP2 MSTORE PUSH1 0x15 PUSH1 0x20 MSTORE PUSH1 0x40 SWAP1 KECCAK256 SLOAD DUP5 SWAP1 PUSH1 0x1 PUSH1 0x1 PUSH1 0xA0 SHL SUB AND CALLER EQ PUSH2 0x1451 JUMPI PUSH1 0x40 MLOAD PUSH3 0x461BCD PUSH1 0xE5 SHL DUP2 MSTORE PUSH1 0x4 ADD PUSH2 0x78D SWAP1 PUSH2 0x3DC5 JUMP JUMPDEST PUSH1 0x0 DUP6 DUP2 MSTORE PUSH1 0xD PUSH1 0x20 MSTORE PUSH1 0x40 SWAP1 KECCAK256 PUSH1 0x1 DUP2 ADD PUSH2 0x146D DUP7 DUP3 PUSH2 0x3CD9 JUMP JUMPDEST POP PUSH1 0x2 DUP2 ADD PUSH2 0x147C DUP6 DUP3 PUSH2 0x3CD9 JUMP JUMPDEST POP PUSH1 0x3 DUP2 ADD DUP4 SWAP1 SSTORE PUSH1 0x40 MLOAD DUP7 SWAP1 CALLER SWAP1 PUSH32 0x44F08082EF5253266E365753C1E7CEA2B4BB2025062F0CF4E2288FC811D941C8 SWAP1 PUSH2 0x14B8 SWAP1 DUP10 SWAP1 PUSH2 0x3D97 JUMP JUMPDEST PUSH1 0x40 MLOAD DUP1 SWAP2 SUB SWAP1 LOG3 POP POP POP POP POP POP JUMP JUMPDEST PUSH1 0x0 PUSH2 0x14D2 PUSH2 0x2F23 JUMP JUMPDEST CALLER PUSH1 0x0 SWAP1 DUP2 MSTORE PUSH1 0x9 PUSH1 0x20 MSTORE PUSH1 0x40 SWAP1 KECCAK256 PUSH1 0x4 ADD SLOAD PUSH1 0xFF AND PUSH2 0x1504 JUMPI PUSH1 0x40 MLOAD PUSH3 0x461BCD PUSH1 0xE5 SHL DUP2 MSTORE PUSH1 0x4 ADD PUSH2 0x78D SWAP1 PUSH2 0x3C09 JUMP JUMPDEST PUSH1 0x6 DUP1 SLOAD SWAP1 PUSH1 0x0 PUSH2 0x1514 DUP4 PUSH2 0x3C2A JUMP JUMPDEST SWAP2 SWAP1 POP SSTORE POP PUSH1 0x0 PUSH1 0x6 SLOAD SWAP1 POP PUSH1 0x40 MLOAD DUP1 PUSH2 0x100 ADD PUSH1 0x40 MSTORE DUP1 DUP3 DUP2 MSTORE PUSH1 0x20 ADD DUP10 DUP2 MSTORE PUSH1 0x20 ADD DUP9 DUP2 MSTORE PUSH1 0x20 ADD DUP8 PUSH1 0x7 DUP2 GT ISZERO PUSH2 0x1550 JUMPI PUSH2 0x1550 PUSH2 0x34FE JUMP JUMPDEST DUP2 MSTORE DUP7 ISZERO ISZERO PUSH1 0x20 DUP1 DUP4 ADD SWAP2 SWAP1 SWAP2 MSTORE PUSH1 0x40 DUP1 DUP4 ADD DUP9 SWAP1 MSTORE TIMESTAMP PUSH1 0x60 DUP5 ADD MSTORE PUSH1 0x80 SWAP1 SWAP3 ADD DUP7 SWAP1 MSTORE PUSH1 0x0 DUP5 DUP2 MSTORE PUSH1 0xF DUP3 MSTORE SWAP2 SWAP1 SWAP2 KECCAK256 DUP3 MLOAD DUP2 SSTORE SWAP1 DUP3 ADD MLOAD PUSH1 0x1 DUP3 ADD SWAP1 PUSH2 0x1598 SWAP1 DUP3 PUSH2 0x3CD9 JUMP JUMPDEST POP PUSH1 0x40 DUP3 ADD MLOAD PUSH1 0x2 DUP3 ADD SWAP1 PUSH2 0x15AD SWAP1 DUP3 PUSH2 0x3CD9 JUMP JUMPDEST POP PUSH1 0x60 DUP3 ADD MLOAD PUSH1 0x3 DUP3 ADD DUP1 SLOAD PUSH1 0xFF NOT AND PUSH1 0x1 DUP4 PUSH1 0x7 DUP2 GT ISZERO PUSH2 0x15D1 JUMPI PUSH2 0x15D1 PUSH2 0x34FE JUMP JUMPDEST MUL OR SWAP1 SSTORE POP PUSH1 0x80 DUP3 ADD MLOAD PUSH1 0x3 DUP3 ADD DUP1 SLOAD SWAP2 ISZERO ISZERO PUSH2 0x100 MUL PUSH2 0xFF00 NOT SWAP1 SWAP3 AND SWAP2 SWAP1 SWAP2 OR SWAP1 SSTORE PUSH1 0xA0 DUP3 ADD MLOAD PUSH1 0x4 DUP3 ADD SSTORE PUSH1 0xC0 DUP3 ADD MLOAD PUSH1 0x5 DUP3 ADD SSTORE PUSH1 0xE0 DUP3 ADD MLOAD PUSH1 0x6 DUP3 ADD SWAP1 PUSH2 0x161D SWAP1 DUP3 PUSH2 0x3CD9 JUMP JUMPDEST POP POP POP PUSH1 0x0 DUP2 DUP2 MSTORE PUSH1 0x16 PUSH1 0x20 SWAP1 DUP2 MSTORE PUSH1 0x40 DUP1 DUP4 KECCAK256 DUP1 SLOAD PUSH1 0x1 PUSH1 0x1 PUSH1 0xA0 SHL SUB NOT AND CALLER SWAP1 DUP2 OR SWAP1 SWAP2 SSTORE DUP1 DUP5 MSTORE PUSH1 0xE DUP4 MSTORE DUP2 DUP5 KECCAK256 DUP1 SLOAD PUSH1 0x1 DUP2 ADD DUP3 SSTORE SWAP1 DUP6 MSTORE SWAP3 SWAP1 SWAP4 KECCAK256 SWAP1 SWAP2 ADD DUP4 SWAP1 SSTORE MLOAD DUP3 SWAP2 SWAP1 PUSH32 0x7E2AC09F9BDE6130FF92917C5D2CC031AFBBA4154566E196417AA56EB0416793 SWAP1 PUSH2 0x1696 SWAP1 DUP11 SWAP1 DUP14 SWAP1 PUSH2 0x3E09 JUMP JUMPDEST PUSH1 0x40 MLOAD DUP1 SWAP2 SUB SWAP1 LOG3 SWAP8 SWAP7 POP POP POP POP POP POP POP JUMP JUMPDEST PUSH1 0x0 SLOAD PUSH1 0x1 PUSH1 0x1 PUSH1 0xA0 SHL SUB AND SWAP1 JUMP JUMPDEST PUSH1 0x1 PUSH1 0x1 PUSH1 0xA0 SHL SUB DUP2 AND PUSH2 0x16DE JUMPI PUSH1 0x40 MLOAD PUSH3 0x461BCD PUSH1 0xE5 SHL DUP2 MSTORE PUSH1 0x4 ADD PUSH2 0x78D SWAP1 PUSH2 0x3E31 JUMP JUMPDEST CALLER PUSH1 0x0 DUP2 DUP2 MSTORE PUSH1 0x19 PUSH1 0x20 MSTORE PUSH1 0x40 DUP1 DUP3 KECCAK256 DUP1 SLOAD PUSH1 0x1 PUSH1 0x1 PUSH1 0xA0 SHL SUB NOT AND PUSH1 0x1 PUSH1 0x1 PUSH1 0xA0 SHL SUB DUP7 AND SWAP1 DUP2 OR SWAP1 SWAP2 SSTORE SWAP1 MLOAD SWAP1 SWAP3 SWAP2 PUSH32 0xF0E65FE0D2436800E6455B857DBFBC38741836ADE6B9BF9B8177B377317C1D5E SWAP2 LOG3 POP JUMP JUMPDEST PUSH1 0x0 SWAP2 DUP3 MSTORE PUSH1 0x1 PUSH1 0x20 SWAP1 DUP2 MSTORE PUSH1 0x40 DUP1 DUP5 KECCAK256 PUSH1 0x1 PUSH1 0x1 PUSH1 0xA0 SHL SUB SWAP4 SWAP1 SWAP4 AND DUP5 MSTORE SWAP2 SWAP1 MSTORE SWAP1 KECCAK256 SLOAD PUSH1 0xFF AND SWAP1 JUMP JUMPDEST PUSH1 0x0 PUSH2 0x176A PUSH2 0x2F23 JUMP JUMPDEST CALLER PUSH1 0x0 SWAP1 DUP2 MSTORE PUSH1 0x9 PUSH1 0x20 MSTORE PUSH1 0x40 SWAP1 KECCAK256 PUSH1 0x4 ADD SLOAD PUSH1 0xFF AND PUSH2 0x179C JUMPI PUSH1 0x40 MLOAD PUSH3 0x461BCD PUSH1 0xE5 SHL DUP2 MSTORE PUSH1 0x4 ADD PUSH2 0x78D SWAP1 PUSH2 0x3C09 JUMP JUMPDEST PUSH1 0x1 PUSH1 0x1 PUSH1 0xA0 SHL SUB DUP10 AND PUSH2 0x17C2 JUMPI PUSH1 0x40 MLOAD PUSH3 0x461BCD PUSH1 0xE5 SHL DUP2 MSTORE PUSH1 0x4 ADD PUSH2 0x78D SWAP1 PUSH2 0x3E31 JUMP JUMPDEST CALLER PUSH1 0x1 PUSH1 0x1 PUSH1 0xA0 SHL SUB DUP11 AND SUB PUSH2 0x180A JUMPI PUSH1 0x40 MLOAD PUSH3 0x461BCD PUSH1 0xE5 SHL DUP2 MSTORE PUSH1 0x20 PUSH1 0x4 DUP3 ADD MSTORE PUSH1 0xD PUSH1 0x24 DUP3 ADD MSTORE PUSH13 0x4E6F2073656C662D7368617265 PUSH1 0x98 SHL PUSH1 0x44 DUP3 ADD MSTORE PUSH1 0x64 ADD PUSH2 0x78D JUMP JUMPDEST TIMESTAMP DUP5 GT PUSH2 0x184A JUMPI PUSH1 0x40 MLOAD PUSH3 0x461BCD PUSH1 0xE5 SHL DUP2 MSTORE PUSH1 0x20 PUSH1 0x4 DUP3 ADD MSTORE PUSH1 0xE PUSH1 0x24 DUP3 ADD MSTORE PUSH14 0x496E76616C696420657870697279 PUSH1 0x90 SHL PUSH1 0x44 DUP3 ADD MSTORE PUSH1 0x64 ADD PUSH2 0x78D JUMP JUMPDEST PUSH1 0x7 DUP1 SLOAD SWAP1 PUSH1 0x0 PUSH2 0x185A DUP4 PUSH2 0x3C2A JUMP JUMPDEST SWAP2 SWAP1 POP SSTORE POP PUSH1 0x0 PUSH1 0x7 SLOAD SWAP1 POP PUSH1 0x40 MLOAD DUP1 PUSH2 0x160 ADD PUSH1 0x40 MSTORE DUP1 DUP3 DUP2 MSTORE PUSH1 0x20 ADD DUP12 PUSH1 0x1 PUSH1 0x1 PUSH1 0xA0 SHL SUB AND DUP2 MSTORE PUSH1 0x20 ADD DUP11 DUP2 MSTORE PUSH1 0x20 ADD DUP10 DUP2 MSTORE PUSH1 0x20 ADD DUP9 PUSH1 0x6 DUP2 GT ISZERO PUSH2 0x18A5 JUMPI PUSH2 0x18A5 PUSH2 0x34FE JUMP JUMPDEST DUP2 MSTORE PUSH1 0x20 ADD DUP8 PUSH1 0x4 DUP2 GT ISZERO PUSH2 0x18BC JUMPI PUSH2 0x18BC PUSH2 0x34FE JUMP JUMPDEST DUP2 MSTORE PUSH1 0x20 ADD TIMESTAMP DUP2 MSTORE PUSH1 0x20 ADD DUP7 DUP2 MSTORE PUSH1 0x20 ADD DUP6 PUSH1 0x2 DUP2 GT ISZERO PUSH2 0x18DF JUMPI PUSH2 0x18DF PUSH2 0x34FE JUMP JUMPDEST DUP2 MSTORE PUSH1 0x20 ADD PUSH1 0x0 DUP2 MSTORE PUSH1 0x20 SWAP1 DUP2 ADD DUP6 SWAP1 MSTORE PUSH1 0x0 DUP4 DUP2 MSTORE PUSH1 0x11 DUP3 MSTORE PUSH1 0x40 SWAP1 DUP2 SWAP1 KECCAK256 DUP4 MLOAD DUP2 SSTORE SWAP2 DUP4 ADD MLOAD PUSH1 0x1 DUP4 ADD DUP1 SLOAD PUSH1 0x1 PUSH1 0x1 PUSH1 0xA0 SHL SUB NOT AND PUSH1 0x1 PUSH1 0x1 PUSH1 0xA0 SHL SUB SWAP1 SWAP3 AND SWAP2 SWAP1 SWAP2 OR SWAP1 SSTORE DUP3 ADD MLOAD PUSH1 0x2 DUP3 ADD SSTORE PUSH1 0x60 DUP3 ADD MLOAD PUSH1 0x3 DUP3 ADD SWAP1 PUSH2 0x1944 SWAP1 DUP3 PUSH2 0x3CD9 JUMP JUMPDEST POP PUSH1 0x80 DUP3 ADD MLOAD PUSH1 0x4 DUP3 ADD DUP1 SLOAD PUSH1 0xFF NOT AND PUSH1 0x1 DUP4 PUSH1 0x6 DUP2 GT ISZERO PUSH2 0x1968 JUMPI PUSH2 0x1968 PUSH2 0x34FE JUMP JUMPDEST MUL OR SWAP1 SSTORE POP PUSH1 0xA0 DUP3 ADD MLOAD DUP2 PUSH1 0x4 ADD PUSH1 0x1 PUSH2 0x100 EXP DUP2 SLOAD DUP2 PUSH1 0xFF MUL NOT AND SWAP1 DUP4 PUSH1 0x4 DUP2 GT ISZERO PUSH2 0x1997 JUMPI PUSH2 0x1997 PUSH2 0x34FE JUMP JUMPDEST MUL OR SWAP1 SSTORE POP PUSH1 0xC0 DUP3 ADD MLOAD PUSH1 0x5 DUP3 ADD SSTORE PUSH1 0xE0 DUP3 ADD MLOAD PUSH1 0x6 DUP3 ADD SSTORE PUSH2 0x100 DUP3 ADD MLOAD PUSH1 0x7 DUP3 ADD DUP1 SLOAD PUSH1 0xFF NOT AND PUSH1 0x1 DUP4 PUSH1 0x2 DUP2 GT ISZERO PUSH2 0x19D4 JUMPI PUSH2 0x19D4 PUSH2 0x34FE JUMP JUMPDEST MUL OR SWAP1 SSTORE POP PUSH2 0x120 DUP3 ADD MLOAD PUSH1 0x7 DUP3 ADD DUP1 SLOAD PUSH2 0xFF00 NOT AND PUSH2 0x100 DUP4 PUSH1 0x2 DUP2 GT ISZERO PUSH2 0x19FF JUMPI PUSH2 0x19FF PUSH2 0x34FE JUMP JUMPDEST MUL OR SWAP1 SSTORE POP PUSH2 0x140 DUP3 ADD MLOAD PUSH1 0x8 DUP3 ADD SWAP1 PUSH2 0x1A19 SWAP1 DUP3 PUSH2 0x3CD9 JUMP JUMPDEST POP POP POP PUSH1 0x0 DUP2 DUP2 MSTORE PUSH1 0x17 PUSH1 0x20 SWAP1 DUP2 MSTORE PUSH1 0x40 DUP1 DUP4 KECCAK256 DUP1 SLOAD PUSH1 0x1 PUSH1 0x1 PUSH1 0xA0 SHL SUB NOT AND CALLER SWAP1 DUP2 OR SWAP1 SWAP2 SSTORE DUP1 DUP5 MSTORE PUSH1 0x10 DUP4 MSTORE DUP2 DUP5 KECCAK256 DUP1 SLOAD PUSH1 0x1 DUP2 ADD DUP3 SSTORE SWAP1 DUP6 MSTORE SWAP3 SWAP1 SWAP4 KECCAK256 SWAP1 SWAP2 ADD DUP4 SWAP1 SSTORE MLOAD DUP3 SWAP2 PUSH1 0x1 PUSH1 0x1 PUSH1 0xA0 SHL SUB DUP14 AND SWAP2 PUSH32 0xA659897907550AD23DF4ACC58AF8F2928FB8C5F64323D619580011B039A8649 SWAP1 PUSH2 0x1A9C SWAP1 DUP12 SWAP1 DUP12 SWAP1 PUSH2 0x3DAA JUMP JUMPDEST PUSH1 0x40 MLOAD DUP1 SWAP2 SUB SWAP1 LOG4 SWAP10 SWAP9 POP POP POP POP POP POP POP POP POP JUMP JUMPDEST PUSH2 0x1AB9 PUSH2 0x2F23 JUMP JUMPDEST PUSH1 0x0 DUP6 DUP2 MSTORE PUSH1 0x14 PUSH1 0x20 MSTORE PUSH1 0x40 SWAP1 KECCAK256 SLOAD DUP6 SWAP1 PUSH1 0x1 PUSH1 0x1 PUSH1 0xA0 SHL SUB AND CALLER EQ PUSH2 0x1AF1 JUMPI PUSH1 0x40 MLOAD PUSH3 0x461BCD PUSH1 0xE5 SHL DUP2 MSTORE PUSH1 0x4 ADD PUSH2 0x78D SWAP1 PUSH2 0x3DC5 JUMP JUMPDEST PUSH1 0x0 DUP7 DUP2 MSTORE PUSH1 0xB PUSH1 0x20 MSTORE PUSH1 0x40 SWAP1 KECCAK256 PUSH1 0x1 DUP2 ADD PUSH2 0x1B0D DUP8 DUP3 PUSH2 0x3CD9 JUMP JUMPDEST POP PUSH1 0x2 DUP2 ADD DUP1 SLOAD PUSH1 0xFF NOT AND DUP7 ISZERO ISZERO OR SWAP1 SSTORE PUSH1 0x3 DUP2 ADD DUP5 SWAP1 SSTORE PUSH1 0x4 DUP2 ADD DUP4 SWAP1 SSTORE PUSH1 0x40 MLOAD DUP8 SWAP1 CALLER SWAP1 PUSH32 0x4D3508C2ADE1F9D136F8852A5ED95ACE66534D58AB56C35DD69E8AE6ECC8A711 SWAP1 PUSH2 0x1B60 SWAP1 DUP11 SWAP1 PUSH2 0x3D97 JUMP JUMPDEST PUSH1 0x40 MLOAD DUP1 SWAP2 SUB SWAP1 LOG3 POP POP POP POP POP POP POP JUMP JUMPDEST PUSH2 0x1B79 PUSH2 0x30B6 JUMP JUMPDEST PUSH1 0x0 DUP3 DUP2 MSTORE PUSH1 0x17 PUSH1 0x20 MSTORE PUSH1 0x40 SWAP1 KECCAK256 SLOAD PUSH1 0x1 PUSH1 0x1 PUSH1 0xA0 SHL SUB AND CALLER DUP2 EQ DUP1 PUSH2 0x1BB8 JUMPI POP PUSH1 0x0 DUP4 DUP2 MSTORE PUSH1 0x11 PUSH1 0x20 MSTORE PUSH1 0x40 SWAP1 KECCAK256 PUSH1 0x1 ADD SLOAD PUSH1 0x1 PUSH1 0x1 PUSH1 0xA0 SHL SUB AND CALLER EQ JUMPDEST DUP1 PUSH2 0x1BD6 JUMPI POP PUSH2 0x1BD6 PUSH1 0x0 DUP1 MLOAD PUSH1 0x20 PUSH2 0x3EF0 DUP4 CODECOPY DUP2 MLOAD SWAP2 MSTORE CALLER PUSH2 0x1735 JUMP JUMPDEST PUSH2 0x1BF2 JUMPI PUSH1 0x40 MLOAD PUSH3 0x461BCD PUSH1 0xE5 SHL DUP2 MSTORE PUSH1 0x4 ADD PUSH2 0x78D SWAP1 PUSH2 0x3DE8 JUMP JUMPDEST PUSH1 0x0 DUP4 DUP2 MSTORE PUSH1 0x11 PUSH1 0x20 SWAP1 DUP2 MSTORE PUSH1 0x40 DUP1 DUP4 KECCAK256 DUP2 MLOAD PUSH2 0x160 DUP2 ADD DUP4 MSTORE DUP2 SLOAD DUP2 MSTORE PUSH1 0x1 DUP3 ADD SLOAD PUSH1 0x1 PUSH1 0x1 PUSH1 0xA0 SHL SUB AND SWAP4 DUP2 ADD SWAP4 SWAP1 SWAP4 MSTORE PUSH1 0x2 DUP2 ADD SLOAD SWAP2 DUP4 ADD SWAP2 SWAP1 SWAP2 MSTORE PUSH1 0x3 DUP2 ADD DUP1 SLOAD PUSH1 0x60 DUP5 ADD SWAP2 SWAP1 PUSH2 0x1C46 SWAP1 PUSH2 0x3C51 JUMP JUMPDEST DUP1 PUSH1 0x1F ADD PUSH1 0x20 DUP1 SWAP2 DIV MUL PUSH1 0x20 ADD PUSH1 0x40 MLOAD SWAP1 DUP2 ADD PUSH1 0x40 MSTORE DUP1 SWAP3 SWAP2 SWAP1 DUP2 DUP2 MSTORE PUSH1 0x20 ADD DUP3 DUP1 SLOAD PUSH2 0x1C72 SWAP1 PUSH2 0x3C51 JUMP JUMPDEST DUP1 ISZERO PUSH2 0x1CBF JUMPI DUP1 PUSH1 0x1F LT PUSH2 0x1C94 JUMPI PUSH2 0x100 DUP1 DUP4 SLOAD DIV MUL DUP4 MSTORE SWAP2 PUSH1 0x20 ADD SWAP2 PUSH2 0x1CBF JUMP JUMPDEST DUP3 ADD SWAP2 SWAP1 PUSH1 0x0 MSTORE PUSH1 0x20 PUSH1 0x0 KECCAK256 SWAP1 JUMPDEST DUP2 SLOAD DUP2 MSTORE SWAP1 PUSH1 0x1 ADD SWAP1 PUSH1 0x20 ADD DUP1 DUP4 GT PUSH2 0x1CA2 JUMPI DUP3 SWAP1 SUB PUSH1 0x1F AND DUP3 ADD SWAP2 JUMPDEST POP POP POP SWAP2 DUP4 MSTORE POP POP PUSH1 0x4 DUP3 ADD SLOAD PUSH1 0x20 SWAP1 SWAP2 ADD SWAP1 PUSH1 0xFF AND PUSH1 0x6 DUP2 GT ISZERO PUSH2 0x1CE6 JUMPI PUSH2 0x1CE6 PUSH2 0x34FE JUMP JUMPDEST PUSH1 0x6 DUP2 GT ISZERO PUSH2 0x1CF7 JUMPI PUSH2 0x1CF7 PUSH2 0x34FE JUMP JUMPDEST DUP2 MSTORE PUSH1 0x20 ADD PUSH1 0x4 DUP3 ADD PUSH1 0x1 SWAP1 SLOAD SWAP1 PUSH2 0x100 EXP SWAP1 DIV PUSH1 0xFF AND PUSH1 0x4 DUP2 GT ISZERO PUSH2 0x1D1F JUMPI PUSH2 0x1D1F PUSH2 0x34FE JUMP JUMPDEST PUSH1 0x4 DUP2 GT ISZERO PUSH2 0x1D30 JUMPI PUSH2 0x1D30 PUSH2 0x34FE JUMP JUMPDEST DUP2 MSTORE PUSH1 0x5 DUP3 ADD SLOAD PUSH1 0x20 DUP3 ADD MSTORE PUSH1 0x6 DUP3 ADD SLOAD PUSH1 0x40 DUP3 ADD MSTORE PUSH1 0x7 DUP3 ADD SLOAD PUSH1 0x60 SWAP1 SWAP2 ADD SWAP1 PUSH1 0xFF AND PUSH1 0x2 DUP2 GT ISZERO PUSH2 0x1D65 JUMPI PUSH2 0x1D65 PUSH2 0x34FE JUMP JUMPDEST PUSH1 0x2 DUP2 GT ISZERO PUSH2 0x1D76 JUMPI PUSH2 0x1D76 PUSH2 0x34FE JUMP JUMPDEST DUP2 MSTORE PUSH1 0x20 ADD PUSH1 0x7 DUP3 ADD PUSH1 0x1 SWAP1 SLOAD SWAP1 PUSH2 0x100 EXP SWAP1 DIV PUSH1 0xFF AND PUSH1 0x2 DUP2 GT ISZERO PUSH2 0x1D9E JUMPI PUSH2 0x1D9E PUSH2 0x34FE JUMP JUMPDEST PUSH1 0x2 DUP2 GT ISZERO PUSH2 0x1DAF JUMPI PUSH2 0x1DAF PUSH2 0x34FE JUMP JUMPDEST DUP2 MSTORE PUSH1 0x20 ADD PUSH1 0x8 DUP3 ADD DUP1 SLOAD PUSH2 0x1DC3 SWAP1 PUSH2 0x3C51 JUMP JUMPDEST DUP1 PUSH1 0x1F ADD PUSH1 0x20 DUP1 SWAP2 DIV MUL PUSH1 0x20 ADD PUSH1 0x40 MLOAD SWAP1 DUP2 ADD PUSH1 0x40 MSTORE DUP1 SWAP3 SWAP2 SWAP1 DUP2 DUP2 MSTORE PUSH1 0x20 ADD DUP3 DUP1 SLOAD PUSH2 0x1DEF SWAP1 PUSH2 0x3C51 JUMP JUMPDEST DUP1 ISZERO PUSH2 0x1E3C JUMPI DUP1 PUSH1 0x1F LT PUSH2 0x1E11 JUMPI PUSH2 0x100 DUP1 DUP4 SLOAD DIV MUL DUP4 MSTORE SWAP2 PUSH1 0x20 ADD SWAP2 PUSH2 0x1E3C JUMP JUMPDEST DUP3 ADD SWAP2 SWAP1 PUSH1 0x0 MSTORE PUSH1 0x20 PUSH1 0x0 KECCAK256 SWAP1 JUMPDEST DUP2 SLOAD DUP2 MSTORE SWAP1 PUSH1 0x1 ADD SWAP1 PUSH1 0x20 ADD DUP1 DUP4 GT PUSH2 0x1E1F JUMPI DUP3 SWAP1 SUB PUSH1 0x1F AND DUP3 ADD SWAP2 JUMPDEST POP POP POP POP POP DUP2 MSTORE POP POP SWAP1 POP DUP1 PUSH1 0xE0 ADD MLOAD TIMESTAMP GT DUP1 ISZERO PUSH2 0x1E70 JUMPI POP PUSH1 0x0 DUP2 PUSH2 0x120 ADD MLOAD PUSH1 0x2 DUP2 GT ISZERO PUSH2 0x1E6E JUMPI PUSH2 0x1E6E PUSH2 0x34FE JUMP JUMPDEST EQ JUMPDEST ISZERO PUSH2 0x13F7 JUMPI PUSH1 0x1 PUSH2 0x120 DUP3 ADD MSTORE SWAP4 SWAP3 POP POP POP JUMP JUMPDEST PUSH1 0x60 CALLER PUSH1 0x1 PUSH1 0x1 PUSH1 0xA0 SHL SUB DUP4 AND EQ DUP1 PUSH2 0x1EB0 JUMPI POP PUSH2 0x1EB0 PUSH1 0x0 DUP1 MLOAD PUSH1 0x20 PUSH2 0x3EF0 DUP4 CODECOPY DUP2 MLOAD SWAP2 MSTORE CALLER PUSH2 0x1735 JUMP JUMPDEST PUSH2 0x1ECC JUMPI PUSH1 0x40 MLOAD PUSH3 0x461BCD PUSH1 0xE5 SHL DUP2 MSTORE PUSH1 0x4 ADD PUSH2 0x78D SWAP1 PUSH2 0x3DE8 JUMP JUMPDEST PUSH1 0x1 PUSH1 0x1 PUSH1 0xA0 SHL SUB DUP3 AND PUSH1 0x0 SWAP1 DUP2 MSTORE PUSH1 0x10 PUSH1 0x20 SWAP1 DUP2 MSTORE PUSH1 0x40 SWAP2 DUP3 SWAP1 KECCAK256 DUP1 SLOAD DUP4 MLOAD DUP2 DUP5 MUL DUP2 ADD DUP5 ADD SWAP1 SWAP5 MSTORE DUP1 DUP5 MSTORE SWAP1 SWAP2 DUP4 ADD DUP3 DUP3 DUP1 ISZERO PUSH2 0x1F2A JUMPI PUSH1 0x20 MUL DUP3 ADD SWAP2 SWAP1 PUSH1 0x0 MSTORE PUSH1 0x20 PUSH1 0x0 KECCAK256 SWAP1 JUMPDEST DUP2 SLOAD DUP2 MSTORE PUSH1 0x20 ADD SWAP1 PUSH1 0x1 ADD SWAP1 DUP1 DUP4 GT PUSH2 0x1F16 JUMPI JUMPDEST POP POP POP POP POP SWAP1 POP SWAP2 SWAP1 POP JUMP JUMPDEST PUSH1 0x0 PUSH2 0x1F41 DUP2 PUSH2 0x2A28 JUMP JUMPDEST PUSH2 0x1F59 PUSH1 0x0 DUP1 MLOAD PUSH1 0x20 PUSH2 0x3F10 DUP4 CODECOPY DUP2 MLOAD SWAP2 MSTORE DUP4 PUSH2 0x818 JUMP JUMPDEST DUP2 PUSH1 0x1 PUSH1 0x1 PUSH1 0xA0 SHL SUB AND PUSH1 0x0 DUP1 MLOAD PUSH1 0x20 PUSH2 0x3EB0 DUP4 CODECOPY DUP2 MLOAD SWAP2 MSTORE PUSH1 0x0 DUP1 MLOAD PUSH1 0x20 PUSH2 0x3F10 DUP4 CODECOPY DUP2 MLOAD SWAP2 MSTORE PUSH1 0x40 MLOAD PUSH2 0x725 SWAP2 DUP2 MSTORE PUSH1 0x20 ADD SWAP1 JUMP JUMPDEST PUSH1 0x60 CALLER PUSH1 0x1 PUSH1 0x1 PUSH1 0xA0 SHL SUB DUP4 AND EQ DUP1 PUSH2 0x1FBC JUMPI POP PUSH2 0x1FBC PUSH1 0x0 DUP1 MLOAD PUSH1 0x20 PUSH2 0x3EF0 DUP4 CODECOPY DUP2 MLOAD SWAP2 MSTORE CALLER PUSH2 0x1735 JUMP JUMPDEST PUSH2 0x1FD8 JUMPI PUSH1 0x40 MLOAD PUSH3 0x461BCD PUSH1 0xE5 SHL DUP2 MSTORE PUSH1 0x4 ADD PUSH2 0x78D SWAP1 PUSH2 0x3DE8 JUMP JUMPDEST PUSH1 0x1 PUSH1 0x1 PUSH1 0xA0 SHL SUB DUP3 AND PUSH1 0x0 SWAP1 DUP2 MSTORE PUSH1 0x12 PUSH1 0x20 SWAP1 DUP2 MSTORE PUSH1 0x40 SWAP2 DUP3 SWAP1 KECCAK256 DUP1 SLOAD DUP4 MLOAD DUP2 DUP5 MUL DUP2 ADD DUP5 ADD SWAP1 SWAP5 MSTORE DUP1 DUP5 MSTORE SWAP1 SWAP2 DUP4 ADD DUP3 DUP3 DUP1 ISZERO PUSH2 0x1F2A JUMPI PUSH1 0x20 MUL DUP3 ADD SWAP2 SWAP1 PUSH1 0x0 MSTORE PUSH1 0x20 PUSH1 0x0 KECCAK256 SWAP1 DUP2 SLOAD DUP2 MSTORE PUSH1 0x20 ADD SWAP1 PUSH1 0x1 ADD SWAP1 DUP1 DUP4 GT PUSH2 0x1F16 JUMPI POP POP POP POP POP SWAP1 POP SWAP2 SWAP1 POP JUMP JUMPDEST PUSH1 0x0 PUSH2 0x204B DUP2 PUSH2 0x2A28 JUMP JUMPDEST PUSH2 0x2063 PUSH1 0x0 DUP1 MLOAD PUSH1 0x20 PUSH2 0x3F30 DUP4 CODECOPY DUP2 MLOAD SWAP2 MSTORE DUP4 PUSH2 0x818 JUMP JUMPDEST DUP2 PUSH1 0x1 PUSH1 0x1 PUSH1 0xA0 SHL SUB AND PUSH1 0x0 DUP1 MLOAD PUSH1 0x20 PUSH2 0x3EB0 DUP4 CODECOPY DUP2 MLOAD SWAP2 MSTORE PUSH1 0x0 DUP1 MLOAD PUSH1 0x20 PUSH2 0x3F30 DUP4 CODECOPY DUP2 MLOAD SWAP2 MSTORE PUSH1 0x40 MLOAD PUSH2 0x725 SWAP2 DUP2 MSTORE PUSH1 0x20 ADD SWAP1 JUMP JUMPDEST PUSH2 0x20A2 PUSH2 0x2F23 JUMP JUMPDEST PUSH1 0x0 DUP8 DUP2 MSTORE PUSH1 0x16 PUSH1 0x20 MSTORE PUSH1 0x40 SWAP1 KECCAK256 SLOAD DUP8 SWAP1 PUSH1 0x1 PUSH1 0x1 PUSH1 0xA0 SHL SUB AND CALLER EQ PUSH2 0x20DA JUMPI PUSH1 0x40 MLOAD PUSH3 0x461BCD PUSH1 0xE5 SHL DUP2 MSTORE PUSH1 0x4 ADD PUSH2 0x78D SWAP1 PUSH2 0x3DC5 JUMP JUMPDEST PUSH1 0x0 DUP9 DUP2 MSTORE PUSH1 0xF PUSH1 0x20 MSTORE PUSH1 0x40 SWAP1 KECCAK256 PUSH1 0x1 DUP2 ADD PUSH2 0x20F6 DUP10 DUP3 PUSH2 0x3CD9 JUMP JUMPDEST POP PUSH1 0x2 DUP2 ADD PUSH2 0x2105 DUP9 DUP3 PUSH2 0x3CD9 JUMP JUMPDEST POP PUSH1 0x3 DUP2 ADD DUP1 SLOAD DUP8 SWAP2 SWAP1 PUSH1 0xFF NOT AND PUSH1 0x1 DUP4 PUSH1 0x7 DUP2 GT ISZERO PUSH2 0x2127 JUMPI PUSH2 0x2127 PUSH2 0x34FE JUMP JUMPDEST MUL OR SWAP1 SSTORE POP PUSH1 0x3 DUP2 ADD DUP1 SLOAD PUSH2 0xFF00 NOT AND PUSH2 0x100 DUP8 ISZERO ISZERO MUL OR SWAP1 SSTORE PUSH1 0x4 DUP2 ADD DUP5 SWAP1 SSTORE PUSH1 0x6 DUP2 ADD PUSH2 0x2156 DUP5 DUP3 PUSH2 0x3CD9 JUMP JUMPDEST POP DUP9 CALLER PUSH1 0x1 PUSH1 0x1 PUSH1 0xA0 SHL SUB AND PUSH32 0x194F475ED1A7936BC502C5F68BE59AB8B4E5EF3ADC105D56862F112B1547F25 DUP11 PUSH1 0x40 MLOAD PUSH2 0x2191 SWAP2 SWAP1 PUSH2 0x3D97 JUMP JUMPDEST PUSH1 0x40 MLOAD DUP1 SWAP2 SUB SWAP1 LOG3 POP POP POP POP POP POP POP POP POP JUMP JUMPDEST PUSH2 0x21AD DUP3 PUSH2 0x802 JUMP JUMPDEST PUSH2 0x21B6 DUP2 PUSH2 0x2A28 JUMP JUMPDEST PUSH2 0x834 DUP4 DUP4 PUSH2 0x2E6A JUMP JUMPDEST PUSH1 0x60 DUP2 PUSH1 0x1 CALLER PUSH1 0x1 PUSH1 0x1 PUSH1 0xA0 SHL SUB DUP4 AND EQ DUP1 PUSH2 0x21E2 JUMPI POP PUSH2 0x21E2 DUP3 CALLER DUP4 PUSH2 0x2A32 JUMP JUMPDEST DUP1 PUSH2 0x2200 JUMPI POP PUSH2 0x2200 PUSH1 0x0 DUP1 MLOAD PUSH1 0x20 PUSH2 0x3EF0 DUP4 CODECOPY DUP2 MLOAD SWAP2 MSTORE CALLER PUSH2 0x1735 JUMP JUMPDEST PUSH2 0x221C JUMPI PUSH1 0x40 MLOAD PUSH3 0x461BCD PUSH1 0xE5 SHL DUP2 MSTORE PUSH1 0x4 ADD PUSH2 0x78D SWAP1 PUSH2 0x3BE6 JUMP JUMPDEST PUSH1 0x1 PUSH1 0x1 PUSH1 0xA0 SHL SUB DUP5 AND PUSH1 0x0 SWAP1 DUP2 MSTORE PUSH1 0xA PUSH1 0x20 SWAP1 DUP2 MSTORE PUSH1 0x40 SWAP2 DUP3 SWAP1 KECCAK256 DUP1 SLOAD DUP4 MLOAD DUP2 DUP5 MUL DUP2 ADD DUP5 ADD SWAP1 SWAP5 MSTORE DUP1 DUP5 MSTORE SWAP1 SWAP2 DUP4 ADD DUP3 DUP3 DUP1 ISZERO PUSH2 0x7F4 JUMPI PUSH1 0x20 MUL DUP3 ADD SWAP2 SWAP1 PUSH1 0x0 MSTORE PUSH1 0x20 PUSH1 0x0 KECCAK256 SWAP1 DUP2 SLOAD DUP2 MSTORE PUSH1 0x20 ADD SWAP1 PUSH1 0x1 ADD SWAP1 DUP1 DUP4 GT PUSH2 0x7E0 JUMPI POP POP POP POP POP SWAP3 POP POP POP SWAP2 SWAP1 POP JUMP JUMPDEST PUSH1 0x0 PUSH2 0x2291 DUP2 PUSH2 0x2A28 JUMP JUMPDEST PUSH2 0x22A9 PUSH1 0x0 DUP1 MLOAD PUSH1 0x20 PUSH2 0x3EF0 DUP4 CODECOPY DUP2 MLOAD SWAP2 MSTORE DUP4 PUSH2 0x818 JUMP JUMPDEST DUP2 PUSH1 0x1 PUSH1 0x1 PUSH1 0xA0 SHL SUB AND PUSH1 0x0 DUP1 MLOAD PUSH1 0x20 PUSH2 0x3EB0 DUP4 CODECOPY DUP2 MLOAD SWAP2 MSTORE PUSH1 0x0 DUP1 MLOAD PUSH1 0x20 PUSH2 0x3EF0 DUP4 CODECOPY DUP2 MLOAD SWAP2 MSTORE PUSH1 0x40 MLOAD PUSH2 0x725 SWAP2 DUP2 MSTORE PUSH1 0x20 ADD SWAP1 JUMP JUMPDEST PUSH2 0x22E8 PUSH2 0x3120 JUMP JUMPDEST PUSH1 0x0 DUP3 DUP2 MSTORE PUSH1 0x16 PUSH1 0x20 MSTORE PUSH1 0x40 SWAP1 KECCAK256 SLOAD PUSH1 0x1 PUSH1 0x1 PUSH1 0xA0 SHL SUB AND CALLER DUP2 EQ DUP1 PUSH2 0x2315 JUMPI POP PUSH2 0x2315 DUP2 CALLER PUSH1 0x3 PUSH2 0x2A32 JUMP JUMPDEST DUP1 PUSH2 0x2333 JUMPI POP PUSH2 0x2333 PUSH1 0x0 DUP1 MLOAD PUSH1 0x20 PUSH2 0x3EF0 DUP4 CODECOPY DUP2 MLOAD SWAP2 MSTORE CALLER PUSH2 0x1735 JUMP JUMPDEST PUSH2 0x234F JUMPI PUSH1 0x40 MLOAD PUSH3 0x461BCD PUSH1 0xE5 SHL DUP2 MSTORE PUSH1 0x4 ADD PUSH2 0x78D SWAP1 PUSH2 0x3BE6 JUMP JUMPDEST PUSH1 0xF PUSH1 0x0 DUP5 DUP2 MSTORE PUSH1 0x20 ADD SWAP1 DUP2 MSTORE PUSH1 0x20 ADD PUSH1 0x0 KECCAK256 PUSH1 0x40 MLOAD DUP1 PUSH2 0x100 ADD PUSH1 0x40 MSTORE SWAP1 DUP2 PUSH1 0x0 DUP3 ADD SLOAD DUP2 MSTORE PUSH1 0x20 ADD PUSH1 0x1 DUP3 ADD DUP1 SLOAD PUSH2 0x2388 SWAP1 PUSH2 0x3C51 JUMP JUMPDEST DUP1 PUSH1 0x1F ADD PUSH1 0x20 DUP1 SWAP2 DIV MUL PUSH1 0x20 ADD PUSH1 0x40 MLOAD SWAP1 DUP2 ADD PUSH1 0x40 MSTORE DUP1 SWAP3 SWAP2 SWAP1 DUP2 DUP2 MSTORE PUSH1 0x20 ADD DUP3 DUP1 SLOAD PUSH2 0x23B4 SWAP1 PUSH2 0x3C51 JUMP JUMPDEST DUP1 ISZERO PUSH2 0x2401 JUMPI DUP1 PUSH1 0x1F LT PUSH2 0x23D6 JUMPI PUSH2 0x100 DUP1 DUP4 SLOAD DIV MUL DUP4 MSTORE SWAP2 PUSH1 0x20 ADD SWAP2 PUSH2 0x2401 JUMP JUMPDEST DUP3 ADD SWAP2 SWAP1 PUSH1 0x0 MSTORE PUSH1 0x20 PUSH1 0x0 KECCAK256 SWAP1 JUMPDEST DUP2 SLOAD DUP2 MSTORE SWAP1 PUSH1 0x1 ADD SWAP1 PUSH1 0x20 ADD DUP1 DUP4 GT PUSH2 0x23E4 JUMPI DUP3 SWAP1 SUB PUSH1 0x1F AND DUP3 ADD SWAP2 JUMPDEST POP POP POP POP POP DUP2 MSTORE PUSH1 0x20 ADD PUSH1 0x2 DUP3 ADD DUP1 SLOAD PUSH2 0x241A SWAP1 PUSH2 0x3C51 JUMP JUMPDEST DUP1 PUSH1 0x1F ADD PUSH1 0x20 DUP1 SWAP2 DIV MUL PUSH1 0x20 ADD PUSH1 0x40 MLOAD SWAP1 DUP2 ADD PUSH1 0x40 MSTORE DUP1 SWAP3 SWAP2 SWAP1 DUP2 DUP2 MSTORE PUSH1 0x20 ADD DUP3 DUP1 SLOAD PUSH2 0x2446 SWAP1 PUSH2 0x3C51 JUMP JUMPDEST DUP1 ISZERO PUSH2 0x2493 JUMPI DUP1 PUSH1 0x1F LT PUSH2 0x2468 JUMPI PUSH2 0x100 DUP1 DUP4 SLOAD DIV MUL DUP4 MSTORE SWAP2 PUSH1 0x20 ADD SWAP2 PUSH2 0x2493 JUMP JUMPDEST DUP3 ADD SWAP2 SWAP1 PUSH1 0x0 MSTORE PUSH1 0x20 PUSH1 0x0 KECCAK256 SWAP1 JUMPDEST DUP2 SLOAD DUP2 MSTORE SWAP1 PUSH1 0x1 ADD SWAP1 PUSH1 0x20 ADD DUP1 DUP4 GT PUSH2 0x2476 JUMPI DUP3 SWAP1 SUB PUSH1 0x1F AND DUP3 ADD SWAP2 JUMPDEST POP POP POP SWAP2 DUP4 MSTORE POP POP PUSH1 0x3 DUP3 ADD SLOAD PUSH1 0x20 SWAP1 SWAP2 ADD SWAP1 PUSH1 0xFF AND PUSH1 0x7 DUP2 GT ISZERO PUSH2 0x24BA JUMPI PUSH2 0x24BA PUSH2 0x34FE JUMP JUMPDEST PUSH1 0x7 DUP2 GT ISZERO PUSH2 0x24CB JUMPI PUSH2 0x24CB PUSH2 0x34FE JUMP JUMPDEST DUP2 MSTORE PUSH1 0x3 DUP3 ADD SLOAD PUSH2 0x100 SWAP1 DIV PUSH1 0xFF AND ISZERO ISZERO PUSH1 0x20 DUP3 ADD MSTORE PUSH1 0x4 DUP3 ADD SLOAD PUSH1 0x40 DUP3 ADD MSTORE PUSH1 0x5 DUP3 ADD SLOAD PUSH1 0x60 DUP3 ADD MSTORE PUSH1 0x6 DUP3 ADD DUP1 SLOAD PUSH1 0x80 SWAP1 SWAP3 ADD SWAP2 PUSH2 0x250A SWAP1 PUSH2 0x3C51 JUMP JUMPDEST DUP1 PUSH1 0x1F ADD PUSH1 0x20 DUP1 SWAP2 DIV MUL PUSH1 0x20 ADD PUSH1 0x40 MLOAD SWAP1 DUP2 ADD PUSH1 0x40 MSTORE DUP1 SWAP3 SWAP2 SWAP1 DUP2 DUP2 MSTORE PUSH1 0x20 ADD DUP3 DUP1 SLOAD PUSH2 0x2536 SWAP1 PUSH2 0x3C51 JUMP JUMPDEST DUP1 ISZERO PUSH2 0x2583 JUMPI DUP1 PUSH1 0x1F LT PUSH2 0x2558 JUMPI PUSH2 0x100 DUP1 DUP4 SLOAD DIV MUL DUP4 MSTORE SWAP2 PUSH1 0x20 ADD SWAP2 PUSH2 0x2583 JUMP JUMPDEST DUP3 ADD SWAP2 SWAP1 PUSH1 0x0 MSTORE PUSH1 0x20 PUSH1 0x0 KECCAK256 SWAP1 JUMPDEST DUP2 SLOAD DUP2 MSTORE SWAP1 PUSH1 0x1 ADD SWAP1 PUSH1 0x20 ADD DUP1 DUP4 GT PUSH2 0x2566 JUMPI DUP3 SWAP1 SUB PUSH1 0x1F AND DUP3 ADD SWAP2 JUMPDEST POP POP POP POP POP DUP2 MSTORE POP POP SWAP2 POP POP SWAP2 SWAP1 POP JUMP JUMPDEST PUSH2 0x259C PUSH2 0x2F23 JUMP JUMPDEST CALLER PUSH1 0x0 SWAP1 DUP2 MSTORE PUSH1 0x9 PUSH1 0x20 MSTORE PUSH1 0x40 SWAP1 KECCAK256 PUSH1 0x4 ADD SLOAD PUSH1 0xFF AND ISZERO DUP1 ISZERO PUSH2 0x2694 JUMPI PUSH1 0x40 DUP1 MLOAD PUSH1 0xC0 DUP2 ADD DUP3 MSTORE DUP6 DUP2 MSTORE PUSH1 0x20 DUP1 DUP3 ADD DUP7 SWAP1 MSTORE TIMESTAMP DUP3 DUP5 ADD DUP2 SWAP1 MSTORE PUSH1 0x60 DUP4 ADD MSTORE PUSH1 0x1 PUSH1 0x80 DUP4 ADD MSTORE PUSH1 0xA0 DUP3 ADD DUP6 SWAP1 MSTORE CALLER PUSH1 0x0 SWAP1 DUP2 MSTORE PUSH1 0x9 SWAP1 SWAP2 MSTORE SWAP2 SWAP1 SWAP2 KECCAK256 DUP2 MLOAD DUP2 SWAP1 PUSH2 0x2605 SWAP1 DUP3 PUSH2 0x3CD9 JUMP JUMPDEST POP PUSH1 0x20 DUP3 ADD MLOAD PUSH1 0x1 DUP3 ADD SSTORE PUSH1 0x40 DUP3 ADD MLOAD PUSH1 0x2 DUP3 ADD SSTORE PUSH1 0x60 DUP3 ADD MLOAD PUSH1 0x3 DUP3 ADD SSTORE PUSH1 0x80 DUP3 ADD MLOAD PUSH1 0x4 DUP3 ADD DUP1 SLOAD PUSH1 0xFF NOT AND SWAP2 ISZERO ISZERO SWAP2 SWAP1 SWAP2 OR SWAP1 SSTORE PUSH1 0xA0 DUP3 ADD MLOAD PUSH1 0x5 DUP3 ADD SWAP1 PUSH2 0x2650 SWAP1 DUP3 PUSH2 0x3CD9 JUMP JUMPDEST POP POP PUSH1 0x40 MLOAD CALLER SWAP2 POP PUSH32 0x5DF23EA22902B85ACDB8170E942605AB253B9F31ACCC498D0A7C3A43D300C675 SWAP1 PUSH2 0x2687 SWAP1 DUP8 SWAP1 TIMESTAMP SWAP1 PUSH2 0x3E57 JUMP JUMPDEST PUSH1 0x40 MLOAD DUP1 SWAP2 SUB SWAP1 LOG2 PUSH2 0x834 JUMP JUMPDEST CALLER PUSH1 0x0 SWAP1 DUP2 MSTORE PUSH1 0x9 PUSH1 0x20 MSTORE PUSH1 0x40 SWAP1 KECCAK256 PUSH2 0x26AD DUP6 DUP3 PUSH2 0x3CD9 JUMP JUMPDEST POP CALLER PUSH1 0x0 SWAP1 DUP2 MSTORE PUSH1 0x9 PUSH1 0x20 MSTORE PUSH1 0x40 SWAP1 KECCAK256 PUSH1 0x1 DUP2 ADD DUP5 SWAP1 SSTORE TIMESTAMP PUSH1 0x3 DUP3 ADD SSTORE PUSH1 0x5 ADD PUSH2 0x26D7 DUP4 DUP3 PUSH2 0x3CD9 JUMP JUMPDEST POP CALLER PUSH1 0x1 PUSH1 0x1 PUSH1 0xA0 SHL SUB AND PUSH32 0x4BB993E40976C9F9359A7E8001431C7B30C1645654767BFD93570C6795AB5ABD DUP6 TIMESTAMP PUSH1 0x40 MLOAD PUSH2 0x2713 SWAP3 SWAP2 SWAP1 PUSH2 0x3E57 JUMP JUMPDEST PUSH1 0x40 MLOAD DUP1 SWAP2 SUB SWAP1 LOG2 POP POP POP POP JUMP JUMPDEST PUSH2 0x275F PUSH1 0x40 MLOAD DUP1 PUSH1 0xC0 ADD PUSH1 0x40 MSTORE DUP1 PUSH1 0x60 DUP2 MSTORE PUSH1 0x20 ADD PUSH1 0x0 DUP1 NOT AND DUP2 MSTORE PUSH1 0x20 ADD PUSH1 0x0 DUP2 MSTORE PUSH1 0x20 ADD PUSH1 0x0 DUP2 MSTORE PUSH1 0x20 ADD PUSH1 0x0 ISZERO ISZERO DUP2 MSTORE PUSH1 0x20 ADD PUSH1 0x60 DUP2 MSTORE POP SWAP1 JUMP JUMPDEST DUP2 PUSH1 0x0 CALLER PUSH1 0x1 PUSH1 0x1 PUSH1 0xA0 SHL SUB DUP4 AND EQ DUP1 PUSH2 0x277F JUMPI POP PUSH2 0x277F DUP3 CALLER DUP4 PUSH2 0x2A32 JUMP JUMPDEST DUP1 PUSH2 0x279D JUMPI POP PUSH2 0x279D PUSH1 0x0 DUP1 MLOAD PUSH1 0x20 PUSH2 0x3EF0 DUP4 CODECOPY DUP2 MLOAD SWAP2 MSTORE CALLER PUSH2 0x1735 JUMP JUMPDEST PUSH2 0x27B9 JUMPI PUSH1 0x40 MLOAD PUSH3 0x461BCD PUSH1 0xE5 SHL DUP2 MSTORE PUSH1 0x4 ADD PUSH2 0x78D SWAP1 PUSH2 0x3BE6 JUMP JUMPDEST PUSH1 0x1 PUSH1 0x1 PUSH1 0xA0 SHL SUB DUP5 AND PUSH1 0x0 SWAP1 DUP2 MSTORE PUSH1 0x9 PUSH1 0x20 MSTORE PUSH1 0x40 SWAP1 KECCAK256 PUSH1 0x4 ADD SLOAD PUSH1 0xFF AND PUSH2 0x2810 JUMPI PUSH1 0x40 MLOAD PUSH3 0x461BCD PUSH1 0xE5 SHL DUP2 MSTORE PUSH1 0x20 PUSH1 0x4 DUP3 ADD MSTORE PUSH1 0x9 PUSH1 0x24 DUP3 ADD MSTORE PUSH9 0x139BDD08199BDD5B99 PUSH1 0xBA SHL PUSH1 0x44 DUP3 ADD MSTORE PUSH1 0x64 ADD PUSH2 0x78D JUMP JUMPDEST PUSH1 0x1 PUSH1 0x1 PUSH1 0xA0 SHL SUB DUP5 AND PUSH1 0x0 SWAP1 DUP2 MSTORE PUSH1 0x9 PUSH1 0x20 MSTORE PUSH1 0x40 SWAP1 DUP2 SWAP1 KECCAK256 DUP2 MLOAD PUSH1 0xC0 DUP2 ADD SWAP1 SWAP3 MSTORE DUP1 SLOAD DUP3 SWAP1 DUP3 SWAP1 PUSH2 0x2842 SWAP1 PUSH2 0x3C51 JUMP JUMPDEST DUP1 PUSH1 0x1F ADD PUSH1 0x20 DUP1 SWAP2 DIV MUL PUSH1 0x20 ADD PUSH1 0x40 MLOAD SWAP1 DUP2 ADD PUSH1 0x40 MSTORE DUP1 SWAP3 SWAP2 SWAP1 DUP2 DUP2 MSTORE PUSH1 0x20 ADD DUP3 DUP1 SLOAD PUSH2 0x286E SWAP1 PUSH2 0x3C51 JUMP JUMPDEST DUP1 ISZERO PUSH2 0x28BB JUMPI DUP1 PUSH1 0x1F LT PUSH2 0x2890 JUMPI PUSH2 0x100 DUP1 DUP4 SLOAD DIV MUL DUP4 MSTORE SWAP2 PUSH1 0x20 ADD SWAP2 PUSH2 0x28BB JUMP JUMPDEST DUP3 ADD SWAP2 SWAP1 PUSH1 0x0 MSTORE PUSH1 0x20 PUSH1 0x0 KECCAK256 SWAP1 JUMPDEST DUP2 SLOAD DUP2 MSTORE SWAP1 PUSH1 0x1 ADD SWAP1 PUSH1 0x20 ADD DUP1 DUP4 GT PUSH2 0x289E JUMPI DUP3 SWAP1 SUB PUSH1 0x1F AND DUP3 ADD SWAP2 JUMPDEST POP POP POP SWAP2 DUP4 MSTORE POP POP PUSH1 0x1 DUP3 ADD SLOAD PUSH1 0x20 DUP3 ADD MSTORE PUSH1 0x2 DUP3 ADD SLOAD PUSH1 0x40 DUP3 ADD MSTORE PUSH1 0x3 DUP3 ADD SLOAD PUSH1 0x60 DUP3 ADD MSTORE PUSH1 0x4 DUP3 ADD SLOAD PUSH1 0xFF AND ISZERO ISZERO PUSH1 0x80 DUP3 ADD MSTORE PUSH1 0x5 DUP3 ADD DUP1 SLOAD PUSH1 0xA0 SWAP1 SWAP3 ADD SWAP2 PUSH2 0x2905 SWAP1 PUSH2 0x3C51 JUMP JUMPDEST DUP1 PUSH1 0x1F ADD PUSH1 0x20 DUP1 SWAP2 DIV MUL PUSH1 0x20 ADD PUSH1 0x40 MLOAD SWAP1 DUP2 ADD PUSH1 0x40 MSTORE DUP1 SWAP3 SWAP2 SWAP1 DUP2 DUP2 MSTORE PUSH1 0x20 ADD DUP3 DUP1 SLOAD PUSH2 0x2931 SWAP1 PUSH2 0x3C51 JUMP JUMPDEST DUP1 ISZERO PUSH2 0x297E JUMPI DUP1 PUSH1 0x1F LT PUSH2 0x2953 JUMPI PUSH2 0x100 DUP1 DUP4 SLOAD DIV MUL DUP4 MSTORE SWAP2 PUSH1 0x20 ADD SWAP2 PUSH2 0x297E JUMP JUMPDEST DUP3 ADD SWAP2 SWAP1 PUSH1 0x0 MSTORE PUSH1 0x20 PUSH1 0x0 KECCAK256 SWAP1 JUMPDEST DUP2 SLOAD DUP2 MSTORE SWAP1 PUSH1 0x1 ADD SWAP1 PUSH1 0x20 ADD DUP1 DUP4 GT PUSH2 0x2961 JUMPI DUP3 SWAP1 SUB PUSH1 0x1F AND DUP3 ADD SWAP2 JUMPDEST POP POP POP POP POP DUP2 MSTORE POP POP SWAP3 POP POP POP SWAP2 SWAP1 POP JUMP JUMPDEST PUSH2 0x2998 PUSH2 0x2F47 JUMP JUMPDEST PUSH1 0x1 PUSH1 0x1 PUSH1 0xA0 SHL SUB DUP2 AND PUSH2 0x29C2 JUMPI PUSH1 0x0 PUSH1 0x40 MLOAD PUSH4 0x1E4FBDF7 PUSH1 0xE0 SHL DUP2 MSTORE PUSH1 0x4 ADD PUSH2 0x78D SWAP2 SWAP1 PUSH2 0x3235 JUMP JUMPDEST PUSH2 0x94B DUP2 PUSH2 0x2F79 JUMP JUMPDEST PUSH1 0x0 PUSH2 0x29D6 DUP2 PUSH2 0x2A28 JUMP JUMPDEST PUSH2 0x29E0 DUP3 DUP5 PUSH2 0x21A4 JUMP JUMPDEST DUP3 PUSH1 0x1 PUSH1 0x1 PUSH1 0xA0 SHL SUB AND PUSH32 0x2EC6B3B60CF0B79D925A613D31F267DFA6BBE1350819A7785767E183BFB3D87F DUP4 PUSH1 0x40 MLOAD PUSH2 0x2A1B SWAP2 DUP2 MSTORE PUSH1 0x20 ADD SWAP1 JUMP JUMPDEST PUSH1 0x40 MLOAD DUP1 SWAP2 SUB SWAP1 LOG2 POP POP POP JUMP JUMPDEST PUSH2 0x94B DUP2 CALLER PUSH2 0x3006 JUMP JUMPDEST PUSH1 0x1 PUSH1 0x1 PUSH1 0xA0 SHL SUB DUP4 AND PUSH1 0x0 SWAP1 DUP2 MSTORE PUSH1 0x10 PUSH1 0x20 SWAP1 DUP2 MSTORE PUSH1 0x40 DUP1 DUP4 KECCAK256 DUP1 SLOAD DUP3 MLOAD DUP2 DUP6 MUL DUP2 ADD DUP6 ADD SWAP1 SWAP4 MSTORE DUP1 DUP4 MSTORE DUP5 SWAP4 DUP4 ADD DUP3 DUP3 DUP1 ISZERO PUSH2 0x2A8F JUMPI PUSH1 0x20 MUL DUP3 ADD SWAP2 SWAP1 PUSH1 0x0 MSTORE PUSH1 0x20 PUSH1 0x0 KECCAK256 SWAP1 JUMPDEST DUP2 SLOAD DUP2 MSTORE PUSH1 0x20 ADD SWAP1 PUSH1 0x1 ADD SWAP1 DUP1 DUP4 GT PUSH2 0x2A7B JUMPI JUMPDEST POP POP POP POP POP SWAP1 POP PUSH1 0x0 JUMPDEST DUP2 MLOAD DUP2 LT ISZERO PUSH2 0x2DE5 JUMPI PUSH1 0x0 PUSH1 0x11 PUSH1 0x0 DUP5 DUP5 DUP2 MLOAD DUP2 LT PUSH2 0x2ABA JUMPI PUSH2 0x2ABA PUSH2 0x3E79 JUMP JUMPDEST PUSH1 0x20 MUL PUSH1 0x20 ADD ADD MLOAD DUP2 MSTORE PUSH1 0x20 ADD SWAP1 DUP2 MSTORE PUSH1 0x20 ADD PUSH1 0x0 KECCAK256 PUSH1 0x40 MLOAD DUP1 PUSH2 0x160 ADD PUSH1 0x40 MSTORE SWAP1 DUP2 PUSH1 0x0 DUP3 ADD SLOAD DUP2 MSTORE PUSH1 0x20 ADD PUSH1 0x1 DUP3 ADD PUSH1 0x0 SWAP1 SLOAD SWAP1 PUSH2 0x100 EXP SWAP1 DIV PUSH1 0x1 PUSH1 0x1 PUSH1 0xA0 SHL SUB AND PUSH1 0x1 PUSH1 0x1 PUSH1 0xA0 SHL SUB AND PUSH1 0x1 PUSH1 0x1 PUSH1 0xA0 SHL SUB AND DUP2 MSTORE PUSH1 0x20 ADD PUSH1 0x2 DUP3 ADD SLOAD DUP2 MSTORE PUSH1 0x20 ADD PUSH1 0x3 DUP3 ADD DUP1 SLOAD PUSH2 0x2B2F SWAP1 PUSH2 0x3C51 JUMP JUMPDEST DUP1 PUSH1 0x1F ADD PUSH1 0x20 DUP1 SWAP2 DIV MUL PUSH1 0x20 ADD PUSH1 0x40 MLOAD SWAP1 DUP2 ADD PUSH1 0x40 MSTORE DUP1 SWAP3 SWAP2 SWAP1 DUP2 DUP2 MSTORE PUSH1 0x20 ADD DUP3 DUP1 SLOAD PUSH2 0x2B5B SWAP1 PUSH2 0x3C51 JUMP JUMPDEST DUP1 ISZERO PUSH2 0x2BA8 JUMPI DUP1 PUSH1 0x1F LT PUSH2 0x2B7D JUMPI PUSH2 0x100 DUP1 DUP4 SLOAD DIV MUL DUP4 MSTORE SWAP2 PUSH1 0x20 ADD SWAP2 PUSH2 0x2BA8 JUMP JUMPDEST DUP3 ADD SWAP2 SWAP1 PUSH1 0x0 MSTORE PUSH1 0x20 PUSH1 0x0 KECCAK256 SWAP1 JUMPDEST DUP2 SLOAD DUP2 MSTORE SWAP1 PUSH1 0x1 ADD SWAP1 PUSH1 0x20 ADD DUP1 DUP4 GT PUSH2 0x2B8B JUMPI DUP3 SWAP1 SUB PUSH1 0x1F AND DUP3 ADD SWAP2 JUMPDEST POP POP POP SWAP2 DUP4 MSTORE POP POP PUSH1 0x4 DUP3 ADD SLOAD PUSH1 0x20 SWAP1 SWAP2 ADD SWAP1 PUSH1 0xFF AND PUSH1 0x6 DUP2 GT ISZERO PUSH2 0x2BCF JUMPI PUSH2 0x2BCF PUSH2 0x34FE JUMP JUMPDEST PUSH1 0x6 DUP2 GT ISZERO PUSH2 0x2BE0 JUMPI PUSH2 0x2BE0 PUSH2 0x34FE JUMP JUMPDEST DUP2 MSTORE PUSH1 0x20 ADD PUSH1 0x4 DUP3 ADD PUSH1 0x1 SWAP1 SLOAD SWAP1 PUSH2 0x100 EXP SWAP1 DIV PUSH1 0xFF AND PUSH1 0x4 DUP2 GT ISZERO PUSH2 0x2C08 JUMPI PUSH2 0x2C08 PUSH2 0x34FE JUMP JUMPDEST PUSH1 0x4 DUP2 GT ISZERO PUSH2 0x2C19 JUMPI PUSH2 0x2C19 PUSH2 0x34FE JUMP JUMPDEST DUP2 MSTORE PUSH1 0x5 DUP3 ADD SLOAD PUSH1 0x20 DUP3 ADD MSTORE PUSH1 0x6 DUP3 ADD SLOAD PUSH1 0x40 DUP3 ADD MSTORE PUSH1 0x7 DUP3 ADD SLOAD PUSH1 0x60 SWAP1 SWAP2 ADD SWAP1 PUSH1 0xFF AND PUSH1 0x2 DUP2 GT ISZERO PUSH2 0x2C4E JUMPI PUSH2 0x2C4E PUSH2 0x34FE JUMP JUMPDEST PUSH1 0x2 DUP2 GT ISZERO PUSH2 0x2C5F JUMPI PUSH2 0x2C5F PUSH2 0x34FE JUMP JUMPDEST DUP2 MSTORE PUSH1 0x20 ADD PUSH1 0x7 DUP3 ADD PUSH1 0x1 SWAP1 SLOAD SWAP1 PUSH2 0x100 EXP SWAP1 DIV PUSH1 0xFF AND PUSH1 0x2 DUP2 GT ISZERO PUSH2 0x2C87 JUMPI PUSH2 0x2C87 PUSH2 0x34FE JUMP JUMPDEST PUSH1 0x2 DUP2 GT ISZERO PUSH2 0x2C98 JUMPI PUSH2 0x2C98 PUSH2 0x34FE JUMP JUMPDEST DUP2 MSTORE PUSH1 0x20 ADD PUSH1 0x8 DUP3 ADD DUP1 SLOAD PUSH2 0x2CAC SWAP1 PUSH2 0x3C51 JUMP JUMPDEST DUP1 PUSH1 0x1F ADD PUSH1 0x20 DUP1 SWAP2 DIV MUL PUSH1 0x20 ADD PUSH1 0x40 MLOAD SWAP1 DUP2 ADD PUSH1 0x40 MSTORE DUP1 SWAP3 SWAP2 SWAP1 DUP2 DUP2 MSTORE PUSH1 0x20 ADD DUP3 DUP1 SLOAD PUSH2 0x2CD8 SWAP1 PUSH2 0x3C51 JUMP JUMPDEST DUP1 ISZERO PUSH2 0x2D25 JUMPI DUP1 PUSH1 0x1F LT PUSH2 0x2CFA JUMPI PUSH2 0x100 DUP1 DUP4 SLOAD DIV MUL DUP4 MSTORE SWAP2 PUSH1 0x20 ADD SWAP2 PUSH2 0x2D25 JUMP JUMPDEST DUP3 ADD SWAP2 SWAP1 PUSH1 0x0 MSTORE PUSH1 0x20 PUSH1 0x0 KECCAK256 SWAP1 JUMPDEST DUP2 SLOAD DUP2 MSTORE SWAP1 PUSH1 0x1 ADD SWAP1 PUSH1 0x20 ADD DUP1 DUP4 GT PUSH2 0x2D08 JUMPI DUP3 SWAP1 SUB PUSH1 0x1F AND DUP3 ADD SWAP2 JUMPDEST POP POP POP POP POP DUP2 MSTORE POP POP SWAP1 POP DUP6 PUSH1 0x1 PUSH1 0x1 PUSH1 0xA0 SHL SUB AND DUP2 PUSH1 0x20 ADD MLOAD PUSH1 0x1 PUSH1 0x1 PUSH1 0xA0 SHL SUB AND EQ DUP1 ISZERO PUSH2 0x2D6B JUMPI POP PUSH1 0x0 DUP2 PUSH2 0x120 ADD MLOAD PUSH1 0x2 DUP2 GT ISZERO PUSH2 0x2D69 JUMPI PUSH2 0x2D69 PUSH2 0x34FE JUMP JUMPDEST EQ JUMPDEST DUP1 ISZERO PUSH2 0x2D7B JUMPI POP DUP1 PUSH1 0xE0 ADD MLOAD TIMESTAMP GT ISZERO JUMPDEST DUP1 ISZERO PUSH2 0x2DCB JUMPI POP DUP5 PUSH1 0x4 DUP2 GT ISZERO PUSH2 0x2D94 JUMPI PUSH2 0x2D94 PUSH2 0x34FE JUMP JUMPDEST DUP2 PUSH1 0xA0 ADD MLOAD PUSH1 0x4 DUP2 GT ISZERO PUSH2 0x2DAA JUMPI PUSH2 0x2DAA PUSH2 0x34FE JUMP JUMPDEST EQ DUP1 PUSH2 0x2DCB JUMPI POP PUSH1 0x4 DUP2 PUSH1 0xA0 ADD MLOAD PUSH1 0x4 DUP2 GT ISZERO PUSH2 0x2DC9 JUMPI PUSH2 0x2DC9 PUSH2 0x34FE JUMP JUMPDEST EQ JUMPDEST ISZERO PUSH2 0x2DDC JUMPI PUSH1 0x1 SWAP4 POP POP POP POP PUSH2 0x13F7 JUMP JUMPDEST POP PUSH1 0x1 ADD PUSH2 0x2A99 JUMP JUMPDEST POP PUSH1 0x0 SWAP6 SWAP5 POP POP POP POP POP JUMP JUMPDEST PUSH1 0x0 PUSH2 0x2DFD DUP4 DUP4 PUSH2 0x1735 JUMP JUMPDEST PUSH2 0x2E62 JUMPI PUSH1 0x0 DUP4 DUP2 MSTORE PUSH1 0x1 PUSH1 0x20 DUP2 DUP2 MSTORE PUSH1 0x40 DUP1 DUP5 KECCAK256 PUSH1 0x1 PUSH1 0x1 PUSH1 0xA0 SHL SUB DUP8 AND DUP1 DUP7 MSTORE SWAP3 MSTORE DUP1 DUP5 KECCAK256 DUP1 SLOAD PUSH1 0xFF NOT AND SWAP1 SWAP4 OR SWAP1 SWAP3 SSTORE SWAP1 MLOAD CALLER SWAP3 DUP7 SWAP2 PUSH32 0x2F8788117E7EFF1D82E926EC794901D17C78024A50270940304540A733656F0D SWAP2 SWAP1 LOG4 POP PUSH1 0x1 PUSH2 0x6C5 JUMP JUMPDEST POP PUSH1 0x0 PUSH2 0x6C5 JUMP JUMPDEST PUSH1 0x0 PUSH2 0x2E76 DUP4 DUP4 PUSH2 0x1735 JUMP JUMPDEST ISZERO PUSH2 0x2E62 JUMPI PUSH1 0x0 DUP4 DUP2 MSTORE PUSH1 0x1 PUSH1 0x20 SWAP1 DUP2 MSTORE PUSH1 0x40 DUP1 DUP4 KECCAK256 PUSH1 0x1 PUSH1 0x1 PUSH1 0xA0 SHL SUB DUP7 AND DUP1 DUP6 MSTORE SWAP3 MSTORE DUP1 DUP4 KECCAK256 DUP1 SLOAD PUSH1 0xFF NOT AND SWAP1 SSTORE MLOAD CALLER SWAP3 DUP7 SWAP2 PUSH32 0xF6391F5C32D9C69D2A47EA670B442974B53935D1EDC7FD64EB21E047A839171B SWAP2 SWAP1 LOG4 POP PUSH1 0x1 PUSH2 0x6C5 JUMP JUMPDEST PUSH2 0x2EDF PUSH2 0x3043 JUMP JUMPDEST PUSH1 0x3 DUP1 SLOAD PUSH1 0xFF NOT AND SWAP1 SSTORE PUSH32 0x5DB9EE0A495BF2E6FF9C91A7834C1BA4FDD244A5E8AA4E537BD38AEAE4B073AA CALLER JUMPDEST PUSH1 0x40 MLOAD PUSH2 0x2F19 SWAP2 SWAP1 PUSH2 0x3235 JUMP JUMPDEST PUSH1 0x40 MLOAD DUP1 SWAP2 SUB SWAP1 LOG1 JUMP JUMPDEST PUSH1 0x3 SLOAD PUSH1 0xFF AND ISZERO PUSH2 0x124F JUMPI PUSH1 0x40 MLOAD PUSH4 0xD93C0665 PUSH1 0xE0 SHL DUP2 MSTORE PUSH1 0x4 ADD PUSH1 0x40 MLOAD DUP1 SWAP2 SUB SWAP1 REVERT JUMPDEST CALLER PUSH2 0x2F50 PUSH2 0x16A9 JUMP JUMPDEST PUSH1 0x1 PUSH1 0x1 PUSH1 0xA0 SHL SUB AND EQ PUSH2 0x124F JUMPI CALLER PUSH1 0x40 MLOAD PUSH4 0x118CDAA7 PUSH1 0xE0 SHL DUP2 MSTORE PUSH1 0x4 ADD PUSH2 0x78D SWAP2 SWAP1 PUSH2 0x3235 JUMP JUMPDEST PUSH1 0x0 DUP1 SLOAD PUSH1 0x1 PUSH1 0x1 PUSH1 0xA0 SHL SUB DUP4 DUP2 AND PUSH1 0x1 PUSH1 0x1 PUSH1 0xA0 SHL SUB NOT DUP4 AND DUP2 OR DUP5 SSTORE PUSH1 0x40 MLOAD SWAP2 SWAP1 SWAP3 AND SWAP3 DUP4 SWAP2 PUSH32 0x8BE0079C531659141344CD1FD0A4F28419497F9722A3DAAFE3B4186F6B6457E0 SWAP2 SWAP1 LOG3 POP POP JUMP JUMPDEST PUSH2 0x2FD1 PUSH2 0x2F23 JUMP JUMPDEST PUSH1 0x3 DUP1 SLOAD PUSH1 0xFF NOT AND PUSH1 0x1 OR SWAP1 SSTORE PUSH32 0x62E78CEA01BEE320CD4E420270B5EA74000D11B0C9F74754EBDBFC544B05A258 PUSH2 0x2F0C CALLER SWAP1 JUMP JUMPDEST PUSH2 0x3010 DUP3 DUP3 PUSH2 0x1735 JUMP JUMPDEST PUSH2 0x303F JUMPI PUSH1 0x40 MLOAD PUSH4 0xE2517D3F PUSH1 0xE0 SHL DUP2 MSTORE PUSH1 0x1 PUSH1 0x1 PUSH1 0xA0 SHL SUB DUP3 AND PUSH1 0x4 DUP3 ADD MSTORE PUSH1 0x24 DUP2 ADD DUP4 SWAP1 MSTORE PUSH1 0x44 ADD PUSH2 0x78D JUMP JUMPDEST POP POP JUMP JUMPDEST PUSH1 0x3 SLOAD PUSH1 0xFF AND PUSH2 0x124F JUMPI PUSH1 0x40 MLOAD PUSH4 0x8DFC202B PUSH1 0xE0 SHL DUP2 MSTORE PUSH1 0x4 ADD PUSH1 0x40 MLOAD DUP1 SWAP2 SUB SWAP1 REVERT JUMPDEST PUSH1 0x40 MLOAD DUP1 PUSH1 0xC0 ADD PUSH1 0x40 MSTORE DUP1 PUSH1 0x0 DUP2 MSTORE PUSH1 0x20 ADD PUSH1 0x0 PUSH1 0x1 PUSH1 0x1 PUSH1 0xA0 SHL SUB AND DUP2 MSTORE PUSH1 0x20 ADD PUSH1 0x60 DUP2 MSTORE PUSH1 0x20 ADD PUSH1 0x0 PUSH1 0x4 DUP2 GT ISZERO PUSH2 0x30A2 JUMPI PUSH2 0x30A2 PUSH2 0x34FE JUMP JUMPDEST DUP2 MSTORE PUSH1 0x0 PUSH1 0x20 DUP3 ADD DUP2 SWAP1 MSTORE PUSH1 0x40 SWAP1 SWAP2 ADD MSTORE SWAP1 JUMP JUMPDEST PUSH1 0x40 DUP1 MLOAD PUSH2 0x160 DUP2 ADD DUP3 MSTORE PUSH1 0x0 DUP1 DUP3 MSTORE PUSH1 0x20 DUP3 ADD DUP2 SWAP1 MSTORE SWAP2 DUP2 ADD DUP3 SWAP1 MSTORE PUSH1 0x60 DUP1 DUP3 ADD MSTORE SWAP1 PUSH1 0x80 DUP3 ADD SWAP1 DUP2 MSTORE PUSH1 0x20 ADD PUSH1 0x0 DUP2 MSTORE PUSH1 0x20 ADD PUSH1 0x0 DUP2 MSTORE PUSH1 0x20 ADD PUSH1 0x0 DUP2 MSTORE PUSH1 0x20 ADD PUSH1 0x0 PUSH1 0x2 DUP2 GT ISZERO PUSH2 0x310C JUMPI PUSH2 0x310C PUSH2 0x34FE JUMP JUMPDEST DUP2 MSTORE PUSH1 0x20 ADD PUSH1 0x0 DUP2 MSTORE PUSH1 0x20 ADD PUSH1 0x60 DUP2 MSTORE POP SWAP1 JUMP JUMPDEST PUSH1 0x40 MLOAD DUP1 PUSH2 0x100 ADD PUSH1 0x40 MSTORE DUP1 PUSH1 0x0 DUP2 MSTORE PUSH1 0x20 ADD PUSH1 0x60 DUP2 MSTORE PUSH1 0x20 ADD PUSH1 0x60 DUP2 MSTORE PUSH1 0x20 ADD PUSH1 0x0 PUSH1 0x7 DUP2 GT ISZERO PUSH2 0x3154 JUMPI PUSH2 0x3154 PUSH2 0x34FE JUMP JUMPDEST DUP2 MSTORE PUSH1 0x20 ADD PUSH1 0x0 ISZERO ISZERO DUP2 MSTORE PUSH1 0x20 ADD PUSH1 0x0 DUP2 MSTORE PUSH1 0x20 ADD PUSH1 0x0 DUP2 MSTORE PUSH1 0x20 ADD PUSH1 0x60 DUP2 MSTORE POP SWAP1 JUMP JUMPDEST PUSH1 0x0 PUSH1 0x20 DUP3 DUP5 SUB SLT ISZERO PUSH2 0x318A JUMPI PUSH1 0x0 DUP1 REVERT JUMPDEST DUP2 CALLDATALOAD PUSH1 0x1 PUSH1 0x1 PUSH1 0xE0 SHL SUB NOT DUP2 AND DUP2 EQ PUSH2 0x13F7 JUMPI PUSH1 0x0 DUP1 REVERT JUMPDEST DUP1 CALLDATALOAD PUSH1 0x1 PUSH1 0x1 PUSH1 0xA0 SHL SUB DUP2 AND DUP2 EQ PUSH2 0x31B9 JUMPI PUSH1 0x0 DUP1 REVERT JUMPDEST SWAP2 SWAP1 POP JUMP JUMPDEST PUSH1 0x0 PUSH1 0x20 DUP3 DUP5 SUB SLT ISZERO PUSH2 0x31D0 JUMPI PUSH1 0x0 DUP1 REVERT JUMPDEST PUSH2 0x13F7 DUP3 PUSH2 0x31A2 JUMP JUMPDEST PUSH1 0x20 DUP1 DUP3 MSTORE DUP3 MLOAD DUP3 DUP3 ADD DUP2 SWAP1 MSTORE PUSH1 0x0 SWAP2 DUP5 ADD SWAP1 PUSH1 0x40 DUP5 ADD SWAP1 DUP4 JUMPDEST DUP2 DUP2 LT ISZERO PUSH2 0x3211 JUMPI DUP4 MLOAD DUP4 MSTORE PUSH1 0x20 SWAP4 DUP5 ADD SWAP4 SWAP1 SWAP3 ADD SWAP2 PUSH1 0x1 ADD PUSH2 0x31F3 JUMP JUMPDEST POP SWAP1 SWAP6 SWAP5 POP POP POP POP POP JUMP JUMPDEST PUSH1 0x0 PUSH1 0x20 DUP3 DUP5 SUB SLT ISZERO PUSH2 0x322E JUMPI PUSH1 0x0 DUP1 REVERT JUMPDEST POP CALLDATALOAD SWAP2 SWAP1 POP JUMP JUMPDEST PUSH1 0x1 PUSH1 0x1 PUSH1 0xA0 SHL SUB SWAP2 SWAP1 SWAP2 AND DUP2 MSTORE PUSH1 0x20 ADD SWAP1 JUMP JUMPDEST PUSH1 0x0 DUP1 PUSH1 0x40 DUP4 DUP6 SUB SLT ISZERO PUSH2 0x325C JUMPI PUSH1 0x0 DUP1 REVERT JUMPDEST DUP3 CALLDATALOAD SWAP2 POP PUSH2 0x326C PUSH1 0x20 DUP5 ADD PUSH2 0x31A2 JUMP JUMPDEST SWAP1 POP SWAP3 POP SWAP3 SWAP1 POP JUMP JUMPDEST PUSH4 0x4E487B71 PUSH1 0xE0 SHL PUSH1 0x0 MSTORE PUSH1 0x41 PUSH1 0x4 MSTORE PUSH1 0x24 PUSH1 0x0 REVERT JUMPDEST PUSH1 0x0 DUP3 PUSH1 0x1F DUP4 ADD SLT PUSH2 0x329C JUMPI PUSH1 0x0 DUP1 REVERT JUMPDEST DUP2 CALLDATALOAD PUSH1 0x1 PUSH1 0x1 PUSH1 0x40 SHL SUB DUP2 GT ISZERO PUSH2 0x32B5 JUMPI PUSH2 0x32B5 PUSH2 0x3275 JUMP JUMPDEST PUSH1 0x40 MLOAD PUSH1 0x1F DUP3 ADD PUSH1 0x1F NOT SWAP1 DUP2 AND PUSH1 0x3F ADD AND DUP2 ADD PUSH1 0x1 PUSH1 0x1 PUSH1 0x40 SHL SUB DUP2 GT DUP3 DUP3 LT OR ISZERO PUSH2 0x32E3 JUMPI PUSH2 0x32E3 PUSH2 0x3275 JUMP JUMPDEST PUSH1 0x40 MSTORE DUP2 DUP2 MSTORE DUP4 DUP3 ADD PUSH1 0x20 ADD DUP6 LT ISZERO PUSH2 0x32FB JUMPI PUSH1 0x0 DUP1 REVERT JUMPDEST DUP2 PUSH1 0x20 DUP6 ADD PUSH1 0x20 DUP4 ADD CALLDATACOPY PUSH1 0x0 SWAP2 DUP2 ADD PUSH1 0x20 ADD SWAP2 SWAP1 SWAP2 MSTORE SWAP4 SWAP3 POP POP POP JUMP JUMPDEST DUP1 CALLDATALOAD DUP1 ISZERO ISZERO DUP2 EQ PUSH2 0x31B9 JUMPI PUSH1 0x0 DUP1 REVERT JUMPDEST PUSH1 0x0 DUP1 PUSH1 0x0 DUP1 PUSH1 0x80 DUP6 DUP8 SUB SLT ISZERO PUSH2 0x333E JUMPI PUSH1 0x0 DUP1 REVERT JUMPDEST DUP5 CALLDATALOAD PUSH1 0x1 PUSH1 0x1 PUSH1 0x40 SHL SUB DUP2 GT ISZERO PUSH2 0x3354 JUMPI PUSH1 0x0 DUP1 REVERT JUMPDEST PUSH2 0x3360 DUP8 DUP3 DUP9 ADD PUSH2 0x328B JUMP JUMPDEST SWAP5 POP POP PUSH2 0x336F PUSH1 0x20 DUP7 ADD PUSH2 0x3318 JUMP JUMPDEST SWAP4 SWAP7 SWAP4 SWAP6 POP POP POP POP PUSH1 0x40 DUP3 ADD CALLDATALOAD SWAP2 PUSH1 0x60 ADD CALLDATALOAD SWAP1 JUMP JUMPDEST DUP1 CALLDATALOAD PUSH1 0x5 DUP2 LT PUSH2 0x31B9 JUMPI PUSH1 0x0 DUP1 REVERT JUMPDEST PUSH1 0x0 DUP1 PUSH1 0x0 DUP1 PUSH1 0x80 DUP6 DUP8 SUB SLT ISZERO PUSH2 0x33A9 JUMPI PUSH1 0x0 DUP1 REVERT JUMPDEST PUSH2 0x33B2 DUP6 PUSH2 0x31A2 JUMP JUMPDEST SWAP4 POP PUSH1 0x20 DUP6 ADD CALLDATALOAD PUSH1 0x1 PUSH1 0x1 PUSH1 0x40 SHL SUB DUP2 GT ISZERO PUSH2 0x33CD JUMPI PUSH1 0x0 DUP1 REVERT JUMPDEST PUSH2 0x33D9 DUP8 DUP3 DUP9 ADD PUSH2 0x328B JUMP JUMPDEST SWAP4 POP POP PUSH2 0x33E8 PUSH1 0x40 DUP7 ADD PUSH2 0x3384 JUMP JUMPDEST SWAP4 SWAP7 SWAP3 SWAP6 POP SWAP3 SWAP4 PUSH1 0x60 ADD CALLDATALOAD SWAP3 POP POP JUMP JUMPDEST PUSH1 0x0 DUP2 MLOAD DUP1 DUP5 MSTORE PUSH1 0x0 JUMPDEST DUP2 DUP2 LT ISZERO PUSH2 0x341E JUMPI PUSH1 0x20 DUP2 DUP6 ADD DUP2 ADD MLOAD DUP7 DUP4 ADD DUP3 ADD MSTORE ADD PUSH2 0x3402 JUMP JUMPDEST POP PUSH1 0x0 PUSH1 0x20 DUP3 DUP7 ADD ADD MSTORE PUSH1 0x20 PUSH1 0x1F NOT PUSH1 0x1F DUP4 ADD AND DUP6 ADD ADD SWAP2 POP POP SWAP3 SWAP2 POP POP JUMP JUMPDEST PUSH1 0x20 DUP2 MSTORE DUP2 MLOAD PUSH1 0x20 DUP3 ADD MSTORE PUSH1 0x0 PUSH1 0x20 DUP4 ADD MLOAD PUSH1 0xC0 PUSH1 0x40 DUP5 ADD MSTORE PUSH2 0x3464 PUSH1 0xE0 DUP5 ADD DUP3 PUSH2 0x33F8 JUMP JUMPDEST SWAP1 POP PUSH1 0x40 DUP5 ADD MLOAD ISZERO ISZERO PUSH1 0x60 DUP5 ADD MSTORE PUSH1 0x60 DUP5 ADD MLOAD PUSH1 0x80 DUP5 ADD MSTORE PUSH1 0x80 DUP5 ADD MLOAD PUSH1 0xA0 DUP5 ADD MSTORE PUSH1 0xA0 DUP5 ADD MLOAD PUSH1 0xC0 DUP5 ADD MSTORE DUP1 SWAP2 POP POP SWAP3 SWAP2 POP POP JUMP JUMPDEST PUSH1 0x20 DUP2 MSTORE DUP2 MLOAD PUSH1 0x20 DUP3 ADD MSTORE PUSH1 0x0 PUSH1 0x20 DUP4 ADD MLOAD PUSH1 0xA0 PUSH1 0x40 DUP5 ADD MSTORE PUSH2 0x34C0 PUSH1 0xC0 DUP5 ADD DUP3 PUSH2 0x33F8 JUMP JUMPDEST SWAP1 POP PUSH1 0x40 DUP5 ADD MLOAD PUSH1 0x1F NOT DUP5 DUP4 SUB ADD PUSH1 0x60 DUP6 ADD MSTORE PUSH2 0x34DD DUP3 DUP3 PUSH2 0x33F8 JUMP JUMPDEST SWAP2 POP POP PUSH1 0x60 DUP5 ADD MLOAD PUSH1 0x80 DUP5 ADD MSTORE PUSH1 0x80 DUP5 ADD MLOAD PUSH1 0xA0 DUP5 ADD MSTORE DUP1 SWAP2 POP POP SWAP3 SWAP2 POP POP JUMP JUMPDEST PUSH4 0x4E487B71 PUSH1 0xE0 SHL PUSH1 0x0 MSTORE PUSH1 0x21 PUSH1 0x4 MSTORE PUSH1 0x24 PUSH1 0x0 REVERT JUMPDEST PUSH1 0x5 DUP2 LT PUSH2 0x3524 JUMPI PUSH2 0x3524 PUSH2 0x34FE JUMP JUMPDEST SWAP1 MSTORE JUMP JUMPDEST PUSH1 0x20 DUP2 MSTORE DUP2 MLOAD PUSH1 0x20 DUP3 ADD MSTORE PUSH1 0x1 DUP1 PUSH1 0xA0 SHL SUB PUSH1 0x20 DUP4 ADD MLOAD AND PUSH1 0x40 DUP3 ADD MSTORE PUSH1 0x0 PUSH1 0x40 DUP4 ADD MLOAD PUSH1 0xC0 PUSH1 0x60 DUP5 ADD MSTORE PUSH2 0x3560 PUSH1 0xE0 DUP5 ADD DUP3 PUSH2 0x33F8 JUMP JUMPDEST SWAP1 POP PUSH1 0x60 DUP5 ADD MLOAD PUSH2 0x3574 PUSH1 0x80 DUP6 ADD DUP3 PUSH2 0x3514 JUMP JUMPDEST POP PUSH1 0x80 DUP5 ADD MLOAD PUSH1 0xA0 DUP5 ADD MSTORE PUSH1 0xA0 DUP5 ADD MLOAD PUSH1 0xC0 DUP5 ADD MSTORE DUP1 SWAP2 POP POP SWAP3 SWAP2 POP POP JUMP JUMPDEST PUSH1 0x0 DUP1 PUSH1 0x0 PUSH1 0x60 DUP5 DUP7 SUB SLT ISZERO PUSH2 0x35A8 JUMPI PUSH1 0x0 DUP1 REVERT JUMPDEST DUP4 CALLDATALOAD PUSH1 0x1 PUSH1 0x1 PUSH1 0x40 SHL SUB DUP2 GT ISZERO PUSH2 0x35BE JUMPI PUSH1 0x0 DUP1 REVERT JUMPDEST PUSH2 0x35CA DUP7 DUP3 DUP8 ADD PUSH2 0x328B JUMP JUMPDEST SWAP4 POP POP PUSH1 0x20 DUP5 ADD CALLDATALOAD PUSH1 0x1 PUSH1 0x1 PUSH1 0x40 SHL SUB DUP2 GT ISZERO PUSH2 0x35E6 JUMPI PUSH1 0x0 DUP1 REVERT JUMPDEST PUSH2 0x35F2 DUP7 DUP3 DUP8 ADD PUSH2 0x328B JUMP JUMPDEST SWAP4 SWAP7 SWAP4 SWAP6 POP POP POP POP PUSH1 0x40 SWAP2 SWAP1 SWAP2 ADD CALLDATALOAD SWAP1 JUMP JUMPDEST PUSH1 0x0 DUP1 PUSH1 0x0 DUP1 PUSH1 0x80 DUP6 DUP8 SUB SLT ISZERO PUSH2 0x361A JUMPI PUSH1 0x0 DUP1 REVERT JUMPDEST DUP5 CALLDATALOAD SWAP4 POP PUSH1 0x20 DUP6 ADD CALLDATALOAD PUSH1 0x1 PUSH1 0x1 PUSH1 0x40 SHL SUB DUP2 GT ISZERO PUSH2 0x3637 JUMPI PUSH1 0x0 DUP1 REVERT JUMPDEST PUSH2 0x3643 DUP8 DUP3 DUP9 ADD PUSH2 0x328B JUMP JUMPDEST SWAP4 POP POP PUSH1 0x40 DUP6 ADD CALLDATALOAD PUSH1 0x1 PUSH1 0x1 PUSH1 0x40 SHL SUB DUP2 GT ISZERO PUSH2 0x365F JUMPI PUSH1 0x0 DUP1 REVERT JUMPDEST PUSH2 0x366B DUP8 DUP3 DUP9 ADD PUSH2 0x328B JUMP JUMPDEST SWAP5 SWAP8 SWAP4 SWAP7 POP SWAP4 SWAP5 PUSH1 0x60 ADD CALLDATALOAD SWAP4 POP POP POP JUMP JUMPDEST DUP1 CALLDATALOAD PUSH1 0x8 DUP2 LT PUSH2 0x31B9 JUMPI PUSH1 0x0 DUP1 REVERT JUMPDEST PUSH1 0x0 DUP1 PUSH1 0x0 DUP1 PUSH1 0x0 DUP1 PUSH1 0xC0 DUP8 DUP10 SUB SLT ISZERO PUSH2 0x36A4 JUMPI PUSH1 0x0 DUP1 REVERT JUMPDEST DUP7 CALLDATALOAD PUSH1 0x1 PUSH1 0x1 PUSH1 0x40 SHL SUB DUP2 GT ISZERO PUSH2 0x36BA JUMPI PUSH1 0x0 DUP1 REVERT JUMPDEST PUSH2 0x36C6 DUP10 DUP3 DUP11 ADD PUSH2 0x328B JUMP JUMPDEST SWAP7 POP POP PUSH1 0x20 DUP8 ADD CALLDATALOAD PUSH1 0x1 PUSH1 0x1 PUSH1 0x40 SHL SUB DUP2 GT ISZERO PUSH2 0x36E2 JUMPI PUSH1 0x0 DUP1 REVERT JUMPDEST PUSH2 0x36EE DUP10 DUP3 DUP11 ADD PUSH2 0x328B JUMP JUMPDEST SWAP6 POP POP PUSH2 0x36FD PUSH1 0x40 DUP9 ADD PUSH2 0x367C JUMP JUMPDEST SWAP4 POP PUSH2 0x370B PUSH1 0x60 DUP9 ADD PUSH2 0x3318 JUMP JUMPDEST SWAP3 POP PUSH1 0x80 DUP8 ADD CALLDATALOAD SWAP2 POP PUSH1 0xA0 DUP8 ADD CALLDATALOAD PUSH1 0x1 PUSH1 0x1 PUSH1 0x40 SHL SUB DUP2 GT ISZERO PUSH2 0x372D JUMPI PUSH1 0x0 DUP1 REVERT JUMPDEST PUSH2 0x3739 DUP10 DUP3 DUP11 ADD PUSH2 0x328B JUMP JUMPDEST SWAP2 POP POP SWAP3 SWAP6 POP SWAP3 SWAP6 POP SWAP3 SWAP6 JUMP JUMPDEST DUP1 CALLDATALOAD PUSH1 0x3 DUP2 LT PUSH2 0x31B9 JUMPI PUSH1 0x0 DUP1 REVERT JUMPDEST PUSH1 0x0 DUP1 PUSH1 0x0 DUP1 PUSH1 0x0 DUP1 PUSH1 0x0 DUP1 PUSH2 0x100 DUP10 DUP12 SUB SLT ISZERO PUSH2 0x3772 JUMPI PUSH1 0x0 DUP1 REVERT JUMPDEST PUSH2 0x377B DUP10 PUSH2 0x31A2 JUMP JUMPDEST SWAP8 POP PUSH1 0x20 DUP10 ADD CALLDATALOAD SWAP7 POP PUSH1 0x40 DUP10 ADD CALLDATALOAD PUSH1 0x1 PUSH1 0x1 PUSH1 0x40 SHL SUB DUP2 GT ISZERO PUSH2 0x379D JUMPI PUSH1 0x0 DUP1 REVERT JUMPDEST PUSH2 0x37A9 DUP12 DUP3 DUP13 ADD PUSH2 0x328B JUMP JUMPDEST SWAP7 POP POP PUSH1 0x60 DUP10 ADD CALLDATALOAD PUSH1 0x7 DUP2 LT PUSH2 0x37BE JUMPI PUSH1 0x0 DUP1 REVERT JUMPDEST SWAP5 POP PUSH2 0x37CC PUSH1 0x80 DUP11 ADD PUSH2 0x3384 JUMP JUMPDEST SWAP4 POP PUSH1 0xA0 DUP10 ADD CALLDATALOAD SWAP3 POP PUSH2 0x37E1 PUSH1 0xC0 DUP11 ADD PUSH2 0x3746 JUMP JUMPDEST SWAP2 POP PUSH1 0xE0 DUP10 ADD CALLDATALOAD PUSH1 0x1 PUSH1 0x1 PUSH1 0x40 SHL SUB DUP2 GT ISZERO PUSH2 0x37FC JUMPI PUSH1 0x0 DUP1 REVERT JUMPDEST PUSH2 0x3808 DUP12 DUP3 DUP13 ADD PUSH2 0x328B JUMP JUMPDEST SWAP2 POP POP SWAP3 SWAP6 SWAP9 POP SWAP3 SWAP6 SWAP9 SWAP1 SWAP4 SWAP7 POP JUMP JUMPDEST PUSH1 0x0 DUP1 PUSH1 0x0 DUP1 PUSH1 0x0 PUSH1 0xA0 DUP7 DUP9 SUB SLT ISZERO PUSH2 0x3830 JUMPI PUSH1 0x0 DUP1 REVERT JUMPDEST DUP6 CALLDATALOAD SWAP5 POP PUSH1 0x20 DUP7 ADD CALLDATALOAD PUSH1 0x1 PUSH1 0x1 PUSH1 0x40 SHL SUB DUP2 GT ISZERO PUSH2 0x384D JUMPI PUSH1 0x0 DUP1 REVERT JUMPDEST PUSH2 0x3859 DUP9 DUP3 DUP10 ADD PUSH2 0x328B JUMP JUMPDEST SWAP5 POP POP PUSH2 0x3868 PUSH1 0x40 DUP8 ADD PUSH2 0x3318 JUMP JUMPDEST SWAP5 SWAP8 SWAP4 SWAP7 POP SWAP4 SWAP5 PUSH1 0x60 DUP2 ADD CALLDATALOAD SWAP5 POP PUSH1 0x80 ADD CALLDATALOAD SWAP3 SWAP2 POP POP JUMP JUMPDEST PUSH1 0x7 DUP2 LT PUSH2 0x3524 JUMPI PUSH2 0x3524 PUSH2 0x34FE JUMP JUMPDEST PUSH1 0x3 DUP2 LT PUSH2 0x3524 JUMPI PUSH2 0x3524 PUSH2 0x34FE JUMP JUMPDEST PUSH1 0x20 DUP2 MSTORE DUP2 MLOAD PUSH1 0x20 DUP3 ADD MSTORE PUSH1 0x0 PUSH1 0x20 DUP4 ADD MLOAD PUSH2 0x38C7 PUSH1 0x40 DUP5 ADD DUP3 PUSH1 0x1 PUSH1 0x1 PUSH1 0xA0 SHL SUB AND SWAP1 MSTORE JUMP JUMPDEST POP PUSH1 0x40 DUP4 ADD MLOAD PUSH1 0x60 DUP4 ADD MSTORE PUSH1 0x60 DUP4 ADD MLOAD PUSH2 0x160 PUSH1 0x80 DUP5 ADD MSTORE PUSH2 0x38ED PUSH2 0x180 DUP5 ADD DUP3 PUSH2 0x33F8 JUMP JUMPDEST SWAP1 POP PUSH1 0x80 DUP5 ADD MLOAD PUSH2 0x3901 PUSH1 0xA0 DUP6 ADD DUP3 PUSH2 0x3880 JUMP JUMPDEST POP PUSH1 0xA0 DUP5 ADD MLOAD PUSH2 0x3914 PUSH1 0xC0 DUP6 ADD DUP3 PUSH2 0x3514 JUMP JUMPDEST POP PUSH1 0xC0 DUP5 ADD MLOAD PUSH1 0xE0 DUP5 ADD MSTORE PUSH1 0xE0 DUP5 ADD MLOAD PUSH2 0x100 DUP5 ADD MSTORE PUSH2 0x100 DUP5 ADD MLOAD PUSH2 0x393E PUSH2 0x120 DUP6 ADD DUP3 PUSH2 0x3890 JUMP JUMPDEST POP PUSH2 0x120 DUP5 ADD MLOAD PUSH2 0x3953 PUSH2 0x140 DUP6 ADD DUP3 PUSH2 0x3890 JUMP JUMPDEST POP PUSH2 0x140 DUP5 ADD MLOAD DUP4 DUP3 SUB PUSH1 0x1F NOT ADD PUSH2 0x160 DUP6 ADD MSTORE PUSH2 0x3971 DUP3 DUP3 PUSH2 0x33F8 JUMP JUMPDEST SWAP6 SWAP5 POP POP POP POP POP JUMP JUMPDEST PUSH1 0x0 DUP1 PUSH1 0x0 DUP1 PUSH1 0x0 DUP1 PUSH1 0x0 PUSH1 0xE0 DUP9 DUP11 SUB SLT ISZERO PUSH2 0x3995 JUMPI PUSH1 0x0 DUP1 REVERT JUMPDEST DUP8 CALLDATALOAD SWAP7 POP PUSH1 0x20 DUP9 ADD CALLDATALOAD PUSH1 0x1 PUSH1 0x1 PUSH1 0x40 SHL SUB DUP2 GT ISZERO PUSH2 0x39B2 JUMPI PUSH1 0x0 DUP1 REVERT JUMPDEST PUSH2 0x39BE DUP11 DUP3 DUP12 ADD PUSH2 0x328B JUMP JUMPDEST SWAP7 POP POP PUSH1 0x40 DUP9 ADD CALLDATALOAD PUSH1 0x1 PUSH1 0x1 PUSH1 0x40 SHL SUB DUP2 GT ISZERO PUSH2 0x39DA JUMPI PUSH1 0x0 DUP1 REVERT JUMPDEST PUSH2 0x39E6 DUP11 DUP3 DUP12 ADD PUSH2 0x328B JUMP JUMPDEST SWAP6 POP POP PUSH2 0x39F5 PUSH1 0x60 DUP10 ADD PUSH2 0x367C JUMP JUMPDEST SWAP4 POP PUSH2 0x3A03 PUSH1 0x80 DUP10 ADD PUSH2 0x3318 JUMP JUMPDEST SWAP3 POP PUSH1 0xA0 DUP9 ADD CALLDATALOAD SWAP2 POP PUSH1 0xC0 DUP9 ADD CALLDATALOAD PUSH1 0x1 PUSH1 0x1 PUSH1 0x40 SHL SUB DUP2 GT ISZERO PUSH2 0x3A25 JUMPI PUSH1 0x0 DUP1 REVERT JUMPDEST PUSH2 0x3A31 DUP11 DUP3 DUP12 ADD PUSH2 0x328B JUMP JUMPDEST SWAP2 POP POP SWAP3 SWAP6 SWAP9 SWAP2 SWAP5 SWAP8 POP SWAP3 SWAP6 POP JUMP JUMPDEST PUSH1 0x8 DUP2 LT PUSH2 0x3524 JUMPI PUSH2 0x3524 PUSH2 0x34FE JUMP JUMPDEST PUSH1 0x20 DUP2 MSTORE DUP2 MLOAD PUSH1 0x20 DUP3 ADD MSTORE PUSH1 0x0 PUSH1 0x20 DUP4 ADD MLOAD PUSH2 0x100 PUSH1 0x40 DUP5 ADD MSTORE PUSH2 0x3A78 PUSH2 0x120 DUP5 ADD DUP3 PUSH2 0x33F8 JUMP JUMPDEST SWAP1 POP PUSH1 0x40 DUP5 ADD MLOAD PUSH1 0x1F NOT DUP5 DUP4 SUB ADD PUSH1 0x60 DUP6 ADD MSTORE PUSH2 0x3A95 DUP3 DUP3 PUSH2 0x33F8 JUMP JUMPDEST SWAP2 POP POP PUSH1 0x60 DUP5 ADD MLOAD PUSH2 0x3AAA PUSH1 0x80 DUP6 ADD DUP3 PUSH2 0x3A40 JUMP JUMPDEST POP PUSH1 0x80 DUP5 ADD MLOAD DUP1 ISZERO ISZERO PUSH1 0xA0 DUP6 ADD MSTORE POP PUSH1 0xA0 DUP5 ADD MLOAD PUSH1 0xC0 DUP5 ADD MSTORE PUSH1 0xC0 DUP5 ADD MLOAD PUSH1 0xE0 DUP5 ADD MSTORE PUSH1 0xE0 DUP5 ADD MLOAD PUSH1 0x1F NOT DUP5 DUP4 SUB ADD PUSH2 0x100 DUP6 ADD MSTORE PUSH2 0x3971 DUP3 DUP3 PUSH2 0x33F8 JUMP JUMPDEST PUSH1 0x0 DUP1 PUSH1 0x0 PUSH1 0x60 DUP5 DUP7 SUB SLT ISZERO PUSH2 0x3AFE JUMPI PUSH1 0x0 DUP1 REVERT JUMPDEST DUP4 CALLDATALOAD PUSH1 0x1 PUSH1 0x1 PUSH1 0x40 SHL SUB DUP2 GT ISZERO PUSH2 0x3B14 JUMPI PUSH1 0x0 DUP1 REVERT JUMPDEST PUSH2 0x3B20 DUP7 DUP3 DUP8 ADD PUSH2 0x328B JUMP JUMPDEST SWAP4 POP POP PUSH1 0x20 DUP5 ADD CALLDATALOAD SWAP2 POP PUSH1 0x40 DUP5 ADD CALLDATALOAD PUSH1 0x1 PUSH1 0x1 PUSH1 0x40 SHL SUB DUP2 GT ISZERO PUSH2 0x3B43 JUMPI PUSH1 0x0 DUP1 REVERT JUMPDEST PUSH2 0x3B4F DUP7 DUP3 DUP8 ADD PUSH2 0x328B JUMP JUMPDEST SWAP2 POP POP SWAP3 POP SWAP3 POP SWAP3 JUMP JUMPDEST PUSH1 0x20 DUP2 MSTORE PUSH1 0x0 DUP3 MLOAD PUSH1 0xC0 PUSH1 0x20 DUP5 ADD MSTORE PUSH2 0x3B75 PUSH1 0xE0 DUP5 ADD DUP3 PUSH2 0x33F8 JUMP JUMPDEST SWAP1 POP PUSH1 0x20 DUP5 ADD MLOAD PUSH1 0x40 DUP5 ADD MSTORE PUSH1 0x40 DUP5 ADD MLOAD PUSH1 0x60 DUP5 ADD MSTORE PUSH1 0x60 DUP5 ADD MLOAD PUSH1 0x80 DUP5 ADD MSTORE PUSH1 0x80 DUP5 ADD MLOAD ISZERO ISZERO PUSH1 0xA0 DUP5 ADD MSTORE PUSH1 0xA0 DUP5 ADD MLOAD PUSH1 0x1F NOT DUP5 DUP4 SUB ADD PUSH1 0xC0 DUP6 ADD MSTORE PUSH2 0x3971 DUP3 DUP3 PUSH2 0x33F8 JUMP JUMPDEST PUSH1 0x0 DUP1 PUSH1 0x40 DUP4 DUP6 SUB SLT ISZERO PUSH2 0x3BCF JUMPI PUSH1 0x0 DUP1 REVERT JUMPDEST PUSH2 0x3BD8 DUP4 PUSH2 0x31A2 JUMP JUMPDEST SWAP5 PUSH1 0x20 SWAP4 SWAP1 SWAP4 ADD CALLDATALOAD SWAP4 POP POP POP JUMP JUMPDEST PUSH1 0x20 DUP1 DUP3 MSTORE PUSH1 0x9 SWAP1 DUP3 ADD MSTORE PUSH9 0x4E6F20616363657373 PUSH1 0xB8 SHL PUSH1 0x40 DUP3 ADD MSTORE PUSH1 0x60 ADD SWAP1 JUMP JUMPDEST PUSH1 0x20 DUP1 DUP3 MSTORE PUSH1 0x7 SWAP1 DUP3 ADD MSTORE PUSH7 0x4E6F20696E666F PUSH1 0xC8 SHL PUSH1 0x40 DUP3 ADD MSTORE PUSH1 0x60 ADD SWAP1 JUMP JUMPDEST PUSH1 0x0 PUSH1 0x1 DUP3 ADD PUSH2 0x3C4A JUMPI PUSH4 0x4E487B71 PUSH1 0xE0 SHL PUSH1 0x0 MSTORE PUSH1 0x11 PUSH1 0x4 MSTORE PUSH1 0x24 PUSH1 0x0 REVERT JUMPDEST POP PUSH1 0x1 ADD SWAP1 JUMP JUMPDEST PUSH1 0x1 DUP2 DUP2 SHR SWAP1 DUP3 AND DUP1 PUSH2 0x3C65 JUMPI PUSH1 0x7F DUP3 AND SWAP2 POP JUMPDEST PUSH1 0x20 DUP3 LT DUP2 SUB PUSH2 0x3C85 JUMPI PUSH4 0x4E487B71 PUSH1 0xE0 SHL PUSH1 0x0 MSTORE PUSH1 0x22 PUSH1 0x4 MSTORE PUSH1 0x24 PUSH1 0x0 REVERT JUMPDEST POP SWAP2 SWAP1 POP JUMP JUMPDEST PUSH1 0x1F DUP3 GT ISZERO PUSH2 0x933 JUMPI DUP1 PUSH1 0x0 MSTORE PUSH1 0x20 PUSH1 0x0 KECCAK256 PUSH1 0x1F DUP5 ADD PUSH1 0x5 SHR DUP2 ADD PUSH1 0x20 DUP6 LT ISZERO PUSH2 0x3CB2 JUMPI POP DUP1 JUMPDEST PUSH1 0x1F DUP5 ADD PUSH1 0x5 SHR DUP3 ADD SWAP2 POP JUMPDEST DUP2 DUP2 LT ISZERO PUSH2 0x3CD2 JUMPI PUSH1 0x0 DUP2 SSTORE PUSH1 0x1 ADD PUSH2 0x3CBE JUMP JUMPDEST POP POP POP POP POP JUMP JUMPDEST DUP2 MLOAD PUSH1 0x1 PUSH1 0x1 PUSH1 0x40 SHL SUB DUP2 GT ISZERO PUSH2 0x3CF2 JUMPI PUSH2 0x3CF2 PUSH2 0x3275 JUMP JUMPDEST PUSH2 0x3D06 DUP2 PUSH2 0x3D00 DUP5 SLOAD PUSH2 0x3C51 JUMP JUMPDEST DUP5 PUSH2 0x3C8B JUMP JUMPDEST PUSH1 0x20 PUSH1 0x1F DUP3 GT PUSH1 0x1 DUP2 EQ PUSH2 0x3D3A JUMPI PUSH1 0x0 DUP4 ISZERO PUSH2 0x3D22 JUMPI POP DUP5 DUP3 ADD MLOAD JUMPDEST PUSH1 0x0 NOT PUSH1 0x3 DUP6 SWAP1 SHL SHR NOT AND PUSH1 0x1 DUP5 SWAP1 SHL OR DUP5 SSTORE PUSH2 0x3CD2 JUMP JUMPDEST PUSH1 0x0 DUP5 DUP2 MSTORE PUSH1 0x20 DUP2 KECCAK256 PUSH1 0x1F NOT DUP6 AND SWAP2 JUMPDEST DUP3 DUP2 LT ISZERO PUSH2 0x3D6A JUMPI DUP8 DUP6 ADD MLOAD DUP3 SSTORE PUSH1 0x20 SWAP5 DUP6 ADD SWAP5 PUSH1 0x1 SWAP1 SWAP3 ADD SWAP2 ADD PUSH2 0x3D4A JUMP JUMPDEST POP DUP5 DUP3 LT ISZERO PUSH2 0x3D88 JUMPI DUP7 DUP5 ADD MLOAD PUSH1 0x0 NOT PUSH1 0x3 DUP8 SWAP1 SHL PUSH1 0xF8 AND SHR NOT AND DUP2 SSTORE JUMPDEST POP POP POP POP PUSH1 0x1 SWAP1 DUP2 SHL ADD SWAP1 SSTORE POP JUMP JUMPDEST PUSH1 0x20 DUP2 MSTORE PUSH1 0x0 PUSH2 0x13F7 PUSH1 0x20 DUP4 ADD DUP5 PUSH2 0x33F8 JUMP JUMPDEST PUSH1 0x40 DUP2 ADD PUSH2 0x3DB8 DUP3 DUP6 PUSH2 0x3514 JUMP JUMPDEST DUP3 PUSH1 0x20 DUP4 ADD MSTORE SWAP4 SWAP3 POP POP POP JUMP JUMPDEST PUSH1 0x20 DUP1 DUP3 MSTORE PUSH1 0x9 SWAP1 DUP3 ADD MSTORE PUSH9 0x2737BA1037BBB732B9 PUSH1 0xB9 SHL PUSH1 0x40 DUP3 ADD MSTORE PUSH1 0x60 ADD SWAP1 JUMP JUMPDEST PUSH1 0x20 DUP1 DUP3 MSTORE PUSH1 0x7 SWAP1 DUP3 ADD MSTORE PUSH7 0x9CDE40C2EAE8D PUSH1 0xCB SHL PUSH1 0x40 DUP3 ADD MSTORE PUSH1 0x60 ADD SWAP1 JUMP JUMPDEST PUSH2 0x3E13 DUP2 DUP5 PUSH2 0x3A40 JUMP JUMPDEST PUSH1 0x40 PUSH1 0x20 DUP3 ADD MSTORE PUSH1 0x0 PUSH2 0x3E29 PUSH1 0x40 DUP4 ADD DUP5 PUSH2 0x33F8 JUMP JUMPDEST SWAP5 SWAP4 POP POP POP POP JUMP JUMPDEST PUSH1 0x20 DUP1 DUP3 MSTORE PUSH1 0xC SWAP1 DUP3 ADD MSTORE PUSH12 0x24B73B30B634B21030B23239 PUSH1 0xA1 SHL PUSH1 0x40 DUP3 ADD MSTORE PUSH1 0x60 ADD SWAP1 JUMP JUMPDEST PUSH1 0x40 DUP2 MSTORE PUSH1 0x0 PUSH2 0x3E6A PUSH1 0x40 DUP4 ADD DUP6 PUSH2 0x33F8 JUMP JUMPDEST SWAP1 POP DUP3 PUSH1 0x20 DUP4 ADD MSTORE SWAP4 SWAP3 POP POP POP JUMP JUMPDEST PUSH4 0x4E487B71 PUSH1 0xE0 SHL PUSH1 0x0 MSTORE PUSH1 0x32 PUSH1 0x4 MSTORE PUSH1 0x24 PUSH1 0x0 REVERT INVALID DUP9 0x25 0xC6 0x22 SMOD SMOD PUSH29 0x41710FE5144A6467477A643E911C9AB3785826111F7C94ED8B18C9D97E 0xDF 0xCF 0x27 DUP7 GAS 0xCA DUP11 0x4F SELFBALANCE DUP11 SHL DIFFICULTY 0x29 0xB4 0xC8 0x2F 0xB5 0xDE 0xD4 PUSH23 0xE9F317F74573D01BFEC7CD74E5C65B641D49ECC2E89F64 PUSH13 0x7C0BCAE85DC50F9616BF9C798C 0xED 0xDA DUP12 MSIZE LOG1 0xC4 DUP15 PC CALLDATACOPY 0xAD PUSH27 0x7F3DCEDCBE129BF3249EC4FBF651FD4F5E2600EAD39FE2F5197615 SWAP6 XOR CALLF 0x2C97 MSTORE8 MLOAD 0xD3 0xEB XOR POP SWAP14 PUSH3 0xAB7629 MULMOD DUP7 CALLDATASIZE JUMPF 0x2C6C DUPN 0x34 PUSH7 0xE939167FC8F5B4 EQ 0xC 0xCA ADDRESS PUSH29 0xD927E59CBEEA8291BFFEEE228FC677F0FA059AEF7B4DD8D5A264697066 PUSH20 0x582212204BE5F44003AF53DD85A26E8B362B3DD7 SWAP10 CALLER PUSH19 0xE2444F18E99AB72BA24DC494C164736F6C6343 STOP ADDMOD 0x1F STOP CALLER "
		},
		"gasEstimates": {
			"creation": {
				"codeDepositCost": "3252200",
				"executionCost": "80206",
				"totalCost": "3332406"
			},
			"external": {
				"AUDITOR_ROLE()": "infinite",
				"CLINIC_ROLE()": "infinite",
				"DEFAULT_ADMIN_ROLE()": "811",
				"HEALTHCARE_PROVIDER_ROLE()": "infinite",
				"HOSPITAL_ROLE()": "infinite",
				"INSURANCE_ROLE()": "infinite",
				"addMedication(string,bool,uint256,uint256)": "infinite",
				"addReport(string,string,uint8,bool,uint256,string)": "infinite",
				"addVaccination(string,string,uint256)": "infinite",
				"getAccessLog(uint256)": "infinite",
				"getAccessLogIds(address)": "infinite",
				"getEmergencyContact(address)": "2701",
				"getMedicationIds(address)": "infinite",
				"getMedicationRef(uint256)": "infinite",
				"getPersonalInfoRef(address)": "infinite",
				"getReportIds(address)": "infinite",
				"getReportRef(uint256)": "infinite",
				"getRoleAdmin(bytes32)": "2550",
				"getShareIds(address)": "infinite",
				"getShareRecord(uint256)": "infinite",
				"getTotalCounts()": "10795",
				"getVaccinationIds(address)": "infinite",
				"getVaccinationRef(uint256)": "infinite",
				"grantRole(bytes32,address)": "infinite",
				"hasPersonalInfo(address)": "3512",
				"hasRole(bytes32,address)": "3248",
				"logDataAccess(address,string,uint8,bytes32)": "infinite",
				"owner()": "2920",
				"pause()": "infinite",
				"paused()": "2601",
				"registerAuditor(address)": "infinite",
				"registerClinic(address)": "infinite",
				"registerHealthcareProvider(address)": "infinite",
				"registerHospital(address)": "infinite",
				"registerInsurance(address)": "infinite",
				"renounceOwnership()": "infinite",
				"renounceRole(bytes32,address)": "29205",
				"revokeEntityRole(address,bytes32)": "infinite",
				"revokeRole(bytes32,address)": "infinite",
				"revokeShare(uint256)": "30695",
				"setEmergencyContact(address)": "26766",
				"setPersonalInfo(string,bytes32,string)": "infinite",
				"shareData(address,bytes32,string,uint8,uint8,uint256,uint8,string)": "infinite",
				"supportsInterface(bytes4)": "404",
				"transferOwnership(address)": "29368",
				"unpause()": "infinite",
				"updateMedication(uint256,string,bool,uint256,uint256)": "infinite",
				"updateReport(uint256,string,string,uint8,bool,uint256,string)": "infinite",
				"updateVaccination(uint256,string,string,uint256)": "infinite"
			},
			"internal": {
				"_hasSharedAccess(address,address,enum HealthWalletV2_05.DataCategory)": "infinite"
			}
		},
		"methodIdentifiers": {
			"AUDITOR_ROLE()": "6e1d616e",
			"CLINIC_ROLE()": "82673e77",
			"DEFAULT_ADMIN_ROLE()": "a217fddf",
			"HEALTHCARE_PROVIDER_ROLE()": "0402e735",
			"HOSPITAL_ROLE()": "f6ba6678",
			"INSURANCE_ROLE()": "b752a74b",
			"addMedication(string,bool,uint256,uint256)": "420b23a2",
			"addReport(string,string,uint8,bool,uint256,string)": "8939f898",
			"addVaccination(string,string,uint256)": "7e14f8cd",
			"getAccessLog(uint256)": "685d5b8b",
			"getAccessLogIds(address)": "b85d4af0",
			"getEmergencyContact(address)": "2c81df05",
			"getMedicationIds(address)": "df015dc1",
			"getMedicationRef(uint256)": "4adbe62c",
			"getPersonalInfoRef(address)": "ee67e73d",
			"getReportIds(address)": "18b98101",
			"getReportRef(uint256)": "e653d375",
			"getRoleAdmin(bytes32)": "248a9ca3",
			"getShareIds(address)": "aa83f4d8",
			"getShareRecord(uint256)": "aa361c28",
			"getTotalCounts()": "045af334",
			"getVaccinationIds(address)": "2f4afbad",
			"getVaccinationRef(uint256)": "627e86f2",
			"grantRole(bytes32,address)": "2f2ff15d",
			"hasPersonalInfo(address)": "f17245f9",
			"hasRole(bytes32,address)": "91d14854",
			"logDataAccess(address,string,uint8,bytes32)": "48def2f7",
			"owner()": "8da5cb5b",
			"pause()": "8456cb59",
			"paused()": "5c975abb",
			"registerAuditor(address)": "df9a4f56",
			"registerClinic(address)": "b3568f32",
			"registerHealthcareProvider(address)": "052a01f6",
			"registerHospital(address)": "c5b99858",
			"registerInsurance(address)": "7e0ecee0",
			"renounceOwnership()": "715018a6",
			"renounceRole(bytes32,address)": "36568abe",
			"revokeEntityRole(address,bytes32)": "f6871d9e",
			"revokeRole(bytes32,address)": "d547741f",
			"revokeShare(uint256)": "50038737",
			"setEmergencyContact(address)": "91284a89",
			"setPersonalInfo(string,bytes32,string)": "e7069c13",
			"shareData(address,bytes32,string,uint8,uint8,uint256,uint8,string)": "a4fbb117",
			"supportsInterface(bytes4)": "01ffc9a7",
			"transferOwnership(address)": "f2fde38b",
			"unpause()": "3f4ba83a",
			"updateMedication(uint256,string,bool,uint256,uint256)": "a65b27db",
			"updateReport(uint256,string,string,uint8,bool,uint256,string)": "d3e5ec4b",
			"updateVaccination(uint256,string,string,uint256)": "86c4aea2"
		}
	},
	"abi": [
		{
			"inputs": [],
			"stateMutability": "nonpayable",
			"type": "constructor"
		},
		{
			"inputs": [],
			"name": "AccessControlBadConfirmation",
			"type": "error"
		},
		{
			"inputs": [
				{
					"internalType": "address",
					"name": "account",
					"type": "address"
				},
				{
					"internalType": "bytes32",
					"name": "neededRole",
					"type": "bytes32"
				}
			],
			"name": "AccessControlUnauthorizedAccount",
			"type": "error"
		},
		{
			"inputs": [],
			"name": "EnforcedPause",
			"type": "error"
		},
		{
			"inputs": [],
			"name": "ExpectedPause",
			"type": "error"
		},
		{
			"inputs": [
				{
					"internalType": "address",
					"name": "owner",
					"type": "address"
				}
			],
			"name": "OwnableInvalidOwner",
			"type": "error"
		},
		{
			"inputs": [
				{
					"internalType": "address",
					"name": "account",
					"type": "address"
				}
			],
			"name": "OwnableUnauthorizedAccount",
			"type": "error"
		},
		{
			"inputs": [],
			"name": "ReentrancyGuardReentrantCall",
			"type": "error"
		},
		{
			"anonymous": false,
			"inputs": [
				{
					"indexed": true,
					"internalType": "address",
					"name": "owner",
					"type": "address"
				},
				{
					"indexed": true,
					"internalType": "address",
					"name": "accessor",
					"type": "address"
				},
				{
					"indexed": true,
					"internalType": "uint256",
					"name": "logId",
					"type": "uint256"
				},
				{
					"indexed": false,
					"internalType": "enum HealthWalletV2_05.DataCategory",
					"name": "category",
					"type": "uint8"
				},
				{
					"indexed": false,
					"internalType": "uint256",
					"name": "timestamp",
					"type": "uint256"
				}
			],
			"name": "DataAccessed",
			"type": "event"
		},
		{
			"anonymous": false,
			"inputs": [
				{
					"indexed": true,
					"internalType": "address",
					"name": "owner",
					"type": "address"
				},
				{
					"indexed": true,
					"internalType": "address",
					"name": "recipient",
					"type": "address"
				},
				{
					"indexed": true,
					"internalType": "uint256",
					"name": "shareId",
					"type": "uint256"
				},
				{
					"indexed": false,
					"internalType": "enum HealthWalletV2_05.DataCategory",
					"name": "category",
					"type": "uint8"
				},
				{
					"indexed": false,
					"internalType": "uint256",
					"name": "expiryDate",
					"type": "uint256"
				}
			],
			"name": "DataShared",
			"type": "event"
		},
		{
			"anonymous": false,
			"inputs": [
				{
					"indexed": true,
					"internalType": "address",
					"name": "user",
					"type": "address"
				},
				{
					"indexed": true,
					"internalType": "address",
					"name": "emergencyContact",
					"type": "address"
				}
			],
			"name": "EmergencyContactSet",
			"type": "event"
		},
		{
			"anonymous": false,
			"inputs": [
				{
					"indexed": true,
					"internalType": "address",
					"name": "entity",
					"type": "address"
				},
				{
					"indexed": false,
					"internalType": "bytes32",
					"name": "role",
					"type": "bytes32"
				}
			],
			"name": "EntityRegistered",
			"type": "event"
		},
		{
			"anonymous": false,
			"inputs": [
				{
					"indexed": true,
					"internalType": "address",
					"name": "entity",
					"type": "address"
				},
				{
					"indexed": false,
					"internalType": "bytes32",
					"name": "role",
					"type": "bytes32"
				}
			],
			"name": "EntityRevoked",
			"type": "event"
		},
		{
			"anonymous": false,
			"inputs": [
				{
					"indexed": true,
					"internalType": "address",
					"name": "user",
					"type": "address"
				},
				{
					"indexed": true,
					"internalType": "uint256",
					"name": "medicationId",
					"type": "uint256"
				},
				{
					"indexed": false,
					"internalType": "string",
					"name": "ipfsHash",
					"type": "string"
				}
			],
			"name": "MedicationAdded",
			"type": "event"
		},
		{
			"anonymous": false,
			"inputs": [
				{
					"indexed": true,
					"internalType": "address",
					"name": "user",
					"type": "address"
				},
				{
					"indexed": true,
					"internalType": "uint256",
					"name": "medicationId",
					"type": "uint256"
				},
				{
					"indexed": false,
					"internalType": "string",
					"name": "ipfsHash",
					"type": "string"
				}
			],
			"name": "MedicationUpdated",
			"type": "event"
		},
		{
			"anonymous": false,
			"inputs": [
				{
					"indexed": true,
					"internalType": "address",
					"name": "previousOwner",
					"type": "address"
				},
				{
					"indexed": true,
					"internalType": "address",
					"name": "newOwner",
					"type": "address"
				}
			],
			"name": "OwnershipTransferred",
			"type": "event"
		},
		{
			"anonymous": false,
			"inputs": [
				{
					"indexed": false,
					"internalType": "address",
					"name": "account",
					"type": "address"
				}
			],
			"name": "Paused",
			"type": "event"
		},
		{
			"anonymous": false,
			"inputs": [
				{
					"indexed": true,
					"internalType": "address",
					"name": "user",
					"type": "address"
				},
				{
					"indexed": false,
					"internalType": "string",
					"name": "ipfsHash",
					"type": "string"
				},
				{
					"indexed": false,
					"internalType": "uint256",
					"name": "timestamp",
					"type": "uint256"
				}
			],
			"name": "PersonalInfoStored",
			"type": "event"
		},
		{
			"anonymous": false,
			"inputs": [
				{
					"indexed": true,
					"internalType": "address",
					"name": "user",
					"type": "address"
				},
				{
					"indexed": false,
					"internalType": "string",
					"name": "ipfsHash",
					"type": "string"
				},
				{
					"indexed": false,
					"internalType": "uint256",
					"name": "timestamp",
					"type": "uint256"
				}
			],
			"name": "PersonalInfoUpdated",
			"type": "event"
		},
		{
			"anonymous": false,
			"inputs": [
				{
					"indexed": true,
					"internalType": "address",
					"name": "user",
					"type": "address"
				},
				{
					"indexed": true,
					"internalType": "uint256",
					"name": "reportId",
					"type": "uint256"
				},
				{
					"indexed": false,
					"internalType": "enum HealthWalletV2_05.ReportType",
					"name": "reportType",
					"type": "uint8"
				},
				{
					"indexed": false,
					"internalType": "string",
					"name": "ipfsHash",
					"type": "string"
				}
			],
			"name": "ReportAdded",
			"type": "event"
		},
		{
			"anonymous": false,
			"inputs": [
				{
					"indexed": true,
					"internalType": "address",
					"name": "user",
					"type": "address"
				},
				{
					"indexed": true,
					"internalType": "uint256",
					"name": "reportId",
					"type": "uint256"
				},
				{
					"indexed": false,
					"internalType": "string",
					"name": "ipfsHash",
					"type": "string"
				}
			],
			"name": "ReportUpdated",
			"type": "event"
		},
		{
			"anonymous": false,
			"inputs": [
				{
					"indexed": true,
					"internalType": "bytes32",
					"name": "role",
					"type": "bytes32"
				},
				{
					"indexed": true,
					"internalType": "bytes32",
					"name": "previousAdminRole",
					"type": "bytes32"
				},
				{
					"indexed": true,
					"internalType": "bytes32",
					"name": "newAdminRole",
					"type": "bytes32"
				}
			],
			"name": "RoleAdminChanged",
			"type": "event"
		},
		{
			"anonymous": false,
			"inputs": [
				{
					"indexed": true,
					"internalType": "bytes32",
					"name": "role",
					"type": "bytes32"
				},
				{
					"indexed": true,
					"internalType": "address",
					"name": "account",
					"type": "address"
				},
				{
					"indexed": true,
					"internalType": "address",
					"name": "sender",
					"type": "address"
				}
			],
			"name": "RoleGranted",
			"type": "event"
		},
		{
			"anonymous": false,
			"inputs": [
				{
					"indexed": true,
					"internalType": "bytes32",
					"name": "role",
					"type": "bytes32"
				},
				{
					"indexed": true,
					"internalType": "address",
					"name": "account",
					"type": "address"
				},
				{
					"indexed": true,
					"internalType": "address",
					"name": "sender",
					"type": "address"
				}
			],
			"name": "RoleRevoked",
			"type": "event"
		},
		{
			"anonymous": false,
			"inputs": [
				{
					"indexed": true,
					"internalType": "address",
					"name": "owner",
					"type": "address"
				},
				{
					"indexed": true,
					"internalType": "uint256",
					"name": "shareId",
					"type": "uint256"
				}
			],
			"name": "ShareRevoked",
			"type": "event"
		},
		{
			"anonymous": false,
			"inputs": [
				{
					"indexed": false,
					"internalType": "address",
					"name": "account",
					"type": "address"
				}
			],
			"name": "Unpaused",
			"type": "event"
		},
		{
			"anonymous": false,
			"inputs": [
				{
					"indexed": true,
					"internalType": "address",
					"name": "user",
					"type": "address"
				},
				{
					"indexed": true,
					"internalType": "uint256",
					"name": "vaccinationId",
					"type": "uint256"
				},
				{
					"indexed": false,
					"internalType": "string",
					"name": "ipfsHash",
					"type": "string"
				}
			],
			"name": "VaccinationAdded",
			"type": "event"
		},
		{
			"anonymous": false,
			"inputs": [
				{
					"indexed": true,
					"internalType": "address",
					"name": "user",
					"type": "address"
				},
				{
					"indexed": true,
					"internalType": "uint256",
					"name": "vaccinationId",
					"type": "uint256"
				},
				{
					"indexed": false,
					"internalType": "string",
					"name": "ipfsHash",
					"type": "string"
				}
			],
			"name": "VaccinationUpdated",
			"type": "event"
		},
		{
			"inputs": [],
			"name": "AUDITOR_ROLE",
			"outputs": [
				{
					"internalType": "bytes32",
					"name": "",
					"type": "bytes32"
				}
			],
			"stateMutability": "view",
			"type": "function"
		},
		{
			"inputs": [],
			"name": "CLINIC_ROLE",
			"outputs": [
				{
					"internalType": "bytes32",
					"name": "",
					"type": "bytes32"
				}
			],
			"stateMutability": "view",
			"type": "function"
		},
		{
			"inputs": [],
			"name": "DEFAULT_ADMIN_ROLE",
			"outputs": [
				{
					"internalType": "bytes32",
					"name": "",
					"type": "bytes32"
				}
			],
			"stateMutability": "view",
			"type": "function"
		},
		{
			"inputs": [],
			"name": "HEALTHCARE_PROVIDER_ROLE",
			"outputs": [
				{
					"internalType": "bytes32",
					"name": "",
					"type": "bytes32"
				}
			],
			"stateMutability": "view",
			"type": "function"
		},
		{
			"inputs": [],
			"name": "HOSPITAL_ROLE",
			"outputs": [
				{
					"internalType": "bytes32",
					"name": "",
					"type": "bytes32"
				}
			],
			"stateMutability": "view",
			"type": "function"
		},
		{
			"inputs": [],
			"name": "INSURANCE_ROLE",
			"outputs": [
				{
					"internalType": "bytes32",
					"name": "",
					"type": "bytes32"
				}
			],
			"stateMutability": "view",
			"type": "function"
		},
		{
			"inputs": [
				{
					"internalType": "string",
					"name": "_encryptedDataIpfsHash",
					"type": "string"
				},
				{
					"internalType": "bool",
					"name": "_isActive",
					"type": "bool"
				},
				{
					"internalType": "uint256",
					"name": "_startDate",
					"type": "uint256"
				},
				{
					"internalType": "uint256",
					"name": "_endDate",
					"type": "uint256"
				}
			],
			"name": "addMedication",
			"outputs": [
				{
					"internalType": "uint256",
					"name": "",
					"type": "uint256"
				}
			],
			"stateMutability": "nonpayable",
			"type": "function"
		},
		{
			"inputs": [
				{
					"internalType": "string",
					"name": "_encryptedDataIpfsHash",
					"type": "string"
				},
				{
					"internalType": "string",
					"name": "_encryptedFileIpfsHash",
					"type": "string"
				},
				{
					"internalType": "enum HealthWalletV2_05.ReportType",
					"name": "_reportType",
					"type": "uint8"
				},
				{
					"internalType": "bool",
					"name": "_hasFile",
					"type": "bool"
				},
				{
					"internalType": "uint256",
					"name": "_reportDate",
					"type": "uint256"
				},
				{
					"internalType": "string",
					"name": "_encryptedKey",
					"type": "string"
				}
			],
			"name": "addReport",
			"outputs": [
				{
					"internalType": "uint256",
					"name": "",
					"type": "uint256"
				}
			],
			"stateMutability": "nonpayable",
			"type": "function"
		},
		{
			"inputs": [
				{
					"internalType": "string",
					"name": "_encryptedDataIpfsHash",
					"type": "string"
				},
				{
					"internalType": "string",
					"name": "_encryptedCertificateIpfsHash",
					"type": "string"
				},
				{
					"internalType": "uint256",
					"name": "_vaccinationDate",
					"type": "uint256"
				}
			],
			"name": "addVaccination",
			"outputs": [
				{
					"internalType": "uint256",
					"name": "",
					"type": "uint256"
				}
			],
			"stateMutability": "nonpayable",
			"type": "function"
		},
		{
			"inputs": [
				{
					"internalType": "uint256",
					"name": "_logId",
					"type": "uint256"
				}
			],
			"name": "getAccessLog",
			"outputs": [
				{
					"components": [
						{
							"internalType": "uint256",
							"name": "id",
							"type": "uint256"
						},
						{
							"internalType": "address",
							"name": "accessorAddress",
							"type": "address"
						},
						{
							"internalType": "string",
							"name": "encryptedDetailsIpfsHash",
							"type": "string"
						},
						{
							"internalType": "enum HealthWalletV2_05.DataCategory",
							"name": "accessedCategory",
							"type": "uint8"
						},
						{
							"internalType": "uint256",
							"name": "accessTime",
							"type": "uint256"
						},
						{
							"internalType": "bytes32",
							"name": "dataIntegrityHash",
							"type": "bytes32"
						}
					],
					"internalType": "struct HealthWalletV2_05.AccessLog",
					"name": "",
					"type": "tuple"
				}
			],
			"stateMutability": "view",
			"type": "function"
		},
		{
			"inputs": [
				{
					"internalType": "address",
					"name": "_user",
					"type": "address"
				}
			],
			"name": "getAccessLogIds",
			"outputs": [
				{
					"internalType": "uint256[]",
					"name": "",
					"type": "uint256[]"
				}
			],
			"stateMutability": "view",
			"type": "function"
		},
		{
			"inputs": [
				{
					"internalType": "address",
					"name": "_user",
					"type": "address"
				}
			],
			"name": "getEmergencyContact",
			"outputs": [
				{
					"internalType": "address",
					"name": "",
					"type": "address"
				}
			],
			"stateMutability": "view",
			"type": "function"
		},
		{
			"inputs": [
				{
					"internalType": "address",
					"name": "_user",
					"type": "address"
				}
			],
			"name": "getMedicationIds",
			"outputs": [
				{
					"internalType": "uint256[]",
					"name": "",
					"type": "uint256[]"
				}
			],
			"stateMutability": "view",
			"type": "function"
		},
		{
			"inputs": [
				{
					"internalType": "uint256",
					"name": "_medicationId",
					"type": "uint256"
				}
			],
			"name": "getMedicationRef",
			"outputs": [
				{
					"components": [
						{
							"internalType": "uint256",
							"name": "id",
							"type": "uint256"
						},
						{
							"internalType": "string",
							"name": "encryptedDataIpfsHash",
							"type": "string"
						},
						{
							"internalType": "bool",
							"name": "isActive",
							"type": "bool"
						},
						{
							"internalType": "uint256",
							"name": "startDate",
							"type": "uint256"
						},
						{
							"internalType": "uint256",
							"name": "endDate",
							"type": "uint256"
						},
						{
							"internalType": "uint256",
							"name": "createdAt",
							"type": "uint256"
						}
					],
					"internalType": "struct HealthWalletV2_05.MedicationRecordRef",
					"name": "",
					"type": "tuple"
				}
			],
			"stateMutability": "view",
			"type": "function"
		},
		{
			"inputs": [
				{
					"internalType": "address",
					"name": "_user",
					"type": "address"
				}
			],
			"name": "getPersonalInfoRef",
			"outputs": [
				{
					"components": [
						{
							"internalType": "string",
							"name": "encryptedDataIpfsHash",
							"type": "string"
						},
						{
							"internalType": "bytes32",
							"name": "publicKeyHash",
							"type": "bytes32"
						},
						{
							"internalType": "uint256",
							"name": "createdAt",
							"type": "uint256"
						},
						{
							"internalType": "uint256",
							"name": "lastUpdated",
							"type": "uint256"
						},
						{
							"internalType": "bool",
							"name": "exists",
							"type": "bool"
						},
						{
							"internalType": "string",
							"name": "encryptedKey",
							"type": "string"
						}
					],
					"internalType": "struct HealthWalletV2_05.PersonalInfoRef",
					"name": "",
					"type": "tuple"
				}
			],
			"stateMutability": "view",
			"type": "function"
		},
		{
			"inputs": [
				{
					"internalType": "address",
					"name": "_user",
					"type": "address"
				}
			],
			"name": "getReportIds",
			"outputs": [
				{
					"internalType": "uint256[]",
					"name": "",
					"type": "uint256[]"
				}
			],
			"stateMutability": "view",
			"type": "function"
		},
		{
			"inputs": [
				{
					"internalType": "uint256",
					"name": "_reportId",
					"type": "uint256"
				}
			],
			"name": "getReportRef",
			"outputs": [
				{
					"components": [
						{
							"internalType": "uint256",
							"name": "id",
							"type": "uint256"
						},
						{
							"internalType": "string",
							"name": "encryptedDataIpfsHash",
							"type": "string"
						},
						{
							"internalType": "string",
							"name": "encryptedFileIpfsHash",
							"type": "string"
						},
						{
							"internalType": "enum HealthWalletV2_05.ReportType",
							"name": "reportType",
							"type": "uint8"
						},
						{
							"internalType": "bool",
							"name": "hasFile",
							"type": "bool"
						},
						{
							"internalType": "uint256",
							"name": "reportDate",
							"type": "uint256"
						},
						{
							"internalType": "uint256",
							"name": "createdAt",
							"type": "uint256"
						},
						{
							"internalType": "string",
							"name": "encryptedKey",
							"type": "string"
						}
					],
					"internalType": "struct HealthWalletV2_05.MedicalReportRef",
					"name": "",
					"type": "tuple"
				}
			],
			"stateMutability": "view",
			"type": "function"
		},
		{
			"inputs": [
				{
					"internalType": "bytes32",
					"name": "role",
					"type": "bytes32"
				}
			],
			"name": "getRoleAdmin",
			"outputs": [
				{
					"internalType": "bytes32",
					"name": "",
					"type": "bytes32"
				}
			],
			"stateMutability": "view",
			"type": "function"
		},
		{
			"inputs": [
				{
					"internalType": "address",
					"name": "_user",
					"type": "address"
				}
			],
			"name": "getShareIds",
			"outputs": [
				{
					"internalType": "uint256[]",
					"name": "",
					"type": "uint256[]"
				}
			],
			"stateMutability": "view",
			"type": "function"
		},
		{
			"inputs": [
				{
					"internalType": "uint256",
					"name": "_shareId",
					"type": "uint256"
				}
			],
			"name": "getShareRecord",
			"outputs": [
				{
					"components": [
						{
							"internalType": "uint256",
							"name": "id",
							"type": "uint256"
						},
						{
							"internalType": "address",
							"name": "recipientAddress",
							"type": "address"
						},
						{
							"internalType": "bytes32",
							"name": "recipientNameHash",
							"type": "bytes32"
						},
						{
							"internalType": "string",
							"name": "encryptedRecipientDataIpfsHash",
							"type": "string"
						},
						{
							"internalType": "enum HealthWalletV2_05.RecipientType",
							"name": "recipientType",
							"type": "uint8"
						},
						{
							"internalType": "enum HealthWalletV2_05.DataCategory",
							"name": "sharedDataCategory",
							"type": "uint8"
						},
						{
							"internalType": "uint256",
							"name": "shareDate",
							"type": "uint256"
						},
						{
							"internalType": "uint256",
							"name": "expiryDate",
							"type": "uint256"
						},
						{
							"internalType": "enum HealthWalletV2_05.AccessLevel",
							"name": "accessLevel",
							"type": "uint8"
						},
						{
							"internalType": "enum HealthWalletV2_05.ShareStatus",
							"name": "status",
							"type": "uint8"
						},
						{
							"internalType": "string",
							"name": "encryptedCategoryKey",
							"type": "string"
						}
					],
					"internalType": "struct HealthWalletV2_05.ShareRecord",
					"name": "",
					"type": "tuple"
				}
			],
			"stateMutability": "view",
			"type": "function"
		},
		{
			"inputs": [],
			"name": "getTotalCounts",
			"outputs": [
				{
					"internalType": "uint256",
					"name": "medications",
					"type": "uint256"
				},
				{
					"internalType": "uint256",
					"name": "vaccinations",
					"type": "uint256"
				},
				{
					"internalType": "uint256",
					"name": "reports",
					"type": "uint256"
				},
				{
					"internalType": "uint256",
					"name": "shares",
					"type": "uint256"
				},
				{
					"internalType": "uint256",
					"name": "totalAccessLogs",
					"type": "uint256"
				}
			],
			"stateMutability": "view",
			"type": "function"
		},
		{
			"inputs": [
				{
					"internalType": "address",
					"name": "_user",
					"type": "address"
				}
			],
			"name": "getVaccinationIds",
			"outputs": [
				{
					"internalType": "uint256[]",
					"name": "",
					"type": "uint256[]"
				}
			],
			"stateMutability": "view",
			"type": "function"
		},
		{
			"inputs": [
				{
					"internalType": "uint256",
					"name": "_vaccinationId",
					"type": "uint256"
				}
			],
			"name": "getVaccinationRef",
			"outputs": [
				{
					"components": [
						{
							"internalType": "uint256",
							"name": "id",
							"type": "uint256"
						},
						{
							"internalType": "string",
							"name": "encryptedDataIpfsHash",
							"type": "string"
						},
						{
							"internalType": "string",
							"name": "encryptedCertificateIpfsHash",
							"type": "string"
						},
						{
							"internalType": "uint256",
							"name": "vaccinationDate",
							"type": "uint256"
						},
						{
							"internalType": "uint256",
							"name": "createdAt",
							"type": "uint256"
						}
					],
					"internalType": "struct HealthWalletV2_05.VaccinationRecordRef",
					"name": "",
					"type": "tuple"
				}
			],
			"stateMutability": "view",
			"type": "function"
		},
		{
			"inputs": [
				{
					"internalType": "bytes32",
					"name": "role",
					"type": "bytes32"
				},
				{
					"internalType": "address",
					"name": "account",
					"type": "address"
				}
			],
			"name": "grantRole",
			"outputs": [],
			"stateMutability": "nonpayable",
			"type": "function"
		},
		{
			"inputs": [
				{
					"internalType": "address",
					"name": "_user",
					"type": "address"
				}
			],
			"name": "hasPersonalInfo",
			"outputs": [
				{
					"internalType": "bool",
					"name": "",
					"type": "bool"
				}
			],
			"stateMutability": "view",
			"type": "function"
		},
		{
			"inputs": [
				{
					"internalType": "bytes32",
					"name": "role",
					"type": "bytes32"
				},
				{
					"internalType": "address",
					"name": "account",
					"type": "address"
				}
			],
			"name": "hasRole",
			"outputs": [
				{
					"internalType": "bool",
					"name": "",
					"type": "bool"
				}
			],
			"stateMutability": "view",
			"type": "function"
		},
		{
			"inputs": [
				{
					"internalType": "address",
					"name": "_owner",
					"type": "address"
				},
				{
					"internalType": "string",
					"name": "_encryptedDetailsIpfsHash",
					"type": "string"
				},
				{
					"internalType": "enum HealthWalletV2_05.DataCategory",
					"name": "_accessedCategory",
					"type": "uint8"
				},
				{
					"internalType": "bytes32",
					"name": "_dataIntegrityHash",
					"type": "bytes32"
				}
			],
			"name": "logDataAccess",
			"outputs": [
				{
					"internalType": "uint256",
					"name": "",
					"type": "uint256"
				}
			],
			"stateMutability": "nonpayable",
			"type": "function"
		},
		{
			"inputs": [],
			"name": "owner",
			"outputs": [
				{
					"internalType": "address",
					"name": "",
					"type": "address"
				}
			],
			"stateMutability": "view",
			"type": "function"
		},
		{
			"inputs": [],
			"name": "pause",
			"outputs": [],
			"stateMutability": "nonpayable",
			"type": "function"
		},
		{
			"inputs": [],
			"name": "paused",
			"outputs": [
				{
					"internalType": "bool",
					"name": "",
					"type": "bool"
				}
			],
			"stateMutability": "view",
			"type": "function"
		},
		{
			"inputs": [
				{
					"internalType": "address",
					"name": "_auditor",
					"type": "address"
				}
			],
			"name": "registerAuditor",
			"outputs": [],
			"stateMutability": "nonpayable",
			"type": "function"
		},
		{
			"inputs": [
				{
					"internalType": "address",
					"name": "_clinic",
					"type": "address"
				}
			],
			"name": "registerClinic",
			"outputs": [],
			"stateMutability": "nonpayable",
			"type": "function"
		},
		{
			"inputs": [
				{
					"internalType": "address",
					"name": "_provider",
					"type": "address"
				}
			],
			"name": "registerHealthcareProvider",
			"outputs": [],
			"stateMutability": "nonpayable",
			"type": "function"
		},
		{
			"inputs": [
				{
					"internalType": "address",
					"name": "_hospital",
					"type": "address"
				}
			],
			"name": "registerHospital",
			"outputs": [],
			"stateMutability": "nonpayable",
			"type": "function"
		},
		{
			"inputs": [
				{
					"internalType": "address",
					"name": "_insurance",
					"type": "address"
				}
			],
			"name": "registerInsurance",
			"outputs": [],
			"stateMutability": "nonpayable",
			"type": "function"
		},
		{
			"inputs": [],
			"name": "renounceOwnership",
			"outputs": [],
			"stateMutability": "nonpayable",
			"type": "function"
		},
		{
			"inputs": [
				{
					"internalType": "bytes32",
					"name": "role",
					"type": "bytes32"
				},
				{
					"internalType": "address",
					"name": "callerConfirmation",
					"type": "address"
				}
			],
			"name": "renounceRole",
			"outputs": [],
			"stateMutability": "nonpayable",
			"type": "function"
		},
		{
			"inputs": [
				{
					"internalType": "address",
					"name": "_entity",
					"type": "address"
				},
				{
					"internalType": "bytes32",
					"name": "_role",
					"type": "bytes32"
				}
			],
			"name": "revokeEntityRole",
			"outputs": [],
			"stateMutability": "nonpayable",
			"type": "function"
		},
		{
			"inputs": [
				{
					"internalType": "bytes32",
					"name": "role",
					"type": "bytes32"
				},
				{
					"internalType": "address",
					"name": "account",
					"type": "address"
				}
			],
			"name": "revokeRole",
			"outputs": [],
			"stateMutability": "nonpayable",
			"type": "function"
		},
		{
			"inputs": [
				{
					"internalType": "uint256",
					"name": "_shareId",
					"type": "uint256"
				}
			],
			"name": "revokeShare",
			"outputs": [],
			"stateMutability": "nonpayable",
			"type": "function"
		},
		{
			"inputs": [
				{
					"internalType": "address",
					"name": "_emergencyContact",
					"type": "address"
				}
			],
			"name": "setEmergencyContact",
			"outputs": [],
			"stateMutability": "nonpayable",
			"type": "function"
		},
		{
			"inputs": [
				{
					"internalType": "string",
					"name": "_encryptedDataIpfsHash",
					"type": "string"
				},
				{
					"internalType": "bytes32",
					"name": "_publicKeyHash",
					"type": "bytes32"
				},
				{
					"internalType": "string",
					"name": "_encryptedKey",
					"type": "string"
				}
			],
			"name": "setPersonalInfo",
			"outputs": [],
			"stateMutability": "nonpayable",
			"type": "function"
		},
		{
			"inputs": [
				{
					"internalType": "address",
					"name": "_recipientAddress",
					"type": "address"
				},
				{
					"internalType": "bytes32",
					"name": "_recipientNameHash",
					"type": "bytes32"
				},
				{
					"internalType": "string",
					"name": "_encryptedRecipientDataIpfsHash",
					"type": "string"
				},
				{
					"internalType": "enum HealthWalletV2_05.RecipientType",
					"name": "_recipientType",
					"type": "uint8"
				},
				{
					"internalType": "enum HealthWalletV2_05.DataCategory",
					"name": "_dataCategory",
					"type": "uint8"
				},
				{
					"internalType": "uint256",
					"name": "_expiryDate",
					"type": "uint256"
				},
				{
					"internalType": "enum HealthWalletV2_05.AccessLevel",
					"name": "_accessLevel",
					"type": "uint8"
				},
				{
					"internalType": "string",
					"name": "_encryptedCategoryKey",
					"type": "string"
				}
			],
			"name": "shareData",
			"outputs": [
				{
					"internalType": "uint256",
					"name": "",
					"type": "uint256"
				}
			],
			"stateMutability": "nonpayable",
			"type": "function"
		},
		{
			"inputs": [
				{
					"internalType": "bytes4",
					"name": "interfaceId",
					"type": "bytes4"
				}
			],
			"name": "supportsInterface",
			"outputs": [
				{
					"internalType": "bool",
					"name": "",
					"type": "bool"
				}
			],
			"stateMutability": "view",
			"type": "function"
		},
		{
			"inputs": [
				{
					"internalType": "address",
					"name": "newOwner",
					"type": "address"
				}
			],
			"name": "transferOwnership",
			"outputs": [],
			"stateMutability": "nonpayable",
			"type": "function"
		},
		{
			"inputs": [],
			"name": "unpause",
			"outputs": [],
			"stateMutability": "nonpayable",
			"type": "function"
		},
		{
			"inputs": [
				{
					"internalType": "uint256",
					"name": "_medicationId",
					"type": "uint256"
				},
				{
					"internalType": "string",
					"name": "_encryptedDataIpfsHash",
					"type": "string"
				},
				{
					"internalType": "bool",
					"name": "_isActive",
					"type": "bool"
				},
				{
					"internalType": "uint256",
					"name": "_startDate",
					"type": "uint256"
				},
				{
					"internalType": "uint256",
					"name": "_endDate",
					"type": "uint256"
				}
			],
			"name": "updateMedication",
			"outputs": [],
			"stateMutability": "nonpayable",
			"type": "function"
		},
		{
			"inputs": [
				{
					"internalType": "uint256",
					"name": "_reportId",
					"type": "uint256"
				},
				{
					"internalType": "string",
					"name": "_encryptedDataIpfsHash",
					"type": "string"
				},
				{
					"internalType": "string",
					"name": "_encryptedFileIpfsHash",
					"type": "string"
				},
				{
					"internalType": "enum HealthWalletV2_05.ReportType",
					"name": "_reportType",
					"type": "uint8"
				},
				{
					"internalType": "bool",
					"name": "_hasFile",
					"type": "bool"
				},
				{
					"internalType": "uint256",
					"name": "_reportDate",
					"type": "uint256"
				},
				{
					"internalType": "string",
					"name": "_encryptedKey",
					"type": "string"
				}
			],
			"name": "updateReport",
			"outputs": [],
			"stateMutability": "nonpayable",
			"type": "function"
		},
		{
			"inputs": [
				{
					"internalType": "uint256",
					"name": "_vaccinationId",
					"type": "uint256"
				},
				{
					"internalType": "string",
					"name": "_encryptedDataIpfsHash",
					"type": "string"
				},
				{
					"internalType": "string",
					"name": "_encryptedCertificateIpfsHash",
					"type": "string"
				},
				{
					"internalType": "uint256",
					"name": "_vaccinationDate",
					"type": "uint256"
				}
			],
			"name": "updateVaccination",
			"outputs": [],
			"stateMutability": "nonpayable",
			"type": "function"
		}
	]
}