{
	"data": {
		"bytecode": {
			"linkReferences": {},
			"object": "608060405234801561001057600080fd5b50338061003757604051631e4fbdf760e01b81526000600482015260240160405180910390fd5b61004081610057565b5060016002556100516000336100a7565b5061013c565b600080546001600160a01b038381166001600160a01b0319831681178455604051919092169283917f8be0079c531659141344cd1fd0a4f28419497f9722a3daafe3b4186f6b6457e09190a35050565b60008281526001602090815260408083206001600160a01b038516845290915281205460ff166101325760008381526001602081815260408084206001600160a01b0387168086529252808420805460ff19169093179092559051339286917f2f8788117e7eff1d82e926ec794901d17c78024a50270940304540a733656f0d9190a4506001610136565b5060005b92915050565b613d1d8061014b6000396000f3fe608060405234801561001057600080fd5b506004361061023a5760003560e01c8062a6304f1461023f57806301ffc9a7146102545780630402e7351461027c578063045af3341461029f578063052a01f6146102d657806318b98101146102e95780631a100ca114610309578063248a9ca31461031c5780632c81df051461032f5780632f2ff15d146103685780632f4afbad1461037b57806336568abe1461038e5780633f4ba83a146103a1578063420b23a2146103a957806348def2f7146103bc5780634adbe62c146103cf57806350038737146103ef5780635c975abb14610402578063627e86f21461040d578063685d5b8b1461042d5780636e1d616e1461044d578063715018a6146104625780637e0ecee01461046a5780637e14f8cd1461047d57806382673e77146104905780638456cb59146104a557806386c4aea2146104ad5780638da5cb5b146104c057806391284a89146104c857806391d14854146104db578063a217fddf146104ee578063a4fbb117146104f6578063a65b27db14610509578063aa361c281461051c578063aa83f4d81461053c578063b3568f321461054f578063b752a74b14610562578063b85d4af014610577578063ba2aea961461058a578063c5b998581461059d578063d547741f146105b0578063df015dc1146105c3578063df9a4f56146105d6578063e653d375146105e9578063ee67e73d14610609578063f17245f914610629578063f2fde38b14610658578063f6871d9e1461066b578063f6ba66781461067e575b600080fd5b61025261024d36600461305a565b610693565b005b61026761026236600461309e565b6107e6565b60405190151581526020015b60405180910390f35b610291600080516020613c2883398151915281565b604051908152602001610273565b600454600554600654600754600854604080519586526020860194909452928401919091526060830152608082015260a001610273565b6102526102e43660046130e4565b61081d565b6102fc6102f73660046130e4565b610883565b60405161027391906130ff565b610291610317366004613161565b610954565b61029161032a3660046131f1565b610b1f565b61035b61033d3660046130e4565b6001600160a01b039081166000908152601960205260409020541690565b604051610273919061320a565b61025261037636600461321e565b610b35565b6102fc6103893660046130e4565b610b57565b61025261039c36600461321e565b610c1d565b610252610c50565b6102916103b736600461324a565b610c66565b6102916103ca3660046132b5565b610dcc565b6103e26103dd3660046131f1565b610fc0565b6040516102739190613360565b6102526103fd3660046131f1565b611151565b60035460ff16610267565b61042061041b3660046131f1565b6111dd565b60405161027391906133bc565b61044061043b3660046131f1565b6113de565b604051610273919061344a565b610291600080516020613c8883398151915281565b610252611555565b6102526104783660046130e4565b611569565b61029161048b3660046134b5565b6115c3565b610291600080516020613ca883398151915281565b610252611716565b6102526104bb366004613526565b611729565b61035b6117e0565b6102526104d63660046130e4565b6117ef565b6102676104e936600461321e565b61186c565b610291600081565b6102916105043660046135ad565b611897565b610252610517366004613670565b611be8565b61052f61052a3660046131f1565b611ca8565b60405161027391906136f8565b6102fc61054a3660046130e4565b611fbb565b61025261055d3660046130e4565b61206d565b610291600080516020613c6883398151915281565b6102fc6105853660046130e4565b6120c7565b6102526105983660046137d2565b612177565b6102526105ab3660046130e4565b61226b565b6102526105be36600461321e565b6122c5565b6102fc6105d13660046130e4565b6122e1565b6102526105e43660046130e4565b6123a7565b6105fc6105f73660046131f1565b612401565b604051610273919061387e565b61061c6106173660046130e4565b61261e565b6040516102739190613902565b6102676106373660046130e4565b6001600160a01b031660009081526009602052604090206004015460ff1690565b6102526106663660046130e4565b6127e4565b610252610679366004613954565b61281f565b610291600080516020613cc883398151915281565b61069b61286f565b3360009081526009602052604090206004015460ff16158015610776576040805160a081018252848152602080820185905242828401819052606083015260016080830152336000908152600990915291909120815181906106fd9082613a06565b50602082015160018201556040808301516002830155606083015160038301556080909201516004909101805460ff19169115159190911790555133907f5df23ea22902b85acdb8170e942605ab253b9f31accc498d0a7c3a43d300c675906107699086904290613ac4565b60405180910390a2505050565b33600090815260096020526040902061078f8482613a06565b5033600081815260096020526040908190206001810185905542600390910181905590517f4bb993e40976c9f9359a7e8001431c7b30c1645654767bfd93570c6795ab5abd9161076991879190613ac4565b505050565b60006001600160e01b03198216637965db0b60e01b148061081757506301ffc9a760e01b6001600160e01b03198316145b92915050565b600061082881612893565b610840600080516020613c2883398151915283610b35565b816001600160a01b0316600080516020613c48833981519152600080516020613c2883398151915260405161087791815260200190565b60405180910390a25050565b6060816003336001600160a01b03831614806108a557506108a582338361289d565b806108c357506108c3600080516020613c888339815191523361186c565b6108e85760405162461bcd60e51b81526004016108df90613ae6565b60405180910390fd5b6001600160a01b0384166000908152600e60209081526040918290208054835181840281018401909452808452909183018282801561094657602002820191906000526020600020905b815481526020019060010190808311610932575b505050505092505050919050565b600061095e61286f565b3360009081526009602052604090206004015460ff166109905760405162461bcd60e51b81526004016108df90613b09565b600680549060006109a083613b2a565b9190505550600060065490506040518060e001604052808281526020018881526020018781526020018660078111156109db576109db613420565b8152602001851515815260200184815260200142815250600f6000838152602001908152602001600020600082015181600001556020820151816001019081610a249190613a06565b5060408201516002820190610a399082613a06565b50606082015160038201805460ff19166001836007811115610a5d57610a5d613420565b021790555060808201516003820180549115156101000261ff001990921691909117905560a0820151600482015560c090910151600590910155600081815260166020908152604080832080546001600160a01b03191633908117909155808452600e8352818420805460018101825590855292909320909101839055518291907f7e2ac09f9bde6130ff92917c5d2cc031afbba4154566e196417aa56eb041679390610b0d9089908c90613b51565b60405180910390a39695505050505050565b6000908152600160208190526040909120015490565b610b3e82610b1f565b610b4781612893565b610b518383612c5c565b50505050565b6060816002336001600160a01b0383161480610b795750610b7982338361289d565b80610b975750610b97600080516020613c888339815191523361186c565b610bb35760405162461bcd60e51b81526004016108df90613ae6565b6001600160a01b0384166000908152600c602090815260409182902080548351818402810184019094528084529091830182828015610946576020028201919060005260206000209081548152602001906001019080831161093257505050505092505050919050565b6001600160a01b0381163314610c465760405163334bd91960e11b815260040160405180910390fd5b6107e18282612cd5565b6000610c5b81612893565b610c63612d42565b50565b6000610c7061286f565b3360009081526009602052604090206004015460ff16610ca25760405162461bcd60e51b81526004016108df90613b09565b60048054906000610cb283613b2a565b90915550506004546040805160c08101825282815260208082018981528815158385015260608301889052608083018790524260a08401526000858152600b9092529290208151815591519091906001820190610d0f9082613a06565b5060408281015160028301805460ff1916911515919091179055606083015160038301556080830151600483015560a0909201516005909101556000828152601460209081528282208054336001600160a01b03199091168117909155808352600a82528383208054600181018255908452919092200183905590518291907fb9e5855c05b4297baf0b4f6174bd05a6bd6d2e22a10a228d364b4350dcee191890610dbb908a90613b79565b60405180910390a395945050505050565b6000610dd661286f565b336001600160a01b0386161480610df35750610df385338561289d565b80610e115750610e11600080516020613c888339815191523361186c565b610e4d5760405162461bcd60e51b815260206004820152600d60248201526c2737903832b936b4b9b9b4b7b760991b60448201526064016108df565b60088054906000610e5d83613b2a565b90915550506008546040805160c08101825282815233602082015290810186905260608101856004811115610e9457610e94613420565b815242602080830191909152604091820186905260008481526013825282902083518155908301516001820180546001600160a01b0319166001600160a01b03909216919091179055908201516002820190610ef09082613a06565b50606082015160038201805460ff19166001836004811115610f1457610f14613420565b02179055506080820151600482015560a090910151600590910155600081815260186020908152604080832080546001600160a01b0319166001600160a01b038b169081179091558084526012835281842080546001810182559085529290932090910183905551829133917fcc936e965cb312f996247a9f5c0929b57c3078f4d25f38c1e1fa8171238e54a790610faf9089904290613b8c565b60405180910390a495945050505050565b610ffb6040518060c0016040528060008152602001606081526020016000151581526020016000815260200160008152602001600081525090565b6000828152601460205260409020546001600160a01b03163381148061102857506110288133600161289d565b806110465750611046600080516020613c888339815191523361186c565b6110625760405162461bcd60e51b81526004016108df90613ae6565b600b60008481526020019081526020016000206040518060c00160405290816000820154815260200160018201805461109a9061397e565b80601f01602080910402602001604051908101604052809291908181526020018280546110c69061397e565b80156111135780601f106110e857610100808354040283529160200191611113565b820191906000526020600020905b8154815290600101906020018083116110f657829003601f168201915b5050509183525050600282015460ff161515602082015260038201546040820152600482015460608201526005909101546080909101529392505050565b61115961286f565b60008181526017602052604090205481906001600160a01b031633146111915760405162461bcd60e51b81526004016108df90613ba7565b600082815260116020526040808220600701805461ff00191661020017905551839133917fecc5422bdbc6a29eb33382a149718b65f504d9ebfc6aa2d2b142bcc6ad837a6b9190a35050565b61120f6040518060a0016040528060008152602001606081526020016060815260200160008152602001600081525090565b6000828152601560205260409020546001600160a01b03163381148061123c575061123c8133600261289d565b8061125a575061125a600080516020613c888339815191523361186c565b6112765760405162461bcd60e51b81526004016108df90613ae6565b600d60008481526020019081526020016000206040518060a0016040529081600082015481526020016001820180546112ae9061397e565b80601f01602080910402602001604051908101604052809291908181526020018280546112da9061397e565b80156113275780601f106112fc57610100808354040283529160200191611327565b820191906000526020600020905b81548152906001019060200180831161130a57829003601f168201915b505050505081526020016002820180546113409061397e565b80601f016020809104026020016040519081016040528092919081815260200182805461136c9061397e565b80156113b95780601f1061138e576101008083540402835291602001916113b9565b820191906000526020600020905b81548152906001019060200180831161139c57829003601f168201915b5050505050815260200160038201548152602001600482015481525050915050919050565b6113e6612ead565b6000828152601860205260409020546001600160a01b03163381148061141f575061141f600080516020613c888339815191523361186c565b61143b5760405162461bcd60e51b81526004016108df90613bca565b600083815260136020908152604091829020825160c0810184528154815260018201546001600160a01b03169281019290925260028101805492939192918401916114859061397e565b80601f01602080910402602001604051908101604052809291908181526020018280546114b19061397e565b80156114fe5780601f106114d3576101008083540402835291602001916114fe565b820191906000526020600020905b8154815290600101906020018083116114e157829003601f168201915b5050509183525050600382015460209091019060ff16600481111561152557611525613420565b600481111561153657611536613420565b8152600482015460208201526005909101546040909101529392505050565b61155d612d8e565b6115676000612dc0565b565b600061157481612893565b61158c600080516020613c6883398151915283610b35565b816001600160a01b0316600080516020613c48833981519152600080516020613c6883398151915260405161087791815260200190565b60006115cd61286f565b3360009081526009602052604090206004015460ff166115ff5760405162461bcd60e51b81526004016108df90613b09565b6005805490600061160f83613b2a565b90915550506005546040805160a0810182528281526020808201888152828401889052606083018790524260808401526000858152600d90925292902081518155915190919060018201906116649082613a06565b50604082015160028201906116799082613a06565b5060608201516003820155608090910151600490910155600081815260156020908152604080832080546001600160a01b03191633908117909155808452600c8352818420805460018101825590855292909320909101839055518291907f248b56445b6b2964c05eb68404feebe918d6d28de7f6386fc4cabb9e0b70d50090611704908990613b79565b60405180910390a390505b9392505050565b600061172181612893565b610c63612e10565b61173161286f565b60008481526015602052604090205484906001600160a01b031633146117695760405162461bcd60e51b81526004016108df90613ba7565b6000858152600d60205260409020600181016117858682613a06565b50600281016117948582613a06565b5060038101839055604051869033907f44f08082ef5253266e365753c1e7cea2b4bb2025062f0cf4e2288fc811d941c8906117d0908990613b79565b60405180910390a3505050505050565b6000546001600160a01b031690565b6001600160a01b0381166118155760405162461bcd60e51b81526004016108df90613beb565b3360008181526019602052604080822080546001600160a01b0319166001600160a01b03861690811790915590519092917ff0e65fe0d2436800e6455b857dbfbc38741836ade6b9bf9b8177b377317c1d5e91a350565b60009182526001602090815260408084206001600160a01b0393909316845291905290205460ff1690565b60006118a161286f565b3360009081526009602052604090206004015460ff166118d35760405162461bcd60e51b81526004016108df90613b09565b6001600160a01b0389166118f95760405162461bcd60e51b81526004016108df90613beb565b336001600160a01b038a16036119415760405162461bcd60e51b815260206004820152600d60248201526c4e6f2073656c662d736861726560981b60448201526064016108df565b4284116119815760405162461bcd60e51b815260206004820152600e60248201526d496e76616c69642065787069727960901b60448201526064016108df565b6007805490600061199183613b2a565b9190505550600060075490506040518061016001604052808281526020018b6001600160a01b031681526020018a81526020018981526020018860068111156119dc576119dc613420565b81526020018760048111156119f3576119f3613420565b8152602001428152602001868152602001856002811115611a1657611a16613420565b815260200160008152602090810185905260008381526011825260409081902083518155918301516001830180546001600160a01b0319166001600160a01b03909216919091179055820151600282015560608201516003820190611a7b9082613a06565b50608082015160048201805460ff19166001836006811115611a9f57611a9f613420565b021790555060a08201518160040160016101000a81548160ff02191690836004811115611ace57611ace613420565b021790555060c0820151600582015560e0820151600682015561010082015160078201805460ff19166001836002811115611b0b57611b0b613420565b021790555061012082015160078201805461ff001916610100836002811115611b3657611b36613420565b02179055506101408201516008820190611b509082613a06565b505050600081815260176020908152604080832080546001600160a01b03191633908117909155808452601083528184208054600181018255908552929093209091018390555182916001600160a01b038d16917f0a659897907550ad23df4acc58af8f2928fb8c5f64323d619580011b039a864990611bd3908b908b90613b8c565b60405180910390a49998505050505050505050565b611bf061286f565b60008581526014602052604090205485906001600160a01b03163314611c285760405162461bcd60e51b81526004016108df90613ba7565b6000868152600b6020526040902060018101611c448782613a06565b5060028101805460ff19168615151790556003810184905560048101839055604051879033907f4d3508c2ade1f9d136f8852a5ed95ace66534d58ab56c35dd69e8ae6ecc8a71190611c97908a90613b79565b60405180910390a350505050505050565b611cb0612efd565b6000828152601760205260409020546001600160a01b031633811480611cef57506000838152601160205260409020600101546001600160a01b031633145b80611d0d5750611d0d600080516020613c888339815191523361186c565b611d295760405162461bcd60e51b81526004016108df90613bca565b60008381526011602090815260408083208151610160810183528154815260018201546001600160a01b031693810193909352600281015491830191909152600381018054606084019190611d7d9061397e565b80601f0160208091040260200160405190810160405280929190818152602001828054611da99061397e565b8015611df65780601f10611dcb57610100808354040283529160200191611df6565b820191906000526020600020905b815481529060010190602001808311611dd957829003601f168201915b5050509183525050600482015460209091019060ff166006811115611e1d57611e1d613420565b6006811115611e2e57611e2e613420565b81526020016004820160019054906101000a900460ff166004811115611e5657611e56613420565b6004811115611e6757611e67613420565b81526005820154602082015260068201546040820152600782015460609091019060ff166002811115611e9c57611e9c613420565b6002811115611ead57611ead613420565b81526020016007820160019054906101000a900460ff166002811115611ed557611ed5613420565b6002811115611ee657611ee6613420565b8152602001600882018054611efa9061397e565b80601f0160208091040260200160405190810160405280929190818152602001828054611f269061397e565b8015611f735780601f10611f4857610100808354040283529160200191611f73565b820191906000526020600020905b815481529060010190602001808311611f5657829003601f168201915b50505050508152505090508060e0015142118015611fa7575060008161012001516002811115611fa557611fa5613420565b145b1561170f5760016101208201529392505050565b6060336001600160a01b0383161480611fe75750611fe7600080516020613c888339815191523361186c565b6120035760405162461bcd60e51b81526004016108df90613bca565b6001600160a01b0382166000908152601060209081526040918290208054835181840281018401909452808452909183018282801561206157602002820191906000526020600020905b81548152602001906001019080831161204d575b50505050509050919050565b600061207881612893565b612090600080516020613ca883398151915283610b35565b816001600160a01b0316600080516020613c48833981519152600080516020613ca883398151915260405161087791815260200190565b6060336001600160a01b03831614806120f357506120f3600080516020613c888339815191523361186c565b61210f5760405162461bcd60e51b81526004016108df90613bca565b6001600160a01b03821660009081526012602090815260409182902080548351818402810184019094528084529091830182828015612061576020028201919060005260206000209081548152602001906001019080831161204d5750505050509050919050565b61217f61286f565b60008681526016602052604090205486906001600160a01b031633146121b75760405162461bcd60e51b81526004016108df90613ba7565b6000878152600f60205260409020600181016121d38882613a06565b50600281016121e28782613a06565b5060038101805486919060ff1916600183600781111561220457612204613420565b021790555060038101805461ff0019166101008615150217905560048101839055604051889033907f0194f475ed1a7936bc502c5f68be59ab8b4e5ef3adc105d56862f112b1547f2590612259908b90613b79565b60405180910390a35050505050505050565b600061227681612893565b61228e600080516020613cc883398151915283610b35565b816001600160a01b0316600080516020613c48833981519152600080516020613cc883398151915260405161087791815260200190565b6122ce82610b1f565b6122d781612893565b610b518383612cd5565b6060816001336001600160a01b0383161480612303575061230382338361289d565b806123215750612321600080516020613c888339815191523361186c565b61233d5760405162461bcd60e51b81526004016108df90613ae6565b6001600160a01b0384166000908152600a602090815260409182902080548351818402810184019094528084529091830182828015610946576020028201919060005260206000209081548152602001906001019080831161093257505050505092505050919050565b60006123b281612893565b6123ca600080516020613c8883398151915283610b35565b816001600160a01b0316600080516020613c48833981519152600080516020613c8883398151915260405161087791815260200190565b612409612f67565b6000828152601660205260409020546001600160a01b03163381148061243657506124368133600361289d565b806124545750612454600080516020613c888339815191523361186c565b6124705760405162461bcd60e51b81526004016108df90613ae6565b600f60008481526020019081526020016000206040518060e0016040529081600082015481526020016001820180546124a89061397e565b80601f01602080910402602001604051908101604052809291908181526020018280546124d49061397e565b80156125215780601f106124f657610100808354040283529160200191612521565b820191906000526020600020905b81548152906001019060200180831161250457829003601f168201915b5050505050815260200160028201805461253a9061397e565b80601f01602080910402602001604051908101604052809291908181526020018280546125669061397e565b80156125b35780601f10612588576101008083540402835291602001916125b3565b820191906000526020600020905b81548152906001019060200180831161259657829003601f168201915b5050509183525050600382015460209091019060ff1660078111156125da576125da613420565b60078111156125eb576125eb613420565b81526003820154610100900460ff1615156020820152600482015460408201526005909101546060909101529392505050565b6040805160a081018252606080825260006020830181905292820183905281018290526080810191909152816000336001600160a01b0383161480612669575061266982338361289d565b806126875750612687600080516020613c888339815191523361186c565b6126a35760405162461bcd60e51b81526004016108df90613ae6565b6001600160a01b03841660009081526009602052604090206004015460ff166126fa5760405162461bcd60e51b8152602060048201526009602482015268139bdd08199bdd5b9960ba1b60448201526064016108df565b6001600160a01b03841660009081526009602052604090819020815160a0810190925280548290829061272c9061397e565b80601f01602080910402602001604051908101604052809291908181526020018280546127589061397e565b80156127a55780601f1061277a576101008083540402835291602001916127a5565b820191906000526020600020905b81548152906001019060200180831161278857829003601f168201915b505050918352505060018201546020820152600282015460408201526003820154606082015260049091015460ff161515608090910152949350505050565b6127ec612d8e565b6001600160a01b038116612816576000604051631e4fbdf760e01b81526004016108df919061320a565b610c6381612dc0565b600061282a81612893565b61283482846122c5565b826001600160a01b03167f2ec6b3b60cf0b79d925a613d31f267dfa6bbe1350819a7785767e183bfb3d87f8360405161076991815260200190565b60035460ff16156115675760405163d93c066560e01b815260040160405180910390fd5b610c638133612e4d565b6001600160a01b0383166000908152601060209081526040808320805482518185028101850190935280835284938301828280156128fa57602002820191906000526020600020905b8154815260200190600101908083116128e6575b5050505050905060005b8151811015612c505760006011600084848151811061292557612925613c11565b6020026020010151815260200190815260200160002060405180610160016040529081600082015481526020016001820160009054906101000a90046001600160a01b03166001600160a01b03166001600160a01b031681526020016002820154815260200160038201805461299a9061397e565b80601f01602080910402602001604051908101604052809291908181526020018280546129c69061397e565b8015612a135780601f106129e857610100808354040283529160200191612a13565b820191906000526020600020905b8154815290600101906020018083116129f657829003601f168201915b5050509183525050600482015460209091019060ff166006811115612a3a57612a3a613420565b6006811115612a4b57612a4b613420565b81526020016004820160019054906101000a900460ff166004811115612a7357612a73613420565b6004811115612a8457612a84613420565b81526005820154602082015260068201546040820152600782015460609091019060ff166002811115612ab957612ab9613420565b6002811115612aca57612aca613420565b81526020016007820160019054906101000a900460ff166002811115612af257612af2613420565b6002811115612b0357612b03613420565b8152602001600882018054612b179061397e565b80601f0160208091040260200160405190810160405280929190818152602001828054612b439061397e565b8015612b905780601f10612b6557610100808354040283529160200191612b90565b820191906000526020600020905b815481529060010190602001808311612b7357829003601f168201915b5050505050815250509050856001600160a01b031681602001516001600160a01b0316148015612bd6575060008161012001516002811115612bd457612bd4613420565b145b8015612be657508060e001514211155b8015612c365750846004811115612bff57612bff613420565b8160a001516004811115612c1557612c15613420565b1480612c36575060048160a001516004811115612c3457612c34613420565b145b15612c47576001935050505061170f565b50600101612904565b50600095945050505050565b6000612c68838361186c565b612ccd5760008381526001602081815260408084206001600160a01b0387168086529252808420805460ff19169093179092559051339286917f2f8788117e7eff1d82e926ec794901d17c78024a50270940304540a733656f0d9190a4506001610817565b506000610817565b6000612ce1838361186c565b15612ccd5760008381526001602090815260408083206001600160a01b0386168085529252808320805460ff1916905551339286917ff6391f5c32d9c69d2a47ea670b442974b53935d1edc7fd64eb21e047a839171b9190a4506001610817565b612d4a612e8a565b6003805460ff191690557f5db9ee0a495bf2e6ff9c91a7834c1ba4fdd244a5e8aa4e537bd38aeae4b073aa335b604051612d84919061320a565b60405180910390a1565b33612d976117e0565b6001600160a01b031614611567573360405163118cdaa760e01b81526004016108df919061320a565b600080546001600160a01b038381166001600160a01b0319831681178455604051919092169283917f8be0079c531659141344cd1fd0a4f28419497f9722a3daafe3b4186f6b6457e09190a35050565b612e1861286f565b6003805460ff191660011790557f62e78cea01bee320cd4e420270b5ea74000d11b0c9f74754ebdbfc544b05a258612d773390565b612e57828261186c565b612e865760405163e2517d3f60e01b81526001600160a01b0382166004820152602481018390526044016108df565b5050565b60035460ff1661156757604051638dfc202b60e01b815260040160405180910390fd5b6040518060c001604052806000815260200160006001600160a01b031681526020016060815260200160006004811115612ee957612ee9613420565b815260006020820181905260409091015290565b6040805161016081018252600080825260208201819052918101829052606080820152906080820190815260200160008152602001600081526020016000815260200160006002811115612f5357612f53613420565b815260200160008152602001606081525090565b6040518060e0016040528060008152602001606081526020016060815260200160006007811115612f9a57612f9a613420565b815260200160001515815260200160008152602001600081525090565b634e487b7160e01b600052604160045260246000fd5b600082601f830112612fde57600080fd5b81356001600160401b03811115612ff757612ff7612fb7565b604051601f8201601f19908116603f011681016001600160401b038111828210171561302557613025612fb7565b60405281815283820160200185101561303d57600080fd5b816020850160208301376000918101602001919091529392505050565b6000806040838503121561306d57600080fd5b82356001600160401b0381111561308357600080fd5b61308f85828601612fcd565b95602094909401359450505050565b6000602082840312156130b057600080fd5b81356001600160e01b03198116811461170f57600080fd5b80356001600160a01b03811681146130df57600080fd5b919050565b6000602082840312156130f657600080fd5b61170f826130c8565b602080825282518282018190526000918401906040840190835b81811015613137578351835260209384019390920191600101613119565b509095945050505050565b8035600881106130df57600080fd5b803580151581146130df57600080fd5b600080600080600060a0868803121561317957600080fd5b85356001600160401b0381111561318f57600080fd5b61319b88828901612fcd565b95505060208601356001600160401b038111156131b757600080fd5b6131c388828901612fcd565b9450506131d260408701613142565b92506131e060608701613151565b949793965091946080013592915050565b60006020828403121561320357600080fd5b5035919050565b6001600160a01b0391909116815260200190565b6000806040838503121561323157600080fd5b82359150613241602084016130c8565b90509250929050565b6000806000806080858703121561326057600080fd5b84356001600160401b0381111561327657600080fd5b61328287828801612fcd565b94505061329160208601613151565b93969395505050506040820135916060013590565b8035600581106130df57600080fd5b600080600080608085870312156132cb57600080fd5b6132d4856130c8565b935060208501356001600160401b038111156132ef57600080fd5b6132fb87828801612fcd565b93505061330a604086016132a6565b9396929550929360600135925050565b6000815180845260005b8181101561334057602081850181015186830182015201613324565b506000602082860101526020601f19601f83011685010191505092915050565b60208152815160208201526000602083015160c0604084015261338660e084018261331a565b905060408401511515606084015260608401516080840152608084015160a084015260a084015160c08401528091505092915050565b60208152815160208201526000602083015160a060408401526133e260c084018261331a565b90506040840151601f198483030160608501526133ff828261331a565b91505060608401516080840152608084015160a08401528091505092915050565b634e487b7160e01b600052602160045260246000fd5b6005811061344657613446613420565b9052565b602081528151602082015260018060a01b0360208301511660408201526000604083015160c0606084015261348260e084018261331a565b905060608401516134966080850182613436565b50608084015160a084015260a084015160c08401528091505092915050565b6000806000606084860312156134ca57600080fd5b83356001600160401b038111156134e057600080fd5b6134ec86828701612fcd565b93505060208401356001600160401b0381111561350857600080fd5b61351486828701612fcd565b93969395505050506040919091013590565b6000806000806080858703121561353c57600080fd5b8435935060208501356001600160401b0381111561355957600080fd5b61356587828801612fcd565b93505060408501356001600160401b0381111561358157600080fd5b61358d87828801612fcd565b949793965093946060013593505050565b8035600381106130df57600080fd5b600080600080600080600080610100898b0312156135ca57600080fd5b6135d3896130c8565b97506020890135965060408901356001600160401b038111156135f557600080fd5b6136018b828c01612fcd565b96505060608901356007811061361657600080fd5b945061362460808a016132a6565b935060a0890135925061363960c08a0161359e565b915060e08901356001600160401b0381111561365457600080fd5b6136608b828c01612fcd565b9150509295985092959890939650565b600080600080600060a0868803121561368857600080fd5b8535945060208601356001600160401b038111156136a557600080fd5b6136b188828901612fcd565b9450506136c060408701613151565b94979396509394606081013594506080013592915050565b6007811061344657613446613420565b6003811061344657613446613420565b60208152815160208201526000602083015161371f60408401826001600160a01b03169052565b50604083015160608301526060830151610160608084015261374561018084018261331a565b9050608084015161375960a08501826136d8565b5060a084015161376c60c0850182613436565b5060c084015160e084015260e08401516101008401526101008401516137966101208501826136e8565b506101208401516137ab6101408501826136e8565b50610140840151838203601f19016101608501526137c9828261331a565b95945050505050565b60008060008060008060c087890312156137eb57600080fd5b8635955060208701356001600160401b0381111561380857600080fd5b61381489828a01612fcd565b95505060408701356001600160401b0381111561383057600080fd5b61383c89828a01612fcd565b94505061384b60608801613142565b925061385960808801613151565b9598949750929591949360a090920135925050565b6008811061344657613446613420565b60208152815160208201526000602083015160e060408401526138a561010084018261331a565b90506040840151601f198483030160608501526138c2828261331a565b91505060608401516138d7608085018261386e565b506080840151151560a084015260a084015160c084015260c084015160e08401528091505092915050565b602081526000825160a0602084015261391e60c084018261331a565b90506020840151604084015260408401516060840152606084015160808401526080840151151560a08401528091505092915050565b6000806040838503121561396757600080fd5b613970836130c8565b946020939093013593505050565b600181811c9082168061399257607f821691505b6020821081036139b257634e487b7160e01b600052602260045260246000fd5b50919050565b601f8211156107e157806000526020600020601f840160051c810160208510156139df5750805b601f840160051c820191505b818110156139ff57600081556001016139eb565b5050505050565b81516001600160401b03811115613a1f57613a1f612fb7565b613a3381613a2d845461397e565b846139b8565b6020601f821160018114613a675760008315613a4f5750848201515b600019600385901b1c1916600184901b1784556139ff565b600084815260208120601f198516915b82811015613a975787850151825560209485019460019092019101613a77565b5084821015613ab55786840151600019600387901b60f8161c191681555b50505050600190811b01905550565b604081526000613ad7604083018561331a565b90508260208301529392505050565b6020808252600990820152684e6f2061636365737360b81b604082015260600190565b6020808252600790820152664e6f20696e666f60c81b604082015260600190565b600060018201613b4a57634e487b7160e01b600052601160045260246000fd5b5060010190565b613b5b818461386e565b604060208201526000613b71604083018461331a565b949350505050565b60208152600061170f602083018461331a565b60408101613b9a8285613436565b8260208301529392505050565b6020808252600990820152682737ba1037bbb732b960b91b604082015260600190565b60208082526007908201526609cde40c2eae8d60cb1b604082015260600190565b6020808252600c908201526b24b73b30b634b21030b2323960a11b604082015260600190565b634e487b7160e01b600052603260045260246000fdfe8825c62207077c41710fe5144a6467477a643e911c9ab3785826111f7c94ed8b18c9d97edfcf27865aca8a4f478a1b4429b4c82fb5ded476e9f317f74573d01bfec7cd74e5c65b641d49ecc2e89f646c7c0bcae85dc50f9616bf9c798cedda8b59a1c48e5837ad7a7f3dcedcbe129bf3249ec4fbf651fd4f5e2600ead39fe2f51976159518e32c975351d3eb18509d62ab7629098636e52c6ce63466e939167fc8f5b4140cca307cd927e59cbeea8291bffeee228fc677f0fa059aef7b4dd8d5a264697066735822122099fa2654e26f7427876b22438fb79e8fefe8d7b9eb92efc5f351d8824b50e3db64736f6c634300081f0033",
			"opcodes": "PUSH1 0x80 PUSH1 0x40 MSTORE CALLVALUE DUP1 ISZERO PUSH2 0x10 JUMPI PUSH1 0x0 DUP1 REVERT JUMPDEST POP CALLER DUP1 PUSH2 0x37 JUMPI PUSH1 0x40 MLOAD PUSH4 0x1E4FBDF7 PUSH1 0xE0 SHL DUP2 MSTORE PUSH1 0x0 PUSH1 0x4 DUP3 ADD MSTORE PUSH1 0x24 ADD PUSH1 0x40 MLOAD DUP1 SWAP2 SUB SWAP1 REVERT JUMPDEST PUSH2 0x40 DUP2 PUSH2 0x57 JUMP JUMPDEST POP PUSH1 0x1 PUSH1 0x2 SSTORE PUSH2 0x51 PUSH1 0x0 CALLER PUSH2 0xA7 JUMP JUMPDEST POP PUSH2 0x13C JUMP JUMPDEST PUSH1 0x0 DUP1 SLOAD PUSH1 0x1 PUSH1 0x1 PUSH1 0xA0 SHL SUB DUP4 DUP2 AND PUSH1 0x1 PUSH1 0x1 PUSH1 0xA0 SHL SUB NOT DUP4 AND DUP2 OR DUP5 SSTORE PUSH1 0x40 MLOAD SWAP2 SWAP1 SWAP3 AND SWAP3 DUP4 SWAP2 PUSH32 0x8BE0079C531659141344CD1FD0A4F28419497F9722A3DAAFE3B4186F6B6457E0 SWAP2 SWAP1 LOG3 POP POP JUMP JUMPDEST PUSH1 0x0 DUP3 DUP2 MSTORE PUSH1 0x1 PUSH1 0x20 SWAP1 DUP2 MSTORE PUSH1 0x40 DUP1 DUP4 KECCAK256 PUSH1 0x1 PUSH1 0x1 PUSH1 0xA0 SHL SUB DUP6 AND DUP5 MSTORE SWAP1 SWAP2 MSTORE DUP2 KECCAK256 SLOAD PUSH1 0xFF AND PUSH2 0x132 JUMPI PUSH1 0x0 DUP4 DUP2 MSTORE PUSH1 0x1 PUSH1 0x20 DUP2 DUP2 MSTORE PUSH1 0x40 DUP1 DUP5 KECCAK256 PUSH1 0x1 PUSH1 0x1 PUSH1 0xA0 SHL SUB DUP8 AND DUP1 DUP7 MSTORE SWAP3 MSTORE DUP1 DUP5 KECCAK256 DUP1 SLOAD PUSH1 0xFF NOT AND SWAP1 SWAP4 OR SWAP1 SWAP3 SSTORE SWAP1 MLOAD CALLER SWAP3 DUP7 SWAP2 PUSH32 0x2F8788117E7EFF1D82E926EC794901D17C78024A50270940304540A733656F0D SWAP2 SWAP1 LOG4 POP PUSH1 0x1 PUSH2 0x136 JUMP JUMPDEST POP PUSH1 0x0 JUMPDEST SWAP3 SWAP2 POP POP JUMP JUMPDEST PUSH2 0x3D1D DUP1 PUSH2 0x14B PUSH1 0x0 CODECOPY PUSH1 0x0 RETURN INVALID PUSH1 0x80 PUSH1 0x40 MSTORE CALLVALUE DUP1 ISZERO PUSH2 0x10 JUMPI PUSH1 0x0 DUP1 REVERT JUMPDEST POP PUSH1 0x4 CALLDATASIZE LT PUSH2 0x23A JUMPI PUSH1 0x0 CALLDATALOAD PUSH1 0xE0 SHR DUP1 PUSH3 0xA6304F EQ PUSH2 0x23F JUMPI DUP1 PUSH4 0x1FFC9A7 EQ PUSH2 0x254 JUMPI DUP1 PUSH4 0x402E735 EQ PUSH2 0x27C JUMPI DUP1 PUSH4 0x45AF334 EQ PUSH2 0x29F JUMPI DUP1 PUSH4 0x52A01F6 EQ PUSH2 0x2D6 JUMPI DUP1 PUSH4 0x18B98101 EQ PUSH2 0x2E9 JUMPI DUP1 PUSH4 0x1A100CA1 EQ PUSH2 0x309 JUMPI DUP1 PUSH4 0x248A9CA3 EQ PUSH2 0x31C JUMPI DUP1 PUSH4 0x2C81DF05 EQ PUSH2 0x32F JUMPI DUP1 PUSH4 0x2F2FF15D EQ PUSH2 0x368 JUMPI DUP1 PUSH4 0x2F4AFBAD EQ PUSH2 0x37B JUMPI DUP1 PUSH4 0x36568ABE EQ PUSH2 0x38E JUMPI DUP1 PUSH4 0x3F4BA83A EQ PUSH2 0x3A1 JUMPI DUP1 PUSH4 0x420B23A2 EQ PUSH2 0x3A9 JUMPI DUP1 PUSH4 0x48DEF2F7 EQ PUSH2 0x3BC JUMPI DUP1 PUSH4 0x4ADBE62C EQ PUSH2 0x3CF JUMPI DUP1 PUSH4 0x50038737 EQ PUSH2 0x3EF JUMPI DUP1 PUSH4 0x5C975ABB EQ PUSH2 0x402 JUMPI DUP1 PUSH4 0x627E86F2 EQ PUSH2 0x40D JUMPI DUP1 PUSH4 0x685D5B8B EQ PUSH2 0x42D JUMPI DUP1 PUSH4 0x6E1D616E EQ PUSH2 0x44D JUMPI DUP1 PUSH4 0x715018A6 EQ PUSH2 0x462 JUMPI DUP1 PUSH4 0x7E0ECEE0 EQ PUSH2 0x46A JUMPI DUP1 PUSH4 0x7E14F8CD EQ PUSH2 0x47D JUMPI DUP1 PUSH4 0x82673E77 EQ PUSH2 0x490 JUMPI DUP1 PUSH4 0x8456CB59 EQ PUSH2 0x4A5 JUMPI DUP1 PUSH4 0x86C4AEA2 EQ PUSH2 0x4AD JUMPI DUP1 PUSH4 0x8DA5CB5B EQ PUSH2 0x4C0 JUMPI DUP1 PUSH4 0x91284A89 EQ PUSH2 0x4C8 JUMPI DUP1 PUSH4 0x91D14854 EQ PUSH2 0x4DB JUMPI DUP1 PUSH4 0xA217FDDF EQ PUSH2 0x4EE JUMPI DUP1 PUSH4 0xA4FBB117 EQ PUSH2 0x4F6 JUMPI DUP1 PUSH4 0xA65B27DB EQ PUSH2 0x509 JUMPI DUP1 PUSH4 0xAA361C28 EQ PUSH2 0x51C JUMPI DUP1 PUSH4 0xAA83F4D8 EQ PUSH2 0x53C JUMPI DUP1 PUSH4 0xB3568F32 EQ PUSH2 0x54F JUMPI DUP1 PUSH4 0xB752A74B EQ PUSH2 0x562 JUMPI DUP1 PUSH4 0xB85D4AF0 EQ PUSH2 0x577 JUMPI DUP1 PUSH4 0xBA2AEA96 EQ PUSH2 0x58A JUMPI DUP1 PUSH4 0xC5B99858 EQ PUSH2 0x59D JUMPI DUP1 PUSH4 0xD547741F EQ PUSH2 0x5B0 JUMPI DUP1 PUSH4 0xDF015DC1 EQ PUSH2 0x5C3 JUMPI DUP1 PUSH4 0xDF9A4F56 EQ PUSH2 0x5D6 JUMPI DUP1 PUSH4 0xE653D375 EQ PUSH2 0x5E9 JUMPI DUP1 PUSH4 0xEE67E73D EQ PUSH2 0x609 JUMPI DUP1 PUSH4 0xF17245F9 EQ PUSH2 0x629 JUMPI DUP1 PUSH4 0xF2FDE38B EQ PUSH2 0x658 JUMPI DUP1 PUSH4 0xF6871D9E EQ PUSH2 0x66B JUMPI DUP1 PUSH4 0xF6BA6678 EQ PUSH2 0x67E JUMPI JUMPDEST PUSH1 0x0 DUP1 REVERT JUMPDEST PUSH2 0x252 PUSH2 0x24D CALLDATASIZE PUSH1 0x4 PUSH2 0x305A JUMP JUMPDEST PUSH2 0x693 JUMP JUMPDEST STOP JUMPDEST PUSH2 0x267 PUSH2 0x262 CALLDATASIZE PUSH1 0x4 PUSH2 0x309E JUMP JUMPDEST PUSH2 0x7E6 JUMP JUMPDEST PUSH1 0x40 MLOAD SWAP1 ISZERO ISZERO DUP2 MSTORE PUSH1 0x20 ADD JUMPDEST PUSH1 0x40 MLOAD DUP1 SWAP2 SUB SWAP1 RETURN JUMPDEST PUSH2 0x291 PUSH1 0x0 DUP1 MLOAD PUSH1 0x20 PUSH2 0x3C28 DUP4 CODECOPY DUP2 MLOAD SWAP2 MSTORE DUP2 JUMP JUMPDEST PUSH1 0x40 MLOAD SWAP1 DUP2 MSTORE PUSH1 0x20 ADD PUSH2 0x273 JUMP JUMPDEST PUSH1 0x4 SLOAD PUSH1 0x5 SLOAD PUSH1 0x6 SLOAD PUSH1 0x7 SLOAD PUSH1 0x8 SLOAD PUSH1 0x40 DUP1 MLOAD SWAP6 DUP7 MSTORE PUSH1 0x20 DUP7 ADD SWAP5 SWAP1 SWAP5 MSTORE SWAP3 DUP5 ADD SWAP2 SWAP1 SWAP2 MSTORE PUSH1 0x60 DUP4 ADD MSTORE PUSH1 0x80 DUP3 ADD MSTORE PUSH1 0xA0 ADD PUSH2 0x273 JUMP JUMPDEST PUSH2 0x252 PUSH2 0x2E4 CALLDATASIZE PUSH1 0x4 PUSH2 0x30E4 JUMP JUMPDEST PUSH2 0x81D JUMP JUMPDEST PUSH2 0x2FC PUSH2 0x2F7 CALLDATASIZE PUSH1 0x4 PUSH2 0x30E4 JUMP JUMPDEST PUSH2 0x883 JUMP JUMPDEST PUSH1 0x40 MLOAD PUSH2 0x273 SWAP2 SWAP1 PUSH2 0x30FF JUMP JUMPDEST PUSH2 0x291 PUSH2 0x317 CALLDATASIZE PUSH1 0x4 PUSH2 0x3161 JUMP JUMPDEST PUSH2 0x954 JUMP JUMPDEST PUSH2 0x291 PUSH2 0x32A CALLDATASIZE PUSH1 0x4 PUSH2 0x31F1 JUMP JUMPDEST PUSH2 0xB1F JUMP JUMPDEST PUSH2 0x35B PUSH2 0x33D CALLDATASIZE PUSH1 0x4 PUSH2 0x30E4 JUMP JUMPDEST PUSH1 0x1 PUSH1 0x1 PUSH1 0xA0 SHL SUB SWAP1 DUP2 AND PUSH1 0x0 SWAP1 DUP2 MSTORE PUSH1 0x19 PUSH1 0x20 MSTORE PUSH1 0x40 SWAP1 KECCAK256 SLOAD AND SWAP1 JUMP JUMPDEST PUSH1 0x40 MLOAD PUSH2 0x273 SWAP2 SWAP1 PUSH2 0x320A JUMP JUMPDEST PUSH2 0x252 PUSH2 0x376 CALLDATASIZE PUSH1 0x4 PUSH2 0x321E JUMP JUMPDEST PUSH2 0xB35 JUMP JUMPDEST PUSH2 0x2FC PUSH2 0x389 CALLDATASIZE PUSH1 0x4 PUSH2 0x30E4 JUMP JUMPDEST PUSH2 0xB57 JUMP JUMPDEST PUSH2 0x252 PUSH2 0x39C CALLDATASIZE PUSH1 0x4 PUSH2 0x321E JUMP JUMPDEST PUSH2 0xC1D JUMP JUMPDEST PUSH2 0x252 PUSH2 0xC50 JUMP JUMPDEST PUSH2 0x291 PUSH2 0x3B7 CALLDATASIZE PUSH1 0x4 PUSH2 0x324A JUMP JUMPDEST PUSH2 0xC66 JUMP JUMPDEST PUSH2 0x291 PUSH2 0x3CA CALLDATASIZE PUSH1 0x4 PUSH2 0x32B5 JUMP JUMPDEST PUSH2 0xDCC JUMP JUMPDEST PUSH2 0x3E2 PUSH2 0x3DD CALLDATASIZE PUSH1 0x4 PUSH2 0x31F1 JUMP JUMPDEST PUSH2 0xFC0 JUMP JUMPDEST PUSH1 0x40 MLOAD PUSH2 0x273 SWAP2 SWAP1 PUSH2 0x3360 JUMP JUMPDEST PUSH2 0x252 PUSH2 0x3FD CALLDATASIZE PUSH1 0x4 PUSH2 0x31F1 JUMP JUMPDEST PUSH2 0x1151 JUMP JUMPDEST PUSH1 0x3 SLOAD PUSH1 0xFF AND PUSH2 0x267 JUMP JUMPDEST PUSH2 0x420 PUSH2 0x41B CALLDATASIZE PUSH1 0x4 PUSH2 0x31F1 JUMP JUMPDEST PUSH2 0x11DD JUMP JUMPDEST PUSH1 0x40 MLOAD PUSH2 0x273 SWAP2 SWAP1 PUSH2 0x33BC JUMP JUMPDEST PUSH2 0x440 PUSH2 0x43B CALLDATASIZE PUSH1 0x4 PUSH2 0x31F1 JUMP JUMPDEST PUSH2 0x13DE JUMP JUMPDEST PUSH1 0x40 MLOAD PUSH2 0x273 SWAP2 SWAP1 PUSH2 0x344A JUMP JUMPDEST PUSH2 0x291 PUSH1 0x0 DUP1 MLOAD PUSH1 0x20 PUSH2 0x3C88 DUP4 CODECOPY DUP2 MLOAD SWAP2 MSTORE DUP2 JUMP JUMPDEST PUSH2 0x252 PUSH2 0x1555 JUMP JUMPDEST PUSH2 0x252 PUSH2 0x478 CALLDATASIZE PUSH1 0x4 PUSH2 0x30E4 JUMP JUMPDEST PUSH2 0x1569 JUMP JUMPDEST PUSH2 0x291 PUSH2 0x48B CALLDATASIZE PUSH1 0x4 PUSH2 0x34B5 JUMP JUMPDEST PUSH2 0x15C3 JUMP JUMPDEST PUSH2 0x291 PUSH1 0x0 DUP1 MLOAD PUSH1 0x20 PUSH2 0x3CA8 DUP4 CODECOPY DUP2 MLOAD SWAP2 MSTORE DUP2 JUMP JUMPDEST PUSH2 0x252 PUSH2 0x1716 JUMP JUMPDEST PUSH2 0x252 PUSH2 0x4BB CALLDATASIZE PUSH1 0x4 PUSH2 0x3526 JUMP JUMPDEST PUSH2 0x1729 JUMP JUMPDEST PUSH2 0x35B PUSH2 0x17E0 JUMP JUMPDEST PUSH2 0x252 PUSH2 0x4D6 CALLDATASIZE PUSH1 0x4 PUSH2 0x30E4 JUMP JUMPDEST PUSH2 0x17EF JUMP JUMPDEST PUSH2 0x267 PUSH2 0x4E9 CALLDATASIZE PUSH1 0x4 PUSH2 0x321E JUMP JUMPDEST PUSH2 0x186C JUMP JUMPDEST PUSH2 0x291 PUSH1 0x0 DUP2 JUMP JUMPDEST PUSH2 0x291 PUSH2 0x504 CALLDATASIZE PUSH1 0x4 PUSH2 0x35AD JUMP JUMPDEST PUSH2 0x1897 JUMP JUMPDEST PUSH2 0x252 PUSH2 0x517 CALLDATASIZE PUSH1 0x4 PUSH2 0x3670 JUMP JUMPDEST PUSH2 0x1BE8 JUMP JUMPDEST PUSH2 0x52F PUSH2 0x52A CALLDATASIZE PUSH1 0x4 PUSH2 0x31F1 JUMP JUMPDEST PUSH2 0x1CA8 JUMP JUMPDEST PUSH1 0x40 MLOAD PUSH2 0x273 SWAP2 SWAP1 PUSH2 0x36F8 JUMP JUMPDEST PUSH2 0x2FC PUSH2 0x54A CALLDATASIZE PUSH1 0x4 PUSH2 0x30E4 JUMP JUMPDEST PUSH2 0x1FBB JUMP JUMPDEST PUSH2 0x252 PUSH2 0x55D CALLDATASIZE PUSH1 0x4 PUSH2 0x30E4 JUMP JUMPDEST PUSH2 0x206D JUMP JUMPDEST PUSH2 0x291 PUSH1 0x0 DUP1 MLOAD PUSH1 0x20 PUSH2 0x3C68 DUP4 CODECOPY DUP2 MLOAD SWAP2 MSTORE DUP2 JUMP JUMPDEST PUSH2 0x2FC PUSH2 0x585 CALLDATASIZE PUSH1 0x4 PUSH2 0x30E4 JUMP JUMPDEST PUSH2 0x20C7 JUMP JUMPDEST PUSH2 0x252 PUSH2 0x598 CALLDATASIZE PUSH1 0x4 PUSH2 0x37D2 JUMP JUMPDEST PUSH2 0x2177 JUMP JUMPDEST PUSH2 0x252 PUSH2 0x5AB CALLDATASIZE PUSH1 0x4 PUSH2 0x30E4 JUMP JUMPDEST PUSH2 0x226B JUMP JUMPDEST PUSH2 0x252 PUSH2 0x5BE CALLDATASIZE PUSH1 0x4 PUSH2 0x321E JUMP JUMPDEST PUSH2 0x22C5 JUMP JUMPDEST PUSH2 0x2FC PUSH2 0x5D1 CALLDATASIZE PUSH1 0x4 PUSH2 0x30E4 JUMP JUMPDEST PUSH2 0x22E1 JUMP JUMPDEST PUSH2 0x252 PUSH2 0x5E4 CALLDATASIZE PUSH1 0x4 PUSH2 0x30E4 JUMP JUMPDEST PUSH2 0x23A7 JUMP JUMPDEST PUSH2 0x5FC PUSH2 0x5F7 CALLDATASIZE PUSH1 0x4 PUSH2 0x31F1 JUMP JUMPDEST PUSH2 0x2401 JUMP JUMPDEST PUSH1 0x40 MLOAD PUSH2 0x273 SWAP2 SWAP1 PUSH2 0x387E JUMP JUMPDEST PUSH2 0x61C PUSH2 0x617 CALLDATASIZE PUSH1 0x4 PUSH2 0x30E4 JUMP JUMPDEST PUSH2 0x261E JUMP JUMPDEST PUSH1 0x40 MLOAD PUSH2 0x273 SWAP2 SWAP1 PUSH2 0x3902 JUMP JUMPDEST PUSH2 0x267 PUSH2 0x637 CALLDATASIZE PUSH1 0x4 PUSH2 0x30E4 JUMP JUMPDEST PUSH1 0x1 PUSH1 0x1 PUSH1 0xA0 SHL SUB AND PUSH1 0x0 SWAP1 DUP2 MSTORE PUSH1 0x9 PUSH1 0x20 MSTORE PUSH1 0x40 SWAP1 KECCAK256 PUSH1 0x4 ADD SLOAD PUSH1 0xFF AND SWAP1 JUMP JUMPDEST PUSH2 0x252 PUSH2 0x666 CALLDATASIZE PUSH1 0x4 PUSH2 0x30E4 JUMP JUMPDEST PUSH2 0x27E4 JUMP JUMPDEST PUSH2 0x252 PUSH2 0x679 CALLDATASIZE PUSH1 0x4 PUSH2 0x3954 JUMP JUMPDEST PUSH2 0x281F JUMP JUMPDEST PUSH2 0x291 PUSH1 0x0 DUP1 MLOAD PUSH1 0x20 PUSH2 0x3CC8 DUP4 CODECOPY DUP2 MLOAD SWAP2 MSTORE DUP2 JUMP JUMPDEST PUSH2 0x69B PUSH2 0x286F JUMP JUMPDEST CALLER PUSH1 0x0 SWAP1 DUP2 MSTORE PUSH1 0x9 PUSH1 0x20 MSTORE PUSH1 0x40 SWAP1 KECCAK256 PUSH1 0x4 ADD SLOAD PUSH1 0xFF AND ISZERO DUP1 ISZERO PUSH2 0x776 JUMPI PUSH1 0x40 DUP1 MLOAD PUSH1 0xA0 DUP2 ADD DUP3 MSTORE DUP5 DUP2 MSTORE PUSH1 0x20 DUP1 DUP3 ADD DUP6 SWAP1 MSTORE TIMESTAMP DUP3 DUP5 ADD DUP2 SWAP1 MSTORE PUSH1 0x60 DUP4 ADD MSTORE PUSH1 0x1 PUSH1 0x80 DUP4 ADD MSTORE CALLER PUSH1 0x0 SWAP1 DUP2 MSTORE PUSH1 0x9 SWAP1 SWAP2 MSTORE SWAP2 SWAP1 SWAP2 KECCAK256 DUP2 MLOAD DUP2 SWAP1 PUSH2 0x6FD SWAP1 DUP3 PUSH2 0x3A06 JUMP JUMPDEST POP PUSH1 0x20 DUP3 ADD MLOAD PUSH1 0x1 DUP3 ADD SSTORE PUSH1 0x40 DUP1 DUP4 ADD MLOAD PUSH1 0x2 DUP4 ADD SSTORE PUSH1 0x60 DUP4 ADD MLOAD PUSH1 0x3 DUP4 ADD SSTORE PUSH1 0x80 SWAP1 SWAP3 ADD MLOAD PUSH1 0x4 SWAP1 SWAP2 ADD DUP1 SLOAD PUSH1 0xFF NOT AND SWAP2 ISZERO ISZERO SWAP2 SWAP1 SWAP2 OR SWAP1 SSTORE MLOAD CALLER SWAP1 PUSH32 0x5DF23EA22902B85ACDB8170E942605AB253B9F31ACCC498D0A7C3A43D300C675 SWAP1 PUSH2 0x769 SWAP1 DUP7 SWAP1 TIMESTAMP SWAP1 PUSH2 0x3AC4 JUMP JUMPDEST PUSH1 0x40 MLOAD DUP1 SWAP2 SUB SWAP1 LOG2 POP POP POP JUMP JUMPDEST CALLER PUSH1 0x0 SWAP1 DUP2 MSTORE PUSH1 0x9 PUSH1 0x20 MSTORE PUSH1 0x40 SWAP1 KECCAK256 PUSH2 0x78F DUP5 DUP3 PUSH2 0x3A06 JUMP JUMPDEST POP CALLER PUSH1 0x0 DUP2 DUP2 MSTORE PUSH1 0x9 PUSH1 0x20 MSTORE PUSH1 0x40 SWAP1 DUP2 SWAP1 KECCAK256 PUSH1 0x1 DUP2 ADD DUP6 SWAP1 SSTORE TIMESTAMP PUSH1 0x3 SWAP1 SWAP2 ADD DUP2 SWAP1 SSTORE SWAP1 MLOAD PUSH32 0x4BB993E40976C9F9359A7E8001431C7B30C1645654767BFD93570C6795AB5ABD SWAP2 PUSH2 0x769 SWAP2 DUP8 SWAP2 SWAP1 PUSH2 0x3AC4 JUMP JUMPDEST POP POP POP JUMP JUMPDEST PUSH1 0x0 PUSH1 0x1 PUSH1 0x1 PUSH1 0xE0 SHL SUB NOT DUP3 AND PUSH4 0x7965DB0B PUSH1 0xE0 SHL EQ DUP1 PUSH2 0x817 JUMPI POP PUSH4 0x1FFC9A7 PUSH1 0xE0 SHL PUSH1 0x1 PUSH1 0x1 PUSH1 0xE0 SHL SUB NOT DUP4 AND EQ JUMPDEST SWAP3 SWAP2 POP POP JUMP JUMPDEST PUSH1 0x0 PUSH2 0x828 DUP2 PUSH2 0x2893 JUMP JUMPDEST PUSH2 0x840 PUSH1 0x0 DUP1 MLOAD PUSH1 0x20 PUSH2 0x3C28 DUP4 CODECOPY DUP2 MLOAD SWAP2 MSTORE DUP4 PUSH2 0xB35 JUMP JUMPDEST DUP2 PUSH1 0x1 PUSH1 0x1 PUSH1 0xA0 SHL SUB AND PUSH1 0x0 DUP1 MLOAD PUSH1 0x20 PUSH2 0x3C48 DUP4 CODECOPY DUP2 MLOAD SWAP2 MSTORE PUSH1 0x0 DUP1 MLOAD PUSH1 0x20 PUSH2 0x3C28 DUP4 CODECOPY DUP2 MLOAD SWAP2 MSTORE PUSH1 0x40 MLOAD PUSH2 0x877 SWAP2 DUP2 MSTORE PUSH1 0x20 ADD SWAP1 JUMP JUMPDEST PUSH1 0x40 MLOAD DUP1 SWAP2 SUB SWAP1 LOG2 POP POP JUMP JUMPDEST PUSH1 0x60 DUP2 PUSH1 0x3 CALLER PUSH1 0x1 PUSH1 0x1 PUSH1 0xA0 SHL SUB DUP4 AND EQ DUP1 PUSH2 0x8A5 JUMPI POP PUSH2 0x8A5 DUP3 CALLER DUP4 PUSH2 0x289D JUMP JUMPDEST DUP1 PUSH2 0x8C3 JUMPI POP PUSH2 0x8C3 PUSH1 0x0 DUP1 MLOAD PUSH1 0x20 PUSH2 0x3C88 DUP4 CODECOPY DUP2 MLOAD SWAP2 MSTORE CALLER PUSH2 0x186C JUMP JUMPDEST PUSH2 0x8E8 JUMPI PUSH1 0x40 MLOAD PUSH3 0x461BCD PUSH1 0xE5 SHL DUP2 MSTORE PUSH1 0x4 ADD PUSH2 0x8DF SWAP1 PUSH2 0x3AE6 JUMP JUMPDEST PUSH1 0x40 MLOAD DUP1 SWAP2 SUB SWAP1 REVERT JUMPDEST PUSH1 0x1 PUSH1 0x1 PUSH1 0xA0 SHL SUB DUP5 AND PUSH1 0x0 SWAP1 DUP2 MSTORE PUSH1 0xE PUSH1 0x20 SWAP1 DUP2 MSTORE PUSH1 0x40 SWAP2 DUP3 SWAP1 KECCAK256 DUP1 SLOAD DUP4 MLOAD DUP2 DUP5 MUL DUP2 ADD DUP5 ADD SWAP1 SWAP5 MSTORE DUP1 DUP5 MSTORE SWAP1 SWAP2 DUP4 ADD DUP3 DUP3 DUP1 ISZERO PUSH2 0x946 JUMPI PUSH1 0x20 MUL DUP3 ADD SWAP2 SWAP1 PUSH1 0x0 MSTORE PUSH1 0x20 PUSH1 0x0 KECCAK256 SWAP1 JUMPDEST DUP2 SLOAD DUP2 MSTORE PUSH1 0x20 ADD SWAP1 PUSH1 0x1 ADD SWAP1 DUP1 DUP4 GT PUSH2 0x932 JUMPI JUMPDEST POP POP POP POP POP SWAP3 POP POP POP SWAP2 SWAP1 POP JUMP JUMPDEST PUSH1 0x0 PUSH2 0x95E PUSH2 0x286F JUMP JUMPDEST CALLER PUSH1 0x0 SWAP1 DUP2 MSTORE PUSH1 0x9 PUSH1 0x20 MSTORE PUSH1 0x40 SWAP1 KECCAK256 PUSH1 0x4 ADD SLOAD PUSH1 0xFF AND PUSH2 0x990 JUMPI PUSH1 0x40 MLOAD PUSH3 0x461BCD PUSH1 0xE5 SHL DUP2 MSTORE PUSH1 0x4 ADD PUSH2 0x8DF SWAP1 PUSH2 0x3B09 JUMP JUMPDEST PUSH1 0x6 DUP1 SLOAD SWAP1 PUSH1 0x0 PUSH2 0x9A0 DUP4 PUSH2 0x3B2A JUMP JUMPDEST SWAP2 SWAP1 POP SSTORE POP PUSH1 0x0 PUSH1 0x6 SLOAD SWAP1 POP PUSH1 0x40 MLOAD DUP1 PUSH1 0xE0 ADD PUSH1 0x40 MSTORE DUP1 DUP3 DUP2 MSTORE PUSH1 0x20 ADD DUP9 DUP2 MSTORE PUSH1 0x20 ADD DUP8 DUP2 MSTORE PUSH1 0x20 ADD DUP7 PUSH1 0x7 DUP2 GT ISZERO PUSH2 0x9DB JUMPI PUSH2 0x9DB PUSH2 0x3420 JUMP JUMPDEST DUP2 MSTORE PUSH1 0x20 ADD DUP6 ISZERO ISZERO DUP2 MSTORE PUSH1 0x20 ADD DUP5 DUP2 MSTORE PUSH1 0x20 ADD TIMESTAMP DUP2 MSTORE POP PUSH1 0xF PUSH1 0x0 DUP4 DUP2 MSTORE PUSH1 0x20 ADD SWAP1 DUP2 MSTORE PUSH1 0x20 ADD PUSH1 0x0 KECCAK256 PUSH1 0x0 DUP3 ADD MLOAD DUP2 PUSH1 0x0 ADD SSTORE PUSH1 0x20 DUP3 ADD MLOAD DUP2 PUSH1 0x1 ADD SWAP1 DUP2 PUSH2 0xA24 SWAP2 SWAP1 PUSH2 0x3A06 JUMP JUMPDEST POP PUSH1 0x40 DUP3 ADD MLOAD PUSH1 0x2 DUP3 ADD SWAP1 PUSH2 0xA39 SWAP1 DUP3 PUSH2 0x3A06 JUMP JUMPDEST POP PUSH1 0x60 DUP3 ADD MLOAD PUSH1 0x3 DUP3 ADD DUP1 SLOAD PUSH1 0xFF NOT AND PUSH1 0x1 DUP4 PUSH1 0x7 DUP2 GT ISZERO PUSH2 0xA5D JUMPI PUSH2 0xA5D PUSH2 0x3420 JUMP JUMPDEST MUL OR SWAP1 SSTORE POP PUSH1 0x80 DUP3 ADD MLOAD PUSH1 0x3 DUP3 ADD DUP1 SLOAD SWAP2 ISZERO ISZERO PUSH2 0x100 MUL PUSH2 0xFF00 NOT SWAP1 SWAP3 AND SWAP2 SWAP1 SWAP2 OR SWAP1 SSTORE PUSH1 0xA0 DUP3 ADD MLOAD PUSH1 0x4 DUP3 ADD SSTORE PUSH1 0xC0 SWAP1 SWAP2 ADD MLOAD PUSH1 0x5 SWAP1 SWAP2 ADD SSTORE PUSH1 0x0 DUP2 DUP2 MSTORE PUSH1 0x16 PUSH1 0x20 SWAP1 DUP2 MSTORE PUSH1 0x40 DUP1 DUP4 KECCAK256 DUP1 SLOAD PUSH1 0x1 PUSH1 0x1 PUSH1 0xA0 SHL SUB NOT AND CALLER SWAP1 DUP2 OR SWAP1 SWAP2 SSTORE DUP1 DUP5 MSTORE PUSH1 0xE DUP4 MSTORE DUP2 DUP5 KECCAK256 DUP1 SLOAD PUSH1 0x1 DUP2 ADD DUP3 SSTORE SWAP1 DUP6 MSTORE SWAP3 SWAP1 SWAP4 KECCAK256 SWAP1 SWAP2 ADD DUP4 SWAP1 SSTORE MLOAD DUP3 SWAP2 SWAP1 PUSH32 0x7E2AC09F9BDE6130FF92917C5D2CC031AFBBA4154566E196417AA56EB0416793 SWAP1 PUSH2 0xB0D SWAP1 DUP10 SWAP1 DUP13 SWAP1 PUSH2 0x3B51 JUMP JUMPDEST PUSH1 0x40 MLOAD DUP1 SWAP2 SUB SWAP1 LOG3 SWAP7 SWAP6 POP POP POP POP POP POP JUMP JUMPDEST PUSH1 0x0 SWAP1 DUP2 MSTORE PUSH1 0x1 PUSH1 0x20 DUP2 SWAP1 MSTORE PUSH1 0x40 SWAP1 SWAP2 KECCAK256 ADD SLOAD SWAP1 JUMP JUMPDEST PUSH2 0xB3E DUP3 PUSH2 0xB1F JUMP JUMPDEST PUSH2 0xB47 DUP2 PUSH2 0x2893 JUMP JUMPDEST PUSH2 0xB51 DUP4 DUP4 PUSH2 0x2C5C JUMP JUMPDEST POP POP POP POP JUMP JUMPDEST PUSH1 0x60 DUP2 PUSH1 0x2 CALLER PUSH1 0x1 PUSH1 0x1 PUSH1 0xA0 SHL SUB DUP4 AND EQ DUP1 PUSH2 0xB79 JUMPI POP PUSH2 0xB79 DUP3 CALLER DUP4 PUSH2 0x289D JUMP JUMPDEST DUP1 PUSH2 0xB97 JUMPI POP PUSH2 0xB97 PUSH1 0x0 DUP1 MLOAD PUSH1 0x20 PUSH2 0x3C88 DUP4 CODECOPY DUP2 MLOAD SWAP2 MSTORE CALLER PUSH2 0x186C JUMP JUMPDEST PUSH2 0xBB3 JUMPI PUSH1 0x40 MLOAD PUSH3 0x461BCD PUSH1 0xE5 SHL DUP2 MSTORE PUSH1 0x4 ADD PUSH2 0x8DF SWAP1 PUSH2 0x3AE6 JUMP JUMPDEST PUSH1 0x1 PUSH1 0x1 PUSH1 0xA0 SHL SUB DUP5 AND PUSH1 0x0 SWAP1 DUP2 MSTORE PUSH1 0xC PUSH1 0x20 SWAP1 DUP2 MSTORE PUSH1 0x40 SWAP2 DUP3 SWAP1 KECCAK256 DUP1 SLOAD DUP4 MLOAD DUP2 DUP5 MUL DUP2 ADD DUP5 ADD SWAP1 SWAP5 MSTORE DUP1 DUP5 MSTORE SWAP1 SWAP2 DUP4 ADD DUP3 DUP3 DUP1 ISZERO PUSH2 0x946 JUMPI PUSH1 0x20 MUL DUP3 ADD SWAP2 SWAP1 PUSH1 0x0 MSTORE PUSH1 0x20 PUSH1 0x0 KECCAK256 SWAP1 DUP2 SLOAD DUP2 MSTORE PUSH1 0x20 ADD SWAP1 PUSH1 0x1 ADD SWAP1 DUP1 DUP4 GT PUSH2 0x932 JUMPI POP POP POP POP POP SWAP3 POP POP POP SWAP2 SWAP1 POP JUMP JUMPDEST PUSH1 0x1 PUSH1 0x1 PUSH1 0xA0 SHL SUB DUP2 AND CALLER EQ PUSH2 0xC46 JUMPI PUSH1 0x40 MLOAD PUSH4 0x334BD919 PUSH1 0xE1 SHL DUP2 MSTORE PUSH1 0x4 ADD PUSH1 0x40 MLOAD DUP1 SWAP2 SUB SWAP1 REVERT JUMPDEST PUSH2 0x7E1 DUP3 DUP3 PUSH2 0x2CD5 JUMP JUMPDEST PUSH1 0x0 PUSH2 0xC5B DUP2 PUSH2 0x2893 JUMP JUMPDEST PUSH2 0xC63 PUSH2 0x2D42 JUMP JUMPDEST POP JUMP JUMPDEST PUSH1 0x0 PUSH2 0xC70 PUSH2 0x286F JUMP JUMPDEST CALLER PUSH1 0x0 SWAP1 DUP2 MSTORE PUSH1 0x9 PUSH1 0x20 MSTORE PUSH1 0x40 SWAP1 KECCAK256 PUSH1 0x4 ADD SLOAD PUSH1 0xFF AND PUSH2 0xCA2 JUMPI PUSH1 0x40 MLOAD PUSH3 0x461BCD PUSH1 0xE5 SHL DUP2 MSTORE PUSH1 0x4 ADD PUSH2 0x8DF SWAP1 PUSH2 0x3B09 JUMP JUMPDEST PUSH1 0x4 DUP1 SLOAD SWAP1 PUSH1 0x0 PUSH2 0xCB2 DUP4 PUSH2 0x3B2A JUMP JUMPDEST SWAP1 SWAP2 SSTORE POP POP PUSH1 0x4 SLOAD PUSH1 0x40 DUP1 MLOAD PUSH1 0xC0 DUP2 ADD DUP3 MSTORE DUP3 DUP2 MSTORE PUSH1 0x20 DUP1 DUP3 ADD DUP10 DUP2 MSTORE DUP9 ISZERO ISZERO DUP4 DUP6 ADD MSTORE PUSH1 0x60 DUP4 ADD DUP9 SWAP1 MSTORE PUSH1 0x80 DUP4 ADD DUP8 SWAP1 MSTORE TIMESTAMP PUSH1 0xA0 DUP5 ADD MSTORE PUSH1 0x0 DUP6 DUP2 MSTORE PUSH1 0xB SWAP1 SWAP3 MSTORE SWAP3 SWAP1 KECCAK256 DUP2 MLOAD DUP2 SSTORE SWAP2 MLOAD SWAP1 SWAP2 SWAP1 PUSH1 0x1 DUP3 ADD SWAP1 PUSH2 0xD0F SWAP1 DUP3 PUSH2 0x3A06 JUMP JUMPDEST POP PUSH1 0x40 DUP3 DUP2 ADD MLOAD PUSH1 0x2 DUP4 ADD DUP1 SLOAD PUSH1 0xFF NOT AND SWAP2 ISZERO ISZERO SWAP2 SWAP1 SWAP2 OR SWAP1 SSTORE PUSH1 0x60 DUP4 ADD MLOAD PUSH1 0x3 DUP4 ADD SSTORE PUSH1 0x80 DUP4 ADD MLOAD PUSH1 0x4 DUP4 ADD SSTORE PUSH1 0xA0 SWAP1 SWAP3 ADD MLOAD PUSH1 0x5 SWAP1 SWAP2 ADD SSTORE PUSH1 0x0 DUP3 DUP2 MSTORE PUSH1 0x14 PUSH1 0x20 SWAP1 DUP2 MSTORE DUP3 DUP3 KECCAK256 DUP1 SLOAD CALLER PUSH1 0x1 PUSH1 0x1 PUSH1 0xA0 SHL SUB NOT SWAP1 SWAP2 AND DUP2 OR SWAP1 SWAP2 SSTORE DUP1 DUP4 MSTORE PUSH1 0xA DUP3 MSTORE DUP4 DUP4 KECCAK256 DUP1 SLOAD PUSH1 0x1 DUP2 ADD DUP3 SSTORE SWAP1 DUP5 MSTORE SWAP2 SWAP1 SWAP3 KECCAK256 ADD DUP4 SWAP1 SSTORE SWAP1 MLOAD DUP3 SWAP2 SWAP1 PUSH32 0xB9E5855C05B4297BAF0B4F6174BD05A6BD6D2E22A10A228D364B4350DCEE1918 SWAP1 PUSH2 0xDBB SWAP1 DUP11 SWAP1 PUSH2 0x3B79 JUMP JUMPDEST PUSH1 0x40 MLOAD DUP1 SWAP2 SUB SWAP1 LOG3 SWAP6 SWAP5 POP POP POP POP POP JUMP JUMPDEST PUSH1 0x0 PUSH2 0xDD6 PUSH2 0x286F JUMP JUMPDEST CALLER PUSH1 0x1 PUSH1 0x1 PUSH1 0xA0 SHL SUB DUP7 AND EQ DUP1 PUSH2 0xDF3 JUMPI POP PUSH2 0xDF3 DUP6 CALLER DUP6 PUSH2 0x289D JUMP JUMPDEST DUP1 PUSH2 0xE11 JUMPI POP PUSH2 0xE11 PUSH1 0x0 DUP1 MLOAD PUSH1 0x20 PUSH2 0x3C88 DUP4 CODECOPY DUP2 MLOAD SWAP2 MSTORE CALLER PUSH2 0x186C JUMP JUMPDEST PUSH2 0xE4D JUMPI PUSH1 0x40 MLOAD PUSH3 0x461BCD PUSH1 0xE5 SHL DUP2 MSTORE PUSH1 0x20 PUSH1 0x4 DUP3 ADD MSTORE PUSH1 0xD PUSH1 0x24 DUP3 ADD MSTORE PUSH13 0x2737903832B936B4B9B9B4B7B7 PUSH1 0x99 SHL PUSH1 0x44 DUP3 ADD MSTORE PUSH1 0x64 ADD PUSH2 0x8DF JUMP JUMPDEST PUSH1 0x8 DUP1 SLOAD SWAP1 PUSH1 0x0 PUSH2 0xE5D DUP4 PUSH2 0x3B2A JUMP JUMPDEST SWAP1 SWAP2 SSTORE POP POP PUSH1 0x8 SLOAD PUSH1 0x40 DUP1 MLOAD PUSH1 0xC0 DUP2 ADD DUP3 MSTORE DUP3 DUP2 MSTORE CALLER PUSH1 0x20 DUP3 ADD MSTORE SWAP1 DUP2 ADD DUP7 SWAP1 MSTORE PUSH1 0x60 DUP2 ADD DUP6 PUSH1 0x4 DUP2 GT ISZERO PUSH2 0xE94 JUMPI PUSH2 0xE94 PUSH2 0x3420 JUMP JUMPDEST DUP2 MSTORE TIMESTAMP PUSH1 0x20 DUP1 DUP4 ADD SWAP2 SWAP1 SWAP2 MSTORE PUSH1 0x40 SWAP2 DUP3 ADD DUP7 SWAP1 MSTORE PUSH1 0x0 DUP5 DUP2 MSTORE PUSH1 0x13 DUP3 MSTORE DUP3 SWAP1 KECCAK256 DUP4 MLOAD DUP2 SSTORE SWAP1 DUP4 ADD MLOAD PUSH1 0x1 DUP3 ADD DUP1 SLOAD PUSH1 0x1 PUSH1 0x1 PUSH1 0xA0 SHL SUB NOT AND PUSH1 0x1 PUSH1 0x1 PUSH1 0xA0 SHL SUB SWAP1 SWAP3 AND SWAP2 SWAP1 SWAP2 OR SWAP1 SSTORE SWAP1 DUP3 ADD MLOAD PUSH1 0x2 DUP3 ADD SWAP1 PUSH2 0xEF0 SWAP1 DUP3 PUSH2 0x3A06 JUMP JUMPDEST POP PUSH1 0x60 DUP3 ADD MLOAD PUSH1 0x3 DUP3 ADD DUP1 SLOAD PUSH1 0xFF NOT AND PUSH1 0x1 DUP4 PUSH1 0x4 DUP2 GT ISZERO PUSH2 0xF14 JUMPI PUSH2 0xF14 PUSH2 0x3420 JUMP JUMPDEST MUL OR SWAP1 SSTORE POP PUSH1 0x80 DUP3 ADD MLOAD PUSH1 0x4 DUP3 ADD SSTORE PUSH1 0xA0 SWAP1 SWAP2 ADD MLOAD PUSH1 0x5 SWAP1 SWAP2 ADD SSTORE PUSH1 0x0 DUP2 DUP2 MSTORE PUSH1 0x18 PUSH1 0x20 SWAP1 DUP2 MSTORE PUSH1 0x40 DUP1 DUP4 KECCAK256 DUP1 SLOAD PUSH1 0x1 PUSH1 0x1 PUSH1 0xA0 SHL SUB NOT AND PUSH1 0x1 PUSH1 0x1 PUSH1 0xA0 SHL SUB DUP12 AND SWAP1 DUP2 OR SWAP1 SWAP2 SSTORE DUP1 DUP5 MSTORE PUSH1 0x12 DUP4 MSTORE DUP2 DUP5 KECCAK256 DUP1 SLOAD PUSH1 0x1 DUP2 ADD DUP3 SSTORE SWAP1 DUP6 MSTORE SWAP3 SWAP1 SWAP4 KECCAK256 SWAP1 SWAP2 ADD DUP4 SWAP1 SSTORE MLOAD DUP3 SWAP2 CALLER SWAP2 PUSH32 0xCC936E965CB312F996247A9F5C0929B57C3078F4D25F38C1E1FA8171238E54A7 SWAP1 PUSH2 0xFAF SWAP1 DUP10 SWAP1 TIMESTAMP SWAP1 PUSH2 0x3B8C JUMP JUMPDEST PUSH1 0x40 MLOAD DUP1 SWAP2 SUB SWAP1 LOG4 SWAP6 SWAP5 POP POP POP POP POP JUMP JUMPDEST PUSH2 0xFFB PUSH1 0x40 MLOAD DUP1 PUSH1 0xC0 ADD PUSH1 0x40 MSTORE DUP1 PUSH1 0x0 DUP2 MSTORE PUSH1 0x20 ADD PUSH1 0x60 DUP2 MSTORE PUSH1 0x20 ADD PUSH1 0x0 ISZERO ISZERO DUP2 MSTORE PUSH1 0x20 ADD PUSH1 0x0 DUP2 MSTORE PUSH1 0x20 ADD PUSH1 0x0 DUP2 MSTORE PUSH1 0x20 ADD PUSH1 0x0 DUP2 MSTORE POP SWAP1 JUMP JUMPDEST PUSH1 0x0 DUP3 DUP2 MSTORE PUSH1 0x14 PUSH1 0x20 MSTORE PUSH1 0x40 SWAP1 KECCAK256 SLOAD PUSH1 0x1 PUSH1 0x1 PUSH1 0xA0 SHL SUB AND CALLER DUP2 EQ DUP1 PUSH2 0x1028 JUMPI POP PUSH2 0x1028 DUP2 CALLER PUSH1 0x1 PUSH2 0x289D JUMP JUMPDEST DUP1 PUSH2 0x1046 JUMPI POP PUSH2 0x1046 PUSH1 0x0 DUP1 MLOAD PUSH1 0x20 PUSH2 0x3C88 DUP4 CODECOPY DUP2 MLOAD SWAP2 MSTORE CALLER PUSH2 0x186C JUMP JUMPDEST PUSH2 0x1062 JUMPI PUSH1 0x40 MLOAD PUSH3 0x461BCD PUSH1 0xE5 SHL DUP2 MSTORE PUSH1 0x4 ADD PUSH2 0x8DF SWAP1 PUSH2 0x3AE6 JUMP JUMPDEST PUSH1 0xB PUSH1 0x0 DUP5 DUP2 MSTORE PUSH1 0x20 ADD SWAP1 DUP2 MSTORE PUSH1 0x20 ADD PUSH1 0x0 KECCAK256 PUSH1 0x40 MLOAD DUP1 PUSH1 0xC0 ADD PUSH1 0x40 MSTORE SWAP1 DUP2 PUSH1 0x0 DUP3 ADD SLOAD DUP2 MSTORE PUSH1 0x20 ADD PUSH1 0x1 DUP3 ADD DUP1 SLOAD PUSH2 0x109A SWAP1 PUSH2 0x397E JUMP JUMPDEST DUP1 PUSH1 0x1F ADD PUSH1 0x20 DUP1 SWAP2 DIV MUL PUSH1 0x20 ADD PUSH1 0x40 MLOAD SWAP1 DUP2 ADD PUSH1 0x40 MSTORE DUP1 SWAP3 SWAP2 SWAP1 DUP2 DUP2 MSTORE PUSH1 0x20 ADD DUP3 DUP1 SLOAD PUSH2 0x10C6 SWAP1 PUSH2 0x397E JUMP JUMPDEST DUP1 ISZERO PUSH2 0x1113 JUMPI DUP1 PUSH1 0x1F LT PUSH2 0x10E8 JUMPI PUSH2 0x100 DUP1 DUP4 SLOAD DIV MUL DUP4 MSTORE SWAP2 PUSH1 0x20 ADD SWAP2 PUSH2 0x1113 JUMP JUMPDEST DUP3 ADD SWAP2 SWAP1 PUSH1 0x0 MSTORE PUSH1 0x20 PUSH1 0x0 KECCAK256 SWAP1 JUMPDEST DUP2 SLOAD DUP2 MSTORE SWAP1 PUSH1 0x1 ADD SWAP1 PUSH1 0x20 ADD DUP1 DUP4 GT PUSH2 0x10F6 JUMPI DUP3 SWAP1 SUB PUSH1 0x1F AND DUP3 ADD SWAP2 JUMPDEST POP POP POP SWAP2 DUP4 MSTORE POP POP PUSH1 0x2 DUP3 ADD SLOAD PUSH1 0xFF AND ISZERO ISZERO PUSH1 0x20 DUP3 ADD MSTORE PUSH1 0x3 DUP3 ADD SLOAD PUSH1 0x40 DUP3 ADD MSTORE PUSH1 0x4 DUP3 ADD SLOAD PUSH1 0x60 DUP3 ADD MSTORE PUSH1 0x5 SWAP1 SWAP2 ADD SLOAD PUSH1 0x80 SWAP1 SWAP2 ADD MSTORE SWAP4 SWAP3 POP POP POP JUMP JUMPDEST PUSH2 0x1159 PUSH2 0x286F JUMP JUMPDEST PUSH1 0x0 DUP2 DUP2 MSTORE PUSH1 0x17 PUSH1 0x20 MSTORE PUSH1 0x40 SWAP1 KECCAK256 SLOAD DUP2 SWAP1 PUSH1 0x1 PUSH1 0x1 PUSH1 0xA0 SHL SUB AND CALLER EQ PUSH2 0x1191 JUMPI PUSH1 0x40 MLOAD PUSH3 0x461BCD PUSH1 0xE5 SHL DUP2 MSTORE PUSH1 0x4 ADD PUSH2 0x8DF SWAP1 PUSH2 0x3BA7 JUMP JUMPDEST PUSH1 0x0 DUP3 DUP2 MSTORE PUSH1 0x11 PUSH1 0x20 MSTORE PUSH1 0x40 DUP1 DUP3 KECCAK256 PUSH1 0x7 ADD DUP1 SLOAD PUSH2 0xFF00 NOT AND PUSH2 0x200 OR SWAP1 SSTORE MLOAD DUP4 SWAP2 CALLER SWAP2 PUSH32 0xECC5422BDBC6A29EB33382A149718B65F504D9EBFC6AA2D2B142BCC6AD837A6B SWAP2 SWAP1 LOG3 POP POP JUMP JUMPDEST PUSH2 0x120F PUSH1 0x40 MLOAD DUP1 PUSH1 0xA0 ADD PUSH1 0x40 MSTORE DUP1 PUSH1 0x0 DUP2 MSTORE PUSH1 0x20 ADD PUSH1 0x60 DUP2 MSTORE PUSH1 0x20 ADD PUSH1 0x60 DUP2 MSTORE PUSH1 0x20 ADD PUSH1 0x0 DUP2 MSTORE PUSH1 0x20 ADD PUSH1 0x0 DUP2 MSTORE POP SWAP1 JUMP JUMPDEST PUSH1 0x0 DUP3 DUP2 MSTORE PUSH1 0x15 PUSH1 0x20 MSTORE PUSH1 0x40 SWAP1 KECCAK256 SLOAD PUSH1 0x1 PUSH1 0x1 PUSH1 0xA0 SHL SUB AND CALLER DUP2 EQ DUP1 PUSH2 0x123C JUMPI POP PUSH2 0x123C DUP2 CALLER PUSH1 0x2 PUSH2 0x289D JUMP JUMPDEST DUP1 PUSH2 0x125A JUMPI POP PUSH2 0x125A PUSH1 0x0 DUP1 MLOAD PUSH1 0x20 PUSH2 0x3C88 DUP4 CODECOPY DUP2 MLOAD SWAP2 MSTORE CALLER PUSH2 0x186C JUMP JUMPDEST PUSH2 0x1276 JUMPI PUSH1 0x40 MLOAD PUSH3 0x461BCD PUSH1 0xE5 SHL DUP2 MSTORE PUSH1 0x4 ADD PUSH2 0x8DF SWAP1 PUSH2 0x3AE6 JUMP JUMPDEST PUSH1 0xD PUSH1 0x0 DUP5 DUP2 MSTORE PUSH1 0x20 ADD SWAP1 DUP2 MSTORE PUSH1 0x20 ADD PUSH1 0x0 KECCAK256 PUSH1 0x40 MLOAD DUP1 PUSH1 0xA0 ADD PUSH1 0x40 MSTORE SWAP1 DUP2 PUSH1 0x0 DUP3 ADD SLOAD DUP2 MSTORE PUSH1 0x20 ADD PUSH1 0x1 DUP3 ADD DUP1 SLOAD PUSH2 0x12AE SWAP1 PUSH2 0x397E JUMP JUMPDEST DUP1 PUSH1 0x1F ADD PUSH1 0x20 DUP1 SWAP2 DIV MUL PUSH1 0x20 ADD PUSH1 0x40 MLOAD SWAP1 DUP2 ADD PUSH1 0x40 MSTORE DUP1 SWAP3 SWAP2 SWAP1 DUP2 DUP2 MSTORE PUSH1 0x20 ADD DUP3 DUP1 SLOAD PUSH2 0x12DA SWAP1 PUSH2 0x397E JUMP JUMPDEST DUP1 ISZERO PUSH2 0x1327 JUMPI DUP1 PUSH1 0x1F LT PUSH2 0x12FC JUMPI PUSH2 0x100 DUP1 DUP4 SLOAD DIV MUL DUP4 MSTORE SWAP2 PUSH1 0x20 ADD SWAP2 PUSH2 0x1327 JUMP JUMPDEST DUP3 ADD SWAP2 SWAP1 PUSH1 0x0 MSTORE PUSH1 0x20 PUSH1 0x0 KECCAK256 SWAP1 JUMPDEST DUP2 SLOAD DUP2 MSTORE SWAP1 PUSH1 0x1 ADD SWAP1 PUSH1 0x20 ADD DUP1 DUP4 GT PUSH2 0x130A JUMPI DUP3 SWAP1 SUB PUSH1 0x1F AND DUP3 ADD SWAP2 JUMPDEST POP POP POP POP POP DUP2 MSTORE PUSH1 0x20 ADD PUSH1 0x2 DUP3 ADD DUP1 SLOAD PUSH2 0x1340 SWAP1 PUSH2 0x397E JUMP JUMPDEST DUP1 PUSH1 0x1F ADD PUSH1 0x20 DUP1 SWAP2 DIV MUL PUSH1 0x20 ADD PUSH1 0x40 MLOAD SWAP1 DUP2 ADD PUSH1 0x40 MSTORE DUP1 SWAP3 SWAP2 SWAP1 DUP2 DUP2 MSTORE PUSH1 0x20 ADD DUP3 DUP1 SLOAD PUSH2 0x136C SWAP1 PUSH2 0x397E JUMP JUMPDEST DUP1 ISZERO PUSH2 0x13B9 JUMPI DUP1 PUSH1 0x1F LT PUSH2 0x138E JUMPI PUSH2 0x100 DUP1 DUP4 SLOAD DIV MUL DUP4 MSTORE SWAP2 PUSH1 0x20 ADD SWAP2 PUSH2 0x13B9 JUMP JUMPDEST DUP3 ADD SWAP2 SWAP1 PUSH1 0x0 MSTORE PUSH1 0x20 PUSH1 0x0 KECCAK256 SWAP1 JUMPDEST DUP2 SLOAD DUP2 MSTORE SWAP1 PUSH1 0x1 ADD SWAP1 PUSH1 0x20 ADD DUP1 DUP4 GT PUSH2 0x139C JUMPI DUP3 SWAP1 SUB PUSH1 0x1F AND DUP3 ADD SWAP2 JUMPDEST POP POP POP POP POP DUP2 MSTORE PUSH1 0x20 ADD PUSH1 0x3 DUP3 ADD SLOAD DUP2 MSTORE PUSH1 0x20 ADD PUSH1 0x4 DUP3 ADD SLOAD DUP2 MSTORE POP POP SWAP2 POP POP SWAP2 SWAP1 POP JUMP JUMPDEST PUSH2 0x13E6 PUSH2 0x2EAD JUMP JUMPDEST PUSH1 0x0 DUP3 DUP2 MSTORE PUSH1 0x18 PUSH1 0x20 MSTORE PUSH1 0x40 SWAP1 KECCAK256 SLOAD PUSH1 0x1 PUSH1 0x1 PUSH1 0xA0 SHL SUB AND CALLER DUP2 EQ DUP1 PUSH2 0x141F JUMPI POP PUSH2 0x141F PUSH1 0x0 DUP1 MLOAD PUSH1 0x20 PUSH2 0x3C88 DUP4 CODECOPY DUP2 MLOAD SWAP2 MSTORE CALLER PUSH2 0x186C JUMP JUMPDEST PUSH2 0x143B JUMPI PUSH1 0x40 MLOAD PUSH3 0x461BCD PUSH1 0xE5 SHL DUP2 MSTORE PUSH1 0x4 ADD PUSH2 0x8DF SWAP1 PUSH2 0x3BCA JUMP JUMPDEST PUSH1 0x0 DUP4 DUP2 MSTORE PUSH1 0x13 PUSH1 0x20 SWAP1 DUP2 MSTORE PUSH1 0x40 SWAP2 DUP3 SWAP1 KECCAK256 DUP3 MLOAD PUSH1 0xC0 DUP2 ADD DUP5 MSTORE DUP2 SLOAD DUP2 MSTORE PUSH1 0x1 DUP3 ADD SLOAD PUSH1 0x1 PUSH1 0x1 PUSH1 0xA0 SHL SUB AND SWAP3 DUP2 ADD SWAP3 SWAP1 SWAP3 MSTORE PUSH1 0x2 DUP2 ADD DUP1 SLOAD SWAP3 SWAP4 SWAP2 SWAP3 SWAP2 DUP5 ADD SWAP2 PUSH2 0x1485 SWAP1 PUSH2 0x397E JUMP JUMPDEST DUP1 PUSH1 0x1F ADD PUSH1 0x20 DUP1 SWAP2 DIV MUL PUSH1 0x20 ADD PUSH1 0x40 MLOAD SWAP1 DUP2 ADD PUSH1 0x40 MSTORE DUP1 SWAP3 SWAP2 SWAP1 DUP2 DUP2 MSTORE PUSH1 0x20 ADD DUP3 DUP1 SLOAD PUSH2 0x14B1 SWAP1 PUSH2 0x397E JUMP JUMPDEST DUP1 ISZERO PUSH2 0x14FE JUMPI DUP1 PUSH1 0x1F LT PUSH2 0x14D3 JUMPI PUSH2 0x100 DUP1 DUP4 SLOAD DIV MUL DUP4 MSTORE SWAP2 PUSH1 0x20 ADD SWAP2 PUSH2 0x14FE JUMP JUMPDEST DUP3 ADD SWAP2 SWAP1 PUSH1 0x0 MSTORE PUSH1 0x20 PUSH1 0x0 KECCAK256 SWAP1 JUMPDEST DUP2 SLOAD DUP2 MSTORE SWAP1 PUSH1 0x1 ADD SWAP1 PUSH1 0x20 ADD DUP1 DUP4 GT PUSH2 0x14E1 JUMPI DUP3 SWAP1 SUB PUSH1 0x1F AND DUP3 ADD SWAP2 JUMPDEST POP POP POP SWAP2 DUP4 MSTORE POP POP PUSH1 0x3 DUP3 ADD SLOAD PUSH1 0x20 SWAP1 SWAP2 ADD SWAP1 PUSH1 0xFF AND PUSH1 0x4 DUP2 GT ISZERO PUSH2 0x1525 JUMPI PUSH2 0x1525 PUSH2 0x3420 JUMP JUMPDEST PUSH1 0x4 DUP2 GT ISZERO PUSH2 0x1536 JUMPI PUSH2 0x1536 PUSH2 0x3420 JUMP JUMPDEST DUP2 MSTORE PUSH1 0x4 DUP3 ADD SLOAD PUSH1 0x20 DUP3 ADD MSTORE PUSH1 0x5 SWAP1 SWAP2 ADD SLOAD PUSH1 0x40 SWAP1 SWAP2 ADD MSTORE SWAP4 SWAP3 POP POP POP JUMP JUMPDEST PUSH2 0x155D PUSH2 0x2D8E JUMP JUMPDEST PUSH2 0x1567 PUSH1 0x0 PUSH2 0x2DC0 JUMP JUMPDEST JUMP JUMPDEST PUSH1 0x0 PUSH2 0x1574 DUP2 PUSH2 0x2893 JUMP JUMPDEST PUSH2 0x158C PUSH1 0x0 DUP1 MLOAD PUSH1 0x20 PUSH2 0x3C68 DUP4 CODECOPY DUP2 MLOAD SWAP2 MSTORE DUP4 PUSH2 0xB35 JUMP JUMPDEST DUP2 PUSH1 0x1 PUSH1 0x1 PUSH1 0xA0 SHL SUB AND PUSH1 0x0 DUP1 MLOAD PUSH1 0x20 PUSH2 0x3C48 DUP4 CODECOPY DUP2 MLOAD SWAP2 MSTORE PUSH1 0x0 DUP1 MLOAD PUSH1 0x20 PUSH2 0x3C68 DUP4 CODECOPY DUP2 MLOAD SWAP2 MSTORE PUSH1 0x40 MLOAD PUSH2 0x877 SWAP2 DUP2 MSTORE PUSH1 0x20 ADD SWAP1 JUMP JUMPDEST PUSH1 0x0 PUSH2 0x15CD PUSH2 0x286F JUMP JUMPDEST CALLER PUSH1 0x0 SWAP1 DUP2 MSTORE PUSH1 0x9 PUSH1 0x20 MSTORE PUSH1 0x40 SWAP1 KECCAK256 PUSH1 0x4 ADD SLOAD PUSH1 0xFF AND PUSH2 0x15FF JUMPI PUSH1 0x40 MLOAD PUSH3 0x461BCD PUSH1 0xE5 SHL DUP2 MSTORE PUSH1 0x4 ADD PUSH2 0x8DF SWAP1 PUSH2 0x3B09 JUMP JUMPDEST PUSH1 0x5 DUP1 SLOAD SWAP1 PUSH1 0x0 PUSH2 0x160F DUP4 PUSH2 0x3B2A JUMP JUMPDEST SWAP1 SWAP2 SSTORE POP POP PUSH1 0x5 SLOAD PUSH1 0x40 DUP1 MLOAD PUSH1 0xA0 DUP2 ADD DUP3 MSTORE DUP3 DUP2 MSTORE PUSH1 0x20 DUP1 DUP3 ADD DUP9 DUP2 MSTORE DUP3 DUP5 ADD DUP9 SWAP1 MSTORE PUSH1 0x60 DUP4 ADD DUP8 SWAP1 MSTORE TIMESTAMP PUSH1 0x80 DUP5 ADD MSTORE PUSH1 0x0 DUP6 DUP2 MSTORE PUSH1 0xD SWAP1 SWAP3 MSTORE SWAP3 SWAP1 KECCAK256 DUP2 MLOAD DUP2 SSTORE SWAP2 MLOAD SWAP1 SWAP2 SWAP1 PUSH1 0x1 DUP3 ADD SWAP1 PUSH2 0x1664 SWAP1 DUP3 PUSH2 0x3A06 JUMP JUMPDEST POP PUSH1 0x40 DUP3 ADD MLOAD PUSH1 0x2 DUP3 ADD SWAP1 PUSH2 0x1679 SWAP1 DUP3 PUSH2 0x3A06 JUMP JUMPDEST POP PUSH1 0x60 DUP3 ADD MLOAD PUSH1 0x3 DUP3 ADD SSTORE PUSH1 0x80 SWAP1 SWAP2 ADD MLOAD PUSH1 0x4 SWAP1 SWAP2 ADD SSTORE PUSH1 0x0 DUP2 DUP2 MSTORE PUSH1 0x15 PUSH1 0x20 SWAP1 DUP2 MSTORE PUSH1 0x40 DUP1 DUP4 KECCAK256 DUP1 SLOAD PUSH1 0x1 PUSH1 0x1 PUSH1 0xA0 SHL SUB NOT AND CALLER SWAP1 DUP2 OR SWAP1 SWAP2 SSTORE DUP1 DUP5 MSTORE PUSH1 0xC DUP4 MSTORE DUP2 DUP5 KECCAK256 DUP1 SLOAD PUSH1 0x1 DUP2 ADD DUP3 SSTORE SWAP1 DUP6 MSTORE SWAP3 SWAP1 SWAP4 KECCAK256 SWAP1 SWAP2 ADD DUP4 SWAP1 SSTORE MLOAD DUP3 SWAP2 SWAP1 PUSH32 0x248B56445B6B2964C05EB68404FEEBE918D6D28DE7F6386FC4CABB9E0B70D500 SWAP1 PUSH2 0x1704 SWAP1 DUP10 SWAP1 PUSH2 0x3B79 JUMP JUMPDEST PUSH1 0x40 MLOAD DUP1 SWAP2 SUB SWAP1 LOG3 SWAP1 POP JUMPDEST SWAP4 SWAP3 POP POP POP JUMP JUMPDEST PUSH1 0x0 PUSH2 0x1721 DUP2 PUSH2 0x2893 JUMP JUMPDEST PUSH2 0xC63 PUSH2 0x2E10 JUMP JUMPDEST PUSH2 0x1731 PUSH2 0x286F JUMP JUMPDEST PUSH1 0x0 DUP5 DUP2 MSTORE PUSH1 0x15 PUSH1 0x20 MSTORE PUSH1 0x40 SWAP1 KECCAK256 SLOAD DUP5 SWAP1 PUSH1 0x1 PUSH1 0x1 PUSH1 0xA0 SHL SUB AND CALLER EQ PUSH2 0x1769 JUMPI PUSH1 0x40 MLOAD PUSH3 0x461BCD PUSH1 0xE5 SHL DUP2 MSTORE PUSH1 0x4 ADD PUSH2 0x8DF SWAP1 PUSH2 0x3BA7 JUMP JUMPDEST PUSH1 0x0 DUP6 DUP2 MSTORE PUSH1 0xD PUSH1 0x20 MSTORE PUSH1 0x40 SWAP1 KECCAK256 PUSH1 0x1 DUP2 ADD PUSH2 0x1785 DUP7 DUP3 PUSH2 0x3A06 JUMP JUMPDEST POP PUSH1 0x2 DUP2 ADD PUSH2 0x1794 DUP6 DUP3 PUSH2 0x3A06 JUMP JUMPDEST POP PUSH1 0x3 DUP2 ADD DUP4 SWAP1 SSTORE PUSH1 0x40 MLOAD DUP7 SWAP1 CALLER SWAP1 PUSH32 0x44F08082EF5253266E365753C1E7CEA2B4BB2025062F0CF4E2288FC811D941C8 SWAP1 PUSH2 0x17D0 SWAP1 DUP10 SWAP1 PUSH2 0x3B79 JUMP JUMPDEST PUSH1 0x40 MLOAD DUP1 SWAP2 SUB SWAP1 LOG3 POP POP POP POP POP POP JUMP JUMPDEST PUSH1 0x0 SLOAD PUSH1 0x1 PUSH1 0x1 PUSH1 0xA0 SHL SUB AND SWAP1 JUMP JUMPDEST PUSH1 0x1 PUSH1 0x1 PUSH1 0xA0 SHL SUB DUP2 AND PUSH2 0x1815 JUMPI PUSH1 0x40 MLOAD PUSH3 0x461BCD PUSH1 0xE5 SHL DUP2 MSTORE PUSH1 0x4 ADD PUSH2 0x8DF SWAP1 PUSH2 0x3BEB JUMP JUMPDEST CALLER PUSH1 0x0 DUP2 DUP2 MSTORE PUSH1 0x19 PUSH1 0x20 MSTORE PUSH1 0x40 DUP1 DUP3 KECCAK256 DUP1 SLOAD PUSH1 0x1 PUSH1 0x1 PUSH1 0xA0 SHL SUB NOT AND PUSH1 0x1 PUSH1 0x1 PUSH1 0xA0 SHL SUB DUP7 AND SWAP1 DUP2 OR SWAP1 SWAP2 SSTORE SWAP1 MLOAD SWAP1 SWAP3 SWAP2 PUSH32 0xF0E65FE0D2436800E6455B857DBFBC38741836ADE6B9BF9B8177B377317C1D5E SWAP2 LOG3 POP JUMP JUMPDEST PUSH1 0x0 SWAP2 DUP3 MSTORE PUSH1 0x1 PUSH1 0x20 SWAP1 DUP2 MSTORE PUSH1 0x40 DUP1 DUP5 KECCAK256 PUSH1 0x1 PUSH1 0x1 PUSH1 0xA0 SHL SUB SWAP4 SWAP1 SWAP4 AND DUP5 MSTORE SWAP2 SWAP1 MSTORE SWAP1 KECCAK256 SLOAD PUSH1 0xFF AND SWAP1 JUMP JUMPDEST PUSH1 0x0 PUSH2 0x18A1 PUSH2 0x286F JUMP JUMPDEST CALLER PUSH1 0x0 SWAP1 DUP2 MSTORE PUSH1 0x9 PUSH1 0x20 MSTORE PUSH1 0x40 SWAP1 KECCAK256 PUSH1 0x4 ADD SLOAD PUSH1 0xFF AND PUSH2 0x18D3 JUMPI PUSH1 0x40 MLOAD PUSH3 0x461BCD PUSH1 0xE5 SHL DUP2 MSTORE PUSH1 0x4 ADD PUSH2 0x8DF SWAP1 PUSH2 0x3B09 JUMP JUMPDEST PUSH1 0x1 PUSH1 0x1 PUSH1 0xA0 SHL SUB DUP10 AND PUSH2 0x18F9 JUMPI PUSH1 0x40 MLOAD PUSH3 0x461BCD PUSH1 0xE5 SHL DUP2 MSTORE PUSH1 0x4 ADD PUSH2 0x8DF SWAP1 PUSH2 0x3BEB JUMP JUMPDEST CALLER PUSH1 0x1 PUSH1 0x1 PUSH1 0xA0 SHL SUB DUP11 AND SUB PUSH2 0x1941 JUMPI PUSH1 0x40 MLOAD PUSH3 0x461BCD PUSH1 0xE5 SHL DUP2 MSTORE PUSH1 0x20 PUSH1 0x4 DUP3 ADD MSTORE PUSH1 0xD PUSH1 0x24 DUP3 ADD MSTORE PUSH13 0x4E6F2073656C662D7368617265 PUSH1 0x98 SHL PUSH1 0x44 DUP3 ADD MSTORE PUSH1 0x64 ADD PUSH2 0x8DF JUMP JUMPDEST TIMESTAMP DUP5 GT PUSH2 0x1981 JUMPI PUSH1 0x40 MLOAD PUSH3 0x461BCD PUSH1 0xE5 SHL DUP2 MSTORE PUSH1 0x20 PUSH1 0x4 DUP3 ADD MSTORE PUSH1 0xE PUSH1 0x24 DUP3 ADD MSTORE PUSH14 0x496E76616C696420657870697279 PUSH1 0x90 SHL PUSH1 0x44 DUP3 ADD MSTORE PUSH1 0x64 ADD PUSH2 0x8DF JUMP JUMPDEST PUSH1 0x7 DUP1 SLOAD SWAP1 PUSH1 0x0 PUSH2 0x1991 DUP4 PUSH2 0x3B2A JUMP JUMPDEST SWAP2 SWAP1 POP SSTORE POP PUSH1 0x0 PUSH1 0x7 SLOAD SWAP1 POP PUSH1 0x40 MLOAD DUP1 PUSH2 0x160 ADD PUSH1 0x40 MSTORE DUP1 DUP3 DUP2 MSTORE PUSH1 0x20 ADD DUP12 PUSH1 0x1 PUSH1 0x1 PUSH1 0xA0 SHL SUB AND DUP2 MSTORE PUSH1 0x20 ADD DUP11 DUP2 MSTORE PUSH1 0x20 ADD DUP10 DUP2 MSTORE PUSH1 0x20 ADD DUP9 PUSH1 0x6 DUP2 GT ISZERO PUSH2 0x19DC JUMPI PUSH2 0x19DC PUSH2 0x3420 JUMP JUMPDEST DUP2 MSTORE PUSH1 0x20 ADD DUP8 PUSH1 0x4 DUP2 GT ISZERO PUSH2 0x19F3 JUMPI PUSH2 0x19F3 PUSH2 0x3420 JUMP JUMPDEST DUP2 MSTORE PUSH1 0x20 ADD TIMESTAMP DUP2 MSTORE PUSH1 0x20 ADD DUP7 DUP2 MSTORE PUSH1 0x20 ADD DUP6 PUSH1 0x2 DUP2 GT ISZERO PUSH2 0x1A16 JUMPI PUSH2 0x1A16 PUSH2 0x3420 JUMP JUMPDEST DUP2 MSTORE PUSH1 0x20 ADD PUSH1 0x0 DUP2 MSTORE PUSH1 0x20 SWAP1 DUP2 ADD DUP6 SWAP1 MSTORE PUSH1 0x0 DUP4 DUP2 MSTORE PUSH1 0x11 DUP3 MSTORE PUSH1 0x40 SWAP1 DUP2 SWAP1 KECCAK256 DUP4 MLOAD DUP2 SSTORE SWAP2 DUP4 ADD MLOAD PUSH1 0x1 DUP4 ADD DUP1 SLOAD PUSH1 0x1 PUSH1 0x1 PUSH1 0xA0 SHL SUB NOT AND PUSH1 0x1 PUSH1 0x1 PUSH1 0xA0 SHL SUB SWAP1 SWAP3 AND SWAP2 SWAP1 SWAP2 OR SWAP1 SSTORE DUP3 ADD MLOAD PUSH1 0x2 DUP3 ADD SSTORE PUSH1 0x60 DUP3 ADD MLOAD PUSH1 0x3 DUP3 ADD SWAP1 PUSH2 0x1A7B SWAP1 DUP3 PUSH2 0x3A06 JUMP JUMPDEST POP PUSH1 0x80 DUP3 ADD MLOAD PUSH1 0x4 DUP3 ADD DUP1 SLOAD PUSH1 0xFF NOT AND PUSH1 0x1 DUP4 PUSH1 0x6 DUP2 GT ISZERO PUSH2 0x1A9F JUMPI PUSH2 0x1A9F PUSH2 0x3420 JUMP JUMPDEST MUL OR SWAP1 SSTORE POP PUSH1 0xA0 DUP3 ADD MLOAD DUP2 PUSH1 0x4 ADD PUSH1 0x1 PUSH2 0x100 EXP DUP2 SLOAD DUP2 PUSH1 0xFF MUL NOT AND SWAP1 DUP4 PUSH1 0x4 DUP2 GT ISZERO PUSH2 0x1ACE JUMPI PUSH2 0x1ACE PUSH2 0x3420 JUMP JUMPDEST MUL OR SWAP1 SSTORE POP PUSH1 0xC0 DUP3 ADD MLOAD PUSH1 0x5 DUP3 ADD SSTORE PUSH1 0xE0 DUP3 ADD MLOAD PUSH1 0x6 DUP3 ADD SSTORE PUSH2 0x100 DUP3 ADD MLOAD PUSH1 0x7 DUP3 ADD DUP1 SLOAD PUSH1 0xFF NOT AND PUSH1 0x1 DUP4 PUSH1 0x2 DUP2 GT ISZERO PUSH2 0x1B0B JUMPI PUSH2 0x1B0B PUSH2 0x3420 JUMP JUMPDEST MUL OR SWAP1 SSTORE POP PUSH2 0x120 DUP3 ADD MLOAD PUSH1 0x7 DUP3 ADD DUP1 SLOAD PUSH2 0xFF00 NOT AND PUSH2 0x100 DUP4 PUSH1 0x2 DUP2 GT ISZERO PUSH2 0x1B36 JUMPI PUSH2 0x1B36 PUSH2 0x3420 JUMP JUMPDEST MUL OR SWAP1 SSTORE POP PUSH2 0x140 DUP3 ADD MLOAD PUSH1 0x8 DUP3 ADD SWAP1 PUSH2 0x1B50 SWAP1 DUP3 PUSH2 0x3A06 JUMP JUMPDEST POP POP POP PUSH1 0x0 DUP2 DUP2 MSTORE PUSH1 0x17 PUSH1 0x20 SWAP1 DUP2 MSTORE PUSH1 0x40 DUP1 DUP4 KECCAK256 DUP1 SLOAD PUSH1 0x1 PUSH1 0x1 PUSH1 0xA0 SHL SUB NOT AND CALLER SWAP1 DUP2 OR SWAP1 SWAP2 SSTORE DUP1 DUP5 MSTORE PUSH1 0x10 DUP4 MSTORE DUP2 DUP5 KECCAK256 DUP1 SLOAD PUSH1 0x1 DUP2 ADD DUP3 SSTORE SWAP1 DUP6 MSTORE SWAP3 SWAP1 SWAP4 KECCAK256 SWAP1 SWAP2 ADD DUP4 SWAP1 SSTORE MLOAD DUP3 SWAP2 PUSH1 0x1 PUSH1 0x1 PUSH1 0xA0 SHL SUB DUP14 AND SWAP2 PUSH32 0xA659897907550AD23DF4ACC58AF8F2928FB8C5F64323D619580011B039A8649 SWAP1 PUSH2 0x1BD3 SWAP1 DUP12 SWAP1 DUP12 SWAP1 PUSH2 0x3B8C JUMP JUMPDEST PUSH1 0x40 MLOAD DUP1 SWAP2 SUB SWAP1 LOG4 SWAP10 SWAP9 POP POP POP POP POP POP POP POP POP JUMP JUMPDEST PUSH2 0x1BF0 PUSH2 0x286F JUMP JUMPDEST PUSH1 0x0 DUP6 DUP2 MSTORE PUSH1 0x14 PUSH1 0x20 MSTORE PUSH1 0x40 SWAP1 KECCAK256 SLOAD DUP6 SWAP1 PUSH1 0x1 PUSH1 0x1 PUSH1 0xA0 SHL SUB AND CALLER EQ PUSH2 0x1C28 JUMPI PUSH1 0x40 MLOAD PUSH3 0x461BCD PUSH1 0xE5 SHL DUP2 MSTORE PUSH1 0x4 ADD PUSH2 0x8DF SWAP1 PUSH2 0x3BA7 JUMP JUMPDEST PUSH1 0x0 DUP7 DUP2 MSTORE PUSH1 0xB PUSH1 0x20 MSTORE PUSH1 0x40 SWAP1 KECCAK256 PUSH1 0x1 DUP2 ADD PUSH2 0x1C44 DUP8 DUP3 PUSH2 0x3A06 JUMP JUMPDEST POP PUSH1 0x2 DUP2 ADD DUP1 SLOAD PUSH1 0xFF NOT AND DUP7 ISZERO ISZERO OR SWAP1 SSTORE PUSH1 0x3 DUP2 ADD DUP5 SWAP1 SSTORE PUSH1 0x4 DUP2 ADD DUP4 SWAP1 SSTORE PUSH1 0x40 MLOAD DUP8 SWAP1 CALLER SWAP1 PUSH32 0x4D3508C2ADE1F9D136F8852A5ED95ACE66534D58AB56C35DD69E8AE6ECC8A711 SWAP1 PUSH2 0x1C97 SWAP1 DUP11 SWAP1 PUSH2 0x3B79 JUMP JUMPDEST PUSH1 0x40 MLOAD DUP1 SWAP2 SUB SWAP1 LOG3 POP POP POP POP POP POP POP JUMP JUMPDEST PUSH2 0x1CB0 PUSH2 0x2EFD JUMP JUMPDEST PUSH1 0x0 DUP3 DUP2 MSTORE PUSH1 0x17 PUSH1 0x20 MSTORE PUSH1 0x40 SWAP1 KECCAK256 SLOAD PUSH1 0x1 PUSH1 0x1 PUSH1 0xA0 SHL SUB AND CALLER DUP2 EQ DUP1 PUSH2 0x1CEF JUMPI POP PUSH1 0x0 DUP4 DUP2 MSTORE PUSH1 0x11 PUSH1 0x20 MSTORE PUSH1 0x40 SWAP1 KECCAK256 PUSH1 0x1 ADD SLOAD PUSH1 0x1 PUSH1 0x1 PUSH1 0xA0 SHL SUB AND CALLER EQ JUMPDEST DUP1 PUSH2 0x1D0D JUMPI POP PUSH2 0x1D0D PUSH1 0x0 DUP1 MLOAD PUSH1 0x20 PUSH2 0x3C88 DUP4 CODECOPY DUP2 MLOAD SWAP2 MSTORE CALLER PUSH2 0x186C JUMP JUMPDEST PUSH2 0x1D29 JUMPI PUSH1 0x40 MLOAD PUSH3 0x461BCD PUSH1 0xE5 SHL DUP2 MSTORE PUSH1 0x4 ADD PUSH2 0x8DF SWAP1 PUSH2 0x3BCA JUMP JUMPDEST PUSH1 0x0 DUP4 DUP2 MSTORE PUSH1 0x11 PUSH1 0x20 SWAP1 DUP2 MSTORE PUSH1 0x40 DUP1 DUP4 KECCAK256 DUP2 MLOAD PUSH2 0x160 DUP2 ADD DUP4 MSTORE DUP2 SLOAD DUP2 MSTORE PUSH1 0x1 DUP3 ADD SLOAD PUSH1 0x1 PUSH1 0x1 PUSH1 0xA0 SHL SUB AND SWAP4 DUP2 ADD SWAP4 SWAP1 SWAP4 MSTORE PUSH1 0x2 DUP2 ADD SLOAD SWAP2 DUP4 ADD SWAP2 SWAP1 SWAP2 MSTORE PUSH1 0x3 DUP2 ADD DUP1 SLOAD PUSH1 0x60 DUP5 ADD SWAP2 SWAP1 PUSH2 0x1D7D SWAP1 PUSH2 0x397E JUMP JUMPDEST DUP1 PUSH1 0x1F ADD PUSH1 0x20 DUP1 SWAP2 DIV MUL PUSH1 0x20 ADD PUSH1 0x40 MLOAD SWAP1 DUP2 ADD PUSH1 0x40 MSTORE DUP1 SWAP3 SWAP2 SWAP1 DUP2 DUP2 MSTORE PUSH1 0x20 ADD DUP3 DUP1 SLOAD PUSH2 0x1DA9 SWAP1 PUSH2 0x397E JUMP JUMPDEST DUP1 ISZERO PUSH2 0x1DF6 JUMPI DUP1 PUSH1 0x1F LT PUSH2 0x1DCB JUMPI PUSH2 0x100 DUP1 DUP4 SLOAD DIV MUL DUP4 MSTORE SWAP2 PUSH1 0x20 ADD SWAP2 PUSH2 0x1DF6 JUMP JUMPDEST DUP3 ADD SWAP2 SWAP1 PUSH1 0x0 MSTORE PUSH1 0x20 PUSH1 0x0 KECCAK256 SWAP1 JUMPDEST DUP2 SLOAD DUP2 MSTORE SWAP1 PUSH1 0x1 ADD SWAP1 PUSH1 0x20 ADD DUP1 DUP4 GT PUSH2 0x1DD9 JUMPI DUP3 SWAP1 SUB PUSH1 0x1F AND DUP3 ADD SWAP2 JUMPDEST POP POP POP SWAP2 DUP4 MSTORE POP POP PUSH1 0x4 DUP3 ADD SLOAD PUSH1 0x20 SWAP1 SWAP2 ADD SWAP1 PUSH1 0xFF AND PUSH1 0x6 DUP2 GT ISZERO PUSH2 0x1E1D JUMPI PUSH2 0x1E1D PUSH2 0x3420 JUMP JUMPDEST PUSH1 0x6 DUP2 GT ISZERO PUSH2 0x1E2E JUMPI PUSH2 0x1E2E PUSH2 0x3420 JUMP JUMPDEST DUP2 MSTORE PUSH1 0x20 ADD PUSH1 0x4 DUP3 ADD PUSH1 0x1 SWAP1 SLOAD SWAP1 PUSH2 0x100 EXP SWAP1 DIV PUSH1 0xFF AND PUSH1 0x4 DUP2 GT ISZERO PUSH2 0x1E56 JUMPI PUSH2 0x1E56 PUSH2 0x3420 JUMP JUMPDEST PUSH1 0x4 DUP2 GT ISZERO PUSH2 0x1E67 JUMPI PUSH2 0x1E67 PUSH2 0x3420 JUMP JUMPDEST DUP2 MSTORE PUSH1 0x5 DUP3 ADD SLOAD PUSH1 0x20 DUP3 ADD MSTORE PUSH1 0x6 DUP3 ADD SLOAD PUSH1 0x40 DUP3 ADD MSTORE PUSH1 0x7 DUP3 ADD SLOAD PUSH1 0x60 SWAP1 SWAP2 ADD SWAP1 PUSH1 0xFF AND PUSH1 0x2 DUP2 GT ISZERO PUSH2 0x1E9C JUMPI PUSH2 0x1E9C PUSH2 0x3420 JUMP JUMPDEST PUSH1 0x2 DUP2 GT ISZERO PUSH2 0x1EAD JUMPI PUSH2 0x1EAD PUSH2 0x3420 JUMP JUMPDEST DUP2 MSTORE PUSH1 0x20 ADD PUSH1 0x7 DUP3 ADD PUSH1 0x1 SWAP1 SLOAD SWAP1 PUSH2 0x100 EXP SWAP1 DIV PUSH1 0xFF AND PUSH1 0x2 DUP2 GT ISZERO PUSH2 0x1ED5 JUMPI PUSH2 0x1ED5 PUSH2 0x3420 JUMP JUMPDEST PUSH1 0x2 DUP2 GT ISZERO PUSH2 0x1EE6 JUMPI PUSH2 0x1EE6 PUSH2 0x3420 JUMP JUMPDEST DUP2 MSTORE PUSH1 0x20 ADD PUSH1 0x8 DUP3 ADD DUP1 SLOAD PUSH2 0x1EFA SWAP1 PUSH2 0x397E JUMP JUMPDEST DUP1 PUSH1 0x1F ADD PUSH1 0x20 DUP1 SWAP2 DIV MUL PUSH1 0x20 ADD PUSH1 0x40 MLOAD SWAP1 DUP2 ADD PUSH1 0x40 MSTORE DUP1 SWAP3 SWAP2 SWAP1 DUP2 DUP2 MSTORE PUSH1 0x20 ADD DUP3 DUP1 SLOAD PUSH2 0x1F26 SWAP1 PUSH2 0x397E JUMP JUMPDEST DUP1 ISZERO PUSH2 0x1F73 JUMPI DUP1 PUSH1 0x1F LT PUSH2 0x1F48 JUMPI PUSH2 0x100 DUP1 DUP4 SLOAD DIV MUL DUP4 MSTORE SWAP2 PUSH1 0x20 ADD SWAP2 PUSH2 0x1F73 JUMP JUMPDEST DUP3 ADD SWAP2 SWAP1 PUSH1 0x0 MSTORE PUSH1 0x20 PUSH1 0x0 KECCAK256 SWAP1 JUMPDEST DUP2 SLOAD DUP2 MSTORE SWAP1 PUSH1 0x1 ADD SWAP1 PUSH1 0x20 ADD DUP1 DUP4 GT PUSH2 0x1F56 JUMPI DUP3 SWAP1 SUB PUSH1 0x1F AND DUP3 ADD SWAP2 JUMPDEST POP POP POP POP POP DUP2 MSTORE POP POP SWAP1 POP DUP1 PUSH1 0xE0 ADD MLOAD TIMESTAMP GT DUP1 ISZERO PUSH2 0x1FA7 JUMPI POP PUSH1 0x0 DUP2 PUSH2 0x120 ADD MLOAD PUSH1 0x2 DUP2 GT ISZERO PUSH2 0x1FA5 JUMPI PUSH2 0x1FA5 PUSH2 0x3420 JUMP JUMPDEST EQ JUMPDEST ISZERO PUSH2 0x170F JUMPI PUSH1 0x1 PUSH2 0x120 DUP3 ADD MSTORE SWAP4 SWAP3 POP POP POP JUMP JUMPDEST PUSH1 0x60 CALLER PUSH1 0x1 PUSH1 0x1 PUSH1 0xA0 SHL SUB DUP4 AND EQ DUP1 PUSH2 0x1FE7 JUMPI POP PUSH2 0x1FE7 PUSH1 0x0 DUP1 MLOAD PUSH1 0x20 PUSH2 0x3C88 DUP4 CODECOPY DUP2 MLOAD SWAP2 MSTORE CALLER PUSH2 0x186C JUMP JUMPDEST PUSH2 0x2003 JUMPI PUSH1 0x40 MLOAD PUSH3 0x461BCD PUSH1 0xE5 SHL DUP2 MSTORE PUSH1 0x4 ADD PUSH2 0x8DF SWAP1 PUSH2 0x3BCA JUMP JUMPDEST PUSH1 0x1 PUSH1 0x1 PUSH1 0xA0 SHL SUB DUP3 AND PUSH1 0x0 SWAP1 DUP2 MSTORE PUSH1 0x10 PUSH1 0x20 SWAP1 DUP2 MSTORE PUSH1 0x40 SWAP2 DUP3 SWAP1 KECCAK256 DUP1 SLOAD DUP4 MLOAD DUP2 DUP5 MUL DUP2 ADD DUP5 ADD SWAP1 SWAP5 MSTORE DUP1 DUP5 MSTORE SWAP1 SWAP2 DUP4 ADD DUP3 DUP3 DUP1 ISZERO PUSH2 0x2061 JUMPI PUSH1 0x20 MUL DUP3 ADD SWAP2 SWAP1 PUSH1 0x0 MSTORE PUSH1 0x20 PUSH1 0x0 KECCAK256 SWAP1 JUMPDEST DUP2 SLOAD DUP2 MSTORE PUSH1 0x20 ADD SWAP1 PUSH1 0x1 ADD SWAP1 DUP1 DUP4 GT PUSH2 0x204D JUMPI JUMPDEST POP POP POP POP POP SWAP1 POP SWAP2 SWAP1 POP JUMP JUMPDEST PUSH1 0x0 PUSH2 0x2078 DUP2 PUSH2 0x2893 JUMP JUMPDEST PUSH2 0x2090 PUSH1 0x0 DUP1 MLOAD PUSH1 0x20 PUSH2 0x3CA8 DUP4 CODECOPY DUP2 MLOAD SWAP2 MSTORE DUP4 PUSH2 0xB35 JUMP JUMPDEST DUP2 PUSH1 0x1 PUSH1 0x1 PUSH1 0xA0 SHL SUB AND PUSH1 0x0 DUP1 MLOAD PUSH1 0x20 PUSH2 0x3C48 DUP4 CODECOPY DUP2 MLOAD SWAP2 MSTORE PUSH1 0x0 DUP1 MLOAD PUSH1 0x20 PUSH2 0x3CA8 DUP4 CODECOPY DUP2 MLOAD SWAP2 MSTORE PUSH1 0x40 MLOAD PUSH2 0x877 SWAP2 DUP2 MSTORE PUSH1 0x20 ADD SWAP1 JUMP JUMPDEST PUSH1 0x60 CALLER PUSH1 0x1 PUSH1 0x1 PUSH1 0xA0 SHL SUB DUP4 AND EQ DUP1 PUSH2 0x20F3 JUMPI POP PUSH2 0x20F3 PUSH1 0x0 DUP1 MLOAD PUSH1 0x20 PUSH2 0x3C88 DUP4 CODECOPY DUP2 MLOAD SWAP2 MSTORE CALLER PUSH2 0x186C JUMP JUMPDEST PUSH2 0x210F JUMPI PUSH1 0x40 MLOAD PUSH3 0x461BCD PUSH1 0xE5 SHL DUP2 MSTORE PUSH1 0x4 ADD PUSH2 0x8DF SWAP1 PUSH2 0x3BCA JUMP JUMPDEST PUSH1 0x1 PUSH1 0x1 PUSH1 0xA0 SHL SUB DUP3 AND PUSH1 0x0 SWAP1 DUP2 MSTORE PUSH1 0x12 PUSH1 0x20 SWAP1 DUP2 MSTORE PUSH1 0x40 SWAP2 DUP3 SWAP1 KECCAK256 DUP1 SLOAD DUP4 MLOAD DUP2 DUP5 MUL DUP2 ADD DUP5 ADD SWAP1 SWAP5 MSTORE DUP1 DUP5 MSTORE SWAP1 SWAP2 DUP4 ADD DUP3 DUP3 DUP1 ISZERO PUSH2 0x2061 JUMPI PUSH1 0x20 MUL DUP3 ADD SWAP2 SWAP1 PUSH1 0x0 MSTORE PUSH1 0x20 PUSH1 0x0 KECCAK256 SWAP1 DUP2 SLOAD DUP2 MSTORE PUSH1 0x20 ADD SWAP1 PUSH1 0x1 ADD SWAP1 DUP1 DUP4 GT PUSH2 0x204D JUMPI POP POP POP POP POP SWAP1 POP SWAP2 SWAP1 POP JUMP JUMPDEST PUSH2 0x217F PUSH2 0x286F JUMP JUMPDEST PUSH1 0x0 DUP7 DUP2 MSTORE PUSH1 0x16 PUSH1 0x20 MSTORE PUSH1 0x40 SWAP1 KECCAK256 SLOAD DUP7 SWAP1 PUSH1 0x1 PUSH1 0x1 PUSH1 0xA0 SHL SUB AND CALLER EQ PUSH2 0x21B7 JUMPI PUSH1 0x40 MLOAD PUSH3 0x461BCD PUSH1 0xE5 SHL DUP2 MSTORE PUSH1 0x4 ADD PUSH2 0x8DF SWAP1 PUSH2 0x3BA7 JUMP JUMPDEST PUSH1 0x0 DUP8 DUP2 MSTORE PUSH1 0xF PUSH1 0x20 MSTORE PUSH1 0x40 SWAP1 KECCAK256 PUSH1 0x1 DUP2 ADD PUSH2 0x21D3 DUP9 DUP3 PUSH2 0x3A06 JUMP JUMPDEST POP PUSH1 0x2 DUP2 ADD PUSH2 0x21E2 DUP8 DUP3 PUSH2 0x3A06 JUMP JUMPDEST POP PUSH1 0x3 DUP2 ADD DUP1 SLOAD DUP7 SWAP2 SWAP1 PUSH1 0xFF NOT AND PUSH1 0x1 DUP4 PUSH1 0x7 DUP2 GT ISZERO PUSH2 0x2204 JUMPI PUSH2 0x2204 PUSH2 0x3420 JUMP JUMPDEST MUL OR SWAP1 SSTORE POP PUSH1 0x3 DUP2 ADD DUP1 SLOAD PUSH2 0xFF00 NOT AND PUSH2 0x100 DUP7 ISZERO ISZERO MUL OR SWAP1 SSTORE PUSH1 0x4 DUP2 ADD DUP4 SWAP1 SSTORE PUSH1 0x40 MLOAD DUP9 SWAP1 CALLER SWAP1 PUSH32 0x194F475ED1A7936BC502C5F68BE59AB8B4E5EF3ADC105D56862F112B1547F25 SWAP1 PUSH2 0x2259 SWAP1 DUP12 SWAP1 PUSH2 0x3B79 JUMP JUMPDEST PUSH1 0x40 MLOAD DUP1 SWAP2 SUB SWAP1 LOG3 POP POP POP POP POP POP POP POP JUMP JUMPDEST PUSH1 0x0 PUSH2 0x2276 DUP2 PUSH2 0x2893 JUMP JUMPDEST PUSH2 0x228E PUSH1 0x0 DUP1 MLOAD PUSH1 0x20 PUSH2 0x3CC8 DUP4 CODECOPY DUP2 MLOAD SWAP2 MSTORE DUP4 PUSH2 0xB35 JUMP JUMPDEST DUP2 PUSH1 0x1 PUSH1 0x1 PUSH1 0xA0 SHL SUB AND PUSH1 0x0 DUP1 MLOAD PUSH1 0x20 PUSH2 0x3C48 DUP4 CODECOPY DUP2 MLOAD SWAP2 MSTORE PUSH1 0x0 DUP1 MLOAD PUSH1 0x20 PUSH2 0x3CC8 DUP4 CODECOPY DUP2 MLOAD SWAP2 MSTORE PUSH1 0x40 MLOAD PUSH2 0x877 SWAP2 DUP2 MSTORE PUSH1 0x20 ADD SWAP1 JUMP JUMPDEST PUSH2 0x22CE DUP3 PUSH2 0xB1F JUMP JUMPDEST PUSH2 0x22D7 DUP2 PUSH2 0x2893 JUMP JUMPDEST PUSH2 0xB51 DUP4 DUP4 PUSH2 0x2CD5 JUMP JUMPDEST PUSH1 0x60 DUP2 PUSH1 0x1 CALLER PUSH1 0x1 PUSH1 0x1 PUSH1 0xA0 SHL SUB DUP4 AND EQ DUP1 PUSH2 0x2303 JUMPI POP PUSH2 0x2303 DUP3 CALLER DUP4 PUSH2 0x289D JUMP JUMPDEST DUP1 PUSH2 0x2321 JUMPI POP PUSH2 0x2321 PUSH1 0x0 DUP1 MLOAD PUSH1 0x20 PUSH2 0x3C88 DUP4 CODECOPY DUP2 MLOAD SWAP2 MSTORE CALLER PUSH2 0x186C JUMP JUMPDEST PUSH2 0x233D JUMPI PUSH1 0x40 MLOAD PUSH3 0x461BCD PUSH1 0xE5 SHL DUP2 MSTORE PUSH1 0x4 ADD PUSH2 0x8DF SWAP1 PUSH2 0x3AE6 JUMP JUMPDEST PUSH1 0x1 PUSH1 0x1 PUSH1 0xA0 SHL SUB DUP5 AND PUSH1 0x0 SWAP1 DUP2 MSTORE PUSH1 0xA PUSH1 0x20 SWAP1 DUP2 MSTORE PUSH1 0x40 SWAP2 DUP3 SWAP1 KECCAK256 DUP1 SLOAD DUP4 MLOAD DUP2 DUP5 MUL DUP2 ADD DUP5 ADD SWAP1 SWAP5 MSTORE DUP1 DUP5 MSTORE SWAP1 SWAP2 DUP4 ADD DUP3 DUP3 DUP1 ISZERO PUSH2 0x946 JUMPI PUSH1 0x20 MUL DUP3 ADD SWAP2 SWAP1 PUSH1 0x0 MSTORE PUSH1 0x20 PUSH1 0x0 KECCAK256 SWAP1 DUP2 SLOAD DUP2 MSTORE PUSH1 0x20 ADD SWAP1 PUSH1 0x1 ADD SWAP1 DUP1 DUP4 GT PUSH2 0x932 JUMPI POP POP POP POP POP SWAP3 POP POP POP SWAP2 SWAP1 POP JUMP JUMPDEST PUSH1 0x0 PUSH2 0x23B2 DUP2 PUSH2 0x2893 JUMP JUMPDEST PUSH2 0x23CA PUSH1 0x0 DUP1 MLOAD PUSH1 0x20 PUSH2 0x3C88 DUP4 CODECOPY DUP2 MLOAD SWAP2 MSTORE DUP4 PUSH2 0xB35 JUMP JUMPDEST DUP2 PUSH1 0x1 PUSH1 0x1 PUSH1 0xA0 SHL SUB AND PUSH1 0x0 DUP1 MLOAD PUSH1 0x20 PUSH2 0x3C48 DUP4 CODECOPY DUP2 MLOAD SWAP2 MSTORE PUSH1 0x0 DUP1 MLOAD PUSH1 0x20 PUSH2 0x3C88 DUP4 CODECOPY DUP2 MLOAD SWAP2 MSTORE PUSH1 0x40 MLOAD PUSH2 0x877 SWAP2 DUP2 MSTORE PUSH1 0x20 ADD SWAP1 JUMP JUMPDEST PUSH2 0x2409 PUSH2 0x2F67 JUMP JUMPDEST PUSH1 0x0 DUP3 DUP2 MSTORE PUSH1 0x16 PUSH1 0x20 MSTORE PUSH1 0x40 SWAP1 KECCAK256 SLOAD PUSH1 0x1 PUSH1 0x1 PUSH1 0xA0 SHL SUB AND CALLER DUP2 EQ DUP1 PUSH2 0x2436 JUMPI POP PUSH2 0x2436 DUP2 CALLER PUSH1 0x3 PUSH2 0x289D JUMP JUMPDEST DUP1 PUSH2 0x2454 JUMPI POP PUSH2 0x2454 PUSH1 0x0 DUP1 MLOAD PUSH1 0x20 PUSH2 0x3C88 DUP4 CODECOPY DUP2 MLOAD SWAP2 MSTORE CALLER PUSH2 0x186C JUMP JUMPDEST PUSH2 0x2470 JUMPI PUSH1 0x40 MLOAD PUSH3 0x461BCD PUSH1 0xE5 SHL DUP2 MSTORE PUSH1 0x4 ADD PUSH2 0x8DF SWAP1 PUSH2 0x3AE6 JUMP JUMPDEST PUSH1 0xF PUSH1 0x0 DUP5 DUP2 MSTORE PUSH1 0x20 ADD SWAP1 DUP2 MSTORE PUSH1 0x20 ADD PUSH1 0x0 KECCAK256 PUSH1 0x40 MLOAD DUP1 PUSH1 0xE0 ADD PUSH1 0x40 MSTORE SWAP1 DUP2 PUSH1 0x0 DUP3 ADD SLOAD DUP2 MSTORE PUSH1 0x20 ADD PUSH1 0x1 DUP3 ADD DUP1 SLOAD PUSH2 0x24A8 SWAP1 PUSH2 0x397E JUMP JUMPDEST DUP1 PUSH1 0x1F ADD PUSH1 0x20 DUP1 SWAP2 DIV MUL PUSH1 0x20 ADD PUSH1 0x40 MLOAD SWAP1 DUP2 ADD PUSH1 0x40 MSTORE DUP1 SWAP3 SWAP2 SWAP1 DUP2 DUP2 MSTORE PUSH1 0x20 ADD DUP3 DUP1 SLOAD PUSH2 0x24D4 SWAP1 PUSH2 0x397E JUMP JUMPDEST DUP1 ISZERO PUSH2 0x2521 JUMPI DUP1 PUSH1 0x1F LT PUSH2 0x24F6 JUMPI PUSH2 0x100 DUP1 DUP4 SLOAD DIV MUL DUP4 MSTORE SWAP2 PUSH1 0x20 ADD SWAP2 PUSH2 0x2521 JUMP JUMPDEST DUP3 ADD SWAP2 SWAP1 PUSH1 0x0 MSTORE PUSH1 0x20 PUSH1 0x0 KECCAK256 SWAP1 JUMPDEST DUP2 SLOAD DUP2 MSTORE SWAP1 PUSH1 0x1 ADD SWAP1 PUSH1 0x20 ADD DUP1 DUP4 GT PUSH2 0x2504 JUMPI DUP3 SWAP1 SUB PUSH1 0x1F AND DUP3 ADD SWAP2 JUMPDEST POP POP POP POP POP DUP2 MSTORE PUSH1 0x20 ADD PUSH1 0x2 DUP3 ADD DUP1 SLOAD PUSH2 0x253A SWAP1 PUSH2 0x397E JUMP JUMPDEST DUP1 PUSH1 0x1F ADD PUSH1 0x20 DUP1 SWAP2 DIV MUL PUSH1 0x20 ADD PUSH1 0x40 MLOAD SWAP1 DUP2 ADD PUSH1 0x40 MSTORE DUP1 SWAP3 SWAP2 SWAP1 DUP2 DUP2 MSTORE PUSH1 0x20 ADD DUP3 DUP1 SLOAD PUSH2 0x2566 SWAP1 PUSH2 0x397E JUMP JUMPDEST DUP1 ISZERO PUSH2 0x25B3 JUMPI DUP1 PUSH1 0x1F LT PUSH2 0x2588 JUMPI PUSH2 0x100 DUP1 DUP4 SLOAD DIV MUL DUP4 MSTORE SWAP2 PUSH1 0x20 ADD SWAP2 PUSH2 0x25B3 JUMP JUMPDEST DUP3 ADD SWAP2 SWAP1 PUSH1 0x0 MSTORE PUSH1 0x20 PUSH1 0x0 KECCAK256 SWAP1 JUMPDEST DUP2 SLOAD DUP2 MSTORE SWAP1 PUSH1 0x1 ADD SWAP1 PUSH1 0x20 ADD DUP1 DUP4 GT PUSH2 0x2596 JUMPI DUP3 SWAP1 SUB PUSH1 0x1F AND DUP3 ADD SWAP2 JUMPDEST POP POP POP SWAP2 DUP4 MSTORE POP POP PUSH1 0x3 DUP3 ADD SLOAD PUSH1 0x20 SWAP1 SWAP2 ADD SWAP1 PUSH1 0xFF AND PUSH1 0x7 DUP2 GT ISZERO PUSH2 0x25DA JUMPI PUSH2 0x25DA PUSH2 0x3420 JUMP JUMPDEST PUSH1 0x7 DUP2 GT ISZERO PUSH2 0x25EB JUMPI PUSH2 0x25EB PUSH2 0x3420 JUMP JUMPDEST DUP2 MSTORE PUSH1 0x3 DUP3 ADD SLOAD PUSH2 0x100 SWAP1 DIV PUSH1 0xFF AND ISZERO ISZERO PUSH1 0x20 DUP3 ADD MSTORE PUSH1 0x4 DUP3 ADD SLOAD PUSH1 0x40 DUP3 ADD MSTORE PUSH1 0x5 SWAP1 SWAP2 ADD SLOAD PUSH1 0x60 SWAP1 SWAP2 ADD MSTORE SWAP4 SWAP3 POP POP POP JUMP JUMPDEST PUSH1 0x40 DUP1 MLOAD PUSH1 0xA0 DUP2 ADD DUP3 MSTORE PUSH1 0x60 DUP1 DUP3 MSTORE PUSH1 0x0 PUSH1 0x20 DUP4 ADD DUP2 SWAP1 MSTORE SWAP3 DUP3 ADD DUP4 SWAP1 MSTORE DUP2 ADD DUP3 SWAP1 MSTORE PUSH1 0x80 DUP2 ADD SWAP2 SWAP1 SWAP2 MSTORE DUP2 PUSH1 0x0 CALLER PUSH1 0x1 PUSH1 0x1 PUSH1 0xA0 SHL SUB DUP4 AND EQ DUP1 PUSH2 0x2669 JUMPI POP PUSH2 0x2669 DUP3 CALLER DUP4 PUSH2 0x289D JUMP JUMPDEST DUP1 PUSH2 0x2687 JUMPI POP PUSH2 0x2687 PUSH1 0x0 DUP1 MLOAD PUSH1 0x20 PUSH2 0x3C88 DUP4 CODECOPY DUP2 MLOAD SWAP2 MSTORE CALLER PUSH2 0x186C JUMP JUMPDEST PUSH2 0x26A3 JUMPI PUSH1 0x40 MLOAD PUSH3 0x461BCD PUSH1 0xE5 SHL DUP2 MSTORE PUSH1 0x4 ADD PUSH2 0x8DF SWAP1 PUSH2 0x3AE6 JUMP JUMPDEST PUSH1 0x1 PUSH1 0x1 PUSH1 0xA0 SHL SUB DUP5 AND PUSH1 0x0 SWAP1 DUP2 MSTORE PUSH1 0x9 PUSH1 0x20 MSTORE PUSH1 0x40 SWAP1 KECCAK256 PUSH1 0x4 ADD SLOAD PUSH1 0xFF AND PUSH2 0x26FA JUMPI PUSH1 0x40 MLOAD PUSH3 0x461BCD PUSH1 0xE5 SHL DUP2 MSTORE PUSH1 0x20 PUSH1 0x4 DUP3 ADD MSTORE PUSH1 0x9 PUSH1 0x24 DUP3 ADD MSTORE PUSH9 0x139BDD08199BDD5B99 PUSH1 0xBA SHL PUSH1 0x44 DUP3 ADD MSTORE PUSH1 0x64 ADD PUSH2 0x8DF JUMP JUMPDEST PUSH1 0x1 PUSH1 0x1 PUSH1 0xA0 SHL SUB DUP5 AND PUSH1 0x0 SWAP1 DUP2 MSTORE PUSH1 0x9 PUSH1 0x20 MSTORE PUSH1 0x40 SWAP1 DUP2 SWAP1 KECCAK256 DUP2 MLOAD PUSH1 0xA0 DUP2 ADD SWAP1 SWAP3 MSTORE DUP1 SLOAD DUP3 SWAP1 DUP3 SWAP1 PUSH2 0x272C SWAP1 PUSH2 0x397E JUMP JUMPDEST DUP1 PUSH1 0x1F ADD PUSH1 0x20 DUP1 SWAP2 DIV MUL PUSH1 0x20 ADD PUSH1 0x40 MLOAD SWAP1 DUP2 ADD PUSH1 0x40 MSTORE DUP1 SWAP3 SWAP2 SWAP1 DUP2 DUP2 MSTORE PUSH1 0x20 ADD DUP3 DUP1 SLOAD PUSH2 0x2758 SWAP1 PUSH2 0x397E JUMP JUMPDEST DUP1 ISZERO PUSH2 0x27A5 JUMPI DUP1 PUSH1 0x1F LT PUSH2 0x277A JUMPI PUSH2 0x100 DUP1 DUP4 SLOAD DIV MUL DUP4 MSTORE SWAP2 PUSH1 0x20 ADD SWAP2 PUSH2 0x27A5 JUMP JUMPDEST DUP3 ADD SWAP2 SWAP1 PUSH1 0x0 MSTORE PUSH1 0x20 PUSH1 0x0 KECCAK256 SWAP1 JUMPDEST DUP2 SLOAD DUP2 MSTORE SWAP1 PUSH1 0x1 ADD SWAP1 PUSH1 0x20 ADD DUP1 DUP4 GT PUSH2 0x2788 JUMPI DUP3 SWAP1 SUB PUSH1 0x1F AND DUP3 ADD SWAP2 JUMPDEST POP POP POP SWAP2 DUP4 MSTORE POP POP PUSH1 0x1 DUP3 ADD SLOAD PUSH1 0x20 DUP3 ADD MSTORE PUSH1 0x2 DUP3 ADD SLOAD PUSH1 0x40 DUP3 ADD MSTORE PUSH1 0x3 DUP3 ADD SLOAD PUSH1 0x60 DUP3 ADD MSTORE PUSH1 0x4 SWAP1 SWAP2 ADD SLOAD PUSH1 0xFF AND ISZERO ISZERO PUSH1 0x80 SWAP1 SWAP2 ADD MSTORE SWAP5 SWAP4 POP POP POP POP JUMP JUMPDEST PUSH2 0x27EC PUSH2 0x2D8E JUMP JUMPDEST PUSH1 0x1 PUSH1 0x1 PUSH1 0xA0 SHL SUB DUP2 AND PUSH2 0x2816 JUMPI PUSH1 0x0 PUSH1 0x40 MLOAD PUSH4 0x1E4FBDF7 PUSH1 0xE0 SHL DUP2 MSTORE PUSH1 0x4 ADD PUSH2 0x8DF SWAP2 SWAP1 PUSH2 0x320A JUMP JUMPDEST PUSH2 0xC63 DUP2 PUSH2 0x2DC0 JUMP JUMPDEST PUSH1 0x0 PUSH2 0x282A DUP2 PUSH2 0x2893 JUMP JUMPDEST PUSH2 0x2834 DUP3 DUP5 PUSH2 0x22C5 JUMP JUMPDEST DUP3 PUSH1 0x1 PUSH1 0x1 PUSH1 0xA0 SHL SUB AND PUSH32 0x2EC6B3B60CF0B79D925A613D31F267DFA6BBE1350819A7785767E183BFB3D87F DUP4 PUSH1 0x40 MLOAD PUSH2 0x769 SWAP2 DUP2 MSTORE PUSH1 0x20 ADD SWAP1 JUMP JUMPDEST PUSH1 0x3 SLOAD PUSH1 0xFF AND ISZERO PUSH2 0x1567 JUMPI PUSH1 0x40 MLOAD PUSH4 0xD93C0665 PUSH1 0xE0 SHL DUP2 MSTORE PUSH1 0x4 ADD PUSH1 0x40 MLOAD DUP1 SWAP2 SUB SWAP1 REVERT JUMPDEST PUSH2 0xC63 DUP2 CALLER PUSH2 0x2E4D JUMP JUMPDEST PUSH1 0x1 PUSH1 0x1 PUSH1 0xA0 SHL SUB DUP4 AND PUSH1 0x0 SWAP1 DUP2 MSTORE PUSH1 0x10 PUSH1 0x20 SWAP1 DUP2 MSTORE PUSH1 0x40 DUP1 DUP4 KECCAK256 DUP1 SLOAD DUP3 MLOAD DUP2 DUP6 MUL DUP2 ADD DUP6 ADD SWAP1 SWAP4 MSTORE DUP1 DUP4 MSTORE DUP5 SWAP4 DUP4 ADD DUP3 DUP3 DUP1 ISZERO PUSH2 0x28FA JUMPI PUSH1 0x20 MUL DUP3 ADD SWAP2 SWAP1 PUSH1 0x0 MSTORE PUSH1 0x20 PUSH1 0x0 KECCAK256 SWAP1 JUMPDEST DUP2 SLOAD DUP2 MSTORE PUSH1 0x20 ADD SWAP1 PUSH1 0x1 ADD SWAP1 DUP1 DUP4 GT PUSH2 0x28E6 JUMPI JUMPDEST POP POP POP POP POP SWAP1 POP PUSH1 0x0 JUMPDEST DUP2 MLOAD DUP2 LT ISZERO PUSH2 0x2C50 JUMPI PUSH1 0x0 PUSH1 0x11 PUSH1 0x0 DUP5 DUP5 DUP2 MLOAD DUP2 LT PUSH2 0x2925 JUMPI PUSH2 0x2925 PUSH2 0x3C11 JUMP JUMPDEST PUSH1 0x20 MUL PUSH1 0x20 ADD ADD MLOAD DUP2 MSTORE PUSH1 0x20 ADD SWAP1 DUP2 MSTORE PUSH1 0x20 ADD PUSH1 0x0 KECCAK256 PUSH1 0x40 MLOAD DUP1 PUSH2 0x160 ADD PUSH1 0x40 MSTORE SWAP1 DUP2 PUSH1 0x0 DUP3 ADD SLOAD DUP2 MSTORE PUSH1 0x20 ADD PUSH1 0x1 DUP3 ADD PUSH1 0x0 SWAP1 SLOAD SWAP1 PUSH2 0x100 EXP SWAP1 DIV PUSH1 0x1 PUSH1 0x1 PUSH1 0xA0 SHL SUB AND PUSH1 0x1 PUSH1 0x1 PUSH1 0xA0 SHL SUB AND PUSH1 0x1 PUSH1 0x1 PUSH1 0xA0 SHL SUB AND DUP2 MSTORE PUSH1 0x20 ADD PUSH1 0x2 DUP3 ADD SLOAD DUP2 MSTORE PUSH1 0x20 ADD PUSH1 0x3 DUP3 ADD DUP1 SLOAD PUSH2 0x299A SWAP1 PUSH2 0x397E JUMP JUMPDEST DUP1 PUSH1 0x1F ADD PUSH1 0x20 DUP1 SWAP2 DIV MUL PUSH1 0x20 ADD PUSH1 0x40 MLOAD SWAP1 DUP2 ADD PUSH1 0x40 MSTORE DUP1 SWAP3 SWAP2 SWAP1 DUP2 DUP2 MSTORE PUSH1 0x20 ADD DUP3 DUP1 SLOAD PUSH2 0x29C6 SWAP1 PUSH2 0x397E JUMP JUMPDEST DUP1 ISZERO PUSH2 0x2A13 JUMPI DUP1 PUSH1 0x1F LT PUSH2 0x29E8 JUMPI PUSH2 0x100 DUP1 DUP4 SLOAD DIV MUL DUP4 MSTORE SWAP2 PUSH1 0x20 ADD SWAP2 PUSH2 0x2A13 JUMP JUMPDEST DUP3 ADD SWAP2 SWAP1 PUSH1 0x0 MSTORE PUSH1 0x20 PUSH1 0x0 KECCAK256 SWAP1 JUMPDEST DUP2 SLOAD DUP2 MSTORE SWAP1 PUSH1 0x1 ADD SWAP1 PUSH1 0x20 ADD DUP1 DUP4 GT PUSH2 0x29F6 JUMPI DUP3 SWAP1 SUB PUSH1 0x1F AND DUP3 ADD SWAP2 JUMPDEST POP POP POP SWAP2 DUP4 MSTORE POP POP PUSH1 0x4 DUP3 ADD SLOAD PUSH1 0x20 SWAP1 SWAP2 ADD SWAP1 PUSH1 0xFF AND PUSH1 0x6 DUP2 GT ISZERO PUSH2 0x2A3A JUMPI PUSH2 0x2A3A PUSH2 0x3420 JUMP JUMPDEST PUSH1 0x6 DUP2 GT ISZERO PUSH2 0x2A4B JUMPI PUSH2 0x2A4B PUSH2 0x3420 JUMP JUMPDEST DUP2 MSTORE PUSH1 0x20 ADD PUSH1 0x4 DUP3 ADD PUSH1 0x1 SWAP1 SLOAD SWAP1 PUSH2 0x100 EXP SWAP1 DIV PUSH1 0xFF AND PUSH1 0x4 DUP2 GT ISZERO PUSH2 0x2A73 JUMPI PUSH2 0x2A73 PUSH2 0x3420 JUMP JUMPDEST PUSH1 0x4 DUP2 GT ISZERO PUSH2 0x2A84 JUMPI PUSH2 0x2A84 PUSH2 0x3420 JUMP JUMPDEST DUP2 MSTORE PUSH1 0x5 DUP3 ADD SLOAD PUSH1 0x20 DUP3 ADD MSTORE PUSH1 0x6 DUP3 ADD SLOAD PUSH1 0x40 DUP3 ADD MSTORE PUSH1 0x7 DUP3 ADD SLOAD PUSH1 0x60 SWAP1 SWAP2 ADD SWAP1 PUSH1 0xFF AND PUSH1 0x2 DUP2 GT ISZERO PUSH2 0x2AB9 JUMPI PUSH2 0x2AB9 PUSH2 0x3420 JUMP JUMPDEST PUSH1 0x2 DUP2 GT ISZERO PUSH2 0x2ACA JUMPI PUSH2 0x2ACA PUSH2 0x3420 JUMP JUMPDEST DUP2 MSTORE PUSH1 0x20 ADD PUSH1 0x7 DUP3 ADD PUSH1 0x1 SWAP1 SLOAD SWAP1 PUSH2 0x100 EXP SWAP1 DIV PUSH1 0xFF AND PUSH1 0x2 DUP2 GT ISZERO PUSH2 0x2AF2 JUMPI PUSH2 0x2AF2 PUSH2 0x3420 JUMP JUMPDEST PUSH1 0x2 DUP2 GT ISZERO PUSH2 0x2B03 JUMPI PUSH2 0x2B03 PUSH2 0x3420 JUMP JUMPDEST DUP2 MSTORE PUSH1 0x20 ADD PUSH1 0x8 DUP3 ADD DUP1 SLOAD PUSH2 0x2B17 SWAP1 PUSH2 0x397E JUMP JUMPDEST DUP1 PUSH1 0x1F ADD PUSH1 0x20 DUP1 SWAP2 DIV MUL PUSH1 0x20 ADD PUSH1 0x40 MLOAD SWAP1 DUP2 ADD PUSH1 0x40 MSTORE DUP1 SWAP3 SWAP2 SWAP1 DUP2 DUP2 MSTORE PUSH1 0x20 ADD DUP3 DUP1 SLOAD PUSH2 0x2B43 SWAP1 PUSH2 0x397E JUMP JUMPDEST DUP1 ISZERO PUSH2 0x2B90 JUMPI DUP1 PUSH1 0x1F LT PUSH2 0x2B65 JUMPI PUSH2 0x100 DUP1 DUP4 SLOAD DIV MUL DUP4 MSTORE SWAP2 PUSH1 0x20 ADD SWAP2 PUSH2 0x2B90 JUMP JUMPDEST DUP3 ADD SWAP2 SWAP1 PUSH1 0x0 MSTORE PUSH1 0x20 PUSH1 0x0 KECCAK256 SWAP1 JUMPDEST DUP2 SLOAD DUP2 MSTORE SWAP1 PUSH1 0x1 ADD SWAP1 PUSH1 0x20 ADD DUP1 DUP4 GT PUSH2 0x2B73 JUMPI DUP3 SWAP1 SUB PUSH1 0x1F AND DUP3 ADD SWAP2 JUMPDEST POP POP POP POP POP DUP2 MSTORE POP POP SWAP1 POP DUP6 PUSH1 0x1 PUSH1 0x1 PUSH1 0xA0 SHL SUB AND DUP2 PUSH1 0x20 ADD MLOAD PUSH1 0x1 PUSH1 0x1 PUSH1 0xA0 SHL SUB AND EQ DUP1 ISZERO PUSH2 0x2BD6 JUMPI POP PUSH1 0x0 DUP2 PUSH2 0x120 ADD MLOAD PUSH1 0x2 DUP2 GT ISZERO PUSH2 0x2BD4 JUMPI PUSH2 0x2BD4 PUSH2 0x3420 JUMP JUMPDEST EQ JUMPDEST DUP1 ISZERO PUSH2 0x2BE6 JUMPI POP DUP1 PUSH1 0xE0 ADD MLOAD TIMESTAMP GT ISZERO JUMPDEST DUP1 ISZERO PUSH2 0x2C36 JUMPI POP DUP5 PUSH1 0x4 DUP2 GT ISZERO PUSH2 0x2BFF JUMPI PUSH2 0x2BFF PUSH2 0x3420 JUMP JUMPDEST DUP2 PUSH1 0xA0 ADD MLOAD PUSH1 0x4 DUP2 GT ISZERO PUSH2 0x2C15 JUMPI PUSH2 0x2C15 PUSH2 0x3420 JUMP JUMPDEST EQ DUP1 PUSH2 0x2C36 JUMPI POP PUSH1 0x4 DUP2 PUSH1 0xA0 ADD MLOAD PUSH1 0x4 DUP2 GT ISZERO PUSH2 0x2C34 JUMPI PUSH2 0x2C34 PUSH2 0x3420 JUMP JUMPDEST EQ JUMPDEST ISZERO PUSH2 0x2C47 JUMPI PUSH1 0x1 SWAP4 POP POP POP POP PUSH2 0x170F JUMP JUMPDEST POP PUSH1 0x1 ADD PUSH2 0x2904 JUMP JUMPDEST POP PUSH1 0x0 SWAP6 SWAP5 POP POP POP POP POP JUMP JUMPDEST PUSH1 0x0 PUSH2 0x2C68 DUP4 DUP4 PUSH2 0x186C JUMP JUMPDEST PUSH2 0x2CCD JUMPI PUSH1 0x0 DUP4 DUP2 MSTORE PUSH1 0x1 PUSH1 0x20 DUP2 DUP2 MSTORE PUSH1 0x40 DUP1 DUP5 KECCAK256 PUSH1 0x1 PUSH1 0x1 PUSH1 0xA0 SHL SUB DUP8 AND DUP1 DUP7 MSTORE SWAP3 MSTORE DUP1 DUP5 KECCAK256 DUP1 SLOAD PUSH1 0xFF NOT AND SWAP1 SWAP4 OR SWAP1 SWAP3 SSTORE SWAP1 MLOAD CALLER SWAP3 DUP7 SWAP2 PUSH32 0x2F8788117E7EFF1D82E926EC794901D17C78024A50270940304540A733656F0D SWAP2 SWAP1 LOG4 POP PUSH1 0x1 PUSH2 0x817 JUMP JUMPDEST POP PUSH1 0x0 PUSH2 0x817 JUMP JUMPDEST PUSH1 0x0 PUSH2 0x2CE1 DUP4 DUP4 PUSH2 0x186C JUMP JUMPDEST ISZERO PUSH2 0x2CCD JUMPI PUSH1 0x0 DUP4 DUP2 MSTORE PUSH1 0x1 PUSH1 0x20 SWAP1 DUP2 MSTORE PUSH1 0x40 DUP1 DUP4 KECCAK256 PUSH1 0x1 PUSH1 0x1 PUSH1 0xA0 SHL SUB DUP7 AND DUP1 DUP6 MSTORE SWAP3 MSTORE DUP1 DUP4 KECCAK256 DUP1 SLOAD PUSH1 0xFF NOT AND SWAP1 SSTORE MLOAD CALLER SWAP3 DUP7 SWAP2 PUSH32 0xF6391F5C32D9C69D2A47EA670B442974B53935D1EDC7FD64EB21E047A839171B SWAP2 SWAP1 LOG4 POP PUSH1 0x1 PUSH2 0x817 JUMP JUMPDEST PUSH2 0x2D4A PUSH2 0x2E8A JUMP JUMPDEST PUSH1 0x3 DUP1 SLOAD PUSH1 0xFF NOT AND SWAP1 SSTORE PUSH32 0x5DB9EE0A495BF2E6FF9C91A7834C1BA4FDD244A5E8AA4E537BD38AEAE4B073AA CALLER JUMPDEST PUSH1 0x40 MLOAD PUSH2 0x2D84 SWAP2 SWAP1 PUSH2 0x320A JUMP JUMPDEST PUSH1 0x40 MLOAD DUP1 SWAP2 SUB SWAP1 LOG1 JUMP JUMPDEST CALLER PUSH2 0x2D97 PUSH2 0x17E0 JUMP JUMPDEST PUSH1 0x1 PUSH1 0x1 PUSH1 0xA0 SHL SUB AND EQ PUSH2 0x1567 JUMPI CALLER PUSH1 0x40 MLOAD PUSH4 0x118CDAA7 PUSH1 0xE0 SHL DUP2 MSTORE PUSH1 0x4 ADD PUSH2 0x8DF SWAP2 SWAP1 PUSH2 0x320A JUMP JUMPDEST PUSH1 0x0 DUP1 SLOAD PUSH1 0x1 PUSH1 0x1 PUSH1 0xA0 SHL SUB DUP4 DUP2 AND PUSH1 0x1 PUSH1 0x1 PUSH1 0xA0 SHL SUB NOT DUP4 AND DUP2 OR DUP5 SSTORE PUSH1 0x40 MLOAD SWAP2 SWAP1 SWAP3 AND SWAP3 DUP4 SWAP2 PUSH32 0x8BE0079C531659141344CD1FD0A4F28419497F9722A3DAAFE3B4186F6B6457E0 SWAP2 SWAP1 LOG3 POP POP JUMP JUMPDEST PUSH2 0x2E18 PUSH2 0x286F JUMP JUMPDEST PUSH1 0x3 DUP1 SLOAD PUSH1 0xFF NOT AND PUSH1 0x1 OR SWAP1 SSTORE PUSH32 0x62E78CEA01BEE320CD4E420270B5EA74000D11B0C9F74754EBDBFC544B05A258 PUSH2 0x2D77 CALLER SWAP1 JUMP JUMPDEST PUSH2 0x2E57 DUP3 DUP3 PUSH2 0x186C JUMP JUMPDEST PUSH2 0x2E86 JUMPI PUSH1 0x40 MLOAD PUSH4 0xE2517D3F PUSH1 0xE0 SHL DUP2 MSTORE PUSH1 0x1 PUSH1 0x1 PUSH1 0xA0 SHL SUB DUP3 AND PUSH1 0x4 DUP3 ADD MSTORE PUSH1 0x24 DUP2 ADD DUP4 SWAP1 MSTORE PUSH1 0x44 ADD PUSH2 0x8DF JUMP JUMPDEST POP POP JUMP JUMPDEST PUSH1 0x3 SLOAD PUSH1 0xFF AND PUSH2 0x1567 JUMPI PUSH1 0x40 MLOAD PUSH4 0x8DFC202B PUSH1 0xE0 SHL DUP2 MSTORE PUSH1 0x4 ADD PUSH1 0x40 MLOAD DUP1 SWAP2 SUB SWAP1 REVERT JUMPDEST PUSH1 0x40 MLOAD DUP1 PUSH1 0xC0 ADD PUSH1 0x40 MSTORE DUP1 PUSH1 0x0 DUP2 MSTORE PUSH1 0x20 ADD PUSH1 0x0 PUSH1 0x1 PUSH1 0x1 PUSH1 0xA0 SHL SUB AND DUP2 MSTORE PUSH1 0x20 ADD PUSH1 0x60 DUP2 MSTORE PUSH1 0x20 ADD PUSH1 0x0 PUSH1 0x4 DUP2 GT ISZERO PUSH2 0x2EE9 JUMPI PUSH2 0x2EE9 PUSH2 0x3420 JUMP JUMPDEST DUP2 MSTORE PUSH1 0x0 PUSH1 0x20 DUP3 ADD DUP2 SWAP1 MSTORE PUSH1 0x40 SWAP1 SWAP2 ADD MSTORE SWAP1 JUMP JUMPDEST PUSH1 0x40 DUP1 MLOAD PUSH2 0x160 DUP2 ADD DUP3 MSTORE PUSH1 0x0 DUP1 DUP3 MSTORE PUSH1 0x20 DUP3 ADD DUP2 SWAP1 MSTORE SWAP2 DUP2 ADD DUP3 SWAP1 MSTORE PUSH1 0x60 DUP1 DUP3 ADD MSTORE SWAP1 PUSH1 0x80 DUP3 ADD SWAP1 DUP2 MSTORE PUSH1 0x20 ADD PUSH1 0x0 DUP2 MSTORE PUSH1 0x20 ADD PUSH1 0x0 DUP2 MSTORE PUSH1 0x20 ADD PUSH1 0x0 DUP2 MSTORE PUSH1 0x20 ADD PUSH1 0x0 PUSH1 0x2 DUP2 GT ISZERO PUSH2 0x2F53 JUMPI PUSH2 0x2F53 PUSH2 0x3420 JUMP JUMPDEST DUP2 MSTORE PUSH1 0x20 ADD PUSH1 0x0 DUP2 MSTORE PUSH1 0x20 ADD PUSH1 0x60 DUP2 MSTORE POP SWAP1 JUMP JUMPDEST PUSH1 0x40 MLOAD DUP1 PUSH1 0xE0 ADD PUSH1 0x40 MSTORE DUP1 PUSH1 0x0 DUP2 MSTORE PUSH1 0x20 ADD PUSH1 0x60 DUP2 MSTORE PUSH1 0x20 ADD PUSH1 0x60 DUP2 MSTORE PUSH1 0x20 ADD PUSH1 0x0 PUSH1 0x7 DUP2 GT ISZERO PUSH2 0x2F9A JUMPI PUSH2 0x2F9A PUSH2 0x3420 JUMP JUMPDEST DUP2 MSTORE PUSH1 0x20 ADD PUSH1 0x0 ISZERO ISZERO DUP2 MSTORE PUSH1 0x20 ADD PUSH1 0x0 DUP2 MSTORE PUSH1 0x20 ADD PUSH1 0x0 DUP2 MSTORE POP SWAP1 JUMP JUMPDEST PUSH4 0x4E487B71 PUSH1 0xE0 SHL PUSH1 0x0 MSTORE PUSH1 0x41 PUSH1 0x4 MSTORE PUSH1 0x24 PUSH1 0x0 REVERT JUMPDEST PUSH1 0x0 DUP3 PUSH1 0x1F DUP4 ADD SLT PUSH2 0x2FDE JUMPI PUSH1 0x0 DUP1 REVERT JUMPDEST DUP2 CALLDATALOAD PUSH1 0x1 PUSH1 0x1 PUSH1 0x40 SHL SUB DUP2 GT ISZERO PUSH2 0x2FF7 JUMPI PUSH2 0x2FF7 PUSH2 0x2FB7 JUMP JUMPDEST PUSH1 0x40 MLOAD PUSH1 0x1F DUP3 ADD PUSH1 0x1F NOT SWAP1 DUP2 AND PUSH1 0x3F ADD AND DUP2 ADD PUSH1 0x1 PUSH1 0x1 PUSH1 0x40 SHL SUB DUP2 GT DUP3 DUP3 LT OR ISZERO PUSH2 0x3025 JUMPI PUSH2 0x3025 PUSH2 0x2FB7 JUMP JUMPDEST PUSH1 0x40 MSTORE DUP2 DUP2 MSTORE DUP4 DUP3 ADD PUSH1 0x20 ADD DUP6 LT ISZERO PUSH2 0x303D JUMPI PUSH1 0x0 DUP1 REVERT JUMPDEST DUP2 PUSH1 0x20 DUP6 ADD PUSH1 0x20 DUP4 ADD CALLDATACOPY PUSH1 0x0 SWAP2 DUP2 ADD PUSH1 0x20 ADD SWAP2 SWAP1 SWAP2 MSTORE SWAP4 SWAP3 POP POP POP JUMP JUMPDEST PUSH1 0x0 DUP1 PUSH1 0x40 DUP4 DUP6 SUB SLT ISZERO PUSH2 0x306D JUMPI PUSH1 0x0 DUP1 REVERT JUMPDEST DUP3 CALLDATALOAD PUSH1 0x1 PUSH1 0x1 PUSH1 0x40 SHL SUB DUP2 GT ISZERO PUSH2 0x3083 JUMPI PUSH1 0x0 DUP1 REVERT JUMPDEST PUSH2 0x308F DUP6 DUP3 DUP7 ADD PUSH2 0x2FCD JUMP JUMPDEST SWAP6 PUSH1 0x20 SWAP5 SWAP1 SWAP5 ADD CALLDATALOAD SWAP5 POP POP POP POP JUMP JUMPDEST PUSH1 0x0 PUSH1 0x20 DUP3 DUP5 SUB SLT ISZERO PUSH2 0x30B0 JUMPI PUSH1 0x0 DUP1 REVERT JUMPDEST DUP2 CALLDATALOAD PUSH1 0x1 PUSH1 0x1 PUSH1 0xE0 SHL SUB NOT DUP2 AND DUP2 EQ PUSH2 0x170F JUMPI PUSH1 0x0 DUP1 REVERT JUMPDEST DUP1 CALLDATALOAD PUSH1 0x1 PUSH1 0x1 PUSH1 0xA0 SHL SUB DUP2 AND DUP2 EQ PUSH2 0x30DF JUMPI PUSH1 0x0 DUP1 REVERT JUMPDEST SWAP2 SWAP1 POP JUMP JUMPDEST PUSH1 0x0 PUSH1 0x20 DUP3 DUP5 SUB SLT ISZERO PUSH2 0x30F6 JUMPI PUSH1 0x0 DUP1 REVERT JUMPDEST PUSH2 0x170F DUP3 PUSH2 0x30C8 JUMP JUMPDEST PUSH1 0x20 DUP1 DUP3 MSTORE DUP3 MLOAD DUP3 DUP3 ADD DUP2 SWAP1 MSTORE PUSH1 0x0 SWAP2 DUP5 ADD SWAP1 PUSH1 0x40 DUP5 ADD SWAP1 DUP4 JUMPDEST DUP2 DUP2 LT ISZERO PUSH2 0x3137 JUMPI DUP4 MLOAD DUP4 MSTORE PUSH1 0x20 SWAP4 DUP5 ADD SWAP4 SWAP1 SWAP3 ADD SWAP2 PUSH1 0x1 ADD PUSH2 0x3119 JUMP JUMPDEST POP SWAP1 SWAP6 SWAP5 POP POP POP POP POP JUMP JUMPDEST DUP1 CALLDATALOAD PUSH1 0x8 DUP2 LT PUSH2 0x30DF JUMPI PUSH1 0x0 DUP1 REVERT JUMPDEST DUP1 CALLDATALOAD DUP1 ISZERO ISZERO DUP2 EQ PUSH2 0x30DF JUMPI PUSH1 0x0 DUP1 REVERT JUMPDEST PUSH1 0x0 DUP1 PUSH1 0x0 DUP1 PUSH1 0x0 PUSH1 0xA0 DUP7 DUP9 SUB SLT ISZERO PUSH2 0x3179 JUMPI PUSH1 0x0 DUP1 REVERT JUMPDEST DUP6 CALLDATALOAD PUSH1 0x1 PUSH1 0x1 PUSH1 0x40 SHL SUB DUP2 GT ISZERO PUSH2 0x318F JUMPI PUSH1 0x0 DUP1 REVERT JUMPDEST PUSH2 0x319B DUP9 DUP3 DUP10 ADD PUSH2 0x2FCD JUMP JUMPDEST SWAP6 POP POP PUSH1 0x20 DUP7 ADD CALLDATALOAD PUSH1 0x1 PUSH1 0x1 PUSH1 0x40 SHL SUB DUP2 GT ISZERO PUSH2 0x31B7 JUMPI PUSH1 0x0 DUP1 REVERT JUMPDEST PUSH2 0x31C3 DUP9 DUP3 DUP10 ADD PUSH2 0x2FCD JUMP JUMPDEST SWAP5 POP POP PUSH2 0x31D2 PUSH1 0x40 DUP8 ADD PUSH2 0x3142 JUMP JUMPDEST SWAP3 POP PUSH2 0x31E0 PUSH1 0x60 DUP8 ADD PUSH2 0x3151 JUMP JUMPDEST SWAP5 SWAP8 SWAP4 SWAP7 POP SWAP2 SWAP5 PUSH1 0x80 ADD CALLDATALOAD SWAP3 SWAP2 POP POP JUMP JUMPDEST PUSH1 0x0 PUSH1 0x20 DUP3 DUP5 SUB SLT ISZERO PUSH2 0x3203 JUMPI PUSH1 0x0 DUP1 REVERT JUMPDEST POP CALLDATALOAD SWAP2 SWAP1 POP JUMP JUMPDEST PUSH1 0x1 PUSH1 0x1 PUSH1 0xA0 SHL SUB SWAP2 SWAP1 SWAP2 AND DUP2 MSTORE PUSH1 0x20 ADD SWAP1 JUMP JUMPDEST PUSH1 0x0 DUP1 PUSH1 0x40 DUP4 DUP6 SUB SLT ISZERO PUSH2 0x3231 JUMPI PUSH1 0x0 DUP1 REVERT JUMPDEST DUP3 CALLDATALOAD SWAP2 POP PUSH2 0x3241 PUSH1 0x20 DUP5 ADD PUSH2 0x30C8 JUMP JUMPDEST SWAP1 POP SWAP3 POP SWAP3 SWAP1 POP JUMP JUMPDEST PUSH1 0x0 DUP1 PUSH1 0x0 DUP1 PUSH1 0x80 DUP6 DUP8 SUB SLT ISZERO PUSH2 0x3260 JUMPI PUSH1 0x0 DUP1 REVERT JUMPDEST DUP5 CALLDATALOAD PUSH1 0x1 PUSH1 0x1 PUSH1 0x40 SHL SUB DUP2 GT ISZERO PUSH2 0x3276 JUMPI PUSH1 0x0 DUP1 REVERT JUMPDEST PUSH2 0x3282 DUP8 DUP3 DUP9 ADD PUSH2 0x2FCD JUMP JUMPDEST SWAP5 POP POP PUSH2 0x3291 PUSH1 0x20 DUP7 ADD PUSH2 0x3151 JUMP JUMPDEST SWAP4 SWAP7 SWAP4 SWAP6 POP POP POP POP PUSH1 0x40 DUP3 ADD CALLDATALOAD SWAP2 PUSH1 0x60 ADD CALLDATALOAD SWAP1 JUMP JUMPDEST DUP1 CALLDATALOAD PUSH1 0x5 DUP2 LT PUSH2 0x30DF JUMPI PUSH1 0x0 DUP1 REVERT JUMPDEST PUSH1 0x0 DUP1 PUSH1 0x0 DUP1 PUSH1 0x80 DUP6 DUP8 SUB SLT ISZERO PUSH2 0x32CB JUMPI PUSH1 0x0 DUP1 REVERT JUMPDEST PUSH2 0x32D4 DUP6 PUSH2 0x30C8 JUMP JUMPDEST SWAP4 POP PUSH1 0x20 DUP6 ADD CALLDATALOAD PUSH1 0x1 PUSH1 0x1 PUSH1 0x40 SHL SUB DUP2 GT ISZERO PUSH2 0x32EF JUMPI PUSH1 0x0 DUP1 REVERT JUMPDEST PUSH2 0x32FB DUP8 DUP3 DUP9 ADD PUSH2 0x2FCD JUMP JUMPDEST SWAP4 POP POP PUSH2 0x330A PUSH1 0x40 DUP7 ADD PUSH2 0x32A6 JUMP JUMPDEST SWAP4 SWAP7 SWAP3 SWAP6 POP SWAP3 SWAP4 PUSH1 0x60 ADD CALLDATALOAD SWAP3 POP POP JUMP JUMPDEST PUSH1 0x0 DUP2 MLOAD DUP1 DUP5 MSTORE PUSH1 0x0 JUMPDEST DUP2 DUP2 LT ISZERO PUSH2 0x3340 JUMPI PUSH1 0x20 DUP2 DUP6 ADD DUP2 ADD MLOAD DUP7 DUP4 ADD DUP3 ADD MSTORE ADD PUSH2 0x3324 JUMP JUMPDEST POP PUSH1 0x0 PUSH1 0x20 DUP3 DUP7 ADD ADD MSTORE PUSH1 0x20 PUSH1 0x1F NOT PUSH1 0x1F DUP4 ADD AND DUP6 ADD ADD SWAP2 POP POP SWAP3 SWAP2 POP POP JUMP JUMPDEST PUSH1 0x20 DUP2 MSTORE DUP2 MLOAD PUSH1 0x20 DUP3 ADD MSTORE PUSH1 0x0 PUSH1 0x20 DUP4 ADD MLOAD PUSH1 0xC0 PUSH1 0x40 DUP5 ADD MSTORE PUSH2 0x3386 PUSH1 0xE0 DUP5 ADD DUP3 PUSH2 0x331A JUMP JUMPDEST SWAP1 POP PUSH1 0x40 DUP5 ADD MLOAD ISZERO ISZERO PUSH1 0x60 DUP5 ADD MSTORE PUSH1 0x60 DUP5 ADD MLOAD PUSH1 0x80 DUP5 ADD MSTORE PUSH1 0x80 DUP5 ADD MLOAD PUSH1 0xA0 DUP5 ADD MSTORE PUSH1 0xA0 DUP5 ADD MLOAD PUSH1 0xC0 DUP5 ADD MSTORE DUP1 SWAP2 POP POP SWAP3 SWAP2 POP POP JUMP JUMPDEST PUSH1 0x20 DUP2 MSTORE DUP2 MLOAD PUSH1 0x20 DUP3 ADD MSTORE PUSH1 0x0 PUSH1 0x20 DUP4 ADD MLOAD PUSH1 0xA0 PUSH1 0x40 DUP5 ADD MSTORE PUSH2 0x33E2 PUSH1 0xC0 DUP5 ADD DUP3 PUSH2 0x331A JUMP JUMPDEST SWAP1 POP PUSH1 0x40 DUP5 ADD MLOAD PUSH1 0x1F NOT DUP5 DUP4 SUB ADD PUSH1 0x60 DUP6 ADD MSTORE PUSH2 0x33FF DUP3 DUP3 PUSH2 0x331A JUMP JUMPDEST SWAP2 POP POP PUSH1 0x60 DUP5 ADD MLOAD PUSH1 0x80 DUP5 ADD MSTORE PUSH1 0x80 DUP5 ADD MLOAD PUSH1 0xA0 DUP5 ADD MSTORE DUP1 SWAP2 POP POP SWAP3 SWAP2 POP POP JUMP JUMPDEST PUSH4 0x4E487B71 PUSH1 0xE0 SHL PUSH1 0x0 MSTORE PUSH1 0x21 PUSH1 0x4 MSTORE PUSH1 0x24 PUSH1 0x0 REVERT JUMPDEST PUSH1 0x5 DUP2 LT PUSH2 0x3446 JUMPI PUSH2 0x3446 PUSH2 0x3420 JUMP JUMPDEST SWAP1 MSTORE JUMP JUMPDEST PUSH1 0x20 DUP2 MSTORE DUP2 MLOAD PUSH1 0x20 DUP3 ADD MSTORE PUSH1 0x1 DUP1 PUSH1 0xA0 SHL SUB PUSH1 0x20 DUP4 ADD MLOAD AND PUSH1 0x40 DUP3 ADD MSTORE PUSH1 0x0 PUSH1 0x40 DUP4 ADD MLOAD PUSH1 0xC0 PUSH1 0x60 DUP5 ADD MSTORE PUSH2 0x3482 PUSH1 0xE0 DUP5 ADD DUP3 PUSH2 0x331A JUMP JUMPDEST SWAP1 POP PUSH1 0x60 DUP5 ADD MLOAD PUSH2 0x3496 PUSH1 0x80 DUP6 ADD DUP3 PUSH2 0x3436 JUMP JUMPDEST POP PUSH1 0x80 DUP5 ADD MLOAD PUSH1 0xA0 DUP5 ADD MSTORE PUSH1 0xA0 DUP5 ADD MLOAD PUSH1 0xC0 DUP5 ADD MSTORE DUP1 SWAP2 POP POP SWAP3 SWAP2 POP POP JUMP JUMPDEST PUSH1 0x0 DUP1 PUSH1 0x0 PUSH1 0x60 DUP5 DUP7 SUB SLT ISZERO PUSH2 0x34CA JUMPI PUSH1 0x0 DUP1 REVERT JUMPDEST DUP4 CALLDATALOAD PUSH1 0x1 PUSH1 0x1 PUSH1 0x40 SHL SUB DUP2 GT ISZERO PUSH2 0x34E0 JUMPI PUSH1 0x0 DUP1 REVERT JUMPDEST PUSH2 0x34EC DUP7 DUP3 DUP8 ADD PUSH2 0x2FCD JUMP JUMPDEST SWAP4 POP POP PUSH1 0x20 DUP5 ADD CALLDATALOAD PUSH1 0x1 PUSH1 0x1 PUSH1 0x40 SHL SUB DUP2 GT ISZERO PUSH2 0x3508 JUMPI PUSH1 0x0 DUP1 REVERT JUMPDEST PUSH2 0x3514 DUP7 DUP3 DUP8 ADD PUSH2 0x2FCD JUMP JUMPDEST SWAP4 SWAP7 SWAP4 SWAP6 POP POP POP POP PUSH1 0x40 SWAP2 SWAP1 SWAP2 ADD CALLDATALOAD SWAP1 JUMP JUMPDEST PUSH1 0x0 DUP1 PUSH1 0x0 DUP1 PUSH1 0x80 DUP6 DUP8 SUB SLT ISZERO PUSH2 0x353C JUMPI PUSH1 0x0 DUP1 REVERT JUMPDEST DUP5 CALLDATALOAD SWAP4 POP PUSH1 0x20 DUP6 ADD CALLDATALOAD PUSH1 0x1 PUSH1 0x1 PUSH1 0x40 SHL SUB DUP2 GT ISZERO PUSH2 0x3559 JUMPI PUSH1 0x0 DUP1 REVERT JUMPDEST PUSH2 0x3565 DUP8 DUP3 DUP9 ADD PUSH2 0x2FCD JUMP JUMPDEST SWAP4 POP POP PUSH1 0x40 DUP6 ADD CALLDATALOAD PUSH1 0x1 PUSH1 0x1 PUSH1 0x40 SHL SUB DUP2 GT ISZERO PUSH2 0x3581 JUMPI PUSH1 0x0 DUP1 REVERT JUMPDEST PUSH2 0x358D DUP8 DUP3 DUP9 ADD PUSH2 0x2FCD JUMP JUMPDEST SWAP5 SWAP8 SWAP4 SWAP7 POP SWAP4 SWAP5 PUSH1 0x60 ADD CALLDATALOAD SWAP4 POP POP POP JUMP JUMPDEST DUP1 CALLDATALOAD PUSH1 0x3 DUP2 LT PUSH2 0x30DF JUMPI PUSH1 0x0 DUP1 REVERT JUMPDEST PUSH1 0x0 DUP1 PUSH1 0x0 DUP1 PUSH1 0x0 DUP1 PUSH1 0x0 DUP1 PUSH2 0x100 DUP10 DUP12 SUB SLT ISZERO PUSH2 0x35CA JUMPI PUSH1 0x0 DUP1 REVERT JUMPDEST PUSH2 0x35D3 DUP10 PUSH2 0x30C8 JUMP JUMPDEST SWAP8 POP PUSH1 0x20 DUP10 ADD CALLDATALOAD SWAP7 POP PUSH1 0x40 DUP10 ADD CALLDATALOAD PUSH1 0x1 PUSH1 0x1 PUSH1 0x40 SHL SUB DUP2 GT ISZERO PUSH2 0x35F5 JUMPI PUSH1 0x0 DUP1 REVERT JUMPDEST PUSH2 0x3601 DUP12 DUP3 DUP13 ADD PUSH2 0x2FCD JUMP JUMPDEST SWAP7 POP POP PUSH1 0x60 DUP10 ADD CALLDATALOAD PUSH1 0x7 DUP2 LT PUSH2 0x3616 JUMPI PUSH1 0x0 DUP1 REVERT JUMPDEST SWAP5 POP PUSH2 0x3624 PUSH1 0x80 DUP11 ADD PUSH2 0x32A6 JUMP JUMPDEST SWAP4 POP PUSH1 0xA0 DUP10 ADD CALLDATALOAD SWAP3 POP PUSH2 0x3639 PUSH1 0xC0 DUP11 ADD PUSH2 0x359E JUMP JUMPDEST SWAP2 POP PUSH1 0xE0 DUP10 ADD CALLDATALOAD PUSH1 0x1 PUSH1 0x1 PUSH1 0x40 SHL SUB DUP2 GT ISZERO PUSH2 0x3654 JUMPI PUSH1 0x0 DUP1 REVERT JUMPDEST PUSH2 0x3660 DUP12 DUP3 DUP13 ADD PUSH2 0x2FCD JUMP JUMPDEST SWAP2 POP POP SWAP3 SWAP6 SWAP9 POP SWAP3 SWAP6 SWAP9 SWAP1 SWAP4 SWAP7 POP JUMP JUMPDEST PUSH1 0x0 DUP1 PUSH1 0x0 DUP1 PUSH1 0x0 PUSH1 0xA0 DUP7 DUP9 SUB SLT ISZERO PUSH2 0x3688 JUMPI PUSH1 0x0 DUP1 REVERT JUMPDEST DUP6 CALLDATALOAD SWAP5 POP PUSH1 0x20 DUP7 ADD CALLDATALOAD PUSH1 0x1 PUSH1 0x1 PUSH1 0x40 SHL SUB DUP2 GT ISZERO PUSH2 0x36A5 JUMPI PUSH1 0x0 DUP1 REVERT JUMPDEST PUSH2 0x36B1 DUP9 DUP3 DUP10 ADD PUSH2 0x2FCD JUMP JUMPDEST SWAP5 POP POP PUSH2 0x36C0 PUSH1 0x40 DUP8 ADD PUSH2 0x3151 JUMP JUMPDEST SWAP5 SWAP8 SWAP4 SWAP7 POP SWAP4 SWAP5 PUSH1 0x60 DUP2 ADD CALLDATALOAD SWAP5 POP PUSH1 0x80 ADD CALLDATALOAD SWAP3 SWAP2 POP POP JUMP JUMPDEST PUSH1 0x7 DUP2 LT PUSH2 0x3446 JUMPI PUSH2 0x3446 PUSH2 0x3420 JUMP JUMPDEST PUSH1 0x3 DUP2 LT PUSH2 0x3446 JUMPI PUSH2 0x3446 PUSH2 0x3420 JUMP JUMPDEST PUSH1 0x20 DUP2 MSTORE DUP2 MLOAD PUSH1 0x20 DUP3 ADD MSTORE PUSH1 0x0 PUSH1 0x20 DUP4 ADD MLOAD PUSH2 0x371F PUSH1 0x40 DUP5 ADD DUP3 PUSH1 0x1 PUSH1 0x1 PUSH1 0xA0 SHL SUB AND SWAP1 MSTORE JUMP JUMPDEST POP PUSH1 0x40 DUP4 ADD MLOAD PUSH1 0x60 DUP4 ADD MSTORE PUSH1 0x60 DUP4 ADD MLOAD PUSH2 0x160 PUSH1 0x80 DUP5 ADD MSTORE PUSH2 0x3745 PUSH2 0x180 DUP5 ADD DUP3 PUSH2 0x331A JUMP JUMPDEST SWAP1 POP PUSH1 0x80 DUP5 ADD MLOAD PUSH2 0x3759 PUSH1 0xA0 DUP6 ADD DUP3 PUSH2 0x36D8 JUMP JUMPDEST POP PUSH1 0xA0 DUP5 ADD MLOAD PUSH2 0x376C PUSH1 0xC0 DUP6 ADD DUP3 PUSH2 0x3436 JUMP JUMPDEST POP PUSH1 0xC0 DUP5 ADD MLOAD PUSH1 0xE0 DUP5 ADD MSTORE PUSH1 0xE0 DUP5 ADD MLOAD PUSH2 0x100 DUP5 ADD MSTORE PUSH2 0x100 DUP5 ADD MLOAD PUSH2 0x3796 PUSH2 0x120 DUP6 ADD DUP3 PUSH2 0x36E8 JUMP JUMPDEST POP PUSH2 0x120 DUP5 ADD MLOAD PUSH2 0x37AB PUSH2 0x140 DUP6 ADD DUP3 PUSH2 0x36E8 JUMP JUMPDEST POP PUSH2 0x140 DUP5 ADD MLOAD DUP4 DUP3 SUB PUSH1 0x1F NOT ADD PUSH2 0x160 DUP6 ADD MSTORE PUSH2 0x37C9 DUP3 DUP3 PUSH2 0x331A JUMP JUMPDEST SWAP6 SWAP5 POP POP POP POP POP JUMP JUMPDEST PUSH1 0x0 DUP1 PUSH1 0x0 DUP1 PUSH1 0x0 DUP1 PUSH1 0xC0 DUP8 DUP10 SUB SLT ISZERO PUSH2 0x37EB JUMPI PUSH1 0x0 DUP1 REVERT JUMPDEST DUP7 CALLDATALOAD SWAP6 POP PUSH1 0x20 DUP8 ADD CALLDATALOAD PUSH1 0x1 PUSH1 0x1 PUSH1 0x40 SHL SUB DUP2 GT ISZERO PUSH2 0x3808 JUMPI PUSH1 0x0 DUP1 REVERT JUMPDEST PUSH2 0x3814 DUP10 DUP3 DUP11 ADD PUSH2 0x2FCD JUMP JUMPDEST SWAP6 POP POP PUSH1 0x40 DUP8 ADD CALLDATALOAD PUSH1 0x1 PUSH1 0x1 PUSH1 0x40 SHL SUB DUP2 GT ISZERO PUSH2 0x3830 JUMPI PUSH1 0x0 DUP1 REVERT JUMPDEST PUSH2 0x383C DUP10 DUP3 DUP11 ADD PUSH2 0x2FCD JUMP JUMPDEST SWAP5 POP POP PUSH2 0x384B PUSH1 0x60 DUP9 ADD PUSH2 0x3142 JUMP JUMPDEST SWAP3 POP PUSH2 0x3859 PUSH1 0x80 DUP9 ADD PUSH2 0x3151 JUMP JUMPDEST SWAP6 SWAP9 SWAP5 SWAP8 POP SWAP3 SWAP6 SWAP2 SWAP5 SWAP4 PUSH1 0xA0 SWAP1 SWAP3 ADD CALLDATALOAD SWAP3 POP POP JUMP JUMPDEST PUSH1 0x8 DUP2 LT PUSH2 0x3446 JUMPI PUSH2 0x3446 PUSH2 0x3420 JUMP JUMPDEST PUSH1 0x20 DUP2 MSTORE DUP2 MLOAD PUSH1 0x20 DUP3 ADD MSTORE PUSH1 0x0 PUSH1 0x20 DUP4 ADD MLOAD PUSH1 0xE0 PUSH1 0x40 DUP5 ADD MSTORE PUSH2 0x38A5 PUSH2 0x100 DUP5 ADD DUP3 PUSH2 0x331A JUMP JUMPDEST SWAP1 POP PUSH1 0x40 DUP5 ADD MLOAD PUSH1 0x1F NOT DUP5 DUP4 SUB ADD PUSH1 0x60 DUP6 ADD MSTORE PUSH2 0x38C2 DUP3 DUP3 PUSH2 0x331A JUMP JUMPDEST SWAP2 POP POP PUSH1 0x60 DUP5 ADD MLOAD PUSH2 0x38D7 PUSH1 0x80 DUP6 ADD DUP3 PUSH2 0x386E JUMP JUMPDEST POP PUSH1 0x80 DUP5 ADD MLOAD ISZERO ISZERO PUSH1 0xA0 DUP5 ADD MSTORE PUSH1 0xA0 DUP5 ADD MLOAD PUSH1 0xC0 DUP5 ADD MSTORE PUSH1 0xC0 DUP5 ADD MLOAD PUSH1 0xE0 DUP5 ADD MSTORE DUP1 SWAP2 POP POP SWAP3 SWAP2 POP POP JUMP JUMPDEST PUSH1 0x20 DUP2 MSTORE PUSH1 0x0 DUP3 MLOAD PUSH1 0xA0 PUSH1 0x20 DUP5 ADD MSTORE PUSH2 0x391E PUSH1 0xC0 DUP5 ADD DUP3 PUSH2 0x331A JUMP JUMPDEST SWAP1 POP PUSH1 0x20 DUP5 ADD MLOAD PUSH1 0x40 DUP5 ADD MSTORE PUSH1 0x40 DUP5 ADD MLOAD PUSH1 0x60 DUP5 ADD MSTORE PUSH1 0x60 DUP5 ADD MLOAD PUSH1 0x80 DUP5 ADD MSTORE PUSH1 0x80 DUP5 ADD MLOAD ISZERO ISZERO PUSH1 0xA0 DUP5 ADD MSTORE DUP1 SWAP2 POP POP SWAP3 SWAP2 POP POP JUMP JUMPDEST PUSH1 0x0 DUP1 PUSH1 0x40 DUP4 DUP6 SUB SLT ISZERO PUSH2 0x3967 JUMPI PUSH1 0x0 DUP1 REVERT JUMPDEST PUSH2 0x3970 DUP4 PUSH2 0x30C8 JUMP JUMPDEST SWAP5 PUSH1 0x20 SWAP4 SWAP1 SWAP4 ADD CALLDATALOAD SWAP4 POP POP POP JUMP JUMPDEST PUSH1 0x1 DUP2 DUP2 SHR SWAP1 DUP3 AND DUP1 PUSH2 0x3992 JUMPI PUSH1 0x7F DUP3 AND SWAP2 POP JUMPDEST PUSH1 0x20 DUP3 LT DUP2 SUB PUSH2 0x39B2 JUMPI PUSH4 0x4E487B71 PUSH1 0xE0 SHL PUSH1 0x0 MSTORE PUSH1 0x22 PUSH1 0x4 MSTORE PUSH1 0x24 PUSH1 0x0 REVERT JUMPDEST POP SWAP2 SWAP1 POP JUMP JUMPDEST PUSH1 0x1F DUP3 GT ISZERO PUSH2 0x7E1 JUMPI DUP1 PUSH1 0x0 MSTORE PUSH1 0x20 PUSH1 0x0 KECCAK256 PUSH1 0x1F DUP5 ADD PUSH1 0x5 SHR DUP2 ADD PUSH1 0x20 DUP6 LT ISZERO PUSH2 0x39DF JUMPI POP DUP1 JUMPDEST PUSH1 0x1F DUP5 ADD PUSH1 0x5 SHR DUP3 ADD SWAP2 POP JUMPDEST DUP2 DUP2 LT ISZERO PUSH2 0x39FF JUMPI PUSH1 0x0 DUP2 SSTORE PUSH1 0x1 ADD PUSH2 0x39EB JUMP JUMPDEST POP POP POP POP POP JUMP JUMPDEST DUP2 MLOAD PUSH1 0x1 PUSH1 0x1 PUSH1 0x40 SHL SUB DUP2 GT ISZERO PUSH2 0x3A1F JUMPI PUSH2 0x3A1F PUSH2 0x2FB7 JUMP JUMPDEST PUSH2 0x3A33 DUP2 PUSH2 0x3A2D DUP5 SLOAD PUSH2 0x397E JUMP JUMPDEST DUP5 PUSH2 0x39B8 JUMP JUMPDEST PUSH1 0x20 PUSH1 0x1F DUP3 GT PUSH1 0x1 DUP2 EQ PUSH2 0x3A67 JUMPI PUSH1 0x0 DUP4 ISZERO PUSH2 0x3A4F JUMPI POP DUP5 DUP3 ADD MLOAD JUMPDEST PUSH1 0x0 NOT PUSH1 0x3 DUP6 SWAP1 SHL SHR NOT AND PUSH1 0x1 DUP5 SWAP1 SHL OR DUP5 SSTORE PUSH2 0x39FF JUMP JUMPDEST PUSH1 0x0 DUP5 DUP2 MSTORE PUSH1 0x20 DUP2 KECCAK256 PUSH1 0x1F NOT DUP6 AND SWAP2 JUMPDEST DUP3 DUP2 LT ISZERO PUSH2 0x3A97 JUMPI DUP8 DUP6 ADD MLOAD DUP3 SSTORE PUSH1 0x20 SWAP5 DUP6 ADD SWAP5 PUSH1 0x1 SWAP1 SWAP3 ADD SWAP2 ADD PUSH2 0x3A77 JUMP JUMPDEST POP DUP5 DUP3 LT ISZERO PUSH2 0x3AB5 JUMPI DUP7 DUP5 ADD MLOAD PUSH1 0x0 NOT PUSH1 0x3 DUP8 SWAP1 SHL PUSH1 0xF8 AND SHR NOT AND DUP2 SSTORE JUMPDEST POP POP POP POP PUSH1 0x1 SWAP1 DUP2 SHL ADD SWAP1 SSTORE POP JUMP JUMPDEST PUSH1 0x40 DUP2 MSTORE PUSH1 0x0 PUSH2 0x3AD7 PUSH1 0x40 DUP4 ADD DUP6 PUSH2 0x331A JUMP JUMPDEST SWAP1 POP DUP3 PUSH1 0x20 DUP4 ADD MSTORE SWAP4 SWAP3 POP POP POP JUMP JUMPDEST PUSH1 0x20 DUP1 DUP3 MSTORE PUSH1 0x9 SWAP1 DUP3 ADD MSTORE PUSH9 0x4E6F20616363657373 PUSH1 0xB8 SHL PUSH1 0x40 DUP3 ADD MSTORE PUSH1 0x60 ADD SWAP1 JUMP JUMPDEST PUSH1 0x20 DUP1 DUP3 MSTORE PUSH1 0x7 SWAP1 DUP3 ADD MSTORE PUSH7 0x4E6F20696E666F PUSH1 0xC8 SHL PUSH1 0x40 DUP3 ADD MSTORE PUSH1 0x60 ADD SWAP1 JUMP JUMPDEST PUSH1 0x0 PUSH1 0x1 DUP3 ADD PUSH2 0x3B4A JUMPI PUSH4 0x4E487B71 PUSH1 0xE0 SHL PUSH1 0x0 MSTORE PUSH1 0x11 PUSH1 0x4 MSTORE PUSH1 0x24 PUSH1 0x0 REVERT JUMPDEST POP PUSH1 0x1 ADD SWAP1 JUMP JUMPDEST PUSH2 0x3B5B DUP2 DUP5 PUSH2 0x386E JUMP JUMPDEST PUSH1 0x40 PUSH1 0x20 DUP3 ADD MSTORE PUSH1 0x0 PUSH2 0x3B71 PUSH1 0x40 DUP4 ADD DUP5 PUSH2 0x331A JUMP JUMPDEST SWAP5 SWAP4 POP POP POP POP JUMP JUMPDEST PUSH1 0x20 DUP2 MSTORE PUSH1 0x0 PUSH2 0x170F PUSH1 0x20 DUP4 ADD DUP5 PUSH2 0x331A JUMP JUMPDEST PUSH1 0x40 DUP2 ADD PUSH2 0x3B9A DUP3 DUP6 PUSH2 0x3436 JUMP JUMPDEST DUP3 PUSH1 0x20 DUP4 ADD MSTORE SWAP4 SWAP3 POP POP POP JUMP JUMPDEST PUSH1 0x20 DUP1 DUP3 MSTORE PUSH1 0x9 SWAP1 DUP3 ADD MSTORE PUSH9 0x2737BA1037BBB732B9 PUSH1 0xB9 SHL PUSH1 0x40 DUP3 ADD MSTORE PUSH1 0x60 ADD SWAP1 JUMP JUMPDEST PUSH1 0x20 DUP1 DUP3 MSTORE PUSH1 0x7 SWAP1 DUP3 ADD MSTORE PUSH7 0x9CDE40C2EAE8D PUSH1 0xCB SHL PUSH1 0x40 DUP3 ADD MSTORE PUSH1 0x60 ADD SWAP1 JUMP JUMPDEST PUSH1 0x20 DUP1 DUP3 MSTORE PUSH1 0xC SWAP1 DUP3 ADD MSTORE PUSH12 0x24B73B30B634B21030B23239 PUSH1 0xA1 SHL PUSH1 0x40 DUP3 ADD MSTORE PUSH1 0x60 ADD SWAP1 JUMP JUMPDEST PUSH4 0x4E487B71 PUSH1 0xE0 SHL PUSH1 0x0 MSTORE PUSH1 0x32 PUSH1 0x4 MSTORE PUSH1 0x24 PUSH1 0x0 REVERT INVALID DUP9 0x25 0xC6 0x22 SMOD SMOD PUSH29 0x41710FE5144A6467477A643E911C9AB3785826111F7C94ED8B18C9D97E 0xDF 0xCF 0x27 DUP7 GAS 0xCA DUP11 0x4F SELFBALANCE DUP11 SHL DIFFICULTY 0x29 0xB4 0xC8 0x2F 0xB5 0xDE 0xD4 PUSH23 0xE9F317F74573D01BFEC7CD74E5C65B641D49ECC2E89F64 PUSH13 0x7C0BCAE85DC50F9616BF9C798C 0xED 0xDA DUP12 MSIZE LOG1 0xC4 DUP15 PC CALLDATACOPY 0xAD PUSH27 0x7F3DCEDCBE129BF3249EC4FBF651FD4F5E2600EAD39FE2F5197615 SWAP6 XOR CALLF 0x2C97 MSTORE8 MLOAD 0xD3 0xEB XOR POP SWAP14 PUSH3 0xAB7629 MULMOD DUP7 CALLDATASIZE JUMPF 0x2C6C DUPN 0x34 PUSH7 0xE939167FC8F5B4 EQ 0xC 0xCA ADDRESS PUSH29 0xD927E59CBEEA8291BFFEEE228FC677F0FA059AEF7B4DD8D5A264697066 PUSH20 0x5822122099FA2654E26F7427876B22438FB79E8F 0xEF 0xE8 0xD7 0xB9 0xEB SWAP3 0xEF 0xC5 RETURN MLOAD 0xD8 DUP3 0x4B POP CALLF 0xDB64 PUSH20 0x6F6C634300081F00330000000000000000000000 "
		},
		"gasEstimates": {
			"creation": {
				"codeDepositCost": "3129000",
				"executionCost": "80047",
				"totalCost": "3209047"
			},
			"external": {
				"AUDITOR_ROLE()": "infinite",
				"CLINIC_ROLE()": "infinite",
				"DEFAULT_ADMIN_ROLE()": "833",
				"HEALTHCARE_PROVIDER_ROLE()": "infinite",
				"HOSPITAL_ROLE()": "infinite",
				"INSURANCE_ROLE()": "infinite",
				"addMedication(string,bool,uint256,uint256)": "infinite",
				"addReport(string,string,uint8,bool,uint256)": "infinite",
				"addVaccination(string,string,uint256)": "infinite",
				"getAccessLog(uint256)": "infinite",
				"getAccessLogIds(address)": "infinite",
				"getEmergencyContact(address)": "2745",
				"getMedicationIds(address)": "infinite",
				"getMedicationRef(uint256)": "infinite",
				"getPersonalInfoRef(address)": "infinite",
				"getReportIds(address)": "infinite",
				"getReportRef(uint256)": "infinite",
				"getRoleAdmin(bytes32)": "2594",
				"getShareIds(address)": "infinite",
				"getShareRecord(uint256)": "infinite",
				"getTotalCounts()": "10817",
				"getVaccinationIds(address)": "infinite",
				"getVaccinationRef(uint256)": "infinite",
				"grantRole(bytes32,address)": "infinite",
				"hasPersonalInfo(address)": "3512",
				"hasRole(bytes32,address)": "3270",
				"logDataAccess(address,string,uint8,bytes32)": "infinite",
				"owner()": "2942",
				"pause()": "infinite",
				"paused()": "2645",
				"registerAuditor(address)": "infinite",
				"registerClinic(address)": "infinite",
				"registerHealthcareProvider(address)": "infinite",
				"registerHospital(address)": "infinite",
				"registerInsurance(address)": "infinite",
				"renounceOwnership()": "infinite",
				"renounceRole(bytes32,address)": "29249",
				"revokeEntityRole(address,bytes32)": "infinite",
				"revokeRole(bytes32,address)": "infinite",
				"revokeShare(uint256)": "30739",
				"setEmergencyContact(address)": "26788",
				"setPersonalInfo(string,bytes32)": "infinite",
				"shareData(address,bytes32,string,uint8,uint8,uint256,uint8,string)": "infinite",
				"supportsInterface(bytes4)": "426",
				"transferOwnership(address)": "29368",
				"unpause()": "infinite",
				"updateMedication(uint256,string,bool,uint256,uint256)": "infinite",
				"updateReport(uint256,string,string,uint8,bool,uint256)": "infinite",
				"updateVaccination(uint256,string,string,uint256)": "infinite"
			},
			"internal": {
				"_hasSharedAccess(address,address,enum HealthWalletV2_Secure.DataCategory)": "infinite"
			}
		},
		"methodIdentifiers": {
			"AUDITOR_ROLE()": "6e1d616e",
			"CLINIC_ROLE()": "82673e77",
			"DEFAULT_ADMIN_ROLE()": "a217fddf",
			"HEALTHCARE_PROVIDER_ROLE()": "0402e735",
			"HOSPITAL_ROLE()": "f6ba6678",
			"INSURANCE_ROLE()": "b752a74b",
			"addMedication(string,bool,uint256,uint256)": "420b23a2",
			"addReport(string,string,uint8,bool,uint256)": "1a100ca1",
			"addVaccination(string,string,uint256)": "7e14f8cd",
			"getAccessLog(uint256)": "685d5b8b",
			"getAccessLogIds(address)": "b85d4af0",
			"getEmergencyContact(address)": "2c81df05",
			"getMedicationIds(address)": "df015dc1",
			"getMedicationRef(uint256)": "4adbe62c",
			"getPersonalInfoRef(address)": "ee67e73d",
			"getReportIds(address)": "18b98101",
			"getReportRef(uint256)": "e653d375",
			"getRoleAdmin(bytes32)": "248a9ca3",
			"getShareIds(address)": "aa83f4d8",
			"getShareRecord(uint256)": "aa361c28",
			"getTotalCounts()": "045af334",
			"getVaccinationIds(address)": "2f4afbad",
			"getVaccinationRef(uint256)": "627e86f2",
			"grantRole(bytes32,address)": "2f2ff15d",
			"hasPersonalInfo(address)": "f17245f9",
			"hasRole(bytes32,address)": "91d14854",
			"logDataAccess(address,string,uint8,bytes32)": "48def2f7",
			"owner()": "8da5cb5b",
			"pause()": "8456cb59",
			"paused()": "5c975abb",
			"registerAuditor(address)": "df9a4f56",
			"registerClinic(address)": "b3568f32",
			"registerHealthcareProvider(address)": "052a01f6",
			"registerHospital(address)": "c5b99858",
			"registerInsurance(address)": "7e0ecee0",
			"renounceOwnership()": "715018a6",
			"renounceRole(bytes32,address)": "36568abe",
			"revokeEntityRole(address,bytes32)": "f6871d9e",
			"revokeRole(bytes32,address)": "d547741f",
			"revokeShare(uint256)": "50038737",
			"setEmergencyContact(address)": "91284a89",
			"setPersonalInfo(string,bytes32)": "00a6304f",
			"shareData(address,bytes32,string,uint8,uint8,uint256,uint8,string)": "a4fbb117",
			"supportsInterface(bytes4)": "01ffc9a7",
			"transferOwnership(address)": "f2fde38b",
			"unpause()": "3f4ba83a",
			"updateMedication(uint256,string,bool,uint256,uint256)": "a65b27db",
			"updateReport(uint256,string,string,uint8,bool,uint256)": "ba2aea96",
			"updateVaccination(uint256,string,string,uint256)": "86c4aea2"
		}
	},
	"abi": [
		{
			"inputs": [],
			"stateMutability": "nonpayable",
			"type": "constructor"
		},
		{
			"inputs": [],
			"name": "AccessControlBadConfirmation",
			"type": "error"
		},
		{
			"inputs": [
				{
					"internalType": "address",
					"name": "account",
					"type": "address"
				},
				{
					"internalType": "bytes32",
					"name": "neededRole",
					"type": "bytes32"
				}
			],
			"name": "AccessControlUnauthorizedAccount",
			"type": "error"
		},
		{
			"inputs": [],
			"name": "EnforcedPause",
			"type": "error"
		},
		{
			"inputs": [],
			"name": "ExpectedPause",
			"type": "error"
		},
		{
			"inputs": [
				{
					"internalType": "address",
					"name": "owner",
					"type": "address"
				}
			],
			"name": "OwnableInvalidOwner",
			"type": "error"
		},
		{
			"inputs": [
				{
					"internalType": "address",
					"name": "account",
					"type": "address"
				}
			],
			"name": "OwnableUnauthorizedAccount",
			"type": "error"
		},
		{
			"inputs": [],
			"name": "ReentrancyGuardReentrantCall",
			"type": "error"
		},
		{
			"anonymous": false,
			"inputs": [
				{
					"indexed": true,
					"internalType": "address",
					"name": "owner",
					"type": "address"
				},
				{
					"indexed": true,
					"internalType": "address",
					"name": "accessor",
					"type": "address"
				},
				{
					"indexed": true,
					"internalType": "uint256",
					"name": "logId",
					"type": "uint256"
				},
				{
					"indexed": false,
					"internalType": "enum HealthWalletV2_Secure.DataCategory",
					"name": "category",
					"type": "uint8"
				},
				{
					"indexed": false,
					"internalType": "uint256",
					"name": "timestamp",
					"type": "uint256"
				}
			],
			"name": "DataAccessed",
			"type": "event"
		},
		{
			"anonymous": false,
			"inputs": [
				{
					"indexed": true,
					"internalType": "address",
					"name": "owner",
					"type": "address"
				},
				{
					"indexed": true,
					"internalType": "address",
					"name": "recipient",
					"type": "address"
				},
				{
					"indexed": true,
					"internalType": "uint256",
					"name": "shareId",
					"type": "uint256"
				},
				{
					"indexed": false,
					"internalType": "enum HealthWalletV2_Secure.DataCategory",
					"name": "category",
					"type": "uint8"
				},
				{
					"indexed": false,
					"internalType": "uint256",
					"name": "expiryDate",
					"type": "uint256"
				}
			],
			"name": "DataShared",
			"type": "event"
		},
		{
			"anonymous": false,
			"inputs": [
				{
					"indexed": true,
					"internalType": "address",
					"name": "user",
					"type": "address"
				},
				{
					"indexed": true,
					"internalType": "address",
					"name": "emergencyContact",
					"type": "address"
				}
			],
			"name": "EmergencyContactSet",
			"type": "event"
		},
		{
			"anonymous": false,
			"inputs": [
				{
					"indexed": true,
					"internalType": "address",
					"name": "entity",
					"type": "address"
				},
				{
					"indexed": false,
					"internalType": "bytes32",
					"name": "role",
					"type": "bytes32"
				}
			],
			"name": "EntityRegistered",
			"type": "event"
		},
		{
			"anonymous": false,
			"inputs": [
				{
					"indexed": true,
					"internalType": "address",
					"name": "entity",
					"type": "address"
				},
				{
					"indexed": false,
					"internalType": "bytes32",
					"name": "role",
					"type": "bytes32"
				}
			],
			"name": "EntityRevoked",
			"type": "event"
		},
		{
			"anonymous": false,
			"inputs": [
				{
					"indexed": true,
					"internalType": "address",
					"name": "user",
					"type": "address"
				},
				{
					"indexed": true,
					"internalType": "uint256",
					"name": "medicationId",
					"type": "uint256"
				},
				{
					"indexed": false,
					"internalType": "string",
					"name": "ipfsHash",
					"type": "string"
				}
			],
			"name": "MedicationAdded",
			"type": "event"
		},
		{
			"anonymous": false,
			"inputs": [
				{
					"indexed": true,
					"internalType": "address",
					"name": "user",
					"type": "address"
				},
				{
					"indexed": true,
					"internalType": "uint256",
					"name": "medicationId",
					"type": "uint256"
				},
				{
					"indexed": false,
					"internalType": "string",
					"name": "ipfsHash",
					"type": "string"
				}
			],
			"name": "MedicationUpdated",
			"type": "event"
		},
		{
			"anonymous": false,
			"inputs": [
				{
					"indexed": true,
					"internalType": "address",
					"name": "previousOwner",
					"type": "address"
				},
				{
					"indexed": true,
					"internalType": "address",
					"name": "newOwner",
					"type": "address"
				}
			],
			"name": "OwnershipTransferred",
			"type": "event"
		},
		{
			"anonymous": false,
			"inputs": [
				{
					"indexed": false,
					"internalType": "address",
					"name": "account",
					"type": "address"
				}
			],
			"name": "Paused",
			"type": "event"
		},
		{
			"anonymous": false,
			"inputs": [
				{
					"indexed": true,
					"internalType": "address",
					"name": "user",
					"type": "address"
				},
				{
					"indexed": false,
					"internalType": "string",
					"name": "ipfsHash",
					"type": "string"
				},
				{
					"indexed": false,
					"internalType": "uint256",
					"name": "timestamp",
					"type": "uint256"
				}
			],
			"name": "PersonalInfoStored",
			"type": "event"
		},
		{
			"anonymous": false,
			"inputs": [
				{
					"indexed": true,
					"internalType": "address",
					"name": "user",
					"type": "address"
				},
				{
					"indexed": false,
					"internalType": "string",
					"name": "ipfsHash",
					"type": "string"
				},
				{
					"indexed": false,
					"internalType": "uint256",
					"name": "timestamp",
					"type": "uint256"
				}
			],
			"name": "PersonalInfoUpdated",
			"type": "event"
		},
		{
			"anonymous": false,
			"inputs": [
				{
					"indexed": true,
					"internalType": "address",
					"name": "user",
					"type": "address"
				},
				{
					"indexed": true,
					"internalType": "uint256",
					"name": "reportId",
					"type": "uint256"
				},
				{
					"indexed": false,
					"internalType": "enum HealthWalletV2_Secure.ReportType",
					"name": "reportType",
					"type": "uint8"
				},
				{
					"indexed": false,
					"internalType": "string",
					"name": "ipfsHash",
					"type": "string"
				}
			],
			"name": "ReportAdded",
			"type": "event"
		},
		{
			"anonymous": false,
			"inputs": [
				{
					"indexed": true,
					"internalType": "address",
					"name": "user",
					"type": "address"
				},
				{
					"indexed": true,
					"internalType": "uint256",
					"name": "reportId",
					"type": "uint256"
				},
				{
					"indexed": false,
					"internalType": "string",
					"name": "ipfsHash",
					"type": "string"
				}
			],
			"name": "ReportUpdated",
			"type": "event"
		},
		{
			"anonymous": false,
			"inputs": [
				{
					"indexed": true,
					"internalType": "bytes32",
					"name": "role",
					"type": "bytes32"
				},
				{
					"indexed": true,
					"internalType": "bytes32",
					"name": "previousAdminRole",
					"type": "bytes32"
				},
				{
					"indexed": true,
					"internalType": "bytes32",
					"name": "newAdminRole",
					"type": "bytes32"
				}
			],
			"name": "RoleAdminChanged",
			"type": "event"
		},
		{
			"anonymous": false,
			"inputs": [
				{
					"indexed": true,
					"internalType": "bytes32",
					"name": "role",
					"type": "bytes32"
				},
				{
					"indexed": true,
					"internalType": "address",
					"name": "account",
					"type": "address"
				},
				{
					"indexed": true,
					"internalType": "address",
					"name": "sender",
					"type": "address"
				}
			],
			"name": "RoleGranted",
			"type": "event"
		},
		{
			"anonymous": false,
			"inputs": [
				{
					"indexed": true,
					"internalType": "bytes32",
					"name": "role",
					"type": "bytes32"
				},
				{
					"indexed": true,
					"internalType": "address",
					"name": "account",
					"type": "address"
				},
				{
					"indexed": true,
					"internalType": "address",
					"name": "sender",
					"type": "address"
				}
			],
			"name": "RoleRevoked",
			"type": "event"
		},
		{
			"anonymous": false,
			"inputs": [
				{
					"indexed": true,
					"internalType": "address",
					"name": "owner",
					"type": "address"
				},
				{
					"indexed": true,
					"internalType": "uint256",
					"name": "shareId",
					"type": "uint256"
				}
			],
			"name": "ShareRevoked",
			"type": "event"
		},
		{
			"anonymous": false,
			"inputs": [
				{
					"indexed": false,
					"internalType": "address",
					"name": "account",
					"type": "address"
				}
			],
			"name": "Unpaused",
			"type": "event"
		},
		{
			"anonymous": false,
			"inputs": [
				{
					"indexed": true,
					"internalType": "address",
					"name": "user",
					"type": "address"
				},
				{
					"indexed": true,
					"internalType": "uint256",
					"name": "vaccinationId",
					"type": "uint256"
				},
				{
					"indexed": false,
					"internalType": "string",
					"name": "ipfsHash",
					"type": "string"
				}
			],
			"name": "VaccinationAdded",
			"type": "event"
		},
		{
			"anonymous": false,
			"inputs": [
				{
					"indexed": true,
					"internalType": "address",
					"name": "user",
					"type": "address"
				},
				{
					"indexed": true,
					"internalType": "uint256",
					"name": "vaccinationId",
					"type": "uint256"
				},
				{
					"indexed": false,
					"internalType": "string",
					"name": "ipfsHash",
					"type": "string"
				}
			],
			"name": "VaccinationUpdated",
			"type": "event"
		},
		{
			"inputs": [],
			"name": "AUDITOR_ROLE",
			"outputs": [
				{
					"internalType": "bytes32",
					"name": "",
					"type": "bytes32"
				}
			],
			"stateMutability": "view",
			"type": "function"
		},
		{
			"inputs": [],
			"name": "CLINIC_ROLE",
			"outputs": [
				{
					"internalType": "bytes32",
					"name": "",
					"type": "bytes32"
				}
			],
			"stateMutability": "view",
			"type": "function"
		},
		{
			"inputs": [],
			"name": "DEFAULT_ADMIN_ROLE",
			"outputs": [
				{
					"internalType": "bytes32",
					"name": "",
					"type": "bytes32"
				}
			],
			"stateMutability": "view",
			"type": "function"
		},
		{
			"inputs": [],
			"name": "HEALTHCARE_PROVIDER_ROLE",
			"outputs": [
				{
					"internalType": "bytes32",
					"name": "",
					"type": "bytes32"
				}
			],
			"stateMutability": "view",
			"type": "function"
		},
		{
			"inputs": [],
			"name": "HOSPITAL_ROLE",
			"outputs": [
				{
					"internalType": "bytes32",
					"name": "",
					"type": "bytes32"
				}
			],
			"stateMutability": "view",
			"type": "function"
		},
		{
			"inputs": [],
			"name": "INSURANCE_ROLE",
			"outputs": [
				{
					"internalType": "bytes32",
					"name": "",
					"type": "bytes32"
				}
			],
			"stateMutability": "view",
			"type": "function"
		},
		{
			"inputs": [
				{
					"internalType": "string",
					"name": "_encryptedDataIpfsHash",
					"type": "string"
				},
				{
					"internalType": "bool",
					"name": "_isActive",
					"type": "bool"
				},
				{
					"internalType": "uint256",
					"name": "_startDate",
					"type": "uint256"
				},
				{
					"internalType": "uint256",
					"name": "_endDate",
					"type": "uint256"
				}
			],
			"name": "addMedication",
			"outputs": [
				{
					"internalType": "uint256",
					"name": "",
					"type": "uint256"
				}
			],
			"stateMutability": "nonpayable",
			"type": "function"
		},
		{
			"inputs": [
				{
					"internalType": "string",
					"name": "_encryptedDataIpfsHash",
					"type": "string"
				},
				{
					"internalType": "string",
					"name": "_encryptedFileIpfsHash",
					"type": "string"
				},
				{
					"internalType": "enum HealthWalletV2_Secure.ReportType",
					"name": "_reportType",
					"type": "uint8"
				},
				{
					"internalType": "bool",
					"name": "_hasFile",
					"type": "bool"
				},
				{
					"internalType": "uint256",
					"name": "_reportDate",
					"type": "uint256"
				}
			],
			"name": "addReport",
			"outputs": [
				{
					"internalType": "uint256",
					"name": "",
					"type": "uint256"
				}
			],
			"stateMutability": "nonpayable",
			"type": "function"
		},
		{
			"inputs": [
				{
					"internalType": "string",
					"name": "_encryptedDataIpfsHash",
					"type": "string"
				},
				{
					"internalType": "string",
					"name": "_encryptedCertificateIpfsHash",
					"type": "string"
				},
				{
					"internalType": "uint256",
					"name": "_vaccinationDate",
					"type": "uint256"
				}
			],
			"name": "addVaccination",
			"outputs": [
				{
					"internalType": "uint256",
					"name": "",
					"type": "uint256"
				}
			],
			"stateMutability": "nonpayable",
			"type": "function"
		},
		{
			"inputs": [
				{
					"internalType": "uint256",
					"name": "_logId",
					"type": "uint256"
				}
			],
			"name": "getAccessLog",
			"outputs": [
				{
					"components": [
						{
							"internalType": "uint256",
							"name": "id",
							"type": "uint256"
						},
						{
							"internalType": "address",
							"name": "accessorAddress",
							"type": "address"
						},
						{
							"internalType": "string",
							"name": "encryptedDetailsIpfsHash",
							"type": "string"
						},
						{
							"internalType": "enum HealthWalletV2_Secure.DataCategory",
							"name": "accessedCategory",
							"type": "uint8"
						},
						{
							"internalType": "uint256",
							"name": "accessTime",
							"type": "uint256"
						},
						{
							"internalType": "bytes32",
							"name": "dataIntegrityHash",
							"type": "bytes32"
						}
					],
					"internalType": "struct HealthWalletV2_Secure.AccessLog",
					"name": "",
					"type": "tuple"
				}
			],
			"stateMutability": "view",
			"type": "function"
		},
		{
			"inputs": [
				{
					"internalType": "address",
					"name": "_user",
					"type": "address"
				}
			],
			"name": "getAccessLogIds",
			"outputs": [
				{
					"internalType": "uint256[]",
					"name": "",
					"type": "uint256[]"
				}
			],
			"stateMutability": "view",
			"type": "function"
		},
		{
			"inputs": [
				{
					"internalType": "address",
					"name": "_user",
					"type": "address"
				}
			],
			"name": "getEmergencyContact",
			"outputs": [
				{
					"internalType": "address",
					"name": "",
					"type": "address"
				}
			],
			"stateMutability": "view",
			"type": "function"
		},
		{
			"inputs": [
				{
					"internalType": "address",
					"name": "_user",
					"type": "address"
				}
			],
			"name": "getMedicationIds",
			"outputs": [
				{
					"internalType": "uint256[]",
					"name": "",
					"type": "uint256[]"
				}
			],
			"stateMutability": "view",
			"type": "function"
		},
		{
			"inputs": [
				{
					"internalType": "uint256",
					"name": "_medicationId",
					"type": "uint256"
				}
			],
			"name": "getMedicationRef",
			"outputs": [
				{
					"components": [
						{
							"internalType": "uint256",
							"name": "id",
							"type": "uint256"
						},
						{
							"internalType": "string",
							"name": "encryptedDataIpfsHash",
							"type": "string"
						},
						{
							"internalType": "bool",
							"name": "isActive",
							"type": "bool"
						},
						{
							"internalType": "uint256",
							"name": "startDate",
							"type": "uint256"
						},
						{
							"internalType": "uint256",
							"name": "endDate",
							"type": "uint256"
						},
						{
							"internalType": "uint256",
							"name": "createdAt",
							"type": "uint256"
						}
					],
					"internalType": "struct HealthWalletV2_Secure.MedicationRecordRef",
					"name": "",
					"type": "tuple"
				}
			],
			"stateMutability": "view",
			"type": "function"
		},
		{
			"inputs": [
				{
					"internalType": "address",
					"name": "_user",
					"type": "address"
				}
			],
			"name": "getPersonalInfoRef",
			"outputs": [
				{
					"components": [
						{
							"internalType": "string",
							"name": "encryptedDataIpfsHash",
							"type": "string"
						},
						{
							"internalType": "bytes32",
							"name": "publicKeyHash",
							"type": "bytes32"
						},
						{
							"internalType": "uint256",
							"name": "createdAt",
							"type": "uint256"
						},
						{
							"internalType": "uint256",
							"name": "lastUpdated",
							"type": "uint256"
						},
						{
							"internalType": "bool",
							"name": "exists",
							"type": "bool"
						}
					],
					"internalType": "struct HealthWalletV2_Secure.PersonalInfoRef",
					"name": "",
					"type": "tuple"
				}
			],
			"stateMutability": "view",
			"type": "function"
		},
		{
			"inputs": [
				{
					"internalType": "address",
					"name": "_user",
					"type": "address"
				}
			],
			"name": "getReportIds",
			"outputs": [
				{
					"internalType": "uint256[]",
					"name": "",
					"type": "uint256[]"
				}
			],
			"stateMutability": "view",
			"type": "function"
		},
		{
			"inputs": [
				{
					"internalType": "uint256",
					"name": "_reportId",
					"type": "uint256"
				}
			],
			"name": "getReportRef",
			"outputs": [
				{
					"components": [
						{
							"internalType": "uint256",
							"name": "id",
							"type": "uint256"
						},
						{
							"internalType": "string",
							"name": "encryptedDataIpfsHash",
							"type": "string"
						},
						{
							"internalType": "string",
							"name": "encryptedFileIpfsHash",
							"type": "string"
						},
						{
							"internalType": "enum HealthWalletV2_Secure.ReportType",
							"name": "reportType",
							"type": "uint8"
						},
						{
							"internalType": "bool",
							"name": "hasFile",
							"type": "bool"
						},
						{
							"internalType": "uint256",
							"name": "reportDate",
							"type": "uint256"
						},
						{
							"internalType": "uint256",
							"name": "createdAt",
							"type": "uint256"
						}
					],
					"internalType": "struct HealthWalletV2_Secure.MedicalReportRef",
					"name": "",
					"type": "tuple"
				}
			],
			"stateMutability": "view",
			"type": "function"
		},
		{
			"inputs": [
				{
					"internalType": "bytes32",
					"name": "role",
					"type": "bytes32"
				}
			],
			"name": "getRoleAdmin",
			"outputs": [
				{
					"internalType": "bytes32",
					"name": "",
					"type": "bytes32"
				}
			],
			"stateMutability": "view",
			"type": "function"
		},
		{
			"inputs": [
				{
					"internalType": "address",
					"name": "_user",
					"type": "address"
				}
			],
			"name": "getShareIds",
			"outputs": [
				{
					"internalType": "uint256[]",
					"name": "",
					"type": "uint256[]"
				}
			],
			"stateMutability": "view",
			"type": "function"
		},
		{
			"inputs": [
				{
					"internalType": "uint256",
					"name": "_shareId",
					"type": "uint256"
				}
			],
			"name": "getShareRecord",
			"outputs": [
				{
					"components": [
						{
							"internalType": "uint256",
							"name": "id",
							"type": "uint256"
						},
						{
							"internalType": "address",
							"name": "recipientAddress",
							"type": "address"
						},
						{
							"internalType": "bytes32",
							"name": "recipientNameHash",
							"type": "bytes32"
						},
						{
							"internalType": "string",
							"name": "encryptedRecipientDataIpfsHash",
							"type": "string"
						},
						{
							"internalType": "enum HealthWalletV2_Secure.RecipientType",
							"name": "recipientType",
							"type": "uint8"
						},
						{
							"internalType": "enum HealthWalletV2_Secure.DataCategory",
							"name": "sharedDataCategory",
							"type": "uint8"
						},
						{
							"internalType": "uint256",
							"name": "shareDate",
							"type": "uint256"
						},
						{
							"internalType": "uint256",
							"name": "expiryDate",
							"type": "uint256"
						},
						{
							"internalType": "enum HealthWalletV2_Secure.AccessLevel",
							"name": "accessLevel",
							"type": "uint8"
						},
						{
							"internalType": "enum HealthWalletV2_Secure.ShareStatus",
							"name": "status",
							"type": "uint8"
						},
						{
							"internalType": "string",
							"name": "encryptedCategoryKey",
							"type": "string"
						}
					],
					"internalType": "struct HealthWalletV2_Secure.ShareRecord",
					"name": "",
					"type": "tuple"
				}
			],
			"stateMutability": "view",
			"type": "function"
		},
		{
			"inputs": [],
			"name": "getTotalCounts",
			"outputs": [
				{
					"internalType": "uint256",
					"name": "medications",
					"type": "uint256"
				},
				{
					"internalType": "uint256",
					"name": "vaccinations",
					"type": "uint256"
				},
				{
					"internalType": "uint256",
					"name": "reports",
					"type": "uint256"
				},
				{
					"internalType": "uint256",
					"name": "shares",
					"type": "uint256"
				},
				{
					"internalType": "uint256",
					"name": "totalAccessLogs",
					"type": "uint256"
				}
			],
			"stateMutability": "view",
			"type": "function"
		},
		{
			"inputs": [
				{
					"internalType": "address",
					"name": "_user",
					"type": "address"
				}
			],
			"name": "getVaccinationIds",
			"outputs": [
				{
					"internalType": "uint256[]",
					"name": "",
					"type": "uint256[]"
				}
			],
			"stateMutability": "view",
			"type": "function"
		},
		{
			"inputs": [
				{
					"internalType": "uint256",
					"name": "_vaccinationId",
					"type": "uint256"
				}
			],
			"name": "getVaccinationRef",
			"outputs": [
				{
					"components": [
						{
							"internalType": "uint256",
							"name": "id",
							"type": "uint256"
						},
						{
							"internalType": "string",
							"name": "encryptedDataIpfsHash",
							"type": "string"
						},
						{
							"internalType": "string",
							"name": "encryptedCertificateIpfsHash",
							"type": "string"
						},
						{
							"internalType": "uint256",
							"name": "vaccinationDate",
							"type": "uint256"
						},
						{
							"internalType": "uint256",
							"name": "createdAt",
							"type": "uint256"
						}
					],
					"internalType": "struct HealthWalletV2_Secure.VaccinationRecordRef",
					"name": "",
					"type": "tuple"
				}
			],
			"stateMutability": "view",
			"type": "function"
		},
		{
			"inputs": [
				{
					"internalType": "bytes32",
					"name": "role",
					"type": "bytes32"
				},
				{
					"internalType": "address",
					"name": "account",
					"type": "address"
				}
			],
			"name": "grantRole",
			"outputs": [],
			"stateMutability": "nonpayable",
			"type": "function"
		},
		{
			"inputs": [
				{
					"internalType": "address",
					"name": "_user",
					"type": "address"
				}
			],
			"name": "hasPersonalInfo",
			"outputs": [
				{
					"internalType": "bool",
					"name": "",
					"type": "bool"
				}
			],
			"stateMutability": "view",
			"type": "function"
		},
		{
			"inputs": [
				{
					"internalType": "bytes32",
					"name": "role",
					"type": "bytes32"
				},
				{
					"internalType": "address",
					"name": "account",
					"type": "address"
				}
			],
			"name": "hasRole",
			"outputs": [
				{
					"internalType": "bool",
					"name": "",
					"type": "bool"
				}
			],
			"stateMutability": "view",
			"type": "function"
		},
		{
			"inputs": [
				{
					"internalType": "address",
					"name": "_owner",
					"type": "address"
				},
				{
					"internalType": "string",
					"name": "_encryptedDetailsIpfsHash",
					"type": "string"
				},
				{
					"internalType": "enum HealthWalletV2_Secure.DataCategory",
					"name": "_accessedCategory",
					"type": "uint8"
				},
				{
					"internalType": "bytes32",
					"name": "_dataIntegrityHash",
					"type": "bytes32"
				}
			],
			"name": "logDataAccess",
			"outputs": [
				{
					"internalType": "uint256",
					"name": "",
					"type": "uint256"
				}
			],
			"stateMutability": "nonpayable",
			"type": "function"
		},
		{
			"inputs": [],
			"name": "owner",
			"outputs": [
				{
					"internalType": "address",
					"name": "",
					"type": "address"
				}
			],
			"stateMutability": "view",
			"type": "function"
		},
		{
			"inputs": [],
			"name": "pause",
			"outputs": [],
			"stateMutability": "nonpayable",
			"type": "function"
		},
		{
			"inputs": [],
			"name": "paused",
			"outputs": [
				{
					"internalType": "bool",
					"name": "",
					"type": "bool"
				}
			],
			"stateMutability": "view",
			"type": "function"
		},
		{
			"inputs": [
				{
					"internalType": "address",
					"name": "_auditor",
					"type": "address"
				}
			],
			"name": "registerAuditor",
			"outputs": [],
			"stateMutability": "nonpayable",
			"type": "function"
		},
		{
			"inputs": [
				{
					"internalType": "address",
					"name": "_clinic",
					"type": "address"
				}
			],
			"name": "registerClinic",
			"outputs": [],
			"stateMutability": "nonpayable",
			"type": "function"
		},
		{
			"inputs": [
				{
					"internalType": "address",
					"name": "_provider",
					"type": "address"
				}
			],
			"name": "registerHealthcareProvider",
			"outputs": [],
			"stateMutability": "nonpayable",
			"type": "function"
		},
		{
			"inputs": [
				{
					"internalType": "address",
					"name": "_hospital",
					"type": "address"
				}
			],
			"name": "registerHospital",
			"outputs": [],
			"stateMutability": "nonpayable",
			"type": "function"
		},
		{
			"inputs": [
				{
					"internalType": "address",
					"name": "_insurance",
					"type": "address"
				}
			],
			"name": "registerInsurance",
			"outputs": [],
			"stateMutability": "nonpayable",
			"type": "function"
		},
		{
			"inputs": [],
			"name": "renounceOwnership",
			"outputs": [],
			"stateMutability": "nonpayable",
			"type": "function"
		},
		{
			"inputs": [
				{
					"internalType": "bytes32",
					"name": "role",
					"type": "bytes32"
				},
				{
					"internalType": "address",
					"name": "callerConfirmation",
					"type": "address"
				}
			],
			"name": "renounceRole",
			"outputs": [],
			"stateMutability": "nonpayable",
			"type": "function"
		},
		{
			"inputs": [
				{
					"internalType": "address",
					"name": "_entity",
					"type": "address"
				},
				{
					"internalType": "bytes32",
					"name": "_role",
					"type": "bytes32"
				}
			],
			"name": "revokeEntityRole",
			"outputs": [],
			"stateMutability": "nonpayable",
			"type": "function"
		},
		{
			"inputs": [
				{
					"internalType": "bytes32",
					"name": "role",
					"type": "bytes32"
				},
				{
					"internalType": "address",
					"name": "account",
					"type": "address"
				}
			],
			"name": "revokeRole",
			"outputs": [],
			"stateMutability": "nonpayable",
			"type": "function"
		},
		{
			"inputs": [
				{
					"internalType": "uint256",
					"name": "_shareId",
					"type": "uint256"
				}
			],
			"name": "revokeShare",
			"outputs": [],
			"stateMutability": "nonpayable",
			"type": "function"
		},
		{
			"inputs": [
				{
					"internalType": "address",
					"name": "_emergencyContact",
					"type": "address"
				}
			],
			"name": "setEmergencyContact",
			"outputs": [],
			"stateMutability": "nonpayable",
			"type": "function"
		},
		{
			"inputs": [
				{
					"internalType": "string",
					"name": "_encryptedDataIpfsHash",
					"type": "string"
				},
				{
					"internalType": "bytes32",
					"name": "_publicKeyHash",
					"type": "bytes32"
				}
			],
			"name": "setPersonalInfo",
			"outputs": [],
			"stateMutability": "nonpayable",
			"type": "function"
		},
		{
			"inputs": [
				{
					"internalType": "address",
					"name": "_recipientAddress",
					"type": "address"
				},
				{
					"internalType": "bytes32",
					"name": "_recipientNameHash",
					"type": "bytes32"
				},
				{
					"internalType": "string",
					"name": "_encryptedRecipientDataIpfsHash",
					"type": "string"
				},
				{
					"internalType": "enum HealthWalletV2_Secure.RecipientType",
					"name": "_recipientType",
					"type": "uint8"
				},
				{
					"internalType": "enum HealthWalletV2_Secure.DataCategory",
					"name": "_dataCategory",
					"type": "uint8"
				},
				{
					"internalType": "uint256",
					"name": "_expiryDate",
					"type": "uint256"
				},
				{
					"internalType": "enum HealthWalletV2_Secure.AccessLevel",
					"name": "_accessLevel",
					"type": "uint8"
				},
				{
					"internalType": "string",
					"name": "_encryptedCategoryKey",
					"type": "string"
				}
			],
			"name": "shareData",
			"outputs": [
				{
					"internalType": "uint256",
					"name": "",
					"type": "uint256"
				}
			],
			"stateMutability": "nonpayable",
			"type": "function"
		},
		{
			"inputs": [
				{
					"internalType": "bytes4",
					"name": "interfaceId",
					"type": "bytes4"
				}
			],
			"name": "supportsInterface",
			"outputs": [
				{
					"internalType": "bool",
					"name": "",
					"type": "bool"
				}
			],
			"stateMutability": "view",
			"type": "function"
		},
		{
			"inputs": [
				{
					"internalType": "address",
					"name": "newOwner",
					"type": "address"
				}
			],
			"name": "transferOwnership",
			"outputs": [],
			"stateMutability": "nonpayable",
			"type": "function"
		},
		{
			"inputs": [],
			"name": "unpause",
			"outputs": [],
			"stateMutability": "nonpayable",
			"type": "function"
		},
		{
			"inputs": [
				{
					"internalType": "uint256",
					"name": "_medicationId",
					"type": "uint256"
				},
				{
					"internalType": "string",
					"name": "_encryptedDataIpfsHash",
					"type": "string"
				},
				{
					"internalType": "bool",
					"name": "_isActive",
					"type": "bool"
				},
				{
					"internalType": "uint256",
					"name": "_startDate",
					"type": "uint256"
				},
				{
					"internalType": "uint256",
					"name": "_endDate",
					"type": "uint256"
				}
			],
			"name": "updateMedication",
			"outputs": [],
			"stateMutability": "nonpayable",
			"type": "function"
		},
		{
			"inputs": [
				{
					"internalType": "uint256",
					"name": "_reportId",
					"type": "uint256"
				},
				{
					"internalType": "string",
					"name": "_encryptedDataIpfsHash",
					"type": "string"
				},
				{
					"internalType": "string",
					"name": "_encryptedFileIpfsHash",
					"type": "string"
				},
				{
					"internalType": "enum HealthWalletV2_Secure.ReportType",
					"name": "_reportType",
					"type": "uint8"
				},
				{
					"internalType": "bool",
					"name": "_hasFile",
					"type": "bool"
				},
				{
					"internalType": "uint256",
					"name": "_reportDate",
					"type": "uint256"
				}
			],
			"name": "updateReport",
			"outputs": [],
			"stateMutability": "nonpayable",
			"type": "function"
		},
		{
			"inputs": [
				{
					"internalType": "uint256",
					"name": "_vaccinationId",
					"type": "uint256"
				},
				{
					"internalType": "string",
					"name": "_encryptedDataIpfsHash",
					"type": "string"
				},
				{
					"internalType": "string",
					"name": "_encryptedCertificateIpfsHash",
					"type": "string"
				},
				{
					"internalType": "uint256",
					"name": "_vaccinationDate",
					"type": "uint256"
				}
			],
			"name": "updateVaccination",
			"outputs": [],
			"stateMutability": "nonpayable",
			"type": "function"
		}
	]
}