{
	"data": {
		"bytecode": {
			"linkReferences": {},
			"object": "608060405234801561001057600080fd5b50338061003757604051631e4fbdf760e01b81526000600482015260240160405180910390fd5b61004081610057565b5060016002556100516000336100a7565b5061013c565b600080546001600160a01b038381166001600160a01b0319831681178455604051919092169283917f8be0079c531659141344cd1fd0a4f28419497f9722a3daafe3b4186f6b6457e09190a35050565b60008281526001602090815260408083206001600160a01b038516845290915281205460ff166101325760008381526001602081815260408084206001600160a01b0387168086529252808420805460ff19169093179092559051339286917f2f8788117e7eff1d82e926ec794901d17c78024a50270940304540a733656f0d9190a4506001610136565b5060005b92915050565b61479d8061014b6000396000f3fe608060405234801561001057600080fd5b50600436106102675760003560e01c806301ffc9a71461026c5780630402e73514610294578063045af334146102b7578063052a01f6146102ee57806311231fe01461030357806318b98101146103235780632436a5d714610343578063248a9ca3146103565780632c81df05146103695780632f2ff15d146103a25780632f4afbad146103b557806336568abe146103c85780633f4ba83a146103db578063420b23a2146103e357806348def2f7146103f65780634adbe62c1461040957806350038737146104295780635c975abb1461043c578063627e86f214610447578063685d5b8b146104675780636e1d616e14610487578063715018a61461049c5780637e0ecee0146104a45780637e14f8cd146104b757806382673e77146104ca5780638456cb59146104df57806386c4aea2146104e75780638939f898146104fa5780638da5cb5b1461050d57806391284a891461051557806391d1485414610528578063a217fddf1461053b578063a65b27db14610543578063aa361c2814610556578063aa83f4d814610576578063b3568f3214610589578063b752a74b1461059c578063b85d4af0146105b1578063c5b99858146105c4578063c77a5a97146105d7578063d3e5ec4b146105fa578063d547741f1461060d578063df015dc114610620578063df9a4f5614610633578063e40383ec14610646578063e653d37514610659578063ee67e73d14610679578063f17245f914610699578063f2e8790b146106c8578063f2fde38b146106db578063f6871d9e146106ee578063f6ba667814610701578063fbffa2f414610716575b600080fd5b61027f61027a3660046138ab565b610729565b60405190151581526020015b60405180910390f35b6102a96000805160206146a883398151915281565b60405190815260200161028b565b600454600554600654600754600854604080519586526020860194909452928401919091526060830152608082015260a00161028b565b6103016102fc3660046138f1565b610760565b005b6103166103113660046138f1565b6107c6565b60405161028b9190613952565b6103366103313660046138f1565b6108d9565b60405161028b9190613965565b610301610351366004613a4b565b61098a565b6102a9610364366004613ab2565b610af9565b6103956103773660046138f1565b6001600160a01b039081166000908152601a60205260409020541690565b60405161028b9190613ad8565b6103016103b0366004613aec565b610b0f565b6103366103c33660046138f1565b610b31565b6103016103d6366004613aec565b610be1565b610301610c14565b6102a96103f1366004613b28565b610c2a565b6102a9610404366004613b84565b610d92565b61041c610417366004613ab2565b610f75565b60405161028b9190613bef565b610301610437366004613ab2565b611107565b60035460ff1661027f565b61045a610455366004613ab2565b611193565b60405161028b9190613c4b565b61047a610475366004613ab2565b611395565b60405161028b9190613cd9565b6102a960008051602061470883398151915281565b61030161150c565b6103016104b23660046138f1565b611520565b6102a96104c5366004613d44565b61157a565b6102a960008051602061472883398151915281565b6103016116cb565b6103016104f5366004613db5565b6116de565b6102a9610508366004613e3c565b611795565b610395611976565b6103016105233660046138f1565b611985565b61027f610536366004613aec565b611a02565b6102a9600081565b610301610551366004613ef7565b611a2d565b610569610564366004613ab2565b611aed565b60405161028b9190613f8f565b6103366105843660046138f1565b611e1b565b6103016105973660046138f1565b611ecb565b6102a96000805160206146e883398151915281565b6103366105bf3660046138f1565b611f25565b6103016105d23660046138f1565b611fd5565b6105ea6105e53660046138f1565b61202f565b60405161028b9493929190614082565b6103016106083660046140b3565b6120e4565b61030161061b366004613aec565b6121ee565b61033661062e3660046138f1565b61220a565b6103016106413660046138f1565b6122ba565b6102a9610654366004614197565b612314565b61066c610667366004613ab2565b6128a8565b60405161028b9190614274565b61068c6106873660046138f1565b612b5d565b60405161028b919061430d565b61027f6106a73660046138f1565b6001600160a01b031660009081526009602052604090206003015460ff1690565b6103366106d63660046138f1565b612db5565b6103016106e93660046138f1565b612f7c565b6103016106fc366004614366565b612fb7565b6102a960008051602061474883398151915281565b610301610724366004614390565b613007565b60006001600160e01b03198216637965db0b60e01b148061075a57506301ffc9a760e01b6001600160e01b03198316145b92915050565b600061076b81613157565b6107836000805160206146a883398151915283610b0f565b816001600160a01b03166000805160206146c88339815191526000805160206146a88339815191526040516107ba91815260200190565b60405180910390a25050565b6001600160a01b0381166000908152600a602052604090206003015460609060ff1661082e5760405162461bcd60e51b8152602060048201526012602482015271141d589b1a58c81ad95e481b9bdd081cd95d60721b60448201526064015b60405180910390fd5b6001600160a01b0382166000908152600a602052604090206001018054610854906143d4565b80601f0160208091040260200160405190810160405280929190818152602001828054610880906143d4565b80156108cd5780601f106108a2576101008083540402835291602001916108cd565b820191906000526020600020905b8154815290600101906020018083116108b057829003601f168201915b50505050509050919050565b6060336001600160a01b0383161480610905575061090560008051602061470883398151915233611a02565b6109215760405162461bcd60e51b81526004016108259061440e565b6001600160a01b0382166000908152600f6020908152604091829020805483518184028101840190945280845290918301828280156108cd57602002820191906000526020600020905b81548152602001906001019080831161096b5750505050509050919050565b610992613161565b3360009081526009602052604090206003015460ff16158015610a7c576040805160a081018252848152426020808301829052828401919091526001606083015260808201859052336000908152600990915291909120815181906109f7908261447f565b506020820151600182015560408201516002820155606082015160038201805460ff191691151591909117905560808201516004820190610a38908261447f565b50506040513391507f5df23ea22902b85acdb8170e942605ab253b9f31accc498d0a7c3a43d300c67590610a6f908690429061453d565b60405180910390a2505050565b336000908152600960205260409020610a95848261447f565b50336000908152600960205260409020426002820155600401610ab8838261447f565b50336001600160a01b03167f4bb993e40976c9f9359a7e8001431c7b30c1645654767bfd93570c6795ab5abd8442604051610a6f92919061453d565b505050565b6000908152600160208190526040909120015490565b610b1882610af9565b610b2181613157565b610b2b8383613185565b50505050565b6060336001600160a01b0383161480610b5d5750610b5d60008051602061470883398151915233611a02565b610b795760405162461bcd60e51b81526004016108259061440e565b6001600160a01b0382166000908152600d6020908152604091829020805483518184028101840190945280845290918301828280156108cd576020028201919060005260206000209081548152602001906001019080831161096b5750505050509050919050565b6001600160a01b0381163314610c0a5760405163334bd91960e11b815260040160405180910390fd5b610af482826131fe565b6000610c1f81613157565b610c2761326b565b50565b6000610c34613161565b3360009081526009602052604090206003015460ff16610c665760405162461bcd60e51b81526004016108259061455f565b60048054906000610c7683614596565b90915550506004546040805160c08101825282815260208082018981528815158385015260608301889052608083018790524260a08401526000858152600c9092529290208151815591519091906001820190610cd3908261447f565b5060408281015160028301805460ff1916911515919091179055606083015160038301556080830151600483015560a0909201516005909101556000828152601560209081528282208054336001600160a01b03199091168117909155808352600b82528383208054600181018255908452919092200183905590518291907fb9e5855c05b4297baf0b4f6174bd05a6bd6d2e22a10a228d364b4350dcee191890610d7f908a90613952565b60405180910390a390505b949350505050565b6000610d9c613161565b336001600160a01b0386161480610dc65750610dc660008051602061470883398151915233611a02565b610e025760405162461bcd60e51b815260206004820152600d60248201526c2737903832b936b4b9b9b4b7b760991b6044820152606401610825565b60088054906000610e1283614596565b90915550506008546040805160c08101825282815233602082015290810186905260608101856004811115610e4957610e49613caf565b815242602080830191909152604091820186905260008481526014825282902083518155908301516001820180546001600160a01b0319166001600160a01b03909216919091179055908201516002820190610ea5908261447f565b50606082015160038201805460ff19166001836004811115610ec957610ec9613caf565b02179055506080820151600482015560a090910151600590910155600081815260196020908152604080832080546001600160a01b0319166001600160a01b038b169081179091558084526013835281842080546001810182559085529290932090910183905551829133917fcc936e965cb312f996247a9f5c0929b57c3078f4d25f38c1e1fa8171238e54a790610f6490899042906145af565b60405180910390a495945050505050565b610fb06040518060c0016040528060008152602001606081526020016000151581526020016000815260200160008152602001600081525090565b6000828152601560205260409020546001600160a01b031633811480610fe95750610fe960008051602061470883398151915233611a02565b80610ffc5750610ffc81336001866132b7565b6110185760405162461bcd60e51b81526004016108259061440e565b600c60008481526020019081526020016000206040518060c001604052908160008201548152602001600182018054611050906143d4565b80601f016020809104026020016040519081016040528092919081815260200182805461107c906143d4565b80156110c95780601f1061109e576101008083540402835291602001916110c9565b820191906000526020600020905b8154815290600101906020018083116110ac57829003601f168201915b5050509183525050600282015460ff161515602082015260038201546040820152600482015460608201526005909101546080909101529392505050565b61110f613161565b60008181526018602052604090205481906001600160a01b031633146111475760405162461bcd60e51b8152600401610825906145ca565b600082815260126020526040808220600901805461ff00191661020017905551839133917fecc5422bdbc6a29eb33382a149718b65f504d9ebfc6aa2d2b142bcc6ad837a6b9190a35050565b6111c56040518060a0016040528060008152602001606081526020016060815260200160008152602001600081525090565b6000828152601660205260409020546001600160a01b0316338114806111fe57506111fe60008051602061470883398151915233611a02565b80611211575061121181336002866132b7565b61122d5760405162461bcd60e51b81526004016108259061440e565b600e60008481526020019081526020016000206040518060a001604052908160008201548152602001600182018054611265906143d4565b80601f0160208091040260200160405190810160405280929190818152602001828054611291906143d4565b80156112de5780601f106112b3576101008083540402835291602001916112de565b820191906000526020600020905b8154815290600101906020018083116112c157829003601f168201915b505050505081526020016002820180546112f7906143d4565b80601f0160208091040260200160405190810160405280929190818152602001828054611323906143d4565b80156113705780601f1061134557610100808354040283529160200191611370565b820191906000526020600020905b81548152906001019060200180831161135357829003601f168201915b5050505050815260200160038201548152602001600482015481525050915050919050565b61139d61378b565b6000828152601960205260409020546001600160a01b0316338114806113d657506113d660008051602061470883398151915233611a02565b6113f25760405162461bcd60e51b8152600401610825906145ed565b600083815260146020908152604091829020825160c0810184528154815260018201546001600160a01b031692810192909252600281018054929391929184019161143c906143d4565b80601f0160208091040260200160405190810160405280929190818152602001828054611468906143d4565b80156114b55780601f1061148a576101008083540402835291602001916114b5565b820191906000526020600020905b81548152906001019060200180831161149857829003601f168201915b5050509183525050600382015460209091019060ff1660048111156114dc576114dc613caf565b60048111156114ed576114ed613caf565b8152600482015460208201526005909101546040909101529392505050565b61151461366c565b61151e600061369e565b565b600061152b81613157565b6115436000805160206146e883398151915283610b0f565b816001600160a01b03166000805160206146c88339815191526000805160206146e88339815191526040516107ba91815260200190565b6000611584613161565b3360009081526009602052604090206003015460ff166115b65760405162461bcd60e51b81526004016108259061455f565b600580549060006115c683614596565b90915550506005546040805160a0810182528281526020808201888152828401889052606083018790524260808401526000858152600e909252929020815181559151909190600182019061161b908261447f565b5060408201516002820190611630908261447f565b5060608201516003820155608090910151600490910155600081815260166020908152604080832080546001600160a01b03191633908117909155808452600d8352818420805460018101825590855292909320909101839055518291907f248b56445b6b2964c05eb68404feebe918d6d28de7f6386fc4cabb9e0b70d500906116bb908990613952565b60405180910390a3949350505050565b60006116d681613157565b610c276136ee565b6116e6613161565b60008481526016602052604090205484906001600160a01b0316331461171e5760405162461bcd60e51b8152600401610825906145ca565b6000858152600e602052604090206001810161173a868261447f565b5060028101611749858261447f565b5060038101839055604051869033907f44f08082ef5253266e365753c1e7cea2b4bb2025062f0cf4e2288fc811d941c890611785908990613952565b60405180910390a3505050505050565b600061179f613161565b3360009081526009602052604090206003015460ff166117d15760405162461bcd60e51b81526004016108259061455f565b600680549060006117e183614596565b91905055506000600654905060405180610100016040528082815260200189815260200188815260200187600781111561181d5761181d613caf565b8152861515602080830191909152604080830188905242606084015260809092018690526000848152601082529190912082518155908201516001820190611865908261447f565b506040820151600282019061187a908261447f565b50606082015160038201805460ff1916600183600781111561189e5761189e613caf565b021790555060808201516003820180549115156101000261ff001990921691909117905560a0820151600482015560c0820151600582015560e082015160068201906118ea908261447f565b505050600081815260176020908152604080832080546001600160a01b03191633908117909155808452600f8352818420805460018101825590855292909320909101839055518291907f7e2ac09f9bde6130ff92917c5d2cc031afbba4154566e196417aa56eb041679390611963908a908d9061460e565b60405180910390a3979650505050505050565b6000546001600160a01b031690565b6001600160a01b0381166119ab5760405162461bcd60e51b81526004016108259061462e565b336000818152601a602052604080822080546001600160a01b0319166001600160a01b03861690811790915590519092917ff0e65fe0d2436800e6455b857dbfbc38741836ade6b9bf9b8177b377317c1d5e91a350565b60009182526001602090815260408084206001600160a01b0393909316845291905290205460ff1690565b611a35613161565b60008581526015602052604090205485906001600160a01b03163314611a6d5760405162461bcd60e51b8152600401610825906145ca565b6000868152600c6020526040902060018101611a89878261447f565b5060028101805460ff19168615151790556003810184905560048101839055604051879033907f4d3508c2ade1f9d136f8852a5ed95ace66534d58ab56c35dd69e8ae6ecc8a71190611adc908a90613952565b60405180910390a350505050505050565b611af56137db565b6000828152601860205260409020546001600160a01b031633811480611b3457506000838152601260205260409020600201546001600160a01b031633145b80611b525750611b5260008051602061470883398151915233611a02565b611b6e5760405162461bcd60e51b8152600401610825906145ed565b600083815260126020908152604080832081516101a0810183528154815260018201546001600160a01b039081169482019490945260028201549093169183019190915260038101546060830152600481018054608084019190611bd1906143d4565b80601f0160208091040260200160405190810160405280929190818152602001828054611bfd906143d4565b8015611c4a5780601f10611c1f57610100808354040283529160200191611c4a565b820191906000526020600020905b815481529060010190602001808311611c2d57829003601f168201915b5050509183525050600582015460209091019060ff166006811115611c7157611c71613caf565b6006811115611c8257611c82613caf565b81526020016005820160019054906101000a900460ff166003811115611caa57611caa613caf565b6003811115611cbb57611cbb613caf565b8152600682015460208201526007820154604082015260088201546060820152600982015460809091019060ff166002811115611cfa57611cfa613caf565b6002811115611d0b57611d0b613caf565b81526020016009820160019054906101000a900460ff166002811115611d3357611d33613caf565b6002811115611d4457611d44613caf565b8152602001600a82018054611d58906143d4565b80601f0160208091040260200160405190810160405280929190818152602001828054611d84906143d4565b8015611dd15780601f10611da657610100808354040283529160200191611dd1565b820191906000526020600020905b815481529060010190602001808311611db457829003601f168201915b505050505081525050905080610120015142118015611e06575060008161016001516002811115611e0457611e04613caf565b145b15611e145760016101608201525b9392505050565b6060336001600160a01b0383161480611e475750611e4760008051602061470883398151915233611a02565b611e635760405162461bcd60e51b8152600401610825906145ed565b6001600160a01b038216600090815260116020908152604091829020805483518184028101840190945280845290918301828280156108cd576020028201919060005260206000209081548152602001906001019080831161096b5750505050509050919050565b6000611ed681613157565b611eee60008051602061472883398151915283610b0f565b816001600160a01b03166000805160206146c88339815191526000805160206147288339815191526040516107ba91815260200190565b6060336001600160a01b0383161480611f515750611f5160008051602061470883398151915233611a02565b611f6d5760405162461bcd60e51b8152600401610825906145ed565b6001600160a01b038216600090815260136020908152604091829020805483518184028101840190945280845290918301828280156108cd576020028201919060005260206000209081548152602001906001019080831161096b5750505050509050919050565b6000611fe081613157565b611ff860008051602061474883398151915283610b0f565b816001600160a01b03166000805160206146c88339815191526000805160206147488339815191526040516107ba91815260200190565b600a6020526000908152604090208054600182018054919291612051906143d4565b80601f016020809104026020016040519081016040528092919081815260200182805461207d906143d4565b80156120ca5780601f1061209f576101008083540402835291602001916120ca565b820191906000526020600020905b8154815290600101906020018083116120ad57829003601f168201915b50505050600283015460039093015491929160ff16905084565b6120ec613161565b60008781526017602052604090205487906001600160a01b031633146121245760405162461bcd60e51b8152600401610825906145ca565b600088815260106020526040902060018101612140898261447f565b506002810161214f888261447f565b5060038101805487919060ff1916600183600781111561217157612171613caf565b021790555060038101805461ff0019166101008715150217905560048101849055600681016121a0848261447f565b5088336001600160a01b03167f0194f475ed1a7936bc502c5f68be59ab8b4e5ef3adc105d56862f112b1547f258a6040516121db9190613952565b60405180910390a3505050505050505050565b6121f782610af9565b61220081613157565b610b2b83836131fe565b6060336001600160a01b0383161480612236575061223660008051602061470883398151915233611a02565b6122525760405162461bcd60e51b81526004016108259061440e565b6001600160a01b0382166000908152600b6020908152604091829020805483518184028101840190945280845290918301828280156108cd576020028201919060005260206000209081548152602001906001019080831161096b5750505050509050919050565b60006122c581613157565b6122dd60008051602061470883398151915283610b0f565b816001600160a01b03166000805160206146c88339815191526000805160206147088339815191526040516107ba91815260200190565b600061231e613161565b3360009081526009602052604090206003015460ff166123505760405162461bcd60e51b81526004016108259061455f565b6001600160a01b038a166123765760405162461bcd60e51b81526004016108259061462e565b336001600160a01b038b16036123be5760405162461bcd60e51b815260206004820152600d60248201526c4e6f2073656c662d736861726560981b6044820152606401610825565b4284116123fe5760405162461bcd60e51b815260206004820152600e60248201526d496e76616c69642065787069727960901b6044820152606401610825565b60008251116124475760405162461bcd60e51b8152602060048201526015602482015274496e76616c696420656e63727970746564206b657960581b6044820152606401610825565b600086600381111561245b5761245b613caf565b036124ba573360009081526009602052604090206003015460ff166124b55760405162461bcd60e51b815260206004820152601060248201526f4e6f20706572736f6e616c20696e666f60801b6044820152606401610825565b6125a7565b60018660038111156124ce576124ce613caf565b03612509576000858152601560205260409020546001600160a01b031633146124b55760405162461bcd60e51b815260040161082590614654565b600286600381111561251d5761251d613caf565b03612558576000858152601660205260409020546001600160a01b031633146124b55760405162461bcd60e51b815260040161082590614654565b600386600381111561256c5761256c613caf565b036125a7576000858152601760205260409020546001600160a01b031633146125a75760405162461bcd60e51b815260040161082590614654565b600780549060006125b783614596565b919050555060006007549050604051806101a00160405280828152602001336001600160a01b031681526020018c6001600160a01b031681526020018b81526020018a815260200189600681111561261157612611613caf565b815260200188600381111561262857612628613caf565b815260200187815260200142815260200186815260200185600281111561265157612651613caf565b815260200160008152602090810185905260008381526012825260409081902083518155918301516001830180546001600160a01b03199081166001600160a01b039384161790915591840151600284018054909316911617905560608201516003820155608082015160048201906126ca908261447f565b5060a082015160058201805460ff191660018360068111156126ee576126ee613caf565b021790555060c082015160058201805461ff00191661010083600381111561271857612718613caf565b021790555060e082015160068201556101008201516007820155610120820151600882015561014082015160098201805460ff1916600183600281111561276157612761613caf565b021790555061016082015160098201805461ff00191661010083600281111561278c5761278c613caf565b0217905550610180820151600a8201906127a6908261447f565b505050600081815260186020908152604080832080546001600160a01b031916339081179091558352601182528220805460018101825590835290822001829055808860038111156127fa576127fa613caf565b1461284657600188600381111561281357612813613caf565b1461283f57600288600381111561282c5761282c613caf565b14612838576003612849565b6002612849565b6001612849565b60005b9050818c6001600160a01b0316336001600160a01b03167f0a659897907550ad23df4acc58af8f2928fb8c5f64323d619580011b039a8649848a6040516128919291906145af565b60405180910390a4509a9950505050505050505050565b6128b0613853565b6000828152601760205260409020546001600160a01b0316338114806128e957506128e960008051602061470883398151915233611a02565b806128fc57506128fc81336003866132b7565b6129185760405162461bcd60e51b81526004016108259061440e565b601060008481526020019081526020016000206040518061010001604052908160008201548152602001600182018054612951906143d4565b80601f016020809104026020016040519081016040528092919081815260200182805461297d906143d4565b80156129ca5780601f1061299f576101008083540402835291602001916129ca565b820191906000526020600020905b8154815290600101906020018083116129ad57829003601f168201915b505050505081526020016002820180546129e3906143d4565b80601f0160208091040260200160405190810160405280929190818152602001828054612a0f906143d4565b8015612a5c5780601f10612a3157610100808354040283529160200191612a5c565b820191906000526020600020905b815481529060010190602001808311612a3f57829003601f168201915b5050509183525050600382015460209091019060ff166007811115612a8357612a83613caf565b6007811115612a9457612a94613caf565b81526003820154610100900460ff16151560208201526004820154604082015260058201546060820152600682018054608090920191612ad3906143d4565b80601f0160208091040260200160405190810160405280929190818152602001828054612aff906143d4565b8015612b4c5780601f10612b2157610100808354040283529160200191612b4c565b820191906000526020600020905b815481529060010190602001808311612b2f57829003601f168201915b505050505081525050915050919050565b612b916040518060a00160405280606081526020016000815260200160008152602001600015158152602001606081525090565b336001600160a01b0383161480612bbb5750612bbb60008051602061470883398151915233611a02565b80612bce5750612bce82336000806132b7565b612bea5760405162461bcd60e51b81526004016108259061440e565b6001600160a01b03821660009081526009602052604090206003015460ff16612c415760405162461bcd60e51b8152602060048201526009602482015268139bdd08199bdd5b9960ba1b6044820152606401610825565b6001600160a01b03821660009081526009602052604090819020815160a08101909252805482908290612c73906143d4565b80601f0160208091040260200160405190810160405280929190818152602001828054612c9f906143d4565b8015612cec5780601f10612cc157610100808354040283529160200191612cec565b820191906000526020600020905b815481529060010190602001808311612ccf57829003601f168201915b50505091835250506001820154602082015260028201546040820152600382015460ff1615156060820152600482018054608090920191612d2c906143d4565b80601f0160208091040260200160405190810160405280929190818152602001828054612d58906143d4565b8015612da55780601f10612d7a57610100808354040283529160200191612da5565b820191906000526020600020905b815481529060010190602001808311612d8857829003601f168201915b5050505050815250509050919050565b6060336001600160a01b0383161480612de15750612de160008051602061470883398151915233611a02565b612dfd5760405162461bcd60e51b8152600401610825906145ed565b600060015b6007548111612e85576000818152601260205260409020600201546001600160a01b038581169116148015612e60575060008082815260126020526040902060090154610100900460ff166002811115612e5e57612e5e613caf565b145b15612e735781612e6f81614596565b9250505b80612e7d81614596565b915050612e02565b506000816001600160401b03811115612ea057612ea06139a8565b604051908082528060200260200182016040528015612ec9578160200160208202803683370190505b509050600060015b6007548111612f72576000818152601260205260409020600201546001600160a01b038781169116148015612f2f575060008082815260126020526040902060090154610100900460ff166002811115612f2d57612f2d613caf565b145b15612f605780838381518110612f4757612f4761467e565b602090810291909101015281612f5c81614596565b9250505b80612f6a81614596565b915050612ed1565b5090949350505050565b612f8461366c565b6001600160a01b038116612fae576000604051631e4fbdf760e01b81526004016108259190613ad8565b610c278161369e565b6000612fc281613157565b612fcc82846121ee565b826001600160a01b03167f2ec6b3b60cf0b79d925a613d31f267dfa6bbe1350819a7785767e183bfb3d87f83604051610a6f91815260200190565b61300f613161565b60008251116130545760405162461bcd60e51b8152602060048201526011602482015270092dcecc2d8d2c84092a08ca640d0c2e6d607b1b6044820152606401610825565b806130945760405162461bcd60e51b815260206004820152601060248201526f092dcecc2d8d2c840d6caf240d0c2e6d60831b6044820152606401610825565b336000908152600a60205260408120600201546130b2906001614694565b604080516080810182528481526020808201878152828401859052600160608401819052336000908152600a90935293909120825181559051939450909290918201906130ff908261447f565b5060408281015160028301556060909201516003909101805460ff19169115159190911790555133907fe0bc10b17a0c0cfcdc1cc7c3f004a014e51a2e9d8705ae3c4ce6a71cad9ff08390610a6f908690859061453d565b610c27813361372b565b60035460ff161561151e5760405163d93c066560e01b815260040160405180910390fd5b60006131918383611a02565b6131f65760008381526001602081815260408084206001600160a01b0387168086529252808420805460ff19169093179092559051339286917f2f8788117e7eff1d82e926ec794901d17c78024a50270940304540a733656f0d9190a450600161075a565b50600061075a565b600061320a8383611a02565b156131f65760008381526001602090815260408083206001600160a01b0386168085529252808320805460ff1916905551339286917ff6391f5c32d9c69d2a47ea670b442974b53935d1edc7fd64eb21e047a839171b9190a450600161075a565b613273613768565b6003805460ff191690557f5db9ee0a495bf2e6ff9c91a7834c1ba4fdd244a5e8aa4e537bd38aeae4b073aa335b6040516132ad9190613ad8565b60405180910390a1565b6001600160a01b03841660009081526011602090815260408083208054825181850281018501909352808352849383018282801561331457602002820191906000526020600020905b815481526020019060010190808311613300575b5050505050905060005b815181101561365f5760006012600084848151811061333f5761333f61467e565b602090810291909101810151825281810192909252604090810160002081516101a0810183528154815260018201546001600160a01b0390811694820194909452600282015490931691830191909152600381015460608301526004810180546080840191906133ae906143d4565b80601f01602080910402602001604051908101604052809291908181526020018280546133da906143d4565b80156134275780601f106133fc57610100808354040283529160200191613427565b820191906000526020600020905b81548152906001019060200180831161340a57829003601f168201915b5050509183525050600582015460209091019060ff16600681111561344e5761344e613caf565b600681111561345f5761345f613caf565b81526020016005820160019054906101000a900460ff16600381111561348757613487613caf565b600381111561349857613498613caf565b8152600682015460208201526007820154604082015260088201546060820152600982015460809091019060ff1660028111156134d7576134d7613caf565b60028111156134e8576134e8613caf565b81526020016009820160019054906101000a900460ff16600281111561351057613510613caf565b600281111561352157613521613caf565b8152602001600a82018054613535906143d4565b80601f0160208091040260200160405190810160405280929190818152602001828054613561906143d4565b80156135ae5780601f10613583576101008083540402835291602001916135ae565b820191906000526020600020905b81548152906001019060200180831161359157829003601f168201915b5050505050815250509050866001600160a01b031681604001516001600160a01b03161480156135f45750600081610160015160028111156135f2576135f2613caf565b145b801561360557508061012001514211155b8015613636575085600381111561361e5761361e613caf565b8160c00151600381111561363457613634613caf565b145b80156136455750848160e00151145b156136565760019350505050610d8a565b5060010161331e565b5060009695505050505050565b33613675611976565b6001600160a01b03161461151e573360405163118cdaa760e01b81526004016108259190613ad8565b600080546001600160a01b038381166001600160a01b0319831681178455604051919092169283917f8be0079c531659141344cd1fd0a4f28419497f9722a3daafe3b4186f6b6457e09190a35050565b6136f6613161565b6003805460ff191660011790557f62e78cea01bee320cd4e420270b5ea74000d11b0c9f74754ebdbfc544b05a2586132a03390565b6137358282611a02565b6137645760405163e2517d3f60e01b81526001600160a01b038216600482015260248101839052604401610825565b5050565b60035460ff1661151e57604051638dfc202b60e01b815260040160405180910390fd5b6040518060c001604052806000815260200160006001600160a01b0316815260200160608152602001600060048111156137c7576137c7613caf565b815260006020820181905260409091015290565b604080516101a081018252600080825260208201819052918101829052606080820183905260808201529060a08201908152602001600081526020016000815260200160008152602001600081526020016000600281111561383f5761383f613caf565b815260200160008152602001606081525090565b6040518061010001604052806000815260200160608152602001606081526020016000600781111561388757613887613caf565b81526020016000151581526020016000815260200160008152602001606081525090565b6000602082840312156138bd57600080fd5b81356001600160e01b031981168114611e1457600080fd5b80356001600160a01b03811681146138ec57600080fd5b919050565b60006020828403121561390357600080fd5b611e14826138d5565b6000815180845260005b8181101561393257602081850181015186830182015201613916565b506000602082860101526020601f19601f83011685010191505092915050565b602081526000611e14602083018461390c565b602080825282518282018190526000918401906040840190835b8181101561399d57835183526020938401939092019160010161397f565b509095945050505050565b634e487b7160e01b600052604160045260246000fd5b600082601f8301126139cf57600080fd5b81356001600160401b038111156139e8576139e86139a8565b604051601f8201601f19908116603f011681016001600160401b0381118282101715613a1657613a166139a8565b604052818152838201602001851015613a2e57600080fd5b816020850160208301376000918101602001919091529392505050565b60008060408385031215613a5e57600080fd5b82356001600160401b03811115613a7457600080fd5b613a80858286016139be565b92505060208301356001600160401b03811115613a9c57600080fd5b613aa8858286016139be565b9150509250929050565b600060208284031215613ac457600080fd5b5035919050565b6001600160a01b03169052565b6001600160a01b0391909116815260200190565b60008060408385031215613aff57600080fd5b82359150613b0f602084016138d5565b90509250929050565b803580151581146138ec57600080fd5b60008060008060808587031215613b3e57600080fd5b84356001600160401b03811115613b5457600080fd5b613b60878288016139be565b945050613b6f60208601613b18565b93969395505050506040820135916060013590565b60008060008060808587031215613b9a57600080fd5b613ba3856138d5565b935060208501356001600160401b03811115613bbe57600080fd5b613bca878288016139be565b935050604085013560058110613bdf57600080fd5b9396929550929360600135925050565b60208152815160208201526000602083015160c06040840152613c1560e084018261390c565b905060408401511515606084015260608401516080840152608084015160a084015260a084015160c08401528091505092915050565b60208152815160208201526000602083015160a06040840152613c7160c084018261390c565b90506040840151601f19848303016060850152613c8e828261390c565b91505060608401516080840152608084015160a08401528091505092915050565b634e487b7160e01b600052602160045260246000fd5b60058110613cd557613cd5613caf565b9052565b602081528151602082015260018060a01b0360208301511660408201526000604083015160c06060840152613d1160e084018261390c565b90506060840151613d256080850182613cc5565b50608084015160a084015260a084015160c08401528091505092915050565b600080600060608486031215613d5957600080fd5b83356001600160401b03811115613d6f57600080fd5b613d7b868287016139be565b93505060208401356001600160401b03811115613d9757600080fd5b613da3868287016139be565b93969395505050506040919091013590565b60008060008060808587031215613dcb57600080fd5b8435935060208501356001600160401b03811115613de857600080fd5b613df4878288016139be565b93505060408501356001600160401b03811115613e1057600080fd5b613e1c878288016139be565b949793965093946060013593505050565b8035600881106138ec57600080fd5b60008060008060008060c08789031215613e5557600080fd5b86356001600160401b03811115613e6b57600080fd5b613e7789828a016139be565b96505060208701356001600160401b03811115613e9357600080fd5b613e9f89828a016139be565b955050613eae60408801613e2d565b9350613ebc60608801613b18565b92506080870135915060a08701356001600160401b03811115613ede57600080fd5b613eea89828a016139be565b9150509295509295509295565b600080600080600060a08688031215613f0f57600080fd5b8535945060208601356001600160401b03811115613f2c57600080fd5b613f38888289016139be565b945050613f4760408701613b18565b94979396509394606081013594506080013592915050565b60078110613cd557613cd5613caf565b60048110613cd557613cd5613caf565b60038110613cd557613cd5613caf565b602081528151602082015260006020830151613fae6040840182613acb565b506040830151613fc16060840182613acb565b506060830151608083015260808301516101a060a0840152613fe76101c084018261390c565b905060a0840151613ffb60c0850182613f5f565b5060c084015161400e60e0850182613f6f565b5060e0840151610100840152610100840151610120840152610120840151610140840152610140840151614046610160850182613f7f565b5061016084015161405b610180850182613f7f565b50610180840151838203601f19016101a0850152614079828261390c565b95945050505050565b84815260806020820152600061409b608083018661390c565b60408301949094525090151560609091015292915050565b600080600080600080600060e0888a0312156140ce57600080fd5b8735965060208801356001600160401b038111156140eb57600080fd5b6140f78a828b016139be565b96505060408801356001600160401b0381111561411357600080fd5b61411f8a828b016139be565b95505061412e60608901613e2d565b935061413c60808901613b18565b925060a0880135915060c08801356001600160401b0381111561415e57600080fd5b61416a8a828b016139be565b91505092959891949750929550565b8035600481106138ec57600080fd5b8035600381106138ec57600080fd5b60008060008060008060008060006101208a8c0312156141b657600080fd5b6141bf8a6138d5565b985060208a0135975060408a01356001600160401b038111156141e157600080fd5b6141ed8c828d016139be565b97505060608a01356007811061420257600080fd5b955061421060808b01614179565b945060a08a0135935060c08a0135925061422c60e08b01614188565b91506101008a01356001600160401b0381111561424857600080fd5b6142548c828d016139be565b9150509295985092959850929598565b60088110613cd557613cd5613caf565b602081528151602082015260006020830151610100604084015261429c61012084018261390c565b90506040840151601f198483030160608501526142b9828261390c565b91505060608401516142ce6080850182614264565b50608084015180151560a08501525060a084015160c084015260c084015160e084015260e0840151601f1984830301610100850152614079828261390c565b602081526000825160a0602084015261432960c084018261390c565b905060208401516040840152604084015160608401526060840151151560808401526080840151601f198483030160a0850152614079828261390c565b6000806040838503121561437957600080fd5b614382836138d5565b946020939093013593505050565b600080604083850312156143a357600080fd5b82356001600160401b038111156143b957600080fd5b6143c5858286016139be565b95602094909401359450505050565b600181811c908216806143e857607f821691505b60208210810361440857634e487b7160e01b600052602260045260246000fd5b50919050565b6020808252600990820152684e6f2061636365737360b81b604082015260600190565b601f821115610af457806000526020600020601f840160051c810160208510156144585750805b601f840160051c820191505b818110156144785760008155600101614464565b5050505050565b81516001600160401b03811115614498576144986139a8565b6144ac816144a684546143d4565b84614431565b6020601f8211600181146144e057600083156144c85750848201515b600019600385901b1c1916600184901b178455614478565b600084815260208120601f198516915b8281101561451057878501518255602094850194600190920191016144f0565b508482101561452e5786840151600019600387901b60f8161c191681555b50505050600190811b01905550565b604081526000614550604083018561390c565b90508260208301529392505050565b6020808252600790820152664e6f20696e666f60c81b604082015260600190565b634e487b7160e01b600052601160045260246000fd5b6000600182016145a8576145a8614580565b5060010190565b604081016145bd8285613cc5565b8260208301529392505050565b6020808252600990820152682737ba1037bbb732b960b91b604082015260600190565b60208082526007908201526609cde40c2eae8d60cb1b604082015260600190565b6146188184614264565b604060208201526000610d8a604083018461390c565b6020808252600c908201526b24b73b30b634b21030b2323960a11b604082015260600190565b60208082526010908201526f2737ba103932b1b7b9321037bbb732b960811b604082015260600190565b634e487b7160e01b600052603260045260246000fd5b8082018082111561075a5761075a61458056fe8825c62207077c41710fe5144a6467477a643e911c9ab3785826111f7c94ed8b18c9d97edfcf27865aca8a4f478a1b4429b4c82fb5ded476e9f317f74573d01bfec7cd74e5c65b641d49ecc2e89f646c7c0bcae85dc50f9616bf9c798cedda8b59a1c48e5837ad7a7f3dcedcbe129bf3249ec4fbf651fd4f5e2600ead39fe2f51976159518e32c975351d3eb18509d62ab7629098636e52c6ce63466e939167fc8f5b4140cca307cd927e59cbeea8291bffeee228fc677f0fa059aef7b4dd8d5a2646970667358221220813c5215c2d263ec2db774d7e6cd0518321cf64eb2195305d4af7a08307f5b7964736f6c634300081f0033",
			"opcodes": "PUSH1 0x80 PUSH1 0x40 MSTORE CALLVALUE DUP1 ISZERO PUSH2 0x10 JUMPI PUSH1 0x0 DUP1 REVERT JUMPDEST POP CALLER DUP1 PUSH2 0x37 JUMPI PUSH1 0x40 MLOAD PUSH4 0x1E4FBDF7 PUSH1 0xE0 SHL DUP2 MSTORE PUSH1 0x0 PUSH1 0x4 DUP3 ADD MSTORE PUSH1 0x24 ADD PUSH1 0x40 MLOAD DUP1 SWAP2 SUB SWAP1 REVERT JUMPDEST PUSH2 0x40 DUP2 PUSH2 0x57 JUMP JUMPDEST POP PUSH1 0x1 PUSH1 0x2 SSTORE PUSH2 0x51 PUSH1 0x0 CALLER PUSH2 0xA7 JUMP JUMPDEST POP PUSH2 0x13C JUMP JUMPDEST PUSH1 0x0 DUP1 SLOAD PUSH1 0x1 PUSH1 0x1 PUSH1 0xA0 SHL SUB DUP4 DUP2 AND PUSH1 0x1 PUSH1 0x1 PUSH1 0xA0 SHL SUB NOT DUP4 AND DUP2 OR DUP5 SSTORE PUSH1 0x40 MLOAD SWAP2 SWAP1 SWAP3 AND SWAP3 DUP4 SWAP2 PUSH32 0x8BE0079C531659141344CD1FD0A4F28419497F9722A3DAAFE3B4186F6B6457E0 SWAP2 SWAP1 LOG3 POP POP JUMP JUMPDEST PUSH1 0x0 DUP3 DUP2 MSTORE PUSH1 0x1 PUSH1 0x20 SWAP1 DUP2 MSTORE PUSH1 0x40 DUP1 DUP4 KECCAK256 PUSH1 0x1 PUSH1 0x1 PUSH1 0xA0 SHL SUB DUP6 AND DUP5 MSTORE SWAP1 SWAP2 MSTORE DUP2 KECCAK256 SLOAD PUSH1 0xFF AND PUSH2 0x132 JUMPI PUSH1 0x0 DUP4 DUP2 MSTORE PUSH1 0x1 PUSH1 0x20 DUP2 DUP2 MSTORE PUSH1 0x40 DUP1 DUP5 KECCAK256 PUSH1 0x1 PUSH1 0x1 PUSH1 0xA0 SHL SUB DUP8 AND DUP1 DUP7 MSTORE SWAP3 MSTORE DUP1 DUP5 KECCAK256 DUP1 SLOAD PUSH1 0xFF NOT AND SWAP1 SWAP4 OR SWAP1 SWAP3 SSTORE SWAP1 MLOAD CALLER SWAP3 DUP7 SWAP2 PUSH32 0x2F8788117E7EFF1D82E926EC794901D17C78024A50270940304540A733656F0D SWAP2 SWAP1 LOG4 POP PUSH1 0x1 PUSH2 0x136 JUMP JUMPDEST POP PUSH1 0x0 JUMPDEST SWAP3 SWAP2 POP POP JUMP JUMPDEST PUSH2 0x479D DUP1 PUSH2 0x14B PUSH1 0x0 CODECOPY PUSH1 0x0 RETURN INVALID PUSH1 0x80 PUSH1 0x40 MSTORE CALLVALUE DUP1 ISZERO PUSH2 0x10 JUMPI PUSH1 0x0 DUP1 REVERT JUMPDEST POP PUSH1 0x4 CALLDATASIZE LT PUSH2 0x267 JUMPI PUSH1 0x0 CALLDATALOAD PUSH1 0xE0 SHR DUP1 PUSH4 0x1FFC9A7 EQ PUSH2 0x26C JUMPI DUP1 PUSH4 0x402E735 EQ PUSH2 0x294 JUMPI DUP1 PUSH4 0x45AF334 EQ PUSH2 0x2B7 JUMPI DUP1 PUSH4 0x52A01F6 EQ PUSH2 0x2EE JUMPI DUP1 PUSH4 0x11231FE0 EQ PUSH2 0x303 JUMPI DUP1 PUSH4 0x18B98101 EQ PUSH2 0x323 JUMPI DUP1 PUSH4 0x2436A5D7 EQ PUSH2 0x343 JUMPI DUP1 PUSH4 0x248A9CA3 EQ PUSH2 0x356 JUMPI DUP1 PUSH4 0x2C81DF05 EQ PUSH2 0x369 JUMPI DUP1 PUSH4 0x2F2FF15D EQ PUSH2 0x3A2 JUMPI DUP1 PUSH4 0x2F4AFBAD EQ PUSH2 0x3B5 JUMPI DUP1 PUSH4 0x36568ABE EQ PUSH2 0x3C8 JUMPI DUP1 PUSH4 0x3F4BA83A EQ PUSH2 0x3DB JUMPI DUP1 PUSH4 0x420B23A2 EQ PUSH2 0x3E3 JUMPI DUP1 PUSH4 0x48DEF2F7 EQ PUSH2 0x3F6 JUMPI DUP1 PUSH4 0x4ADBE62C EQ PUSH2 0x409 JUMPI DUP1 PUSH4 0x50038737 EQ PUSH2 0x429 JUMPI DUP1 PUSH4 0x5C975ABB EQ PUSH2 0x43C JUMPI DUP1 PUSH4 0x627E86F2 EQ PUSH2 0x447 JUMPI DUP1 PUSH4 0x685D5B8B EQ PUSH2 0x467 JUMPI DUP1 PUSH4 0x6E1D616E EQ PUSH2 0x487 JUMPI DUP1 PUSH4 0x715018A6 EQ PUSH2 0x49C JUMPI DUP1 PUSH4 0x7E0ECEE0 EQ PUSH2 0x4A4 JUMPI DUP1 PUSH4 0x7E14F8CD EQ PUSH2 0x4B7 JUMPI DUP1 PUSH4 0x82673E77 EQ PUSH2 0x4CA JUMPI DUP1 PUSH4 0x8456CB59 EQ PUSH2 0x4DF JUMPI DUP1 PUSH4 0x86C4AEA2 EQ PUSH2 0x4E7 JUMPI DUP1 PUSH4 0x8939F898 EQ PUSH2 0x4FA JUMPI DUP1 PUSH4 0x8DA5CB5B EQ PUSH2 0x50D JUMPI DUP1 PUSH4 0x91284A89 EQ PUSH2 0x515 JUMPI DUP1 PUSH4 0x91D14854 EQ PUSH2 0x528 JUMPI DUP1 PUSH4 0xA217FDDF EQ PUSH2 0x53B JUMPI DUP1 PUSH4 0xA65B27DB EQ PUSH2 0x543 JUMPI DUP1 PUSH4 0xAA361C28 EQ PUSH2 0x556 JUMPI DUP1 PUSH4 0xAA83F4D8 EQ PUSH2 0x576 JUMPI DUP1 PUSH4 0xB3568F32 EQ PUSH2 0x589 JUMPI DUP1 PUSH4 0xB752A74B EQ PUSH2 0x59C JUMPI DUP1 PUSH4 0xB85D4AF0 EQ PUSH2 0x5B1 JUMPI DUP1 PUSH4 0xC5B99858 EQ PUSH2 0x5C4 JUMPI DUP1 PUSH4 0xC77A5A97 EQ PUSH2 0x5D7 JUMPI DUP1 PUSH4 0xD3E5EC4B EQ PUSH2 0x5FA JUMPI DUP1 PUSH4 0xD547741F EQ PUSH2 0x60D JUMPI DUP1 PUSH4 0xDF015DC1 EQ PUSH2 0x620 JUMPI DUP1 PUSH4 0xDF9A4F56 EQ PUSH2 0x633 JUMPI DUP1 PUSH4 0xE40383EC EQ PUSH2 0x646 JUMPI DUP1 PUSH4 0xE653D375 EQ PUSH2 0x659 JUMPI DUP1 PUSH4 0xEE67E73D EQ PUSH2 0x679 JUMPI DUP1 PUSH4 0xF17245F9 EQ PUSH2 0x699 JUMPI DUP1 PUSH4 0xF2E8790B EQ PUSH2 0x6C8 JUMPI DUP1 PUSH4 0xF2FDE38B EQ PUSH2 0x6DB JUMPI DUP1 PUSH4 0xF6871D9E EQ PUSH2 0x6EE JUMPI DUP1 PUSH4 0xF6BA6678 EQ PUSH2 0x701 JUMPI DUP1 PUSH4 0xFBFFA2F4 EQ PUSH2 0x716 JUMPI JUMPDEST PUSH1 0x0 DUP1 REVERT JUMPDEST PUSH2 0x27F PUSH2 0x27A CALLDATASIZE PUSH1 0x4 PUSH2 0x38AB JUMP JUMPDEST PUSH2 0x729 JUMP JUMPDEST PUSH1 0x40 MLOAD SWAP1 ISZERO ISZERO DUP2 MSTORE PUSH1 0x20 ADD JUMPDEST PUSH1 0x40 MLOAD DUP1 SWAP2 SUB SWAP1 RETURN JUMPDEST PUSH2 0x2A9 PUSH1 0x0 DUP1 MLOAD PUSH1 0x20 PUSH2 0x46A8 DUP4 CODECOPY DUP2 MLOAD SWAP2 MSTORE DUP2 JUMP JUMPDEST PUSH1 0x40 MLOAD SWAP1 DUP2 MSTORE PUSH1 0x20 ADD PUSH2 0x28B JUMP JUMPDEST PUSH1 0x4 SLOAD PUSH1 0x5 SLOAD PUSH1 0x6 SLOAD PUSH1 0x7 SLOAD PUSH1 0x8 SLOAD PUSH1 0x40 DUP1 MLOAD SWAP6 DUP7 MSTORE PUSH1 0x20 DUP7 ADD SWAP5 SWAP1 SWAP5 MSTORE SWAP3 DUP5 ADD SWAP2 SWAP1 SWAP2 MSTORE PUSH1 0x60 DUP4 ADD MSTORE PUSH1 0x80 DUP3 ADD MSTORE PUSH1 0xA0 ADD PUSH2 0x28B JUMP JUMPDEST PUSH2 0x301 PUSH2 0x2FC CALLDATASIZE PUSH1 0x4 PUSH2 0x38F1 JUMP JUMPDEST PUSH2 0x760 JUMP JUMPDEST STOP JUMPDEST PUSH2 0x316 PUSH2 0x311 CALLDATASIZE PUSH1 0x4 PUSH2 0x38F1 JUMP JUMPDEST PUSH2 0x7C6 JUMP JUMPDEST PUSH1 0x40 MLOAD PUSH2 0x28B SWAP2 SWAP1 PUSH2 0x3952 JUMP JUMPDEST PUSH2 0x336 PUSH2 0x331 CALLDATASIZE PUSH1 0x4 PUSH2 0x38F1 JUMP JUMPDEST PUSH2 0x8D9 JUMP JUMPDEST PUSH1 0x40 MLOAD PUSH2 0x28B SWAP2 SWAP1 PUSH2 0x3965 JUMP JUMPDEST PUSH2 0x301 PUSH2 0x351 CALLDATASIZE PUSH1 0x4 PUSH2 0x3A4B JUMP JUMPDEST PUSH2 0x98A JUMP JUMPDEST PUSH2 0x2A9 PUSH2 0x364 CALLDATASIZE PUSH1 0x4 PUSH2 0x3AB2 JUMP JUMPDEST PUSH2 0xAF9 JUMP JUMPDEST PUSH2 0x395 PUSH2 0x377 CALLDATASIZE PUSH1 0x4 PUSH2 0x38F1 JUMP JUMPDEST PUSH1 0x1 PUSH1 0x1 PUSH1 0xA0 SHL SUB SWAP1 DUP2 AND PUSH1 0x0 SWAP1 DUP2 MSTORE PUSH1 0x1A PUSH1 0x20 MSTORE PUSH1 0x40 SWAP1 KECCAK256 SLOAD AND SWAP1 JUMP JUMPDEST PUSH1 0x40 MLOAD PUSH2 0x28B SWAP2 SWAP1 PUSH2 0x3AD8 JUMP JUMPDEST PUSH2 0x301 PUSH2 0x3B0 CALLDATASIZE PUSH1 0x4 PUSH2 0x3AEC JUMP JUMPDEST PUSH2 0xB0F JUMP JUMPDEST PUSH2 0x336 PUSH2 0x3C3 CALLDATASIZE PUSH1 0x4 PUSH2 0x38F1 JUMP JUMPDEST PUSH2 0xB31 JUMP JUMPDEST PUSH2 0x301 PUSH2 0x3D6 CALLDATASIZE PUSH1 0x4 PUSH2 0x3AEC JUMP JUMPDEST PUSH2 0xBE1 JUMP JUMPDEST PUSH2 0x301 PUSH2 0xC14 JUMP JUMPDEST PUSH2 0x2A9 PUSH2 0x3F1 CALLDATASIZE PUSH1 0x4 PUSH2 0x3B28 JUMP JUMPDEST PUSH2 0xC2A JUMP JUMPDEST PUSH2 0x2A9 PUSH2 0x404 CALLDATASIZE PUSH1 0x4 PUSH2 0x3B84 JUMP JUMPDEST PUSH2 0xD92 JUMP JUMPDEST PUSH2 0x41C PUSH2 0x417 CALLDATASIZE PUSH1 0x4 PUSH2 0x3AB2 JUMP JUMPDEST PUSH2 0xF75 JUMP JUMPDEST PUSH1 0x40 MLOAD PUSH2 0x28B SWAP2 SWAP1 PUSH2 0x3BEF JUMP JUMPDEST PUSH2 0x301 PUSH2 0x437 CALLDATASIZE PUSH1 0x4 PUSH2 0x3AB2 JUMP JUMPDEST PUSH2 0x1107 JUMP JUMPDEST PUSH1 0x3 SLOAD PUSH1 0xFF AND PUSH2 0x27F JUMP JUMPDEST PUSH2 0x45A PUSH2 0x455 CALLDATASIZE PUSH1 0x4 PUSH2 0x3AB2 JUMP JUMPDEST PUSH2 0x1193 JUMP JUMPDEST PUSH1 0x40 MLOAD PUSH2 0x28B SWAP2 SWAP1 PUSH2 0x3C4B JUMP JUMPDEST PUSH2 0x47A PUSH2 0x475 CALLDATASIZE PUSH1 0x4 PUSH2 0x3AB2 JUMP JUMPDEST PUSH2 0x1395 JUMP JUMPDEST PUSH1 0x40 MLOAD PUSH2 0x28B SWAP2 SWAP1 PUSH2 0x3CD9 JUMP JUMPDEST PUSH2 0x2A9 PUSH1 0x0 DUP1 MLOAD PUSH1 0x20 PUSH2 0x4708 DUP4 CODECOPY DUP2 MLOAD SWAP2 MSTORE DUP2 JUMP JUMPDEST PUSH2 0x301 PUSH2 0x150C JUMP JUMPDEST PUSH2 0x301 PUSH2 0x4B2 CALLDATASIZE PUSH1 0x4 PUSH2 0x38F1 JUMP JUMPDEST PUSH2 0x1520 JUMP JUMPDEST PUSH2 0x2A9 PUSH2 0x4C5 CALLDATASIZE PUSH1 0x4 PUSH2 0x3D44 JUMP JUMPDEST PUSH2 0x157A JUMP JUMPDEST PUSH2 0x2A9 PUSH1 0x0 DUP1 MLOAD PUSH1 0x20 PUSH2 0x4728 DUP4 CODECOPY DUP2 MLOAD SWAP2 MSTORE DUP2 JUMP JUMPDEST PUSH2 0x301 PUSH2 0x16CB JUMP JUMPDEST PUSH2 0x301 PUSH2 0x4F5 CALLDATASIZE PUSH1 0x4 PUSH2 0x3DB5 JUMP JUMPDEST PUSH2 0x16DE JUMP JUMPDEST PUSH2 0x2A9 PUSH2 0x508 CALLDATASIZE PUSH1 0x4 PUSH2 0x3E3C JUMP JUMPDEST PUSH2 0x1795 JUMP JUMPDEST PUSH2 0x395 PUSH2 0x1976 JUMP JUMPDEST PUSH2 0x301 PUSH2 0x523 CALLDATASIZE PUSH1 0x4 PUSH2 0x38F1 JUMP JUMPDEST PUSH2 0x1985 JUMP JUMPDEST PUSH2 0x27F PUSH2 0x536 CALLDATASIZE PUSH1 0x4 PUSH2 0x3AEC JUMP JUMPDEST PUSH2 0x1A02 JUMP JUMPDEST PUSH2 0x2A9 PUSH1 0x0 DUP2 JUMP JUMPDEST PUSH2 0x301 PUSH2 0x551 CALLDATASIZE PUSH1 0x4 PUSH2 0x3EF7 JUMP JUMPDEST PUSH2 0x1A2D JUMP JUMPDEST PUSH2 0x569 PUSH2 0x564 CALLDATASIZE PUSH1 0x4 PUSH2 0x3AB2 JUMP JUMPDEST PUSH2 0x1AED JUMP JUMPDEST PUSH1 0x40 MLOAD PUSH2 0x28B SWAP2 SWAP1 PUSH2 0x3F8F JUMP JUMPDEST PUSH2 0x336 PUSH2 0x584 CALLDATASIZE PUSH1 0x4 PUSH2 0x38F1 JUMP JUMPDEST PUSH2 0x1E1B JUMP JUMPDEST PUSH2 0x301 PUSH2 0x597 CALLDATASIZE PUSH1 0x4 PUSH2 0x38F1 JUMP JUMPDEST PUSH2 0x1ECB JUMP JUMPDEST PUSH2 0x2A9 PUSH1 0x0 DUP1 MLOAD PUSH1 0x20 PUSH2 0x46E8 DUP4 CODECOPY DUP2 MLOAD SWAP2 MSTORE DUP2 JUMP JUMPDEST PUSH2 0x336 PUSH2 0x5BF CALLDATASIZE PUSH1 0x4 PUSH2 0x38F1 JUMP JUMPDEST PUSH2 0x1F25 JUMP JUMPDEST PUSH2 0x301 PUSH2 0x5D2 CALLDATASIZE PUSH1 0x4 PUSH2 0x38F1 JUMP JUMPDEST PUSH2 0x1FD5 JUMP JUMPDEST PUSH2 0x5EA PUSH2 0x5E5 CALLDATASIZE PUSH1 0x4 PUSH2 0x38F1 JUMP JUMPDEST PUSH2 0x202F JUMP JUMPDEST PUSH1 0x40 MLOAD PUSH2 0x28B SWAP5 SWAP4 SWAP3 SWAP2 SWAP1 PUSH2 0x4082 JUMP JUMPDEST PUSH2 0x301 PUSH2 0x608 CALLDATASIZE PUSH1 0x4 PUSH2 0x40B3 JUMP JUMPDEST PUSH2 0x20E4 JUMP JUMPDEST PUSH2 0x301 PUSH2 0x61B CALLDATASIZE PUSH1 0x4 PUSH2 0x3AEC JUMP JUMPDEST PUSH2 0x21EE JUMP JUMPDEST PUSH2 0x336 PUSH2 0x62E CALLDATASIZE PUSH1 0x4 PUSH2 0x38F1 JUMP JUMPDEST PUSH2 0x220A JUMP JUMPDEST PUSH2 0x301 PUSH2 0x641 CALLDATASIZE PUSH1 0x4 PUSH2 0x38F1 JUMP JUMPDEST PUSH2 0x22BA JUMP JUMPDEST PUSH2 0x2A9 PUSH2 0x654 CALLDATASIZE PUSH1 0x4 PUSH2 0x4197 JUMP JUMPDEST PUSH2 0x2314 JUMP JUMPDEST PUSH2 0x66C PUSH2 0x667 CALLDATASIZE PUSH1 0x4 PUSH2 0x3AB2 JUMP JUMPDEST PUSH2 0x28A8 JUMP JUMPDEST PUSH1 0x40 MLOAD PUSH2 0x28B SWAP2 SWAP1 PUSH2 0x4274 JUMP JUMPDEST PUSH2 0x68C PUSH2 0x687 CALLDATASIZE PUSH1 0x4 PUSH2 0x38F1 JUMP JUMPDEST PUSH2 0x2B5D JUMP JUMPDEST PUSH1 0x40 MLOAD PUSH2 0x28B SWAP2 SWAP1 PUSH2 0x430D JUMP JUMPDEST PUSH2 0x27F PUSH2 0x6A7 CALLDATASIZE PUSH1 0x4 PUSH2 0x38F1 JUMP JUMPDEST PUSH1 0x1 PUSH1 0x1 PUSH1 0xA0 SHL SUB AND PUSH1 0x0 SWAP1 DUP2 MSTORE PUSH1 0x9 PUSH1 0x20 MSTORE PUSH1 0x40 SWAP1 KECCAK256 PUSH1 0x3 ADD SLOAD PUSH1 0xFF AND SWAP1 JUMP JUMPDEST PUSH2 0x336 PUSH2 0x6D6 CALLDATASIZE PUSH1 0x4 PUSH2 0x38F1 JUMP JUMPDEST PUSH2 0x2DB5 JUMP JUMPDEST PUSH2 0x301 PUSH2 0x6E9 CALLDATASIZE PUSH1 0x4 PUSH2 0x38F1 JUMP JUMPDEST PUSH2 0x2F7C JUMP JUMPDEST PUSH2 0x301 PUSH2 0x6FC CALLDATASIZE PUSH1 0x4 PUSH2 0x4366 JUMP JUMPDEST PUSH2 0x2FB7 JUMP JUMPDEST PUSH2 0x2A9 PUSH1 0x0 DUP1 MLOAD PUSH1 0x20 PUSH2 0x4748 DUP4 CODECOPY DUP2 MLOAD SWAP2 MSTORE DUP2 JUMP JUMPDEST PUSH2 0x301 PUSH2 0x724 CALLDATASIZE PUSH1 0x4 PUSH2 0x4390 JUMP JUMPDEST PUSH2 0x3007 JUMP JUMPDEST PUSH1 0x0 PUSH1 0x1 PUSH1 0x1 PUSH1 0xE0 SHL SUB NOT DUP3 AND PUSH4 0x7965DB0B PUSH1 0xE0 SHL EQ DUP1 PUSH2 0x75A JUMPI POP PUSH4 0x1FFC9A7 PUSH1 0xE0 SHL PUSH1 0x1 PUSH1 0x1 PUSH1 0xE0 SHL SUB NOT DUP4 AND EQ JUMPDEST SWAP3 SWAP2 POP POP JUMP JUMPDEST PUSH1 0x0 PUSH2 0x76B DUP2 PUSH2 0x3157 JUMP JUMPDEST PUSH2 0x783 PUSH1 0x0 DUP1 MLOAD PUSH1 0x20 PUSH2 0x46A8 DUP4 CODECOPY DUP2 MLOAD SWAP2 MSTORE DUP4 PUSH2 0xB0F JUMP JUMPDEST DUP2 PUSH1 0x1 PUSH1 0x1 PUSH1 0xA0 SHL SUB AND PUSH1 0x0 DUP1 MLOAD PUSH1 0x20 PUSH2 0x46C8 DUP4 CODECOPY DUP2 MLOAD SWAP2 MSTORE PUSH1 0x0 DUP1 MLOAD PUSH1 0x20 PUSH2 0x46A8 DUP4 CODECOPY DUP2 MLOAD SWAP2 MSTORE PUSH1 0x40 MLOAD PUSH2 0x7BA SWAP2 DUP2 MSTORE PUSH1 0x20 ADD SWAP1 JUMP JUMPDEST PUSH1 0x40 MLOAD DUP1 SWAP2 SUB SWAP1 LOG2 POP POP JUMP JUMPDEST PUSH1 0x1 PUSH1 0x1 PUSH1 0xA0 SHL SUB DUP2 AND PUSH1 0x0 SWAP1 DUP2 MSTORE PUSH1 0xA PUSH1 0x20 MSTORE PUSH1 0x40 SWAP1 KECCAK256 PUSH1 0x3 ADD SLOAD PUSH1 0x60 SWAP1 PUSH1 0xFF AND PUSH2 0x82E JUMPI PUSH1 0x40 MLOAD PUSH3 0x461BCD PUSH1 0xE5 SHL DUP2 MSTORE PUSH1 0x20 PUSH1 0x4 DUP3 ADD MSTORE PUSH1 0x12 PUSH1 0x24 DUP3 ADD MSTORE PUSH18 0x141D589B1A58C81AD95E481B9BDD081CD95D PUSH1 0x72 SHL PUSH1 0x44 DUP3 ADD MSTORE PUSH1 0x64 ADD JUMPDEST PUSH1 0x40 MLOAD DUP1 SWAP2 SUB SWAP1 REVERT JUMPDEST PUSH1 0x1 PUSH1 0x1 PUSH1 0xA0 SHL SUB DUP3 AND PUSH1 0x0 SWAP1 DUP2 MSTORE PUSH1 0xA PUSH1 0x20 MSTORE PUSH1 0x40 SWAP1 KECCAK256 PUSH1 0x1 ADD DUP1 SLOAD PUSH2 0x854 SWAP1 PUSH2 0x43D4 JUMP JUMPDEST DUP1 PUSH1 0x1F ADD PUSH1 0x20 DUP1 SWAP2 DIV MUL PUSH1 0x20 ADD PUSH1 0x40 MLOAD SWAP1 DUP2 ADD PUSH1 0x40 MSTORE DUP1 SWAP3 SWAP2 SWAP1 DUP2 DUP2 MSTORE PUSH1 0x20 ADD DUP3 DUP1 SLOAD PUSH2 0x880 SWAP1 PUSH2 0x43D4 JUMP JUMPDEST DUP1 ISZERO PUSH2 0x8CD JUMPI DUP1 PUSH1 0x1F LT PUSH2 0x8A2 JUMPI PUSH2 0x100 DUP1 DUP4 SLOAD DIV MUL DUP4 MSTORE SWAP2 PUSH1 0x20 ADD SWAP2 PUSH2 0x8CD JUMP JUMPDEST DUP3 ADD SWAP2 SWAP1 PUSH1 0x0 MSTORE PUSH1 0x20 PUSH1 0x0 KECCAK256 SWAP1 JUMPDEST DUP2 SLOAD DUP2 MSTORE SWAP1 PUSH1 0x1 ADD SWAP1 PUSH1 0x20 ADD DUP1 DUP4 GT PUSH2 0x8B0 JUMPI DUP3 SWAP1 SUB PUSH1 0x1F AND DUP3 ADD SWAP2 JUMPDEST POP POP POP POP POP SWAP1 POP SWAP2 SWAP1 POP JUMP JUMPDEST PUSH1 0x60 CALLER PUSH1 0x1 PUSH1 0x1 PUSH1 0xA0 SHL SUB DUP4 AND EQ DUP1 PUSH2 0x905 JUMPI POP PUSH2 0x905 PUSH1 0x0 DUP1 MLOAD PUSH1 0x20 PUSH2 0x4708 DUP4 CODECOPY DUP2 MLOAD SWAP2 MSTORE CALLER PUSH2 0x1A02 JUMP JUMPDEST PUSH2 0x921 JUMPI PUSH1 0x40 MLOAD PUSH3 0x461BCD PUSH1 0xE5 SHL DUP2 MSTORE PUSH1 0x4 ADD PUSH2 0x825 SWAP1 PUSH2 0x440E JUMP JUMPDEST PUSH1 0x1 PUSH1 0x1 PUSH1 0xA0 SHL SUB DUP3 AND PUSH1 0x0 SWAP1 DUP2 MSTORE PUSH1 0xF PUSH1 0x20 SWAP1 DUP2 MSTORE PUSH1 0x40 SWAP2 DUP3 SWAP1 KECCAK256 DUP1 SLOAD DUP4 MLOAD DUP2 DUP5 MUL DUP2 ADD DUP5 ADD SWAP1 SWAP5 MSTORE DUP1 DUP5 MSTORE SWAP1 SWAP2 DUP4 ADD DUP3 DUP3 DUP1 ISZERO PUSH2 0x8CD JUMPI PUSH1 0x20 MUL DUP3 ADD SWAP2 SWAP1 PUSH1 0x0 MSTORE PUSH1 0x20 PUSH1 0x0 KECCAK256 SWAP1 JUMPDEST DUP2 SLOAD DUP2 MSTORE PUSH1 0x20 ADD SWAP1 PUSH1 0x1 ADD SWAP1 DUP1 DUP4 GT PUSH2 0x96B JUMPI POP POP POP POP POP SWAP1 POP SWAP2 SWAP1 POP JUMP JUMPDEST PUSH2 0x992 PUSH2 0x3161 JUMP JUMPDEST CALLER PUSH1 0x0 SWAP1 DUP2 MSTORE PUSH1 0x9 PUSH1 0x20 MSTORE PUSH1 0x40 SWAP1 KECCAK256 PUSH1 0x3 ADD SLOAD PUSH1 0xFF AND ISZERO DUP1 ISZERO PUSH2 0xA7C JUMPI PUSH1 0x40 DUP1 MLOAD PUSH1 0xA0 DUP2 ADD DUP3 MSTORE DUP5 DUP2 MSTORE TIMESTAMP PUSH1 0x20 DUP1 DUP4 ADD DUP3 SWAP1 MSTORE DUP3 DUP5 ADD SWAP2 SWAP1 SWAP2 MSTORE PUSH1 0x1 PUSH1 0x60 DUP4 ADD MSTORE PUSH1 0x80 DUP3 ADD DUP6 SWAP1 MSTORE CALLER PUSH1 0x0 SWAP1 DUP2 MSTORE PUSH1 0x9 SWAP1 SWAP2 MSTORE SWAP2 SWAP1 SWAP2 KECCAK256 DUP2 MLOAD DUP2 SWAP1 PUSH2 0x9F7 SWAP1 DUP3 PUSH2 0x447F JUMP JUMPDEST POP PUSH1 0x20 DUP3 ADD MLOAD PUSH1 0x1 DUP3 ADD SSTORE PUSH1 0x40 DUP3 ADD MLOAD PUSH1 0x2 DUP3 ADD SSTORE PUSH1 0x60 DUP3 ADD MLOAD PUSH1 0x3 DUP3 ADD DUP1 SLOAD PUSH1 0xFF NOT AND SWAP2 ISZERO ISZERO SWAP2 SWAP1 SWAP2 OR SWAP1 SSTORE PUSH1 0x80 DUP3 ADD MLOAD PUSH1 0x4 DUP3 ADD SWAP1 PUSH2 0xA38 SWAP1 DUP3 PUSH2 0x447F JUMP JUMPDEST POP POP PUSH1 0x40 MLOAD CALLER SWAP2 POP PUSH32 0x5DF23EA22902B85ACDB8170E942605AB253B9F31ACCC498D0A7C3A43D300C675 SWAP1 PUSH2 0xA6F SWAP1 DUP7 SWAP1 TIMESTAMP SWAP1 PUSH2 0x453D JUMP JUMPDEST PUSH1 0x40 MLOAD DUP1 SWAP2 SUB SWAP1 LOG2 POP POP POP JUMP JUMPDEST CALLER PUSH1 0x0 SWAP1 DUP2 MSTORE PUSH1 0x9 PUSH1 0x20 MSTORE PUSH1 0x40 SWAP1 KECCAK256 PUSH2 0xA95 DUP5 DUP3 PUSH2 0x447F JUMP JUMPDEST POP CALLER PUSH1 0x0 SWAP1 DUP2 MSTORE PUSH1 0x9 PUSH1 0x20 MSTORE PUSH1 0x40 SWAP1 KECCAK256 TIMESTAMP PUSH1 0x2 DUP3 ADD SSTORE PUSH1 0x4 ADD PUSH2 0xAB8 DUP4 DUP3 PUSH2 0x447F JUMP JUMPDEST POP CALLER PUSH1 0x1 PUSH1 0x1 PUSH1 0xA0 SHL SUB AND PUSH32 0x4BB993E40976C9F9359A7E8001431C7B30C1645654767BFD93570C6795AB5ABD DUP5 TIMESTAMP PUSH1 0x40 MLOAD PUSH2 0xA6F SWAP3 SWAP2 SWAP1 PUSH2 0x453D JUMP JUMPDEST POP POP POP JUMP JUMPDEST PUSH1 0x0 SWAP1 DUP2 MSTORE PUSH1 0x1 PUSH1 0x20 DUP2 SWAP1 MSTORE PUSH1 0x40 SWAP1 SWAP2 KECCAK256 ADD SLOAD SWAP1 JUMP JUMPDEST PUSH2 0xB18 DUP3 PUSH2 0xAF9 JUMP JUMPDEST PUSH2 0xB21 DUP2 PUSH2 0x3157 JUMP JUMPDEST PUSH2 0xB2B DUP4 DUP4 PUSH2 0x3185 JUMP JUMPDEST POP POP POP POP JUMP JUMPDEST PUSH1 0x60 CALLER PUSH1 0x1 PUSH1 0x1 PUSH1 0xA0 SHL SUB DUP4 AND EQ DUP1 PUSH2 0xB5D JUMPI POP PUSH2 0xB5D PUSH1 0x0 DUP1 MLOAD PUSH1 0x20 PUSH2 0x4708 DUP4 CODECOPY DUP2 MLOAD SWAP2 MSTORE CALLER PUSH2 0x1A02 JUMP JUMPDEST PUSH2 0xB79 JUMPI PUSH1 0x40 MLOAD PUSH3 0x461BCD PUSH1 0xE5 SHL DUP2 MSTORE PUSH1 0x4 ADD PUSH2 0x825 SWAP1 PUSH2 0x440E JUMP JUMPDEST PUSH1 0x1 PUSH1 0x1 PUSH1 0xA0 SHL SUB DUP3 AND PUSH1 0x0 SWAP1 DUP2 MSTORE PUSH1 0xD PUSH1 0x20 SWAP1 DUP2 MSTORE PUSH1 0x40 SWAP2 DUP3 SWAP1 KECCAK256 DUP1 SLOAD DUP4 MLOAD DUP2 DUP5 MUL DUP2 ADD DUP5 ADD SWAP1 SWAP5 MSTORE DUP1 DUP5 MSTORE SWAP1 SWAP2 DUP4 ADD DUP3 DUP3 DUP1 ISZERO PUSH2 0x8CD JUMPI PUSH1 0x20 MUL DUP3 ADD SWAP2 SWAP1 PUSH1 0x0 MSTORE PUSH1 0x20 PUSH1 0x0 KECCAK256 SWAP1 DUP2 SLOAD DUP2 MSTORE PUSH1 0x20 ADD SWAP1 PUSH1 0x1 ADD SWAP1 DUP1 DUP4 GT PUSH2 0x96B JUMPI POP POP POP POP POP SWAP1 POP SWAP2 SWAP1 POP JUMP JUMPDEST PUSH1 0x1 PUSH1 0x1 PUSH1 0xA0 SHL SUB DUP2 AND CALLER EQ PUSH2 0xC0A JUMPI PUSH1 0x40 MLOAD PUSH4 0x334BD919 PUSH1 0xE1 SHL DUP2 MSTORE PUSH1 0x4 ADD PUSH1 0x40 MLOAD DUP1 SWAP2 SUB SWAP1 REVERT JUMPDEST PUSH2 0xAF4 DUP3 DUP3 PUSH2 0x31FE JUMP JUMPDEST PUSH1 0x0 PUSH2 0xC1F DUP2 PUSH2 0x3157 JUMP JUMPDEST PUSH2 0xC27 PUSH2 0x326B JUMP JUMPDEST POP JUMP JUMPDEST PUSH1 0x0 PUSH2 0xC34 PUSH2 0x3161 JUMP JUMPDEST CALLER PUSH1 0x0 SWAP1 DUP2 MSTORE PUSH1 0x9 PUSH1 0x20 MSTORE PUSH1 0x40 SWAP1 KECCAK256 PUSH1 0x3 ADD SLOAD PUSH1 0xFF AND PUSH2 0xC66 JUMPI PUSH1 0x40 MLOAD PUSH3 0x461BCD PUSH1 0xE5 SHL DUP2 MSTORE PUSH1 0x4 ADD PUSH2 0x825 SWAP1 PUSH2 0x455F JUMP JUMPDEST PUSH1 0x4 DUP1 SLOAD SWAP1 PUSH1 0x0 PUSH2 0xC76 DUP4 PUSH2 0x4596 JUMP JUMPDEST SWAP1 SWAP2 SSTORE POP POP PUSH1 0x4 SLOAD PUSH1 0x40 DUP1 MLOAD PUSH1 0xC0 DUP2 ADD DUP3 MSTORE DUP3 DUP2 MSTORE PUSH1 0x20 DUP1 DUP3 ADD DUP10 DUP2 MSTORE DUP9 ISZERO ISZERO DUP4 DUP6 ADD MSTORE PUSH1 0x60 DUP4 ADD DUP9 SWAP1 MSTORE PUSH1 0x80 DUP4 ADD DUP8 SWAP1 MSTORE TIMESTAMP PUSH1 0xA0 DUP5 ADD MSTORE PUSH1 0x0 DUP6 DUP2 MSTORE PUSH1 0xC SWAP1 SWAP3 MSTORE SWAP3 SWAP1 KECCAK256 DUP2 MLOAD DUP2 SSTORE SWAP2 MLOAD SWAP1 SWAP2 SWAP1 PUSH1 0x1 DUP3 ADD SWAP1 PUSH2 0xCD3 SWAP1 DUP3 PUSH2 0x447F JUMP JUMPDEST POP PUSH1 0x40 DUP3 DUP2 ADD MLOAD PUSH1 0x2 DUP4 ADD DUP1 SLOAD PUSH1 0xFF NOT AND SWAP2 ISZERO ISZERO SWAP2 SWAP1 SWAP2 OR SWAP1 SSTORE PUSH1 0x60 DUP4 ADD MLOAD PUSH1 0x3 DUP4 ADD SSTORE PUSH1 0x80 DUP4 ADD MLOAD PUSH1 0x4 DUP4 ADD SSTORE PUSH1 0xA0 SWAP1 SWAP3 ADD MLOAD PUSH1 0x5 SWAP1 SWAP2 ADD SSTORE PUSH1 0x0 DUP3 DUP2 MSTORE PUSH1 0x15 PUSH1 0x20 SWAP1 DUP2 MSTORE DUP3 DUP3 KECCAK256 DUP1 SLOAD CALLER PUSH1 0x1 PUSH1 0x1 PUSH1 0xA0 SHL SUB NOT SWAP1 SWAP2 AND DUP2 OR SWAP1 SWAP2 SSTORE DUP1 DUP4 MSTORE PUSH1 0xB DUP3 MSTORE DUP4 DUP4 KECCAK256 DUP1 SLOAD PUSH1 0x1 DUP2 ADD DUP3 SSTORE SWAP1 DUP5 MSTORE SWAP2 SWAP1 SWAP3 KECCAK256 ADD DUP4 SWAP1 SSTORE SWAP1 MLOAD DUP3 SWAP2 SWAP1 PUSH32 0xB9E5855C05B4297BAF0B4F6174BD05A6BD6D2E22A10A228D364B4350DCEE1918 SWAP1 PUSH2 0xD7F SWAP1 DUP11 SWAP1 PUSH2 0x3952 JUMP JUMPDEST PUSH1 0x40 MLOAD DUP1 SWAP2 SUB SWAP1 LOG3 SWAP1 POP JUMPDEST SWAP5 SWAP4 POP POP POP POP JUMP JUMPDEST PUSH1 0x0 PUSH2 0xD9C PUSH2 0x3161 JUMP JUMPDEST CALLER PUSH1 0x1 PUSH1 0x1 PUSH1 0xA0 SHL SUB DUP7 AND EQ DUP1 PUSH2 0xDC6 JUMPI POP PUSH2 0xDC6 PUSH1 0x0 DUP1 MLOAD PUSH1 0x20 PUSH2 0x4708 DUP4 CODECOPY DUP2 MLOAD SWAP2 MSTORE CALLER PUSH2 0x1A02 JUMP JUMPDEST PUSH2 0xE02 JUMPI PUSH1 0x40 MLOAD PUSH3 0x461BCD PUSH1 0xE5 SHL DUP2 MSTORE PUSH1 0x20 PUSH1 0x4 DUP3 ADD MSTORE PUSH1 0xD PUSH1 0x24 DUP3 ADD MSTORE PUSH13 0x2737903832B936B4B9B9B4B7B7 PUSH1 0x99 SHL PUSH1 0x44 DUP3 ADD MSTORE PUSH1 0x64 ADD PUSH2 0x825 JUMP JUMPDEST PUSH1 0x8 DUP1 SLOAD SWAP1 PUSH1 0x0 PUSH2 0xE12 DUP4 PUSH2 0x4596 JUMP JUMPDEST SWAP1 SWAP2 SSTORE POP POP PUSH1 0x8 SLOAD PUSH1 0x40 DUP1 MLOAD PUSH1 0xC0 DUP2 ADD DUP3 MSTORE DUP3 DUP2 MSTORE CALLER PUSH1 0x20 DUP3 ADD MSTORE SWAP1 DUP2 ADD DUP7 SWAP1 MSTORE PUSH1 0x60 DUP2 ADD DUP6 PUSH1 0x4 DUP2 GT ISZERO PUSH2 0xE49 JUMPI PUSH2 0xE49 PUSH2 0x3CAF JUMP JUMPDEST DUP2 MSTORE TIMESTAMP PUSH1 0x20 DUP1 DUP4 ADD SWAP2 SWAP1 SWAP2 MSTORE PUSH1 0x40 SWAP2 DUP3 ADD DUP7 SWAP1 MSTORE PUSH1 0x0 DUP5 DUP2 MSTORE PUSH1 0x14 DUP3 MSTORE DUP3 SWAP1 KECCAK256 DUP4 MLOAD DUP2 SSTORE SWAP1 DUP4 ADD MLOAD PUSH1 0x1 DUP3 ADD DUP1 SLOAD PUSH1 0x1 PUSH1 0x1 PUSH1 0xA0 SHL SUB NOT AND PUSH1 0x1 PUSH1 0x1 PUSH1 0xA0 SHL SUB SWAP1 SWAP3 AND SWAP2 SWAP1 SWAP2 OR SWAP1 SSTORE SWAP1 DUP3 ADD MLOAD PUSH1 0x2 DUP3 ADD SWAP1 PUSH2 0xEA5 SWAP1 DUP3 PUSH2 0x447F JUMP JUMPDEST POP PUSH1 0x60 DUP3 ADD MLOAD PUSH1 0x3 DUP3 ADD DUP1 SLOAD PUSH1 0xFF NOT AND PUSH1 0x1 DUP4 PUSH1 0x4 DUP2 GT ISZERO PUSH2 0xEC9 JUMPI PUSH2 0xEC9 PUSH2 0x3CAF JUMP JUMPDEST MUL OR SWAP1 SSTORE POP PUSH1 0x80 DUP3 ADD MLOAD PUSH1 0x4 DUP3 ADD SSTORE PUSH1 0xA0 SWAP1 SWAP2 ADD MLOAD PUSH1 0x5 SWAP1 SWAP2 ADD SSTORE PUSH1 0x0 DUP2 DUP2 MSTORE PUSH1 0x19 PUSH1 0x20 SWAP1 DUP2 MSTORE PUSH1 0x40 DUP1 DUP4 KECCAK256 DUP1 SLOAD PUSH1 0x1 PUSH1 0x1 PUSH1 0xA0 SHL SUB NOT AND PUSH1 0x1 PUSH1 0x1 PUSH1 0xA0 SHL SUB DUP12 AND SWAP1 DUP2 OR SWAP1 SWAP2 SSTORE DUP1 DUP5 MSTORE PUSH1 0x13 DUP4 MSTORE DUP2 DUP5 KECCAK256 DUP1 SLOAD PUSH1 0x1 DUP2 ADD DUP3 SSTORE SWAP1 DUP6 MSTORE SWAP3 SWAP1 SWAP4 KECCAK256 SWAP1 SWAP2 ADD DUP4 SWAP1 SSTORE MLOAD DUP3 SWAP2 CALLER SWAP2 PUSH32 0xCC936E965CB312F996247A9F5C0929B57C3078F4D25F38C1E1FA8171238E54A7 SWAP1 PUSH2 0xF64 SWAP1 DUP10 SWAP1 TIMESTAMP SWAP1 PUSH2 0x45AF JUMP JUMPDEST PUSH1 0x40 MLOAD DUP1 SWAP2 SUB SWAP1 LOG4 SWAP6 SWAP5 POP POP POP POP POP JUMP JUMPDEST PUSH2 0xFB0 PUSH1 0x40 MLOAD DUP1 PUSH1 0xC0 ADD PUSH1 0x40 MSTORE DUP1 PUSH1 0x0 DUP2 MSTORE PUSH1 0x20 ADD PUSH1 0x60 DUP2 MSTORE PUSH1 0x20 ADD PUSH1 0x0 ISZERO ISZERO DUP2 MSTORE PUSH1 0x20 ADD PUSH1 0x0 DUP2 MSTORE PUSH1 0x20 ADD PUSH1 0x0 DUP2 MSTORE PUSH1 0x20 ADD PUSH1 0x0 DUP2 MSTORE POP SWAP1 JUMP JUMPDEST PUSH1 0x0 DUP3 DUP2 MSTORE PUSH1 0x15 PUSH1 0x20 MSTORE PUSH1 0x40 SWAP1 KECCAK256 SLOAD PUSH1 0x1 PUSH1 0x1 PUSH1 0xA0 SHL SUB AND CALLER DUP2 EQ DUP1 PUSH2 0xFE9 JUMPI POP PUSH2 0xFE9 PUSH1 0x0 DUP1 MLOAD PUSH1 0x20 PUSH2 0x4708 DUP4 CODECOPY DUP2 MLOAD SWAP2 MSTORE CALLER PUSH2 0x1A02 JUMP JUMPDEST DUP1 PUSH2 0xFFC JUMPI POP PUSH2 0xFFC DUP2 CALLER PUSH1 0x1 DUP7 PUSH2 0x32B7 JUMP JUMPDEST PUSH2 0x1018 JUMPI PUSH1 0x40 MLOAD PUSH3 0x461BCD PUSH1 0xE5 SHL DUP2 MSTORE PUSH1 0x4 ADD PUSH2 0x825 SWAP1 PUSH2 0x440E JUMP JUMPDEST PUSH1 0xC PUSH1 0x0 DUP5 DUP2 MSTORE PUSH1 0x20 ADD SWAP1 DUP2 MSTORE PUSH1 0x20 ADD PUSH1 0x0 KECCAK256 PUSH1 0x40 MLOAD DUP1 PUSH1 0xC0 ADD PUSH1 0x40 MSTORE SWAP1 DUP2 PUSH1 0x0 DUP3 ADD SLOAD DUP2 MSTORE PUSH1 0x20 ADD PUSH1 0x1 DUP3 ADD DUP1 SLOAD PUSH2 0x1050 SWAP1 PUSH2 0x43D4 JUMP JUMPDEST DUP1 PUSH1 0x1F ADD PUSH1 0x20 DUP1 SWAP2 DIV MUL PUSH1 0x20 ADD PUSH1 0x40 MLOAD SWAP1 DUP2 ADD PUSH1 0x40 MSTORE DUP1 SWAP3 SWAP2 SWAP1 DUP2 DUP2 MSTORE PUSH1 0x20 ADD DUP3 DUP1 SLOAD PUSH2 0x107C SWAP1 PUSH2 0x43D4 JUMP JUMPDEST DUP1 ISZERO PUSH2 0x10C9 JUMPI DUP1 PUSH1 0x1F LT PUSH2 0x109E JUMPI PUSH2 0x100 DUP1 DUP4 SLOAD DIV MUL DUP4 MSTORE SWAP2 PUSH1 0x20 ADD SWAP2 PUSH2 0x10C9 JUMP JUMPDEST DUP3 ADD SWAP2 SWAP1 PUSH1 0x0 MSTORE PUSH1 0x20 PUSH1 0x0 KECCAK256 SWAP1 JUMPDEST DUP2 SLOAD DUP2 MSTORE SWAP1 PUSH1 0x1 ADD SWAP1 PUSH1 0x20 ADD DUP1 DUP4 GT PUSH2 0x10AC JUMPI DUP3 SWAP1 SUB PUSH1 0x1F AND DUP3 ADD SWAP2 JUMPDEST POP POP POP SWAP2 DUP4 MSTORE POP POP PUSH1 0x2 DUP3 ADD SLOAD PUSH1 0xFF AND ISZERO ISZERO PUSH1 0x20 DUP3 ADD MSTORE PUSH1 0x3 DUP3 ADD SLOAD PUSH1 0x40 DUP3 ADD MSTORE PUSH1 0x4 DUP3 ADD SLOAD PUSH1 0x60 DUP3 ADD MSTORE PUSH1 0x5 SWAP1 SWAP2 ADD SLOAD PUSH1 0x80 SWAP1 SWAP2 ADD MSTORE SWAP4 SWAP3 POP POP POP JUMP JUMPDEST PUSH2 0x110F PUSH2 0x3161 JUMP JUMPDEST PUSH1 0x0 DUP2 DUP2 MSTORE PUSH1 0x18 PUSH1 0x20 MSTORE PUSH1 0x40 SWAP1 KECCAK256 SLOAD DUP2 SWAP1 PUSH1 0x1 PUSH1 0x1 PUSH1 0xA0 SHL SUB AND CALLER EQ PUSH2 0x1147 JUMPI PUSH1 0x40 MLOAD PUSH3 0x461BCD PUSH1 0xE5 SHL DUP2 MSTORE PUSH1 0x4 ADD PUSH2 0x825 SWAP1 PUSH2 0x45CA JUMP JUMPDEST PUSH1 0x0 DUP3 DUP2 MSTORE PUSH1 0x12 PUSH1 0x20 MSTORE PUSH1 0x40 DUP1 DUP3 KECCAK256 PUSH1 0x9 ADD DUP1 SLOAD PUSH2 0xFF00 NOT AND PUSH2 0x200 OR SWAP1 SSTORE MLOAD DUP4 SWAP2 CALLER SWAP2 PUSH32 0xECC5422BDBC6A29EB33382A149718B65F504D9EBFC6AA2D2B142BCC6AD837A6B SWAP2 SWAP1 LOG3 POP POP JUMP JUMPDEST PUSH2 0x11C5 PUSH1 0x40 MLOAD DUP1 PUSH1 0xA0 ADD PUSH1 0x40 MSTORE DUP1 PUSH1 0x0 DUP2 MSTORE PUSH1 0x20 ADD PUSH1 0x60 DUP2 MSTORE PUSH1 0x20 ADD PUSH1 0x60 DUP2 MSTORE PUSH1 0x20 ADD PUSH1 0x0 DUP2 MSTORE PUSH1 0x20 ADD PUSH1 0x0 DUP2 MSTORE POP SWAP1 JUMP JUMPDEST PUSH1 0x0 DUP3 DUP2 MSTORE PUSH1 0x16 PUSH1 0x20 MSTORE PUSH1 0x40 SWAP1 KECCAK256 SLOAD PUSH1 0x1 PUSH1 0x1 PUSH1 0xA0 SHL SUB AND CALLER DUP2 EQ DUP1 PUSH2 0x11FE JUMPI POP PUSH2 0x11FE PUSH1 0x0 DUP1 MLOAD PUSH1 0x20 PUSH2 0x4708 DUP4 CODECOPY DUP2 MLOAD SWAP2 MSTORE CALLER PUSH2 0x1A02 JUMP JUMPDEST DUP1 PUSH2 0x1211 JUMPI POP PUSH2 0x1211 DUP2 CALLER PUSH1 0x2 DUP7 PUSH2 0x32B7 JUMP JUMPDEST PUSH2 0x122D JUMPI PUSH1 0x40 MLOAD PUSH3 0x461BCD PUSH1 0xE5 SHL DUP2 MSTORE PUSH1 0x4 ADD PUSH2 0x825 SWAP1 PUSH2 0x440E JUMP JUMPDEST PUSH1 0xE PUSH1 0x0 DUP5 DUP2 MSTORE PUSH1 0x20 ADD SWAP1 DUP2 MSTORE PUSH1 0x20 ADD PUSH1 0x0 KECCAK256 PUSH1 0x40 MLOAD DUP1 PUSH1 0xA0 ADD PUSH1 0x40 MSTORE SWAP1 DUP2 PUSH1 0x0 DUP3 ADD SLOAD DUP2 MSTORE PUSH1 0x20 ADD PUSH1 0x1 DUP3 ADD DUP1 SLOAD PUSH2 0x1265 SWAP1 PUSH2 0x43D4 JUMP JUMPDEST DUP1 PUSH1 0x1F ADD PUSH1 0x20 DUP1 SWAP2 DIV MUL PUSH1 0x20 ADD PUSH1 0x40 MLOAD SWAP1 DUP2 ADD PUSH1 0x40 MSTORE DUP1 SWAP3 SWAP2 SWAP1 DUP2 DUP2 MSTORE PUSH1 0x20 ADD DUP3 DUP1 SLOAD PUSH2 0x1291 SWAP1 PUSH2 0x43D4 JUMP JUMPDEST DUP1 ISZERO PUSH2 0x12DE JUMPI DUP1 PUSH1 0x1F LT PUSH2 0x12B3 JUMPI PUSH2 0x100 DUP1 DUP4 SLOAD DIV MUL DUP4 MSTORE SWAP2 PUSH1 0x20 ADD SWAP2 PUSH2 0x12DE JUMP JUMPDEST DUP3 ADD SWAP2 SWAP1 PUSH1 0x0 MSTORE PUSH1 0x20 PUSH1 0x0 KECCAK256 SWAP1 JUMPDEST DUP2 SLOAD DUP2 MSTORE SWAP1 PUSH1 0x1 ADD SWAP1 PUSH1 0x20 ADD DUP1 DUP4 GT PUSH2 0x12C1 JUMPI DUP3 SWAP1 SUB PUSH1 0x1F AND DUP3 ADD SWAP2 JUMPDEST POP POP POP POP POP DUP2 MSTORE PUSH1 0x20 ADD PUSH1 0x2 DUP3 ADD DUP1 SLOAD PUSH2 0x12F7 SWAP1 PUSH2 0x43D4 JUMP JUMPDEST DUP1 PUSH1 0x1F ADD PUSH1 0x20 DUP1 SWAP2 DIV MUL PUSH1 0x20 ADD PUSH1 0x40 MLOAD SWAP1 DUP2 ADD PUSH1 0x40 MSTORE DUP1 SWAP3 SWAP2 SWAP1 DUP2 DUP2 MSTORE PUSH1 0x20 ADD DUP3 DUP1 SLOAD PUSH2 0x1323 SWAP1 PUSH2 0x43D4 JUMP JUMPDEST DUP1 ISZERO PUSH2 0x1370 JUMPI DUP1 PUSH1 0x1F LT PUSH2 0x1345 JUMPI PUSH2 0x100 DUP1 DUP4 SLOAD DIV MUL DUP4 MSTORE SWAP2 PUSH1 0x20 ADD SWAP2 PUSH2 0x1370 JUMP JUMPDEST DUP3 ADD SWAP2 SWAP1 PUSH1 0x0 MSTORE PUSH1 0x20 PUSH1 0x0 KECCAK256 SWAP1 JUMPDEST DUP2 SLOAD DUP2 MSTORE SWAP1 PUSH1 0x1 ADD SWAP1 PUSH1 0x20 ADD DUP1 DUP4 GT PUSH2 0x1353 JUMPI DUP3 SWAP1 SUB PUSH1 0x1F AND DUP3 ADD SWAP2 JUMPDEST POP POP POP POP POP DUP2 MSTORE PUSH1 0x20 ADD PUSH1 0x3 DUP3 ADD SLOAD DUP2 MSTORE PUSH1 0x20 ADD PUSH1 0x4 DUP3 ADD SLOAD DUP2 MSTORE POP POP SWAP2 POP POP SWAP2 SWAP1 POP JUMP JUMPDEST PUSH2 0x139D PUSH2 0x378B JUMP JUMPDEST PUSH1 0x0 DUP3 DUP2 MSTORE PUSH1 0x19 PUSH1 0x20 MSTORE PUSH1 0x40 SWAP1 KECCAK256 SLOAD PUSH1 0x1 PUSH1 0x1 PUSH1 0xA0 SHL SUB AND CALLER DUP2 EQ DUP1 PUSH2 0x13D6 JUMPI POP PUSH2 0x13D6 PUSH1 0x0 DUP1 MLOAD PUSH1 0x20 PUSH2 0x4708 DUP4 CODECOPY DUP2 MLOAD SWAP2 MSTORE CALLER PUSH2 0x1A02 JUMP JUMPDEST PUSH2 0x13F2 JUMPI PUSH1 0x40 MLOAD PUSH3 0x461BCD PUSH1 0xE5 SHL DUP2 MSTORE PUSH1 0x4 ADD PUSH2 0x825 SWAP1 PUSH2 0x45ED JUMP JUMPDEST PUSH1 0x0 DUP4 DUP2 MSTORE PUSH1 0x14 PUSH1 0x20 SWAP1 DUP2 MSTORE PUSH1 0x40 SWAP2 DUP3 SWAP1 KECCAK256 DUP3 MLOAD PUSH1 0xC0 DUP2 ADD DUP5 MSTORE DUP2 SLOAD DUP2 MSTORE PUSH1 0x1 DUP3 ADD SLOAD PUSH1 0x1 PUSH1 0x1 PUSH1 0xA0 SHL SUB AND SWAP3 DUP2 ADD SWAP3 SWAP1 SWAP3 MSTORE PUSH1 0x2 DUP2 ADD DUP1 SLOAD SWAP3 SWAP4 SWAP2 SWAP3 SWAP2 DUP5 ADD SWAP2 PUSH2 0x143C SWAP1 PUSH2 0x43D4 JUMP JUMPDEST DUP1 PUSH1 0x1F ADD PUSH1 0x20 DUP1 SWAP2 DIV MUL PUSH1 0x20 ADD PUSH1 0x40 MLOAD SWAP1 DUP2 ADD PUSH1 0x40 MSTORE DUP1 SWAP3 SWAP2 SWAP1 DUP2 DUP2 MSTORE PUSH1 0x20 ADD DUP3 DUP1 SLOAD PUSH2 0x1468 SWAP1 PUSH2 0x43D4 JUMP JUMPDEST DUP1 ISZERO PUSH2 0x14B5 JUMPI DUP1 PUSH1 0x1F LT PUSH2 0x148A JUMPI PUSH2 0x100 DUP1 DUP4 SLOAD DIV MUL DUP4 MSTORE SWAP2 PUSH1 0x20 ADD SWAP2 PUSH2 0x14B5 JUMP JUMPDEST DUP3 ADD SWAP2 SWAP1 PUSH1 0x0 MSTORE PUSH1 0x20 PUSH1 0x0 KECCAK256 SWAP1 JUMPDEST DUP2 SLOAD DUP2 MSTORE SWAP1 PUSH1 0x1 ADD SWAP1 PUSH1 0x20 ADD DUP1 DUP4 GT PUSH2 0x1498 JUMPI DUP3 SWAP1 SUB PUSH1 0x1F AND DUP3 ADD SWAP2 JUMPDEST POP POP POP SWAP2 DUP4 MSTORE POP POP PUSH1 0x3 DUP3 ADD SLOAD PUSH1 0x20 SWAP1 SWAP2 ADD SWAP1 PUSH1 0xFF AND PUSH1 0x4 DUP2 GT ISZERO PUSH2 0x14DC JUMPI PUSH2 0x14DC PUSH2 0x3CAF JUMP JUMPDEST PUSH1 0x4 DUP2 GT ISZERO PUSH2 0x14ED JUMPI PUSH2 0x14ED PUSH2 0x3CAF JUMP JUMPDEST DUP2 MSTORE PUSH1 0x4 DUP3 ADD SLOAD PUSH1 0x20 DUP3 ADD MSTORE PUSH1 0x5 SWAP1 SWAP2 ADD SLOAD PUSH1 0x40 SWAP1 SWAP2 ADD MSTORE SWAP4 SWAP3 POP POP POP JUMP JUMPDEST PUSH2 0x1514 PUSH2 0x366C JUMP JUMPDEST PUSH2 0x151E PUSH1 0x0 PUSH2 0x369E JUMP JUMPDEST JUMP JUMPDEST PUSH1 0x0 PUSH2 0x152B DUP2 PUSH2 0x3157 JUMP JUMPDEST PUSH2 0x1543 PUSH1 0x0 DUP1 MLOAD PUSH1 0x20 PUSH2 0x46E8 DUP4 CODECOPY DUP2 MLOAD SWAP2 MSTORE DUP4 PUSH2 0xB0F JUMP JUMPDEST DUP2 PUSH1 0x1 PUSH1 0x1 PUSH1 0xA0 SHL SUB AND PUSH1 0x0 DUP1 MLOAD PUSH1 0x20 PUSH2 0x46C8 DUP4 CODECOPY DUP2 MLOAD SWAP2 MSTORE PUSH1 0x0 DUP1 MLOAD PUSH1 0x20 PUSH2 0x46E8 DUP4 CODECOPY DUP2 MLOAD SWAP2 MSTORE PUSH1 0x40 MLOAD PUSH2 0x7BA SWAP2 DUP2 MSTORE PUSH1 0x20 ADD SWAP1 JUMP JUMPDEST PUSH1 0x0 PUSH2 0x1584 PUSH2 0x3161 JUMP JUMPDEST CALLER PUSH1 0x0 SWAP1 DUP2 MSTORE PUSH1 0x9 PUSH1 0x20 MSTORE PUSH1 0x40 SWAP1 KECCAK256 PUSH1 0x3 ADD SLOAD PUSH1 0xFF AND PUSH2 0x15B6 JUMPI PUSH1 0x40 MLOAD PUSH3 0x461BCD PUSH1 0xE5 SHL DUP2 MSTORE PUSH1 0x4 ADD PUSH2 0x825 SWAP1 PUSH2 0x455F JUMP JUMPDEST PUSH1 0x5 DUP1 SLOAD SWAP1 PUSH1 0x0 PUSH2 0x15C6 DUP4 PUSH2 0x4596 JUMP JUMPDEST SWAP1 SWAP2 SSTORE POP POP PUSH1 0x5 SLOAD PUSH1 0x40 DUP1 MLOAD PUSH1 0xA0 DUP2 ADD DUP3 MSTORE DUP3 DUP2 MSTORE PUSH1 0x20 DUP1 DUP3 ADD DUP9 DUP2 MSTORE DUP3 DUP5 ADD DUP9 SWAP1 MSTORE PUSH1 0x60 DUP4 ADD DUP8 SWAP1 MSTORE TIMESTAMP PUSH1 0x80 DUP5 ADD MSTORE PUSH1 0x0 DUP6 DUP2 MSTORE PUSH1 0xE SWAP1 SWAP3 MSTORE SWAP3 SWAP1 KECCAK256 DUP2 MLOAD DUP2 SSTORE SWAP2 MLOAD SWAP1 SWAP2 SWAP1 PUSH1 0x1 DUP3 ADD SWAP1 PUSH2 0x161B SWAP1 DUP3 PUSH2 0x447F JUMP JUMPDEST POP PUSH1 0x40 DUP3 ADD MLOAD PUSH1 0x2 DUP3 ADD SWAP1 PUSH2 0x1630 SWAP1 DUP3 PUSH2 0x447F JUMP JUMPDEST POP PUSH1 0x60 DUP3 ADD MLOAD PUSH1 0x3 DUP3 ADD SSTORE PUSH1 0x80 SWAP1 SWAP2 ADD MLOAD PUSH1 0x4 SWAP1 SWAP2 ADD SSTORE PUSH1 0x0 DUP2 DUP2 MSTORE PUSH1 0x16 PUSH1 0x20 SWAP1 DUP2 MSTORE PUSH1 0x40 DUP1 DUP4 KECCAK256 DUP1 SLOAD PUSH1 0x1 PUSH1 0x1 PUSH1 0xA0 SHL SUB NOT AND CALLER SWAP1 DUP2 OR SWAP1 SWAP2 SSTORE DUP1 DUP5 MSTORE PUSH1 0xD DUP4 MSTORE DUP2 DUP5 KECCAK256 DUP1 SLOAD PUSH1 0x1 DUP2 ADD DUP3 SSTORE SWAP1 DUP6 MSTORE SWAP3 SWAP1 SWAP4 KECCAK256 SWAP1 SWAP2 ADD DUP4 SWAP1 SSTORE MLOAD DUP3 SWAP2 SWAP1 PUSH32 0x248B56445B6B2964C05EB68404FEEBE918D6D28DE7F6386FC4CABB9E0B70D500 SWAP1 PUSH2 0x16BB SWAP1 DUP10 SWAP1 PUSH2 0x3952 JUMP JUMPDEST PUSH1 0x40 MLOAD DUP1 SWAP2 SUB SWAP1 LOG3 SWAP5 SWAP4 POP POP POP POP JUMP JUMPDEST PUSH1 0x0 PUSH2 0x16D6 DUP2 PUSH2 0x3157 JUMP JUMPDEST PUSH2 0xC27 PUSH2 0x36EE JUMP JUMPDEST PUSH2 0x16E6 PUSH2 0x3161 JUMP JUMPDEST PUSH1 0x0 DUP5 DUP2 MSTORE PUSH1 0x16 PUSH1 0x20 MSTORE PUSH1 0x40 SWAP1 KECCAK256 SLOAD DUP5 SWAP1 PUSH1 0x1 PUSH1 0x1 PUSH1 0xA0 SHL SUB AND CALLER EQ PUSH2 0x171E JUMPI PUSH1 0x40 MLOAD PUSH3 0x461BCD PUSH1 0xE5 SHL DUP2 MSTORE PUSH1 0x4 ADD PUSH2 0x825 SWAP1 PUSH2 0x45CA JUMP JUMPDEST PUSH1 0x0 DUP6 DUP2 MSTORE PUSH1 0xE PUSH1 0x20 MSTORE PUSH1 0x40 SWAP1 KECCAK256 PUSH1 0x1 DUP2 ADD PUSH2 0x173A DUP7 DUP3 PUSH2 0x447F JUMP JUMPDEST POP PUSH1 0x2 DUP2 ADD PUSH2 0x1749 DUP6 DUP3 PUSH2 0x447F JUMP JUMPDEST POP PUSH1 0x3 DUP2 ADD DUP4 SWAP1 SSTORE PUSH1 0x40 MLOAD DUP7 SWAP1 CALLER SWAP1 PUSH32 0x44F08082EF5253266E365753C1E7CEA2B4BB2025062F0CF4E2288FC811D941C8 SWAP1 PUSH2 0x1785 SWAP1 DUP10 SWAP1 PUSH2 0x3952 JUMP JUMPDEST PUSH1 0x40 MLOAD DUP1 SWAP2 SUB SWAP1 LOG3 POP POP POP POP POP POP JUMP JUMPDEST PUSH1 0x0 PUSH2 0x179F PUSH2 0x3161 JUMP JUMPDEST CALLER PUSH1 0x0 SWAP1 DUP2 MSTORE PUSH1 0x9 PUSH1 0x20 MSTORE PUSH1 0x40 SWAP1 KECCAK256 PUSH1 0x3 ADD SLOAD PUSH1 0xFF AND PUSH2 0x17D1 JUMPI PUSH1 0x40 MLOAD PUSH3 0x461BCD PUSH1 0xE5 SHL DUP2 MSTORE PUSH1 0x4 ADD PUSH2 0x825 SWAP1 PUSH2 0x455F JUMP JUMPDEST PUSH1 0x6 DUP1 SLOAD SWAP1 PUSH1 0x0 PUSH2 0x17E1 DUP4 PUSH2 0x4596 JUMP JUMPDEST SWAP2 SWAP1 POP SSTORE POP PUSH1 0x0 PUSH1 0x6 SLOAD SWAP1 POP PUSH1 0x40 MLOAD DUP1 PUSH2 0x100 ADD PUSH1 0x40 MSTORE DUP1 DUP3 DUP2 MSTORE PUSH1 0x20 ADD DUP10 DUP2 MSTORE PUSH1 0x20 ADD DUP9 DUP2 MSTORE PUSH1 0x20 ADD DUP8 PUSH1 0x7 DUP2 GT ISZERO PUSH2 0x181D JUMPI PUSH2 0x181D PUSH2 0x3CAF JUMP JUMPDEST DUP2 MSTORE DUP7 ISZERO ISZERO PUSH1 0x20 DUP1 DUP4 ADD SWAP2 SWAP1 SWAP2 MSTORE PUSH1 0x40 DUP1 DUP4 ADD DUP9 SWAP1 MSTORE TIMESTAMP PUSH1 0x60 DUP5 ADD MSTORE PUSH1 0x80 SWAP1 SWAP3 ADD DUP7 SWAP1 MSTORE PUSH1 0x0 DUP5 DUP2 MSTORE PUSH1 0x10 DUP3 MSTORE SWAP2 SWAP1 SWAP2 KECCAK256 DUP3 MLOAD DUP2 SSTORE SWAP1 DUP3 ADD MLOAD PUSH1 0x1 DUP3 ADD SWAP1 PUSH2 0x1865 SWAP1 DUP3 PUSH2 0x447F JUMP JUMPDEST POP PUSH1 0x40 DUP3 ADD MLOAD PUSH1 0x2 DUP3 ADD SWAP1 PUSH2 0x187A SWAP1 DUP3 PUSH2 0x447F JUMP JUMPDEST POP PUSH1 0x60 DUP3 ADD MLOAD PUSH1 0x3 DUP3 ADD DUP1 SLOAD PUSH1 0xFF NOT AND PUSH1 0x1 DUP4 PUSH1 0x7 DUP2 GT ISZERO PUSH2 0x189E JUMPI PUSH2 0x189E PUSH2 0x3CAF JUMP JUMPDEST MUL OR SWAP1 SSTORE POP PUSH1 0x80 DUP3 ADD MLOAD PUSH1 0x3 DUP3 ADD DUP1 SLOAD SWAP2 ISZERO ISZERO PUSH2 0x100 MUL PUSH2 0xFF00 NOT SWAP1 SWAP3 AND SWAP2 SWAP1 SWAP2 OR SWAP1 SSTORE PUSH1 0xA0 DUP3 ADD MLOAD PUSH1 0x4 DUP3 ADD SSTORE PUSH1 0xC0 DUP3 ADD MLOAD PUSH1 0x5 DUP3 ADD SSTORE PUSH1 0xE0 DUP3 ADD MLOAD PUSH1 0x6 DUP3 ADD SWAP1 PUSH2 0x18EA SWAP1 DUP3 PUSH2 0x447F JUMP JUMPDEST POP POP POP PUSH1 0x0 DUP2 DUP2 MSTORE PUSH1 0x17 PUSH1 0x20 SWAP1 DUP2 MSTORE PUSH1 0x40 DUP1 DUP4 KECCAK256 DUP1 SLOAD PUSH1 0x1 PUSH1 0x1 PUSH1 0xA0 SHL SUB NOT AND CALLER SWAP1 DUP2 OR SWAP1 SWAP2 SSTORE DUP1 DUP5 MSTORE PUSH1 0xF DUP4 MSTORE DUP2 DUP5 KECCAK256 DUP1 SLOAD PUSH1 0x1 DUP2 ADD DUP3 SSTORE SWAP1 DUP6 MSTORE SWAP3 SWAP1 SWAP4 KECCAK256 SWAP1 SWAP2 ADD DUP4 SWAP1 SSTORE MLOAD DUP3 SWAP2 SWAP1 PUSH32 0x7E2AC09F9BDE6130FF92917C5D2CC031AFBBA4154566E196417AA56EB0416793 SWAP1 PUSH2 0x1963 SWAP1 DUP11 SWAP1 DUP14 SWAP1 PUSH2 0x460E JUMP JUMPDEST PUSH1 0x40 MLOAD DUP1 SWAP2 SUB SWAP1 LOG3 SWAP8 SWAP7 POP POP POP POP POP POP POP JUMP JUMPDEST PUSH1 0x0 SLOAD PUSH1 0x1 PUSH1 0x1 PUSH1 0xA0 SHL SUB AND SWAP1 JUMP JUMPDEST PUSH1 0x1 PUSH1 0x1 PUSH1 0xA0 SHL SUB DUP2 AND PUSH2 0x19AB JUMPI PUSH1 0x40 MLOAD PUSH3 0x461BCD PUSH1 0xE5 SHL DUP2 MSTORE PUSH1 0x4 ADD PUSH2 0x825 SWAP1 PUSH2 0x462E JUMP JUMPDEST CALLER PUSH1 0x0 DUP2 DUP2 MSTORE PUSH1 0x1A PUSH1 0x20 MSTORE PUSH1 0x40 DUP1 DUP3 KECCAK256 DUP1 SLOAD PUSH1 0x1 PUSH1 0x1 PUSH1 0xA0 SHL SUB NOT AND PUSH1 0x1 PUSH1 0x1 PUSH1 0xA0 SHL SUB DUP7 AND SWAP1 DUP2 OR SWAP1 SWAP2 SSTORE SWAP1 MLOAD SWAP1 SWAP3 SWAP2 PUSH32 0xF0E65FE0D2436800E6455B857DBFBC38741836ADE6B9BF9B8177B377317C1D5E SWAP2 LOG3 POP JUMP JUMPDEST PUSH1 0x0 SWAP2 DUP3 MSTORE PUSH1 0x1 PUSH1 0x20 SWAP1 DUP2 MSTORE PUSH1 0x40 DUP1 DUP5 KECCAK256 PUSH1 0x1 PUSH1 0x1 PUSH1 0xA0 SHL SUB SWAP4 SWAP1 SWAP4 AND DUP5 MSTORE SWAP2 SWAP1 MSTORE SWAP1 KECCAK256 SLOAD PUSH1 0xFF AND SWAP1 JUMP JUMPDEST PUSH2 0x1A35 PUSH2 0x3161 JUMP JUMPDEST PUSH1 0x0 DUP6 DUP2 MSTORE PUSH1 0x15 PUSH1 0x20 MSTORE PUSH1 0x40 SWAP1 KECCAK256 SLOAD DUP6 SWAP1 PUSH1 0x1 PUSH1 0x1 PUSH1 0xA0 SHL SUB AND CALLER EQ PUSH2 0x1A6D JUMPI PUSH1 0x40 MLOAD PUSH3 0x461BCD PUSH1 0xE5 SHL DUP2 MSTORE PUSH1 0x4 ADD PUSH2 0x825 SWAP1 PUSH2 0x45CA JUMP JUMPDEST PUSH1 0x0 DUP7 DUP2 MSTORE PUSH1 0xC PUSH1 0x20 MSTORE PUSH1 0x40 SWAP1 KECCAK256 PUSH1 0x1 DUP2 ADD PUSH2 0x1A89 DUP8 DUP3 PUSH2 0x447F JUMP JUMPDEST POP PUSH1 0x2 DUP2 ADD DUP1 SLOAD PUSH1 0xFF NOT AND DUP7 ISZERO ISZERO OR SWAP1 SSTORE PUSH1 0x3 DUP2 ADD DUP5 SWAP1 SSTORE PUSH1 0x4 DUP2 ADD DUP4 SWAP1 SSTORE PUSH1 0x40 MLOAD DUP8 SWAP1 CALLER SWAP1 PUSH32 0x4D3508C2ADE1F9D136F8852A5ED95ACE66534D58AB56C35DD69E8AE6ECC8A711 SWAP1 PUSH2 0x1ADC SWAP1 DUP11 SWAP1 PUSH2 0x3952 JUMP JUMPDEST PUSH1 0x40 MLOAD DUP1 SWAP2 SUB SWAP1 LOG3 POP POP POP POP POP POP POP JUMP JUMPDEST PUSH2 0x1AF5 PUSH2 0x37DB JUMP JUMPDEST PUSH1 0x0 DUP3 DUP2 MSTORE PUSH1 0x18 PUSH1 0x20 MSTORE PUSH1 0x40 SWAP1 KECCAK256 SLOAD PUSH1 0x1 PUSH1 0x1 PUSH1 0xA0 SHL SUB AND CALLER DUP2 EQ DUP1 PUSH2 0x1B34 JUMPI POP PUSH1 0x0 DUP4 DUP2 MSTORE PUSH1 0x12 PUSH1 0x20 MSTORE PUSH1 0x40 SWAP1 KECCAK256 PUSH1 0x2 ADD SLOAD PUSH1 0x1 PUSH1 0x1 PUSH1 0xA0 SHL SUB AND CALLER EQ JUMPDEST DUP1 PUSH2 0x1B52 JUMPI POP PUSH2 0x1B52 PUSH1 0x0 DUP1 MLOAD PUSH1 0x20 PUSH2 0x4708 DUP4 CODECOPY DUP2 MLOAD SWAP2 MSTORE CALLER PUSH2 0x1A02 JUMP JUMPDEST PUSH2 0x1B6E JUMPI PUSH1 0x40 MLOAD PUSH3 0x461BCD PUSH1 0xE5 SHL DUP2 MSTORE PUSH1 0x4 ADD PUSH2 0x825 SWAP1 PUSH2 0x45ED JUMP JUMPDEST PUSH1 0x0 DUP4 DUP2 MSTORE PUSH1 0x12 PUSH1 0x20 SWAP1 DUP2 MSTORE PUSH1 0x40 DUP1 DUP4 KECCAK256 DUP2 MLOAD PUSH2 0x1A0 DUP2 ADD DUP4 MSTORE DUP2 SLOAD DUP2 MSTORE PUSH1 0x1 DUP3 ADD SLOAD PUSH1 0x1 PUSH1 0x1 PUSH1 0xA0 SHL SUB SWAP1 DUP2 AND SWAP5 DUP3 ADD SWAP5 SWAP1 SWAP5 MSTORE PUSH1 0x2 DUP3 ADD SLOAD SWAP1 SWAP4 AND SWAP2 DUP4 ADD SWAP2 SWAP1 SWAP2 MSTORE PUSH1 0x3 DUP2 ADD SLOAD PUSH1 0x60 DUP4 ADD MSTORE PUSH1 0x4 DUP2 ADD DUP1 SLOAD PUSH1 0x80 DUP5 ADD SWAP2 SWAP1 PUSH2 0x1BD1 SWAP1 PUSH2 0x43D4 JUMP JUMPDEST DUP1 PUSH1 0x1F ADD PUSH1 0x20 DUP1 SWAP2 DIV MUL PUSH1 0x20 ADD PUSH1 0x40 MLOAD SWAP1 DUP2 ADD PUSH1 0x40 MSTORE DUP1 SWAP3 SWAP2 SWAP1 DUP2 DUP2 MSTORE PUSH1 0x20 ADD DUP3 DUP1 SLOAD PUSH2 0x1BFD SWAP1 PUSH2 0x43D4 JUMP JUMPDEST DUP1 ISZERO PUSH2 0x1C4A JUMPI DUP1 PUSH1 0x1F LT PUSH2 0x1C1F JUMPI PUSH2 0x100 DUP1 DUP4 SLOAD DIV MUL DUP4 MSTORE SWAP2 PUSH1 0x20 ADD SWAP2 PUSH2 0x1C4A JUMP JUMPDEST DUP3 ADD SWAP2 SWAP1 PUSH1 0x0 MSTORE PUSH1 0x20 PUSH1 0x0 KECCAK256 SWAP1 JUMPDEST DUP2 SLOAD DUP2 MSTORE SWAP1 PUSH1 0x1 ADD SWAP1 PUSH1 0x20 ADD DUP1 DUP4 GT PUSH2 0x1C2D JUMPI DUP3 SWAP1 SUB PUSH1 0x1F AND DUP3 ADD SWAP2 JUMPDEST POP POP POP SWAP2 DUP4 MSTORE POP POP PUSH1 0x5 DUP3 ADD SLOAD PUSH1 0x20 SWAP1 SWAP2 ADD SWAP1 PUSH1 0xFF AND PUSH1 0x6 DUP2 GT ISZERO PUSH2 0x1C71 JUMPI PUSH2 0x1C71 PUSH2 0x3CAF JUMP JUMPDEST PUSH1 0x6 DUP2 GT ISZERO PUSH2 0x1C82 JUMPI PUSH2 0x1C82 PUSH2 0x3CAF JUMP JUMPDEST DUP2 MSTORE PUSH1 0x20 ADD PUSH1 0x5 DUP3 ADD PUSH1 0x1 SWAP1 SLOAD SWAP1 PUSH2 0x100 EXP SWAP1 DIV PUSH1 0xFF AND PUSH1 0x3 DUP2 GT ISZERO PUSH2 0x1CAA JUMPI PUSH2 0x1CAA PUSH2 0x3CAF JUMP JUMPDEST PUSH1 0x3 DUP2 GT ISZERO PUSH2 0x1CBB JUMPI PUSH2 0x1CBB PUSH2 0x3CAF JUMP JUMPDEST DUP2 MSTORE PUSH1 0x6 DUP3 ADD SLOAD PUSH1 0x20 DUP3 ADD MSTORE PUSH1 0x7 DUP3 ADD SLOAD PUSH1 0x40 DUP3 ADD MSTORE PUSH1 0x8 DUP3 ADD SLOAD PUSH1 0x60 DUP3 ADD MSTORE PUSH1 0x9 DUP3 ADD SLOAD PUSH1 0x80 SWAP1 SWAP2 ADD SWAP1 PUSH1 0xFF AND PUSH1 0x2 DUP2 GT ISZERO PUSH2 0x1CFA JUMPI PUSH2 0x1CFA PUSH2 0x3CAF JUMP JUMPDEST PUSH1 0x2 DUP2 GT ISZERO PUSH2 0x1D0B JUMPI PUSH2 0x1D0B PUSH2 0x3CAF JUMP JUMPDEST DUP2 MSTORE PUSH1 0x20 ADD PUSH1 0x9 DUP3 ADD PUSH1 0x1 SWAP1 SLOAD SWAP1 PUSH2 0x100 EXP SWAP1 DIV PUSH1 0xFF AND PUSH1 0x2 DUP2 GT ISZERO PUSH2 0x1D33 JUMPI PUSH2 0x1D33 PUSH2 0x3CAF JUMP JUMPDEST PUSH1 0x2 DUP2 GT ISZERO PUSH2 0x1D44 JUMPI PUSH2 0x1D44 PUSH2 0x3CAF JUMP JUMPDEST DUP2 MSTORE PUSH1 0x20 ADD PUSH1 0xA DUP3 ADD DUP1 SLOAD PUSH2 0x1D58 SWAP1 PUSH2 0x43D4 JUMP JUMPDEST DUP1 PUSH1 0x1F ADD PUSH1 0x20 DUP1 SWAP2 DIV MUL PUSH1 0x20 ADD PUSH1 0x40 MLOAD SWAP1 DUP2 ADD PUSH1 0x40 MSTORE DUP1 SWAP3 SWAP2 SWAP1 DUP2 DUP2 MSTORE PUSH1 0x20 ADD DUP3 DUP1 SLOAD PUSH2 0x1D84 SWAP1 PUSH2 0x43D4 JUMP JUMPDEST DUP1 ISZERO PUSH2 0x1DD1 JUMPI DUP1 PUSH1 0x1F LT PUSH2 0x1DA6 JUMPI PUSH2 0x100 DUP1 DUP4 SLOAD DIV MUL DUP4 MSTORE SWAP2 PUSH1 0x20 ADD SWAP2 PUSH2 0x1DD1 JUMP JUMPDEST DUP3 ADD SWAP2 SWAP1 PUSH1 0x0 MSTORE PUSH1 0x20 PUSH1 0x0 KECCAK256 SWAP1 JUMPDEST DUP2 SLOAD DUP2 MSTORE SWAP1 PUSH1 0x1 ADD SWAP1 PUSH1 0x20 ADD DUP1 DUP4 GT PUSH2 0x1DB4 JUMPI DUP3 SWAP1 SUB PUSH1 0x1F AND DUP3 ADD SWAP2 JUMPDEST POP POP POP POP POP DUP2 MSTORE POP POP SWAP1 POP DUP1 PUSH2 0x120 ADD MLOAD TIMESTAMP GT DUP1 ISZERO PUSH2 0x1E06 JUMPI POP PUSH1 0x0 DUP2 PUSH2 0x160 ADD MLOAD PUSH1 0x2 DUP2 GT ISZERO PUSH2 0x1E04 JUMPI PUSH2 0x1E04 PUSH2 0x3CAF JUMP JUMPDEST EQ JUMPDEST ISZERO PUSH2 0x1E14 JUMPI PUSH1 0x1 PUSH2 0x160 DUP3 ADD MSTORE JUMPDEST SWAP4 SWAP3 POP POP POP JUMP JUMPDEST PUSH1 0x60 CALLER PUSH1 0x1 PUSH1 0x1 PUSH1 0xA0 SHL SUB DUP4 AND EQ DUP1 PUSH2 0x1E47 JUMPI POP PUSH2 0x1E47 PUSH1 0x0 DUP1 MLOAD PUSH1 0x20 PUSH2 0x4708 DUP4 CODECOPY DUP2 MLOAD SWAP2 MSTORE CALLER PUSH2 0x1A02 JUMP JUMPDEST PUSH2 0x1E63 JUMPI PUSH1 0x40 MLOAD PUSH3 0x461BCD PUSH1 0xE5 SHL DUP2 MSTORE PUSH1 0x4 ADD PUSH2 0x825 SWAP1 PUSH2 0x45ED JUMP JUMPDEST PUSH1 0x1 PUSH1 0x1 PUSH1 0xA0 SHL SUB DUP3 AND PUSH1 0x0 SWAP1 DUP2 MSTORE PUSH1 0x11 PUSH1 0x20 SWAP1 DUP2 MSTORE PUSH1 0x40 SWAP2 DUP3 SWAP1 KECCAK256 DUP1 SLOAD DUP4 MLOAD DUP2 DUP5 MUL DUP2 ADD DUP5 ADD SWAP1 SWAP5 MSTORE DUP1 DUP5 MSTORE SWAP1 SWAP2 DUP4 ADD DUP3 DUP3 DUP1 ISZERO PUSH2 0x8CD JUMPI PUSH1 0x20 MUL DUP3 ADD SWAP2 SWAP1 PUSH1 0x0 MSTORE PUSH1 0x20 PUSH1 0x0 KECCAK256 SWAP1 DUP2 SLOAD DUP2 MSTORE PUSH1 0x20 ADD SWAP1 PUSH1 0x1 ADD SWAP1 DUP1 DUP4 GT PUSH2 0x96B JUMPI POP POP POP POP POP SWAP1 POP SWAP2 SWAP1 POP JUMP JUMPDEST PUSH1 0x0 PUSH2 0x1ED6 DUP2 PUSH2 0x3157 JUMP JUMPDEST PUSH2 0x1EEE PUSH1 0x0 DUP1 MLOAD PUSH1 0x20 PUSH2 0x4728 DUP4 CODECOPY DUP2 MLOAD SWAP2 MSTORE DUP4 PUSH2 0xB0F JUMP JUMPDEST DUP2 PUSH1 0x1 PUSH1 0x1 PUSH1 0xA0 SHL SUB AND PUSH1 0x0 DUP1 MLOAD PUSH1 0x20 PUSH2 0x46C8 DUP4 CODECOPY DUP2 MLOAD SWAP2 MSTORE PUSH1 0x0 DUP1 MLOAD PUSH1 0x20 PUSH2 0x4728 DUP4 CODECOPY DUP2 MLOAD SWAP2 MSTORE PUSH1 0x40 MLOAD PUSH2 0x7BA SWAP2 DUP2 MSTORE PUSH1 0x20 ADD SWAP1 JUMP JUMPDEST PUSH1 0x60 CALLER PUSH1 0x1 PUSH1 0x1 PUSH1 0xA0 SHL SUB DUP4 AND EQ DUP1 PUSH2 0x1F51 JUMPI POP PUSH2 0x1F51 PUSH1 0x0 DUP1 MLOAD PUSH1 0x20 PUSH2 0x4708 DUP4 CODECOPY DUP2 MLOAD SWAP2 MSTORE CALLER PUSH2 0x1A02 JUMP JUMPDEST PUSH2 0x1F6D JUMPI PUSH1 0x40 MLOAD PUSH3 0x461BCD PUSH1 0xE5 SHL DUP2 MSTORE PUSH1 0x4 ADD PUSH2 0x825 SWAP1 PUSH2 0x45ED JUMP JUMPDEST PUSH1 0x1 PUSH1 0x1 PUSH1 0xA0 SHL SUB DUP3 AND PUSH1 0x0 SWAP1 DUP2 MSTORE PUSH1 0x13 PUSH1 0x20 SWAP1 DUP2 MSTORE PUSH1 0x40 SWAP2 DUP3 SWAP1 KECCAK256 DUP1 SLOAD DUP4 MLOAD DUP2 DUP5 MUL DUP2 ADD DUP5 ADD SWAP1 SWAP5 MSTORE DUP1 DUP5 MSTORE SWAP1 SWAP2 DUP4 ADD DUP3 DUP3 DUP1 ISZERO PUSH2 0x8CD JUMPI PUSH1 0x20 MUL DUP3 ADD SWAP2 SWAP1 PUSH1 0x0 MSTORE PUSH1 0x20 PUSH1 0x0 KECCAK256 SWAP1 DUP2 SLOAD DUP2 MSTORE PUSH1 0x20 ADD SWAP1 PUSH1 0x1 ADD SWAP1 DUP1 DUP4 GT PUSH2 0x96B JUMPI POP POP POP POP POP SWAP1 POP SWAP2 SWAP1 POP JUMP JUMPDEST PUSH1 0x0 PUSH2 0x1FE0 DUP2 PUSH2 0x3157 JUMP JUMPDEST PUSH2 0x1FF8 PUSH1 0x0 DUP1 MLOAD PUSH1 0x20 PUSH2 0x4748 DUP4 CODECOPY DUP2 MLOAD SWAP2 MSTORE DUP4 PUSH2 0xB0F JUMP JUMPDEST DUP2 PUSH1 0x1 PUSH1 0x1 PUSH1 0xA0 SHL SUB AND PUSH1 0x0 DUP1 MLOAD PUSH1 0x20 PUSH2 0x46C8 DUP4 CODECOPY DUP2 MLOAD SWAP2 MSTORE PUSH1 0x0 DUP1 MLOAD PUSH1 0x20 PUSH2 0x4748 DUP4 CODECOPY DUP2 MLOAD SWAP2 MSTORE PUSH1 0x40 MLOAD PUSH2 0x7BA SWAP2 DUP2 MSTORE PUSH1 0x20 ADD SWAP1 JUMP JUMPDEST PUSH1 0xA PUSH1 0x20 MSTORE PUSH1 0x0 SWAP1 DUP2 MSTORE PUSH1 0x40 SWAP1 KECCAK256 DUP1 SLOAD PUSH1 0x1 DUP3 ADD DUP1 SLOAD SWAP2 SWAP3 SWAP2 PUSH2 0x2051 SWAP1 PUSH2 0x43D4 JUMP JUMPDEST DUP1 PUSH1 0x1F ADD PUSH1 0x20 DUP1 SWAP2 DIV MUL PUSH1 0x20 ADD PUSH1 0x40 MLOAD SWAP1 DUP2 ADD PUSH1 0x40 MSTORE DUP1 SWAP3 SWAP2 SWAP1 DUP2 DUP2 MSTORE PUSH1 0x20 ADD DUP3 DUP1 SLOAD PUSH2 0x207D SWAP1 PUSH2 0x43D4 JUMP JUMPDEST DUP1 ISZERO PUSH2 0x20CA JUMPI DUP1 PUSH1 0x1F LT PUSH2 0x209F JUMPI PUSH2 0x100 DUP1 DUP4 SLOAD DIV MUL DUP4 MSTORE SWAP2 PUSH1 0x20 ADD SWAP2 PUSH2 0x20CA JUMP JUMPDEST DUP3 ADD SWAP2 SWAP1 PUSH1 0x0 MSTORE PUSH1 0x20 PUSH1 0x0 KECCAK256 SWAP1 JUMPDEST DUP2 SLOAD DUP2 MSTORE SWAP1 PUSH1 0x1 ADD SWAP1 PUSH1 0x20 ADD DUP1 DUP4 GT PUSH2 0x20AD JUMPI DUP3 SWAP1 SUB PUSH1 0x1F AND DUP3 ADD SWAP2 JUMPDEST POP POP POP POP PUSH1 0x2 DUP4 ADD SLOAD PUSH1 0x3 SWAP1 SWAP4 ADD SLOAD SWAP2 SWAP3 SWAP2 PUSH1 0xFF AND SWAP1 POP DUP5 JUMP JUMPDEST PUSH2 0x20EC PUSH2 0x3161 JUMP JUMPDEST PUSH1 0x0 DUP8 DUP2 MSTORE PUSH1 0x17 PUSH1 0x20 MSTORE PUSH1 0x40 SWAP1 KECCAK256 SLOAD DUP8 SWAP1 PUSH1 0x1 PUSH1 0x1 PUSH1 0xA0 SHL SUB AND CALLER EQ PUSH2 0x2124 JUMPI PUSH1 0x40 MLOAD PUSH3 0x461BCD PUSH1 0xE5 SHL DUP2 MSTORE PUSH1 0x4 ADD PUSH2 0x825 SWAP1 PUSH2 0x45CA JUMP JUMPDEST PUSH1 0x0 DUP9 DUP2 MSTORE PUSH1 0x10 PUSH1 0x20 MSTORE PUSH1 0x40 SWAP1 KECCAK256 PUSH1 0x1 DUP2 ADD PUSH2 0x2140 DUP10 DUP3 PUSH2 0x447F JUMP JUMPDEST POP PUSH1 0x2 DUP2 ADD PUSH2 0x214F DUP9 DUP3 PUSH2 0x447F JUMP JUMPDEST POP PUSH1 0x3 DUP2 ADD DUP1 SLOAD DUP8 SWAP2 SWAP1 PUSH1 0xFF NOT AND PUSH1 0x1 DUP4 PUSH1 0x7 DUP2 GT ISZERO PUSH2 0x2171 JUMPI PUSH2 0x2171 PUSH2 0x3CAF JUMP JUMPDEST MUL OR SWAP1 SSTORE POP PUSH1 0x3 DUP2 ADD DUP1 SLOAD PUSH2 0xFF00 NOT AND PUSH2 0x100 DUP8 ISZERO ISZERO MUL OR SWAP1 SSTORE PUSH1 0x4 DUP2 ADD DUP5 SWAP1 SSTORE PUSH1 0x6 DUP2 ADD PUSH2 0x21A0 DUP5 DUP3 PUSH2 0x447F JUMP JUMPDEST POP DUP9 CALLER PUSH1 0x1 PUSH1 0x1 PUSH1 0xA0 SHL SUB AND PUSH32 0x194F475ED1A7936BC502C5F68BE59AB8B4E5EF3ADC105D56862F112B1547F25 DUP11 PUSH1 0x40 MLOAD PUSH2 0x21DB SWAP2 SWAP1 PUSH2 0x3952 JUMP JUMPDEST PUSH1 0x40 MLOAD DUP1 SWAP2 SUB SWAP1 LOG3 POP POP POP POP POP POP POP POP POP JUMP JUMPDEST PUSH2 0x21F7 DUP3 PUSH2 0xAF9 JUMP JUMPDEST PUSH2 0x2200 DUP2 PUSH2 0x3157 JUMP JUMPDEST PUSH2 0xB2B DUP4 DUP4 PUSH2 0x31FE JUMP JUMPDEST PUSH1 0x60 CALLER PUSH1 0x1 PUSH1 0x1 PUSH1 0xA0 SHL SUB DUP4 AND EQ DUP1 PUSH2 0x2236 JUMPI POP PUSH2 0x2236 PUSH1 0x0 DUP1 MLOAD PUSH1 0x20 PUSH2 0x4708 DUP4 CODECOPY DUP2 MLOAD SWAP2 MSTORE CALLER PUSH2 0x1A02 JUMP JUMPDEST PUSH2 0x2252 JUMPI PUSH1 0x40 MLOAD PUSH3 0x461BCD PUSH1 0xE5 SHL DUP2 MSTORE PUSH1 0x4 ADD PUSH2 0x825 SWAP1 PUSH2 0x440E JUMP JUMPDEST PUSH1 0x1 PUSH1 0x1 PUSH1 0xA0 SHL SUB DUP3 AND PUSH1 0x0 SWAP1 DUP2 MSTORE PUSH1 0xB PUSH1 0x20 SWAP1 DUP2 MSTORE PUSH1 0x40 SWAP2 DUP3 SWAP1 KECCAK256 DUP1 SLOAD DUP4 MLOAD DUP2 DUP5 MUL DUP2 ADD DUP5 ADD SWAP1 SWAP5 MSTORE DUP1 DUP5 MSTORE SWAP1 SWAP2 DUP4 ADD DUP3 DUP3 DUP1 ISZERO PUSH2 0x8CD JUMPI PUSH1 0x20 MUL DUP3 ADD SWAP2 SWAP1 PUSH1 0x0 MSTORE PUSH1 0x20 PUSH1 0x0 KECCAK256 SWAP1 DUP2 SLOAD DUP2 MSTORE PUSH1 0x20 ADD SWAP1 PUSH1 0x1 ADD SWAP1 DUP1 DUP4 GT PUSH2 0x96B JUMPI POP POP POP POP POP SWAP1 POP SWAP2 SWAP1 POP JUMP JUMPDEST PUSH1 0x0 PUSH2 0x22C5 DUP2 PUSH2 0x3157 JUMP JUMPDEST PUSH2 0x22DD PUSH1 0x0 DUP1 MLOAD PUSH1 0x20 PUSH2 0x4708 DUP4 CODECOPY DUP2 MLOAD SWAP2 MSTORE DUP4 PUSH2 0xB0F JUMP JUMPDEST DUP2 PUSH1 0x1 PUSH1 0x1 PUSH1 0xA0 SHL SUB AND PUSH1 0x0 DUP1 MLOAD PUSH1 0x20 PUSH2 0x46C8 DUP4 CODECOPY DUP2 MLOAD SWAP2 MSTORE PUSH1 0x0 DUP1 MLOAD PUSH1 0x20 PUSH2 0x4708 DUP4 CODECOPY DUP2 MLOAD SWAP2 MSTORE PUSH1 0x40 MLOAD PUSH2 0x7BA SWAP2 DUP2 MSTORE PUSH1 0x20 ADD SWAP1 JUMP JUMPDEST PUSH1 0x0 PUSH2 0x231E PUSH2 0x3161 JUMP JUMPDEST CALLER PUSH1 0x0 SWAP1 DUP2 MSTORE PUSH1 0x9 PUSH1 0x20 MSTORE PUSH1 0x40 SWAP1 KECCAK256 PUSH1 0x3 ADD SLOAD PUSH1 0xFF AND PUSH2 0x2350 JUMPI PUSH1 0x40 MLOAD PUSH3 0x461BCD PUSH1 0xE5 SHL DUP2 MSTORE PUSH1 0x4 ADD PUSH2 0x825 SWAP1 PUSH2 0x455F JUMP JUMPDEST PUSH1 0x1 PUSH1 0x1 PUSH1 0xA0 SHL SUB DUP11 AND PUSH2 0x2376 JUMPI PUSH1 0x40 MLOAD PUSH3 0x461BCD PUSH1 0xE5 SHL DUP2 MSTORE PUSH1 0x4 ADD PUSH2 0x825 SWAP1 PUSH2 0x462E JUMP JUMPDEST CALLER PUSH1 0x1 PUSH1 0x1 PUSH1 0xA0 SHL SUB DUP12 AND SUB PUSH2 0x23BE JUMPI PUSH1 0x40 MLOAD PUSH3 0x461BCD PUSH1 0xE5 SHL DUP2 MSTORE PUSH1 0x20 PUSH1 0x4 DUP3 ADD MSTORE PUSH1 0xD PUSH1 0x24 DUP3 ADD MSTORE PUSH13 0x4E6F2073656C662D7368617265 PUSH1 0x98 SHL PUSH1 0x44 DUP3 ADD MSTORE PUSH1 0x64 ADD PUSH2 0x825 JUMP JUMPDEST TIMESTAMP DUP5 GT PUSH2 0x23FE JUMPI PUSH1 0x40 MLOAD PUSH3 0x461BCD PUSH1 0xE5 SHL DUP2 MSTORE PUSH1 0x20 PUSH1 0x4 DUP3 ADD MSTORE PUSH1 0xE PUSH1 0x24 DUP3 ADD MSTORE PUSH14 0x496E76616C696420657870697279 PUSH1 0x90 SHL PUSH1 0x44 DUP3 ADD MSTORE PUSH1 0x64 ADD PUSH2 0x825 JUMP JUMPDEST PUSH1 0x0 DUP3 MLOAD GT PUSH2 0x2447 JUMPI PUSH1 0x40 MLOAD PUSH3 0x461BCD PUSH1 0xE5 SHL DUP2 MSTORE PUSH1 0x20 PUSH1 0x4 DUP3 ADD MSTORE PUSH1 0x15 PUSH1 0x24 DUP3 ADD MSTORE PUSH21 0x496E76616C696420656E63727970746564206B6579 PUSH1 0x58 SHL PUSH1 0x44 DUP3 ADD MSTORE PUSH1 0x64 ADD PUSH2 0x825 JUMP JUMPDEST PUSH1 0x0 DUP7 PUSH1 0x3 DUP2 GT ISZERO PUSH2 0x245B JUMPI PUSH2 0x245B PUSH2 0x3CAF JUMP JUMPDEST SUB PUSH2 0x24BA JUMPI CALLER PUSH1 0x0 SWAP1 DUP2 MSTORE PUSH1 0x9 PUSH1 0x20 MSTORE PUSH1 0x40 SWAP1 KECCAK256 PUSH1 0x3 ADD SLOAD PUSH1 0xFF AND PUSH2 0x24B5 JUMPI PUSH1 0x40 MLOAD PUSH3 0x461BCD PUSH1 0xE5 SHL DUP2 MSTORE PUSH1 0x20 PUSH1 0x4 DUP3 ADD MSTORE PUSH1 0x10 PUSH1 0x24 DUP3 ADD MSTORE PUSH16 0x4E6F20706572736F6E616C20696E666F PUSH1 0x80 SHL PUSH1 0x44 DUP3 ADD MSTORE PUSH1 0x64 ADD PUSH2 0x825 JUMP JUMPDEST PUSH2 0x25A7 JUMP JUMPDEST PUSH1 0x1 DUP7 PUSH1 0x3 DUP2 GT ISZERO PUSH2 0x24CE JUMPI PUSH2 0x24CE PUSH2 0x3CAF JUMP JUMPDEST SUB PUSH2 0x2509 JUMPI PUSH1 0x0 DUP6 DUP2 MSTORE PUSH1 0x15 PUSH1 0x20 MSTORE PUSH1 0x40 SWAP1 KECCAK256 SLOAD PUSH1 0x1 PUSH1 0x1 PUSH1 0xA0 SHL SUB AND CALLER EQ PUSH2 0x24B5 JUMPI PUSH1 0x40 MLOAD PUSH3 0x461BCD PUSH1 0xE5 SHL DUP2 MSTORE PUSH1 0x4 ADD PUSH2 0x825 SWAP1 PUSH2 0x4654 JUMP JUMPDEST PUSH1 0x2 DUP7 PUSH1 0x3 DUP2 GT ISZERO PUSH2 0x251D JUMPI PUSH2 0x251D PUSH2 0x3CAF JUMP JUMPDEST SUB PUSH2 0x2558 JUMPI PUSH1 0x0 DUP6 DUP2 MSTORE PUSH1 0x16 PUSH1 0x20 MSTORE PUSH1 0x40 SWAP1 KECCAK256 SLOAD PUSH1 0x1 PUSH1 0x1 PUSH1 0xA0 SHL SUB AND CALLER EQ PUSH2 0x24B5 JUMPI PUSH1 0x40 MLOAD PUSH3 0x461BCD PUSH1 0xE5 SHL DUP2 MSTORE PUSH1 0x4 ADD PUSH2 0x825 SWAP1 PUSH2 0x4654 JUMP JUMPDEST PUSH1 0x3 DUP7 PUSH1 0x3 DUP2 GT ISZERO PUSH2 0x256C JUMPI PUSH2 0x256C PUSH2 0x3CAF JUMP JUMPDEST SUB PUSH2 0x25A7 JUMPI PUSH1 0x0 DUP6 DUP2 MSTORE PUSH1 0x17 PUSH1 0x20 MSTORE PUSH1 0x40 SWAP1 KECCAK256 SLOAD PUSH1 0x1 PUSH1 0x1 PUSH1 0xA0 SHL SUB AND CALLER EQ PUSH2 0x25A7 JUMPI PUSH1 0x40 MLOAD PUSH3 0x461BCD PUSH1 0xE5 SHL DUP2 MSTORE PUSH1 0x4 ADD PUSH2 0x825 SWAP1 PUSH2 0x4654 JUMP JUMPDEST PUSH1 0x7 DUP1 SLOAD SWAP1 PUSH1 0x0 PUSH2 0x25B7 DUP4 PUSH2 0x4596 JUMP JUMPDEST SWAP2 SWAP1 POP SSTORE POP PUSH1 0x0 PUSH1 0x7 SLOAD SWAP1 POP PUSH1 0x40 MLOAD DUP1 PUSH2 0x1A0 ADD PUSH1 0x40 MSTORE DUP1 DUP3 DUP2 MSTORE PUSH1 0x20 ADD CALLER PUSH1 0x1 PUSH1 0x1 PUSH1 0xA0 SHL SUB AND DUP2 MSTORE PUSH1 0x20 ADD DUP13 PUSH1 0x1 PUSH1 0x1 PUSH1 0xA0 SHL SUB AND DUP2 MSTORE PUSH1 0x20 ADD DUP12 DUP2 MSTORE PUSH1 0x20 ADD DUP11 DUP2 MSTORE PUSH1 0x20 ADD DUP10 PUSH1 0x6 DUP2 GT ISZERO PUSH2 0x2611 JUMPI PUSH2 0x2611 PUSH2 0x3CAF JUMP JUMPDEST DUP2 MSTORE PUSH1 0x20 ADD DUP9 PUSH1 0x3 DUP2 GT ISZERO PUSH2 0x2628 JUMPI PUSH2 0x2628 PUSH2 0x3CAF JUMP JUMPDEST DUP2 MSTORE PUSH1 0x20 ADD DUP8 DUP2 MSTORE PUSH1 0x20 ADD TIMESTAMP DUP2 MSTORE PUSH1 0x20 ADD DUP7 DUP2 MSTORE PUSH1 0x20 ADD DUP6 PUSH1 0x2 DUP2 GT ISZERO PUSH2 0x2651 JUMPI PUSH2 0x2651 PUSH2 0x3CAF JUMP JUMPDEST DUP2 MSTORE PUSH1 0x20 ADD PUSH1 0x0 DUP2 MSTORE PUSH1 0x20 SWAP1 DUP2 ADD DUP6 SWAP1 MSTORE PUSH1 0x0 DUP4 DUP2 MSTORE PUSH1 0x12 DUP3 MSTORE PUSH1 0x40 SWAP1 DUP2 SWAP1 KECCAK256 DUP4 MLOAD DUP2 SSTORE SWAP2 DUP4 ADD MLOAD PUSH1 0x1 DUP4 ADD DUP1 SLOAD PUSH1 0x1 PUSH1 0x1 PUSH1 0xA0 SHL SUB NOT SWAP1 DUP2 AND PUSH1 0x1 PUSH1 0x1 PUSH1 0xA0 SHL SUB SWAP4 DUP5 AND OR SWAP1 SWAP2 SSTORE SWAP2 DUP5 ADD MLOAD PUSH1 0x2 DUP5 ADD DUP1 SLOAD SWAP1 SWAP4 AND SWAP2 AND OR SWAP1 SSTORE PUSH1 0x60 DUP3 ADD MLOAD PUSH1 0x3 DUP3 ADD SSTORE PUSH1 0x80 DUP3 ADD MLOAD PUSH1 0x4 DUP3 ADD SWAP1 PUSH2 0x26CA SWAP1 DUP3 PUSH2 0x447F JUMP JUMPDEST POP PUSH1 0xA0 DUP3 ADD MLOAD PUSH1 0x5 DUP3 ADD DUP1 SLOAD PUSH1 0xFF NOT AND PUSH1 0x1 DUP4 PUSH1 0x6 DUP2 GT ISZERO PUSH2 0x26EE JUMPI PUSH2 0x26EE PUSH2 0x3CAF JUMP JUMPDEST MUL OR SWAP1 SSTORE POP PUSH1 0xC0 DUP3 ADD MLOAD PUSH1 0x5 DUP3 ADD DUP1 SLOAD PUSH2 0xFF00 NOT AND PUSH2 0x100 DUP4 PUSH1 0x3 DUP2 GT ISZERO PUSH2 0x2718 JUMPI PUSH2 0x2718 PUSH2 0x3CAF JUMP JUMPDEST MUL OR SWAP1 SSTORE POP PUSH1 0xE0 DUP3 ADD MLOAD PUSH1 0x6 DUP3 ADD SSTORE PUSH2 0x100 DUP3 ADD MLOAD PUSH1 0x7 DUP3 ADD SSTORE PUSH2 0x120 DUP3 ADD MLOAD PUSH1 0x8 DUP3 ADD SSTORE PUSH2 0x140 DUP3 ADD MLOAD PUSH1 0x9 DUP3 ADD DUP1 SLOAD PUSH1 0xFF NOT AND PUSH1 0x1 DUP4 PUSH1 0x2 DUP2 GT ISZERO PUSH2 0x2761 JUMPI PUSH2 0x2761 PUSH2 0x3CAF JUMP JUMPDEST MUL OR SWAP1 SSTORE POP PUSH2 0x160 DUP3 ADD MLOAD PUSH1 0x9 DUP3 ADD DUP1 SLOAD PUSH2 0xFF00 NOT AND PUSH2 0x100 DUP4 PUSH1 0x2 DUP2 GT ISZERO PUSH2 0x278C JUMPI PUSH2 0x278C PUSH2 0x3CAF JUMP JUMPDEST MUL OR SWAP1 SSTORE POP PUSH2 0x180 DUP3 ADD MLOAD PUSH1 0xA DUP3 ADD SWAP1 PUSH2 0x27A6 SWAP1 DUP3 PUSH2 0x447F JUMP JUMPDEST POP POP POP PUSH1 0x0 DUP2 DUP2 MSTORE PUSH1 0x18 PUSH1 0x20 SWAP1 DUP2 MSTORE PUSH1 0x40 DUP1 DUP4 KECCAK256 DUP1 SLOAD PUSH1 0x1 PUSH1 0x1 PUSH1 0xA0 SHL SUB NOT AND CALLER SWAP1 DUP2 OR SWAP1 SWAP2 SSTORE DUP4 MSTORE PUSH1 0x11 DUP3 MSTORE DUP3 KECCAK256 DUP1 SLOAD PUSH1 0x1 DUP2 ADD DUP3 SSTORE SWAP1 DUP4 MSTORE SWAP1 DUP3 KECCAK256 ADD DUP3 SWAP1 SSTORE DUP1 DUP9 PUSH1 0x3 DUP2 GT ISZERO PUSH2 0x27FA JUMPI PUSH2 0x27FA PUSH2 0x3CAF JUMP JUMPDEST EQ PUSH2 0x2846 JUMPI PUSH1 0x1 DUP9 PUSH1 0x3 DUP2 GT ISZERO PUSH2 0x2813 JUMPI PUSH2 0x2813 PUSH2 0x3CAF JUMP JUMPDEST EQ PUSH2 0x283F JUMPI PUSH1 0x2 DUP9 PUSH1 0x3 DUP2 GT ISZERO PUSH2 0x282C JUMPI PUSH2 0x282C PUSH2 0x3CAF JUMP JUMPDEST EQ PUSH2 0x2838 JUMPI PUSH1 0x3 PUSH2 0x2849 JUMP JUMPDEST PUSH1 0x2 PUSH2 0x2849 JUMP JUMPDEST PUSH1 0x1 PUSH2 0x2849 JUMP JUMPDEST PUSH1 0x0 JUMPDEST SWAP1 POP DUP2 DUP13 PUSH1 0x1 PUSH1 0x1 PUSH1 0xA0 SHL SUB AND CALLER PUSH1 0x1 PUSH1 0x1 PUSH1 0xA0 SHL SUB AND PUSH32 0xA659897907550AD23DF4ACC58AF8F2928FB8C5F64323D619580011B039A8649 DUP5 DUP11 PUSH1 0x40 MLOAD PUSH2 0x2891 SWAP3 SWAP2 SWAP1 PUSH2 0x45AF JUMP JUMPDEST PUSH1 0x40 MLOAD DUP1 SWAP2 SUB SWAP1 LOG4 POP SWAP11 SWAP10 POP POP POP POP POP POP POP POP POP POP JUMP JUMPDEST PUSH2 0x28B0 PUSH2 0x3853 JUMP JUMPDEST PUSH1 0x0 DUP3 DUP2 MSTORE PUSH1 0x17 PUSH1 0x20 MSTORE PUSH1 0x40 SWAP1 KECCAK256 SLOAD PUSH1 0x1 PUSH1 0x1 PUSH1 0xA0 SHL SUB AND CALLER DUP2 EQ DUP1 PUSH2 0x28E9 JUMPI POP PUSH2 0x28E9 PUSH1 0x0 DUP1 MLOAD PUSH1 0x20 PUSH2 0x4708 DUP4 CODECOPY DUP2 MLOAD SWAP2 MSTORE CALLER PUSH2 0x1A02 JUMP JUMPDEST DUP1 PUSH2 0x28FC JUMPI POP PUSH2 0x28FC DUP2 CALLER PUSH1 0x3 DUP7 PUSH2 0x32B7 JUMP JUMPDEST PUSH2 0x2918 JUMPI PUSH1 0x40 MLOAD PUSH3 0x461BCD PUSH1 0xE5 SHL DUP2 MSTORE PUSH1 0x4 ADD PUSH2 0x825 SWAP1 PUSH2 0x440E JUMP JUMPDEST PUSH1 0x10 PUSH1 0x0 DUP5 DUP2 MSTORE PUSH1 0x20 ADD SWAP1 DUP2 MSTORE PUSH1 0x20 ADD PUSH1 0x0 KECCAK256 PUSH1 0x40 MLOAD DUP1 PUSH2 0x100 ADD PUSH1 0x40 MSTORE SWAP1 DUP2 PUSH1 0x0 DUP3 ADD SLOAD DUP2 MSTORE PUSH1 0x20 ADD PUSH1 0x1 DUP3 ADD DUP1 SLOAD PUSH2 0x2951 SWAP1 PUSH2 0x43D4 JUMP JUMPDEST DUP1 PUSH1 0x1F ADD PUSH1 0x20 DUP1 SWAP2 DIV MUL PUSH1 0x20 ADD PUSH1 0x40 MLOAD SWAP1 DUP2 ADD PUSH1 0x40 MSTORE DUP1 SWAP3 SWAP2 SWAP1 DUP2 DUP2 MSTORE PUSH1 0x20 ADD DUP3 DUP1 SLOAD PUSH2 0x297D SWAP1 PUSH2 0x43D4 JUMP JUMPDEST DUP1 ISZERO PUSH2 0x29CA JUMPI DUP1 PUSH1 0x1F LT PUSH2 0x299F JUMPI PUSH2 0x100 DUP1 DUP4 SLOAD DIV MUL DUP4 MSTORE SWAP2 PUSH1 0x20 ADD SWAP2 PUSH2 0x29CA JUMP JUMPDEST DUP3 ADD SWAP2 SWAP1 PUSH1 0x0 MSTORE PUSH1 0x20 PUSH1 0x0 KECCAK256 SWAP1 JUMPDEST DUP2 SLOAD DUP2 MSTORE SWAP1 PUSH1 0x1 ADD SWAP1 PUSH1 0x20 ADD DUP1 DUP4 GT PUSH2 0x29AD JUMPI DUP3 SWAP1 SUB PUSH1 0x1F AND DUP3 ADD SWAP2 JUMPDEST POP POP POP POP POP DUP2 MSTORE PUSH1 0x20 ADD PUSH1 0x2 DUP3 ADD DUP1 SLOAD PUSH2 0x29E3 SWAP1 PUSH2 0x43D4 JUMP JUMPDEST DUP1 PUSH1 0x1F ADD PUSH1 0x20 DUP1 SWAP2 DIV MUL PUSH1 0x20 ADD PUSH1 0x40 MLOAD SWAP1 DUP2 ADD PUSH1 0x40 MSTORE DUP1 SWAP3 SWAP2 SWAP1 DUP2 DUP2 MSTORE PUSH1 0x20 ADD DUP3 DUP1 SLOAD PUSH2 0x2A0F SWAP1 PUSH2 0x43D4 JUMP JUMPDEST DUP1 ISZERO PUSH2 0x2A5C JUMPI DUP1 PUSH1 0x1F LT PUSH2 0x2A31 JUMPI PUSH2 0x100 DUP1 DUP4 SLOAD DIV MUL DUP4 MSTORE SWAP2 PUSH1 0x20 ADD SWAP2 PUSH2 0x2A5C JUMP JUMPDEST DUP3 ADD SWAP2 SWAP1 PUSH1 0x0 MSTORE PUSH1 0x20 PUSH1 0x0 KECCAK256 SWAP1 JUMPDEST DUP2 SLOAD DUP2 MSTORE SWAP1 PUSH1 0x1 ADD SWAP1 PUSH1 0x20 ADD DUP1 DUP4 GT PUSH2 0x2A3F JUMPI DUP3 SWAP1 SUB PUSH1 0x1F AND DUP3 ADD SWAP2 JUMPDEST POP POP POP SWAP2 DUP4 MSTORE POP POP PUSH1 0x3 DUP3 ADD SLOAD PUSH1 0x20 SWAP1 SWAP2 ADD SWAP1 PUSH1 0xFF AND PUSH1 0x7 DUP2 GT ISZERO PUSH2 0x2A83 JUMPI PUSH2 0x2A83 PUSH2 0x3CAF JUMP JUMPDEST PUSH1 0x7 DUP2 GT ISZERO PUSH2 0x2A94 JUMPI PUSH2 0x2A94 PUSH2 0x3CAF JUMP JUMPDEST DUP2 MSTORE PUSH1 0x3 DUP3 ADD SLOAD PUSH2 0x100 SWAP1 DIV PUSH1 0xFF AND ISZERO ISZERO PUSH1 0x20 DUP3 ADD MSTORE PUSH1 0x4 DUP3 ADD SLOAD PUSH1 0x40 DUP3 ADD MSTORE PUSH1 0x5 DUP3 ADD SLOAD PUSH1 0x60 DUP3 ADD MSTORE PUSH1 0x6 DUP3 ADD DUP1 SLOAD PUSH1 0x80 SWAP1 SWAP3 ADD SWAP2 PUSH2 0x2AD3 SWAP1 PUSH2 0x43D4 JUMP JUMPDEST DUP1 PUSH1 0x1F ADD PUSH1 0x20 DUP1 SWAP2 DIV MUL PUSH1 0x20 ADD PUSH1 0x40 MLOAD SWAP1 DUP2 ADD PUSH1 0x40 MSTORE DUP1 SWAP3 SWAP2 SWAP1 DUP2 DUP2 MSTORE PUSH1 0x20 ADD DUP3 DUP1 SLOAD PUSH2 0x2AFF SWAP1 PUSH2 0x43D4 JUMP JUMPDEST DUP1 ISZERO PUSH2 0x2B4C JUMPI DUP1 PUSH1 0x1F LT PUSH2 0x2B21 JUMPI PUSH2 0x100 DUP1 DUP4 SLOAD DIV MUL DUP4 MSTORE SWAP2 PUSH1 0x20 ADD SWAP2 PUSH2 0x2B4C JUMP JUMPDEST DUP3 ADD SWAP2 SWAP1 PUSH1 0x0 MSTORE PUSH1 0x20 PUSH1 0x0 KECCAK256 SWAP1 JUMPDEST DUP2 SLOAD DUP2 MSTORE SWAP1 PUSH1 0x1 ADD SWAP1 PUSH1 0x20 ADD DUP1 DUP4 GT PUSH2 0x2B2F JUMPI DUP3 SWAP1 SUB PUSH1 0x1F AND DUP3 ADD SWAP2 JUMPDEST POP POP POP POP POP DUP2 MSTORE POP POP SWAP2 POP POP SWAP2 SWAP1 POP JUMP JUMPDEST PUSH2 0x2B91 PUSH1 0x40 MLOAD DUP1 PUSH1 0xA0 ADD PUSH1 0x40 MSTORE DUP1 PUSH1 0x60 DUP2 MSTORE PUSH1 0x20 ADD PUSH1 0x0 DUP2 MSTORE PUSH1 0x20 ADD PUSH1 0x0 DUP2 MSTORE PUSH1 0x20 ADD PUSH1 0x0 ISZERO ISZERO DUP2 MSTORE PUSH1 0x20 ADD PUSH1 0x60 DUP2 MSTORE POP SWAP1 JUMP JUMPDEST CALLER PUSH1 0x1 PUSH1 0x1 PUSH1 0xA0 SHL SUB DUP4 AND EQ DUP1 PUSH2 0x2BBB JUMPI POP PUSH2 0x2BBB PUSH1 0x0 DUP1 MLOAD PUSH1 0x20 PUSH2 0x4708 DUP4 CODECOPY DUP2 MLOAD SWAP2 MSTORE CALLER PUSH2 0x1A02 JUMP JUMPDEST DUP1 PUSH2 0x2BCE JUMPI POP PUSH2 0x2BCE DUP3 CALLER PUSH1 0x0 DUP1 PUSH2 0x32B7 JUMP JUMPDEST PUSH2 0x2BEA JUMPI PUSH1 0x40 MLOAD PUSH3 0x461BCD PUSH1 0xE5 SHL DUP2 MSTORE PUSH1 0x4 ADD PUSH2 0x825 SWAP1 PUSH2 0x440E JUMP JUMPDEST PUSH1 0x1 PUSH1 0x1 PUSH1 0xA0 SHL SUB DUP3 AND PUSH1 0x0 SWAP1 DUP2 MSTORE PUSH1 0x9 PUSH1 0x20 MSTORE PUSH1 0x40 SWAP1 KECCAK256 PUSH1 0x3 ADD SLOAD PUSH1 0xFF AND PUSH2 0x2C41 JUMPI PUSH1 0x40 MLOAD PUSH3 0x461BCD PUSH1 0xE5 SHL DUP2 MSTORE PUSH1 0x20 PUSH1 0x4 DUP3 ADD MSTORE PUSH1 0x9 PUSH1 0x24 DUP3 ADD MSTORE PUSH9 0x139BDD08199BDD5B99 PUSH1 0xBA SHL PUSH1 0x44 DUP3 ADD MSTORE PUSH1 0x64 ADD PUSH2 0x825 JUMP JUMPDEST PUSH1 0x1 PUSH1 0x1 PUSH1 0xA0 SHL SUB DUP3 AND PUSH1 0x0 SWAP1 DUP2 MSTORE PUSH1 0x9 PUSH1 0x20 MSTORE PUSH1 0x40 SWAP1 DUP2 SWAP1 KECCAK256 DUP2 MLOAD PUSH1 0xA0 DUP2 ADD SWAP1 SWAP3 MSTORE DUP1 SLOAD DUP3 SWAP1 DUP3 SWAP1 PUSH2 0x2C73 SWAP1 PUSH2 0x43D4 JUMP JUMPDEST DUP1 PUSH1 0x1F ADD PUSH1 0x20 DUP1 SWAP2 DIV MUL PUSH1 0x20 ADD PUSH1 0x40 MLOAD SWAP1 DUP2 ADD PUSH1 0x40 MSTORE DUP1 SWAP3 SWAP2 SWAP1 DUP2 DUP2 MSTORE PUSH1 0x20 ADD DUP3 DUP1 SLOAD PUSH2 0x2C9F SWAP1 PUSH2 0x43D4 JUMP JUMPDEST DUP1 ISZERO PUSH2 0x2CEC JUMPI DUP1 PUSH1 0x1F LT PUSH2 0x2CC1 JUMPI PUSH2 0x100 DUP1 DUP4 SLOAD DIV MUL DUP4 MSTORE SWAP2 PUSH1 0x20 ADD SWAP2 PUSH2 0x2CEC JUMP JUMPDEST DUP3 ADD SWAP2 SWAP1 PUSH1 0x0 MSTORE PUSH1 0x20 PUSH1 0x0 KECCAK256 SWAP1 JUMPDEST DUP2 SLOAD DUP2 MSTORE SWAP1 PUSH1 0x1 ADD SWAP1 PUSH1 0x20 ADD DUP1 DUP4 GT PUSH2 0x2CCF JUMPI DUP3 SWAP1 SUB PUSH1 0x1F AND DUP3 ADD SWAP2 JUMPDEST POP POP POP SWAP2 DUP4 MSTORE POP POP PUSH1 0x1 DUP3 ADD SLOAD PUSH1 0x20 DUP3 ADD MSTORE PUSH1 0x2 DUP3 ADD SLOAD PUSH1 0x40 DUP3 ADD MSTORE PUSH1 0x3 DUP3 ADD SLOAD PUSH1 0xFF AND ISZERO ISZERO PUSH1 0x60 DUP3 ADD MSTORE PUSH1 0x4 DUP3 ADD DUP1 SLOAD PUSH1 0x80 SWAP1 SWAP3 ADD SWAP2 PUSH2 0x2D2C SWAP1 PUSH2 0x43D4 JUMP JUMPDEST DUP1 PUSH1 0x1F ADD PUSH1 0x20 DUP1 SWAP2 DIV MUL PUSH1 0x20 ADD PUSH1 0x40 MLOAD SWAP1 DUP2 ADD PUSH1 0x40 MSTORE DUP1 SWAP3 SWAP2 SWAP1 DUP2 DUP2 MSTORE PUSH1 0x20 ADD DUP3 DUP1 SLOAD PUSH2 0x2D58 SWAP1 PUSH2 0x43D4 JUMP JUMPDEST DUP1 ISZERO PUSH2 0x2DA5 JUMPI DUP1 PUSH1 0x1F LT PUSH2 0x2D7A JUMPI PUSH2 0x100 DUP1 DUP4 SLOAD DIV MUL DUP4 MSTORE SWAP2 PUSH1 0x20 ADD SWAP2 PUSH2 0x2DA5 JUMP JUMPDEST DUP3 ADD SWAP2 SWAP1 PUSH1 0x0 MSTORE PUSH1 0x20 PUSH1 0x0 KECCAK256 SWAP1 JUMPDEST DUP2 SLOAD DUP2 MSTORE SWAP1 PUSH1 0x1 ADD SWAP1 PUSH1 0x20 ADD DUP1 DUP4 GT PUSH2 0x2D88 JUMPI DUP3 SWAP1 SUB PUSH1 0x1F AND DUP3 ADD SWAP2 JUMPDEST POP POP POP POP POP DUP2 MSTORE POP POP SWAP1 POP SWAP2 SWAP1 POP JUMP JUMPDEST PUSH1 0x60 CALLER PUSH1 0x1 PUSH1 0x1 PUSH1 0xA0 SHL SUB DUP4 AND EQ DUP1 PUSH2 0x2DE1 JUMPI POP PUSH2 0x2DE1 PUSH1 0x0 DUP1 MLOAD PUSH1 0x20 PUSH2 0x4708 DUP4 CODECOPY DUP2 MLOAD SWAP2 MSTORE CALLER PUSH2 0x1A02 JUMP JUMPDEST PUSH2 0x2DFD JUMPI PUSH1 0x40 MLOAD PUSH3 0x461BCD PUSH1 0xE5 SHL DUP2 MSTORE PUSH1 0x4 ADD PUSH2 0x825 SWAP1 PUSH2 0x45ED JUMP JUMPDEST PUSH1 0x0 PUSH1 0x1 JUMPDEST PUSH1 0x7 SLOAD DUP2 GT PUSH2 0x2E85 JUMPI PUSH1 0x0 DUP2 DUP2 MSTORE PUSH1 0x12 PUSH1 0x20 MSTORE PUSH1 0x40 SWAP1 KECCAK256 PUSH1 0x2 ADD SLOAD PUSH1 0x1 PUSH1 0x1 PUSH1 0xA0 SHL SUB DUP6 DUP2 AND SWAP2 AND EQ DUP1 ISZERO PUSH2 0x2E60 JUMPI POP PUSH1 0x0 DUP1 DUP3 DUP2 MSTORE PUSH1 0x12 PUSH1 0x20 MSTORE PUSH1 0x40 SWAP1 KECCAK256 PUSH1 0x9 ADD SLOAD PUSH2 0x100 SWAP1 DIV PUSH1 0xFF AND PUSH1 0x2 DUP2 GT ISZERO PUSH2 0x2E5E JUMPI PUSH2 0x2E5E PUSH2 0x3CAF JUMP JUMPDEST EQ JUMPDEST ISZERO PUSH2 0x2E73 JUMPI DUP2 PUSH2 0x2E6F DUP2 PUSH2 0x4596 JUMP JUMPDEST SWAP3 POP POP JUMPDEST DUP1 PUSH2 0x2E7D DUP2 PUSH2 0x4596 JUMP JUMPDEST SWAP2 POP POP PUSH2 0x2E02 JUMP JUMPDEST POP PUSH1 0x0 DUP2 PUSH1 0x1 PUSH1 0x1 PUSH1 0x40 SHL SUB DUP2 GT ISZERO PUSH2 0x2EA0 JUMPI PUSH2 0x2EA0 PUSH2 0x39A8 JUMP JUMPDEST PUSH1 0x40 MLOAD SWAP1 DUP1 DUP3 MSTORE DUP1 PUSH1 0x20 MUL PUSH1 0x20 ADD DUP3 ADD PUSH1 0x40 MSTORE DUP1 ISZERO PUSH2 0x2EC9 JUMPI DUP2 PUSH1 0x20 ADD PUSH1 0x20 DUP3 MUL DUP1 CALLDATASIZE DUP4 CALLDATACOPY ADD SWAP1 POP JUMPDEST POP SWAP1 POP PUSH1 0x0 PUSH1 0x1 JUMPDEST PUSH1 0x7 SLOAD DUP2 GT PUSH2 0x2F72 JUMPI PUSH1 0x0 DUP2 DUP2 MSTORE PUSH1 0x12 PUSH1 0x20 MSTORE PUSH1 0x40 SWAP1 KECCAK256 PUSH1 0x2 ADD SLOAD PUSH1 0x1 PUSH1 0x1 PUSH1 0xA0 SHL SUB DUP8 DUP2 AND SWAP2 AND EQ DUP1 ISZERO PUSH2 0x2F2F JUMPI POP PUSH1 0x0 DUP1 DUP3 DUP2 MSTORE PUSH1 0x12 PUSH1 0x20 MSTORE PUSH1 0x40 SWAP1 KECCAK256 PUSH1 0x9 ADD SLOAD PUSH2 0x100 SWAP1 DIV PUSH1 0xFF AND PUSH1 0x2 DUP2 GT ISZERO PUSH2 0x2F2D JUMPI PUSH2 0x2F2D PUSH2 0x3CAF JUMP JUMPDEST EQ JUMPDEST ISZERO PUSH2 0x2F60 JUMPI DUP1 DUP4 DUP4 DUP2 MLOAD DUP2 LT PUSH2 0x2F47 JUMPI PUSH2 0x2F47 PUSH2 0x467E JUMP JUMPDEST PUSH1 0x20 SWAP1 DUP2 MUL SWAP2 SWAP1 SWAP2 ADD ADD MSTORE DUP2 PUSH2 0x2F5C DUP2 PUSH2 0x4596 JUMP JUMPDEST SWAP3 POP POP JUMPDEST DUP1 PUSH2 0x2F6A DUP2 PUSH2 0x4596 JUMP JUMPDEST SWAP2 POP POP PUSH2 0x2ED1 JUMP JUMPDEST POP SWAP1 SWAP5 SWAP4 POP POP POP POP JUMP JUMPDEST PUSH2 0x2F84 PUSH2 0x366C JUMP JUMPDEST PUSH1 0x1 PUSH1 0x1 PUSH1 0xA0 SHL SUB DUP2 AND PUSH2 0x2FAE JUMPI PUSH1 0x0 PUSH1 0x40 MLOAD PUSH4 0x1E4FBDF7 PUSH1 0xE0 SHL DUP2 MSTORE PUSH1 0x4 ADD PUSH2 0x825 SWAP2 SWAP1 PUSH2 0x3AD8 JUMP JUMPDEST PUSH2 0xC27 DUP2 PUSH2 0x369E JUMP JUMPDEST PUSH1 0x0 PUSH2 0x2FC2 DUP2 PUSH2 0x3157 JUMP JUMPDEST PUSH2 0x2FCC DUP3 DUP5 PUSH2 0x21EE JUMP JUMPDEST DUP3 PUSH1 0x1 PUSH1 0x1 PUSH1 0xA0 SHL SUB AND PUSH32 0x2EC6B3B60CF0B79D925A613D31F267DFA6BBE1350819A7785767E183BFB3D87F DUP4 PUSH1 0x40 MLOAD PUSH2 0xA6F SWAP2 DUP2 MSTORE PUSH1 0x20 ADD SWAP1 JUMP JUMPDEST PUSH2 0x300F PUSH2 0x3161 JUMP JUMPDEST PUSH1 0x0 DUP3 MLOAD GT PUSH2 0x3054 JUMPI PUSH1 0x40 MLOAD PUSH3 0x461BCD PUSH1 0xE5 SHL DUP2 MSTORE PUSH1 0x20 PUSH1 0x4 DUP3 ADD MSTORE PUSH1 0x11 PUSH1 0x24 DUP3 ADD MSTORE PUSH17 0x92DCECC2D8D2C84092A08CA640D0C2E6D PUSH1 0x7B SHL PUSH1 0x44 DUP3 ADD MSTORE PUSH1 0x64 ADD PUSH2 0x825 JUMP JUMPDEST DUP1 PUSH2 0x3094 JUMPI PUSH1 0x40 MLOAD PUSH3 0x461BCD PUSH1 0xE5 SHL DUP2 MSTORE PUSH1 0x20 PUSH1 0x4 DUP3 ADD MSTORE PUSH1 0x10 PUSH1 0x24 DUP3 ADD MSTORE PUSH16 0x92DCECC2D8D2C840D6CAF240D0C2E6D PUSH1 0x83 SHL PUSH1 0x44 DUP3 ADD MSTORE PUSH1 0x64 ADD PUSH2 0x825 JUMP JUMPDEST CALLER PUSH1 0x0 SWAP1 DUP2 MSTORE PUSH1 0xA PUSH1 0x20 MSTORE PUSH1 0x40 DUP2 KECCAK256 PUSH1 0x2 ADD SLOAD PUSH2 0x30B2 SWAP1 PUSH1 0x1 PUSH2 0x4694 JUMP JUMPDEST PUSH1 0x40 DUP1 MLOAD PUSH1 0x80 DUP2 ADD DUP3 MSTORE DUP5 DUP2 MSTORE PUSH1 0x20 DUP1 DUP3 ADD DUP8 DUP2 MSTORE DUP3 DUP5 ADD DUP6 SWAP1 MSTORE PUSH1 0x1 PUSH1 0x60 DUP5 ADD DUP2 SWAP1 MSTORE CALLER PUSH1 0x0 SWAP1 DUP2 MSTORE PUSH1 0xA SWAP1 SWAP4 MSTORE SWAP4 SWAP1 SWAP2 KECCAK256 DUP3 MLOAD DUP2 SSTORE SWAP1 MLOAD SWAP4 SWAP5 POP SWAP1 SWAP3 SWAP1 SWAP2 DUP3 ADD SWAP1 PUSH2 0x30FF SWAP1 DUP3 PUSH2 0x447F JUMP JUMPDEST POP PUSH1 0x40 DUP3 DUP2 ADD MLOAD PUSH1 0x2 DUP4 ADD SSTORE PUSH1 0x60 SWAP1 SWAP3 ADD MLOAD PUSH1 0x3 SWAP1 SWAP2 ADD DUP1 SLOAD PUSH1 0xFF NOT AND SWAP2 ISZERO ISZERO SWAP2 SWAP1 SWAP2 OR SWAP1 SSTORE MLOAD CALLER SWAP1 PUSH32 0xE0BC10B17A0C0CFCDC1CC7C3F004A014E51A2E9D8705AE3C4CE6A71CAD9FF083 SWAP1 PUSH2 0xA6F SWAP1 DUP7 SWAP1 DUP6 SWAP1 PUSH2 0x453D JUMP JUMPDEST PUSH2 0xC27 DUP2 CALLER PUSH2 0x372B JUMP JUMPDEST PUSH1 0x3 SLOAD PUSH1 0xFF AND ISZERO PUSH2 0x151E JUMPI PUSH1 0x40 MLOAD PUSH4 0xD93C0665 PUSH1 0xE0 SHL DUP2 MSTORE PUSH1 0x4 ADD PUSH1 0x40 MLOAD DUP1 SWAP2 SUB SWAP1 REVERT JUMPDEST PUSH1 0x0 PUSH2 0x3191 DUP4 DUP4 PUSH2 0x1A02 JUMP JUMPDEST PUSH2 0x31F6 JUMPI PUSH1 0x0 DUP4 DUP2 MSTORE PUSH1 0x1 PUSH1 0x20 DUP2 DUP2 MSTORE PUSH1 0x40 DUP1 DUP5 KECCAK256 PUSH1 0x1 PUSH1 0x1 PUSH1 0xA0 SHL SUB DUP8 AND DUP1 DUP7 MSTORE SWAP3 MSTORE DUP1 DUP5 KECCAK256 DUP1 SLOAD PUSH1 0xFF NOT AND SWAP1 SWAP4 OR SWAP1 SWAP3 SSTORE SWAP1 MLOAD CALLER SWAP3 DUP7 SWAP2 PUSH32 0x2F8788117E7EFF1D82E926EC794901D17C78024A50270940304540A733656F0D SWAP2 SWAP1 LOG4 POP PUSH1 0x1 PUSH2 0x75A JUMP JUMPDEST POP PUSH1 0x0 PUSH2 0x75A JUMP JUMPDEST PUSH1 0x0 PUSH2 0x320A DUP4 DUP4 PUSH2 0x1A02 JUMP JUMPDEST ISZERO PUSH2 0x31F6 JUMPI PUSH1 0x0 DUP4 DUP2 MSTORE PUSH1 0x1 PUSH1 0x20 SWAP1 DUP2 MSTORE PUSH1 0x40 DUP1 DUP4 KECCAK256 PUSH1 0x1 PUSH1 0x1 PUSH1 0xA0 SHL SUB DUP7 AND DUP1 DUP6 MSTORE SWAP3 MSTORE DUP1 DUP4 KECCAK256 DUP1 SLOAD PUSH1 0xFF NOT AND SWAP1 SSTORE MLOAD CALLER SWAP3 DUP7 SWAP2 PUSH32 0xF6391F5C32D9C69D2A47EA670B442974B53935D1EDC7FD64EB21E047A839171B SWAP2 SWAP1 LOG4 POP PUSH1 0x1 PUSH2 0x75A JUMP JUMPDEST PUSH2 0x3273 PUSH2 0x3768 JUMP JUMPDEST PUSH1 0x3 DUP1 SLOAD PUSH1 0xFF NOT AND SWAP1 SSTORE PUSH32 0x5DB9EE0A495BF2E6FF9C91A7834C1BA4FDD244A5E8AA4E537BD38AEAE4B073AA CALLER JUMPDEST PUSH1 0x40 MLOAD PUSH2 0x32AD SWAP2 SWAP1 PUSH2 0x3AD8 JUMP JUMPDEST PUSH1 0x40 MLOAD DUP1 SWAP2 SUB SWAP1 LOG1 JUMP JUMPDEST PUSH1 0x1 PUSH1 0x1 PUSH1 0xA0 SHL SUB DUP5 AND PUSH1 0x0 SWAP1 DUP2 MSTORE PUSH1 0x11 PUSH1 0x20 SWAP1 DUP2 MSTORE PUSH1 0x40 DUP1 DUP4 KECCAK256 DUP1 SLOAD DUP3 MLOAD DUP2 DUP6 MUL DUP2 ADD DUP6 ADD SWAP1 SWAP4 MSTORE DUP1 DUP4 MSTORE DUP5 SWAP4 DUP4 ADD DUP3 DUP3 DUP1 ISZERO PUSH2 0x3314 JUMPI PUSH1 0x20 MUL DUP3 ADD SWAP2 SWAP1 PUSH1 0x0 MSTORE PUSH1 0x20 PUSH1 0x0 KECCAK256 SWAP1 JUMPDEST DUP2 SLOAD DUP2 MSTORE PUSH1 0x20 ADD SWAP1 PUSH1 0x1 ADD SWAP1 DUP1 DUP4 GT PUSH2 0x3300 JUMPI JUMPDEST POP POP POP POP POP SWAP1 POP PUSH1 0x0 JUMPDEST DUP2 MLOAD DUP2 LT ISZERO PUSH2 0x365F JUMPI PUSH1 0x0 PUSH1 0x12 PUSH1 0x0 DUP5 DUP5 DUP2 MLOAD DUP2 LT PUSH2 0x333F JUMPI PUSH2 0x333F PUSH2 0x467E JUMP JUMPDEST PUSH1 0x20 SWAP1 DUP2 MUL SWAP2 SWAP1 SWAP2 ADD DUP2 ADD MLOAD DUP3 MSTORE DUP2 DUP2 ADD SWAP3 SWAP1 SWAP3 MSTORE PUSH1 0x40 SWAP1 DUP2 ADD PUSH1 0x0 KECCAK256 DUP2 MLOAD PUSH2 0x1A0 DUP2 ADD DUP4 MSTORE DUP2 SLOAD DUP2 MSTORE PUSH1 0x1 DUP3 ADD SLOAD PUSH1 0x1 PUSH1 0x1 PUSH1 0xA0 SHL SUB SWAP1 DUP2 AND SWAP5 DUP3 ADD SWAP5 SWAP1 SWAP5 MSTORE PUSH1 0x2 DUP3 ADD SLOAD SWAP1 SWAP4 AND SWAP2 DUP4 ADD SWAP2 SWAP1 SWAP2 MSTORE PUSH1 0x3 DUP2 ADD SLOAD PUSH1 0x60 DUP4 ADD MSTORE PUSH1 0x4 DUP2 ADD DUP1 SLOAD PUSH1 0x80 DUP5 ADD SWAP2 SWAP1 PUSH2 0x33AE SWAP1 PUSH2 0x43D4 JUMP JUMPDEST DUP1 PUSH1 0x1F ADD PUSH1 0x20 DUP1 SWAP2 DIV MUL PUSH1 0x20 ADD PUSH1 0x40 MLOAD SWAP1 DUP2 ADD PUSH1 0x40 MSTORE DUP1 SWAP3 SWAP2 SWAP1 DUP2 DUP2 MSTORE PUSH1 0x20 ADD DUP3 DUP1 SLOAD PUSH2 0x33DA SWAP1 PUSH2 0x43D4 JUMP JUMPDEST DUP1 ISZERO PUSH2 0x3427 JUMPI DUP1 PUSH1 0x1F LT PUSH2 0x33FC JUMPI PUSH2 0x100 DUP1 DUP4 SLOAD DIV MUL DUP4 MSTORE SWAP2 PUSH1 0x20 ADD SWAP2 PUSH2 0x3427 JUMP JUMPDEST DUP3 ADD SWAP2 SWAP1 PUSH1 0x0 MSTORE PUSH1 0x20 PUSH1 0x0 KECCAK256 SWAP1 JUMPDEST DUP2 SLOAD DUP2 MSTORE SWAP1 PUSH1 0x1 ADD SWAP1 PUSH1 0x20 ADD DUP1 DUP4 GT PUSH2 0x340A JUMPI DUP3 SWAP1 SUB PUSH1 0x1F AND DUP3 ADD SWAP2 JUMPDEST POP POP POP SWAP2 DUP4 MSTORE POP POP PUSH1 0x5 DUP3 ADD SLOAD PUSH1 0x20 SWAP1 SWAP2 ADD SWAP1 PUSH1 0xFF AND PUSH1 0x6 DUP2 GT ISZERO PUSH2 0x344E JUMPI PUSH2 0x344E PUSH2 0x3CAF JUMP JUMPDEST PUSH1 0x6 DUP2 GT ISZERO PUSH2 0x345F JUMPI PUSH2 0x345F PUSH2 0x3CAF JUMP JUMPDEST DUP2 MSTORE PUSH1 0x20 ADD PUSH1 0x5 DUP3 ADD PUSH1 0x1 SWAP1 SLOAD SWAP1 PUSH2 0x100 EXP SWAP1 DIV PUSH1 0xFF AND PUSH1 0x3 DUP2 GT ISZERO PUSH2 0x3487 JUMPI PUSH2 0x3487 PUSH2 0x3CAF JUMP JUMPDEST PUSH1 0x3 DUP2 GT ISZERO PUSH2 0x3498 JUMPI PUSH2 0x3498 PUSH2 0x3CAF JUMP JUMPDEST DUP2 MSTORE PUSH1 0x6 DUP3 ADD SLOAD PUSH1 0x20 DUP3 ADD MSTORE PUSH1 0x7 DUP3 ADD SLOAD PUSH1 0x40 DUP3 ADD MSTORE PUSH1 0x8 DUP3 ADD SLOAD PUSH1 0x60 DUP3 ADD MSTORE PUSH1 0x9 DUP3 ADD SLOAD PUSH1 0x80 SWAP1 SWAP2 ADD SWAP1 PUSH1 0xFF AND PUSH1 0x2 DUP2 GT ISZERO PUSH2 0x34D7 JUMPI PUSH2 0x34D7 PUSH2 0x3CAF JUMP JUMPDEST PUSH1 0x2 DUP2 GT ISZERO PUSH2 0x34E8 JUMPI PUSH2 0x34E8 PUSH2 0x3CAF JUMP JUMPDEST DUP2 MSTORE PUSH1 0x20 ADD PUSH1 0x9 DUP3 ADD PUSH1 0x1 SWAP1 SLOAD SWAP1 PUSH2 0x100 EXP SWAP1 DIV PUSH1 0xFF AND PUSH1 0x2 DUP2 GT ISZERO PUSH2 0x3510 JUMPI PUSH2 0x3510 PUSH2 0x3CAF JUMP JUMPDEST PUSH1 0x2 DUP2 GT ISZERO PUSH2 0x3521 JUMPI PUSH2 0x3521 PUSH2 0x3CAF JUMP JUMPDEST DUP2 MSTORE PUSH1 0x20 ADD PUSH1 0xA DUP3 ADD DUP1 SLOAD PUSH2 0x3535 SWAP1 PUSH2 0x43D4 JUMP JUMPDEST DUP1 PUSH1 0x1F ADD PUSH1 0x20 DUP1 SWAP2 DIV MUL PUSH1 0x20 ADD PUSH1 0x40 MLOAD SWAP1 DUP2 ADD PUSH1 0x40 MSTORE DUP1 SWAP3 SWAP2 SWAP1 DUP2 DUP2 MSTORE PUSH1 0x20 ADD DUP3 DUP1 SLOAD PUSH2 0x3561 SWAP1 PUSH2 0x43D4 JUMP JUMPDEST DUP1 ISZERO PUSH2 0x35AE JUMPI DUP1 PUSH1 0x1F LT PUSH2 0x3583 JUMPI PUSH2 0x100 DUP1 DUP4 SLOAD DIV MUL DUP4 MSTORE SWAP2 PUSH1 0x20 ADD SWAP2 PUSH2 0x35AE JUMP JUMPDEST DUP3 ADD SWAP2 SWAP1 PUSH1 0x0 MSTORE PUSH1 0x20 PUSH1 0x0 KECCAK256 SWAP1 JUMPDEST DUP2 SLOAD DUP2 MSTORE SWAP1 PUSH1 0x1 ADD SWAP1 PUSH1 0x20 ADD DUP1 DUP4 GT PUSH2 0x3591 JUMPI DUP3 SWAP1 SUB PUSH1 0x1F AND DUP3 ADD SWAP2 JUMPDEST POP POP POP POP POP DUP2 MSTORE POP POP SWAP1 POP DUP7 PUSH1 0x1 PUSH1 0x1 PUSH1 0xA0 SHL SUB AND DUP2 PUSH1 0x40 ADD MLOAD PUSH1 0x1 PUSH1 0x1 PUSH1 0xA0 SHL SUB AND EQ DUP1 ISZERO PUSH2 0x35F4 JUMPI POP PUSH1 0x0 DUP2 PUSH2 0x160 ADD MLOAD PUSH1 0x2 DUP2 GT ISZERO PUSH2 0x35F2 JUMPI PUSH2 0x35F2 PUSH2 0x3CAF JUMP JUMPDEST EQ JUMPDEST DUP1 ISZERO PUSH2 0x3605 JUMPI POP DUP1 PUSH2 0x120 ADD MLOAD TIMESTAMP GT ISZERO JUMPDEST DUP1 ISZERO PUSH2 0x3636 JUMPI POP DUP6 PUSH1 0x3 DUP2 GT ISZERO PUSH2 0x361E JUMPI PUSH2 0x361E PUSH2 0x3CAF JUMP JUMPDEST DUP2 PUSH1 0xC0 ADD MLOAD PUSH1 0x3 DUP2 GT ISZERO PUSH2 0x3634 JUMPI PUSH2 0x3634 PUSH2 0x3CAF JUMP JUMPDEST EQ JUMPDEST DUP1 ISZERO PUSH2 0x3645 JUMPI POP DUP5 DUP2 PUSH1 0xE0 ADD MLOAD EQ JUMPDEST ISZERO PUSH2 0x3656 JUMPI PUSH1 0x1 SWAP4 POP POP POP POP PUSH2 0xD8A JUMP JUMPDEST POP PUSH1 0x1 ADD PUSH2 0x331E JUMP JUMPDEST POP PUSH1 0x0 SWAP7 SWAP6 POP POP POP POP POP POP JUMP JUMPDEST CALLER PUSH2 0x3675 PUSH2 0x1976 JUMP JUMPDEST PUSH1 0x1 PUSH1 0x1 PUSH1 0xA0 SHL SUB AND EQ PUSH2 0x151E JUMPI CALLER PUSH1 0x40 MLOAD PUSH4 0x118CDAA7 PUSH1 0xE0 SHL DUP2 MSTORE PUSH1 0x4 ADD PUSH2 0x825 SWAP2 SWAP1 PUSH2 0x3AD8 JUMP JUMPDEST PUSH1 0x0 DUP1 SLOAD PUSH1 0x1 PUSH1 0x1 PUSH1 0xA0 SHL SUB DUP4 DUP2 AND PUSH1 0x1 PUSH1 0x1 PUSH1 0xA0 SHL SUB NOT DUP4 AND DUP2 OR DUP5 SSTORE PUSH1 0x40 MLOAD SWAP2 SWAP1 SWAP3 AND SWAP3 DUP4 SWAP2 PUSH32 0x8BE0079C531659141344CD1FD0A4F28419497F9722A3DAAFE3B4186F6B6457E0 SWAP2 SWAP1 LOG3 POP POP JUMP JUMPDEST PUSH2 0x36F6 PUSH2 0x3161 JUMP JUMPDEST PUSH1 0x3 DUP1 SLOAD PUSH1 0xFF NOT AND PUSH1 0x1 OR SWAP1 SSTORE PUSH32 0x62E78CEA01BEE320CD4E420270B5EA74000D11B0C9F74754EBDBFC544B05A258 PUSH2 0x32A0 CALLER SWAP1 JUMP JUMPDEST PUSH2 0x3735 DUP3 DUP3 PUSH2 0x1A02 JUMP JUMPDEST PUSH2 0x3764 JUMPI PUSH1 0x40 MLOAD PUSH4 0xE2517D3F PUSH1 0xE0 SHL DUP2 MSTORE PUSH1 0x1 PUSH1 0x1 PUSH1 0xA0 SHL SUB DUP3 AND PUSH1 0x4 DUP3 ADD MSTORE PUSH1 0x24 DUP2 ADD DUP4 SWAP1 MSTORE PUSH1 0x44 ADD PUSH2 0x825 JUMP JUMPDEST POP POP JUMP JUMPDEST PUSH1 0x3 SLOAD PUSH1 0xFF AND PUSH2 0x151E JUMPI PUSH1 0x40 MLOAD PUSH4 0x8DFC202B PUSH1 0xE0 SHL DUP2 MSTORE PUSH1 0x4 ADD PUSH1 0x40 MLOAD DUP1 SWAP2 SUB SWAP1 REVERT JUMPDEST PUSH1 0x40 MLOAD DUP1 PUSH1 0xC0 ADD PUSH1 0x40 MSTORE DUP1 PUSH1 0x0 DUP2 MSTORE PUSH1 0x20 ADD PUSH1 0x0 PUSH1 0x1 PUSH1 0x1 PUSH1 0xA0 SHL SUB AND DUP2 MSTORE PUSH1 0x20 ADD PUSH1 0x60 DUP2 MSTORE PUSH1 0x20 ADD PUSH1 0x0 PUSH1 0x4 DUP2 GT ISZERO PUSH2 0x37C7 JUMPI PUSH2 0x37C7 PUSH2 0x3CAF JUMP JUMPDEST DUP2 MSTORE PUSH1 0x0 PUSH1 0x20 DUP3 ADD DUP2 SWAP1 MSTORE PUSH1 0x40 SWAP1 SWAP2 ADD MSTORE SWAP1 JUMP JUMPDEST PUSH1 0x40 DUP1 MLOAD PUSH2 0x1A0 DUP2 ADD DUP3 MSTORE PUSH1 0x0 DUP1 DUP3 MSTORE PUSH1 0x20 DUP3 ADD DUP2 SWAP1 MSTORE SWAP2 DUP2 ADD DUP3 SWAP1 MSTORE PUSH1 0x60 DUP1 DUP3 ADD DUP4 SWAP1 MSTORE PUSH1 0x80 DUP3 ADD MSTORE SWAP1 PUSH1 0xA0 DUP3 ADD SWAP1 DUP2 MSTORE PUSH1 0x20 ADD PUSH1 0x0 DUP2 MSTORE PUSH1 0x20 ADD PUSH1 0x0 DUP2 MSTORE PUSH1 0x20 ADD PUSH1 0x0 DUP2 MSTORE PUSH1 0x20 ADD PUSH1 0x0 DUP2 MSTORE PUSH1 0x20 ADD PUSH1 0x0 PUSH1 0x2 DUP2 GT ISZERO PUSH2 0x383F JUMPI PUSH2 0x383F PUSH2 0x3CAF JUMP JUMPDEST DUP2 MSTORE PUSH1 0x20 ADD PUSH1 0x0 DUP2 MSTORE PUSH1 0x20 ADD PUSH1 0x60 DUP2 MSTORE POP SWAP1 JUMP JUMPDEST PUSH1 0x40 MLOAD DUP1 PUSH2 0x100 ADD PUSH1 0x40 MSTORE DUP1 PUSH1 0x0 DUP2 MSTORE PUSH1 0x20 ADD PUSH1 0x60 DUP2 MSTORE PUSH1 0x20 ADD PUSH1 0x60 DUP2 MSTORE PUSH1 0x20 ADD PUSH1 0x0 PUSH1 0x7 DUP2 GT ISZERO PUSH2 0x3887 JUMPI PUSH2 0x3887 PUSH2 0x3CAF JUMP JUMPDEST DUP2 MSTORE PUSH1 0x20 ADD PUSH1 0x0 ISZERO ISZERO DUP2 MSTORE PUSH1 0x20 ADD PUSH1 0x0 DUP2 MSTORE PUSH1 0x20 ADD PUSH1 0x0 DUP2 MSTORE PUSH1 0x20 ADD PUSH1 0x60 DUP2 MSTORE POP SWAP1 JUMP JUMPDEST PUSH1 0x0 PUSH1 0x20 DUP3 DUP5 SUB SLT ISZERO PUSH2 0x38BD JUMPI PUSH1 0x0 DUP1 REVERT JUMPDEST DUP2 CALLDATALOAD PUSH1 0x1 PUSH1 0x1 PUSH1 0xE0 SHL SUB NOT DUP2 AND DUP2 EQ PUSH2 0x1E14 JUMPI PUSH1 0x0 DUP1 REVERT JUMPDEST DUP1 CALLDATALOAD PUSH1 0x1 PUSH1 0x1 PUSH1 0xA0 SHL SUB DUP2 AND DUP2 EQ PUSH2 0x38EC JUMPI PUSH1 0x0 DUP1 REVERT JUMPDEST SWAP2 SWAP1 POP JUMP JUMPDEST PUSH1 0x0 PUSH1 0x20 DUP3 DUP5 SUB SLT ISZERO PUSH2 0x3903 JUMPI PUSH1 0x0 DUP1 REVERT JUMPDEST PUSH2 0x1E14 DUP3 PUSH2 0x38D5 JUMP JUMPDEST PUSH1 0x0 DUP2 MLOAD DUP1 DUP5 MSTORE PUSH1 0x0 JUMPDEST DUP2 DUP2 LT ISZERO PUSH2 0x3932 JUMPI PUSH1 0x20 DUP2 DUP6 ADD DUP2 ADD MLOAD DUP7 DUP4 ADD DUP3 ADD MSTORE ADD PUSH2 0x3916 JUMP JUMPDEST POP PUSH1 0x0 PUSH1 0x20 DUP3 DUP7 ADD ADD MSTORE PUSH1 0x20 PUSH1 0x1F NOT PUSH1 0x1F DUP4 ADD AND DUP6 ADD ADD SWAP2 POP POP SWAP3 SWAP2 POP POP JUMP JUMPDEST PUSH1 0x20 DUP2 MSTORE PUSH1 0x0 PUSH2 0x1E14 PUSH1 0x20 DUP4 ADD DUP5 PUSH2 0x390C JUMP JUMPDEST PUSH1 0x20 DUP1 DUP3 MSTORE DUP3 MLOAD DUP3 DUP3 ADD DUP2 SWAP1 MSTORE PUSH1 0x0 SWAP2 DUP5 ADD SWAP1 PUSH1 0x40 DUP5 ADD SWAP1 DUP4 JUMPDEST DUP2 DUP2 LT ISZERO PUSH2 0x399D JUMPI DUP4 MLOAD DUP4 MSTORE PUSH1 0x20 SWAP4 DUP5 ADD SWAP4 SWAP1 SWAP3 ADD SWAP2 PUSH1 0x1 ADD PUSH2 0x397F JUMP JUMPDEST POP SWAP1 SWAP6 SWAP5 POP POP POP POP POP JUMP JUMPDEST PUSH4 0x4E487B71 PUSH1 0xE0 SHL PUSH1 0x0 MSTORE PUSH1 0x41 PUSH1 0x4 MSTORE PUSH1 0x24 PUSH1 0x0 REVERT JUMPDEST PUSH1 0x0 DUP3 PUSH1 0x1F DUP4 ADD SLT PUSH2 0x39CF JUMPI PUSH1 0x0 DUP1 REVERT JUMPDEST DUP2 CALLDATALOAD PUSH1 0x1 PUSH1 0x1 PUSH1 0x40 SHL SUB DUP2 GT ISZERO PUSH2 0x39E8 JUMPI PUSH2 0x39E8 PUSH2 0x39A8 JUMP JUMPDEST PUSH1 0x40 MLOAD PUSH1 0x1F DUP3 ADD PUSH1 0x1F NOT SWAP1 DUP2 AND PUSH1 0x3F ADD AND DUP2 ADD PUSH1 0x1 PUSH1 0x1 PUSH1 0x40 SHL SUB DUP2 GT DUP3 DUP3 LT OR ISZERO PUSH2 0x3A16 JUMPI PUSH2 0x3A16 PUSH2 0x39A8 JUMP JUMPDEST PUSH1 0x40 MSTORE DUP2 DUP2 MSTORE DUP4 DUP3 ADD PUSH1 0x20 ADD DUP6 LT ISZERO PUSH2 0x3A2E JUMPI PUSH1 0x0 DUP1 REVERT JUMPDEST DUP2 PUSH1 0x20 DUP6 ADD PUSH1 0x20 DUP4 ADD CALLDATACOPY PUSH1 0x0 SWAP2 DUP2 ADD PUSH1 0x20 ADD SWAP2 SWAP1 SWAP2 MSTORE SWAP4 SWAP3 POP POP POP JUMP JUMPDEST PUSH1 0x0 DUP1 PUSH1 0x40 DUP4 DUP6 SUB SLT ISZERO PUSH2 0x3A5E JUMPI PUSH1 0x0 DUP1 REVERT JUMPDEST DUP3 CALLDATALOAD PUSH1 0x1 PUSH1 0x1 PUSH1 0x40 SHL SUB DUP2 GT ISZERO PUSH2 0x3A74 JUMPI PUSH1 0x0 DUP1 REVERT JUMPDEST PUSH2 0x3A80 DUP6 DUP3 DUP7 ADD PUSH2 0x39BE JUMP JUMPDEST SWAP3 POP POP PUSH1 0x20 DUP4 ADD CALLDATALOAD PUSH1 0x1 PUSH1 0x1 PUSH1 0x40 SHL SUB DUP2 GT ISZERO PUSH2 0x3A9C JUMPI PUSH1 0x0 DUP1 REVERT JUMPDEST PUSH2 0x3AA8 DUP6 DUP3 DUP7 ADD PUSH2 0x39BE JUMP JUMPDEST SWAP2 POP POP SWAP3 POP SWAP3 SWAP1 POP JUMP JUMPDEST PUSH1 0x0 PUSH1 0x20 DUP3 DUP5 SUB SLT ISZERO PUSH2 0x3AC4 JUMPI PUSH1 0x0 DUP1 REVERT JUMPDEST POP CALLDATALOAD SWAP2 SWAP1 POP JUMP JUMPDEST PUSH1 0x1 PUSH1 0x1 PUSH1 0xA0 SHL SUB AND SWAP1 MSTORE JUMP JUMPDEST PUSH1 0x1 PUSH1 0x1 PUSH1 0xA0 SHL SUB SWAP2 SWAP1 SWAP2 AND DUP2 MSTORE PUSH1 0x20 ADD SWAP1 JUMP JUMPDEST PUSH1 0x0 DUP1 PUSH1 0x40 DUP4 DUP6 SUB SLT ISZERO PUSH2 0x3AFF JUMPI PUSH1 0x0 DUP1 REVERT JUMPDEST DUP3 CALLDATALOAD SWAP2 POP PUSH2 0x3B0F PUSH1 0x20 DUP5 ADD PUSH2 0x38D5 JUMP JUMPDEST SWAP1 POP SWAP3 POP SWAP3 SWAP1 POP JUMP JUMPDEST DUP1 CALLDATALOAD DUP1 ISZERO ISZERO DUP2 EQ PUSH2 0x38EC JUMPI PUSH1 0x0 DUP1 REVERT JUMPDEST PUSH1 0x0 DUP1 PUSH1 0x0 DUP1 PUSH1 0x80 DUP6 DUP8 SUB SLT ISZERO PUSH2 0x3B3E JUMPI PUSH1 0x0 DUP1 REVERT JUMPDEST DUP5 CALLDATALOAD PUSH1 0x1 PUSH1 0x1 PUSH1 0x40 SHL SUB DUP2 GT ISZERO PUSH2 0x3B54 JUMPI PUSH1 0x0 DUP1 REVERT JUMPDEST PUSH2 0x3B60 DUP8 DUP3 DUP9 ADD PUSH2 0x39BE JUMP JUMPDEST SWAP5 POP POP PUSH2 0x3B6F PUSH1 0x20 DUP7 ADD PUSH2 0x3B18 JUMP JUMPDEST SWAP4 SWAP7 SWAP4 SWAP6 POP POP POP POP PUSH1 0x40 DUP3 ADD CALLDATALOAD SWAP2 PUSH1 0x60 ADD CALLDATALOAD SWAP1 JUMP JUMPDEST PUSH1 0x0 DUP1 PUSH1 0x0 DUP1 PUSH1 0x80 DUP6 DUP8 SUB SLT ISZERO PUSH2 0x3B9A JUMPI PUSH1 0x0 DUP1 REVERT JUMPDEST PUSH2 0x3BA3 DUP6 PUSH2 0x38D5 JUMP JUMPDEST SWAP4 POP PUSH1 0x20 DUP6 ADD CALLDATALOAD PUSH1 0x1 PUSH1 0x1 PUSH1 0x40 SHL SUB DUP2 GT ISZERO PUSH2 0x3BBE JUMPI PUSH1 0x0 DUP1 REVERT JUMPDEST PUSH2 0x3BCA DUP8 DUP3 DUP9 ADD PUSH2 0x39BE JUMP JUMPDEST SWAP4 POP POP PUSH1 0x40 DUP6 ADD CALLDATALOAD PUSH1 0x5 DUP2 LT PUSH2 0x3BDF JUMPI PUSH1 0x0 DUP1 REVERT JUMPDEST SWAP4 SWAP7 SWAP3 SWAP6 POP SWAP3 SWAP4 PUSH1 0x60 ADD CALLDATALOAD SWAP3 POP POP JUMP JUMPDEST PUSH1 0x20 DUP2 MSTORE DUP2 MLOAD PUSH1 0x20 DUP3 ADD MSTORE PUSH1 0x0 PUSH1 0x20 DUP4 ADD MLOAD PUSH1 0xC0 PUSH1 0x40 DUP5 ADD MSTORE PUSH2 0x3C15 PUSH1 0xE0 DUP5 ADD DUP3 PUSH2 0x390C JUMP JUMPDEST SWAP1 POP PUSH1 0x40 DUP5 ADD MLOAD ISZERO ISZERO PUSH1 0x60 DUP5 ADD MSTORE PUSH1 0x60 DUP5 ADD MLOAD PUSH1 0x80 DUP5 ADD MSTORE PUSH1 0x80 DUP5 ADD MLOAD PUSH1 0xA0 DUP5 ADD MSTORE PUSH1 0xA0 DUP5 ADD MLOAD PUSH1 0xC0 DUP5 ADD MSTORE DUP1 SWAP2 POP POP SWAP3 SWAP2 POP POP JUMP JUMPDEST PUSH1 0x20 DUP2 MSTORE DUP2 MLOAD PUSH1 0x20 DUP3 ADD MSTORE PUSH1 0x0 PUSH1 0x20 DUP4 ADD MLOAD PUSH1 0xA0 PUSH1 0x40 DUP5 ADD MSTORE PUSH2 0x3C71 PUSH1 0xC0 DUP5 ADD DUP3 PUSH2 0x390C JUMP JUMPDEST SWAP1 POP PUSH1 0x40 DUP5 ADD MLOAD PUSH1 0x1F NOT DUP5 DUP4 SUB ADD PUSH1 0x60 DUP6 ADD MSTORE PUSH2 0x3C8E DUP3 DUP3 PUSH2 0x390C JUMP JUMPDEST SWAP2 POP POP PUSH1 0x60 DUP5 ADD MLOAD PUSH1 0x80 DUP5 ADD MSTORE PUSH1 0x80 DUP5 ADD MLOAD PUSH1 0xA0 DUP5 ADD MSTORE DUP1 SWAP2 POP POP SWAP3 SWAP2 POP POP JUMP JUMPDEST PUSH4 0x4E487B71 PUSH1 0xE0 SHL PUSH1 0x0 MSTORE PUSH1 0x21 PUSH1 0x4 MSTORE PUSH1 0x24 PUSH1 0x0 REVERT JUMPDEST PUSH1 0x5 DUP2 LT PUSH2 0x3CD5 JUMPI PUSH2 0x3CD5 PUSH2 0x3CAF JUMP JUMPDEST SWAP1 MSTORE JUMP JUMPDEST PUSH1 0x20 DUP2 MSTORE DUP2 MLOAD PUSH1 0x20 DUP3 ADD MSTORE PUSH1 0x1 DUP1 PUSH1 0xA0 SHL SUB PUSH1 0x20 DUP4 ADD MLOAD AND PUSH1 0x40 DUP3 ADD MSTORE PUSH1 0x0 PUSH1 0x40 DUP4 ADD MLOAD PUSH1 0xC0 PUSH1 0x60 DUP5 ADD MSTORE PUSH2 0x3D11 PUSH1 0xE0 DUP5 ADD DUP3 PUSH2 0x390C JUMP JUMPDEST SWAP1 POP PUSH1 0x60 DUP5 ADD MLOAD PUSH2 0x3D25 PUSH1 0x80 DUP6 ADD DUP3 PUSH2 0x3CC5 JUMP JUMPDEST POP PUSH1 0x80 DUP5 ADD MLOAD PUSH1 0xA0 DUP5 ADD MSTORE PUSH1 0xA0 DUP5 ADD MLOAD PUSH1 0xC0 DUP5 ADD MSTORE DUP1 SWAP2 POP POP SWAP3 SWAP2 POP POP JUMP JUMPDEST PUSH1 0x0 DUP1 PUSH1 0x0 PUSH1 0x60 DUP5 DUP7 SUB SLT ISZERO PUSH2 0x3D59 JUMPI PUSH1 0x0 DUP1 REVERT JUMPDEST DUP4 CALLDATALOAD PUSH1 0x1 PUSH1 0x1 PUSH1 0x40 SHL SUB DUP2 GT ISZERO PUSH2 0x3D6F JUMPI PUSH1 0x0 DUP1 REVERT JUMPDEST PUSH2 0x3D7B DUP7 DUP3 DUP8 ADD PUSH2 0x39BE JUMP JUMPDEST SWAP4 POP POP PUSH1 0x20 DUP5 ADD CALLDATALOAD PUSH1 0x1 PUSH1 0x1 PUSH1 0x40 SHL SUB DUP2 GT ISZERO PUSH2 0x3D97 JUMPI PUSH1 0x0 DUP1 REVERT JUMPDEST PUSH2 0x3DA3 DUP7 DUP3 DUP8 ADD PUSH2 0x39BE JUMP JUMPDEST SWAP4 SWAP7 SWAP4 SWAP6 POP POP POP POP PUSH1 0x40 SWAP2 SWAP1 SWAP2 ADD CALLDATALOAD SWAP1 JUMP JUMPDEST PUSH1 0x0 DUP1 PUSH1 0x0 DUP1 PUSH1 0x80 DUP6 DUP8 SUB SLT ISZERO PUSH2 0x3DCB JUMPI PUSH1 0x0 DUP1 REVERT JUMPDEST DUP5 CALLDATALOAD SWAP4 POP PUSH1 0x20 DUP6 ADD CALLDATALOAD PUSH1 0x1 PUSH1 0x1 PUSH1 0x40 SHL SUB DUP2 GT ISZERO PUSH2 0x3DE8 JUMPI PUSH1 0x0 DUP1 REVERT JUMPDEST PUSH2 0x3DF4 DUP8 DUP3 DUP9 ADD PUSH2 0x39BE JUMP JUMPDEST SWAP4 POP POP PUSH1 0x40 DUP6 ADD CALLDATALOAD PUSH1 0x1 PUSH1 0x1 PUSH1 0x40 SHL SUB DUP2 GT ISZERO PUSH2 0x3E10 JUMPI PUSH1 0x0 DUP1 REVERT JUMPDEST PUSH2 0x3E1C DUP8 DUP3 DUP9 ADD PUSH2 0x39BE JUMP JUMPDEST SWAP5 SWAP8 SWAP4 SWAP7 POP SWAP4 SWAP5 PUSH1 0x60 ADD CALLDATALOAD SWAP4 POP POP POP JUMP JUMPDEST DUP1 CALLDATALOAD PUSH1 0x8 DUP2 LT PUSH2 0x38EC JUMPI PUSH1 0x0 DUP1 REVERT JUMPDEST PUSH1 0x0 DUP1 PUSH1 0x0 DUP1 PUSH1 0x0 DUP1 PUSH1 0xC0 DUP8 DUP10 SUB SLT ISZERO PUSH2 0x3E55 JUMPI PUSH1 0x0 DUP1 REVERT JUMPDEST DUP7 CALLDATALOAD PUSH1 0x1 PUSH1 0x1 PUSH1 0x40 SHL SUB DUP2 GT ISZERO PUSH2 0x3E6B JUMPI PUSH1 0x0 DUP1 REVERT JUMPDEST PUSH2 0x3E77 DUP10 DUP3 DUP11 ADD PUSH2 0x39BE JUMP JUMPDEST SWAP7 POP POP PUSH1 0x20 DUP8 ADD CALLDATALOAD PUSH1 0x1 PUSH1 0x1 PUSH1 0x40 SHL SUB DUP2 GT ISZERO PUSH2 0x3E93 JUMPI PUSH1 0x0 DUP1 REVERT JUMPDEST PUSH2 0x3E9F DUP10 DUP3 DUP11 ADD PUSH2 0x39BE JUMP JUMPDEST SWAP6 POP POP PUSH2 0x3EAE PUSH1 0x40 DUP9 ADD PUSH2 0x3E2D JUMP JUMPDEST SWAP4 POP PUSH2 0x3EBC PUSH1 0x60 DUP9 ADD PUSH2 0x3B18 JUMP JUMPDEST SWAP3 POP PUSH1 0x80 DUP8 ADD CALLDATALOAD SWAP2 POP PUSH1 0xA0 DUP8 ADD CALLDATALOAD PUSH1 0x1 PUSH1 0x1 PUSH1 0x40 SHL SUB DUP2 GT ISZERO PUSH2 0x3EDE JUMPI PUSH1 0x0 DUP1 REVERT JUMPDEST PUSH2 0x3EEA DUP10 DUP3 DUP11 ADD PUSH2 0x39BE JUMP JUMPDEST SWAP2 POP POP SWAP3 SWAP6 POP SWAP3 SWAP6 POP SWAP3 SWAP6 JUMP JUMPDEST PUSH1 0x0 DUP1 PUSH1 0x0 DUP1 PUSH1 0x0 PUSH1 0xA0 DUP7 DUP9 SUB SLT ISZERO PUSH2 0x3F0F JUMPI PUSH1 0x0 DUP1 REVERT JUMPDEST DUP6 CALLDATALOAD SWAP5 POP PUSH1 0x20 DUP7 ADD CALLDATALOAD PUSH1 0x1 PUSH1 0x1 PUSH1 0x40 SHL SUB DUP2 GT ISZERO PUSH2 0x3F2C JUMPI PUSH1 0x0 DUP1 REVERT JUMPDEST PUSH2 0x3F38 DUP9 DUP3 DUP10 ADD PUSH2 0x39BE JUMP JUMPDEST SWAP5 POP POP PUSH2 0x3F47 PUSH1 0x40 DUP8 ADD PUSH2 0x3B18 JUMP JUMPDEST SWAP5 SWAP8 SWAP4 SWAP7 POP SWAP4 SWAP5 PUSH1 0x60 DUP2 ADD CALLDATALOAD SWAP5 POP PUSH1 0x80 ADD CALLDATALOAD SWAP3 SWAP2 POP POP JUMP JUMPDEST PUSH1 0x7 DUP2 LT PUSH2 0x3CD5 JUMPI PUSH2 0x3CD5 PUSH2 0x3CAF JUMP JUMPDEST PUSH1 0x4 DUP2 LT PUSH2 0x3CD5 JUMPI PUSH2 0x3CD5 PUSH2 0x3CAF JUMP JUMPDEST PUSH1 0x3 DUP2 LT PUSH2 0x3CD5 JUMPI PUSH2 0x3CD5 PUSH2 0x3CAF JUMP JUMPDEST PUSH1 0x20 DUP2 MSTORE DUP2 MLOAD PUSH1 0x20 DUP3 ADD MSTORE PUSH1 0x0 PUSH1 0x20 DUP4 ADD MLOAD PUSH2 0x3FAE PUSH1 0x40 DUP5 ADD DUP3 PUSH2 0x3ACB JUMP JUMPDEST POP PUSH1 0x40 DUP4 ADD MLOAD PUSH2 0x3FC1 PUSH1 0x60 DUP5 ADD DUP3 PUSH2 0x3ACB JUMP JUMPDEST POP PUSH1 0x60 DUP4 ADD MLOAD PUSH1 0x80 DUP4 ADD MSTORE PUSH1 0x80 DUP4 ADD MLOAD PUSH2 0x1A0 PUSH1 0xA0 DUP5 ADD MSTORE PUSH2 0x3FE7 PUSH2 0x1C0 DUP5 ADD DUP3 PUSH2 0x390C JUMP JUMPDEST SWAP1 POP PUSH1 0xA0 DUP5 ADD MLOAD PUSH2 0x3FFB PUSH1 0xC0 DUP6 ADD DUP3 PUSH2 0x3F5F JUMP JUMPDEST POP PUSH1 0xC0 DUP5 ADD MLOAD PUSH2 0x400E PUSH1 0xE0 DUP6 ADD DUP3 PUSH2 0x3F6F JUMP JUMPDEST POP PUSH1 0xE0 DUP5 ADD MLOAD PUSH2 0x100 DUP5 ADD MSTORE PUSH2 0x100 DUP5 ADD MLOAD PUSH2 0x120 DUP5 ADD MSTORE PUSH2 0x120 DUP5 ADD MLOAD PUSH2 0x140 DUP5 ADD MSTORE PUSH2 0x140 DUP5 ADD MLOAD PUSH2 0x4046 PUSH2 0x160 DUP6 ADD DUP3 PUSH2 0x3F7F JUMP JUMPDEST POP PUSH2 0x160 DUP5 ADD MLOAD PUSH2 0x405B PUSH2 0x180 DUP6 ADD DUP3 PUSH2 0x3F7F JUMP JUMPDEST POP PUSH2 0x180 DUP5 ADD MLOAD DUP4 DUP3 SUB PUSH1 0x1F NOT ADD PUSH2 0x1A0 DUP6 ADD MSTORE PUSH2 0x4079 DUP3 DUP3 PUSH2 0x390C JUMP JUMPDEST SWAP6 SWAP5 POP POP POP POP POP JUMP JUMPDEST DUP5 DUP2 MSTORE PUSH1 0x80 PUSH1 0x20 DUP3 ADD MSTORE PUSH1 0x0 PUSH2 0x409B PUSH1 0x80 DUP4 ADD DUP7 PUSH2 0x390C JUMP JUMPDEST PUSH1 0x40 DUP4 ADD SWAP5 SWAP1 SWAP5 MSTORE POP SWAP1 ISZERO ISZERO PUSH1 0x60 SWAP1 SWAP2 ADD MSTORE SWAP3 SWAP2 POP POP JUMP JUMPDEST PUSH1 0x0 DUP1 PUSH1 0x0 DUP1 PUSH1 0x0 DUP1 PUSH1 0x0 PUSH1 0xE0 DUP9 DUP11 SUB SLT ISZERO PUSH2 0x40CE JUMPI PUSH1 0x0 DUP1 REVERT JUMPDEST DUP8 CALLDATALOAD SWAP7 POP PUSH1 0x20 DUP9 ADD CALLDATALOAD PUSH1 0x1 PUSH1 0x1 PUSH1 0x40 SHL SUB DUP2 GT ISZERO PUSH2 0x40EB JUMPI PUSH1 0x0 DUP1 REVERT JUMPDEST PUSH2 0x40F7 DUP11 DUP3 DUP12 ADD PUSH2 0x39BE JUMP JUMPDEST SWAP7 POP POP PUSH1 0x40 DUP9 ADD CALLDATALOAD PUSH1 0x1 PUSH1 0x1 PUSH1 0x40 SHL SUB DUP2 GT ISZERO PUSH2 0x4113 JUMPI PUSH1 0x0 DUP1 REVERT JUMPDEST PUSH2 0x411F DUP11 DUP3 DUP12 ADD PUSH2 0x39BE JUMP JUMPDEST SWAP6 POP POP PUSH2 0x412E PUSH1 0x60 DUP10 ADD PUSH2 0x3E2D JUMP JUMPDEST SWAP4 POP PUSH2 0x413C PUSH1 0x80 DUP10 ADD PUSH2 0x3B18 JUMP JUMPDEST SWAP3 POP PUSH1 0xA0 DUP9 ADD CALLDATALOAD SWAP2 POP PUSH1 0xC0 DUP9 ADD CALLDATALOAD PUSH1 0x1 PUSH1 0x1 PUSH1 0x40 SHL SUB DUP2 GT ISZERO PUSH2 0x415E JUMPI PUSH1 0x0 DUP1 REVERT JUMPDEST PUSH2 0x416A DUP11 DUP3 DUP12 ADD PUSH2 0x39BE JUMP JUMPDEST SWAP2 POP POP SWAP3 SWAP6 SWAP9 SWAP2 SWAP5 SWAP8 POP SWAP3 SWAP6 POP JUMP JUMPDEST DUP1 CALLDATALOAD PUSH1 0x4 DUP2 LT PUSH2 0x38EC JUMPI PUSH1 0x0 DUP1 REVERT JUMPDEST DUP1 CALLDATALOAD PUSH1 0x3 DUP2 LT PUSH2 0x38EC JUMPI PUSH1 0x0 DUP1 REVERT JUMPDEST PUSH1 0x0 DUP1 PUSH1 0x0 DUP1 PUSH1 0x0 DUP1 PUSH1 0x0 DUP1 PUSH1 0x0 PUSH2 0x120 DUP11 DUP13 SUB SLT ISZERO PUSH2 0x41B6 JUMPI PUSH1 0x0 DUP1 REVERT JUMPDEST PUSH2 0x41BF DUP11 PUSH2 0x38D5 JUMP JUMPDEST SWAP9 POP PUSH1 0x20 DUP11 ADD CALLDATALOAD SWAP8 POP PUSH1 0x40 DUP11 ADD CALLDATALOAD PUSH1 0x1 PUSH1 0x1 PUSH1 0x40 SHL SUB DUP2 GT ISZERO PUSH2 0x41E1 JUMPI PUSH1 0x0 DUP1 REVERT JUMPDEST PUSH2 0x41ED DUP13 DUP3 DUP14 ADD PUSH2 0x39BE JUMP JUMPDEST SWAP8 POP POP PUSH1 0x60 DUP11 ADD CALLDATALOAD PUSH1 0x7 DUP2 LT PUSH2 0x4202 JUMPI PUSH1 0x0 DUP1 REVERT JUMPDEST SWAP6 POP PUSH2 0x4210 PUSH1 0x80 DUP12 ADD PUSH2 0x4179 JUMP JUMPDEST SWAP5 POP PUSH1 0xA0 DUP11 ADD CALLDATALOAD SWAP4 POP PUSH1 0xC0 DUP11 ADD CALLDATALOAD SWAP3 POP PUSH2 0x422C PUSH1 0xE0 DUP12 ADD PUSH2 0x4188 JUMP JUMPDEST SWAP2 POP PUSH2 0x100 DUP11 ADD CALLDATALOAD PUSH1 0x1 PUSH1 0x1 PUSH1 0x40 SHL SUB DUP2 GT ISZERO PUSH2 0x4248 JUMPI PUSH1 0x0 DUP1 REVERT JUMPDEST PUSH2 0x4254 DUP13 DUP3 DUP14 ADD PUSH2 0x39BE JUMP JUMPDEST SWAP2 POP POP SWAP3 SWAP6 SWAP9 POP SWAP3 SWAP6 SWAP9 POP SWAP3 SWAP6 SWAP9 JUMP JUMPDEST PUSH1 0x8 DUP2 LT PUSH2 0x3CD5 JUMPI PUSH2 0x3CD5 PUSH2 0x3CAF JUMP JUMPDEST PUSH1 0x20 DUP2 MSTORE DUP2 MLOAD PUSH1 0x20 DUP3 ADD MSTORE PUSH1 0x0 PUSH1 0x20 DUP4 ADD MLOAD PUSH2 0x100 PUSH1 0x40 DUP5 ADD MSTORE PUSH2 0x429C PUSH2 0x120 DUP5 ADD DUP3 PUSH2 0x390C JUMP JUMPDEST SWAP1 POP PUSH1 0x40 DUP5 ADD MLOAD PUSH1 0x1F NOT DUP5 DUP4 SUB ADD PUSH1 0x60 DUP6 ADD MSTORE PUSH2 0x42B9 DUP3 DUP3 PUSH2 0x390C JUMP JUMPDEST SWAP2 POP POP PUSH1 0x60 DUP5 ADD MLOAD PUSH2 0x42CE PUSH1 0x80 DUP6 ADD DUP3 PUSH2 0x4264 JUMP JUMPDEST POP PUSH1 0x80 DUP5 ADD MLOAD DUP1 ISZERO ISZERO PUSH1 0xA0 DUP6 ADD MSTORE POP PUSH1 0xA0 DUP5 ADD MLOAD PUSH1 0xC0 DUP5 ADD MSTORE PUSH1 0xC0 DUP5 ADD MLOAD PUSH1 0xE0 DUP5 ADD MSTORE PUSH1 0xE0 DUP5 ADD MLOAD PUSH1 0x1F NOT DUP5 DUP4 SUB ADD PUSH2 0x100 DUP6 ADD MSTORE PUSH2 0x4079 DUP3 DUP3 PUSH2 0x390C JUMP JUMPDEST PUSH1 0x20 DUP2 MSTORE PUSH1 0x0 DUP3 MLOAD PUSH1 0xA0 PUSH1 0x20 DUP5 ADD MSTORE PUSH2 0x4329 PUSH1 0xC0 DUP5 ADD DUP3 PUSH2 0x390C JUMP JUMPDEST SWAP1 POP PUSH1 0x20 DUP5 ADD MLOAD PUSH1 0x40 DUP5 ADD MSTORE PUSH1 0x40 DUP5 ADD MLOAD PUSH1 0x60 DUP5 ADD MSTORE PUSH1 0x60 DUP5 ADD MLOAD ISZERO ISZERO PUSH1 0x80 DUP5 ADD MSTORE PUSH1 0x80 DUP5 ADD MLOAD PUSH1 0x1F NOT DUP5 DUP4 SUB ADD PUSH1 0xA0 DUP6 ADD MSTORE PUSH2 0x4079 DUP3 DUP3 PUSH2 0x390C JUMP JUMPDEST PUSH1 0x0 DUP1 PUSH1 0x40 DUP4 DUP6 SUB SLT ISZERO PUSH2 0x4379 JUMPI PUSH1 0x0 DUP1 REVERT JUMPDEST PUSH2 0x4382 DUP4 PUSH2 0x38D5 JUMP JUMPDEST SWAP5 PUSH1 0x20 SWAP4 SWAP1 SWAP4 ADD CALLDATALOAD SWAP4 POP POP POP JUMP JUMPDEST PUSH1 0x0 DUP1 PUSH1 0x40 DUP4 DUP6 SUB SLT ISZERO PUSH2 0x43A3 JUMPI PUSH1 0x0 DUP1 REVERT JUMPDEST DUP3 CALLDATALOAD PUSH1 0x1 PUSH1 0x1 PUSH1 0x40 SHL SUB DUP2 GT ISZERO PUSH2 0x43B9 JUMPI PUSH1 0x0 DUP1 REVERT JUMPDEST PUSH2 0x43C5 DUP6 DUP3 DUP7 ADD PUSH2 0x39BE JUMP JUMPDEST SWAP6 PUSH1 0x20 SWAP5 SWAP1 SWAP5 ADD CALLDATALOAD SWAP5 POP POP POP POP JUMP JUMPDEST PUSH1 0x1 DUP2 DUP2 SHR SWAP1 DUP3 AND DUP1 PUSH2 0x43E8 JUMPI PUSH1 0x7F DUP3 AND SWAP2 POP JUMPDEST PUSH1 0x20 DUP3 LT DUP2 SUB PUSH2 0x4408 JUMPI PUSH4 0x4E487B71 PUSH1 0xE0 SHL PUSH1 0x0 MSTORE PUSH1 0x22 PUSH1 0x4 MSTORE PUSH1 0x24 PUSH1 0x0 REVERT JUMPDEST POP SWAP2 SWAP1 POP JUMP JUMPDEST PUSH1 0x20 DUP1 DUP3 MSTORE PUSH1 0x9 SWAP1 DUP3 ADD MSTORE PUSH9 0x4E6F20616363657373 PUSH1 0xB8 SHL PUSH1 0x40 DUP3 ADD MSTORE PUSH1 0x60 ADD SWAP1 JUMP JUMPDEST PUSH1 0x1F DUP3 GT ISZERO PUSH2 0xAF4 JUMPI DUP1 PUSH1 0x0 MSTORE PUSH1 0x20 PUSH1 0x0 KECCAK256 PUSH1 0x1F DUP5 ADD PUSH1 0x5 SHR DUP2 ADD PUSH1 0x20 DUP6 LT ISZERO PUSH2 0x4458 JUMPI POP DUP1 JUMPDEST PUSH1 0x1F DUP5 ADD PUSH1 0x5 SHR DUP3 ADD SWAP2 POP JUMPDEST DUP2 DUP2 LT ISZERO PUSH2 0x4478 JUMPI PUSH1 0x0 DUP2 SSTORE PUSH1 0x1 ADD PUSH2 0x4464 JUMP JUMPDEST POP POP POP POP POP JUMP JUMPDEST DUP2 MLOAD PUSH1 0x1 PUSH1 0x1 PUSH1 0x40 SHL SUB DUP2 GT ISZERO PUSH2 0x4498 JUMPI PUSH2 0x4498 PUSH2 0x39A8 JUMP JUMPDEST PUSH2 0x44AC DUP2 PUSH2 0x44A6 DUP5 SLOAD PUSH2 0x43D4 JUMP JUMPDEST DUP5 PUSH2 0x4431 JUMP JUMPDEST PUSH1 0x20 PUSH1 0x1F DUP3 GT PUSH1 0x1 DUP2 EQ PUSH2 0x44E0 JUMPI PUSH1 0x0 DUP4 ISZERO PUSH2 0x44C8 JUMPI POP DUP5 DUP3 ADD MLOAD JUMPDEST PUSH1 0x0 NOT PUSH1 0x3 DUP6 SWAP1 SHL SHR NOT AND PUSH1 0x1 DUP5 SWAP1 SHL OR DUP5 SSTORE PUSH2 0x4478 JUMP JUMPDEST PUSH1 0x0 DUP5 DUP2 MSTORE PUSH1 0x20 DUP2 KECCAK256 PUSH1 0x1F NOT DUP6 AND SWAP2 JUMPDEST DUP3 DUP2 LT ISZERO PUSH2 0x4510 JUMPI DUP8 DUP6 ADD MLOAD DUP3 SSTORE PUSH1 0x20 SWAP5 DUP6 ADD SWAP5 PUSH1 0x1 SWAP1 SWAP3 ADD SWAP2 ADD PUSH2 0x44F0 JUMP JUMPDEST POP DUP5 DUP3 LT ISZERO PUSH2 0x452E JUMPI DUP7 DUP5 ADD MLOAD PUSH1 0x0 NOT PUSH1 0x3 DUP8 SWAP1 SHL PUSH1 0xF8 AND SHR NOT AND DUP2 SSTORE JUMPDEST POP POP POP POP PUSH1 0x1 SWAP1 DUP2 SHL ADD SWAP1 SSTORE POP JUMP JUMPDEST PUSH1 0x40 DUP2 MSTORE PUSH1 0x0 PUSH2 0x4550 PUSH1 0x40 DUP4 ADD DUP6 PUSH2 0x390C JUMP JUMPDEST SWAP1 POP DUP3 PUSH1 0x20 DUP4 ADD MSTORE SWAP4 SWAP3 POP POP POP JUMP JUMPDEST PUSH1 0x20 DUP1 DUP3 MSTORE PUSH1 0x7 SWAP1 DUP3 ADD MSTORE PUSH7 0x4E6F20696E666F PUSH1 0xC8 SHL PUSH1 0x40 DUP3 ADD MSTORE PUSH1 0x60 ADD SWAP1 JUMP JUMPDEST PUSH4 0x4E487B71 PUSH1 0xE0 SHL PUSH1 0x0 MSTORE PUSH1 0x11 PUSH1 0x4 MSTORE PUSH1 0x24 PUSH1 0x0 REVERT JUMPDEST PUSH1 0x0 PUSH1 0x1 DUP3 ADD PUSH2 0x45A8 JUMPI PUSH2 0x45A8 PUSH2 0x4580 JUMP JUMPDEST POP PUSH1 0x1 ADD SWAP1 JUMP JUMPDEST PUSH1 0x40 DUP2 ADD PUSH2 0x45BD DUP3 DUP6 PUSH2 0x3CC5 JUMP JUMPDEST DUP3 PUSH1 0x20 DUP4 ADD MSTORE SWAP4 SWAP3 POP POP POP JUMP JUMPDEST PUSH1 0x20 DUP1 DUP3 MSTORE PUSH1 0x9 SWAP1 DUP3 ADD MSTORE PUSH9 0x2737BA1037BBB732B9 PUSH1 0xB9 SHL PUSH1 0x40 DUP3 ADD MSTORE PUSH1 0x60 ADD SWAP1 JUMP JUMPDEST PUSH1 0x20 DUP1 DUP3 MSTORE PUSH1 0x7 SWAP1 DUP3 ADD MSTORE PUSH7 0x9CDE40C2EAE8D PUSH1 0xCB SHL PUSH1 0x40 DUP3 ADD MSTORE PUSH1 0x60 ADD SWAP1 JUMP JUMPDEST PUSH2 0x4618 DUP2 DUP5 PUSH2 0x4264 JUMP JUMPDEST PUSH1 0x40 PUSH1 0x20 DUP3 ADD MSTORE PUSH1 0x0 PUSH2 0xD8A PUSH1 0x40 DUP4 ADD DUP5 PUSH2 0x390C JUMP JUMPDEST PUSH1 0x20 DUP1 DUP3 MSTORE PUSH1 0xC SWAP1 DUP3 ADD MSTORE PUSH12 0x24B73B30B634B21030B23239 PUSH1 0xA1 SHL PUSH1 0x40 DUP3 ADD MSTORE PUSH1 0x60 ADD SWAP1 JUMP JUMPDEST PUSH1 0x20 DUP1 DUP3 MSTORE PUSH1 0x10 SWAP1 DUP3 ADD MSTORE PUSH16 0x2737BA103932B1B7B9321037BBB732B9 PUSH1 0x81 SHL PUSH1 0x40 DUP3 ADD MSTORE PUSH1 0x60 ADD SWAP1 JUMP JUMPDEST PUSH4 0x4E487B71 PUSH1 0xE0 SHL PUSH1 0x0 MSTORE PUSH1 0x32 PUSH1 0x4 MSTORE PUSH1 0x24 PUSH1 0x0 REVERT JUMPDEST DUP1 DUP3 ADD DUP1 DUP3 GT ISZERO PUSH2 0x75A JUMPI PUSH2 0x75A PUSH2 0x4580 JUMP INVALID DUP9 0x25 0xC6 0x22 SMOD SMOD PUSH29 0x41710FE5144A6467477A643E911C9AB3785826111F7C94ED8B18C9D97E 0xDF 0xCF 0x27 DUP7 GAS 0xCA DUP11 0x4F SELFBALANCE DUP11 SHL DIFFICULTY 0x29 0xB4 0xC8 0x2F 0xB5 0xDE 0xD4 PUSH23 0xE9F317F74573D01BFEC7CD74E5C65B641D49ECC2E89F64 PUSH13 0x7C0BCAE85DC50F9616BF9C798C 0xED 0xDA DUP12 MSIZE LOG1 0xC4 DUP15 PC CALLDATACOPY 0xAD PUSH27 0x7F3DCEDCBE129BF3249EC4FBF651FD4F5E2600EAD39FE2F5197615 SWAP6 XOR CALLF 0x2C97 MSTORE8 MLOAD 0xD3 0xEB XOR POP SWAP14 PUSH3 0xAB7629 MULMOD DUP7 CALLDATASIZE JUMPF 0x2C6C DUPN 0x34 PUSH7 0xE939167FC8F5B4 EQ 0xC 0xCA ADDRESS PUSH29 0xD927E59CBEEA8291BFFEEE228FC677F0FA059AEF7B4DD8D5A264697066 PUSH20 0x58221220813C5215C2D263EC2DB774D7E6CD0518 ORIGIN SHR 0xF6 0x4E 0xB2 NOT MSTORE8 SDIV 0xD4 0xAF PUSH27 0x8307F5B7964736F6C634300081F00330000000000000000000000 "
		},
		"gasEstimates": {
			"creation": {
				"codeDepositCost": "3666600",
				"executionCost": "80725",
				"totalCost": "3747325"
			},
			"external": {
				"AUDITOR_ROLE()": "infinite",
				"CLINIC_ROLE()": "infinite",
				"DEFAULT_ADMIN_ROLE()": "855",
				"HEALTHCARE_PROVIDER_ROLE()": "infinite",
				"HOSPITAL_ROLE()": "infinite",
				"INSURANCE_ROLE()": "infinite",
				"addMedication(string,bool,uint256,uint256)": "infinite",
				"addReport(string,string,uint8,bool,uint256,string)": "infinite",
				"addVaccination(string,string,uint256)": "infinite",
				"getAccessLog(uint256)": "infinite",
				"getAccessLogIds(address)": "infinite",
				"getEmergencyContact(address)": "2745",
				"getMedicationIds(address)": "infinite",
				"getMedicationRef(uint256)": "infinite",
				"getPersonalInfoRef(address)": "infinite",
				"getReceivedShareIds(address)": "infinite",
				"getReportIds(address)": "infinite",
				"getReportRef(uint256)": "infinite",
				"getRoleAdmin(bytes32)": "2594",
				"getShareIds(address)": "infinite",
				"getShareRecord(uint256)": "infinite",
				"getTotalCounts()": "10795",
				"getUserPublicKey(address)": "infinite",
				"getVaccinationIds(address)": "infinite",
				"getVaccinationRef(uint256)": "infinite",
				"grantRole(bytes32,address)": "infinite",
				"hasPersonalInfo(address)": "3556",
				"hasRole(bytes32,address)": "3292",
				"logDataAccess(address,string,uint8,bytes32)": "infinite",
				"owner()": "2964",
				"pause()": "infinite",
				"paused()": "2645",
				"registerAuditor(address)": "infinite",
				"registerClinic(address)": "infinite",
				"registerHealthcareProvider(address)": "infinite",
				"registerHospital(address)": "infinite",
				"registerInsurance(address)": "infinite",
				"renounceOwnership()": "infinite",
				"renounceRole(bytes32,address)": "29249",
				"revokeEntityRole(address,bytes32)": "infinite",
				"revokeRole(bytes32,address)": "infinite",
				"revokeShare(uint256)": "30739",
				"setEmergencyContact(address)": "26810",
				"setPersonalInfo(string,string)": "infinite",
				"setUserPublicKey(string,bytes32)": "infinite",
				"shareData(address,bytes32,string,uint8,uint8,uint256,uint256,uint8,string)": "infinite",
				"supportsInterface(bytes4)": "404",
				"transferOwnership(address)": "29434",
				"unpause()": "infinite",
				"updateMedication(uint256,string,bool,uint256,uint256)": "infinite",
				"updateReport(uint256,string,string,uint8,bool,uint256,string)": "infinite",
				"updateVaccination(uint256,string,string,uint256)": "infinite",
				"userCryptoProfiles(address)": "infinite"
			},
			"internal": {
				"_hasSharedRecordAccess(address,address,enum HealthWalletV2_05.RecordType,uint256)": "infinite"
			}
		},
		"methodIdentifiers": {
			"AUDITOR_ROLE()": "6e1d616e",
			"CLINIC_ROLE()": "82673e77",
			"DEFAULT_ADMIN_ROLE()": "a217fddf",
			"HEALTHCARE_PROVIDER_ROLE()": "0402e735",
			"HOSPITAL_ROLE()": "f6ba6678",
			"INSURANCE_ROLE()": "b752a74b",
			"addMedication(string,bool,uint256,uint256)": "420b23a2",
			"addReport(string,string,uint8,bool,uint256,string)": "8939f898",
			"addVaccination(string,string,uint256)": "7e14f8cd",
			"getAccessLog(uint256)": "685d5b8b",
			"getAccessLogIds(address)": "b85d4af0",
			"getEmergencyContact(address)": "2c81df05",
			"getMedicationIds(address)": "df015dc1",
			"getMedicationRef(uint256)": "4adbe62c",
			"getPersonalInfoRef(address)": "ee67e73d",
			"getReceivedShareIds(address)": "f2e8790b",
			"getReportIds(address)": "18b98101",
			"getReportRef(uint256)": "e653d375",
			"getRoleAdmin(bytes32)": "248a9ca3",
			"getShareIds(address)": "aa83f4d8",
			"getShareRecord(uint256)": "aa361c28",
			"getTotalCounts()": "045af334",
			"getUserPublicKey(address)": "11231fe0",
			"getVaccinationIds(address)": "2f4afbad",
			"getVaccinationRef(uint256)": "627e86f2",
			"grantRole(bytes32,address)": "2f2ff15d",
			"hasPersonalInfo(address)": "f17245f9",
			"hasRole(bytes32,address)": "91d14854",
			"logDataAccess(address,string,uint8,bytes32)": "48def2f7",
			"owner()": "8da5cb5b",
			"pause()": "8456cb59",
			"paused()": "5c975abb",
			"registerAuditor(address)": "df9a4f56",
			"registerClinic(address)": "b3568f32",
			"registerHealthcareProvider(address)": "052a01f6",
			"registerHospital(address)": "c5b99858",
			"registerInsurance(address)": "7e0ecee0",
			"renounceOwnership()": "715018a6",
			"renounceRole(bytes32,address)": "36568abe",
			"revokeEntityRole(address,bytes32)": "f6871d9e",
			"revokeRole(bytes32,address)": "d547741f",
			"revokeShare(uint256)": "50038737",
			"setEmergencyContact(address)": "91284a89",
			"setPersonalInfo(string,string)": "2436a5d7",
			"setUserPublicKey(string,bytes32)": "fbffa2f4",
			"shareData(address,bytes32,string,uint8,uint8,uint256,uint256,uint8,string)": "e40383ec",
			"supportsInterface(bytes4)": "01ffc9a7",
			"transferOwnership(address)": "f2fde38b",
			"unpause()": "3f4ba83a",
			"updateMedication(uint256,string,bool,uint256,uint256)": "a65b27db",
			"updateReport(uint256,string,string,uint8,bool,uint256,string)": "d3e5ec4b",
			"updateVaccination(uint256,string,string,uint256)": "86c4aea2",
			"userCryptoProfiles(address)": "c77a5a97"
		}
	},
	"abi": [
		{
			"inputs": [],
			"stateMutability": "nonpayable",
			"type": "constructor"
		},
		{
			"inputs": [],
			"name": "AccessControlBadConfirmation",
			"type": "error"
		},
		{
			"inputs": [
				{
					"internalType": "address",
					"name": "account",
					"type": "address"
				},
				{
					"internalType": "bytes32",
					"name": "neededRole",
					"type": "bytes32"
				}
			],
			"name": "AccessControlUnauthorizedAccount",
			"type": "error"
		},
		{
			"inputs": [],
			"name": "EnforcedPause",
			"type": "error"
		},
		{
			"inputs": [],
			"name": "ExpectedPause",
			"type": "error"
		},
		{
			"inputs": [
				{
					"internalType": "address",
					"name": "owner",
					"type": "address"
				}
			],
			"name": "OwnableInvalidOwner",
			"type": "error"
		},
		{
			"inputs": [
				{
					"internalType": "address",
					"name": "account",
					"type": "address"
				}
			],
			"name": "OwnableUnauthorizedAccount",
			"type": "error"
		},
		{
			"inputs": [],
			"name": "ReentrancyGuardReentrantCall",
			"type": "error"
		},
		{
			"anonymous": false,
			"inputs": [
				{
					"indexed": true,
					"internalType": "address",
					"name": "owner",
					"type": "address"
				},
				{
					"indexed": true,
					"internalType": "address",
					"name": "accessor",
					"type": "address"
				},
				{
					"indexed": true,
					"internalType": "uint256",
					"name": "logId",
					"type": "uint256"
				},
				{
					"indexed": false,
					"internalType": "enum HealthWalletV2_05.DataCategory",
					"name": "category",
					"type": "uint8"
				},
				{
					"indexed": false,
					"internalType": "uint256",
					"name": "timestamp",
					"type": "uint256"
				}
			],
			"name": "DataAccessed",
			"type": "event"
		},
		{
			"anonymous": false,
			"inputs": [
				{
					"indexed": true,
					"internalType": "address",
					"name": "owner",
					"type": "address"
				},
				{
					"indexed": true,
					"internalType": "address",
					"name": "recipient",
					"type": "address"
				},
				{
					"indexed": true,
					"internalType": "uint256",
					"name": "shareId",
					"type": "uint256"
				},
				{
					"indexed": false,
					"internalType": "enum HealthWalletV2_05.DataCategory",
					"name": "category",
					"type": "uint8"
				},
				{
					"indexed": false,
					"internalType": "uint256",
					"name": "expiryDate",
					"type": "uint256"
				}
			],
			"name": "DataShared",
			"type": "event"
		},
		{
			"anonymous": false,
			"inputs": [
				{
					"indexed": true,
					"internalType": "address",
					"name": "user",
					"type": "address"
				},
				{
					"indexed": true,
					"internalType": "address",
					"name": "emergencyContact",
					"type": "address"
				}
			],
			"name": "EmergencyContactSet",
			"type": "event"
		},
		{
			"anonymous": false,
			"inputs": [
				{
					"indexed": true,
					"internalType": "address",
					"name": "entity",
					"type": "address"
				},
				{
					"indexed": false,
					"internalType": "bytes32",
					"name": "role",
					"type": "bytes32"
				}
			],
			"name": "EntityRegistered",
			"type": "event"
		},
		{
			"anonymous": false,
			"inputs": [
				{
					"indexed": true,
					"internalType": "address",
					"name": "entity",
					"type": "address"
				},
				{
					"indexed": false,
					"internalType": "bytes32",
					"name": "role",
					"type": "bytes32"
				}
			],
			"name": "EntityRevoked",
			"type": "event"
		},
		{
			"anonymous": false,
			"inputs": [
				{
					"indexed": true,
					"internalType": "address",
					"name": "user",
					"type": "address"
				},
				{
					"indexed": true,
					"internalType": "uint256",
					"name": "medicationId",
					"type": "uint256"
				},
				{
					"indexed": false,
					"internalType": "string",
					"name": "ipfsHash",
					"type": "string"
				}
			],
			"name": "MedicationAdded",
			"type": "event"
		},
		{
			"anonymous": false,
			"inputs": [
				{
					"indexed": true,
					"internalType": "address",
					"name": "user",
					"type": "address"
				},
				{
					"indexed": true,
					"internalType": "uint256",
					"name": "medicationId",
					"type": "uint256"
				},
				{
					"indexed": false,
					"internalType": "string",
					"name": "ipfsHash",
					"type": "string"
				}
			],
			"name": "MedicationUpdated",
			"type": "event"
		},
		{
			"anonymous": false,
			"inputs": [
				{
					"indexed": true,
					"internalType": "address",
					"name": "previousOwner",
					"type": "address"
				},
				{
					"indexed": true,
					"internalType": "address",
					"name": "newOwner",
					"type": "address"
				}
			],
			"name": "OwnershipTransferred",
			"type": "event"
		},
		{
			"anonymous": false,
			"inputs": [
				{
					"indexed": false,
					"internalType": "address",
					"name": "account",
					"type": "address"
				}
			],
			"name": "Paused",
			"type": "event"
		},
		{
			"anonymous": false,
			"inputs": [
				{
					"indexed": true,
					"internalType": "address",
					"name": "user",
					"type": "address"
				},
				{
					"indexed": false,
					"internalType": "string",
					"name": "ipfsHash",
					"type": "string"
				},
				{
					"indexed": false,
					"internalType": "uint256",
					"name": "timestamp",
					"type": "uint256"
				}
			],
			"name": "PersonalInfoStored",
			"type": "event"
		},
		{
			"anonymous": false,
			"inputs": [
				{
					"indexed": true,
					"internalType": "address",
					"name": "user",
					"type": "address"
				},
				{
					"indexed": false,
					"internalType": "string",
					"name": "ipfsHash",
					"type": "string"
				},
				{
					"indexed": false,
					"internalType": "uint256",
					"name": "timestamp",
					"type": "uint256"
				}
			],
			"name": "PersonalInfoUpdated",
			"type": "event"
		},
		{
			"anonymous": false,
			"inputs": [
				{
					"indexed": true,
					"internalType": "address",
					"name": "user",
					"type": "address"
				},
				{
					"indexed": false,
					"internalType": "string",
					"name": "publicKeyIpfsHash",
					"type": "string"
				},
				{
					"indexed": false,
					"internalType": "uint256",
					"name": "keyVersion",
					"type": "uint256"
				}
			],
			"name": "PublicKeySet",
			"type": "event"
		},
		{
			"anonymous": false,
			"inputs": [
				{
					"indexed": true,
					"internalType": "address",
					"name": "user",
					"type": "address"
				},
				{
					"indexed": true,
					"internalType": "uint256",
					"name": "reportId",
					"type": "uint256"
				},
				{
					"indexed": false,
					"internalType": "enum HealthWalletV2_05.ReportType",
					"name": "reportType",
					"type": "uint8"
				},
				{
					"indexed": false,
					"internalType": "string",
					"name": "ipfsHash",
					"type": "string"
				}
			],
			"name": "ReportAdded",
			"type": "event"
		},
		{
			"anonymous": false,
			"inputs": [
				{
					"indexed": true,
					"internalType": "address",
					"name": "user",
					"type": "address"
				},
				{
					"indexed": true,
					"internalType": "uint256",
					"name": "reportId",
					"type": "uint256"
				},
				{
					"indexed": false,
					"internalType": "string",
					"name": "ipfsHash",
					"type": "string"
				}
			],
			"name": "ReportUpdated",
			"type": "event"
		},
		{
			"anonymous": false,
			"inputs": [
				{
					"indexed": true,
					"internalType": "bytes32",
					"name": "role",
					"type": "bytes32"
				},
				{
					"indexed": true,
					"internalType": "bytes32",
					"name": "previousAdminRole",
					"type": "bytes32"
				},
				{
					"indexed": true,
					"internalType": "bytes32",
					"name": "newAdminRole",
					"type": "bytes32"
				}
			],
			"name": "RoleAdminChanged",
			"type": "event"
		},
		{
			"anonymous": false,
			"inputs": [
				{
					"indexed": true,
					"internalType": "bytes32",
					"name": "role",
					"type": "bytes32"
				},
				{
					"indexed": true,
					"internalType": "address",
					"name": "account",
					"type": "address"
				},
				{
					"indexed": true,
					"internalType": "address",
					"name": "sender",
					"type": "address"
				}
			],
			"name": "RoleGranted",
			"type": "event"
		},
		{
			"anonymous": false,
			"inputs": [
				{
					"indexed": true,
					"internalType": "bytes32",
					"name": "role",
					"type": "bytes32"
				},
				{
					"indexed": true,
					"internalType": "address",
					"name": "account",
					"type": "address"
				},
				{
					"indexed": true,
					"internalType": "address",
					"name": "sender",
					"type": "address"
				}
			],
			"name": "RoleRevoked",
			"type": "event"
		},
		{
			"anonymous": false,
			"inputs": [
				{
					"indexed": true,
					"internalType": "address",
					"name": "owner",
					"type": "address"
				},
				{
					"indexed": true,
					"internalType": "uint256",
					"name": "shareId",
					"type": "uint256"
				}
			],
			"name": "ShareRevoked",
			"type": "event"
		},
		{
			"anonymous": false,
			"inputs": [
				{
					"indexed": false,
					"internalType": "address",
					"name": "account",
					"type": "address"
				}
			],
			"name": "Unpaused",
			"type": "event"
		},
		{
			"anonymous": false,
			"inputs": [
				{
					"indexed": true,
					"internalType": "address",
					"name": "user",
					"type": "address"
				},
				{
					"indexed": true,
					"internalType": "uint256",
					"name": "vaccinationId",
					"type": "uint256"
				},
				{
					"indexed": false,
					"internalType": "string",
					"name": "ipfsHash",
					"type": "string"
				}
			],
			"name": "VaccinationAdded",
			"type": "event"
		},
		{
			"anonymous": false,
			"inputs": [
				{
					"indexed": true,
					"internalType": "address",
					"name": "user",
					"type": "address"
				},
				{
					"indexed": true,
					"internalType": "uint256",
					"name": "vaccinationId",
					"type": "uint256"
				},
				{
					"indexed": false,
					"internalType": "string",
					"name": "ipfsHash",
					"type": "string"
				}
			],
			"name": "VaccinationUpdated",
			"type": "event"
		},
		{
			"inputs": [],
			"name": "AUDITOR_ROLE",
			"outputs": [
				{
					"internalType": "bytes32",
					"name": "",
					"type": "bytes32"
				}
			],
			"stateMutability": "view",
			"type": "function"
		},
		{
			"inputs": [],
			"name": "CLINIC_ROLE",
			"outputs": [
				{
					"internalType": "bytes32",
					"name": "",
					"type": "bytes32"
				}
			],
			"stateMutability": "view",
			"type": "function"
		},
		{
			"inputs": [],
			"name": "DEFAULT_ADMIN_ROLE",
			"outputs": [
				{
					"internalType": "bytes32",
					"name": "",
					"type": "bytes32"
				}
			],
			"stateMutability": "view",
			"type": "function"
		},
		{
			"inputs": [],
			"name": "HEALTHCARE_PROVIDER_ROLE",
			"outputs": [
				{
					"internalType": "bytes32",
					"name": "",
					"type": "bytes32"
				}
			],
			"stateMutability": "view",
			"type": "function"
		},
		{
			"inputs": [],
			"name": "HOSPITAL_ROLE",
			"outputs": [
				{
					"internalType": "bytes32",
					"name": "",
					"type": "bytes32"
				}
			],
			"stateMutability": "view",
			"type": "function"
		},
		{
			"inputs": [],
			"name": "INSURANCE_ROLE",
			"outputs": [
				{
					"internalType": "bytes32",
					"name": "",
					"type": "bytes32"
				}
			],
			"stateMutability": "view",
			"type": "function"
		},
		{
			"inputs": [
				{
					"internalType": "string",
					"name": "_encryptedDataIpfsHash",
					"type": "string"
				},
				{
					"internalType": "bool",
					"name": "_isActive",
					"type": "bool"
				},
				{
					"internalType": "uint256",
					"name": "_startDate",
					"type": "uint256"
				},
				{
					"internalType": "uint256",
					"name": "_endDate",
					"type": "uint256"
				}
			],
			"name": "addMedication",
			"outputs": [
				{
					"internalType": "uint256",
					"name": "",
					"type": "uint256"
				}
			],
			"stateMutability": "nonpayable",
			"type": "function"
		},
		{
			"inputs": [
				{
					"internalType": "string",
					"name": "_encryptedDataIpfsHash",
					"type": "string"
				},
				{
					"internalType": "string",
					"name": "_encryptedFileIpfsHash",
					"type": "string"
				},
				{
					"internalType": "enum HealthWalletV2_05.ReportType",
					"name": "_reportType",
					"type": "uint8"
				},
				{
					"internalType": "bool",
					"name": "_hasFile",
					"type": "bool"
				},
				{
					"internalType": "uint256",
					"name": "_reportDate",
					"type": "uint256"
				},
				{
					"internalType": "string",
					"name": "_encryptedKey",
					"type": "string"
				}
			],
			"name": "addReport",
			"outputs": [
				{
					"internalType": "uint256",
					"name": "",
					"type": "uint256"
				}
			],
			"stateMutability": "nonpayable",
			"type": "function"
		},
		{
			"inputs": [
				{
					"internalType": "string",
					"name": "_encryptedDataIpfsHash",
					"type": "string"
				},
				{
					"internalType": "string",
					"name": "_encryptedCertificateIpfsHash",
					"type": "string"
				},
				{
					"internalType": "uint256",
					"name": "_vaccinationDate",
					"type": "uint256"
				}
			],
			"name": "addVaccination",
			"outputs": [
				{
					"internalType": "uint256",
					"name": "",
					"type": "uint256"
				}
			],
			"stateMutability": "nonpayable",
			"type": "function"
		},
		{
			"inputs": [
				{
					"internalType": "uint256",
					"name": "_logId",
					"type": "uint256"
				}
			],
			"name": "getAccessLog",
			"outputs": [
				{
					"components": [
						{
							"internalType": "uint256",
							"name": "id",
							"type": "uint256"
						},
						{
							"internalType": "address",
							"name": "accessorAddress",
							"type": "address"
						},
						{
							"internalType": "string",
							"name": "encryptedDetailsIpfsHash",
							"type": "string"
						},
						{
							"internalType": "enum HealthWalletV2_05.DataCategory",
							"name": "accessedCategory",
							"type": "uint8"
						},
						{
							"internalType": "uint256",
							"name": "accessTime",
							"type": "uint256"
						},
						{
							"internalType": "bytes32",
							"name": "dataIntegrityHash",
							"type": "bytes32"
						}
					],
					"internalType": "struct HealthWalletV2_05.AccessLog",
					"name": "",
					"type": "tuple"
				}
			],
			"stateMutability": "view",
			"type": "function"
		},
		{
			"inputs": [
				{
					"internalType": "address",
					"name": "_user",
					"type": "address"
				}
			],
			"name": "getAccessLogIds",
			"outputs": [
				{
					"internalType": "uint256[]",
					"name": "",
					"type": "uint256[]"
				}
			],
			"stateMutability": "view",
			"type": "function"
		},
		{
			"inputs": [
				{
					"internalType": "address",
					"name": "_user",
					"type": "address"
				}
			],
			"name": "getEmergencyContact",
			"outputs": [
				{
					"internalType": "address",
					"name": "",
					"type": "address"
				}
			],
			"stateMutability": "view",
			"type": "function"
		},
		{
			"inputs": [
				{
					"internalType": "address",
					"name": "_user",
					"type": "address"
				}
			],
			"name": "getMedicationIds",
			"outputs": [
				{
					"internalType": "uint256[]",
					"name": "",
					"type": "uint256[]"
				}
			],
			"stateMutability": "view",
			"type": "function"
		},
		{
			"inputs": [
				{
					"internalType": "uint256",
					"name": "_medicationId",
					"type": "uint256"
				}
			],
			"name": "getMedicationRef",
			"outputs": [
				{
					"components": [
						{
							"internalType": "uint256",
							"name": "id",
							"type": "uint256"
						},
						{
							"internalType": "string",
							"name": "encryptedDataIpfsHash",
							"type": "string"
						},
						{
							"internalType": "bool",
							"name": "isActive",
							"type": "bool"
						},
						{
							"internalType": "uint256",
							"name": "startDate",
							"type": "uint256"
						},
						{
							"internalType": "uint256",
							"name": "endDate",
							"type": "uint256"
						},
						{
							"internalType": "uint256",
							"name": "createdAt",
							"type": "uint256"
						}
					],
					"internalType": "struct HealthWalletV2_05.MedicationRecordRef",
					"name": "",
					"type": "tuple"
				}
			],
			"stateMutability": "view",
			"type": "function"
		},
		{
			"inputs": [
				{
					"internalType": "address",
					"name": "_user",
					"type": "address"
				}
			],
			"name": "getPersonalInfoRef",
			"outputs": [
				{
					"components": [
						{
							"internalType": "string",
							"name": "encryptedDataIpfsHash",
							"type": "string"
						},
						{
							"internalType": "uint256",
							"name": "createdAt",
							"type": "uint256"
						},
						{
							"internalType": "uint256",
							"name": "lastUpdated",
							"type": "uint256"
						},
						{
							"internalType": "bool",
							"name": "exists",
							"type": "bool"
						},
						{
							"internalType": "string",
							"name": "encryptedKey",
							"type": "string"
						}
					],
					"internalType": "struct HealthWalletV2_05.PersonalInfoRef",
					"name": "",
					"type": "tuple"
				}
			],
			"stateMutability": "view",
			"type": "function"
		},
		{
			"inputs": [
				{
					"internalType": "address",
					"name": "_recipient",
					"type": "address"
				}
			],
			"name": "getReceivedShareIds",
			"outputs": [
				{
					"internalType": "uint256[]",
					"name": "",
					"type": "uint256[]"
				}
			],
			"stateMutability": "view",
			"type": "function"
		},
		{
			"inputs": [
				{
					"internalType": "address",
					"name": "_user",
					"type": "address"
				}
			],
			"name": "getReportIds",
			"outputs": [
				{
					"internalType": "uint256[]",
					"name": "",
					"type": "uint256[]"
				}
			],
			"stateMutability": "view",
			"type": "function"
		},
		{
			"inputs": [
				{
					"internalType": "uint256",
					"name": "_reportId",
					"type": "uint256"
				}
			],
			"name": "getReportRef",
			"outputs": [
				{
					"components": [
						{
							"internalType": "uint256",
							"name": "id",
							"type": "uint256"
						},
						{
							"internalType": "string",
							"name": "encryptedDataIpfsHash",
							"type": "string"
						},
						{
							"internalType": "string",
							"name": "encryptedFileIpfsHash",
							"type": "string"
						},
						{
							"internalType": "enum HealthWalletV2_05.ReportType",
							"name": "reportType",
							"type": "uint8"
						},
						{
							"internalType": "bool",
							"name": "hasFile",
							"type": "bool"
						},
						{
							"internalType": "uint256",
							"name": "reportDate",
							"type": "uint256"
						},
						{
							"internalType": "uint256",
							"name": "createdAt",
							"type": "uint256"
						},
						{
							"internalType": "string",
							"name": "encryptedKey",
							"type": "string"
						}
					],
					"internalType": "struct HealthWalletV2_05.MedicalReportRef",
					"name": "",
					"type": "tuple"
				}
			],
			"stateMutability": "view",
			"type": "function"
		},
		{
			"inputs": [
				{
					"internalType": "bytes32",
					"name": "role",
					"type": "bytes32"
				}
			],
			"name": "getRoleAdmin",
			"outputs": [
				{
					"internalType": "bytes32",
					"name": "",
					"type": "bytes32"
				}
			],
			"stateMutability": "view",
			"type": "function"
		},
		{
			"inputs": [
				{
					"internalType": "address",
					"name": "_user",
					"type": "address"
				}
			],
			"name": "getShareIds",
			"outputs": [
				{
					"internalType": "uint256[]",
					"name": "",
					"type": "uint256[]"
				}
			],
			"stateMutability": "view",
			"type": "function"
		},
		{
			"inputs": [
				{
					"internalType": "uint256",
					"name": "_shareId",
					"type": "uint256"
				}
			],
			"name": "getShareRecord",
			"outputs": [
				{
					"components": [
						{
							"internalType": "uint256",
							"name": "id",
							"type": "uint256"
						},
						{
							"internalType": "address",
							"name": "ownerAddress",
							"type": "address"
						},
						{
							"internalType": "address",
							"name": "recipientAddress",
							"type": "address"
						},
						{
							"internalType": "bytes32",
							"name": "recipientNameHash",
							"type": "bytes32"
						},
						{
							"internalType": "string",
							"name": "encryptedRecipientDataIpfsHash",
							"type": "string"
						},
						{
							"internalType": "enum HealthWalletV2_05.RecipientType",
							"name": "recipientType",
							"type": "uint8"
						},
						{
							"internalType": "enum HealthWalletV2_05.RecordType",
							"name": "recordType",
							"type": "uint8"
						},
						{
							"internalType": "uint256",
							"name": "recordId",
							"type": "uint256"
						},
						{
							"internalType": "uint256",
							"name": "shareDate",
							"type": "uint256"
						},
						{
							"internalType": "uint256",
							"name": "expiryDate",
							"type": "uint256"
						},
						{
							"internalType": "enum HealthWalletV2_05.AccessLevel",
							"name": "accessLevel",
							"type": "uint8"
						},
						{
							"internalType": "enum HealthWalletV2_05.ShareStatus",
							"name": "status",
							"type": "uint8"
						},
						{
							"internalType": "string",
							"name": "encryptedRecordKey",
							"type": "string"
						}
					],
					"internalType": "struct HealthWalletV2_05.ShareRecord",
					"name": "",
					"type": "tuple"
				}
			],
			"stateMutability": "view",
			"type": "function"
		},
		{
			"inputs": [],
			"name": "getTotalCounts",
			"outputs": [
				{
					"internalType": "uint256",
					"name": "medications",
					"type": "uint256"
				},
				{
					"internalType": "uint256",
					"name": "vaccinations",
					"type": "uint256"
				},
				{
					"internalType": "uint256",
					"name": "reports",
					"type": "uint256"
				},
				{
					"internalType": "uint256",
					"name": "shares",
					"type": "uint256"
				},
				{
					"internalType": "uint256",
					"name": "totalAccessLogs",
					"type": "uint256"
				}
			],
			"stateMutability": "view",
			"type": "function"
		},
		{
			"inputs": [
				{
					"internalType": "address",
					"name": "_user",
					"type": "address"
				}
			],
			"name": "getUserPublicKey",
			"outputs": [
				{
					"internalType": "string",
					"name": "",
					"type": "string"
				}
			],
			"stateMutability": "view",
			"type": "function"
		},
		{
			"inputs": [
				{
					"internalType": "address",
					"name": "_user",
					"type": "address"
				}
			],
			"name": "getVaccinationIds",
			"outputs": [
				{
					"internalType": "uint256[]",
					"name": "",
					"type": "uint256[]"
				}
			],
			"stateMutability": "view",
			"type": "function"
		},
		{
			"inputs": [
				{
					"internalType": "uint256",
					"name": "_vaccinationId",
					"type": "uint256"
				}
			],
			"name": "getVaccinationRef",
			"outputs": [
				{
					"components": [
						{
							"internalType": "uint256",
							"name": "id",
							"type": "uint256"
						},
						{
							"internalType": "string",
							"name": "encryptedDataIpfsHash",
							"type": "string"
						},
						{
							"internalType": "string",
							"name": "encryptedCertificateIpfsHash",
							"type": "string"
						},
						{
							"internalType": "uint256",
							"name": "vaccinationDate",
							"type": "uint256"
						},
						{
							"internalType": "uint256",
							"name": "createdAt",
							"type": "uint256"
						}
					],
					"internalType": "struct HealthWalletV2_05.VaccinationRecordRef",
					"name": "",
					"type": "tuple"
				}
			],
			"stateMutability": "view",
			"type": "function"
		},
		{
			"inputs": [
				{
					"internalType": "bytes32",
					"name": "role",
					"type": "bytes32"
				},
				{
					"internalType": "address",
					"name": "account",
					"type": "address"
				}
			],
			"name": "grantRole",
			"outputs": [],
			"stateMutability": "nonpayable",
			"type": "function"
		},
		{
			"inputs": [
				{
					"internalType": "address",
					"name": "_user",
					"type": "address"
				}
			],
			"name": "hasPersonalInfo",
			"outputs": [
				{
					"internalType": "bool",
					"name": "",
					"type": "bool"
				}
			],
			"stateMutability": "view",
			"type": "function"
		},
		{
			"inputs": [
				{
					"internalType": "bytes32",
					"name": "role",
					"type": "bytes32"
				},
				{
					"internalType": "address",
					"name": "account",
					"type": "address"
				}
			],
			"name": "hasRole",
			"outputs": [
				{
					"internalType": "bool",
					"name": "",
					"type": "bool"
				}
			],
			"stateMutability": "view",
			"type": "function"
		},
		{
			"inputs": [
				{
					"internalType": "address",
					"name": "_owner",
					"type": "address"
				},
				{
					"internalType": "string",
					"name": "_encryptedDetailsIpfsHash",
					"type": "string"
				},
				{
					"internalType": "enum HealthWalletV2_05.DataCategory",
					"name": "_accessedCategory",
					"type": "uint8"
				},
				{
					"internalType": "bytes32",
					"name": "_dataIntegrityHash",
					"type": "bytes32"
				}
			],
			"name": "logDataAccess",
			"outputs": [
				{
					"internalType": "uint256",
					"name": "",
					"type": "uint256"
				}
			],
			"stateMutability": "nonpayable",
			"type": "function"
		},
		{
			"inputs": [],
			"name": "owner",
			"outputs": [
				{
					"internalType": "address",
					"name": "",
					"type": "address"
				}
			],
			"stateMutability": "view",
			"type": "function"
		},
		{
			"inputs": [],
			"name": "pause",
			"outputs": [],
			"stateMutability": "nonpayable",
			"type": "function"
		},
		{
			"inputs": [],
			"name": "paused",
			"outputs": [
				{
					"internalType": "bool",
					"name": "",
					"type": "bool"
				}
			],
			"stateMutability": "view",
			"type": "function"
		},
		{
			"inputs": [
				{
					"internalType": "address",
					"name": "_auditor",
					"type": "address"
				}
			],
			"name": "registerAuditor",
			"outputs": [],
			"stateMutability": "nonpayable",
			"type": "function"
		},
		{
			"inputs": [
				{
					"internalType": "address",
					"name": "_clinic",
					"type": "address"
				}
			],
			"name": "registerClinic",
			"outputs": [],
			"stateMutability": "nonpayable",
			"type": "function"
		},
		{
			"inputs": [
				{
					"internalType": "address",
					"name": "_provider",
					"type": "address"
				}
			],
			"name": "registerHealthcareProvider",
			"outputs": [],
			"stateMutability": "nonpayable",
			"type": "function"
		},
		{
			"inputs": [
				{
					"internalType": "address",
					"name": "_hospital",
					"type": "address"
				}
			],
			"name": "registerHospital",
			"outputs": [],
			"stateMutability": "nonpayable",
			"type": "function"
		},
		{
			"inputs": [
				{
					"internalType": "address",
					"name": "_insurance",
					"type": "address"
				}
			],
			"name": "registerInsurance",
			"outputs": [],
			"stateMutability": "nonpayable",
			"type": "function"
		},
		{
			"inputs": [],
			"name": "renounceOwnership",
			"outputs": [],
			"stateMutability": "nonpayable",
			"type": "function"
		},
		{
			"inputs": [
				{
					"internalType": "bytes32",
					"name": "role",
					"type": "bytes32"
				},
				{
					"internalType": "address",
					"name": "callerConfirmation",
					"type": "address"
				}
			],
			"name": "renounceRole",
			"outputs": [],
			"stateMutability": "nonpayable",
			"type": "function"
		},
		{
			"inputs": [
				{
					"internalType": "address",
					"name": "_entity",
					"type": "address"
				},
				{
					"internalType": "bytes32",
					"name": "_role",
					"type": "bytes32"
				}
			],
			"name": "revokeEntityRole",
			"outputs": [],
			"stateMutability": "nonpayable",
			"type": "function"
		},
		{
			"inputs": [
				{
					"internalType": "bytes32",
					"name": "role",
					"type": "bytes32"
				},
				{
					"internalType": "address",
					"name": "account",
					"type": "address"
				}
			],
			"name": "revokeRole",
			"outputs": [],
			"stateMutability": "nonpayable",
			"type": "function"
		},
		{
			"inputs": [
				{
					"internalType": "uint256",
					"name": "_shareId",
					"type": "uint256"
				}
			],
			"name": "revokeShare",
			"outputs": [],
			"stateMutability": "nonpayable",
			"type": "function"
		},
		{
			"inputs": [
				{
					"internalType": "address",
					"name": "_emergencyContact",
					"type": "address"
				}
			],
			"name": "setEmergencyContact",
			"outputs": [],
			"stateMutability": "nonpayable",
			"type": "function"
		},
		{
			"inputs": [
				{
					"internalType": "string",
					"name": "_encryptedDataIpfsHash",
					"type": "string"
				},
				{
					"internalType": "string",
					"name": "_encryptedKey",
					"type": "string"
				}
			],
			"name": "setPersonalInfo",
			"outputs": [],
			"stateMutability": "nonpayable",
			"type": "function"
		},
		{
			"inputs": [
				{
					"internalType": "string",
					"name": "_publicKeyIpfsHash",
					"type": "string"
				},
				{
					"internalType": "bytes32",
					"name": "_publicKeyHash",
					"type": "bytes32"
				}
			],
			"name": "setUserPublicKey",
			"outputs": [],
			"stateMutability": "nonpayable",
			"type": "function"
		},
		{
			"inputs": [
				{
					"internalType": "address",
					"name": "_recipientAddress",
					"type": "address"
				},
				{
					"internalType": "bytes32",
					"name": "_recipientNameHash",
					"type": "bytes32"
				},
				{
					"internalType": "string",
					"name": "_encryptedRecipientDataIpfsHash",
					"type": "string"
				},
				{
					"internalType": "enum HealthWalletV2_05.RecipientType",
					"name": "_recipientType",
					"type": "uint8"
				},
				{
					"internalType": "enum HealthWalletV2_05.RecordType",
					"name": "_recordType",
					"type": "uint8"
				},
				{
					"internalType": "uint256",
					"name": "_recordId",
					"type": "uint256"
				},
				{
					"internalType": "uint256",
					"name": "_expiryDate",
					"type": "uint256"
				},
				{
					"internalType": "enum HealthWalletV2_05.AccessLevel",
					"name": "_accessLevel",
					"type": "uint8"
				},
				{
					"internalType": "string",
					"name": "_encryptedRecordKey",
					"type": "string"
				}
			],
			"name": "shareData",
			"outputs": [
				{
					"internalType": "uint256",
					"name": "",
					"type": "uint256"
				}
			],
			"stateMutability": "nonpayable",
			"type": "function"
		},
		{
			"inputs": [
				{
					"internalType": "bytes4",
					"name": "interfaceId",
					"type": "bytes4"
				}
			],
			"name": "supportsInterface",
			"outputs": [
				{
					"internalType": "bool",
					"name": "",
					"type": "bool"
				}
			],
			"stateMutability": "view",
			"type": "function"
		},
		{
			"inputs": [
				{
					"internalType": "address",
					"name": "newOwner",
					"type": "address"
				}
			],
			"name": "transferOwnership",
			"outputs": [],
			"stateMutability": "nonpayable",
			"type": "function"
		},
		{
			"inputs": [],
			"name": "unpause",
			"outputs": [],
			"stateMutability": "nonpayable",
			"type": "function"
		},
		{
			"inputs": [
				{
					"internalType": "uint256",
					"name": "_medicationId",
					"type": "uint256"
				},
				{
					"internalType": "string",
					"name": "_encryptedDataIpfsHash",
					"type": "string"
				},
				{
					"internalType": "bool",
					"name": "_isActive",
					"type": "bool"
				},
				{
					"internalType": "uint256",
					"name": "_startDate",
					"type": "uint256"
				},
				{
					"internalType": "uint256",
					"name": "_endDate",
					"type": "uint256"
				}
			],
			"name": "updateMedication",
			"outputs": [],
			"stateMutability": "nonpayable",
			"type": "function"
		},
		{
			"inputs": [
				{
					"internalType": "uint256",
					"name": "_reportId",
					"type": "uint256"
				},
				{
					"internalType": "string",
					"name": "_encryptedDataIpfsHash",
					"type": "string"
				},
				{
					"internalType": "string",
					"name": "_encryptedFileIpfsHash",
					"type": "string"
				},
				{
					"internalType": "enum HealthWalletV2_05.ReportType",
					"name": "_reportType",
					"type": "uint8"
				},
				{
					"internalType": "bool",
					"name": "_hasFile",
					"type": "bool"
				},
				{
					"internalType": "uint256",
					"name": "_reportDate",
					"type": "uint256"
				},
				{
					"internalType": "string",
					"name": "_encryptedKey",
					"type": "string"
				}
			],
			"name": "updateReport",
			"outputs": [],
			"stateMutability": "nonpayable",
			"type": "function"
		},
		{
			"inputs": [
				{
					"internalType": "uint256",
					"name": "_vaccinationId",
					"type": "uint256"
				},
				{
					"internalType": "string",
					"name": "_encryptedDataIpfsHash",
					"type": "string"
				},
				{
					"internalType": "string",
					"name": "_encryptedCertificateIpfsHash",
					"type": "string"
				},
				{
					"internalType": "uint256",
					"name": "_vaccinationDate",
					"type": "uint256"
				}
			],
			"name": "updateVaccination",
			"outputs": [],
			"stateMutability": "nonpayable",
			"type": "function"
		},
		{
			"inputs": [
				{
					"internalType": "address",
					"name": "",
					"type": "address"
				}
			],
			"name": "userCryptoProfiles",
			"outputs": [
				{
					"internalType": "bytes32",
					"name": "publicKeyHash",
					"type": "bytes32"
				},
				{
					"internalType": "string",
					"name": "publicKeyIpfsHash",
					"type": "string"
				},
				{
					"internalType": "uint256",
					"name": "keyVersion",
					"type": "uint256"
				},
				{
					"internalType": "bool",
					"name": "isSet",
					"type": "bool"
				}
			],
			"stateMutability": "view",
			"type": "function"
		}
	]
}