{
	"data": {
		"bytecode": {
			"linkReferences": {},
			"object": "608060405234801561001057600080fd5b50338061003757604051631e4fbdf760e01b81526000600482015260240160405180910390fd5b61004081610057565b5060016002556100516000336100a7565b5061013c565b600080546001600160a01b038381166001600160a01b0319831681178455604051919092169283917f8be0079c531659141344cd1fd0a4f28419497f9722a3daafe3b4186f6b6457e09190a35050565b60008281526001602090815260408083206001600160a01b038516845290915281205460ff166101325760008381526001602081815260408084206001600160a01b0387168086529252808420805460ff19169093179092559051339286917f2f8788117e7eff1d82e926ec794901d17c78024a50270940304540a733656f0d9190a4506001610136565b5060005b92915050565b6148dc8061014b6000396000f3fe608060405234801561001057600080fd5b50600436106102675760003560e01c806301ffc9a71461026c5780630402e73514610294578063045af334146102b7578063052a01f6146102ee57806311231fe01461030357806318b981011461032357806322133e5b146103435780632436a5d714610356578063248a9ca3146103695780632c81df051461037c5780632f2ff15d146103b55780632f4afbad146103c857806336568abe146103db5780633f4ba83a146103ee57806348def2f7146103f65780634adbe62c1461040957806350038737146104295780635c975abb1461043c578063627e86f214610447578063685d5b8b146104675780636e1d616e14610487578063715018a61461049c5780637e0ecee0146104a45780637e14f8cd146104b757806382673e77146104ca57806383f3bbca146104df5780638456cb59146104f257806386c4aea2146104fa5780638939f8981461050d5780638da5cb5b1461052057806391284a891461052857806391d148541461053b578063a217fddf1461054e578063aa361c2814610556578063aa83f4d814610576578063b3568f3214610589578063b752a74b1461059c578063b85d4af0146105b1578063c5b99858146105c4578063c77a5a97146105d7578063d3e5ec4b146105fa578063d547741f1461060d578063df015dc114610620578063df9a4f5614610633578063e40383ec14610646578063e653d37514610659578063ee67e73d14610679578063f17245f914610699578063f2e8790b146106c8578063f2fde38b146106db578063f6871d9e146106ee578063f6ba667814610701578063fbffa2f414610716575b600080fd5b61027f61027a366004613973565b610729565b60405190151581526020015b60405180910390f35b6102a96000805160206147e783398151915281565b60405190815260200161028b565b600454600554600654600754600854604080519586526020860194909452928401919091526060830152608082015260a00161028b565b6103016102fc3660046139b9565b610760565b005b6103166103113660046139b9565b6107c6565b60405161028b9190613a1a565b6103366103313660046139b9565b6108d9565b60405161028b9190613a2d565b6102a9610351366004613b23565b61098a565b610301610364366004613bac565b610b0f565b6102a9610377366004613c13565b610c7e565b6103a861038a3660046139b9565b6001600160a01b039081166000908152601a60205260409020541690565b60405161028b9190613c39565b6103016103c3366004613c4d565b610c94565b6103366103d63660046139b9565b610cb6565b6103016103e9366004613c4d565b610d66565b610301610d99565b6102a9610404366004613c79565b610daf565b61041c610417366004613c13565b610f94565b60405161028b9190613ce4565b610301610437366004613c13565b6111bf565b60035460ff1661027f565b61045a610455366004613c13565b61124b565b60405161028b9190613d5f565b61047a610475366004613c13565b61144d565b60405161028b9190613ded565b6102a960008051602061484783398151915281565b6103016115c4565b6103016104b23660046139b9565b6115d8565b6102a96104c5366004613e58565b611632565b6102a960008051602061486783398151915281565b6103016104ed366004613ec9565b611783565b610301611853565b610301610508366004613f5c565b611866565b6102a961051b366004613fe3565b61191d565b6103a8611afe565b6103016105363660046139b9565b611b0d565b61027f610549366004613c4d565b611b8a565b6102a9600081565b610569610564366004613c13565b611bb5565b60405161028b91906140ce565b6103366105843660046139b9565b611ee3565b6103016105973660046139b9565b611f93565b6102a960008051602061482783398151915281565b6103366105bf3660046139b9565b611fed565b6103016105d23660046139b9565b61209d565b6105ea6105e53660046139b9565b6120f7565b60405161028b94939291906141c1565b6103016106083660046141f2565b6121ac565b61030161061b366004613c4d565b6122b6565b61033661062e3660046139b9565b6122d2565b6103016106413660046139b9565b612382565b6102a96106543660046142d6565b6123dc565b61066c610667366004613c13565b612970565b60405161028b91906143b3565b61068c6106873660046139b9565b612c25565b60405161028b919061444c565b61027f6106a73660046139b9565b6001600160a01b031660009081526009602052604090206003015460ff1690565b6103366106d63660046139b9565b612e7d565b6103016106e93660046139b9565b613044565b6103016106fc3660046144a5565b61307f565b6102a960008051602061488783398151915281565b6103016107243660046144cf565b6130cf565b60006001600160e01b03198216637965db0b60e01b148061075a57506301ffc9a760e01b6001600160e01b03198316145b92915050565b600061076b8161321f565b6107836000805160206147e783398151915283610c94565b816001600160a01b03166000805160206148078339815191526000805160206147e78339815191526040516107ba91815260200190565b60405180910390a25050565b6001600160a01b0381166000908152600a602052604090206003015460609060ff1661082e5760405162461bcd60e51b8152602060048201526012602482015271141d589b1a58c81ad95e481b9bdd081cd95d60721b60448201526064015b60405180910390fd5b6001600160a01b0382166000908152600a60205260409020600101805461085490614513565b80601f016020809104026020016040519081016040528092919081815260200182805461088090614513565b80156108cd5780601f106108a2576101008083540402835291602001916108cd565b820191906000526020600020905b8154815290600101906020018083116108b057829003601f168201915b50505050509050919050565b6060336001600160a01b0383161480610905575061090560008051602061484783398151915233611b8a565b6109215760405162461bcd60e51b81526004016108259061454d565b6001600160a01b0382166000908152600f6020908152604091829020805483518184028101840190945280845290918301828280156108cd57602002820191906000526020600020905b81548152602001906001019080831161096b5750505050509050919050565b6000610994613229565b3360009081526009602052604090206003015460ff166109c65760405162461bcd60e51b815260040161082590614570565b600480549060006109d6836145a7565b90915550506004546040805160e08101825282815260208082018a81528284018a905288151560608401526080830188905260a083018790524260c08401526000858152600c9092529290208151815591519091906001820190610a3a908261460e565b5060408201516002820190610a4f908261460e565b50606082015160038201805460ff19169115159190911790556080820151600482015560a0820151600582015560c09091015160069091015560008181526015602090815260408083208054336001600160a01b03199091168117909155808452600b8352818420805460018101825590855292909320909101839055518291907fb9e5855c05b4297baf0b4f6174bd05a6bd6d2e22a10a228d364b4350dcee191890610afd908b90613a1a565b60405180910390a39695505050505050565b610b17613229565b3360009081526009602052604090206003015460ff16158015610c01576040805160a08101825284815242602080830182905282840191909152600160608301526080820185905233600090815260099091529190912081518190610b7c908261460e565b506020820151600182015560408201516002820155606082015160038201805460ff191691151591909117905560808201516004820190610bbd908261460e565b50506040513391507f5df23ea22902b85acdb8170e942605ab253b9f31accc498d0a7c3a43d300c67590610bf490869042906146cc565b60405180910390a2505050565b336000908152600960205260409020610c1a848261460e565b50336000908152600960205260409020426002820155600401610c3d838261460e565b50336001600160a01b03167f4bb993e40976c9f9359a7e8001431c7b30c1645654767bfd93570c6795ab5abd8442604051610bf49291906146cc565b505050565b6000908152600160208190526040909120015490565b610c9d82610c7e565b610ca68161321f565b610cb0838361324d565b50505050565b6060336001600160a01b0383161480610ce25750610ce260008051602061484783398151915233611b8a565b610cfe5760405162461bcd60e51b81526004016108259061454d565b6001600160a01b0382166000908152600d6020908152604091829020805483518184028101840190945280845290918301828280156108cd576020028201919060005260206000209081548152602001906001019080831161096b5750505050509050919050565b6001600160a01b0381163314610d8f5760405163334bd91960e11b815260040160405180910390fd5b610c7982826132c6565b6000610da48161321f565b610dac613333565b50565b6000610db9613229565b336001600160a01b0386161480610de35750610de360008051602061484783398151915233611b8a565b610e1f5760405162461bcd60e51b815260206004820152600d60248201526c2737903832b936b4b9b9b4b7b760991b6044820152606401610825565b60088054906000610e2f836145a7565b90915550506008546040805160c08101825282815233602082015290810186905260608101856004811115610e6657610e66613dc3565b815242602080830191909152604091820186905260008481526014825282902083518155908301516001820180546001600160a01b0319166001600160a01b03909216919091179055908201516002820190610ec2908261460e565b50606082015160038201805460ff19166001836004811115610ee657610ee6613dc3565b02179055506080820151600482015560a090910151600590910155600081815260196020908152604080832080546001600160a01b0319166001600160a01b038b169081179091558084526013835281842080546001810182559085529290932090910183905551829133917fcc936e965cb312f996247a9f5c0929b57c3078f4d25f38c1e1fa8171238e54a790610f8190899042906146ee565b60405180910390a490505b949350505050565b610fd66040518060e001604052806000815260200160608152602001606081526020016000151581526020016000815260200160008152602001600081525090565b6000828152601560205260409020546001600160a01b03163381148061100f575061100f60008051602061484783398151915233611b8a565b806110225750611022813360018661337f565b61103e5760405162461bcd60e51b81526004016108259061454d565b600c60008481526020019081526020016000206040518060e00160405290816000820154815260200160018201805461107690614513565b80601f01602080910402602001604051908101604052809291908181526020018280546110a290614513565b80156110ef5780601f106110c4576101008083540402835291602001916110ef565b820191906000526020600020905b8154815290600101906020018083116110d257829003601f168201915b5050505050815260200160028201805461110890614513565b80601f016020809104026020016040519081016040528092919081815260200182805461113490614513565b80156111815780601f1061115657610100808354040283529160200191611181565b820191906000526020600020905b81548152906001019060200180831161116457829003601f168201915b5050509183525050600382015460ff161515602082015260048201546040820152600582015460608201526006909101546080909101529392505050565b6111c7613229565b60008181526018602052604090205481906001600160a01b031633146111ff5760405162461bcd60e51b815260040161082590614709565b600082815260126020526040808220600901805461ff00191661020017905551839133917fecc5422bdbc6a29eb33382a149718b65f504d9ebfc6aa2d2b142bcc6ad837a6b9190a35050565b61127d6040518060a0016040528060008152602001606081526020016060815260200160008152602001600081525090565b6000828152601660205260409020546001600160a01b0316338114806112b657506112b660008051602061484783398151915233611b8a565b806112c957506112c9813360028661337f565b6112e55760405162461bcd60e51b81526004016108259061454d565b600e60008481526020019081526020016000206040518060a00160405290816000820154815260200160018201805461131d90614513565b80601f016020809104026020016040519081016040528092919081815260200182805461134990614513565b80156113965780601f1061136b57610100808354040283529160200191611396565b820191906000526020600020905b81548152906001019060200180831161137957829003601f168201915b505050505081526020016002820180546113af90614513565b80601f01602080910402602001604051908101604052809291908181526020018280546113db90614513565b80156114285780601f106113fd57610100808354040283529160200191611428565b820191906000526020600020905b81548152906001019060200180831161140b57829003601f168201915b5050505050815260200160038201548152602001600482015481525050915050919050565b611455613853565b6000828152601960205260409020546001600160a01b03163381148061148e575061148e60008051602061484783398151915233611b8a565b6114aa5760405162461bcd60e51b81526004016108259061472c565b600083815260146020908152604091829020825160c0810184528154815260018201546001600160a01b03169281019290925260028101805492939192918401916114f490614513565b80601f016020809104026020016040519081016040528092919081815260200182805461152090614513565b801561156d5780601f106115425761010080835404028352916020019161156d565b820191906000526020600020905b81548152906001019060200180831161155057829003601f168201915b5050509183525050600382015460209091019060ff16600481111561159457611594613dc3565b60048111156115a5576115a5613dc3565b8152600482015460208201526005909101546040909101529392505050565b6115cc613734565b6115d66000613766565b565b60006115e38161321f565b6115fb60008051602061482783398151915283610c94565b816001600160a01b03166000805160206148078339815191526000805160206148278339815191526040516107ba91815260200190565b600061163c613229565b3360009081526009602052604090206003015460ff1661166e5760405162461bcd60e51b815260040161082590614570565b6005805490600061167e836145a7565b90915550506005546040805160a0810182528281526020808201888152828401889052606083018790524260808401526000858152600e90925292902081518155915190919060018201906116d3908261460e565b50604082015160028201906116e8908261460e565b5060608201516003820155608090910151600490910155600081815260166020908152604080832080546001600160a01b03191633908117909155808452600d8352818420805460018101825590855292909320909101839055518291907f248b56445b6b2964c05eb68404feebe918d6d28de7f6386fc4cabb9e0b70d50090611773908990613a1a565b60405180910390a3949350505050565b61178b613229565b60008681526015602052604090205486906001600160a01b031633146117c35760405162461bcd60e51b815260040161082590614709565b6000878152600c60205260409020600181016117df888261460e565b50600281016117ee878261460e565b5060038101805460ff19168615151790556004810184905560058101839055604051889033907f4d3508c2ade1f9d136f8852a5ed95ace66534d58ab56c35dd69e8ae6ecc8a71190611841908b90613a1a565b60405180910390a35050505050505050565b600061185e8161321f565b610dac6137b6565b61186e613229565b60008481526016602052604090205484906001600160a01b031633146118a65760405162461bcd60e51b815260040161082590614709565b6000858152600e60205260409020600181016118c2868261460e565b50600281016118d1858261460e565b5060038101839055604051869033907f44f08082ef5253266e365753c1e7cea2b4bb2025062f0cf4e2288fc811d941c89061190d908990613a1a565b60405180910390a3505050505050565b6000611927613229565b3360009081526009602052604090206003015460ff166119595760405162461bcd60e51b815260040161082590614570565b60068054906000611969836145a7565b9190505550600060065490506040518061010001604052808281526020018981526020018881526020018760078111156119a5576119a5613dc3565b81528615156020808301919091526040808301889052426060840152608090920186905260008481526010825291909120825181559082015160018201906119ed908261460e565b5060408201516002820190611a02908261460e565b50606082015160038201805460ff19166001836007811115611a2657611a26613dc3565b021790555060808201516003820180549115156101000261ff001990921691909117905560a0820151600482015560c0820151600582015560e08201516006820190611a72908261460e565b505050600081815260176020908152604080832080546001600160a01b03191633908117909155808452600f8352818420805460018101825590855292909320909101839055518291907f7e2ac09f9bde6130ff92917c5d2cc031afbba4154566e196417aa56eb041679390611aeb908a908d9061474d565b60405180910390a3979650505050505050565b6000546001600160a01b031690565b6001600160a01b038116611b335760405162461bcd60e51b81526004016108259061476d565b336000818152601a602052604080822080546001600160a01b0319166001600160a01b03861690811790915590519092917ff0e65fe0d2436800e6455b857dbfbc38741836ade6b9bf9b8177b377317c1d5e91a350565b60009182526001602090815260408084206001600160a01b0393909316845291905290205460ff1690565b611bbd6138a3565b6000828152601860205260409020546001600160a01b031633811480611bfc57506000838152601260205260409020600201546001600160a01b031633145b80611c1a5750611c1a60008051602061484783398151915233611b8a565b611c365760405162461bcd60e51b81526004016108259061472c565b600083815260126020908152604080832081516101a0810183528154815260018201546001600160a01b039081169482019490945260028201549093169183019190915260038101546060830152600481018054608084019190611c9990614513565b80601f0160208091040260200160405190810160405280929190818152602001828054611cc590614513565b8015611d125780601f10611ce757610100808354040283529160200191611d12565b820191906000526020600020905b815481529060010190602001808311611cf557829003601f168201915b5050509183525050600582015460209091019060ff166006811115611d3957611d39613dc3565b6006811115611d4a57611d4a613dc3565b81526020016005820160019054906101000a900460ff166003811115611d7257611d72613dc3565b6003811115611d8357611d83613dc3565b8152600682015460208201526007820154604082015260088201546060820152600982015460809091019060ff166002811115611dc257611dc2613dc3565b6002811115611dd357611dd3613dc3565b81526020016009820160019054906101000a900460ff166002811115611dfb57611dfb613dc3565b6002811115611e0c57611e0c613dc3565b8152602001600a82018054611e2090614513565b80601f0160208091040260200160405190810160405280929190818152602001828054611e4c90614513565b8015611e995780601f10611e6e57610100808354040283529160200191611e99565b820191906000526020600020905b815481529060010190602001808311611e7c57829003601f168201915b505050505081525050905080610120015142118015611ece575060008161016001516002811115611ecc57611ecc613dc3565b145b15611edc5760016101608201525b9392505050565b6060336001600160a01b0383161480611f0f5750611f0f60008051602061484783398151915233611b8a565b611f2b5760405162461bcd60e51b81526004016108259061472c565b6001600160a01b038216600090815260116020908152604091829020805483518184028101840190945280845290918301828280156108cd576020028201919060005260206000209081548152602001906001019080831161096b5750505050509050919050565b6000611f9e8161321f565b611fb660008051602061486783398151915283610c94565b816001600160a01b03166000805160206148078339815191526000805160206148678339815191526040516107ba91815260200190565b6060336001600160a01b0383161480612019575061201960008051602061484783398151915233611b8a565b6120355760405162461bcd60e51b81526004016108259061472c565b6001600160a01b038216600090815260136020908152604091829020805483518184028101840190945280845290918301828280156108cd576020028201919060005260206000209081548152602001906001019080831161096b5750505050509050919050565b60006120a88161321f565b6120c060008051602061488783398151915283610c94565b816001600160a01b03166000805160206148078339815191526000805160206148878339815191526040516107ba91815260200190565b600a602052600090815260409020805460018201805491929161211990614513565b80601f016020809104026020016040519081016040528092919081815260200182805461214590614513565b80156121925780601f1061216757610100808354040283529160200191612192565b820191906000526020600020905b81548152906001019060200180831161217557829003601f168201915b50505050600283015460039093015491929160ff16905084565b6121b4613229565b60008781526017602052604090205487906001600160a01b031633146121ec5760405162461bcd60e51b815260040161082590614709565b600088815260106020526040902060018101612208898261460e565b5060028101612217888261460e565b5060038101805487919060ff1916600183600781111561223957612239613dc3565b021790555060038101805461ff001916610100871515021790556004810184905560068101612268848261460e565b5088336001600160a01b03167f0194f475ed1a7936bc502c5f68be59ab8b4e5ef3adc105d56862f112b1547f258a6040516122a39190613a1a565b60405180910390a3505050505050505050565b6122bf82610c7e565b6122c88161321f565b610cb083836132c6565b6060336001600160a01b03831614806122fe57506122fe60008051602061484783398151915233611b8a565b61231a5760405162461bcd60e51b81526004016108259061454d565b6001600160a01b0382166000908152600b6020908152604091829020805483518184028101840190945280845290918301828280156108cd576020028201919060005260206000209081548152602001906001019080831161096b5750505050509050919050565b600061238d8161321f565b6123a560008051602061484783398151915283610c94565b816001600160a01b03166000805160206148078339815191526000805160206148478339815191526040516107ba91815260200190565b60006123e6613229565b3360009081526009602052604090206003015460ff166124185760405162461bcd60e51b815260040161082590614570565b6001600160a01b038a1661243e5760405162461bcd60e51b81526004016108259061476d565b336001600160a01b038b16036124865760405162461bcd60e51b815260206004820152600d60248201526c4e6f2073656c662d736861726560981b6044820152606401610825565b4284116124c65760405162461bcd60e51b815260206004820152600e60248201526d496e76616c69642065787069727960901b6044820152606401610825565b600082511161250f5760405162461bcd60e51b8152602060048201526015602482015274496e76616c696420656e63727970746564206b657960581b6044820152606401610825565b600086600381111561252357612523613dc3565b03612582573360009081526009602052604090206003015460ff1661257d5760405162461bcd60e51b815260206004820152601060248201526f4e6f20706572736f6e616c20696e666f60801b6044820152606401610825565b61266f565b600186600381111561259657612596613dc3565b036125d1576000858152601560205260409020546001600160a01b0316331461257d5760405162461bcd60e51b815260040161082590614793565b60028660038111156125e5576125e5613dc3565b03612620576000858152601660205260409020546001600160a01b0316331461257d5760405162461bcd60e51b815260040161082590614793565b600386600381111561263457612634613dc3565b0361266f576000858152601760205260409020546001600160a01b0316331461266f5760405162461bcd60e51b815260040161082590614793565b6007805490600061267f836145a7565b919050555060006007549050604051806101a00160405280828152602001336001600160a01b031681526020018c6001600160a01b031681526020018b81526020018a81526020018960068111156126d9576126d9613dc3565b81526020018860038111156126f0576126f0613dc3565b815260200187815260200142815260200186815260200185600281111561271957612719613dc3565b815260200160008152602090810185905260008381526012825260409081902083518155918301516001830180546001600160a01b03199081166001600160a01b03938416179091559184015160028401805490931691161790556060820151600382015560808201516004820190612792908261460e565b5060a082015160058201805460ff191660018360068111156127b6576127b6613dc3565b021790555060c082015160058201805461ff0019166101008360038111156127e0576127e0613dc3565b021790555060e082015160068201556101008201516007820155610120820151600882015561014082015160098201805460ff1916600183600281111561282957612829613dc3565b021790555061016082015160098201805461ff00191661010083600281111561285457612854613dc3565b0217905550610180820151600a82019061286e908261460e565b505050600081815260186020908152604080832080546001600160a01b031916339081179091558352601182528220805460018101825590835290822001829055808860038111156128c2576128c2613dc3565b1461290e5760018860038111156128db576128db613dc3565b146129075760028860038111156128f4576128f4613dc3565b14612900576003612911565b6002612911565b6001612911565b60005b9050818c6001600160a01b0316336001600160a01b03167f0a659897907550ad23df4acc58af8f2928fb8c5f64323d619580011b039a8649848a6040516129599291906146ee565b60405180910390a4509a9950505050505050505050565b61297861391b565b6000828152601760205260409020546001600160a01b0316338114806129b157506129b160008051602061484783398151915233611b8a565b806129c457506129c4813360038661337f565b6129e05760405162461bcd60e51b81526004016108259061454d565b601060008481526020019081526020016000206040518061010001604052908160008201548152602001600182018054612a1990614513565b80601f0160208091040260200160405190810160405280929190818152602001828054612a4590614513565b8015612a925780601f10612a6757610100808354040283529160200191612a92565b820191906000526020600020905b815481529060010190602001808311612a7557829003601f168201915b50505050508152602001600282018054612aab90614513565b80601f0160208091040260200160405190810160405280929190818152602001828054612ad790614513565b8015612b245780601f10612af957610100808354040283529160200191612b24565b820191906000526020600020905b815481529060010190602001808311612b0757829003601f168201915b5050509183525050600382015460209091019060ff166007811115612b4b57612b4b613dc3565b6007811115612b5c57612b5c613dc3565b81526003820154610100900460ff16151560208201526004820154604082015260058201546060820152600682018054608090920191612b9b90614513565b80601f0160208091040260200160405190810160405280929190818152602001828054612bc790614513565b8015612c145780601f10612be957610100808354040283529160200191612c14565b820191906000526020600020905b815481529060010190602001808311612bf757829003601f168201915b505050505081525050915050919050565b612c596040518060a00160405280606081526020016000815260200160008152602001600015158152602001606081525090565b336001600160a01b0383161480612c835750612c8360008051602061484783398151915233611b8a565b80612c965750612c96823360008061337f565b612cb25760405162461bcd60e51b81526004016108259061454d565b6001600160a01b03821660009081526009602052604090206003015460ff16612d095760405162461bcd60e51b8152602060048201526009602482015268139bdd08199bdd5b9960ba1b6044820152606401610825565b6001600160a01b03821660009081526009602052604090819020815160a08101909252805482908290612d3b90614513565b80601f0160208091040260200160405190810160405280929190818152602001828054612d6790614513565b8015612db45780601f10612d8957610100808354040283529160200191612db4565b820191906000526020600020905b815481529060010190602001808311612d9757829003601f168201915b50505091835250506001820154602082015260028201546040820152600382015460ff1615156060820152600482018054608090920191612df490614513565b80601f0160208091040260200160405190810160405280929190818152602001828054612e2090614513565b8015612e6d5780601f10612e4257610100808354040283529160200191612e6d565b820191906000526020600020905b815481529060010190602001808311612e5057829003601f168201915b5050505050815250509050919050565b6060336001600160a01b0383161480612ea95750612ea960008051602061484783398151915233611b8a565b612ec55760405162461bcd60e51b81526004016108259061472c565b600060015b6007548111612f4d576000818152601260205260409020600201546001600160a01b038581169116148015612f28575060008082815260126020526040902060090154610100900460ff166002811115612f2657612f26613dc3565b145b15612f3b5781612f37816145a7565b9250505b80612f45816145a7565b915050612eca565b506000816001600160401b03811115612f6857612f68613a70565b604051908082528060200260200182016040528015612f91578160200160208202803683370190505b509050600060015b600754811161303a576000818152601260205260409020600201546001600160a01b038781169116148015612ff7575060008082815260126020526040902060090154610100900460ff166002811115612ff557612ff5613dc3565b145b15613028578083838151811061300f5761300f6147bd565b602090810291909101015281613024816145a7565b9250505b80613032816145a7565b915050612f99565b5090949350505050565b61304c613734565b6001600160a01b038116613076576000604051631e4fbdf760e01b81526004016108259190613c39565b610dac81613766565b600061308a8161321f565b61309482846122b6565b826001600160a01b03167f2ec6b3b60cf0b79d925a613d31f267dfa6bbe1350819a7785767e183bfb3d87f83604051610bf491815260200190565b6130d7613229565b600082511161311c5760405162461bcd60e51b8152602060048201526011602482015270092dcecc2d8d2c84092a08ca640d0c2e6d607b1b6044820152606401610825565b8061315c5760405162461bcd60e51b815260206004820152601060248201526f092dcecc2d8d2c840d6caf240d0c2e6d60831b6044820152606401610825565b336000908152600a602052604081206002015461317a9060016147d3565b604080516080810182528481526020808201878152828401859052600160608401819052336000908152600a90935293909120825181559051939450909290918201906131c7908261460e565b5060408281015160028301556060909201516003909101805460ff19169115159190911790555133907fe0bc10b17a0c0cfcdc1cc7c3f004a014e51a2e9d8705ae3c4ce6a71cad9ff08390610bf490869085906146cc565b610dac81336137f3565b60035460ff16156115d65760405163d93c066560e01b815260040160405180910390fd5b60006132598383611b8a565b6132be5760008381526001602081815260408084206001600160a01b0387168086529252808420805460ff19169093179092559051339286917f2f8788117e7eff1d82e926ec794901d17c78024a50270940304540a733656f0d9190a450600161075a565b50600061075a565b60006132d28383611b8a565b156132be5760008381526001602090815260408083206001600160a01b0386168085529252808320805460ff1916905551339286917ff6391f5c32d9c69d2a47ea670b442974b53935d1edc7fd64eb21e047a839171b9190a450600161075a565b61333b613830565b6003805460ff191690557f5db9ee0a495bf2e6ff9c91a7834c1ba4fdd244a5e8aa4e537bd38aeae4b073aa335b6040516133759190613c39565b60405180910390a1565b6001600160a01b0384166000908152601160209081526040808320805482518185028101850190935280835284938301828280156133dc57602002820191906000526020600020905b8154815260200190600101908083116133c8575b5050505050905060005b815181101561372757600060126000848481518110613407576134076147bd565b602090810291909101810151825281810192909252604090810160002081516101a0810183528154815260018201546001600160a01b03908116948201949094526002820154909316918301919091526003810154606083015260048101805460808401919061347690614513565b80601f01602080910402602001604051908101604052809291908181526020018280546134a290614513565b80156134ef5780601f106134c4576101008083540402835291602001916134ef565b820191906000526020600020905b8154815290600101906020018083116134d257829003601f168201915b5050509183525050600582015460209091019060ff16600681111561351657613516613dc3565b600681111561352757613527613dc3565b81526020016005820160019054906101000a900460ff16600381111561354f5761354f613dc3565b600381111561356057613560613dc3565b8152600682015460208201526007820154604082015260088201546060820152600982015460809091019060ff16600281111561359f5761359f613dc3565b60028111156135b0576135b0613dc3565b81526020016009820160019054906101000a900460ff1660028111156135d8576135d8613dc3565b60028111156135e9576135e9613dc3565b8152602001600a820180546135fd90614513565b80601f016020809104026020016040519081016040528092919081815260200182805461362990614513565b80156136765780601f1061364b57610100808354040283529160200191613676565b820191906000526020600020905b81548152906001019060200180831161365957829003601f168201915b5050505050815250509050866001600160a01b031681604001516001600160a01b03161480156136bc5750600081610160015160028111156136ba576136ba613dc3565b145b80156136cd57508061012001514211155b80156136fe57508560038111156136e6576136e6613dc3565b8160c0015160038111156136fc576136fc613dc3565b145b801561370d5750848160e00151145b1561371e5760019350505050610f8c565b506001016133e6565b5060009695505050505050565b3361373d611afe565b6001600160a01b0316146115d6573360405163118cdaa760e01b81526004016108259190613c39565b600080546001600160a01b038381166001600160a01b0319831681178455604051919092169283917f8be0079c531659141344cd1fd0a4f28419497f9722a3daafe3b4186f6b6457e09190a35050565b6137be613229565b6003805460ff191660011790557f62e78cea01bee320cd4e420270b5ea74000d11b0c9f74754ebdbfc544b05a2586133683390565b6137fd8282611b8a565b61382c5760405163e2517d3f60e01b81526001600160a01b038216600482015260248101839052604401610825565b5050565b60035460ff166115d657604051638dfc202b60e01b815260040160405180910390fd5b6040518060c001604052806000815260200160006001600160a01b03168152602001606081526020016000600481111561388f5761388f613dc3565b815260006020820181905260409091015290565b604080516101a081018252600080825260208201819052918101829052606080820183905260808201529060a08201908152602001600081526020016000815260200160008152602001600081526020016000600281111561390757613907613dc3565b815260200160008152602001606081525090565b6040518061010001604052806000815260200160608152602001606081526020016000600781111561394f5761394f613dc3565b81526020016000151581526020016000815260200160008152602001606081525090565b60006020828403121561398557600080fd5b81356001600160e01b031981168114611edc57600080fd5b80356001600160a01b03811681146139b457600080fd5b919050565b6000602082840312156139cb57600080fd5b611edc8261399d565b6000815180845260005b818110156139fa576020818501810151868301820152016139de565b506000602082860101526020601f19601f83011685010191505092915050565b602081526000611edc60208301846139d4565b602080825282518282018190526000918401906040840190835b81811015613a65578351835260209384019390920191600101613a47565b509095945050505050565b634e487b7160e01b600052604160045260246000fd5b600082601f830112613a9757600080fd5b81356001600160401b03811115613ab057613ab0613a70565b604051601f8201601f19908116603f011681016001600160401b0381118282101715613ade57613ade613a70565b604052818152838201602001851015613af657600080fd5b816020850160208301376000918101602001919091529392505050565b803580151581146139b457600080fd5b600080600080600060a08688031215613b3b57600080fd5b85356001600160401b03811115613b5157600080fd5b613b5d88828901613a86565b95505060208601356001600160401b03811115613b7957600080fd5b613b8588828901613a86565b945050613b9460408701613b13565b94979396509394606081013594506080013592915050565b60008060408385031215613bbf57600080fd5b82356001600160401b03811115613bd557600080fd5b613be185828601613a86565b92505060208301356001600160401b03811115613bfd57600080fd5b613c0985828601613a86565b9150509250929050565b600060208284031215613c2557600080fd5b5035919050565b6001600160a01b03169052565b6001600160a01b0391909116815260200190565b60008060408385031215613c6057600080fd5b82359150613c706020840161399d565b90509250929050565b60008060008060808587031215613c8f57600080fd5b613c988561399d565b935060208501356001600160401b03811115613cb357600080fd5b613cbf87828801613a86565b935050604085013560058110613cd457600080fd5b9396929550929360600135925050565b60208152815160208201526000602083015160e06040840152613d0b6101008401826139d4565b90506040840151601f19848303016060850152613d2882826139d4565b915050606084015115156080840152608084015160a084015260a084015160c084015260c084015160e08401528091505092915050565b60208152815160208201526000602083015160a06040840152613d8560c08401826139d4565b90506040840151601f19848303016060850152613da282826139d4565b91505060608401516080840152608084015160a08401528091505092915050565b634e487b7160e01b600052602160045260246000fd5b60058110613de957613de9613dc3565b9052565b602081528151602082015260018060a01b0360208301511660408201526000604083015160c06060840152613e2560e08401826139d4565b90506060840151613e396080850182613dd9565b50608084015160a084015260a084015160c08401528091505092915050565b600080600060608486031215613e6d57600080fd5b83356001600160401b03811115613e8357600080fd5b613e8f86828701613a86565b93505060208401356001600160401b03811115613eab57600080fd5b613eb786828701613a86565b93969395505050506040919091013590565b60008060008060008060c08789031215613ee257600080fd5b8635955060208701356001600160401b03811115613eff57600080fd5b613f0b89828a01613a86565b95505060408701356001600160401b03811115613f2757600080fd5b613f3389828a01613a86565b945050613f4260608801613b13565b9598949750929560808101359460a0909101359350915050565b60008060008060808587031215613f7257600080fd5b8435935060208501356001600160401b03811115613f8f57600080fd5b613f9b87828801613a86565b93505060408501356001600160401b03811115613fb757600080fd5b613fc387828801613a86565b949793965093946060013593505050565b8035600881106139b457600080fd5b60008060008060008060c08789031215613ffc57600080fd5b86356001600160401b0381111561401257600080fd5b61401e89828a01613a86565b96505060208701356001600160401b0381111561403a57600080fd5b61404689828a01613a86565b95505061405560408801613fd4565b935061406360608801613b13565b92506080870135915060a08701356001600160401b0381111561408557600080fd5b61409189828a01613a86565b9150509295509295509295565b60078110613de957613de9613dc3565b60048110613de957613de9613dc3565b60038110613de957613de9613dc3565b6020815281516020820152600060208301516140ed6040840182613c2c565b5060408301516141006060840182613c2c565b506060830151608083015260808301516101a060a08401526141266101c08401826139d4565b905060a084015161413a60c085018261409e565b5060c084015161414d60e08501826140ae565b5060e08401516101008401526101008401516101208401526101208401516101408401526101408401516141856101608501826140be565b5061016084015161419a6101808501826140be565b50610180840151838203601f19016101a08501526141b882826139d4565b95945050505050565b8481526080602082015260006141da60808301866139d4565b60408301949094525090151560609091015292915050565b600080600080600080600060e0888a03121561420d57600080fd5b8735965060208801356001600160401b0381111561422a57600080fd5b6142368a828b01613a86565b96505060408801356001600160401b0381111561425257600080fd5b61425e8a828b01613a86565b95505061426d60608901613fd4565b935061427b60808901613b13565b925060a0880135915060c08801356001600160401b0381111561429d57600080fd5b6142a98a828b01613a86565b91505092959891949750929550565b8035600481106139b457600080fd5b8035600381106139b457600080fd5b60008060008060008060008060006101208a8c0312156142f557600080fd5b6142fe8a61399d565b985060208a0135975060408a01356001600160401b0381111561432057600080fd5b61432c8c828d01613a86565b97505060608a01356007811061434157600080fd5b955061434f60808b016142b8565b945060a08a0135935060c08a0135925061436b60e08b016142c7565b91506101008a01356001600160401b0381111561438757600080fd5b6143938c828d01613a86565b9150509295985092959850929598565b60088110613de957613de9613dc3565b60208152815160208201526000602083015161010060408401526143db6101208401826139d4565b90506040840151601f198483030160608501526143f882826139d4565b915050606084015161440d60808501826143a3565b50608084015180151560a08501525060a084015160c084015260c084015160e084015260e0840151601f19848303016101008501526141b882826139d4565b602081526000825160a0602084015261446860c08401826139d4565b905060208401516040840152604084015160608401526060840151151560808401526080840151601f198483030160a08501526141b882826139d4565b600080604083850312156144b857600080fd5b6144c18361399d565b946020939093013593505050565b600080604083850312156144e257600080fd5b82356001600160401b038111156144f857600080fd5b61450485828601613a86565b95602094909401359450505050565b600181811c9082168061452757607f821691505b60208210810361454757634e487b7160e01b600052602260045260246000fd5b50919050565b6020808252600990820152684e6f2061636365737360b81b604082015260600190565b6020808252600790820152664e6f20696e666f60c81b604082015260600190565b634e487b7160e01b600052601160045260246000fd5b6000600182016145b9576145b9614591565b5060010190565b601f821115610c7957806000526020600020601f840160051c810160208510156145e75750805b601f840160051c820191505b8181101561460757600081556001016145f3565b5050505050565b81516001600160401b0381111561462757614627613a70565b61463b816146358454614513565b846145c0565b6020601f82116001811461466f57600083156146575750848201515b600019600385901b1c1916600184901b178455614607565b600084815260208120601f198516915b8281101561469f578785015182556020948501946001909201910161467f565b50848210156146bd5786840151600019600387901b60f8161c191681555b50505050600190811b01905550565b6040815260006146df60408301856139d4565b90508260208301529392505050565b604081016146fc8285613dd9565b8260208301529392505050565b6020808252600990820152682737ba1037bbb732b960b91b604082015260600190565b60208082526007908201526609cde40c2eae8d60cb1b604082015260600190565b61475781846143a3565b604060208201526000610f8c60408301846139d4565b6020808252600c908201526b24b73b30b634b21030b2323960a11b604082015260600190565b60208082526010908201526f2737ba103932b1b7b9321037bbb732b960811b604082015260600190565b634e487b7160e01b600052603260045260246000fd5b8082018082111561075a5761075a61459156fe8825c62207077c41710fe5144a6467477a643e911c9ab3785826111f7c94ed8b18c9d97edfcf27865aca8a4f478a1b4429b4c82fb5ded476e9f317f74573d01bfec7cd74e5c65b641d49ecc2e89f646c7c0bcae85dc50f9616bf9c798cedda8b59a1c48e5837ad7a7f3dcedcbe129bf3249ec4fbf651fd4f5e2600ead39fe2f51976159518e32c975351d3eb18509d62ab7629098636e52c6ce63466e939167fc8f5b4140cca307cd927e59cbeea8291bffeee228fc677f0fa059aef7b4dd8d5a26469706673582212202a39843bf5a77b227dec6c67dffa37475ebc9cd1525a89696a5f161d9078869a64736f6c634300081f0033",
			"opcodes": "PUSH1 0x80 PUSH1 0x40 MSTORE CALLVALUE DUP1 ISZERO PUSH2 0x10 JUMPI PUSH1 0x0 DUP1 REVERT JUMPDEST POP CALLER DUP1 PUSH2 0x37 JUMPI PUSH1 0x40 MLOAD PUSH4 0x1E4FBDF7 PUSH1 0xE0 SHL DUP2 MSTORE PUSH1 0x0 PUSH1 0x4 DUP3 ADD MSTORE PUSH1 0x24 ADD PUSH1 0x40 MLOAD DUP1 SWAP2 SUB SWAP1 REVERT JUMPDEST PUSH2 0x40 DUP2 PUSH2 0x57 JUMP JUMPDEST POP PUSH1 0x1 PUSH1 0x2 SSTORE PUSH2 0x51 PUSH1 0x0 CALLER PUSH2 0xA7 JUMP JUMPDEST POP PUSH2 0x13C JUMP JUMPDEST PUSH1 0x0 DUP1 SLOAD PUSH1 0x1 PUSH1 0x1 PUSH1 0xA0 SHL SUB DUP4 DUP2 AND PUSH1 0x1 PUSH1 0x1 PUSH1 0xA0 SHL SUB NOT DUP4 AND DUP2 OR DUP5 SSTORE PUSH1 0x40 MLOAD SWAP2 SWAP1 SWAP3 AND SWAP3 DUP4 SWAP2 PUSH32 0x8BE0079C531659141344CD1FD0A4F28419497F9722A3DAAFE3B4186F6B6457E0 SWAP2 SWAP1 LOG3 POP POP JUMP JUMPDEST PUSH1 0x0 DUP3 DUP2 MSTORE PUSH1 0x1 PUSH1 0x20 SWAP1 DUP2 MSTORE PUSH1 0x40 DUP1 DUP4 KECCAK256 PUSH1 0x1 PUSH1 0x1 PUSH1 0xA0 SHL SUB DUP6 AND DUP5 MSTORE SWAP1 SWAP2 MSTORE DUP2 KECCAK256 SLOAD PUSH1 0xFF AND PUSH2 0x132 JUMPI PUSH1 0x0 DUP4 DUP2 MSTORE PUSH1 0x1 PUSH1 0x20 DUP2 DUP2 MSTORE PUSH1 0x40 DUP1 DUP5 KECCAK256 PUSH1 0x1 PUSH1 0x1 PUSH1 0xA0 SHL SUB DUP8 AND DUP1 DUP7 MSTORE SWAP3 MSTORE DUP1 DUP5 KECCAK256 DUP1 SLOAD PUSH1 0xFF NOT AND SWAP1 SWAP4 OR SWAP1 SWAP3 SSTORE SWAP1 MLOAD CALLER SWAP3 DUP7 SWAP2 PUSH32 0x2F8788117E7EFF1D82E926EC794901D17C78024A50270940304540A733656F0D SWAP2 SWAP1 LOG4 POP PUSH1 0x1 PUSH2 0x136 JUMP JUMPDEST POP PUSH1 0x0 JUMPDEST SWAP3 SWAP2 POP POP JUMP JUMPDEST PUSH2 0x48DC DUP1 PUSH2 0x14B PUSH1 0x0 CODECOPY PUSH1 0x0 RETURN INVALID PUSH1 0x80 PUSH1 0x40 MSTORE CALLVALUE DUP1 ISZERO PUSH2 0x10 JUMPI PUSH1 0x0 DUP1 REVERT JUMPDEST POP PUSH1 0x4 CALLDATASIZE LT PUSH2 0x267 JUMPI PUSH1 0x0 CALLDATALOAD PUSH1 0xE0 SHR DUP1 PUSH4 0x1FFC9A7 EQ PUSH2 0x26C JUMPI DUP1 PUSH4 0x402E735 EQ PUSH2 0x294 JUMPI DUP1 PUSH4 0x45AF334 EQ PUSH2 0x2B7 JUMPI DUP1 PUSH4 0x52A01F6 EQ PUSH2 0x2EE JUMPI DUP1 PUSH4 0x11231FE0 EQ PUSH2 0x303 JUMPI DUP1 PUSH4 0x18B98101 EQ PUSH2 0x323 JUMPI DUP1 PUSH4 0x22133E5B EQ PUSH2 0x343 JUMPI DUP1 PUSH4 0x2436A5D7 EQ PUSH2 0x356 JUMPI DUP1 PUSH4 0x248A9CA3 EQ PUSH2 0x369 JUMPI DUP1 PUSH4 0x2C81DF05 EQ PUSH2 0x37C JUMPI DUP1 PUSH4 0x2F2FF15D EQ PUSH2 0x3B5 JUMPI DUP1 PUSH4 0x2F4AFBAD EQ PUSH2 0x3C8 JUMPI DUP1 PUSH4 0x36568ABE EQ PUSH2 0x3DB JUMPI DUP1 PUSH4 0x3F4BA83A EQ PUSH2 0x3EE JUMPI DUP1 PUSH4 0x48DEF2F7 EQ PUSH2 0x3F6 JUMPI DUP1 PUSH4 0x4ADBE62C EQ PUSH2 0x409 JUMPI DUP1 PUSH4 0x50038737 EQ PUSH2 0x429 JUMPI DUP1 PUSH4 0x5C975ABB EQ PUSH2 0x43C JUMPI DUP1 PUSH4 0x627E86F2 EQ PUSH2 0x447 JUMPI DUP1 PUSH4 0x685D5B8B EQ PUSH2 0x467 JUMPI DUP1 PUSH4 0x6E1D616E EQ PUSH2 0x487 JUMPI DUP1 PUSH4 0x715018A6 EQ PUSH2 0x49C JUMPI DUP1 PUSH4 0x7E0ECEE0 EQ PUSH2 0x4A4 JUMPI DUP1 PUSH4 0x7E14F8CD EQ PUSH2 0x4B7 JUMPI DUP1 PUSH4 0x82673E77 EQ PUSH2 0x4CA JUMPI DUP1 PUSH4 0x83F3BBCA EQ PUSH2 0x4DF JUMPI DUP1 PUSH4 0x8456CB59 EQ PUSH2 0x4F2 JUMPI DUP1 PUSH4 0x86C4AEA2 EQ PUSH2 0x4FA JUMPI DUP1 PUSH4 0x8939F898 EQ PUSH2 0x50D JUMPI DUP1 PUSH4 0x8DA5CB5B EQ PUSH2 0x520 JUMPI DUP1 PUSH4 0x91284A89 EQ PUSH2 0x528 JUMPI DUP1 PUSH4 0x91D14854 EQ PUSH2 0x53B JUMPI DUP1 PUSH4 0xA217FDDF EQ PUSH2 0x54E JUMPI DUP1 PUSH4 0xAA361C28 EQ PUSH2 0x556 JUMPI DUP1 PUSH4 0xAA83F4D8 EQ PUSH2 0x576 JUMPI DUP1 PUSH4 0xB3568F32 EQ PUSH2 0x589 JUMPI DUP1 PUSH4 0xB752A74B EQ PUSH2 0x59C JUMPI DUP1 PUSH4 0xB85D4AF0 EQ PUSH2 0x5B1 JUMPI DUP1 PUSH4 0xC5B99858 EQ PUSH2 0x5C4 JUMPI DUP1 PUSH4 0xC77A5A97 EQ PUSH2 0x5D7 JUMPI DUP1 PUSH4 0xD3E5EC4B EQ PUSH2 0x5FA JUMPI DUP1 PUSH4 0xD547741F EQ PUSH2 0x60D JUMPI DUP1 PUSH4 0xDF015DC1 EQ PUSH2 0x620 JUMPI DUP1 PUSH4 0xDF9A4F56 EQ PUSH2 0x633 JUMPI DUP1 PUSH4 0xE40383EC EQ PUSH2 0x646 JUMPI DUP1 PUSH4 0xE653D375 EQ PUSH2 0x659 JUMPI DUP1 PUSH4 0xEE67E73D EQ PUSH2 0x679 JUMPI DUP1 PUSH4 0xF17245F9 EQ PUSH2 0x699 JUMPI DUP1 PUSH4 0xF2E8790B EQ PUSH2 0x6C8 JUMPI DUP1 PUSH4 0xF2FDE38B EQ PUSH2 0x6DB JUMPI DUP1 PUSH4 0xF6871D9E EQ PUSH2 0x6EE JUMPI DUP1 PUSH4 0xF6BA6678 EQ PUSH2 0x701 JUMPI DUP1 PUSH4 0xFBFFA2F4 EQ PUSH2 0x716 JUMPI JUMPDEST PUSH1 0x0 DUP1 REVERT JUMPDEST PUSH2 0x27F PUSH2 0x27A CALLDATASIZE PUSH1 0x4 PUSH2 0x3973 JUMP JUMPDEST PUSH2 0x729 JUMP JUMPDEST PUSH1 0x40 MLOAD SWAP1 ISZERO ISZERO DUP2 MSTORE PUSH1 0x20 ADD JUMPDEST PUSH1 0x40 MLOAD DUP1 SWAP2 SUB SWAP1 RETURN JUMPDEST PUSH2 0x2A9 PUSH1 0x0 DUP1 MLOAD PUSH1 0x20 PUSH2 0x47E7 DUP4 CODECOPY DUP2 MLOAD SWAP2 MSTORE DUP2 JUMP JUMPDEST PUSH1 0x40 MLOAD SWAP1 DUP2 MSTORE PUSH1 0x20 ADD PUSH2 0x28B JUMP JUMPDEST PUSH1 0x4 SLOAD PUSH1 0x5 SLOAD PUSH1 0x6 SLOAD PUSH1 0x7 SLOAD PUSH1 0x8 SLOAD PUSH1 0x40 DUP1 MLOAD SWAP6 DUP7 MSTORE PUSH1 0x20 DUP7 ADD SWAP5 SWAP1 SWAP5 MSTORE SWAP3 DUP5 ADD SWAP2 SWAP1 SWAP2 MSTORE PUSH1 0x60 DUP4 ADD MSTORE PUSH1 0x80 DUP3 ADD MSTORE PUSH1 0xA0 ADD PUSH2 0x28B JUMP JUMPDEST PUSH2 0x301 PUSH2 0x2FC CALLDATASIZE PUSH1 0x4 PUSH2 0x39B9 JUMP JUMPDEST PUSH2 0x760 JUMP JUMPDEST STOP JUMPDEST PUSH2 0x316 PUSH2 0x311 CALLDATASIZE PUSH1 0x4 PUSH2 0x39B9 JUMP JUMPDEST PUSH2 0x7C6 JUMP JUMPDEST PUSH1 0x40 MLOAD PUSH2 0x28B SWAP2 SWAP1 PUSH2 0x3A1A JUMP JUMPDEST PUSH2 0x336 PUSH2 0x331 CALLDATASIZE PUSH1 0x4 PUSH2 0x39B9 JUMP JUMPDEST PUSH2 0x8D9 JUMP JUMPDEST PUSH1 0x40 MLOAD PUSH2 0x28B SWAP2 SWAP1 PUSH2 0x3A2D JUMP JUMPDEST PUSH2 0x2A9 PUSH2 0x351 CALLDATASIZE PUSH1 0x4 PUSH2 0x3B23 JUMP JUMPDEST PUSH2 0x98A JUMP JUMPDEST PUSH2 0x301 PUSH2 0x364 CALLDATASIZE PUSH1 0x4 PUSH2 0x3BAC JUMP JUMPDEST PUSH2 0xB0F JUMP JUMPDEST PUSH2 0x2A9 PUSH2 0x377 CALLDATASIZE PUSH1 0x4 PUSH2 0x3C13 JUMP JUMPDEST PUSH2 0xC7E JUMP JUMPDEST PUSH2 0x3A8 PUSH2 0x38A CALLDATASIZE PUSH1 0x4 PUSH2 0x39B9 JUMP JUMPDEST PUSH1 0x1 PUSH1 0x1 PUSH1 0xA0 SHL SUB SWAP1 DUP2 AND PUSH1 0x0 SWAP1 DUP2 MSTORE PUSH1 0x1A PUSH1 0x20 MSTORE PUSH1 0x40 SWAP1 KECCAK256 SLOAD AND SWAP1 JUMP JUMPDEST PUSH1 0x40 MLOAD PUSH2 0x28B SWAP2 SWAP1 PUSH2 0x3C39 JUMP JUMPDEST PUSH2 0x301 PUSH2 0x3C3 CALLDATASIZE PUSH1 0x4 PUSH2 0x3C4D JUMP JUMPDEST PUSH2 0xC94 JUMP JUMPDEST PUSH2 0x336 PUSH2 0x3D6 CALLDATASIZE PUSH1 0x4 PUSH2 0x39B9 JUMP JUMPDEST PUSH2 0xCB6 JUMP JUMPDEST PUSH2 0x301 PUSH2 0x3E9 CALLDATASIZE PUSH1 0x4 PUSH2 0x3C4D JUMP JUMPDEST PUSH2 0xD66 JUMP JUMPDEST PUSH2 0x301 PUSH2 0xD99 JUMP JUMPDEST PUSH2 0x2A9 PUSH2 0x404 CALLDATASIZE PUSH1 0x4 PUSH2 0x3C79 JUMP JUMPDEST PUSH2 0xDAF JUMP JUMPDEST PUSH2 0x41C PUSH2 0x417 CALLDATASIZE PUSH1 0x4 PUSH2 0x3C13 JUMP JUMPDEST PUSH2 0xF94 JUMP JUMPDEST PUSH1 0x40 MLOAD PUSH2 0x28B SWAP2 SWAP1 PUSH2 0x3CE4 JUMP JUMPDEST PUSH2 0x301 PUSH2 0x437 CALLDATASIZE PUSH1 0x4 PUSH2 0x3C13 JUMP JUMPDEST PUSH2 0x11BF JUMP JUMPDEST PUSH1 0x3 SLOAD PUSH1 0xFF AND PUSH2 0x27F JUMP JUMPDEST PUSH2 0x45A PUSH2 0x455 CALLDATASIZE PUSH1 0x4 PUSH2 0x3C13 JUMP JUMPDEST PUSH2 0x124B JUMP JUMPDEST PUSH1 0x40 MLOAD PUSH2 0x28B SWAP2 SWAP1 PUSH2 0x3D5F JUMP JUMPDEST PUSH2 0x47A PUSH2 0x475 CALLDATASIZE PUSH1 0x4 PUSH2 0x3C13 JUMP JUMPDEST PUSH2 0x144D JUMP JUMPDEST PUSH1 0x40 MLOAD PUSH2 0x28B SWAP2 SWAP1 PUSH2 0x3DED JUMP JUMPDEST PUSH2 0x2A9 PUSH1 0x0 DUP1 MLOAD PUSH1 0x20 PUSH2 0x4847 DUP4 CODECOPY DUP2 MLOAD SWAP2 MSTORE DUP2 JUMP JUMPDEST PUSH2 0x301 PUSH2 0x15C4 JUMP JUMPDEST PUSH2 0x301 PUSH2 0x4B2 CALLDATASIZE PUSH1 0x4 PUSH2 0x39B9 JUMP JUMPDEST PUSH2 0x15D8 JUMP JUMPDEST PUSH2 0x2A9 PUSH2 0x4C5 CALLDATASIZE PUSH1 0x4 PUSH2 0x3E58 JUMP JUMPDEST PUSH2 0x1632 JUMP JUMPDEST PUSH2 0x2A9 PUSH1 0x0 DUP1 MLOAD PUSH1 0x20 PUSH2 0x4867 DUP4 CODECOPY DUP2 MLOAD SWAP2 MSTORE DUP2 JUMP JUMPDEST PUSH2 0x301 PUSH2 0x4ED CALLDATASIZE PUSH1 0x4 PUSH2 0x3EC9 JUMP JUMPDEST PUSH2 0x1783 JUMP JUMPDEST PUSH2 0x301 PUSH2 0x1853 JUMP JUMPDEST PUSH2 0x301 PUSH2 0x508 CALLDATASIZE PUSH1 0x4 PUSH2 0x3F5C JUMP JUMPDEST PUSH2 0x1866 JUMP JUMPDEST PUSH2 0x2A9 PUSH2 0x51B CALLDATASIZE PUSH1 0x4 PUSH2 0x3FE3 JUMP JUMPDEST PUSH2 0x191D JUMP JUMPDEST PUSH2 0x3A8 PUSH2 0x1AFE JUMP JUMPDEST PUSH2 0x301 PUSH2 0x536 CALLDATASIZE PUSH1 0x4 PUSH2 0x39B9 JUMP JUMPDEST PUSH2 0x1B0D JUMP JUMPDEST PUSH2 0x27F PUSH2 0x549 CALLDATASIZE PUSH1 0x4 PUSH2 0x3C4D JUMP JUMPDEST PUSH2 0x1B8A JUMP JUMPDEST PUSH2 0x2A9 PUSH1 0x0 DUP2 JUMP JUMPDEST PUSH2 0x569 PUSH2 0x564 CALLDATASIZE PUSH1 0x4 PUSH2 0x3C13 JUMP JUMPDEST PUSH2 0x1BB5 JUMP JUMPDEST PUSH1 0x40 MLOAD PUSH2 0x28B SWAP2 SWAP1 PUSH2 0x40CE JUMP JUMPDEST PUSH2 0x336 PUSH2 0x584 CALLDATASIZE PUSH1 0x4 PUSH2 0x39B9 JUMP JUMPDEST PUSH2 0x1EE3 JUMP JUMPDEST PUSH2 0x301 PUSH2 0x597 CALLDATASIZE PUSH1 0x4 PUSH2 0x39B9 JUMP JUMPDEST PUSH2 0x1F93 JUMP JUMPDEST PUSH2 0x2A9 PUSH1 0x0 DUP1 MLOAD PUSH1 0x20 PUSH2 0x4827 DUP4 CODECOPY DUP2 MLOAD SWAP2 MSTORE DUP2 JUMP JUMPDEST PUSH2 0x336 PUSH2 0x5BF CALLDATASIZE PUSH1 0x4 PUSH2 0x39B9 JUMP JUMPDEST PUSH2 0x1FED JUMP JUMPDEST PUSH2 0x301 PUSH2 0x5D2 CALLDATASIZE PUSH1 0x4 PUSH2 0x39B9 JUMP JUMPDEST PUSH2 0x209D JUMP JUMPDEST PUSH2 0x5EA PUSH2 0x5E5 CALLDATASIZE PUSH1 0x4 PUSH2 0x39B9 JUMP JUMPDEST PUSH2 0x20F7 JUMP JUMPDEST PUSH1 0x40 MLOAD PUSH2 0x28B SWAP5 SWAP4 SWAP3 SWAP2 SWAP1 PUSH2 0x41C1 JUMP JUMPDEST PUSH2 0x301 PUSH2 0x608 CALLDATASIZE PUSH1 0x4 PUSH2 0x41F2 JUMP JUMPDEST PUSH2 0x21AC JUMP JUMPDEST PUSH2 0x301 PUSH2 0x61B CALLDATASIZE PUSH1 0x4 PUSH2 0x3C4D JUMP JUMPDEST PUSH2 0x22B6 JUMP JUMPDEST PUSH2 0x336 PUSH2 0x62E CALLDATASIZE PUSH1 0x4 PUSH2 0x39B9 JUMP JUMPDEST PUSH2 0x22D2 JUMP JUMPDEST PUSH2 0x301 PUSH2 0x641 CALLDATASIZE PUSH1 0x4 PUSH2 0x39B9 JUMP JUMPDEST PUSH2 0x2382 JUMP JUMPDEST PUSH2 0x2A9 PUSH2 0x654 CALLDATASIZE PUSH1 0x4 PUSH2 0x42D6 JUMP JUMPDEST PUSH2 0x23DC JUMP JUMPDEST PUSH2 0x66C PUSH2 0x667 CALLDATASIZE PUSH1 0x4 PUSH2 0x3C13 JUMP JUMPDEST PUSH2 0x2970 JUMP JUMPDEST PUSH1 0x40 MLOAD PUSH2 0x28B SWAP2 SWAP1 PUSH2 0x43B3 JUMP JUMPDEST PUSH2 0x68C PUSH2 0x687 CALLDATASIZE PUSH1 0x4 PUSH2 0x39B9 JUMP JUMPDEST PUSH2 0x2C25 JUMP JUMPDEST PUSH1 0x40 MLOAD PUSH2 0x28B SWAP2 SWAP1 PUSH2 0x444C JUMP JUMPDEST PUSH2 0x27F PUSH2 0x6A7 CALLDATASIZE PUSH1 0x4 PUSH2 0x39B9 JUMP JUMPDEST PUSH1 0x1 PUSH1 0x1 PUSH1 0xA0 SHL SUB AND PUSH1 0x0 SWAP1 DUP2 MSTORE PUSH1 0x9 PUSH1 0x20 MSTORE PUSH1 0x40 SWAP1 KECCAK256 PUSH1 0x3 ADD SLOAD PUSH1 0xFF AND SWAP1 JUMP JUMPDEST PUSH2 0x336 PUSH2 0x6D6 CALLDATASIZE PUSH1 0x4 PUSH2 0x39B9 JUMP JUMPDEST PUSH2 0x2E7D JUMP JUMPDEST PUSH2 0x301 PUSH2 0x6E9 CALLDATASIZE PUSH1 0x4 PUSH2 0x39B9 JUMP JUMPDEST PUSH2 0x3044 JUMP JUMPDEST PUSH2 0x301 PUSH2 0x6FC CALLDATASIZE PUSH1 0x4 PUSH2 0x44A5 JUMP JUMPDEST PUSH2 0x307F JUMP JUMPDEST PUSH2 0x2A9 PUSH1 0x0 DUP1 MLOAD PUSH1 0x20 PUSH2 0x4887 DUP4 CODECOPY DUP2 MLOAD SWAP2 MSTORE DUP2 JUMP JUMPDEST PUSH2 0x301 PUSH2 0x724 CALLDATASIZE PUSH1 0x4 PUSH2 0x44CF JUMP JUMPDEST PUSH2 0x30CF JUMP JUMPDEST PUSH1 0x0 PUSH1 0x1 PUSH1 0x1 PUSH1 0xE0 SHL SUB NOT DUP3 AND PUSH4 0x7965DB0B PUSH1 0xE0 SHL EQ DUP1 PUSH2 0x75A JUMPI POP PUSH4 0x1FFC9A7 PUSH1 0xE0 SHL PUSH1 0x1 PUSH1 0x1 PUSH1 0xE0 SHL SUB NOT DUP4 AND EQ JUMPDEST SWAP3 SWAP2 POP POP JUMP JUMPDEST PUSH1 0x0 PUSH2 0x76B DUP2 PUSH2 0x321F JUMP JUMPDEST PUSH2 0x783 PUSH1 0x0 DUP1 MLOAD PUSH1 0x20 PUSH2 0x47E7 DUP4 CODECOPY DUP2 MLOAD SWAP2 MSTORE DUP4 PUSH2 0xC94 JUMP JUMPDEST DUP2 PUSH1 0x1 PUSH1 0x1 PUSH1 0xA0 SHL SUB AND PUSH1 0x0 DUP1 MLOAD PUSH1 0x20 PUSH2 0x4807 DUP4 CODECOPY DUP2 MLOAD SWAP2 MSTORE PUSH1 0x0 DUP1 MLOAD PUSH1 0x20 PUSH2 0x47E7 DUP4 CODECOPY DUP2 MLOAD SWAP2 MSTORE PUSH1 0x40 MLOAD PUSH2 0x7BA SWAP2 DUP2 MSTORE PUSH1 0x20 ADD SWAP1 JUMP JUMPDEST PUSH1 0x40 MLOAD DUP1 SWAP2 SUB SWAP1 LOG2 POP POP JUMP JUMPDEST PUSH1 0x1 PUSH1 0x1 PUSH1 0xA0 SHL SUB DUP2 AND PUSH1 0x0 SWAP1 DUP2 MSTORE PUSH1 0xA PUSH1 0x20 MSTORE PUSH1 0x40 SWAP1 KECCAK256 PUSH1 0x3 ADD SLOAD PUSH1 0x60 SWAP1 PUSH1 0xFF AND PUSH2 0x82E JUMPI PUSH1 0x40 MLOAD PUSH3 0x461BCD PUSH1 0xE5 SHL DUP2 MSTORE PUSH1 0x20 PUSH1 0x4 DUP3 ADD MSTORE PUSH1 0x12 PUSH1 0x24 DUP3 ADD MSTORE PUSH18 0x141D589B1A58C81AD95E481B9BDD081CD95D PUSH1 0x72 SHL PUSH1 0x44 DUP3 ADD MSTORE PUSH1 0x64 ADD JUMPDEST PUSH1 0x40 MLOAD DUP1 SWAP2 SUB SWAP1 REVERT JUMPDEST PUSH1 0x1 PUSH1 0x1 PUSH1 0xA0 SHL SUB DUP3 AND PUSH1 0x0 SWAP1 DUP2 MSTORE PUSH1 0xA PUSH1 0x20 MSTORE PUSH1 0x40 SWAP1 KECCAK256 PUSH1 0x1 ADD DUP1 SLOAD PUSH2 0x854 SWAP1 PUSH2 0x4513 JUMP JUMPDEST DUP1 PUSH1 0x1F ADD PUSH1 0x20 DUP1 SWAP2 DIV MUL PUSH1 0x20 ADD PUSH1 0x40 MLOAD SWAP1 DUP2 ADD PUSH1 0x40 MSTORE DUP1 SWAP3 SWAP2 SWAP1 DUP2 DUP2 MSTORE PUSH1 0x20 ADD DUP3 DUP1 SLOAD PUSH2 0x880 SWAP1 PUSH2 0x4513 JUMP JUMPDEST DUP1 ISZERO PUSH2 0x8CD JUMPI DUP1 PUSH1 0x1F LT PUSH2 0x8A2 JUMPI PUSH2 0x100 DUP1 DUP4 SLOAD DIV MUL DUP4 MSTORE SWAP2 PUSH1 0x20 ADD SWAP2 PUSH2 0x8CD JUMP JUMPDEST DUP3 ADD SWAP2 SWAP1 PUSH1 0x0 MSTORE PUSH1 0x20 PUSH1 0x0 KECCAK256 SWAP1 JUMPDEST DUP2 SLOAD DUP2 MSTORE SWAP1 PUSH1 0x1 ADD SWAP1 PUSH1 0x20 ADD DUP1 DUP4 GT PUSH2 0x8B0 JUMPI DUP3 SWAP1 SUB PUSH1 0x1F AND DUP3 ADD SWAP2 JUMPDEST POP POP POP POP POP SWAP1 POP SWAP2 SWAP1 POP JUMP JUMPDEST PUSH1 0x60 CALLER PUSH1 0x1 PUSH1 0x1 PUSH1 0xA0 SHL SUB DUP4 AND EQ DUP1 PUSH2 0x905 JUMPI POP PUSH2 0x905 PUSH1 0x0 DUP1 MLOAD PUSH1 0x20 PUSH2 0x4847 DUP4 CODECOPY DUP2 MLOAD SWAP2 MSTORE CALLER PUSH2 0x1B8A JUMP JUMPDEST PUSH2 0x921 JUMPI PUSH1 0x40 MLOAD PUSH3 0x461BCD PUSH1 0xE5 SHL DUP2 MSTORE PUSH1 0x4 ADD PUSH2 0x825 SWAP1 PUSH2 0x454D JUMP JUMPDEST PUSH1 0x1 PUSH1 0x1 PUSH1 0xA0 SHL SUB DUP3 AND PUSH1 0x0 SWAP1 DUP2 MSTORE PUSH1 0xF PUSH1 0x20 SWAP1 DUP2 MSTORE PUSH1 0x40 SWAP2 DUP3 SWAP1 KECCAK256 DUP1 SLOAD DUP4 MLOAD DUP2 DUP5 MUL DUP2 ADD DUP5 ADD SWAP1 SWAP5 MSTORE DUP1 DUP5 MSTORE SWAP1 SWAP2 DUP4 ADD DUP3 DUP3 DUP1 ISZERO PUSH2 0x8CD JUMPI PUSH1 0x20 MUL DUP3 ADD SWAP2 SWAP1 PUSH1 0x0 MSTORE PUSH1 0x20 PUSH1 0x0 KECCAK256 SWAP1 JUMPDEST DUP2 SLOAD DUP2 MSTORE PUSH1 0x20 ADD SWAP1 PUSH1 0x1 ADD SWAP1 DUP1 DUP4 GT PUSH2 0x96B JUMPI POP POP POP POP POP SWAP1 POP SWAP2 SWAP1 POP JUMP JUMPDEST PUSH1 0x0 PUSH2 0x994 PUSH2 0x3229 JUMP JUMPDEST CALLER PUSH1 0x0 SWAP1 DUP2 MSTORE PUSH1 0x9 PUSH1 0x20 MSTORE PUSH1 0x40 SWAP1 KECCAK256 PUSH1 0x3 ADD SLOAD PUSH1 0xFF AND PUSH2 0x9C6 JUMPI PUSH1 0x40 MLOAD PUSH3 0x461BCD PUSH1 0xE5 SHL DUP2 MSTORE PUSH1 0x4 ADD PUSH2 0x825 SWAP1 PUSH2 0x4570 JUMP JUMPDEST PUSH1 0x4 DUP1 SLOAD SWAP1 PUSH1 0x0 PUSH2 0x9D6 DUP4 PUSH2 0x45A7 JUMP JUMPDEST SWAP1 SWAP2 SSTORE POP POP PUSH1 0x4 SLOAD PUSH1 0x40 DUP1 MLOAD PUSH1 0xE0 DUP2 ADD DUP3 MSTORE DUP3 DUP2 MSTORE PUSH1 0x20 DUP1 DUP3 ADD DUP11 DUP2 MSTORE DUP3 DUP5 ADD DUP11 SWAP1 MSTORE DUP9 ISZERO ISZERO PUSH1 0x60 DUP5 ADD MSTORE PUSH1 0x80 DUP4 ADD DUP9 SWAP1 MSTORE PUSH1 0xA0 DUP4 ADD DUP8 SWAP1 MSTORE TIMESTAMP PUSH1 0xC0 DUP5 ADD MSTORE PUSH1 0x0 DUP6 DUP2 MSTORE PUSH1 0xC SWAP1 SWAP3 MSTORE SWAP3 SWAP1 KECCAK256 DUP2 MLOAD DUP2 SSTORE SWAP2 MLOAD SWAP1 SWAP2 SWAP1 PUSH1 0x1 DUP3 ADD SWAP1 PUSH2 0xA3A SWAP1 DUP3 PUSH2 0x460E JUMP JUMPDEST POP PUSH1 0x40 DUP3 ADD MLOAD PUSH1 0x2 DUP3 ADD SWAP1 PUSH2 0xA4F SWAP1 DUP3 PUSH2 0x460E JUMP JUMPDEST POP PUSH1 0x60 DUP3 ADD MLOAD PUSH1 0x3 DUP3 ADD DUP1 SLOAD PUSH1 0xFF NOT AND SWAP2 ISZERO ISZERO SWAP2 SWAP1 SWAP2 OR SWAP1 SSTORE PUSH1 0x80 DUP3 ADD MLOAD PUSH1 0x4 DUP3 ADD SSTORE PUSH1 0xA0 DUP3 ADD MLOAD PUSH1 0x5 DUP3 ADD SSTORE PUSH1 0xC0 SWAP1 SWAP2 ADD MLOAD PUSH1 0x6 SWAP1 SWAP2 ADD SSTORE PUSH1 0x0 DUP2 DUP2 MSTORE PUSH1 0x15 PUSH1 0x20 SWAP1 DUP2 MSTORE PUSH1 0x40 DUP1 DUP4 KECCAK256 DUP1 SLOAD CALLER PUSH1 0x1 PUSH1 0x1 PUSH1 0xA0 SHL SUB NOT SWAP1 SWAP2 AND DUP2 OR SWAP1 SWAP2 SSTORE DUP1 DUP5 MSTORE PUSH1 0xB DUP4 MSTORE DUP2 DUP5 KECCAK256 DUP1 SLOAD PUSH1 0x1 DUP2 ADD DUP3 SSTORE SWAP1 DUP6 MSTORE SWAP3 SWAP1 SWAP4 KECCAK256 SWAP1 SWAP2 ADD DUP4 SWAP1 SSTORE MLOAD DUP3 SWAP2 SWAP1 PUSH32 0xB9E5855C05B4297BAF0B4F6174BD05A6BD6D2E22A10A228D364B4350DCEE1918 SWAP1 PUSH2 0xAFD SWAP1 DUP12 SWAP1 PUSH2 0x3A1A JUMP JUMPDEST PUSH1 0x40 MLOAD DUP1 SWAP2 SUB SWAP1 LOG3 SWAP7 SWAP6 POP POP POP POP POP POP JUMP JUMPDEST PUSH2 0xB17 PUSH2 0x3229 JUMP JUMPDEST CALLER PUSH1 0x0 SWAP1 DUP2 MSTORE PUSH1 0x9 PUSH1 0x20 MSTORE PUSH1 0x40 SWAP1 KECCAK256 PUSH1 0x3 ADD SLOAD PUSH1 0xFF AND ISZERO DUP1 ISZERO PUSH2 0xC01 JUMPI PUSH1 0x40 DUP1 MLOAD PUSH1 0xA0 DUP2 ADD DUP3 MSTORE DUP5 DUP2 MSTORE TIMESTAMP PUSH1 0x20 DUP1 DUP4 ADD DUP3 SWAP1 MSTORE DUP3 DUP5 ADD SWAP2 SWAP1 SWAP2 MSTORE PUSH1 0x1 PUSH1 0x60 DUP4 ADD MSTORE PUSH1 0x80 DUP3 ADD DUP6 SWAP1 MSTORE CALLER PUSH1 0x0 SWAP1 DUP2 MSTORE PUSH1 0x9 SWAP1 SWAP2 MSTORE SWAP2 SWAP1 SWAP2 KECCAK256 DUP2 MLOAD DUP2 SWAP1 PUSH2 0xB7C SWAP1 DUP3 PUSH2 0x460E JUMP JUMPDEST POP PUSH1 0x20 DUP3 ADD MLOAD PUSH1 0x1 DUP3 ADD SSTORE PUSH1 0x40 DUP3 ADD MLOAD PUSH1 0x2 DUP3 ADD SSTORE PUSH1 0x60 DUP3 ADD MLOAD PUSH1 0x3 DUP3 ADD DUP1 SLOAD PUSH1 0xFF NOT AND SWAP2 ISZERO ISZERO SWAP2 SWAP1 SWAP2 OR SWAP1 SSTORE PUSH1 0x80 DUP3 ADD MLOAD PUSH1 0x4 DUP3 ADD SWAP1 PUSH2 0xBBD SWAP1 DUP3 PUSH2 0x460E JUMP JUMPDEST POP POP PUSH1 0x40 MLOAD CALLER SWAP2 POP PUSH32 0x5DF23EA22902B85ACDB8170E942605AB253B9F31ACCC498D0A7C3A43D300C675 SWAP1 PUSH2 0xBF4 SWAP1 DUP7 SWAP1 TIMESTAMP SWAP1 PUSH2 0x46CC JUMP JUMPDEST PUSH1 0x40 MLOAD DUP1 SWAP2 SUB SWAP1 LOG2 POP POP POP JUMP JUMPDEST CALLER PUSH1 0x0 SWAP1 DUP2 MSTORE PUSH1 0x9 PUSH1 0x20 MSTORE PUSH1 0x40 SWAP1 KECCAK256 PUSH2 0xC1A DUP5 DUP3 PUSH2 0x460E JUMP JUMPDEST POP CALLER PUSH1 0x0 SWAP1 DUP2 MSTORE PUSH1 0x9 PUSH1 0x20 MSTORE PUSH1 0x40 SWAP1 KECCAK256 TIMESTAMP PUSH1 0x2 DUP3 ADD SSTORE PUSH1 0x4 ADD PUSH2 0xC3D DUP4 DUP3 PUSH2 0x460E JUMP JUMPDEST POP CALLER PUSH1 0x1 PUSH1 0x1 PUSH1 0xA0 SHL SUB AND PUSH32 0x4BB993E40976C9F9359A7E8001431C7B30C1645654767BFD93570C6795AB5ABD DUP5 TIMESTAMP PUSH1 0x40 MLOAD PUSH2 0xBF4 SWAP3 SWAP2 SWAP1 PUSH2 0x46CC JUMP JUMPDEST POP POP POP JUMP JUMPDEST PUSH1 0x0 SWAP1 DUP2 MSTORE PUSH1 0x1 PUSH1 0x20 DUP2 SWAP1 MSTORE PUSH1 0x40 SWAP1 SWAP2 KECCAK256 ADD SLOAD SWAP1 JUMP JUMPDEST PUSH2 0xC9D DUP3 PUSH2 0xC7E JUMP JUMPDEST PUSH2 0xCA6 DUP2 PUSH2 0x321F JUMP JUMPDEST PUSH2 0xCB0 DUP4 DUP4 PUSH2 0x324D JUMP JUMPDEST POP POP POP POP JUMP JUMPDEST PUSH1 0x60 CALLER PUSH1 0x1 PUSH1 0x1 PUSH1 0xA0 SHL SUB DUP4 AND EQ DUP1 PUSH2 0xCE2 JUMPI POP PUSH2 0xCE2 PUSH1 0x0 DUP1 MLOAD PUSH1 0x20 PUSH2 0x4847 DUP4 CODECOPY DUP2 MLOAD SWAP2 MSTORE CALLER PUSH2 0x1B8A JUMP JUMPDEST PUSH2 0xCFE JUMPI PUSH1 0x40 MLOAD PUSH3 0x461BCD PUSH1 0xE5 SHL DUP2 MSTORE PUSH1 0x4 ADD PUSH2 0x825 SWAP1 PUSH2 0x454D JUMP JUMPDEST PUSH1 0x1 PUSH1 0x1 PUSH1 0xA0 SHL SUB DUP3 AND PUSH1 0x0 SWAP1 DUP2 MSTORE PUSH1 0xD PUSH1 0x20 SWAP1 DUP2 MSTORE PUSH1 0x40 SWAP2 DUP3 SWAP1 KECCAK256 DUP1 SLOAD DUP4 MLOAD DUP2 DUP5 MUL DUP2 ADD DUP5 ADD SWAP1 SWAP5 MSTORE DUP1 DUP5 MSTORE SWAP1 SWAP2 DUP4 ADD DUP3 DUP3 DUP1 ISZERO PUSH2 0x8CD JUMPI PUSH1 0x20 MUL DUP3 ADD SWAP2 SWAP1 PUSH1 0x0 MSTORE PUSH1 0x20 PUSH1 0x0 KECCAK256 SWAP1 DUP2 SLOAD DUP2 MSTORE PUSH1 0x20 ADD SWAP1 PUSH1 0x1 ADD SWAP1 DUP1 DUP4 GT PUSH2 0x96B JUMPI POP POP POP POP POP SWAP1 POP SWAP2 SWAP1 POP JUMP JUMPDEST PUSH1 0x1 PUSH1 0x1 PUSH1 0xA0 SHL SUB DUP2 AND CALLER EQ PUSH2 0xD8F JUMPI PUSH1 0x40 MLOAD PUSH4 0x334BD919 PUSH1 0xE1 SHL DUP2 MSTORE PUSH1 0x4 ADD PUSH1 0x40 MLOAD DUP1 SWAP2 SUB SWAP1 REVERT JUMPDEST PUSH2 0xC79 DUP3 DUP3 PUSH2 0x32C6 JUMP JUMPDEST PUSH1 0x0 PUSH2 0xDA4 DUP2 PUSH2 0x321F JUMP JUMPDEST PUSH2 0xDAC PUSH2 0x3333 JUMP JUMPDEST POP JUMP JUMPDEST PUSH1 0x0 PUSH2 0xDB9 PUSH2 0x3229 JUMP JUMPDEST CALLER PUSH1 0x1 PUSH1 0x1 PUSH1 0xA0 SHL SUB DUP7 AND EQ DUP1 PUSH2 0xDE3 JUMPI POP PUSH2 0xDE3 PUSH1 0x0 DUP1 MLOAD PUSH1 0x20 PUSH2 0x4847 DUP4 CODECOPY DUP2 MLOAD SWAP2 MSTORE CALLER PUSH2 0x1B8A JUMP JUMPDEST PUSH2 0xE1F JUMPI PUSH1 0x40 MLOAD PUSH3 0x461BCD PUSH1 0xE5 SHL DUP2 MSTORE PUSH1 0x20 PUSH1 0x4 DUP3 ADD MSTORE PUSH1 0xD PUSH1 0x24 DUP3 ADD MSTORE PUSH13 0x2737903832B936B4B9B9B4B7B7 PUSH1 0x99 SHL PUSH1 0x44 DUP3 ADD MSTORE PUSH1 0x64 ADD PUSH2 0x825 JUMP JUMPDEST PUSH1 0x8 DUP1 SLOAD SWAP1 PUSH1 0x0 PUSH2 0xE2F DUP4 PUSH2 0x45A7 JUMP JUMPDEST SWAP1 SWAP2 SSTORE POP POP PUSH1 0x8 SLOAD PUSH1 0x40 DUP1 MLOAD PUSH1 0xC0 DUP2 ADD DUP3 MSTORE DUP3 DUP2 MSTORE CALLER PUSH1 0x20 DUP3 ADD MSTORE SWAP1 DUP2 ADD DUP7 SWAP1 MSTORE PUSH1 0x60 DUP2 ADD DUP6 PUSH1 0x4 DUP2 GT ISZERO PUSH2 0xE66 JUMPI PUSH2 0xE66 PUSH2 0x3DC3 JUMP JUMPDEST DUP2 MSTORE TIMESTAMP PUSH1 0x20 DUP1 DUP4 ADD SWAP2 SWAP1 SWAP2 MSTORE PUSH1 0x40 SWAP2 DUP3 ADD DUP7 SWAP1 MSTORE PUSH1 0x0 DUP5 DUP2 MSTORE PUSH1 0x14 DUP3 MSTORE DUP3 SWAP1 KECCAK256 DUP4 MLOAD DUP2 SSTORE SWAP1 DUP4 ADD MLOAD PUSH1 0x1 DUP3 ADD DUP1 SLOAD PUSH1 0x1 PUSH1 0x1 PUSH1 0xA0 SHL SUB NOT AND PUSH1 0x1 PUSH1 0x1 PUSH1 0xA0 SHL SUB SWAP1 SWAP3 AND SWAP2 SWAP1 SWAP2 OR SWAP1 SSTORE SWAP1 DUP3 ADD MLOAD PUSH1 0x2 DUP3 ADD SWAP1 PUSH2 0xEC2 SWAP1 DUP3 PUSH2 0x460E JUMP JUMPDEST POP PUSH1 0x60 DUP3 ADD MLOAD PUSH1 0x3 DUP3 ADD DUP1 SLOAD PUSH1 0xFF NOT AND PUSH1 0x1 DUP4 PUSH1 0x4 DUP2 GT ISZERO PUSH2 0xEE6 JUMPI PUSH2 0xEE6 PUSH2 0x3DC3 JUMP JUMPDEST MUL OR SWAP1 SSTORE POP PUSH1 0x80 DUP3 ADD MLOAD PUSH1 0x4 DUP3 ADD SSTORE PUSH1 0xA0 SWAP1 SWAP2 ADD MLOAD PUSH1 0x5 SWAP1 SWAP2 ADD SSTORE PUSH1 0x0 DUP2 DUP2 MSTORE PUSH1 0x19 PUSH1 0x20 SWAP1 DUP2 MSTORE PUSH1 0x40 DUP1 DUP4 KECCAK256 DUP1 SLOAD PUSH1 0x1 PUSH1 0x1 PUSH1 0xA0 SHL SUB NOT AND PUSH1 0x1 PUSH1 0x1 PUSH1 0xA0 SHL SUB DUP12 AND SWAP1 DUP2 OR SWAP1 SWAP2 SSTORE DUP1 DUP5 MSTORE PUSH1 0x13 DUP4 MSTORE DUP2 DUP5 KECCAK256 DUP1 SLOAD PUSH1 0x1 DUP2 ADD DUP3 SSTORE SWAP1 DUP6 MSTORE SWAP3 SWAP1 SWAP4 KECCAK256 SWAP1 SWAP2 ADD DUP4 SWAP1 SSTORE MLOAD DUP3 SWAP2 CALLER SWAP2 PUSH32 0xCC936E965CB312F996247A9F5C0929B57C3078F4D25F38C1E1FA8171238E54A7 SWAP1 PUSH2 0xF81 SWAP1 DUP10 SWAP1 TIMESTAMP SWAP1 PUSH2 0x46EE JUMP JUMPDEST PUSH1 0x40 MLOAD DUP1 SWAP2 SUB SWAP1 LOG4 SWAP1 POP JUMPDEST SWAP5 SWAP4 POP POP POP POP JUMP JUMPDEST PUSH2 0xFD6 PUSH1 0x40 MLOAD DUP1 PUSH1 0xE0 ADD PUSH1 0x40 MSTORE DUP1 PUSH1 0x0 DUP2 MSTORE PUSH1 0x20 ADD PUSH1 0x60 DUP2 MSTORE PUSH1 0x20 ADD PUSH1 0x60 DUP2 MSTORE PUSH1 0x20 ADD PUSH1 0x0 ISZERO ISZERO DUP2 MSTORE PUSH1 0x20 ADD PUSH1 0x0 DUP2 MSTORE PUSH1 0x20 ADD PUSH1 0x0 DUP2 MSTORE PUSH1 0x20 ADD PUSH1 0x0 DUP2 MSTORE POP SWAP1 JUMP JUMPDEST PUSH1 0x0 DUP3 DUP2 MSTORE PUSH1 0x15 PUSH1 0x20 MSTORE PUSH1 0x40 SWAP1 KECCAK256 SLOAD PUSH1 0x1 PUSH1 0x1 PUSH1 0xA0 SHL SUB AND CALLER DUP2 EQ DUP1 PUSH2 0x100F JUMPI POP PUSH2 0x100F PUSH1 0x0 DUP1 MLOAD PUSH1 0x20 PUSH2 0x4847 DUP4 CODECOPY DUP2 MLOAD SWAP2 MSTORE CALLER PUSH2 0x1B8A JUMP JUMPDEST DUP1 PUSH2 0x1022 JUMPI POP PUSH2 0x1022 DUP2 CALLER PUSH1 0x1 DUP7 PUSH2 0x337F JUMP JUMPDEST PUSH2 0x103E JUMPI PUSH1 0x40 MLOAD PUSH3 0x461BCD PUSH1 0xE5 SHL DUP2 MSTORE PUSH1 0x4 ADD PUSH2 0x825 SWAP1 PUSH2 0x454D JUMP JUMPDEST PUSH1 0xC PUSH1 0x0 DUP5 DUP2 MSTORE PUSH1 0x20 ADD SWAP1 DUP2 MSTORE PUSH1 0x20 ADD PUSH1 0x0 KECCAK256 PUSH1 0x40 MLOAD DUP1 PUSH1 0xE0 ADD PUSH1 0x40 MSTORE SWAP1 DUP2 PUSH1 0x0 DUP3 ADD SLOAD DUP2 MSTORE PUSH1 0x20 ADD PUSH1 0x1 DUP3 ADD DUP1 SLOAD PUSH2 0x1076 SWAP1 PUSH2 0x4513 JUMP JUMPDEST DUP1 PUSH1 0x1F ADD PUSH1 0x20 DUP1 SWAP2 DIV MUL PUSH1 0x20 ADD PUSH1 0x40 MLOAD SWAP1 DUP2 ADD PUSH1 0x40 MSTORE DUP1 SWAP3 SWAP2 SWAP1 DUP2 DUP2 MSTORE PUSH1 0x20 ADD DUP3 DUP1 SLOAD PUSH2 0x10A2 SWAP1 PUSH2 0x4513 JUMP JUMPDEST DUP1 ISZERO PUSH2 0x10EF JUMPI DUP1 PUSH1 0x1F LT PUSH2 0x10C4 JUMPI PUSH2 0x100 DUP1 DUP4 SLOAD DIV MUL DUP4 MSTORE SWAP2 PUSH1 0x20 ADD SWAP2 PUSH2 0x10EF JUMP JUMPDEST DUP3 ADD SWAP2 SWAP1 PUSH1 0x0 MSTORE PUSH1 0x20 PUSH1 0x0 KECCAK256 SWAP1 JUMPDEST DUP2 SLOAD DUP2 MSTORE SWAP1 PUSH1 0x1 ADD SWAP1 PUSH1 0x20 ADD DUP1 DUP4 GT PUSH2 0x10D2 JUMPI DUP3 SWAP1 SUB PUSH1 0x1F AND DUP3 ADD SWAP2 JUMPDEST POP POP POP POP POP DUP2 MSTORE PUSH1 0x20 ADD PUSH1 0x2 DUP3 ADD DUP1 SLOAD PUSH2 0x1108 SWAP1 PUSH2 0x4513 JUMP JUMPDEST DUP1 PUSH1 0x1F ADD PUSH1 0x20 DUP1 SWAP2 DIV MUL PUSH1 0x20 ADD PUSH1 0x40 MLOAD SWAP1 DUP2 ADD PUSH1 0x40 MSTORE DUP1 SWAP3 SWAP2 SWAP1 DUP2 DUP2 MSTORE PUSH1 0x20 ADD DUP3 DUP1 SLOAD PUSH2 0x1134 SWAP1 PUSH2 0x4513 JUMP JUMPDEST DUP1 ISZERO PUSH2 0x1181 JUMPI DUP1 PUSH1 0x1F LT PUSH2 0x1156 JUMPI PUSH2 0x100 DUP1 DUP4 SLOAD DIV MUL DUP4 MSTORE SWAP2 PUSH1 0x20 ADD SWAP2 PUSH2 0x1181 JUMP JUMPDEST DUP3 ADD SWAP2 SWAP1 PUSH1 0x0 MSTORE PUSH1 0x20 PUSH1 0x0 KECCAK256 SWAP1 JUMPDEST DUP2 SLOAD DUP2 MSTORE SWAP1 PUSH1 0x1 ADD SWAP1 PUSH1 0x20 ADD DUP1 DUP4 GT PUSH2 0x1164 JUMPI DUP3 SWAP1 SUB PUSH1 0x1F AND DUP3 ADD SWAP2 JUMPDEST POP POP POP SWAP2 DUP4 MSTORE POP POP PUSH1 0x3 DUP3 ADD SLOAD PUSH1 0xFF AND ISZERO ISZERO PUSH1 0x20 DUP3 ADD MSTORE PUSH1 0x4 DUP3 ADD SLOAD PUSH1 0x40 DUP3 ADD MSTORE PUSH1 0x5 DUP3 ADD SLOAD PUSH1 0x60 DUP3 ADD MSTORE PUSH1 0x6 SWAP1 SWAP2 ADD SLOAD PUSH1 0x80 SWAP1 SWAP2 ADD MSTORE SWAP4 SWAP3 POP POP POP JUMP JUMPDEST PUSH2 0x11C7 PUSH2 0x3229 JUMP JUMPDEST PUSH1 0x0 DUP2 DUP2 MSTORE PUSH1 0x18 PUSH1 0x20 MSTORE PUSH1 0x40 SWAP1 KECCAK256 SLOAD DUP2 SWAP1 PUSH1 0x1 PUSH1 0x1 PUSH1 0xA0 SHL SUB AND CALLER EQ PUSH2 0x11FF JUMPI PUSH1 0x40 MLOAD PUSH3 0x461BCD PUSH1 0xE5 SHL DUP2 MSTORE PUSH1 0x4 ADD PUSH2 0x825 SWAP1 PUSH2 0x4709 JUMP JUMPDEST PUSH1 0x0 DUP3 DUP2 MSTORE PUSH1 0x12 PUSH1 0x20 MSTORE PUSH1 0x40 DUP1 DUP3 KECCAK256 PUSH1 0x9 ADD DUP1 SLOAD PUSH2 0xFF00 NOT AND PUSH2 0x200 OR SWAP1 SSTORE MLOAD DUP4 SWAP2 CALLER SWAP2 PUSH32 0xECC5422BDBC6A29EB33382A149718B65F504D9EBFC6AA2D2B142BCC6AD837A6B SWAP2 SWAP1 LOG3 POP POP JUMP JUMPDEST PUSH2 0x127D PUSH1 0x40 MLOAD DUP1 PUSH1 0xA0 ADD PUSH1 0x40 MSTORE DUP1 PUSH1 0x0 DUP2 MSTORE PUSH1 0x20 ADD PUSH1 0x60 DUP2 MSTORE PUSH1 0x20 ADD PUSH1 0x60 DUP2 MSTORE PUSH1 0x20 ADD PUSH1 0x0 DUP2 MSTORE PUSH1 0x20 ADD PUSH1 0x0 DUP2 MSTORE POP SWAP1 JUMP JUMPDEST PUSH1 0x0 DUP3 DUP2 MSTORE PUSH1 0x16 PUSH1 0x20 MSTORE PUSH1 0x40 SWAP1 KECCAK256 SLOAD PUSH1 0x1 PUSH1 0x1 PUSH1 0xA0 SHL SUB AND CALLER DUP2 EQ DUP1 PUSH2 0x12B6 JUMPI POP PUSH2 0x12B6 PUSH1 0x0 DUP1 MLOAD PUSH1 0x20 PUSH2 0x4847 DUP4 CODECOPY DUP2 MLOAD SWAP2 MSTORE CALLER PUSH2 0x1B8A JUMP JUMPDEST DUP1 PUSH2 0x12C9 JUMPI POP PUSH2 0x12C9 DUP2 CALLER PUSH1 0x2 DUP7 PUSH2 0x337F JUMP JUMPDEST PUSH2 0x12E5 JUMPI PUSH1 0x40 MLOAD PUSH3 0x461BCD PUSH1 0xE5 SHL DUP2 MSTORE PUSH1 0x4 ADD PUSH2 0x825 SWAP1 PUSH2 0x454D JUMP JUMPDEST PUSH1 0xE PUSH1 0x0 DUP5 DUP2 MSTORE PUSH1 0x20 ADD SWAP1 DUP2 MSTORE PUSH1 0x20 ADD PUSH1 0x0 KECCAK256 PUSH1 0x40 MLOAD DUP1 PUSH1 0xA0 ADD PUSH1 0x40 MSTORE SWAP1 DUP2 PUSH1 0x0 DUP3 ADD SLOAD DUP2 MSTORE PUSH1 0x20 ADD PUSH1 0x1 DUP3 ADD DUP1 SLOAD PUSH2 0x131D SWAP1 PUSH2 0x4513 JUMP JUMPDEST DUP1 PUSH1 0x1F ADD PUSH1 0x20 DUP1 SWAP2 DIV MUL PUSH1 0x20 ADD PUSH1 0x40 MLOAD SWAP1 DUP2 ADD PUSH1 0x40 MSTORE DUP1 SWAP3 SWAP2 SWAP1 DUP2 DUP2 MSTORE PUSH1 0x20 ADD DUP3 DUP1 SLOAD PUSH2 0x1349 SWAP1 PUSH2 0x4513 JUMP JUMPDEST DUP1 ISZERO PUSH2 0x1396 JUMPI DUP1 PUSH1 0x1F LT PUSH2 0x136B JUMPI PUSH2 0x100 DUP1 DUP4 SLOAD DIV MUL DUP4 MSTORE SWAP2 PUSH1 0x20 ADD SWAP2 PUSH2 0x1396 JUMP JUMPDEST DUP3 ADD SWAP2 SWAP1 PUSH1 0x0 MSTORE PUSH1 0x20 PUSH1 0x0 KECCAK256 SWAP1 JUMPDEST DUP2 SLOAD DUP2 MSTORE SWAP1 PUSH1 0x1 ADD SWAP1 PUSH1 0x20 ADD DUP1 DUP4 GT PUSH2 0x1379 JUMPI DUP3 SWAP1 SUB PUSH1 0x1F AND DUP3 ADD SWAP2 JUMPDEST POP POP POP POP POP DUP2 MSTORE PUSH1 0x20 ADD PUSH1 0x2 DUP3 ADD DUP1 SLOAD PUSH2 0x13AF SWAP1 PUSH2 0x4513 JUMP JUMPDEST DUP1 PUSH1 0x1F ADD PUSH1 0x20 DUP1 SWAP2 DIV MUL PUSH1 0x20 ADD PUSH1 0x40 MLOAD SWAP1 DUP2 ADD PUSH1 0x40 MSTORE DUP1 SWAP3 SWAP2 SWAP1 DUP2 DUP2 MSTORE PUSH1 0x20 ADD DUP3 DUP1 SLOAD PUSH2 0x13DB SWAP1 PUSH2 0x4513 JUMP JUMPDEST DUP1 ISZERO PUSH2 0x1428 JUMPI DUP1 PUSH1 0x1F LT PUSH2 0x13FD JUMPI PUSH2 0x100 DUP1 DUP4 SLOAD DIV MUL DUP4 MSTORE SWAP2 PUSH1 0x20 ADD SWAP2 PUSH2 0x1428 JUMP JUMPDEST DUP3 ADD SWAP2 SWAP1 PUSH1 0x0 MSTORE PUSH1 0x20 PUSH1 0x0 KECCAK256 SWAP1 JUMPDEST DUP2 SLOAD DUP2 MSTORE SWAP1 PUSH1 0x1 ADD SWAP1 PUSH1 0x20 ADD DUP1 DUP4 GT PUSH2 0x140B JUMPI DUP3 SWAP1 SUB PUSH1 0x1F AND DUP3 ADD SWAP2 JUMPDEST POP POP POP POP POP DUP2 MSTORE PUSH1 0x20 ADD PUSH1 0x3 DUP3 ADD SLOAD DUP2 MSTORE PUSH1 0x20 ADD PUSH1 0x4 DUP3 ADD SLOAD DUP2 MSTORE POP POP SWAP2 POP POP SWAP2 SWAP1 POP JUMP JUMPDEST PUSH2 0x1455 PUSH2 0x3853 JUMP JUMPDEST PUSH1 0x0 DUP3 DUP2 MSTORE PUSH1 0x19 PUSH1 0x20 MSTORE PUSH1 0x40 SWAP1 KECCAK256 SLOAD PUSH1 0x1 PUSH1 0x1 PUSH1 0xA0 SHL SUB AND CALLER DUP2 EQ DUP1 PUSH2 0x148E JUMPI POP PUSH2 0x148E PUSH1 0x0 DUP1 MLOAD PUSH1 0x20 PUSH2 0x4847 DUP4 CODECOPY DUP2 MLOAD SWAP2 MSTORE CALLER PUSH2 0x1B8A JUMP JUMPDEST PUSH2 0x14AA JUMPI PUSH1 0x40 MLOAD PUSH3 0x461BCD PUSH1 0xE5 SHL DUP2 MSTORE PUSH1 0x4 ADD PUSH2 0x825 SWAP1 PUSH2 0x472C JUMP JUMPDEST PUSH1 0x0 DUP4 DUP2 MSTORE PUSH1 0x14 PUSH1 0x20 SWAP1 DUP2 MSTORE PUSH1 0x40 SWAP2 DUP3 SWAP1 KECCAK256 DUP3 MLOAD PUSH1 0xC0 DUP2 ADD DUP5 MSTORE DUP2 SLOAD DUP2 MSTORE PUSH1 0x1 DUP3 ADD SLOAD PUSH1 0x1 PUSH1 0x1 PUSH1 0xA0 SHL SUB AND SWAP3 DUP2 ADD SWAP3 SWAP1 SWAP3 MSTORE PUSH1 0x2 DUP2 ADD DUP1 SLOAD SWAP3 SWAP4 SWAP2 SWAP3 SWAP2 DUP5 ADD SWAP2 PUSH2 0x14F4 SWAP1 PUSH2 0x4513 JUMP JUMPDEST DUP1 PUSH1 0x1F ADD PUSH1 0x20 DUP1 SWAP2 DIV MUL PUSH1 0x20 ADD PUSH1 0x40 MLOAD SWAP1 DUP2 ADD PUSH1 0x40 MSTORE DUP1 SWAP3 SWAP2 SWAP1 DUP2 DUP2 MSTORE PUSH1 0x20 ADD DUP3 DUP1 SLOAD PUSH2 0x1520 SWAP1 PUSH2 0x4513 JUMP JUMPDEST DUP1 ISZERO PUSH2 0x156D JUMPI DUP1 PUSH1 0x1F LT PUSH2 0x1542 JUMPI PUSH2 0x100 DUP1 DUP4 SLOAD DIV MUL DUP4 MSTORE SWAP2 PUSH1 0x20 ADD SWAP2 PUSH2 0x156D JUMP JUMPDEST DUP3 ADD SWAP2 SWAP1 PUSH1 0x0 MSTORE PUSH1 0x20 PUSH1 0x0 KECCAK256 SWAP1 JUMPDEST DUP2 SLOAD DUP2 MSTORE SWAP1 PUSH1 0x1 ADD SWAP1 PUSH1 0x20 ADD DUP1 DUP4 GT PUSH2 0x1550 JUMPI DUP3 SWAP1 SUB PUSH1 0x1F AND DUP3 ADD SWAP2 JUMPDEST POP POP POP SWAP2 DUP4 MSTORE POP POP PUSH1 0x3 DUP3 ADD SLOAD PUSH1 0x20 SWAP1 SWAP2 ADD SWAP1 PUSH1 0xFF AND PUSH1 0x4 DUP2 GT ISZERO PUSH2 0x1594 JUMPI PUSH2 0x1594 PUSH2 0x3DC3 JUMP JUMPDEST PUSH1 0x4 DUP2 GT ISZERO PUSH2 0x15A5 JUMPI PUSH2 0x15A5 PUSH2 0x3DC3 JUMP JUMPDEST DUP2 MSTORE PUSH1 0x4 DUP3 ADD SLOAD PUSH1 0x20 DUP3 ADD MSTORE PUSH1 0x5 SWAP1 SWAP2 ADD SLOAD PUSH1 0x40 SWAP1 SWAP2 ADD MSTORE SWAP4 SWAP3 POP POP POP JUMP JUMPDEST PUSH2 0x15CC PUSH2 0x3734 JUMP JUMPDEST PUSH2 0x15D6 PUSH1 0x0 PUSH2 0x3766 JUMP JUMPDEST JUMP JUMPDEST PUSH1 0x0 PUSH2 0x15E3 DUP2 PUSH2 0x321F JUMP JUMPDEST PUSH2 0x15FB PUSH1 0x0 DUP1 MLOAD PUSH1 0x20 PUSH2 0x4827 DUP4 CODECOPY DUP2 MLOAD SWAP2 MSTORE DUP4 PUSH2 0xC94 JUMP JUMPDEST DUP2 PUSH1 0x1 PUSH1 0x1 PUSH1 0xA0 SHL SUB AND PUSH1 0x0 DUP1 MLOAD PUSH1 0x20 PUSH2 0x4807 DUP4 CODECOPY DUP2 MLOAD SWAP2 MSTORE PUSH1 0x0 DUP1 MLOAD PUSH1 0x20 PUSH2 0x4827 DUP4 CODECOPY DUP2 MLOAD SWAP2 MSTORE PUSH1 0x40 MLOAD PUSH2 0x7BA SWAP2 DUP2 MSTORE PUSH1 0x20 ADD SWAP1 JUMP JUMPDEST PUSH1 0x0 PUSH2 0x163C PUSH2 0x3229 JUMP JUMPDEST CALLER PUSH1 0x0 SWAP1 DUP2 MSTORE PUSH1 0x9 PUSH1 0x20 MSTORE PUSH1 0x40 SWAP1 KECCAK256 PUSH1 0x3 ADD SLOAD PUSH1 0xFF AND PUSH2 0x166E JUMPI PUSH1 0x40 MLOAD PUSH3 0x461BCD PUSH1 0xE5 SHL DUP2 MSTORE PUSH1 0x4 ADD PUSH2 0x825 SWAP1 PUSH2 0x4570 JUMP JUMPDEST PUSH1 0x5 DUP1 SLOAD SWAP1 PUSH1 0x0 PUSH2 0x167E DUP4 PUSH2 0x45A7 JUMP JUMPDEST SWAP1 SWAP2 SSTORE POP POP PUSH1 0x5 SLOAD PUSH1 0x40 DUP1 MLOAD PUSH1 0xA0 DUP2 ADD DUP3 MSTORE DUP3 DUP2 MSTORE PUSH1 0x20 DUP1 DUP3 ADD DUP9 DUP2 MSTORE DUP3 DUP5 ADD DUP9 SWAP1 MSTORE PUSH1 0x60 DUP4 ADD DUP8 SWAP1 MSTORE TIMESTAMP PUSH1 0x80 DUP5 ADD MSTORE PUSH1 0x0 DUP6 DUP2 MSTORE PUSH1 0xE SWAP1 SWAP3 MSTORE SWAP3 SWAP1 KECCAK256 DUP2 MLOAD DUP2 SSTORE SWAP2 MLOAD SWAP1 SWAP2 SWAP1 PUSH1 0x1 DUP3 ADD SWAP1 PUSH2 0x16D3 SWAP1 DUP3 PUSH2 0x460E JUMP JUMPDEST POP PUSH1 0x40 DUP3 ADD MLOAD PUSH1 0x2 DUP3 ADD SWAP1 PUSH2 0x16E8 SWAP1 DUP3 PUSH2 0x460E JUMP JUMPDEST POP PUSH1 0x60 DUP3 ADD MLOAD PUSH1 0x3 DUP3 ADD SSTORE PUSH1 0x80 SWAP1 SWAP2 ADD MLOAD PUSH1 0x4 SWAP1 SWAP2 ADD SSTORE PUSH1 0x0 DUP2 DUP2 MSTORE PUSH1 0x16 PUSH1 0x20 SWAP1 DUP2 MSTORE PUSH1 0x40 DUP1 DUP4 KECCAK256 DUP1 SLOAD PUSH1 0x1 PUSH1 0x1 PUSH1 0xA0 SHL SUB NOT AND CALLER SWAP1 DUP2 OR SWAP1 SWAP2 SSTORE DUP1 DUP5 MSTORE PUSH1 0xD DUP4 MSTORE DUP2 DUP5 KECCAK256 DUP1 SLOAD PUSH1 0x1 DUP2 ADD DUP3 SSTORE SWAP1 DUP6 MSTORE SWAP3 SWAP1 SWAP4 KECCAK256 SWAP1 SWAP2 ADD DUP4 SWAP1 SSTORE MLOAD DUP3 SWAP2 SWAP1 PUSH32 0x248B56445B6B2964C05EB68404FEEBE918D6D28DE7F6386FC4CABB9E0B70D500 SWAP1 PUSH2 0x1773 SWAP1 DUP10 SWAP1 PUSH2 0x3A1A JUMP JUMPDEST PUSH1 0x40 MLOAD DUP1 SWAP2 SUB SWAP1 LOG3 SWAP5 SWAP4 POP POP POP POP JUMP JUMPDEST PUSH2 0x178B PUSH2 0x3229 JUMP JUMPDEST PUSH1 0x0 DUP7 DUP2 MSTORE PUSH1 0x15 PUSH1 0x20 MSTORE PUSH1 0x40 SWAP1 KECCAK256 SLOAD DUP7 SWAP1 PUSH1 0x1 PUSH1 0x1 PUSH1 0xA0 SHL SUB AND CALLER EQ PUSH2 0x17C3 JUMPI PUSH1 0x40 MLOAD PUSH3 0x461BCD PUSH1 0xE5 SHL DUP2 MSTORE PUSH1 0x4 ADD PUSH2 0x825 SWAP1 PUSH2 0x4709 JUMP JUMPDEST PUSH1 0x0 DUP8 DUP2 MSTORE PUSH1 0xC PUSH1 0x20 MSTORE PUSH1 0x40 SWAP1 KECCAK256 PUSH1 0x1 DUP2 ADD PUSH2 0x17DF DUP9 DUP3 PUSH2 0x460E JUMP JUMPDEST POP PUSH1 0x2 DUP2 ADD PUSH2 0x17EE DUP8 DUP3 PUSH2 0x460E JUMP JUMPDEST POP PUSH1 0x3 DUP2 ADD DUP1 SLOAD PUSH1 0xFF NOT AND DUP7 ISZERO ISZERO OR SWAP1 SSTORE PUSH1 0x4 DUP2 ADD DUP5 SWAP1 SSTORE PUSH1 0x5 DUP2 ADD DUP4 SWAP1 SSTORE PUSH1 0x40 MLOAD DUP9 SWAP1 CALLER SWAP1 PUSH32 0x4D3508C2ADE1F9D136F8852A5ED95ACE66534D58AB56C35DD69E8AE6ECC8A711 SWAP1 PUSH2 0x1841 SWAP1 DUP12 SWAP1 PUSH2 0x3A1A JUMP JUMPDEST PUSH1 0x40 MLOAD DUP1 SWAP2 SUB SWAP1 LOG3 POP POP POP POP POP POP POP POP JUMP JUMPDEST PUSH1 0x0 PUSH2 0x185E DUP2 PUSH2 0x321F JUMP JUMPDEST PUSH2 0xDAC PUSH2 0x37B6 JUMP JUMPDEST PUSH2 0x186E PUSH2 0x3229 JUMP JUMPDEST PUSH1 0x0 DUP5 DUP2 MSTORE PUSH1 0x16 PUSH1 0x20 MSTORE PUSH1 0x40 SWAP1 KECCAK256 SLOAD DUP5 SWAP1 PUSH1 0x1 PUSH1 0x1 PUSH1 0xA0 SHL SUB AND CALLER EQ PUSH2 0x18A6 JUMPI PUSH1 0x40 MLOAD PUSH3 0x461BCD PUSH1 0xE5 SHL DUP2 MSTORE PUSH1 0x4 ADD PUSH2 0x825 SWAP1 PUSH2 0x4709 JUMP JUMPDEST PUSH1 0x0 DUP6 DUP2 MSTORE PUSH1 0xE PUSH1 0x20 MSTORE PUSH1 0x40 SWAP1 KECCAK256 PUSH1 0x1 DUP2 ADD PUSH2 0x18C2 DUP7 DUP3 PUSH2 0x460E JUMP JUMPDEST POP PUSH1 0x2 DUP2 ADD PUSH2 0x18D1 DUP6 DUP3 PUSH2 0x460E JUMP JUMPDEST POP PUSH1 0x3 DUP2 ADD DUP4 SWAP1 SSTORE PUSH1 0x40 MLOAD DUP7 SWAP1 CALLER SWAP1 PUSH32 0x44F08082EF5253266E365753C1E7CEA2B4BB2025062F0CF4E2288FC811D941C8 SWAP1 PUSH2 0x190D SWAP1 DUP10 SWAP1 PUSH2 0x3A1A JUMP JUMPDEST PUSH1 0x40 MLOAD DUP1 SWAP2 SUB SWAP1 LOG3 POP POP POP POP POP POP JUMP JUMPDEST PUSH1 0x0 PUSH2 0x1927 PUSH2 0x3229 JUMP JUMPDEST CALLER PUSH1 0x0 SWAP1 DUP2 MSTORE PUSH1 0x9 PUSH1 0x20 MSTORE PUSH1 0x40 SWAP1 KECCAK256 PUSH1 0x3 ADD SLOAD PUSH1 0xFF AND PUSH2 0x1959 JUMPI PUSH1 0x40 MLOAD PUSH3 0x461BCD PUSH1 0xE5 SHL DUP2 MSTORE PUSH1 0x4 ADD PUSH2 0x825 SWAP1 PUSH2 0x4570 JUMP JUMPDEST PUSH1 0x6 DUP1 SLOAD SWAP1 PUSH1 0x0 PUSH2 0x1969 DUP4 PUSH2 0x45A7 JUMP JUMPDEST SWAP2 SWAP1 POP SSTORE POP PUSH1 0x0 PUSH1 0x6 SLOAD SWAP1 POP PUSH1 0x40 MLOAD DUP1 PUSH2 0x100 ADD PUSH1 0x40 MSTORE DUP1 DUP3 DUP2 MSTORE PUSH1 0x20 ADD DUP10 DUP2 MSTORE PUSH1 0x20 ADD DUP9 DUP2 MSTORE PUSH1 0x20 ADD DUP8 PUSH1 0x7 DUP2 GT ISZERO PUSH2 0x19A5 JUMPI PUSH2 0x19A5 PUSH2 0x3DC3 JUMP JUMPDEST DUP2 MSTORE DUP7 ISZERO ISZERO PUSH1 0x20 DUP1 DUP4 ADD SWAP2 SWAP1 SWAP2 MSTORE PUSH1 0x40 DUP1 DUP4 ADD DUP9 SWAP1 MSTORE TIMESTAMP PUSH1 0x60 DUP5 ADD MSTORE PUSH1 0x80 SWAP1 SWAP3 ADD DUP7 SWAP1 MSTORE PUSH1 0x0 DUP5 DUP2 MSTORE PUSH1 0x10 DUP3 MSTORE SWAP2 SWAP1 SWAP2 KECCAK256 DUP3 MLOAD DUP2 SSTORE SWAP1 DUP3 ADD MLOAD PUSH1 0x1 DUP3 ADD SWAP1 PUSH2 0x19ED SWAP1 DUP3 PUSH2 0x460E JUMP JUMPDEST POP PUSH1 0x40 DUP3 ADD MLOAD PUSH1 0x2 DUP3 ADD SWAP1 PUSH2 0x1A02 SWAP1 DUP3 PUSH2 0x460E JUMP JUMPDEST POP PUSH1 0x60 DUP3 ADD MLOAD PUSH1 0x3 DUP3 ADD DUP1 SLOAD PUSH1 0xFF NOT AND PUSH1 0x1 DUP4 PUSH1 0x7 DUP2 GT ISZERO PUSH2 0x1A26 JUMPI PUSH2 0x1A26 PUSH2 0x3DC3 JUMP JUMPDEST MUL OR SWAP1 SSTORE POP PUSH1 0x80 DUP3 ADD MLOAD PUSH1 0x3 DUP3 ADD DUP1 SLOAD SWAP2 ISZERO ISZERO PUSH2 0x100 MUL PUSH2 0xFF00 NOT SWAP1 SWAP3 AND SWAP2 SWAP1 SWAP2 OR SWAP1 SSTORE PUSH1 0xA0 DUP3 ADD MLOAD PUSH1 0x4 DUP3 ADD SSTORE PUSH1 0xC0 DUP3 ADD MLOAD PUSH1 0x5 DUP3 ADD SSTORE PUSH1 0xE0 DUP3 ADD MLOAD PUSH1 0x6 DUP3 ADD SWAP1 PUSH2 0x1A72 SWAP1 DUP3 PUSH2 0x460E JUMP JUMPDEST POP POP POP PUSH1 0x0 DUP2 DUP2 MSTORE PUSH1 0x17 PUSH1 0x20 SWAP1 DUP2 MSTORE PUSH1 0x40 DUP1 DUP4 KECCAK256 DUP1 SLOAD PUSH1 0x1 PUSH1 0x1 PUSH1 0xA0 SHL SUB NOT AND CALLER SWAP1 DUP2 OR SWAP1 SWAP2 SSTORE DUP1 DUP5 MSTORE PUSH1 0xF DUP4 MSTORE DUP2 DUP5 KECCAK256 DUP1 SLOAD PUSH1 0x1 DUP2 ADD DUP3 SSTORE SWAP1 DUP6 MSTORE SWAP3 SWAP1 SWAP4 KECCAK256 SWAP1 SWAP2 ADD DUP4 SWAP1 SSTORE MLOAD DUP3 SWAP2 SWAP1 PUSH32 0x7E2AC09F9BDE6130FF92917C5D2CC031AFBBA4154566E196417AA56EB0416793 SWAP1 PUSH2 0x1AEB SWAP1 DUP11 SWAP1 DUP14 SWAP1 PUSH2 0x474D JUMP JUMPDEST PUSH1 0x40 MLOAD DUP1 SWAP2 SUB SWAP1 LOG3 SWAP8 SWAP7 POP POP POP POP POP POP POP JUMP JUMPDEST PUSH1 0x0 SLOAD PUSH1 0x1 PUSH1 0x1 PUSH1 0xA0 SHL SUB AND SWAP1 JUMP JUMPDEST PUSH1 0x1 PUSH1 0x1 PUSH1 0xA0 SHL SUB DUP2 AND PUSH2 0x1B33 JUMPI PUSH1 0x40 MLOAD PUSH3 0x461BCD PUSH1 0xE5 SHL DUP2 MSTORE PUSH1 0x4 ADD PUSH2 0x825 SWAP1 PUSH2 0x476D JUMP JUMPDEST CALLER PUSH1 0x0 DUP2 DUP2 MSTORE PUSH1 0x1A PUSH1 0x20 MSTORE PUSH1 0x40 DUP1 DUP3 KECCAK256 DUP1 SLOAD PUSH1 0x1 PUSH1 0x1 PUSH1 0xA0 SHL SUB NOT AND PUSH1 0x1 PUSH1 0x1 PUSH1 0xA0 SHL SUB DUP7 AND SWAP1 DUP2 OR SWAP1 SWAP2 SSTORE SWAP1 MLOAD SWAP1 SWAP3 SWAP2 PUSH32 0xF0E65FE0D2436800E6455B857DBFBC38741836ADE6B9BF9B8177B377317C1D5E SWAP2 LOG3 POP JUMP JUMPDEST PUSH1 0x0 SWAP2 DUP3 MSTORE PUSH1 0x1 PUSH1 0x20 SWAP1 DUP2 MSTORE PUSH1 0x40 DUP1 DUP5 KECCAK256 PUSH1 0x1 PUSH1 0x1 PUSH1 0xA0 SHL SUB SWAP4 SWAP1 SWAP4 AND DUP5 MSTORE SWAP2 SWAP1 MSTORE SWAP1 KECCAK256 SLOAD PUSH1 0xFF AND SWAP1 JUMP JUMPDEST PUSH2 0x1BBD PUSH2 0x38A3 JUMP JUMPDEST PUSH1 0x0 DUP3 DUP2 MSTORE PUSH1 0x18 PUSH1 0x20 MSTORE PUSH1 0x40 SWAP1 KECCAK256 SLOAD PUSH1 0x1 PUSH1 0x1 PUSH1 0xA0 SHL SUB AND CALLER DUP2 EQ DUP1 PUSH2 0x1BFC JUMPI POP PUSH1 0x0 DUP4 DUP2 MSTORE PUSH1 0x12 PUSH1 0x20 MSTORE PUSH1 0x40 SWAP1 KECCAK256 PUSH1 0x2 ADD SLOAD PUSH1 0x1 PUSH1 0x1 PUSH1 0xA0 SHL SUB AND CALLER EQ JUMPDEST DUP1 PUSH2 0x1C1A JUMPI POP PUSH2 0x1C1A PUSH1 0x0 DUP1 MLOAD PUSH1 0x20 PUSH2 0x4847 DUP4 CODECOPY DUP2 MLOAD SWAP2 MSTORE CALLER PUSH2 0x1B8A JUMP JUMPDEST PUSH2 0x1C36 JUMPI PUSH1 0x40 MLOAD PUSH3 0x461BCD PUSH1 0xE5 SHL DUP2 MSTORE PUSH1 0x4 ADD PUSH2 0x825 SWAP1 PUSH2 0x472C JUMP JUMPDEST PUSH1 0x0 DUP4 DUP2 MSTORE PUSH1 0x12 PUSH1 0x20 SWAP1 DUP2 MSTORE PUSH1 0x40 DUP1 DUP4 KECCAK256 DUP2 MLOAD PUSH2 0x1A0 DUP2 ADD DUP4 MSTORE DUP2 SLOAD DUP2 MSTORE PUSH1 0x1 DUP3 ADD SLOAD PUSH1 0x1 PUSH1 0x1 PUSH1 0xA0 SHL SUB SWAP1 DUP2 AND SWAP5 DUP3 ADD SWAP5 SWAP1 SWAP5 MSTORE PUSH1 0x2 DUP3 ADD SLOAD SWAP1 SWAP4 AND SWAP2 DUP4 ADD SWAP2 SWAP1 SWAP2 MSTORE PUSH1 0x3 DUP2 ADD SLOAD PUSH1 0x60 DUP4 ADD MSTORE PUSH1 0x4 DUP2 ADD DUP1 SLOAD PUSH1 0x80 DUP5 ADD SWAP2 SWAP1 PUSH2 0x1C99 SWAP1 PUSH2 0x4513 JUMP JUMPDEST DUP1 PUSH1 0x1F ADD PUSH1 0x20 DUP1 SWAP2 DIV MUL PUSH1 0x20 ADD PUSH1 0x40 MLOAD SWAP1 DUP2 ADD PUSH1 0x40 MSTORE DUP1 SWAP3 SWAP2 SWAP1 DUP2 DUP2 MSTORE PUSH1 0x20 ADD DUP3 DUP1 SLOAD PUSH2 0x1CC5 SWAP1 PUSH2 0x4513 JUMP JUMPDEST DUP1 ISZERO PUSH2 0x1D12 JUMPI DUP1 PUSH1 0x1F LT PUSH2 0x1CE7 JUMPI PUSH2 0x100 DUP1 DUP4 SLOAD DIV MUL DUP4 MSTORE SWAP2 PUSH1 0x20 ADD SWAP2 PUSH2 0x1D12 JUMP JUMPDEST DUP3 ADD SWAP2 SWAP1 PUSH1 0x0 MSTORE PUSH1 0x20 PUSH1 0x0 KECCAK256 SWAP1 JUMPDEST DUP2 SLOAD DUP2 MSTORE SWAP1 PUSH1 0x1 ADD SWAP1 PUSH1 0x20 ADD DUP1 DUP4 GT PUSH2 0x1CF5 JUMPI DUP3 SWAP1 SUB PUSH1 0x1F AND DUP3 ADD SWAP2 JUMPDEST POP POP POP SWAP2 DUP4 MSTORE POP POP PUSH1 0x5 DUP3 ADD SLOAD PUSH1 0x20 SWAP1 SWAP2 ADD SWAP1 PUSH1 0xFF AND PUSH1 0x6 DUP2 GT ISZERO PUSH2 0x1D39 JUMPI PUSH2 0x1D39 PUSH2 0x3DC3 JUMP JUMPDEST PUSH1 0x6 DUP2 GT ISZERO PUSH2 0x1D4A JUMPI PUSH2 0x1D4A PUSH2 0x3DC3 JUMP JUMPDEST DUP2 MSTORE PUSH1 0x20 ADD PUSH1 0x5 DUP3 ADD PUSH1 0x1 SWAP1 SLOAD SWAP1 PUSH2 0x100 EXP SWAP1 DIV PUSH1 0xFF AND PUSH1 0x3 DUP2 GT ISZERO PUSH2 0x1D72 JUMPI PUSH2 0x1D72 PUSH2 0x3DC3 JUMP JUMPDEST PUSH1 0x3 DUP2 GT ISZERO PUSH2 0x1D83 JUMPI PUSH2 0x1D83 PUSH2 0x3DC3 JUMP JUMPDEST DUP2 MSTORE PUSH1 0x6 DUP3 ADD SLOAD PUSH1 0x20 DUP3 ADD MSTORE PUSH1 0x7 DUP3 ADD SLOAD PUSH1 0x40 DUP3 ADD MSTORE PUSH1 0x8 DUP3 ADD SLOAD PUSH1 0x60 DUP3 ADD MSTORE PUSH1 0x9 DUP3 ADD SLOAD PUSH1 0x80 SWAP1 SWAP2 ADD SWAP1 PUSH1 0xFF AND PUSH1 0x2 DUP2 GT ISZERO PUSH2 0x1DC2 JUMPI PUSH2 0x1DC2 PUSH2 0x3DC3 JUMP JUMPDEST PUSH1 0x2 DUP2 GT ISZERO PUSH2 0x1DD3 JUMPI PUSH2 0x1DD3 PUSH2 0x3DC3 JUMP JUMPDEST DUP2 MSTORE PUSH1 0x20 ADD PUSH1 0x9 DUP3 ADD PUSH1 0x1 SWAP1 SLOAD SWAP1 PUSH2 0x100 EXP SWAP1 DIV PUSH1 0xFF AND PUSH1 0x2 DUP2 GT ISZERO PUSH2 0x1DFB JUMPI PUSH2 0x1DFB PUSH2 0x3DC3 JUMP JUMPDEST PUSH1 0x2 DUP2 GT ISZERO PUSH2 0x1E0C JUMPI PUSH2 0x1E0C PUSH2 0x3DC3 JUMP JUMPDEST DUP2 MSTORE PUSH1 0x20 ADD PUSH1 0xA DUP3 ADD DUP1 SLOAD PUSH2 0x1E20 SWAP1 PUSH2 0x4513 JUMP JUMPDEST DUP1 PUSH1 0x1F ADD PUSH1 0x20 DUP1 SWAP2 DIV MUL PUSH1 0x20 ADD PUSH1 0x40 MLOAD SWAP1 DUP2 ADD PUSH1 0x40 MSTORE DUP1 SWAP3 SWAP2 SWAP1 DUP2 DUP2 MSTORE PUSH1 0x20 ADD DUP3 DUP1 SLOAD PUSH2 0x1E4C SWAP1 PUSH2 0x4513 JUMP JUMPDEST DUP1 ISZERO PUSH2 0x1E99 JUMPI DUP1 PUSH1 0x1F LT PUSH2 0x1E6E JUMPI PUSH2 0x100 DUP1 DUP4 SLOAD DIV MUL DUP4 MSTORE SWAP2 PUSH1 0x20 ADD SWAP2 PUSH2 0x1E99 JUMP JUMPDEST DUP3 ADD SWAP2 SWAP1 PUSH1 0x0 MSTORE PUSH1 0x20 PUSH1 0x0 KECCAK256 SWAP1 JUMPDEST DUP2 SLOAD DUP2 MSTORE SWAP1 PUSH1 0x1 ADD SWAP1 PUSH1 0x20 ADD DUP1 DUP4 GT PUSH2 0x1E7C JUMPI DUP3 SWAP1 SUB PUSH1 0x1F AND DUP3 ADD SWAP2 JUMPDEST POP POP POP POP POP DUP2 MSTORE POP POP SWAP1 POP DUP1 PUSH2 0x120 ADD MLOAD TIMESTAMP GT DUP1 ISZERO PUSH2 0x1ECE JUMPI POP PUSH1 0x0 DUP2 PUSH2 0x160 ADD MLOAD PUSH1 0x2 DUP2 GT ISZERO PUSH2 0x1ECC JUMPI PUSH2 0x1ECC PUSH2 0x3DC3 JUMP JUMPDEST EQ JUMPDEST ISZERO PUSH2 0x1EDC JUMPI PUSH1 0x1 PUSH2 0x160 DUP3 ADD MSTORE JUMPDEST SWAP4 SWAP3 POP POP POP JUMP JUMPDEST PUSH1 0x60 CALLER PUSH1 0x1 PUSH1 0x1 PUSH1 0xA0 SHL SUB DUP4 AND EQ DUP1 PUSH2 0x1F0F JUMPI POP PUSH2 0x1F0F PUSH1 0x0 DUP1 MLOAD PUSH1 0x20 PUSH2 0x4847 DUP4 CODECOPY DUP2 MLOAD SWAP2 MSTORE CALLER PUSH2 0x1B8A JUMP JUMPDEST PUSH2 0x1F2B JUMPI PUSH1 0x40 MLOAD PUSH3 0x461BCD PUSH1 0xE5 SHL DUP2 MSTORE PUSH1 0x4 ADD PUSH2 0x825 SWAP1 PUSH2 0x472C JUMP JUMPDEST PUSH1 0x1 PUSH1 0x1 PUSH1 0xA0 SHL SUB DUP3 AND PUSH1 0x0 SWAP1 DUP2 MSTORE PUSH1 0x11 PUSH1 0x20 SWAP1 DUP2 MSTORE PUSH1 0x40 SWAP2 DUP3 SWAP1 KECCAK256 DUP1 SLOAD DUP4 MLOAD DUP2 DUP5 MUL DUP2 ADD DUP5 ADD SWAP1 SWAP5 MSTORE DUP1 DUP5 MSTORE SWAP1 SWAP2 DUP4 ADD DUP3 DUP3 DUP1 ISZERO PUSH2 0x8CD JUMPI PUSH1 0x20 MUL DUP3 ADD SWAP2 SWAP1 PUSH1 0x0 MSTORE PUSH1 0x20 PUSH1 0x0 KECCAK256 SWAP1 DUP2 SLOAD DUP2 MSTORE PUSH1 0x20 ADD SWAP1 PUSH1 0x1 ADD SWAP1 DUP1 DUP4 GT PUSH2 0x96B JUMPI POP POP POP POP POP SWAP1 POP SWAP2 SWAP1 POP JUMP JUMPDEST PUSH1 0x0 PUSH2 0x1F9E DUP2 PUSH2 0x321F JUMP JUMPDEST PUSH2 0x1FB6 PUSH1 0x0 DUP1 MLOAD PUSH1 0x20 PUSH2 0x4867 DUP4 CODECOPY DUP2 MLOAD SWAP2 MSTORE DUP4 PUSH2 0xC94 JUMP JUMPDEST DUP2 PUSH1 0x1 PUSH1 0x1 PUSH1 0xA0 SHL SUB AND PUSH1 0x0 DUP1 MLOAD PUSH1 0x20 PUSH2 0x4807 DUP4 CODECOPY DUP2 MLOAD SWAP2 MSTORE PUSH1 0x0 DUP1 MLOAD PUSH1 0x20 PUSH2 0x4867 DUP4 CODECOPY DUP2 MLOAD SWAP2 MSTORE PUSH1 0x40 MLOAD PUSH2 0x7BA SWAP2 DUP2 MSTORE PUSH1 0x20 ADD SWAP1 JUMP JUMPDEST PUSH1 0x60 CALLER PUSH1 0x1 PUSH1 0x1 PUSH1 0xA0 SHL SUB DUP4 AND EQ DUP1 PUSH2 0x2019 JUMPI POP PUSH2 0x2019 PUSH1 0x0 DUP1 MLOAD PUSH1 0x20 PUSH2 0x4847 DUP4 CODECOPY DUP2 MLOAD SWAP2 MSTORE CALLER PUSH2 0x1B8A JUMP JUMPDEST PUSH2 0x2035 JUMPI PUSH1 0x40 MLOAD PUSH3 0x461BCD PUSH1 0xE5 SHL DUP2 MSTORE PUSH1 0x4 ADD PUSH2 0x825 SWAP1 PUSH2 0x472C JUMP JUMPDEST PUSH1 0x1 PUSH1 0x1 PUSH1 0xA0 SHL SUB DUP3 AND PUSH1 0x0 SWAP1 DUP2 MSTORE PUSH1 0x13 PUSH1 0x20 SWAP1 DUP2 MSTORE PUSH1 0x40 SWAP2 DUP3 SWAP1 KECCAK256 DUP1 SLOAD DUP4 MLOAD DUP2 DUP5 MUL DUP2 ADD DUP5 ADD SWAP1 SWAP5 MSTORE DUP1 DUP5 MSTORE SWAP1 SWAP2 DUP4 ADD DUP3 DUP3 DUP1 ISZERO PUSH2 0x8CD JUMPI PUSH1 0x20 MUL DUP3 ADD SWAP2 SWAP1 PUSH1 0x0 MSTORE PUSH1 0x20 PUSH1 0x0 KECCAK256 SWAP1 DUP2 SLOAD DUP2 MSTORE PUSH1 0x20 ADD SWAP1 PUSH1 0x1 ADD SWAP1 DUP1 DUP4 GT PUSH2 0x96B JUMPI POP POP POP POP POP SWAP1 POP SWAP2 SWAP1 POP JUMP JUMPDEST PUSH1 0x0 PUSH2 0x20A8 DUP2 PUSH2 0x321F JUMP JUMPDEST PUSH2 0x20C0 PUSH1 0x0 DUP1 MLOAD PUSH1 0x20 PUSH2 0x4887 DUP4 CODECOPY DUP2 MLOAD SWAP2 MSTORE DUP4 PUSH2 0xC94 JUMP JUMPDEST DUP2 PUSH1 0x1 PUSH1 0x1 PUSH1 0xA0 SHL SUB AND PUSH1 0x0 DUP1 MLOAD PUSH1 0x20 PUSH2 0x4807 DUP4 CODECOPY DUP2 MLOAD SWAP2 MSTORE PUSH1 0x0 DUP1 MLOAD PUSH1 0x20 PUSH2 0x4887 DUP4 CODECOPY DUP2 MLOAD SWAP2 MSTORE PUSH1 0x40 MLOAD PUSH2 0x7BA SWAP2 DUP2 MSTORE PUSH1 0x20 ADD SWAP1 JUMP JUMPDEST PUSH1 0xA PUSH1 0x20 MSTORE PUSH1 0x0 SWAP1 DUP2 MSTORE PUSH1 0x40 SWAP1 KECCAK256 DUP1 SLOAD PUSH1 0x1 DUP3 ADD DUP1 SLOAD SWAP2 SWAP3 SWAP2 PUSH2 0x2119 SWAP1 PUSH2 0x4513 JUMP JUMPDEST DUP1 PUSH1 0x1F ADD PUSH1 0x20 DUP1 SWAP2 DIV MUL PUSH1 0x20 ADD PUSH1 0x40 MLOAD SWAP1 DUP2 ADD PUSH1 0x40 MSTORE DUP1 SWAP3 SWAP2 SWAP1 DUP2 DUP2 MSTORE PUSH1 0x20 ADD DUP3 DUP1 SLOAD PUSH2 0x2145 SWAP1 PUSH2 0x4513 JUMP JUMPDEST DUP1 ISZERO PUSH2 0x2192 JUMPI DUP1 PUSH1 0x1F LT PUSH2 0x2167 JUMPI PUSH2 0x100 DUP1 DUP4 SLOAD DIV MUL DUP4 MSTORE SWAP2 PUSH1 0x20 ADD SWAP2 PUSH2 0x2192 JUMP JUMPDEST DUP3 ADD SWAP2 SWAP1 PUSH1 0x0 MSTORE PUSH1 0x20 PUSH1 0x0 KECCAK256 SWAP1 JUMPDEST DUP2 SLOAD DUP2 MSTORE SWAP1 PUSH1 0x1 ADD SWAP1 PUSH1 0x20 ADD DUP1 DUP4 GT PUSH2 0x2175 JUMPI DUP3 SWAP1 SUB PUSH1 0x1F AND DUP3 ADD SWAP2 JUMPDEST POP POP POP POP PUSH1 0x2 DUP4 ADD SLOAD PUSH1 0x3 SWAP1 SWAP4 ADD SLOAD SWAP2 SWAP3 SWAP2 PUSH1 0xFF AND SWAP1 POP DUP5 JUMP JUMPDEST PUSH2 0x21B4 PUSH2 0x3229 JUMP JUMPDEST PUSH1 0x0 DUP8 DUP2 MSTORE PUSH1 0x17 PUSH1 0x20 MSTORE PUSH1 0x40 SWAP1 KECCAK256 SLOAD DUP8 SWAP1 PUSH1 0x1 PUSH1 0x1 PUSH1 0xA0 SHL SUB AND CALLER EQ PUSH2 0x21EC JUMPI PUSH1 0x40 MLOAD PUSH3 0x461BCD PUSH1 0xE5 SHL DUP2 MSTORE PUSH1 0x4 ADD PUSH2 0x825 SWAP1 PUSH2 0x4709 JUMP JUMPDEST PUSH1 0x0 DUP9 DUP2 MSTORE PUSH1 0x10 PUSH1 0x20 MSTORE PUSH1 0x40 SWAP1 KECCAK256 PUSH1 0x1 DUP2 ADD PUSH2 0x2208 DUP10 DUP3 PUSH2 0x460E JUMP JUMPDEST POP PUSH1 0x2 DUP2 ADD PUSH2 0x2217 DUP9 DUP3 PUSH2 0x460E JUMP JUMPDEST POP PUSH1 0x3 DUP2 ADD DUP1 SLOAD DUP8 SWAP2 SWAP1 PUSH1 0xFF NOT AND PUSH1 0x1 DUP4 PUSH1 0x7 DUP2 GT ISZERO PUSH2 0x2239 JUMPI PUSH2 0x2239 PUSH2 0x3DC3 JUMP JUMPDEST MUL OR SWAP1 SSTORE POP PUSH1 0x3 DUP2 ADD DUP1 SLOAD PUSH2 0xFF00 NOT AND PUSH2 0x100 DUP8 ISZERO ISZERO MUL OR SWAP1 SSTORE PUSH1 0x4 DUP2 ADD DUP5 SWAP1 SSTORE PUSH1 0x6 DUP2 ADD PUSH2 0x2268 DUP5 DUP3 PUSH2 0x460E JUMP JUMPDEST POP DUP9 CALLER PUSH1 0x1 PUSH1 0x1 PUSH1 0xA0 SHL SUB AND PUSH32 0x194F475ED1A7936BC502C5F68BE59AB8B4E5EF3ADC105D56862F112B1547F25 DUP11 PUSH1 0x40 MLOAD PUSH2 0x22A3 SWAP2 SWAP1 PUSH2 0x3A1A JUMP JUMPDEST PUSH1 0x40 MLOAD DUP1 SWAP2 SUB SWAP1 LOG3 POP POP POP POP POP POP POP POP POP JUMP JUMPDEST PUSH2 0x22BF DUP3 PUSH2 0xC7E JUMP JUMPDEST PUSH2 0x22C8 DUP2 PUSH2 0x321F JUMP JUMPDEST PUSH2 0xCB0 DUP4 DUP4 PUSH2 0x32C6 JUMP JUMPDEST PUSH1 0x60 CALLER PUSH1 0x1 PUSH1 0x1 PUSH1 0xA0 SHL SUB DUP4 AND EQ DUP1 PUSH2 0x22FE JUMPI POP PUSH2 0x22FE PUSH1 0x0 DUP1 MLOAD PUSH1 0x20 PUSH2 0x4847 DUP4 CODECOPY DUP2 MLOAD SWAP2 MSTORE CALLER PUSH2 0x1B8A JUMP JUMPDEST PUSH2 0x231A JUMPI PUSH1 0x40 MLOAD PUSH3 0x461BCD PUSH1 0xE5 SHL DUP2 MSTORE PUSH1 0x4 ADD PUSH2 0x825 SWAP1 PUSH2 0x454D JUMP JUMPDEST PUSH1 0x1 PUSH1 0x1 PUSH1 0xA0 SHL SUB DUP3 AND PUSH1 0x0 SWAP1 DUP2 MSTORE PUSH1 0xB PUSH1 0x20 SWAP1 DUP2 MSTORE PUSH1 0x40 SWAP2 DUP3 SWAP1 KECCAK256 DUP1 SLOAD DUP4 MLOAD DUP2 DUP5 MUL DUP2 ADD DUP5 ADD SWAP1 SWAP5 MSTORE DUP1 DUP5 MSTORE SWAP1 SWAP2 DUP4 ADD DUP3 DUP3 DUP1 ISZERO PUSH2 0x8CD JUMPI PUSH1 0x20 MUL DUP3 ADD SWAP2 SWAP1 PUSH1 0x0 MSTORE PUSH1 0x20 PUSH1 0x0 KECCAK256 SWAP1 DUP2 SLOAD DUP2 MSTORE PUSH1 0x20 ADD SWAP1 PUSH1 0x1 ADD SWAP1 DUP1 DUP4 GT PUSH2 0x96B JUMPI POP POP POP POP POP SWAP1 POP SWAP2 SWAP1 POP JUMP JUMPDEST PUSH1 0x0 PUSH2 0x238D DUP2 PUSH2 0x321F JUMP JUMPDEST PUSH2 0x23A5 PUSH1 0x0 DUP1 MLOAD PUSH1 0x20 PUSH2 0x4847 DUP4 CODECOPY DUP2 MLOAD SWAP2 MSTORE DUP4 PUSH2 0xC94 JUMP JUMPDEST DUP2 PUSH1 0x1 PUSH1 0x1 PUSH1 0xA0 SHL SUB AND PUSH1 0x0 DUP1 MLOAD PUSH1 0x20 PUSH2 0x4807 DUP4 CODECOPY DUP2 MLOAD SWAP2 MSTORE PUSH1 0x0 DUP1 MLOAD PUSH1 0x20 PUSH2 0x4847 DUP4 CODECOPY DUP2 MLOAD SWAP2 MSTORE PUSH1 0x40 MLOAD PUSH2 0x7BA SWAP2 DUP2 MSTORE PUSH1 0x20 ADD SWAP1 JUMP JUMPDEST PUSH1 0x0 PUSH2 0x23E6 PUSH2 0x3229 JUMP JUMPDEST CALLER PUSH1 0x0 SWAP1 DUP2 MSTORE PUSH1 0x9 PUSH1 0x20 MSTORE PUSH1 0x40 SWAP1 KECCAK256 PUSH1 0x3 ADD SLOAD PUSH1 0xFF AND PUSH2 0x2418 JUMPI PUSH1 0x40 MLOAD PUSH3 0x461BCD PUSH1 0xE5 SHL DUP2 MSTORE PUSH1 0x4 ADD PUSH2 0x825 SWAP1 PUSH2 0x4570 JUMP JUMPDEST PUSH1 0x1 PUSH1 0x1 PUSH1 0xA0 SHL SUB DUP11 AND PUSH2 0x243E JUMPI PUSH1 0x40 MLOAD PUSH3 0x461BCD PUSH1 0xE5 SHL DUP2 MSTORE PUSH1 0x4 ADD PUSH2 0x825 SWAP1 PUSH2 0x476D JUMP JUMPDEST CALLER PUSH1 0x1 PUSH1 0x1 PUSH1 0xA0 SHL SUB DUP12 AND SUB PUSH2 0x2486 JUMPI PUSH1 0x40 MLOAD PUSH3 0x461BCD PUSH1 0xE5 SHL DUP2 MSTORE PUSH1 0x20 PUSH1 0x4 DUP3 ADD MSTORE PUSH1 0xD PUSH1 0x24 DUP3 ADD MSTORE PUSH13 0x4E6F2073656C662D7368617265 PUSH1 0x98 SHL PUSH1 0x44 DUP3 ADD MSTORE PUSH1 0x64 ADD PUSH2 0x825 JUMP JUMPDEST TIMESTAMP DUP5 GT PUSH2 0x24C6 JUMPI PUSH1 0x40 MLOAD PUSH3 0x461BCD PUSH1 0xE5 SHL DUP2 MSTORE PUSH1 0x20 PUSH1 0x4 DUP3 ADD MSTORE PUSH1 0xE PUSH1 0x24 DUP3 ADD MSTORE PUSH14 0x496E76616C696420657870697279 PUSH1 0x90 SHL PUSH1 0x44 DUP3 ADD MSTORE PUSH1 0x64 ADD PUSH2 0x825 JUMP JUMPDEST PUSH1 0x0 DUP3 MLOAD GT PUSH2 0x250F JUMPI PUSH1 0x40 MLOAD PUSH3 0x461BCD PUSH1 0xE5 SHL DUP2 MSTORE PUSH1 0x20 PUSH1 0x4 DUP3 ADD MSTORE PUSH1 0x15 PUSH1 0x24 DUP3 ADD MSTORE PUSH21 0x496E76616C696420656E63727970746564206B6579 PUSH1 0x58 SHL PUSH1 0x44 DUP3 ADD MSTORE PUSH1 0x64 ADD PUSH2 0x825 JUMP JUMPDEST PUSH1 0x0 DUP7 PUSH1 0x3 DUP2 GT ISZERO PUSH2 0x2523 JUMPI PUSH2 0x2523 PUSH2 0x3DC3 JUMP JUMPDEST SUB PUSH2 0x2582 JUMPI CALLER PUSH1 0x0 SWAP1 DUP2 MSTORE PUSH1 0x9 PUSH1 0x20 MSTORE PUSH1 0x40 SWAP1 KECCAK256 PUSH1 0x3 ADD SLOAD PUSH1 0xFF AND PUSH2 0x257D JUMPI PUSH1 0x40 MLOAD PUSH3 0x461BCD PUSH1 0xE5 SHL DUP2 MSTORE PUSH1 0x20 PUSH1 0x4 DUP3 ADD MSTORE PUSH1 0x10 PUSH1 0x24 DUP3 ADD MSTORE PUSH16 0x4E6F20706572736F6E616C20696E666F PUSH1 0x80 SHL PUSH1 0x44 DUP3 ADD MSTORE PUSH1 0x64 ADD PUSH2 0x825 JUMP JUMPDEST PUSH2 0x266F JUMP JUMPDEST PUSH1 0x1 DUP7 PUSH1 0x3 DUP2 GT ISZERO PUSH2 0x2596 JUMPI PUSH2 0x2596 PUSH2 0x3DC3 JUMP JUMPDEST SUB PUSH2 0x25D1 JUMPI PUSH1 0x0 DUP6 DUP2 MSTORE PUSH1 0x15 PUSH1 0x20 MSTORE PUSH1 0x40 SWAP1 KECCAK256 SLOAD PUSH1 0x1 PUSH1 0x1 PUSH1 0xA0 SHL SUB AND CALLER EQ PUSH2 0x257D JUMPI PUSH1 0x40 MLOAD PUSH3 0x461BCD PUSH1 0xE5 SHL DUP2 MSTORE PUSH1 0x4 ADD PUSH2 0x825 SWAP1 PUSH2 0x4793 JUMP JUMPDEST PUSH1 0x2 DUP7 PUSH1 0x3 DUP2 GT ISZERO PUSH2 0x25E5 JUMPI PUSH2 0x25E5 PUSH2 0x3DC3 JUMP JUMPDEST SUB PUSH2 0x2620 JUMPI PUSH1 0x0 DUP6 DUP2 MSTORE PUSH1 0x16 PUSH1 0x20 MSTORE PUSH1 0x40 SWAP1 KECCAK256 SLOAD PUSH1 0x1 PUSH1 0x1 PUSH1 0xA0 SHL SUB AND CALLER EQ PUSH2 0x257D JUMPI PUSH1 0x40 MLOAD PUSH3 0x461BCD PUSH1 0xE5 SHL DUP2 MSTORE PUSH1 0x4 ADD PUSH2 0x825 SWAP1 PUSH2 0x4793 JUMP JUMPDEST PUSH1 0x3 DUP7 PUSH1 0x3 DUP2 GT ISZERO PUSH2 0x2634 JUMPI PUSH2 0x2634 PUSH2 0x3DC3 JUMP JUMPDEST SUB PUSH2 0x266F JUMPI PUSH1 0x0 DUP6 DUP2 MSTORE PUSH1 0x17 PUSH1 0x20 MSTORE PUSH1 0x40 SWAP1 KECCAK256 SLOAD PUSH1 0x1 PUSH1 0x1 PUSH1 0xA0 SHL SUB AND CALLER EQ PUSH2 0x266F JUMPI PUSH1 0x40 MLOAD PUSH3 0x461BCD PUSH1 0xE5 SHL DUP2 MSTORE PUSH1 0x4 ADD PUSH2 0x825 SWAP1 PUSH2 0x4793 JUMP JUMPDEST PUSH1 0x7 DUP1 SLOAD SWAP1 PUSH1 0x0 PUSH2 0x267F DUP4 PUSH2 0x45A7 JUMP JUMPDEST SWAP2 SWAP1 POP SSTORE POP PUSH1 0x0 PUSH1 0x7 SLOAD SWAP1 POP PUSH1 0x40 MLOAD DUP1 PUSH2 0x1A0 ADD PUSH1 0x40 MSTORE DUP1 DUP3 DUP2 MSTORE PUSH1 0x20 ADD CALLER PUSH1 0x1 PUSH1 0x1 PUSH1 0xA0 SHL SUB AND DUP2 MSTORE PUSH1 0x20 ADD DUP13 PUSH1 0x1 PUSH1 0x1 PUSH1 0xA0 SHL SUB AND DUP2 MSTORE PUSH1 0x20 ADD DUP12 DUP2 MSTORE PUSH1 0x20 ADD DUP11 DUP2 MSTORE PUSH1 0x20 ADD DUP10 PUSH1 0x6 DUP2 GT ISZERO PUSH2 0x26D9 JUMPI PUSH2 0x26D9 PUSH2 0x3DC3 JUMP JUMPDEST DUP2 MSTORE PUSH1 0x20 ADD DUP9 PUSH1 0x3 DUP2 GT ISZERO PUSH2 0x26F0 JUMPI PUSH2 0x26F0 PUSH2 0x3DC3 JUMP JUMPDEST DUP2 MSTORE PUSH1 0x20 ADD DUP8 DUP2 MSTORE PUSH1 0x20 ADD TIMESTAMP DUP2 MSTORE PUSH1 0x20 ADD DUP7 DUP2 MSTORE PUSH1 0x20 ADD DUP6 PUSH1 0x2 DUP2 GT ISZERO PUSH2 0x2719 JUMPI PUSH2 0x2719 PUSH2 0x3DC3 JUMP JUMPDEST DUP2 MSTORE PUSH1 0x20 ADD PUSH1 0x0 DUP2 MSTORE PUSH1 0x20 SWAP1 DUP2 ADD DUP6 SWAP1 MSTORE PUSH1 0x0 DUP4 DUP2 MSTORE PUSH1 0x12 DUP3 MSTORE PUSH1 0x40 SWAP1 DUP2 SWAP1 KECCAK256 DUP4 MLOAD DUP2 SSTORE SWAP2 DUP4 ADD MLOAD PUSH1 0x1 DUP4 ADD DUP1 SLOAD PUSH1 0x1 PUSH1 0x1 PUSH1 0xA0 SHL SUB NOT SWAP1 DUP2 AND PUSH1 0x1 PUSH1 0x1 PUSH1 0xA0 SHL SUB SWAP4 DUP5 AND OR SWAP1 SWAP2 SSTORE SWAP2 DUP5 ADD MLOAD PUSH1 0x2 DUP5 ADD DUP1 SLOAD SWAP1 SWAP4 AND SWAP2 AND OR SWAP1 SSTORE PUSH1 0x60 DUP3 ADD MLOAD PUSH1 0x3 DUP3 ADD SSTORE PUSH1 0x80 DUP3 ADD MLOAD PUSH1 0x4 DUP3 ADD SWAP1 PUSH2 0x2792 SWAP1 DUP3 PUSH2 0x460E JUMP JUMPDEST POP PUSH1 0xA0 DUP3 ADD MLOAD PUSH1 0x5 DUP3 ADD DUP1 SLOAD PUSH1 0xFF NOT AND PUSH1 0x1 DUP4 PUSH1 0x6 DUP2 GT ISZERO PUSH2 0x27B6 JUMPI PUSH2 0x27B6 PUSH2 0x3DC3 JUMP JUMPDEST MUL OR SWAP1 SSTORE POP PUSH1 0xC0 DUP3 ADD MLOAD PUSH1 0x5 DUP3 ADD DUP1 SLOAD PUSH2 0xFF00 NOT AND PUSH2 0x100 DUP4 PUSH1 0x3 DUP2 GT ISZERO PUSH2 0x27E0 JUMPI PUSH2 0x27E0 PUSH2 0x3DC3 JUMP JUMPDEST MUL OR SWAP1 SSTORE POP PUSH1 0xE0 DUP3 ADD MLOAD PUSH1 0x6 DUP3 ADD SSTORE PUSH2 0x100 DUP3 ADD MLOAD PUSH1 0x7 DUP3 ADD SSTORE PUSH2 0x120 DUP3 ADD MLOAD PUSH1 0x8 DUP3 ADD SSTORE PUSH2 0x140 DUP3 ADD MLOAD PUSH1 0x9 DUP3 ADD DUP1 SLOAD PUSH1 0xFF NOT AND PUSH1 0x1 DUP4 PUSH1 0x2 DUP2 GT ISZERO PUSH2 0x2829 JUMPI PUSH2 0x2829 PUSH2 0x3DC3 JUMP JUMPDEST MUL OR SWAP1 SSTORE POP PUSH2 0x160 DUP3 ADD MLOAD PUSH1 0x9 DUP3 ADD DUP1 SLOAD PUSH2 0xFF00 NOT AND PUSH2 0x100 DUP4 PUSH1 0x2 DUP2 GT ISZERO PUSH2 0x2854 JUMPI PUSH2 0x2854 PUSH2 0x3DC3 JUMP JUMPDEST MUL OR SWAP1 SSTORE POP PUSH2 0x180 DUP3 ADD MLOAD PUSH1 0xA DUP3 ADD SWAP1 PUSH2 0x286E SWAP1 DUP3 PUSH2 0x460E JUMP JUMPDEST POP POP POP PUSH1 0x0 DUP2 DUP2 MSTORE PUSH1 0x18 PUSH1 0x20 SWAP1 DUP2 MSTORE PUSH1 0x40 DUP1 DUP4 KECCAK256 DUP1 SLOAD PUSH1 0x1 PUSH1 0x1 PUSH1 0xA0 SHL SUB NOT AND CALLER SWAP1 DUP2 OR SWAP1 SWAP2 SSTORE DUP4 MSTORE PUSH1 0x11 DUP3 MSTORE DUP3 KECCAK256 DUP1 SLOAD PUSH1 0x1 DUP2 ADD DUP3 SSTORE SWAP1 DUP4 MSTORE SWAP1 DUP3 KECCAK256 ADD DUP3 SWAP1 SSTORE DUP1 DUP9 PUSH1 0x3 DUP2 GT ISZERO PUSH2 0x28C2 JUMPI PUSH2 0x28C2 PUSH2 0x3DC3 JUMP JUMPDEST EQ PUSH2 0x290E JUMPI PUSH1 0x1 DUP9 PUSH1 0x3 DUP2 GT ISZERO PUSH2 0x28DB JUMPI PUSH2 0x28DB PUSH2 0x3DC3 JUMP JUMPDEST EQ PUSH2 0x2907 JUMPI PUSH1 0x2 DUP9 PUSH1 0x3 DUP2 GT ISZERO PUSH2 0x28F4 JUMPI PUSH2 0x28F4 PUSH2 0x3DC3 JUMP JUMPDEST EQ PUSH2 0x2900 JUMPI PUSH1 0x3 PUSH2 0x2911 JUMP JUMPDEST PUSH1 0x2 PUSH2 0x2911 JUMP JUMPDEST PUSH1 0x1 PUSH2 0x2911 JUMP JUMPDEST PUSH1 0x0 JUMPDEST SWAP1 POP DUP2 DUP13 PUSH1 0x1 PUSH1 0x1 PUSH1 0xA0 SHL SUB AND CALLER PUSH1 0x1 PUSH1 0x1 PUSH1 0xA0 SHL SUB AND PUSH32 0xA659897907550AD23DF4ACC58AF8F2928FB8C5F64323D619580011B039A8649 DUP5 DUP11 PUSH1 0x40 MLOAD PUSH2 0x2959 SWAP3 SWAP2 SWAP1 PUSH2 0x46EE JUMP JUMPDEST PUSH1 0x40 MLOAD DUP1 SWAP2 SUB SWAP1 LOG4 POP SWAP11 SWAP10 POP POP POP POP POP POP POP POP POP POP JUMP JUMPDEST PUSH2 0x2978 PUSH2 0x391B JUMP JUMPDEST PUSH1 0x0 DUP3 DUP2 MSTORE PUSH1 0x17 PUSH1 0x20 MSTORE PUSH1 0x40 SWAP1 KECCAK256 SLOAD PUSH1 0x1 PUSH1 0x1 PUSH1 0xA0 SHL SUB AND CALLER DUP2 EQ DUP1 PUSH2 0x29B1 JUMPI POP PUSH2 0x29B1 PUSH1 0x0 DUP1 MLOAD PUSH1 0x20 PUSH2 0x4847 DUP4 CODECOPY DUP2 MLOAD SWAP2 MSTORE CALLER PUSH2 0x1B8A JUMP JUMPDEST DUP1 PUSH2 0x29C4 JUMPI POP PUSH2 0x29C4 DUP2 CALLER PUSH1 0x3 DUP7 PUSH2 0x337F JUMP JUMPDEST PUSH2 0x29E0 JUMPI PUSH1 0x40 MLOAD PUSH3 0x461BCD PUSH1 0xE5 SHL DUP2 MSTORE PUSH1 0x4 ADD PUSH2 0x825 SWAP1 PUSH2 0x454D JUMP JUMPDEST PUSH1 0x10 PUSH1 0x0 DUP5 DUP2 MSTORE PUSH1 0x20 ADD SWAP1 DUP2 MSTORE PUSH1 0x20 ADD PUSH1 0x0 KECCAK256 PUSH1 0x40 MLOAD DUP1 PUSH2 0x100 ADD PUSH1 0x40 MSTORE SWAP1 DUP2 PUSH1 0x0 DUP3 ADD SLOAD DUP2 MSTORE PUSH1 0x20 ADD PUSH1 0x1 DUP3 ADD DUP1 SLOAD PUSH2 0x2A19 SWAP1 PUSH2 0x4513 JUMP JUMPDEST DUP1 PUSH1 0x1F ADD PUSH1 0x20 DUP1 SWAP2 DIV MUL PUSH1 0x20 ADD PUSH1 0x40 MLOAD SWAP1 DUP2 ADD PUSH1 0x40 MSTORE DUP1 SWAP3 SWAP2 SWAP1 DUP2 DUP2 MSTORE PUSH1 0x20 ADD DUP3 DUP1 SLOAD PUSH2 0x2A45 SWAP1 PUSH2 0x4513 JUMP JUMPDEST DUP1 ISZERO PUSH2 0x2A92 JUMPI DUP1 PUSH1 0x1F LT PUSH2 0x2A67 JUMPI PUSH2 0x100 DUP1 DUP4 SLOAD DIV MUL DUP4 MSTORE SWAP2 PUSH1 0x20 ADD SWAP2 PUSH2 0x2A92 JUMP JUMPDEST DUP3 ADD SWAP2 SWAP1 PUSH1 0x0 MSTORE PUSH1 0x20 PUSH1 0x0 KECCAK256 SWAP1 JUMPDEST DUP2 SLOAD DUP2 MSTORE SWAP1 PUSH1 0x1 ADD SWAP1 PUSH1 0x20 ADD DUP1 DUP4 GT PUSH2 0x2A75 JUMPI DUP3 SWAP1 SUB PUSH1 0x1F AND DUP3 ADD SWAP2 JUMPDEST POP POP POP POP POP DUP2 MSTORE PUSH1 0x20 ADD PUSH1 0x2 DUP3 ADD DUP1 SLOAD PUSH2 0x2AAB SWAP1 PUSH2 0x4513 JUMP JUMPDEST DUP1 PUSH1 0x1F ADD PUSH1 0x20 DUP1 SWAP2 DIV MUL PUSH1 0x20 ADD PUSH1 0x40 MLOAD SWAP1 DUP2 ADD PUSH1 0x40 MSTORE DUP1 SWAP3 SWAP2 SWAP1 DUP2 DUP2 MSTORE PUSH1 0x20 ADD DUP3 DUP1 SLOAD PUSH2 0x2AD7 SWAP1 PUSH2 0x4513 JUMP JUMPDEST DUP1 ISZERO PUSH2 0x2B24 JUMPI DUP1 PUSH1 0x1F LT PUSH2 0x2AF9 JUMPI PUSH2 0x100 DUP1 DUP4 SLOAD DIV MUL DUP4 MSTORE SWAP2 PUSH1 0x20 ADD SWAP2 PUSH2 0x2B24 JUMP JUMPDEST DUP3 ADD SWAP2 SWAP1 PUSH1 0x0 MSTORE PUSH1 0x20 PUSH1 0x0 KECCAK256 SWAP1 JUMPDEST DUP2 SLOAD DUP2 MSTORE SWAP1 PUSH1 0x1 ADD SWAP1 PUSH1 0x20 ADD DUP1 DUP4 GT PUSH2 0x2B07 JUMPI DUP3 SWAP1 SUB PUSH1 0x1F AND DUP3 ADD SWAP2 JUMPDEST POP POP POP SWAP2 DUP4 MSTORE POP POP PUSH1 0x3 DUP3 ADD SLOAD PUSH1 0x20 SWAP1 SWAP2 ADD SWAP1 PUSH1 0xFF AND PUSH1 0x7 DUP2 GT ISZERO PUSH2 0x2B4B JUMPI PUSH2 0x2B4B PUSH2 0x3DC3 JUMP JUMPDEST PUSH1 0x7 DUP2 GT ISZERO PUSH2 0x2B5C JUMPI PUSH2 0x2B5C PUSH2 0x3DC3 JUMP JUMPDEST DUP2 MSTORE PUSH1 0x3 DUP3 ADD SLOAD PUSH2 0x100 SWAP1 DIV PUSH1 0xFF AND ISZERO ISZERO PUSH1 0x20 DUP3 ADD MSTORE PUSH1 0x4 DUP3 ADD SLOAD PUSH1 0x40 DUP3 ADD MSTORE PUSH1 0x5 DUP3 ADD SLOAD PUSH1 0x60 DUP3 ADD MSTORE PUSH1 0x6 DUP3 ADD DUP1 SLOAD PUSH1 0x80 SWAP1 SWAP3 ADD SWAP2 PUSH2 0x2B9B SWAP1 PUSH2 0x4513 JUMP JUMPDEST DUP1 PUSH1 0x1F ADD PUSH1 0x20 DUP1 SWAP2 DIV MUL PUSH1 0x20 ADD PUSH1 0x40 MLOAD SWAP1 DUP2 ADD PUSH1 0x40 MSTORE DUP1 SWAP3 SWAP2 SWAP1 DUP2 DUP2 MSTORE PUSH1 0x20 ADD DUP3 DUP1 SLOAD PUSH2 0x2BC7 SWAP1 PUSH2 0x4513 JUMP JUMPDEST DUP1 ISZERO PUSH2 0x2C14 JUMPI DUP1 PUSH1 0x1F LT PUSH2 0x2BE9 JUMPI PUSH2 0x100 DUP1 DUP4 SLOAD DIV MUL DUP4 MSTORE SWAP2 PUSH1 0x20 ADD SWAP2 PUSH2 0x2C14 JUMP JUMPDEST DUP3 ADD SWAP2 SWAP1 PUSH1 0x0 MSTORE PUSH1 0x20 PUSH1 0x0 KECCAK256 SWAP1 JUMPDEST DUP2 SLOAD DUP2 MSTORE SWAP1 PUSH1 0x1 ADD SWAP1 PUSH1 0x20 ADD DUP1 DUP4 GT PUSH2 0x2BF7 JUMPI DUP3 SWAP1 SUB PUSH1 0x1F AND DUP3 ADD SWAP2 JUMPDEST POP POP POP POP POP DUP2 MSTORE POP POP SWAP2 POP POP SWAP2 SWAP1 POP JUMP JUMPDEST PUSH2 0x2C59 PUSH1 0x40 MLOAD DUP1 PUSH1 0xA0 ADD PUSH1 0x40 MSTORE DUP1 PUSH1 0x60 DUP2 MSTORE PUSH1 0x20 ADD PUSH1 0x0 DUP2 MSTORE PUSH1 0x20 ADD PUSH1 0x0 DUP2 MSTORE PUSH1 0x20 ADD PUSH1 0x0 ISZERO ISZERO DUP2 MSTORE PUSH1 0x20 ADD PUSH1 0x60 DUP2 MSTORE POP SWAP1 JUMP JUMPDEST CALLER PUSH1 0x1 PUSH1 0x1 PUSH1 0xA0 SHL SUB DUP4 AND EQ DUP1 PUSH2 0x2C83 JUMPI POP PUSH2 0x2C83 PUSH1 0x0 DUP1 MLOAD PUSH1 0x20 PUSH2 0x4847 DUP4 CODECOPY DUP2 MLOAD SWAP2 MSTORE CALLER PUSH2 0x1B8A JUMP JUMPDEST DUP1 PUSH2 0x2C96 JUMPI POP PUSH2 0x2C96 DUP3 CALLER PUSH1 0x0 DUP1 PUSH2 0x337F JUMP JUMPDEST PUSH2 0x2CB2 JUMPI PUSH1 0x40 MLOAD PUSH3 0x461BCD PUSH1 0xE5 SHL DUP2 MSTORE PUSH1 0x4 ADD PUSH2 0x825 SWAP1 PUSH2 0x454D JUMP JUMPDEST PUSH1 0x1 PUSH1 0x1 PUSH1 0xA0 SHL SUB DUP3 AND PUSH1 0x0 SWAP1 DUP2 MSTORE PUSH1 0x9 PUSH1 0x20 MSTORE PUSH1 0x40 SWAP1 KECCAK256 PUSH1 0x3 ADD SLOAD PUSH1 0xFF AND PUSH2 0x2D09 JUMPI PUSH1 0x40 MLOAD PUSH3 0x461BCD PUSH1 0xE5 SHL DUP2 MSTORE PUSH1 0x20 PUSH1 0x4 DUP3 ADD MSTORE PUSH1 0x9 PUSH1 0x24 DUP3 ADD MSTORE PUSH9 0x139BDD08199BDD5B99 PUSH1 0xBA SHL PUSH1 0x44 DUP3 ADD MSTORE PUSH1 0x64 ADD PUSH2 0x825 JUMP JUMPDEST PUSH1 0x1 PUSH1 0x1 PUSH1 0xA0 SHL SUB DUP3 AND PUSH1 0x0 SWAP1 DUP2 MSTORE PUSH1 0x9 PUSH1 0x20 MSTORE PUSH1 0x40 SWAP1 DUP2 SWAP1 KECCAK256 DUP2 MLOAD PUSH1 0xA0 DUP2 ADD SWAP1 SWAP3 MSTORE DUP1 SLOAD DUP3 SWAP1 DUP3 SWAP1 PUSH2 0x2D3B SWAP1 PUSH2 0x4513 JUMP JUMPDEST DUP1 PUSH1 0x1F ADD PUSH1 0x20 DUP1 SWAP2 DIV MUL PUSH1 0x20 ADD PUSH1 0x40 MLOAD SWAP1 DUP2 ADD PUSH1 0x40 MSTORE DUP1 SWAP3 SWAP2 SWAP1 DUP2 DUP2 MSTORE PUSH1 0x20 ADD DUP3 DUP1 SLOAD PUSH2 0x2D67 SWAP1 PUSH2 0x4513 JUMP JUMPDEST DUP1 ISZERO PUSH2 0x2DB4 JUMPI DUP1 PUSH1 0x1F LT PUSH2 0x2D89 JUMPI PUSH2 0x100 DUP1 DUP4 SLOAD DIV MUL DUP4 MSTORE SWAP2 PUSH1 0x20 ADD SWAP2 PUSH2 0x2DB4 JUMP JUMPDEST DUP3 ADD SWAP2 SWAP1 PUSH1 0x0 MSTORE PUSH1 0x20 PUSH1 0x0 KECCAK256 SWAP1 JUMPDEST DUP2 SLOAD DUP2 MSTORE SWAP1 PUSH1 0x1 ADD SWAP1 PUSH1 0x20 ADD DUP1 DUP4 GT PUSH2 0x2D97 JUMPI DUP3 SWAP1 SUB PUSH1 0x1F AND DUP3 ADD SWAP2 JUMPDEST POP POP POP SWAP2 DUP4 MSTORE POP POP PUSH1 0x1 DUP3 ADD SLOAD PUSH1 0x20 DUP3 ADD MSTORE PUSH1 0x2 DUP3 ADD SLOAD PUSH1 0x40 DUP3 ADD MSTORE PUSH1 0x3 DUP3 ADD SLOAD PUSH1 0xFF AND ISZERO ISZERO PUSH1 0x60 DUP3 ADD MSTORE PUSH1 0x4 DUP3 ADD DUP1 SLOAD PUSH1 0x80 SWAP1 SWAP3 ADD SWAP2 PUSH2 0x2DF4 SWAP1 PUSH2 0x4513 JUMP JUMPDEST DUP1 PUSH1 0x1F ADD PUSH1 0x20 DUP1 SWAP2 DIV MUL PUSH1 0x20 ADD PUSH1 0x40 MLOAD SWAP1 DUP2 ADD PUSH1 0x40 MSTORE DUP1 SWAP3 SWAP2 SWAP1 DUP2 DUP2 MSTORE PUSH1 0x20 ADD DUP3 DUP1 SLOAD PUSH2 0x2E20 SWAP1 PUSH2 0x4513 JUMP JUMPDEST DUP1 ISZERO PUSH2 0x2E6D JUMPI DUP1 PUSH1 0x1F LT PUSH2 0x2E42 JUMPI PUSH2 0x100 DUP1 DUP4 SLOAD DIV MUL DUP4 MSTORE SWAP2 PUSH1 0x20 ADD SWAP2 PUSH2 0x2E6D JUMP JUMPDEST DUP3 ADD SWAP2 SWAP1 PUSH1 0x0 MSTORE PUSH1 0x20 PUSH1 0x0 KECCAK256 SWAP1 JUMPDEST DUP2 SLOAD DUP2 MSTORE SWAP1 PUSH1 0x1 ADD SWAP1 PUSH1 0x20 ADD DUP1 DUP4 GT PUSH2 0x2E50 JUMPI DUP3 SWAP1 SUB PUSH1 0x1F AND DUP3 ADD SWAP2 JUMPDEST POP POP POP POP POP DUP2 MSTORE POP POP SWAP1 POP SWAP2 SWAP1 POP JUMP JUMPDEST PUSH1 0x60 CALLER PUSH1 0x1 PUSH1 0x1 PUSH1 0xA0 SHL SUB DUP4 AND EQ DUP1 PUSH2 0x2EA9 JUMPI POP PUSH2 0x2EA9 PUSH1 0x0 DUP1 MLOAD PUSH1 0x20 PUSH2 0x4847 DUP4 CODECOPY DUP2 MLOAD SWAP2 MSTORE CALLER PUSH2 0x1B8A JUMP JUMPDEST PUSH2 0x2EC5 JUMPI PUSH1 0x40 MLOAD PUSH3 0x461BCD PUSH1 0xE5 SHL DUP2 MSTORE PUSH1 0x4 ADD PUSH2 0x825 SWAP1 PUSH2 0x472C JUMP JUMPDEST PUSH1 0x0 PUSH1 0x1 JUMPDEST PUSH1 0x7 SLOAD DUP2 GT PUSH2 0x2F4D JUMPI PUSH1 0x0 DUP2 DUP2 MSTORE PUSH1 0x12 PUSH1 0x20 MSTORE PUSH1 0x40 SWAP1 KECCAK256 PUSH1 0x2 ADD SLOAD PUSH1 0x1 PUSH1 0x1 PUSH1 0xA0 SHL SUB DUP6 DUP2 AND SWAP2 AND EQ DUP1 ISZERO PUSH2 0x2F28 JUMPI POP PUSH1 0x0 DUP1 DUP3 DUP2 MSTORE PUSH1 0x12 PUSH1 0x20 MSTORE PUSH1 0x40 SWAP1 KECCAK256 PUSH1 0x9 ADD SLOAD PUSH2 0x100 SWAP1 DIV PUSH1 0xFF AND PUSH1 0x2 DUP2 GT ISZERO PUSH2 0x2F26 JUMPI PUSH2 0x2F26 PUSH2 0x3DC3 JUMP JUMPDEST EQ JUMPDEST ISZERO PUSH2 0x2F3B JUMPI DUP2 PUSH2 0x2F37 DUP2 PUSH2 0x45A7 JUMP JUMPDEST SWAP3 POP POP JUMPDEST DUP1 PUSH2 0x2F45 DUP2 PUSH2 0x45A7 JUMP JUMPDEST SWAP2 POP POP PUSH2 0x2ECA JUMP JUMPDEST POP PUSH1 0x0 DUP2 PUSH1 0x1 PUSH1 0x1 PUSH1 0x40 SHL SUB DUP2 GT ISZERO PUSH2 0x2F68 JUMPI PUSH2 0x2F68 PUSH2 0x3A70 JUMP JUMPDEST PUSH1 0x40 MLOAD SWAP1 DUP1 DUP3 MSTORE DUP1 PUSH1 0x20 MUL PUSH1 0x20 ADD DUP3 ADD PUSH1 0x40 MSTORE DUP1 ISZERO PUSH2 0x2F91 JUMPI DUP2 PUSH1 0x20 ADD PUSH1 0x20 DUP3 MUL DUP1 CALLDATASIZE DUP4 CALLDATACOPY ADD SWAP1 POP JUMPDEST POP SWAP1 POP PUSH1 0x0 PUSH1 0x1 JUMPDEST PUSH1 0x7 SLOAD DUP2 GT PUSH2 0x303A JUMPI PUSH1 0x0 DUP2 DUP2 MSTORE PUSH1 0x12 PUSH1 0x20 MSTORE PUSH1 0x40 SWAP1 KECCAK256 PUSH1 0x2 ADD SLOAD PUSH1 0x1 PUSH1 0x1 PUSH1 0xA0 SHL SUB DUP8 DUP2 AND SWAP2 AND EQ DUP1 ISZERO PUSH2 0x2FF7 JUMPI POP PUSH1 0x0 DUP1 DUP3 DUP2 MSTORE PUSH1 0x12 PUSH1 0x20 MSTORE PUSH1 0x40 SWAP1 KECCAK256 PUSH1 0x9 ADD SLOAD PUSH2 0x100 SWAP1 DIV PUSH1 0xFF AND PUSH1 0x2 DUP2 GT ISZERO PUSH2 0x2FF5 JUMPI PUSH2 0x2FF5 PUSH2 0x3DC3 JUMP JUMPDEST EQ JUMPDEST ISZERO PUSH2 0x3028 JUMPI DUP1 DUP4 DUP4 DUP2 MLOAD DUP2 LT PUSH2 0x300F JUMPI PUSH2 0x300F PUSH2 0x47BD JUMP JUMPDEST PUSH1 0x20 SWAP1 DUP2 MUL SWAP2 SWAP1 SWAP2 ADD ADD MSTORE DUP2 PUSH2 0x3024 DUP2 PUSH2 0x45A7 JUMP JUMPDEST SWAP3 POP POP JUMPDEST DUP1 PUSH2 0x3032 DUP2 PUSH2 0x45A7 JUMP JUMPDEST SWAP2 POP POP PUSH2 0x2F99 JUMP JUMPDEST POP SWAP1 SWAP5 SWAP4 POP POP POP POP JUMP JUMPDEST PUSH2 0x304C PUSH2 0x3734 JUMP JUMPDEST PUSH1 0x1 PUSH1 0x1 PUSH1 0xA0 SHL SUB DUP2 AND PUSH2 0x3076 JUMPI PUSH1 0x0 PUSH1 0x40 MLOAD PUSH4 0x1E4FBDF7 PUSH1 0xE0 SHL DUP2 MSTORE PUSH1 0x4 ADD PUSH2 0x825 SWAP2 SWAP1 PUSH2 0x3C39 JUMP JUMPDEST PUSH2 0xDAC DUP2 PUSH2 0x3766 JUMP JUMPDEST PUSH1 0x0 PUSH2 0x308A DUP2 PUSH2 0x321F JUMP JUMPDEST PUSH2 0x3094 DUP3 DUP5 PUSH2 0x22B6 JUMP JUMPDEST DUP3 PUSH1 0x1 PUSH1 0x1 PUSH1 0xA0 SHL SUB AND PUSH32 0x2EC6B3B60CF0B79D925A613D31F267DFA6BBE1350819A7785767E183BFB3D87F DUP4 PUSH1 0x40 MLOAD PUSH2 0xBF4 SWAP2 DUP2 MSTORE PUSH1 0x20 ADD SWAP1 JUMP JUMPDEST PUSH2 0x30D7 PUSH2 0x3229 JUMP JUMPDEST PUSH1 0x0 DUP3 MLOAD GT PUSH2 0x311C JUMPI PUSH1 0x40 MLOAD PUSH3 0x461BCD PUSH1 0xE5 SHL DUP2 MSTORE PUSH1 0x20 PUSH1 0x4 DUP3 ADD MSTORE PUSH1 0x11 PUSH1 0x24 DUP3 ADD MSTORE PUSH17 0x92DCECC2D8D2C84092A08CA640D0C2E6D PUSH1 0x7B SHL PUSH1 0x44 DUP3 ADD MSTORE PUSH1 0x64 ADD PUSH2 0x825 JUMP JUMPDEST DUP1 PUSH2 0x315C JUMPI PUSH1 0x40 MLOAD PUSH3 0x461BCD PUSH1 0xE5 SHL DUP2 MSTORE PUSH1 0x20 PUSH1 0x4 DUP3 ADD MSTORE PUSH1 0x10 PUSH1 0x24 DUP3 ADD MSTORE PUSH16 0x92DCECC2D8D2C840D6CAF240D0C2E6D PUSH1 0x83 SHL PUSH1 0x44 DUP3 ADD MSTORE PUSH1 0x64 ADD PUSH2 0x825 JUMP JUMPDEST CALLER PUSH1 0x0 SWAP1 DUP2 MSTORE PUSH1 0xA PUSH1 0x20 MSTORE PUSH1 0x40 DUP2 KECCAK256 PUSH1 0x2 ADD SLOAD PUSH2 0x317A SWAP1 PUSH1 0x1 PUSH2 0x47D3 JUMP JUMPDEST PUSH1 0x40 DUP1 MLOAD PUSH1 0x80 DUP2 ADD DUP3 MSTORE DUP5 DUP2 MSTORE PUSH1 0x20 DUP1 DUP3 ADD DUP8 DUP2 MSTORE DUP3 DUP5 ADD DUP6 SWAP1 MSTORE PUSH1 0x1 PUSH1 0x60 DUP5 ADD DUP2 SWAP1 MSTORE CALLER PUSH1 0x0 SWAP1 DUP2 MSTORE PUSH1 0xA SWAP1 SWAP4 MSTORE SWAP4 SWAP1 SWAP2 KECCAK256 DUP3 MLOAD DUP2 SSTORE SWAP1 MLOAD SWAP4 SWAP5 POP SWAP1 SWAP3 SWAP1 SWAP2 DUP3 ADD SWAP1 PUSH2 0x31C7 SWAP1 DUP3 PUSH2 0x460E JUMP JUMPDEST POP PUSH1 0x40 DUP3 DUP2 ADD MLOAD PUSH1 0x2 DUP4 ADD SSTORE PUSH1 0x60 SWAP1 SWAP3 ADD MLOAD PUSH1 0x3 SWAP1 SWAP2 ADD DUP1 SLOAD PUSH1 0xFF NOT AND SWAP2 ISZERO ISZERO SWAP2 SWAP1 SWAP2 OR SWAP1 SSTORE MLOAD CALLER SWAP1 PUSH32 0xE0BC10B17A0C0CFCDC1CC7C3F004A014E51A2E9D8705AE3C4CE6A71CAD9FF083 SWAP1 PUSH2 0xBF4 SWAP1 DUP7 SWAP1 DUP6 SWAP1 PUSH2 0x46CC JUMP JUMPDEST PUSH2 0xDAC DUP2 CALLER PUSH2 0x37F3 JUMP JUMPDEST PUSH1 0x3 SLOAD PUSH1 0xFF AND ISZERO PUSH2 0x15D6 JUMPI PUSH1 0x40 MLOAD PUSH4 0xD93C0665 PUSH1 0xE0 SHL DUP2 MSTORE PUSH1 0x4 ADD PUSH1 0x40 MLOAD DUP1 SWAP2 SUB SWAP1 REVERT JUMPDEST PUSH1 0x0 PUSH2 0x3259 DUP4 DUP4 PUSH2 0x1B8A JUMP JUMPDEST PUSH2 0x32BE JUMPI PUSH1 0x0 DUP4 DUP2 MSTORE PUSH1 0x1 PUSH1 0x20 DUP2 DUP2 MSTORE PUSH1 0x40 DUP1 DUP5 KECCAK256 PUSH1 0x1 PUSH1 0x1 PUSH1 0xA0 SHL SUB DUP8 AND DUP1 DUP7 MSTORE SWAP3 MSTORE DUP1 DUP5 KECCAK256 DUP1 SLOAD PUSH1 0xFF NOT AND SWAP1 SWAP4 OR SWAP1 SWAP3 SSTORE SWAP1 MLOAD CALLER SWAP3 DUP7 SWAP2 PUSH32 0x2F8788117E7EFF1D82E926EC794901D17C78024A50270940304540A733656F0D SWAP2 SWAP1 LOG4 POP PUSH1 0x1 PUSH2 0x75A JUMP JUMPDEST POP PUSH1 0x0 PUSH2 0x75A JUMP JUMPDEST PUSH1 0x0 PUSH2 0x32D2 DUP4 DUP4 PUSH2 0x1B8A JUMP JUMPDEST ISZERO PUSH2 0x32BE JUMPI PUSH1 0x0 DUP4 DUP2 MSTORE PUSH1 0x1 PUSH1 0x20 SWAP1 DUP2 MSTORE PUSH1 0x40 DUP1 DUP4 KECCAK256 PUSH1 0x1 PUSH1 0x1 PUSH1 0xA0 SHL SUB DUP7 AND DUP1 DUP6 MSTORE SWAP3 MSTORE DUP1 DUP4 KECCAK256 DUP1 SLOAD PUSH1 0xFF NOT AND SWAP1 SSTORE MLOAD CALLER SWAP3 DUP7 SWAP2 PUSH32 0xF6391F5C32D9C69D2A47EA670B442974B53935D1EDC7FD64EB21E047A839171B SWAP2 SWAP1 LOG4 POP PUSH1 0x1 PUSH2 0x75A JUMP JUMPDEST PUSH2 0x333B PUSH2 0x3830 JUMP JUMPDEST PUSH1 0x3 DUP1 SLOAD PUSH1 0xFF NOT AND SWAP1 SSTORE PUSH32 0x5DB9EE0A495BF2E6FF9C91A7834C1BA4FDD244A5E8AA4E537BD38AEAE4B073AA CALLER JUMPDEST PUSH1 0x40 MLOAD PUSH2 0x3375 SWAP2 SWAP1 PUSH2 0x3C39 JUMP JUMPDEST PUSH1 0x40 MLOAD DUP1 SWAP2 SUB SWAP1 LOG1 JUMP JUMPDEST PUSH1 0x1 PUSH1 0x1 PUSH1 0xA0 SHL SUB DUP5 AND PUSH1 0x0 SWAP1 DUP2 MSTORE PUSH1 0x11 PUSH1 0x20 SWAP1 DUP2 MSTORE PUSH1 0x40 DUP1 DUP4 KECCAK256 DUP1 SLOAD DUP3 MLOAD DUP2 DUP6 MUL DUP2 ADD DUP6 ADD SWAP1 SWAP4 MSTORE DUP1 DUP4 MSTORE DUP5 SWAP4 DUP4 ADD DUP3 DUP3 DUP1 ISZERO PUSH2 0x33DC JUMPI PUSH1 0x20 MUL DUP3 ADD SWAP2 SWAP1 PUSH1 0x0 MSTORE PUSH1 0x20 PUSH1 0x0 KECCAK256 SWAP1 JUMPDEST DUP2 SLOAD DUP2 MSTORE PUSH1 0x20 ADD SWAP1 PUSH1 0x1 ADD SWAP1 DUP1 DUP4 GT PUSH2 0x33C8 JUMPI JUMPDEST POP POP POP POP POP SWAP1 POP PUSH1 0x0 JUMPDEST DUP2 MLOAD DUP2 LT ISZERO PUSH2 0x3727 JUMPI PUSH1 0x0 PUSH1 0x12 PUSH1 0x0 DUP5 DUP5 DUP2 MLOAD DUP2 LT PUSH2 0x3407 JUMPI PUSH2 0x3407 PUSH2 0x47BD JUMP JUMPDEST PUSH1 0x20 SWAP1 DUP2 MUL SWAP2 SWAP1 SWAP2 ADD DUP2 ADD MLOAD DUP3 MSTORE DUP2 DUP2 ADD SWAP3 SWAP1 SWAP3 MSTORE PUSH1 0x40 SWAP1 DUP2 ADD PUSH1 0x0 KECCAK256 DUP2 MLOAD PUSH2 0x1A0 DUP2 ADD DUP4 MSTORE DUP2 SLOAD DUP2 MSTORE PUSH1 0x1 DUP3 ADD SLOAD PUSH1 0x1 PUSH1 0x1 PUSH1 0xA0 SHL SUB SWAP1 DUP2 AND SWAP5 DUP3 ADD SWAP5 SWAP1 SWAP5 MSTORE PUSH1 0x2 DUP3 ADD SLOAD SWAP1 SWAP4 AND SWAP2 DUP4 ADD SWAP2 SWAP1 SWAP2 MSTORE PUSH1 0x3 DUP2 ADD SLOAD PUSH1 0x60 DUP4 ADD MSTORE PUSH1 0x4 DUP2 ADD DUP1 SLOAD PUSH1 0x80 DUP5 ADD SWAP2 SWAP1 PUSH2 0x3476 SWAP1 PUSH2 0x4513 JUMP JUMPDEST DUP1 PUSH1 0x1F ADD PUSH1 0x20 DUP1 SWAP2 DIV MUL PUSH1 0x20 ADD PUSH1 0x40 MLOAD SWAP1 DUP2 ADD PUSH1 0x40 MSTORE DUP1 SWAP3 SWAP2 SWAP1 DUP2 DUP2 MSTORE PUSH1 0x20 ADD DUP3 DUP1 SLOAD PUSH2 0x34A2 SWAP1 PUSH2 0x4513 JUMP JUMPDEST DUP1 ISZERO PUSH2 0x34EF JUMPI DUP1 PUSH1 0x1F LT PUSH2 0x34C4 JUMPI PUSH2 0x100 DUP1 DUP4 SLOAD DIV MUL DUP4 MSTORE SWAP2 PUSH1 0x20 ADD SWAP2 PUSH2 0x34EF JUMP JUMPDEST DUP3 ADD SWAP2 SWAP1 PUSH1 0x0 MSTORE PUSH1 0x20 PUSH1 0x0 KECCAK256 SWAP1 JUMPDEST DUP2 SLOAD DUP2 MSTORE SWAP1 PUSH1 0x1 ADD SWAP1 PUSH1 0x20 ADD DUP1 DUP4 GT PUSH2 0x34D2 JUMPI DUP3 SWAP1 SUB PUSH1 0x1F AND DUP3 ADD SWAP2 JUMPDEST POP POP POP SWAP2 DUP4 MSTORE POP POP PUSH1 0x5 DUP3 ADD SLOAD PUSH1 0x20 SWAP1 SWAP2 ADD SWAP1 PUSH1 0xFF AND PUSH1 0x6 DUP2 GT ISZERO PUSH2 0x3516 JUMPI PUSH2 0x3516 PUSH2 0x3DC3 JUMP JUMPDEST PUSH1 0x6 DUP2 GT ISZERO PUSH2 0x3527 JUMPI PUSH2 0x3527 PUSH2 0x3DC3 JUMP JUMPDEST DUP2 MSTORE PUSH1 0x20 ADD PUSH1 0x5 DUP3 ADD PUSH1 0x1 SWAP1 SLOAD SWAP1 PUSH2 0x100 EXP SWAP1 DIV PUSH1 0xFF AND PUSH1 0x3 DUP2 GT ISZERO PUSH2 0x354F JUMPI PUSH2 0x354F PUSH2 0x3DC3 JUMP JUMPDEST PUSH1 0x3 DUP2 GT ISZERO PUSH2 0x3560 JUMPI PUSH2 0x3560 PUSH2 0x3DC3 JUMP JUMPDEST DUP2 MSTORE PUSH1 0x6 DUP3 ADD SLOAD PUSH1 0x20 DUP3 ADD MSTORE PUSH1 0x7 DUP3 ADD SLOAD PUSH1 0x40 DUP3 ADD MSTORE PUSH1 0x8 DUP3 ADD SLOAD PUSH1 0x60 DUP3 ADD MSTORE PUSH1 0x9 DUP3 ADD SLOAD PUSH1 0x80 SWAP1 SWAP2 ADD SWAP1 PUSH1 0xFF AND PUSH1 0x2 DUP2 GT ISZERO PUSH2 0x359F JUMPI PUSH2 0x359F PUSH2 0x3DC3 JUMP JUMPDEST PUSH1 0x2 DUP2 GT ISZERO PUSH2 0x35B0 JUMPI PUSH2 0x35B0 PUSH2 0x3DC3 JUMP JUMPDEST DUP2 MSTORE PUSH1 0x20 ADD PUSH1 0x9 DUP3 ADD PUSH1 0x1 SWAP1 SLOAD SWAP1 PUSH2 0x100 EXP SWAP1 DIV PUSH1 0xFF AND PUSH1 0x2 DUP2 GT ISZERO PUSH2 0x35D8 JUMPI PUSH2 0x35D8 PUSH2 0x3DC3 JUMP JUMPDEST PUSH1 0x2 DUP2 GT ISZERO PUSH2 0x35E9 JUMPI PUSH2 0x35E9 PUSH2 0x3DC3 JUMP JUMPDEST DUP2 MSTORE PUSH1 0x20 ADD PUSH1 0xA DUP3 ADD DUP1 SLOAD PUSH2 0x35FD SWAP1 PUSH2 0x4513 JUMP JUMPDEST DUP1 PUSH1 0x1F ADD PUSH1 0x20 DUP1 SWAP2 DIV MUL PUSH1 0x20 ADD PUSH1 0x40 MLOAD SWAP1 DUP2 ADD PUSH1 0x40 MSTORE DUP1 SWAP3 SWAP2 SWAP1 DUP2 DUP2 MSTORE PUSH1 0x20 ADD DUP3 DUP1 SLOAD PUSH2 0x3629 SWAP1 PUSH2 0x4513 JUMP JUMPDEST DUP1 ISZERO PUSH2 0x3676 JUMPI DUP1 PUSH1 0x1F LT PUSH2 0x364B JUMPI PUSH2 0x100 DUP1 DUP4 SLOAD DIV MUL DUP4 MSTORE SWAP2 PUSH1 0x20 ADD SWAP2 PUSH2 0x3676 JUMP JUMPDEST DUP3 ADD SWAP2 SWAP1 PUSH1 0x0 MSTORE PUSH1 0x20 PUSH1 0x0 KECCAK256 SWAP1 JUMPDEST DUP2 SLOAD DUP2 MSTORE SWAP1 PUSH1 0x1 ADD SWAP1 PUSH1 0x20 ADD DUP1 DUP4 GT PUSH2 0x3659 JUMPI DUP3 SWAP1 SUB PUSH1 0x1F AND DUP3 ADD SWAP2 JUMPDEST POP POP POP POP POP DUP2 MSTORE POP POP SWAP1 POP DUP7 PUSH1 0x1 PUSH1 0x1 PUSH1 0xA0 SHL SUB AND DUP2 PUSH1 0x40 ADD MLOAD PUSH1 0x1 PUSH1 0x1 PUSH1 0xA0 SHL SUB AND EQ DUP1 ISZERO PUSH2 0x36BC JUMPI POP PUSH1 0x0 DUP2 PUSH2 0x160 ADD MLOAD PUSH1 0x2 DUP2 GT ISZERO PUSH2 0x36BA JUMPI PUSH2 0x36BA PUSH2 0x3DC3 JUMP JUMPDEST EQ JUMPDEST DUP1 ISZERO PUSH2 0x36CD JUMPI POP DUP1 PUSH2 0x120 ADD MLOAD TIMESTAMP GT ISZERO JUMPDEST DUP1 ISZERO PUSH2 0x36FE JUMPI POP DUP6 PUSH1 0x3 DUP2 GT ISZERO PUSH2 0x36E6 JUMPI PUSH2 0x36E6 PUSH2 0x3DC3 JUMP JUMPDEST DUP2 PUSH1 0xC0 ADD MLOAD PUSH1 0x3 DUP2 GT ISZERO PUSH2 0x36FC JUMPI PUSH2 0x36FC PUSH2 0x3DC3 JUMP JUMPDEST EQ JUMPDEST DUP1 ISZERO PUSH2 0x370D JUMPI POP DUP5 DUP2 PUSH1 0xE0 ADD MLOAD EQ JUMPDEST ISZERO PUSH2 0x371E JUMPI PUSH1 0x1 SWAP4 POP POP POP POP PUSH2 0xF8C JUMP JUMPDEST POP PUSH1 0x1 ADD PUSH2 0x33E6 JUMP JUMPDEST POP PUSH1 0x0 SWAP7 SWAP6 POP POP POP POP POP POP JUMP JUMPDEST CALLER PUSH2 0x373D PUSH2 0x1AFE JUMP JUMPDEST PUSH1 0x1 PUSH1 0x1 PUSH1 0xA0 SHL SUB AND EQ PUSH2 0x15D6 JUMPI CALLER PUSH1 0x40 MLOAD PUSH4 0x118CDAA7 PUSH1 0xE0 SHL DUP2 MSTORE PUSH1 0x4 ADD PUSH2 0x825 SWAP2 SWAP1 PUSH2 0x3C39 JUMP JUMPDEST PUSH1 0x0 DUP1 SLOAD PUSH1 0x1 PUSH1 0x1 PUSH1 0xA0 SHL SUB DUP4 DUP2 AND PUSH1 0x1 PUSH1 0x1 PUSH1 0xA0 SHL SUB NOT DUP4 AND DUP2 OR DUP5 SSTORE PUSH1 0x40 MLOAD SWAP2 SWAP1 SWAP3 AND SWAP3 DUP4 SWAP2 PUSH32 0x8BE0079C531659141344CD1FD0A4F28419497F9722A3DAAFE3B4186F6B6457E0 SWAP2 SWAP1 LOG3 POP POP JUMP JUMPDEST PUSH2 0x37BE PUSH2 0x3229 JUMP JUMPDEST PUSH1 0x3 DUP1 SLOAD PUSH1 0xFF NOT AND PUSH1 0x1 OR SWAP1 SSTORE PUSH32 0x62E78CEA01BEE320CD4E420270B5EA74000D11B0C9F74754EBDBFC544B05A258 PUSH2 0x3368 CALLER SWAP1 JUMP JUMPDEST PUSH2 0x37FD DUP3 DUP3 PUSH2 0x1B8A JUMP JUMPDEST PUSH2 0x382C JUMPI PUSH1 0x40 MLOAD PUSH4 0xE2517D3F PUSH1 0xE0 SHL DUP2 MSTORE PUSH1 0x1 PUSH1 0x1 PUSH1 0xA0 SHL SUB DUP3 AND PUSH1 0x4 DUP3 ADD MSTORE PUSH1 0x24 DUP2 ADD DUP4 SWAP1 MSTORE PUSH1 0x44 ADD PUSH2 0x825 JUMP JUMPDEST POP POP JUMP JUMPDEST PUSH1 0x3 SLOAD PUSH1 0xFF AND PUSH2 0x15D6 JUMPI PUSH1 0x40 MLOAD PUSH4 0x8DFC202B PUSH1 0xE0 SHL DUP2 MSTORE PUSH1 0x4 ADD PUSH1 0x40 MLOAD DUP1 SWAP2 SUB SWAP1 REVERT JUMPDEST PUSH1 0x40 MLOAD DUP1 PUSH1 0xC0 ADD PUSH1 0x40 MSTORE DUP1 PUSH1 0x0 DUP2 MSTORE PUSH1 0x20 ADD PUSH1 0x0 PUSH1 0x1 PUSH1 0x1 PUSH1 0xA0 SHL SUB AND DUP2 MSTORE PUSH1 0x20 ADD PUSH1 0x60 DUP2 MSTORE PUSH1 0x20 ADD PUSH1 0x0 PUSH1 0x4 DUP2 GT ISZERO PUSH2 0x388F JUMPI PUSH2 0x388F PUSH2 0x3DC3 JUMP JUMPDEST DUP2 MSTORE PUSH1 0x0 PUSH1 0x20 DUP3 ADD DUP2 SWAP1 MSTORE PUSH1 0x40 SWAP1 SWAP2 ADD MSTORE SWAP1 JUMP JUMPDEST PUSH1 0x40 DUP1 MLOAD PUSH2 0x1A0 DUP2 ADD DUP3 MSTORE PUSH1 0x0 DUP1 DUP3 MSTORE PUSH1 0x20 DUP3 ADD DUP2 SWAP1 MSTORE SWAP2 DUP2 ADD DUP3 SWAP1 MSTORE PUSH1 0x60 DUP1 DUP3 ADD DUP4 SWAP1 MSTORE PUSH1 0x80 DUP3 ADD MSTORE SWAP1 PUSH1 0xA0 DUP3 ADD SWAP1 DUP2 MSTORE PUSH1 0x20 ADD PUSH1 0x0 DUP2 MSTORE PUSH1 0x20 ADD PUSH1 0x0 DUP2 MSTORE PUSH1 0x20 ADD PUSH1 0x0 DUP2 MSTORE PUSH1 0x20 ADD PUSH1 0x0 DUP2 MSTORE PUSH1 0x20 ADD PUSH1 0x0 PUSH1 0x2 DUP2 GT ISZERO PUSH2 0x3907 JUMPI PUSH2 0x3907 PUSH2 0x3DC3 JUMP JUMPDEST DUP2 MSTORE PUSH1 0x20 ADD PUSH1 0x0 DUP2 MSTORE PUSH1 0x20 ADD PUSH1 0x60 DUP2 MSTORE POP SWAP1 JUMP JUMPDEST PUSH1 0x40 MLOAD DUP1 PUSH2 0x100 ADD PUSH1 0x40 MSTORE DUP1 PUSH1 0x0 DUP2 MSTORE PUSH1 0x20 ADD PUSH1 0x60 DUP2 MSTORE PUSH1 0x20 ADD PUSH1 0x60 DUP2 MSTORE PUSH1 0x20 ADD PUSH1 0x0 PUSH1 0x7 DUP2 GT ISZERO PUSH2 0x394F JUMPI PUSH2 0x394F PUSH2 0x3DC3 JUMP JUMPDEST DUP2 MSTORE PUSH1 0x20 ADD PUSH1 0x0 ISZERO ISZERO DUP2 MSTORE PUSH1 0x20 ADD PUSH1 0x0 DUP2 MSTORE PUSH1 0x20 ADD PUSH1 0x0 DUP2 MSTORE PUSH1 0x20 ADD PUSH1 0x60 DUP2 MSTORE POP SWAP1 JUMP JUMPDEST PUSH1 0x0 PUSH1 0x20 DUP3 DUP5 SUB SLT ISZERO PUSH2 0x3985 JUMPI PUSH1 0x0 DUP1 REVERT JUMPDEST DUP2 CALLDATALOAD PUSH1 0x1 PUSH1 0x1 PUSH1 0xE0 SHL SUB NOT DUP2 AND DUP2 EQ PUSH2 0x1EDC JUMPI PUSH1 0x0 DUP1 REVERT JUMPDEST DUP1 CALLDATALOAD PUSH1 0x1 PUSH1 0x1 PUSH1 0xA0 SHL SUB DUP2 AND DUP2 EQ PUSH2 0x39B4 JUMPI PUSH1 0x0 DUP1 REVERT JUMPDEST SWAP2 SWAP1 POP JUMP JUMPDEST PUSH1 0x0 PUSH1 0x20 DUP3 DUP5 SUB SLT ISZERO PUSH2 0x39CB JUMPI PUSH1 0x0 DUP1 REVERT JUMPDEST PUSH2 0x1EDC DUP3 PUSH2 0x399D JUMP JUMPDEST PUSH1 0x0 DUP2 MLOAD DUP1 DUP5 MSTORE PUSH1 0x0 JUMPDEST DUP2 DUP2 LT ISZERO PUSH2 0x39FA JUMPI PUSH1 0x20 DUP2 DUP6 ADD DUP2 ADD MLOAD DUP7 DUP4 ADD DUP3 ADD MSTORE ADD PUSH2 0x39DE JUMP JUMPDEST POP PUSH1 0x0 PUSH1 0x20 DUP3 DUP7 ADD ADD MSTORE PUSH1 0x20 PUSH1 0x1F NOT PUSH1 0x1F DUP4 ADD AND DUP6 ADD ADD SWAP2 POP POP SWAP3 SWAP2 POP POP JUMP JUMPDEST PUSH1 0x20 DUP2 MSTORE PUSH1 0x0 PUSH2 0x1EDC PUSH1 0x20 DUP4 ADD DUP5 PUSH2 0x39D4 JUMP JUMPDEST PUSH1 0x20 DUP1 DUP3 MSTORE DUP3 MLOAD DUP3 DUP3 ADD DUP2 SWAP1 MSTORE PUSH1 0x0 SWAP2 DUP5 ADD SWAP1 PUSH1 0x40 DUP5 ADD SWAP1 DUP4 JUMPDEST DUP2 DUP2 LT ISZERO PUSH2 0x3A65 JUMPI DUP4 MLOAD DUP4 MSTORE PUSH1 0x20 SWAP4 DUP5 ADD SWAP4 SWAP1 SWAP3 ADD SWAP2 PUSH1 0x1 ADD PUSH2 0x3A47 JUMP JUMPDEST POP SWAP1 SWAP6 SWAP5 POP POP POP POP POP JUMP JUMPDEST PUSH4 0x4E487B71 PUSH1 0xE0 SHL PUSH1 0x0 MSTORE PUSH1 0x41 PUSH1 0x4 MSTORE PUSH1 0x24 PUSH1 0x0 REVERT JUMPDEST PUSH1 0x0 DUP3 PUSH1 0x1F DUP4 ADD SLT PUSH2 0x3A97 JUMPI PUSH1 0x0 DUP1 REVERT JUMPDEST DUP2 CALLDATALOAD PUSH1 0x1 PUSH1 0x1 PUSH1 0x40 SHL SUB DUP2 GT ISZERO PUSH2 0x3AB0 JUMPI PUSH2 0x3AB0 PUSH2 0x3A70 JUMP JUMPDEST PUSH1 0x40 MLOAD PUSH1 0x1F DUP3 ADD PUSH1 0x1F NOT SWAP1 DUP2 AND PUSH1 0x3F ADD AND DUP2 ADD PUSH1 0x1 PUSH1 0x1 PUSH1 0x40 SHL SUB DUP2 GT DUP3 DUP3 LT OR ISZERO PUSH2 0x3ADE JUMPI PUSH2 0x3ADE PUSH2 0x3A70 JUMP JUMPDEST PUSH1 0x40 MSTORE DUP2 DUP2 MSTORE DUP4 DUP3 ADD PUSH1 0x20 ADD DUP6 LT ISZERO PUSH2 0x3AF6 JUMPI PUSH1 0x0 DUP1 REVERT JUMPDEST DUP2 PUSH1 0x20 DUP6 ADD PUSH1 0x20 DUP4 ADD CALLDATACOPY PUSH1 0x0 SWAP2 DUP2 ADD PUSH1 0x20 ADD SWAP2 SWAP1 SWAP2 MSTORE SWAP4 SWAP3 POP POP POP JUMP JUMPDEST DUP1 CALLDATALOAD DUP1 ISZERO ISZERO DUP2 EQ PUSH2 0x39B4 JUMPI PUSH1 0x0 DUP1 REVERT JUMPDEST PUSH1 0x0 DUP1 PUSH1 0x0 DUP1 PUSH1 0x0 PUSH1 0xA0 DUP7 DUP9 SUB SLT ISZERO PUSH2 0x3B3B JUMPI PUSH1 0x0 DUP1 REVERT JUMPDEST DUP6 CALLDATALOAD PUSH1 0x1 PUSH1 0x1 PUSH1 0x40 SHL SUB DUP2 GT ISZERO PUSH2 0x3B51 JUMPI PUSH1 0x0 DUP1 REVERT JUMPDEST PUSH2 0x3B5D DUP9 DUP3 DUP10 ADD PUSH2 0x3A86 JUMP JUMPDEST SWAP6 POP POP PUSH1 0x20 DUP7 ADD CALLDATALOAD PUSH1 0x1 PUSH1 0x1 PUSH1 0x40 SHL SUB DUP2 GT ISZERO PUSH2 0x3B79 JUMPI PUSH1 0x0 DUP1 REVERT JUMPDEST PUSH2 0x3B85 DUP9 DUP3 DUP10 ADD PUSH2 0x3A86 JUMP JUMPDEST SWAP5 POP POP PUSH2 0x3B94 PUSH1 0x40 DUP8 ADD PUSH2 0x3B13 JUMP JUMPDEST SWAP5 SWAP8 SWAP4 SWAP7 POP SWAP4 SWAP5 PUSH1 0x60 DUP2 ADD CALLDATALOAD SWAP5 POP PUSH1 0x80 ADD CALLDATALOAD SWAP3 SWAP2 POP POP JUMP JUMPDEST PUSH1 0x0 DUP1 PUSH1 0x40 DUP4 DUP6 SUB SLT ISZERO PUSH2 0x3BBF JUMPI PUSH1 0x0 DUP1 REVERT JUMPDEST DUP3 CALLDATALOAD PUSH1 0x1 PUSH1 0x1 PUSH1 0x40 SHL SUB DUP2 GT ISZERO PUSH2 0x3BD5 JUMPI PUSH1 0x0 DUP1 REVERT JUMPDEST PUSH2 0x3BE1 DUP6 DUP3 DUP7 ADD PUSH2 0x3A86 JUMP JUMPDEST SWAP3 POP POP PUSH1 0x20 DUP4 ADD CALLDATALOAD PUSH1 0x1 PUSH1 0x1 PUSH1 0x40 SHL SUB DUP2 GT ISZERO PUSH2 0x3BFD JUMPI PUSH1 0x0 DUP1 REVERT JUMPDEST PUSH2 0x3C09 DUP6 DUP3 DUP7 ADD PUSH2 0x3A86 JUMP JUMPDEST SWAP2 POP POP SWAP3 POP SWAP3 SWAP1 POP JUMP JUMPDEST PUSH1 0x0 PUSH1 0x20 DUP3 DUP5 SUB SLT ISZERO PUSH2 0x3C25 JUMPI PUSH1 0x0 DUP1 REVERT JUMPDEST POP CALLDATALOAD SWAP2 SWAP1 POP JUMP JUMPDEST PUSH1 0x1 PUSH1 0x1 PUSH1 0xA0 SHL SUB AND SWAP1 MSTORE JUMP JUMPDEST PUSH1 0x1 PUSH1 0x1 PUSH1 0xA0 SHL SUB SWAP2 SWAP1 SWAP2 AND DUP2 MSTORE PUSH1 0x20 ADD SWAP1 JUMP JUMPDEST PUSH1 0x0 DUP1 PUSH1 0x40 DUP4 DUP6 SUB SLT ISZERO PUSH2 0x3C60 JUMPI PUSH1 0x0 DUP1 REVERT JUMPDEST DUP3 CALLDATALOAD SWAP2 POP PUSH2 0x3C70 PUSH1 0x20 DUP5 ADD PUSH2 0x399D JUMP JUMPDEST SWAP1 POP SWAP3 POP SWAP3 SWAP1 POP JUMP JUMPDEST PUSH1 0x0 DUP1 PUSH1 0x0 DUP1 PUSH1 0x80 DUP6 DUP8 SUB SLT ISZERO PUSH2 0x3C8F JUMPI PUSH1 0x0 DUP1 REVERT JUMPDEST PUSH2 0x3C98 DUP6 PUSH2 0x399D JUMP JUMPDEST SWAP4 POP PUSH1 0x20 DUP6 ADD CALLDATALOAD PUSH1 0x1 PUSH1 0x1 PUSH1 0x40 SHL SUB DUP2 GT ISZERO PUSH2 0x3CB3 JUMPI PUSH1 0x0 DUP1 REVERT JUMPDEST PUSH2 0x3CBF DUP8 DUP3 DUP9 ADD PUSH2 0x3A86 JUMP JUMPDEST SWAP4 POP POP PUSH1 0x40 DUP6 ADD CALLDATALOAD PUSH1 0x5 DUP2 LT PUSH2 0x3CD4 JUMPI PUSH1 0x0 DUP1 REVERT JUMPDEST SWAP4 SWAP7 SWAP3 SWAP6 POP SWAP3 SWAP4 PUSH1 0x60 ADD CALLDATALOAD SWAP3 POP POP JUMP JUMPDEST PUSH1 0x20 DUP2 MSTORE DUP2 MLOAD PUSH1 0x20 DUP3 ADD MSTORE PUSH1 0x0 PUSH1 0x20 DUP4 ADD MLOAD PUSH1 0xE0 PUSH1 0x40 DUP5 ADD MSTORE PUSH2 0x3D0B PUSH2 0x100 DUP5 ADD DUP3 PUSH2 0x39D4 JUMP JUMPDEST SWAP1 POP PUSH1 0x40 DUP5 ADD MLOAD PUSH1 0x1F NOT DUP5 DUP4 SUB ADD PUSH1 0x60 DUP6 ADD MSTORE PUSH2 0x3D28 DUP3 DUP3 PUSH2 0x39D4 JUMP JUMPDEST SWAP2 POP POP PUSH1 0x60 DUP5 ADD MLOAD ISZERO ISZERO PUSH1 0x80 DUP5 ADD MSTORE PUSH1 0x80 DUP5 ADD MLOAD PUSH1 0xA0 DUP5 ADD MSTORE PUSH1 0xA0 DUP5 ADD MLOAD PUSH1 0xC0 DUP5 ADD MSTORE PUSH1 0xC0 DUP5 ADD MLOAD PUSH1 0xE0 DUP5 ADD MSTORE DUP1 SWAP2 POP POP SWAP3 SWAP2 POP POP JUMP JUMPDEST PUSH1 0x20 DUP2 MSTORE DUP2 MLOAD PUSH1 0x20 DUP3 ADD MSTORE PUSH1 0x0 PUSH1 0x20 DUP4 ADD MLOAD PUSH1 0xA0 PUSH1 0x40 DUP5 ADD MSTORE PUSH2 0x3D85 PUSH1 0xC0 DUP5 ADD DUP3 PUSH2 0x39D4 JUMP JUMPDEST SWAP1 POP PUSH1 0x40 DUP5 ADD MLOAD PUSH1 0x1F NOT DUP5 DUP4 SUB ADD PUSH1 0x60 DUP6 ADD MSTORE PUSH2 0x3DA2 DUP3 DUP3 PUSH2 0x39D4 JUMP JUMPDEST SWAP2 POP POP PUSH1 0x60 DUP5 ADD MLOAD PUSH1 0x80 DUP5 ADD MSTORE PUSH1 0x80 DUP5 ADD MLOAD PUSH1 0xA0 DUP5 ADD MSTORE DUP1 SWAP2 POP POP SWAP3 SWAP2 POP POP JUMP JUMPDEST PUSH4 0x4E487B71 PUSH1 0xE0 SHL PUSH1 0x0 MSTORE PUSH1 0x21 PUSH1 0x4 MSTORE PUSH1 0x24 PUSH1 0x0 REVERT JUMPDEST PUSH1 0x5 DUP2 LT PUSH2 0x3DE9 JUMPI PUSH2 0x3DE9 PUSH2 0x3DC3 JUMP JUMPDEST SWAP1 MSTORE JUMP JUMPDEST PUSH1 0x20 DUP2 MSTORE DUP2 MLOAD PUSH1 0x20 DUP3 ADD MSTORE PUSH1 0x1 DUP1 PUSH1 0xA0 SHL SUB PUSH1 0x20 DUP4 ADD MLOAD AND PUSH1 0x40 DUP3 ADD MSTORE PUSH1 0x0 PUSH1 0x40 DUP4 ADD MLOAD PUSH1 0xC0 PUSH1 0x60 DUP5 ADD MSTORE PUSH2 0x3E25 PUSH1 0xE0 DUP5 ADD DUP3 PUSH2 0x39D4 JUMP JUMPDEST SWAP1 POP PUSH1 0x60 DUP5 ADD MLOAD PUSH2 0x3E39 PUSH1 0x80 DUP6 ADD DUP3 PUSH2 0x3DD9 JUMP JUMPDEST POP PUSH1 0x80 DUP5 ADD MLOAD PUSH1 0xA0 DUP5 ADD MSTORE PUSH1 0xA0 DUP5 ADD MLOAD PUSH1 0xC0 DUP5 ADD MSTORE DUP1 SWAP2 POP POP SWAP3 SWAP2 POP POP JUMP JUMPDEST PUSH1 0x0 DUP1 PUSH1 0x0 PUSH1 0x60 DUP5 DUP7 SUB SLT ISZERO PUSH2 0x3E6D JUMPI PUSH1 0x0 DUP1 REVERT JUMPDEST DUP4 CALLDATALOAD PUSH1 0x1 PUSH1 0x1 PUSH1 0x40 SHL SUB DUP2 GT ISZERO PUSH2 0x3E83 JUMPI PUSH1 0x0 DUP1 REVERT JUMPDEST PUSH2 0x3E8F DUP7 DUP3 DUP8 ADD PUSH2 0x3A86 JUMP JUMPDEST SWAP4 POP POP PUSH1 0x20 DUP5 ADD CALLDATALOAD PUSH1 0x1 PUSH1 0x1 PUSH1 0x40 SHL SUB DUP2 GT ISZERO PUSH2 0x3EAB JUMPI PUSH1 0x0 DUP1 REVERT JUMPDEST PUSH2 0x3EB7 DUP7 DUP3 DUP8 ADD PUSH2 0x3A86 JUMP JUMPDEST SWAP4 SWAP7 SWAP4 SWAP6 POP POP POP POP PUSH1 0x40 SWAP2 SWAP1 SWAP2 ADD CALLDATALOAD SWAP1 JUMP JUMPDEST PUSH1 0x0 DUP1 PUSH1 0x0 DUP1 PUSH1 0x0 DUP1 PUSH1 0xC0 DUP8 DUP10 SUB SLT ISZERO PUSH2 0x3EE2 JUMPI PUSH1 0x0 DUP1 REVERT JUMPDEST DUP7 CALLDATALOAD SWAP6 POP PUSH1 0x20 DUP8 ADD CALLDATALOAD PUSH1 0x1 PUSH1 0x1 PUSH1 0x40 SHL SUB DUP2 GT ISZERO PUSH2 0x3EFF JUMPI PUSH1 0x0 DUP1 REVERT JUMPDEST PUSH2 0x3F0B DUP10 DUP3 DUP11 ADD PUSH2 0x3A86 JUMP JUMPDEST SWAP6 POP POP PUSH1 0x40 DUP8 ADD CALLDATALOAD PUSH1 0x1 PUSH1 0x1 PUSH1 0x40 SHL SUB DUP2 GT ISZERO PUSH2 0x3F27 JUMPI PUSH1 0x0 DUP1 REVERT JUMPDEST PUSH2 0x3F33 DUP10 DUP3 DUP11 ADD PUSH2 0x3A86 JUMP JUMPDEST SWAP5 POP POP PUSH2 0x3F42 PUSH1 0x60 DUP9 ADD PUSH2 0x3B13 JUMP JUMPDEST SWAP6 SWAP9 SWAP5 SWAP8 POP SWAP3 SWAP6 PUSH1 0x80 DUP2 ADD CALLDATALOAD SWAP5 PUSH1 0xA0 SWAP1 SWAP2 ADD CALLDATALOAD SWAP4 POP SWAP2 POP POP JUMP JUMPDEST PUSH1 0x0 DUP1 PUSH1 0x0 DUP1 PUSH1 0x80 DUP6 DUP8 SUB SLT ISZERO PUSH2 0x3F72 JUMPI PUSH1 0x0 DUP1 REVERT JUMPDEST DUP5 CALLDATALOAD SWAP4 POP PUSH1 0x20 DUP6 ADD CALLDATALOAD PUSH1 0x1 PUSH1 0x1 PUSH1 0x40 SHL SUB DUP2 GT ISZERO PUSH2 0x3F8F JUMPI PUSH1 0x0 DUP1 REVERT JUMPDEST PUSH2 0x3F9B DUP8 DUP3 DUP9 ADD PUSH2 0x3A86 JUMP JUMPDEST SWAP4 POP POP PUSH1 0x40 DUP6 ADD CALLDATALOAD PUSH1 0x1 PUSH1 0x1 PUSH1 0x40 SHL SUB DUP2 GT ISZERO PUSH2 0x3FB7 JUMPI PUSH1 0x0 DUP1 REVERT JUMPDEST PUSH2 0x3FC3 DUP8 DUP3 DUP9 ADD PUSH2 0x3A86 JUMP JUMPDEST SWAP5 SWAP8 SWAP4 SWAP7 POP SWAP4 SWAP5 PUSH1 0x60 ADD CALLDATALOAD SWAP4 POP POP POP JUMP JUMPDEST DUP1 CALLDATALOAD PUSH1 0x8 DUP2 LT PUSH2 0x39B4 JUMPI PUSH1 0x0 DUP1 REVERT JUMPDEST PUSH1 0x0 DUP1 PUSH1 0x0 DUP1 PUSH1 0x0 DUP1 PUSH1 0xC0 DUP8 DUP10 SUB SLT ISZERO PUSH2 0x3FFC JUMPI PUSH1 0x0 DUP1 REVERT JUMPDEST DUP7 CALLDATALOAD PUSH1 0x1 PUSH1 0x1 PUSH1 0x40 SHL SUB DUP2 GT ISZERO PUSH2 0x4012 JUMPI PUSH1 0x0 DUP1 REVERT JUMPDEST PUSH2 0x401E DUP10 DUP3 DUP11 ADD PUSH2 0x3A86 JUMP JUMPDEST SWAP7 POP POP PUSH1 0x20 DUP8 ADD CALLDATALOAD PUSH1 0x1 PUSH1 0x1 PUSH1 0x40 SHL SUB DUP2 GT ISZERO PUSH2 0x403A JUMPI PUSH1 0x0 DUP1 REVERT JUMPDEST PUSH2 0x4046 DUP10 DUP3 DUP11 ADD PUSH2 0x3A86 JUMP JUMPDEST SWAP6 POP POP PUSH2 0x4055 PUSH1 0x40 DUP9 ADD PUSH2 0x3FD4 JUMP JUMPDEST SWAP4 POP PUSH2 0x4063 PUSH1 0x60 DUP9 ADD PUSH2 0x3B13 JUMP JUMPDEST SWAP3 POP PUSH1 0x80 DUP8 ADD CALLDATALOAD SWAP2 POP PUSH1 0xA0 DUP8 ADD CALLDATALOAD PUSH1 0x1 PUSH1 0x1 PUSH1 0x40 SHL SUB DUP2 GT ISZERO PUSH2 0x4085 JUMPI PUSH1 0x0 DUP1 REVERT JUMPDEST PUSH2 0x4091 DUP10 DUP3 DUP11 ADD PUSH2 0x3A86 JUMP JUMPDEST SWAP2 POP POP SWAP3 SWAP6 POP SWAP3 SWAP6 POP SWAP3 SWAP6 JUMP JUMPDEST PUSH1 0x7 DUP2 LT PUSH2 0x3DE9 JUMPI PUSH2 0x3DE9 PUSH2 0x3DC3 JUMP JUMPDEST PUSH1 0x4 DUP2 LT PUSH2 0x3DE9 JUMPI PUSH2 0x3DE9 PUSH2 0x3DC3 JUMP JUMPDEST PUSH1 0x3 DUP2 LT PUSH2 0x3DE9 JUMPI PUSH2 0x3DE9 PUSH2 0x3DC3 JUMP JUMPDEST PUSH1 0x20 DUP2 MSTORE DUP2 MLOAD PUSH1 0x20 DUP3 ADD MSTORE PUSH1 0x0 PUSH1 0x20 DUP4 ADD MLOAD PUSH2 0x40ED PUSH1 0x40 DUP5 ADD DUP3 PUSH2 0x3C2C JUMP JUMPDEST POP PUSH1 0x40 DUP4 ADD MLOAD PUSH2 0x4100 PUSH1 0x60 DUP5 ADD DUP3 PUSH2 0x3C2C JUMP JUMPDEST POP PUSH1 0x60 DUP4 ADD MLOAD PUSH1 0x80 DUP4 ADD MSTORE PUSH1 0x80 DUP4 ADD MLOAD PUSH2 0x1A0 PUSH1 0xA0 DUP5 ADD MSTORE PUSH2 0x4126 PUSH2 0x1C0 DUP5 ADD DUP3 PUSH2 0x39D4 JUMP JUMPDEST SWAP1 POP PUSH1 0xA0 DUP5 ADD MLOAD PUSH2 0x413A PUSH1 0xC0 DUP6 ADD DUP3 PUSH2 0x409E JUMP JUMPDEST POP PUSH1 0xC0 DUP5 ADD MLOAD PUSH2 0x414D PUSH1 0xE0 DUP6 ADD DUP3 PUSH2 0x40AE JUMP JUMPDEST POP PUSH1 0xE0 DUP5 ADD MLOAD PUSH2 0x100 DUP5 ADD MSTORE PUSH2 0x100 DUP5 ADD MLOAD PUSH2 0x120 DUP5 ADD MSTORE PUSH2 0x120 DUP5 ADD MLOAD PUSH2 0x140 DUP5 ADD MSTORE PUSH2 0x140 DUP5 ADD MLOAD PUSH2 0x4185 PUSH2 0x160 DUP6 ADD DUP3 PUSH2 0x40BE JUMP JUMPDEST POP PUSH2 0x160 DUP5 ADD MLOAD PUSH2 0x419A PUSH2 0x180 DUP6 ADD DUP3 PUSH2 0x40BE JUMP JUMPDEST POP PUSH2 0x180 DUP5 ADD MLOAD DUP4 DUP3 SUB PUSH1 0x1F NOT ADD PUSH2 0x1A0 DUP6 ADD MSTORE PUSH2 0x41B8 DUP3 DUP3 PUSH2 0x39D4 JUMP JUMPDEST SWAP6 SWAP5 POP POP POP POP POP JUMP JUMPDEST DUP5 DUP2 MSTORE PUSH1 0x80 PUSH1 0x20 DUP3 ADD MSTORE PUSH1 0x0 PUSH2 0x41DA PUSH1 0x80 DUP4 ADD DUP7 PUSH2 0x39D4 JUMP JUMPDEST PUSH1 0x40 DUP4 ADD SWAP5 SWAP1 SWAP5 MSTORE POP SWAP1 ISZERO ISZERO PUSH1 0x60 SWAP1 SWAP2 ADD MSTORE SWAP3 SWAP2 POP POP JUMP JUMPDEST PUSH1 0x0 DUP1 PUSH1 0x0 DUP1 PUSH1 0x0 DUP1 PUSH1 0x0 PUSH1 0xE0 DUP9 DUP11 SUB SLT ISZERO PUSH2 0x420D JUMPI PUSH1 0x0 DUP1 REVERT JUMPDEST DUP8 CALLDATALOAD SWAP7 POP PUSH1 0x20 DUP9 ADD CALLDATALOAD PUSH1 0x1 PUSH1 0x1 PUSH1 0x40 SHL SUB DUP2 GT ISZERO PUSH2 0x422A JUMPI PUSH1 0x0 DUP1 REVERT JUMPDEST PUSH2 0x4236 DUP11 DUP3 DUP12 ADD PUSH2 0x3A86 JUMP JUMPDEST SWAP7 POP POP PUSH1 0x40 DUP9 ADD CALLDATALOAD PUSH1 0x1 PUSH1 0x1 PUSH1 0x40 SHL SUB DUP2 GT ISZERO PUSH2 0x4252 JUMPI PUSH1 0x0 DUP1 REVERT JUMPDEST PUSH2 0x425E DUP11 DUP3 DUP12 ADD PUSH2 0x3A86 JUMP JUMPDEST SWAP6 POP POP PUSH2 0x426D PUSH1 0x60 DUP10 ADD PUSH2 0x3FD4 JUMP JUMPDEST SWAP4 POP PUSH2 0x427B PUSH1 0x80 DUP10 ADD PUSH2 0x3B13 JUMP JUMPDEST SWAP3 POP PUSH1 0xA0 DUP9 ADD CALLDATALOAD SWAP2 POP PUSH1 0xC0 DUP9 ADD CALLDATALOAD PUSH1 0x1 PUSH1 0x1 PUSH1 0x40 SHL SUB DUP2 GT ISZERO PUSH2 0x429D JUMPI PUSH1 0x0 DUP1 REVERT JUMPDEST PUSH2 0x42A9 DUP11 DUP3 DUP12 ADD PUSH2 0x3A86 JUMP JUMPDEST SWAP2 POP POP SWAP3 SWAP6 SWAP9 SWAP2 SWAP5 SWAP8 POP SWAP3 SWAP6 POP JUMP JUMPDEST DUP1 CALLDATALOAD PUSH1 0x4 DUP2 LT PUSH2 0x39B4 JUMPI PUSH1 0x0 DUP1 REVERT JUMPDEST DUP1 CALLDATALOAD PUSH1 0x3 DUP2 LT PUSH2 0x39B4 JUMPI PUSH1 0x0 DUP1 REVERT JUMPDEST PUSH1 0x0 DUP1 PUSH1 0x0 DUP1 PUSH1 0x0 DUP1 PUSH1 0x0 DUP1 PUSH1 0x0 PUSH2 0x120 DUP11 DUP13 SUB SLT ISZERO PUSH2 0x42F5 JUMPI PUSH1 0x0 DUP1 REVERT JUMPDEST PUSH2 0x42FE DUP11 PUSH2 0x399D JUMP JUMPDEST SWAP9 POP PUSH1 0x20 DUP11 ADD CALLDATALOAD SWAP8 POP PUSH1 0x40 DUP11 ADD CALLDATALOAD PUSH1 0x1 PUSH1 0x1 PUSH1 0x40 SHL SUB DUP2 GT ISZERO PUSH2 0x4320 JUMPI PUSH1 0x0 DUP1 REVERT JUMPDEST PUSH2 0x432C DUP13 DUP3 DUP14 ADD PUSH2 0x3A86 JUMP JUMPDEST SWAP8 POP POP PUSH1 0x60 DUP11 ADD CALLDATALOAD PUSH1 0x7 DUP2 LT PUSH2 0x4341 JUMPI PUSH1 0x0 DUP1 REVERT JUMPDEST SWAP6 POP PUSH2 0x434F PUSH1 0x80 DUP12 ADD PUSH2 0x42B8 JUMP JUMPDEST SWAP5 POP PUSH1 0xA0 DUP11 ADD CALLDATALOAD SWAP4 POP PUSH1 0xC0 DUP11 ADD CALLDATALOAD SWAP3 POP PUSH2 0x436B PUSH1 0xE0 DUP12 ADD PUSH2 0x42C7 JUMP JUMPDEST SWAP2 POP PUSH2 0x100 DUP11 ADD CALLDATALOAD PUSH1 0x1 PUSH1 0x1 PUSH1 0x40 SHL SUB DUP2 GT ISZERO PUSH2 0x4387 JUMPI PUSH1 0x0 DUP1 REVERT JUMPDEST PUSH2 0x4393 DUP13 DUP3 DUP14 ADD PUSH2 0x3A86 JUMP JUMPDEST SWAP2 POP POP SWAP3 SWAP6 SWAP9 POP SWAP3 SWAP6 SWAP9 POP SWAP3 SWAP6 SWAP9 JUMP JUMPDEST PUSH1 0x8 DUP2 LT PUSH2 0x3DE9 JUMPI PUSH2 0x3DE9 PUSH2 0x3DC3 JUMP JUMPDEST PUSH1 0x20 DUP2 MSTORE DUP2 MLOAD PUSH1 0x20 DUP3 ADD MSTORE PUSH1 0x0 PUSH1 0x20 DUP4 ADD MLOAD PUSH2 0x100 PUSH1 0x40 DUP5 ADD MSTORE PUSH2 0x43DB PUSH2 0x120 DUP5 ADD DUP3 PUSH2 0x39D4 JUMP JUMPDEST SWAP1 POP PUSH1 0x40 DUP5 ADD MLOAD PUSH1 0x1F NOT DUP5 DUP4 SUB ADD PUSH1 0x60 DUP6 ADD MSTORE PUSH2 0x43F8 DUP3 DUP3 PUSH2 0x39D4 JUMP JUMPDEST SWAP2 POP POP PUSH1 0x60 DUP5 ADD MLOAD PUSH2 0x440D PUSH1 0x80 DUP6 ADD DUP3 PUSH2 0x43A3 JUMP JUMPDEST POP PUSH1 0x80 DUP5 ADD MLOAD DUP1 ISZERO ISZERO PUSH1 0xA0 DUP6 ADD MSTORE POP PUSH1 0xA0 DUP5 ADD MLOAD PUSH1 0xC0 DUP5 ADD MSTORE PUSH1 0xC0 DUP5 ADD MLOAD PUSH1 0xE0 DUP5 ADD MSTORE PUSH1 0xE0 DUP5 ADD MLOAD PUSH1 0x1F NOT DUP5 DUP4 SUB ADD PUSH2 0x100 DUP6 ADD MSTORE PUSH2 0x41B8 DUP3 DUP3 PUSH2 0x39D4 JUMP JUMPDEST PUSH1 0x20 DUP2 MSTORE PUSH1 0x0 DUP3 MLOAD PUSH1 0xA0 PUSH1 0x20 DUP5 ADD MSTORE PUSH2 0x4468 PUSH1 0xC0 DUP5 ADD DUP3 PUSH2 0x39D4 JUMP JUMPDEST SWAP1 POP PUSH1 0x20 DUP5 ADD MLOAD PUSH1 0x40 DUP5 ADD MSTORE PUSH1 0x40 DUP5 ADD MLOAD PUSH1 0x60 DUP5 ADD MSTORE PUSH1 0x60 DUP5 ADD MLOAD ISZERO ISZERO PUSH1 0x80 DUP5 ADD MSTORE PUSH1 0x80 DUP5 ADD MLOAD PUSH1 0x1F NOT DUP5 DUP4 SUB ADD PUSH1 0xA0 DUP6 ADD MSTORE PUSH2 0x41B8 DUP3 DUP3 PUSH2 0x39D4 JUMP JUMPDEST PUSH1 0x0 DUP1 PUSH1 0x40 DUP4 DUP6 SUB SLT ISZERO PUSH2 0x44B8 JUMPI PUSH1 0x0 DUP1 REVERT JUMPDEST PUSH2 0x44C1 DUP4 PUSH2 0x399D JUMP JUMPDEST SWAP5 PUSH1 0x20 SWAP4 SWAP1 SWAP4 ADD CALLDATALOAD SWAP4 POP POP POP JUMP JUMPDEST PUSH1 0x0 DUP1 PUSH1 0x40 DUP4 DUP6 SUB SLT ISZERO PUSH2 0x44E2 JUMPI PUSH1 0x0 DUP1 REVERT JUMPDEST DUP3 CALLDATALOAD PUSH1 0x1 PUSH1 0x1 PUSH1 0x40 SHL SUB DUP2 GT ISZERO PUSH2 0x44F8 JUMPI PUSH1 0x0 DUP1 REVERT JUMPDEST PUSH2 0x4504 DUP6 DUP3 DUP7 ADD PUSH2 0x3A86 JUMP JUMPDEST SWAP6 PUSH1 0x20 SWAP5 SWAP1 SWAP5 ADD CALLDATALOAD SWAP5 POP POP POP POP JUMP JUMPDEST PUSH1 0x1 DUP2 DUP2 SHR SWAP1 DUP3 AND DUP1 PUSH2 0x4527 JUMPI PUSH1 0x7F DUP3 AND SWAP2 POP JUMPDEST PUSH1 0x20 DUP3 LT DUP2 SUB PUSH2 0x4547 JUMPI PUSH4 0x4E487B71 PUSH1 0xE0 SHL PUSH1 0x0 MSTORE PUSH1 0x22 PUSH1 0x4 MSTORE PUSH1 0x24 PUSH1 0x0 REVERT JUMPDEST POP SWAP2 SWAP1 POP JUMP JUMPDEST PUSH1 0x20 DUP1 DUP3 MSTORE PUSH1 0x9 SWAP1 DUP3 ADD MSTORE PUSH9 0x4E6F20616363657373 PUSH1 0xB8 SHL PUSH1 0x40 DUP3 ADD MSTORE PUSH1 0x60 ADD SWAP1 JUMP JUMPDEST PUSH1 0x20 DUP1 DUP3 MSTORE PUSH1 0x7 SWAP1 DUP3 ADD MSTORE PUSH7 0x4E6F20696E666F PUSH1 0xC8 SHL PUSH1 0x40 DUP3 ADD MSTORE PUSH1 0x60 ADD SWAP1 JUMP JUMPDEST PUSH4 0x4E487B71 PUSH1 0xE0 SHL PUSH1 0x0 MSTORE PUSH1 0x11 PUSH1 0x4 MSTORE PUSH1 0x24 PUSH1 0x0 REVERT JUMPDEST PUSH1 0x0 PUSH1 0x1 DUP3 ADD PUSH2 0x45B9 JUMPI PUSH2 0x45B9 PUSH2 0x4591 JUMP JUMPDEST POP PUSH1 0x1 ADD SWAP1 JUMP JUMPDEST PUSH1 0x1F DUP3 GT ISZERO PUSH2 0xC79 JUMPI DUP1 PUSH1 0x0 MSTORE PUSH1 0x20 PUSH1 0x0 KECCAK256 PUSH1 0x1F DUP5 ADD PUSH1 0x5 SHR DUP2 ADD PUSH1 0x20 DUP6 LT ISZERO PUSH2 0x45E7 JUMPI POP DUP1 JUMPDEST PUSH1 0x1F DUP5 ADD PUSH1 0x5 SHR DUP3 ADD SWAP2 POP JUMPDEST DUP2 DUP2 LT ISZERO PUSH2 0x4607 JUMPI PUSH1 0x0 DUP2 SSTORE PUSH1 0x1 ADD PUSH2 0x45F3 JUMP JUMPDEST POP POP POP POP POP JUMP JUMPDEST DUP2 MLOAD PUSH1 0x1 PUSH1 0x1 PUSH1 0x40 SHL SUB DUP2 GT ISZERO PUSH2 0x4627 JUMPI PUSH2 0x4627 PUSH2 0x3A70 JUMP JUMPDEST PUSH2 0x463B DUP2 PUSH2 0x4635 DUP5 SLOAD PUSH2 0x4513 JUMP JUMPDEST DUP5 PUSH2 0x45C0 JUMP JUMPDEST PUSH1 0x20 PUSH1 0x1F DUP3 GT PUSH1 0x1 DUP2 EQ PUSH2 0x466F JUMPI PUSH1 0x0 DUP4 ISZERO PUSH2 0x4657 JUMPI POP DUP5 DUP3 ADD MLOAD JUMPDEST PUSH1 0x0 NOT PUSH1 0x3 DUP6 SWAP1 SHL SHR NOT AND PUSH1 0x1 DUP5 SWAP1 SHL OR DUP5 SSTORE PUSH2 0x4607 JUMP JUMPDEST PUSH1 0x0 DUP5 DUP2 MSTORE PUSH1 0x20 DUP2 KECCAK256 PUSH1 0x1F NOT DUP6 AND SWAP2 JUMPDEST DUP3 DUP2 LT ISZERO PUSH2 0x469F JUMPI DUP8 DUP6 ADD MLOAD DUP3 SSTORE PUSH1 0x20 SWAP5 DUP6 ADD SWAP5 PUSH1 0x1 SWAP1 SWAP3 ADD SWAP2 ADD PUSH2 0x467F JUMP JUMPDEST POP DUP5 DUP3 LT ISZERO PUSH2 0x46BD JUMPI DUP7 DUP5 ADD MLOAD PUSH1 0x0 NOT PUSH1 0x3 DUP8 SWAP1 SHL PUSH1 0xF8 AND SHR NOT AND DUP2 SSTORE JUMPDEST POP POP POP POP PUSH1 0x1 SWAP1 DUP2 SHL ADD SWAP1 SSTORE POP JUMP JUMPDEST PUSH1 0x40 DUP2 MSTORE PUSH1 0x0 PUSH2 0x46DF PUSH1 0x40 DUP4 ADD DUP6 PUSH2 0x39D4 JUMP JUMPDEST SWAP1 POP DUP3 PUSH1 0x20 DUP4 ADD MSTORE SWAP4 SWAP3 POP POP POP JUMP JUMPDEST PUSH1 0x40 DUP2 ADD PUSH2 0x46FC DUP3 DUP6 PUSH2 0x3DD9 JUMP JUMPDEST DUP3 PUSH1 0x20 DUP4 ADD MSTORE SWAP4 SWAP3 POP POP POP JUMP JUMPDEST PUSH1 0x20 DUP1 DUP3 MSTORE PUSH1 0x9 SWAP1 DUP3 ADD MSTORE PUSH9 0x2737BA1037BBB732B9 PUSH1 0xB9 SHL PUSH1 0x40 DUP3 ADD MSTORE PUSH1 0x60 ADD SWAP1 JUMP JUMPDEST PUSH1 0x20 DUP1 DUP3 MSTORE PUSH1 0x7 SWAP1 DUP3 ADD MSTORE PUSH7 0x9CDE40C2EAE8D PUSH1 0xCB SHL PUSH1 0x40 DUP3 ADD MSTORE PUSH1 0x60 ADD SWAP1 JUMP JUMPDEST PUSH2 0x4757 DUP2 DUP5 PUSH2 0x43A3 JUMP JUMPDEST PUSH1 0x40 PUSH1 0x20 DUP3 ADD MSTORE PUSH1 0x0 PUSH2 0xF8C PUSH1 0x40 DUP4 ADD DUP5 PUSH2 0x39D4 JUMP JUMPDEST PUSH1 0x20 DUP1 DUP3 MSTORE PUSH1 0xC SWAP1 DUP3 ADD MSTORE PUSH12 0x24B73B30B634B21030B23239 PUSH1 0xA1 SHL PUSH1 0x40 DUP3 ADD MSTORE PUSH1 0x60 ADD SWAP1 JUMP JUMPDEST PUSH1 0x20 DUP1 DUP3 MSTORE PUSH1 0x10 SWAP1 DUP3 ADD MSTORE PUSH16 0x2737BA103932B1B7B9321037BBB732B9 PUSH1 0x81 SHL PUSH1 0x40 DUP3 ADD MSTORE PUSH1 0x60 ADD SWAP1 JUMP JUMPDEST PUSH4 0x4E487B71 PUSH1 0xE0 SHL PUSH1 0x0 MSTORE PUSH1 0x32 PUSH1 0x4 MSTORE PUSH1 0x24 PUSH1 0x0 REVERT JUMPDEST DUP1 DUP3 ADD DUP1 DUP3 GT ISZERO PUSH2 0x75A JUMPI PUSH2 0x75A PUSH2 0x4591 JUMP INVALID DUP9 0x25 0xC6 0x22 SMOD SMOD PUSH29 0x41710FE5144A6467477A643E911C9AB3785826111F7C94ED8B18C9D97E 0xDF 0xCF 0x27 DUP7 GAS 0xCA DUP11 0x4F SELFBALANCE DUP11 SHL DIFFICULTY 0x29 0xB4 0xC8 0x2F 0xB5 0xDE 0xD4 PUSH23 0xE9F317F74573D01BFEC7CD74E5C65B641D49ECC2E89F64 PUSH13 0x7C0BCAE85DC50F9616BF9C798C 0xED 0xDA DUP12 MSIZE LOG1 0xC4 DUP15 PC CALLDATACOPY 0xAD PUSH27 0x7F3DCEDCBE129BF3249EC4FBF651FD4F5E2600EAD39FE2F5197615 SWAP6 XOR CALLF 0x2C97 MSTORE8 MLOAD 0xD3 0xEB XOR POP SWAP14 PUSH3 0xAB7629 MULMOD DUP7 CALLDATASIZE JUMPF 0x2C6C DUPN 0x34 PUSH7 0xE939167FC8F5B4 EQ 0xC 0xCA ADDRESS PUSH29 0xD927E59CBEEA8291BFFEEE228FC677F0FA059AEF7B4DD8D5A264697066 PUSH20 0x582212202A39843BF5A77B227DEC6C67DFFA3747 MCOPY 0xBC SWAP13 DATALOADN 0x525A DUP10 PUSH10 0x6A5F161D9078869A6473 PUSH16 0x6C634300081F00330000000000000000 "
		},
		"gasEstimates": {
			"creation": {
				"codeDepositCost": "3730400",
				"executionCost": "80807",
				"totalCost": "3811207"
			},
			"external": {
				"AUDITOR_ROLE()": "infinite",
				"CLINIC_ROLE()": "infinite",
				"DEFAULT_ADMIN_ROLE()": "877",
				"HEALTHCARE_PROVIDER_ROLE()": "infinite",
				"HOSPITAL_ROLE()": "infinite",
				"INSURANCE_ROLE()": "infinite",
				"addMedication(string,string,bool,uint256,uint256)": "infinite",
				"addReport(string,string,uint8,bool,uint256,string)": "infinite",
				"addVaccination(string,string,uint256)": "infinite",
				"getAccessLog(uint256)": "infinite",
				"getAccessLogIds(address)": "infinite",
				"getEmergencyContact(address)": "2767",
				"getMedicationIds(address)": "infinite",
				"getMedicationRef(uint256)": "infinite",
				"getPersonalInfoRef(address)": "infinite",
				"getReceivedShareIds(address)": "infinite",
				"getReportIds(address)": "infinite",
				"getReportRef(uint256)": "infinite",
				"getRoleAdmin(bytes32)": "2616",
				"getShareIds(address)": "infinite",
				"getShareRecord(uint256)": "infinite",
				"getTotalCounts()": "10795",
				"getUserPublicKey(address)": "infinite",
				"getVaccinationIds(address)": "infinite",
				"getVaccinationRef(uint256)": "infinite",
				"grantRole(bytes32,address)": "infinite",
				"hasPersonalInfo(address)": "3556",
				"hasRole(bytes32,address)": "3314",
				"logDataAccess(address,string,uint8,bytes32)": "infinite",
				"owner()": "2986",
				"pause()": "infinite",
				"paused()": "2645",
				"registerAuditor(address)": "infinite",
				"registerClinic(address)": "infinite",
				"registerHealthcareProvider(address)": "infinite",
				"registerHospital(address)": "infinite",
				"registerInsurance(address)": "infinite",
				"renounceOwnership()": "infinite",
				"renounceRole(bytes32,address)": "29271",
				"revokeEntityRole(address,bytes32)": "infinite",
				"revokeRole(bytes32,address)": "infinite",
				"revokeShare(uint256)": "30739",
				"setEmergencyContact(address)": "26832",
				"setPersonalInfo(string,string)": "infinite",
				"setUserPublicKey(string,bytes32)": "infinite",
				"shareData(address,bytes32,string,uint8,uint8,uint256,uint256,uint8,string)": "infinite",
				"supportsInterface(bytes4)": "404",
				"transferOwnership(address)": "29434",
				"unpause()": "infinite",
				"updateMedication(uint256,string,string,bool,uint256,uint256)": "infinite",
				"updateReport(uint256,string,string,uint8,bool,uint256,string)": "infinite",
				"updateVaccination(uint256,string,string,uint256)": "infinite",
				"userCryptoProfiles(address)": "infinite"
			},
			"internal": {
				"_hasSharedRecordAccess(address,address,enum HealthWalletV2_05.RecordType,uint256)": "infinite"
			}
		},
		"methodIdentifiers": {
			"AUDITOR_ROLE()": "6e1d616e",
			"CLINIC_ROLE()": "82673e77",
			"DEFAULT_ADMIN_ROLE()": "a217fddf",
			"HEALTHCARE_PROVIDER_ROLE()": "0402e735",
			"HOSPITAL_ROLE()": "f6ba6678",
			"INSURANCE_ROLE()": "b752a74b",
			"addMedication(string,string,bool,uint256,uint256)": "22133e5b",
			"addReport(string,string,uint8,bool,uint256,string)": "8939f898",
			"addVaccination(string,string,uint256)": "7e14f8cd",
			"getAccessLog(uint256)": "685d5b8b",
			"getAccessLogIds(address)": "b85d4af0",
			"getEmergencyContact(address)": "2c81df05",
			"getMedicationIds(address)": "df015dc1",
			"getMedicationRef(uint256)": "4adbe62c",
			"getPersonalInfoRef(address)": "ee67e73d",
			"getReceivedShareIds(address)": "f2e8790b",
			"getReportIds(address)": "18b98101",
			"getReportRef(uint256)": "e653d375",
			"getRoleAdmin(bytes32)": "248a9ca3",
			"getShareIds(address)": "aa83f4d8",
			"getShareRecord(uint256)": "aa361c28",
			"getTotalCounts()": "045af334",
			"getUserPublicKey(address)": "11231fe0",
			"getVaccinationIds(address)": "2f4afbad",
			"getVaccinationRef(uint256)": "627e86f2",
			"grantRole(bytes32,address)": "2f2ff15d",
			"hasPersonalInfo(address)": "f17245f9",
			"hasRole(bytes32,address)": "91d14854",
			"logDataAccess(address,string,uint8,bytes32)": "48def2f7",
			"owner()": "8da5cb5b",
			"pause()": "8456cb59",
			"paused()": "5c975abb",
			"registerAuditor(address)": "df9a4f56",
			"registerClinic(address)": "b3568f32",
			"registerHealthcareProvider(address)": "052a01f6",
			"registerHospital(address)": "c5b99858",
			"registerInsurance(address)": "7e0ecee0",
			"renounceOwnership()": "715018a6",
			"renounceRole(bytes32,address)": "36568abe",
			"revokeEntityRole(address,bytes32)": "f6871d9e",
			"revokeRole(bytes32,address)": "d547741f",
			"revokeShare(uint256)": "50038737",
			"setEmergencyContact(address)": "91284a89",
			"setPersonalInfo(string,string)": "2436a5d7",
			"setUserPublicKey(string,bytes32)": "fbffa2f4",
			"shareData(address,bytes32,string,uint8,uint8,uint256,uint256,uint8,string)": "e40383ec",
			"supportsInterface(bytes4)": "01ffc9a7",
			"transferOwnership(address)": "f2fde38b",
			"unpause()": "3f4ba83a",
			"updateMedication(uint256,string,string,bool,uint256,uint256)": "83f3bbca",
			"updateReport(uint256,string,string,uint8,bool,uint256,string)": "d3e5ec4b",
			"updateVaccination(uint256,string,string,uint256)": "86c4aea2",
			"userCryptoProfiles(address)": "c77a5a97"
		}
	},
	"abi": [
		{
			"inputs": [],
			"stateMutability": "nonpayable",
			"type": "constructor"
		},
		{
			"inputs": [],
			"name": "AccessControlBadConfirmation",
			"type": "error"
		},
		{
			"inputs": [
				{
					"internalType": "address",
					"name": "account",
					"type": "address"
				},
				{
					"internalType": "bytes32",
					"name": "neededRole",
					"type": "bytes32"
				}
			],
			"name": "AccessControlUnauthorizedAccount",
			"type": "error"
		},
		{
			"inputs": [],
			"name": "EnforcedPause",
			"type": "error"
		},
		{
			"inputs": [],
			"name": "ExpectedPause",
			"type": "error"
		},
		{
			"inputs": [
				{
					"internalType": "address",
					"name": "owner",
					"type": "address"
				}
			],
			"name": "OwnableInvalidOwner",
			"type": "error"
		},
		{
			"inputs": [
				{
					"internalType": "address",
					"name": "account",
					"type": "address"
				}
			],
			"name": "OwnableUnauthorizedAccount",
			"type": "error"
		},
		{
			"inputs": [],
			"name": "ReentrancyGuardReentrantCall",
			"type": "error"
		},
		{
			"anonymous": false,
			"inputs": [
				{
					"indexed": true,
					"internalType": "address",
					"name": "owner",
					"type": "address"
				},
				{
					"indexed": true,
					"internalType": "address",
					"name": "accessor",
					"type": "address"
				},
				{
					"indexed": true,
					"internalType": "uint256",
					"name": "logId",
					"type": "uint256"
				},
				{
					"indexed": false,
					"internalType": "enum HealthWalletV2_05.DataCategory",
					"name": "category",
					"type": "uint8"
				},
				{
					"indexed": false,
					"internalType": "uint256",
					"name": "timestamp",
					"type": "uint256"
				}
			],
			"name": "DataAccessed",
			"type": "event"
		},
		{
			"anonymous": false,
			"inputs": [
				{
					"indexed": true,
					"internalType": "address",
					"name": "owner",
					"type": "address"
				},
				{
					"indexed": true,
					"internalType": "address",
					"name": "recipient",
					"type": "address"
				},
				{
					"indexed": true,
					"internalType": "uint256",
					"name": "shareId",
					"type": "uint256"
				},
				{
					"indexed": false,
					"internalType": "enum HealthWalletV2_05.DataCategory",
					"name": "category",
					"type": "uint8"
				},
				{
					"indexed": false,
					"internalType": "uint256",
					"name": "expiryDate",
					"type": "uint256"
				}
			],
			"name": "DataShared",
			"type": "event"
		},
		{
			"anonymous": false,
			"inputs": [
				{
					"indexed": true,
					"internalType": "address",
					"name": "user",
					"type": "address"
				},
				{
					"indexed": true,
					"internalType": "address",
					"name": "emergencyContact",
					"type": "address"
				}
			],
			"name": "EmergencyContactSet",
			"type": "event"
		},
		{
			"anonymous": false,
			"inputs": [
				{
					"indexed": true,
					"internalType": "address",
					"name": "entity",
					"type": "address"
				},
				{
					"indexed": false,
					"internalType": "bytes32",
					"name": "role",
					"type": "bytes32"
				}
			],
			"name": "EntityRegistered",
			"type": "event"
		},
		{
			"anonymous": false,
			"inputs": [
				{
					"indexed": true,
					"internalType": "address",
					"name": "entity",
					"type": "address"
				},
				{
					"indexed": false,
					"internalType": "bytes32",
					"name": "role",
					"type": "bytes32"
				}
			],
			"name": "EntityRevoked",
			"type": "event"
		},
		{
			"anonymous": false,
			"inputs": [
				{
					"indexed": true,
					"internalType": "address",
					"name": "user",
					"type": "address"
				},
				{
					"indexed": true,
					"internalType": "uint256",
					"name": "medicationId",
					"type": "uint256"
				},
				{
					"indexed": false,
					"internalType": "string",
					"name": "ipfsHash",
					"type": "string"
				}
			],
			"name": "MedicationAdded",
			"type": "event"
		},
		{
			"anonymous": false,
			"inputs": [
				{
					"indexed": true,
					"internalType": "address",
					"name": "user",
					"type": "address"
				},
				{
					"indexed": true,
					"internalType": "uint256",
					"name": "medicationId",
					"type": "uint256"
				},
				{
					"indexed": false,
					"internalType": "string",
					"name": "ipfsHash",
					"type": "string"
				}
			],
			"name": "MedicationUpdated",
			"type": "event"
		},
		{
			"anonymous": false,
			"inputs": [
				{
					"indexed": true,
					"internalType": "address",
					"name": "previousOwner",
					"type": "address"
				},
				{
					"indexed": true,
					"internalType": "address",
					"name": "newOwner",
					"type": "address"
				}
			],
			"name": "OwnershipTransferred",
			"type": "event"
		},
		{
			"anonymous": false,
			"inputs": [
				{
					"indexed": false,
					"internalType": "address",
					"name": "account",
					"type": "address"
				}
			],
			"name": "Paused",
			"type": "event"
		},
		{
			"anonymous": false,
			"inputs": [
				{
					"indexed": true,
					"internalType": "address",
					"name": "user",
					"type": "address"
				},
				{
					"indexed": false,
					"internalType": "string",
					"name": "ipfsHash",
					"type": "string"
				},
				{
					"indexed": false,
					"internalType": "uint256",
					"name": "timestamp",
					"type": "uint256"
				}
			],
			"name": "PersonalInfoStored",
			"type": "event"
		},
		{
			"anonymous": false,
			"inputs": [
				{
					"indexed": true,
					"internalType": "address",
					"name": "user",
					"type": "address"
				},
				{
					"indexed": false,
					"internalType": "string",
					"name": "ipfsHash",
					"type": "string"
				},
				{
					"indexed": false,
					"internalType": "uint256",
					"name": "timestamp",
					"type": "uint256"
				}
			],
			"name": "PersonalInfoUpdated",
			"type": "event"
		},
		{
			"anonymous": false,
			"inputs": [
				{
					"indexed": true,
					"internalType": "address",
					"name": "user",
					"type": "address"
				},
				{
					"indexed": false,
					"internalType": "string",
					"name": "publicKeyIpfsHash",
					"type": "string"
				},
				{
					"indexed": false,
					"internalType": "uint256",
					"name": "keyVersion",
					"type": "uint256"
				}
			],
			"name": "PublicKeySet",
			"type": "event"
		},
		{
			"anonymous": false,
			"inputs": [
				{
					"indexed": true,
					"internalType": "address",
					"name": "user",
					"type": "address"
				},
				{
					"indexed": true,
					"internalType": "uint256",
					"name": "reportId",
					"type": "uint256"
				},
				{
					"indexed": false,
					"internalType": "enum HealthWalletV2_05.ReportType",
					"name": "reportType",
					"type": "uint8"
				},
				{
					"indexed": false,
					"internalType": "string",
					"name": "ipfsHash",
					"type": "string"
				}
			],
			"name": "ReportAdded",
			"type": "event"
		},
		{
			"anonymous": false,
			"inputs": [
				{
					"indexed": true,
					"internalType": "address",
					"name": "user",
					"type": "address"
				},
				{
					"indexed": true,
					"internalType": "uint256",
					"name": "reportId",
					"type": "uint256"
				},
				{
					"indexed": false,
					"internalType": "string",
					"name": "ipfsHash",
					"type": "string"
				}
			],
			"name": "ReportUpdated",
			"type": "event"
		},
		{
			"anonymous": false,
			"inputs": [
				{
					"indexed": true,
					"internalType": "bytes32",
					"name": "role",
					"type": "bytes32"
				},
				{
					"indexed": true,
					"internalType": "bytes32",
					"name": "previousAdminRole",
					"type": "bytes32"
				},
				{
					"indexed": true,
					"internalType": "bytes32",
					"name": "newAdminRole",
					"type": "bytes32"
				}
			],
			"name": "RoleAdminChanged",
			"type": "event"
		},
		{
			"anonymous": false,
			"inputs": [
				{
					"indexed": true,
					"internalType": "bytes32",
					"name": "role",
					"type": "bytes32"
				},
				{
					"indexed": true,
					"internalType": "address",
					"name": "account",
					"type": "address"
				},
				{
					"indexed": true,
					"internalType": "address",
					"name": "sender",
					"type": "address"
				}
			],
			"name": "RoleGranted",
			"type": "event"
		},
		{
			"anonymous": false,
			"inputs": [
				{
					"indexed": true,
					"internalType": "bytes32",
					"name": "role",
					"type": "bytes32"
				},
				{
					"indexed": true,
					"internalType": "address",
					"name": "account",
					"type": "address"
				},
				{
					"indexed": true,
					"internalType": "address",
					"name": "sender",
					"type": "address"
				}
			],
			"name": "RoleRevoked",
			"type": "event"
		},
		{
			"anonymous": false,
			"inputs": [
				{
					"indexed": true,
					"internalType": "address",
					"name": "owner",
					"type": "address"
				},
				{
					"indexed": true,
					"internalType": "uint256",
					"name": "shareId",
					"type": "uint256"
				}
			],
			"name": "ShareRevoked",
			"type": "event"
		},
		{
			"anonymous": false,
			"inputs": [
				{
					"indexed": false,
					"internalType": "address",
					"name": "account",
					"type": "address"
				}
			],
			"name": "Unpaused",
			"type": "event"
		},
		{
			"anonymous": false,
			"inputs": [
				{
					"indexed": true,
					"internalType": "address",
					"name": "user",
					"type": "address"
				},
				{
					"indexed": true,
					"internalType": "uint256",
					"name": "vaccinationId",
					"type": "uint256"
				},
				{
					"indexed": false,
					"internalType": "string",
					"name": "ipfsHash",
					"type": "string"
				}
			],
			"name": "VaccinationAdded",
			"type": "event"
		},
		{
			"anonymous": false,
			"inputs": [
				{
					"indexed": true,
					"internalType": "address",
					"name": "user",
					"type": "address"
				},
				{
					"indexed": true,
					"internalType": "uint256",
					"name": "vaccinationId",
					"type": "uint256"
				},
				{
					"indexed": false,
					"internalType": "string",
					"name": "ipfsHash",
					"type": "string"
				}
			],
			"name": "VaccinationUpdated",
			"type": "event"
		},
		{
			"inputs": [],
			"name": "AUDITOR_ROLE",
			"outputs": [
				{
					"internalType": "bytes32",
					"name": "",
					"type": "bytes32"
				}
			],
			"stateMutability": "view",
			"type": "function"
		},
		{
			"inputs": [],
			"name": "CLINIC_ROLE",
			"outputs": [
				{
					"internalType": "bytes32",
					"name": "",
					"type": "bytes32"
				}
			],
			"stateMutability": "view",
			"type": "function"
		},
		{
			"inputs": [],
			"name": "DEFAULT_ADMIN_ROLE",
			"outputs": [
				{
					"internalType": "bytes32",
					"name": "",
					"type": "bytes32"
				}
			],
			"stateMutability": "view",
			"type": "function"
		},
		{
			"inputs": [],
			"name": "HEALTHCARE_PROVIDER_ROLE",
			"outputs": [
				{
					"internalType": "bytes32",
					"name": "",
					"type": "bytes32"
				}
			],
			"stateMutability": "view",
			"type": "function"
		},
		{
			"inputs": [],
			"name": "HOSPITAL_ROLE",
			"outputs": [
				{
					"internalType": "bytes32",
					"name": "",
					"type": "bytes32"
				}
			],
			"stateMutability": "view",
			"type": "function"
		},
		{
			"inputs": [],
			"name": "INSURANCE_ROLE",
			"outputs": [
				{
					"internalType": "bytes32",
					"name": "",
					"type": "bytes32"
				}
			],
			"stateMutability": "view",
			"type": "function"
		},
		{
			"inputs": [
				{
					"internalType": "string",
					"name": "_encryptedDataIpfsHash",
					"type": "string"
				},
				{
					"internalType": "string",
					"name": "_encryptedKey",
					"type": "string"
				},
				{
					"internalType": "bool",
					"name": "_isActive",
					"type": "bool"
				},
				{
					"internalType": "uint256",
					"name": "_startDate",
					"type": "uint256"
				},
				{
					"internalType": "uint256",
					"name": "_endDate",
					"type": "uint256"
				}
			],
			"name": "addMedication",
			"outputs": [
				{
					"internalType": "uint256",
					"name": "",
					"type": "uint256"
				}
			],
			"stateMutability": "nonpayable",
			"type": "function"
		},
		{
			"inputs": [
				{
					"internalType": "string",
					"name": "_encryptedDataIpfsHash",
					"type": "string"
				},
				{
					"internalType": "string",
					"name": "_encryptedFileIpfsHash",
					"type": "string"
				},
				{
					"internalType": "enum HealthWalletV2_05.ReportType",
					"name": "_reportType",
					"type": "uint8"
				},
				{
					"internalType": "bool",
					"name": "_hasFile",
					"type": "bool"
				},
				{
					"internalType": "uint256",
					"name": "_reportDate",
					"type": "uint256"
				},
				{
					"internalType": "string",
					"name": "_encryptedKey",
					"type": "string"
				}
			],
			"name": "addReport",
			"outputs": [
				{
					"internalType": "uint256",
					"name": "",
					"type": "uint256"
				}
			],
			"stateMutability": "nonpayable",
			"type": "function"
		},
		{
			"inputs": [
				{
					"internalType": "string",
					"name": "_encryptedDataIpfsHash",
					"type": "string"
				},
				{
					"internalType": "string",
					"name": "_encryptedCertificateIpfsHash",
					"type": "string"
				},
				{
					"internalType": "uint256",
					"name": "_vaccinationDate",
					"type": "uint256"
				}
			],
			"name": "addVaccination",
			"outputs": [
				{
					"internalType": "uint256",
					"name": "",
					"type": "uint256"
				}
			],
			"stateMutability": "nonpayable",
			"type": "function"
		},
		{
			"inputs": [
				{
					"internalType": "uint256",
					"name": "_logId",
					"type": "uint256"
				}
			],
			"name": "getAccessLog",
			"outputs": [
				{
					"components": [
						{
							"internalType": "uint256",
							"name": "id",
							"type": "uint256"
						},
						{
							"internalType": "address",
							"name": "accessorAddress",
							"type": "address"
						},
						{
							"internalType": "string",
							"name": "encryptedDetailsIpfsHash",
							"type": "string"
						},
						{
							"internalType": "enum HealthWalletV2_05.DataCategory",
							"name": "accessedCategory",
							"type": "uint8"
						},
						{
							"internalType": "uint256",
							"name": "accessTime",
							"type": "uint256"
						},
						{
							"internalType": "bytes32",
							"name": "dataIntegrityHash",
							"type": "bytes32"
						}
					],
					"internalType": "struct HealthWalletV2_05.AccessLog",
					"name": "",
					"type": "tuple"
				}
			],
			"stateMutability": "view",
			"type": "function"
		},
		{
			"inputs": [
				{
					"internalType": "address",
					"name": "_user",
					"type": "address"
				}
			],
			"name": "getAccessLogIds",
			"outputs": [
				{
					"internalType": "uint256[]",
					"name": "",
					"type": "uint256[]"
				}
			],
			"stateMutability": "view",
			"type": "function"
		},
		{
			"inputs": [
				{
					"internalType": "address",
					"name": "_user",
					"type": "address"
				}
			],
			"name": "getEmergencyContact",
			"outputs": [
				{
					"internalType": "address",
					"name": "",
					"type": "address"
				}
			],
			"stateMutability": "view",
			"type": "function"
		},
		{
			"inputs": [
				{
					"internalType": "address",
					"name": "_user",
					"type": "address"
				}
			],
			"name": "getMedicationIds",
			"outputs": [
				{
					"internalType": "uint256[]",
					"name": "",
					"type": "uint256[]"
				}
			],
			"stateMutability": "view",
			"type": "function"
		},
		{
			"inputs": [
				{
					"internalType": "uint256",
					"name": "_medicationId",
					"type": "uint256"
				}
			],
			"name": "getMedicationRef",
			"outputs": [
				{
					"components": [
						{
							"internalType": "uint256",
							"name": "id",
							"type": "uint256"
						},
						{
							"internalType": "string",
							"name": "encryptedDataIpfsHash",
							"type": "string"
						},
						{
							"internalType": "string",
							"name": "encryptedKey",
							"type": "string"
						},
						{
							"internalType": "bool",
							"name": "isActive",
							"type": "bool"
						},
						{
							"internalType": "uint256",
							"name": "startDate",
							"type": "uint256"
						},
						{
							"internalType": "uint256",
							"name": "endDate",
							"type": "uint256"
						},
						{
							"internalType": "uint256",
							"name": "createdAt",
							"type": "uint256"
						}
					],
					"internalType": "struct HealthWalletV2_05.MedicationRecordRef",
					"name": "",
					"type": "tuple"
				}
			],
			"stateMutability": "view",
			"type": "function"
		},
		{
			"inputs": [
				{
					"internalType": "address",
					"name": "_user",
					"type": "address"
				}
			],
			"name": "getPersonalInfoRef",
			"outputs": [
				{
					"components": [
						{
							"internalType": "string",
							"name": "encryptedDataIpfsHash",
							"type": "string"
						},
						{
							"internalType": "uint256",
							"name": "createdAt",
							"type": "uint256"
						},
						{
							"internalType": "uint256",
							"name": "lastUpdated",
							"type": "uint256"
						},
						{
							"internalType": "bool",
							"name": "exists",
							"type": "bool"
						},
						{
							"internalType": "string",
							"name": "encryptedKey",
							"type": "string"
						}
					],
					"internalType": "struct HealthWalletV2_05.PersonalInfoRef",
					"name": "",
					"type": "tuple"
				}
			],
			"stateMutability": "view",
			"type": "function"
		},
		{
			"inputs": [
				{
					"internalType": "address",
					"name": "_recipient",
					"type": "address"
				}
			],
			"name": "getReceivedShareIds",
			"outputs": [
				{
					"internalType": "uint256[]",
					"name": "",
					"type": "uint256[]"
				}
			],
			"stateMutability": "view",
			"type": "function"
		},
		{
			"inputs": [
				{
					"internalType": "address",
					"name": "_user",
					"type": "address"
				}
			],
			"name": "getReportIds",
			"outputs": [
				{
					"internalType": "uint256[]",
					"name": "",
					"type": "uint256[]"
				}
			],
			"stateMutability": "view",
			"type": "function"
		},
		{
			"inputs": [
				{
					"internalType": "uint256",
					"name": "_reportId",
					"type": "uint256"
				}
			],
			"name": "getReportRef",
			"outputs": [
				{
					"components": [
						{
							"internalType": "uint256",
							"name": "id",
							"type": "uint256"
						},
						{
							"internalType": "string",
							"name": "encryptedDataIpfsHash",
							"type": "string"
						},
						{
							"internalType": "string",
							"name": "encryptedFileIpfsHash",
							"type": "string"
						},
						{
							"internalType": "enum HealthWalletV2_05.ReportType",
							"name": "reportType",
							"type": "uint8"
						},
						{
							"internalType": "bool",
							"name": "hasFile",
							"type": "bool"
						},
						{
							"internalType": "uint256",
							"name": "reportDate",
							"type": "uint256"
						},
						{
							"internalType": "uint256",
							"name": "createdAt",
							"type": "uint256"
						},
						{
							"internalType": "string",
							"name": "encryptedKey",
							"type": "string"
						}
					],
					"internalType": "struct HealthWalletV2_05.MedicalReportRef",
					"name": "",
					"type": "tuple"
				}
			],
			"stateMutability": "view",
			"type": "function"
		},
		{
			"inputs": [
				{
					"internalType": "bytes32",
					"name": "role",
					"type": "bytes32"
				}
			],
			"name": "getRoleAdmin",
			"outputs": [
				{
					"internalType": "bytes32",
					"name": "",
					"type": "bytes32"
				}
			],
			"stateMutability": "view",
			"type": "function"
		},
		{
			"inputs": [
				{
					"internalType": "address",
					"name": "_user",
					"type": "address"
				}
			],
			"name": "getShareIds",
			"outputs": [
				{
					"internalType": "uint256[]",
					"name": "",
					"type": "uint256[]"
				}
			],
			"stateMutability": "view",
			"type": "function"
		},
		{
			"inputs": [
				{
					"internalType": "uint256",
					"name": "_shareId",
					"type": "uint256"
				}
			],
			"name": "getShareRecord",
			"outputs": [
				{
					"components": [
						{
							"internalType": "uint256",
							"name": "id",
							"type": "uint256"
						},
						{
							"internalType": "address",
							"name": "ownerAddress",
							"type": "address"
						},
						{
							"internalType": "address",
							"name": "recipientAddress",
							"type": "address"
						},
						{
							"internalType": "bytes32",
							"name": "recipientNameHash",
							"type": "bytes32"
						},
						{
							"internalType": "string",
							"name": "encryptedRecipientDataIpfsHash",
							"type": "string"
						},
						{
							"internalType": "enum HealthWalletV2_05.RecipientType",
							"name": "recipientType",
							"type": "uint8"
						},
						{
							"internalType": "enum HealthWalletV2_05.RecordType",
							"name": "recordType",
							"type": "uint8"
						},
						{
							"internalType": "uint256",
							"name": "recordId",
							"type": "uint256"
						},
						{
							"internalType": "uint256",
							"name": "shareDate",
							"type": "uint256"
						},
						{
							"internalType": "uint256",
							"name": "expiryDate",
							"type": "uint256"
						},
						{
							"internalType": "enum HealthWalletV2_05.AccessLevel",
							"name": "accessLevel",
							"type": "uint8"
						},
						{
							"internalType": "enum HealthWalletV2_05.ShareStatus",
							"name": "status",
							"type": "uint8"
						},
						{
							"internalType": "string",
							"name": "encryptedRecordKey",
							"type": "string"
						}
					],
					"internalType": "struct HealthWalletV2_05.ShareRecord",
					"name": "",
					"type": "tuple"
				}
			],
			"stateMutability": "view",
			"type": "function"
		},
		{
			"inputs": [],
			"name": "getTotalCounts",
			"outputs": [
				{
					"internalType": "uint256",
					"name": "medications",
					"type": "uint256"
				},
				{
					"internalType": "uint256",
					"name": "vaccinations",
					"type": "uint256"
				},
				{
					"internalType": "uint256",
					"name": "reports",
					"type": "uint256"
				},
				{
					"internalType": "uint256",
					"name": "shares",
					"type": "uint256"
				},
				{
					"internalType": "uint256",
					"name": "totalAccessLogs",
					"type": "uint256"
				}
			],
			"stateMutability": "view",
			"type": "function"
		},
		{
			"inputs": [
				{
					"internalType": "address",
					"name": "_user",
					"type": "address"
				}
			],
			"name": "getUserPublicKey",
			"outputs": [
				{
					"internalType": "string",
					"name": "",
					"type": "string"
				}
			],
			"stateMutability": "view",
			"type": "function"
		},
		{
			"inputs": [
				{
					"internalType": "address",
					"name": "_user",
					"type": "address"
				}
			],
			"name": "getVaccinationIds",
			"outputs": [
				{
					"internalType": "uint256[]",
					"name": "",
					"type": "uint256[]"
				}
			],
			"stateMutability": "view",
			"type": "function"
		},
		{
			"inputs": [
				{
					"internalType": "uint256",
					"name": "_vaccinationId",
					"type": "uint256"
				}
			],
			"name": "getVaccinationRef",
			"outputs": [
				{
					"components": [
						{
							"internalType": "uint256",
							"name": "id",
							"type": "uint256"
						},
						{
							"internalType": "string",
							"name": "encryptedDataIpfsHash",
							"type": "string"
						},
						{
							"internalType": "string",
							"name": "encryptedCertificateIpfsHash",
							"type": "string"
						},
						{
							"internalType": "uint256",
							"name": "vaccinationDate",
							"type": "uint256"
						},
						{
							"internalType": "uint256",
							"name": "createdAt",
							"type": "uint256"
						}
					],
					"internalType": "struct HealthWalletV2_05.VaccinationRecordRef",
					"name": "",
					"type": "tuple"
				}
			],
			"stateMutability": "view",
			"type": "function"
		},
		{
			"inputs": [
				{
					"internalType": "bytes32",
					"name": "role",
					"type": "bytes32"
				},
				{
					"internalType": "address",
					"name": "account",
					"type": "address"
				}
			],
			"name": "grantRole",
			"outputs": [],
			"stateMutability": "nonpayable",
			"type": "function"
		},
		{
			"inputs": [
				{
					"internalType": "address",
					"name": "_user",
					"type": "address"
				}
			],
			"name": "hasPersonalInfo",
			"outputs": [
				{
					"internalType": "bool",
					"name": "",
					"type": "bool"
				}
			],
			"stateMutability": "view",
			"type": "function"
		},
		{
			"inputs": [
				{
					"internalType": "bytes32",
					"name": "role",
					"type": "bytes32"
				},
				{
					"internalType": "address",
					"name": "account",
					"type": "address"
				}
			],
			"name": "hasRole",
			"outputs": [
				{
					"internalType": "bool",
					"name": "",
					"type": "bool"
				}
			],
			"stateMutability": "view",
			"type": "function"
		},
		{
			"inputs": [
				{
					"internalType": "address",
					"name": "_owner",
					"type": "address"
				},
				{
					"internalType": "string",
					"name": "_encryptedDetailsIpfsHash",
					"type": "string"
				},
				{
					"internalType": "enum HealthWalletV2_05.DataCategory",
					"name": "_accessedCategory",
					"type": "uint8"
				},
				{
					"internalType": "bytes32",
					"name": "_dataIntegrityHash",
					"type": "bytes32"
				}
			],
			"name": "logDataAccess",
			"outputs": [
				{
					"internalType": "uint256",
					"name": "",
					"type": "uint256"
				}
			],
			"stateMutability": "nonpayable",
			"type": "function"
		},
		{
			"inputs": [],
			"name": "owner",
			"outputs": [
				{
					"internalType": "address",
					"name": "",
					"type": "address"
				}
			],
			"stateMutability": "view",
			"type": "function"
		},
		{
			"inputs": [],
			"name": "pause",
			"outputs": [],
			"stateMutability": "nonpayable",
			"type": "function"
		},
		{
			"inputs": [],
			"name": "paused",
			"outputs": [
				{
					"internalType": "bool",
					"name": "",
					"type": "bool"
				}
			],
			"stateMutability": "view",
			"type": "function"
		},
		{
			"inputs": [
				{
					"internalType": "address",
					"name": "_auditor",
					"type": "address"
				}
			],
			"name": "registerAuditor",
			"outputs": [],
			"stateMutability": "nonpayable",
			"type": "function"
		},
		{
			"inputs": [
				{
					"internalType": "address",
					"name": "_clinic",
					"type": "address"
				}
			],
			"name": "registerClinic",
			"outputs": [],
			"stateMutability": "nonpayable",
			"type": "function"
		},
		{
			"inputs": [
				{
					"internalType": "address",
					"name": "_provider",
					"type": "address"
				}
			],
			"name": "registerHealthcareProvider",
			"outputs": [],
			"stateMutability": "nonpayable",
			"type": "function"
		},
		{
			"inputs": [
				{
					"internalType": "address",
					"name": "_hospital",
					"type": "address"
				}
			],
			"name": "registerHospital",
			"outputs": [],
			"stateMutability": "nonpayable",
			"type": "function"
		},
		{
			"inputs": [
				{
					"internalType": "address",
					"name": "_insurance",
					"type": "address"
				}
			],
			"name": "registerInsurance",
			"outputs": [],
			"stateMutability": "nonpayable",
			"type": "function"
		},
		{
			"inputs": [],
			"name": "renounceOwnership",
			"outputs": [],
			"stateMutability": "nonpayable",
			"type": "function"
		},
		{
			"inputs": [
				{
					"internalType": "bytes32",
					"name": "role",
					"type": "bytes32"
				},
				{
					"internalType": "address",
					"name": "callerConfirmation",
					"type": "address"
				}
			],
			"name": "renounceRole",
			"outputs": [],
			"stateMutability": "nonpayable",
			"type": "function"
		},
		{
			"inputs": [
				{
					"internalType": "address",
					"name": "_entity",
					"type": "address"
				},
				{
					"internalType": "bytes32",
					"name": "_role",
					"type": "bytes32"
				}
			],
			"name": "revokeEntityRole",
			"outputs": [],
			"stateMutability": "nonpayable",
			"type": "function"
		},
		{
			"inputs": [
				{
					"internalType": "bytes32",
					"name": "role",
					"type": "bytes32"
				},
				{
					"internalType": "address",
					"name": "account",
					"type": "address"
				}
			],
			"name": "revokeRole",
			"outputs": [],
			"stateMutability": "nonpayable",
			"type": "function"
		},
		{
			"inputs": [
				{
					"internalType": "uint256",
					"name": "_shareId",
					"type": "uint256"
				}
			],
			"name": "revokeShare",
			"outputs": [],
			"stateMutability": "nonpayable",
			"type": "function"
		},
		{
			"inputs": [
				{
					"internalType": "address",
					"name": "_emergencyContact",
					"type": "address"
				}
			],
			"name": "setEmergencyContact",
			"outputs": [],
			"stateMutability": "nonpayable",
			"type": "function"
		},
		{
			"inputs": [
				{
					"internalType": "string",
					"name": "_encryptedDataIpfsHash",
					"type": "string"
				},
				{
					"internalType": "string",
					"name": "_encryptedKey",
					"type": "string"
				}
			],
			"name": "setPersonalInfo",
			"outputs": [],
			"stateMutability": "nonpayable",
			"type": "function"
		},
		{
			"inputs": [
				{
					"internalType": "string",
					"name": "_publicKeyIpfsHash",
					"type": "string"
				},
				{
					"internalType": "bytes32",
					"name": "_publicKeyHash",
					"type": "bytes32"
				}
			],
			"name": "setUserPublicKey",
			"outputs": [],
			"stateMutability": "nonpayable",
			"type": "function"
		},
		{
			"inputs": [
				{
					"internalType": "address",
					"name": "_recipientAddress",
					"type": "address"
				},
				{
					"internalType": "bytes32",
					"name": "_recipientNameHash",
					"type": "bytes32"
				},
				{
					"internalType": "string",
					"name": "_encryptedRecipientDataIpfsHash",
					"type": "string"
				},
				{
					"internalType": "enum HealthWalletV2_05.RecipientType",
					"name": "_recipientType",
					"type": "uint8"
				},
				{
					"internalType": "enum HealthWalletV2_05.RecordType",
					"name": "_recordType",
					"type": "uint8"
				},
				{
					"internalType": "uint256",
					"name": "_recordId",
					"type": "uint256"
				},
				{
					"internalType": "uint256",
					"name": "_expiryDate",
					"type": "uint256"
				},
				{
					"internalType": "enum HealthWalletV2_05.AccessLevel",
					"name": "_accessLevel",
					"type": "uint8"
				},
				{
					"internalType": "string",
					"name": "_encryptedRecordKey",
					"type": "string"
				}
			],
			"name": "shareData",
			"outputs": [
				{
					"internalType": "uint256",
					"name": "",
					"type": "uint256"
				}
			],
			"stateMutability": "nonpayable",
			"type": "function"
		},
		{
			"inputs": [
				{
					"internalType": "bytes4",
					"name": "interfaceId",
					"type": "bytes4"
				}
			],
			"name": "supportsInterface",
			"outputs": [
				{
					"internalType": "bool",
					"name": "",
					"type": "bool"
				}
			],
			"stateMutability": "view",
			"type": "function"
		},
		{
			"inputs": [
				{
					"internalType": "address",
					"name": "newOwner",
					"type": "address"
				}
			],
			"name": "transferOwnership",
			"outputs": [],
			"stateMutability": "nonpayable",
			"type": "function"
		},
		{
			"inputs": [],
			"name": "unpause",
			"outputs": [],
			"stateMutability": "nonpayable",
			"type": "function"
		},
		{
			"inputs": [
				{
					"internalType": "uint256",
					"name": "_medicationId",
					"type": "uint256"
				},
				{
					"internalType": "string",
					"name": "_encryptedDataIpfsHash",
					"type": "string"
				},
				{
					"internalType": "string",
					"name": "_encryptedKey",
					"type": "string"
				},
				{
					"internalType": "bool",
					"name": "_isActive",
					"type": "bool"
				},
				{
					"internalType": "uint256",
					"name": "_startDate",
					"type": "uint256"
				},
				{
					"internalType": "uint256",
					"name": "_endDate",
					"type": "uint256"
				}
			],
			"name": "updateMedication",
			"outputs": [],
			"stateMutability": "nonpayable",
			"type": "function"
		},
		{
			"inputs": [
				{
					"internalType": "uint256",
					"name": "_reportId",
					"type": "uint256"
				},
				{
					"internalType": "string",
					"name": "_encryptedDataIpfsHash",
					"type": "string"
				},
				{
					"internalType": "string",
					"name": "_encryptedFileIpfsHash",
					"type": "string"
				},
				{
					"internalType": "enum HealthWalletV2_05.ReportType",
					"name": "_reportType",
					"type": "uint8"
				},
				{
					"internalType": "bool",
					"name": "_hasFile",
					"type": "bool"
				},
				{
					"internalType": "uint256",
					"name": "_reportDate",
					"type": "uint256"
				},
				{
					"internalType": "string",
					"name": "_encryptedKey",
					"type": "string"
				}
			],
			"name": "updateReport",
			"outputs": [],
			"stateMutability": "nonpayable",
			"type": "function"
		},
		{
			"inputs": [
				{
					"internalType": "uint256",
					"name": "_vaccinationId",
					"type": "uint256"
				},
				{
					"internalType": "string",
					"name": "_encryptedDataIpfsHash",
					"type": "string"
				},
				{
					"internalType": "string",
					"name": "_encryptedCertificateIpfsHash",
					"type": "string"
				},
				{
					"internalType": "uint256",
					"name": "_vaccinationDate",
					"type": "uint256"
				}
			],
			"name": "updateVaccination",
			"outputs": [],
			"stateMutability": "nonpayable",
			"type": "function"
		},
		{
			"inputs": [
				{
					"internalType": "address",
					"name": "",
					"type": "address"
				}
			],
			"name": "userCryptoProfiles",
			"outputs": [
				{
					"internalType": "bytes32",
					"name": "publicKeyHash",
					"type": "bytes32"
				},
				{
					"internalType": "string",
					"name": "publicKeyIpfsHash",
					"type": "string"
				},
				{
					"internalType": "uint256",
					"name": "keyVersion",
					"type": "uint256"
				},
				{
					"internalType": "bool",
					"name": "isSet",
					"type": "bool"
				}
			],
			"stateMutability": "view",
			"type": "function"
		}
	]
}