{
	"data": {
		"bytecode": {
			"linkReferences": {},
			"object": "608060405234801561001057600080fd5b50338061003757604051631e4fbdf760e01b81526000600482015260240160405180910390fd5b61004081610052565b5061004c6000336100a2565b50610137565b600080546001600160a01b038381166001600160a01b0319831681178455604051919092169283917f8be0079c531659141344cd1fd0a4f28419497f9722a3daafe3b4186f6b6457e09190a35050565b60008281526001602090815260408083206001600160a01b038516845290915281205460ff1661012d5760008381526001602081815260408084206001600160a01b0387168086529252808420805460ff19169093179092559051339286917f2f8788117e7eff1d82e926ec794901d17c78024a50270940304540a733656f0d9190a4506001610131565b5060005b92915050565b61283c806101466000396000f3fe608060405234801561001057600080fd5b506004361061015f5760003560e01c806301b1d3241461016457806301ffc9a71461018d57806303e9e609146101b0578063061f9811146101d05780630aeacb5e146101e55780630e8dce29146101f7578063112ea2621461020a57806318bd48471461021d5780631b6377b81461023d57806322770d8e14610250578063248a9ca31461026357806324c20a34146102765780632f2ff15d1461028b57806336568abe1461029e5780633812c6a8146102b1578063715018a6146102c457806385e68531146102cc5780638b681c7c146102df5780638da5cb5b146102ff57806391284a891461031457806391d14854146103275780639399e9731461033a578063a02bd29c1461034d578063a217fddf14610360578063b4b07a7014610368578063b995221514610391578063cf56b4eb146103a4578063d547741f146103b7578063f2fde38b146103ca575b600080fd5b610177610172366004611de9565b6103dd565b6040516101849190611e25565b60405180910390f35b6101a061019b366004611e8e565b610541565b6040519015158152602001610184565b6101c36101be366004611de9565b610578565b6040516101849190611f12565b6101e36101de366004611de9565b610802565b005b6007545b604051908152602001610184565b6101e96102053660046120a2565b6108c4565b6101e361021836600461212a565b610b58565b61023061022b36600461212a565b610bd0565b6040516101849190612181565b6101e961024b366004612194565b610da3565b6101a061025e36600461212a565b610f7c565b6101e9610271366004611de9565b610f96565b6101e96000805160206127e783398151915281565b6101e361029936600461220b565b610fac565b6101e36102ac36600461220b565b610fce565b6101e36102bf366004612237565b611006565b6101e3611131565b6101e36102da36600461212a565b611145565b6102f26102ed366004612291565b61120d565b60405161018491906122bb565b61030761133c565b6040516101849190612315565b6101e361032236600461212a565b61134b565b6101a061033536600461220b565b6113a0565b6101e3610348366004612329565b6113cb565b6101e361035b3660046123f3565b611664565b6101e9600081565b61030761037636600461212a565b6006602052600090815260409020546001600160a01b031681565b6101e361039f36600461212a565b611882565b6101a06103b2366004612427565b6118a5565b6101e36103c536600461220b565b611a22565b6101e36103d836600461212a565b611a3e565b6060816000811180156103f257506007548111155b6104175760405162461bcd60e51b815260040161040e90612464565b60405180910390fd5b600081815260036020526040902060050154600160a01b900460ff1661044f5760405162461bcd60e51b815260040161040e90612493565b60008381526003602052604090206001015483906001600160a01b0316331461048a5760405162461bcd60e51b815260040161040e906124c1565b600084815260056020908152604080832080548251818502810185019093528083529193909284015b82821015610534576000848152602090819020604080516060810182526003860290920180546001600160a01b0316835260018101549383019390935260028301549192919083019060ff16600481111561051057610510611e0f565b600481111561052157610521611e0f565b81525050815260200190600101906104b3565b5050505092505050919050565b60006001600160e01b03198216637965db0b60e01b148061057257506301ffc9a760e01b6001600160e01b03198316145b92915050565b610580611d24565b8160008111801561059357506007548111155b6105af5760405162461bcd60e51b815260040161040e90612464565b600081815260036020526040902060050154600160a01b900460ff166105e75760405162461bcd60e51b815260040161040e90612493565b600083815260036020526040902060010154839061060f906001600160a01b031633836118a5565b61062b5760405162461bcd60e51b815260040161040e90612505565b6000848152600360209081526040918290208251610120810184528154815260018201546001600160a01b031692810192909252600281018054929391929184019161067690612549565b80601f01602080910402602001604051908101604052809291908181526020018280546106a290612549565b80156106ef5780601f106106c4576101008083540402835291602001916106ef565b820191906000526020600020905b8154815290600101906020018083116106d257829003601f168201915b5050509183525050600382015460209091019060ff16600581111561071657610716611e0f565b600581111561072757610727611e0f565b81526004820154602082015260058201546001600160a01b0381166040830152600160a01b900460ff161515606082015260068201805460809092019161076d90612549565b80601f016020809104026020016040519081016040528092919081815260200182805461079990612549565b80156107e65780601f106107bb576101008083540402835291602001916107e6565b820191906000526020600020905b8154815290600101906020018083116107c957829003601f168201915b5050505050815260200160078201548152505092505050919050565b8060008111801561081557506007548111155b6108315760405162461bcd60e51b815260040161040e90612464565b600081815260036020526040902060050154600160a01b900460ff166108695760405162461bcd60e51b815260040161040e90612493565b60008281526003602052604090206001015482906001600160a01b031633146108a45760405162461bcd60e51b815260040161040e906124c1565b50506000908152600360205260409020600501805460ff60a01b19169055565b60006108de6000805160206127e7833981519152336113a0565b6109275760405162461bcd60e51b815260206004820152601a6024820152792737ba1030b71030baba3437b934bd32b210383937bb34b232b960311b604482015260640161040e565b6001600160a01b0385166109775760405162461bcd60e51b8152602060048201526017602482015276496e76616c69642070617469656e74206164647265737360481b604482015260640161040e565b60008451116109985760405162461bcd60e51b815260040161040e90612583565b600780549060006109a8836125cc565b91905055506040518061012001604052806007548152602001866001600160a01b031681526020018581526020018460058111156109e8576109e8611e0f565b815242602080830191909152336040808401919091526001606084018190526080840187905260a0909301839052600754600090815260038352819020845181559184015192820180546001600160a01b0319166001600160a01b0390941693909317909255908201516002820190610a619082612633565b50606082015160038201805460ff19166001836005811115610a8557610a85611e0f565b02179055506080820151600482015560a082015160058201805460c08501511515600160a01b026001600160a81b03199091166001600160a01b039093169290921791909117905560e08201516006820190610ae19082612633565b5061010091909101516007918201556001600160a01b0386166000818152600260209081526040808320855481546001810183559185529290932090920155915491519091906000805160206127c783398151915290610b4490889088906126f1565b60405180910390a350600754949350505050565b6000610b6381611a7c565b6001600160a01b038216610bb45760405162461bcd60e51b8152602060048201526018602482015277496e76616c69642070726f7669646572206164647265737360401b604482015260640161040e565b610bcc6000805160206127e783398151915283610fac565b5050565b60606001600160a01b0382163303610c4c576001600160a01b03821660009081526002602090815260409182902080548351818402810184019094528084529091830182828015610c4057602002820191906000526020600020905b815481526020019060010190808311610c2c575b50505050509050919050565b610c568233611a86565b610c725760405162461bcd60e51b815260040161040e90612713565b6001600160a01b038216600090815260026020526040812090805b8254811015610cd857610cbd8533858481548110610cad57610cad61273b565b90600052602060002001546118a5565b15610cd05781610ccc816125cc565b9250505b600101610c8d565b506000816001600160401b03811115610cf357610cf3611fde565b604051908082528060200260200182016040528015610d1c578160200160208202803683370190505b5090506000805b8454811015610d9857610d438733878481548110610cad57610cad61273b565b15610d9057848181548110610d5a57610d5a61273b565b9060005260206000200154838381518110610d7757610d7761273b565b602090810291909101015281610d8c816125cc565b9250505b600101610d23565b509095945050505050565b600080845111610dc55760405162461bcd60e51b815260040161040e90612583565b60078054906000610dd5836125cc565b91905055506040518061012001604052806007548152602001336001600160a01b03168152602001858152602001846005811115610e1557610e15611e0f565b815242602080830191909152336040808401919091526001606084018190526080840187905260a0909301839052600754600090815260038352819020845181559184015192820180546001600160a01b0319166001600160a01b0390941693909317909255908201516002820190610e8e9082612633565b50606082015160038201805460ff19166001836005811115610eb257610eb2611e0f565b02179055506080820151600482015560a082015160058201805460c08501511515600160a01b026001600160a81b03199091166001600160a01b039093169290921791909117905560e08201516006820190610f0e9082612633565b506101009190910151600791820155336000818152600260209081526040808320855481546001810183559185529290932090920155915491519091906000805160206127c783398151915290610f6890889088906126f1565b60405180910390a3506007545b9392505050565b60006105726000805160206127e7833981519152836113a0565b6000908152600160208190526040909120015490565b610fb582610f96565b610fbe81611a7c565b610fc88383611b83565b50505050565b6001600160a01b0381163314610ff75760405163334bd91960e11b815260040160405180910390fd5b6110018282611bfc565b505050565b8260008111801561101957506007548111155b6110355760405162461bcd60e51b815260040161040e90612464565b600081815260036020526040902060050154600160a01b900460ff1661106d5760405162461bcd60e51b815260040161040e90612493565b60008481526003602052604090206001015484906001600160a01b031633146110a85760405162461bcd60e51b815260040161040e906124c1565b6000858152600360205260409020600281016110c48682612633565b50600681016110d38582612633565b506007810180549060006110e6836125cc565b9190505550857f088d9e16504277bf999412471e756eedf1ab2491c6a6399c9d349d3fea6d70cf868360070154604051611121929190612751565b60405180910390a2505050505050565b611139611c69565b6111436000611c9b565b565b3360009081526004602090815260408083206001600160a01b038516845290915290206003015460ff166111b45760405162461bcd60e51b8152602060048201526016602482015275139bc81858dd1a5d99481858d8d95cdcc819dc985b9d60521b604482015260640161040e565b3360008181526004602090815260408083206001600160a01b0386168085529252808320600301805460ff19169055519092917f825c8be24eb0df19500f63e86c29e7d0d951e73056b889b891d85e40938d9b6e91a350565b61124a6040518060a0016040528060006001600160a01b031681526020016060815260200160008152602001600015158152602001600081525090565b336001600160a01b03841614806112695750336001600160a01b038316145b6112855760405162461bcd60e51b815260040161040e90612713565b6001600160a01b0380841660009081526004602090815260408083208685168452825291829020825160a0810184528154909416845260018101805484518185028101850190955280855291938584019390929083018282801561130857602002820191906000526020600020905b8154815260200190600101908083116112f4575b505050918352505060028201546020820152600382015460ff16151560408201526004909101546060909101529392505050565b6000546001600160a01b031690565b6001600160a01b0381166113715760405162461bcd60e51b815260040161040e90612773565b33600090815260066020526040902080546001600160a01b0319166001600160a01b0392909216919091179055565b60009182526001602090815260408084206001600160a01b0393909316845291905290205460ff1690565b6001600160a01b0383166113f15760405162461bcd60e51b815260040161040e90612773565b60008251116114535760405162461bcd60e51b815260206004820152602860248201527f4d757374206772616e742061636365737320746f206174206c65617374206f6e60448201526719481c9958dbdc9960c21b606482015260840161040e565b6000811180156114655750610e428111155b6114a45760405162461bcd60e51b815260206004820152601060248201526f24b73b30b634b210323ab930ba34b7b760811b604482015260640161040e565b60005b825181101561155857336001600160a01b0316600360008584815181106114d0576114d061273b565b6020908102919091018101518252810191909152604001600020600101546001600160a01b0316146115505760405162461bcd60e51b815260206004820152602360248201527f596f7520646f6e2774206f776e20616c6c20737065636966696564207265636f60448201526272647360e81b606482015260840161040e565b6001016114a7565b506000611568826201518061279c565b61157290426127b3565b6040805160a0810182526001600160a01b0387811680835260208084018981528486018790526001606086018190524260808701523360009081526004845287812094815293835295909220845181546001600160a01b031916941693909317835590518051959650929491936115ef9390850192910190611d89565b506040828101516002830155606083015160038301805460ff1916911515919091179055608090920151600490910155518181526001600160a01b0385169033907f65d0cc1e52d49938ca4ad9f423c79c1b84d914b9a683fbc5d3f93ac3cc5635f5906020015b60405180910390a350505050565b8160008111801561167757506007548111155b6116935760405162461bcd60e51b815260040161040e90612464565b600081815260036020526040902060050154600160a01b900460ff166116cb5760405162461bcd60e51b815260040161040e90612493565b60008381526003602052604090206001015483906116f3906001600160a01b031633836118a5565b61170f5760405162461bcd60e51b815260040161040e90612505565b6000848152600360209081526040808320600101546001600160a01b039081168452600690925290912054339116036117955760008481526003602090815260409182902060010154915142815233926001600160a01b0316917ff09b5b37601d747e980aad190f31b7fa72740906d3da5eb0af65d1f89fde166b910160405180910390a35b600560008581526020019081526020016000206040518060600160405280336001600160a01b031681526020014281526020018560048111156117da576117da611e0f565b90528154600180820184556000938452602093849020835160039093020180546001600160a01b0319166001600160a01b0390931692909217825592820151818401556040820151600282018054939492939192909160ff19169083600481111561184757611847611e0f565b02179055505060405142815233915085907fdec39eb35dc9ca96737e4515f8a70f5db122e248213ee947b996e1f678ab05b890602001611656565b600061188d81611a7c565b610bcc6000805160206127e783398151915283611a22565b6000826001600160a01b0316846001600160a01b0316036118c857506001610f75565b6001600160a01b038481166000908152600660205260409020548185169116036118f457506001610f75565b6001600160a01b03808516600090815260046020908152604080832087851684528252808320815160a08101835281549095168552600181018054835181860281018601909452808452949594919385810193929083018282801561197857602002820191906000526020600020905b815481526020019060010190808311611964575b505050918352505060028201546020820152600382015460ff16151560408201526004909101546060918201528101519091506119b9576000915050610f75565b80604001514211156119cf576000915050610f75565b60005b816020015151811015611a165783826020015182815181106119f6576119f661273b565b602002602001015103611a0e57600192505050610f75565b6001016119d2565b50600095945050505050565b611a2b82610f96565b611a3481611a7c565b610fc88383611bfc565b611a46611c69565b6001600160a01b038116611a70576000604051631e4fbdf760e01b815260040161040e9190612315565b611a7981611c9b565b50565b611a798133611ceb565b6001600160a01b038281166000908152600660205260408120549091808416911603611ab457506001610572565b6001600160a01b03808416600090815260046020908152604080832086851684528252808320815160a081018352815490951685526001810180548351818602810186019094528084529495949193858101939290830182828015611b3857602002820191906000526020600020905b815481526020019060010190808311611b24575b505050918352505060028201546020820152600382015460ff16151560408201526004909101546060918201528101519091508015611b7b575080604001514211155b949350505050565b6000611b8f83836113a0565b611bf45760008381526001602081815260408084206001600160a01b0387168086529252808420805460ff19169093179092559051339286917f2f8788117e7eff1d82e926ec794901d17c78024a50270940304540a733656f0d9190a4506001610572565b506000610572565b6000611c0883836113a0565b15611bf45760008381526001602090815260408083206001600160a01b0386168085529252808320805460ff1916905551339286917ff6391f5c32d9c69d2a47ea670b442974b53935d1edc7fd64eb21e047a839171b9190a4506001610572565b33611c7261133c565b6001600160a01b031614611143573360405163118cdaa760e01b815260040161040e9190612315565b600080546001600160a01b038381166001600160a01b0319831681178455604051919092169283917f8be0079c531659141344cd1fd0a4f28419497f9722a3daafe3b4186f6b6457e09190a35050565b611cf582826113a0565b610bcc5760405163e2517d3f60e01b81526001600160a01b03821660048201526024810183905260440161040e565b6040518061012001604052806000815260200160006001600160a01b031681526020016060815260200160006005811115611d6157611d61611e0f565b8152600060208201819052604082018190526060808301829052608083015260a09091015290565b828054828255906000526020600020908101928215611dc4579160200282015b82811115611dc4578251825591602001919060010190611da9565b50611dd0929150611dd4565b5090565b5b80821115611dd05760008155600101611dd5565b600060208284031215611dfb57600080fd5b5035919050565b6001600160a01b03169052565b634e487b7160e01b600052602160045260246000fd5b602080825282518282018190526000918401906040840190835b81811015610d9857835180516001600160a01b03168452602080820151908501526040015160058110611e7457611e74611e0f565b604084015260209390930192606090920191600101611e3f565b600060208284031215611ea057600080fd5b81356001600160e01b031981168114610f7557600080fd5b6000815180845260005b81811015611ede57602081850181015186830182015201611ec2565b506000602082860101526020601f19601f83011685010191505092915050565b60068110611f0e57611f0e611e0f565b9052565b602081528151602082015260006020830151611f316040840182611e02565b5060408301516101206060840152611f4d610140840182611eb8565b90506060840151611f616080850182611efe565b50608084015160a084015260a0840151611f7e60c0850182611e02565b5060c084015180151560e08501525060e0840151838203601f1901610100850152611fa98282611eb8565b9150506101008401516101208401528091505092915050565b80356001600160a01b0381168114611fd957600080fd5b919050565b634e487b7160e01b600052604160045260246000fd5b604051601f8201601f191681016001600160401b038111828210171561201c5761201c611fde565b604052919050565b600082601f83011261203557600080fd5b81356001600160401b0381111561204e5761204e611fde565b612061601f8201601f1916602001611ff4565b81815284602083860101111561207657600080fd5b816020850160208301376000918101602001919091529392505050565b803560068110611fd957600080fd5b600080600080608085870312156120b857600080fd5b6120c185611fc2565b935060208501356001600160401b038111156120dc57600080fd5b6120e887828801612024565b9350506120f760408601612093565b915060608501356001600160401b0381111561211257600080fd5b61211e87828801612024565b91505092959194509250565b60006020828403121561213c57600080fd5b610f7582611fc2565b600081518084526020840193506020830160005b82811015612177578151865260209586019590910190600101612159565b5093949350505050565b602081526000610f756020830184612145565b6000806000606084860312156121a957600080fd5b83356001600160401b038111156121bf57600080fd5b6121cb86828701612024565b9350506121da60208501612093565b915060408401356001600160401b038111156121f557600080fd5b61220186828701612024565b9150509250925092565b6000806040838503121561221e57600080fd5b8235915061222e60208401611fc2565b90509250929050565b60008060006060848603121561224c57600080fd5b8335925060208401356001600160401b0381111561226957600080fd5b61227586828701612024565b92505060408401356001600160401b038111156121f557600080fd5b600080604083850312156122a457600080fd5b6122ad83611fc2565b915061222e60208401611fc2565b602080825282516001600160a01b03168282015282015160a060408301526000906122e960c0840182612145565b905060408401516060840152606084015115156080840152608084015160a08401528091505092915050565b6001600160a01b0391909116815260200190565b60008060006060848603121561233e57600080fd5b61234784611fc2565b925060208401356001600160401b0381111561236257600080fd5b8401601f8101861361237357600080fd5b80356001600160401b0381111561238c5761238c611fde565b8060051b61239c60208201611ff4565b918252602081840181019290810190898411156123b857600080fd5b6020850194505b838510156123de578435808352602095860195909350909101906123bf565b96999698505050506040949094013593505050565b6000806040838503121561240657600080fd5b8235915060208301356005811061241c57600080fd5b809150509250929050565b60008060006060848603121561243c57600080fd5b61244584611fc2565b925061245360208501611fc2565b929592945050506040919091013590565b602080825260159082015274149958dbdc9908191bd95cc81b9bdd08195e1a5cdd605a1b604082015260600190565b6020808252601490820152735265636f7264206973206e6f742061637469766560601b604082015260600190565b60208082526024908201527f4f6e6c792070617469656e742063616e20706572666f726d20746869732061636040820152633a34b7b760e11b606082015260800190565b60208082526024908201527f4e6f7420617574686f72697a656420746f20616363657373207468697320726560408201526318dbdc9960e21b606082015260800190565b600181811c9082168061255d57607f821691505b60208210810361257d57634e487b7160e01b600052602260045260246000fd5b50919050565b6020808252601990820152784950465320686173682063616e6e6f7420626520656d70747960381b604082015260600190565b634e487b7160e01b600052601160045260246000fd5b6000600182016125de576125de6125b6565b5060010190565b601f82111561100157806000526020600020601f840160051c8101602085101561260c5750805b601f840160051c820191505b8181101561262c5760008155600101612618565b5050505050565b81516001600160401b0381111561264c5761264c611fde565b6126608161265a8454612549565b846125e5565b6020601f821160018114612694576000831561267c5750848201515b600019600385901b1c1916600184901b17845561262c565b600084815260208120601f198516915b828110156126c457878501518255602094850194600190920191016126a4565b50848210156126e25786840151600019600387901b60f8161c191681555b50505050600190811b01905550565b6040815260006127046040830185611eb8565b9050610f756020830184611efe565b6020808252600e908201526d139bdd08185d5d1a1bdc9a5e995960921b604082015260600190565b634e487b7160e01b600052603260045260246000fd5b6040815260006127646040830185611eb8565b90508260208301529392505050565b6020808252600f908201526e496e76616c6964206164647265737360881b604082015260600190565b8082028115828204841417610572576105726125b6565b80820180821115610572576105726125b656fe32b3188b62628aabf659cebbab10a599b539bcb0c01a891ab2e37b8be315712e18d9ff454de989bd126b06bd404b47ede75f9e65543e94e8d212f89d7dcbb87ca264697066735822122085821004d0bd325cb663e540d5aed9418241cba9fb665bd72093c195acbc0e8a64736f6c634300081f0033",
			"opcodes": "PUSH1 0x80 PUSH1 0x40 MSTORE CALLVALUE DUP1 ISZERO PUSH2 0x10 JUMPI PUSH1 0x0 DUP1 REVERT JUMPDEST POP CALLER DUP1 PUSH2 0x37 JUMPI PUSH1 0x40 MLOAD PUSH4 0x1E4FBDF7 PUSH1 0xE0 SHL DUP2 MSTORE PUSH1 0x0 PUSH1 0x4 DUP3 ADD MSTORE PUSH1 0x24 ADD PUSH1 0x40 MLOAD DUP1 SWAP2 SUB SWAP1 REVERT JUMPDEST PUSH2 0x40 DUP2 PUSH2 0x52 JUMP JUMPDEST POP PUSH2 0x4C PUSH1 0x0 CALLER PUSH2 0xA2 JUMP JUMPDEST POP PUSH2 0x137 JUMP JUMPDEST PUSH1 0x0 DUP1 SLOAD PUSH1 0x1 PUSH1 0x1 PUSH1 0xA0 SHL SUB DUP4 DUP2 AND PUSH1 0x1 PUSH1 0x1 PUSH1 0xA0 SHL SUB NOT DUP4 AND DUP2 OR DUP5 SSTORE PUSH1 0x40 MLOAD SWAP2 SWAP1 SWAP3 AND SWAP3 DUP4 SWAP2 PUSH32 0x8BE0079C531659141344CD1FD0A4F28419497F9722A3DAAFE3B4186F6B6457E0 SWAP2 SWAP1 LOG3 POP POP JUMP JUMPDEST PUSH1 0x0 DUP3 DUP2 MSTORE PUSH1 0x1 PUSH1 0x20 SWAP1 DUP2 MSTORE PUSH1 0x40 DUP1 DUP4 KECCAK256 PUSH1 0x1 PUSH1 0x1 PUSH1 0xA0 SHL SUB DUP6 AND DUP5 MSTORE SWAP1 SWAP2 MSTORE DUP2 KECCAK256 SLOAD PUSH1 0xFF AND PUSH2 0x12D JUMPI PUSH1 0x0 DUP4 DUP2 MSTORE PUSH1 0x1 PUSH1 0x20 DUP2 DUP2 MSTORE PUSH1 0x40 DUP1 DUP5 KECCAK256 PUSH1 0x1 PUSH1 0x1 PUSH1 0xA0 SHL SUB DUP8 AND DUP1 DUP7 MSTORE SWAP3 MSTORE DUP1 DUP5 KECCAK256 DUP1 SLOAD PUSH1 0xFF NOT AND SWAP1 SWAP4 OR SWAP1 SWAP3 SSTORE SWAP1 MLOAD CALLER SWAP3 DUP7 SWAP2 PUSH32 0x2F8788117E7EFF1D82E926EC794901D17C78024A50270940304540A733656F0D SWAP2 SWAP1 LOG4 POP PUSH1 0x1 PUSH2 0x131 JUMP JUMPDEST POP PUSH1 0x0 JUMPDEST SWAP3 SWAP2 POP POP JUMP JUMPDEST PUSH2 0x283C DUP1 PUSH2 0x146 PUSH1 0x0 CODECOPY PUSH1 0x0 RETURN INVALID PUSH1 0x80 PUSH1 0x40 MSTORE CALLVALUE DUP1 ISZERO PUSH2 0x10 JUMPI PUSH1 0x0 DUP1 REVERT JUMPDEST POP PUSH1 0x4 CALLDATASIZE LT PUSH2 0x15F JUMPI PUSH1 0x0 CALLDATALOAD PUSH1 0xE0 SHR DUP1 PUSH4 0x1B1D324 EQ PUSH2 0x164 JUMPI DUP1 PUSH4 0x1FFC9A7 EQ PUSH2 0x18D JUMPI DUP1 PUSH4 0x3E9E609 EQ PUSH2 0x1B0 JUMPI DUP1 PUSH4 0x61F9811 EQ PUSH2 0x1D0 JUMPI DUP1 PUSH4 0xAEACB5E EQ PUSH2 0x1E5 JUMPI DUP1 PUSH4 0xE8DCE29 EQ PUSH2 0x1F7 JUMPI DUP1 PUSH4 0x112EA262 EQ PUSH2 0x20A JUMPI DUP1 PUSH4 0x18BD4847 EQ PUSH2 0x21D JUMPI DUP1 PUSH4 0x1B6377B8 EQ PUSH2 0x23D JUMPI DUP1 PUSH4 0x22770D8E EQ PUSH2 0x250 JUMPI DUP1 PUSH4 0x248A9CA3 EQ PUSH2 0x263 JUMPI DUP1 PUSH4 0x24C20A34 EQ PUSH2 0x276 JUMPI DUP1 PUSH4 0x2F2FF15D EQ PUSH2 0x28B JUMPI DUP1 PUSH4 0x36568ABE EQ PUSH2 0x29E JUMPI DUP1 PUSH4 0x3812C6A8 EQ PUSH2 0x2B1 JUMPI DUP1 PUSH4 0x715018A6 EQ PUSH2 0x2C4 JUMPI DUP1 PUSH4 0x85E68531 EQ PUSH2 0x2CC JUMPI DUP1 PUSH4 0x8B681C7C EQ PUSH2 0x2DF JUMPI DUP1 PUSH4 0x8DA5CB5B EQ PUSH2 0x2FF JUMPI DUP1 PUSH4 0x91284A89 EQ PUSH2 0x314 JUMPI DUP1 PUSH4 0x91D14854 EQ PUSH2 0x327 JUMPI DUP1 PUSH4 0x9399E973 EQ PUSH2 0x33A JUMPI DUP1 PUSH4 0xA02BD29C EQ PUSH2 0x34D JUMPI DUP1 PUSH4 0xA217FDDF EQ PUSH2 0x360 JUMPI DUP1 PUSH4 0xB4B07A70 EQ PUSH2 0x368 JUMPI DUP1 PUSH4 0xB9952215 EQ PUSH2 0x391 JUMPI DUP1 PUSH4 0xCF56B4EB EQ PUSH2 0x3A4 JUMPI DUP1 PUSH4 0xD547741F EQ PUSH2 0x3B7 JUMPI DUP1 PUSH4 0xF2FDE38B EQ PUSH2 0x3CA JUMPI JUMPDEST PUSH1 0x0 DUP1 REVERT JUMPDEST PUSH2 0x177 PUSH2 0x172 CALLDATASIZE PUSH1 0x4 PUSH2 0x1DE9 JUMP JUMPDEST PUSH2 0x3DD JUMP JUMPDEST PUSH1 0x40 MLOAD PUSH2 0x184 SWAP2 SWAP1 PUSH2 0x1E25 JUMP JUMPDEST PUSH1 0x40 MLOAD DUP1 SWAP2 SUB SWAP1 RETURN JUMPDEST PUSH2 0x1A0 PUSH2 0x19B CALLDATASIZE PUSH1 0x4 PUSH2 0x1E8E JUMP JUMPDEST PUSH2 0x541 JUMP JUMPDEST PUSH1 0x40 MLOAD SWAP1 ISZERO ISZERO DUP2 MSTORE PUSH1 0x20 ADD PUSH2 0x184 JUMP JUMPDEST PUSH2 0x1C3 PUSH2 0x1BE CALLDATASIZE PUSH1 0x4 PUSH2 0x1DE9 JUMP JUMPDEST PUSH2 0x578 JUMP JUMPDEST PUSH1 0x40 MLOAD PUSH2 0x184 SWAP2 SWAP1 PUSH2 0x1F12 JUMP JUMPDEST PUSH2 0x1E3 PUSH2 0x1DE CALLDATASIZE PUSH1 0x4 PUSH2 0x1DE9 JUMP JUMPDEST PUSH2 0x802 JUMP JUMPDEST STOP JUMPDEST PUSH1 0x7 SLOAD JUMPDEST PUSH1 0x40 MLOAD SWAP1 DUP2 MSTORE PUSH1 0x20 ADD PUSH2 0x184 JUMP JUMPDEST PUSH2 0x1E9 PUSH2 0x205 CALLDATASIZE PUSH1 0x4 PUSH2 0x20A2 JUMP JUMPDEST PUSH2 0x8C4 JUMP JUMPDEST PUSH2 0x1E3 PUSH2 0x218 CALLDATASIZE PUSH1 0x4 PUSH2 0x212A JUMP JUMPDEST PUSH2 0xB58 JUMP JUMPDEST PUSH2 0x230 PUSH2 0x22B CALLDATASIZE PUSH1 0x4 PUSH2 0x212A JUMP JUMPDEST PUSH2 0xBD0 JUMP JUMPDEST PUSH1 0x40 MLOAD PUSH2 0x184 SWAP2 SWAP1 PUSH2 0x2181 JUMP JUMPDEST PUSH2 0x1E9 PUSH2 0x24B CALLDATASIZE PUSH1 0x4 PUSH2 0x2194 JUMP JUMPDEST PUSH2 0xDA3 JUMP JUMPDEST PUSH2 0x1A0 PUSH2 0x25E CALLDATASIZE PUSH1 0x4 PUSH2 0x212A JUMP JUMPDEST PUSH2 0xF7C JUMP JUMPDEST PUSH2 0x1E9 PUSH2 0x271 CALLDATASIZE PUSH1 0x4 PUSH2 0x1DE9 JUMP JUMPDEST PUSH2 0xF96 JUMP JUMPDEST PUSH2 0x1E9 PUSH1 0x0 DUP1 MLOAD PUSH1 0x20 PUSH2 0x27E7 DUP4 CODECOPY DUP2 MLOAD SWAP2 MSTORE DUP2 JUMP JUMPDEST PUSH2 0x1E3 PUSH2 0x299 CALLDATASIZE PUSH1 0x4 PUSH2 0x220B JUMP JUMPDEST PUSH2 0xFAC JUMP JUMPDEST PUSH2 0x1E3 PUSH2 0x2AC CALLDATASIZE PUSH1 0x4 PUSH2 0x220B JUMP JUMPDEST PUSH2 0xFCE JUMP JUMPDEST PUSH2 0x1E3 PUSH2 0x2BF CALLDATASIZE PUSH1 0x4 PUSH2 0x2237 JUMP JUMPDEST PUSH2 0x1006 JUMP JUMPDEST PUSH2 0x1E3 PUSH2 0x1131 JUMP JUMPDEST PUSH2 0x1E3 PUSH2 0x2DA CALLDATASIZE PUSH1 0x4 PUSH2 0x212A JUMP JUMPDEST PUSH2 0x1145 JUMP JUMPDEST PUSH2 0x2F2 PUSH2 0x2ED CALLDATASIZE PUSH1 0x4 PUSH2 0x2291 JUMP JUMPDEST PUSH2 0x120D JUMP JUMPDEST PUSH1 0x40 MLOAD PUSH2 0x184 SWAP2 SWAP1 PUSH2 0x22BB JUMP JUMPDEST PUSH2 0x307 PUSH2 0x133C JUMP JUMPDEST PUSH1 0x40 MLOAD PUSH2 0x184 SWAP2 SWAP1 PUSH2 0x2315 JUMP JUMPDEST PUSH2 0x1E3 PUSH2 0x322 CALLDATASIZE PUSH1 0x4 PUSH2 0x212A JUMP JUMPDEST PUSH2 0x134B JUMP JUMPDEST PUSH2 0x1A0 PUSH2 0x335 CALLDATASIZE PUSH1 0x4 PUSH2 0x220B JUMP JUMPDEST PUSH2 0x13A0 JUMP JUMPDEST PUSH2 0x1E3 PUSH2 0x348 CALLDATASIZE PUSH1 0x4 PUSH2 0x2329 JUMP JUMPDEST PUSH2 0x13CB JUMP JUMPDEST PUSH2 0x1E3 PUSH2 0x35B CALLDATASIZE PUSH1 0x4 PUSH2 0x23F3 JUMP JUMPDEST PUSH2 0x1664 JUMP JUMPDEST PUSH2 0x1E9 PUSH1 0x0 DUP2 JUMP JUMPDEST PUSH2 0x307 PUSH2 0x376 CALLDATASIZE PUSH1 0x4 PUSH2 0x212A JUMP JUMPDEST PUSH1 0x6 PUSH1 0x20 MSTORE PUSH1 0x0 SWAP1 DUP2 MSTORE PUSH1 0x40 SWAP1 KECCAK256 SLOAD PUSH1 0x1 PUSH1 0x1 PUSH1 0xA0 SHL SUB AND DUP2 JUMP JUMPDEST PUSH2 0x1E3 PUSH2 0x39F CALLDATASIZE PUSH1 0x4 PUSH2 0x212A JUMP JUMPDEST PUSH2 0x1882 JUMP JUMPDEST PUSH2 0x1A0 PUSH2 0x3B2 CALLDATASIZE PUSH1 0x4 PUSH2 0x2427 JUMP JUMPDEST PUSH2 0x18A5 JUMP JUMPDEST PUSH2 0x1E3 PUSH2 0x3C5 CALLDATASIZE PUSH1 0x4 PUSH2 0x220B JUMP JUMPDEST PUSH2 0x1A22 JUMP JUMPDEST PUSH2 0x1E3 PUSH2 0x3D8 CALLDATASIZE PUSH1 0x4 PUSH2 0x212A JUMP JUMPDEST PUSH2 0x1A3E JUMP JUMPDEST PUSH1 0x60 DUP2 PUSH1 0x0 DUP2 GT DUP1 ISZERO PUSH2 0x3F2 JUMPI POP PUSH1 0x7 SLOAD DUP2 GT ISZERO JUMPDEST PUSH2 0x417 JUMPI PUSH1 0x40 MLOAD PUSH3 0x461BCD PUSH1 0xE5 SHL DUP2 MSTORE PUSH1 0x4 ADD PUSH2 0x40E SWAP1 PUSH2 0x2464 JUMP JUMPDEST PUSH1 0x40 MLOAD DUP1 SWAP2 SUB SWAP1 REVERT JUMPDEST PUSH1 0x0 DUP2 DUP2 MSTORE PUSH1 0x3 PUSH1 0x20 MSTORE PUSH1 0x40 SWAP1 KECCAK256 PUSH1 0x5 ADD SLOAD PUSH1 0x1 PUSH1 0xA0 SHL SWAP1 DIV PUSH1 0xFF AND PUSH2 0x44F JUMPI PUSH1 0x40 MLOAD PUSH3 0x461BCD PUSH1 0xE5 SHL DUP2 MSTORE PUSH1 0x4 ADD PUSH2 0x40E SWAP1 PUSH2 0x2493 JUMP JUMPDEST PUSH1 0x0 DUP4 DUP2 MSTORE PUSH1 0x3 PUSH1 0x20 MSTORE PUSH1 0x40 SWAP1 KECCAK256 PUSH1 0x1 ADD SLOAD DUP4 SWAP1 PUSH1 0x1 PUSH1 0x1 PUSH1 0xA0 SHL SUB AND CALLER EQ PUSH2 0x48A JUMPI PUSH1 0x40 MLOAD PUSH3 0x461BCD PUSH1 0xE5 SHL DUP2 MSTORE PUSH1 0x4 ADD PUSH2 0x40E SWAP1 PUSH2 0x24C1 JUMP JUMPDEST PUSH1 0x0 DUP5 DUP2 MSTORE PUSH1 0x5 PUSH1 0x20 SWAP1 DUP2 MSTORE PUSH1 0x40 DUP1 DUP4 KECCAK256 DUP1 SLOAD DUP3 MLOAD DUP2 DUP6 MUL DUP2 ADD DUP6 ADD SWAP1 SWAP4 MSTORE DUP1 DUP4 MSTORE SWAP2 SWAP4 SWAP1 SWAP3 DUP5 ADD JUMPDEST DUP3 DUP3 LT ISZERO PUSH2 0x534 JUMPI PUSH1 0x0 DUP5 DUP2 MSTORE PUSH1 0x20 SWAP1 DUP2 SWAP1 KECCAK256 PUSH1 0x40 DUP1 MLOAD PUSH1 0x60 DUP2 ADD DUP3 MSTORE PUSH1 0x3 DUP7 MUL SWAP1 SWAP3 ADD DUP1 SLOAD PUSH1 0x1 PUSH1 0x1 PUSH1 0xA0 SHL SUB AND DUP4 MSTORE PUSH1 0x1 DUP2 ADD SLOAD SWAP4 DUP4 ADD SWAP4 SWAP1 SWAP4 MSTORE PUSH1 0x2 DUP4 ADD SLOAD SWAP2 SWAP3 SWAP2 SWAP1 DUP4 ADD SWAP1 PUSH1 0xFF AND PUSH1 0x4 DUP2 GT ISZERO PUSH2 0x510 JUMPI PUSH2 0x510 PUSH2 0x1E0F JUMP JUMPDEST PUSH1 0x4 DUP2 GT ISZERO PUSH2 0x521 JUMPI PUSH2 0x521 PUSH2 0x1E0F JUMP JUMPDEST DUP2 MSTORE POP POP DUP2 MSTORE PUSH1 0x20 ADD SWAP1 PUSH1 0x1 ADD SWAP1 PUSH2 0x4B3 JUMP JUMPDEST POP POP POP POP SWAP3 POP POP POP SWAP2 SWAP1 POP JUMP JUMPDEST PUSH1 0x0 PUSH1 0x1 PUSH1 0x1 PUSH1 0xE0 SHL SUB NOT DUP3 AND PUSH4 0x7965DB0B PUSH1 0xE0 SHL EQ DUP1 PUSH2 0x572 JUMPI POP PUSH4 0x1FFC9A7 PUSH1 0xE0 SHL PUSH1 0x1 PUSH1 0x1 PUSH1 0xE0 SHL SUB NOT DUP4 AND EQ JUMPDEST SWAP3 SWAP2 POP POP JUMP JUMPDEST PUSH2 0x580 PUSH2 0x1D24 JUMP JUMPDEST DUP2 PUSH1 0x0 DUP2 GT DUP1 ISZERO PUSH2 0x593 JUMPI POP PUSH1 0x7 SLOAD DUP2 GT ISZERO JUMPDEST PUSH2 0x5AF JUMPI PUSH1 0x40 MLOAD PUSH3 0x461BCD PUSH1 0xE5 SHL DUP2 MSTORE PUSH1 0x4 ADD PUSH2 0x40E SWAP1 PUSH2 0x2464 JUMP JUMPDEST PUSH1 0x0 DUP2 DUP2 MSTORE PUSH1 0x3 PUSH1 0x20 MSTORE PUSH1 0x40 SWAP1 KECCAK256 PUSH1 0x5 ADD SLOAD PUSH1 0x1 PUSH1 0xA0 SHL SWAP1 DIV PUSH1 0xFF AND PUSH2 0x5E7 JUMPI PUSH1 0x40 MLOAD PUSH3 0x461BCD PUSH1 0xE5 SHL DUP2 MSTORE PUSH1 0x4 ADD PUSH2 0x40E SWAP1 PUSH2 0x2493 JUMP JUMPDEST PUSH1 0x0 DUP4 DUP2 MSTORE PUSH1 0x3 PUSH1 0x20 MSTORE PUSH1 0x40 SWAP1 KECCAK256 PUSH1 0x1 ADD SLOAD DUP4 SWAP1 PUSH2 0x60F SWAP1 PUSH1 0x1 PUSH1 0x1 PUSH1 0xA0 SHL SUB AND CALLER DUP4 PUSH2 0x18A5 JUMP JUMPDEST PUSH2 0x62B JUMPI PUSH1 0x40 MLOAD PUSH3 0x461BCD PUSH1 0xE5 SHL DUP2 MSTORE PUSH1 0x4 ADD PUSH2 0x40E SWAP1 PUSH2 0x2505 JUMP JUMPDEST PUSH1 0x0 DUP5 DUP2 MSTORE PUSH1 0x3 PUSH1 0x20 SWAP1 DUP2 MSTORE PUSH1 0x40 SWAP2 DUP3 SWAP1 KECCAK256 DUP3 MLOAD PUSH2 0x120 DUP2 ADD DUP5 MSTORE DUP2 SLOAD DUP2 MSTORE PUSH1 0x1 DUP3 ADD SLOAD PUSH1 0x1 PUSH1 0x1 PUSH1 0xA0 SHL SUB AND SWAP3 DUP2 ADD SWAP3 SWAP1 SWAP3 MSTORE PUSH1 0x2 DUP2 ADD DUP1 SLOAD SWAP3 SWAP4 SWAP2 SWAP3 SWAP2 DUP5 ADD SWAP2 PUSH2 0x676 SWAP1 PUSH2 0x2549 JUMP JUMPDEST DUP1 PUSH1 0x1F ADD PUSH1 0x20 DUP1 SWAP2 DIV MUL PUSH1 0x20 ADD PUSH1 0x40 MLOAD SWAP1 DUP2 ADD PUSH1 0x40 MSTORE DUP1 SWAP3 SWAP2 SWAP1 DUP2 DUP2 MSTORE PUSH1 0x20 ADD DUP3 DUP1 SLOAD PUSH2 0x6A2 SWAP1 PUSH2 0x2549 JUMP JUMPDEST DUP1 ISZERO PUSH2 0x6EF JUMPI DUP1 PUSH1 0x1F LT PUSH2 0x6C4 JUMPI PUSH2 0x100 DUP1 DUP4 SLOAD DIV MUL DUP4 MSTORE SWAP2 PUSH1 0x20 ADD SWAP2 PUSH2 0x6EF JUMP JUMPDEST DUP3 ADD SWAP2 SWAP1 PUSH1 0x0 MSTORE PUSH1 0x20 PUSH1 0x0 KECCAK256 SWAP1 JUMPDEST DUP2 SLOAD DUP2 MSTORE SWAP1 PUSH1 0x1 ADD SWAP1 PUSH1 0x20 ADD DUP1 DUP4 GT PUSH2 0x6D2 JUMPI DUP3 SWAP1 SUB PUSH1 0x1F AND DUP3 ADD SWAP2 JUMPDEST POP POP POP SWAP2 DUP4 MSTORE POP POP PUSH1 0x3 DUP3 ADD SLOAD PUSH1 0x20 SWAP1 SWAP2 ADD SWAP1 PUSH1 0xFF AND PUSH1 0x5 DUP2 GT ISZERO PUSH2 0x716 JUMPI PUSH2 0x716 PUSH2 0x1E0F JUMP JUMPDEST PUSH1 0x5 DUP2 GT ISZERO PUSH2 0x727 JUMPI PUSH2 0x727 PUSH2 0x1E0F JUMP JUMPDEST DUP2 MSTORE PUSH1 0x4 DUP3 ADD SLOAD PUSH1 0x20 DUP3 ADD MSTORE PUSH1 0x5 DUP3 ADD SLOAD PUSH1 0x1 PUSH1 0x1 PUSH1 0xA0 SHL SUB DUP2 AND PUSH1 0x40 DUP4 ADD MSTORE PUSH1 0x1 PUSH1 0xA0 SHL SWAP1 DIV PUSH1 0xFF AND ISZERO ISZERO PUSH1 0x60 DUP3 ADD MSTORE PUSH1 0x6 DUP3 ADD DUP1 SLOAD PUSH1 0x80 SWAP1 SWAP3 ADD SWAP2 PUSH2 0x76D SWAP1 PUSH2 0x2549 JUMP JUMPDEST DUP1 PUSH1 0x1F ADD PUSH1 0x20 DUP1 SWAP2 DIV MUL PUSH1 0x20 ADD PUSH1 0x40 MLOAD SWAP1 DUP2 ADD PUSH1 0x40 MSTORE DUP1 SWAP3 SWAP2 SWAP1 DUP2 DUP2 MSTORE PUSH1 0x20 ADD DUP3 DUP1 SLOAD PUSH2 0x799 SWAP1 PUSH2 0x2549 JUMP JUMPDEST DUP1 ISZERO PUSH2 0x7E6 JUMPI DUP1 PUSH1 0x1F LT PUSH2 0x7BB JUMPI PUSH2 0x100 DUP1 DUP4 SLOAD DIV MUL DUP4 MSTORE SWAP2 PUSH1 0x20 ADD SWAP2 PUSH2 0x7E6 JUMP JUMPDEST DUP3 ADD SWAP2 SWAP1 PUSH1 0x0 MSTORE PUSH1 0x20 PUSH1 0x0 KECCAK256 SWAP1 JUMPDEST DUP2 SLOAD DUP2 MSTORE SWAP1 PUSH1 0x1 ADD SWAP1 PUSH1 0x20 ADD DUP1 DUP4 GT PUSH2 0x7C9 JUMPI DUP3 SWAP1 SUB PUSH1 0x1F AND DUP3 ADD SWAP2 JUMPDEST POP POP POP POP POP DUP2 MSTORE PUSH1 0x20 ADD PUSH1 0x7 DUP3 ADD SLOAD DUP2 MSTORE POP POP SWAP3 POP POP POP SWAP2 SWAP1 POP JUMP JUMPDEST DUP1 PUSH1 0x0 DUP2 GT DUP1 ISZERO PUSH2 0x815 JUMPI POP PUSH1 0x7 SLOAD DUP2 GT ISZERO JUMPDEST PUSH2 0x831 JUMPI PUSH1 0x40 MLOAD PUSH3 0x461BCD PUSH1 0xE5 SHL DUP2 MSTORE PUSH1 0x4 ADD PUSH2 0x40E SWAP1 PUSH2 0x2464 JUMP JUMPDEST PUSH1 0x0 DUP2 DUP2 MSTORE PUSH1 0x3 PUSH1 0x20 MSTORE PUSH1 0x40 SWAP1 KECCAK256 PUSH1 0x5 ADD SLOAD PUSH1 0x1 PUSH1 0xA0 SHL SWAP1 DIV PUSH1 0xFF AND PUSH2 0x869 JUMPI PUSH1 0x40 MLOAD PUSH3 0x461BCD PUSH1 0xE5 SHL DUP2 MSTORE PUSH1 0x4 ADD PUSH2 0x40E SWAP1 PUSH2 0x2493 JUMP JUMPDEST PUSH1 0x0 DUP3 DUP2 MSTORE PUSH1 0x3 PUSH1 0x20 MSTORE PUSH1 0x40 SWAP1 KECCAK256 PUSH1 0x1 ADD SLOAD DUP3 SWAP1 PUSH1 0x1 PUSH1 0x1 PUSH1 0xA0 SHL SUB AND CALLER EQ PUSH2 0x8A4 JUMPI PUSH1 0x40 MLOAD PUSH3 0x461BCD PUSH1 0xE5 SHL DUP2 MSTORE PUSH1 0x4 ADD PUSH2 0x40E SWAP1 PUSH2 0x24C1 JUMP JUMPDEST POP POP PUSH1 0x0 SWAP1 DUP2 MSTORE PUSH1 0x3 PUSH1 0x20 MSTORE PUSH1 0x40 SWAP1 KECCAK256 PUSH1 0x5 ADD DUP1 SLOAD PUSH1 0xFF PUSH1 0xA0 SHL NOT AND SWAP1 SSTORE JUMP JUMPDEST PUSH1 0x0 PUSH2 0x8DE PUSH1 0x0 DUP1 MLOAD PUSH1 0x20 PUSH2 0x27E7 DUP4 CODECOPY DUP2 MLOAD SWAP2 MSTORE CALLER PUSH2 0x13A0 JUMP JUMPDEST PUSH2 0x927 JUMPI PUSH1 0x40 MLOAD PUSH3 0x461BCD PUSH1 0xE5 SHL DUP2 MSTORE PUSH1 0x20 PUSH1 0x4 DUP3 ADD MSTORE PUSH1 0x1A PUSH1 0x24 DUP3 ADD MSTORE PUSH26 0x2737BA1030B71030BABA3437B934BD32B210383937BB34B232B9 PUSH1 0x31 SHL PUSH1 0x44 DUP3 ADD MSTORE PUSH1 0x64 ADD PUSH2 0x40E JUMP JUMPDEST PUSH1 0x1 PUSH1 0x1 PUSH1 0xA0 SHL SUB DUP6 AND PUSH2 0x977 JUMPI PUSH1 0x40 MLOAD PUSH3 0x461BCD PUSH1 0xE5 SHL DUP2 MSTORE PUSH1 0x20 PUSH1 0x4 DUP3 ADD MSTORE PUSH1 0x17 PUSH1 0x24 DUP3 ADD MSTORE PUSH23 0x496E76616C69642070617469656E742061646472657373 PUSH1 0x48 SHL PUSH1 0x44 DUP3 ADD MSTORE PUSH1 0x64 ADD PUSH2 0x40E JUMP JUMPDEST PUSH1 0x0 DUP5 MLOAD GT PUSH2 0x998 JUMPI PUSH1 0x40 MLOAD PUSH3 0x461BCD PUSH1 0xE5 SHL DUP2 MSTORE PUSH1 0x4 ADD PUSH2 0x40E SWAP1 PUSH2 0x2583 JUMP JUMPDEST PUSH1 0x7 DUP1 SLOAD SWAP1 PUSH1 0x0 PUSH2 0x9A8 DUP4 PUSH2 0x25CC JUMP JUMPDEST SWAP2 SWAP1 POP SSTORE POP PUSH1 0x40 MLOAD DUP1 PUSH2 0x120 ADD PUSH1 0x40 MSTORE DUP1 PUSH1 0x7 SLOAD DUP2 MSTORE PUSH1 0x20 ADD DUP7 PUSH1 0x1 PUSH1 0x1 PUSH1 0xA0 SHL SUB AND DUP2 MSTORE PUSH1 0x20 ADD DUP6 DUP2 MSTORE PUSH1 0x20 ADD DUP5 PUSH1 0x5 DUP2 GT ISZERO PUSH2 0x9E8 JUMPI PUSH2 0x9E8 PUSH2 0x1E0F JUMP JUMPDEST DUP2 MSTORE TIMESTAMP PUSH1 0x20 DUP1 DUP4 ADD SWAP2 SWAP1 SWAP2 MSTORE CALLER PUSH1 0x40 DUP1 DUP5 ADD SWAP2 SWAP1 SWAP2 MSTORE PUSH1 0x1 PUSH1 0x60 DUP5 ADD DUP2 SWAP1 MSTORE PUSH1 0x80 DUP5 ADD DUP8 SWAP1 MSTORE PUSH1 0xA0 SWAP1 SWAP4 ADD DUP4 SWAP1 MSTORE PUSH1 0x7 SLOAD PUSH1 0x0 SWAP1 DUP2 MSTORE PUSH1 0x3 DUP4 MSTORE DUP2 SWAP1 KECCAK256 DUP5 MLOAD DUP2 SSTORE SWAP2 DUP5 ADD MLOAD SWAP3 DUP3 ADD DUP1 SLOAD PUSH1 0x1 PUSH1 0x1 PUSH1 0xA0 SHL SUB NOT AND PUSH1 0x1 PUSH1 0x1 PUSH1 0xA0 SHL SUB SWAP1 SWAP5 AND SWAP4 SWAP1 SWAP4 OR SWAP1 SWAP3 SSTORE SWAP1 DUP3 ADD MLOAD PUSH1 0x2 DUP3 ADD SWAP1 PUSH2 0xA61 SWAP1 DUP3 PUSH2 0x2633 JUMP JUMPDEST POP PUSH1 0x60 DUP3 ADD MLOAD PUSH1 0x3 DUP3 ADD DUP1 SLOAD PUSH1 0xFF NOT AND PUSH1 0x1 DUP4 PUSH1 0x5 DUP2 GT ISZERO PUSH2 0xA85 JUMPI PUSH2 0xA85 PUSH2 0x1E0F JUMP JUMPDEST MUL OR SWAP1 SSTORE POP PUSH1 0x80 DUP3 ADD MLOAD PUSH1 0x4 DUP3 ADD SSTORE PUSH1 0xA0 DUP3 ADD MLOAD PUSH1 0x5 DUP3 ADD DUP1 SLOAD PUSH1 0xC0 DUP6 ADD MLOAD ISZERO ISZERO PUSH1 0x1 PUSH1 0xA0 SHL MUL PUSH1 0x1 PUSH1 0x1 PUSH1 0xA8 SHL SUB NOT SWAP1 SWAP2 AND PUSH1 0x1 PUSH1 0x1 PUSH1 0xA0 SHL SUB SWAP1 SWAP4 AND SWAP3 SWAP1 SWAP3 OR SWAP2 SWAP1 SWAP2 OR SWAP1 SSTORE PUSH1 0xE0 DUP3 ADD MLOAD PUSH1 0x6 DUP3 ADD SWAP1 PUSH2 0xAE1 SWAP1 DUP3 PUSH2 0x2633 JUMP JUMPDEST POP PUSH2 0x100 SWAP2 SWAP1 SWAP2 ADD MLOAD PUSH1 0x7 SWAP2 DUP3 ADD SSTORE PUSH1 0x1 PUSH1 0x1 PUSH1 0xA0 SHL SUB DUP7 AND PUSH1 0x0 DUP2 DUP2 MSTORE PUSH1 0x2 PUSH1 0x20 SWAP1 DUP2 MSTORE PUSH1 0x40 DUP1 DUP4 KECCAK256 DUP6 SLOAD DUP2 SLOAD PUSH1 0x1 DUP2 ADD DUP4 SSTORE SWAP2 DUP6 MSTORE SWAP3 SWAP1 SWAP4 KECCAK256 SWAP1 SWAP3 ADD SSTORE SWAP2 SLOAD SWAP2 MLOAD SWAP1 SWAP2 SWAP1 PUSH1 0x0 DUP1 MLOAD PUSH1 0x20 PUSH2 0x27C7 DUP4 CODECOPY DUP2 MLOAD SWAP2 MSTORE SWAP1 PUSH2 0xB44 SWAP1 DUP9 SWAP1 DUP9 SWAP1 PUSH2 0x26F1 JUMP JUMPDEST PUSH1 0x40 MLOAD DUP1 SWAP2 SUB SWAP1 LOG3 POP PUSH1 0x7 SLOAD SWAP5 SWAP4 POP POP POP POP JUMP JUMPDEST PUSH1 0x0 PUSH2 0xB63 DUP2 PUSH2 0x1A7C JUMP JUMPDEST PUSH1 0x1 PUSH1 0x1 PUSH1 0xA0 SHL SUB DUP3 AND PUSH2 0xBB4 JUMPI PUSH1 0x40 MLOAD PUSH3 0x461BCD PUSH1 0xE5 SHL DUP2 MSTORE PUSH1 0x20 PUSH1 0x4 DUP3 ADD MSTORE PUSH1 0x18 PUSH1 0x24 DUP3 ADD MSTORE PUSH24 0x496E76616C69642070726F76696465722061646472657373 PUSH1 0x40 SHL PUSH1 0x44 DUP3 ADD MSTORE PUSH1 0x64 ADD PUSH2 0x40E JUMP JUMPDEST PUSH2 0xBCC PUSH1 0x0 DUP1 MLOAD PUSH1 0x20 PUSH2 0x27E7 DUP4 CODECOPY DUP2 MLOAD SWAP2 MSTORE DUP4 PUSH2 0xFAC JUMP JUMPDEST POP POP JUMP JUMPDEST PUSH1 0x60 PUSH1 0x1 PUSH1 0x1 PUSH1 0xA0 SHL SUB DUP3 AND CALLER SUB PUSH2 0xC4C JUMPI PUSH1 0x1 PUSH1 0x1 PUSH1 0xA0 SHL SUB DUP3 AND PUSH1 0x0 SWAP1 DUP2 MSTORE PUSH1 0x2 PUSH1 0x20 SWAP1 DUP2 MSTORE PUSH1 0x40 SWAP2 DUP3 SWAP1 KECCAK256 DUP1 SLOAD DUP4 MLOAD DUP2 DUP5 MUL DUP2 ADD DUP5 ADD SWAP1 SWAP5 MSTORE DUP1 DUP5 MSTORE SWAP1 SWAP2 DUP4 ADD DUP3 DUP3 DUP1 ISZERO PUSH2 0xC40 JUMPI PUSH1 0x20 MUL DUP3 ADD SWAP2 SWAP1 PUSH1 0x0 MSTORE PUSH1 0x20 PUSH1 0x0 KECCAK256 SWAP1 JUMPDEST DUP2 SLOAD DUP2 MSTORE PUSH1 0x20 ADD SWAP1 PUSH1 0x1 ADD SWAP1 DUP1 DUP4 GT PUSH2 0xC2C JUMPI JUMPDEST POP POP POP POP POP SWAP1 POP SWAP2 SWAP1 POP JUMP JUMPDEST PUSH2 0xC56 DUP3 CALLER PUSH2 0x1A86 JUMP JUMPDEST PUSH2 0xC72 JUMPI PUSH1 0x40 MLOAD PUSH3 0x461BCD PUSH1 0xE5 SHL DUP2 MSTORE PUSH1 0x4 ADD PUSH2 0x40E SWAP1 PUSH2 0x2713 JUMP JUMPDEST PUSH1 0x1 PUSH1 0x1 PUSH1 0xA0 SHL SUB DUP3 AND PUSH1 0x0 SWAP1 DUP2 MSTORE PUSH1 0x2 PUSH1 0x20 MSTORE PUSH1 0x40 DUP2 KECCAK256 SWAP1 DUP1 JUMPDEST DUP3 SLOAD DUP2 LT ISZERO PUSH2 0xCD8 JUMPI PUSH2 0xCBD DUP6 CALLER DUP6 DUP5 DUP2 SLOAD DUP2 LT PUSH2 0xCAD JUMPI PUSH2 0xCAD PUSH2 0x273B JUMP JUMPDEST SWAP1 PUSH1 0x0 MSTORE PUSH1 0x20 PUSH1 0x0 KECCAK256 ADD SLOAD PUSH2 0x18A5 JUMP JUMPDEST ISZERO PUSH2 0xCD0 JUMPI DUP2 PUSH2 0xCCC DUP2 PUSH2 0x25CC JUMP JUMPDEST SWAP3 POP POP JUMPDEST PUSH1 0x1 ADD PUSH2 0xC8D JUMP JUMPDEST POP PUSH1 0x0 DUP2 PUSH1 0x1 PUSH1 0x1 PUSH1 0x40 SHL SUB DUP2 GT ISZERO PUSH2 0xCF3 JUMPI PUSH2 0xCF3 PUSH2 0x1FDE JUMP JUMPDEST PUSH1 0x40 MLOAD SWAP1 DUP1 DUP3 MSTORE DUP1 PUSH1 0x20 MUL PUSH1 0x20 ADD DUP3 ADD PUSH1 0x40 MSTORE DUP1 ISZERO PUSH2 0xD1C JUMPI DUP2 PUSH1 0x20 ADD PUSH1 0x20 DUP3 MUL DUP1 CALLDATASIZE DUP4 CALLDATACOPY ADD SWAP1 POP JUMPDEST POP SWAP1 POP PUSH1 0x0 DUP1 JUMPDEST DUP5 SLOAD DUP2 LT ISZERO PUSH2 0xD98 JUMPI PUSH2 0xD43 DUP8 CALLER DUP8 DUP5 DUP2 SLOAD DUP2 LT PUSH2 0xCAD JUMPI PUSH2 0xCAD PUSH2 0x273B JUMP JUMPDEST ISZERO PUSH2 0xD90 JUMPI DUP5 DUP2 DUP2 SLOAD DUP2 LT PUSH2 0xD5A JUMPI PUSH2 0xD5A PUSH2 0x273B JUMP JUMPDEST SWAP1 PUSH1 0x0 MSTORE PUSH1 0x20 PUSH1 0x0 KECCAK256 ADD SLOAD DUP4 DUP4 DUP2 MLOAD DUP2 LT PUSH2 0xD77 JUMPI PUSH2 0xD77 PUSH2 0x273B JUMP JUMPDEST PUSH1 0x20 SWAP1 DUP2 MUL SWAP2 SWAP1 SWAP2 ADD ADD MSTORE DUP2 PUSH2 0xD8C DUP2 PUSH2 0x25CC JUMP JUMPDEST SWAP3 POP POP JUMPDEST PUSH1 0x1 ADD PUSH2 0xD23 JUMP JUMPDEST POP SWAP1 SWAP6 SWAP5 POP POP POP POP POP JUMP JUMPDEST PUSH1 0x0 DUP1 DUP5 MLOAD GT PUSH2 0xDC5 JUMPI PUSH1 0x40 MLOAD PUSH3 0x461BCD PUSH1 0xE5 SHL DUP2 MSTORE PUSH1 0x4 ADD PUSH2 0x40E SWAP1 PUSH2 0x2583 JUMP JUMPDEST PUSH1 0x7 DUP1 SLOAD SWAP1 PUSH1 0x0 PUSH2 0xDD5 DUP4 PUSH2 0x25CC JUMP JUMPDEST SWAP2 SWAP1 POP SSTORE POP PUSH1 0x40 MLOAD DUP1 PUSH2 0x120 ADD PUSH1 0x40 MSTORE DUP1 PUSH1 0x7 SLOAD DUP2 MSTORE PUSH1 0x20 ADD CALLER PUSH1 0x1 PUSH1 0x1 PUSH1 0xA0 SHL SUB AND DUP2 MSTORE PUSH1 0x20 ADD DUP6 DUP2 MSTORE PUSH1 0x20 ADD DUP5 PUSH1 0x5 DUP2 GT ISZERO PUSH2 0xE15 JUMPI PUSH2 0xE15 PUSH2 0x1E0F JUMP JUMPDEST DUP2 MSTORE TIMESTAMP PUSH1 0x20 DUP1 DUP4 ADD SWAP2 SWAP1 SWAP2 MSTORE CALLER PUSH1 0x40 DUP1 DUP5 ADD SWAP2 SWAP1 SWAP2 MSTORE PUSH1 0x1 PUSH1 0x60 DUP5 ADD DUP2 SWAP1 MSTORE PUSH1 0x80 DUP5 ADD DUP8 SWAP1 MSTORE PUSH1 0xA0 SWAP1 SWAP4 ADD DUP4 SWAP1 MSTORE PUSH1 0x7 SLOAD PUSH1 0x0 SWAP1 DUP2 MSTORE PUSH1 0x3 DUP4 MSTORE DUP2 SWAP1 KECCAK256 DUP5 MLOAD DUP2 SSTORE SWAP2 DUP5 ADD MLOAD SWAP3 DUP3 ADD DUP1 SLOAD PUSH1 0x1 PUSH1 0x1 PUSH1 0xA0 SHL SUB NOT AND PUSH1 0x1 PUSH1 0x1 PUSH1 0xA0 SHL SUB SWAP1 SWAP5 AND SWAP4 SWAP1 SWAP4 OR SWAP1 SWAP3 SSTORE SWAP1 DUP3 ADD MLOAD PUSH1 0x2 DUP3 ADD SWAP1 PUSH2 0xE8E SWAP1 DUP3 PUSH2 0x2633 JUMP JUMPDEST POP PUSH1 0x60 DUP3 ADD MLOAD PUSH1 0x3 DUP3 ADD DUP1 SLOAD PUSH1 0xFF NOT AND PUSH1 0x1 DUP4 PUSH1 0x5 DUP2 GT ISZERO PUSH2 0xEB2 JUMPI PUSH2 0xEB2 PUSH2 0x1E0F JUMP JUMPDEST MUL OR SWAP1 SSTORE POP PUSH1 0x80 DUP3 ADD MLOAD PUSH1 0x4 DUP3 ADD SSTORE PUSH1 0xA0 DUP3 ADD MLOAD PUSH1 0x5 DUP3 ADD DUP1 SLOAD PUSH1 0xC0 DUP6 ADD MLOAD ISZERO ISZERO PUSH1 0x1 PUSH1 0xA0 SHL MUL PUSH1 0x1 PUSH1 0x1 PUSH1 0xA8 SHL SUB NOT SWAP1 SWAP2 AND PUSH1 0x1 PUSH1 0x1 PUSH1 0xA0 SHL SUB SWAP1 SWAP4 AND SWAP3 SWAP1 SWAP3 OR SWAP2 SWAP1 SWAP2 OR SWAP1 SSTORE PUSH1 0xE0 DUP3 ADD MLOAD PUSH1 0x6 DUP3 ADD SWAP1 PUSH2 0xF0E SWAP1 DUP3 PUSH2 0x2633 JUMP JUMPDEST POP PUSH2 0x100 SWAP2 SWAP1 SWAP2 ADD MLOAD PUSH1 0x7 SWAP2 DUP3 ADD SSTORE CALLER PUSH1 0x0 DUP2 DUP2 MSTORE PUSH1 0x2 PUSH1 0x20 SWAP1 DUP2 MSTORE PUSH1 0x40 DUP1 DUP4 KECCAK256 DUP6 SLOAD DUP2 SLOAD PUSH1 0x1 DUP2 ADD DUP4 SSTORE SWAP2 DUP6 MSTORE SWAP3 SWAP1 SWAP4 KECCAK256 SWAP1 SWAP3 ADD SSTORE SWAP2 SLOAD SWAP2 MLOAD SWAP1 SWAP2 SWAP1 PUSH1 0x0 DUP1 MLOAD PUSH1 0x20 PUSH2 0x27C7 DUP4 CODECOPY DUP2 MLOAD SWAP2 MSTORE SWAP1 PUSH2 0xF68 SWAP1 DUP9 SWAP1 DUP9 SWAP1 PUSH2 0x26F1 JUMP JUMPDEST PUSH1 0x40 MLOAD DUP1 SWAP2 SUB SWAP1 LOG3 POP PUSH1 0x7 SLOAD JUMPDEST SWAP4 SWAP3 POP POP POP JUMP JUMPDEST PUSH1 0x0 PUSH2 0x572 PUSH1 0x0 DUP1 MLOAD PUSH1 0x20 PUSH2 0x27E7 DUP4 CODECOPY DUP2 MLOAD SWAP2 MSTORE DUP4 PUSH2 0x13A0 JUMP JUMPDEST PUSH1 0x0 SWAP1 DUP2 MSTORE PUSH1 0x1 PUSH1 0x20 DUP2 SWAP1 MSTORE PUSH1 0x40 SWAP1 SWAP2 KECCAK256 ADD SLOAD SWAP1 JUMP JUMPDEST PUSH2 0xFB5 DUP3 PUSH2 0xF96 JUMP JUMPDEST PUSH2 0xFBE DUP2 PUSH2 0x1A7C JUMP JUMPDEST PUSH2 0xFC8 DUP4 DUP4 PUSH2 0x1B83 JUMP JUMPDEST POP POP POP POP JUMP JUMPDEST PUSH1 0x1 PUSH1 0x1 PUSH1 0xA0 SHL SUB DUP2 AND CALLER EQ PUSH2 0xFF7 JUMPI PUSH1 0x40 MLOAD PUSH4 0x334BD919 PUSH1 0xE1 SHL DUP2 MSTORE PUSH1 0x4 ADD PUSH1 0x40 MLOAD DUP1 SWAP2 SUB SWAP1 REVERT JUMPDEST PUSH2 0x1001 DUP3 DUP3 PUSH2 0x1BFC JUMP JUMPDEST POP POP POP JUMP JUMPDEST DUP3 PUSH1 0x0 DUP2 GT DUP1 ISZERO PUSH2 0x1019 JUMPI POP PUSH1 0x7 SLOAD DUP2 GT ISZERO JUMPDEST PUSH2 0x1035 JUMPI PUSH1 0x40 MLOAD PUSH3 0x461BCD PUSH1 0xE5 SHL DUP2 MSTORE PUSH1 0x4 ADD PUSH2 0x40E SWAP1 PUSH2 0x2464 JUMP JUMPDEST PUSH1 0x0 DUP2 DUP2 MSTORE PUSH1 0x3 PUSH1 0x20 MSTORE PUSH1 0x40 SWAP1 KECCAK256 PUSH1 0x5 ADD SLOAD PUSH1 0x1 PUSH1 0xA0 SHL SWAP1 DIV PUSH1 0xFF AND PUSH2 0x106D JUMPI PUSH1 0x40 MLOAD PUSH3 0x461BCD PUSH1 0xE5 SHL DUP2 MSTORE PUSH1 0x4 ADD PUSH2 0x40E SWAP1 PUSH2 0x2493 JUMP JUMPDEST PUSH1 0x0 DUP5 DUP2 MSTORE PUSH1 0x3 PUSH1 0x20 MSTORE PUSH1 0x40 SWAP1 KECCAK256 PUSH1 0x1 ADD SLOAD DUP5 SWAP1 PUSH1 0x1 PUSH1 0x1 PUSH1 0xA0 SHL SUB AND CALLER EQ PUSH2 0x10A8 JUMPI PUSH1 0x40 MLOAD PUSH3 0x461BCD PUSH1 0xE5 SHL DUP2 MSTORE PUSH1 0x4 ADD PUSH2 0x40E SWAP1 PUSH2 0x24C1 JUMP JUMPDEST PUSH1 0x0 DUP6 DUP2 MSTORE PUSH1 0x3 PUSH1 0x20 MSTORE PUSH1 0x40 SWAP1 KECCAK256 PUSH1 0x2 DUP2 ADD PUSH2 0x10C4 DUP7 DUP3 PUSH2 0x2633 JUMP JUMPDEST POP PUSH1 0x6 DUP2 ADD PUSH2 0x10D3 DUP6 DUP3 PUSH2 0x2633 JUMP JUMPDEST POP PUSH1 0x7 DUP2 ADD DUP1 SLOAD SWAP1 PUSH1 0x0 PUSH2 0x10E6 DUP4 PUSH2 0x25CC JUMP JUMPDEST SWAP2 SWAP1 POP SSTORE POP DUP6 PUSH32 0x88D9E16504277BF999412471E756EEDF1AB2491C6A6399C9D349D3FEA6D70CF DUP7 DUP4 PUSH1 0x7 ADD SLOAD PUSH1 0x40 MLOAD PUSH2 0x1121 SWAP3 SWAP2 SWAP1 PUSH2 0x2751 JUMP JUMPDEST PUSH1 0x40 MLOAD DUP1 SWAP2 SUB SWAP1 LOG2 POP POP POP POP POP POP JUMP JUMPDEST PUSH2 0x1139 PUSH2 0x1C69 JUMP JUMPDEST PUSH2 0x1143 PUSH1 0x0 PUSH2 0x1C9B JUMP JUMPDEST JUMP JUMPDEST CALLER PUSH1 0x0 SWAP1 DUP2 MSTORE PUSH1 0x4 PUSH1 0x20 SWAP1 DUP2 MSTORE PUSH1 0x40 DUP1 DUP4 KECCAK256 PUSH1 0x1 PUSH1 0x1 PUSH1 0xA0 SHL SUB DUP6 AND DUP5 MSTORE SWAP1 SWAP2 MSTORE SWAP1 KECCAK256 PUSH1 0x3 ADD SLOAD PUSH1 0xFF AND PUSH2 0x11B4 JUMPI PUSH1 0x40 MLOAD PUSH3 0x461BCD PUSH1 0xE5 SHL DUP2 MSTORE PUSH1 0x20 PUSH1 0x4 DUP3 ADD MSTORE PUSH1 0x16 PUSH1 0x24 DUP3 ADD MSTORE PUSH22 0x139BC81858DD1A5D99481858D8D95CDCC819DC985B9D PUSH1 0x52 SHL PUSH1 0x44 DUP3 ADD MSTORE PUSH1 0x64 ADD PUSH2 0x40E JUMP JUMPDEST CALLER PUSH1 0x0 DUP2 DUP2 MSTORE PUSH1 0x4 PUSH1 0x20 SWAP1 DUP2 MSTORE PUSH1 0x40 DUP1 DUP4 KECCAK256 PUSH1 0x1 PUSH1 0x1 PUSH1 0xA0 SHL SUB DUP7 AND DUP1 DUP6 MSTORE SWAP3 MSTORE DUP1 DUP4 KECCAK256 PUSH1 0x3 ADD DUP1 SLOAD PUSH1 0xFF NOT AND SWAP1 SSTORE MLOAD SWAP1 SWAP3 SWAP2 PUSH32 0x825C8BE24EB0DF19500F63E86C29E7D0D951E73056B889B891D85E40938D9B6E SWAP2 LOG3 POP JUMP JUMPDEST PUSH2 0x124A PUSH1 0x40 MLOAD DUP1 PUSH1 0xA0 ADD PUSH1 0x40 MSTORE DUP1 PUSH1 0x0 PUSH1 0x1 PUSH1 0x1 PUSH1 0xA0 SHL SUB AND DUP2 MSTORE PUSH1 0x20 ADD PUSH1 0x60 DUP2 MSTORE PUSH1 0x20 ADD PUSH1 0x0 DUP2 MSTORE PUSH1 0x20 ADD PUSH1 0x0 ISZERO ISZERO DUP2 MSTORE PUSH1 0x20 ADD PUSH1 0x0 DUP2 MSTORE POP SWAP1 JUMP JUMPDEST CALLER PUSH1 0x1 PUSH1 0x1 PUSH1 0xA0 SHL SUB DUP5 AND EQ DUP1 PUSH2 0x1269 JUMPI POP CALLER PUSH1 0x1 PUSH1 0x1 PUSH1 0xA0 SHL SUB DUP4 AND EQ JUMPDEST PUSH2 0x1285 JUMPI PUSH1 0x40 MLOAD PUSH3 0x461BCD PUSH1 0xE5 SHL DUP2 MSTORE PUSH1 0x4 ADD PUSH2 0x40E SWAP1 PUSH2 0x2713 JUMP JUMPDEST PUSH1 0x1 PUSH1 0x1 PUSH1 0xA0 SHL SUB DUP1 DUP5 AND PUSH1 0x0 SWAP1 DUP2 MSTORE PUSH1 0x4 PUSH1 0x20 SWAP1 DUP2 MSTORE PUSH1 0x40 DUP1 DUP4 KECCAK256 DUP7 DUP6 AND DUP5 MSTORE DUP3 MSTORE SWAP2 DUP3 SWAP1 KECCAK256 DUP3 MLOAD PUSH1 0xA0 DUP2 ADD DUP5 MSTORE DUP2 SLOAD SWAP1 SWAP5 AND DUP5 MSTORE PUSH1 0x1 DUP2 ADD DUP1 SLOAD DUP5 MLOAD DUP2 DUP6 MUL DUP2 ADD DUP6 ADD SWAP1 SWAP6 MSTORE DUP1 DUP6 MSTORE SWAP2 SWAP4 DUP6 DUP5 ADD SWAP4 SWAP1 SWAP3 SWAP1 DUP4 ADD DUP3 DUP3 DUP1 ISZERO PUSH2 0x1308 JUMPI PUSH1 0x20 MUL DUP3 ADD SWAP2 SWAP1 PUSH1 0x0 MSTORE PUSH1 0x20 PUSH1 0x0 KECCAK256 SWAP1 JUMPDEST DUP2 SLOAD DUP2 MSTORE PUSH1 0x20 ADD SWAP1 PUSH1 0x1 ADD SWAP1 DUP1 DUP4 GT PUSH2 0x12F4 JUMPI JUMPDEST POP POP POP SWAP2 DUP4 MSTORE POP POP PUSH1 0x2 DUP3 ADD SLOAD PUSH1 0x20 DUP3 ADD MSTORE PUSH1 0x3 DUP3 ADD SLOAD PUSH1 0xFF AND ISZERO ISZERO PUSH1 0x40 DUP3 ADD MSTORE PUSH1 0x4 SWAP1 SWAP2 ADD SLOAD PUSH1 0x60 SWAP1 SWAP2 ADD MSTORE SWAP4 SWAP3 POP POP POP JUMP JUMPDEST PUSH1 0x0 SLOAD PUSH1 0x1 PUSH1 0x1 PUSH1 0xA0 SHL SUB AND SWAP1 JUMP JUMPDEST PUSH1 0x1 PUSH1 0x1 PUSH1 0xA0 SHL SUB DUP2 AND PUSH2 0x1371 JUMPI PUSH1 0x40 MLOAD PUSH3 0x461BCD PUSH1 0xE5 SHL DUP2 MSTORE PUSH1 0x4 ADD PUSH2 0x40E SWAP1 PUSH2 0x2773 JUMP JUMPDEST CALLER PUSH1 0x0 SWAP1 DUP2 MSTORE PUSH1 0x6 PUSH1 0x20 MSTORE PUSH1 0x40 SWAP1 KECCAK256 DUP1 SLOAD PUSH1 0x1 PUSH1 0x1 PUSH1 0xA0 SHL SUB NOT AND PUSH1 0x1 PUSH1 0x1 PUSH1 0xA0 SHL SUB SWAP3 SWAP1 SWAP3 AND SWAP2 SWAP1 SWAP2 OR SWAP1 SSTORE JUMP JUMPDEST PUSH1 0x0 SWAP2 DUP3 MSTORE PUSH1 0x1 PUSH1 0x20 SWAP1 DUP2 MSTORE PUSH1 0x40 DUP1 DUP5 KECCAK256 PUSH1 0x1 PUSH1 0x1 PUSH1 0xA0 SHL SUB SWAP4 SWAP1 SWAP4 AND DUP5 MSTORE SWAP2 SWAP1 MSTORE SWAP1 KECCAK256 SLOAD PUSH1 0xFF AND SWAP1 JUMP JUMPDEST PUSH1 0x1 PUSH1 0x1 PUSH1 0xA0 SHL SUB DUP4 AND PUSH2 0x13F1 JUMPI PUSH1 0x40 MLOAD PUSH3 0x461BCD PUSH1 0xE5 SHL DUP2 MSTORE PUSH1 0x4 ADD PUSH2 0x40E SWAP1 PUSH2 0x2773 JUMP JUMPDEST PUSH1 0x0 DUP3 MLOAD GT PUSH2 0x1453 JUMPI PUSH1 0x40 MLOAD PUSH3 0x461BCD PUSH1 0xE5 SHL DUP2 MSTORE PUSH1 0x20 PUSH1 0x4 DUP3 ADD MSTORE PUSH1 0x28 PUSH1 0x24 DUP3 ADD MSTORE PUSH32 0x4D757374206772616E742061636365737320746F206174206C65617374206F6E PUSH1 0x44 DUP3 ADD MSTORE PUSH8 0x19481C9958DBDC99 PUSH1 0xC2 SHL PUSH1 0x64 DUP3 ADD MSTORE PUSH1 0x84 ADD PUSH2 0x40E JUMP JUMPDEST PUSH1 0x0 DUP2 GT DUP1 ISZERO PUSH2 0x1465 JUMPI POP PUSH2 0xE42 DUP2 GT ISZERO JUMPDEST PUSH2 0x14A4 JUMPI PUSH1 0x40 MLOAD PUSH3 0x461BCD PUSH1 0xE5 SHL DUP2 MSTORE PUSH1 0x20 PUSH1 0x4 DUP3 ADD MSTORE PUSH1 0x10 PUSH1 0x24 DUP3 ADD MSTORE PUSH16 0x24B73B30B634B210323AB930BA34B7B7 PUSH1 0x81 SHL PUSH1 0x44 DUP3 ADD MSTORE PUSH1 0x64 ADD PUSH2 0x40E JUMP JUMPDEST PUSH1 0x0 JUMPDEST DUP3 MLOAD DUP2 LT ISZERO PUSH2 0x1558 JUMPI CALLER PUSH1 0x1 PUSH1 0x1 PUSH1 0xA0 SHL SUB AND PUSH1 0x3 PUSH1 0x0 DUP6 DUP5 DUP2 MLOAD DUP2 LT PUSH2 0x14D0 JUMPI PUSH2 0x14D0 PUSH2 0x273B JUMP JUMPDEST PUSH1 0x20 SWAP1 DUP2 MUL SWAP2 SWAP1 SWAP2 ADD DUP2 ADD MLOAD DUP3 MSTORE DUP2 ADD SWAP2 SWAP1 SWAP2 MSTORE PUSH1 0x40 ADD PUSH1 0x0 KECCAK256 PUSH1 0x1 ADD SLOAD PUSH1 0x1 PUSH1 0x1 PUSH1 0xA0 SHL SUB AND EQ PUSH2 0x1550 JUMPI PUSH1 0x40 MLOAD PUSH3 0x461BCD PUSH1 0xE5 SHL DUP2 MSTORE PUSH1 0x20 PUSH1 0x4 DUP3 ADD MSTORE PUSH1 0x23 PUSH1 0x24 DUP3 ADD MSTORE PUSH32 0x596F7520646F6E2774206F776E20616C6C20737065636966696564207265636F PUSH1 0x44 DUP3 ADD MSTORE PUSH3 0x726473 PUSH1 0xE8 SHL PUSH1 0x64 DUP3 ADD MSTORE PUSH1 0x84 ADD PUSH2 0x40E JUMP JUMPDEST PUSH1 0x1 ADD PUSH2 0x14A7 JUMP JUMPDEST POP PUSH1 0x0 PUSH2 0x1568 DUP3 PUSH3 0x15180 PUSH2 0x279C JUMP JUMPDEST PUSH2 0x1572 SWAP1 TIMESTAMP PUSH2 0x27B3 JUMP JUMPDEST PUSH1 0x40 DUP1 MLOAD PUSH1 0xA0 DUP2 ADD DUP3 MSTORE PUSH1 0x1 PUSH1 0x1 PUSH1 0xA0 SHL SUB DUP8 DUP2 AND DUP1 DUP4 MSTORE PUSH1 0x20 DUP1 DUP5 ADD DUP10 DUP2 MSTORE DUP5 DUP7 ADD DUP8 SWAP1 MSTORE PUSH1 0x1 PUSH1 0x60 DUP7 ADD DUP2 SWAP1 MSTORE TIMESTAMP PUSH1 0x80 DUP8 ADD MSTORE CALLER PUSH1 0x0 SWAP1 DUP2 MSTORE PUSH1 0x4 DUP5 MSTORE DUP8 DUP2 KECCAK256 SWAP5 DUP2 MSTORE SWAP4 DUP4 MSTORE SWAP6 SWAP1 SWAP3 KECCAK256 DUP5 MLOAD DUP2 SLOAD PUSH1 0x1 PUSH1 0x1 PUSH1 0xA0 SHL SUB NOT AND SWAP5 AND SWAP4 SWAP1 SWAP4 OR DUP4 SSTORE SWAP1 MLOAD DUP1 MLOAD SWAP6 SWAP7 POP SWAP3 SWAP5 SWAP2 SWAP4 PUSH2 0x15EF SWAP4 SWAP1 DUP6 ADD SWAP3 SWAP2 ADD SWAP1 PUSH2 0x1D89 JUMP JUMPDEST POP PUSH1 0x40 DUP3 DUP2 ADD MLOAD PUSH1 0x2 DUP4 ADD SSTORE PUSH1 0x60 DUP4 ADD MLOAD PUSH1 0x3 DUP4 ADD DUP1 SLOAD PUSH1 0xFF NOT AND SWAP2 ISZERO ISZERO SWAP2 SWAP1 SWAP2 OR SWAP1 SSTORE PUSH1 0x80 SWAP1 SWAP3 ADD MLOAD PUSH1 0x4 SWAP1 SWAP2 ADD SSTORE MLOAD DUP2 DUP2 MSTORE PUSH1 0x1 PUSH1 0x1 PUSH1 0xA0 SHL SUB DUP6 AND SWAP1 CALLER SWAP1 PUSH32 0x65D0CC1E52D49938CA4AD9F423C79C1B84D914B9A683FBC5D3F93AC3CC5635F5 SWAP1 PUSH1 0x20 ADD JUMPDEST PUSH1 0x40 MLOAD DUP1 SWAP2 SUB SWAP1 LOG3 POP POP POP POP JUMP JUMPDEST DUP2 PUSH1 0x0 DUP2 GT DUP1 ISZERO PUSH2 0x1677 JUMPI POP PUSH1 0x7 SLOAD DUP2 GT ISZERO JUMPDEST PUSH2 0x1693 JUMPI PUSH1 0x40 MLOAD PUSH3 0x461BCD PUSH1 0xE5 SHL DUP2 MSTORE PUSH1 0x4 ADD PUSH2 0x40E SWAP1 PUSH2 0x2464 JUMP JUMPDEST PUSH1 0x0 DUP2 DUP2 MSTORE PUSH1 0x3 PUSH1 0x20 MSTORE PUSH1 0x40 SWAP1 KECCAK256 PUSH1 0x5 ADD SLOAD PUSH1 0x1 PUSH1 0xA0 SHL SWAP1 DIV PUSH1 0xFF AND PUSH2 0x16CB JUMPI PUSH1 0x40 MLOAD PUSH3 0x461BCD PUSH1 0xE5 SHL DUP2 MSTORE PUSH1 0x4 ADD PUSH2 0x40E SWAP1 PUSH2 0x2493 JUMP JUMPDEST PUSH1 0x0 DUP4 DUP2 MSTORE PUSH1 0x3 PUSH1 0x20 MSTORE PUSH1 0x40 SWAP1 KECCAK256 PUSH1 0x1 ADD SLOAD DUP4 SWAP1 PUSH2 0x16F3 SWAP1 PUSH1 0x1 PUSH1 0x1 PUSH1 0xA0 SHL SUB AND CALLER DUP4 PUSH2 0x18A5 JUMP JUMPDEST PUSH2 0x170F JUMPI PUSH1 0x40 MLOAD PUSH3 0x461BCD PUSH1 0xE5 SHL DUP2 MSTORE PUSH1 0x4 ADD PUSH2 0x40E SWAP1 PUSH2 0x2505 JUMP JUMPDEST PUSH1 0x0 DUP5 DUP2 MSTORE PUSH1 0x3 PUSH1 0x20 SWAP1 DUP2 MSTORE PUSH1 0x40 DUP1 DUP4 KECCAK256 PUSH1 0x1 ADD SLOAD PUSH1 0x1 PUSH1 0x1 PUSH1 0xA0 SHL SUB SWAP1 DUP2 AND DUP5 MSTORE PUSH1 0x6 SWAP1 SWAP3 MSTORE SWAP1 SWAP2 KECCAK256 SLOAD CALLER SWAP2 AND SUB PUSH2 0x1795 JUMPI PUSH1 0x0 DUP5 DUP2 MSTORE PUSH1 0x3 PUSH1 0x20 SWAP1 DUP2 MSTORE PUSH1 0x40 SWAP2 DUP3 SWAP1 KECCAK256 PUSH1 0x1 ADD SLOAD SWAP2 MLOAD TIMESTAMP DUP2 MSTORE CALLER SWAP3 PUSH1 0x1 PUSH1 0x1 PUSH1 0xA0 SHL SUB AND SWAP2 PUSH32 0xF09B5B37601D747E980AAD190F31B7FA72740906D3DA5EB0AF65D1F89FDE166B SWAP2 ADD PUSH1 0x40 MLOAD DUP1 SWAP2 SUB SWAP1 LOG3 JUMPDEST PUSH1 0x5 PUSH1 0x0 DUP6 DUP2 MSTORE PUSH1 0x20 ADD SWAP1 DUP2 MSTORE PUSH1 0x20 ADD PUSH1 0x0 KECCAK256 PUSH1 0x40 MLOAD DUP1 PUSH1 0x60 ADD PUSH1 0x40 MSTORE DUP1 CALLER PUSH1 0x1 PUSH1 0x1 PUSH1 0xA0 SHL SUB AND DUP2 MSTORE PUSH1 0x20 ADD TIMESTAMP DUP2 MSTORE PUSH1 0x20 ADD DUP6 PUSH1 0x4 DUP2 GT ISZERO PUSH2 0x17DA JUMPI PUSH2 0x17DA PUSH2 0x1E0F JUMP JUMPDEST SWAP1 MSTORE DUP2 SLOAD PUSH1 0x1 DUP1 DUP3 ADD DUP5 SSTORE PUSH1 0x0 SWAP4 DUP5 MSTORE PUSH1 0x20 SWAP4 DUP5 SWAP1 KECCAK256 DUP4 MLOAD PUSH1 0x3 SWAP1 SWAP4 MUL ADD DUP1 SLOAD PUSH1 0x1 PUSH1 0x1 PUSH1 0xA0 SHL SUB NOT AND PUSH1 0x1 PUSH1 0x1 PUSH1 0xA0 SHL SUB SWAP1 SWAP4 AND SWAP3 SWAP1 SWAP3 OR DUP3 SSTORE SWAP3 DUP3 ADD MLOAD DUP2 DUP5 ADD SSTORE PUSH1 0x40 DUP3 ADD MLOAD PUSH1 0x2 DUP3 ADD DUP1 SLOAD SWAP4 SWAP5 SWAP3 SWAP4 SWAP2 SWAP3 SWAP1 SWAP2 PUSH1 0xFF NOT AND SWAP1 DUP4 PUSH1 0x4 DUP2 GT ISZERO PUSH2 0x1847 JUMPI PUSH2 0x1847 PUSH2 0x1E0F JUMP JUMPDEST MUL OR SWAP1 SSTORE POP POP PUSH1 0x40 MLOAD TIMESTAMP DUP2 MSTORE CALLER SWAP2 POP DUP6 SWAP1 PUSH32 0xDEC39EB35DC9CA96737E4515F8A70F5DB122E248213EE947B996E1F678AB05B8 SWAP1 PUSH1 0x20 ADD PUSH2 0x1656 JUMP JUMPDEST PUSH1 0x0 PUSH2 0x188D DUP2 PUSH2 0x1A7C JUMP JUMPDEST PUSH2 0xBCC PUSH1 0x0 DUP1 MLOAD PUSH1 0x20 PUSH2 0x27E7 DUP4 CODECOPY DUP2 MLOAD SWAP2 MSTORE DUP4 PUSH2 0x1A22 JUMP JUMPDEST PUSH1 0x0 DUP3 PUSH1 0x1 PUSH1 0x1 PUSH1 0xA0 SHL SUB AND DUP5 PUSH1 0x1 PUSH1 0x1 PUSH1 0xA0 SHL SUB AND SUB PUSH2 0x18C8 JUMPI POP PUSH1 0x1 PUSH2 0xF75 JUMP JUMPDEST PUSH1 0x1 PUSH1 0x1 PUSH1 0xA0 SHL SUB DUP5 DUP2 AND PUSH1 0x0 SWAP1 DUP2 MSTORE PUSH1 0x6 PUSH1 0x20 MSTORE PUSH1 0x40 SWAP1 KECCAK256 SLOAD DUP2 DUP6 AND SWAP2 AND SUB PUSH2 0x18F4 JUMPI POP PUSH1 0x1 PUSH2 0xF75 JUMP JUMPDEST PUSH1 0x1 PUSH1 0x1 PUSH1 0xA0 SHL SUB DUP1 DUP6 AND PUSH1 0x0 SWAP1 DUP2 MSTORE PUSH1 0x4 PUSH1 0x20 SWAP1 DUP2 MSTORE PUSH1 0x40 DUP1 DUP4 KECCAK256 DUP8 DUP6 AND DUP5 MSTORE DUP3 MSTORE DUP1 DUP4 KECCAK256 DUP2 MLOAD PUSH1 0xA0 DUP2 ADD DUP4 MSTORE DUP2 SLOAD SWAP1 SWAP6 AND DUP6 MSTORE PUSH1 0x1 DUP2 ADD DUP1 SLOAD DUP4 MLOAD DUP2 DUP7 MUL DUP2 ADD DUP7 ADD SWAP1 SWAP5 MSTORE DUP1 DUP5 MSTORE SWAP5 SWAP6 SWAP5 SWAP2 SWAP4 DUP6 DUP2 ADD SWAP4 SWAP3 SWAP1 DUP4 ADD DUP3 DUP3 DUP1 ISZERO PUSH2 0x1978 JUMPI PUSH1 0x20 MUL DUP3 ADD SWAP2 SWAP1 PUSH1 0x0 MSTORE PUSH1 0x20 PUSH1 0x0 KECCAK256 SWAP1 JUMPDEST DUP2 SLOAD DUP2 MSTORE PUSH1 0x20 ADD SWAP1 PUSH1 0x1 ADD SWAP1 DUP1 DUP4 GT PUSH2 0x1964 JUMPI JUMPDEST POP POP POP SWAP2 DUP4 MSTORE POP POP PUSH1 0x2 DUP3 ADD SLOAD PUSH1 0x20 DUP3 ADD MSTORE PUSH1 0x3 DUP3 ADD SLOAD PUSH1 0xFF AND ISZERO ISZERO PUSH1 0x40 DUP3 ADD MSTORE PUSH1 0x4 SWAP1 SWAP2 ADD SLOAD PUSH1 0x60 SWAP2 DUP3 ADD MSTORE DUP2 ADD MLOAD SWAP1 SWAP2 POP PUSH2 0x19B9 JUMPI PUSH1 0x0 SWAP2 POP POP PUSH2 0xF75 JUMP JUMPDEST DUP1 PUSH1 0x40 ADD MLOAD TIMESTAMP GT ISZERO PUSH2 0x19CF JUMPI PUSH1 0x0 SWAP2 POP POP PUSH2 0xF75 JUMP JUMPDEST PUSH1 0x0 JUMPDEST DUP2 PUSH1 0x20 ADD MLOAD MLOAD DUP2 LT ISZERO PUSH2 0x1A16 JUMPI DUP4 DUP3 PUSH1 0x20 ADD MLOAD DUP3 DUP2 MLOAD DUP2 LT PUSH2 0x19F6 JUMPI PUSH2 0x19F6 PUSH2 0x273B JUMP JUMPDEST PUSH1 0x20 MUL PUSH1 0x20 ADD ADD MLOAD SUB PUSH2 0x1A0E JUMPI PUSH1 0x1 SWAP3 POP POP POP PUSH2 0xF75 JUMP JUMPDEST PUSH1 0x1 ADD PUSH2 0x19D2 JUMP JUMPDEST POP PUSH1 0x0 SWAP6 SWAP5 POP POP POP POP POP JUMP JUMPDEST PUSH2 0x1A2B DUP3 PUSH2 0xF96 JUMP JUMPDEST PUSH2 0x1A34 DUP2 PUSH2 0x1A7C JUMP JUMPDEST PUSH2 0xFC8 DUP4 DUP4 PUSH2 0x1BFC JUMP JUMPDEST PUSH2 0x1A46 PUSH2 0x1C69 JUMP JUMPDEST PUSH1 0x1 PUSH1 0x1 PUSH1 0xA0 SHL SUB DUP2 AND PUSH2 0x1A70 JUMPI PUSH1 0x0 PUSH1 0x40 MLOAD PUSH4 0x1E4FBDF7 PUSH1 0xE0 SHL DUP2 MSTORE PUSH1 0x4 ADD PUSH2 0x40E SWAP2 SWAP1 PUSH2 0x2315 JUMP JUMPDEST PUSH2 0x1A79 DUP2 PUSH2 0x1C9B JUMP JUMPDEST POP JUMP JUMPDEST PUSH2 0x1A79 DUP2 CALLER PUSH2 0x1CEB JUMP JUMPDEST PUSH1 0x1 PUSH1 0x1 PUSH1 0xA0 SHL SUB DUP3 DUP2 AND PUSH1 0x0 SWAP1 DUP2 MSTORE PUSH1 0x6 PUSH1 0x20 MSTORE PUSH1 0x40 DUP2 KECCAK256 SLOAD SWAP1 SWAP2 DUP1 DUP5 AND SWAP2 AND SUB PUSH2 0x1AB4 JUMPI POP PUSH1 0x1 PUSH2 0x572 JUMP JUMPDEST PUSH1 0x1 PUSH1 0x1 PUSH1 0xA0 SHL SUB DUP1 DUP5 AND PUSH1 0x0 SWAP1 DUP2 MSTORE PUSH1 0x4 PUSH1 0x20 SWAP1 DUP2 MSTORE PUSH1 0x40 DUP1 DUP4 KECCAK256 DUP7 DUP6 AND DUP5 MSTORE DUP3 MSTORE DUP1 DUP4 KECCAK256 DUP2 MLOAD PUSH1 0xA0 DUP2 ADD DUP4 MSTORE DUP2 SLOAD SWAP1 SWAP6 AND DUP6 MSTORE PUSH1 0x1 DUP2 ADD DUP1 SLOAD DUP4 MLOAD DUP2 DUP7 MUL DUP2 ADD DUP7 ADD SWAP1 SWAP5 MSTORE DUP1 DUP5 MSTORE SWAP5 SWAP6 SWAP5 SWAP2 SWAP4 DUP6 DUP2 ADD SWAP4 SWAP3 SWAP1 DUP4 ADD DUP3 DUP3 DUP1 ISZERO PUSH2 0x1B38 JUMPI PUSH1 0x20 MUL DUP3 ADD SWAP2 SWAP1 PUSH1 0x0 MSTORE PUSH1 0x20 PUSH1 0x0 KECCAK256 SWAP1 JUMPDEST DUP2 SLOAD DUP2 MSTORE PUSH1 0x20 ADD SWAP1 PUSH1 0x1 ADD SWAP1 DUP1 DUP4 GT PUSH2 0x1B24 JUMPI JUMPDEST POP POP POP SWAP2 DUP4 MSTORE POP POP PUSH1 0x2 DUP3 ADD SLOAD PUSH1 0x20 DUP3 ADD MSTORE PUSH1 0x3 DUP3 ADD SLOAD PUSH1 0xFF AND ISZERO ISZERO PUSH1 0x40 DUP3 ADD MSTORE PUSH1 0x4 SWAP1 SWAP2 ADD SLOAD PUSH1 0x60 SWAP2 DUP3 ADD MSTORE DUP2 ADD MLOAD SWAP1 SWAP2 POP DUP1 ISZERO PUSH2 0x1B7B JUMPI POP DUP1 PUSH1 0x40 ADD MLOAD TIMESTAMP GT ISZERO JUMPDEST SWAP5 SWAP4 POP POP POP POP JUMP JUMPDEST PUSH1 0x0 PUSH2 0x1B8F DUP4 DUP4 PUSH2 0x13A0 JUMP JUMPDEST PUSH2 0x1BF4 JUMPI PUSH1 0x0 DUP4 DUP2 MSTORE PUSH1 0x1 PUSH1 0x20 DUP2 DUP2 MSTORE PUSH1 0x40 DUP1 DUP5 KECCAK256 PUSH1 0x1 PUSH1 0x1 PUSH1 0xA0 SHL SUB DUP8 AND DUP1 DUP7 MSTORE SWAP3 MSTORE DUP1 DUP5 KECCAK256 DUP1 SLOAD PUSH1 0xFF NOT AND SWAP1 SWAP4 OR SWAP1 SWAP3 SSTORE SWAP1 MLOAD CALLER SWAP3 DUP7 SWAP2 PUSH32 0x2F8788117E7EFF1D82E926EC794901D17C78024A50270940304540A733656F0D SWAP2 SWAP1 LOG4 POP PUSH1 0x1 PUSH2 0x572 JUMP JUMPDEST POP PUSH1 0x0 PUSH2 0x572 JUMP JUMPDEST PUSH1 0x0 PUSH2 0x1C08 DUP4 DUP4 PUSH2 0x13A0 JUMP JUMPDEST ISZERO PUSH2 0x1BF4 JUMPI PUSH1 0x0 DUP4 DUP2 MSTORE PUSH1 0x1 PUSH1 0x20 SWAP1 DUP2 MSTORE PUSH1 0x40 DUP1 DUP4 KECCAK256 PUSH1 0x1 PUSH1 0x1 PUSH1 0xA0 SHL SUB DUP7 AND DUP1 DUP6 MSTORE SWAP3 MSTORE DUP1 DUP4 KECCAK256 DUP1 SLOAD PUSH1 0xFF NOT AND SWAP1 SSTORE MLOAD CALLER SWAP3 DUP7 SWAP2 PUSH32 0xF6391F5C32D9C69D2A47EA670B442974B53935D1EDC7FD64EB21E047A839171B SWAP2 SWAP1 LOG4 POP PUSH1 0x1 PUSH2 0x572 JUMP JUMPDEST CALLER PUSH2 0x1C72 PUSH2 0x133C JUMP JUMPDEST PUSH1 0x1 PUSH1 0x1 PUSH1 0xA0 SHL SUB AND EQ PUSH2 0x1143 JUMPI CALLER PUSH1 0x40 MLOAD PUSH4 0x118CDAA7 PUSH1 0xE0 SHL DUP2 MSTORE PUSH1 0x4 ADD PUSH2 0x40E SWAP2 SWAP1 PUSH2 0x2315 JUMP JUMPDEST PUSH1 0x0 DUP1 SLOAD PUSH1 0x1 PUSH1 0x1 PUSH1 0xA0 SHL SUB DUP4 DUP2 AND PUSH1 0x1 PUSH1 0x1 PUSH1 0xA0 SHL SUB NOT DUP4 AND DUP2 OR DUP5 SSTORE PUSH1 0x40 MLOAD SWAP2 SWAP1 SWAP3 AND SWAP3 DUP4 SWAP2 PUSH32 0x8BE0079C531659141344CD1FD0A4F28419497F9722A3DAAFE3B4186F6B6457E0 SWAP2 SWAP1 LOG3 POP POP JUMP JUMPDEST PUSH2 0x1CF5 DUP3 DUP3 PUSH2 0x13A0 JUMP JUMPDEST PUSH2 0xBCC JUMPI PUSH1 0x40 MLOAD PUSH4 0xE2517D3F PUSH1 0xE0 SHL DUP2 MSTORE PUSH1 0x1 PUSH1 0x1 PUSH1 0xA0 SHL SUB DUP3 AND PUSH1 0x4 DUP3 ADD MSTORE PUSH1 0x24 DUP2 ADD DUP4 SWAP1 MSTORE PUSH1 0x44 ADD PUSH2 0x40E JUMP JUMPDEST PUSH1 0x40 MLOAD DUP1 PUSH2 0x120 ADD PUSH1 0x40 MSTORE DUP1 PUSH1 0x0 DUP2 MSTORE PUSH1 0x20 ADD PUSH1 0x0 PUSH1 0x1 PUSH1 0x1 PUSH1 0xA0 SHL SUB AND DUP2 MSTORE PUSH1 0x20 ADD PUSH1 0x60 DUP2 MSTORE PUSH1 0x20 ADD PUSH1 0x0 PUSH1 0x5 DUP2 GT ISZERO PUSH2 0x1D61 JUMPI PUSH2 0x1D61 PUSH2 0x1E0F JUMP JUMPDEST DUP2 MSTORE PUSH1 0x0 PUSH1 0x20 DUP3 ADD DUP2 SWAP1 MSTORE PUSH1 0x40 DUP3 ADD DUP2 SWAP1 MSTORE PUSH1 0x60 DUP1 DUP4 ADD DUP3 SWAP1 MSTORE PUSH1 0x80 DUP4 ADD MSTORE PUSH1 0xA0 SWAP1 SWAP2 ADD MSTORE SWAP1 JUMP JUMPDEST DUP3 DUP1 SLOAD DUP3 DUP3 SSTORE SWAP1 PUSH1 0x0 MSTORE PUSH1 0x20 PUSH1 0x0 KECCAK256 SWAP1 DUP2 ADD SWAP3 DUP3 ISZERO PUSH2 0x1DC4 JUMPI SWAP2 PUSH1 0x20 MUL DUP3 ADD JUMPDEST DUP3 DUP2 GT ISZERO PUSH2 0x1DC4 JUMPI DUP3 MLOAD DUP3 SSTORE SWAP2 PUSH1 0x20 ADD SWAP2 SWAP1 PUSH1 0x1 ADD SWAP1 PUSH2 0x1DA9 JUMP JUMPDEST POP PUSH2 0x1DD0 SWAP3 SWAP2 POP PUSH2 0x1DD4 JUMP JUMPDEST POP SWAP1 JUMP JUMPDEST JUMPDEST DUP1 DUP3 GT ISZERO PUSH2 0x1DD0 JUMPI PUSH1 0x0 DUP2 SSTORE PUSH1 0x1 ADD PUSH2 0x1DD5 JUMP JUMPDEST PUSH1 0x0 PUSH1 0x20 DUP3 DUP5 SUB SLT ISZERO PUSH2 0x1DFB JUMPI PUSH1 0x0 DUP1 REVERT JUMPDEST POP CALLDATALOAD SWAP2 SWAP1 POP JUMP JUMPDEST PUSH1 0x1 PUSH1 0x1 PUSH1 0xA0 SHL SUB AND SWAP1 MSTORE JUMP JUMPDEST PUSH4 0x4E487B71 PUSH1 0xE0 SHL PUSH1 0x0 MSTORE PUSH1 0x21 PUSH1 0x4 MSTORE PUSH1 0x24 PUSH1 0x0 REVERT JUMPDEST PUSH1 0x20 DUP1 DUP3 MSTORE DUP3 MLOAD DUP3 DUP3 ADD DUP2 SWAP1 MSTORE PUSH1 0x0 SWAP2 DUP5 ADD SWAP1 PUSH1 0x40 DUP5 ADD SWAP1 DUP4 JUMPDEST DUP2 DUP2 LT ISZERO PUSH2 0xD98 JUMPI DUP4 MLOAD DUP1 MLOAD PUSH1 0x1 PUSH1 0x1 PUSH1 0xA0 SHL SUB AND DUP5 MSTORE PUSH1 0x20 DUP1 DUP3 ADD MLOAD SWAP1 DUP6 ADD MSTORE PUSH1 0x40 ADD MLOAD PUSH1 0x5 DUP2 LT PUSH2 0x1E74 JUMPI PUSH2 0x1E74 PUSH2 0x1E0F JUMP JUMPDEST PUSH1 0x40 DUP5 ADD MSTORE PUSH1 0x20 SWAP4 SWAP1 SWAP4 ADD SWAP3 PUSH1 0x60 SWAP1 SWAP3 ADD SWAP2 PUSH1 0x1 ADD PUSH2 0x1E3F JUMP JUMPDEST PUSH1 0x0 PUSH1 0x20 DUP3 DUP5 SUB SLT ISZERO PUSH2 0x1EA0 JUMPI PUSH1 0x0 DUP1 REVERT JUMPDEST DUP2 CALLDATALOAD PUSH1 0x1 PUSH1 0x1 PUSH1 0xE0 SHL SUB NOT DUP2 AND DUP2 EQ PUSH2 0xF75 JUMPI PUSH1 0x0 DUP1 REVERT JUMPDEST PUSH1 0x0 DUP2 MLOAD DUP1 DUP5 MSTORE PUSH1 0x0 JUMPDEST DUP2 DUP2 LT ISZERO PUSH2 0x1EDE JUMPI PUSH1 0x20 DUP2 DUP6 ADD DUP2 ADD MLOAD DUP7 DUP4 ADD DUP3 ADD MSTORE ADD PUSH2 0x1EC2 JUMP JUMPDEST POP PUSH1 0x0 PUSH1 0x20 DUP3 DUP7 ADD ADD MSTORE PUSH1 0x20 PUSH1 0x1F NOT PUSH1 0x1F DUP4 ADD AND DUP6 ADD ADD SWAP2 POP POP SWAP3 SWAP2 POP POP JUMP JUMPDEST PUSH1 0x6 DUP2 LT PUSH2 0x1F0E JUMPI PUSH2 0x1F0E PUSH2 0x1E0F JUMP JUMPDEST SWAP1 MSTORE JUMP JUMPDEST PUSH1 0x20 DUP2 MSTORE DUP2 MLOAD PUSH1 0x20 DUP3 ADD MSTORE PUSH1 0x0 PUSH1 0x20 DUP4 ADD MLOAD PUSH2 0x1F31 PUSH1 0x40 DUP5 ADD DUP3 PUSH2 0x1E02 JUMP JUMPDEST POP PUSH1 0x40 DUP4 ADD MLOAD PUSH2 0x120 PUSH1 0x60 DUP5 ADD MSTORE PUSH2 0x1F4D PUSH2 0x140 DUP5 ADD DUP3 PUSH2 0x1EB8 JUMP JUMPDEST SWAP1 POP PUSH1 0x60 DUP5 ADD MLOAD PUSH2 0x1F61 PUSH1 0x80 DUP6 ADD DUP3 PUSH2 0x1EFE JUMP JUMPDEST POP PUSH1 0x80 DUP5 ADD MLOAD PUSH1 0xA0 DUP5 ADD MSTORE PUSH1 0xA0 DUP5 ADD MLOAD PUSH2 0x1F7E PUSH1 0xC0 DUP6 ADD DUP3 PUSH2 0x1E02 JUMP JUMPDEST POP PUSH1 0xC0 DUP5 ADD MLOAD DUP1 ISZERO ISZERO PUSH1 0xE0 DUP6 ADD MSTORE POP PUSH1 0xE0 DUP5 ADD MLOAD DUP4 DUP3 SUB PUSH1 0x1F NOT ADD PUSH2 0x100 DUP6 ADD MSTORE PUSH2 0x1FA9 DUP3 DUP3 PUSH2 0x1EB8 JUMP JUMPDEST SWAP2 POP POP PUSH2 0x100 DUP5 ADD MLOAD PUSH2 0x120 DUP5 ADD MSTORE DUP1 SWAP2 POP POP SWAP3 SWAP2 POP POP JUMP JUMPDEST DUP1 CALLDATALOAD PUSH1 0x1 PUSH1 0x1 PUSH1 0xA0 SHL SUB DUP2 AND DUP2 EQ PUSH2 0x1FD9 JUMPI PUSH1 0x0 DUP1 REVERT JUMPDEST SWAP2 SWAP1 POP JUMP JUMPDEST PUSH4 0x4E487B71 PUSH1 0xE0 SHL PUSH1 0x0 MSTORE PUSH1 0x41 PUSH1 0x4 MSTORE PUSH1 0x24 PUSH1 0x0 REVERT JUMPDEST PUSH1 0x40 MLOAD PUSH1 0x1F DUP3 ADD PUSH1 0x1F NOT AND DUP2 ADD PUSH1 0x1 PUSH1 0x1 PUSH1 0x40 SHL SUB DUP2 GT DUP3 DUP3 LT OR ISZERO PUSH2 0x201C JUMPI PUSH2 0x201C PUSH2 0x1FDE JUMP JUMPDEST PUSH1 0x40 MSTORE SWAP2 SWAP1 POP JUMP JUMPDEST PUSH1 0x0 DUP3 PUSH1 0x1F DUP4 ADD SLT PUSH2 0x2035 JUMPI PUSH1 0x0 DUP1 REVERT JUMPDEST DUP2 CALLDATALOAD PUSH1 0x1 PUSH1 0x1 PUSH1 0x40 SHL SUB DUP2 GT ISZERO PUSH2 0x204E JUMPI PUSH2 0x204E PUSH2 0x1FDE JUMP JUMPDEST PUSH2 0x2061 PUSH1 0x1F DUP3 ADD PUSH1 0x1F NOT AND PUSH1 0x20 ADD PUSH2 0x1FF4 JUMP JUMPDEST DUP2 DUP2 MSTORE DUP5 PUSH1 0x20 DUP4 DUP7 ADD ADD GT ISZERO PUSH2 0x2076 JUMPI PUSH1 0x0 DUP1 REVERT JUMPDEST DUP2 PUSH1 0x20 DUP6 ADD PUSH1 0x20 DUP4 ADD CALLDATACOPY PUSH1 0x0 SWAP2 DUP2 ADD PUSH1 0x20 ADD SWAP2 SWAP1 SWAP2 MSTORE SWAP4 SWAP3 POP POP POP JUMP JUMPDEST DUP1 CALLDATALOAD PUSH1 0x6 DUP2 LT PUSH2 0x1FD9 JUMPI PUSH1 0x0 DUP1 REVERT JUMPDEST PUSH1 0x0 DUP1 PUSH1 0x0 DUP1 PUSH1 0x80 DUP6 DUP8 SUB SLT ISZERO PUSH2 0x20B8 JUMPI PUSH1 0x0 DUP1 REVERT JUMPDEST PUSH2 0x20C1 DUP6 PUSH2 0x1FC2 JUMP JUMPDEST SWAP4 POP PUSH1 0x20 DUP6 ADD CALLDATALOAD PUSH1 0x1 PUSH1 0x1 PUSH1 0x40 SHL SUB DUP2 GT ISZERO PUSH2 0x20DC JUMPI PUSH1 0x0 DUP1 REVERT JUMPDEST PUSH2 0x20E8 DUP8 DUP3 DUP9 ADD PUSH2 0x2024 JUMP JUMPDEST SWAP4 POP POP PUSH2 0x20F7 PUSH1 0x40 DUP7 ADD PUSH2 0x2093 JUMP JUMPDEST SWAP2 POP PUSH1 0x60 DUP6 ADD CALLDATALOAD PUSH1 0x1 PUSH1 0x1 PUSH1 0x40 SHL SUB DUP2 GT ISZERO PUSH2 0x2112 JUMPI PUSH1 0x0 DUP1 REVERT JUMPDEST PUSH2 0x211E DUP8 DUP3 DUP9 ADD PUSH2 0x2024 JUMP JUMPDEST SWAP2 POP POP SWAP3 SWAP6 SWAP2 SWAP5 POP SWAP3 POP JUMP JUMPDEST PUSH1 0x0 PUSH1 0x20 DUP3 DUP5 SUB SLT ISZERO PUSH2 0x213C JUMPI PUSH1 0x0 DUP1 REVERT JUMPDEST PUSH2 0xF75 DUP3 PUSH2 0x1FC2 JUMP JUMPDEST PUSH1 0x0 DUP2 MLOAD DUP1 DUP5 MSTORE PUSH1 0x20 DUP5 ADD SWAP4 POP PUSH1 0x20 DUP4 ADD PUSH1 0x0 JUMPDEST DUP3 DUP2 LT ISZERO PUSH2 0x2177 JUMPI DUP2 MLOAD DUP7 MSTORE PUSH1 0x20 SWAP6 DUP7 ADD SWAP6 SWAP1 SWAP2 ADD SWAP1 PUSH1 0x1 ADD PUSH2 0x2159 JUMP JUMPDEST POP SWAP4 SWAP5 SWAP4 POP POP POP POP JUMP JUMPDEST PUSH1 0x20 DUP2 MSTORE PUSH1 0x0 PUSH2 0xF75 PUSH1 0x20 DUP4 ADD DUP5 PUSH2 0x2145 JUMP JUMPDEST PUSH1 0x0 DUP1 PUSH1 0x0 PUSH1 0x60 DUP5 DUP7 SUB SLT ISZERO PUSH2 0x21A9 JUMPI PUSH1 0x0 DUP1 REVERT JUMPDEST DUP4 CALLDATALOAD PUSH1 0x1 PUSH1 0x1 PUSH1 0x40 SHL SUB DUP2 GT ISZERO PUSH2 0x21BF JUMPI PUSH1 0x0 DUP1 REVERT JUMPDEST PUSH2 0x21CB DUP7 DUP3 DUP8 ADD PUSH2 0x2024 JUMP JUMPDEST SWAP4 POP POP PUSH2 0x21DA PUSH1 0x20 DUP6 ADD PUSH2 0x2093 JUMP JUMPDEST SWAP2 POP PUSH1 0x40 DUP5 ADD CALLDATALOAD PUSH1 0x1 PUSH1 0x1 PUSH1 0x40 SHL SUB DUP2 GT ISZERO PUSH2 0x21F5 JUMPI PUSH1 0x0 DUP1 REVERT JUMPDEST PUSH2 0x2201 DUP7 DUP3 DUP8 ADD PUSH2 0x2024 JUMP JUMPDEST SWAP2 POP POP SWAP3 POP SWAP3 POP SWAP3 JUMP JUMPDEST PUSH1 0x0 DUP1 PUSH1 0x40 DUP4 DUP6 SUB SLT ISZERO PUSH2 0x221E JUMPI PUSH1 0x0 DUP1 REVERT JUMPDEST DUP3 CALLDATALOAD SWAP2 POP PUSH2 0x222E PUSH1 0x20 DUP5 ADD PUSH2 0x1FC2 JUMP JUMPDEST SWAP1 POP SWAP3 POP SWAP3 SWAP1 POP JUMP JUMPDEST PUSH1 0x0 DUP1 PUSH1 0x0 PUSH1 0x60 DUP5 DUP7 SUB SLT ISZERO PUSH2 0x224C JUMPI PUSH1 0x0 DUP1 REVERT JUMPDEST DUP4 CALLDATALOAD SWAP3 POP PUSH1 0x20 DUP5 ADD CALLDATALOAD PUSH1 0x1 PUSH1 0x1 PUSH1 0x40 SHL SUB DUP2 GT ISZERO PUSH2 0x2269 JUMPI PUSH1 0x0 DUP1 REVERT JUMPDEST PUSH2 0x2275 DUP7 DUP3 DUP8 ADD PUSH2 0x2024 JUMP JUMPDEST SWAP3 POP POP PUSH1 0x40 DUP5 ADD CALLDATALOAD PUSH1 0x1 PUSH1 0x1 PUSH1 0x40 SHL SUB DUP2 GT ISZERO PUSH2 0x21F5 JUMPI PUSH1 0x0 DUP1 REVERT JUMPDEST PUSH1 0x0 DUP1 PUSH1 0x40 DUP4 DUP6 SUB SLT ISZERO PUSH2 0x22A4 JUMPI PUSH1 0x0 DUP1 REVERT JUMPDEST PUSH2 0x22AD DUP4 PUSH2 0x1FC2 JUMP JUMPDEST SWAP2 POP PUSH2 0x222E PUSH1 0x20 DUP5 ADD PUSH2 0x1FC2 JUMP JUMPDEST PUSH1 0x20 DUP1 DUP3 MSTORE DUP3 MLOAD PUSH1 0x1 PUSH1 0x1 PUSH1 0xA0 SHL SUB AND DUP3 DUP3 ADD MSTORE DUP3 ADD MLOAD PUSH1 0xA0 PUSH1 0x40 DUP4 ADD MSTORE PUSH1 0x0 SWAP1 PUSH2 0x22E9 PUSH1 0xC0 DUP5 ADD DUP3 PUSH2 0x2145 JUMP JUMPDEST SWAP1 POP PUSH1 0x40 DUP5 ADD MLOAD PUSH1 0x60 DUP5 ADD MSTORE PUSH1 0x60 DUP5 ADD MLOAD ISZERO ISZERO PUSH1 0x80 DUP5 ADD MSTORE PUSH1 0x80 DUP5 ADD MLOAD PUSH1 0xA0 DUP5 ADD MSTORE DUP1 SWAP2 POP POP SWAP3 SWAP2 POP POP JUMP JUMPDEST PUSH1 0x1 PUSH1 0x1 PUSH1 0xA0 SHL SUB SWAP2 SWAP1 SWAP2 AND DUP2 MSTORE PUSH1 0x20 ADD SWAP1 JUMP JUMPDEST PUSH1 0x0 DUP1 PUSH1 0x0 PUSH1 0x60 DUP5 DUP7 SUB SLT ISZERO PUSH2 0x233E JUMPI PUSH1 0x0 DUP1 REVERT JUMPDEST PUSH2 0x2347 DUP5 PUSH2 0x1FC2 JUMP JUMPDEST SWAP3 POP PUSH1 0x20 DUP5 ADD CALLDATALOAD PUSH1 0x1 PUSH1 0x1 PUSH1 0x40 SHL SUB DUP2 GT ISZERO PUSH2 0x2362 JUMPI PUSH1 0x0 DUP1 REVERT JUMPDEST DUP5 ADD PUSH1 0x1F DUP2 ADD DUP7 SGT PUSH2 0x2373 JUMPI PUSH1 0x0 DUP1 REVERT JUMPDEST DUP1 CALLDATALOAD PUSH1 0x1 PUSH1 0x1 PUSH1 0x40 SHL SUB DUP2 GT ISZERO PUSH2 0x238C JUMPI PUSH2 0x238C PUSH2 0x1FDE JUMP JUMPDEST DUP1 PUSH1 0x5 SHL PUSH2 0x239C PUSH1 0x20 DUP3 ADD PUSH2 0x1FF4 JUMP JUMPDEST SWAP2 DUP3 MSTORE PUSH1 0x20 DUP2 DUP5 ADD DUP2 ADD SWAP3 SWAP1 DUP2 ADD SWAP1 DUP10 DUP5 GT ISZERO PUSH2 0x23B8 JUMPI PUSH1 0x0 DUP1 REVERT JUMPDEST PUSH1 0x20 DUP6 ADD SWAP5 POP JUMPDEST DUP4 DUP6 LT ISZERO PUSH2 0x23DE JUMPI DUP5 CALLDATALOAD DUP1 DUP4 MSTORE PUSH1 0x20 SWAP6 DUP7 ADD SWAP6 SWAP1 SWAP4 POP SWAP1 SWAP2 ADD SWAP1 PUSH2 0x23BF JUMP JUMPDEST SWAP7 SWAP10 SWAP7 SWAP9 POP POP POP POP PUSH1 0x40 SWAP5 SWAP1 SWAP5 ADD CALLDATALOAD SWAP4 POP POP POP JUMP JUMPDEST PUSH1 0x0 DUP1 PUSH1 0x40 DUP4 DUP6 SUB SLT ISZERO PUSH2 0x2406 JUMPI PUSH1 0x0 DUP1 REVERT JUMPDEST DUP3 CALLDATALOAD SWAP2 POP PUSH1 0x20 DUP4 ADD CALLDATALOAD PUSH1 0x5 DUP2 LT PUSH2 0x241C JUMPI PUSH1 0x0 DUP1 REVERT JUMPDEST DUP1 SWAP2 POP POP SWAP3 POP SWAP3 SWAP1 POP JUMP JUMPDEST PUSH1 0x0 DUP1 PUSH1 0x0 PUSH1 0x60 DUP5 DUP7 SUB SLT ISZERO PUSH2 0x243C JUMPI PUSH1 0x0 DUP1 REVERT JUMPDEST PUSH2 0x2445 DUP5 PUSH2 0x1FC2 JUMP JUMPDEST SWAP3 POP PUSH2 0x2453 PUSH1 0x20 DUP6 ADD PUSH2 0x1FC2 JUMP JUMPDEST SWAP3 SWAP6 SWAP3 SWAP5 POP POP POP PUSH1 0x40 SWAP2 SWAP1 SWAP2 ADD CALLDATALOAD SWAP1 JUMP JUMPDEST PUSH1 0x20 DUP1 DUP3 MSTORE PUSH1 0x15 SWAP1 DUP3 ADD MSTORE PUSH21 0x149958DBDC9908191BD95CC81B9BDD08195E1A5CDD PUSH1 0x5A SHL PUSH1 0x40 DUP3 ADD MSTORE PUSH1 0x60 ADD SWAP1 JUMP JUMPDEST PUSH1 0x20 DUP1 DUP3 MSTORE PUSH1 0x14 SWAP1 DUP3 ADD MSTORE PUSH20 0x5265636F7264206973206E6F7420616374697665 PUSH1 0x60 SHL PUSH1 0x40 DUP3 ADD MSTORE PUSH1 0x60 ADD SWAP1 JUMP JUMPDEST PUSH1 0x20 DUP1 DUP3 MSTORE PUSH1 0x24 SWAP1 DUP3 ADD MSTORE PUSH32 0x4F6E6C792070617469656E742063616E20706572666F726D2074686973206163 PUSH1 0x40 DUP3 ADD MSTORE PUSH4 0x3A34B7B7 PUSH1 0xE1 SHL PUSH1 0x60 DUP3 ADD MSTORE PUSH1 0x80 ADD SWAP1 JUMP JUMPDEST PUSH1 0x20 DUP1 DUP3 MSTORE PUSH1 0x24 SWAP1 DUP3 ADD MSTORE PUSH32 0x4E6F7420617574686F72697A656420746F206163636573732074686973207265 PUSH1 0x40 DUP3 ADD MSTORE PUSH4 0x18DBDC99 PUSH1 0xE2 SHL PUSH1 0x60 DUP3 ADD MSTORE PUSH1 0x80 ADD SWAP1 JUMP JUMPDEST PUSH1 0x1 DUP2 DUP2 SHR SWAP1 DUP3 AND DUP1 PUSH2 0x255D JUMPI PUSH1 0x7F DUP3 AND SWAP2 POP JUMPDEST PUSH1 0x20 DUP3 LT DUP2 SUB PUSH2 0x257D JUMPI PUSH4 0x4E487B71 PUSH1 0xE0 SHL PUSH1 0x0 MSTORE PUSH1 0x22 PUSH1 0x4 MSTORE PUSH1 0x24 PUSH1 0x0 REVERT JUMPDEST POP SWAP2 SWAP1 POP JUMP JUMPDEST PUSH1 0x20 DUP1 DUP3 MSTORE PUSH1 0x19 SWAP1 DUP3 ADD MSTORE PUSH25 0x4950465320686173682063616E6E6F7420626520656D707479 PUSH1 0x38 SHL PUSH1 0x40 DUP3 ADD MSTORE PUSH1 0x60 ADD SWAP1 JUMP JUMPDEST PUSH4 0x4E487B71 PUSH1 0xE0 SHL PUSH1 0x0 MSTORE PUSH1 0x11 PUSH1 0x4 MSTORE PUSH1 0x24 PUSH1 0x0 REVERT JUMPDEST PUSH1 0x0 PUSH1 0x1 DUP3 ADD PUSH2 0x25DE JUMPI PUSH2 0x25DE PUSH2 0x25B6 JUMP JUMPDEST POP PUSH1 0x1 ADD SWAP1 JUMP JUMPDEST PUSH1 0x1F DUP3 GT ISZERO PUSH2 0x1001 JUMPI DUP1 PUSH1 0x0 MSTORE PUSH1 0x20 PUSH1 0x0 KECCAK256 PUSH1 0x1F DUP5 ADD PUSH1 0x5 SHR DUP2 ADD PUSH1 0x20 DUP6 LT ISZERO PUSH2 0x260C JUMPI POP DUP1 JUMPDEST PUSH1 0x1F DUP5 ADD PUSH1 0x5 SHR DUP3 ADD SWAP2 POP JUMPDEST DUP2 DUP2 LT ISZERO PUSH2 0x262C JUMPI PUSH1 0x0 DUP2 SSTORE PUSH1 0x1 ADD PUSH2 0x2618 JUMP JUMPDEST POP POP POP POP POP JUMP JUMPDEST DUP2 MLOAD PUSH1 0x1 PUSH1 0x1 PUSH1 0x40 SHL SUB DUP2 GT ISZERO PUSH2 0x264C JUMPI PUSH2 0x264C PUSH2 0x1FDE JUMP JUMPDEST PUSH2 0x2660 DUP2 PUSH2 0x265A DUP5 SLOAD PUSH2 0x2549 JUMP JUMPDEST DUP5 PUSH2 0x25E5 JUMP JUMPDEST PUSH1 0x20 PUSH1 0x1F DUP3 GT PUSH1 0x1 DUP2 EQ PUSH2 0x2694 JUMPI PUSH1 0x0 DUP4 ISZERO PUSH2 0x267C JUMPI POP DUP5 DUP3 ADD MLOAD JUMPDEST PUSH1 0x0 NOT PUSH1 0x3 DUP6 SWAP1 SHL SHR NOT AND PUSH1 0x1 DUP5 SWAP1 SHL OR DUP5 SSTORE PUSH2 0x262C JUMP JUMPDEST PUSH1 0x0 DUP5 DUP2 MSTORE PUSH1 0x20 DUP2 KECCAK256 PUSH1 0x1F NOT DUP6 AND SWAP2 JUMPDEST DUP3 DUP2 LT ISZERO PUSH2 0x26C4 JUMPI DUP8 DUP6 ADD MLOAD DUP3 SSTORE PUSH1 0x20 SWAP5 DUP6 ADD SWAP5 PUSH1 0x1 SWAP1 SWAP3 ADD SWAP2 ADD PUSH2 0x26A4 JUMP JUMPDEST POP DUP5 DUP3 LT ISZERO PUSH2 0x26E2 JUMPI DUP7 DUP5 ADD MLOAD PUSH1 0x0 NOT PUSH1 0x3 DUP8 SWAP1 SHL PUSH1 0xF8 AND SHR NOT AND DUP2 SSTORE JUMPDEST POP POP POP POP PUSH1 0x1 SWAP1 DUP2 SHL ADD SWAP1 SSTORE POP JUMP JUMPDEST PUSH1 0x40 DUP2 MSTORE PUSH1 0x0 PUSH2 0x2704 PUSH1 0x40 DUP4 ADD DUP6 PUSH2 0x1EB8 JUMP JUMPDEST SWAP1 POP PUSH2 0xF75 PUSH1 0x20 DUP4 ADD DUP5 PUSH2 0x1EFE JUMP JUMPDEST PUSH1 0x20 DUP1 DUP3 MSTORE PUSH1 0xE SWAP1 DUP3 ADD MSTORE PUSH14 0x139BDD08185D5D1A1BDC9A5E9959 PUSH1 0x92 SHL PUSH1 0x40 DUP3 ADD MSTORE PUSH1 0x60 ADD SWAP1 JUMP JUMPDEST PUSH4 0x4E487B71 PUSH1 0xE0 SHL PUSH1 0x0 MSTORE PUSH1 0x32 PUSH1 0x4 MSTORE PUSH1 0x24 PUSH1 0x0 REVERT JUMPDEST PUSH1 0x40 DUP2 MSTORE PUSH1 0x0 PUSH2 0x2764 PUSH1 0x40 DUP4 ADD DUP6 PUSH2 0x1EB8 JUMP JUMPDEST SWAP1 POP DUP3 PUSH1 0x20 DUP4 ADD MSTORE SWAP4 SWAP3 POP POP POP JUMP JUMPDEST PUSH1 0x20 DUP1 DUP3 MSTORE PUSH1 0xF SWAP1 DUP3 ADD MSTORE PUSH15 0x496E76616C69642061646472657373 PUSH1 0x88 SHL PUSH1 0x40 DUP3 ADD MSTORE PUSH1 0x60 ADD SWAP1 JUMP JUMPDEST DUP1 DUP3 MUL DUP2 ISZERO DUP3 DUP3 DIV DUP5 EQ OR PUSH2 0x572 JUMPI PUSH2 0x572 PUSH2 0x25B6 JUMP JUMPDEST DUP1 DUP3 ADD DUP1 DUP3 GT ISZERO PUSH2 0x572 JUMPI PUSH2 0x572 PUSH2 0x25B6 JUMP INVALID ORIGIN 0xB3 XOR DUP12 PUSH3 0x628AAB 0xF6 MSIZE 0xCE 0xBB 0xAB LT 0xA5 SWAP10 0xB5 CODECOPY 0xBC 0xB0 0xC0 BYTE DUP10 BYTE 0xB2 CALLF 0x7B8B CALLF 0x1571 0x2E XOR 0xD9 SELFDESTRUCT GASLIMIT 0x4D 0xE9 DUP10 0xBD SLT PUSH12 0x6BD404B47EDE75F9E65543E SWAP5 0xE8 0xD2 SLT EXTCALL SWAP14 PUSH30 0xCBB87CA264697066735822122085821004D0BD325CB663E540D5AED94182 COINBASE 0xCB 0xA9 EXTSTATICCALL PUSH7 0x5BD72093C195AC 0xBC 0xE DUP11 PUSH5 0x736F6C6343 STOP ADDMOD 0x1F STOP CALLER "
		},
		"gasEstimates": {
			"creation": {
				"codeDepositCost": "2060000",
				"executionCost": "56674",
				"totalCost": "2116674"
			},
			"external": {
				"DEFAULT_ADMIN_ROLE()": "679",
				"PROVIDER_ROLE()": "infinite",
				"addRecord(string,uint8,string)": "infinite",
				"addRecordByProvider(address,string,uint8,string)": "infinite",
				"authorizeProvider(address)": "infinite",
				"deleteRecord(uint256)": "31155",
				"emergencyContact(address)": "3088",
				"getAccessGrant(address,address)": "infinite",
				"getAuditLogs(uint256)": "infinite",
				"getPatientRecords(address)": "infinite",
				"getRecord(uint256)": "infinite",
				"getRoleAdmin(bytes32)": "2660",
				"getTotalRecords()": "2347",
				"grantAccess(address,uint256[],uint256)": "infinite",
				"grantRole(bytes32,address)": "infinite",
				"hasAccess(address,address,uint256)": "infinite",
				"hasRole(bytes32,address)": "3083",
				"isAuthorizedProvider(address)": "infinite",
				"logAccess(uint256,uint8)": "infinite",
				"owner()": "2744",
				"renounceOwnership()": "infinite",
				"renounceRole(bytes32,address)": "29293",
				"revokeAccess(address)": "28824",
				"revokeProviderAuthorization(address)": "infinite",
				"revokeRole(bytes32,address)": "infinite",
				"setEmergencyContact(address)": "25070",
				"supportsInterface(bytes4)": "437",
				"transferOwnership(address)": "28972",
				"updateRecord(uint256,string,string)": "infinite"
			},
			"internal": {
				"hasGeneralAccess(address,address)": "infinite"
			}
		},
		"methodIdentifiers": {
			"DEFAULT_ADMIN_ROLE()": "a217fddf",
			"PROVIDER_ROLE()": "24c20a34",
			"addRecord(string,uint8,string)": "1b6377b8",
			"addRecordByProvider(address,string,uint8,string)": "0e8dce29",
			"authorizeProvider(address)": "112ea262",
			"deleteRecord(uint256)": "061f9811",
			"emergencyContact(address)": "b4b07a70",
			"getAccessGrant(address,address)": "8b681c7c",
			"getAuditLogs(uint256)": "01b1d324",
			"getPatientRecords(address)": "18bd4847",
			"getRecord(uint256)": "03e9e609",
			"getRoleAdmin(bytes32)": "248a9ca3",
			"getTotalRecords()": "0aeacb5e",
			"grantAccess(address,uint256[],uint256)": "9399e973",
			"grantRole(bytes32,address)": "2f2ff15d",
			"hasAccess(address,address,uint256)": "cf56b4eb",
			"hasRole(bytes32,address)": "91d14854",
			"isAuthorizedProvider(address)": "22770d8e",
			"logAccess(uint256,uint8)": "a02bd29c",
			"owner()": "8da5cb5b",
			"renounceOwnership()": "715018a6",
			"renounceRole(bytes32,address)": "36568abe",
			"revokeAccess(address)": "85e68531",
			"revokeProviderAuthorization(address)": "b9952215",
			"revokeRole(bytes32,address)": "d547741f",
			"setEmergencyContact(address)": "91284a89",
			"supportsInterface(bytes4)": "01ffc9a7",
			"transferOwnership(address)": "f2fde38b",
			"updateRecord(uint256,string,string)": "3812c6a8"
		}
	},
	"abi": [
		{
			"inputs": [],
			"stateMutability": "nonpayable",
			"type": "constructor"
		},
		{
			"inputs": [],
			"name": "AccessControlBadConfirmation",
			"type": "error"
		},
		{
			"inputs": [
				{
					"internalType": "address",
					"name": "account",
					"type": "address"
				},
				{
					"internalType": "bytes32",
					"name": "neededRole",
					"type": "bytes32"
				}
			],
			"name": "AccessControlUnauthorizedAccount",
			"type": "error"
		},
		{
			"inputs": [
				{
					"internalType": "address",
					"name": "owner",
					"type": "address"
				}
			],
			"name": "OwnableInvalidOwner",
			"type": "error"
		},
		{
			"inputs": [
				{
					"internalType": "address",
					"name": "account",
					"type": "address"
				}
			],
			"name": "OwnableUnauthorizedAccount",
			"type": "error"
		},
		{
			"anonymous": false,
			"inputs": [
				{
					"indexed": true,
					"internalType": "address",
					"name": "patient",
					"type": "address"
				},
				{
					"indexed": true,
					"internalType": "address",
					"name": "grantedTo",
					"type": "address"
				},
				{
					"indexed": false,
					"internalType": "uint256",
					"name": "expiryTime",
					"type": "uint256"
				}
			],
			"name": "AccessGranted",
			"type": "event"
		},
		{
			"anonymous": false,
			"inputs": [
				{
					"indexed": true,
					"internalType": "address",
					"name": "patient",
					"type": "address"
				},
				{
					"indexed": true,
					"internalType": "address",
					"name": "revokedFrom",
					"type": "address"
				}
			],
			"name": "AccessRevoked",
			"type": "event"
		},
		{
			"anonymous": false,
			"inputs": [
				{
					"indexed": true,
					"internalType": "address",
					"name": "patient",
					"type": "address"
				},
				{
					"indexed": true,
					"internalType": "address",
					"name": "emergencyContact",
					"type": "address"
				},
				{
					"indexed": false,
					"internalType": "uint256",
					"name": "timestamp",
					"type": "uint256"
				}
			],
			"name": "EmergencyAccessUsed",
			"type": "event"
		},
		{
			"anonymous": false,
			"inputs": [
				{
					"indexed": true,
					"internalType": "address",
					"name": "previousOwner",
					"type": "address"
				},
				{
					"indexed": true,
					"internalType": "address",
					"name": "newOwner",
					"type": "address"
				}
			],
			"name": "OwnershipTransferred",
			"type": "event"
		},
		{
			"anonymous": false,
			"inputs": [
				{
					"indexed": true,
					"internalType": "uint256",
					"name": "recordId",
					"type": "uint256"
				},
				{
					"indexed": true,
					"internalType": "address",
					"name": "accessor",
					"type": "address"
				},
				{
					"indexed": false,
					"internalType": "uint256",
					"name": "timestamp",
					"type": "uint256"
				}
			],
			"name": "RecordAccessed",
			"type": "event"
		},
		{
			"anonymous": false,
			"inputs": [
				{
					"indexed": true,
					"internalType": "uint256",
					"name": "recordId",
					"type": "uint256"
				},
				{
					"indexed": true,
					"internalType": "address",
					"name": "patient",
					"type": "address"
				},
				{
					"indexed": false,
					"internalType": "string",
					"name": "ipfsHash",
					"type": "string"
				},
				{
					"indexed": false,
					"internalType": "enum HealthWallet.RecordType",
					"name": "recordType",
					"type": "uint8"
				}
			],
			"name": "RecordAdded",
			"type": "event"
		},
		{
			"anonymous": false,
			"inputs": [
				{
					"indexed": true,
					"internalType": "uint256",
					"name": "recordId",
					"type": "uint256"
				},
				{
					"indexed": false,
					"internalType": "string",
					"name": "newIpfsHash",
					"type": "string"
				},
				{
					"indexed": false,
					"internalType": "uint256",
					"name": "version",
					"type": "uint256"
				}
			],
			"name": "RecordUpdated",
			"type": "event"
		},
		{
			"anonymous": false,
			"inputs": [
				{
					"indexed": true,
					"internalType": "bytes32",
					"name": "role",
					"type": "bytes32"
				},
				{
					"indexed": true,
					"internalType": "bytes32",
					"name": "previousAdminRole",
					"type": "bytes32"
				},
				{
					"indexed": true,
					"internalType": "bytes32",
					"name": "newAdminRole",
					"type": "bytes32"
				}
			],
			"name": "RoleAdminChanged",
			"type": "event"
		},
		{
			"anonymous": false,
			"inputs": [
				{
					"indexed": true,
					"internalType": "bytes32",
					"name": "role",
					"type": "bytes32"
				},
				{
					"indexed": true,
					"internalType": "address",
					"name": "account",
					"type": "address"
				},
				{
					"indexed": true,
					"internalType": "address",
					"name": "sender",
					"type": "address"
				}
			],
			"name": "RoleGranted",
			"type": "event"
		},
		{
			"anonymous": false,
			"inputs": [
				{
					"indexed": true,
					"internalType": "bytes32",
					"name": "role",
					"type": "bytes32"
				},
				{
					"indexed": true,
					"internalType": "address",
					"name": "account",
					"type": "address"
				},
				{
					"indexed": true,
					"internalType": "address",
					"name": "sender",
					"type": "address"
				}
			],
			"name": "RoleRevoked",
			"type": "event"
		},
		{
			"inputs": [],
			"name": "DEFAULT_ADMIN_ROLE",
			"outputs": [
				{
					"internalType": "bytes32",
					"name": "",
					"type": "bytes32"
				}
			],
			"stateMutability": "view",
			"type": "function"
		},
		{
			"inputs": [],
			"name": "PROVIDER_ROLE",
			"outputs": [
				{
					"internalType": "bytes32",
					"name": "",
					"type": "bytes32"
				}
			],
			"stateMutability": "view",
			"type": "function"
		},
		{
			"inputs": [
				{
					"internalType": "string",
					"name": "_ipfsHash",
					"type": "string"
				},
				{
					"internalType": "enum HealthWallet.RecordType",
					"name": "_recordType",
					"type": "uint8"
				},
				{
					"internalType": "string",
					"name": "_encryptedKey",
					"type": "string"
				}
			],
			"name": "addRecord",
			"outputs": [
				{
					"internalType": "uint256",
					"name": "",
					"type": "uint256"
				}
			],
			"stateMutability": "nonpayable",
			"type": "function"
		},
		{
			"inputs": [
				{
					"internalType": "address",
					"name": "_patientAddress",
					"type": "address"
				},
				{
					"internalType": "string",
					"name": "_ipfsHash",
					"type": "string"
				},
				{
					"internalType": "enum HealthWallet.RecordType",
					"name": "_recordType",
					"type": "uint8"
				},
				{
					"internalType": "string",
					"name": "_encryptedKey",
					"type": "string"
				}
			],
			"name": "addRecordByProvider",
			"outputs": [
				{
					"internalType": "uint256",
					"name": "",
					"type": "uint256"
				}
			],
			"stateMutability": "nonpayable",
			"type": "function"
		},
		{
			"inputs": [
				{
					"internalType": "address",
					"name": "_provider",
					"type": "address"
				}
			],
			"name": "authorizeProvider",
			"outputs": [],
			"stateMutability": "nonpayable",
			"type": "function"
		},
		{
			"inputs": [
				{
					"internalType": "uint256",
					"name": "_recordId",
					"type": "uint256"
				}
			],
			"name": "deleteRecord",
			"outputs": [],
			"stateMutability": "nonpayable",
			"type": "function"
		},
		{
			"inputs": [
				{
					"internalType": "address",
					"name": "",
					"type": "address"
				}
			],
			"name": "emergencyContact",
			"outputs": [
				{
					"internalType": "address",
					"name": "",
					"type": "address"
				}
			],
			"stateMutability": "view",
			"type": "function"
		},
		{
			"inputs": [
				{
					"internalType": "address",
					"name": "_patient",
					"type": "address"
				},
				{
					"internalType": "address",
					"name": "_grantee",
					"type": "address"
				}
			],
			"name": "getAccessGrant",
			"outputs": [
				{
					"components": [
						{
							"internalType": "address",
							"name": "grantedTo",
							"type": "address"
						},
						{
							"internalType": "uint256[]",
							"name": "recordIds",
							"type": "uint256[]"
						},
						{
							"internalType": "uint256",
							"name": "expiryTime",
							"type": "uint256"
						},
						{
							"internalType": "bool",
							"name": "isActive",
							"type": "bool"
						},
						{
							"internalType": "uint256",
							"name": "grantedAt",
							"type": "uint256"
						}
					],
					"internalType": "struct HealthWallet.AccessGrant",
					"name": "",
					"type": "tuple"
				}
			],
			"stateMutability": "view",
			"type": "function"
		},
		{
			"inputs": [
				{
					"internalType": "uint256",
					"name": "_recordId",
					"type": "uint256"
				}
			],
			"name": "getAuditLogs",
			"outputs": [
				{
					"components": [
						{
							"internalType": "address",
							"name": "accessor",
							"type": "address"
						},
						{
							"internalType": "uint256",
							"name": "timestamp",
							"type": "uint256"
						},
						{
							"internalType": "enum HealthWallet.AuditAction",
							"name": "action",
							"type": "uint8"
						}
					],
					"internalType": "struct HealthWallet.AccessLog[]",
					"name": "",
					"type": "tuple[]"
				}
			],
			"stateMutability": "view",
			"type": "function"
		},
		{
			"inputs": [
				{
					"internalType": "address",
					"name": "_patient",
					"type": "address"
				}
			],
			"name": "getPatientRecords",
			"outputs": [
				{
					"internalType": "uint256[]",
					"name": "",
					"type": "uint256[]"
				}
			],
			"stateMutability": "view",
			"type": "function"
		},
		{
			"inputs": [
				{
					"internalType": "uint256",
					"name": "_recordId",
					"type": "uint256"
				}
			],
			"name": "getRecord",
			"outputs": [
				{
					"components": [
						{
							"internalType": "uint256",
							"name": "recordId",
							"type": "uint256"
						},
						{
							"internalType": "address",
							"name": "patientAddress",
							"type": "address"
						},
						{
							"internalType": "string",
							"name": "ipfsHash",
							"type": "string"
						},
						{
							"internalType": "enum HealthWallet.RecordType",
							"name": "recordType",
							"type": "uint8"
						},
						{
							"internalType": "uint256",
							"name": "timestamp",
							"type": "uint256"
						},
						{
							"internalType": "address",
							"name": "issuedBy",
							"type": "address"
						},
						{
							"internalType": "bool",
							"name": "isActive",
							"type": "bool"
						},
						{
							"internalType": "string",
							"name": "encryptedKey",
							"type": "string"
						},
						{
							"internalType": "uint256",
							"name": "version",
							"type": "uint256"
						}
					],
					"internalType": "struct HealthWallet.HealthRecord",
					"name": "",
					"type": "tuple"
				}
			],
			"stateMutability": "view",
			"type": "function"
		},
		{
			"inputs": [
				{
					"internalType": "bytes32",
					"name": "role",
					"type": "bytes32"
				}
			],
			"name": "getRoleAdmin",
			"outputs": [
				{
					"internalType": "bytes32",
					"name": "",
					"type": "bytes32"
				}
			],
			"stateMutability": "view",
			"type": "function"
		},
		{
			"inputs": [],
			"name": "getTotalRecords",
			"outputs": [
				{
					"internalType": "uint256",
					"name": "",
					"type": "uint256"
				}
			],
			"stateMutability": "view",
			"type": "function"
		},
		{
			"inputs": [
				{
					"internalType": "address",
					"name": "_grantee",
					"type": "address"
				},
				{
					"internalType": "uint256[]",
					"name": "_recordIds",
					"type": "uint256[]"
				},
				{
					"internalType": "uint256",
					"name": "_durationInDays",
					"type": "uint256"
				}
			],
			"name": "grantAccess",
			"outputs": [],
			"stateMutability": "nonpayable",
			"type": "function"
		},
		{
			"inputs": [
				{
					"internalType": "bytes32",
					"name": "role",
					"type": "bytes32"
				},
				{
					"internalType": "address",
					"name": "account",
					"type": "address"
				}
			],
			"name": "grantRole",
			"outputs": [],
			"stateMutability": "nonpayable",
			"type": "function"
		},
		{
			"inputs": [
				{
					"internalType": "address",
					"name": "_patient",
					"type": "address"
				},
				{
					"internalType": "address",
					"name": "_requester",
					"type": "address"
				},
				{
					"internalType": "uint256",
					"name": "_recordId",
					"type": "uint256"
				}
			],
			"name": "hasAccess",
			"outputs": [
				{
					"internalType": "bool",
					"name": "",
					"type": "bool"
				}
			],
			"stateMutability": "view",
			"type": "function"
		},
		{
			"inputs": [
				{
					"internalType": "bytes32",
					"name": "role",
					"type": "bytes32"
				},
				{
					"internalType": "address",
					"name": "account",
					"type": "address"
				}
			],
			"name": "hasRole",
			"outputs": [
				{
					"internalType": "bool",
					"name": "",
					"type": "bool"
				}
			],
			"stateMutability": "view",
			"type": "function"
		},
		{
			"inputs": [
				{
					"internalType": "address",
					"name": "_provider",
					"type": "address"
				}
			],
			"name": "isAuthorizedProvider",
			"outputs": [
				{
					"internalType": "bool",
					"name": "",
					"type": "bool"
				}
			],
			"stateMutability": "view",
			"type": "function"
		},
		{
			"inputs": [
				{
					"internalType": "uint256",
					"name": "_recordId",
					"type": "uint256"
				},
				{
					"internalType": "enum HealthWallet.AuditAction",
					"name": "_action",
					"type": "uint8"
				}
			],
			"name": "logAccess",
			"outputs": [],
			"stateMutability": "nonpayable",
			"type": "function"
		},
		{
			"inputs": [],
			"name": "owner",
			"outputs": [
				{
					"internalType": "address",
					"name": "",
					"type": "address"
				}
			],
			"stateMutability": "view",
			"type": "function"
		},
		{
			"inputs": [],
			"name": "renounceOwnership",
			"outputs": [],
			"stateMutability": "nonpayable",
			"type": "function"
		},
		{
			"inputs": [
				{
					"internalType": "bytes32",
					"name": "role",
					"type": "bytes32"
				},
				{
					"internalType": "address",
					"name": "callerConfirmation",
					"type": "address"
				}
			],
			"name": "renounceRole",
			"outputs": [],
			"stateMutability": "nonpayable",
			"type": "function"
		},
		{
			"inputs": [
				{
					"internalType": "address",
					"name": "_grantee",
					"type": "address"
				}
			],
			"name": "revokeAccess",
			"outputs": [],
			"stateMutability": "nonpayable",
			"type": "function"
		},
		{
			"inputs": [
				{
					"internalType": "address",
					"name": "_provider",
					"type": "address"
				}
			],
			"name": "revokeProviderAuthorization",
			"outputs": [],
			"stateMutability": "nonpayable",
			"type": "function"
		},
		{
			"inputs": [
				{
					"internalType": "bytes32",
					"name": "role",
					"type": "bytes32"
				},
				{
					"internalType": "address",
					"name": "account",
					"type": "address"
				}
			],
			"name": "revokeRole",
			"outputs": [],
			"stateMutability": "nonpayable",
			"type": "function"
		},
		{
			"inputs": [
				{
					"internalType": "address",
					"name": "_emergencyContact",
					"type": "address"
				}
			],
			"name": "setEmergencyContact",
			"outputs": [],
			"stateMutability": "nonpayable",
			"type": "function"
		},
		{
			"inputs": [
				{
					"internalType": "bytes4",
					"name": "interfaceId",
					"type": "bytes4"
				}
			],
			"name": "supportsInterface",
			"outputs": [
				{
					"internalType": "bool",
					"name": "",
					"type": "bool"
				}
			],
			"stateMutability": "view",
			"type": "function"
		},
		{
			"inputs": [
				{
					"internalType": "address",
					"name": "newOwner",
					"type": "address"
				}
			],
			"name": "transferOwnership",
			"outputs": [],
			"stateMutability": "nonpayable",
			"type": "function"
		},
		{
			"inputs": [
				{
					"internalType": "uint256",
					"name": "_recordId",
					"type": "uint256"
				},
				{
					"internalType": "string",
					"name": "_newIpfsHash",
					"type": "string"
				},
				{
					"internalType": "string",
					"name": "_newEncryptedKey",
					"type": "string"
				}
			],
			"name": "updateRecord",
			"outputs": [],
			"stateMutability": "nonpayable",
			"type": "function"
		}
	]
}